071999061999999000014023TSALVADOR ALVAREZ RODRIGUEZ                                                 M000000000000000000N
071999061999999000014024TJOSE MANUEL GARCIA FIDALGO                                                 M000000000000000000N
071999061999999000014025TMARIA JESUS GONZALEZ MENENDEZ                                              F000000000000000000N
071999061999999000014026TMANUEL JESUS MENDEZ PEREZ                                                  M000000000000000000N
071999061999999000014027TDANIEL ANGEL DIAZ MENENDEZ                                                 M000000000000000000N
071999061999999000014028TJUAN CARLOS ROZA ALVAREZ                                                   M000000000000000000N
071999061999999000014029TCEFERINO GONZALEZ FERNANDEZ                                                M000000000000000000N
071999061999999000014030TMARIA AURORA FOMBELLA GONZALEZ                                             F000000000000000000N
071999061999999000014031TPABLO JAVIER PRIETO CASO                                                   M000000000000000000N
071999061999999000014032TSERGIO MUÑIZ ARAGON                                                        M000000000000000000N
071999061999999000014033TMIGUEL ANGEL GONZALEZ FERNANDEZ                                            M000000000000000000N
071999061999999000014034TJOSE ANTONIO MELENDEZ MENENDEZ                                             M000000000000000000N
071999061999999000014035TULISES JORGE PEREZ LORENTE                                                 M000000000000000000N
071999061999999000014036TMARIA SONIA FERRERA NEVARES                                                F000000000000000000N
071999061999999000014037TCESAR ADOLFO FERNANDEZ FERNANDEZ                                           M000000000000000000N
071999061999999000014038TMARIA BEGOÑA GONZALEZ GARCIA                                               F000000000000000000N
071999061999999000014039TROSA MARIA GARCIA HEVIA                                                    F000000000000000000N
071999061999999000014040TJUAN MANUEL CORTINA RODRIGUEZ                                              M000000000000000000N
071999061999999000014041TMARCOS CORTINA CORTINA                                                     M000000000000000000N
071999061999999000014042TLAURA RUBIO ALVAREZ                                                        F000000000000000000N
071999061999999000014043TJUAN MANUEL LOPEZ SANTIAGO                                                 M000000000000000000N
071999061999999000014044TMANUEL ANGEL MARTINEZ PEREZ                                                M000000000000000000N
071999061999999000014045TANGEL SANTIAGO IGLESIAS                                                    M000000000000000000N
071999061999999000014046TROSA EMMA COPETE TASCON                                                    F000000000000000000N
071999061999999000014047TANGELES TEJON LLANEZA                                                      F000000000000000000N
071999061999999000014048TRUBEN SANCHEZ VICENTE                                                      M000000000000000000N
071999061999999000014049TJOSE ANTONIO FERNANDEZ MARTINEZ                                            M000000000000000000N
071999061999999000014050TCONSTANTINO MARTINEZ TEJA                                                  M000000000000000000N
071999061999999000014051TJOSE MIGUEL GONZALEZ HOYOS                                                 M000000000000000000N
071999061999999000014052TMANUEL GARCIA GARCIA                                                       M000000000000000000N
071999061999999000014053TANA MARIA PARDO SANCHEZ                                                    F000000000000000000N
071999061999999000014054TJOSE CARLOS RUBIERA TUYA                                                   M000000000000000000N
071999061999999000014055TJOSE LUIS CARMONA GARCIA                                                   M000000000000000000N
071999061999999000014056TMARIA DOLORES ALVAREZ LOPEZ                                                F000000000000000000N
071999061999999000014057TMIGUEL ANGEL ARIAS ALVAREZ                                                 M000000000000000000N
071999061999999000014058TMANUEL ANGEL RUBIO CASAL                                                   M000000000000000000N
071999061999999000014059TMANUEL HERNANDEZ BARRIOS                                                   M000000000000000000N
071999061999999000014060TCESAR CASTAÑO GANCEDO                                                      M000000000000000000N
071999061999999000014061TJULIO ESCALADAS MORAN                                                      M000000000000000000N
071999061999999000014062TXOSE NEL CALDEVILLA VEGA                                                   M000000000000000000N
071999061999999000014063TJAVIER ALONSO FERNANDEZ                                                    M000000000000000000N
071999061999999000014064TOSCAR FERNANDEZ FERNANDEZ                                                  M000000000000000000N
071999061999999000015001TMARIA GUADALUPE VICTORIA DIAZ MARTIN                                       F000000000000000000N
071999061999999000015002TJOSE LUIS BLANCO FERNANDEZ                                                 M000000000000000000N
071999061999999000015003TANTONIO DOMINGUEZ SANCHEZ                                                  M000000000000000000N
071999061999999000015004TJONAS MARTIN MARTIN                                                        M000000000000000000N
071999061999999000015005TAGUSTIN DURAN OSADO                                                        M000000000000000000N
071999061999999000015006TLUIS POLO FERNANDEZ                                                        M000000000000000000N
071999061999999000015007TROBERTO SANCHEZ PEREZ                                                      M000000000000000000N
071999061999999000015008TJOSE MANUEL MORCILLO FERNANDEZ                                             M000000000000000000N
071999061999999000015009TMARIA GUADALUPE PODEROSO BUENO                                             F000000000000000000N
071999061999999000015010TANTONIO POLO SOLANA                                                        M000000000000000000N
071999061999999000015011TCARLOS JAVIER RUIZ DIAZ                                                    M000000000000000000N
071999061999999000015012TPEDRO JOSE CLAVER LUMBRERAS                                                M000000000000000000N
071999061999999000015013TREYES ALVAREZ RAMIRO                                                       F000000000000000000N
071999061999999000015014TBENITO CORCHERO BARRIGA                                                    M000000000000000000N
071999061999999000015015TJOSE MARIA GUTIERREZ DE SANDE                                              M000000000000000000N
071999061999999000015016TPURIFICACION VALADES GOMEZ                                                 F000000000000000000N
071999061999999000015017TEULALIO REY MATILLAS                                                       M000000000000000000N
071999061999999000015018TEMILIO JOSE VACA ALCANTARA                                                 M000000000000000000N
071999061999999000015019TMARIA DEL AMOR BORRERO SALVATIERRA                                         F000000000000000000N
071999061999999000015020TMARCELINO NISO BARATA                                                      M000000000000000000N
071999061999999000015021TBALTASAR LAZARO HERNANDEZ                                                  M000000000000000000N
071999061999999000015022TCARLOS RODRIGUEZ ALBARRAN                                                  M000000000000000000N
071999061999999000015023TMARIA SONIA RUBIO DE CASAS                                                 F000000000000000000N
071999061999999000015024TMARIA INMACULADA CASERO VICTORIO                                           F000000000000000000N
071999061999999000015025TCARLOS GAÑAN GUTIERREZ                                                     M000000000000000000N
071999061999999000015026TVICENTE ORELLANA SIERRA                                                    M000000000000000000N
071999061999999000015027TGABRIEL BERMUDO RODRIGUEZ                                                  M000000000000000000N
071999061999999000015028TFRANCISCO LUMBRERAS MACHACON                                               M000000000000000000N
071999061999999000015029TJOSE CARLOS LUQUE LUQUE                                                    M000000000000000000N
071999061999999000015030TANTONIA VIGARA NIEVEZ                                                      F000000000000000000N
071999061999999000015031TPEDRO SANCHEZ SANCHEZ                                                      M000000000000000000N
071999061999999000015032TPURIFICACION ESTEBAN GARCIA                                                F000000000000000000N
071999061999999000015033TPABLO GONZALVEZ DOMINGUEZ                                                  M000000000000000000N
071999061999999000015034TJOSE ANTONIO LOPEZ RAMOS                                                   M000000000000000000N
071999061999999000015035TJULIO MIGUEL BARROSO LOPEZ                                                 M000000000000000000N
071999061999999000015036TAGAPITO ROSAS SANCHEZ                                                      M000000000000000000N
071999061999999000015037TPAULINO COBOS GORDO                                                        M000000000000000000N
071999061999999000015038TDANIELA CORTIJO AMADO                                                      F000000000000000000N
071999061999999000015039TSEVERIANO BERNARDINO SIERRA                                                M000000000000000000N
071999061999999000015040TJAVIER SANCHEZ FELIX                                                       M000000000000000000N
071999061999999000015041TGEMMA MARIA LARA SANTILLANA                                                F000000000000000000N
071999061999999000015042TDAVID SANCHEZ MACIAS                                                       M000000000000000000N
071999061999999000015043TJUAN JAVIER GARCIA PADILLA                                                 M000000000000000000N
071999061999999000015044TANGEL MONTES MORENO                                                        M000000000000000000N
071999061999999000015045TANA MARIA RODRIGUEZ RAMOS                                                  F000000000000000000N
071999061999999000015046TJOSE ANTONIO PLATERO GRACIA                                                M000000000000000000N
071999061999999000015047TMARIA BELEN CIDONCHA CAÑAMERO                                              F000000000000000000N
071999061999999000015048TLUIS RODRIGO CORDERO                                                       M000000000000000000N
071999061999999000015049TSILVIA ESPADA VIGARA                                                       F000000000000000000N
071999061999999000015050TANA MARIA MUNICIO SANDOVAL                                                 F000000000000000000N
071999061999999000015051TMARIA FLORENTINA HERRERA MARCOS                                            F000000000000000000N
071999061999999000015052TAGUSTIN GARCIA GIL                                                         M000000000000000000N
071999061999999000015053TBIENAVENTURADA PADILLA PADILLA                                             F000000000000000000N
071999061999999000015054TMARIA ESPERANZA ANDRES CARRERO                                             F000000000000000000N
071999061999999000015055TJOSEFA GONZALEZ FERREIRO                                                   F000000000000000000N
071999061999999000015056TJOAQUIN MORCILLO MARTIN                                                    M000000000000000000N
071999061999999000015057TAMALIA JUANES MARTIN-MERAS                                                 F000000000000000000N
071999061999999000015058TMARIA PETRA BARQUERO MACAYO                                                F000000000000000000N
071999061999999000015059TFRANCISCO LUIS VIERA ARANGO                                                M000000000000000000N
071999061999999000015060TFLORENTINO CABALLERO MELCHOR                                               M000000000000000000N
071999061999999000015061TPEDRO LEDO SANCHEZ                                                         M000000000000000000N
071999061999999000015062TFERNANDO JAVIER MUÑOZ JORGE                                                M000000000000000000N
071999061999999000015063TMARIA CARMEN ALONSO FUENTES                                                F000000000000000000N
071999061999999000015064TFRANCISCA PAREJO CIDONCHA                                                  F000000000000000000N
071999061999999000019001TROSA MARIA DIEZ GONZALEZ                                                   F000000000000000000S
071999061999999000019002TJOSE MARIA OBIOLS I GERMA                                                  M000000000000000000S
071999061999999000019003TFRANCISCA SAUQUILLO PEREZ DEL ARCO                                         F000000000000000000S
071999061999999000019004TENRIQUE BARON CRESPO                                                       M000000000000000000S
071999061999999000019005TMARIA DEL CARMEN CERDEIRA MORTERERO                                        F000000000000000000S
071999061999999000019006TCARLOS WESTENDORP Y CABEZA                                                 M000000000000000000S
071999061999999000019007TMANUEL MEDINA ORTEGA                                                       M000000000000000000S
071999061999999000019008TJOSE MARIA MENDILUCE PEREIRO                                               M000000000000000000S
071999061999999000019009TBARBARA DUHRKOP DUHRKOP                                                    F000000000000000000S
071999061999999000019010TPEDRO APARICIO SANCHEZ                                                     M000000000000000000S
071999061999999000019011TLUIS FRANCISCO BERENGUER FUSTER                                            M000000000000000000S
071999061999999000019012TJUAN DE DIOS IZQUIERDO COLLADO                                             M000000000000000000S
071999061999999000019013TMARIA ELENA VALENCIANO MARTINEZ-OROZCO                                     F000000000000000000S
071999061999999000001001TLOYOLA PALACIO VALLE-LERSUNDI                                              F000000000000000000S
071999061999999000001002TJOSE MARIA GIL-ROBLES GIL-DELGADO                                          M000000000000000000S
071999061999999000001003TJOSE GERARDO GALEOTE QUECEDO                                               M000000000000000000S
071999061999999000001004TALEJO VIDAL-QUADRAS ROCA                                                   M000000000000000000S
071999061999999000001005TMARIA DEL CARMEN FRAGA ESTEVEZ                                             F000000000000000000S
071999061999999000001006TMONICA MARIA RIDRUEJO OSTROWSKA                                            F000000000000000000S
071999061999999000001007TTHERESA MARIA ZABELL LUCAS                                                 F000000000000000000S
071999061999999000001008TJOSE MANUEL GARCIA-MARGALLO MARFIL                                         M000000000000000000S
071999061999999000001009TJOSE JAVIER POMES RUIZ                                                     M000000000000000000S
071999061999999000001010TANA ISABEL PALACIO DEL VALLE-DEL LERSUNDI                                  F000000000000000000S
071999061999999000001011TALEJANDRO AGAG LONGO                                                       M000000000000000000S
071999061999999000001012TENCARNACION REDONDO JIMENEZ                                                F000000000000000000S
071999061999999000001013TJUAN OJEDA SANZ                                                            M000000000000000000S
071999061999999000001014TFERNANDO MANUEL FERNADEZ MARTIN                                            M000000000000000000S
071999061999999000001015TJAIME VALDIVIESO DE CUE                                                    M000000000000000000S
071999061999999000001016TJUAN MANUEL FABRA VALLES                                                   M000000000000000000S
071999061999999000001017TMARIA DEL PILAR AYUSO GONZALEZ                                             F000000000000000000S
071999061999999000001018TIÑIGO MENDEZ DE VIGO MONTOJO                                               M000000000000000000S
071999061999999000001019TJOSE IGNACIO SALAFRANCA SANCHEZ-NEYRA                                      M000000000000000000S
071999061999999000001020TMANUEL PEREZ ALVAREZ                                                       M000000000000000000S
071999061999999000001021TCRISTINA GARCIA-ORCOYEN TORNO                                              F000000000000000000S
071999061999999000001022TDANIEL LUIS VARELA SUANZES-CARPEGNA                                        M000000000000000000S
071999061999999000001023TMARIA ANTONIA AVILES PEREA                                                 F000000000000000000S
071999061999999000001024TSALVADOR GARRIGA POLLEDO                                                   M000000000000000000S
071999061999999000001025TCARLOS BARTOLOME RIPOLL I MARTINEZ DE BEDOYA                               M000000000000000000S
071999061999999000001026TJORGE SALVADOR HERNANDEZ MOLLAR                                            M000000000000000000S
071999061999999000001027TCRISTINA GUTIERREZ-CORTINES CORRAL                                         F000000000000000000S
071999061999999000001028TJUAN ANDRES NARANJO ESCOBAR                                                M000000000000000000N
071999061999999000001029TFELIPE CAMISON ASENSIO                                                     M000000000000000000N
071999061999999000001030TMARIA ESTHER HERRANZ GARCIA                                                F000000000000000000N
071999061999999000001031TCRISTINA MAZAS PEREZ OLEAGA                                                F000000000000000000N
071999061999999000001032TJUAN JOSE BAYONA DE PEREGORDO                                              M000000000000000000N
071999061999999000001033TMARCELINO OREJA ARBURUA                                                    M000000000000000000N
071999061999999000001034TJOSE VILLA ABELLO                                                          M000000000000000000N
071999061999999000001035TJOSE MARIA FERRE DE LA PEÑA                                                M000000000000000000N
071999061999999000001036TJUANA BORREGO IZQUIERDO                                                    F000000000000000000N
071999061999999000001037TJOSE MARIA MARTINEZ DE HARO                                                M000000000000000000N
071999061999999000001038TVERONICA MARIA LIPPERHEIDE DE GUZMAN                                       F000000000000000000N
071999061999999000001039TMARIA NIEVES RODRIGUEZ MENGUAL                                             F000000000000000000N
071999061999999000001040TMARIA ISABEL GARCIA BOLTA                                                  F000000000000000000N
071999061999999000001041TJOSE MARIA MORENO GONZALEZ                                                 M000000000000000000N
071999061999999000001042TCRISTINA CASTILLO RIVERA                                                   F000000000000000000N
071999061999999000001043TBELEN UREÑA FERNANDEZ-FONTECHA                                             F000000000000000000N
071999061999999000001044TCATALINA SAN JOSE DE MIGUEL GARCIA                                         F000000000000000000N
071999061999999000001045TEVA MARIA BLANCO ALCALDE                                                   F000000000000000000N
071999061999999000001046TMARIA FRANCISCA FERRER COLOMAR                                             F000000000000000000N
071999061999999000001047TMARIA DE LA LUZ HERNANDEZ CABEZA                                           F000000000000000000N
071999061999999000001048TJACOBO RAMON BELTRAN PEDREIRA                                              M000000000000000000N
071999061999999000001049TELIA ROSARIO PADILLA MUÑOZ                                                 F000000000000000000N
071999061999999000001050TLUCIA FIGAR DE LA CALLE                                                    F000000000000000000N
071999061999999000001051TMARIA EVA NAVARRETE IZQUIERDO                                              F000000000000000000N
071999061999999000001052TMARIA PURIFICACION GIL ANTUNEZ                                             F000000000000000000N
071999061999999000001053TMARIA NIEVES BUENDIA GARCIA                                                F000000000000000000N
071999061999999000001054TDIEGO SANJUANBENITO BONAL                                                  M000000000000000000N
071999061999999000001055TBORJA PASCUAL IRIBARREM                                                    M000000000000000000N
071999061999999000001056TTOMAS MARTIN-PEÑATO ALONSO                                                 M000000000000000000N
071999061999999000001057TALEJANDRO GOMEZ ALONSO                                                     M000000000000000000N
071999061999999000001058TJULIO NAGER ROYO                                                           M000000000000000000N
071999061999999000001059TMARIA PILAR MORENO BOLAÑOZ                                                 F000000000000000000N
071999061999999000001060TJOSE VICENTE MORALES DUSSAC                                                M000000000000000000N
071999061999999000007031TJOXE PERNANDO BARRENA ARZA                                                 M000000000000000000N
071999061999999000007032TREGINA MAIZTEGI ABOITIZ                                                    M000000000000000000N
071999061999999000007033TJOSE MARIA MATANZAS GOROSTIZAGA                                            M000000000000000000N
071999061999999000007034TMIKEL AINGERU ALZUART ZALDAIN                                              M000000000000000000N
071999061999999000007035TJOSU AMEZAGA ALBIZU                                                        M000000000000000000N
071999061999999000007036TPILAR UNCHALO SALABERRIA                                                   F000000000000000000N
071999061999999000007037TANTONIO SENOSIAIN ARTOZQUI                                                 M000000000000000000N
071999061999999000007038TIÑIGO RUDI JIMENEZ                                                         M000000000000000000N
071999061999999000007039TLORENZO ARKOTXA MEABE                                                      M000000000000000000N
071999061999999000007040TIGOR ORTEGA SUNSUNDEGUI                                                    M000000000000000000N
071999061999999000007041TIDOIA ESQUICHABEL BERASATEGUI                                              F000000000000000000N
071999061999999000007042TJOSE AGUSTIN ARRIETA UGARTECHEA                                            M000000000000000000N
071999061999999000007043TJON MAYA SORIA                                                             M000000000000000000N
071999061999999000007044TSIMON LOYOLA ALBIZU                                                        M000000000000000000N
071999061999999000007045TEDUARDO JIMENEZ ORMAECHEA                                                  M000000000000000000N
071999061999999000007046TPEDRO MARIA LANDA FERNANDEZ                                                M000000000000000000N
071999061999999000007047TJOSE MARIA OÑATE PEREZ                                                     M000000000000000000N
071999061999999000007048TPEDRO ROMERO LIZARRAGA                                                     M000000000000000000N
071999061999999000007049TENDIKA GAURROTXENA ARZUBIAGA                                               F000000000000000000N
071999061999999000007050TPATXI LARRAÑAGA LARRAÑAGA                                                  M000000000000000000N
071999061999999000007051TFRANCISCO MARTA BLANCO                                                     M000000000000000000N
071999061999999000007052TIÑIGO ELKORO AYASTUY                                                       M000000000000000000N
071999061999999000007053TMARIO ZUBIAGA GARATE                                                       M000000000000000000N
071999061999999000007054TMARKEL DE MADARIAGA MARCOARTU                                              F000000000000000000N
071999061999999000007055TPABLO ASENSIO MILLAN                                                       M000000000000000000N
071999061999999000007056TJESUS VARELA BARREIRO                                                      M000000000000000000N
071999061999999000007057TLORENA SOMOZA CHAMIZO                                                      F000000000000000000N
071999061999999000007058TMARIA APELLANIZ GARRO                                                      F000000000000000000N
071999061999999000007059TFRANCISCO JAVIER ELORRIAGA PRECIADO                                        M000000000000000000N
071999061999999000007060TMIGUEL ANGEL RESA AJAMIL                                                   M000000000000000000N
071999061999999000007061TJUAN IGNACIO EGUILUZ ABECIA                                                M000000000000000000N
071999061999999000007062TMARCELO ALVAREZ SUAREZ                                                     M000000000000000000N
071999061999999000007063TIZASKUN GASTESI ZUBELDIA                                                   F000000000000000000N
071999061999999000007064TANTONIO ROPERO SANCHEZ                                                     M000000000000000000N
071999061999999000008001TCAMILO NOGUEIRA ROMAN                                                      M000000000000000000S
071999061999999000008002TANTONIO SANTIAGO FERNANDEZ OCA                                             M000000000000000000N
071999061999999000008003TMARIA DO CARME GARCIA NEGRO                                                F000000000000000000N
071999061999999000008004TXESUS MANUEL VEGA BUXAN                                                    M000000000000000000N
071999061999999000008005TMARIA OLAIA FERNANDEZ DAVILA                                               F000000000000000000N
071999061999999000008006TMARTIÑO SANTOS CANOSA                                                      M000000000000000000N
071999061999999000008007TALBERTE XULIO RODRIGUEZ FEIJOO                                             M000000000000000000N
071999061999999000008008TMARGARITA VAZQUEZ VERAS                                                    F000000000000000000N
071999061999999000008009TMANUEL MARIA FERNANDEZ TEIJERO                                             M000000000000000000N
071999061999999000008010TXOSE DIAZ DIAZ                                                             M000000000000000000N
071999061999999000008011TCARMEN MARTINEZ-CORBALAN PUCHE                                             F000000000000000000N
071999061999999000008012TXABIER ABALO COSTA                                                         M000000000000000000N
071999061999999000008013TMARIA TEREIXA DOS ANXOS NOVO ARROJO                                        F000000000000000000N
071999061999999000008014TXESUS ELADIO SEIXO FERNANDEZ                                               M000000000000000000N
071999061999999000008015TANA MARIA RUA SOUTO                                                        F000000000000000000N
071999061999999000008016TFRANCISCO XABIER ALONSO PEREZ                                              M000000000000000000N
071999061999999000008017TANTONIO SANCHEZ RIVERO                                                     M000000000000000000N
071999061999999000008018TJUAN CARLOS BASCUAS JARDON                                                 M000000000000000000N
071999061999999000008019TLAURA TATO FONTAIÑA                                                        F000000000000000000N
071999061999999000008020TEVENCIO FERRERO RODRIGUEZ                                                  M000000000000000000N
071999061999999000008021TIOLANDA GOMIS PARADA                                                       F000000000000000000N
071999061999999000008022TFRANCISCO LUIS RODRIGUEZ GUERREIRO                                         M000000000000000000N
071999061999999000008023TTERESA NAVAZA GONZALEZ                                                     F000000000000000000N
071999061999999000008024TMARIA DOMINGA BRION SANMIGUEL                                              F000000000000000000N
071999061999999000008025TAGUSTIN MALVIDO BROULLON                                                   M000000000000000000N
071999061999999000008026TJOSE RODRIGUEZ CID                                                         M000000000000000000N
071999061999999000008027TXOSE MANUEL FERNANDEZ LOPEZ                                                M000000000000000000N
071999061999999000008028TXOSE MANUEL FERNANDEZ ABRAIDES                                             M000000000000000000N
071999061999999000008029TMARIA MONTSERRAT NOVOA GOMEZ                                               F000000000000000000N
071999061999999000008030TCESAR GUZMAN LOPEZ                                                         M000000000000000000N
071999061999999000008031TFRANCISCO XABIER PAZ CANALEJO                                              M000000000000000000N
071999061999999000008032TROSA ANA PEREZ FERNANDEZ                                                   F000000000000000000N
071999061999999000008033TALEJANDRO SANCHEZ VIDAL                                                    M000000000000000000N
071999061999999000008034TXESUS MENDEZ RODRIGUEZ                                                     M000000000000000000N
071999061999999000008035TADELA LEIRO LOIS                                                           F000000000000000000N
071999061999999000008036TVICTOR MANUEL MARTINEZ CACHARRON                                           M000000000000000000N
071999061999999000008037TMARIA GORETTI SANMARTIN REI                                                F000000000000000000N
071999061999999000008038TLUIS NIETO LOPEZ                                                           M000000000000000000N
071999061999999000008039TXOSE HENRIQUE COSTAS GONZALEZ                                              M000000000000000000N
071999061999999000008040TMARIA DO CARME FERNANDEZ PEREZ-SANJULIAN                                   F000000000000000000N
071999061999999000008041TSONIA DIAZ IGLESIAS                                                        F000000000000000000N
071999061999999000008042TXABIER VENCE DEZA                                                          M000000000000000000N
071999061999999000008043TMANUEL CABALEIRO FABEIRO                                                   M000000000000000000N
071999061999999000008044TGONZALO JESUS MARIA DE LUCAS LEMA                                          M000000000000000000N
071999061999999000008045TCECILIA PEREZ ORGE                                                         F000000000000000000N
071999061999999000008046TFERNANDO LORENZO GONZALEZ                                                  M000000000000000000N
071999061999999000008047TXOSE MANUEL CID FERNANDEZ                                                  M000000000000000000N
071999061999999000008048TMARCELINO VIDAL GARCIA                                                     M000000000000000000N
071999061999999000008049TDUARTE CORREA PIÑEIRO                                                      M000000000000000000N
071999061999999000008050TXOSE LOIS SOTELO GOYANES                                                   M000000000000000000N
071999061999999000008051TJESUS LANTES VITUREIRA                                                     M000000000000000000N
071999061999999000008052TMANUEL CONDE GOMEZ                                                         M000000000000000000N
071999061999999000008053TCELSO COLORET PORTELA                                                      M000000000000000000N
071999061999999000008054TALFREDO FERNANDEZ RODRIGUEZ                                                M000000000000000000N
071999061999999000008055TFRANCISCO MARTIN CHIVITE MOSQUERA                                          M000000000000000000N
071999061999999000008056TMANUEL DOCAMPO PARADELO                                                    M000000000000000000N
071999061999999000008057TFRANCISCO PILLADO MAYOR                                                    M000000000000000000N
071999061999999000008058TMANUEL ANXO FREIRE RODRIGUEZ                                               M000000000000000000N
071999061999999000008059TMARIA LUISA SABIO MOROÑO                                                   F000000000000000000N
071999061999999000008060TISABEL CLARA FERNANDEZ CID                                                 F000000000000000000N
071999061999999000008061TMONICA VELASCO PEREZ                                                       F000000000000000000N
071999061999999000008062TMARIA TERESA PAZ FRANCO                                                    F000000000000000000N
071999061999999000008063TALFREDO BENIGNO GONZALEZ GARCIA                                            M000000000000000000N
071999061999999000008064TVICTOR VAQUEIRO FOXO                                                       M000000000000000000N
071999061999999000014001TLUIS ALBERTO SANCHEZ SUAREZ                                                M000000000000000000N
071999061999999000014002TISMAEL CALDEVILLA VEGA                                                     M000000000000000000N
071999061999999000014003TJOSE MANUEL GOMEZ-CORNEJO BALBUENA                                         M000000000000000000N
071999061999999000014004TADRIANA DOLORES PEÑA MUIÑOS                                                F000000000000000000N
071999061999999000014005TOLIVERIO ALVAREZ ALONSO                                                    M000000000000000000N
071999061999999000014006THORACIO MENDEZ ANTUÑA                                                      M000000000000000000N
071999061999999000014007TXULIO CESAR VIGIL PARAJON                                                  M000000000000000000N
071999061999999000014008TALFONSO EDUARDO VIEJO RIERA                                                M000000000000000000N
071999061999999000014009TMANUEL PEREZ IGLESIAS                                                      M000000000000000000N
071999061999999000014010TLUIS GARCIA ALVAREZ                                                        M000000000000000000N
071999061999999000014011TAQUILINO FERNANDEZ ABULEZ                                                  M000000000000000000N
071999061999999000014012TRUBEN TORNIN MONTES                                                        M000000000000000000N
071999061999999000014013TALBERTO DOMINGO AREVALO MURCIEGO                                           M000000000000000000N
071999061999999000014014TFRANCISCO RUA PEREZ                                                        M000000000000000000N
071999061999999000014015TMARCELINO LOREDO ALONSO                                                    M000000000000000000N
071999061999999000014016TPEDRO IGNACIO OTADUY PLATAS                                                M000000000000000000N
071999061999999000014017TVERONICA MARIA TRABANCO MARTINEZ                                           F000000000000000000N
071999061999999000014018TJESUS REVUELTA FERNANDEZ                                                   M000000000000000000N
071999061999999000014019TXILBERTO LLANO CAELLES                                                     M000000000000000000N
071999061999999000014020TMANUEL FERNANDEZ GANCEDO                                                   M000000000000000000N
071999061999999000014021TFERNANDO IGLESIAS GONZALEZ                                                 M000000000000000000N
071999061999999000014022TMANUEL ANGEL IGLESIAS MARTINEZ                                             M000000000000000000N
071999061999999000125037TMARGARITA VILLALON ROBLES                                                  F000000000000000000N
071999061999999000125038TJOSE LUIS DIAZ RUBIO                                                       M000000000000000000N
071999061999999000125039TBEATRIZ TRANCHE ROBLES                                                     F000000000000000000N
071999061999999000125040TDAVID FOUZ BENITO                                                          M000000000000000000N
071999061999999000125041TDAVID BERNCIANO CHANA                                                      M000000000000000000N
071999061999999000125042TBALTASAR CABERO PRIETO                                                     M000000000000000000N
071999061999999000125043TSENADOR GONZALEZ PUENTE                                                    M000000000000000000N
071999061999999000125044TVALENTIN ALVAREZ CARBALLIDO                                                M000000000000000000N
071999061999999000125045TJOSE MARIA MAYO SANCHEZ                                                    M000000000000000000N
071999061999999000125046TRAUL ORDOÑEZ FERNANDEZ                                                     M000000000000000000N
071999061999999000125047TFRANCISCO XABIERE GOMEZ GARCIA                                             M000000000000000000N
071999061999999000125048TMANUEL ANGEL GONZALEZ DOMINGUEZ                                            M000000000000000000N
071999061999999000125049TMIGUEL ALVARO CAMPO DIEGUEZ                                                M000000000000000000N
071999061999999000125050TANGEL BLANCO DIEZ                                                          M000000000000000000N
071999061999999000125051TAGUSTIN GONZALEZ GARCIA                                                    M000000000000000000N
071999061999999000125052TANDRES DIEZ SANTOS                                                         M000000000000000000N
071999061999999000125053TANGEL GONZALEZ GARCIA                                                      M000000000000000000N
071999061999999000125054TCONSTANTINO ORNIA MARTINEZ                                                 M000000000000000000N
071999061999999000125055TJOSE JAVIER SUAREZ FERNANDEZ                                               M000000000000000000N
071999061999999000125056TMANUEL GONZALEZ LOPEZ                                                      M000000000000000000N
071999061999999000125057TRUBEN SILVA IGLESIAS                                                       M000000000000000000N
071999061999999000125058TJOSE ANTONIO AMIGO MAGADAN                                                 M000000000000000000N
071999061999999000125059TDAVIDE FERNANDEZ BLANCO                                                    M000000000000000000N
071999061999999000125060TJOSE VALENTINO JUAN FRANCO                                                 M000000000000000000N
071999061999999000125061TARSENIO SUAREZ ALONSO                                                      M000000000000000000N
071999061999999000125062TROGELIO RIVERO TASCON                                                      M000000000000000000N
071999061999999000125063TSANTIAGO VALLE ABAD                                                        M000000000000000000N
071999061999999000125064TAMABILIO CARCEDO GONZALEZ                                                  M000000000000000000N
071999061999999000127001TJAVIER BOSCH I GARCIA                                                      M000000000000000000N
071999061999999000127002TJORDI VERA I ARUS                                                          M000000000000000000N
071999061999999000127003TDANIEL BETORET I VIDAL                                                     M000000000000000000N
071999061999999000127004TJOSEP COSTA I ROSELLO                                                      M000000000000000000N
071999061999999000127005TFERRAN POUDEVIDA I VIVES                                                   M000000000000000000N
071999061999999000127006TFREDERIC PUJOLA I MAS                                                      M000000000000000000N
071999061999999000127007TENCARNA MIRABET I SANCHEZ                                                  F000000000000000000N
071999061999999000127008TJOAN MIR I OBRADOR                                                         M000000000000000000N
071999061999999000019014TCARLOS CARNERO GONZALEZ                                                    M000000000000000000S
071999061999999000019015TMARIA IZQUIERDO ROJO                                                       F000000000000000000S
071999061999999000019016TALEJANDRO CERCAS ALONSO                                                    M000000000000000000S
071999061999999000019017TJOAN COLOM I NAVAL                                                         M000000000000000000S
071999061999999000019018TMARIA RODRIGUEZ RAMOS                                                      F000000000000000000S
071999061999999000019019TMIGUEL ANGEL MARTINEZ MARTINEZ                                             M000000000000000000S
071999061999999000019020TMARIA SORNOSA MARTINEZ                                                     F000000000000000000S
071999061999999000019021TFERNANDO PEREZ ROYO                                                        M000000000000000000S
071999061999999000019022TANA TERRON CUSI                                                            F000000000000000000S
071999061999999000019023TEMILIO MENENDEZ DEL VALLE                                                  M000000000000000000S
071999061999999000019024TROSA MARIA MIGUELEZ RAMOS                                                  F000000000000000000S
071999061999999000019025TANA CLARA MARIA MIRANDA DE LAGE                                            F000000000000000000N
071999061999999000019026TMARIA DEL CARMEN ORTIZ RIVAS                                               F000000000000000000N
071999061999999000019027TCRISTINA SORIANO GIL                                                       F000000000000000000N
071999061999999000019028TLUIS MARCO AGUIRIANO NALDA                                                 M000000000000000000N
071999061999999000019029TMARIA TERESA NOGUERA MONTAGUD                                              F000000000000000000N
071999061999999000019030TJUAN ANTONIO BARRIO DE PENAGOS                                             M000000000000000000N
071999061999999000019031TPABLO ANGEL SOLANILLA FRANCO                                               M000000000000000000N
071999061999999000019032TMARIA LIDON AGOST ESTEVE                                                   F000000000000000000N
071999061999999000019033TNURIA BOZZO I DURAN                                                        F000000000000000000N
071999061999999000019034TCONCEPCION BARRERA FUERTES                                                 F000000000000000000N
071999061999999000019035TMARIA TERESA NIEVES OTI                                                    F000000000000000000N
071999061999999000019036TANTONIA MAYOL FLORIT                                                       F000000000000000000N
071999061999999000019037TJUAN MOSCOSO DEL PRADO HERNANDEZ                                           M000000000000000000N
071999061999999000019038TVICTOR HERRERO ESCRICH                                                     M000000000000000000N
071999061999999000019039TEMILIO CARRERA GONZALEZ                                                    M000000000000000000N
071999061999999000019040TNURIA SEGU FERRE                                                           F000000000000000000N
071999061999999000019041TMARIA DE LA MERCED HERNANDO MURIEL                                         F000000000000000000N
071999061999999000019042TFRANCISCO JAVIER LEDESMA BARTRET                                           M000000000000000000N
071999061999999000019043TVIRGINIA BARCONES SANZ                                                     F000000000000000000N
071999061999999000019044TFELIX GARCIA CASTAÑEDA                                                     M000000000000000000N
071999061999999000019045TMANUELA MUSEROS MARMANEU                                                   F000000000000000000N
071999061999999000019046TFRANÇOISE HENRIETTE THESIN ALLEMAN                                         F000000000000000000N
071999061999999000019047TMARIA GLORIA LOZANO TRUJILLO                                               F000000000000000000N
071999061999999000019048TLAURA CARMEN SEARA SOBRADO                                                 F000000000000000000N
071999061999999000019049TLORENZO GUIRAO SANCHEZ                                                     M000000000000000000N
071999061999999000019050TMARIA CONCEPCION CHAVERO CARRIZOSA                                         F000000000000000000N
071999061999999000019051TLAURA GIL GONZALEZ                                                         F000000000000000000N
071999061999999000019052TJOSE ANTONIO SEBASTIAN RUIZ                                                M000000000000000000N
071999061999999000019053TPEDRO MIRANDA ROMERO                                                       M000000000000000000N
071999061999999000019054TELIGIO HERNADEZ GUTIERREZ                                                  M000000000000000000N
071999061999999000019055TMARIA ISABEL ALVAREZ PEREZ                                                 F000000000000000000N
071999061999999000019056TJOAN TERRE BOLIART                                                         M000000000000000000N
071999061999999000019057TLUCIA ALVAREZ GARCIA                                                       F000000000000000000N
071999061999999000019058TJONATHAN PEREZ MORENO                                                      M000000000000000000N
071999061999999000019059TINMACULADA GARCIA CAMARA                                                   F000000000000000000N
071999061999999000019060TMARCELA DEL CARMEN PRADENAS TORO                                           F000000000000000000N
071999061999999000019061TMARIA CONSUELO PRADOS MARTINEZ                                             F000000000000000000N
071999061999999000019062TVICENTE JOSE INGLADA ALCAIDE                                               M000000000000000000N
071999061999999000019063TSONIA ZURERA LOPEZ                                                         F000000000000000000N
071999061999999000019064TRAMON VILARASAU  SALLES                                                    M000000000000000000N
071999061999999000032047TMARIA ISABEL PEREZ GALLARDO                                                F000000000000000000N
071999061999999000032048TJOSE LUIS GOMEZ PLACITO CARRERO                                            M000000000000000000N
071999061999999000032049TITZIAR CALLEJA KEMPIN                                                      F000000000000000000N
071999061999999000032050TMAXIMILIANO ELEGIDO GONZALEZ QUEVEDO                                       M000000000000000000N
071999061999999000032051TVERONICA ESTHER SIMON CASADO                                               F000000000000000000N
071999061999999000032052TRUBEN MENCIA GUTIERREZ                                                     M000000000000000000N
071999061999999000032053TJULIO JOSE ALBERTOS DE CEANO VIVAS                                         M000000000000000000N
071999061999999000032054TBEATRIZ GARCIA HERNANDEZ                                                   F000000000000000000N
071999061999999000032055TFERNANDO JAVIER PUERTA ANDRES                                              M000000000000000000N
071999061999999000032056TMARIA ROSA MERA BANDE                                                      F000000000000000000N
071999061999999000032057TARTURO VILORIA FUENTEZ                                                     M000000000000000000N
071999061999999000032058TMARIA LUISA GONZALEZ GALEANO                                               F000000000000000000N
071999061999999000032059TALBERTO RAFAEL SANCHEZ MUÑIZ                                               M000000000000000000N
071999061999999000032060TMARIA ALICIA ALEJANDRE LORENZO                                             F000000000000000000N
071999061999999000032061TJOSE ANTONIO DIAZ ZABALO                                                   M000000000000000000N
071999061999999000032062TROSA MARIA OLMO BLAS                                                       F000000000000000000N
071999061999999000032063TFRANCISCO ALVAREZ EGURROLA                                                 M000000000000000000N
071999061999999000032064TMARIA ELENA BARRIO RECIO                                                   F000000000000000000N
071999061999999000032001TTEODORO RAFAEL DE LA RUBIA MORENO-SIERRA                                   M000000000000000000N
071999061999999000032002TMARIA CARMEN JIMENEZ SILES                                                 F000000000000000000N
071999061999999000032003TMARIA ANTONIA SANZ ROMERA                                                  F000000000000000000N
071999061999999000032004TFRANCISCO JAVIER CAMBRA TRIANO                                             M000000000000000000N
071999061999999000032005TESTHER GRANDA CACERES                                                      F000000000000000000N
071999061999999000032006TAFRICA MARTINEZ NOGUERA                                                    F000000000000000000N
071999061999999000032007TMARIA FERNANDEZ ROLDAN                                                     F000000000000000000N
071999061999999000032008TLUIS SILVA GARCIA                                                          M000000000000000000N
071999061999999000032009TJESUS GARCIA GARCIA                                                        M000000000000000000N
071999061999999000032010TLUIS CARLOS MARTIN VILANOVA                                                M000000000000000000N
071999061999999000032011TMARIA LUISA GABALDON MAROTO                                                F000000000000000000N
071999061999999000032012TJOSEFA ROBLES GARRIDO                                                      F000000000000000000N
071999061999999000032013THUGO FERMIN RODRIGUEZ GHIARA                                               M000000000000000000N
071999061999999000032014TPABLO SERRA MAJADAS                                                        M000000000000000000N
071999061999999000032015TANA MARIA CRESPO QUEVEDO                                                   F000000000000000000N
071999061999999000032016TANGELES GONZALEZ MORALEJO MONTORO                                          F000000000000000000N
071999061999999000032017TBERNANDO SAMANIEGO GOMEZ                                                   M000000000000000000N
071999061999999000032018TJEAN JACQUES SERRE GAUCI                                                   M000000000000000000N
071999061999999000032019TSERAFINA SANCHEZ PIZARRO                                                   F000000000000000000N
071999061999999000032020TBEATRIZ PALANCA REYEZ                                                      F000000000000000000N
071999061999999000032021TJESUS FERNANDEZ RODRIGUEZ ROIZ                                             M000000000000000000N
071999061999999000032022TJUANA PEREZ MONTERO                                                        F000000000000000000N
071999061999999000032023TJUAN DE LA TORRE AULADELL                                                  M000000000000000000N
071999061999999000032024TJUAN CARLOS MORENO BLANCO                                                  M000000000000000000N
071999061999999000032025TJOAQUIN PABLO SEGADO BIXQUERT                                              M000000000000000000N
071999061999999000032026TSUSANA MARIA RUBIO NOMBLOT                                                 F000000000000000000N
071999061999999000032027THERNAN FRANCISCO REYES MATUS                                               M000000000000000000N
071999061999999000032028TJOSE MANUEL MUÑOZ FELIPE                                                   M000000000000000000N
071999061999999000032029TCRISTINA FELICISIMA ESTEVEZ LLORENTE                                       F000000000000000000N
071999061999999000032030TMANUEL HIDALGO GONZALEZ                                                    M000000000000000000N
071999061999999000032031TMARIA DEL SAGRARIO TEJEDOR TEJEDOR                                         F000000000000000000N
071999061999999000032032TANGELICA DEL CARMEN ARCE CABRERA                                           F000000000000000000N
071999061999999000032033TJOSE IGNACIO MARTINEZ GARCIA                                               M000000000000000000N
071999061999999000032034TENCARNACION ESCRIBANO MARTINEZ                                             F000000000000000000N
071999061999999000032035TCARLOS DEL POZO PAEZ                                                       M000000000000000000N
071999061999999000032036TESTHER GLORIA LEON DELGADO                                                 F000000000000000000N
071999061999999000032037TJULIAN FERNANDEZ RABADAN                                                   M000000000000000000N
071999061999999000032038TAURELIO CARRETERO BRAVO                                                    M000000000000000000N
071999061999999000032039TIRENE BEATRIZ MONTEMURRO SALCEDO                                           F000000000000000000N
071999061999999000032040TJESUS ARGUEDAS RIZZO                                                       M000000000000000000N
071999061999999000032041TMARIA DEL PILAR JUSDADO ARRANZ                                             F000000000000000000N
071999061999999000032042TJAVIER VILAPLANA POTTECHER                                                 M000000000000000000N
071999061999999000032043TMARIA PAZ RODRIGUEZ MUÑOZ                                                  F000000000000000000N
071999061999999000032044TMARIA DEL CARMEN RUBIO LOZANO                                              F000000000000000000N
071999061999999000032045TPEDRO PABLO MARTIN HERNANDEZ                                               M000000000000000000N
071999061999999000032046TEDUARDO GOZALO GONZALEZ                                                    M000000000000000000N
071999061999999000038001TJOSE MANUEL NOVO RODRIGUEZ                                                 M000000000000000000N
071999061999999000038002TJUAN MANUEL PINA MERIDA                                                    M000000000000000000N
071999061999999000038003TRAFAEÑ ROMERO URIBE                                                        M000000000000000000N
071999061999999000038004TRAFAEL TAIBO CARBALLO                                                      M000000000000000000N
071999061999999000038005TCARLOS MANUEL BEMCOMO MENDOZA                                              M000000000000000000N
071999061999999000038006TJOSE JAIME ALVAREZ PLAZA                                                   M000000000000000000N
071999061999999000038007TLUIS RODRIGUEZ SAN LEON                                                    M000000000000000000N
071999061999999000038008TEDUARDO SASTRE GARZON                                                      M000000000000000000N
071999061999999000038009TMARIA TERESA ESQUILECHEZ VAZQUEZ                                           F000000000000000000N
071999061999999000038010TJUAN FRANCISCO VALLS BROTONS                                               M000000000000000000N
071999061999999000038011TJOSE FERNANDEZ BUENDIA                                                     M000000000000000000N
071999061999999000038012TFERNANDA VALLADO ALONSO                                                    F000000000000000000N
071999061999999000038013TISMAEL SANZ LABRADOR                                                       M000000000000000000N
071999061999999000038014TMARIA DEL CAMINO MAGRO FERNANDEZ                                           F000000000000000000N
071999061999999000038015TALFONSO BLANCO OJEDA                                                       M000000000000000000N
071999061999999000038016TFRANCISCO JESUS ALVEDRO LOPEZ                                              M000000000000000000N
071999061999999000038017TB.EDUARDO HERRERO LAINEZ                                                   M000000000000000000N
071999061999999000038018TJESUS VAZQUEZ BELLO                                                        M000000000000000000N
071999061999999000038019TJAVIER ALVAREZ PEON                                                        M000000000000000000N
071999061999999000038020TANA ELENA MARIN LOPEZ                                                      F000000000000000000N
071999061999999000038021TCANDIDO ALONSO ARMADA                                                      M000000000000000000N
071999061999999000038022TPEDRO ANTONIO GARCIA-GIL PEREYRA                                           M000000000000000000N
071999061999999000038023TVICENTE JAVIER ABAD GALVEZ                                                 M000000000000000000N
071999061999999000038024TJOSE RAMON ESPINA BLANCO                                                   M000000000000000000N
071999061999999000038025TMARIA DE LAS MERCEDES RAMOS CARABIAS                                       F000000000000000000N
071999061999999000038026TJOSE ALBERTO MUIÑOS GOMEZ-CAMACHO                                          M000000000000000000N
071999061999999000038027TLIRIA LAMIEL PUERTO                                                        F000000000000000000N
071999061999999000038028TJAIME RODRIGUEZ ALVAREZ                                                    M000000000000000000N
071999061999999000038029TANTONIO RAMIREZ PEREZ                                                      M000000000000000000N
071999061999999000038030TANGEL MARIA VECINO MOLINA                                                  M000000000000000000N
071999061999999000001061TESTEFANIA JOSEFA GARCIA RODRIGUEZ                                          F000000000000000000N
071999061999999000001062TEMILIANO ALONSO PELEGRIN                                                   M000000000000000000N
071999061999999000001063TJUAN JOSE BERNAL ORTIZ                                                     M000000000000000000N
071999061999999000001064TFELIX VELASCO CARRERA                                                      M000000000000000000N
071999061999999000004001TPERE ESTEVE I ABAD                                                         M000000000000000000S
071999061999999000004002TCONCEPCIO FERRER I CASALS                                                  F000000000000000000S
071999061999999000004003TCARLES ALFRED GASOLIBA BOHM                                                M000000000000000000S
071999061999999000004004TJOAN VALLVE I RIBERA                                                       M000000000000000000N
071999061999999000004005TENRIC XAVIER MORERA I CATALA                                               M000000000000000000N
071999061999999000004006TMIQUEL ANGEL MAS I COLOM                                                   M000000000000000000N
071999061999999000004007TSALVADOR SEDO I ALABART                                                    M000000000000000000N
071999061999999000004008TEDUARD SAGARRA I TRIAS                                                     M000000000000000000N
071999061999999000004009TMARC GUERRERO I TARRAGO                                                    M000000000000000000N
071999061999999000004010TJOAN PLANES                                                                M000000000000000000N
071999061999999000004011TROSA PRUNA I ESTEVE                                                        F000000000000000000N
071999061999999000004012TIGNASI JOANIQUET I SIRVENT                                                 M000000000000000000N
071999061999999000004013TMARIA DEL MAR ESPAR I ALMEDA                                               M000000000000000000N
071999061999999000004014TISABEL GALOBARDES I MENDOZA                                                F000000000000000000N
071999061999999000004015TJOSEP SANTAMARIA I OLLER                                                   M000000000000000000N
071999061999999000004016TMERCE PANIKER I ALEMANY                                                    F000000000000000000N
071999061999999000004017TFRANCESC SANCHEZ I SERENA                                                  M000000000000000000N
071999061999999000004018TNATALIA MOLERO I LLORET                                                    F000000000000000000N
071999061999999000004019TJOSEP ROIG I SERRA                                                         M000000000000000000N
071999061999999000004020TJOAQUIM MILLAN I ALEGRET                                                   M000000000000000000N
071999061999999000004021TELISA MARCO I MARCOS                                                       F000000000000000000N
071999061999999000004022TJOSEP ALFONS LLORENS I GADEA                                               M000000000000000000N
071999061999999000004023TFRANCESC SANTASUSAMA I RIERA                                               M000000000000000000N
071999061999999000004024TCARME TORRES I GRAELL                                                      F000000000000000000N
071999061999999000004025TCARME BORBONES I BRESCO                                                    F000000000000000000N
071999061999999000004026TGUILLEM PUGET I ACEBO                                                      M000000000000000000N
071999061999999000004027TPILAR JOVE I BACARDI                                                       F000000000000000000N
071999061999999000004028TERIK BERTAUD-NEIRAUD I CHABAN DELMAS                                       M000000000000000000N
071999061999999000004029TSUSANA SOLA I ESCOBAR                                                      F000000000000000000N
071999061999999000004030TROSA MASSEGOSA I PERXES                                                    F000000000000000000N
071999061999999000004031TALICIA GRANADOS I NAVARRETE                                                F000000000000000000N
071999061999999000004032TDAVID KENNEDY                                                              M000000000000000000N
071999061999999000004033TMONTSERRAT LOYOLA I BONET                                                  F000000000000000000N
071999061999999000004034TIOLANDA GARCOA I LLANTA                                                    F000000000000000000N
071999061999999000004035TANTONI QUINTEIRO I JUNCOSA                                                 M000000000000000000N
071999061999999000004036TCARME BENAGES I CORT                                                       F000000000000000000N
071999061999999000004037TMARIA ANGELS PONS I SUBIRANA                                               F000000000000000000N
071999061999999000004038TMARINA CRESPI I GOMEZ                                                      F000000000000000000N
071999061999999000004039TJOSEP M.DAUSA I CROSAS                                                     M000000000000000000N
071999061999999000004040TALVAR BARTOLOME I ESTEVEZ                                                  M000000000000000000N
071999061999999000004041TALEX MAÑE I MAGRI                                                          M000000000000000000N
071999061999999000004042TPERE TORRES I GRAU                                                         M000000000000000000N
071999061999999000004043TLLUISA PARRA I VERCHER                                                     F000000000000000000N
071999061999999000004044TJOAN CAPDEVILLA I ESTEVE                                                   M000000000000000000N
071999061999999000004045TANNA RUANO I PALOU                                                         F000000000000000000N
071999061999999000004046TJOSEP FRANCESC NOGUES I QUIJAL                                             M000000000000000000N
071999061999999000004047TMOISES BROGGI I VALLESS                                                    M000000000000000000N
071999061999999000004048TROSER MALARET I VITALES                                                    F000000000000000000N
071999061999999000004049TARCADI CALZADA  I SALAVEDRA                                                M000000000000000000N
071999061999999000004050TFERRAN MARTINEZ I GARRIGA                                                  M000000000000000000N
071999061999999000004051TJORDI VILLACAMPA I AMOROS                                                  M000000000000000000N
071999061999999000004052TJOAN TARRES I MARBA                                                        M000000000000000000N
071999061999999000004053TSALVADOR SERVIA I COSTA                                                    M000000000000000000N
071999061999999000004054TJAUME PADROS I SELMA                                                       M000000000000000000N
071999061999999000004055TJORDI TARRES I SANCHEZ                                                     M000000000000000000N
071999061999999000004056TMONTSERRAT RUIZ I MARGALEF                                                 F000000000000000000N
071999061999999000004057TAGUSTI CONTIJOCH I MESTRES                                                 M000000000000000000N
071999061999999000004058TJOAN GUITART I AGELL                                                       M000000000000000000N
071999061999999000004059TJOSEP LAPORTE I SALAS                                                      M000000000000000000N
071999061999999000004060TGUILLEM ARESTE I LLUCH                                                     M000000000000000000N
071999061999999000004061TJAVIER GONZALEZ I URRUTICOECHEA                                            M000000000000000000N
071999061999999000004062TCARLES REXACH I SERDA                                                      M000000000000000000N
071999061999999000004063TANTONI BAYES DE LUNA                                                       M000000000000000000N
071999061999999000004064TMIQUEL ROCA I JUNYENT                                                      M000000000000000000N
071999061999999000007001TKOLDO GOROSTIAGA ATXALANDABASO                                             M000000000000000000S
071999061999999000007002TESTHER AGIRRE RUIZ                                                         M000000000000000000N
071999061999999000007003TESTEBAN OLAIZOLA ELIZAZU                                                   M000000000000000000N
071999061999999000007004TMARIA NIEVES ANTEPARA RUIZ DE AZUA                                         F000000000000000000N
071999061999999000007005TJOSE LUIS REZABAL ZURUTUZA                                                 M000000000000000000N
071999061999999000007006TMANUEL ODRIOZOLA URRUTIA                                                   M000000000000000000N
071999061999999000007007TJOSE BENIGNO REY RODRIGUEZ                                                 M000000000000000000N
071999061999999000007008TALFONSO SASTRE SALVADOR                                                    M000000000000000000N
071999061999999000007009TFERMIN MUGURUZA UGARTE                                                     M000000000000000000N
071999061999999000007010TELENA MARIA BELOKI RESA                                                    F000000000000000000N
071999061999999000007011TJOSE RAMON SABINO CUADRA LASARTE                                           M000000000000000000N
071999061999999000007012TJOSE MIRENA PERALES ARRETXE                                                M000000000000000000N
071999061999999000007013TGAIZKA ARANGUREN URROZ                                                     M000000000000000000N
071999061999999000007014TANA LIZARRALDE PALACION                                                    F000000000000000000N
071999061999999000007015TMIGUEL ANGEL CORTA CARRION                                                 M000000000000000000N
071999061999999000007016TTXOMIN ZILUAGA ARRATE                                                      M000000000000000000N
071999061999999000007017TFRANCISCO LOPEZ MOYA                                                       M000000000000000000N
071999061999999000007018TJOSEBA ANDONI GOROSTIAGA LEZAMA                                            M000000000000000000N
071999061999999000007019TJOSE LUIS CERECEDA GARAYO                                                  M000000000000000000N
071999061999999000007020TESPERANZA IRIARTE DE VICENTE                                               M000000000000000000N
071999061999999000007021TGENOVEVA FOREST TARRAT                                                     F000000000000000000N
071999061999999000007022TKEPA ANDONI ASTORKIZA IKAZURIAGA                                           M000000000000000000N
071999061999999000007023TJAGOBA ZULUETA BERASTEGUI                                                  M000000000000000000N
071999061999999000007024TFRANCISCO MARIA BISQUERT MANTEROLA                                         M000000000000000000N
071999061999999000007025TESTIBALIZ AROZENA ALBIZU                                                   F000000000000000000N
071999061999999000007026TRAQUEL PEÑA SOMAVILLA                                                      F000000000000000000N
071999061999999000007027TMARIA JOSE EGAÑA DESCARGA                                                  F000000000000000000N
071999061999999000007028TPEDRO MARIA SOLAVARRIA BILBAO                                              M000000000000000000N
071999061999999000007029TOLATZ DAÑOBEITIA CEBALLOS                                                  M000000000000000000N
071999061999999000007030TOROITZ ECHAVE NAZABAL                                                      M000000000000000000N
071999061999999000121026TJULIANA FERNANDEZ MANSILLA                                                 F000000000000000000N
071999061999999000121027TFRANCISCO JAVIER PRIETO RAMIRO                                             F000000000000000000N
071999061999999000121028TETELINDA PARDO PASCUAL                                                     F000000000000000000N
071999061999999000121029TJOSE IGNACIO GARCIA TERAN                                                  M000000000000000000N
071999061999999000121030TANDRES FERRER SEICHE                                                       M000000000000000000N
071999061999999000121031TLUIS MIGUEL GONZALEZ RODRIGUEZ                                             M000000000000000000N
071999061999999000121032TLUIS ALBERTO CARBALLO LOPEZ                                                M000000000000000000N
071999061999999000121033TJULIO CESAR DE ALAIZ MARTINEZ                                              M000000000000000000N
071999061999999000121034TDANIEL ABRIL RUIZ                                                          M000000000000000000N
071999061999999000121035TMIGUEL ANGEL GIMENO GARCIA                                                 M000000000000000000N
071999061999999000121036TANTONIO JAVIER FRANCO MARIÑO                                               M000000000000000000N
071999061999999000121037TGREGORIO SANCHEZ FLOR                                                      M000000000000000000N
071999061999999000121038TMARIA GLORIA SANABRIA ALBARRAN                                             F000000000000000000N
071999061999999000121039TFLORA FERNANDEZ ALONSO                                                     F000000000000000000N
071999061999999000121040TMARIA DEL PILAR MARIÑO PAMPIN                                              F000000000000000000N
071999061999999000121041TJOSE FRANCISCO DE LA ARADA SAENZ DE ORMIJANA                               M000000000000000000N
071999061999999000121042TELOY GONZALEZ ALONSO                                                       M000000000000000000N
071999061999999000121043TANTONIO CABRERA BLANCO                                                     M000000000000000000N
071999061999999000121044TFRANCISCO CARBALLO GARCIA                                                  M000000000000000000N
071999061999999000121045TFELISA LOPEZ COLMENAREJO                                                   F000000000000000000N
071999061999999000121046TMIGUEL ANGEL MANDLY MANSO                                                  M000000000000000000N
071999061999999000121047TMARCOS MARIA HERMIDA REVILLA                                               M000000000000000000N
071999061999999000121048TDOLORES MURILLO LOPEZ                                                      F000000000000000000N
071999061999999000121049TBEATRIZ CABELLO PEDRAJAS                                                   F000000000000000000N
071999061999999000121050TMANUEL MURILLO BALSERA                                                     M000000000000000000N
071999061999999000121051TVICENTE CASTELLO JUAN                                                      M000000000000000000N
071999061999999000121052TGEMA ESCUDERO FERNANDEZ                                                    F000000000000000000N
071999061999999000121053TMARIA DEL ROSARIO DONAIRE ORTEGA                                           F000000000000000000N
071999061999999000121054TJOSE ANTONIO DE LA FUENTE PEREIRO                                          M000000000000000000N
071999061999999000121055TMARIA TERESA MARGARITA ALAIZ DE RUIZ                                       F000000000000000000N
071999061999999000121056TMARIA ROSARIO ORTEGA CABELLO                                               F000000000000000000N
071999061999999000121057TANTONIO AVILES PARRA                                                       M000000000000000000N
071999061999999000121058TMARIA DEL CARMEN ESCUDERO DOMINGUEZ                                        F000000000000000000N
071999061999999000121059TMARIA DEL CARMEN ALAIZ MARTINEZ                                            F000000000000000000N
071999061999999000121060TJOSE TOMAS ESCUDERO DOMINGUEZ                                              M000000000000000000N
071999061999999000121061TJOAQUIN MONTAÑES RUIZ                                                      M000000000000000000N
071999061999999000121062TROSA MARIÑO PAMPIN                                                         F000000000000000000N
071999061999999000121063TEVARISTO MEANA GOMEZ                                                       M000000000000000000N
071999061999999000121064TIGNACIO DE LA ARADA ESCUDERO                                               M000000000000000000N
071999061999999000122001TALONSO JOSE PUERTA GUTIERREZ                                               M000000000000000000S
071999061999999000122002TSALVADOR JOVE PERES                                                        M000000000000000000S
071999061999999000122003TLAURA DE LA PAZ MERCEDES GONZALEZ ALVAREZ                                  F000000000000000000S
071999061999999000122004TPEDRO MARSET CAMPOS                                                        M000000000000000000S
071999061999999000122005TDIEGO VALDERAS SOSA                                                        M000000000000000000N
071999061999999000122006TMARIA LUISA BERGAZ CONESA                                                  F000000000000000000N
071999061999999000122007TJOSE FRANCISCO MENDI FORNIES                                               M000000000000000000N
071999061999999000122008TJAIME PASTOR VERDU                                                         M000000000000000000N
071999061999999000122009TMARIA ANGELES MARTINEZ CASTELLS                                            F000000000000000000N
071999061999999000122010TMARIA DOLORES PUIG BARRIOS                                                 F000000000000000000N
071999061999999000122011TISABEL JOSEFA LOPEZ AULESTIA                                               F000000000000000000N
071999061999999000122012TMANUEL CAMARA FERNANDEZ                                                    M000000000000000000N
071999061999999000122013TLUISA MARIA SANCHEZ ORELLANA                                               F000000000000000000N
071999061999999000122014TELIAS EMILIO LORENZANA DE LA PUENTE                                        M000000000000000000N
071999061999999000122015TLEONOR FLORES RABAZO                                                       F000000000000000000N
071999061999999000122016TMARIA MERCEDES GALINDO RUBIO                                               F000000000000000000N
071999061999999000122017TJOSE MARIA GONZALEZ SUAREZ                                                 F000000000000000000N
071999061999999000122018TBEGOÑA LOPEZ DIAZ                                                          F000000000000000000N
071999061999999000122019TPILAR GARCIA HERNANDEZ                                                     F000000000000000000N
071999061999999000122020TGLORIA CELIA ENCARNACION GALAN PARDO                                       F000000000000000000N
071999061999999000122021TION IÑAKI ERRO ARMENDARIZ                                                  M000000000000000000N
071999061999999000122022TANA RODRIGUEZ GARCIA                                                       F000000000000000000N
071999061999999000122023TADOLFO NORIEGA MOLLEDA                                                     M000000000000000000N
071999061999999000122024TJESUS REDONDO ABUIN                                                        M000000000000000000N
071999061999999000122025TJUAN CARLOS LLODRA LOPEZ                                                   M000000000000000000N
071999061999999000122026TANTONIO QUIRCE GARRIDO                                                     M000000000000000000N
071999061999999000122027TIGNACIO JAVIER CASTAN ANDOLIZ                                              M000000000000000000N
071999061999999000122028TMILAGROS HERNANDEZ CALVO                                                   F000000000000000000N
071999061999999000122029TJOSE LUIS RODRIGO PLASENCIA                                                M000000000000000000N
071999061999999000122030TMARIA PILAR MOSQUERA PADIN                                                 F000000000000000000N
071999061999999000122031TCONCEPCION VALDES MENENDEZ                                                 F000000000000000000N
071999061999999000122032TFRANCISCA PINO MONTOYA                                                     F000000000000000000N
071999061999999000122033TFRANCISCO JAVIER RODRIGUEZ PACIOS                                          M000000000000000000N
071999061999999000122034TALEJANDRA HEMINGWAY CLEMINSON                                              F000000000000000000N
071999061999999000122035TJUAN MARIA BASTERRETXEA LASA                                               M000000000000000000N
071999061999999000122036TYAMAL SEI-LAM MOH MOHAMED                                                  M000000000000000000N
071999061999999000122037TGLORIA MARIA GAGO VAZQUEZ                                                  F000000000000000000N
071999061999999000122038TFELICIANO ALBADALEJO OLMOS                                                 M000000000000000000N
071999061999999000122039TMARIA TERESA MASEDA PAZ                                                    F000000000000000000N
071999061999999000122040THONORIO CIUDAD MARTINEZ                                                    M000000000000000000N
071999061999999000122041TCARIDAD GARCIA ALVAREZ                                                     F000000000000000000N
071999061999999000122042TJOSE CABALLERO BERNABE                                                     M000000000000000000N
071999061999999000122043TDIOSDADO TOLEDANO GONZALEZ                                                 M000000000000000000N
071999061999999000122044TJESUS FLORES CONTIN                                                        M000000000000000000N
071999061999999000122045TMARIA LUISA CASTRO FONSECA                                                 F000000000000000000N
071999061999999000122046TGINES FERNANDEZ GONZALEZ                                                   M000000000000000000N
071999061999999000122047TMARIA ROSARIO SENTIS BRAVO                                                 F000000000000000000N
071999061999999000122048TFRANCISCO JOSE MASIA LINARES                                               M000000000000000000N
071999061999999000122049TMARIA HERMINIA GONZALEZ MUÑIZ                                              F000000000000000000N
071999061999999000122050TISABEL ROMERO ARIZA                                                        F000000000000000000N
071999061999999000122051TFRANCISCO JAVIER BARROSO GARCIA                                            M000000000000000000N
071999061999999000122052TIÑIGO HERNANDEZ SUAREZ                                                     M000000000000000000N
071999061999999000122053TJULIO SETIEN MARTINEZ                                                      M000000000000000000N
071999061999999000122054TJOSEFA RODRIGUEZ PRADA                                                     F000000000000000000N
071999061999999000122055TMIQUEL DIDAC PIÑERO COSTA                                                  M000000000000000000N
071999061999999000122056TESTHER GOMEZ MARTINEZ                                                      F000000000000000000N
071999061999999000122057TJORGE MANUEL PARDO PIÑERA                                                  M000000000000000000N
071999061999999000122058TJAIME SERIN PEREZ                                                          M000000000000000000N
071999061999999000122059TMANUEL MILLAN JIMENEZ                                                      M000000000000000000N
071999061999999000122060TFERNANDO TENA MORALES                                                      M000000000000000000N
071999061999999000122061TMARIA LUISA SANCHEZ ECHEVERRIA                                             F000000000000000000N
071999061999999000122062TGERALDO DEL VAL CID                                                        M000000000000000000N
071999061999999000122063TJORGE JULIO GOMEZ CALVO                                                    M000000000000000000N
071999061999999000122064TALFREDO CLEMENTE CONTE                                                     M000000000000000000N
071999061999999000123001TJOSU ORTUONDO LARREA                                                       M000000000000000000S
071999061999999000123002TGORKA KNORR BORRAS                                                         M000000000000000000S
071999061999999000123003TMIQUEL MAYOL I RAYNAL                                                      M000000000000000000N
071999061999999000123004TJAUME FLUXA MORRO                                                          M000000000000000000N
071999061999999000123005TJOSE MARIA MUÑOA GANUZA                                                    M000000000000000000N
071999061999999000123006TRAMON PEÑAGARICANO GARMENDIA                                               M000000000000000000N
071999061999999000123007TMARI CARMEN GALLASTEGUI ZULAICA                                            F000000000000000000N
071999061999999000123008TJORDI BIGUES I BALLCELS                                                    M000000000000000000N
071999061999999000123009TANTONI FERRAGUT ESTADES                                                    M000000000000000000N
071999061999999000123010TANA GALARRAGA OLAZABAL                                                     F000000000000000000N
071999061999999000123011TJON GANGOITI LLAGUNO                                                       M000000000000000000N
071999061999999000123012TFERMIN CIAURRIZ GOMEZ                                                      M000000000000000000N
071999061999999000123013TJOAN CLARET I SOLE                                                         M000000000000000000N
071999061999999000123014TCELIA TOGORES PIQUER                                                       F000000000000000000N
071999061999999000123015TJOSE MARIA AGUIRRE ESKISABEL                                               M000000000000000000N
071999061999999000123016TARANTZA GOENAGA BATALLA                                                    M000000000000000000N
071999061999999000123017TJUAN JOSE LOROÑO DOISTUA                                                   M000000000000000000N
071999061999999000123018THENDRIKA PIETJE HAMELINK                                                   F000000000000000000N
071999061999999000123019TMARIA VILLAR MAGALLON                                                      F000000000000000000N
071999061999999000123020TJUAN CARLOS LOIDI ARREGUI                                                  M000000000000000000N
071999061999999000123021TJOSE RAMON BELOKI GUERRA                                                   M000000000000000000N
071999061999999000123022TMARIA ANGELES IZTUETA AZCUE                                                F000000000000000000N
071999061999999000123023TJAUME RENYER I ALIMBAU                                                     M000000000000000000N
071999061999999000123024TXAVIER PICO JULIA                                                          M000000000000000000N
071999061999999000123025TNEREA ANTIA VINOS                                                          F000000000000000000N
071999061999999000123026TJOSE MANUEL GOIKOETXEA ASKORBE                                             M000000000000000000N
071999061999999000123027TXABIER KINTANA URTIGA                                                      M000000000000000000N
071999061999999000123028TRENEE THNUNNISSEN                                                          M000000000000000000N
071999061999999000123029TJOAN ROCA JOAN                                                             M000000000000000000N
071999061999999000123030TXABIER ALBISTUR MARIN                                                      M000000000000000000N
071999061999999000123031TJOSE LUIS ETXEGARAI                                                        M000000000000000000N
071999061999999000123032TMAIA THERESE HALSSOUET HALSOUET                                            F000000000000000000N
071999061999999000123033TBERNAT JOAN I MARI                                                         M000000000000000000N
071999061999999000123034TSANDRA COLL DOLÇ                                                           F000000000000000000N
071999061999999000123035TIÑAKI RICA OLIDEN                                                          M000000000000000000N
071999061999999000123036TLAURA YANCI MITXELENA                                                      F000000000000000000N
071999061999999000123037TJESUS LARRAÑAGA LIZARRALDE                                                 M000000000000000000N
071999061999999000123038TJAUME IVORRA I SOLER                                                       M000000000000000000N
071999061999999000123039TFRANCESC GARZON ZAFRA                                                      M000000000000000000N
071999061999999000123040TYOLANDA ZABALA MAULEON                                                     F000000000000000000N
071999061999999000123041TJOSEBA ARREGUI ARANBURU                                                    M000000000000000000N
071999061999999000123042TROSA MARIA AGUDO HUICI                                                     F000000000000000000N
071999061999999000123043TJAUME GILABERT I TORRUELLA                                                 M000000000000000000N
071999061999999000123044TEVA BOSCH MANERA                                                           F000000000000000000N
071999061999999000123045TMIGUEL DIAZ DE CERIO GAUNA                                                 M000000000000000000N
071999061999999000123046TITZIAR EGUIA ODRIZOLA                                                      F000000000000000000N
071999061999999000123047TJOSE ANTONIO ALTUNA GALLASTEGUI                                            M000000000000000000N
071999061999999000123048TELOY NOLLA I SUBIRATS                                                      M000000000000000000N
071999061999999000123049TTOMAS PIZA VILLALONGA                                                      M000000000000000000N
071999061999999000123050TJUAN MARIA ENEKOTEGUI AGUIRRE                                              M000000000000000000N
071999061999999000123051TMARIA ANGELES IBARRARAN PORTILLA                                           F000000000000000000N
071999061999999000123052TMARILO IRUJO ELIZALDE                                                      F000000000000000000N
071999061999999000123053TJOSEP CAMPMANY I GUILLOT                                                   M000000000000000000N
071999061999999000123054TANTONI ALOY VIDAL                                                          M000000000000000000N
071999061999999000123055TMARTA MARTINEZ GARCIA                                                      F000000000000000000N
071999061999999000123056TJOSE ANGEL AGUIRREBENGOA IMAZ                                              M000000000000000000N
071999061999999000123057TJOSEBA MIKEL AGUIRRE OAR                                                   M000000000000000000N
071999061999999000123058TJOSEP MARIA ALCOBERRO I PERICAY                                            M000000000000000000N
071999061999999000123059TIGNACIO VIVANCOS GABARDA                                                   M000000000000000000N
071999061999999000123060TRICARDO GOMEZ DE SEGURA VERGARACHEA                                        M000000000000000000N
071999061999999000123061TJOSE MANUEL RAZQUIN TELLERIA                                               M000000000000000000N
071999061999999000123062TJOSEBA ARZAC IRIONDO                                                       M000000000000000000N
071999061999999000123063TRAMON PLANA I CINCA                                                        M000000000000000000N
071999061999999000123064TMATIAS BARON DE JUAN                                                       M000000000000000000N
071999061999999000125001TRICARDO MAGAZ ALVAREZ                                                      M000000000000000000N
071999061999999000125002TRUBEN LOPEZ GARCIA                                                         M000000000000000000N
071999061999999000125003TDORA ERLINDA MEDINA GALVEZ                                                 F000000000000000000N
071999061999999000125004TANTONIO JORGE NEVADO ESCALDON                                              M000000000000000000N
071999061999999000125005TMIRIAM ESTRADA GARCIA                                                      F000000000000000000N
071999061999999000125006TCARLOS CARRERA GARCIA                                                      M000000000000000000N
071999061999999000125007TLIDIA GARCIA FERNANDEZ                                                     F000000000000000000N
071999061999999000125008TLUIS MANUEL ESTEBAN GUTIERREZ                                              M000000000000000000N
071999061999999000125009TMARIA ESMERALDA MARTIN GARCIA                                              F000000000000000000N
071999061999999000125010TFRANCISCO GARCIA ALBARES                                                   M000000000000000000N
071999061999999000125011TANA MARIA RETE AGUILAR                                                     F000000000000000000N
071999061999999000125012TMIGUEL FERRERO GARCIA                                                      M000000000000000000N
071999061999999000125013TLUCILA SADIA GONZALO                                                       F000000000000000000N
071999061999999000125014TFELIX GARCIA ORTEGA                                                        M000000000000000000N
071999061999999000125015TMARIA JESUS BLAZQUEZ RUANO                                                 F000000000000000000N
071999061999999000125016TRAFAEL JIMENEZ OLIVA                                                       M000000000000000000N
071999061999999000125017TAGUEDA GUTIERREZ ALONSO                                                    F000000000000000000N
071999061999999000125018TLUIS ESTEBAN TERUELO                                                       M000000000000000000N
071999061999999000125019TMARIA DEL ROCIO ESTEBAN GUTIERREZ                                          F000000000000000000N
071999061999999000125020TPABLO MAGAZ MERINO                                                         M000000000000000000N
071999061999999000125021TJUANA DIAZ MARCIEL                                                         F000000000000000000N
071999061999999000125022TJESUS MARIA CASANOVA MORALEDA                                              M000000000000000000N
071999061999999000125023TEMILIO CONDE DE LA ROSA                                                    M000000000000000000N
071999061999999000125024TJOSE MARIA VILLALON GARCIA                                                 M000000000000000000N
071999061999999000125025TOSCAR IBAN MARTINEZ                                                        M000000000000000000N
071999061999999000125026TABEL PARDO FERNANDEZ                                                       M000000000000000000N
071999061999999000125027THONORINA ROJO CASARES                                                      F000000000000000000N
071999061999999000125028TJULIAN VELILLA GONZALEZ                                                    M000000000000000000N
071999061999999000125029TADELAIDA PASTORIZA CASTRILLO                                               F000000000000000000N
071999061999999000125030TNESTOR SANTOS FERNADEZ                                                     M000000000000000000N
071999061999999000125031TANA MARIA ROBLES ARCE                                                      F000000000000000000N
071999061999999000125032TJESUS ANGEL GONZALEZ FERNANDEZ                                             M000000000000000000N
071999061999999000125033TBENISVINA CASTELLANOS GARCIA                                               F000000000000000000N
071999061999999000125034TFERNANDO FERNADEZ FERRERAS                                                 M000000000000000000N
071999061999999000125035TMARIA DEL ROCIO BENAVIDES GONZALEZ                                         F000000000000000000N
071999061999999000125036TMARCELINO PRIETO OLIVERA                                                   M000000000000000000N
071999061999999000120020TJUAN ANTONIO GARCIA PEREZ                                                  M000000000000000000N
071999061999999000120021TJOSE ANTONIO LOPEZ ESPINAZO                                                M000000000000000000N
071999061999999000120022TMARTA GOMEZ DE GRACIA                                                      F000000000000000000N
071999061999999000120023TGORJE CARRASCOSA ALCAZAR                                                   M000000000000000000N
071999061999999000120024TJOSE FERNANDO SANCHEZ INFANTE                                              M000000000000000000N
071999061999999000120025TJUAN CAMACHO GARCIA                                                        M000000000000000000N
071999061999999000120026TJOSE ANTONIO JIMENEZ WALIAS                                                M000000000000000000N
071999061999999000120027TMANUEL RODRIGUEZ PEON                                                      M000000000000000000N
071999061999999000120028TJAVIER DIAZ GARCIA                                                         M000000000000000000N
071999061999999000120029TMARIA DE LA CRUZ JIMENEZ ORTIZ                                             F000000000000000000N
071999061999999000120030TJOSE IGNACIO GARCIA MARTIN                                                 M000000000000000000N
071999061999999000120031TMARIA JESUS CALLEJO GARCIA                                                 F000000000000000000N
071999061999999000120032TMARIA ESTHER PIZARRO MORALES                                               F000000000000000000N
071999061999999000120033TCARMEN JIMENEZ ORTIZ                                                       F000000000000000000N
071999061999999000120034TANTONIO MUÑOZ HEREDIA                                                      M000000000000000000N
071999061999999000120035TIRMA SANCHEZ DELGADO                                                       F000000000000000000N
071999061999999000120036TPEDRO JOSE ALVAREZ FERNANDEZ                                               M000000000000000000N
071999061999999000120037TLUIS BAILON RUIZ                                                           M000000000000000000N
071999061999999000120038TMARIA DEL CARMEN CLEMENTE GARCIA                                           F000000000000000000N
071999061999999000120039TCARLOS RODRIGUEZ PALMERO                                                   M000000000000000000N
071999061999999000120040TFELIPE CLEMENTE GARCIA                                                     M000000000000000000N
071999061999999000120041TFRANCISCO JAVIER ANTOLIN MARTINEZ                                          M000000000000000000N
071999061999999000120042TJOSE RAMON DELGADO AGUILAR                                                 M000000000000000000N
071999061999999000120043TPEDRO ANTOLIN CALLEJO                                                      M000000000000000000N
071999061999999000120044TLUIS MARIANO GARCIA LOPEZ                                                  M000000000000000000N
071999061999999000120045TMARIA SAGRARIO MARTINEZ DE LA FUENTE                                       F000000000000000000N
071999061999999000120046TJOSE ANTONIO LOPEZ ALMENA                                                  M000000000000000000N
071999061999999000120047TMARIA DEL CARMEN CRESPO CUENDE                                             F000000000000000000N
071999061999999000120048TPEDRO MARTIN MARTIN                                                        M000000000000000000N
071999061999999000120049TMARIA CARMEN CUENDE BENITO                                                 F000000000000000000N
071999061999999000120050TJOSE JAVIER MURIEL VAQUERO                                                 M000000000000000000N
071999061999999000120051TRAQUEL CRESPO CUENDE                                                       F000000000000000000N
071999061999999000120052TJULIO JUSTO DE LA ROSA                                                     M000000000000000000N
071999061999999000120053TDIONISIO CARMONA CRUZ                                                      M000000000000000000N
071999061999999000120054TSUSANA GARCIA DIAZ                                                         F000000000000000000N
071999061999999000120055TANTONIO TOMEO MARTIN                                                       M000000000000000000N
071999061999999000120056TFRANCISCO GARCIA YEBENES                                                   M000000000000000000N
071999061999999000120057TROBERTO PEDRO DE LA LLAVE ALVARADO                                         M000000000000000000N
071999061999999000120058TJULIA SANZ CENTENO                                                         F000000000000000000N
071999061999999000120059TANTONIO COIN LUCENA                                                        M000000000000000000N
071999061999999000120060TMARIA DE LA CRUZ RUIZ MUÑOZ                                                F000000000000000000N
071999061999999000120061TBEATRIZ GARCIA AVILA                                                       F000000000000000000N
071999061999999000120062TENRIQUE FRANCISCO GARCIA GOMEZ                                             M000000000000000000N
071999061999999000120063TJESUS DE GRACIA MAQUEDA                                                    M000000000000000000N
071999061999999000120064TMARIA EUGENIA DE PEDRO MUÑOZ                                               F000000000000000000N
