031977061049006000008006TVICENTE GONZALEZ AZNAR                                                      000000000000000000N
031977061049009000008009TEMILIO MARIN DE BURGOS                                                      000000000000000000N
031977061049011000008011TANTONIO MORENO MARTIN                                                       000000000000000000N
031977061049001000009001TANTONIO ANDUJAR RODRIGUEZ                                                   000000000000000000N
031977061049015000009015TRAFAEL VICIANA ARAEZ                                                        000000000000000000N
031977061049016000009016TMIGUEL VIZCAINO MARQUEZ                                                     000000000000000000N
031977061049007000012007TANGEL MARIA DE LERA GARCIA                                                  000000000000000000N
031977061049010000012010TFRANCISCO MEDINA SANCHEZ                                                    000000000000000000N
031977061049014000012014TMANUEL RODRIGUEZ DE SORIA                                                   000000000000000000N
031977061049005000033005TFRANCISCO GALDEANO FERNANDEZ                                                000000000000000000N
031977061049002000087002TJESUS DURBAN REMON                                                          000000000000000000S
031977061049004000087004TJOSE FERNANDEZ ALEMAN                                                       000000000000000000S
031977061049013000087013TMANUEL DE OÑA IRIBARNE                                                      000000000000000000S
031977061049003000093003TEMILIO ESTEBAN HANZA                                                        000000000000000000N
031977061049008000093008TANGEL LOPEZ MASEGOSA                                                        000000000000000000N
031977061049012000093012TJOAQUIN NAVARRO ESTEBAN                                                     000000000000000000S
031977061119005000006005TJUAN LUIS BANDRES GUERRERO                                                  000000000000000000N
031977061119003000009003TJOSE ARELLANO CAMPOS                                                        000000000000000000N
031977061119011000009011TURBANO HERRERO MARTOS                                                       000000000000000000N
031977061119013000009013TANTONIO LEON MANJON                                                         000000000000000000N
031977061119019000033019TJOSE JULIO VELEZ NOGUERA                                                    000000000000000000N
031977061119001000035001TJERONIMO ALMAGRO Y MONTES DE OCA                                            000000000000000000N
031977061119004000035004TEDUARDO BALLESTERO MORALES                                                  000000000000000000N
031977061119016000035016TFERNANDO PORRO GUERRERO                                                     000000000000000000N
031977061119008000084008TANTONIO CRUCES PEREZ                                                        000000000000000000N
031977061119012000084012TINOCENCIO LEON CANTERO                                                      000000000000000000N
031977061119017000084017TMIGUEL ROURE LINHOFF                                                        000000000000000000N
031977061119007000087007TANTONIO CORTES SABARIEGO                                                    000000000000000000S
031977061119014000087014TJUAN MORALES SANCHEZ                                                        000000000000000000N
031977061119020000087020TJOSE LUIS VILLAR CERON                                                      000000000000000000N
031977061119006000091006TJOSE BOHORQUEZ MORA FIGUEROA                                                000000000000000000N
031977061119018000091018TFRANCISCO SANCHEZ COSSIO Y VELEZ                                            000000000000000000N
031977061119002000094002TGUILLERMO ALONSO DEL REAL MONTES                                            000000000000000000S
031977061119009000094009TJOSE MANUEL DUARTE CENDAN                                                   000000000000000000S
031977061119010000094010TPATRICIO GUTIERREZ CANO                                                     000000000000000000S
031977061119015000095015TCARMEN PINEDO SANCHEZ                                                       000000000000000000N
031977061149003000009003TANTONIO CRUZ CONDE Y CONDE                                                  000000000000000000N
031977061149007000009007TJOSE JAEN BONILLA                                                           000000000000000000N
031977061149018000009018TALFONSO VERA VEGA                                                           000000000000000000N
031977061149015000033015TMANUEL PEREZ PEREZ                                                          000000000000000000N
031977061149008000062008TJOSE JUAN LOPEZ GAVILAN                                                     000000000000000000N
031977061149002000078002TMATIAS CAMACHO LLORIZ                                                       000000000000000000S
031977061149006000078006TMANUEL GRACIA NAVARRO                                                       000000000000000000S
031977061149011000078011TJOAQUIN MARTINEZ BJORKMAN                                                   000000000000000000S
031977061149019000080019TANTONIO ZURITA DE JULIAN                                                    000000000000000000N
031977061149013000084013TFRANCISCO MUÑOZ TORRALBO                                                    000000000000000000N
031977061149014000084014TDIEGO JESUS PEREZ MORA                                                      000000000000000000N
031977061149004000087004TJOSE LUIS FERNANDEZ DE CASTILLEJO Y ALGABA                                  000000000000000000N
031977061149010000087010TMIGUEL MANZANARES LOPEZ                                                     000000000000000000N
031977061149017000087017TCECILIO VALVERDE MAZUELAS                                                   000000000000000000S
031977061149001000096001TJOSE AUMENTE BAENA                                                          000000000000000000N
031977061149012000097012TMARIA PETRA MARTINEZ RENIEBLAS                                              000000000000000000N
031977061149005000098005TJOAQUIN GOMEZ CHAPARRO                                                      000000000000000000N
031977061149009000098009TMANUEL LUQUE LUCENA                                                         000000000000000000N
031977061149016000098016TJOSE MARIA SICILIA POVEDANO                                                 000000000000000000N
031977061189005000008005TJUAN ANDRES CAPOTE FERNANDEZ                                                000000000000000000N
031977061189006000008006TMATILDE CARDELL CAÑADAS                                                     000000000000000000N
031977061189009000008009TMANUEL GOMEZ URIBARRI LOPEZ-CUERVO                                          000000000000000000N
031977061189001000009001TALFONSO CARLOS ANDRADA VANDERWILE Y BARRAUTE                                000000000000000000N
031977061189007000009007TJOSE CONTRERAS GONZALEZ-ANLEO                                               000000000000000000N
031977061189015000009015TRAMON ORTI LOPEZ-BARAJAS                                                    000000000000000000N
031977061189020000033020TCARLOS MANUEL VILLARREAL VALERO                                             000000000000000000N
031977061189002000059002TCARMEN BELTRAN  ESTEBAN                                                     000000000000000000N
031977061189013000059013TJOSE LUIS MUÑOZ ROLDAN                                                      000000000000000000N
031977061189017000059017TJOSE MARIA SERRANO RINCON                                                   000000000000000000N
031977061189008000084008TADOLFO GALAN GORDILLO                                                       000000000000000000N
031977061189019000084019TSAGRARIO VIDAL ZAMORA                                                       000000000000000000N
031977061189004000087004TRAFAEL BELLVIS PORRAS                                                       000000000000000000N
031977061189010000087010TANTONIO JIMENEZ BLANCO                                                      000000000000000000S
031977061189012000087012TGERARDO MOREU MIRASOL                                                       000000000000000000N
031977061189014000087014TMIGUEL OLMEDO MORENO                                                        000000000000000000N
031977061189003000099003TNICOLAS DE BENITO CEBRIAN                                                   000000000000000000S
031977061189011000099011TJUAN LOPEZ MARTOS                                                           000000000000000000S
031977061189018000099018TJOSE VIDA SORIA                                                             000000000000000000S
031977061189016000100016TJOSE MARIA ROSALES DE ANGULO                                                000000000000000000N
031977061219010000009010TJUAN GONZALO Y VARA                                                         000000000000000000N
031977061219013000009013TANTONIO MACHADO MORA                                                        000000000000000000N
031977061219014000009014TFELIPE MARTINEZ DE ACUÑA                                                    000000000000000000N
031977061219006000012006TANTONIO GARCIA OLIVARES                                                     000000000000000000N
031977061219008000033008TRAFAEL GONZALEZ BIEDMA                                                      000000000000000000N
031977061219002000062002TMANUEL DEL CASTILLO COBO                                                    000000000000000000N
031977061219009000078009TJOSE GONZALEZ GASTAÑAGA                                                     000000000000000000S
031977061219016000078016TMANUEL JESUS PASTOR HERRERA                                                 000000000000000000N
031977061219018000078018TMIGUEL CARLOS RODRIGUEZ-PIÑERO BRAVO FERRER                                 000000000000000000N
031977061219001000084001TCRISTOBAL BATANERO BRAVO                                                    000000000000000000N
031977061219011000084011TRAFAEL GUISADO RUFINO                                                       000000000000000000N
031977061219015000084015TJAIME NAVASCUES PALACIOS                                                    000000000000000000N
031977061219004000087004TMIGUEL ESTEBAN MARTIN                                                       000000000000000000S
031977061219007000087007TJOSE LUIS GARCIA PALACIOS                                                   000000000000000000S
031977061219012000087012TANTONIO HERNANDEZ CAIRE                                                     000000000000000000S
031977061219003000097003TJUAN JOSE DOMINGUEZ JIMENEZ                                                 000000000000000000N
031977061219005000097005TRAFAEL FRANCO SANTOS                                                        000000000000000000N
031977061219017000097017TRAFAEL PEREZ MAQUEDA                                                        000000000000000000N
031977061219019000101019TANDRES BRUNO ROMERO MANTERO                                                 000000000000000000N
031977061239014000009014TMIGUEL SANCHEZ DIAZ                                                         000000000000000000N
031977061239015000009015TMIGUEL SANCHEZ-CAÑETE SALAZAR                                               000000000000000000N
031977061239017000009017TFRANCISCO VAZQUEZ GARRIDO                                                   000000000000000000N
031977061239008000020008TEDUARDO MORENO MARTINEZ                                                     000000000000000000N
031977061239004000033004TRAMON CASADO MONTILLA                                                       000000000000000000N
031977061239011000060011TLUIS RAMIREZ PLAZA                                                          000000000000000000N
031977061239003000062003TDIEGO CARRASCO MASDEU                                                       000000000000000000N
031977061239012000062012TJOSE MARIA ROLDAN MARTINEZ                                                  000000000000000000N
031977061239013000062013TMIGUEL RUIZ MARTIN                                                          000000000000000000N
031977061239005000078005TJUAN JOSE CONTRERAS GUARDIA                                                 000000000000000000S
031977061239007000078007TPEDRO LUIS MARTINEZ MARTINEZ                                                000000000000000000S
031977061239018000078018TJUAN ZARRIAS JAREÑO                                                         000000000000000000S
031977061239006000087006TPEDRO MANUEL DAMAS RICO                                                     000000000000000000S
031977061239010000087010TFERNANDO PASTOR BUENO                                                       000000000000000000N
031977061239016000087016TRAFAEL SORIA SALES                                                          000000000000000000N
031977061239001000091001TFERNANDO ARENAS DEL BUEY                                                    000000000000000000N
031977061239002000091002TJOSE BAUTISTA DE LA TORRE                                                   000000000000000000N
031977061239009000101009TPILAR PALAZON PALAZON                                                       000000000000000000N
031977061299012000006012TJUAN PEREZ ALHAMA                                                           000000000000000000N
031977061299001000009001TJOSE ATENCIA GARCIA                                                         000000000000000000N
031977061299006000009006TJOSE GARCIA CASTILLO                                                        000000000000000000N
031977061299019000009019TJOSE UTRERA MOLINA                                                          000000000000000000N
031977061299014000012014TANGEL ROJAS HERRERA                                                         000000000000000000N
031977061299016000012016TJOSE MARIA RUBIO DEL CASTILLO                                               000000000000000000N
031977061299008000032008TANTONIO GARCIA GARRIDO                                                      000000000000000000N
031977061299015000032015TJOSE ANTONIO ROMERO FERNANDEZ                                               000000000000000000N
031977061299018000032018TLUIS TEMBOURY VILLAREJO                                                     000000000000000000N
031977061299010000033010TANTONIO LUQUE LOPEZ                                                         000000000000000000N
031977061299004000059004TENRIQUE CORTES GOMEZ                                                        000000000000000000N
031977061299013000059013TMIGUEL PEREZ RUIZ                                                           000000000000000000N
031977061299017000059017TMARIA ADELA RUIZ FERNANDEZ                                                  000000000000000000N
031977061299003000084003TJOSE ANTONIO BUSTOS LOPEZ                                                   000000000000000000N
031977061299005000087005TJOSE IGNACIO FERNANDEZ BERGILLOS                                            000000000000000000N
031977061299020000087020TCAYETANO UTRERA RAVASSA                                                     000000000000000000N
031977061299021000087021TFRANCISCO VILLODRES GARCIA                                                  000000000000000000S
031977061299009000101009TJOSE GONZALEZ-DELEITO Y DOMINGO                                             000000000000000000N
031977061299002000103002TENRIQUE BRINKMANN PARAREDA                                                  000000000000000000S
031977061299007000103007TANTONIO GARCIA DUARTE                                                       000000000000000000S
031977061299011000103011TBRAULIO MURIEL LOPEZ                                                        000000000000000000S
031977061419005000008005TFRANCISCO ELIAS DE TEJADA SPINOLA                                           000000000000000000N
031977061419014000008014TRAMON GUZMAN GUERRERO                                                       000000000000000000N
031977061419017000008017TMANUEL LUCIANO MARISCAL ANGULO                                              000000000000000000N
031977061419019000008019TJOSE MARIA DEL NIDO BORREGO                                                 000000000000000000N
031977061419016000009016TJOSE MARIA LACAVE Y DE ESCALERA                                             000000000000000000N
031977061419029000009029TFRANCISCO SANCHEZ-APELLANIZ VALDERRAMA                                      000000000000000000N
031977061419030000009030TISACIO SIGUERO ZURDO                                                        000000000000000000N
031977061419007000012007TJOSE ESTRADA PARRA                                                          000000000000000000N
031977061419012000032012TMIGUEL GIMENEZ CLAVIJO                                                      000000000000000000N
031977061419015000033015TTOMAS IGLESIAS PEREZ                                                        000000000000000000N
031977061419002000059002TJUAN CASAS GOMEZ                                                            000000000000000000N
031977061419023000059023TFRANCISCO RIVERO TRISTANCHO                                                 000000000000000000N
031977061419024000059024TJOSE RODRIGUEZ SANDOVAL                                                     000000000000000000N
031977061419004000062004TMANUEL DELICADO MUÑOZ                                                       000000000000000000N
031977061419025000062025TAMPARO RUBIALES TORREJON                                                    000000000000000000N
031977061419027000062027TEDUARDO SABORIDO GALAN                                                      000000000000000000N
031977061419018000068018TFELIX MONEDERO GIL                                                          000000000000000000N
031977061419008000078008TJOSE PLACIDO FERNANDEZ VIAGAS                                               000000000000000000S
031977061419011000078011TFRANCISCO GARCIA BORBOLLA CANDILEJOS                                        000000000000000000S
031977061419021000078021TJOSE DE LA PEÑA CAMARA                                                      000000000000000000S
031977061419003000084003TJOSE CASTILLA CAÑETE                                                        000000000000000000N
031977061419006000084006TEMILIO ESPINOSA DIAZ                                                        000000000000000000N
031977061419010000084010TMANUEL GANDIA EXPOSITO                                                      000000000000000000N
031977061419009000087009TANTONIO FONTAN PEREZ                                                        000000000000000000S
031977061419013000087013TFAUSTINO GUTIERREZ ALVIZ Y ARMARIO                                          000000000000000000N
031977061419020000087020TMANUEL OTERO LUNA                                                           000000000000000000N
031977061419026000091026TSALVADOR RUS VELAZQUEZ                                                      000000000000000000N
031977061419028000091028TFRANCISCO SANABRIA ESCUDERO                                                 000000000000000000N
031977061419001000100001TJUAN CARLOS AGUILAR MORENO                                                  000000000000000000N
031977061419022000100022TEMILIO PEREZ RUIZ                                                           000000000000000000N
031977061229005000009005TANTONIO BELLO LASIERRA                                                      000000000000000000N
031977061229010000009010TJOSE MARIA FERRER MORA                                                      000000000000000000N
031977061229013000009013TJOSE ANTONIO ORTIZ OLALLA                                                   000000000000000000N
031977061229009000035009TJOSE MARIA FACIL OLIVERA                                                    000000000000000000N
031977061229001000062001TSIXTO LUIS AGUDO GONZALEZ                                                   000000000000000000N
031977061229003000078003TFERNANDO BAEZA MARTOS                                                       000000000000000000S
031977061229011000078011TSAUL GAZO SERRANO                                                           000000000000000000N
031977061229004000087004TALBERTO BALLARIN MARCIAL                                                    000000000000000000S
031977061229007000087007TCESAR AUGUSTO ESCRIBANO DE GORDO                                            000000000000000000S
031977061229008000087008TJOSE ANTONIO ESCUDERO LOPEZ                                                 000000000000000000S
031977061229002000103002TMARIA JOSE ARELLANO SANCHEZ                                                 000000000000000000N
031977061229006000103006TAURELIO BIARGE LOPEZ                                                        000000000000000000N
031977061229012000103012TJOSE LOPEZ BABIER                                                           000000000000000000N
031977061229014000104014TVICENTE DE PINIES RUBIO                                                     000000000000000000N
031977061449008000008008TJULIAN GASCO LAUDO                                                          000000000000000000N
031977061449012000008012TJORGE LUIS DE LATORRE JASA                                                  000000000000000000N
031977061449017000008017TMANUEL PALOS SERRANO                                                        000000000000000000N
031977061449013000009013TJESUS LOPEZ MEDEL                                                           000000000000000000N
031977061449016000009016TJOSE ANTONIO NAVARRETE RABANAQUE                                            000000000000000000N
031977061449018000009018TANGEL PARDILLOS VELA                                                        000000000000000000N
031977061449009000024009TANTONIO JULIAN CATIVIELA                                                    000000000000000000N
031977061449022000062022TBLAS ALFONSO UTRILLAS GIMENO                                                000000000000000000N
031977061449023000062023TCARLOS LUIS DE LA VEGA Y DE LUQUE                                           000000000000000000N
031977061449021000068021TJOSE TORAN PELAEZ                                                           000000000000000000N
031977061449001000078001TANTONIO CARASOL DIESTE                                                      000000000000000000S
031977061449010000078010TRAFAEL LASMARIAS LACUEVA                                                    000000000000000000N
031977061449020000078020TENRIQUE ROMERO ENA                                                          000000000000000000N
031977061449003000084003TMIGUEL CERCOS MONTON                                                        000000000000000000N
031977061449015000084015TVIDAL MUÑOZ GARRIDO                                                         000000000000000000N
031977061449019000084019TMARCELINO JESUS PUERTO MARTINEZ                                             000000000000000000N
031977061449006000087006TJOSE LUIS FIGUEROLA CERDAN                                                  000000000000000000S
031977061449007000087007TALBERTO FUERTES VALENZUELA                                                  000000000000000000S
031977061449014000087014TMANUEL MAGALLON CELMA                                                       000000000000000000S
031977061449002000100002TANTONIO CATALAN MARTIN                                                      000000000000000000N
031977061449004000105004TMANUEL CORTES ROYO                                                          000000000000000000N
031977061449005000105005TJOSE MARIA ESPONERA PASCUAL                                                 000000000000000000N
031977061449011000105011TFERNANDO DE LATORRE JASA                                                    000000000000000000N
031977061509010000008010TALFONSO MATEO BLANCO                                                        000000000000000000N
031977061509011000008011TARACELI OROS ARA                                                            000000000000000000N
031977061509014000008014TSERAPIO DEL RIO ORTEGA                                                      000000000000000000N
031977061509015000008015TMIGUEL RIVILLA AZCUNE                                                       000000000000000000N
031977061509001000009001TADOLFO CASTILLO GERZOR                                                      000000000000000000N
031977061509008000009008TRICARDO MALUMBRES LOGROÑO                                                   000000000000000000N
031977061509019000009019TJOSE MARIA ZALDIVAR ARENZANA                                                000000000000000000N
031977061509006000020006TLUIS LAGUNA GARCIA                                                          000000000000000000N
031977061509002000024002TPILAR CRESPO CORTES                                                         000000000000000000N
031977061509003000024003TMANUEL GARCIA ATANCE                                                        000000000000000000N
031977061509012000024012TSANTIAGO PARRA DE MAS                                                       000000000000000000N
031977061509007000078007TSANTIAGO LOREN ESTEBAN                                                      000000000000000000N
031977061509005000104005TANGEL GRACIA OLIVEROS                                                       000000000000000000N
031977061509018000104018TMANUEL VITORIA GARCES                                                       000000000000000000N
031977061509004000106004TMATEO-ANTONIO GARCIA MATEO                                                  000000000000000000S
031977061509009000106009TLORENZO MARTIN-RETORTILLO BAQUER                                            000000000000000000S
031977061509016000106016TRAMON SAINZ DE VARANDA Y JIMENEZ                                            000000000000000000S
031977061509013000107013TMARIA ISABEL PONTAQUE ADELANTADO                                            000000000000000000N
031977061509017000107017TJUAN JOSE SANZ JARQUE                                                       000000000000000000N
031977061509020000107020TISAIAS ZARAZAGA BURILLO                                                     000000000000000000S
031977061339012000008012TCARLOS HIDALGO SCHUMANN                                                     000000000000000000N
031977061339014000008014TJOSE LUIS LOPEZ-SELA DIAZ-FAES                                              000000000000000000N
031977061339006000009006TJOSE MARIA CASIELLES AGUADE                                                 000000000000000000N
031977061339013000009013TJUAN MANUEL JUNCEDA AVELLO                                                  000000000000000000N
031977061339020000009020TROMAN SUAREZ BLANCO                                                         000000000000000000N
031977061339018000037018TENRIQUE RUBIO SAÑUDO                                                        000000000000000000N
031977061339021000037021TLORENZO VELASCO CASTAÑO                                                     000000000000000000N
031977061339004000080004TJESUS CADAVIECO HEVIA                                                       000000000000000000N
031977061339016000080016TMARCELO PALACIOS ALONSO                                                     000000000000000000N
031977061339019000080019TJUAN JOSE SANCHEZ VICENTE                                                   000000000000000000N
031977061339001000087001TJOSE MARIA ALONSO VEGA SUAREZ                                               000000000000000000S
031977061339002000087002TAGUSTIN JOSE ANTUÑA ALONSO                                                  000000000000000000N
031977061339003000087003TADOLFO BARTHE AZA                                                           000000000000000000N
031977061339007000103007TATANASIO CORTE ZAPICO                                                       000000000000000000S
031977061339008000103008TRAFAEL LUIS FERNANDEZ ALVAREZ                                               000000000000000000S
031977061339017000103017TWENCESLAO ROCES SUAREZ                                                      000000000000000000S
031977061339005000108005TJESUS EVARISTO CASARIEGO FERNANDEZ                                          000000000000000000N
031977061339009000109009TFRANCISCO FERNANDEZ CORTE                                                   000000000000000000N
031977061339010000109010TMANUEL FERNANDEZ-PELLO GARCIA                                               000000000000000000N
031977061339011000109011TRAMON FERNANDEZ-RAÑADA MENENDEZ DE LUARCA                                   000000000000000000N
031977061339015000109015TJULIO MANGAS MANJARRES                                                      000000000000000000N
031977061071002000008002TRICARDO BAHILS COLLADOS                                                     000000000000000000N
031977061071003000008003TFRANCISCO BAUZA GIMENEZ                                                     000000000000000000N
031977061071010000008010TJUAN ANTONIO OLIVER PARDO                                                   000000000000000000N
031977061071008000009008TLUIS M. OLASCOAGA KROEBER                                                   000000000000000000N
031977061071016000009016TRAFAEL DE LA ROSA VAZQUEZ                                                   000000000000000000N
031977061071005000020005TMANUEL FAUNDEZ GARCIA                                                       000000000000000000N
031977061071009000020009TJOSE OLEA VAZQUEZ                                                           000000000000000000N
031977061071014000062014TIGNACIO RIBAS GARAU                                                         000000000000000000N
031977061071007000078007TMANUEL MORA ESTEVA                                                          000000000000000000S
031977061071012000078012TJUAN PIÑA OLIVER                                                            000000000000000000N
031977061071006000085006TCLEMENTE GARAU ARBONA                                                       000000000000000000N
031977061071001000087001TJERONIMO ALBERTI PICORNELL                                                  000000000000000000S
031977061071011000087011TRAMIRO PEREZ-MAURA HERRERA                                                  000000000000000000S
031977061071004000089004TJAUME ENSEÑAT JULIA                                                         000000000000000000N
031977061071015000089015TEUSEBIO RIERA ESTADA                                                        000000000000000000N
031977061071013000100013TJUAN PIZA MASSANET                                                          000000000000000000N
031977061071017000100017TANTONIO F. TARABINI-CASTELLANI CABOT                                        000000000000000000N
031977061072002000009002TANTONIO CARDONA SANS                                                        000000000000000000N
031977061072004000078004TJOSE MOLL MARQUES                                                           000000000000000000N
031977061072003000079003TJOSE CAULES JUAN                                                            000000000000000000N
031977061072005000087005TGUILLERMO DE OLIVES PONS                                                    000000000000000000S
031977061072006000089006TFERNANDO RUBIO TUDURI                                                       000000000000000000N
031977061072001000110001TANTONIO ANGLADA ANGLADA                                                     000000000000000000N
031977061072007000111007TANTONIO TRIAY LLOPIS                                                        000000000000000000N
031977061073004000009004TABEL MATUTES JUAN                                                           000000000000000000S
031977061073005000087005TGUILLERMO TUELLS RIQUER                                                     000000000000000000N
031977061073001000089001TERNESTO ALTES COLL                                                          000000000000000000N
031977061073003000112003TISIDOR MARI MAYANS                                                          000000000000000000N
031977061073002000113002TMARIANO LLOBET ROMAN                                                        000000000000000000N
031977061351007000009007TJOSE NARANJO HERMOSILLA                                                     000000000000000000N
031977061351008000009008TMANUEL PADRON QUEVEDO                                                       000000000000000000N
031977061351005000062005TANTONIO GONZALEZ VIEITEZ                                                    000000000000000000N
031977061351002000064002TFELICIANA-JULIA CHINARRO PLAZA                                              000000000000000000N
031977061351009000070009TAMADO RAMOS PEREZ                                                           000000000000000000N
031977061351010000078010TJUAN RODRIGUEZ DORESTE                                                      000000000000000000N
031977061351012000078012TANGEL TRISTAN PIMIENTA                                                      000000000000000000N
031977061351006000080006TSALVADOR MARTEL HIDALGO                                                     000000000000000000N
031977061351001000087001TDIEGO CAMBRELENG ROCA                                                       000000000000000000S
031977061351004000087004TFERNANDO GIMENEZ NAVARRO                                                    000000000000000000S
031977061351011000087011TGREGORIO TOLEDO RODRIGUEZ                                                   000000000000000000S
031977061351003000114003TJOSE JOAQUIN DIAZ DE AGUILAR Y ELIZAGA                                      000000000000000000N
031977061352002000009002TLORENZO GONZALEZ DOMINGUEZ                                                  000000000000000000N
031977061352001000078001TJOSE MARIA ESPINO GONZALEZ                                                  000000000000000000N
031977061352003000080003TMANUEL MEDINA ORTEGA                                                        000000000000000000N
031977061352004000087004TRAFAEL STINGA GONZALEZ                                                      000000000000000000S
031977061353004000009004TMANUEL MARTIN MARTIN                                                        000000000000000000N
031977061353002000087002THILARIO ESTEVEZ MORERA                                                      000000000000000000N
031977061353003000104003TMATIAS GONZALEZ GARCIA                                                      000000000000000000N
031977061353001000155001TMIGUEL CABRERA CABRERA                                                      000000000000000000S
031977061384003000009003TPEDRO MODESTO CAMPOS RODRIGUEZ                                              000000000000000000N
031977061384005000009005TPEDRO DOBLADO CLAVERIE                                                      000000000000000000N
031977061384006000062006TJESUS GARCIA MANRIQUE                                                       000000000000000000N
031977061384008000070008TMANUEL LOPEZ GARCIA                                                         000000000000000000N
031977061384001000078001TALBERTO DE ARMAS GARCIA                                                     000000000000000000S
031977061384007000078007TJESUS ILLADA QUINTERO                                                       000000000000000000N
031977061384004000080004TLUIS CARRASCO CASANOVA                                                      000000000000000000N
031977061384002000087002TJOSE MANUEL BARRIOS DORTA                                                   000000000000000000S
031977061384009000087009TMARIA DOLORES PELAYO DUQUE                                                  000000000000000000S
031977061384010000115010TANTONIO QUINTANA MALLEDO                                                    000000000000000000N
031977061385001000009001TANTONIO CARRILLO KABANAS                                                    000000000000000000N
031977061385003000078003TCARLOS MANUEL RODRIGUEZ ALVAREZ                                             000000000000000000N
031977061385002000087002TACENK-ALEJANDRO GALVAN GONZALEZ                                             000000000000000000S
031977061386002000009002TJOSE JESUS BENCOMO MENDOZA                                                  000000000000000000N
031977061386001000062001TJUAN PEDRO ASCACIO GARCIA                                                   000000000000000000N
031977061386004000070004TRAMON JEREZ HERRERA                                                         000000000000000000N
031977061386003000078003TPEDRO GARCIA CABRERA                                                        000000000000000000N
031977061386005000087005TFEDERICO PADRON PADRON                                                      000000000000000000S
031977061399002000008002TJULIO DEL ARCO MONTESINO                                                    000000000000000000N
031977061399015000008015TJOSE MARIA POLANCO TOVA                                                     000000000000000000N
031977061399016000008016TRODOLFO SIERRA MAÑUECO                                                      000000000000000000N
031977061399013000009013TFERNANDO MARIA PEREDA APARICIO                                              000000000000000000N
031977061399018000009018TJOSE LUIS DE LA VEGA-HAZAS DEL CAMPO                                        000000000000000000N
031977061399019000009019TJOSE LUIS ZAMANILLO GONZALEZ-CAMINO                                         000000000000000000N
031977061399001000075001TIGNACIO AGUILERA SANTIAGO                                                   000000000000000000N
031977061399004000075004TCARMEN COSSIO Y ESCALANTE                                                   000000000000000000N
031977061399006000079006TJOSE MIGUEL GARCIA VILLAVERAN                                               000000000000000000N
031977061399012000079012TENRIQUE PANERO TOCA                                                         000000000000000000N
031977061399003000087003TRICARDO MANUEL BUENO FERNANDEZ                                              000000000000000000S
031977061399007000087007TJOSE MARIANO GONZALEZ-TARRIO GALLEGO                                        000000000000000000S
031977061399014000087014TJOSE LUIS DEL PIÑAL RUIZ DE HUIDOBRO                                        000000000000000000S
031977061399008000115008TTOMAS GONZALEZ QUIJANO                                                      000000000000000000N
031977061399011000115011TEDUARDO OBREGON BARREDA                                                     000000000000000000N
031977061399005000116005TJOSE LUIS GARCIA PEÑA                                                       000000000000000000N
031977061399009000116009TJUAN MANUEL GRACIA MENOCAL                                                  000000000000000000N
031977061399010000116010TBENITO HUERTA ARGENTA                                                       000000000000000000S
031977061399017000116017TJOSE MANUEL SOMAVILLA FERNANDEZ                                             000000000000000000N
031977061029002000009002TGONZALO BOTIJA CABO                                                         000000000000000000N
031977061029011000009011TANTONIO VECIANA FERRUS                                                      000000000000000000N
031977061029006000078006TANDRES JOSE PICAZO GONZALEZ                                                 000000000000000000S
031977061029001000087001TJUANA ARCE MOLINA                                                           000000000000000000S
031977061029007000087007TLUIS PIÑERO FERNANDEZ                                                       000000000000000000S
031977061029010000087010TJUAN VAZQUEZ ALBERICH                                                       000000000000000000S
031977061029004000117004TJOAQUIN IÑIGUEZ MOLINA                                                      000000000000000000N
031977061029005000117005TRESTITUTO MADRONA GASCON                                                    000000000000000000N
031977061029008000117008TJUAN RAMIREZ PIQUERAS                                                       000000000000000000N
031977061029003000118003TANGEL GARCIA CUESTA                                                         000000000000000000N
031977061029009000118009TABELARDO SANCHEZ MORENO                                                     000000000000000000N
031977061139009000008009TFRANCISCO HERENCIA OLIVA                                                    000000000000000000N
031977061139015000008015TEDUARDO MORENO GOMEZ                                                        000000000000000000N
031977061139019000008019TFELIX TORRES BADOS                                                          000000000000000000N
031977061139012000009012TCECILIO LOPEZ PASTOR                                                        000000000000000000N
031977061139013000009013TLUIS MARTINEZ GUTIERREZ                                                     000000000000000000N
031977061139017000009017TEDUARDO RODRIGUEZ AREVALO                                                   000000000000000000N
031977061139007000062007TJOSE BENITO FROUFE CARLOS                                                   000000000000000000N
031977061139003000078003TROGELIO BORRAS SERRA                                                        000000000000000000S
031977061139014000078014TCIPRIANO MORALES LIÑAN                                                      000000000000000000S
031977061139016000078016TBONIFACIO RABOSO PEDRERO                                                    000000000000000000N
031977061139002000080002TELSA DE BENITO Y CORNEJO                                                    000000000000000000N
031977061139006000080006TRAMON FERNANDEZ ESPINOSA                                                    000000000000000000N
031977061139008000080008TFRANCISCO GRANADOS CALERO                                                   000000000000000000N
031977061139005000087005TCARLOS CALATAYUD MALDONADO                                                  000000000000000000S
031977061139011000087011TJOSE LOPEZ PACIOS                                                           000000000000000000S
031977061139018000087018TELOY SANCHO GARCIA                                                          000000000000000000N
031977061139004000119004TMANUEL BRISO DE MONTIANO RUIZ DE LA SIERRA                                  000000000000000000N
031977061139010000119010TISAAC HIDALGA CANO                                                          000000000000000000N
031977061139001000120001TJOSE MARIA APARICIO ARCE                                                    000000000000000000N
031977061169001000009001TFERNANDO ALARCON DEL OLMO                                                   000000000000000000N
031977061169013000009013TFERNANDO RUIZ GARCIA                                                        000000000000000000N
031977061169016000009016TJOSE EMILIO SANCHEZ PINTADO                                                 000000000000000000N
031977061169012000012012TRAMON RODRIGUEZ MARTINEZ                                                    000000000000000000N
031977061169015000032015TVICENTE SANCHEZ IZQUIERDO                                                   000000000000000000N
031977061169003000038003TAMADOR DE LA CRUZ SORIA                                                     000000000000000000N
031977061169004000038004TJULIAN ESCAMILLA FERNANDEZ                                                  000000000000000000N
031977061169017000038017TEMILIA TRIGO MACIAS                                                         000000000000000000N
031977061169005000062005TDIEGO JESUS JIMENEZ GALINDO                                                 000000000000000000N
031977061169009000078009TAMALIA MIRANZO MARTINEZ                                                     000000000000000000S
031977061169002000080002TALFONSO CAMPOS VAZQUEZ                                                      000000000000000000N
031977061169018000080018TBASILIO VILLALBA HERRANZ                                                    000000000000000000N
031977061169014000084014TJOSE SALAZAR BELMAR                                                         000000000000000000N
031977061169006000087006TRODRIGO LOZANO DE LA FUENTE                                                 000000000000000000S
031977061169010000087010TRAFAEL MOMBIEDRO DE LA TORRE                                                000000000000000000S
031977061169011000087011TANDRES MOYA LOPEZ                                                           000000000000000000S
031977061169008000104008TJAIME MIRALLES ALVAREZ                                                      000000000000000000N
031977061169007000121007TPEDRO MALAVIA NAVARRO                                                       000000000000000000N
031977061199001000009001TTOMAS ALLENDE Y GARCIA-BAXTER                                               000000000000000000N
031977061199004000009004TJOSE GARCIA HERNANDEZ                                                       000000000000000000N
031977061199013000009013TMANUEL RIVAS GUADILLA                                                       000000000000000000N
031977061199005000035005TJOSE MARIA GUIJARRO HEREDERO                                                000000000000000000N
031977061199007000035007TLUIS LAFONT PEREZ                                                           000000000000000000N
031977061199012000035012TROBERTO REYES MORALES                                                       000000000000000000N
031977061199011000062011TFRANCISCO PALERO GOMEZ                                                      000000000000000000N
031977061199006000078006TFRANCISCO JAVIER IRIZAR ORTEGA                                              000000000000000000N
031977061199008000078008TPABLO LLORENTE PEREZ                                                        000000000000000000N
031977061199010000078010TRAFAEL MORA-GRANADOS MARULL                                                 000000000000000000S
031977061199009000080009TMARIA PILAR MAGRO PERTEGUER                                                 000000000000000000N
031977061199002000087002TFELIX CALVO ORTEGA                                                          000000000000000000S
031977061199003000087003TANTONIO FERNANDEZ-GALIANO FERNANDEZ                                         000000000000000000S
031977061199014000087014TFELICIANO ROMAN RUIZ                                                        000000000000000000S
031977061459001000008001TJUAN AVILA DIAZ                                                             000000000000000000N
031977061459010000008010TBLAS PIÑAR Y LOPEZ                                                          000000000000000000N
031977061459013000008013TARTURO RELANZON ECHEVARRIA                                                  000000000000000000N
031977061459008000009008TMARIANO MARTINEZ HERRANZ                                                    000000000000000000N
031977061459011000009011TAURELIANO-JULIO PRIETO DIAZ                                                 000000000000000000N
031977061459005000020005TJESUS LABORDA MARTINEZ-POZO                                                 000000000000000000N
031977061459004000062004TTRINIDAD GARCIA VIDALES                                                     000000000000000000N
031977061459009000078009TGREGORIO PECES-BARBA DEL BRIO                                               000000000000000000S
031977061459012000078012TFRANCISCO RAMOS FERNANDEZ-TORRECILLA                                        000000000000000000S
031977061459007000080007TFERNANDO MARTIN APARICIO                                                    000000000000000000N
031977061459017000080017TMIGUEL ZAMORA NODAL                                                         000000000000000000N
031977061459002000087002TFERNANDO CHUECA Y GOITIA                                                    000000000000000000S
031977061459014000087014TFERNANDO ROJAS GOMEZ                                                        000000000000000000S
031977061459015000087015TJOSE MARIA TRADACETE TORRES                                                 000000000000000000N
031977061459006000104006TLEOPOLDO LOVELACE ROMERO                                                    000000000000000000N
031977061459016000104016TJOAQUIN VAN DEN BRULE GOMEZ DE LLARENA                                      000000000000000000N
031977061459003000122003TJOSE MARIA FERNANDEZ DE LA VEGA Y SEDANO                                    000000000000000000N
031977061059001000009001TFRANCISCO ABELLA MARTIN                                                     000000000000000000N
031977061059004000009004TFAUSTINO CERMEÑO CERMEÑO                                                    000000000000000000N
031977061059012000009012TJAIME SANTAMARIA BEJARANO                                                   000000000000000000N
031977061059013000035013TLUIS VALERO BERMEJO                                                         000000000000000000N
031977061059007000038007TJOSE GARCIA LOPEZ                                                           000000000000000000N
031977061059003000078003TJOSE FEDERICO CARVAJAL PEREZ                                                000000000000000000S
031977061059009000078009TMARIANO GOMEZ SANCHEZ                                                       000000000000000000N
031977061059014000078014TRODOLFO VAZQUEZ DE MARCOS                                                   000000000000000000N
031977061059010000080010TPABLO MATIAS HERNANDEZ HERNANDEZ                                            000000000000000000N
031977061059002000087002TDARIO BENITO GARCIA                                                         000000000000000000S
031977061059005000087005TALBERTO MANUEL DORREGO GONZALEZ                                             000000000000000000S
031977061059006000087006TJULIO GARCIA BENAVIDES                                                      000000000000000000S
031977061059008000097008THILARIO GARCIA MARTIN                                                       000000000000000000N
031977061059011000097011TJOSE SAHAGUN DE LA LASTRA                                                   000000000000000000N
031977061059015000097015TCLEMENTE VICENTE GARCIA                                                     000000000000000000N
031977061099001000009001TJOSE MARIA  ALCALDE ARNAIZ                                                  000000000000000000N
031977061099005000009005TFERNANDO DANCAUSA DE MIGUEL                                                 000000000000000000N
031977061099012000009012TFERNANDO REDONDO BERDUGO                                                    000000000000000000N
031977061099006000020006TANTONIO GARCIA ARLANZON                                                     000000000000000000N
031977061099009000020009TJESUS MARTINEZ GARCIA                                                       000000000000000000N
031977061099010000033010TVALENTIN MERINO ESTRADA                                                     000000000000000000N
031977061099003000087003TPEDRO CARAZO CARNICERO                                                      000000000000000000S
031977061099004000087004TMANUEL CHAMON RUBIO                                                         000000000000000000S
031977061099011000087011TFELIX PEREZ PEREZ                                                           000000000000000000S
031977061099002000123002TVICENTE BEATO GONZALEZ                                                      000000000000000000N
031977061099008000123008TJUAN JOSE LABORDA MARTIN                                                    000000000000000000S
031977061099014000123014TJUAN LUIS DE SIMON TOBALINA                                                 000000000000000000N
031977061099007000124007TAVELINO GARCIA GONZALEZ                                                     000000000000000000N
031977061099013000124013TJUAN RIU IZQUIERDO                                                          000000000000000000N
031977061249004000009004TMANUEL DIEZ-ORDAS ORDAS                                                     000000000000000000N
031977061249005000009005TANGEL GONZALEZ ALVAREZ                                                      000000000000000000N
031977061249011000009011TLUIS CARLOS VALLADARES DE LA CUESTA                                         000000000000000000N
031977061249002000012002TMILLAN BRAVO LOZANO                                                         000000000000000000N
031977061249009000012009TALFONSO PRIETO PRIETO                                                       000000000000000000N
031977061249007000087007TANGEL MARTINEZ FUERTES                                                      000000000000000000S
031977061249008000087008TUBALDO NIETO DE ALBA                                                        000000000000000000S
031977061249010000087010TJULIO CESAR RODRIGO DE SANTIAGO                                             000000000000000000S
031977061249001000125001TJOSE ALVAREZ DE PAZ                                                         000000000000000000N
031977061249003000125003TMIGUEL CORDERO DEL CAMPILLO                                                 000000000000000000S
031977061249006000125006TCRISTOBAL HALFFTER JIMENEZ-ENCINA                                           000000000000000000N
031977061349005000003005TJULIO CUENA FUENTE                                                          000000000000000000N
031977061349009000003009TJOSE MARIA LOPEZ ARRIETA                                                    000000000000000000N
031977061349012000003012TMARIO PASCUAL MATE                                                          000000000000000000N
031977061349001000009001TTOMAS AGUADO DURANTEZ                                                       000000000000000000N
031977061349008000009008TPATRICIO IZQUIERDO SARRO                                                    000000000000000000N
031977061349013000009013TMONICA PLAZA DE PRADO                                                       000000000000000000N
031977061349004000078004TJAIME CORTES FERNANDEZ                                                      000000000000000000N
031977061349011000078011TGREGORIO OCHAGAVIA LANCHARES                                                000000000000000000N
031977061349014000078014TFRANCISCO JAVIER YUSTE GRIJALBA                                             000000000000000000S
031977061349003000080003TNIEVES ARTAJO DE NO                                                         000000000000000000N
031977061349007000080007TRAFAEL GUTIERREZ CARRIEDO                                                   000000000000000000N
031977061349002000087002TJOSE LUIS ALONSO ALMODOVAR                                                  000000000000000000S
031977061349006000087006TJUAN CARLOS GUERRA ZUNZUNEGUI                                               000000000000000000S
031977061349010000087010TJOSE LUIS LOPEZ HENARES                                                     000000000000000000S
031977061379001000009001TJESUS ARAMBURU OLARAN                                                       000000000000000000N
031977061379008000009008TALBERTO NAVARRO GONZALEZ                                                    000000000000000000N
031977061379009000009009TILDEFONSO PEREZ DE HERRASTI Y NARVAEZ                                       000000000000000000N
031977061379007000020007TCECILIO HERREROS UCEDA                                                      000000000000000000N
031977061379002000080002TFERNANDO BEJAR DE AGUILAR                                                   000000000000000000N
031977061379004000087004TMANUEL DELGADO SANCHEZ-ARJONA                                               000000000000000000S
031977061379005000087005TVIDAL GARCIA TABERNERO ORIVE                                                000000000000000000S
031977061379011000087011TARGIMIRO SANCHEZ CENIZO                                                     000000000000000000N
031977061379012000087012TFRANCISCO VICENTE DOMINGUEZ                                                 000000000000000000S
031977061379003000126003TRAMIRO DE CASTRO SANTAMARIA                                                 000000000000000000N
031977061379006000126006TEMILIO HERRERO MARCOS                                                       000000000000000000N
031977061379010000126010TLUIS PINEDO DE ALARCON                                                      000000000000000000N
031977061379013000126013TANGEL ZAMANILLO ENCINAS                                                     000000000000000000S
031977061409002000008002TJULIO GARCIA IBAÑEZ                                                         000000000000000000N
031977061409004000009004TJAVIER GIL DE BIEDMA Y VEGA DE SEOANE                                       000000000000000000N
031977061409005000009005TANTONIO HORCAJO MATESANZ                                                    000000000000000000N
031977061409007000060007TLUIS FELIPE PEÑALOSA CONTRERAS                                              000000000000000000N
031977061409008000078008TJOSE ANTONIO PEREZ GALLEGO                                                  000000000000000000S
031977061409009000078009TLUIS RODRIGO CARRASCO                                                       000000000000000000N
031977061409011000078011TLEOPOLDO TORRES BOURSAULT                                                   000000000000000000N
031977061409003000080003TALBINO GARCIA LOBO                                                          000000000000000000N
031977061409001000087001TRAFAEL CALVO ORTEGA                                                         000000000000000000S
031977061409006000087006TJULIO NIEVES BORREGO                                                        000000000000000000S
031977061409010000087010TLUCIANO SANCHEZ REUS                                                        000000000000000000S
031977061429014000009014TJOSE MARIA GREGORIO MARTINEZ VAL                                            000000000000000000N
031977061429015000009015TANDRES MEDINA MEDINA                                                        000000000000000000N
031977061429019000009019TPABLO LUIS VELILLA ALCUBILLA                                                000000000000000000N
031977061429001000035001TPABLO ABAD DE LA FUENTE                                                     000000000000000000N
031977061429012000035012TSATURNINO LUNA FERNANDEZ                                                    000000000000000000N
031977061429013000035013TJESUS A. MARTINEZ TRILLO-FIGUEROA                                           000000000000000000N
031977061429011000078011TANTONIO LEON MUÑOZ                                                          000000000000000000N
031977061429016000078016TMANUEL NUÑEZ ENCABO                                                         000000000000000000N
031977061429017000078017TANTONIO RUIZ RUIZ                                                           000000000000000000N
031977061429003000127003TJESUS BORQUE GUILLEN                                                        000000000000000000S
031977061429005000127005TFIDEL CARAZO HERNANDEZ                                                      000000000000000000S
031977061429006000127006TNEMESIO CASADO CECILIA                                                      000000000000000000N
031977061429007000127007TRAMIRO CERCOS PEREZ                                                         000000000000000000S
031977061429009000127009TJOSE MARIA GARCIA ROYO                                                      000000000000000000S
031977061429010000127010TVICTORINO GONZALO MUÑOZ                                                     000000000000000000N
031977061429018000127018TJUAN SALA DE PABLO                                                          000000000000000000N
031977061429020000127020TJOAQUIN YUS SERRANO                                                         000000000000000000N
031977061429002000128002TJOSE BOROBIO ALVINA                                                         000000000000000000N
031977061429004000128004TJUAN A. CANOVAS DEL CASTILLO FRAILE                                         000000000000000000N
031977061429008000128008TJOSE MARIA ESCUIN VERA                                                      000000000000000000N
031977061479004000008004TSIRO SEVERINO GARCIA RODRIGUEZ                                              000000000000000000N
031977061479007000008007TJAVIER HERNANDEZ DE LA ROSA                                                 000000000000000000N
031977061479009000008009TJESUS MARTIN FERNANDEZ DE VELASCO                                           000000000000000000N
031977061479001000009001TJESUS CUETO SESMERO                                                         000000000000000000N
031977061479003000009003TJERONIMO GALLEGO PEREZ                                                      000000000000000000N
031977061479014000009014TANTONIO D. SOLDEVILLA VILLAR                                                000000000000000000N
031977061479006000032006TRAFAEL GONZALEZ YAÑEZ                                                       000000000000000000N
031977061479010000033010TFRANCISCO MANUEL MARTIN PARRA                                               000000000000000000N
031977061479015000062015TJULIO VALDEON BARUQUE                                                       000000000000000000N
031977061479005000078005TPEDRO GOMEZ BOSQUE                                                          000000000000000000S
031977061479011000080011TANGEL NOMBELA VERA                                                          000000000000000000N
031977061479002000087002TLUIS MIGUEL ENCISO RECIO                                                    000000000000000000S
031977061479008000087008TANTONIO MARTIN DESCALZO                                                     000000000000000000S
031977061479013000087013TALEJANDRO ROYO-VILLANOVA Y PAYA                                             000000000000000000S
031977061479012000129012TJESUS MANUEL REBOLLEDA LAMBAS                                               000000000000000000N
031977061479016000129016TBERNARDINO VERGARA GIL                                                      000000000000000000N
031977061499014000006014TALFREDO PORTO PEREZ                                                         000000000000000000N
031977061499003000009003TAGUSTIN DE ASIS GARROTE                                                     000000000000000000N
031977061499009000009009TMIGUEL GAMAZO PELAZ                                                         000000000000000000N
031977061499010000009010TJESUS GARCIA MUÑOZ                                                          000000000000000000N
031977061499018000009018TJUAN SEISDEDOS ROBLES                                                       000000000000000000N
031977061499002000012002TFRANCISCO JOSE ALONSO RODRIGUEZ                                             000000000000000000N
031977061499016000012016TIGNACIO SARDA MARTIN                                                        000000000000000000N
031977061499004000032004TJUAN ANTONIO BARBA PALAO                                                    000000000000000000N
031977061499008000032008TJOSE LUIS FERNANDEZ MUÑOZ                                                   000000000000000000N
031977061499017000032017TJUAN JOSE SASTRE SASTRE                                                     000000000000000000N
031977061499013000036013TLUIS MARTIN RODRIGUEZ                                                       000000000000000000N
031977061499001000078001TMANUEL ALONSO NOVO                                                          000000000000000000S
031977061499005000078005TJUAN CALVO MARTIN                                                           000000000000000000N
031977061499012000078012TLUIS DE LA IGLESIA DE SAN LUIS                                              000000000000000000N
031977061499011000080011TROMAN DE LA HIGUERA ALONSO                                                  000000000000000000N
031977061499006000087006TVICTOR CARRASCAL FELGUEROSO                                                 000000000000000000S
031977061499007000087007TVALERIANO ENRIQUEZ GONZALEZ                                                 000000000000000000S
031977061499015000087015TLUIS RODRIGUEZ SAN LEON                                                     000000000000000000S
031977061089009000008009TCESAR MONTERO COLADO                                                        000000000000000000N
031977061089010000008010TRAMON MORENO PERALES                                                        000000000000000000N
031977061089016000008016TENRIQUE SALVADOR HERNANDEZ                                                  000000000000000000N
031977061089001000017001TALFONSO BALCELLS GORINA                                                     000000000000000000N
031977061089003000017003TRAMON BOBES MARLET                                                          000000000000000000N
031977061089013000017013TJUAN MARIA ROGER GALLES                                                     000000000000000000N
031977061089006000027006TMIGUEL COLL ALENTORN                                                        000000000000000000N
031977061089012000027012TJOSEP PI-SUÑER CUBERTA                                                      000000000000000000N
031977061089019000027019TFRANCESC VIADIU VENDRELL                                                    000000000000000000N
031977061089002000073002TJOSE BENET MORELL                                                           000000000000000000S
031977061089004000073004TFRANCISCO CANDEL TORTAJADA                                                  000000000000000000S
031977061089005000073005TALEXANDRE CIRICI PELLICER                                                   000000000000000000S
031977061089007000087007TGUILLERMO DIAZ PLAJA                                                        000000000000000000N
031977061089011000087011TESTEBAN NEGRA VALLS                                                         000000000000000000N
031977061089018000087018TJOSE ANTONIO TORROJA CAVANILLAS                                             000000000000000000N
031977061089017000115017TEDUARDO TARRAGONA CORBELLA                                                  000000000000000000N
031977061089020000115020TLUIS MARIA XIRINACH DAMIANS                                                 000000000000000000S
031977061089008000130008TEPIFANI DE FORTUNY I DE SALAZAR                                             000000000000000000N
031977061089014000130014TANTONI ROLDAN I RODRIGUEZ                                                   000000000000000000N
031977061089015000130015TOCTAVI SALTOR I SOLER                                                       000000000000000000N
031977061179002000009002TJOAQUIN CASADEVALL GUIXERAS                                                 000000000000000000N
031977061179012000009012TJOAN ROSA LLOSA                                                             000000000000000000N
031977061179015000009015TCARMELO VALENCIANO GARRO                                                    000000000000000000N
031977061179009000073009TPEDRO PORTABELLA RAFOLS                                                     000000000000000000S
031977061179013000073013TJAIME SOBREQUES CALLICO                                                     000000000000000000S
031977061179014000073014TSALVADOR SUNYER AYMERICH                                                    000000000000000000S
031977061179003000087003TJOSE MARIA CLUA VILADRICH                                                   000000000000000000N
031977061179004000087004TJOAQUIN CRUMOLS TORALLES                                                    000000000000000000N
031977061179010000087010TALBERTO DE QUINTANA VERGES                                                  000000000000000000N
031977061179001000130001TMANUEL BONMATI ROMAGUERA                                                    000000000000000000N
031977061179008000130008TFRANCISCO DE P. LLACH I PUIG                                                000000000000000000N
031977061179011000130011TFELIX ROMEU I PERLAS                                                        000000000000000000N
031977061179005000131005TFRANCESC FERRER I GIRONES                                                   000000000000000000S
031977061179006000131006TJOAQUIN GENOVER VILA                                                        000000000000000000N
031977061179007000131007TTERESA JUVE ACERO, VDA. PALLACH                                             000000000000000000N
031977061259004000009004TSAMUEL CLUA PALAU                                                           000000000000000000N
031977061259006000009006TMIGUEL COSTA ORTEGA                                                         000000000000000000N
031977061259007000009007TJOAQUIN MASANES CAPDEVILA                                                   000000000000000000N
031977061259002000073002TROSENDO AUDET PUNCERNAU                                                     000000000000000000S
031977061259003000073003TJOSE BALL ARMENGOL                                                          000000000000000000S
031977061259012000073012TFELIPE SOLER SABARIS                                                        000000000000000000S
031977061259001000084001TMERCEDES AGUADO LOPEZ                                                       000000000000000000N
031977061259008000087008TMIGUEL MONTAÑA CARRERA                                                      000000000000000000N
031977061259009000087009TJOSE MARIA MORA MASCARO                                                     000000000000000000N
031977061259010000088010TCELESTI POL I POL                                                           000000000000000000N
031977061259005000131005TJOAN CORNUDELLA BARBERA                                                     000000000000000000N
031977061259011000132011TMARIA RUBIES GARROFE                                                        000000000000000000S
031977061259013000133013TJOAQUIN VIOLA SAURET                                                        000000000000000000N
031977061439003000009003TIGNACIO BUQUERAS BACH                                                       000000000000000000N
031977061439006000009006TJOAQUIN FABRA GRIFOLL                                                       000000000000000000N
031977061439014000009014TRICARDO VILAR GUIX                                                          000000000000000000N
031977061439002000073002TJOSE ANTONIO BAIXERAS SASTRE                                                000000000000000000S
031977061439008000073008TCARLOS MARTI MASSAGUE                                                       000000000000000000S
031977061439012000073012TJOSE SUBIRATS PIÑANA                                                        000000000000000000S
031977061439004000087004TEMILIO CASALS PARRAL                                                        000000000000000000S
031977061439009000087009TENRIQUE NOMEN BORRAS                                                        000000000000000000N
031977061439010000087010TALFREDO PASTOR PASTOR                                                       000000000000000000N
031977061439001000115001TMANUEL ARAGONES VIRGILI                                                     000000000000000000N
031977061439005000115005TGUILLERMO COMPANYS BOLDU                                                    000000000000000000N
031977061439007000131007TGABRIEL FERRATE PASCUAL                                                     000000000000000000N
031977061439011000131011TAGUSTIN ROSELL SAURINA                                                      000000000000000000N
031977061439013000131013TENRIQUE VENDRELL DURAN                                                      000000000000000000N
031977061069003000008003TLUIS DEL BARCO ZARZA                                                        000000000000000000N
031977061069012000008012TJOSE ANTONIO PECHE PRIMO DE RIVERA                                          000000000000000000N
031977061069002000009002TANTONIO ANDRINO VALENCIA                                                    000000000000000000N
031977061069006000009006TJUAN DIAZ-AMBRONA BARDAJI                                                   000000000000000000N
031977061069009000009009TMANUEL GASSET DORADO                                                        000000000000000000N
031977061069005000012005TBLAS CURADO GARCIA                                                          000000000000000000N
031977061069001000080001TMIGUEL ALVAREZ ENCINAS                                                      000000000000000000N
031977061069013000080013TFRANCISCO PITARQUE PARDOS                                                   000000000000000000N
031977061069014000087014TLUIS-JACINTO RAMALLO GARCIA                                                 000000000000000000S
031977061069015000087015TVICENTE SANCHEZ CUADRADO                                                    000000000000000000S
031977061069004000134004TJUAN ANTONIO CANSINOS RIOBOO                                                000000000000000000S
031977061069008000134008TANTONIO GARCIA FRANCO                                                       000000000000000000N
031977061069011000134011TALFONSO MORENO DE ACEVEDO SAMPEDRO                                          000000000000000000S
031977061069007000135007TANTONIO DEL FORCALLO GONZALEZ                                               000000000000000000N
031977061069010000135010TFERNANDO IÑIGUEZ SANCHEZ-ARJONA                                             000000000000000000N
031977061109001000009001TJESUS APARICIO GONZALEZ                                                     000000000000000000N
031977061109003000009003TJOSE BLANCO RODRIGUEZ                                                       000000000000000000N
031977061109008000009008TCARLOS FALCO FERNANDEZ DE CORDOVA                                           000000000000000000N
031977061109016000033016TPEDRO OLMOS DIAZ                                                            000000000000000000N
031977061109020000033020TPEDRO VARGAS REVERT                                                         000000000000000000N
031977061109009000062009TMODESTO-ALFREDO GOMEZ RODRIGUEZ                                             000000000000000000N
031977061109015000062015TRAFAEL NAVARRO JUAN                                                         000000000000000000N
031977061109014000078014TPABLO NARANJO PORRAS                                                        000000000000000000S
031977061109017000078017TANGEL PEREZ NEILA                                                           000000000000000000N
031977061109021000078021TANTONIO VAZQUEZ LOPEZ                                                       000000000000000000N
031977061109013000080013TJERONIMO MATEOS CALVO                                                       000000000000000000N
031977061109022000080022TFELIPE VIVAS VILLA                                                          000000000000000000N
031977061109002000084002TMANUEL AREVALO GONZALEZ                                                     000000000000000000N
031977061109006000084006TCASTOR DIAZ GARCIA                                                          000000000000000000N
031977061109007000084007TFERNANDO ENRIQUEZ ACOSTA                                                    000000000000000000N
031977061109004000087004TPEDRO CAÑADA CASTILLO                                                       000000000000000000S
031977061109011000087011TJOAQUIN HURTADO SIMON                                                       000000000000000000S
031977061109018000087018TANTONIO RODRIGUEZ REGUERA                                                   000000000000000000S
031977061109019000097019TGONZALO SANCHEZ-RODRIGO MARTIN                                              000000000000000000N
031977061109010000104010TVICTOR GUTIERREZ SALMADOR                                                   000000000000000000N
031977061109005000115005TALFONSO DIAZ DE BUSTAMANTE Y QUIJANO                                        000000000000000000N
031977061109012000115012TALBERTO MARTIN ALFONSO                                                      000000000000000000N
031977061159004000009004TROGELIO ROMAN CENALMOR RAMOS                                                000000000000000000N
031977061159008000009008TANTONIO GIL CASARES PEREZ                                                   000000000000000000N
031977061159011000009011TFRANCISCO JIMENEZ DE LLANO                                                  000000000000000000N
031977061159005000012005TMANUEL CORRAL MARTINEZ                                                      000000000000000000N
031977061159014000012014TJACOBO MONTERO REGUEIRO                                                     000000000000000000N
031977061159016000012016TCESAR PICATOSTE FRANCOS                                                     000000000000000000N
031977061159001000014001TJOSE AGRELO HERMO                                                           000000000000000000N
031977061159018000014018TRAMON VALCARCEL VEGA                                                        000000000000000000N
031977061159007000065007TJESUS FERNANDEZ DE PUELLES NOVOA                                            000000000000000000N
031977061159015000065015TFLORENTINO MORAN LOPEZ                                                      000000000000000000N
031977061159012000080012TJUAN LUIS MARCHINI BRAVO                                                    000000000000000000N
031977061159003000084003TJOSE BARBEITO NAYA                                                          000000000000000000N
031977061159006000087006TBALDOMERO FERNANDEZ CALVIÑO                                                 000000000000000000S
031977061159009000087009TJUAN ANTONIO GRAIÑO AMARELLE                                                000000000000000000S
031977061159017000087017TJOSE MARIA DAVID SUAREZ NUÑEZ                                               000000000000000000S
031977061159002000136002TCARLOS AMABLE BALIÑAS FERNANDEZ                                             000000000000000000N
031977061159010000136010TMANUEL IGLESIAS CORRAL                                                      000000000000000000S
031977061159013000136013TSEBASTIAN MARTINEZ-RISCO Y MACIAS                                           000000000000000000N
031977061279019000008019TJUAN MANUEL VIDAL PARDO                                                     000000000000000000N
031977061279002000009002TFRANCISCO CACHARRO PARDO                                                    000000000000000000S
031977061279011000009011TANTONIO PEDROSA LATAS                                                       000000000000000000N
031977061279014000009014TARMANDO RODRIGUEZ CASTRO                                                    000000000000000000N
031977061279006000014006TMANUEL M. FERNANDEZ TEIJEIRO                                                000000000000000000N
031977061279008000014008TFRANCISCO LOPEZ QUINTE                                                      000000000000000000N
031977061279015000014015TJOSE MANUEL RODRIGUEZ MARTINEZ                                              000000000000000000N
031977061279003000078003TJACINTO CALVO LOPEZ                                                         000000000000000000N
031977061279004000078004TISAAC DIAZ PARDO                                                            000000000000000000N
031977061279012000078012TRAMON PIÑEIRO LOPEZ                                                         000000000000000000N
031977061279001000080001TCARLOS ALBEROLA GOMEZ-ESCOLAR                                               000000000000000000N
031977061279005000080005TMARIA ELENA ESTEVEZ VILA                                                    000000000000000000N
031977061279010000080010TMANUEL NEIRA POL                                                            000000000000000000N
031977061279009000084009TANTONIO MARTINEZ VAZQUEZ                                                    000000000000000000N
031977061279013000084013TJORGE PITEIRA FERNANDEZ                                                     000000000000000000N
031977061279018000084018THORTENSIO VAZQUEZ VALCARCEL                                                 000000000000000000N
031977061279007000087007TGERARDO HARGUINDEY BANET                                                    000000000000000000S
031977061279016000087016TCANDIDO SANCHEZ CASTIÑEIRAS                                                 000000000000000000S
031977061279017000087017TJULIO ULLOA VENCE                                                           000000000000000000S
031977061329019000008019TLUIS MARIA VILLARINO SANCHEZ                                                000000000000000000N
031977061329007000009007TFERNANDO GONZALEZ SUAREZ                                                    000000000000000000N
031977061329010000009010TFELIX JOSE MENOR QUINTAIROS                                                 000000000000000000N
031977061329018000009018TINDALECIO VIDAL IGLESIAS                                                    000000000000000000N
031977061329002000014002TFRANCISCO CARBALLO CARBALLO                                                 000000000000000000N
031977061329004000014004TANTONIO FERNANDEZ SANCHEZ                                                   000000000000000000N
031977061329016000014016TANTONIO ROMASANTA VILARCHAO                                                 000000000000000000N
031977061329009000080009TANSELMO LOPEZ MORAIS                                                        000000000000000000N
031977061329013000084013TDANIEL REGALADO AZNAR                                                       000000000000000000N
031977061329017000084017TFERNANDO VALENCIA SOTELO                                                    000000000000000000N
031977061329006000087006TLUIS GONZALEZ SEARA                                                         000000000000000000S
031977061329012000087012TJOSE QUIROGA SUAREZ                                                         000000000000000000S
031977061329015000087015TJOSE RODRIGUEZ REZA                                                         000000000000000000S
031977061329003000136003TJESUS DOCAMPO MOSQUERA                                                      000000000000000000N
031977061329005000136005TCELSO EMILIO FERREIRO MIGUEZ                                                000000000000000000N
031977061329011000136011TCELSO MONTERO RODRIGUEZ                                                     000000000000000000S
031977061329001000137001TANTONIO AGUIRRE RIVAS                                                       000000000000000000N
031977061329008000137008TLUIS IGLESIAS ALVAREZ                                                       000000000000000000N
031977061329014000137014TCESAR RODRIGUEZ DOCAMPO                                                     000000000000000000N
031977061369003000009003TCASTOR ALONSO BAR                                                           000000000000000000N
031977061369012000009012TANTONIO PUIG GAITE                                                          000000000000000000N
031977061369007000014007TFRANCISCO LORES SANTACECILIA                                                000000000000000000N
031977061369008000014008TCAMILO NOGUEIRA ROMAN                                                       000000000000000000N
031977061369010000014010TELADIO PEREZ GONZALEZ                                                       000000000000000000N
031977061369001000080001TGONZALO ADRID BARREIRO                                                      000000000000000000N
031977061369005000087005TMANUEL FONTOIRA SURIS                                                       000000000000000000S
031977061369006000087006TJOSE GARCIA GARCIA                                                          000000000000000000S
031977061369011000087011TDAVID PEREZ PUGA                                                            000000000000000000S
031977061369002000136002TFERNANDO ALONSO AMAT                                                        000000000000000000N
031977061369004000136004TFRANCISCO FERNANDEZ DEL RIEGO                                               000000000000000000N
031977061369009000136009TVALENTIN PAZ ANDRADE                                                        000000000000000000S
031977061289011000008011TALFONSO DE FIGUEROA MELGAR                                                  000000000000000000N
031977061289015000008015TPEDRO GONZALEZ-BUENO BENITEZ                                                000000000000000000N
031977061289016000008016TFRANCISCO DE GUINEA Y GAUNA                                                 000000000000000000N
031977061289003000009003TCARLOS ARIAS NAVARRO                                                        000000000000000000N
031977061289005000009005TJAVIER CARVAJAL FERRER                                                      000000000000000000N
031977061289019000009019TTORCUATO LUCA DE TENA Y BRUNET                                              000000000000000000N
031977061289020000012020TERNESTO NAVARRO MARQUEZ                                                     000000000000000000N
031977061289021000012021TCARLOS ORTIZ MANSBERGER                                                     000000000000000000N
031977061289026000012026TFELIPE RONDA ORTEGA                                                         000000000000000000N
031977061289006000067006TTOMAS CARRASCOSO MORENO                                                     000000000000000000N
031977061289022000067022TJULIAN DE POO Y PARDO                                                       000000000000000000N
031977061289028000067028TISABEL SIMANCAS PEREZ                                                       000000000000000000N
031977061289002000080002TJOSE ALONSO PEREZ                                                           000000000000000000S
031977061289004000080004TMARIA TERESA BAIGES ARTIS                                                   000000000000000000N
031977061289007000080007TEMILIO CASSINELLO AUBAN                                                     000000000000000000N
031977061289017000084017TJUAN ANTONIO DE LARA NIETO                                                  000000000000000000N
031977061289023000084023TLUIS RAMIREZ RUIZ                                                           000000000000000000N
031977061289024000084024TGREGORIO RODRIGUEZ ACOSTA                                                   000000000000000000N
031977061289025000084025TBENIGNO RODRIGUEZ ALDA                                                      000000000000000000N
031977061289010000087010TNEMESIO FERNANDEZ CUESTA Y DE ILLANA                                        000000000000000000N
031977061289014000087014TVIRGINIA COMEZ-ACEBO POMBO                                                  000000000000000000N
031977061289018000087018TJOSE MARIA LOPEZ MALLA                                                      000000000000000000N
031977061289001000103001TMARIANO AGUILAR NAVARRO                                                     000000000000000000S
031977061289027000103027TJOAQUIN SATRUSTEGUI FERNANDEZ                                               000000000000000000S
031977061289029000103029TMANUEL VILLAR ARREGUI                                                       000000000000000000S
031977061289008000138008TJUANA DOÑA JIMENEZ                                                          000000000000000000N
031977061289009000139009TFERNANDO JAVIER ENEBRAL CASARES                                             000000000000000000N
031977061289013000140013TRAMON GODINO PARDO                                                          000000000000000000N
031977061289012000141012TMIGUEL ANGEL FORURIA Y FRANCO                                               000000000000000000N
031977061319017000005017TJOSE JAVIER LOPEZ JACOISTE                                                  000000000000000000N
031977061319019000005019TTOMAS MARIN ORDOQUI                                                         000000000000000000N
031977061319022000005022TJAVIER NAGORE YARNOZ                                                        000000000000000000N
031977061319008000008008TNEMESIO CORTES IZAL                                                         000000000000000000N
031977061319014000008014TFERNANDO JIMENEZ FUENTES                                                    000000000000000000N
031977061319016000008016TFRANCISCO JAVIER LIZARZA INDA                                               000000000000000000N
031977061319004000039004TVICTOR MANUEL ARBELOA MURU                                                  000000000000000000N
031977061319011000039011TFLORENCIO GOÑI SIMON                                                        000000000000000000N
031977061319015000039015TRAMIRO LAYANA BURGUETE                                                      000000000000000000N
031977061319006000057006TJUAN PEDRO ARRAIZA REDRIGUEZ-MONTE                                          000000000000000000N
031977061319023000057023TJOSE OLLO AZCONA                                                            000000000000000000N
031977061319024000057024TJOSE ANGEL PEREZ-NIEVAS ABASCAL                                             000000000000000000N
031977061319005000062005TRAMON AROZARENA SANZBERRO                                                   000000000000000000N
031977061319009000087009TJAIME DEL BURGO TAJADURA                                                    000000000000000000S
031977061319020000087020TJOSE LUIS MONGE RECALDE                                                     000000000000000000S
031977061319026000087026TJOSE GABRIEL SARASA MIQUELEZ                                                000000000000000000S
031977061319002000142002TFRANCISCO ALAVA JIMENEZ                                                     000000000000000000N
031977061319007000142007TCARLOS CLAVERIA ARZA                                                        000000000000000000N
031977061319013000142013TMANUEL IRUJO OLLO                                                           000000000000000000S
031977061319010000143010TJESUS EZPONDA GARAICOECHEA                                                  000000000000000000N
031977061319001000144001TFERNANDO ACHA ASENSIO                                                       000000000000000000N
031977061319021000144021TMIGUEL ANGEL MUEZ ORORBIA                                                   000000000000000000N
031977061319027000144027TFRANCISCO JUAN ZABALETA ZABALETA                                            000000000000000000N
031977061319025000145025TJESUS MARIA SAN MARTIN ASIAIN                                               000000000000000000N
031977061319003000146003TJUAN JOSE ARAUJO MUGICA                                                     000000000000000000N
031977061319012000146012TTEODORO GOYENA ALMANDOZ                                                     000000000000000000N
031977061319018000146018TJUAN FRANCISCO MARCEN PANIZO                                                000000000000000000N
031977061019004000009004TJOSE MIGUEL CERVERA VELASCO                                                 000000000000000000N
031977061019006000009006TIGNACIO MENCHACATORRE DIAZ DE MENDIVIL                                      000000000000000000N
031977061019009000009009TMARIA JOSEFA OCHOA GONZALEZ DE ECHAVARRI                                    000000000000000000N
031977061019002000012002TJESUS MARIA ARNAL LOPEZ DE LA CALLE                                         000000000000000000N
031977061019007000012007TLORENZO MUNGUIRA DIEZ                                                       000000000000000000N
031977061019012000025012TCARMEN TORIJA ERRERA                                                        000000000000000000N
031977061019011000063011TADRIAN RUIZ DE AUSTRI RUIZ DE AUSTRI                                        000000000000000000N
031977061019003000069003TRAMON BAJO FANLO                                                            000000000000000000S
031977061019001000076001TLUIS ALBERTO AGUIRIANO PORRIES                                              000000000000000000S
031977061019005000087005TALFREDO MARCO TABAR                                                         000000000000000000S
031977061019008000087008TJOSE MARIA NASARRE DE LETOSA CONDE                                          000000000000000000N
031977061019013000087013TGUILLERMO VALLE YUSTAS                                                      000000000000000000N
031977061019010000147010TIGNACIO OREGUI COERAGA                                                      000000000000000000S
031977061209001000025001TEUSEBIO AGUIRRE RETEGUI                                                     000000000000000000N
031977061209007000025007TMIGUEL CASTELLS ADRIANSENS                                                  000000000000000000N
031977061209008000025008TPEDRO MARIA DIAZ-CANO ESPINOSA                                              000000000000000000N
031977061209013000026013TJAIME MAYOR OREJA                                                           000000000000000000N
031977061209015000026015TALVARO NAVAJAS LAPORTE                                                      000000000000000000N
031977061209006000029006TJUAN MARIA BANDRES MOLET                                                    000000000000000000S
031977061209010000029010TCRUZ JAUREGUI BERECIARTUA                                                   000000000000000000N
031977061209017000029017TJORGE OTEIZA EMBIL                                                          000000000000000000N
031977061209004000030004TJOSE LUIS ALVAREZ EMPARANZA                                                 000000000000000000N
031977061209012000030012TEUKENI MIRENA LASA LASA                                                     000000000000000000N
031977061209002000041002TRAMON ALBISTUR ESPARZA                                                      000000000000000000N
031977061209011000041011TLUIS LARRAÑAGA BILBAO                                                       000000000000000000N
031977061209016000041016TJOSE ORBEGOZO EGUIGUREN                                                     000000000000000000N
031977061209003000062003TENRIQUE ALBIZU PERURENA                                                     000000000000000000N
031977061209005000062005TLUIS ARAMBURU ALTUNA                                                        000000000000000000N
031977061209009000142009TENRIQUE IPARRAGUIRRE GARCIA                                                 000000000000000000S
031977061209014000142014TGREGORIO JAVIER MONREAL Y CIA                                               000000000000000000S
031977061209018000142018TFEDERICO ZABALA ALCIBAR                                                     000000000000000000S
031977061489010000007010TPEDRO MARIA CARMELO DE IRUJO Y OLLO                                         000000000000000000N
031977061489004000009004TJAIME CIBRIAN SAIZ                                                          000000000000000000N
031977061489007000009007TJOSE MARIA GONZALEZ BARANDIARAN                                             000000000000000000N
031977061489021000009021TPEDRO DE ZUBIRIA GARNICA                                                    000000000000000000N
031977061489012000012012TJOSE LUIS MINTEGUI IRAIZOZ                                                  000000000000000000N
031977061489002000020002TJOSE LUIS PEDRO BARRADO IBARRA                                              000000000000000000N
031977061489006000020006TMANUEL GARCIA ANTUÑANO                                                      000000000000000000N
031977061489008000020008TARMANDO GONZALEZ FERNANDEZ                                                  000000000000000000N
031977061489017000020017TCARLOS UMARAN GARCIA-ITURRI                                                 000000000000000000N
031977061489003000025003TADOLFO CAREAGA FONTECHA                                                     000000000000000000N
031977061489009000025009TISIDRO INFANTE OLARTE                                                       000000000000000000N
031977061489015000025015TPALOMA RODRIGUEZ-ESCUDERO SANCHEZ                                           000000000000000000N
031977061489001000062001TLUIS ARANA ZUBIRIA                                                          000000000000000000N
031977061489014000062014TJOSE RODRIGUEZ MARTINEZ                                                     000000000000000000N
031977061489018000062018TJOSE UNANUE RUIZ                                                            000000000000000000N
031977061489011000080011TPABLO LUCAS VERDU                                                           000000000000000000N
031977061489013000080013TJUAN MIGUEL MORENO LOMBARDERO                                               000000000000000000N
031977061489005000087005TMARTIN FERNANDEZ PALACIO                                                    000000000000000000S
031977061489016000142016TRAMON RUBIAL CAVIA                                                          000000000000000000S
031977061489019000142019TMIGUEL UNZUETA UZCANGA                                                      000000000000000000S
031977061489020000142020TJUAN MARIA VIDARTE DE UGARTE                                                000000000000000000S
031977061309001000009001TOCTAVIO CARPENA ARTES                                                       000000000000000000N
031977061309005000009005TJUAN FLORIT GARCIA                                                          000000000000000000N
031977061309009000009009TMARIANO PASQUAL DEL RIQUELME BARREDA                                        000000000000000000N
031977061309004000012004TGUZMAN FERNANDEZ GARCIA                                                     000000000000000000N
031977061309017000012017TMANUEL TALAVERA GARCIA                                                      000000000000000000N
031977061309015000038015TMIGUEL SANCHO RUANO                                                         000000000000000000N
031977061309003000062003TFRANCISCO CUERVO-ARANGO CASO DE LOS COBOS                                   000000000000000000N
031977061309014000084014TLUIS ROMERO ARENAZA                                                         000000000000000000N
031977061309002000087002TRICARDO DE LA CIERVA Y HOCES                                                000000000000000000S
031977061309008000087008TJOSE MARTINEZ GARRE                                                         000000000000000000S
031977061309012000087012TSALVADOR RIPOLL MARIN                                                       000000000000000000S
031977061309011000100011TGABRIEL PINAZO NUÑEZ                                                        000000000000000000N
031977061309013000100013TFRANCISCO RODRIGUEZ LOPEZ                                                   000000000000000000N
