032000031049006000018006TANTONIO PINTOR LOPEZ                                                        000000000000000000N
032000031049003000048003TGINES DE HARO ROSSI                                                         000000000000000000N
032000031049004000048004TJOSE HIDALGO PORRAS                                                         000000000000000000N
032000031049005000048005TJOSE FERMIN VILLENA MARTIN                                                  000000000000000000N
032000031049024000050024TJESUS MANUEL MILLAN CASTRO                                                  000000000000000000N
032000031049007000056007TELENA DIAZ AVILES                                                           000000000000000000N
032000031049025000070025TFRANCISCA CABEZAS CERVANTES                                                 000000000000000000N
032000031049026000070026TDIEGO CERVANTES OCAÑA                                                       000000000000000000N
032000031049027000070027TCONCEPCION MARQUEZ FERNANDEZ                                                000000000000000000N
032000031049001000083001TJOSE PONCE DIAZ                                                             000000000000000000N
032000031049011000086011TMARIA DEL MAR GARCIA MARTIN                                                 000000000000000000N
032000031049012000086012TJUAN LUIS GONZALEZ WANDOSELL                                                000000000000000000N
032000031049013000086013TLUIS MIGUEL MARTIN CRUZ                                                     000000000000000000N
032000031049008000088008TMIGUEL BANEGAS GARCIA                                                       000000000000000000N
032000031049009000088009TANGEL BERMEJO MONTORO                                                       000000000000000000N
032000031049010000088010TJESUS JAVIER LORENTE BROX                                                   000000000000000000N
032000031049014000103014TMANUEL PEREZ ORTEGA                                                         000000000000000000N
032000031049002000107002TPURIFICACION OCAÑA EXPOSITO                                                 000000000000000000N
032000031049021000113021TMARIA DEL MAR AGÜERO RUANO                                                  000000000000000000S
032000031049022000113022TFRANCISCO GRANERO GRANADOS                                                  000000000000000000S
032000031049023000113023TMARIA DEL MAR SIMONELLI MUÑOZ                                               000000000000000000S
032000031049015000135015TDIEGO MIGUEL ASENSIO MARTINEZ                                               000000000000000000S
032000031049016000135016TANTONIO BONILLA RODRIGUEZ                                                   000000000000000000N
032000031049017000135017TENCARNACION IBAÑEZ VAZQUEZ                                                  000000000000000000N
032000031049018000155018TCESAR MEJIAS OLMEDO                                                         000000000000000000N
032000031049019000155019TANTONIO PEDRO RAMOS AGUILAR                                                 000000000000000000N
032000031049020000155020TMARIA ISABEL VALLS CORTES                                                   000000000000000000N
032000031119026000001026TMARIA LOURDES ARANDA OROPESA                                                000000000000000000N
032000031119027000001027TRAMON MANUEL BENITEZ CORPAS                                                 000000000000000000N
032000031119028000001028TMARIA DEL CARMEN GUTIERREZ FORERO                                           000000000000000000N
032000031119015000048015TJOSE MANUEL MARQUEZ MOLERO                                                  000000000000000000N
032000031119011000050011TFRANCISCO JAVIER MORENO RUIZ                                                000000000000000000N
032000031119012000054012TMIGUEL ATANET ARMIDA                                                        000000000000000000N
032000031119013000054013TGABRIEL GONZALVEZ MANZANARES                                                000000000000000000N
032000031119014000054014TMARIA BELEN RODRIGUEZ-BRIOSO RAMOS                                          000000000000000000N
032000031119008000070008TANGUSTIAS NIEVES COCA ROJAS                                                 000000000000000000N
032000031119009000070009TGERVASIO MANUEL HERNANDEZ PALOMEQUE                                         000000000000000000N
032000031119010000070010TMIGUEL ANGEL LOPEZ LOPEZ                                                    000000000000000000N
032000031119019000083019TJOSE LUIS GAMEZ SANDOVAL                                                    000000000000000000N
032000031119023000086023TMARTIN JOSE GARCIA MARICHAL                                                 000000000000000000N
032000031119024000086024TMARIA ISABEL PEINADO PEREZ                                                  000000000000000000N
032000031119025000086025TRAUL RAMIREZ DORANTES                                                       000000000000000000N
032000031119030000103030TFRANCISCO BARROSO PEREZ                                                     000000000000000000N
032000031119031000103031TDIANA MARIA MIRA GORDILLO                                                   000000000000000000N
032000031119032000103032TJOSE SOBRINO CALDADO                                                        000000000000000000N
032000031119004000113004TMIGUEL ARIAS CAÑETE                                                         000000000000000000S
032000031119005000113005TJOSE BLAS FERNANDEZ SANCHEZ                                                 000000000000000000S
032000031119006000113006TMARIA DEL CARMEN GONZALEZ RODRIGUEZ                                         000000000000000000S
032000031119016000118016TANTONIO DOMINGUEZ MONFILLO                                                  000000000000000000N
032000031119017000118017TENRIQUE EMILIO FLERON DELNOOZ                                               000000000000000000N
032000031119018000118018TCARLOS HERNANDEZ BARRANCO                                                   000000000000000000N
032000031119020000135020TJOSE CARRACAO GUTIERREZ                                                     000000000000000000S
032000031119021000135021TMARIA JESUS CASTRO MATEOS                                                   000000000000000000N
032000031119022000135022TFRANCISCO VAZQUEZ CAÑAS                                                     000000000000000000N
032000031119029000145029TMARIA DEL MAR ROJAS DIAZ                                                    000000000000000000N
032000031119007000159007TFRANCISCO RAMON VERGARA BIOSCA                                              000000000000000000N
032000031119001000173001TJOSE MIGUEL AGUILOCHO GARCIA                                                000000000000000000N
032000031119002000173002TSEBASTIAN GONZALEZ BARROSO                                                  000000000000000000N
032000031119003000173003TJOSEFA ADELA SANCHEZ MONTERO                                                000000000000000000N
032000031149028000001028TPURIFICACION CARRILLO ROMERO                                                000000000000000000N
032000031149029000001029TSOFIA CASTILLO REGALON                                                      000000000000000000N
032000031149030000001030TANTONIO ESPEJO AREVALO                                                      000000000000000000N
032000031149001000050001TJACINTO LAZARO GONZALEZ                                                     000000000000000000N
032000031149010000054010TANTONIO CASTRO RUIZ                                                         000000000000000000N
032000031149011000054011TJOSE MARIA PAREJO CUESTA                                                    000000000000000000N
032000031149012000054012TJOSE PINILLOS TORRONTERAS                                                   000000000000000000N
032000031149008000056008TRAFAEL ANGEL JIMENEZ GAMEZ                                                  000000000000000000N
032000031149022000070022TFRANCISCO JAVIER ALTAMIRANO SANCHEZ                                         000000000000000000N
032000031149023000070023TISABEL AMIL CASTILLO                                                        000000000000000000N
032000031149024000070024TNICASIO MOLINA PEREZ                                                        000000000000000000N
032000031149021000083021TANTOLIN JOAQUIN ORTIZ ATENCIANO                                             000000000000000000N
032000031149009000085009TJOSE LUIS NAVARRO PEREZ                                                     000000000000000000N
032000031149025000086025TFRANCISCO AGUDO LOPEZ                                                       000000000000000000N
032000031149026000086026TMARIA DE FATIMA PARDO VALDIVIA                                              000000000000000000N
032000031149027000086027TALVARO DE LOS RIOS BOLLERO                                                  000000000000000000N
032000031149005000088005TSIXTO PAJARIN ESTEVEZ                                                       000000000000000000N
032000031149006000088006TJOSE LUIS RODRIGUEZ GARCIA                                                  000000000000000000N
032000031149007000088007TJUAN VERGARA WAL                                                            000000000000000000N
032000031149002000099002TMARIA CARMEN MONTORO REINA                                                  000000000000000000N
032000031149003000103003TJUAN LEOPOLDO CANO RAMIREZ                                                  000000000000000000N
032000031149004000103004TMIGUEL DE LOS ANGELES MOLERO GONZALEZ                                       000000000000000000N
032000031149017000113017TENRIQUE RAFAEL BELLIDO MUÑOZ                                                000000000000000000S
032000031149018000113018TMARIA ISABEL PEREZ NOGALES                                                  000000000000000000N
032000031149019000113019TANTONIO RUIZ CANELA EVANGELISTA                                             000000000000000000N
032000031149014000135014TTOMAS RAFAEL DELGADO TORO                                                   000000000000000000S
032000031149015000135015TMARIA CARMEN MONTES CONTRERAS                                               000000000000000000S
032000031149016000135016TPEDRO RODRIGUEZ CANTERO                                                     000000000000000000S
032000031149020000159020TALFONSO GIMENEZ MARES                                                       000000000000000000N
032000031149013000172013TMARIA DOLORES ROLDAN ROLDAN                                                 000000000000000000N
032000031189012000001012TJOSE LINDE MORANTE                                                          000000000000000000N
032000031189013000001013TCECILIA RIVAS MONTES                                                        000000000000000000N
032000031189014000001014TCRISTOBAL RUIZ MANZANO                                                      000000000000000000N
032000031189007000050007TJUAN RAMON CARRILLO REYES                                                   000000000000000000N
032000031189015000054015TCONCEPCION LOPEZ YESTE                                                      000000000000000000N
032000031189016000054016TCARLOS TOMAS ROMERO CONDE                                                   000000000000000000N
032000031189017000054017TLUIS FELIPE SUAREZ ALEMAN                                                   000000000000000000N
032000031189026000056026TMARIA TERESA LASALA MARTOS                                                  000000000000000000N
032000031189009000070009TROSA ILDEFONSO HUERTAS                                                      000000000000000000N
032000031189010000070010TFERNANDO LOPEZ REJON                                                        000000000000000000N
032000031189011000070011TANDRES PEREZ ROMAN                                                          000000000000000000N
032000031189028000083028TFRANCISCO CABRERIZO SALMERON                                                000000000000000000N
032000031189001000085001TMERCEDES CARMEN NAVARRO CRUZ                                                000000000000000000N
032000031189020000086020TMIGUEL AVILA PADIAL                                                         000000000000000000N
032000031189021000086021TANTONIA REYES REQUENA                                                       000000000000000000N
032000031189022000086022TMANUEL TORTOSA LOPEZ                                                        000000000000000000N
032000031189027000088027TFRANCISCO PAREDES PACHECO                                                   000000000000000000N
032000031189002000099002TCARMEN FERNANDEZ DE LA ROSA                                                 000000000000000000N
032000031189018000103018TJOSE LUIS ARLANDI ALARCON                                                   000000000000000000N
032000031189019000103019TELVIRA AVILES OCON                                                          000000000000000000N
032000031189023000113023TJOSE GABRIEL DIAZ BERBEL                                                    000000000000000000S
032000031189024000113024TFRANCISCO JOSE SANCHEZ ALAMINOS                                             000000000000000000N
032000031189025000113025TCELIA SANTIAGO BUENDIA                                                      000000000000000000N
032000031189004000135004TFRANCISCO JOSE ALVAREZ DE LA CHICA                                          000000000000000000S
032000031189005000135005TANTONIA ARANEGA JIMENEZ                                                     000000000000000000S
032000031189006000135006TANGEL DIAZ SOL                                                              000000000000000000S
032000031189003000159003TCARMEN GARCIA GABARDA                                                       000000000000000000N
032000031189008000172008TFERNANDO GARCIA MOLINA                                                      000000000000000000N
032000031219011000001011TALEJANDRA GUERRA FORNET                                                     000000000000000000N
032000031219003000048003TALFONSO CABRERA MATEOS                                                      000000000000000000N
032000031219004000048004TMARIA JOSE HERVAS TORRES                                                    000000000000000000N
032000031219005000048005TSILVIA LLAMAS GUTIERREZ                                                     000000000000000000N
032000031219010000050010TGUILLERMO ANTONIO DONAIRE ORTEGA                                            000000000000000000N
032000031219015000056015THERMENEGILDO MANUEL ANTONIO DIEZ VAZQUEZ                                    000000000000000000N
032000031219016000070016TFRANCISCO JOSE BARBA RAMOS                                                  000000000000000000N
032000031219017000070017TLUIS DOMINGUEZ BONET                                                        000000000000000000N
032000031219018000070018TREYES MARQUEZ MARQUEZ                                                       000000000000000000N
032000031219019000083019TLUIS IGLESIAS GARCIA                                                        000000000000000000N
032000031219012000086012TJOSE MANUEL MUIÑO MORALES                                                   000000000000000000N
032000031219013000086013TBALTASAR QUINTERO ALMENDRO                                                  000000000000000000N
032000031219014000086014TCARMEN REDONDO LOBATO                                                       000000000000000000N
032000031219001000103001TJOSE JERONIMO PRITO                                                         000000000000000000N
032000031219002000103002TJOSE MANUEL MUÑOZ DE LA TORRE                                               000000000000000000N
032000031219020000113020TARTURO ESTEBAN ALBERT                                                       000000000000000000N
032000031219021000113021TJUAN CARLOS LAGARES FLORES                                                  000000000000000000S
032000031219022000113022TMARIA DEL PILAR MIRANDA PLATA                                               000000000000000000N
032000031219007000135007TMARIA R. FATIMA ABURTO BASELGA                                              000000000000000000S
032000031219008000135008TFRANCISCO BELLA GALAN                                                       000000000000000000S
032000031219009000135009TJOSE ORIA GALLOSO                                                           000000000000000000S
032000031219006000159006TLUIS ALOS REBOLL                                                            000000000000000000N
032000031239017000001017TANGELA SANCHEZ PALOMO                                                       000000000000000000N
032000031239011000025011TJOSE MARIA VELASCO ZUAZOLA                                                  000000000000000000N
032000031239001000050001TMATIAS CHICLANA PULPILLO                                                    000000000000000000N
032000031239002000050002TCARLOS NAVARRO BARBERAN                                                     000000000000000000N
032000031239003000050003TANTONIO RUIZ ORTEGA                                                         000000000000000000N
032000031239021000056021TANTONIO CARRERE ROMERO                                                      000000000000000000N
032000031239022000070022TMARIA TERESA AVALOS TORRES                                                  000000000000000000N
032000031239023000070023TMIGUEL PADILLA PULIDO                                                       000000000000000000N
032000031239024000070024TJUAN SANCHEZ DIAZ                                                           000000000000000000N
032000031239005000083005TMARIA ANGELES SANCHEZ JIMENEZ                                               000000000000000000N
032000031239014000086014TLUIS CARLOS MARTINEZ FRIAS                                                  000000000000000000N
032000031239015000086015TJOAQUIN RUFIAN AVILA                                                        000000000000000000N
032000031239016000086016TANA ROSA SANCHEZ CABRERA                                                    000000000000000000N
032000031239012000099012TPEDRO CORRAL BURCION                                                        000000000000000000N
032000031239006000103006TLORENZO ORTIZ INFANTE                                                       000000000000000000N
032000031239007000103007TFRANCISCO PAZ ANAYA                                                         000000000000000000N
032000031239008000113008TRAMON PALACIOS RUBIO                                                        000000000000000000S
032000031239009000113009TCLEMENTA SANCHEZ RAMIRO                                                     000000000000000000N
032000031239010000113010TPABLO TORREGROSA HERNANDEZ                                                  000000000000000000N
032000031239018000135018TCRISTOBAL JOSE LOPEZ CARVAJAL                                               000000000000000000S
032000031239019000135019TFIDEL MESA CIRIZA                                                           000000000000000000S
032000031239020000135020TMARIA DOLORES PEREZ ANGUITA                                                 000000000000000000S
032000031239013000159013TSEVERINO MARTI GIMENO                                                       000000000000000000N
032000031239004000172004TALFONSO TOLEDANO SALVADOR                                                   000000000000000000N
032000031299001000001001TJUANA MUÑOZ PORRAS                                                          000000000000000000N
032000031299029000050029TMANUEL FERNANDEZ RIVERA                                                     000000000000000000N
032000031299002000054002TALBERTO RAMOS ARAGON                                                        000000000000000000N
032000031299003000054003TIGNACIO JAVIER SERRATOSA GUTIERREZ                                          000000000000000000N
032000031299004000054004TJOSE LUIS TROYANO MORENO                                                    000000000000000000N
032000031299014000056014TJOSE PEREZ BUSTILLO                                                         000000000000000000N
032000031299005000070005TROSARIO LORING GARCIA                                                       000000000000000000N
032000031299006000070006TPEDRO MORENO BRENES                                                         000000000000000000N
032000031299007000070007TJOSE ANTONIO PONCE FERNANDEZ                                                000000000000000000N
032000031299008000083008TANTONIO LUIS CALDERON DIAZ                                                  000000000000000000N
032000031299009000083009TJOSE MANUEL CONTRERAS URBANO                                                000000000000000000N
032000031299010000083010TRAQUEL PIOTE LAURENTI                                                       000000000000000000N
032000031299011000086011TJUAN BAUTISTA AGULLES MAIRENA                                               000000000000000000N
032000031299012000086012TCARLOS FERNANDEZ GAMEZ                                                      000000000000000000N
032000031299013000086013TCARLOS LUCENA RODRIGUEZ                                                     000000000000000000N
032000031299022000099022TJOSE LUIS MUÑOZ CABRERA                                                     000000000000000000N
032000031299026000103026TDOLORES MARIA AGUILERA RAMOS                                                000000000000000000N
032000031299027000103027TANA MARIA ALVAREZ PORRAS                                                    000000000000000000N
032000031299028000103028TMARIA JESUS URBANO URBANO                                                   000000000000000000N
032000031299031000113031TDAMIAN CANEDA MORALES                                                       000000000000000000S
032000031299032000113032TMARIA DEL PILAR JURADO DE MIGUEL                                            000000000000000000S
032000031299033000113033TJOAQUIN VILLANOVA RUEDA                                                     000000000000000000S
032000031299030000145030TEUFRASIA GARCIA GARCIA                                                      000000000000000000N
032000031299018000159018TANGELES ASCENSION MARQUES BORT                                              000000000000000000N
032000031299023000168023TJOSE ELEUTERIO DEL BARCO PEREZ                                              000000000000000000N
032000031299024000168024TJERONIMO FERNANDEZ SANCHEZ                                                  000000000000000000N
032000031299025000168025TESMERALDA TELLEZ RUBIO                                                      000000000000000000N
032000031299015000170015TMANUEL ARJONA SANTANA                                                       000000000000000000S
032000031299016000170016TISABEL MARIA GARCIA MARCOS                                                  000000000000000000N
032000031299017000170017TFRANCISCO JOSE ZAMORANO VAZQUEZ                                             000000000000000000N
032000031299019000172019TJUAN JOSE DIEGO BARQUIN                                                     000000000000000000N
032000031299020000172020TMARIA CARMEN HOLGADO GAMEZ                                                  000000000000000000N
032000031299021000172021TJOSE LUIS MORENO SANCHEZ                                                    000000000000000000N
032000031419023000001023TFRANCISCO GAMBOA VERA                                                       000000000000000000N
032000031419024000001024TJOSE MANUEL LOZANO FLORENCIO                                                000000000000000000N
032000031419010000037010TJAVIER LUIS FUENTES CADAVAL                                                 000000000000000000N
032000031419001000048001TJOSE ANTONIO HERNANDEZ DIAZ                                                 000000000000000000N
032000031419002000048002TMANUEL JIMENEZ LOPEZ                                                        000000000000000000N
032000031419003000048003TANTONIO DAVID LOPEZ PABLOS                                                  000000000000000000N
032000031419032000050032TJORGE LUIS FRANCISCO GIL LORENZO                                            000000000000000000N
032000031419016000054016TJUAN ANTONIO CARRILLO VALLEJOS                                              000000000000000000N
032000031419017000054017TJOSE DIEGO CRUZ SOTILLO                                                     000000000000000000N
032000031419018000054018TMIGUEL LOPEZ RAMOS                                                          000000000000000000N
032000031419004000056004TEMILIO LECHUGA GALLEGO                                                      000000000000000000N
032000031419005000056005TIGNACIO DOMINGO MARTINEZ PEREZ                                              000000000000000000N
032000031419006000056006TANA DELIA SOTELO MOLERO                                                     000000000000000000N
032000031419033000070033TFRANCISCO JOSE ALGABA JIMENEZ                                               000000000000000000N
032000031419034000070034TANTONIO CRIADO BARBERO                                                      000000000000000000N
032000031419035000070035TFRANCISCA TERCERO CABEZA                                                    000000000000000000N
032000031419025000083025TRAUL PALMA EHRICHS                                                          000000000000000000N
032000031419011000086011TMANUEL MESA VILA                                                            000000000000000000N
032000031419012000086012TANTONIO JESUS RODRIGUEZ MARTINEZ                                            000000000000000000N
032000031419013000086013TANA MARIA URUNUELA NIEVES                                                   000000000000000000N
032000031419031000088031TJOSE ANGEL MANCHA CADENAS                                                   000000000000000000N
032000031419036000099036TMARIA EMMA CASTRO IGLESIAS                                                  000000000000000000N
032000031419037000099037TMIGUEL PERAL VILLANUEVA                                                     000000000000000000N
032000031419038000099038TLEOPOLDO DEL PRADO ALVAREZ                                                  000000000000000000N
032000031419014000103014TMARIA TERESA GUTIERREZ RUIZ                                                 000000000000000000N
032000031419015000103015TJOSE MUÑOZ PASTOR                                                           000000000000000000N
032000031419007000113007TJUAN MOYA SANABRIA                                                          000000000000000000S
032000031419008000113008TREYES VARGAS JIMENEZ                                                        000000000000000000N
032000031419009000113009TJORGE JUAN VEGA MUÑOZ                                                       000000000000000000N
032000031419026000135026TANA ISABEL ARNAIZ DE LAS REVILLAS GARCIA                                    000000000000000000S
032000031419027000135027TJOAQUIN JESUS GALAN PEREZ                                                   000000000000000000S
032000031419028000135028TJOSE MARIA ROMERO CALERO                                                    000000000000000000S
032000031419029000145029TANGEL COLADO ALVAREZ                                                        000000000000000000N
032000031419030000145030TCRISTINA HUERTOS MATA                                                       000000000000000000N
032000031419019000159019TMARGARITA PALOMAR LACRUZ                                                    000000000000000000N
032000031419020000160020TLAZARO GONZALEZ ALVAREZ                                                     000000000000000000N
032000031419021000160021TJOSE ANTONIO QUINTERO VAZQUEZ                                               000000000000000000N
032000031419022000160022TESPERANZA RODRIGUEZ JIMENEZ                                                 000000000000000000N
032000031229017000020017TROSA Mª AZUCENA LOZANO ROY                                                  000000000000000000N
032000031229018000020018TFRANCISCO JAVIER MUR COUTO                                                  000000000000000000N
032000031229019000020019TMARIA CARMEN SANCHEZ ASIN                                                   000000000000000000N
032000031229003000025003TMIGUEL GARISOAIN OTERO                                                      000000000000000000N
032000031229015000050015TROSARIO MOLINA BLANCA                                                       000000000000000000N
032000031229016000060016TRAFAEL CARNICER ALCINA                                                      000000000000000000N
032000031229014000064014TALICIA MARIA DOLORES ANTON ORUE                                             000000000000000000N
032000031229008000077008TCHRISTIAN LOPEZ VAL                                                         000000000000000000N
032000031229009000077009TMIGUEL CARLOS RUEDA IBAÑEZ                                                  000000000000000000N
032000031229010000077010TJOSE SANCHEZ GUZMAN                                                         000000000000000000N
032000031229005000092005TJUAN ARELLANO MUR                                                           000000000000000000N
032000031229006000092006TJOSE SANTOS BADIMON URIOL                                                   000000000000000000N
032000031229007000092007TJOSE EUSEBIO ECHART BALLARIN                                                000000000000000000N
032000031229004000103004TLAURA PATRICIA ALONSO SANVICENTE                                            000000000000000000N
032000031229011000113011TRODOLFO AINSA ESCARTIN                                                      000000000000000000S
032000031229012000113012TJOSE LUIS ESCUTIA DOTTI                                                     000000000000000000S
032000031229013000113013TANA ISABEL LASHERAS MEAVILLA                                                000000000000000000S
032000031229001000132001TJUAN JOSE RODRIGUEZ TORRES                                                  000000000000000000S
032000031229002000132002TJOSE LUIS SIERRA LAFUERZA                                                   000000000000000000N
032000031449008000020008TFRANCISCO ARTAL GONZALEZ                                                    000000000000000000N
032000031449009000020009TFERNANDO JOSE BURILLO ALBACETE                                              000000000000000000N
032000031449010000020010TISIDRO PELLICER RUBIO                                                       000000000000000000N
032000031449020000048020TEVANGELINO IVAÑEZ CARBONELL                                                 000000000000000000N
032000031449014000050014TISABEL TERRON PRIETO                                                        000000000000000000N
032000031449007000060007TANTONIO FERNANDO GIMENO ORTA                                                000000000000000000N
032000031449015000064015TFELIX RUBIO FERRER                                                          000000000000000000N
032000031449011000077011TEDUARDO GIL DELGADO                                                         000000000000000000N
032000031449012000077012TCARLOS JOSE MENE DE LAMBARRY                                                000000000000000000N
032000031449013000077013TRAFAEL TAPIA CASAMAYOR                                                      000000000000000000N
032000031449016000092016TINOCENCIO MARTINEZ SANCHEZ                                                  000000000000000000N
032000031449017000092017TMIGUEL PAMPLONA ABAD                                                        000000000000000000N
032000031449018000092018TBENITO ROS CORELLA                                                          000000000000000000N
032000031449003000103003TMARIA DEL ROSARIO CAMPOS NAVARRO                                            000000000000000000N
032000031449004000113004TJOSE ANGEL AZUARA CAROD                                                     000000000000000000S
032000031449005000113005TRICARDO CLEMENTE DOÑATE CATALAN                                             000000000000000000S
032000031449006000113006TCARMEN PRIMO ALBERT                                                         000000000000000000S
032000031449019000159019TMARGARITA LACRUZ LERIN                                                      000000000000000000N
032000031449001000174001TJOSE LUIS ALEGRE ESCUDER                                                    000000000000000000S
032000031449002000174002TENCARNACION ANA CASTAÑER PAMPLONA                                           000000000000000000N
032000031509001000020001TANTONIO GASPAR GALAN                                                        000000000000000000N
032000031509002000020002TANDREA JIMENEZ SANJUAN                                                      000000000000000000N
032000031509003000020003TLUIS JAVIER SOLANA GARCES                                                   000000000000000000N
032000031509026000025026TJAVIER MORTE FRANCES                                                        000000000000000000N
032000031509007000048007TFRANCISCO VICENTE SANCHEZ SANCHEZ                                           000000000000000000N
032000031509014000050014TJAVIER GARCIA VELASCO                                                       000000000000000000N
032000031509016000060016TJESUS ALBERTO MARTIN PEREZ                                                  000000000000000000N
032000031509017000060017TFELIX MURO POSTIGO                                                          000000000000000000N
032000031509018000060018TGONZALO POSTIGO ZABAY                                                       000000000000000000N
032000031509022000064022TJOSE MARIA BALLESTIN MIGUEL                                                 000000000000000000N
032000031509004000077004TJOSE LUIS LATAS LACASTA                                                     000000000000000000N
032000031509005000077005TFRANCISCO LEANDREZ COLLADO                                                  000000000000000000N
032000031509006000077006TIRENE VERICAD MARCUELLO                                                     000000000000000000N
032000031509019000092019TJAVIER ALVO RITUERTO                                                        000000000000000000N
032000031509020000092020TLUIS MARIA EMILIO MIGUEL GARRIGA ORTIZ                                      000000000000000000N
032000031509021000092021TJAVIER VICENTE INES                                                         000000000000000000N
032000031509015000103015TFRANCISCO JAVIER SANCHO GOMEZ                                               000000000000000000N
032000031509008000113008TFERNANDO MARTIN MINGUIJON                                                   000000000000000000S
032000031509009000113009TMARIA ANGELES OROS LORENTE                                                  000000000000000000S
032000031509010000113010TJOSE IGNACIO SENAO GOMEZ                                                    000000000000000000S
032000031509023000135023TJUAN ALBERTO BELLOCH JULBE                                                  000000000000000000S
032000031509024000135024TJOSE LUIS LASHERAS MARCO                                                    000000000000000000N
032000031509011000145011TJOSE MANUEL ALVAREZ UTRERA                                                  000000000000000000N
032000031509012000145012TM.ª JESUS FUERTES VILLADANGOS                                               000000000000000000N
032000031509013000145013TM.ª MERCEDES REGUERA POTES                                                  000000000000000000N
032000031509025000159025TALBERTO VALTUEÑA LAINEZ                                                     000000000000000000N
032000031339030000002030TANA FERNANDEZ MARQUES                                                       000000000000000000N
032000031339031000002031TDAVID MANUEL RIVAS INFANTE                                                  000000000000000000N
032000031339032000002032TEZEQUIEL SANCHEZ DIAZ                                                       000000000000000000N
032000031339010000008010TARMANDO JOSE SEIVANE VIOR                                                   000000000000000000N
032000031339007000010007TMANUEL FUENTES CARRERA                                                      000000000000000000N
032000031339008000010008TJOAQUIN MONTES ROBLEDO                                                      000000000000000000N
032000031339009000010009TFAUSTINO ZAPICO ALVAREZ                                                     000000000000000000N
032000031339006000037006TDAVID JUNCO ALONSO                                                          000000000000000000N
032000031339019000048019TROBERTO LUIS ALVAREZ DIAZ                                                   000000000000000000N
032000031339020000048020TJOSE MANUEL FERNANDEZ FERNANDEZ                                             000000000000000000N
032000031339021000048021TSEGUNDO ALFONSO FERNANDEZ DEL REY                                           000000000000000000N
032000031339012000050012TANTONIO AVILES LOPEZ                                                        000000000000000000N
032000031339002000063002TMARIANO CESAR SANTISO DEL VALLE                                             000000000000000000N
032000031339027000093027TXESUS CAÑEDO VALLE                                                          000000000000000000N
032000031339028000093028TXOSE AVELINO DEVESA CASTAÑO                                                 000000000000000000N
032000031339029000093029TXUAN RAMON PERTIERRA ARGIZ                                                  000000000000000000N
032000031339011000103011TRAQUEL MARIA FERNANDEZ HERES                                                000000000000000000N
032000031339016000113016TJUAN MANUEL CAMPOS ANSO                                                     000000000000000000S
032000031339017000113017TISIDRO MANUEL MARTINEZ OBLANCA                                              000000000000000000S
032000031339018000113018TJAVIER SOPEÑA VELASCO                                                       000000000000000000S
032000031339022000135022TJOSE ANTONIO ALONSO GARCIA                                                  000000000000000000S
032000031339023000135023TMARIA VIRTUDES MONTESERIN RODRIGUEZ                                         000000000000000000N
032000031339003000145003TMARIA ISABEL ARANGO FERNANDEZ                                               000000000000000000N
032000031339004000145004TPEDRO OSCAR BUELGA DIAZ                                                     000000000000000000N
032000031339005000145005TJOSE BENJAMIN MORO ONIS                                                     000000000000000000N
032000031339013000156013TMANUEL FERNANDEZ FERNANDEZ                                                  000000000000000000N
032000031339014000156014TIGNACIU IGLESIAS FERNANDEZ                                                  000000000000000000N
032000031339015000156015TMARTA AURORA PRIETO BUSTO                                                   000000000000000000N
032000031339001000159001TJOSEFA TERENCIO FERRER                                                      000000000000000000N
032000031339024000161024TMARIA DE LOS ANGELES ARIAS MARTINEZ                                         000000000000000000N
032000031339025000161025TJAVIER LOZANO RIERA                                                         000000000000000000N
032000031339026000161026TMARIA DEL ROCIO RODRIGUEZ GONZALEZ                                          000000000000000000N
032000031071015000025015TJAVIER VIVES AGURRUZA                                                       000000000000000000N
032000031071010000036010TJOSEP SERRA I COLOMAR                                                       000000000000000000N
032000031071006000039006TIGNACIO RIBAS GARAU                                                         000000000000000000N
032000031071001000046001TJOANA COLOMA BUSQUETS HUGUET                                                000000000000000000N
032000031071002000046002TMIQUEL ANGEL LLAUGER ROSSELLO                                               000000000000000000N
032000031071020000050020TMARIA GUADALUPE SOLANA GARCIA                                               000000000000000000N
032000031071003000066003TMª DEL PILAR DIAZ GONZALEZ                                                  000000000000000000N
032000031071011000113011TEDUARDO GAMERO MIR                                                          000000000000000000S
032000031071012000113012TJOSE MANUEL RUIZ RIVERO                                                     000000000000000000S
032000031071018000124018TMIGUEL DEYA PALMER                                                          000000000000000000N
032000031071019000124019TFRANCISCO GONZALEZ RODRIGUEZ                                                000000000000000000N
032000031071008000130008TCATALINA BOVER NICOLAU                                                      000000000000000000N
032000031071009000130009TMONTSERRAT SANTANDREU GINARD                                                000000000000000000N
032000031071007000135007TRAMON ANTONIO SOCIAS PUIG                                                   000000000000000000S
032000031071004000141004TANTONIO JUAN JULVE                                                          000000000000000000N
032000031071005000141005TANTONIO VERA THOMAS                                                         000000000000000000N
032000031071013000147013TJOSEP MELIA QUES                                                            000000000000000000N
032000031071014000147014TMARIA JOSE RODRIGUEZ VAZQUEZ                                                000000000000000000N
032000031071016000151016TDAVID GIL DE PAZ                                                            000000000000000000N
032000031071017000151017TJAVIER DE JUAN SABATER                                                      000000000000000000N
032000031072002000066002TJUANA TERESA SORIA BRAVO                                                    000000000000000000N
032000031072003000116003TJOSE SEGUI DIAZ                                                             000000000000000000S
032000031072001000138001TSERGI MARI PONS                                                             000000000000000000N
032000031072004000151004TVICENTE GARAU JUAN                                                          000000000000000000N
032000031073001000055001TPURIFICACION REYES TORICES GUTIERREZ                                        000000000000000000N
032000031073002000066002TMª DE LA PALMA MATAMALA MONTEAGUDO                                          000000000000000000N
032000031073003000087003TFRANCISCA (FANNY) TUR RIERA                                                 000000000000000000N
032000031073004000113004TENRIQUE FAJARNES RIBAS                                                      000000000000000000S
032000031351004000014004TFROILAN GERMAN RODRIGUEZ DIAZ                                               000000000000000000S
032000031351005000014005TCELESTINO SUAREZ ESPINO                                                     000000000000000000N
032000031351012000048012TJOSE LOPEZ MOLINA                                                           000000000000000000N
032000031351013000048013TPEDRO PABLO MACHIN SANTANA                                                  000000000000000000N
032000031351020000050020TVICENTA SANCHEZ ARROYO                                                      000000000000000000N
032000031351021000069021TVICENTE F. BOLAÑOS BETANCOR                                                 000000000000000000N
032000031351022000069022TJAVIER DORESTE ZAMORA                                                       000000000000000000N
032000031351018000098018TCARMELO SUAREZ CABRERA                                                      000000000000000000N
032000031351019000098019TANDRES ALVARADO JANINA                                                      000000000000000000N
032000031351003000103003TROSA DELIA GIL ACOSTA                                                       000000000000000000N
032000031351006000113006TJOSE MACIAS SANTANA                                                         000000000000000000S
032000031351007000113007TMARIA AUSTRALIA NAVARRO DE PAZ                                              000000000000000000S
032000031351008000142008TORLANDO PEDRO RAMIREZ MELIAN                                                000000000000000000N
032000031351009000142009TDAMASO VICENTE TOLEDO ROBAINA                                               000000000000000000N
032000031351016000145016TMARCELINO ALONSO HERNANDEZ                                                  000000000000000000N
032000031351017000145017TGONZALO LLANES ARBAS                                                        000000000000000000N
032000031351001000150001TMARGARITA ETALA SOCAS                                                       000000000000000000N
032000031351002000150002TJOSE MONTENEGRO ALAMO                                                       000000000000000000N
032000031351010000162010TALICIA LEZCANO MORENO                                                       000000000000000000N
032000031351011000162011TJUAN FRANCISCO RODRIGUEZ BAEZ                                               000000000000000000N
032000031351014000170014TCARMELO ARTILES BOLAÑOS                                                     000000000000000000N
032000031351015000170015TMAGDALENA INMACULADA MEDINA MONTENEGRO                                      000000000000000000N
032000031352004000014004TCANDIDO ARMAS RODRIGUEZ                                                     000000000000000000N
032000031352007000048007TANDRES M. PERERA CANDELARIA                                                 000000000000000000N
032000031352002000069002TJOSE ANTONIO GONZALEZ HERNANDEZ                                             000000000000000000N
032000031352003000103003TFERNANDO CABRERA TARRAGO                                                    000000000000000000N
032000031352005000105005TDIMAS MARTIN MARTIN                                                         000000000000000000S
032000031352001000113001TALEJANDRO JOSE DIAZ HERNANDEZ                                               000000000000000000N
032000031352006000170006TFRANCISCO MANUEL FAJARDO PALAREA                                            000000000000000000N
032000031353004000014004TCLAUDINA MORALES RODRIGUEZ                                                  000000000000000000S
032000031353006000048006TJOSE F. HERNANDEZ CAMBRELENG                                                000000000000000000N
032000031353003000069003TJESUS DE SAN RAMON PEREZ GUTIERREZ                                          000000000000000000N
032000031353001000103001TFRANCISCO M. GARCIA ALONSO                                                  000000000000000000N
032000031353005000113005TDOMINGO GONZALEZ ARROYO                                                     000000000000000000N
032000031353002000170002TEUSTAQUIO SANTANA GIL                                                       000000000000000000N
032000031384003000014003TALONSO ARROYO HODGSON                                                       000000000000000000S
032000031384004000014004TJUAN PEDRO DAVILA DE LEON (CC-PNC)                                          000000000000000000N
032000031384005000048005TMANUEL PEREYRA-GARCIA FELIPE                                                000000000000000000N
032000031384001000069001TJULIA GIL LOPEZ                                                             000000000000000000N
032000031384002000069002TJOSE ARNAY PUERTA                                                           000000000000000000N
032000031384016000098016TEUGENIO FRANCISCO PADILLA HERRERA                                           000000000000000000N
032000031384017000098017TJESUS FELICIANO DORTA NEGRIN                                                000000000000000000N
032000031384010000103010TRAMON EZEQUIEL ROJAS HERNANDEZ                                              000000000000000000N
032000031384011000103011TVICTOR MANUEL GARCIA BRUNETTO                                               000000000000000000N
032000031384006000113006TJUAN ANTONIO GARCIA TALAVERA CASAÑAS                                        000000000000000000S
032000031384007000113007TEVA ROSARIO NAVARRO GONZALEZ                                                000000000000000000S
032000031384008000135008TSANTIAGO PEREZ GARCIA                                                       000000000000000000N
032000031384009000135009TMARIA MERCEDES PEREZ SCHWARTZ                                               000000000000000000N
032000031384014000145014TLAZARO DIAZ FAJARDO                                                         000000000000000000N
032000031384015000145015TMARCELINO MACHADO PADRON                                                    000000000000000000N
032000031384012000162012TFRANCISCO JOSE RODRIGUEZ PULIDO                                             000000000000000000N
032000031384013000162013TJOSE MARIA DE AZCARATE BANG                                                 000000000000000000N
032000031385006000014006TJOSE LUIS PERESTELO RODRIGUEZ                                               000000000000000000S
032000031385001000048001TTEODORO ROJO ALADRO                                                         000000000000000000N
032000031385002000069002TJOSE ANTONIO LORENZO PEREZ                                                  000000000000000000N
032000031385005000113005TMANUEL FERNANDO LORENZO PEREZ                                               000000000000000000N
032000031385004000135004TMANUEL MARCOS PEREZ HERNANDEZ                                               000000000000000000N
032000031385003000162003TPEDRO HIGINIO ALVAREZ RODRIGUEZ                                             000000000000000000N
032000031386005000014005TMOISES PLASENCIA MARTIN                                                     000000000000000000N
032000031386003000048003TJUAN RAMON TRILLO VILLAR                                                    000000000000000000N
032000031386002000069002TFRANCISCO JOSE CASTILLA ARTEAGA                                             000000000000000000N
032000031386004000113004TANTONIO RAMON ESPINEL APARICIO                                              000000000000000000N
032000031386001000135001TCASIMIRO CURBELO CURBELO                                                    000000000000000000S
032000031387003000015003TVENANCIO ACOSTA PADRON                                                      000000000000000000S
032000031387004000048004TJESUS PEÑAS ARTERO                                                          000000000000000000N
032000031387002000113002TREGINA GARCIA CASAÑAS                                                       000000000000000000N
032000031387001000135001TJUAN CASTAÑEDA ACOSTA                                                       000000000000000000N
032000031399002000007002TMIGUEL GUTIERREZ AJA                                                        000000000000000000N
032000031399003000007003TKENIA L. GUTIERREZ SABALA                                                   000000000000000000N
032000031399004000007004TRAMON FELIPE MUCIENTES DONAIRE                                              000000000000000000N
032000031399005000007005TMAGDALENA OSADO GOMEZ                                                       000000000000000000N
032000031399016000023016TRAUL HUERTA FERNANDEZ                                                       000000000000000000N
032000031399017000023017TALBERTO MARTINEZ GUTIERREZ                                                  000000000000000000N
032000031399018000023018TJUAN CARLOS PALACIO MATOS                                                   000000000000000000N
032000031399019000023019TFELIX PORTILLA FERNANDEZ                                                    000000000000000000N
032000031399020000025020TRAMON ANGEL CALVO CRESPO                                                    000000000000000000N
032000031399021000048021TRAUL LLATA LASALLE                                                          000000000000000000N
032000031399022000048022TJOSE FRANCISCO LOPEZ FERNANDEZ                                              000000000000000000N
032000031399023000048023TANDRES NAVAMUEL RODRIGUEZ                                                   000000000000000000N
032000031399027000050027TCATALINA MANCEBO ARNEDO                                                     000000000000000000N
032000031399013000054013TJOSE LUIS CASARES GARCIA                                                    000000000000000000N
032000031399014000054014TJESUS MARIA LUENGO JIMENEZ                                                  000000000000000000N
032000031399015000054015TVICTOR DAVID ONTORIA SEVILLANO                                              000000000000000000N
032000031399006000063006TESTHER BALZA FERNANDEZ                                                      000000000000000000N
032000031399007000063007THILARIO GONZALEZ FERNANDEZ                                                  000000000000000000N
032000031399008000063008TROBERTO IGLESIAS ARMADA                                                     000000000000000000N
032000031399009000063009TANGEL RUIZ SINDE                                                            000000000000000000N
032000031399024000099024TJESUS GONZALEZ GUTIERREZ                                                    000000000000000000N
032000031399025000099025TCARLOS NAVASCUEZ MAZA                                                       000000000000000000N
032000031399026000099026TANTONIO VEDIA GONZALEZ                                                      000000000000000000N
032000031399010000113010TMARIA VISITACION PEREZ VEGA                                                 000000000000000000S
032000031399011000113011TALBERTO TERAN MOLLEDA                                                       000000000000000000S
032000031399012000113012TJOSE LUIS VALLINES DIAZ                                                     000000000000000000S
032000031399031000145031TENRIQUE RAMON GONZALEZ SANCHEZ                                              000000000000000000N
032000031399032000145032TFRANCISCO PEREZ GONZALEZ                                                    000000000000000000N
032000031399033000145033TMIGUEL ANGEL RUIZ SANCHEZ                                                   000000000000000000N
032000031399001000159001TFRANCISCO NOGUERA BALLESTER                                                 000000000000000000N
032000031399028000170028TBLANCA ROSA GOMEZ MORANTE                                                   000000000000000000S
032000031399029000170029TGEMA SOLIS TEJA                                                             000000000000000000N
032000031399030000170030TFERNANDO VILLORIA DIEZ                                                      000000000000000000N
032000031029001000048001TRICARDO MUÑOZ REQUENA                                                       000000000000000000N
032000031029002000048002TJOSE REQUENA MARTI                                                          000000000000000000N
032000031029013000050013TJUAN RIOS OLIVER                                                            000000000000000000N
032000031029014000050014TJOSE LUIS RODRIGUEZ GALINDO                                                 000000000000000000N
032000031029015000050015TCONSUELO RODRIGUEZ PICAZO                                                   000000000000000000N
032000031029010000054010TMARIA TERESA ARROYO ARANA                                                   000000000000000000N
032000031029011000054011TFRANCISCO HERNANDEZ SANZ                                                    000000000000000000N
032000031029012000054012TAMADEO JUAN MORENO JIMENEZ                                                  000000000000000000N
032000031029008000063008TPEDRO BOLIVAR REVERTE                                                       000000000000000000N
032000031029016000088016TFRANCISCO MARTINEZ SANDOVAL                                                 000000000000000000N
032000031029009000103009TGUSTAVO ORLANDO SANCHEZ SUAREZ                                              000000000000000000N
032000031029018000113018TATANASIO SILVERIO BALLESTEROS MORCILLO                                      000000000000000000S
032000031029019000113019TSIXTO GONZALEZ GARCIA                                                       000000000000000000S
032000031029020000113020TANTONIA RUIPEREZ RUIZ                                                       000000000000000000S
032000031029006000135006TANTONIO CALLADO GARCIA                                                      000000000000000000S
032000031029007000135007TMARIA DE LOS ANGELES LOPEZ FUSTER                                           000000000000000000N
032000031029003000140003TMARIA DE LA CRUZ CARLAVILLA SANZ                                            000000000000000000N
032000031029004000140004TANGEL DEL EGIDO PEREZ                                                       000000000000000000N
032000031029005000140005TAMADOR PORTILLA COTILLAS                                                    000000000000000000N
032000031029021000145021TJOAQUIN BARTOLOME LINARES QUIJANO                                           000000000000000000N
032000031029022000145022TTOMAS ROMERO GARCIA                                                         000000000000000000N
032000031029017000159017TMIGUEL MARTINEZ LLUCH                                                       000000000000000000N
032000031139008000048008TGUSTAVO ADOLFO MONTALVO VAZQUEZ                                             000000000000000000N
032000031139010000050010TARMANDO DE LA FUENTE VAZQUEZ                                                000000000000000000N
032000031139018000063018TLONGINOS CASTRO SANCHEZ                                                     000000000000000000N
032000031139019000063019TJULIA CONDE DIAZ                                                            000000000000000000N
032000031139020000063020TFLORENTINO LOPEZ MONTERO                                                    000000000000000000N
032000031139009000076009TANTONIO NAVARRO ZANON                                                       000000000000000000N
032000031139014000088014TISABEL MUÑOZ MARTINEZ                                                       000000000000000000N
032000031139002000103002TGLORIA LOPEZ LOPEZ                                                          000000000000000000N
032000031139003000103003TPALOMA LOPEZ LOPEZ                                                          000000000000000000N
032000031139004000103004TVIRGINIA LOPEZ LOPEZ                                                        000000000000000000N
032000031139005000113005TFRANCISCO GIL-ORTEGA RINCON                                                 000000000000000000S
032000031139006000113006TMARIA TERESA NOVILLO MORENO                                                 000000000000000000S
032000031139007000113007TGABRIEL RODADO FERNANDEZ                                                    000000000000000000S
032000031139011000135011THILARIO CABALLERO MOYA                                                      000000000000000000S
032000031139012000135012TROSA MARIA DE PAZ MARTINEZ                                                  000000000000000000N
032000031139013000135013TLORENZO SELAS CESPEDES                                                      000000000000000000N
032000031139021000140021TSUSANA MARIA CALERO PRIMO                                                   000000000000000000N
032000031139022000140022TJUAN ANTONIO HIDALGO ALONSO                                                 000000000000000000N
032000031139023000140023TANGEL MORA DE LAS HERAS                                                     000000000000000000N
032000031139015000145015TJOSE JAVIER AREVALO ESCARPA                                                 000000000000000000N
032000031139016000145016TTOMAS BONNIN TORRES                                                         000000000000000000N
032000031139017000145017TMARIA CONCEPCION OLIETE PARTAL                                              000000000000000000N
032000031139001000159001TINES CARMEN MONTESINOS FALOMIR                                              000000000000000000N
032000031169003000034003TMARIO BARREDA GABALDON                                                      000000000000000000N
032000031169004000034004TMARIA EUGENIA GARCIA ESCRIBANO                                              000000000000000000N
032000031169023000048023TJUAN RAMON CLAPERS CALVO                                                    000000000000000000N
032000031169002000050002TJUAN SAN MARTIN DOMINGUEZ                                                   000000000000000000N
032000031169013000063013TFELICIANO MAYORGA TARRIÑO                                                   000000000000000000N
032000031169008000076008TMARIANO CARRERAS PLAZA                                                      000000000000000000N
032000031169009000088009TLUIS MIGUEL REDONDO PEREZ                                                   000000000000000000N
032000031169020000113020TMARIA JESUS BONILLA DOMINGUEZ                                               000000000000000000S
032000031169021000113021TLUCIA DELGADO GARCIA                                                        000000000000000000S
032000031169022000113022TROGELIO PARDO GABALDON                                                      000000000000000000S
032000031169014000135014TLUIS AYLLON OLIVA                                                           000000000000000000S
032000031169015000135015TMARIA CARMEN GARCIA PATIÑO                                                  000000000000000000N
032000031169016000135016TGUILLERMO LOPEZ MARTINEZ                                                    000000000000000000N
032000031169017000140017TJULIAN BONILLA ISIDRO                                                       000000000000000000N
032000031169018000140018TCLEMENTE DE LOS SANTOS BENITO                                               000000000000000000N
032000031169019000140019TENCARNACION TRIBALDOS VILLAR DEL SAZ                                        000000000000000000N
032000031169010000145010TRAFAEL ROMERO URIBES                                                        000000000000000000N
032000031169011000145011TSANTIAGO SIERRA NOHALES                                                     000000000000000000N
032000031169012000145012TVICENTE SOTODOSOS RUIZ                                                      000000000000000000N
032000031169001000159001TJUAN MANUEL GARROTE CANO                                                    000000000000000000N
032000031169005000167005TFELIPE SANTIAGO ALARCON CAVERO                                              000000000000000000N
032000031169006000167006TJESUS FERNANDO GARCIA CHACON                                                000000000000000000N
032000031169007000167007TGILBERTO MOTILLA OLMO                                                       000000000000000000N
032000031199008000025008TJAVIER ZAZU LAFUENTE                                                        000000000000000000N
032000031199016000048016TLUIS LAFON VAZQUEZ                                                          000000000000000000N
032000031199017000048017TJUAN ANTONIO MUÑOZ ADALIA                                                   000000000000000000N
032000031199018000048018TBERNARDINO DEL OLMO BRONCHALO                                               000000000000000000N
032000031199001000050001TFRANCISCO JAVIER PRIETO RAMIRO                                              000000000000000000N
032000031199027000054027TRAFAEL GARCIA BERNAL                                                        000000000000000000N
032000031199028000054028TJAVIER GARCIA-RODRIGO VIVANCO                                               000000000000000000N
032000031199029000054029TMARIA CONCEPCION GOMEZ COMINO PEREZ                                         000000000000000000N
032000031199009000063009TSATURNINA CASILLAS MARTIN                                                   000000000000000000N
032000031199002000088002TJOSE SANTIAGO RUANO BERIGÜETE                                               000000000000000000N
032000031199003000088003TJULIO CESAR SEMPER ESCRICHE                                                 000000000000000000N
032000031199004000088004TANTONIO SORIA ROMERO                                                        000000000000000000N
032000031199010000103010TIVAN BURGUEÑO DEL MELADO                                                    000000000000000000N
032000031199011000103011TANA MARIA GILSANZ STANGER                                                   000000000000000000N
032000031199012000103012TCONCEPCION ZAFRA HUERTA                                                     000000000000000000N
032000031199022000113022TMARIA ANGELES FONT BONMATI                                                  000000000000000000S
032000031199023000113023TLUIS MANUEL FRAGA EGUSQUIAGUIRRE                                            000000000000000000S
032000031199024000113024TJUAN PABLO SANCHEZ SANCHEZ-SECO                                             000000000000000000S
032000031199005000123005TEUSEBIO JOSE HITA AGUILERA                                                  000000000000000000N
032000031199006000123006TLUIS MENDEZ HEREDIA                                                         000000000000000000N
032000031199007000123007TMARIA LUISA SILVEIRA MARTINEZ                                               000000000000000000N
032000031199013000135013TJUAN PABLO HERRANZ MARTINEZ                                                 000000000000000000S
032000031199014000135014TMARIA BELEN PONTERO PASTOR                                                  000000000000000000N
032000031199019000140019TJUAN JOSE MOLINA ROBLEDO                                                    000000000000000000N
032000031199020000140020TJUAN CARLOS MUÑOZ RODRIGUEZ                                                 000000000000000000N
032000031199021000140021TALEJANDRO PLAZA MONTESINOS                                                  000000000000000000N
032000031199015000145015TFELIX ARBOLI MARTINEZ                                                       000000000000000000N
032000031199026000159026TJOSE MANUEL ALGABA PUJADES                                                  000000000000000000N
032000031199025000167025TMARIA TERESA LOPEZ GARCIA                                                   000000000000000000N
032000031459026000025026TRAFAEL DE LA VEGA CHURRUCA                                                  000000000000000000N
032000031459029000034029TEMILIO CAMPOS LEON                                                          000000000000000000N
032000031459030000034030TJOSE CORRAL SANCHEZ                                                         000000000000000000N
032000031459031000034031TMARIA DOLORES GOMEZ GARCIA                                                  000000000000000000N
032000031459015000048015TFRANCISCO JAVIER BOTICA RUIZ                                                000000000000000000N
032000031459014000050014TJOSE ANTONIO GARCIA-ROJO MANSILLA                                           000000000000000000N
032000031459023000054023TJOSE ENRIQUE HERNANDEZ ACEVEDO                                              000000000000000000N
032000031459024000054024TFELIPE ILLAN DIAZ                                                           000000000000000000N
032000031459025000054025TMANUEL JOSE SUERO GOMEZ                                                     000000000000000000N
032000031459010000057010TCARLOS MARAÑON VICARIO                                                      000000000000000000N
032000031459001000063001TANTONIO ARROGANTE MUÑOZ                                                     000000000000000000N
032000031459018000088018TJULIA SERRANO AGUADO                                                        000000000000000000N
032000031459019000088019TYOLANDA TRIGO GARCIA                                                        000000000000000000N
032000031459020000090020TJUAN CAMACHO SUELA                                                          000000000000000000N
032000031459021000090021TJOSE ANTONIO GONZALEZ HERNANDO                                              000000000000000000N
032000031459022000090022TJULIO REVIEJO SANCHEZ                                                       000000000000000000N
032000031459027000103027TDAVID DE DIEGO SORIANO                                                      000000000000000000N
032000031459028000103028TJULIO MANZANO DAGANZO                                                       000000000000000000N
032000031459007000113007TTOMAS PEDRO BURGOS BETETA                                                   000000000000000000S
032000031459008000113008TMARIA REMEDIOS GAMEZ MATA                                                   000000000000000000S
032000031459009000113009TVICENTE TIRADO OCHOA                                                        000000000000000000S
032000031459005000135005TJOSE MIGUEL CAMACHO SANCHEZ                                                 000000000000000000S
032000031459006000135006TMARIA ANGELES VAZQUEZ PEREZ                                                 000000000000000000N
032000031459011000140011TMONICA CALVO PEREZ                                                          000000000000000000N
032000031459012000140012TLUIS HERNANDEZ ROIGE                                                        000000000000000000N
032000031459013000140013TALEJANDRO ORTEGA CUBILLO                                                    000000000000000000N
032000031459002000145002TJUAN CARLOS ALMEIDA GORDILLO                                                000000000000000000N
032000031459003000145003TJUAN DE DIOS BAJO GARCIA                                                    000000000000000000N
032000031459004000145004TCONSUELO HUMANES PRIETO                                                     000000000000000000N
032000031459017000159017TJULIAN OCTAVIO GALLEGO DOMINGO                                              000000000000000000N
032000031459016000167016TFERMIN PEREZ-NIEVAS BORDERAS                                                000000000000000000N
032000031059004000050004TTERESA RUS CARRASCO                                                         000000000000000000N
032000031059013000057013TMARIA TERESA MUÑOZ RIVERO                                                   000000000000000000N
032000031059003000063003TISABEL CASILLAS MARCOS                                                      000000000000000000N
032000031059001000066001TJOSE MARIA JIMENEZ HERNANDEZ                                                000000000000000000N
032000031059002000066002TALEJANDRO CARRERA LAZARO                                                    000000000000000000N
032000031059017000088017TMIGUEL ANGEL JIMENEZ PRIETO                                                 000000000000000000N
032000031059018000088018TEZEQUIEL LORENTE BLAZQUEZ                                                   000000000000000000N
032000031059019000103019TFRANCISCO LOPEZ SANTIAGO                                                    000000000000000000N
032000031059010000113010TAGUSTIN DIAZ DE MERA Y GARCIA CONSUEGRA                                     000000000000000000S
032000031059011000113011TTERESA GARCIA AVILES                                                        000000000000000000S
032000031059012000113012TANTOLIN SANZ PEREZ                                                          000000000000000000S
032000031059021000135021TJESUS DE LA FUENTE SAMPRON                                                  000000000000000000S
032000031059022000135022TPABLO GUTIERREZ DEL BOSQUE                                                  000000000000000000N
032000031059007000140007TESTHER BIBIANA BENITO FERNANDEZ                                             000000000000000000N
032000031059008000140008TANTONIO DAVILA MONTERO                                                      000000000000000000N
032000031059009000140009TSANTIAGO SEBASTIAN MUÑOZ                                                    000000000000000000N
032000031059014000145014TAMPARO PORRAS GALVEZ                                                        000000000000000000N
032000031059015000145015TRAQUEL GONZALEZ CAMPA                                                       000000000000000000N
032000031059016000145016TROSA MARIA JIMENEZ NOVELLE                                                  000000000000000000N
032000031059005000159005TALFONSO ENRIQUE ORTI MARI                                                   000000000000000000N
032000031059006000167006TTOMAS BRAVO SERRANO                                                         000000000000000000N
032000031059020000169020TMARIA DEL PILAR SANCHEZ MARTIN                                              000000000000000000N
032000031099008000025008TMIGUEL ANGEL IBERO MARTINEZ                                                 000000000000000000N
032000031099007000048007TMARGARITA MARTIN ARMERO                                                     000000000000000000N
032000031099018000050018TMIGUEL ANGEL GUTIERREZ ESPASANDIN                                           000000000000000000N
032000031099016000057016TJOSE PAULINO REYERO ALVAREZ                                                 000000000000000000N
032000031099019000063019TMARIA JESUS ANGELES RUIZ BUENO                                              000000000000000000N
032000031099025000088025TJOSE IGNACIO GARCIA OJEDA                                                   000000000000000000N
032000031099026000088026TGREGORIO LARA LOPEZ                                                         000000000000000000N
032000031099027000088027TMIGUEL VALLECILLO RODRIGUEZ                                                 000000000000000000N
032000031099001000103001TMARINA CAMPO PEREZ                                                          000000000000000000N
032000031099002000103002TMIGUEL ANGEL CUELLAR GARCIA                                                 000000000000000000N
032000031099003000103003TFRANCISCA MANUELA VILLAR VILLAR                                             000000000000000000N
032000031099004000113004TJESUS FERNANDEZ LOPEZ                                                       000000000000000000S
032000031099005000113005TCESAR ANTONIO RICO RUIZ                                                     000000000000000000S
032000031099006000113006TMARIA CRUZ RODRIGUEZ SALDAÑA                                                000000000000000000S
032000031099009000121009TFRANCISCO IGLESIAS GONZALEZ                                                 000000000000000000N
032000031099020000135020TJUAN JOSE LABORDA MARTIN                                                    000000000000000000S
032000031099021000135021TALEJANDRO RUIZ HUERTA CARBONELL                                             000000000000000000N
032000031099010000140010TSILVINO ANGULO SANTAMARIA                                                   000000000000000000N
032000031099011000140011TJOSE IGNACIO DELGADO PALACIOS                                               000000000000000000N
032000031099012000140012TDAVID DIAZ CRUZ                                                             000000000000000000N
032000031099013000145013TJOSE ANTONIO ESCUDERO PEÑA                                                  000000000000000000N
032000031099014000145014TMARIA MONSERRAT MARTINEZ GONZALEZ                                           000000000000000000N
032000031099015000145015TMARIA CONCEPCION PERO-SANZ BERROCAL                                         000000000000000000N
032000031099017000159017TANTONIO GOMEZ CABRERA                                                       000000000000000000N
032000031099022000169022TJUAN MACIAS TEJEDA                                                          000000000000000000N
032000031099023000169023TANTONIO MARTIN HERNANDEZ                                                    000000000000000000N
032000031099024000169024TMARIA ISABEL TELLO VICENTE                                                  000000000000000000N
032000031249005000048005TMARIA DEL CARMEN APARICIO PERIQUET                                          000000000000000000N
032000031249006000048006TEMILIO GONZALEZ POLLEDO                                                     000000000000000000N
032000031249007000048007TMARIA DEL PILAR SILVA IGLESIAS                                              000000000000000000N
032000031249029000050029TVICENTA GANDULLO PEREZ                                                      000000000000000000N
032000031249004000063004TGUILLERMO MURIAS ANDONEGUI                                                  000000000000000000N
032000031249025000088025TEMELINO CANTORAL ESPADA                                                     000000000000000000N
032000031249026000088026TMARIA CARMEN GONZALEZ BOTO                                                  000000000000000000N
032000031249027000088027TJOSE LUIS GONZALEZ RODRIGUEZ                                                000000000000000000N
032000031249017000095017TJOSE RAMON MANSILLA ALVAREZ                                                 000000000000000000N
032000031249021000103021TMANUEL GABRIEL MARTINEZ GONZALEZ                                            000000000000000000N
032000031249022000103022TJUAN CARLOS MORENO BLANCO                                                   000000000000000000N
032000031249011000113011TMARIO AMILIVIA GONZALEZ                                                     000000000000000000S
032000031249012000113012TMARIA MAR GONZALEZ PEREDA                                                   000000000000000000S
032000031249013000113013TALFREDO PRADA PRESA                                                         000000000000000000S
032000031249014000120014TAMADEO NUÑEZ VEGA                                                           000000000000000000N
032000031249015000120015TMARIA TERESA QUINTANA ALONSO                                                000000000000000000N
032000031249016000120016TJUAN CARLOS RODRIGUEZ DIEZ                                                  000000000000000000N
032000031249001000140001TENRIQUE ALONSO GARCIA                                                       000000000000000000N
032000031249002000140002TMARIA SAGRARIO MARTINEZ DE LA FUENTE                                        000000000000000000N
032000031249003000140003TLUIS SANTAMARIA BUJEDO                                                      000000000000000000N
032000031249018000145018TMARIA DE LOS ANGELES ALVAREZ SANCHEZ                                        000000000000000000N
032000031249019000145019TANA ROSA GONZALEZ GARCIA                                                    000000000000000000N
032000031249020000145020TJOSE MANUEL PEREZ VILLAR                                                    000000000000000000N
032000031249008000152008TLAZARO GARCIA BAYON                                                         000000000000000000N
032000031249009000152009TRICARDO MAGAZ ALVAREZ                                                       000000000000000000N
032000031249010000152010TTOMAS DE LA SIERRA GONZALEZ                                                 000000000000000000N
032000031249028000159028TPOLIXENA BELLVER ALCAINA                                                    000000000000000000N
032000031249023000170023TMANUEL FRANCISCO FERNANDEZ ZANCA                                            000000000000000000S
032000031249024000170024TESTANISLAO LINARES GONZALEZ                                                 000000000000000000N
032000031349014000021014TMARIA JOSEFINA FRAILE MARTIN                                                000000000000000000N
032000031349007000048007TAGUSTIN GONZALEZ SANCHEZ                                                    000000000000000000N
032000031349002000050002TJOSE IGNACIO CABANAS VILLENA                                                000000000000000000N
032000031349001000057001TMARIA ROCIO MIELGO BLANCO                                                   000000000000000000N
032000031349016000063016TMANUEL ALVAREZ RODRIGUEZ                                                    000000000000000000N
032000031349009000099009TRAIMUNDO NEVADO ROMAN                                                       000000000000000000N
032000031349010000099010TVALENTIN PRIETO GONZALEZ                                                    000000000000000000N
032000031349011000099011TDANIEL RUBI VILLARREAL MACHO                                                000000000000000000N
032000031349020000103020TRAUL MARIO DIEZ DIEZ                                                        000000000000000000N
032000031349021000103021TJOSE LUIS GARCIA GARCIA                                                     000000000000000000N
032000031349022000103022TANA MARIA GARCIA GONZALEZ                                                   000000000000000000N
032000031349017000113017TOSCAR LLANOS VERA                                                           000000000000000000S
032000031349018000113018TCARLOS ROJO MARTINEZ                                                        000000000000000000S
032000031349019000113019TMARIA CRISTINA TEJEDOR UTRILLA                                              000000000000000000S
032000031349003000120003TMIGUEL ANGEL SANTIAGO FAGUNDEZ                                              000000000000000000N
032000031349012000135012TMARIA DEL CARMEN GONZALEZ LAHIDALGA                                         000000000000000000S
032000031349013000135013TMARGARITA RODRIGUEZ RUIZ                                                    000000000000000000N
032000031349023000140023TISABEL MANSO GARCIA                                                         000000000000000000N
032000031349024000140024TENRIQUE PABLO NEGUERUELA AZAROLA                                            000000000000000000N
032000031349025000140025TJUAN CRUZ VIDAL CARAZO                                                      000000000000000000N
032000031349008000145008TOSCAR DEL VAL MARTI                                                         000000000000000000N
032000031349015000159015TVICENTE COLL IBANCO                                                         000000000000000000N
032000031349004000169004TJOSE FELIX GUERRA ACOSTA                                                    000000000000000000N
032000031349005000169005TLUIS MIGUEL  ROBLES GARCIA                                                  000000000000000000N
032000031349006000169006TFRANCISCO SAN SEGUNDO OVEJERO                                               000000000000000000N
032000031379001000048001TFRANCISCO JAVIER VAZQUEZ GONZALEZ                                           000000000000000000N
032000031379014000050014TMANUEL MORENO COMES                                                         000000000000000000N
032000031379016000057016TJOSE LUIS DE LAS HERAS SANTOS                                               000000000000000000N
032000031379023000063023TDIONISIO ALONSO GUTIERREZ                                                   000000000000000000N
032000031379007000103007TFERMINA JUANA CASTRO DE LAS HERAS                                           000000000000000000N
032000031379011000113011TJOSE MARIA BARAHONA HORTELANO                                               000000000000000000S
032000031379012000113012TFELIX COLSA BUENO                                                           000000000000000000S
032000031379013000113013TCRISTINA KLIMOWITZ WALDMANN                                                 000000000000000000S
032000031379004000120004TMARIA OLIVA ALVAREZ PEREZ                                                   000000000000000000N
032000031379005000120005TJUAN MANUEL ANDRES LOPEZ                                                    000000000000000000N
032000031379006000120006TRAFAEL DE DIEGO NUÑEZ                                                       000000000000000000N
032000031379008000135008TJOSE CASTRO RABADAN                                                         000000000000000000S
032000031379009000135009TMARIA ENCARNACION PEREZ ALVAREZ                                             000000000000000000N
032000031379015000140015TANTONIO IZARRA SANTAMARIA                                                   000000000000000000N
032000031379002000145002TJOSE ANTONIO HINOJAL MARTIN                                                 000000000000000000N
032000031379003000145003TMANUEL JOSE MARTIN MARCOS                                                   000000000000000000N
032000031379017000158017TARGIMIRO CARPIO GARRIDO                                                     000000000000000000N
032000031379018000158018TJAIME MUÑOZ PATINO                                                          000000000000000000N
032000031379019000158019TVICENTE SANCHEZ SIERRO                                                      000000000000000000N
032000031379010000159010TRAMON GARCIA HERNANDEZ                                                      000000000000000000N
032000031379020000169020TMARIA SOFIA DE LA VEGA GONZALEZ DIEGO                                       000000000000000000N
032000031379021000169021TANA ISABEL SANCHEZ LUCAS                                                    000000000000000000N
032000031379022000169022TJOSE ARTURO DE LA TORRE DE LA HOZ                                           000000000000000000N
032000031409024000048024TCARLOS JAVIER GALAN GUTIERREZ                                               000000000000000000N
032000031409025000048025TVICENTE PLAZA SANZ                                                          000000000000000000N
032000031409005000050005TJUAN JOSE GONZALEZ GARCIA-CUENCA                                            000000000000000000N
032000031409022000057022TROBERTO BRAVO ALONSO                                                        000000000000000000N
032000031409016000063016TLUIS PEÑALOSA IZUZQUIZA                                                     000000000000000000N
032000031409004000076004TLEOPOLDO CENTENO FERNANDEZ                                                  000000000000000000N
032000031409001000088001TALFONSO ESTIRADO DEL AMO                                                    000000000000000000N
032000031409002000088002TJOSE IGNACIO GONZALEZ OCHOA                                                 000000000000000000N
032000031409003000088003TJOSE BLAS SANZ BAEZA                                                        000000000000000000N
032000031409014000103014TJOSE ANTONIO CORBIN PAREDES                                                 000000000000000000N
032000031409015000103015TJOSE MANUEL GIL SANZ                                                        000000000000000000N
032000031409017000113017TJUANA BORREGO IZQUIERDO                                                     000000000000000000S
032000031409018000113018TPEDRO ANTONIO HERNANDEZ ESCORIAL                                            000000000000000000S
032000031409019000113019TCLEMENTE SANZ BLANCO                                                        000000000000000000S
032000031409010000140010TOSCAR PEÑA MERINO                                                           000000000000000000N
032000031409011000140011TELVIRA TENO RAMON                                                           000000000000000000N
032000031409012000140012TJUAN CARLOS VILLAR BERZAL                                                   000000000000000000N
032000031409007000145007TMARIA TERESA ESQUILICHE VAZQUEZ                                             000000000000000000N
032000031409008000145008TJUAN JOSE MARTIN GUTIERREZ                                                  000000000000000000N
032000031409009000145009TCATALINA MATARRANZ CEBALLOS                                                 000000000000000000N
032000031409006000159006TCARLOS REAL MESTRE                                                          000000000000000000N
032000031409013000167013TPABLO PEREZ DE LA HIGUERA                                                   000000000000000000N
032000031409023000169023TJESUS PEREZ FRAILE                                                          000000000000000000N
032000031409020000170020TARTURO GONZALEZ LOPEZ                                                       000000000000000000S
032000031409021000170021TDANIEL LOPEZ TORREGO                                                        000000000000000000N
032000031429013000025013TIGNACIO ORBE SIVATTE                                                        000000000000000000N
032000031429001000048001TGLORIA MARTINEZ VAZQUEZ                                                     000000000000000000N
032000031429012000050012TJUAN ANTONIO ALVAREZ VINUESA                                                000000000000000000N
032000031429014000063014TNICASIO MARTINEZ GRACIA                                                     000000000000000000N
032000031429006000088006TGREGORIO JOAQUIN DE ANDRES FERNANDEZ                                        000000000000000000N
032000031429007000088007TMARIA DEL ROSARIO GARRIDO FERNANDEZ                                         000000000000000000N
032000031429008000088008TRAMON DURAN JIMENEZ                                                         000000000000000000N
032000031429016000113016TELIAS ARRIBAS ARAGONES                                                      000000000000000000S
032000031429017000113017TRICARDO ESPUELA ORGAZ                                                       000000000000000000S
032000031429018000113018TESTHER VALLEJO DE MIGUEL                                                    000000000000000000S
032000031429004000121004TVALENTIN LLAMAS AYERZA                                                      000000000000000000N
032000031429002000135002TFELIX LAVILLA MARTINEZ                                                      000000000000000000S
032000031429003000135003TMARIA ASCENSION PEREZ GOMEZ                                                 000000000000000000N
032000031429009000140009TCESAR AGUADO HUSILLOS                                                       000000000000000000N
032000031429010000140010TLORENZO ANTON GONZALEZ                                                      000000000000000000N
032000031429011000140011TANDRES RODRIGUEZ AMAYUELAS                                                  000000000000000000N
032000031429005000145005TAGUSTIN DE LAZARO MATEO                                                     000000000000000000N
032000031429015000169015TPABLO GARCIA CUBERO                                                         000000000000000000N
032000031479004000025004TANDRES HERMOSA GACHO                                                        000000000000000000N
032000031479025000048025TJOSE LUIS GONZALEZ MONTES                                                   000000000000000000N
032000031479028000050028TARTURO CAMARERO FERNANDEZ                                                   000000000000000000N
032000031479021000057021TDORIS MARIA BENEGAS HADDAD                                                  000000000000000000N
032000031479029000063029TANTONIO HERREROS HERREROS                                                   000000000000000000N
032000031479008000088008TJOSE JAIME GOMEZ ARANEGA                                                    000000000000000000N
032000031479009000088009TJOSEFA GONZALEZ GARCIA                                                      000000000000000000N
032000031479010000088010TMARIA ANGELES GARCIA RIQUELME                                               000000000000000000N
032000031479014000096014TMARIA INMACULADA FLOREZ SANCHEZ                                             000000000000000000N
032000031479015000096015TANGEL SEMOVILLA MUÑOZ                                                       000000000000000000N
032000031479016000096016TELVIRA TORIBIO CATALINA                                                     000000000000000000N
032000031479017000099017TJULIO CESAR CABALLERO LOBEJON                                               000000000000000000N
032000031479018000099018TCONSTANCIO MARCOS DOMINGUEZ                                                 000000000000000000N
032000031479019000099019TJUAN CARLOS BLANCA GOMEZ                                                    000000000000000000N
032000031479031000103031TRAFAEL COLLANTES NUÑEZ                                                      000000000000000000N
032000031479032000103032TJESUS GARCIA GARCIA                                                         000000000000000000N
032000031479033000103033TMARTA SANCHEZ DE LA FUENTE                                                  000000000000000000N
032000031479011000113011TMARIA MERCEDES COLOMA PESQUERA                                              000000000000000000S
032000031479012000113012TJOSE FERRANDEZ OTAÑO                                                        000000000000000000S
032000031479013000113013TEMILIO ZAPATERO VILLALONGA                                                  000000000000000000S
032000031479026000135026TMARIA CRISTINA AGUDO CADARSO                                                000000000000000000S
032000031479027000135027TCARMELO CASADO HERNANDEZ                                                    000000000000000000N
032000031479005000140005TSANTIAGO RODRIGUEZ ANDRES                                                   000000000000000000N
032000031479006000140006TJUAN CARLOS RAD MORADILLO                                                   000000000000000000N
032000031479007000140007TMARIA BLANCA PAJARES DE MENA                                                000000000000000000N
032000031479001000145001TJOSE MARIA BENITO CRUZ                                                      000000000000000000N
032000031479002000145002TJOSE MARIA MARTIN RODRIGUEZ                                                 000000000000000000N
032000031479003000145003TMANUEL GUTIERREZ SANTANA                                                    000000000000000000N
032000031479020000159020TMIGUEL PERIS CASADES                                                        000000000000000000N
032000031479030000167030TMIGUEL ANGEL JIMENEZ MARTINEZ                                               000000000000000000N
032000031479022000169022TCRESCENCIO LOPEZ CERMEÑO                                                    000000000000000000N
032000031479023000169023TADOLFO LUIS SANCHEZ MARTIN                                                  000000000000000000N
032000031479024000169024TJOSE MANUEL SCARDINO MARTIN                                                 000000000000000000N
032000031499015000048015TEMILIO CUADRADO GALACHE                                                     000000000000000000N
032000031499016000050016TARTURO CAMARERO FERNANDEZ                                                   000000000000000000N
032000031499017000057017TSUSANA SIMON MARTIN                                                         000000000000000000N
032000031499018000063018TFRANCISCO JOSE MOLINA MARTINEZ                                              000000000000000000N
032000031499022000113022TJUAN EMILIO ANTON RUEDA                                                     000000000000000000S
032000031499023000113023TJOSE FRANCISCO BAHAMONDE SALAZAR                                            000000000000000000S
032000031499024000113024TELVIRA VELASCO MORILLO                                                      000000000000000000S
032000031499006000120006TFELIPE PRIETO ARENAL                                                        000000000000000000N
032000031499007000120007TMARIA JESUS RODRIGUEZ FERNANDEZ                                             000000000000000000N
032000031499008000120008TJOSE MIGUEL TRUFERO BARRIOS                                                 000000000000000000N
032000031499001000135001TDEMETRIO MADRID LOPEZ                                                       000000000000000000S
032000031499002000135002TMARIA ISABEL PERERO LLAMAS                                                  000000000000000000N
032000031499009000140009TANA MAR MERINO REVILLA                                                      000000000000000000N
032000031499010000140010TOLIVER MARIANO ALVAREZ VALLE                                                000000000000000000N
032000031499011000140011TSUSANA SOTO HERNANDEZ                                                       000000000000000000N
032000031499003000145003TPEDRO FERNANDEZ RODRIGUEZ                                                   000000000000000000N
032000031499004000145004TCARMEN LAGUNO ALVAREZ                                                       000000000000000000N
032000031499005000145005TSANTIAGO MARTINEZ MAYO                                                      000000000000000000N
032000031499019000154019TANGEL CAMPANO SANCHEZ                                                       000000000000000000N
032000031499020000154020TMARIA DEL PILAR CALVO FERNANDO                                              000000000000000000N
032000031499021000154021TMANUEL CARRO MELGAR                                                         000000000000000000N
032000031499012000169012TJUAN CARLOS GARCIA MELCHOR                                                  000000000000000000N
032000031499013000169013TPRAXEDES GARCIA VICENTE                                                     000000000000000000N
032000031499014000169014TBERNABE SANCHEZ CABALLERO                                                   000000000000000000N
032000031089029000025029TOLGA FRATTAROLA ALCARAZ                                                     000000000000000000N
032000031089030000025030TFERNANDO HERNANDEZ GURRI                                                    000000000000000000N
032000031089031000025031TJOSE RAM DE VIU DE SIVATTE                                                  000000000000000000N
032000031089019000026019TSIXTE CAMBRA I SANCHEZ (CDC)                                                000000000000000000S
032000031089020000026020TMARIA ANGELS GARCIA-MILA I PALAUDARIAS (CDC)                                000000000000000000N
032000031089021000026021TROSA PRUNA I ESTEVE (CDC)                                                   000000000000000000N
032000031089035000031035TJOSEP PLANCHART I MARTORI                                                   000000000000000000N
032000031089002000042002TMARIA TERESA BAIGES ARTIS "MAITE"                                           000000000000000000N
032000031089003000042003TJAUME BOTEY VALLES                                                          000000000000000000N
032000031089004000042004TMANUEL CASAS DUARTE                                                         000000000000000000N
032000031089015000043015TJOSE ORIOL AVILA I MONTESO                                                  000000000000000000N
032000031089016000043016TMARIA CRISTINA DOMINGO I GOMEZ                                              000000000000000000N
032000031089017000043017TRAFAEL SUBIRACHS I VILA                                                     000000000000000000N
