032008031049018000008001TAlejandro                Gutíerrez                Salas                    M00000000          N
032008031049001000014001TJosé María               Gómez de León            Contreras                M00000000          N
032008031049036000034001TJuan José                Ruiz                     Ferre                    M00000000          N
032008031049037000034002TAna María                García                   Rodríguez                F00000000          N
032008031049009000044001TJosé Luis                Hernández                Hernández                M00000000          N
032008031049033000049001TJuan                     Chacón                   Berbel                   M00000000          N
032008031049034000049002TIsabel                   Ruiz                     Mialdea                  F00000000          N
032008031049035000049003TFrancisco                Rivera                   Fernández                M00000000          N
032008031049002000056001TAna María                Fal-Conde                Sánchez-Guardamino       F00000000          N
032008031049010000064001TJorge                    García                   Mata                     M00000000          N
032008031049023000088001TMarcos                   Aranda                   López                    M00000000          N
032008031049028000094001TDavid José               Villalba                 Guebara                  M00000000          N
032008031049020000126001TMaria Concepción         Fernández                Soto                     F00000000          N
032008031049021000126002TJosé Antonio             García                   Urrutia                  M00000000          N
032008031049022000126003TJose María               Martínez                 Yeste                    M00000000          N
032008031049024000135001TJosé                     Rivera                   Menéndez                 M00000000          N
032008031049038000146001TLuis José                López                    Valverde                 M00000000          N
032008031049025000151001TMaría Adela              Gálvez                   Montoya                  F00000000          N
032008031049026000151002TSamuel                   Hernández                Jiménez                  M00000000          N
032008031049027000151003TIrene                    Gálvez                   Montoya                  F00000000          N
032008031049019000161001TMaría Soledad            de Purificación          Solan                    F00000000          N
032008031049030000191001TAntonio José             Lázaro                   Sánchez                  M00000000          N
032008031049031000191002TMaría del Pilar          López                    Romero                   F00000000          N
032008031049032000191003TTeófilo                  Montoya                  Sola                     M00000000          N
032008031049015000199001TFrancisco José           García                   Carbonell                M00000000          N
032008031049016000202001TMiguel Angel             Sánchez del Río          García                   M00000000          N
032008031049017000202002TMaría Carmen             Jiménez                  Siles                    F00000000          N
032008031049039000207001TLuis                     Redondo                  Contreras                M00000000          N
032008031049003000209001TMaría del Mar            Agüero                   Ruano                    F00000000          S
032008031049004000209002TJesús                    Caicedo                  Bernabé                  M00000000          S
032008031049005000209003TEugenio Jesús            Gonzálvez                García                   M00000000          S
032008031049014000219001TFrancisco Antonio        Valero                   Alvarez                  M00000000          N
032008031049011000226001TDiego Miguel             Asensio                  Martínez                 M00000000          S
032008031049012000226002TJuan Miguel              Peña                     Linares                  M00000000          N
032008031049013000226003TEnma                     Sola                     García                   F00000000          N
032008031049029000252001TMaría Begoña             Merinero                 Cortés                   F00000000          N
032008031049006000271001TAlvaro                   Ballesteros              Cuberos                  M00000000          N
032008031049007000271002TJosé Antonio             del Moral                Arroyo                   M00000000          N
032008031049008000271003TCarmen Leticia           Sánchez                  Galiano                  F00000000          N
032008031119006000014001TPilar                    del Coto                 Maeso                    F00000000          N
032008031119007000014002TLuis Miguel              Llamas                   Pérez                    M00000000          N
032008031119008000014003TBelen                    Segovia                  Cañellas                 F00000000          N
032008031119037000044001TMaria Fernanda           Fortea                   Salto                    F00000000          N
032008031119026000049001TJose María               Bianchi                  Franco                   M00000000          N
032008031119027000049002TJosé Antonio             Castilla                 Navarro                  M00000000          N
032008031119028000049003TIsabel María             Martínez                 Mateo                    F00000000          N
032008031119014000057001TMaría                    Pérez                    Chaves                   F00000000          N
032008031119029000064001TJuan Luis                Gil                      Egea                     M00000000          N
032008031119013000095001TJosé María               Dieguez                  Pérez                    M00000000          N
032008031119034000126001TMiguel Angel             López                    López                    M00000000          N
032008031119035000126002TPilar María              Mayayo                   Fernández                F00000000          N
032008031119036000126003TSebastián                Terrada                  Galán                    M00000000          N
032008031119001000135001TJosé Manuel              Carrillo                 Huelva                   M00000000          N
032008031119002000135002TMaría Nieves             Orellana                 De Molina                F00000000          N
032008031119003000135003TJosé Enrique             Vite                     Soler                    M00000000          N
032008031119018000151001TAlejandro                Canales                  Prado                    M00000000          N
032008031119019000151002TElena                    Cortes                   De Diego                 F00000000          N
032008031119020000151003TAntonio                  Moreno                   Robles                   M00000000          N
032008031119021000162001TCarmen                   De Bock                  Cano                     F00000000          N
032008031119023000202001TRosa Maria               Gorgojo                  Gimeno                   F00000000          N
032008031119024000202002TManuel                   Martínez                 Pascual                  M00000000          N
032008031119025000202003TIsabel                   Plaza                    López                    F00000000          N
032008031119022000207001TNicolas                  Ruiz                     Grimaldi                 M00000000          N
032008031119015000209001TFernando                 García                   Navarro                  M00000000          S
032008031119016000209002TJose Ignacio             Romani                   Cantera                  M00000000          N
032008031119017000209003TLaura                    Seco                     Moreno                   F00000000          N
032008031119004000214001TAntonio                  Dominguez                Monfillo                 M00000000          N
032008031119005000214002TIsabel María             Huelva                   Carrasco                 F00000000          N
032008031119030000219001TElvira Desamparados      Teodoro                  Silvestre                F00000000          N
032008031119031000226001TJosé                     Carracao                 Gutierrez                M00000000          S
032008031119032000226002TMaría Jesús              Castro                   Mateos                   F00000000          S
032008031119033000226003TJuan María               Cornejo                  López                    M00000000          S
032008031119009000252001TMaría del Carmen         Moratalla                Rodríguez                F00000000          N
032008031119010000271001TJosé Maria               Barba                    Galvez                   M00000000          N
032008031119011000271002TMarta                    González                 Eslava                   F00000000          N
032008031119012000271003TAntonio Javier           González                 Gavira                   M00000000          N
032008031149018000008001TFrancisco Gabriel        Bermúdez                 Rodríguez                M00000000          N
032008031149004000014001TAntonio                  Luna                     Cabrera                  M00000000          N
032008031149005000014002TMaria del Pilar          Montero                  Marín                    F00000000          N
032008031149016000044001TJosé Antonio             Mengíbar                 Aguilera                 M00000000          N
032008031149026000049001TMaría Paz                Castellano               Díaz                     F00000000          N
032008031149027000049002TJosé Luis                Borrego                  Ligero                   M00000000          N
032008031149028000049003TFrancisco                Peinado                  Fajardo                  M00000000          N
032008031149024000057001TMaría del Mar            Palomeque                Messía                   F00000000          N
032008031149022000064001TDaniel                   Ripoll                   Garzo                    M00000000          N
032008031149033000096001TLuis Javier              Cabezas                  Carmona                  M00000000          N
032008031149019000124001TElena                    Cortés                   Jiménez                  F00000000          N
032008031149020000124002TFrancisco                Pedrera                  Martínez                 M00000000          N
032008031149021000124003TWilson                   Rivera                   Durán                    M00000000          N
032008031149029000134001TMaría Luisa              Ramos                    Ojeda                    F00000000          N
032008031149030000134002TFrancisco Javier         Palomeque                Vilches                  M00000000          N
032008031149017000147001TAlberto                  Sandoval                 Pinillos                 M00000000          N
032008031149015000162001TMaría                    Aguilar                  Jaén                     F00000000          N
032008031149012000199001TMaría del Amor Hermoso   Lucena                   Molina                   F00000000          N
032008031149031000202001TJuan Antonio             Rosas                    Campos                   M00000000          N
032008031149032000202002TAurora                   Abad                     Aguilera                 F00000000          N
032008031149014000207001TAntonio Juan             García                   Moreno                   M00000000          N
032008031149006000210001TJesús Ramón              Aguirre                  Muñoz                    M00000000          S
032008031149007000210002TAngel                    Blanco                   Moreno                   M00000000          N
032008031149008000210003TDolores Germana          Sánchez                  Moreno                   F00000000          N
032008031149023000219001TMaría Teresa             García                   Barreiro                 F00000000          N
032008031149009000226001TMaría Isabel Antonia     Flores                   Fernández                F00000000          S
032008031149010000226002TAntonio                  Hurtado                  Zurera                   M00000000          S
032008031149011000226003TLuis                     Moreno                   Castro                   M00000000          S
032008031149013000252001TJesús                    Reca                     Rentero                  M00000000          N
032008031149001000256001TConsolación              Vidal                    Adán                     F00000000          N
032008031149002000256002TManuel                   Ceacero                  Contreras                M00000000          N
032008031149003000256003TAna María                Lara                     García                   F00000000          N
032008031149025000271001TJesús                    Serrano                  Díaz                     M00000000          N
032008031189013000014001TFrancisco Javier         Labella                  Medina                   M00000000          N
032008031189028000044001TJosé María Jesús         Guirao                   Miras                    M00000000          N
032008031189033000049001TMaría Isabel             García                   Gómez                    F00000000          N
032008031189034000049002TJosé                     García                   Rufino                   M00000000          N
032008031189035000049003TJuan                     Pérez                    Carmona                  M00000000          N
032008031189029000056001TEnrique Casimiro         Izquierdo                Corbi                    M00000000          N
032008031189002000063001TSergio Antonio           Delgado                  Vargas                   M00000000          N
032008031189001000074001TRafael                   Pozo                     García                   M00000000          N
032008031189020000092001TJosé Manuel              Baeza                    García                   M00000000          N
032008031189024000103001TManuel                   Quesada                  Sánchez                  M00000000          N
032008031189030000127001TRosa María               Ildefonso                Huertas                  F00000000          N
032008031189031000127002TFrancisco                Maeso                    Rubio                    M00000000          N
032008031189032000127003TFrancisco                Puentedura               Anllo                    M00000000          N
032008031189025000135001TAntonio                  Martínez                 López                    M00000000          N
032008031189026000135002TEnriqueta                Moreno                   García                   F00000000          N
032008031189027000135003TAdelina                  Sánchez                  Espinosa                 F00000000          N
032008031189012000146001TJosé María               Caballero                Moreno                   M00000000          N
032008031189007000162001TUrsula Andrés            Leal                     García                   F00000000          N
032008031189010000199001TPedro Luis               Camacho                  Navarro                  M00000000          N
032008031189036000202001TJosé Francisco           Abad                     Gómez                    M00000000          N
032008031189037000202002TMaría Dolores            Durán                    Ponce                    F00000000          N
032008031189009000206001TAntonio                  Avilés                   Campos                   M00000000          N
032008031189017000209001TSebastián Jesús          Pérez                    Ortiz                    M00000000          S
032008031189018000209002TIsabel                   Romera                   García                   F00000000          N
032008031189019000209003TManuel                   Vizcaíno                 Alcalá                   M00000000          N
032008031189011000218001TManuel Antonio           Gosálvez                 Bernabeu                 M00000000          N
032008031189021000225001TMaría                    Escudero                 Sánchez                  F00000000          S
032008031189022000225002TJuan Manuel              Fernández                Ortega                   M00000000          S
032008031189023000225003TLuis Miguel              Salvador                 García                   M00000000          S
032008031189008000252001TAntonio                  Serrano                  Paradinas                M00000000          N
032008031189014000256001TGuadalupe                Molina                   Díaz                     F00000000          N
032008031189015000256002TMaría Isabel             Rodríguez                Peralta                  F00000000          N
032008031189016000256003TPablo Luis               Tejada                   Romero                   M00000000          N
032008031189003000271001TSantiago                 Martín                   Guerrero                 M00000000          N
032008031189004000271002TMaría José               Martínez                 González                 F00000000          N
032008031189005000271003TMaría Teresa             Olalla                   Olmo                     F00000000          N
032008031189006000271004TJosé María               Pérez                    Fernández                M00000000          N
032008031219017000014001TFrancisco Javier         Compás                   Montero de Espinosa      M00000000          N
032008031219015000044001TAdán                     Lobato                   Barba                    M00000000          N
032008031219025000049001TFrancisco Javier         Cuaresma                 Delgado                  M00000000          N
032008031219026000049002TVirginia                 López                    Infante                  F00000000          N
032008031219027000049003TPedro                    Rodríguez                Calero                   M00000000          N
032008031219008000056001TAntonio                  Moreno                   Ruiz                     M00000000          N
032008031219028000064001TIsaac Jonás              Fuentes                  Barros                   M00000000          N
032008031219006000088001TJose Manuel              Díaz de Terán            Rodríguez                M00000000          N
032008031219024000096001TVeredas                  Romero                   Luque                    F00000000          N
032008031219001000127001TJuan Manuel              Arazola                  Corvera                  M00000000          N
032008031219002000127002TSusana                   Domínguez                Sánchez                  F00000000          N
032008031219003000127003TAntonio                  Mirabent                 Martín                   M00000000          N
032008031219004000135001TEsperanza                Fernández                Patiño                   F00000000          N
032008031219009000161001TAlicia Beatriz           Rodríguez                Pérez                    F00000000          N
032008031219005000199001TAngel Luis               Pérez                    Guerra                   M00000000          N
032008031219016000202001TMaría del Carmen         Quesada                  Sánchez                  F00000000          N
032008031219007000207001TJesús                    Gómez                    Montoro                  M00000000          N
032008031219011000209001TMatías                   Conde                    Vázquez                  M00000000          S
032008031219012000209002TMaría Auxiliadora        Ramos                    Carrasco                 F00000000          N
032008031219013000209003TMaría Jesús              Villar                   Sande                    F00000000          N
032008031219010000219001TEnrique                  Laguna                   Pinedo                   M00000000          N
032008031219021000226001TFrancisco                Bella                    Galán                    M00000000          S
032008031219022000226002TMaría Teresa del Carmen  Camacho                  Vázquez                  F00000000          S
032008031219023000226003TJosé                     Cejudo                   Sánchez                  M00000000          S
032008031219014000252001TJuan Antonio             López                    Messa                    M00000000          N
032008031219018000271001TRafael Domingo           Díaz                     López                    M00000000          N
032008031219019000271002TMaria Cristina           García                   Domeño                   F00000000          N
032008031219020000271003TManuel Juan              López                    Gómez                    M00000000          N
032008031239021000014001TAngel                    Menchen                  Fernández                M00000000          N
032008031239022000014002TMonica                   Aguilar                  Jiménez                  F00000000          N
032008031239030000044001TJuan Francisco           Sánchez                  Payá                     M00000000          N
032008031239024000049001TBartolomé Antero         Jiménez                  Antonio                  M00000000          N
032008031239025000049002TDolores María            Santiago                 Peña                     F00000000          N
032008031239026000049003TMartín                   Sánchez                  Escudero                 M00000000          N
032008031239020000056001TMaría del Coro Margarita Hernando de Larramedi    Varela                   F00000000          N
032008031239031000064001TRocio                    Suárez                   Cerrejón                 F00000000          N
032008031239004000096001TSerafin Gabriel          Valverde                 Reina                    M00000000          N
032008031239005000102001TGenaro                   Sojo                     Gómez                    M00000000          N
032008031239010000127001TRafael                   Espinosa                 Pérez                    M00000000          N
032008031239011000127002TMaría Selina             Robles                   Córdoba                  F00000000          N
032008031239012000127003TJuan                     Serrano                  Jodar                    M00000000          N
032008031239033000135001TMercedes                 Gordillo                 Torres                   F00000000          N
032008031239023000147001TAlejandro Tomás          Toledano                 Segovia                  M00000000          N
032008031239028000161001TMaria del Carmen         Moreno                   Ratia                    F00000000          N
032008031239032000177001TJulian                   Avila                    de la Casa               M00000000          N
032008031239027000199001TJuan Manuel              Molina                   Valdes                   M00000000          N
032008031239006000202001TFrancisco                González                 Villén                   M00000000          N
032008031239007000202002TJosefa                   Gómez                    Rodríguez                F00000000          N
032008031239008000202003TAlejandro                Rueda                    Fernández                M00000000          N
032008031239016000209001TMiguel                   Sánchez de Alcazar       Ocaña                    M00000000          S
032008031239017000209002TJuan                     Saniger                  Herrera                  M00000000          N
032008031239018000209003TAdela María              Segovia                  Rosales                  F00000000          N
032008031239019000219001TRafael                   Santiago                 Liebana                  M00000000          N
032008031239001000227001TCristóbal José           López                    Carvajal                 M00000000          S
032008031239002000227002TJosé                     Pliego                   Cubero                   M00000000          S
032008031239003000227003TAdoración                Quesada                  Bravo                    F00000000          S
032008031239009000252001TJaime                    Armengot                 Paradinas                M00000000          N
032008031239013000256001TAraceli                  Gracia                   Mesa                     F00000000          N
032008031239014000256002TFrancisco Javier         Ráez                     Ruiz                     M00000000          N
032008031239015000256003TCatalina                 Trillo                   Molina                   F00000000          N
032008031239029000271001TTomas                    Vilar                    Fernández                M00000000          N
032008031299006000001001TRosa María               Martín                   San José                 F00000000          N
032008031299027000005001TCarlos                   Fuster                   Cerezo                   M00000000          N
032008031299028000014001TBerta                    Küstner                  Rivas                    F00000000          N
032008031299029000014002TJuan                     León                     Cordón                   M00000000          N
032008031299014000044001TMaría Inmaculada         Gálvez                   Torres                   F00000000          N
032008031299015000049001TFrancisca                Espejo                   Castro                   F00000000          N
032008031299016000049002TAndrés                   Mérida                   Guerrero                 M00000000          N
032008031299017000049003TJuan                     Vera                     Vera                     M00000000          N
032008031299030000056001TJosé María               Pérez                    Beltrán                  M00000000          N
032008031299002000063001TDaniel                   Torres                   Aguilar                  M00000000          N
032008031299031000096001TMaría Elena              Gil                      Lorenzo                  F00000000          N
032008031299001000099001TDavid                    Castillo                 Márquez                  M00000000          N
032008031299003000127001TAdela                    Jiménez                  Villarejo                F00000000          N
032008031299004000127002TJosé Antonio             Ponce                    Fernández                M00000000          N
032008031299005000127003TJuan                     Sánchez                  García                   M00000000          N
032008031299024000135001TRicardo                  Alvarez de Toledo        Rohe                     M00000000          N
032008031299025000135002TDiego                    Carretero                Rivera                   M00000000          N
032008031299026000135003TAna María                González                 Navas                    F00000000          N
032008031299013000147001TIgnacio                  Lozano                   Díaz                     M00000000          N
032008031299007000162001TIsabel                   Sáez                     Martínez                 F00000000          N
032008031299009000206001TAntonio                  Cano                     Aranda                   M00000000          N
032008031299021000209001TJoaquín Luis             Ramírez                  Rodríguez                M00000000          S
032008031299022000209002TAdelaida                 Utrera                   Morcillo                 F00000000          N
032008031299023000209003TJoaquín                  Villanova                Rueda                    M00000000          N
032008031299008000218001TPedro                    López                    Ferri                    M00000000          N
032008031299018000227001TManuel                   Arjona                   Santana                  M00000000          S
032008031299019000227002TMaría Emelina            Fernández                Soriano                  F00000000          S
032008031299020000227003TPedro                    Villagrán                Bustillos                M00000000          S
032008031299010000252001TMaría Angeles            Beriso                   Gómez-Escalonilla        F00000000          N
032008031299011000252002TMaría                    Jiménez                  López                    F00000000          N
032008031299012000252003TFrancisco Javier         Rojas                    Sánchez                  M00000000          N
032008031299032000271001TJosé Antonio             Jiménez                  Cidre                    M00000000          N
032008031419033000014001TRosa María               Acuña                    Cruz                     F00000000          N
032008031419034000014002TJuan                     González-Vallarino       Fideo                    M00000000          N
032008031419035000014003TDaniel Agustín           Rodríguez                Rodríguez                M00000000          N
032008031419014000044001TJosé Antonio             Rodríguez                Ordoño                   M00000000          N
032008031419041000049001TMaria de los Angeles     Cuadrado                 Ruiz                     F00000000          N
032008031419042000049002TAna María                Esquivel                 Rodriguez                F00000000          N
032008031419043000049003TJuan José                Jurado                   Rodríguez                M00000000          N
032008031419022000057001TEnrique                  Roldán                   González                 M00000000          N
032008031419032000064001TJuan Andrés              Vélez                    Fernández                M00000000          N
032008031419009000096001TJorge Luís Francisco     Gil                      Lorenzo                  M00000000          N
032008031419019000124001TMaría del Carmen         León                     Alvarez                  F00000000          N
032008031419020000124002TJosé Antonio             Núñez                    Montegordo               M00000000          N
032008031419021000124003TManuel                   Velasco                  Haro                     M00000000          N
032008031419001000135001TSacramento               Andrés                   Fernández                F00000000          N
032008031419002000135002TMar                      Cambrolle                Jurado                   F00000000          N
032008031419003000135003TRafael                   Crespo                   Torrado                  M00000000          N
032008031419015000147001TRoberto                  Simal                    Martínez                 M00000000          N
032008031419010000162001TBelén                    Romero                   Massía                   F00000000          N
032008031419016000166001TSonia                    Cadena                   Garrido                  F00000000          N
032008031419017000166002TMaría de los Angeles     Fernández-Ceballos       Carranza                 F00000000          N
032008031419018000166003TEduardo                  García                   Buero                    M00000000          N
032008031419037000189001TCarmelo                  Toledano                 Marchena                 M00000000          N
032008031419036000199001TJose Antonio             Rodriguez                Hervella                 M00000000          N
032008031419029000202001TJosé Francisco           Durán                    Velasco                  M00000000          N
032008031419030000202002TMiguel Angel             Romero                   Junquera                 M00000000          N
032008031419031000202003TEsperanza                Romero                   Junquera                 F00000000          N
032008031419007000207001TCarlos                   Osset                    Wupper (TOPO)            M00000000          N
032008031419008000207002TMaría Clara              Riaza                    Moya                     F00000000          N
032008031419023000210001TMiguel Angel             Arauz                    Rivero                   M00000000          S
032008031419024000210002TDomingo                  Delgado                  Pino                     M00000000          N
032008031419025000210003TMaría Carmen             Diaz                     Baena                    F00000000          N
032008031419011000226001TEnrique                  Abad                     Benedicto                M00000000          S
032008031419012000226002TAntonio                  Gutiérrez                Limones                  M00000000          S
032008031419013000226003TBasilia                  Sanz                     Murillo                  F00000000          S
032008031419026000252001TGloria                   Acasuso                  Díaz                     F00000000          N
032008031419027000252002TJuan de Dios             Hermosín                 Ramos                    M00000000          N
032008031419028000252003TMonserrat                Trapero                  García                   F00000000          N
032008031419038000256001TPablo José               Matute                   Martín                   M00000000          N
032008031419039000256002TEva María                Moyano                   Campos                   F00000000          N
032008031419040000256003TMaría Victoria           Palacios                 García                   F00000000          N
032008031419004000271001TMaría Teresa             Aguado                   Abril                    F00000000          N
032008031419005000271002TSantiago                 Muñoz                    Martínez                 M00000000          N
032008031419006000271003TPedro Ramón              Vicente                  Barrero                  M00000000          N
032008031229024000014001TMaría Isabel             Piñar                    Gutiérrez                F00000000          N
032008031229025000014002TJosep María              De Sanjuan               Llop                     M00000000          N
032008031229015000038001TConcepción               Esteban                  Parra                    F00000000          N
032008031229016000038002TJosé María               Fantova                  Aused                    M00000000          N
032008031229017000038003TFrancisco Javier         Mur                      Couto                    M00000000          N
032008031229011000044001TGuillermo                Artigas                  Gracia                   M00000000          N
032008031229027000056001TJosé María               Salvo                    Jiménez                  M00000000          N
032008031229026000064001TMarcos                   Jabaloyas                Juan                     M00000000          N
032008031229014000096001TFrancisco José           Visedo                   Nuñez                    M00000000          N
032008031229033000129001TAngel Bruno (Anchel)     Conte                    Cazcarro                 M00000000          N
032008031229034000129002TMaría Pilar              Novales                  Estallo                  F00000000          N
032008031229035000129003TMaría Carmen             Solano                   Rivera                   F00000000          N
032008031229018000142001TLorenzo                  Meler                    Ferraz                   M00000000          N
032008031229019000142002TSilvia                   Mellado                  Cruz                     F00000000          N
032008031229020000142003TGuillermo Lorenzo        Nivela                   López                    M00000000          N
032008031229028000160001TNerea                    García                   Villar                   F00000000          N
032008031229001000164001TJosé María               Abarca                   Gil                      M00000000          N
032008031229002000164002TRolando                  Chirón                   Sisó                     M00000000          N
032008031229003000164003TMercedes                 Monclús                  Batalla                  F00000000          N
032008031229012000174001TMaría Josefa             Candado                  Felipe                   F00000000          N
032008031229013000174002TAlfredo                  Macía                    Perendreu                M00000000          N
032008031229007000199001TJuan Antonio             Pérez                    Chueca                   M00000000          N
032008031229036000202001TEnrique Jesús            Zueco                    Rodrigo                  M00000000          N
032008031229029000207001TIsidro                   Vila                     Villaró                  M00000000          N
032008031229004000210001TRoberto Pablo            Bermúdez de Castro       Mur                      M00000000          S
032008031229005000210002TJosé Luis                Escutia                  Dotti                    M00000000          N
032008031229006000210003TMontserrat               Guijarro                 Tirado                   F00000000          N
032008031229021000220001TJosé María               Abad                     Torres                   M00000000          N
032008031229022000220002TYolanda                  Lacuna                   Novellón                 F00000000          N
032008031229023000220003TJosé Francisco           Poley                    Fernández                M00000000          N
032008031229030000226001TJosé María               Becana                   Sanahuja                 M00000000          S
032008031229031000226002TFernando                 Elboj                    Broto                    M00000000          S
032008031229032000226003TMargarita                Périz                    Peralta                  F00000000          S
032008031229038000252001TMaría Antonia            Canales                  Vega                     F00000000          N
032008031229037000257001TMaría Paz                Olivera                  Mur                      F00000000          N
032008031229008000271001TPablo                    Ochoa                    Castillo                 M00000000          N
032008031229009000271002TJesús María              Saludes                  Olavera                  M00000000          N
032008031229010000271003TMaría Dolores            Escribano                Nuño                     F00000000          N
032008031449039000008001THéctor Alejandro         Maqueda                  Espinosa                 M00000000          N
032008031449014000014001TCelia                    Franco                   Royo                     F00000000          N
032008031449015000014002TMateo                    Argerich                 Almirall                 M00000000          N
032008031449030000038001TPaco                     Martín                   Fernández                M00000000          N
032008031449031000038002TJosé Manuel              Salvador                 Minguillón               M00000000          N
032008031449032000038003TAsunción                 Salvador                 Gómez                    F00000000          N
032008031449040000044001TAgustín María            Altés                    Santos                   M00000000          N
032008031449001000057001TMariano Victor           Pallares                 Villagrasa               M00000000          N
032008031449035000064001TRafael                   Boils                    Basilio                  M00000000          N
032008031449026000097001TPablo Victor             Fernández                Massague                 M00000000          N
032008031449005000129001TSergio                   Doñate                   Bujeda (IU)              M00000000          N
032008031449006000129002TEva                      Esteban                  Camerano (IU)            F00000000          N
032008031449007000129003TPedro José               Romero                   Sorribas (IU)            M00000000          N
032008031449011000142001TJuan Antonio             Moreu                    Chica                    M00000000          N
032008031449012000142002TMaría Angeles            Puente                   Lana                     F00000000          N
032008031449013000142003TJesús                    Yarza                    García                   M00000000          N
032008031449019000147001TMiguel                   Echeverría               Quintana                 M00000000          N
032008031449009000162001TNuria                    Brualla                  Nuñez                    F00000000          N
032008031449010000162002TJuan                     Brualla                  Profitos                 M00000000          N
032008031449020000164001TManuel                   Gómez                    Campos                   M00000000          N
032008031449021000164002TCristina                 González                 Gregorio                 F00000000          N
032008031449022000164003TAntonio                  Pérez                    Gracia                   M00000000          N
032008031449004000174001TJosé María               Sánchez                  Pascual                  M00000000          N
032008031449003000177001TMaría de los DesamparadosGuillém                  Sanz                     F00000000          N
032008031449008000199001TDaniel                   Arnal                    Meseguer                 M00000000          N
032008031449002000207001TEnric                    Capseta                  Ribas                    M00000000          N
032008031449036000210001TManuel                   Blasco                   Marqués                  M00000000          S
032008031449037000210002TJosé Antonio             Burriel                  Alloza                   M00000000          N
032008031449038000210003TBlanca                   Solans                   García                   F00000000          N
032008031449016000220001TPedro José               Elhombre                 Montañés (PSD-FIA)       M00000000          N
032008031449017000220002TPetra María              Secanella                Lizano (PSD-FIA)         F00000000          N
032008031449018000220003TPascual                  Martín                   Ferrer (PSD-FIA)         M00000000          N
032008031449027000226001TAngel                    Gracia                   Lucia                    M00000000          S
032008031449028000226002TEsmeralda                Iranzo                   Sánchez                  F00000000          S
032008031449029000226003TAngel Luis               Lacueva                  Soler                    M00000000          S
032008031449033000252001TJuan Antonio             de la Mata               Amaya                    M00000000          N
032008031449034000252002TElena                    Tanarro                  Santamaria               F00000000          N
032008031449023000271001TAsunción                 Gómez                    Guillén                  F00000000          N
032008031449024000271002TJosé Antonio             Alvarez                  Robles                   M00000000          N
032008031449025000271003TAlfredo                  Buisán                   Clemente                 M00000000          N
032008031509046000008001TSergio                   Pamplona                 García                   M00000000          N
032008031509028000014001TDionisio Fermín          Rodríguez                Rodríguez                M00000000          N
032008031509029000014002TCarlos                   De Meer                  De Ribera                M00000000          N
032008031509030000014003TMaría Isabel             Martínez                 Iranzo                   F00000000          N
032008031509004000038001TAntonio                  Liz                      Gaspar                   M00000000          N
032008031509005000038002TMiguel                   Jaime                    Angós                    M00000000          N
032008031509006000038003TRosa María               Aznar                    García                   F00000000          N
032008031509037000044001TMaximiliano Raúl         González                 Tristán                  M00000000          N
032008031509038000044002TJaime Cruz               Sala                     Rodrigo                  M00000000          N
032008031509039000044003TAna Isabel               Rivera                   Ballarín                 F00000000          N
032008031509020000057001TMaría Pía                Zazu                     Lafuente                 F00000000          N
032008031509002000064001TPedro                    García                   López                    M00000000          N
032008031509003000088001TMiguel Angel             Lope                     Blesa                    M00000000          N
032008031509036000096001TDolores                  Aznar                    Leyva                    F00000000          N
032008031509021000129001TRaúl César               Ariza                    Barra                    M00000000          N
032008031509022000129002TJuana                    Moya                     Ibarzo                   F00000000          N
032008031509023000129003TPablo                    Muñoz                    San Pío                  M00000000          N
032008031509024000143001TRosa María               Burgos                   Pérez                    F00000000          N
032008031509025000143002TLuis Javier              Langarita                Ezquerro                 M00000000          N
032008031509026000143003TMaría Luisa              Vallés                   Gracia                   F00000000          N
032008031509011000146001TJaime                    Serrano                  De Quintana              M00000000          N
032008031509040000162001TJosé Alberto             Plaza                    Sebastián                M00000000          N
032008031509012000164001TMaría Elena              Allué                    De Baro                  F00000000          N
032008031509013000164002TTeresa Isidora           Solanas                  Rubio                    F00000000          N
032008031509014000164003TMariano                  Torrecilla               Insa                     M00000000          N
032008031509018000174001TRamón Luis               Escuaín                  Escanilla                M00000000          N
032008031509019000174002TMilagros                 Laguna                   Caso                     F00000000          N
032008031509001000199001TMargarita                Mariñoso                 Amesti                   F00000000          N
032008031509035000202001TMaría Araceli            Fernández                Ramírez                  F00000000          N
032008031509027000207001TMariluz                  Prieto                   Rubio                    F00000000          N
032008031509031000210001TJosé                     Atarés                   Martínez                 M00000000          S
032008031509032000210002TAlfonso                  Mendoza                  Trell                    M00000000          N
032008031509033000210003TMaría Mercedes           Sarrate                  De Castro                F00000000          N
032008031509041000220001TPedro                    Larena                   Sanz                     M00000000          N
032008031509042000220002TMaría Celeste            Pérez                    García                   F00000000          N
032008031509043000220003TJesús María              Sotelino                 Lara                     M00000000          N
032008031509007000226001TJesús                    Martínez                 Herrera                  M00000000          S
032008031509008000226002TMaría Pilar              Pérez                    Lapuente                 F00000000          S
032008031509009000226003TMaría Susana             Sumelzo                  Jordán                   F00000000          S
032008031509044000252001TJesús                    Belloso                  Vegas                    M00000000          N
032008031509045000252002TMaría Angeles            Royo                     Carceller                F00000000          N
032008031509034000257001TManuel                   Forcada                  Ayuda                    M00000000          N
032008031509015000271001TAlejandro                Arana                    Navarro                  M00000000          N
032008031509016000271002TPilar Del Carmen         López                    Marco                    F00000000          N
032008031509017000271003TMaría Dolores Pilar (LolaMariscal                 Masot                    F00000000          N
032008031509010000274001TCecilio Francisco        García                   Caveda                   M00000000          N
032008031339032000014001TMaría Teresa             Gamoneda                 Romero                   F00000000          N
032008031339046000017001TMonserrat                Arce                     del Río                  F00000000          N
032008031339047000017002TRoberto                  Alcibar                  Rubio                    M00000000          N
032008031339048000017003TIbán                     Hoyos                    Herrera                  M00000000          N
032008031339026000020001TPablo                    Pérez                    Fonseca                  M00000000          N
032008031339027000020002TFernanda María           Rodríguez                González                 F00000000          N
032008031339028000020003TMaría Sandra             Santos                   García                   F00000000          N
032008031339037000044001TJosé Luis                Caramés                  Lage                     M00000000          N
032008031339045000056001TMaría                    Cuervo-Arango            Cienfuegos-Jovellanos    F00000000          N
032008031339008000059001TIsmael                   Sánchez                  Fano                     M00000000          N
032008031339009000059002TMaría Socorro            Martínez                 Poza                     F00000000          N
032008031339010000059003TValentín                 García                   Mata                     M00000000          N
032008031339005000064001TRaúl                     Díaz                     Pérez                    M00000000          N
032008031339006000064002TMarco Antonio            España                   Alvarado                 M00000000          N
032008031339007000064003TPatricia                 Muriel                   Martín                   F00000000          N
032008031339044000096001TJosé Carlos              Monestina                Monestina                M00000000          N
032008031339038000103001TMaría del Pilar          Gemar                    Sánchez                  F00000000          N
032008031339016000114001TSonia Inmaculada         Laca                     García                   F00000000          N
032008031339017000114002TSabino                   Terente                  González                 M00000000          N
032008031339018000114003TPedro                    Fueyo                    Llorca                   M00000000          N
032008031339019000117001TJoaquín                  Arce                     Fernández                M00000000          N
032008031339020000117002TMaría Gloria             Fernández                Martínez                 F00000000          N
032008031339021000117003TDavid                    Suárez                   Rodríguez "Cai"          M00000000          N
032008031339025000144001TRosa Ana                 Rodríguez                Bressani                 F00000000          N
032008031339012000148001TJosé Luis                López-Sela               Díaz-Faes                M00000000          N
032008031339049000161001TEva María                Ruíz                     Mendiola                 F00000000          N
032008031339004000166001TJavier                   Cubero                   De Vicente               M00000000          N
032008031339029000175001TRaúl                     Martínez                 Turrero                  M00000000          N
032008031339030000175002TMaría Zulima             Sierra                   García                   F00000000          N
032008031339031000175003TRafael                   Velasco                  Rodríguez                M00000000          N
032008031339011000199001TGemma                    Armengol                 García                   F00000000          N
032008031339042000206001TMarco                    Fernández                Fernández                M00000000          N
032008031339034000210001TDorinda                  García                   García                   F00000000          S
032008031339035000210002TJosé Avelino             Sánchez                  Menéndez                 M00000000          N
032008031339036000210003TJavier                   Sopeña                   Velasco                  M00000000          N
032008031339043000219001TAntonio                  Escobedo                 Almeida                  M00000000          N
032008031339022000226001TJosé Antonio             Alonso                   García                   M00000000          S
032008031339023000226002TJosé Manuel              Cuervo                   Fernández                M00000000          S
032008031339024000226003TMaría Carmen             Sanjurjo                 González                 F00000000          S
032008031339033000252001TFernando                 Trucharte                Palomo                   M00000000          N
032008031339001000256001TMaría Belén              Romón                    Labrador                 F00000000          N
032008031339002000256002TJulio                    Pérez                    Alvarez                  M00000000          N
032008031339003000256003TJuan Carlos              Lobato                   Ortíz                    M00000000          N
032008031339039000259001TIgnacio                  López                    Fernández                M00000000          N
032008031339040000259002TSonia María              Martínez                 Romero                   F00000000          N
032008031339041000259003TMaría Jesús              Varela                   Menéndez                 F00000000          N
032008031339013000271001TEduardo                  Madroñal                 Pedraza                  M00000000          N
032008031339014000271002TMaría                    Pedregal                 Rodríguez                F00000000          N
032008031339015000271003TIgor                     Sosa                     Mayor                    M00000000          N
032008031071003000014001TMaria Aurora             de Enciso                Reinaldo                 F00000000          N
032008031071004000041001TNestor                   Balle                    Ferrer                   M00000000          N
032008031071005000041002TAinoha                   Tabares                  Sala                     F00000000          N
032008031071010000044001TJuan                     Foncuberta               Riba, "Nito"             M00000000          N
032008031071011000044002TRosa Isabel              Gomis                    Ortega                   F00000000          N
032008031071006000047001TFrancisca                Juan                     Julve                    F00000000          N
032008031071007000047002TBartolomé                Sancho                   Morey                    M00000000          N
032008031071026000057001TFederico José            Ferrando                 Roda                     M00000000          N
032008031071022000064001TAntonio                  Abraham                  Piña                     M00000000          N
032008031071019000079001TJosé Manuel              Gómez                    González                 M00000000          N
032008031071020000079002TEmylse                   Mas                      Mir                      F00000000          N
032008031071023000091001TSebastian                Barceló                  Barceló                  M00000000          N
032008031071024000091002TCatalina                 Rotger                   Vallbona                 F00000000          N
032008031071021000144001TJuan                     Ramos                    García                   M00000000          N
032008031071025000161001TJuan                     Gil                      Ferragut                 M00000000          N
032008031071016000175001TCristina                 Gil                      Uriarte                  F00000000          N
032008031071001000199001TJuan Antonio             Darder                   Colom                    M00000000          N
032008031071002000199002TMarta Pía                de Viu                   Martínez de Bedoya       F00000000          N
032008031071017000209001TJuan                     Fageda                   Aubert                   M00000000          S
032008031071018000209002TJuana                    Xamena                   Terrasa                  F00000000          S
032008031071014000226001TFrancisco Javier         Ramis                    Otazua                   M00000000          S
032008031071015000226002TMaria Francesca          Servera                  Pascual                  F00000000          N
032008031071008000244001TJosé                     Delgado                  García                   M00000000          N
032008031071009000244002TCarmen                   Valcaneras               Bujosa                   F00000000          N
032008031071027000252001TRafael                   Guille                   Seoane                   M00000000          N
032008031071012000271001TSantiago                 Cardona                  Timoner                  M00000000          N
032008031071013000271002TMaría Inmaculada         Lorenzana                Ledo                     F00000000          N
032008031071028000273001THelena                   Inglada                  Grau                     F00000000          N
032008031071029000273002TJaume                    Sansó                    Caldentey                M00000000          N
032008031072007000014001TJosé Antonio             de Imaña                 Barron                   M00000000          N
032008031072005000039001TBuenaventura             Quevedo                  Roca "Tim"               M00000000          N
032008031072014000047001TPaula                    Estades                  Castell                  F00000000          N
032008031072012000057001TJesús José               Blasco                   Lagunilla                M00000000          N
032008031072013000064001TRubén Antonio            Barranco                 Medina                   M00000000          N
032008031072004000091001TAntonio                  Morell                   Pons                     M00000000          N
032008031072010000144001TAntonia                  Ordinas                  Coll                     F00000000          N
032008031072006000161001TMaría Consuelo           de la Vega               Sestelo                  F00000000          N
032008031072009000175001TAmbrosio                 Duque                    Carretero                M00000000          N
032008031072003000199001TJuan                     Moragues                 Riutort                  M00000000          N
032008031072002000209001TJosé                     Seguí                    Diaz                     M00000000          N
032008031072001000252001TEduardo                  Romero                   Maté                     M00000000          N
032008031072008000253001TArturo                   Bagur                    Mercadal                 M00000000          S
032008031072011000271001TCarlos                   Granado                  Rincón                   M00000000          N
032008031073012000044001TCristian                 Díaz                     Cordón                   M00000000          N
032008031073005000047001TGuillermo                Gallego                  Escalas                  M00000000          N
032008031073003000057001TJosé                     Chust                    Montell                  M00000000          N
032008031073011000064001TDavid                    Medina                   Martín                   M00000000          N
032008031073006000066001TPedro                    Torres                   Torres                   M00000000          S
032008031073010000091001TFeliciano                Gutiérrez                Bonet                    M00000000          N
032008031073004000144001TMaría Angeles            Torres                   Portas                   F00000000          N
032008031073009000161001TAna                      Jiménez                  Moreno                   F00000000          N
032008031073001000175001TFrancisco                Cuadra                   Cuadrado                 M00000000          N
032008031073008000199001TMaría José               Lucas                    Martín                   F00000000          N
032008031073007000209001TAntonio                  Marí                     Marí                     M00000000          N
032008031073002000252001TPaz                      Araujo                   Romero                   F00000000          N
032008031073013000271001TJosé                     Segador                  Parra                    M00000000          N
032008031351006000014001TLuis Jerónimo            Molina                   Pérez                    M00000000          N
032008031351001000019001TPedro                    Tavío                    García                   M00000000          N
032008031351034000050001TMaría Victoria           Casas                    Pérez                    F00000000          N
032008031351035000050002TDomingo                  González                 Romero                   M00000000          N
032008031351004000057001TCarlos Javier            Mirones                  Vitini                   M00000000          N
032008031351005000064001TJosé Manuel              Guanche                  Guerra                   M00000000          N
032008031351015000096001TGermán                   Salcedo                  Sánchez de las Matas     M00000000          N
032008031351002000118001TAbraham                  Ruano                    Ventura                  M00000000          N
032008031351003000118002TEsther                   Talavera                 Quevedo                  F00000000          N
032008031351019000135001TCarlos José              Suárez                   Macías                   M00000000          N
032008031351031000144001TJonay                    Cabal                    Rodríguez                M00000000          N
032008031351029000149001TAntonio Samuel           Ramírez                  Suárez                   M00000000          N
032008031351030000149002TLourdes María Jesús      Rodríguez                Melián                   F00000000          N
032008031351025000155001TCarmen Elisa             González                 Jiménez                  F00000000          N
032008031351026000155002TJosé                     Mendoza                  Cabrera                  M00000000          N
032008031351033000162001TMarta                    Jimeno                   Antolín                  F00000000          N
032008031351022000181001TJuan Rafael              Lorenzo                  Santana                  M00000000          N
032008031351023000181002TFrancisca Carmen         Sánchez                  Macías                   F00000000          N
032008031351010000192001TJosé                     Méndez                   Pozo                     M00000000          N
032008031351024000199001TFrancisco Javier         Busquets                 Font                     M00000000          N
032008031351017000202001TAna María                Lermo                    Castelar                 F00000000          N
032008031351018000202002TFederico José            Vaquero                  Rodríguez                M00000000          N
032008031351032000207001TFrancisco José           Fernández                Alvarez                  M00000000          N
032008031351007000210001TJosé                     Macías                   Santana                  M00000000          S
032008031351008000210002TRosa                     Rodríguez                Díaz                     F00000000          N
032008031351014000219001TSixto Manuel             Alfonso                  Bejarano                 M00000000          N
032008031351020000226001TArcadio                  Díaz                     Tejera                   M00000000          S
032008031351021000226002TSaturnina                Santana                  Dumpiérrez               F00000000          S
032008031351016000252001TLaura                    Garrido                  Marijuán                 F00000000          N
032008031351011000255001TErnesto                  Calleja                  García                   M00000000          N
032008031351012000255002TJudit Grasole            Campos                   Encinoso                 F00000000          N
032008031351013000255003TEródica del Pino         Medina                   Falcón                   F00000000          N
032008031351009000261001TJosé Miguel              Ramírez                  Araña                    M00000000          N
032008031351027000271001TAlfonso                  Pérez                    Del Rosario              M00000000          N
032008031351028000271002TCarolina María           Romero                   Alemán                   F00000000          N
032008031352022000011001TGinés                    de Quintana              Cabrera                  M00000000          N
032008031352005000019001TAntonio de Jesús         Quevedo                  Navarro                  M00000000          N
032008031352012000051001TJesús Casimiro           Machín                   Duque                    M00000000          N
032008031352018000057001TEduardo José             Hernández                López                    M00000000          N
032008031352010000096001TEzequiel                 Rial-Abraldes            Lobatón                  M00000000          N
032008031352003000112001TPedro Melquiades         Hernández                Camacho                  M00000000          N
032008031352011000118001TFrancisco                Martínez                 Ferreira                 M00000000          N
032008031352015000135001TMaría del Pilar          Peláez                   Arasa                    F00000000          N
032008031352008000144001TJosé Luis                Morales                  Castillo                 M00000000          N
032008031352021000149001TJesús Joaquín            Betancor                 Valdez                   M00000000          N
032008031352014000155001TMaría Isabel             Martinón                 López                    F00000000          N
032008031352013000162001TDiego Luis               Casas                    García                   M00000000          N
032008031352019000181001TCarlos Javier            Lorenzo                  Santana                  M00000000          N
032008031352006000199001TIñaki                    Fernández                Calvo                    M00000000          N
032008031352004000202001TAgustín Julio            Prieto                   Aguilar                  M00000000          N
032008031352009000207001TMaría Adoración          Carpintero               Cidad                    F00000000          N
032008031352016000210001TAstrid María             Pérez                    Batista                  F00000000          N
032008031352020000219001TLaura María              Santana                  González                 F00000000          N
032008031352001000226001TMarcos Francisco         Hernández                Guillén                  M00000000          S
032008031352002000252001TMaría del Carmen Gloria  Calero                   Fernández                F00000000          N
032008031352017000261001TNelson Roque             Vega                     Gutiérrez                M00000000          N
032008031352007000271001TIgnacio                  Sáenz de Santa María     Elizalde                 M00000000          N
032008031353016000019001TTomás Alejandro          Echevarría               Romero                   M00000000          N
032008031353011000050001TJesús de San Secundino   León                     Lima                     M00000000          N
032008031353014000057001TCarlos                   Ibáñez                   Estévez                  M00000000          N
032008031353001000096001TJuan Carlos              Correa                   Suárez                   M00000000          N
032008031353006000118001TNatividad Sonia          Gómez                    Andreu                   F00000000          N
032008031353007000135001TRosa María               Guerrero                 Merchán                  F00000000          N
032008031353017000144001TRafael Miguel            Mayordomo                Alonso                   M00000000          N
032008031353012000149001TPedro José               Vera                     Alonso                   M00000000          N
032008031353015000162001TAlicia Trinidad          Pedrazzoli               Frascaroli               F00000000          N
032008031353010000181001TNicolás Angel            Mendoza                  Rios                     M00000000          N
032008031353018000199001TRafael                   Puig de la Bellacasa     De Delás                 M00000000          N
032008031353003000202001TAngel José               Enrique                  Sayago                   M00000000          N
032008031353002000207001TVíctor Manuel            Fernández                De La Fuente             M00000000          N
032008031353013000210001TAna del Pilar            Padilla                  Camejo                   F00000000          S
032008031353004000226001TRita Carmen              Díaz                     Hernández                F00000000          N
032008031353005000252001TMarta María              Corredera                Pérez                    F00000000          N
032008031353008000261001TLidia Santodomingo       González                 Fernández                F00000000          N
032008031353009000271001TAlvaro                   Muñoz                    Carro                    M00000000          N
032008031384033000014001TAntonio Jesús            Barragán                 De las Cuevas            M00000000          N
032008031384004000019001TMarta Dácil              Domínguez                Cruz                     F00000000          N
032008031384005000019002TLuis                     González                 Domínguez                M00000000          N
032008031384016000032001TMaría Auxiliadora        De la Rosa               Martín                   F00000000          N
032008031384017000032002TSebastián                Medina                   Clemente                 M00000000          N
032008031384002000050001TRicardo                  Melchior                 Navarro                  M00000000          N
032008031384003000050002TMaría Oliva              Pino                     Tejera                   F00000000          N
032008031384027000057001TJoaquín                  Illa                     Juandó                   M00000000          N
032008031384034000064001TRaimundo Miguel          Almeda                   Rodríguez                M00000000          N
032008031384035000064002TAna María                González                 Hernández                F00000000          N
032008031384015000088001TCarmelo                  García                   Del Castillo             M00000000          N
032008031384022000096001TJorge                    Quintas                  Silvar                   M00000000          N
032008031384028000103001TJesús Manuel             Carreño                  Expósito                 M00000000          N
032008031384029000103002TAna María                Fumero                   Peraza                   F00000000          N
032008031384030000118001TJuan Gerardo             Borges                   Morales                  M00000000          N
032008031384031000118002TMaría Cristina           De León                  Fortuny                  F00000000          N
032008031384008000135001TArturo Mario             Méndez                   Lloréns                  M00000000          N
032008031384009000144001TDaniel                   Villalba                 Viera                    M00000000          N
032008031384018000181001TMaría Tatiana            Delgado                  Plasencia                F00000000          N
032008031384019000181002TAitor                    González                 Padilla                  M00000000          N
032008031384007000199001TBorja                    Molas                    Gavira                   M00000000          N
032008031384012000202001TJuana                    Pérez                    Montero                  F00000000          N
032008031384013000202002TAlejandro                Rojas                    Hernández                M00000000          N
032008031384001000207001TFrancisco Javier         Alonso                   Plasencia                M00000000          N
032008031384025000210001TAntonio                  Alarcó                   Hernández                M00000000          S
032008031384026000210002TAgueda                   Fumero                   Roque                    F00000000          N
032008031384006000219001TAngel                    Rodríguez                Díaz                     M00000000          N
032008031384010000226001TAurelio                  Abreu                    Expósito                 M00000000          S
032008031384011000226002TPatricia                 Hernández                Gutiérrez                F00000000          S
032008031384014000252001TMaría Dolores            Chumillas                Fernández                F00000000          N
032008031384023000261001TFrancisco                Medina                   Fernández                M00000000          N
032008031384024000261002TRosa                     Pereyra                  Acosta                   F00000000          N
032008031384032000266001TCarlos                   Castilla                 Gutiérrez                M00000000          N
032008031384020000272001TLeticia Carmen           Tejera                   Grimón                   F00000000          N
032008031384021000272002TPedro Joaquín            Vélez                    Belchi                   M00000000          N
032008031385009000019001TCarlos Javier            Hernández                Vera                     M00000000          N
032008031385008000050001TLázaro Benedicto         Brito                    Hernández                M00000000          N
032008031385016000057001TMiguel Angel             Belmonte                 Sánchez                  M00000000          N
032008031385005000096001TFaustino                 González                 Figueroa                 M00000000          N
032008031385006000118001TTirso                    Rancel                   González                 M00000000          N
032008031385013000135001TBenigno José             González                 Capote                   M00000000          N
032008031385001000144001TLionel                   Torres                   Rodríguez                M00000000          N
032008031385012000181001TAntonio                  De la Rosa               Coello                   M00000000          N
032008031385004000199001TCarlos                   Cuervo                   Vallejo                  M00000000          N
032008031385002000202001TAnunciación              Pérez                    Rodríguez                F00000000          N
032008031385015000207001TEsteban Pedro            Pérez                    Espinel                  M00000000          N
032008031385017000210001TManuel                   Pérez                    Rocha                    M00000000          N
032008031385003000219001TManuel                   Mora                     Landete                  M00000000          N
032008031385011000226001TAnselmo Francisco        Pestana                  Padrón                   M00000000          S
032008031385007000252001TCarmen                   Labrador                 Torrico                  F00000000          N
032008031385014000261001TJosé Damián              Fernández                Mérida                   M00000000          N
032008031385010000272001TRoberto                  Pérez                    Leal                     M00000000          N
032008031386011000019001TGregorio                 Pérez                    Padilla                  M00000000          N
032008031386016000050001TManuel Jesús             Herrera                  Armas                    M00000000          N
032008031386006000057001TMaría Antonia            Ureña                    López                    F00000000          N
032008031386003000096001TMartín                   Carricarte               Paz                      M00000000          N
032008031386008000118001TEladio                   Méndez                   Ascanio                  M00000000          N
032008031386007000135001TJosé Manuel              Chinea                   Chinea                   M00000000          N
032008031386015000144001TYaiza                    Hernández                De León                  F00000000          N
032008031386013000181001TRuymán                   Rodríguez                Ramón                    M00000000          N
032008031386001000199001TRosa                     Tomasa                   Solsona                  F00000000          N
032008031386014000202001TJosé Luis                Heras                    Muñoz                    M00000000          N
032008031386004000207001TAurelia Teresa           Plasencia                Moreno                   F00000000          N
032008031386012000210001TJesús David              Ramos                    Rodríguez                M00000000          N
032008031386010000226001TCasimiro                 Curbelo                  Curbelo                  M00000000          S
032008031386009000252001TMaría del Carmen         Jiménez                  Marín                    F00000000          N
032008031386005000261001TElisabet                 Suárez                   Mederos                  F00000000          N
032008031386002000272001TCarmen Alida             Padilla                  Castilla                 F00000000          N
032008031387008000004001TNarvay                   Quintero                 Castañeda                M00000000          S
032008031387013000019001TAna Cristina             González                 Figueroa                 F00000000          N
032008031387010000057001TJesús María              Ibáñez                   Estévez                  M00000000          N
032008031387012000096001TRubén                    González                 Gutiérrez                M00000000          N
032008031387002000118001TRafael                   Parra                    Hernanz                  M00000000          N
032008031387009000135001TAna María                Pérez                    Herrera                  F00000000          N
032008031387011000144001TAna Mercedes             Padrón                   Fernández                F00000000          N
032008031387004000149001TJuan                     Hernández                Lutzardo                 M00000000          N
032008031387006000181001TLuis Alberto             Hernández                González                 M00000000          N
032008031387007000202001TCristina                 Estévez                  Llorente                 F00000000          N
032008031387014000207001TVictoria                 Alonso                   Plasencia                F00000000          N
032008031387016000210001TDesirée                  Padrón                   Mendoza                  F00000000          N
032008031387003000226001TAlpidio Valentín         Armas                    González                 M00000000          N
032008031387015000252001TJuan Miguel              Gutiérrez                García                   M00000000          N
032008031387005000261001TEchedey                  Padrón                   Guerra                   M00000000          N
032008031387001000272001TMaría Isabel             De Martín                Padrón                   F00000000          N
032008031399032000013001TEva María                Alvarez                  González                 F00000000          N
032008031399033000013002TMaría Cruz               Mediavilla               Cámara                   F00000000          N
032008031399034000013003TJesús                    Gutiérrez                Argüeso                  M00000000          N
032008031399043000014001TJosé                     Sáez                     Carrasco                 M00000000          N
032008031399044000014002TMaría Luisa              Gómez                    Jaubert                  F00000000          N
032008031399020000017001TMaría Luisa              Coterillo                Galarraga                F00000000          N
032008031399021000017002TVictor José              González                 Buenaga                  M00000000          N
032008031399022000017003TMaría del Carmen         Sánchez                  Oreña                    F00000000          N
032008031399041000042001TJens Mario               Fernández                Hartmann                 M00000000          N
032008031399016000044001TIgnacio                  Rueda                    Díaz De Rábago           M00000000          N
032008031399036000054001TMaría Concepción Matilde Minayo                   Alfageme                 F00000000          N
032008031399031000056001TRamón Angel              Calvo                    Crespo                   M00000000          N
032008031399009000064001TCarlos Alfonso           Rivas                    Cuesta                   M00000000          N
032008031399030000096001TRamón                    García-Salmones          Salas                    M00000000          N
032008031399024000103001TDaniel                   Pazos                    Fernández                M00000000          N
032008031399027000128001TAntonio María            Vega                     Maeso                    M00000000          N
032008031399028000128002TMarta                    Guerrero                 Ortega                   F00000000          N
032008031399029000128003TCesar                    Gómez                    Bezanilla                M00000000          N
032008031399004000139001TLuis Ricardo             Cuena                    Barrón                   M00000000          N
032008031399025000150001TJorge                    Vitón                    Liquete                  M00000000          N
032008031399035000161001TRussell                  Simoni                   Andrés                   F00000000          N
032008031399008000165001TVíctor Manuel            Ortiz                    Cagigas                  M00000000          N
032008031399017000177001TMiguel Angel             Puertas                  Morón                    M00000000          N
032008031399018000177002TMaría Esther             García                   Díaz                     F00000000          N
032008031399019000177003TCarlos                   Arribas                  Velarde                  M00000000          N
032008031399023000199001TJosé Luis                Navarro                  Sánchez                  M00000000          N
032008031399005000201001TJesús Fernando           Rodriguez                Roiz                     M00000000          N
032008031399006000201002TMaría Estrella           Ferrer                   Cayón                    F00000000          N
032008031399007000201003TJuan Carlos              Fernández                Ruiz                     M00000000          N
032008031399037000207001TSantiago                 Sanz                     Rodríguez                M00000000          N
032008031399010000209001TLuis                     Bárcenas                 Gutiérrez                M00000000          S
032008031399011000209002TGonzalo Javier           Piñeiro                  García-Lago              M00000000          S
032008031399012000209003TEncarnación              Salmón                   Saiz                     F00000000          S
032008031399042000219001TTania Cristina           Ruiz                     Martínez                 F00000000          N
032008031399013000226001TJaime María              Blanco                   García                   M00000000          S
032008031399014000226002TMaría del  Mar           González                 García                   F00000000          N
032008031399015000226003TJavier                   Incera                   Goyenechea               M00000000          N
032008031399026000252001TMarina                   Vallve                   Lago                     F00000000          N
032008031399001000256001TAna María                Gómez                    De La Fuente             F00000000          N
032008031399002000256002TFernando Joaquín         Cuesta                   García                   M00000000          N
032008031399003000256003TAngela                   Elósegui                 Alvarez                  F00000000          N
032008031399038000271001TMario                    Crespo                   López                    M00000000          N
032008031399039000271002TManuel Fernando          Galván                   Lanza                    M00000000          N
032008031399040000271003TMaría José               Mielgo                   Busturia                 F00000000          N
032008031029007000014001TTeresa                   López                    Montes                   F00000000          N
032008031029008000014002TManuel Jesús             Acosta                   Elías                    M00000000          N
032008031029011000056001TPablo                    Garisoain                Otero                    M00000000          N
032008031029001000064001TJaime                    Fernández                Celdrán                  M00000000          N
032008031029006000088001TCamilo                   Pérez                    Ruiz                     M00000000          N
032008031029024000090001TJuan Manuel              Selva                    Morote                   M00000000          N
032008031029018000129001TPedro                    Bolívar                  Reverte                  M00000000          N
032008031029019000129002TJosefa                   Ruano                    Cuenca                   F00000000          N
032008031029020000129003TDiego José               Corona                   García                   M00000000          N
032008031029002000139001TCristian                 Ibáñez                   Delegido                 M00000000          N
032008031029021000161001TElísabet                 Lopera                   Sánchez                  F00000000          N
032008031029022000177001TIris                     Piña                     Escandon                 F00000000          N
032008031029010000199001TRaquel Cinta             Princep                  Sole                     F00000000          N
032008031029004000202001TJosé                     Francés                  Borrás                   M00000000          N
032008031029005000202002TRosa María               Sánchez                  González                 F00000000          N
032008031029023000207001TJosé Alberto             Bonilla                  Uceta                    M00000000          N
032008031029012000209001TFermín José              Cerdán                   Gosálvez                 M00000000          S
032008031029013000209002TDimas Francisco          Cuevas                   Cuerda                   M00000000          S
032008031029014000209003TMaría Encarnación        Naharro                  De Mora                  F00000000          S
032008031029003000219001TTesifonte Enrique        Tomás                    Gil                      M00000000          N
032008031029015000226001TDiego                    García                   Caro                     M00000000          S
032008031029016000226002TSiro                     Torres                   García                   M00000000          N
032008031029017000226003TAmaya                    Villanueva               Peña                     F00000000          N
032008031029009000252001TJorge Fernando           Arráez                   Molinés                  M00000000          N
032008031029028000258001TDiego                    Milla                    Jiménez                  M00000000          N
032008031029029000258002TBienvenida               Peinador                 García                   F00000000          N
032008031029030000258003TJosé Fernando            Sánchez                  Infante                  M00000000          N
032008031029025000270001TJosé Luis                Moreno                   Castellanos              M00000000          N
032008031029026000270002TFrancisco Miguel         Rubio                    Tendero                  M00000000          N
032008031029027000270003TYolanda                  Sánchez                  Requena                  F00000000          N
032008031139026000014001TMaría Dolores            Correas                  Mazuecos                 F00000000          N
032008031139015000044001TCarmen                   Córdoba                  Romero                   F00000000          N
032008031139008000054001TAna                      Carrillo                 Blanco                   F00000000          N
032008031139010000056001TAntonio                  Barrau                   García                   M00000000          N
032008031139027000064001TSalvador                 Cuesta                   Vela                     M00000000          N
032008031139021000088001TEduardo                  Dolado                   Esteban                  M00000000          N
032008031139016000096001TEnrique Francisco        Alvarez-Buhilla          Dopico                   M00000000          N
032008031139022000128001TJuana                    Caro                     Marín                    F00000000          N
032008031139023000128002TMaría del Carmen         Soánez                   Contreras                F00000000          N
032008031139024000128003TAngel                    Vela                     Gómez                    M00000000          N
032008031139020000139001TManuela de los Angeles   Mayo                     Mayo                     F00000000          N
032008031139031000161001TMaría Antonieta          Martín de Almagro        López-Menchero           F00000000          N
032008031139002000177001TPablo José               Ruiz                     Gómez                    M00000000          N
032008031139014000199001TFernando                 Ruiz                     Alonso                   M00000000          N
032008031139009000202001TRebeca                   Núñez                    Fernández-Llebrez        F00000000          N
032008031139025000207001TPedro Antonio            Latorre                  Sánchez                  M00000000          N
032008031139028000209001TMaría del Carmen         Fúnez                    de Gregorio              F00000000          S
032008031139029000209002TSebastián                García                   Martínez                 M00000000          S
032008031139030000209003TFrancisco                Gil-Ortega               Rincón                   M00000000          N
032008031139004000219001TManuel                   López                    Atienza                  M00000000          N
032008031139005000226001THilario                  Caballero                Moya                     M00000000          S
032008031139006000226002TCristina                 Maestre                  Martín de Almagro        F00000000          S
032008031139007000226003TAntonio                  Trenado                  Zamorano                 M00000000          N
032008031139003000252001TElvira                   Morales                  Díaz                     F00000000          N
032008031139011000258001TLorenzo                  Amaro                    Peces                    M00000000          N
032008031139012000258002TFrancisca                Felez                    Pellicero                F00000000          N
032008031139013000258003TFélix                    Molina                   Torres                   M00000000          N
032008031139017000260001TRafael                   Delgado                  Oviedo                   M00000000          N
032008031139018000260002TGuadalupe                Herrera                  Pizarro                  F00000000          N
032008031139019000260003TEmilio                   Nieto                    López                    M00000000          N
032008031139001000271001TJosé Luis                Lara                     Corral                   M00000000          N
032008031169020000014001TMaría del Carmen         Jiménez                  Oltra                    F00000000          N
032008031169021000014002TRaúl                     Miranda                  López                    M00000000          N
032008031169022000014003TJesús                    Moreno                   Adalid                   M00000000          N
032008031169005000044001TCarlos                   Coca                     García                   M00000000          N
032008031169012000054001TJosé Luis                Calvo                    Medel                    M00000000          N
032008031169023000057001TRafael                   De la Vega               Churruca                 M00000000          N
032008031169015000064001TRicardo                  Pérez                    Borreda                  M00000000          N
032008031169002000095001TMaría Socorro            López                    Pérez                    F00000000          N
032008031169003000095002TTomás                    Saiz                     Martínez                 M00000000          N
032008031169001000107001TJesús Manuel             Pérez                    Fernández                M00000000          N
032008031169016000128001TAna                      Cruz                     Muñoz                    F00000000          N
032008031169017000128002TJosé Vicente             Mota                     De la Fuente             M00000000          N
032008031169018000128003TMercedes                 Ruiz                     Martínez                 F00000000          N
032008031169024000139001TMaría de los Angeles     De la Fuente             Luna                     F00000000          N
032008031169013000161001TNoemí Ana                Gutiérrez                García-Cuenca            F00000000          N
032008031169004000177001TErnesto                  Rodenes                  Silvestre                M00000000          N
032008031169019000199001TSilvia                   Muñoz                    Ferrán                   F00000000          N
032008031169026000202001TLuis                     Díez                     Martínez                 M00000000          N
032008031169027000202002TMaría Isabel             Gozalo                   González                 F00000000          N
032008031169025000207001TEnrique Jacinto          Rambla                   Calpe                    M00000000          N
032008031169006000209001TLuis Manuel              Fraga                    Egusquiaguirre           M00000000          S
032008031169007000209002TMarina                   Moya                     Moreno                   F00000000          S
032008031169008000209003TFrancisco                Utrera                   Mora                     M00000000          S
032008031169014000219001TEladio                   Noheda                   Blasco                   M00000000          N
032008031169009000226001TPedro                    Bustos                   Amores                   M00000000          S
032008031169010000226002TAlvaro                   Martínez                 Chana                    M00000000          N
032008031169011000226003TMercedes                 Sepúlveda                Jiménez                  F00000000          N
032008031169028000252001TDavid                    Soler                    Soneira                  M00000000          N
032008031169029000258001TJosé                     Peinador                 García                   M00000000          N
032008031169030000258002TPurificación             Portilla                 Herráiz                  F00000000          N
032008031169031000258003TEncarnación              Tribaldos                Villar del Saz           F00000000          N
032008031169032000271001TJuan Andrés              Buedo                    García                   M00000000          N
032008031169033000271002TFrancisco Javier         Clavel                   Villanueva               M00000000          N
032008031169034000271003TCesárea                  Gómez                    Setién                   F00000000          N
032008031199023000014001TLuz María                Marín                    Cano                     F00000000          N
032008031199015000029001TFrancisco José           Fargas                   García                   M00000000          N
032008031199036000044001TOscar                    Quirós                   Romero                   M00000000          N
032008031199017000054001TLuis Eduardo             Dufrechou                Bermolen                 M00000000          N
032008031199038000056001TGuillermo                de Navascués             Municio                  M00000000          N
032008031199018000063001TLuis                     Sánchez                  Gutiérrez                M00000000          N
032008031199008000096001TJavier                   Cayon                    Chapero                  M00000000          N
032008031199012000103001TMaría Macarena           Colomina                 Fernández                F00000000          N
032008031199013000103002TDiego Jesús              Lozano                   Villavieja               M00000000          N
032008031199014000103003TAriadna                  Menor                    Pedras                   F00000000          N
032008031199009000128001TJorge                    Badel                    Roses                    M00000000          N
032008031199010000128002TAntonio                  Redondo                  Tejedor                  M00000000          N
032008031199011000128003TAngeles                  Yagüe                    Gordo                    F00000000          N
032008031199020000139001TManuel                   Arias                    Reinoso                  M00000000          N
032008031199016000162001TMarta María              Arias                    Moranchel                F00000000          N
032008031199021000175001TAldo-Darío               Herchhoren               Neistat                  M00000000          N
032008031199019000199001TJosé Luis                Serrano                  Serrano                  M00000000          N
