062019051351999001002001TJOSÉ MIGUEL              BRAVO DE LAGUNA          BERMÚDEZ                 M00000000          S
062019051351999001002010TLORENA MARÍA             MORENO                   GONZÁLEZ                 F00000000          N
062019051351999001002011TRITA CARMEN              MARRERO                  BATISTA                  F00000000          N
062019051351999001002012TMARCIAL JESÚS            RODRÍGUEZ                DE LEÓN                  M00000000          N
062019051351999001002013TRUBÉN                    CURBELO                  NIETO                    M00000000          N
062019051351999001002014TCARLOS LUIS              ÁLAMO                    SUÁREZ                   M00000000          N
062019051351999001002015TDOLORES DEL ROSARIO      ROSALES                  RODRÍGUEZ                F00000000          N
062019051351999001002016TMARÍA MILAGROSA          BELTRÁN                  CONEJERO                 F00000000          N
062019051351999001002017TSERGIO LUIS              SUÁREZ                   VEGA                     M00000000          N
062019051351999001002018TCARMELO LUCIANO          BÁEZ                     DE LA FE                 M00000000          N
062019051351999001002019TMARÍA GRACIA             RODRÍGUEZ                GARCÍA                   F00000000          N
062019051351999001002002TAURORA ILUMINADA         MORENO                   SANTANA                  F00000000          S
062019051351999001002020TLUIS                     BOLAÑOS                  BOLAÑOS                  M00000000          N
062019051351999001002021TPEDRO HILARIO            SOCORRO                  BENÍTEZ                  M00000000          N
062019051351999001002022TAGUSTÍN                  MATOS                    LORENZO                  M00000000          N
062019051351999001002023TMARÍA TAHONA             ORTEGA                   MONTESDEOCA              F00000000          N
062019051351999001002024TANTONIA MARÍA            PÉREZ                    PÉREZ                    F00000000          N
062019051351999001002025TCARMELO                  REYES                    VEGA                     M00000000          N
062019051351999001002026TYILENIA                  VEGA                     MACÍAS                   F00000000          N
062019051351999001002027TFELIPE                   VEGA                     VEGA                     M00000000          N
062019051351999001002028TNEREIDA MARÍA            HERNÁNDEZ                SANTANA                  F00000000          N
062019051351999001002029TSERGIO BONIFACIO         JIMENEZ                  CASTELLANO               M00000000          N
062019051351999001002003TMARÍA ÁNGELES            BATISTA                  PERDOMO                  F00000000          S
062019051351999001002004TMARÍA GLORIA             CABRERA                  CALDERÍN                 F00000000          N
062019051351999001002005TJOSÉ FRANCISCO           PÉREZ                    LÓPEZ                    M00000000          N
062019051351999001002006TYANIRA DEL PINO          ÁLVAREZ                  JIMÉNEZ                  F00000000          N
062019051351999001002007TJESÚS ROBERTO            RODRIGO                  KAMPHOFF                 M00000000          N
062019051351999001002008TSANTIAGO LUIS            BAÑOLAS                  BOLAÑOS                  M00000000          N
062019051351999001002009TJOSÉ LUIS                GONZÁLEZ                 ALEMÁN                   M00000000          N
062019051351999001003001TRUIMÁN ALEXANDER         SANTANA                  HERNÁNDEZ                M00000000          S
062019051351999001003010TGUSTAVO                  DEL CASTILLO             PALOP                    M00000000          N
062019051351999001003011TCRISTINA MARÍA           GONZÁLEZ                 MASSIEU                  F00000000          N
062019051351999001003012TTOMÁS MARTÍN             GARCÍA                   PÉREZ                    M00000000          N
062019051351999001003013TALEXIS MANUEL            PÉREZ                    PÉREZ                    M00000000          N
062019051351999001003014TCARMEN DUNIA             HERNÁNDEZ                FALCÓN                   F00000000          N
062019051351999001003015TJOSÉ MANUEL ANDRÉS       PARDO                    ALFONSO                  M00000000          N
062019051351999001003016TMARÍA DEL CARMEN         GARCÍA                   LLORENTE                 F00000000          N
062019051351999001003017TANSELMO NICOLÁS          LEÓN                     MORENO                   M00000000          N
062019051351999001003018TJOSÉ RAMÓN               NAVARRO                  GRANADOS                 M00000000          N
062019051351999001003019TANTONIA ROSA             MARTEL                   MARTEL                   F00000000          N
062019051351999001003002TJUAN                     RUIZ                     RAMOS                    M00000000          S
062019051351999001003020TIBRAHIMA                 SOUMARE                  MANE                     M00000000          N
062019051351999001003021TJUAN ALBERTO             DOMÍNGUEZ                MARENGO                  M00000000          N
062019051351999001003022TLIS MARIELI              SANTANA                  MELIÁN                   F00000000          N
062019051351999001003023TJUAN                     ORTEGA                   UMPIÉRREZ                M00000000          N
062019051351999001003024TLAURA                    MORALES                  LÓPEZ                    F00000000          N
062019051351999001003025TCRISTÓBAL MEDARDO        ALONSO                   CALLERO                  M00000000          N
062019051351999001003026TSERGIO MANUEL            GARCÍA                   MORENO                   M00000000          N
062019051351999001003027TEDELMIRA                 MARTÍN                   MARTÍN                   F00000000          N
062019051351999001003028TJOSEFA DE LOS DOLORES    SUÁREZ                   MACÍA                    F00000000          N
062019051351999001003029TGONZALO MARCO            RODRÍGUEZ                PADILLA                  M00000000          N
062019051351999001003003TGUACIMARA                JIMENEZ                  GARCÍA                   F00000000          N
062019051351999001003004TJAVIER JESÚS             RAMOS                    APARICIO                 M00000000          N
062019051351999001003005TLETICIA MERCEDES         GARCÍA                   DÍAZ                     F00000000          N
062019051351999001003006TMIGUEL ÁNGEL             HERNÁNDEZ                INFANTES                 M00000000          N
062019051351999001003007TDELIA ESTHER             PÉREZ                    ALMEIDA                  F00000000          N
062019051351999001003008TADOLFO JAVIER            RODRÍGUEZ                SAIT                     M00000000          N
062019051351999001003009TMARÍA ARÁNZAZU           DE ALBA                  MARTÍNEZ                 F00000000          N
062019051351999001005001TÁLVARO JUAN              MONZÓN                   SANTANA                  M00000000          N
062019051351999001005010TGUADALUPE                SANTANA                  SUÁREZ                   F00000000          N
062019051351999001005011TJUAN DE LA MILAGROSA     RAMÍREZ                  VERONA                   M00000000          N
062019051351999001005012TCRISTINA OBDULIA         PERERA                   RODRÍGUEZ                F00000000          N
062019051351999001005013TAYOZE FERMÍN             PÉREZ                    MARTÍN                   M00000000          N
062019051351999001005014TELISA                    LÓPEZ                    HERNÁNDEZ                F00000000          N
062019051351999001005015TJOSÉ DIEGO               MARTEL                   MAYOR                    M00000000          N
062019051351999001005016TASCENSIÓN CRISTO         MONZÓN                   TORRES                   F00000000          N
062019051351999001005017TJOSÉ ANTONIO             AMADOR                   NARANJO                  M00000000          N
062019051351999001005018TMILAGROSA                SANTANA                  HERNÁNDEZ                F00000000          N
062019051351999001005019TANTONIO RAMÓN            SOSA                     MEDINA                   M00000000          N
062019051351999001005002TMARÍA LUISA              DÁVILA                   GONZÁLEZ                 F00000000          N
062019051351999001005020TNEREIDA                  LÓPEZ                    CASAÑAS                  F00000000          N
062019051351999001005021TSALVADOR JAVIER          PÉREZ                    PEÑA                     M00000000          N
062019051351999001005022TLIDIA ESTHER             SANTANA                  ALEMÁN                   F00000000          N
062019051351999001005023TANTONIO JESÚS            INFANTE                  GARCÍA                   M00000000          N
062019051351999001005024TYESICA                   FLORES                   JARDO                    F00000000          N
062019051351999001005025TDIONISIO ROGELIO         VALIDO                   ROBAINA                  M00000000          N
062019051351999001005026TFELICIANA                RODRÍGUEZ                RAMÍREZ                  F00000000          N
062019051351999001005027TNÉLIDO                   VALIDO                   ROBAINA                  M00000000          N
062019051351999001005028TFRANCISCO ANTONIO        ÁLVAREZ                  SOCORRO                  M00000000          N
062019051351999001005029TLETICIA MARÍA            ÁLAMO                    GARCÍA                   F00000000          N
062019051351999001005003TRAMÓN FRANCISCO          GONZÁLEZ                 HERNÁNDEZ                M00000000          N
062019051351999001005004TCLARA PINO               ALONSO                   LÓPEZ                    F00000000          N
062019051351999001005005TABEL ALBERTO             DIÁZ                     MARTEL                   M00000000          N
062019051351999001005006TREYES                    SANTANA                  NAVARRO                  F00000000          N
062019051351999001005007TFRANCISCO RUBÉN          RODRÍGUEZ                QUINTANA                 M00000000          N
062019051351999001005008TSABINA MARÍA             SÁNCHEZ                  SÁNCHEZ                  F00000000          N
062019051351999001005009TATILIO CIPRIANO          GARCÍA                   DÍAZ                     M00000000          N
062019051351999001013001TMARCO AURELIO            PÉREZ                    SÁNCHEZ                  M00000000          S
062019051351999001013010TEFRAÍN                   SOCORRO                  CABRERA                  M00000000          N
062019051351999001013011TMELCHOR EDUARDO          CAMÓN                    TORRES                   M00000000          N
062019051351999001013012TANTONIO TIRSO            ESTER                    SÁNCHEZ                  M00000000          N
062019051351999001013013TCARLOS ANDRÉS            BETHENCOURT              GONZÁLEZ                 M00000000          N
062019051351999001013014TMARÍA DEL CARMEN         SUÁREZ                   VALERÓN                  F00000000          N
062019051351999001013015TMARÍA DEL ROSARIO        GONZÁLEZ                 GONZÁLEZ                 F00000000          N
062019051351999001013016TANTONIO                  ARTILES                  ESTUPIÑÁN                M00000000          N
062019051351999001013017TJOSEFA                   VIERA                    DÍAZ                     F00000000          N
062019051351999001013018TMARCOS JOSÉ              SANTANA                  MÉNDEZ                   M00000000          N
062019051351999001013019TJOSÉ LUIS                GONZÁLEZ                 MATEOS                   M00000000          N
062019051351999001013002TMARÍA AUXILIADORA        PÉREZ                    DÍAZ                     F00000000          S
062019051351999001013020TJOSEFA EVA               DÍAZ                     MELIÁN                   F00000000          N
062019051351999001013021TPABLO DANIEL             ESPINOSA                 JIMÉNEZ                  M00000000          N
062019051351999001013022TMARTA MARÍA              HERNÁNDEZ                RODRÍGUEZ                F00000000          N
062019051351999001013023TELOINA                   GARCÍA                   ALEMÁN                   F00000000          N
062019051351999001013024TJAVIER                   VIDAL                    DOMÍNGUEZ                M00000000          N
062019051351999001013025TCARLOS CELESTINO         HERNÁNDEZ                GUERRA                   M00000000          N
062019051351999001013026TPEDRO MANUEL             RODRÍGUEZ                GALVÁN                   M00000000          N
062019051351999001013027TGUILLERMO                FREUDENBERGER            PRENDES                  M00000000          N
062019051351999001013028TMARÍA ANTONIA            RODRÍGUEZ                RODRÍGUEZ                F00000000          N
062019051351999001013029TMARÍA EUGENIA            MÁRQUEZ                  RODRÍGUEZ                F00000000          N
062019051351999001013003TMIGUEL JESÚS             JORGE                    BLANCO                   M00000000          S
062019051351999001013004TDANIEL                   REYES                    SANTANA                  M00000000          S
062019051351999001013005TAURORA JESÚS             DEL ROSARIO              VELA                     F00000000          S
062019051351999001013006TJORGE RAMÓN              LAHOUD                   HERNÁNDEZ                M00000000          S
062019051351999001013007TJOSÉ MIGUEL              ALAMO                    MENDOZA                  M00000000          N
062019051351999001013008TMARÍA DEL CARMEN         ROSARIO                  GODOY                    F00000000          N
062019051351999001013009TMARÍA DEL CAMEN          GONZÁLEZ                 MEDINA                   F00000000          N
062019051351999001014001TSEBASTIÁN                HENRÍQUEZ                VALIDO                   M00000000          N
062019051351999001014010TJOSÉ LUIS                SANTANA                  SANTANA                  M00000000          N
062019051351999001014011TFRANCISCO JESÚS          POL                      BOLAÑOS                  M00000000          N
062019051351999001014012TPEDRO                    BERMÚDEZ                 SOSA                     M00000000          N
062019051351999001014013TFRANCISCA SANTA          COLLADO                  HENRÍQUEZ                F00000000          N
062019051351999001014014TMELANIA                  LÓPEZ                    HENRÍQUEZ                F00000000          N
062019051351999001014015TINMACULADA CONCEPCIÓN    NAVARRO                  BENÍTEZ                  F00000000          N
062019051351999001014016TMANUEL                   SARMIENTO                RAMOS                    M00000000          N
062019051351999001014017TAIXAY DEL CRISTO         HERNÁNDEZ                VEGA                     M00000000          N
062019051351999001014018TTOMÁS                    RODRÍGUEZ                TORRES                   M00000000          N
062019051351999001014019TALIDA DEL CARMEN         SÁNCHEZ                  SANTANA                  F00000000          N
062019051351999001014002TMARÍA ETELBA             GARCÍA                   SANTANA                  F00000000          N
062019051351999001014020TEVENCIA DELFINA          CARDENAS                 SÁNCHEZ                  F00000000          N
062019051351999001014021TJUAN                     RAMÍREZ                  RAMÍREZ                  M00000000          N
062019051351999001014022TNOELIA                   MORENO                   DÁMASO                   F00000000          N
062019051351999001014023TLUZ DIVINA               HERNÁNDEZ                VEGA                     F00000000          N
062019051351999001014024TMANUEL                   SARMIENTO                NARANJO                  M00000000          N
062019051351999001014025TPATRICIA                 QUINTANA                 RAMÍREZ                  F00000000          N
062019051351999001014026TTHAIS ITZIAR             GONZÁLEZ                 GONZÁLEZ                 F00000000          N
062019051351999001014027TALBY                     SANTANA                  CABRERA                  M00000000          N
062019051351999001014028TJUAN FRANCISCO           VALIDO                   MORALES                  M00000000          N
062019051351999001014029TGREGORIA                 PÉREZ                    DE LA FE                 F00000000          N
062019051351999001014003TLORENA                   HENRÍQUEZ                SANTANA                  F00000000          N
062019051351999001014004TJOSÉ ANTONIO             SANTANA                  ARTILES                  M00000000          N
062019051351999001014005TÁNGEL YERAY              DELGADO                  GUTIÉRREZ                M00000000          N
062019051351999001014006TINMACULADA CONCEPCIÓN    DÉNIZ                    MORALES                  F00000000          N
062019051351999001014007TJUAN                     JIMÉNEZ                  SANTANA                  M00000000          N
062019051351999001014008TTERESA DE JESÚS          OJEDA                    OJEDA                    F00000000          N
062019051351999001014009TVIOLETA                  SANTANA                  ESTÉVEZ                  F00000000          N
062019051351999001016001TANTONIO                  MORALES                  MÉNDEZ                   M00000000          S
062019051351999001016010TDULCE MARÍA              GONZÁLEZ                 GONZÁLEZ                 F00000000          N
062019051351999001016011TÁNGEL ANTONIO            LÓPEZ                    NAVARRO                  M00000000          N
062019051351999001016012TEDUARDO ANTONIO          DÉNIZ                    CABRERA                  M00000000          N
062019051351999001016013TMARÍA DEL CARMEN         MENDOZA                  HERNÁNDEZ                F00000000          N
062019051351999001016014TMARÍA YASMINA            FIGUEROA                 HERNÁNDEZ                F00000000          N
062019051351999001016015TPALMIRA                  DÉNIZ                    VERONA                   F00000000          N
062019051351999001016016TMARÍA DEL PINO           GARCÍA                   MARRERO                  F00000000          N
062019051351999001016017TJUAN MANUEL              GABELLA                  GONZÁLEZ                 M00000000          N
062019051351999001016018TINGRID                   NAVARRO                  ARMAS                    F00000000          N
062019051351999001016019TMANUEL CARMELO           AMADOR                   JIMÉNEZ                  M00000000          N
062019051351999001016002TMARÍA INÉS               JIMÉNEZ                  MARTÍN                   F00000000          S
062019051351999001016020TJOSE LUIS                ÁLAMO                    SUÁREZ                   M00000000          N
062019051351999001016021TMARÍA ISABEL             GUERRA                   SÁNCHEZ                  F00000000          N
062019051351999001016022TYAIZA DEL CARMEN         QUINTANA                 HERNÁNDEZ                F00000000          N
062019051351999001016023TÁNGEL ROGELIO            SÁNCHEZ                  RIVERO                   M00000000          N
062019051351999001016024TJORGE JOSÉ               DE LA FE                 DÍAZ                     M00000000          N
062019051351999001016025TANTONIO FELIPE           GUEDES                   GUEDES                   M00000000          N
062019051351999001016026TCATALINA MARÍA CARMEN    SÁNCHEZ                  RAMÍREZ                  F00000000          N
062019051351999001016027TFRANCISCO JUAN           PERERA                   HERNÁNDEZ                M00000000          N
062019051351999001016028TDUNIA ESTHER             RAMOS                    MEDINA                   F00000000          N
062019051351999001016029TMARINO IGNACIO HUGO      ALDUÁN                   GUERRA                   M00000000          N
062019051351999001016003TCARMELO                  RAMÍREZ                  MARRERO                  M00000000          S
062019051351999001016004TPEDRO FRANCISCO          JUSTO                    BRITO                    M00000000          S
062019051351999001016005TMARÍA INÉS               MIRANDA                  NAVARRO                  F00000000          S
062019051351999001016006TTEODORO CLARET           SOSA                     MONZÓN                   M00000000          S
062019051351999001016007TMINERVA CARMEN           ALONSO                   SANTANA                  F00000000          S
062019051351999001016008TMIGUEL ANTONIO           HIDALGO                  SÁNCHEZ                  M00000000          S
062019051351999001016009TRAÚL SALVADOR            GARCÍA                   BRINK                    M00000000          N
062019051351999001018001TLUIS ÁNGEL               IBARRA                   BETANCORT                M00000000          S
062019051351999001018010TCARMEN YOLANDA           JIMÉNEZ                  PÉREZ                    F00000000          N
062019051351999001018011TMANUEL                   LÓPEZ                    SANTANA                  M00000000          N
062019051351999001018012TPRYSCILA MARÍA           VALENCIA                 MEDINA                   F00000000          N
062019051351999001018013THUGO                     BÁEZ                     DÍAZ                     M00000000          N
062019051351999001018014TAZAHARA                  SOSA                     DELGADO                  F00000000          N
062019051351999001018015TJUAN JESÚS               MORENO                   CALDERÍN                 M00000000          N
062019051351999001018016TMARÍA JOSÉ               FERNÁNDEZ                RODRÍGUEZ                F00000000          N
062019051351999001018017TJULIO                    SUÁREZ                   CABRERA                  M00000000          N
062019051351999001018018TELISA PILAR              SANTANA                  HERNÁNDEZ                F00000000          N
062019051351999001018019TDIEGO DANIEL             GONZÁLEZ                 OJEDA                    M00000000          N
062019051351999001018002TISABEL                   MENA                     ALONSO                   F00000000          S
062019051351999001018020TARANZAZU                 SANTANA                  GONZÁLEZ                 F00000000          N
062019051351999001018021TJUAN MANUEL              SANTANA                  CRUZ                     M00000000          N
062019051351999001018022TANA VANESA               ALEMÁN                   GIL                      F00000000          N
062019051351999001018023TEDUARDO                  AGUIAR                   CASTELLANO               M00000000          N
062019051351999001018024TPINO MARÍA               RAMÍREZ                  SANTANA                  F00000000          N
062019051351999001018025TROBERTO                  SANTANA                  RODRÍGUEZ                M00000000          N
062019051351999001018026TTERESA DE JESÚS          MARRERO                  SANTANA                  F00000000          N
062019051351999001018027TJESÚS NICOLÁS ANDRÉS     SOCORRO                  MORENO                   M00000000          N
062019051351999001018028TESTELA                   FRANQUIS                 VERA                     F00000000          N
062019051351999001018029TFRANCISCO JAVIER         MEDINA                   SOSA                     M00000000          N
062019051351999001018003TMIGUEL ÁNGEL             PÉREZ                    DEL PINO                 M00000000          S
062019051351999001018004TGUACIMARA                MEDINA                   PÉREZ                    F00000000          S
062019051351999001018005TJUAN                     DÍAZ                     SÁNCHEZ                  M00000000          S
062019051351999001018006TMARGARITA                GONZÁLEZ                 CUBAS                    F00000000          S
062019051351999001018007TNORBERTO FRANCISCO       CASTELLANO               ORTIZ                    M00000000          S
062019051351999001018008TOLAIA                    MORÁN                    RAMÍREZ                  F00000000          S
062019051351999001018009TCARLOS                   ÁLAMO                    CABRERA                  M00000000          N
062019051351999001027001TJAVIER                   VÁZQUEZ DE LA TORRE      SALINAS                  M00000000          N
062019051351999001027010TANA                      ALZOLA                   OLIVER                   F00000000          N
062019051351999001027011TSERGIO                   LÓPEZ                    CASILLAS                 M00000000          N
062019051351999001027012TMARÍA NOELIA             PADRÓN                   BAILÓN                   F00000000          N
062019051351999001027013TRAFAEL ÁNGEL             DE LEÓN                  MORALES                  M00000000          N
062019051351999001027014TMARÍA SOLEDAD            GUTIÉRREZ                GUTIÉRREZ                F00000000          N
062019051351999001027015TESTEFANÍA DEL CARMEN     GONZÁLEZ                 GUERRA                   F00000000          N
062019051351999001027016TFLORA                    GUTIÉRREZ                SUÁREZ                   F00000000          N
062019051351999001027017TAGONEY ALBERTO           ACOSTA                   LORENZO                  M00000000          N
062019051351999001027018TIRENE DE LA CRUZ         RODRÍGUEZ                GUTIÉRREZ                F00000000          N
062019051351999001027019TJOSÉ ALBERTO             SUÁREZ                   RODRÍGUEZ                M00000000          N
062019051351999001027002TIDAIRA MARÍA             GONZÁLEZ                 BETANCOR                 F00000000          N
062019051351999001027020TMARÍA BEATRIZ            RODRÍGUEZ                GUTIÉRREZ                F00000000          N
062019051351999001027021TMOISES                   HERNÁNDEZ                HERNÁNDEZ                M00000000          N
062019051351999001027022TMARÍA NEREIDA            QUIJADA                  GUADALUPE                F00000000          N
062019051351999001027023THÉCTOR JUAN              PÉREZ                    HERNÁNDEZ                M00000000          N
062019051351999001027024TMARÍA DEL CARMEN         BETANCOR                 ESPINO                   F00000000          N
062019051351999001027025TJUAN PEDRO               GONZÁLEZ                 LÓPEZ                    M00000000          N
062019051351999001027026TANA MARÍA                PARRIEGO                 DE CELIS                 F00000000          N
062019051351999001027027TJULIÁN                   JIMÉNEZ                  SANTANA                  M00000000          N
062019051351999001027028TTERESA ROSA              GARCÍA                   GARCÍA                   F00000000          N
062019051351999001027029TBLAS                     MARQUEZ                  BERNAL                   M00000000          N
062019051351999001027003TPEDRO MANUEL             DOMÍNGUEZ                SÁNCHEZ                  M00000000          N
062019051351999001027004TGARA                     RODRÍGUEZ                GUTIÉRREZ                F00000000          N
062019051351999001027005TMANUEL LUIS              PÉREZ                    SALAZAR                  M00000000          N
062019051351999001027006TLAURA                    RODRÍGUEZ                ÁLVAREZ                  F00000000          N
062019051351999001027007TMANUEL JESÚS             MONTESDEOCA              NAVARRO                  M00000000          N
062019051351999001027008TANA PILAR                TEVAR                    LUACES                   F00000000          N
062019051351999001027009TJUAN MANUEL              BATISTA                  SÁNCHEZ                  M00000000          N
062019051351999001034001TANTONIO                  ORDÓÑEZ                  SÁNCHEZ                  M00000000          N
062019051351999001034010TMARGARITA ( MARGO)       PERDOMO                  ARAÑA                    F00000000          N
062019051351999001034011TANTONIO MANUEL           SANTANA                  ARMAS                    M00000000          N
062019051351999001034012TSOLANGE                  MORALES                  VERA                     F00000000          N
062019051351999001034013TORLANDO JUAN             MARTÍN                   DE LA HOZ                M00000000          N
062019051351999001034014TROCÍO                    GOMÉZ                    OJEDA                    F00000000          N
062019051351999001034015TMANUEL                   NARANJO                  ÁLVAREZ                  M00000000          N
062019051351999001034016TMARÍA SARA               ROMERO                   MORA                     F00000000          N
062019051351999001034017TANTONIO ( BENEHARO)      GARCÍA                   PADRÓN                   M00000000          N
062019051351999001034018TGARA                     SARDÁ                    MORALES                  F00000000          N
062019051351999001034019TEDUARDO JAVIER           RIVERO                   LEZCANO                  M00000000          N
062019051351999001034002TMARÍA CANDELARIA ( CANDY HERNÁNDEZ                PAZ                      F00000000          N
062019051351999001034020TJULIA AIDEE              ECHEVARRÍA               ROMERO                   F00000000          N
062019051351999001034021TJUAN TOMÁS               PERDOMO                  MORENO                   M00000000          N
062019051351999001034022TELISA                    RODRÍGUEZ                GANGURA                  F00000000          N
062019051351999001034023TCARLOS JAVIER            GONZÁLEZ                 EXPÓSITO                 M00000000          N
062019051351999001034024TNISAMAR DEL CARMEN ( NISARAMÍREZ                  RAMÍREZ                  F00000000          N
062019051351999001034025TANTONIO                  AGUDO                    RODRÍGUEZ                M00000000          N
062019051351999001034026TROSARIO ( ROSY)          PERDOMO                  ARAÑA                    F00000000          N
062019051351999001034027TALFONSO                  MENDOZA                  BURGOS                   M00000000          N
062019051351999001034028TCARMEN ESTHER            MARTÍN                   MEJÍAS                   F00000000          N
062019051351999001034029TJUAN ADONAY              RAMÍREZ                  MAILLO                   M00000000          N
062019051351999001034003TOLEGARIO                 DE LA CRUZ               VEGA                     M00000000          N
062019051351999001034004TGLORIA ESTHER            OLIVARES                 ARAÑA                    F00000000          N
062019051351999001034005TMIGUEL ÁNGEL             LÓPEZ                    HERNÁNDEZ                M00000000          N
062019051351999001034006TELISA                    MORALES                  VERA                     F00000000          N
062019051351999001034007TTOMÁS                    DORESTE                  CABALLERO                M00000000          N
062019051351999001034008TVERÓNICA                 LORENZO                  RAMÍREZ                  F00000000          N
062019051351999001034009TPAULINO GEMÁN            HENRÍQUEZ                PÉREZ                    M00000000          N
062019051351999001045001TIRIS CRISTINA            SÁNCHEZ                  PADRÓN                   F00000000          N
062019051351999001045010TCRISTÓBAL                TORREJÓN                 LARA                     M00000000          N
062019051351999001045011TJERÓNIMO IVÁN            ARTILES                  SOCORRO                  M00000000          N
062019051351999001045012TANA ISABEL               ABARCA                   ARAYA                    F00000000          N
062019051351999001045013TMARÍA DEL MAR            GARCÍA                   ARIAS                    F00000000          N
062019051351999001045014TFRANCISCO LUIS           EXPÓSITO                 MONTESDEOCA              M00000000          N
062019051351999001045015TJASMINA                  GARCÍA                   VELÁZQUEZ                F00000000          N
062019051351999001045016TBERNABÉ DE JESÚS         BOLAÑOS                  CABALLERO                M00000000          N
062019051351999001045017TALICIA MARÍA             SUÁREZ                   MONTENEGRO               F00000000          N
062019051351999001045018TTERESA                   NAVARRO                  TRUJILLO                 F00000000          N
062019051351999001045019TANÍBAL                   HERRERA                  RODRÍGUEZ                M00000000          N
062019051351999001045002TESPERANZA PINO           GÓMEZ                    GUERRA                   F00000000          N
062019051351999001045020TSONIA                    DASWANI                  MERWANI                  F00000000          N
062019051351999001045021TJUANA OLAYA              DRAGO                    ROMÁN                    F00000000          N
062019051351999001045022TRUBÉN                    DÍAZ                     SANTANA                  M00000000          N
062019051351999001045023TESTHER SOLEDAD           DÍAZ                     DEL RÍO                  F00000000          N
062019051351999001045024TLORENA DEL PINO          ALEMÁN                   ALEMÁN                   F00000000          N
062019051351999001045025TMIGUEL ÁNGEL             QUINTERO                 RODRÍGUEZ                M00000000          N
062019051351999001045026TENCARNACIÓN              MATEOS                   CALVO                    F00000000          N
062019051351999001045027TMARÍA AMALIA             BLESA                    MORENO                   F00000000          N
062019051351999001045028THIGINIO CARMELO          MARTÍN                   CRUZ                     M00000000          N
062019051351999001045029TMIGUEL                   SÁNCHEZ                  RIVERO                   M00000000          N
062019051351999001045003TAINHOA DEL CARMEN        ARROYO                   HERRERA                  F00000000          N
062019051351999001045004TMARIANO                  LETÓN                    CORTIJO                  M00000000          N
062019051351999001045005TJESÚS                    GALLEGO                  CUESTA                   M00000000          N
062019051351999001045006TCARMEN NIEVES            MARTÍN                   PLATA                    F00000000          N
062019051351999001045007TDANIEL                   ROMERO                   VECINO                   M00000000          N
062019051351999001045008TSONIA                    VEGA                     SOSA                     F00000000          N
062019051351999001045009TRAQUEL                   GONZÁLEZ                 HERNÁNDEZ                F00000000          N
062019051351999001046001TMARÍA CONCEPCIÓN         MONZÓN                   NAVARRO                  F00000000          S
062019051351999001046010TBEATRIZ                  MEJÍAS                   QUINTANA                 F00000000          N
062019051351999001046011TFRANCISCO JOSÉ           CASTELLANO               GUTIÉRREZ                M00000000          N
062019051351999001046012TESTÍBALIZ                FERNÁNDEZ                ITURRIETA                F00000000          N
062019051351999001046013TJUAN JOSÉ                GUTIÉRREZ                MEJÍAS                   M00000000          N
062019051351999001046014TBEGOÑA                   MORENO                   ALOY                     F00000000          N
062019051351999001046015TJORGE                    SANCHO                   GONZÁLEZ                 M00000000          N
062019051351999001046016TDOLORES                  ARMAS                    SUÁREZ                   F00000000          N
062019051351999001046017TVÍCTOR MANUEL            RODRÍGUEZ                VENTURA                  M00000000          N
062019051351999001046018TSILVIA                   PONCE                    DÍAZ-REIXA               F00000000          N
062019051351999001046019TÓSCAR                    RAMOS                    HIDALGO                  M00000000          N
062019051351999001046002TSARA                     RAMÍREZ                  MESA                     F00000000          S
062019051351999001046020TJOSÉ CARMELO             HERNÁNDEZ                PERDOMO                  M00000000          N
062019051351999001046021TMARÍA AGUSTINA           ARMAS                    CHIRINO                  F00000000          N
062019051351999001046022TEDUARDO                  HERNÁNDEZ                FALCÓN                   M00000000          N
062019051351999001046023TENRIQUE                  NORRO                    LÓPEZ                    M00000000          N
062019051351999001046024TNURIA                    BRISSON                  MEDINA                   F00000000          N
062019051351999001046025TJAVIER                   DORESTE                  ZAMORA                   M00000000          N
062019051351999001046026TSUSANA LIA               DELLE-VILLE              FILATTIERA               F00000000          N
062019051351999001046027TFRANCISCO JAVIER         SÁNCHEZ                  RODRÍGUEZ                M00000000          N
062019051351999001046028TTANAUSÚ                  ALEMÁN                   GUTIÉRREZ                M00000000          N
062019051351999001046029TYLENIA                   PULIDO                   GONZÁLEZ                 F00000000          N
062019051351999001046003TJOSÉ MARÍA HÉCTOR        BENÍTEZ                  RODRÍGUEZ                M00000000          N
062019051351999001046004TMARÍA DEL PINO           SÁNCHEZ                  BOGATELL                 F00000000          N
062019051351999001046005TKEVIN                    BENÍTEZ                  GARCÍA                   M00000000          N
062019051351999001046006TJUAN FRANCISCO           RODRÍGUEZ                BÁEZ                     M00000000          N
062019051351999001046007TMARÍA ESTHER             GONZÁLEZ                 SANTANA                  F00000000          N
062019051351999001046008TPAULA                    MARTÍN                   PUGA                     F00000000          N
062019051351999001046009TJUAN DANIEL              CAMPOS                   VEGA                     M00000000          N
062019051351999001047001TCARLOS LUIS              BATISTA                  GALVÁN                   M00000000          N
062019051351999001047010TJOSÉ LUIS                RAMOS                    RAMOS                    M00000000          N
062019051351999001047011TFERNANDO                 VARGAS                   PÉREZ                    M00000000          N
062019051351999001047012TINMACULADA CARMEN        GONZÁLEZ                 BATISTA                  F00000000          N
062019051351999001047013TJUAN MANUEL              HERNÁNDEZ                DÁVILA                   M00000000          N
062019051351999001047014TALBA                     MONTENEGRO               GALVÁN                   F00000000          N
062019051351999001047015TLUIS IGNACIO             MÍNGUEZ                  PADRÓN                   M00000000          N
062019051351999001047016TALEJANDRO                NEGRÍN                   ESCANDELL                M00000000          N
062019051351999001047017TELENA MARÍA              CRESPO                   LUQUE                    F00000000          N
062019051351999001047018TJUAN IGNACIO             MARRERO                  QUESADA                  M00000000          N
062019051351999001047019TVALENTINA BEGOÑA         MESA                     SANTANA                  F00000000          N
062019051351999001047002TLAURA                    RIVERO                   ACOSTA                   F00000000          N
062019051351999001047020TJUAN                     RODRÍGUEZ                MARRERO                  M00000000          N
062019051351999001047021TJUAN MANUEL              MÁRQUEZ                  DEL TORO                 M00000000          N
062019051351999001047022TIRINA                    MARTÍN                   ACOSTA                   F00000000          N
062019051351999001047023TGONZALO                  MARTÍNEZ                 RODRÍGUEZ                M00000000          N
062019051351999001047024TTERESITA DEL NIÑO JESÚS  PEÑATE                   ACOSTA                   F00000000          N
062019051351999001047025TEMILIO SIXTO             GARCÍA                   DOMÍNGUEZ                M00000000          N
062019051351999001047026TMANUEL                   HERNÁNDEZ                GONZÁLEZ                 M00000000          N
062019051351999001047027TLAURA MARÍA              PÉREZ                    QUINTANA                 F00000000          N
062019051351999001047028TRAFAEL                   BATISTA                  GALVÁN                   M00000000          N
062019051351999001047029TDORA BELÉN               CALDERÍN                 ACOSTA                   F00000000          N
062019051351999001047003TJOSÉ JUAN                SANTANA                  PÉREZ                    M00000000          N
062019051351999001047004TMARÍA VANESA             GALVÁN                   GARCÍA                   F00000000          N
062019051351999001047005TMIGUEL ÁNGEL             REYES                    PÉREZ                    M00000000          N
062019051351999001047006TRAFAEL CARLOS            RODRÍGUEZ                RODRÍGUEZ                M00000000          N
062019051351999001047007TJERÓNIMA                 CALDERÍN                 ACOSTA                   F00000000          N
062019051351999001047008TENRIQUE                  ASUNCIÓN                 JIMÉNEZ                  M00000000          N
062019051351999001047009TMARÍA ARACELI            GALVÁN                   HERNÁNDEZ                F00000000          N
062019051351999001048001TFRANCISCO MIGUEL         SANTANA                  MELIÁN                   M00000000          N
062019051351999001048010TORLANDO MANUEL           VEGA                     ORTEGA                   M00000000          N
062019051351999001048011TDAMIÁN                   FIGUEREDO                GARCÍA                   M00000000          N
062019051351999001048012TYUBELKIS                 HERRERA                  GARCÍA                   F00000000          N
062019051351999001048013TJUAN                     PARADA LEITAO            NOGUEIRA                 M00000000          N
062019051351999001048014TLETICIA                  ROMANO                   GONZÁLEZ                 F00000000          N
062019051351999001048015TCARMELO                  RODRÍGUEZ                TEJERA                   M00000000          N
062019051351999001048016TADRIÁN                   HERNÁNDEZ                PAZ                      M00000000          N
062019051351999001048017TJESÚS                    DE LA PAZ                SUÁREZ                   M00000000          N
062019051351999001048018TELOISA                   CONCEPCIÓN               RODRÍGUEZ                F00000000          N
062019051351999001048019TREBECA                   TRUJILLO                 CONCEPCIÓN               F00000000          N
062019051351999001048002TMIGUEL ÁNGEL             RODRÍGUEZ                RODRÍGUEZ                M00000000          N
062019051351999001048020TANTONIO                  SÁNCHEZ                  SÁNCHEZ                  M00000000          N
062019051351999001048021TTAREK                    SABRA                    VALIDO                   M00000000          N
062019051351999001048022TROBERTO                  UMPIÉRREZ                HERNÁNDEZ                M00000000          N
062019051351999001048023TRAQUEL                   PÉREZ                    HERNÁNDEZ                F00000000          N
062019051351999001048024TSOLEDAD DEL ROSARIO      DE LA PAZ                SUÁREZ                   F00000000          N
062019051351999001048025TJUANA MARÍA              CONCEPCIÓN               RODRÍGUEZ                F00000000          N
062019051351999001048026TFRANCISCO                HERNÁNDEZ                SÁNCHEZ                  M00000000          N
062019051351999001048027TINÉS DE LOS ÁNGELES      DELGADO                  ORAMAS                   F00000000          N
062019051351999001048028TFERNANDO                 DE LA PAZ                SUÁREZ                   M00000000          N
062019051351999001048029TCATHAYSA DEL CARMEN      SÁNCHEZ                  LÓPEZ                    F00000000          N
062019051351999001048003TRAQUEL                   LORENZO                  SAAVEDRA                 F00000000          N
062019051351999001048004TROSA                     TOCÓN                    RODRÍGUEZ                F00000000          N
062019051351999001048005TANTONIO MIGUEL           PÉREZ                    PADRÓN                   M00000000          N
062019051351999001048006TLUCÍA DEL PINO           RODRÍGUEZ                RODRÍGUEZ                F00000000          N
062019051351999001048007TMANUEL                   GUERRA                   MOLINA                   M00000000          N
062019051351999001048008TYURENA DEL CARMEN        SANTANA                  DAMASO                   F00000000          N
062019051351999001048009TLORENZO                  MARTÍN                   DE ARMAS                 M00000000          N
062019051351999001050001TMARÍA JESÚS              FERNÁNDEZ                RODRÍGUEZ                F00000000          N
062019051351999001050010TJUAN ANTONIO             GONZÁLEZ                 CASTELLANO               M00000000          N
062019051351999001050011TNAUZET                   MARTÍN                   VEGA                     M00000000          N
062019051351999001050012TLAURA                    SAZ                      ALMAZAN                  F00000000          N
062019051351999001050013TPEDRO                    MÉNDEZ                   FLEITAS                  M00000000          N
062019051351999001050014TANYELA MARÍA             SALAM                    SANTANA                  F00000000          N
062019051351999001050015TJUAN PABLO               SANTANA                  MARTÍN                   M00000000          N
062019051351999001050016TSANTIAGO ANTONIO         DÍAZ                     GUERRA                   M00000000          N
062019051351999001050017TBEATRÍZ ENCARNACIÓN      NARANJO                  SÁNCHEZ                  F00000000          N
062019051351999001050018TOCTAVIO                  RIVERO                   AMADOR                   M00000000          N
062019051351999001050019TMARÍA DEL  MAR           NARANJO                  SÁNCHEZ                  F00000000          N
062019051351999001050002TFRANCISCOI ANTONIO       PÉREZ                    RODRÍGUEZ                M00000000          N
062019051351999001050020TGUSTAVO                  VEGA                     NARANJO                  M00000000          N
062019051351999001050021TOSCAR NORBERTO           RAMOS                    JIMÉNEZ                  M00000000          N
062019051351999001050022TESTEFANÍA                LUZARDO                  PÉREZ                    F00000000          N
062019051351999001050023TJOSÉ LUIS                RODRÍGUEZ                ASCANIO                  M00000000          N
062019051351999001050024TSARAI                    MONASTERIO               JIMÉNEZ                  F00000000          N
062019051351999001050025TCARMELO                  GONZÁLEZ                 MARTEL                   M00000000          N
062019051351999001050026TMIGUEL                   CAMPOS                   HATCHUELL                M00000000          N
062019051351999001050027TNAIRA                    PÉREZ                    BLÁZQUEZ                 F00000000          N
062019051351999001050028TGAROÉ                    PÉREZ                    BLÁZQUEZ                 M00000000          N
062019051351999001050029TGREGORIA NATALIA         NARANJO                  SÁNCHEZ                  F00000000          N
062019051351999001050003TMARÍA                    BLÁZQUEZ                 VIDAL                    F00000000          N
062019051351999001050004TFELIPE                   DE LA NUÉZ               ARÁNEGA                  M00000000          N
062019051351999001050005TDORAMAS                  PÉREZ                    BLÁZQUEZ                 M00000000          N
062019051351999001050006TMANUEL                   CASTILLO                 SANTOS                   M00000000          N
062019051351999001050007TIVETTELICARAYEN          MANCILLA                 BARRIA                   F00000000          N
062019051351999001050008TPEDRO JOSÉ               MÉNDEZ                   DIEPA                    M00000000          N
062019051351999001050009TMARÍA CARMEN DOLORES     VAQUERO                  ARENCIBIA                F00000000          N
062019051351999001054001TMARÍA ÁNGELES            CRIADO                   ALBEA                    F00000000          N
062019051351999001054010TANTONIO                  SÁENZ                    PECO                     M00000000          N
062019051351999001054011TMARÍA                    VÁZQUEZ                  GONZÁLEZ                 F00000000          N
062019051351999001054012TANDRÉS ALBERTO           RODRÍGUEZ                ALMEIDA                  M00000000          N
062019051351999001054013TPATRICIA                 CASTELLO                 PASCUAL                  F00000000          N
062019051351999001054014TDAVID                    ROCHA                    QUINTERO                 M00000000          N
062019051351999001054015TRAFAEL MIGUEL            DE JUAN                  MIÑÓN                    M00000000          N
062019051351999001054016TSILVIA DEL CARMEN        RODRÍGUEZ                JIMÉNEZ                  F00000000          N
062019051351999001054017TAGUSTÍN CARMENLO         GONZÁLEZ                 RODRÍGUEZ                M00000000          N
062019051351999001054018TESTEFANÍA                LÓPEZ                    SANTANA                  F00000000          N
062019051351999001054019TNICASIO JESÚS            GALVÁN                   SASIA                    M00000000          N
062019051351999001054002TMARÍA ELDA               CABRERA                  RIVEROL                  F00000000          N
062019051351999001054020TBRAULIO                  CASTAÑEDA                CORREA                   M00000000          N
062019051351999001054021TMARÍA ICIAR              SASIA                    ICETA                    F00000000          N
062019051351999001054022TFRANCISCO JAVIER         VEZA                     PÉREZ                    M00000000          N
062019051351999001054023TCELESTINO JULIO          VILAR                    BRUMBECK                 M00000000          N
062019051351999001054024TJESÚS VICENTE            GALVÁN                   SASIA                    M00000000          N
062019051351999001054025THARIDIAN                 CHAFINO                  GALLARDO                 F00000000          N
062019051351999001054026TJONATAN                  HERNÁNDEZ                TORRES                   M00000000          N
062019051351999001054027TOLIMPIA                  PECO                     ALCALDE                  F00000000          N
062019051351999001054028TCONCEPCIÓN               RODRÍGUEZ                SANTANA                  F00000000          N
062019051351999001054029TÁNGEL                    TREVIÑO                  MARTÍN                   M00000000          N
062019051351999001054003TJOSÉ MANUEL              GRANJA                   PEÑA                     M00000000          N
062019051351999001054004TLOURDES ESTHER           MEDINA                   BIONDI                   F00000000          N
062019051351999001054005TJESÚS MARÍA              GONZÁLEZ                 MARTÍN                   M00000000          N
062019051351999001054006TJONÁS                    FALCÓN                   CURADO                   M00000000          N
062019051351999001054007TMARÍA DEL CARMEN         FORONDA                  MARTÍN                   F00000000          N
062019051351999001054008TCRISTO MANUEL            SANTIAGO                 SANTANA                  M00000000          N
062019051351999001054009TCLARA ROSA               MARTÍN                   VALENTÍN                 F00000000          N
062019051351999001070001TJAVIER                   DELGADO                  PÉREZ                    M00000000          N
062019051351999001070010TNICOLÁS ÁNGEL            MENDOZA                  RIOS                     M00000000          N
062019051351999001070011TMARGARITA                GONZÁLEZ                 CABRERA                  F00000000          N
062019051351999001070012TPEDRO ZACARÍAS           RAMÍREZ                  ALEMÁN                   M00000000          N
062019051351999001070013TMERCY DEL ROSARIO        YÁÑEZ                    BOLAÑOS                  F00000000          N
062019051351999001070014TMANUEL                   ORTEGA                   PÉREZ                    M00000000          N
062019051351999001070015TJULIA                    MONSERRAT                DÍAZ                     F00000000          N
062019051351999001070016TROBERT ALBINO            GÓMES                    SANTANA                  M00000000          N
062019051351999001070017TFELISA MARÍA             SANTOS                   PÉREZ                    F00000000          N
062019051351999001070018TSAMUEL                   CASTELLANO               NUEZ                     M00000000          N
062019051351999001070019TROSA DELIA               CABRERA                  ROBAINA                  F00000000          N
062019051351999001070002TJOSÉ                     DEL TORO                 AUGUSTO                  M00000000          N
062019051351999001070020TJOSE LUIS                SOCORRO                  AGUIAR                   M00000000          N
062019051351999001070021TDANIEL                   GONZÁLEZ                 EXPÓSITO                 M00000000          N
062019051351999001070022TRAMÓN                    VEGA                     VIERA                    M00000000          N
062019051351999001070023TMARÍA CORAIMA            LEMES                    SAMPER                   F00000000          N
062019051351999001070024TANTONIA                  HERNÁNDEZ                MENDOZA                  F00000000          N
062019051351999001070025TFRANCISCO JAVIER         SANTANA                  GUEDES                   M00000000          N
062019051351999001070026TLUCAS CARMELO            CUADRA                   PÉREZ                    M00000000          N
062019051351999001070027TJOSEFA MARÍA             MARTÍN                   DÍAZ                     F00000000          N
062019051351999001070028TSAMUEL ABOU              MEDLEJ                   MARRERO                  M00000000          N
062019051351999001070029TROSALÍA                  GUEDES                   DÍAZ                     F00000000          N
062019051351999001070003TSONIA MARÍA              IRUELA                   PADRÓN                   F00000000          N
062019051351999001070004TISABEL CONCEPCIÓN        TALAVERA                 QUEVEDO                  F00000000          N
062019051351999001070005TJOSÉ CRISTOBAL           MORA                     LÓPEZ                    M00000000          N
062019051351999001070006TJUAN SEBASTIÁN           RODRÍGUEZ                OJEDA                    M00000000          N
062019051351999001070007TLÁZARA                   LLARENA                  CRUZ                     F00000000          N
062019051351999001070008TDIEGO                    JIMÉNEZ                  ALVARADO                 M00000000          N
062019051351999001070009TDÁCIL                    CANO                     BÁEZ                     F00000000          N
062019051352999001003001TDAVID                    RODRÍGUEZ                PÉREZ                    M00000000          N
062019051352999001003010TJULIO IBÁN               SILVA                    GONZÁLEZ                 M00000000          N
062019051352999001003011TFRANCISCO MIGUEL         MORAL                    FERNÁNDEZ                M00000000          N
062019051352999001003012TBEGOÑA                   DELGADO                  AURTENECHE               F00000000          N
062019051352999001003013TARMANDO                  SALOMÓN                  ARMERO                   M00000000          N
062019051352999001003014TZEBENSUÍ                 RODRÍGUEZ                SANTANA                  M00000000          N
062019051352999001003015TARÁNZAZU                 NODA                     TORREJÓN                 F00000000          N
062019051352999001003016TJUAN ANTONIO             FERRER                   MORENO                   M00000000          N
062019051352999001003017TÁNGEL JOSÉ               MEDINA                   JIMÉNEZ                  M00000000          N
062019051352999001003018TSARAY                    RODRÍGUEZ                MARRERO                  F00000000          N
062019051352999001003019TYAKIRA                   CURBELO                  PERDOMO                  F00000000          N
062019051352999001003002TMARCIAL GINÉS            DE GANZO                 NODA                     M00000000          N
062019051352999001003020TRAQUEL                   HERNÁNDEZ                HERNÁNDEZ                F00000000          N
062019051352999001003021TJAVIER ADAY              LEMES                    PÉREZ                    M00000000          N
062019051352999001003022TNOEMÍ DEL PINO           RAMÍREZ                  RODRÍGUEZ                F00000000          N
062019051352999001003023TFRANCISCO RAMÓN          RAMÓN                    DE LA CRUZ               M00000000          N
062019051352999001003003TJOSÉ FELICIANO           FERNÁNDEZ                ÁLVAREZ                  M00000000          N
062019051352999001003004TPURIFICACIÓN             BAZÁN                    MOLINA                   F00000000          N
062019051352999001003005TMARÍA DEL PILAR          HERRERA                  MUÑOZ                    F00000000          N
062019051352999001003006TJOSUÉ ELEAZAR            RIVERO                   DORTA                    M00000000          N
062019051352999001003007TMARÍA CANDELARIA         SÁNCHEZ                  RAMÍREZ                  F00000000          N
062019051352999001003008TELIBERTO                 MEDINA                   GARCÍA                   M00000000          N
062019051352999001003009TMARÍA DOLORES            GARCÍA                   ORCAJADA                 F00000000          N
062019051352999001006001TPEDRO MANUEL             SAN GINÉS                GUTIÉRREZ                M00000000          S
062019051352999001006010TNOELIA                   MARTÍN                   LUZARDO                  F00000000          N
062019051352999001006011TEDUARDO                  DÍAZ                     MARTÍN                   M00000000          N
062019051352999001006012TLUIS MIGUEL              GARCÍA                   ROSALES                  M00000000          N
062019051352999001006013TJUAN RAFAEL              MARTÍN                   HERNÁNDEZ                M00000000          N
062019051352999001006014TMARÍA DEL PILAR          MARTINEZ                 MENÉNDEZ                 F00000000          N
062019051352999001006015TNAYRA                    RODRÍGUEZ                APARICIO                 F00000000          N
062019051352999001006016TMARÍA AUXILIADORA        LASSO                    BETANCOR                 F00000000          N
062019051352999001006017TÁNGEL ONASIS             DELGADO                  EUGENIO                  M00000000          N
062019051352999001006018TFRANCISCO JOSÉ           FABELO                   MARRERO                  M00000000          N
062019051352999001006019TARALIA MARÍA             CABRERA                  AGUIAR                   F00000000          N
062019051352999001006002TDAVID FELIPE             DE LA HOZ                FERNÁNDEZ                M00000000          S
062019051352999001006020TMARÍA DAYANA             PÉREZ                    CONCEPCIÓN               F00000000          N
062019051352999001006021TMARÍA INMACULADA         MACHÍN                   BETANCOR                 F00000000          N
062019051352999001006022TAIRAM                    FERNÁNDEZ                PÉREZ                    M00000000          N
062019051352999001006023TMACIOT-RUYMÁN            DEVORA                   GARCÍA                   M00000000          N
062019051352999001006003TMIGDALIA MARÍA           MACHÍN                   TAVÍO                    F00000000          S
062019051352999001006004TTANIA MARÍA              RAMÓN                    ESPINOSA                 F00000000          S
062019051352999001006005TJUAN MANUEL              SOSA                     RODRÍGUEZ                M00000000          S
062019051352999001006006TOSCAR                    PÉREZ                    CABRERA                  M00000000          S
062019051352999001006007TSAMUEL CARMELO           MARTÍN                   MORERA                   M00000000          S
062019051352999001006008TDOMINGO MANUEL           CEJAS                    CURBELO                  M00000000          S
062019051352999001006009TMATILDE                  CORUJO                   FONTES                   F00000000          N
062019051352999001013001TJACOBO                   MEDINA                   GONZÁLEZ                 M00000000          S
062019051352999001013010TJUAN FRANCISCO JOSÉ      PRATS                    MELERO                   M00000000          N
062019051352999001013011TERNESTO JOSÉ             FUENMAYOR                MOSQUERA                 M00000000          N
062019051352999001013012TMOREIBA                  FERNÁNDEZ                TEJERA                   F00000000          N
062019051352999001013013TLORENA                   MARTÍN                   CABRERA                  F00000000          N
062019051352999001013014TJOSÉ ANTONIO             RIAL                     CEBREIRO                 M00000000          N
062019051352999001013015TANTONIO JOSÉ             TORRES                   VÁZQUEZ                  M00000000          N
062019051352999001013016TCÉSAR ROQUE              MARTÍNEZ                 GONZÁLEZ                 M00000000          N
062019051352999001013017TYURENA                   SAN GINÉS                GARCÍA                   F00000000          N
062019051352999001013018TMARÍA ÁNGELES            VALLS                    GUMIEL                   F00000000          N
062019051352999001013019TJOSÉ JAVIER              CANCIO                   MARÍN                    M00000000          N
062019051352999001013002TÁNGEL                    VÁZQUEZ                  ÁLVAREZ                  M00000000          S
062019051352999001013020TJOSÉ RAMÓN               CASAL                    SABARIS                  M00000000          N
062019051352999001013021TSERGIO                   TEJERA                   DE LEÓN                  M00000000          N
062019051352999001013022TMARÍA ÁNGELA             HERNÁNDEZ                CABRERA                  F00000000          N
062019051352999001013023TRAYCO                    MESA                     MORÍN                    M00000000          N
062019051352999001013003TFRANCISCO JAVIER         APARICIO                 BETANCORT                M00000000          S
062019051352999001013004TMARÍA NEREA              SANTANA                  ALONSO                   F00000000          S
062019051352999001013005TLARA                     CABRERA                  RODRÍGUEZ                F00000000          N
062019051352999001013006TJUAN JOSÉ                LÓPEZ                    TORRES                   M00000000          N
062019051352999001013007TSALVADOR                 MARTÍNEZ                 ROMPELTIEN               M00000000          N
062019051352999001013008TNIEVES                   ARROCHA                  MARTÍN                   F00000000          N
062019051352999001013009TZULEYMA                  LEMES                    MARTÍN                   F00000000          N
062019051352999001018001TMARÍA DOLORES            CORUJO                   BERRIEL                  F00000000          S
062019051352999001018010TMANUEL DE LOS REYES      QUINTANA                 MEDINA                   M00000000          N
062019051352999001018011TCATHAYSA                 LÓPEZ                    BETANCORT                F00000000          N
062019051352999001018012THADJI MALICK             NDIAYE                   SECK                     M00000000          N
062019051352999001018013TMARÍA INODELVIA          TORRES                   SANTACRUZ                F00000000          N
062019051352999001018014TJULIÁN ANDRÉS            PÉREZ                    O´PRAY                   M00000000          N
062019051352999001018015TDIONISIA                 VALADÉS                  HOLGUERA                 F00000000          N
062019051352999001018016TMIGUEL                   MERINO                   BERMEJO                  M00000000          N
062019051352999001018017TLOURDES MARÍA            BERNAL                   GUILLÉN                  F00000000          N
062019051352999001018018TGONZALO                  ANTOLÍN                  ÁLVAREZ                  M00000000          N
062019051352999001018019TISABEL                   LAZARA                   GÓMEZ                    F00000000          N
062019051352999001018002TMARCOS ANTONIO           BERGAZ                   VILLALBA                 M00000000          S
062019051352999001018020TLEANDRO                  MORALES                  TORIBIO                  M00000000          N
062019051352999001018021TANA MERCEDES             CURBELO                  HERNÁNDEZ                F00000000          N
062019051352999001018022TJUAN CARLOS              RODRÍGUEZ                DE RADA                  M00000000          N
062019051352999001018023TAUREA                    MAURÍ                    CADAVIECO                F00000000          N
062019051352999001018003TARIAGONA                 GONZÁLEZ                 PÉREZ                    F00000000          S
062019051352999001018004TANDRÉS                   STINGA                   PERDOMO                  M00000000          S
062019051352999001018005TISABEL MARÍA             MARTÍN                   TENORIO                  F00000000          S
062019051352999001018006TALBERTO                  AGUIAR                   LASSO                    M00000000          S
062019051352999001018007TROSA MARY                CALLERO                  CAÑADA                   F00000000          S
062019051352999001018008THUGO RICARDO             DELGADO                  BETANCOR                 M00000000          S
062019051352999001018009TMARÍA DEL CARMEN         GUADALUPE                GARCÍA                   F00000000          S
062019051352999001030001TPEDRO ANTONIO            JIMÉNEZ                  VEGA                     M00000000          N
062019051352999001030010TNORA AMALIA              FRANCO                   RUIZ                     F00000000          N
062019051352999001030011TCHAXIRAXE                CASTRO                   JORGE                    F00000000          N
062019051352999001030012TOLIVER                   RUIZ                     GARCÍA                   M00000000          N
062019051352999001030013TFRANCISCO JOSÉ           GARCÍA                   RODRÍGUEZ                M00000000          N
062019051352999001030014TESTEISI                  VIÑOLY                   HERNÁNDEZ                F00000000          N
062019051352999001030015TCASSIA REJANE            DE OLIVEIRA              DE MORAES                F00000000          N
062019051352999001030016TJOSÉ CARMELO             MARTÍN                   ROJAS                    M00000000          N
062019051352999001030017TEULIESER                 REYES                    VALDES                   M00000000          N
062019051352999001030018TPERSIA                   DELGADO                  DELGADO                  F00000000          N
062019051352999001030019TELBA MARINA              MARTÍN                   BARRIOS                  F00000000          N
062019051352999001030002TADRIÁN                   RODRÍGUEZ                HERNÁNDEZ                M00000000          N
062019051352999001030020TFEDERICO                 MACHÍN                   MARTÍN                   M00000000          N
062019051352999001030021TLUIS JORGE               GARCÍA                   MORALES                  M00000000          N
062019051352999001030022TZULEMA                   JARIO                    RODRÍGUEZ                F00000000          N
062019051352999001030023TROSALÍA DELIA            GONZÁLEZ                 AVERO                    F00000000          N
062019051352999001030003TGLEYBIS                  GONZÁLEZ                 PÉREZ                    F00000000          N
062019051352999001030004TESTELA                   AMEIJEIRAS               OUTES                    F00000000          N
062019051352999001030005TSEVENSUI                 PÉREZ                    GARCÍA                   M00000000          N
062019051352999001030006TFRANCISCO JOSÉ           ESPINO                   HORMIGA                  M00000000          N
062019051352999001030007TMAGDALENA                DELGADO                  RAMÓN                    F00000000          N
062019051352999001030008TYOVERKIS                 NEYRA                    PÉREZ                    M00000000          N
062019051352999001030009THECTOR MANUEL            DUQUE                    LEMES                    M00000000          N
062019051352999001031001TRAMÓN                    BERMÚDEZ                 BENASCO                  M00000000          N
062019051352999001031010TJOSÉ ANTONIO             PÉREZ                    CONTRERAS                M00000000          N
062019051352999001031011TYESICA MARÍA             MARTÍN                   LEÓN                     F00000000          N
062019051352999001031012TFERNANDO ALEXIS          MELIÁN                   RODRÍGUEZ                M00000000          N
062019051352999001031013TSOFIA                    OLIVERO                  BONILLA                  F00000000          N
062019051352999001031014TJOSÉ                     RODRÍGO                  SIRO                     M00000000          N
062019051352999001031015TJOSÉ MANUEL              MELIÁN                   LÓPEZ                    M00000000          N
062019051352999001031016TMARY TULIA               CERQUERA                 AROCA                    F00000000          N
062019051352999001031017TERIKA                    CABRERA                  VILLALBA                 F00000000          N
062019051352999001031018TANTIMO CÉSAR             VALIENTE                 SEPULVEDA                M00000000          N
062019051352999001031019TALEJANDRO                CABRERA                  BETANCORT                M00000000          N
062019051352999001031002TMARÍA NEREIDA            PÉREZ                    GONZÁLEZ                 F00000000          N
062019051352999001031020TSERGIO JESÚS             PERDOMO                  ELVIRA                   M00000000          N
062019051352999001031021TCARMEN ISABEL            GOPAR                    MARTÍN                   F00000000          N
062019051352999001031022TCARLOS JAVIER            RODRÍGUEZ                MELO                     M00000000          N
062019051352999001031023TTOBIAS ESTEBAN           PUJOR                    DE RIEMER                M00000000          N
062019051352999001031003TNOELIA TERESA            HERNÁNDEZ                EUGENIO                  F00000000          N
062019051352999001031004TJOSÉ MARCIAL             GONZÁLEZ                 DORTA                    M00000000          N
062019051352999001031005TMARÍA                    PERDOMO                  MEDINA                   F00000000          N
062019051352999001031006TRAFAEL                   TAVIO                    HILL                     M00000000          N
062019051352999001031007TGLORIA TERESA            FABREGA                  GUADALUPE                F00000000          N
062019051352999001031008TFRANCISCO ALEJANDRO      GARCÍA                   PÉREZ                    M00000000          N
062019051352999001031009TNURIA ESTHER             MESA                     HERNÁNDEZ                F00000000          N
062019051352999001034001TJOSÉ MANUEL              VÁZQUEZ                  RODRÍGUEZ                M00000000          N
062019051352999001034010TTOMÁS ALEJANDRO          ECHEVARRÍA               ROMERO                   M00000000          N
062019051352999001034011TLUZ MARINA               TEJERA                   TOLEDO                   F00000000          N
062019051352999001034012TJOSÉ JESÚS               DENIZ                    ARROCHA                  M00000000          N
062019051352999001034013TCARMEN TERESA            RODRÍGUEZ                HERNÁNDEZ                F00000000          N
062019051352999001034014TRAMÓN (GUADAFRÍA)        ALFONSO                  HERNÁNDEZ                M00000000          N
062019051352999001034015TCARLOS GUSTAVO           TEJERA                   TOLEDO                   M00000000          N
062019051352999001034016TJENIFER                  MARRERO                  GARCÍA                   F00000000          N
062019051352999001034017TAMBROSIO                 SAAVEDRA                 RAMÓN                    M00000000          N
062019051352999001034018TMARÍA CARMEN             CEDRÉS                   PERDOMO                  F00000000          N
062019051352999001034019TMARTA                    DÍAZ                     CABRERA                  F00000000          N
062019051352999001034002TNURIA ESTHER             CEDRES                   PERDOMO                  F00000000          N
062019051352999001034020TCARMELO                  DENIZ                    ARROCHA                  M00000000          N
062019051352999001034021TJONAY IONE               VÁZQUEZ                  RODRÍGUEZ                M00000000          N
062019051352999001034022TSARA                     MATEOS                   SÁNCHEZ                  F00000000          N
062019051352999001034023TAURELIO                  ARROCHA                  CABRERA                  M00000000          N
062019051352999001034003TJUAN ANTONIO             GARCÍA                   BOYERO                   M00000000          N
062019051352999001034004TVÍCTOR DAMIÁN            DÍAZ                     MEDINA                   M00000000          N
062019051352999001034005TPLÁCIDA                  CABRERA                  SUÁREZ                   F00000000          N
062019051352999001034006TCORALIA                  LOBATO                   GONZÁLEZ                 F00000000          N
062019051352999001034007TLUIS MIGUEL              GARCÍA                   BETANCORT                M00000000          N
062019051352999001034008TMANUELA                  FERNÁNDEZ                FERRO                    F00000000          N
062019051352999001034009TMARÍA JESÚS              CEDRÉS                   PERDOMO                  F00000000          N
062019051352999001043001TMANUEL                   CABRERA                  CABRERA                  M00000000          N
062019051352999001043010TJUAN LUIS                NOBREGA                  GONZÁLEZ                 M00000000          N
062019051352999001043011TANA ISABEL               DÍAZ                     CRUCES                   F00000000          N
062019051352999001043012TJOSÉ ÁNGEL               ÁLVAREZ                  PERDOMO                  M00000000          N
062019051352999001043013TMARÍA INMACULADA         RODRÍGUEZ                FERNÁNDEZ                F00000000          N
062019051352999001043014TLAUREANO                 ÁLVAREZ                  DELGADO                  M00000000          N
062019051352999001043015TLIDIA ESTHER             VIERA                    MARTÍN                   F00000000          N
062019051352999001043016TAIRAM JOSÉ               QUESADA                  PEÑA                     M00000000          N
062019051352999001043017TMACARENA                 MORÍN                    GONZÁLEZ                 F00000000          N
062019051352999001043018TADZUBENAM GUADUNETH      BETANCORT                TAVIO                    M00000000          N
062019051352999001043019TVANESA                   RAMÓN                    APARICIO                 F00000000          N
062019051352999001043002TFELICIANO RAMÓN          DÍAZ                     HERNÁNDEZ                M00000000          N
062019051352999001043020TJOSÉ MANUEL              JURADO                   BENÍTEZ                  M00000000          N
062019051352999001043021TSUSANA                   CABRERA                  MACHIN                   F00000000          N
062019051352999001043022TAZARIAS                  ÁLVAREZ                  HERNÁNDEZ                M00000000          N
062019051352999001043023TMARÍA JOSÉ               MONTALBÁN                LUQUE                    F00000000          N
062019051352999001043003TNATALIA                  CURBELO                  CABRERA                  F00000000          N
062019051352999001043004TJOSÉ MARÍA               BRA                      REY                      M00000000          N
062019051352999001043005TROMINA                   ÁLVAREZ                  DÉNIZ                    F00000000          N
062019051352999001043006TMATIAS                   GARCÍA                   GUADALUPE                M00000000          N
062019051352999001043007TCARMEN DOLORES           FEO                      MORENO                   F00000000          N
062019051352999001043008TCARMELO                  CORUJO                   RODRÍGUEZ                M00000000          N
062019051352999001043009TYASMINA                  TABARES                  JUNQUERA                 F00000000          N
062019051352999001046001TMARÍA ANTONIA            PERERA                   BETANCOR                 F00000000          S
062019051352999001046010TEDURNE LETICIA           MARTÍNEZ                 HERRERA                  F00000000          N
062019051352999001046011TMARIO JOSÉ               IZQUIERDO                GALLEGO                  M00000000          N
062019051352999001046012TJOSÉ LUÍS                GARCÍA                   GONZÁLEZ                 M00000000          N
062019051352999001046013TJUAN JOSÉ                CUADRADO                 DEL RIO                  M00000000          N
062019051352999001046014TJEZABEL                  RAMOS                    HERNÁNDEZ                F00000000          N
062019051352999001046015TCARMEN LORENZA           LEMA                     POSE                     F00000000          N
062019051352999001046016TMIGUEL ÁNGEL             PUIG                     TUYA                     M00000000          N
062019051352999001046017TANA MARÍA                GARCÍA                   FERNÁNDEZ                F00000000          N
062019051352999001046018TJOSÉ RAMÓN               PLATÓN                   CANTERO                  M00000000          N
062019051352999001046019TLAURA                    BALDE                    EJJAR                    F00000000          N
062019051352999001046002TMYRIAM ELISABETH         BARROS                   GROSSO                   F00000000          S
062019051352999001046020TINGRID                   BALEN                    GÓMEZ                    F00000000          N
062019051352999001046021TMARÍA ROSARIO            LORENZO                  RODRÍGUEZ                F00000000          N
062019051352999001046022TRICARDO FRANCISCO        GALDÓS                   LORENZO                  M00000000          N
062019051352999001046023TIONE                     MERINO                   GÓMEZ                    M00000000          N
062019051352999001046003TJORGE MIGUEL             PEÑAS                    LOZANO                   M00000000          N
062019051352999001046004TYURENA                   CORUJO                   MARTÍN                   F00000000          N
062019051352999001046005TJOSÉ LUÍS                ASENCIO                  GARCÍA                   M00000000          N
062019051352999001046006TAMPARO DOLORES           PERDOMO                  FEO                      F00000000          N
062019051352999001046007TJUAN ANTONIO             MARRERO                  SIVERIO                  M00000000          N
062019051352999001046008TJOSÉ ANTONIO             FERNÁNDEZ                RODRÍGUEZ                M00000000          N
062019051352999001046009TMARÍA VICENTA            HERNÁNDEZ                JORGE                    F00000000          N
062019051352999001048001TMANUEL ALEJANDRO         FERNÁNDEZ                MARTÍN                   M00000000          N
062019051352999001048010TITAHISA                  GONZÁLEZ                 BELLO                    F00000000          N
062019051352999001048011TMACARENA                 TOLEDO                   LÓPEZ                    F00000000          N
062019051352999001048012TYURENA                   CHAVES                   FELIPE                   F00000000          N
062019051352999001048013TTAREK                    SABRA                    VALIDO                   M00000000          N
062019051352999001048014TKASSEM                   SABRA                    RESLAN                   M00000000          N
062019051352999001048015TMANUEL                   CAMACHO                  NUÑEZ                    M00000000          N
062019051352999001048016TMARÍA INES               UMPIÉRREZ                ORAMAS                   F00000000          N
062019051352999001048017TGRISLER DEL CARMEN       SÁNCHEZ                  LÓPEZ                    F00000000          N
062019051352999001048018TFELIPE                   FUENTES                  MESA                     M00000000          N
062019051352999001048019TCARLOS JERAY             LERMO                    GUTIÉRREZ                M00000000          N
062019051352999001048002TCLARA ISABEL             MANCERA                  ROMERO                   F00000000          N
062019051352999001048020TJUAN PEDRO               LUQUE                    LASSO                    M00000000          N
062019051352999001048021TASBEL                    RODRÍGUEZ                HERNÁNDEZ                M00000000          N
062019051352999001048022TFRANCISCA                MALDONADO                NÚÑEZ                    F00000000          N
062019051352999001048023TMANUELA                  CARDÓN                   ALONSO                   F00000000          N
062019051352999001048003TJESÚS                    PÉREZ                    GONZÁLEZ                 M00000000          N
062019051352999001048004TMARÍA EUGENIA            BOAN                     ÄLVAREZ                  F00000000          N
062019051352999001048005TJESÚS MANUEL             BETANCOR                 GARCÍA                   M00000000          N
062019051352999001048006TMARÍA DE LAS NIEVES      MOLINA                   GONZÁLEZ                 F00000000          N
062019051352999001048007TJUSTINIANO               PARRILLA                 DAUTA                    M00000000          N
062019051352999001048008TSANTIAGO                 PÉREZ                    MARTÍN                   M00000000          N
062019051352999001048009TJOSÉ DE JESÚS            TORRES                   BONILLA                  M00000000          N
062019051352999001049001TPAULA                    CORUJO                   CALLERO                  F00000000          N
062019051352999001049010TSABINA                   BELLO                    AGÜERO                   F00000000          N
062019051352999001049011TÓSCAR                    DE LEÓN                  UMPIÉRREZ                M00000000          N
062019051352999001049012TDOMINGO MIGUEL           HERNÁNDEZ                GÁMEZ                    M00000000          N
062019051352999001049013TMARÍA ISABEL             GARCÍA                   GIL                      F00000000          N
062019051352999001049014TGERMÁN SILVESTRE         MARTÍN                   PÉREZ                    M00000000          N
062019051352999001049015TMARÍA LIDIA DE LA CRUZ   TORRES                   DE LEÓN                  F00000000          N
062019051352999001049016TMIGUEL                   GUINDO                   ALEMPARTE                M00000000          N
062019051352999001049017TJORGE                    DÍAZ                     ÁLVAREZ                  M00000000          N
062019051352999001049018TMARÍA DEL PILAR          PÉREZ                    OLIVERO                  F00000000          N
062019051352999001049019TANDREA TAMARA            DÍAZ                     GARCÍA                   F00000000          N
062019051352999001049002TMARÍA LIDIA              PLA                      TORRES                   F00000000          N
062019051352999001049020TSONIA                    MARTÍN                   PÉREZ                    F00000000          N
062019051352999001049021TCORALINA PAOLA           OGNIBENE                 GARCÍA                   F00000000          N
062019051352999001049022TEUSEBIO                  RUBIO                    BARRIOS                  M00000000          N
062019051352999001049023TYRINA MARÍA              CABRERA                  GARCÍA                   F00000000          N
062019051352999001049003TSONIA MÓNICA             ROMERO                   VETERE                   F00000000          N
062019051352999001049004TSERGIO                   MARTÍN                   MEDINA                   M00000000          N
062019051352999001049005TYONE XARACH              CARABALLO                MEDINA                   M00000000          N
062019051352999001049006TJUAN JESÚS               MARTÍN                   MARTÍN                   M00000000          N
062019051352999001049007TGUAYARMINA DEL ROSARIO   HERNÁNDEZ                GUTIÉRREZ                F00000000          N
062019051352999001049008TMARÍA DOLORES            RODRÍGUEZ                ACOSTA                   F00000000          N
062019051352999001049009TJOSÉ                     VILLAGRASA               LÁZARO                   M00000000          N
062019051352999001050001TJOSÉ                     CARBALLO                 MORAGA                   M00000000          N
062019051352999001050010TMARÍA MONTSERRAT         GONZÁLEZ                 ESPINOSA                 F00000000          N
062019051352999001050011TSANTIAGO AYOSE           MELIÁN                   DÉNIZ                    M00000000          N
062019051352999001050012TGUACIMARA                PÁEZ                     PÁEZ                     F00000000          N
062019051352999001050013TÁNGEL                    HERNÁNDEZ                MARÍN                    M00000000          N
062019051352999001050014TELOISA                   TREMPS                   RIVAS                    F00000000          N
062019051352999001050015TJOSÉ MARÍA               ARMENDARIZ               ARRARAS                  M00000000          N
062019051352999001050016TJESSICA                  HORNA                    CENTENO                  F00000000          N
062019051352999001050017TFRANCISCO                OJEDA                    GORDILLO                 M00000000          N
062019051352999001050018TDIANA NKRUMAH            MORÁN                    GARCÍA                   F00000000          N
062019051352999001050019TVICENTE                  FRONTANA                 NIZ                      M00000000          N
062019051352999001050002TMARÍA DEL MAR            GIL                      PÉREZ                    F00000000          N
062019051352999001050020TMARÍA DOLORES            MONTES                   SUÁREZ                   F00000000          N
062019051352999001050021TMANUEL                   BARGUEÑO                 DEL VALLE                M00000000          N
062019051352999001050022TNIRA                     VEGA                     NELLY                    F00000000          N
062019051352999001050023TMIGUEL ÁNGEL             ROBAINA                  SUÁREZ                   M00000000          N
062019051352999001050003TNAUZET                   MARTÍN                   BETANCORT                M00000000          N
062019051352999001050004TJAKELINE                 CERNA                    HENAO                    F00000000          N
062019051352999001050005TVICENTE                  FRONTANA                 ANEAS                    M00000000          N
062019051352999001050006TADRIANA                  GARCÍA                   SUÁREZ                   F00000000          N
062019051352999001050007TDIONISIO                 FERNÁNDEZ                DÍAZ                     M00000000          N
062019051352999001050008TSILVIA                   LÓPEZ                    MARTÍNEZ                 F00000000          N
062019051352999001050009TGUSTAVO DANIEL           CASTELLANOS              FERREYRA                 M00000000          N
062019051352999001054001TJUAN MIGUEL              AGUIAR                   CUBELLS                  M00000000          N
062019051352999001054010TMARÍA DEL CARMEN         SÁEZ                     CELDRÁN                  F00000000          N
062019051352999001054011TROSA MELANIA             BARROS                   CALERO                   F00000000          N
062019051352999001054012TRAQUEL AUXILIADORA       JIMÉNEZ                  MARTAGÓN                 F00000000          N
062019051352999001054013TELOY                     CORREA                   SÁEZ                     M00000000          N
062019051352999001054014TJULIA                    MARTÍN                   VARGAS                   F00000000          N
062019051352999001054015TROBERTO                  LÓPEZ                    SÁNCHEZ                  M00000000          N
062019051352999001054016TMARÍA JESÚS              SEVILLA                  GUTIÉRREZ                F00000000          N
062019051352999001054017TTAMARA                   MARTÍN                   MARTEL                   F00000000          N
062019051352999001054018TJORGE ENRIQUE            BARRIOS                  RODRÍGUEZ                M00000000          N
062019051352999001054019TMIGUEL ÁNGEL             GARCÍA                   ÁLVAREZ                  M00000000          N
062019051352999001054002TMARCOS                   DIZ                      PAZO                     M00000000          N
062019051352999001054020TMOISÉS                   PERDIZ                   TORRES                   M00000000          N
062019051352999001054021TÁFRICA                   CUBELLS                  DE LA RUBIA              F00000000          N
062019051352999001054022TJOSÉ MANUEL              DIZ                      PAZO                     M00000000          N
062019051352999001054023TGABRIELA                 VELA                     DEL VALLE                F00000000          N
062019051352999001054003TJOSÉ FRANCISCO           ALEMÁN                   GIL                      M00000000          N
062019051352999001054004TCARMEN DOLORES           TORIBIO                  CABRERA                  F00000000          N
062019051352999001054005TIRIS                     ROMÁN                    MARTÍN                   F00000000          N
062019051352999001054006TFERNANDO DANIEL          ROMÁN                    ESTEBAN                  M00000000          N
062019051352999001054007TJOSÉ ANTONIO             JIMÉNEZ                  LASSO DE LA VEGA         M00000000          N
062019051352999001054008TANA MARÍA                RODRÍGUEZ                TEJERA                   F00000000          N
062019051352999001054009TGABRIEL SIXTO            DÍAZ                     BARRERA                  M00000000          N
062019051352999001060001TSEGUNDO                  RODRÍGUEZ                GONZÁLEZ                 M00000000          N
062019051352999001060010TMADELEINE                HOLGUÍN                  VÁSQUEZ                  F00000000          N
062019051352999001060011TJUAN                     RODRÍGUEZ                MEDINA                   M00000000          N
062019051352999001060012TLISSETE OLGA             MURILLO                  ZAVALA                   F00000000          N
062019051352999001060013TRAFAEL ANTONIO           ESCALONA                 MEDINA                   M00000000          N
062019051352999001060014TREYNA ISABEL             OROZA                    HERNÁNDEZ                F00000000          N
062019051352999001060015TABRAHAM DE LOS SANTOS    ÁLVAREZ                  GÓMEZ                    M00000000          N
062019051352999001060016TTERESA MARÍA             OROSA                    MARTÍN                   F00000000          N
062019051352999001060017TDIEGO FERNANDO           TOBÓN                    OLGÍN                    M00000000          N
062019051352999001060018TMARÍA ISABEL             QUINTERO                 DE LUNA                  F00000000          N
062019051352999001060019TJESÚS MANUEL             LEMES                    OROSA                    M00000000          N
062019051352999001060002TMARÍA MANUELA            REBOLLIDO                BOUZÓN                   F00000000          N
062019051352999001060020TSANDRA MARÍA             RODRÍGUEZ                MIRANDA                  F00000000          N
062019051352999001060021TORLANDO CARMELO          SANTANA                  VILLALBA                 M00000000          N
062019051352999001060022TTECLA OLIVIA             GARCÍA                   DÍAZ                     F00000000          N
062019051352999001060023TAURELIO JESÚS            PERDOMO                  GUILLÉN                  M00000000          N
062019051352999001060003TOSBEL                    LARA                     GONZÁLEZ                 M00000000          N
062019051352999001060004TJOSEFA MARY              RODRÍGUEZ                GONZÁLEZ                 F00000000          N
062019051352999001060005TANDRÉS VICENTE           RODRÍGUEZ                DUQUE                    M00000000          N
062019051352999001060006TBEATRIZ                  ALONSO                   TRONCOSO                 F00000000          N
062019051352999001060007TMIGUEL ANTONIO           OUBIÑA                   PÉREZ                    M00000000          N
062019051352999001060008TELIZABETH                MONTORO                  TAVÍO                    F00000000          N
062019051352999001060009TJULIÁN FERNANDO          TRUJILLO                 MIRANDA                  M00000000          N
062019051353999001003001TJAVIER                   TENDERO                  POMARES                  M00000000          N
062019051353999001003010TCRISTIAN SANTIAGO        PÉREZ                    LÓPEZ                    M00000000          N
062019051353999001003011TDANIELA MARÍA            LÓPEZ                    VARELA                   F00000000          N
062019051353999001003012TDAVID                    MARTÍNEZ                 GONZÁLEZ                 M00000000          N
062019051353999001003013TOSCAR                    CANCELA                  ROMERO                   M00000000          N
062019051353999001003014TLAURA                    FIGUEROA                 GONZÁLEZ                 F00000000          N
062019051353999001003015TJAVIER ISIDRO            BOBIS                    ALBUERNE                 M00000000          N
062019051353999001003016TMARÍA CELESTE            VEGA                     MARTÍN                   F00000000          N
062019051353999001003017TIVÁN                     BARRABI                  PÉREZ                    M00000000          N
062019051353999001003018TMARINA                   GARCÍA                   ROLA                     F00000000          N
062019051353999001003019TLUIS ALBERTO             DÍAZ                     ANDRÉS                   M00000000          N
062019051353999001003002TJAVIER                   GUTIÉRREZ                HERNÁNDEZ                M00000000          N
062019051353999001003020TGUACIMARA                CERDEÑA                  HERNÁNDEZ                F00000000          N
062019051353999001003021TCARLOS MANUEL            SOTO                     GALVÁN                   M00000000          N
062019051353999001003022TJUAN MIGUEL              MOLINA                   ARAGÓN                   M00000000          N
062019051353999001003023TSONIA MARÍA              ÁLAMO                    SÁNCHEZ                  F00000000          N
062019051353999001003003TJESSICA LAURA            BATISTA                  BETANCOR                 F00000000          N
062019051353999001003004TARMINDA                  ORELLANA                 HERNÁNDEZ                F00000000          N
062019051353999001003005TSARA                     JORGE                    ALONSO                   F00000000          N
062019051353999001003006TVIRGINIA                 DE LEÓN                  REYES                    F00000000          N
062019051353999001003007TAGAPITO                  DE VERA                  DARIAS                   M00000000          N
062019051353999001003008TJOSEFA CELIA             SUÁREZ                   CERPA                    F00000000          N
062019051353999001003009TLETICIA IRAYA            CURBELO                  MORALES                  F00000000          N
062019051353999001006001TDOLORES ALICIA (LOLA)    GARCÍA                   MARTÍNEZ                 F00000000          S
062019051353999001006010TANTONIO                  RODRÍGUEZ                SÁNCHEZ                  M00000000          N
062019051353999001006011TMARÍA DOLORES            ALONSO                   ÁVILA                    F00000000          N
062019051353999001006012TMARÍA DE LA PEÑA         AGUIAR                   PADILLA                  F00000000          N
062019051353999001006013TÓSCAR                    GUERRA                   CARBALLO                 M00000000          N
062019051353999001006014TBÁRBARA SOFIA            ÉVORA                    HANGGI                   F00000000          N
062019051353999001006015TJAVIER ÁNGEL             FRANCO                   HORMIGA                  M00000000          N
062019051353999001006016TDAVINIA DEL PINO         BRITO                    HERNÁNDEZ                F00000000          N
062019051353999001006017TMARÍA SORAYA             PÉREZ                    GOPAR                    F00000000          N
062019051353999001006018TDAVID                    RAMOS                    MARTÍNEZ                 M00000000          N
062019051353999001006019TMARÍA DEL CARMEN         OJEDA                    DÍAZ                     F00000000          N
062019051353999001006002TCRISTOBAL (DAVID)        DE VERA                  CABRERA                  M00000000          S
062019051353999001006020TSILVESTRE                CHACÓN                   MESA                     M00000000          N
062019051353999001006021TJOSEFA DE LA PEÑA        BRITO                    BETANCOR                 F00000000          N
062019051353999001006022TSILVIA ESTHER            DE VERA                  CABRERA                  F00000000          N
062019051353999001006023TJOSÉ ANTONIO             RUÍZ                     AGUIAR                   M00000000          N
062019051353999001006003TJONATHAN                 GIL                      CRUZ                     M00000000          S
