031989101049011000002011TMARIA DEL MAR AGUERO RUANO                                                  000000000000000000S
031989101049012000002012TANTONIO GONGORA RUBIO                                                       000000000000000000N
031989101049013000002013TJOSE MARIA MARTINEZ DE HARO                                                 000000000000000000N
031989101049024000003024TJOAQUIN AMERIGO NAVARRO                                                     000000000000000000N
031989101049025000003025TGRACIAN GARZON LOPEZ                                                        000000000000000000N
031989101049026000003026TFRANCISCO GRANADOS OLLER                                                    000000000000000000N
031989101049008000005008TMANUEL GIL SEGURA                                                           000000000000000000N
031989101049009000005009TJUANA MARTINEZ SOLER                                                        000000000000000000N
031989101049010000005010TANTONIO MUÑOZ ZAMORA                                                        000000000000000000N
031989101049027000008027TJUAN FRANCISCO PLAZA PEREZ                                                  000000000000000000N
031989101049028000008028TFRANCISCO SOLVEZ ORTEGA                                                     000000000000000000N
031989101049029000008029TMARIA DEL MAR VERDEJO PADILLA                                               000000000000000000N
031989101049004000010004TSALVADOR GONZALEZ ROMERA                                                    000000000000000000N
031989101049005000010005TMIGUEL MANZANO ESCUDERO                                                     000000000000000000N
031989101049006000010006TRAFAEL TORRES TRIPIANA                                                      000000000000000000N
031989101049014000013014TMARIA JOSEFA MIRON GARCIA                                                   000000000000000000N
031989101049018000014018THERMINIA ANTEQUERA CORTES                                                   000000000000000000N
031989101049019000014019TJUAN ROMERO FERNANDEZ                                                       000000000000000000N
031989101049020000014020TJUAN RUBIO MARTIN                                                           000000000000000000N
031989101049033000017033TGINES DE HARO ROSSI                                                         000000000000000000N
031989101049021000023021TJUAN ALFONSO FERNANDEZ                                                      000000000000000000N
031989101049022000023022TRAFAEL JIMENEZ MEJIAS                                                       000000000000000000N
031989101049023000023023TMARIA LUISA PARDO GRANCHA                                                   000000000000000000N
031989101049015000024015TANTONIO BONILLA RODRIGUEZ                                                   000000000000000000S
031989101049016000024016TBLAS DIAZ BONILLO                                                           000000000000000000S
031989101049017000024017TMARTIRIO TESORO AMATE                                                       000000000000000000S
031989101049001000025001TANTONIO CRUZ AMARIO                                                         000000000000000000N
031989101049002000025002TCAYETANO HERNANDEZ GARCIA                                                   000000000000000000N
031989101049003000025003TJUAN MARTINEZ GONZALEZ                                                      000000000000000000N
031989101049007000106007TRAFAEL ANTONIO GUERRERO CANO                                                000000000000000000N
031989101049030000114030TJULIAN CRUZ RODRIGUEZ                                                       000000000000000000N
031989101049031000114031TMARIA CELESTINA ESPINOSA GARCIA                                             000000000000000000N
031989101049032000114032TFERNANDO MARIN PUERTAS                                                      000000000000000000N
031989101119025000002025TJAVIER CAMARA EGUINOA                                                       000000000000000000S
031989101119026000002026TJOSE ANTONIO GUTIERREZ TRUEBA                                               000000000000000000N
031989101119027000002027TCARLOS ALBERTO SANCHEZ DE MEDINA CONTRERAS                                  000000000000000000N
031989101119005000003005TMARIA DEL PILAR MARTIN-PEÑASCO ROMAN                                        000000000000000000N
031989101119006000003006TFRANCISCO HUMANES JIMENEZ                                                   000000000000000000N
031989101119007000003007TANTONIO ARCAS DE LOS REYES                                                  000000000000000000N
031989101119011000005011TFERNANDO PEREZ PACHECO                                                      000000000000000000N
031989101119012000005012TMERCEDES ORTEGA MOLINA                                                      000000000000000000N
031989101119013000005013TJESUS SAN BERNARDINO NOLASCO                                                000000000000000000N
031989101119028000006028TFERNANDO PORRO GUERRERO                                                     000000000000000000N
031989101119029000006029TMANUEL PARODI GALLARDO                                                      000000000000000000N
031989101119030000006030TDIEGO CAMPOY MIRO                                                           000000000000000000N
031989101119017000008017TAGUSTIN HERRERO MUÑOZ                                                       000000000000000000N
031989101119001000010001TCAMILA ALVAREZ ARGANZA                                                      000000000000000000N
031989101119021000013021TFELIPE LEON MORICHE                                                         000000000000000000N
031989101119022000014022TMARIA LOURDES MARENTE MACIAS                                                000000000000000000N
031989101119023000014023TANA TORRES MERINO                                                           000000000000000000N
031989101119024000014024TISABEL GARCIA DURAN                                                         000000000000000000N
031989101119018000023018TANGEL FUENTES MORENO                                                        000000000000000000N
031989101119019000023019TLUISA MONTES HURTADO                                                        000000000000000000N
031989101119020000023020TPEDRO LOPEZ FERNANDEZ                                                       000000000000000000N
031989101119014000024014TSERGIO MORENO MONROVE                                                       000000000000000000S
031989101119015000024015TJAIME PEREZ-LLORCA RODRIGO                                                  000000000000000000S
031989101119016000024016TRAFAEL ROMAN GUERRERO                                                       000000000000000000S
031989101119002000025002TRICARDO ALBERTO CHAMORRO RODRIGUEZ                                          000000000000000000N
031989101119003000025003TEMILIO RUBIALES ROJAS                                                       000000000000000000N
031989101119004000025004TJOSE LUIS VILLAR CERON                                                      000000000000000000N
031989101119008000117008TCARMEN GOMEZ GOMEZ                                                          000000000000000000N
031989101119009000117009TFERNANDO GUILLOTO AGUILAR                                                   000000000000000000N
031989101119010000117010TDANIEL MOYA MULEY                                                           000000000000000000N
031989101149017000002017TANTONIO AGUILAR CRUZ                                                        000000000000000000N
031989101149018000002018TMANUEL GARCIA NIETO                                                         000000000000000000N
031989101149019000002019TMATEO VALERIO VAZQUEZ BERNI                                                 000000000000000000N
031989101149011000003011TANTONIO AVILA MARTIN                                                        000000000000000000N
031989101149012000003012TARTURO DOMINGUEZ FERNANDEZ                                                  000000000000000000N
031989101149013000003013TFRANCISCO ROJAS LUQUE                                                       000000000000000000N
031989101149002000005002TFRANCISCO CASCALES JIMENEZ                                                  000000000000000000N
031989101149003000005003TMANUEL ROMERO MATA                                                          000000000000000000N
031989101149004000005004TJOSE LOPEZ CARMONA                                                          000000000000000000N
031989101149023000006023TJOSE RAMON AGOTE MARTIN                                                     000000000000000000N
031989101149008000008008TLORENZO JESUS AMOR ACEDO                                                    000000000000000000N
031989101149001000010001TANTONIO FERNANDEZ SAN SEGUNDO                                               000000000000000000N
031989101149010000013010TMARIA SOLEDAD CORDON LOPEZ                                                  000000000000000000N
031989101149009000017009TRICARDO ESCOBAR ALONSO                                                      000000000000000000N
031989101149014000023014TRAFAEL GARCIA CONTRERAS                                                     000000000000000000S
031989101149015000023015TFRANCISCO PAÑOS SANTIAGO                                                    000000000000000000N
031989101149016000023016TMARIA DEL CARMEN PEREZ MORENO                                               000000000000000000N
031989101149024000024024TDIEGO ALONSO COLACIOS                                                       000000000000000000S
031989101149025000024025TJOAQUIN MARTINEZ BJORKMAN                                                   000000000000000000S
031989101149026000024026TJULIAN SANTIAGO BUJALANCE                                                   000000000000000000S
031989101149005000025005TFRANCISCO BAÑOS BELLIDO                                                     000000000000000000N
031989101149006000025006TANTONIO DAZA SANCHEZ                                                        000000000000000000N
031989101149007000025007TANTONIO NAVARRO ORTIZ                                                       000000000000000000N
031989101149020000118020TALFONSO ALMAGRO UCEDA                                                       000000000000000000N
031989101149021000118021TFRANCISCO CAÑIZARES RUBIO                                                   000000000000000000N
031989101149022000118022TANTONIO ZURERA CAÑADILLA                                                    000000000000000000N
031989101189016000002016TALBERTO FERNANDO MARTINEZ MARTINEZ                                          000000000000000000S
031989101189017000002017TRAFAEL VICENTE VALERO RODRIGUEZ                                             000000000000000000N
031989101189018000002018TELVIRA MARIA VICENTE GARRIDO                                                000000000000000000N
031989101189008000003008TMIGUEL RAFAEL ALVAREZ GUARNIDO                                              000000000000000000N
031989101189009000003009TRAFAEL GARCIA-LUJAN SANCHEZ                                                 000000000000000000N
031989101189010000003010TFRANCISCO PELAEZ NOGALES                                                    000000000000000000N
031989101189028000005028TJOSE MARIA CORPAS IBAÑEZ                                                    000000000000000000N
031989101189029000005029TANTONIO LUCENA AGUILERA                                                     000000000000000000N
031989101189030000005030TANTONIO MARTINEZ RAMOS                                                      000000000000000000N
031989101189020000006020TFRANCISCO CABALLERO MORENO                                                  000000000000000000N
031989101189021000006021TJUAN MANUEL CAMARA MADRID                                                   000000000000000000N
031989101189022000006022TJOSE ANTONIO GOMEZ TAMAYO                                                   000000000000000000N
031989101189023000006023TANTONIO UNICA FERNANDEZ                                                     000000000000000000N
031989101189001000008001TEMILIO MARTIN RULL                                                          000000000000000000N
031989101189024000010024TJOSE ANTONIO GRANADO MENDEZ                                                 000000000000000000N
031989101189019000013019TJUAN CARRIQUE CALDERON                                                      000000000000000000N
031989101189014000015014TANTONIO LUIS GALVEZ ZURITA                                                  000000000000000000N
031989101189015000015015TJOSE MANUEL MORALES SANTANDER                                               000000000000000000N
031989101189002000023002TJESUS PEREZ SANCHEZ                                                         000000000000000000N
031989101189003000023003TDAMIAN PRETEL MARTINEZ                                                      000000000000000000N
031989101189004000023004TJOSE RODRIGUEZ FRANCO                                                       000000000000000000N
031989101189031000024031TJUAN CUENCA DOBLADO                                                         000000000000000000S
031989101189032000024032TRAFAEL ESTRELLA PEDROLA                                                     000000000000000000S
031989101189033000024033TDIEGO HURTADO GALLARDO                                                      000000000000000000S
031989101189011000025011TMANUEL ALVAREZ VALLECILLOS                                                  000000000000000000N
031989101189012000025012TMANUEL BAENA LOPEZ                                                          000000000000000000N
031989101189013000025013TJUAN MANUEL RODRIGUEZ GARCIA                                                000000000000000000N
031989101189005000108005TJESUS ESPINOSA GONZALEZ                                                     000000000000000000N
031989101189006000108006TMARIA GONZALEZ DE LA BLANCA                                                 000000000000000000N
031989101189007000108007TFRANCISCO MARIA DEL RIO SANCHEZ                                             000000000000000000N
031989101189025000117025TMARIA ARAGON SAEZ                                                           000000000000000000N
031989101189026000117026TJESUS CALERO LOPEZ                                                          000000000000000000N
031989101189027000117027TCARMEN FERNANDEZ DE LA ROSA                                                 000000000000000000N
031989101219028000002028TMANUEL BURGOS CRUZADO                                                       000000000000000000S
031989101219029000002029TMANUEL DIAZ MANTIS                                                          000000000000000000N
031989101219030000002030TARTURO ESTEBAN ALBERT                                                       000000000000000000N
031989101219007000003007TSALUD DE SILVA GARCIA                                                       000000000000000000N
031989101219008000003008TANTONIO DIAZ GOMEZ                                                          000000000000000000N
031989101219009000003009TJUAN CARLOS LAGARES FLORES                                                  000000000000000000N
031989101219001000005001TELIPIO ALFARO DIAZ                                                          000000000000000000N
031989101219002000005002TANTONIO BORRERO ESCUDERO                                                    000000000000000000N
031989101219003000005003TJOSE ANTONIO CEADA PEREZ                                                    000000000000000000N
031989101219025000006025TJOSE MANUEL JIMENEZ GALOCHA                                                 000000000000000000N
031989101219026000006026TRAMON PEREZ CONDE                                                           000000000000000000N
031989101219027000006027TMANUEL VIRELLA REDONDO                                                      000000000000000000N
031989101219021000008021TANTONIO DURAN GAVIÑO                                                        000000000000000000N
031989101219020000013020TFERNANDO DAVID CARMONA ORTEGA                                               000000000000000000N
031989101219022000014022TNICOLAS DIAZ DOMINGUEZ                                                      000000000000000000N
031989101219023000014023TVICTOR JORGE FERRER RIOS                                                    000000000000000000N
031989101219024000014024TJUAN MIGUEL VELASCO PEREZ                                                   000000000000000000N
031989101219019000015019TMARIA DEL CARMEN CALAMARDO FERNANDEZ                                        000000000000000000N
031989101219004000023004TCRISTOBALINA BEJARANO LEPE                                                  000000000000000000N
031989101219005000023005TFRANCISCO PORTILLO RODRIGUEZ                                                000000000000000000N
031989101219006000023006TMANUEL RODRIGUEZ MARTIN                                                     000000000000000000N
031989101219013000024013TROSARIO BALLESTER ANGULO                                                    000000000000000000S
031989101219014000024014TANTONIO GARCIA CORREA                                                       000000000000000000S
031989101219015000024015TTOMAS SEISDEDOS MARTIN                                                      000000000000000000S
031989101219016000025016TARTURO AQUINO GONZALEZ                                                      000000000000000000N
031989101219017000025017TJOSE LUIS GALVEZ GALLARDO                                                   000000000000000000N
031989101219018000025018TFRANCISCO PALOS LUNA                                                        000000000000000000N
031989101219010000115010TJOSE DOMINGO LOPEZ LIGERO                                                   000000000000000000N
031989101219011000115011TFERNANDO SORIANO RODRIGUEZ                                                  000000000000000000N
031989101219012000115012TJUAN VAZQUEZ VAZQUEZ                                                        000000000000000000N
031989101239021000002021TJOSE CANO CHINCHILLA                                                        000000000000000000N
031989101239022000002022TRAMON PALACIOS RUBIO                                                        000000000000000000S
031989101239023000002023TJUAN RODRIGUEZ DIAZ                                                         000000000000000000N
031989101239014000003014TRAFAEL COTA GALAN                                                           000000000000000000N
031989101239015000003015TJOSE LATORRE GARCIA                                                         000000000000000000N
031989101239016000003016TJUAN MANUEL QUESADA MEDINA                                                  000000000000000000N
031989101239011000005011TANTONIO CORTACERO MARTIN                                                    000000000000000000N
031989101239012000005012TMIGUEL ANGEL GARCIA CUADROS                                                 000000000000000000N
031989101239013000005013TFRANCISCO GARRIDO CARRASCO                                                  000000000000000000N
031989101239017000006017TANTONIO JIMENEZ GOMEZ                                                       000000000000000000N
031989101239018000006018TANTONIA VALLECILLOS HIDALGO                                                 000000000000000000N
031989101239007000008007TCONSUELO GOMEZ SERRANO                                                      000000000000000000N
031989101239019000010019TANGELES MARTINEZ DEL MORAL                                                  000000000000000000N
031989101239001000013001TRAQUEL BLANCO HERRERA                                                       000000000000000000N
031989101239020000014020TMIGUEL PADILLA PULIDO                                                       000000000000000000N
031989101239008000023008TJOSE CABRERO PALOMARES                                                      000000000000000000N
031989101239009000023009TALFONSO FERNANDEZ MALO                                                      000000000000000000N
031989101239010000023010TPETRA GUSANO MARTINEZ                                                       000000000000000000N
031989101239024000024024TJOSE MANUEL PEDREGOSA GARRIDO                                               000000000000000000S
031989101239025000024025TJOSE MARIA DE LA TORRE COLMENERO                                            000000000000000000S
031989101239026000024026TJUAN ZARRIAS JAREÑO                                                         000000000000000000S
031989101239002000025002TMIGUEL ANGEL BELLIDO DEL PINO                                               000000000000000000N
031989101239003000025003TEDUARDO GALLARDO PEREZ                                                      000000000000000000N
031989101239004000025004TDOLORES SEGURA NAVARRO                                                      000000000000000000N
031989101239005000104005TALBERTO HERBERA LOPEZ                                                       000000000000000000N
031989101239006000104006TFRANCISCO VICO BALTANAS                                                     000000000000000000N
031989101299006000002006TJOSE MIGUEL FERNANDEZ PELEGRINA                                             000000000000000000S
031989101299007000002007TJOSE LUIS ORTEGA GAMEZ                                                      000000000000000000N
031989101299008000002008TJOSE ANTONIO PLASENCIA RUEDA                                                000000000000000000N
031989101299009000003009TILDEFONSO MANUEL ARENAS PALOMO                                              000000000000000000N
031989101299010000003010TFRANCISCO LOPEZ GARCIA                                                      000000000000000000N
031989101299011000003011TJUAN MARTIN SERON                                                           000000000000000000N
031989101299032000005032TJOSE MARTIN ANAYA                                                           000000000000000000N
031989101299033000005033TFRANCISCO PIMENTEL SANCHEZ                                                  000000000000000000N
031989101299034000005034TPEDRO TORO LOPEZ                                                            000000000000000000N
031989101299001000006001TJUAN JOSE DIEGO BARGUIN                                                     000000000000000000N
031989101299028000008028TJOSE LOPEZ CISNEROS                                                         000000000000000000N
031989101299029000008029TJOSE RUIZ HERAS                                                             000000000000000000N
031989101299030000008030TANTONIO RUIZ RUIZ                                                           000000000000000000N
031989101299035000010035TANTONIO FELIX AREVALO MONTEMAYOR                                            000000000000000000N
031989101299002000013002TFRANCISCA PAYO FERNANDEZ                                                    000000000000000000N
031989101299031000014031TFRANCISCO PUCHE VERGARA                                                     000000000000000000N
031989101299022000015022TFERNANDO MIGUEL HERNANDEZ CEREZO                                            000000000000000000N
031989101299023000015023TMARIA FERNANDA SANCHEZ CORRAL                                               000000000000000000N
031989101299024000015024TJUAN DIEGO VIVAS MONTOYA                                                    000000000000000000N
031989101299021000017021TJOAQUIN VELA LAMPARERO                                                      000000000000000000N
031989101299018000023018TJOSE ANTONIO CARDENAS PEINADO                                               000000000000000000N
031989101299019000023019TELENA GALAN JURADO                                                          000000000000000000N
031989101299020000023020TJUAN ANTONIO MENDEZ SANCHEZ                                                 000000000000000000N
031989101299025000024025TLUCIANO ALONSO ALONSO                                                       000000000000000000S
031989101299026000024026TANTONIO GARCIA DUARTE                                                       000000000000000000S
031989101299027000024027TANA DEL CARMEN GUIRADO PEREZ                                                000000000000000000S
031989101299012000025012TMANUEL CALVO IGLESIAS                                                       000000000000000000N
031989101299013000025013TJOSE GARCIA PEREZ                                                           000000000000000000N
031989101299014000025014TLUIS MARTI ENA                                                              000000000000000000N
031989101299003000027003TFRANCISCO CUESTA GAMEZ                                                      000000000000000000N
031989101299004000027004TJOSE FLORIDO SANCHEZ                                                        000000000000000000N
031989101299005000027005TJOSE MARIN MONIO                                                            000000000000000000N
031989101299015000110015TANTONIO RENGEL CANSINO                                                      000000000000000000N
031989101299016000110016TMANUEL JESUS RINCON GRANADOS                                                000000000000000000N
031989101299017000110017TDIEGO CARMEN VEGA RODRIGUEZ                                                 000000000000000000N
031989101419037000002037TLUIS FERNANDEZ Y FERNANDEZ MADRID                                           000000000000000000S
031989101419038000002038TMIGUEL ANGEL GONZALEZ PEREZ                                                 000000000000000000N
031989101419039000002039TMARIA TERESA RODRIGUEZ CARRASCO                                             000000000000000000N
031989101419020000003020TLORENZO FERNANDEZ MARTIN                                                    000000000000000000N
031989101419021000003021TCANDIDO MANUEL GONZALEZ VAZQUEZ                                             000000000000000000N
031989101419022000003022TLUIS MIGUEL PONS MORICHE                                                    000000000000000000N
031989101419034000005034TEUGENIO LOPEZ SANCHEZ                                                       000000000000000000N
031989101419035000005035TFRANCISCO VELASCO SANCHEZ                                                   000000000000000000N
031989101419036000005036TJUAN JOSE CONDE OLMO                                                        000000000000000000N
031989101419031000006031TJOSE BUSTOS JIMENEZ                                                         000000000000000000N
031989101419032000006032TLORENZO NAVA MINONDO                                                        000000000000000000N
031989101419033000006033TANTONIO DAVID LOPEZ PABLOS                                                  000000000000000000N
031989101419011000008011TCARLOS DIAZ MOLINA                                                          000000000000000000N
031989101419004000010004TEDUARDO BENITEZ BENITEZ                                                     000000000000000000N
031989101419008000012008TCANDIDO JOSE GOMEZ SANCHEZ                                                  000000000000000000N
031989101419009000012009TMIGUEL ANGEL ORTIZ DE-NICOLA                                                000000000000000000N
031989101419010000012010TSARA DIAZ DEL RIO                                                           000000000000000000N
031989101419023000013023TANGEL CARRIQUE CALDERON                                                     000000000000000000N
031989101419024000013024TPEDRO MONGE RUIZ                                                            000000000000000000N
031989101419017000014017TJOSE LUIS PEREZ LORENZO                                                     000000000000000000N
031989101419018000014018TANTONIA ALCALA GUERRERO                                                     000000000000000000N
031989101419019000014019TCARLOS DONAIRE MARMOL                                                       000000000000000000N
031989101419012000019012TFRANCISCO GAMEZ RAMIREZ                                                     000000000000000000N
031989101419013000019013TRAFAEL LABAT RODRIGUEZ                                                      000000000000000000N
031989101419014000019014TMANUEL MACIAS RODRIGUEZ                                                     000000000000000000N
031989101419028000023028TMARIA JESUS ARAMBURU DEL RIO                                                000000000000000000N
031989101419029000023029TSEBASTIAN MARTIN RECIO                                                      000000000000000000N
031989101419030000023030TRAMON RODRIGUEZ AGUILERA                                                    000000000000000000N
031989101419025000024025TFRANCISCO MORENO FRANCO                                                     000000000000000000S
031989101419026000024026TMARIA AMPARO RUBIALES TORREJON                                              000000000000000000S
031989101419027000024027TANA MARIA RUIZ-TAGLE MORALES                                                000000000000000000S
031989101419001000025001TANGEL BENITO JAEN                                                           000000000000000000N
031989101419002000025002TMANUEL HERRERA RODAS                                                        000000000000000000N
031989101419003000025003TJUAN NAVARRO GONZALEZ                                                       000000000000000000N
031989101419015000027015TJOSE ARMARIO MEDINA                                                         000000000000000000N
031989101419016000027016TMANUEL ALGABA ALFONSECA                                                     000000000000000000N
031989101419005000073005TJORGE LUIS GIL LORENZO                                                      000000000000000000N
031989101419006000073006TMARCOS MARIA HERMIDA REVILLA                                                000000000000000000N
031989101419007000073007TJOSE ANTONIO LENCINA GARCIA                                                 000000000000000000N
031989101229018000001018TM FLOR ARDANUY COSTA                                                        000000000000000000S
031989101229019000001019TBERNARDO BAYONA AZNAR                                                       000000000000000000S
031989101229020000001020TJUAN JOSE RODRIGUEZ TORRES                                                  000000000000000000S
031989101229009000002009TRODOLFO AINSA ESCARTIN                                                      000000000000000000S
031989101229010000002010TANTONIO FAJARNES MONTANER                                                   000000000000000000N
031989101229011000002011TIGNACIO SUSIN DE CASO                                                       000000000000000000N
031989101229026000003026TJOSE ANTONIO BERNABEU NACHER                                                000000000000000000N
031989101229027000003027TANTONIO LOPEZ BUIL                                                          000000000000000000N
031989101229028000003028TJOSE LUIS POMAR SUAREZ                                                      000000000000000000N
031989101229012000004012TFEDERICO ESCOBAR ALBERTIN                                                   000000000000000000N
031989101229013000004013TMIGUEL ANGEL FUSTERO AGUIRRE                                                000000000000000000N
031989101229014000004014TJOSE ANTONIO MARTINEZ VAL                                                   000000000000000000N
031989101229002000005002TMIGUEL ANGEL BASARTE OSCARIZ                                                000000000000000000N
031989101229003000005003TPEDRO BUESA MEDRANO                                                         000000000000000000N
031989101229004000005004TCARMEN MELERO CASTILLO                                                      000000000000000000N
031989101229015000008015TCARLOS ARNAL OTIN                                                           000000000000000000N
031989101229016000008016TMARTIN FERRER ABAD                                                          000000000000000000N
031989101229017000008017TFELIPE SERGIO LOPEZ GRACIA                                                  000000000000000000N
031989101229001000010001TANDRES VICHO EDERRA                                                         000000000000000000N
031989101229021000012021TMARIA MERCEDES CORREAS LATAS                                                000000000000000000N
031989101229005000013005TMARIA LUISA GAVIN LANGARITA                                                 000000000000000000N
031989101229025000015025TMARIA JOSEFA CAUDEVILLA MORALES                                             000000000000000000N
031989101229006000027006TJUAN ANDRES GARCIA MOUGAN                                                   000000000000000000N
031989101229007000027007TFRANCISCO JOSE OTO BOLEA                                                    000000000000000000N
031989101229008000027008TEDUARDO SANTAMARIA RAMOS                                                    000000000000000000N
031989101229029000029029TVICENTE FUSTER SANTALIESTRA                                                 000000000000000000N
031989101229030000029030TLORENZO LASCORZ LASCORZ                                                     000000000000000000N
031989101229031000029031TFRANCHO ENRIQUE RODES ORQUIN                                                000000000000000000N
031989101229022000030022TLUIS ACIN BONED                                                             000000000000000000N
031989101229023000030023TMARIA TRINIDAD AULLO ALDUNATE                                               000000000000000000N
031989101229024000030024TMANUEL RODRIGUEZ CHESA                                                      000000000000000000N
031989101449001000001001TENCARNACION ANA CASTAÑER PAMPLONA                                           000000000000000000S
031989101449002000001002TRUFINO FOZ DEL CACHO                                                        000000000000000000S
031989101449003000001003TVICENTE GUILLEN IZQUIERDO                                                   000000000000000000S
031989101449024000002024TLEOCADIO BUESO ZAERA                                                        000000000000000000S
031989101449025000002025TMARIA CASES SORIANO                                                         000000000000000000N
031989101449026000002026TFERNANDO J IBAÑEZ GIMENO                                                    000000000000000000N
031989101449015000003015TENRIQUE BAYONA RICO                                                         000000000000000000N
031989101449016000003016TJOSE ANTONIO CRUZ GALAN                                                     000000000000000000N
031989101449017000003017TCARLOS HERNANZ PEREZ                                                        000000000000000000N
031989101449004000004004TCARLOS JAVIER BIEL MARTIN                                                   000000000000000000N
031989101449005000004005TTOMAS CIVERA ALONSO                                                         000000000000000000N
031989101449006000004006TJOSE IGNACIO NAVARRO ASUN                                                   000000000000000000N
031989101449029000005029TMIGUEL CARRASCO NAVARRO                                                     000000000000000000N
031989101449030000005030TCARLOS CHAMARRO CHAMARRO                                                    000000000000000000N
031989101449031000005031TJOSE MANUEL AGAPITO FERRER SODRID                                           000000000000000000N
031989101449010000008010TFRANCISCO NEGRO ARTIGAS                                                     000000000000000000N
031989101449011000008011TMARIA DEL CARMEN ZARATE MONTAÑES                                            000000000000000000N
031989101449021000012021TTORIBIO CACHAY FLORES                                                       000000000000000000N
031989101449022000012022TMANUEL CORREAS MERLI                                                        000000000000000000N
031989101449023000012023TMARIA DEL CARMEN YUSTE LATORRE                                              000000000000000000N
031989101449027000013027TJOSE LUIS GAVIN LANGARITA                                                   000000000000000000N
031989101449028000015028TMARIA CRISTINA ALBERTOS DE CEANO-VIVAS                                      000000000000000000N
031989101449012000027012TELISA GONZALEZ CAZON                                                        000000000000000000N
031989101449013000027013TJOSE IGLESIAS ARRUE                                                         000000000000000000N
031989101449014000027014TCARLOS MANUEL MARTINEZ LLANEZA                                              000000000000000000N
031989101449007000029007TMANUEL ANTONIO ARANDA ARIÑO                                                 000000000000000000N
031989101449008000029008TFRANCISCO JAVIER JAIME LOREN                                                000000000000000000N
031989101449009000029009TMAXIMINO JOSE SOLER SANCHEZ                                                 000000000000000000N
031989101449018000030018TVALENTIN CALVO LOU                                                          000000000000000000N
031989101449019000030019TMARIA JOSEFA GARCIA FELEZ                                                   000000000000000000N
031989101449020000030020TINOCENCIO MARTINEZ SANCHEZ                                                  000000000000000000N
031989101509018000001018TGONZALO ARGUILE LAGUARTA                                                    000000000000000000S
031989101509019000001019TRAMON NUÑEZ DIACONO                                                         000000000000000000S
031989101509020000001020TLUIS CARLOS PIQUER JIMENEZ                                                  000000000000000000S
031989101509001000002001TMARIANO ALIERTA IZUEL                                                       000000000000000000S
031989101509002000002002TFERNANDO HERREIZ MURUZABAL                                                  000000000000000000N
031989101509003000002003TJOSE LUIS DE TORRES AURED                                                   000000000000000000N
031989101509027000003027TFRANCISCA GREGORIO VILLACAMPA                                               000000000000000000N
031989101509028000003028TJESUS MORTE BONAFONTE                                                       000000000000000000N
031989101509029000003029TISIDRO SIERRA CASASUS                                                       000000000000000000N
031989101509015000004015TMARIA DE LAS MERCEDES GALLIZO LLAMAS                                        000000000000000000N
031989101509016000004016TJOSE ANTONIO LABORDETA SUBIAS                                               000000000000000000N
031989101509017000004017TMARIA PILAR TOBED MONEO                                                     000000000000000000N
031989101509024000005024TFRANCISCO FERRANDO SAUCO                                                    000000000000000000N
031989101509025000005025TFIDEL IBAÑEZ ROZAS                                                          000000000000000000N
031989101509026000005026TMARIA ISABEL INIESTA DE HOYOS                                               000000000000000000N
031989101509021000008021TALBERTO JESUS GAVIN CASTERAD                                                000000000000000000N
031989101509022000008022TBALTASAR PEREZ RAMOS                                                        000000000000000000N
031989101509023000008023TPEDRO RODRIGO SALAS                                                         000000000000000000N
031989101509010000010010TJESUS GONZALEZ MARTINEZ                                                     000000000000000000N
031989101509011000012011TSANTIAGO GASCON SANTOS                                                      000000000000000000N
031989101509012000012012TMARIA ARANZAZU GUILLEN LABORDA                                              000000000000000000N
031989101509013000012013TJOSE VICENTE TEJERO ARNAL                                                   000000000000000000N
031989101509014000012014TESTHER VALDES CARRALERO                                                     000000000000000000N
031989101509031000013031TMIGUEL ANGEL GAVIN LANGARITA                                                000000000000000000N
031989101509032000013032TPABLO JULIAN LOU IBARRA                                                     000000000000000000N
031989101509033000013033TSERGIO MARTIN CUBERO                                                        000000000000000000N
031989101509034000013034TCARLOS OSCAR NAVAL MONTERDE                                                 000000000000000000N
031989101509030000015030TANA ISABEL ROCHE SOLIS                                                      000000000000000000N
031989101509038000017038TJOSE LUIS SERRANO SERRANO                                                   000000000000000000N
031989101509035000027035TRAFAEL ACIRON GUILLEN                                                       000000000000000000N
031989101509036000027036TJOSE ANTONIO GARCIA LARROCA                                                 000000000000000000N
031989101509037000027037TMARIA LUISA VALERO GALVEZ                                                   000000000000000000N
031989101509007000029007TJOSE DOMINGO DUEÑAS LORENTE                                                 000000000000000000N
031989101509008000029008TMARIA LOURDES FRAGUAS MADURGA                                               000000000000000000N
031989101509009000029009TJOSE ANTONIO SALAS AUSENS                                                   000000000000000000N
031989101509004000030004TFERNANDO ACIN FUMANAL                                                       000000000000000000N
031989101509005000030005TMODESTO LOBON SOBRINO                                                       000000000000000000N
031989101509006000030006TAGUSTIN RIOS GONZALEZ                                                       000000000000000000N
031989101339028000001028TRAFAEL LUIS FERNANDEZ ALVAREZ                                               000000000000000000S
031989101339029000001029TMARIA NELLY FERNANDEZ ARIAS                                                 000000000000000000S
031989101339030000001030TJOSE RAMON HERRERO MEREDIZ                                                  000000000000000000S
031989101339018000002018TANGEL FERNANDEZ MENENDEZ                                                    000000000000000000S
031989101339019000002019TFRANCISCO RIMADA VIGIL                                                      000000000000000000N
031989101339020000002020TLUIS VEGA ESCANDON                                                          000000000000000000N
031989101339032000003032TFEDERICO ALONSO-VILLALOBOS MERINO                                           000000000000000000N
031989101339033000003033TALFONSO ROMAN LOPEZ GONZALEZ                                                000000000000000000N
031989101339034000003034TISOLINA MARTINEZ GONZALEZ                                                   000000000000000000N
031989101339015000004015TLAURA GONZALEZ ALVAREZ                                                      000000000000000000N
031989101339016000004016TJOSE ANTONIO SAAVEDRA RODRIGUEZ                                             000000000000000000N
031989101339017000004017TFRANCISCO JAVIER SUAREZ SUAREZ                                              000000000000000000N
031989101339012000005012TMANUEL ANGEL GRANDA DIAZ DE LA CAMPA                                        000000000000000000N
031989101339013000005013TANTONIO PILLADO ALVAREZ                                                     000000000000000000N
031989101339014000005014TROSA MARIA TORAL CASTILLO                                                   000000000000000000N
031989101339024000006024TISMAEL MARTINEZ MENDEZ                                                      000000000000000000N
031989101339025000006025TAURELIO RUIZ DEL VALLE                                                      000000000000000000N
031989101339026000006026TDANIEL VILLAR DIAZ                                                          000000000000000000N
031989101339039000008039TAGUSTIN ESPINA DIAZ                                                         000000000000000000N
031989101339040000008040TFERNANDO SANTIAGO FERNANDEZ-PEÑA RODRIGUEZ                                  000000000000000000N
031989101339035000010035TMAGDALENA BLAZQUEZ GARCIA                                                   000000000000000000N
031989101339041000012041TEVA MARIA FERNANDEZ GARCIA                                                  000000000000000000N
031989101339042000012042TANA ROSA MARTINEZ VALDES                                                    000000000000000000N
031989101339043000012043TSONIA PRIETO SUAREZ                                                         000000000000000000N
031989101339009000013009TJULIA PILAR GARCIA GONZALEZ                                                 000000000000000000N
031989101339010000013010TINMACULADA CONCEPCION HURTADO FERNANDEZ                                     000000000000000000N
031989101339011000013011TFAUSTINO ALBERTO PELAEZ MACHARGO                                            000000000000000000N
031989101339004000014004TJOSE ANTONIO RODRIGUEZ ALVAREZ                                              000000000000000000N
031989101339005000014005TMAXIMINO SUAREZ CALLEJA                                                     000000000000000000N
031989101339031000015031TFRANCISCO MANUEL ECHEVARRIA MARTIN                                          000000000000000000N
031989101339027000017027TFELIX ALFONSO GALLO LOPEZ                                                   000000000000000000N
031989101339001000031001TMARIA ANTONIA ANTON FERNANDEZ                                               000000000000000000N
031989101339002000031002TMIGUEL ANGEL ARIAS ALVAREZ                                                  000000000000000000N
031989101339003000031003TJUAN ANDRES CANEIRO REDUELLO                                                000000000000000000N
031989101339006000032006TFRANCISCO ALONSO MORI                                                       000000000000000000N
031989101339007000032007TJUAN CARLOS FERNANDEZ CASTAÑON                                              000000000000000000N
031989101339008000032008TRAMON FRANCISCO VELASCO FERNANDEZ                                           000000000000000000N
031989101339036000105036TMANUEL ALONSO FERNANDEZ                                                     000000000000000000N
031989101339037000105037TMANUEL BELTRAN JOVE                                                         000000000000000000N
031989101339038000105038TVICTOR DEL BUSTO DIAZ                                                       000000000000000000N
031989101339021000111021TARMANDO FERNANDEZ FERNANDEZ                                                 000000000000000000N
031989101339022000111022TJESUS GARCIA PEREZ-BANCES                                                   000000000000000000N
031989101339023000111023TANTONIO TORRES IGLESIAS                                                     000000000000000000N
031989101071013000001013TANTONIO GARCIAS COLL                                                        000000000000000000S
031989101071014000001014TMARIA TERRADES PALLICER                                                     000000000000000000N
031989101071001000002001TSIMON PEDRO BARCELO VADELL                                                  000000000000000000S
031989101071002000002002TJOAQUIN COTONER GOYENECHE                                                   000000000000000000S
031989101071007000003007TMIGUEL ARTIGUES BONET                                                       000000000000000000N
031989101071008000003008TMARTIN MARCH VIVES                                                          000000000000000000N
031989101071017000005017TROSARIO RIVEIRO LORENZO                                                     000000000000000000N
031989101071018000005018TANTONIA TORDILLO RAMIREZ                                                    000000000000000000N
031989101071021000008021TANGEL FERNANDEZ GOMEZ                                                       000000000000000000N
031989101071022000008022TMIGUEL GARAU GARAU                                                          000000000000000000N
031989101071012000013012TMARIA DEL CARMEN MONTALVO QUIÑONES                                          000000000000000000N
031989101071011000017011TTOMAS SASTRE MARTINEZ                                                       000000000000000000N
031989101071009000027009TFRANCISCA BOSCH BAUZA                                                       000000000000000000N
031989101071010000027010TMANUEL VICENTE DOMENECH BESTARD                                             000000000000000000N
031989101071005000033005TCECILI BUELE RAMIS                                                          000000000000000000N
031989101071006000033006TSEBASTIA SERRA BUSQUETS                                                     000000000000000000N
031989101071019000034019TONOFRE ALBA VIDAL                                                           000000000000000000N
031989101071020000034020TALFREDO MUS LOPEZ                                                           000000000000000000N
031989101071023000035023TANTONIO GARCIA NOGUERA                                                      000000000000000000N
031989101071024000035024TJUAN RIPOLL HUGUET                                                          000000000000000000N
031989101071003000036003TJOAN BUADES BELTRAN                                                         000000000000000000N
031989101071004000036004TFRANCESC JOSEP CORTES AGUILO                                                000000000000000000N
031989101071015000037015TEBERHARD GROSSKE FIOL                                                       000000000000000000N
031989101071016000037016TALBERT SAONER BARBERIS                                                      000000000000000000N
031989101072006000001006TTIRSO PONS PONS                                                             000000000000000000N
031989101072010000002010TMARTIN JOSE ESCUDERO SIREROL                                                000000000000000000S
031989101072004000003004TANTONIO ANGLADA ANGLADA                                                     000000000000000000N
031989101072008000005008TMANUEL MUÑOZ DIAZ-MAROTO                                                    000000000000000000N
031989101072007000008007TCARLOS MORILLO CASALS                                                       000000000000000000N
031989101072003000017003TEUSEBIO CAPEL ROTGER                                                        000000000000000000N
031989101072001000027001TRAMON ENRIC CARRERAS TORRENT                                                000000000000000000N
031989101072009000033009TMARIA JUAN BENEJAM                                                          000000000000000000N
031989101072002000035002TJULIAN CANDEL MATAIX                                                        000000000000000000N
031989101072005000037005TANTONIO CASERO RODRIGUEZ                                                    000000000000000000N
031989101073007000001007TENRIQUE MAYANS TUR                                                          000000000000000000N
031989101073009000002009TALONSO MARI CALBET                                                          000000000000000000S
031989101073005000003005TFRANCISCO MAYANS CASTELLO                                                   000000000000000000N
031989101073010000005010TFLORENTINO DE LA HERAS MORENO                                               000000000000000000N
031989101073006000008006TPABLO VEGAS GOMEZ                                                           000000000000000000N
031989101073008000017008TANTONIO LOPEZ MARTINEZ                                                      000000000000000000N
031989101073004000027004TFRANCISCO SANCHEZ-ALARCOS OLIVARES                                          000000000000000000N
031989101073002000033002TANTONI CARDONA BONET                                                        000000000000000000N
031989101073001000035001TIGNACIO SANTOS ALVAREZ LOZANO                                               000000000000000000N
031989101073011000037011TMIGUEL RAMON JUAN                                                           000000000000000000N
031989101073003000113003TELSA GLUCK ROGG                                                             000000000000000000N
031989101351013000001013TCARMELO ARTILES BOLAÑOS                                                     000000000000000000S
031989101351014000001014TALFREDO HERRERA PIQUE                                                       000000000000000000S
031989101351022000002022TJOSE MACIAS SANTANA                                                         000000000000000000S
031989101351023000002023TADELINA DE LA TORRE BENITO                                                  000000000000000000N
031989101351007000003007TDOMINGO GUILLEN REYES                                                       000000000000000000N
031989101351008000003008TJOSE VICENTE LEON FERNANDEZ                                                 000000000000000000N
031989101351020000005020TVICENTE QUINTANA PEREZ                                                      000000000000000000N
031989101351021000005021TTEODORO SERAFIN SANTANA HERNANDEZ                                           000000000000000000N
031989101351016000006016TJUAN ANTONIO ARTILES NAVARRO                                                000000000000000000N
031989101351017000006017TFRANCISCO SALEM RODRIGUEZ                                                   000000000000000000N
031989101351001000008001TLUZ MARINA DOMINGUEZ GARCIA                                                 000000000000000000N
031989101351002000008002TJUAN ALBERTO HOLM FRIGOLA                                                   000000000000000000N
031989101351026000012026TLUIS FIDEL QUINTANA SUAREZ                                                  000000000000000000N
031989101351027000012027TMARIA DE LAS MERCEDES SANCHEZ SUAREZ                                        000000000000000000N
031989101351011000013011TALVARO MORENO VEGA                                                          000000000000000000N
031989101351024000014024TMARTIN PERESTELO SANGIL                                                     000000000000000000N
031989101351025000014025TCARLOS JOSE SUAREZ MACIA                                                    000000000000000000N
031989101351012000027012TJUAN SAMPER PEREZ                                                           000000000000000000N
031989101351028000039028TANTONIO F GONZALEZ VIEITEZ                                                  000000000000000000N
031989101351009000040009TJOSE LUIS MARRERO MARRERO                                                   000000000000000000N
031989101351010000040010TALBERTO ROBAYNA FERNANDEZ                                                   000000000000000000N
031989101351005000041005TCARMEN GLORIA MELIAN MACIAS                                                 000000000000000000N
031989101351006000041006TMARIA BEATRIZ VALLEJO RODRIGUEZ                                             000000000000000000N
031989101351018000042018TPEDRO LEZCANO MONTALVO                                                      000000000000000000N
031989101351019000042019TFRANCISCO ZUMAQUERO GARCIA                                                  000000000000000000N
031989101351015000043015TIGNACIO HILARIO GUERRA DEL ROSARIO                                          000000000000000000N
031989101351003000044003TJUAN GARCIA SANCHEZ                                                         000000000000000000N
031989101351004000044004TPASCUAL MOTA MARTINEZ                                                       000000000000000000N
031989101352003000001003TJUAN RAMIREZ MONTERO                                                        000000000000000000N
031989101352007000002007TDOMINGO NEGRIN ARMAS                                                        000000000000000000N
031989101352006000005006TCECILIA YOLANDA PEREZ MARTIN                                                000000000000000000N
031989101352004000006004TROBERTO ALFONSO SANTANA ALMEIDA                                             000000000000000000N
031989101352001000013001TALVARO LUIS MARTIN                                                          000000000000000000N
031989101352008000039008TJOSE DOMINGO HERNANDEZ ALVAREZ                                              000000000000000000N
031989101352005000042005TEDUARDO BARRETO BETANCOR                                                    000000000000000000N
031989101352002000046002TDIMAS MARTIN MARTIN                                                         000000000000000000S
031989101353006000001006TEUSTAQUIO JUAN SANTANA GIL                                                  000000000000000000N
031989101353009000002009TANTONIO PEÑA RODRIGUEZ                                                      000000000000000000N
031989101353003000003003TDOMINGO GONZALEZ ARROYO                                                     000000000000000000N
031989101353008000005008TRODOLFO JAVIER SANTANA HERNANDEZ                                            000000000000000000N
031989101353007000006007TANTONIO CARRERA SANTO                                                       000000000000000000N
031989101353004000013004TEUSTAQUIO SOLER ARMAS                                                       000000000000000000N
031989101353005000027005TJESUS PEREZ GUTIERREZ                                                       000000000000000000N
031989101353002000041002TILDEFONSO CHACON NEGRIN                                                     000000000000000000N
031989101353001000045001TGERARDO MESA NODA                                                           000000000000000000S
031989101384020000001020TALBERTO DE ARMAS GARCIA                                                     000000000000000000S
031989101384021000001021TJOSE SEGURA CLAVEL                                                          000000000000000000S
031989101384005000002005THONORIO FERNANDEZ DE LA TORRE                                               000000000000000000N
031989101384006000002006TIGNACIO MANUEL GONZALEZ MARTIN                                              000000000000000000N
031989101384013000003013TVICENTE MIGUEL ALVAREZ GIL                                                  000000000000000000N
031989101384014000003014TJUAN ANTONIO GARCIA TALAVERA CASAÑAS                                        000000000000000000N
031989101384017000005017TPEDRO DIAZ GONZALEZ                                                         000000000000000000N
031989101384003000006003TRAUL BRICIO CANALES                                                         000000000000000000N
031989101384004000006004TFELIPE ISMAEL GARCIA PEREZ                                                  000000000000000000N
031989101384024000008024TCARLOS BARRERA TRUJILLO                                                     000000000000000000N
031989101384025000008025TDOMINGO JOSE MEDINA FARRAY                                                  000000000000000000N
031989101384001000012001TFRANCISCO MANUEL GARCIA ALONSO                                              000000000000000000N
031989101384002000012002TJOSEFINA SUAREZ DIAZ                                                        000000000000000000N
031989101384009000013009TMARIA BELEN HERNANDEZ CANO                                                  000000000000000000N
031989101384010000013010TPEDRO MARTIN SOSA                                                           000000000000000000N
031989101384011000014011TMARIA INES DIAZ GOMEZ                                                       000000000000000000N
031989101384012000014012TLUIS EDUARDO DORNAK POGREBINSKY                                             000000000000000000N
031989101384007000027007TJESUS FELICIANO DORTA NEGRIN                                                000000000000000000N
031989101384008000027008TLUISA PAZ HERNANDEZ                                                         000000000000000000N
031989101384022000039022TVALENTIN HERNANDEZ VAQUERO                                                  000000000000000000N
031989101384023000039023TCARMELO VEGA ESPADA                                                         000000000000000000N
031989101384018000041018TMIGUEL ANGEL BARBUZANO GONZALEZ                                             000000000000000000S
031989101384019000041019TENRIQUE FERNANDEZ CALDAS                                                    000000000000000000N
031989101384015000042015TFRANCISCO CELSO AGUILAR TOPHAN                                              000000000000000000N
031989101384016000042016TJUAN MANUEL CASTAÑEDA CONTRERAS                                             000000000000000000N
031989101385005000001005TMANUEL MARCOS PEREZ HERNANDEZ                                               000000000000000000S
031989101385001000002001TJOSE E LUIS GONZALEZ AFONSO                                                 000000000000000000N
031989101385009000003009TVICTOR MIGUEL NAZCO HERNANDEZ                                               000000000000000000N
031989101385003000005003TELISA GARCIA BRAZUELO                                                       000000000000000000N
031989101385004000013004TCRISTOBAL MIGUEL CANO DELGADO                                               000000000000000000N
031989101385006000014006TMARIA CANDELARIA PEREZ SUAREZ                                               000000000000000000N
031989101385008000027008TJUAN BETANCOR SUAREZ                                                        000000000000000000N
031989101385007000039007TMIGUEL ANGEL PULIDO RODRIGUEZ                                               000000000000000000N
031989101385002000041002TLEON MANUEL ACOSTA NAZCO                                                    000000000000000000N
031989101386004000001004TRAMON JEREZ HERRERA                                                         000000000000000000S
031989101386007000002007TFLOR CATALINA SANCHEZ BARRERA                                               000000000000000000N
031989101386003000003003TMARIA ESTHER HERNANDEZ PADILLA                                              000000000000000000N
031989101386006000013006TJUAN EXPOSITO MELIAN                                                        000000000000000000N
031989101386001000014001TANTONIO RODRIGUEZ HERRERA                                                   000000000000000000N
031989101386008000027008TJOSE LUIS CANO HERRERA                                                      000000000000000000N
031989101386005000039005TZENAIDA NEGRIN ESTEVEZ                                                      000000000000000000N
031989101386002000041002TEVARISTO ARMAS ARTEAGA                                                      000000000000000000N
031989101387007000001007TJOSE FRANCISCO ARMAS PEREZ                                                  000000000000000000N
031989101387002000002002TLONGINOS MORALES PEREZ                                                      000000000000000000N
031989101387001000013001TJESUS VALENTIN PADRON FEBLES                                                000000000000000000N
031989101387004000014004TAGUSTINA TOMAS FERNANDEZ                                                    000000000000000000N
031989101387003000027003TJOSE MANUEL QUEVEDO TALAVERA                                                000000000000000000N
031989101387006000039006TAURELIO AYALA FONTE                                                         000000000000000000N
031989101387005000107005TVENANCIO ACOSTA PADRON                                                      000000000000000000S
031989101399028000001028TJAIME BLANCO GARCIA                                                         000000000000000000S
031989101399029000001029TJUAN GONZALEZ BEDOYA                                                        000000000000000000S
031989101399030000001030TMAXIMINO VALLE GARMENDIA                                                    000000000000000000S
031989101399001000002001TMODESTO CHATO DE LOS BUEYS                                                  000000000000000000N
031989101399002000002002TGUILLERMO GOMEZ MARTINEZ-CONDE                                              000000000000000000S
031989101399003000002003TNICANOR GUTIERREZ LOZANO                                                    000000000000000000N
031989101399006000003006TENRIQUE GUTIERREZ RIVAS                                                     000000000000000000N
031989101399007000003007TANICETO PELLON RODRIGUEZ                                                    000000000000000000N
031989101399008000003008TENRIQUE PERAITA FERNANDEZ                                                   000000000000000000N
031989101399013000004013TEMILIO JOSE CARRERA GONZALEZ                                                000000000000000000N
031989101399014000004014TJESUS MARIA MONTERO DELGADO                                                 000000000000000000N
031989101399015000004015TANTONIO ONTAÑON TOCA                                                        000000000000000000N
031989101399035000005035TJOSE BASILIO ARIETA CONTRERAS                                               000000000000000000N
031989101399036000005036TLUIS MIGUEL GARCIA FERNANDEZ                                                000000000000000000N
031989101399037000005037TMARIA DEL CARMEN ZAPATA VICTORERO                                           000000000000000000N
031989101399025000006025TANGEL BADIOLA ORTIZ                                                         000000000000000000N
031989101399026000006026THABENCIO REVUELTA CARAVES                                                   000000000000000000N
031989101399027000006027TPABLO TORRALBO SETIEN                                                       000000000000000000N
031989101399012000008012TPEDRO GOMEZ LEONES                                                          000000000000000000N
031989101399019000010019TALFREDO MARTINEZ ARRIARAN                                                   000000000000000000N
031989101399020000010020TRAMON FELIPE MUCIENTES DONAIRE                                              000000000000000000N
031989101399021000010021TPEDRO ZABALIA TELECHEA                                                      000000000000000000N
031989101399016000012016TMARIA ANGELES ARRIOLA PEREZ                                                 000000000000000000N
031989101399017000012017TCARMEN BLANCO PEÑA                                                          000000000000000000N
031989101399018000012018TMERCEDES RODRIGUEZ ROIZ                                                     000000000000000000N
031989101399004000013004TJESUS FRANCISCO VAZQUEZ MURIEDAS                                            000000000000000000N
031989101399032000015032TLUIS ANGEL COLLANTES NUÑEZ                                                  000000000000000000N
031989101399033000015033TMARIA INMACULADA SORAYA DIEZ PAUNERO                                        000000000000000000N
031989101399034000015034TIGNACIO MARCOS ALVAREZ                                                      000000000000000000N
031989101399031000017031TEMILIO NEGRETE ARES                                                         000000000000000000N
031989101399022000027022TMANUEL GARCIA PEDROSA                                                       000000000000000000N
031989101399023000027023TJOSE ANTONIO NAVARRO HARO                                                   000000000000000000N
031989101399024000027024TJESUS TELECHEA GONZALEZ                                                     000000000000000000N
031989101399009000047009TPABLO BURGOS GARCIA                                                         000000000000000000N
031989101399010000047010TANTONIO SAN EMETERIO RUIZ                                                   000000000000000000N
031989101399011000047011TVIRGINIA TERAN GUTIERREZ                                                    000000000000000000N
031989101399005000048005TGENOVEVA DIAZ SAÑUDO                                                        000000000000000000N
031989101029017000001017TMANUEL ANGEL AGUILAR BELDA                                                  000000000000000000S
031989101029018000001018TEMIGDIO MARTINEZ CATALAN                                                    000000000000000000S
031989101029019000001019TANGEL OROZCO GOMEZ                                                          000000000000000000S
031989101029010000002010TMANUEL ACACIO COLLADO                                                       000000000000000000S
031989101029011000002011TJOSE ALARCON MOLINA                                                         000000000000000000N
031989101029012000002012TNESTOR GARCIA PEREZ                                                         000000000000000000N
031989101029020000003020TMARIA DOLORES ANDUJAR TOMAS                                                 000000000000000000N
031989101029021000003021TJESUS ARTUÑEDO ALGUACIL                                                     000000000000000000N
031989101029022000003022TADOLFINO PALACIOS DIAZ                                                      000000000000000000N
031989101029014000004014TANDRES GOMEZ BETETA                                                         000000000000000000N
031989101029015000004015TJOSE MARIA LOPEZ ARIZA                                                      000000000000000000N
031989101029016000004016TROSARIO NAVARRO JIMENEZ                                                     000000000000000000N
031989101029005000005005TJUAN MIGUEL CUENCA LOPEZ                                                    000000000000000000N
031989101029006000005006TMANUEL ESCOBAR CANO                                                         000000000000000000N
031989101029007000005007TJOSE FERNANDEZ SOLA                                                         000000000000000000N
031989101029008000006008TJOSE RUIZ PALAZON                                                           000000000000000000N
031989101029013000008013TFRANCISCO JAVIER CALZADO GUERRERO                                           000000000000000000N
031989101029009000012009TISIDRO EXPOSITO DE LA ENCARNACION                                           000000000000000000N
031989101029004000013004TANGELES ARANDA MORENO                                                       000000000000000000N
031989101029001000027001TPEDRO BOLIVAR REVERTE                                                       000000000000000000N
031989101029002000027002TCESAREO CARRETERO MILLA                                                     000000000000000000N
031989101029003000027003TJOSE VICENTE GIMENEZ BENITEZ                                                000000000000000000N
031989101139014000001014TELENA FLORES VALENCIA                                                       000000000000000000S
031989101139015000001015TMARIA DE LOS ANGELES PEREZ MONTERO                                          000000000000000000S
031989101139016000001016TLORENZO SELAS CESPEDES                                                      000000000000000000S
031989101139007000002007TMARIA PILAR AYUSO GONZALEZ                                                  000000000000000000N
031989101139008000002008TFRANCISCO GIL ORTEGA RINCON                                                 000000000000000000S
031989101139009000002009TESTEBAN LOPEZ VEGA                                                          000000000000000000N
031989101139001000003001TCLEMENTE CUESTA SANTANDREU                                                  000000000000000000N
031989101139002000003002TEMILIANO LOZANO REAL                                                        000000000000000000N
031989101139003000003003TFERNANDO SECO GIL                                                           000000000000000000N
031989101139027000004027TMARIA ELENA GONZALEZ CARDENAS                                               000000000000000000N
031989101139028000004028TCAYO LARA MOYA                                                              000000000000000000N
031989101139029000004029TROSA MARIA RUBIO CASTILLO                                                   000000000000000000N
031989101139011000005011TENRIQUE CUENCA LOPEZ                                                        000000000000000000N
031989101139012000005012TESTEBAN JIMENEZ CABALLERO                                                   000000000000000000N
031989101139013000005013TISMAEL JIMENEZ SOTOS                                                        000000000000000000N
031989101139019000008019TRAMON FERNANDEZ GARCIA                                                      000000000000000000N
031989101139020000008020TSANTIAGO GARCIA CASTILLO                                                    000000000000000000N
031989101139021000008021TMANUEL PALACIOS FERNANDEZ                                                   000000000000000000N
031989101139026000010026TANTONIO ANTA GARCIA                                                         000000000000000000N
031989101139005000012005TPRESENTACION MARTIN-ONDARZA PARDO                                           000000000000000000N
031989101139006000012006TMIGUEL ANGEL MUÑOZ MODROÑO                                                  000000000000000000N
031989101139010000013010TPILAR CARRASCO AGUERO                                                       000000000000000000N
031989101139004000014004TJOSE MANUEL HERNANDEZ GARCIA                                                000000000000000000N
031989101139017000015017TJESUS MARIA BARRANCO HERVADA                                                000000000000000000N
031989101139018000015018TJUAN CARLOS VIANA ARRIBAS                                                   000000000000000000N
031989101139025000017025TIGNACIO JAVIER LOPEZ MARTINEZ                                               000000000000000000N
031989101139022000027022TSABAS ANTONIO BARAHONA RINCON                                               000000000000000000N
031989101139023000027023TBLAS CAÑIZARES CAMPALLO                                                     000000000000000000N
031989101139024000027024TPEDRO SANTOS SANCHEZ                                                        000000000000000000N
031989101169021000001021TJULIAN CORDOBA HUERTA                                                       000000000000000000S
031989101169022000001022TMARIA ANGELES DEL PILAR DIAZ VIECO                                          000000000000000000S
031989101169023000001023TJOSE MARTINEZ GUIJARRO                                                      000000000000000000S
031989101169017000002017TEULOGIO AGUDO CALLEJA                                                       000000000000000000N
031989101169018000002018TESTEBAN MALABIA RABADAN                                                     000000000000000000S
031989101169019000002019TREYES MARTINEZ GARCIA                                                       000000000000000000N
031989101169025000003025TFIDEL CARDETE MARTINEZ                                                      000000000000000000N
031989101169026000003026TSALVADOR MUÑOZ MUÑOZ                                                        000000000000000000N
031989101169027000003027TRAFAEL ROMERO URIBES                                                        000000000000000000N
031989101169001000004001TJUAN ANTONIO ARRANZ HERNANDO                                                000000000000000000N
031989101169002000004002TPRIMITIVO CANO CONTRERAS                                                    000000000000000000N
031989101169003000004003TCARMEN SEQUI ALPUENTE                                                       000000000000000000N
031989101169006000005006TANGEL BLANCO DEL OLMO                                                       000000000000000000N
031989101169007000005007TJULIO LEAL NAVARRO                                                          000000000000000000N
031989101169008000005008TVICENTE SOTODOSOS RUIZ                                                      000000000000000000N
031989101169004000006004TMIGUEL ARCAS MARTINEZ                                                       000000000000000000N
031989101169005000006005TPEDRO MONASOR MONASOR                                                       000000000000000000N
031989101169013000008013TROGELIO PARIS GOMEZ                                                         000000000000000000N
031989101169012000010012TJOSE MARIA GARCIA CORDON                                                    000000000000000000N
031989101169009000012009TFERNANDO BLANCO ELIZALDE                                                    000000000000000000N
031989101169010000012010TMARIA JOSEFINA CASTELOS IGLESIAS                                            000000000000000000N
031989101169011000012011TJAVIER GALLEGO RODRIGUEZ                                                    000000000000000000N
031989101169016000013016TMARIA ISABEL VELASCO ARANGUENA                                              000000000000000000N
031989101169024000015024TJESUS BERGOÑOS DEL REY                                                      000000000000000000N
031989101169020000017020TJULIO MORAN GARRIDO                                                         000000000000000000N
031989101169014000027014TMIGUEL GARCIA JIMENEZ                                                       000000000000000000N
031989101169015000027015TSEGUNDO ADRIANO GIMENEZ ARCE                                                000000000000000000N
031989101199001000001001TFRANCISCO JAVIER LOPEZ GARCIA                                               000000000000000000S
031989101199002000001002TANTONIO MARCO MARTINEZ                                                      000000000000000000N
031989101199003000001003TMARIANO TERUEL ARRAZOLA                                                     000000000000000000N
031989101199032000002032TJOSE MARIA BRIS GALLEGO                                                     000000000000000000S
031989101199033000002033TLUIS MANUEL FRAGA EGUSQUIAGUIRRE                                            000000000000000000S
031989101199034000002034TRAFAEL HERNANDO FRAILE                                                      000000000000000000S
031989101199015000003015TPEDRO FERNANDEZ FERNANDEZ                                                   000000000000000000N
031989101199016000003016TJOSE LUIS GARCIA SANCHO                                                     000000000000000000N
031989101199017000003017TRAFAEL MARCOS MARTIN                                                        000000000000000000N
031989101199004000004004TMARIA DEL SOCORRO APARICIO PRIETO                                           000000000000000000N
031989101199005000004005TJOSE MARIA GIL GARCIA                                                       000000000000000000N
031989101199006000004006TJUAN TAVIRA GOLAS                                                           000000000000000000N
031989101199029000005029TLORENZO BARROSO MONTAÑA                                                     000000000000000000N
031989101199030000005030TMARGARITA CLAVO MARTIN                                                      000000000000000000N
031989101199031000005031TARSENIO VIYUELA ALONSO                                                      000000000000000000N
031989101199025000006025TAMADO APARICIO HUETE                                                        000000000000000000N
031989101199026000006026TSEBASTIAN HENCHE GARCIA                                                     000000000000000000N
031989101199027000006027TEMILIO MARQUETA GARCIA                                                      000000000000000000N
031989101199010000008010TLAURA BASALO BLANCO                                                         000000000000000000N
031989101199014000010014TNURIA JIMENEZ PALOP                                                         000000000000000000N
031989101199011000012011TJOSE LASO DURO                                                              000000000000000000N
031989101199012000012012TMIGUEL LOPEZ MUÑOZ                                                          000000000000000000N
031989101199013000012013TANTONIO MATA BLANCO                                                         000000000000000000N
031989101199018000013018TCONSUELO DURAN CASCALES                                                     000000000000000000N
031989101199019000013019TIGNACIO JAEN URUEÑA                                                         000000000000000000N
031989101199020000013020TMARIA LUISA MARIN MARTINEZ                                                  000000000000000000N
031989101199028000017028TBALBINO MARTIN MARTINEZ                                                     000000000000000000N
031989101199022000049022TJUAN CARLOS BENITO DE FRIAS                                                 000000000000000000N
031989101199023000049023TANGEL CRUZ MARTINEZ YELA                                                    000000000000000000N
031989101199024000049024TJULIO SANZ RETUERTA                                                         000000000000000000N
031989101199021000113021TASUNCION PEREZ RUIZ                                                         000000000000000000N
031989101199007000115007TNATIVIDAD CALVO ARAGON                                                      000000000000000000N
031989101199008000115008TMANUEL GARCIA MORENO                                                        000000000000000000N
031989101199009000115009TRAFAEL PRADO CALVO                                                          000000000000000000N
031989101459022000001022TALFREDO ARIJA HERNANDEZ                                                     000000000000000000S
031989101459023000001023TJESUS FUENTES LAZARO                                                        000000000000000000S
031989101459024000001024TELADIO LUJAN AGUDO                                                          000000000000000000S
031989101459001000002001TCESAR DE MIGUEL LOPEZ                                                       000000000000000000S
031989101459002000002002TMARIA ANGELES NUÑEZ CANO                                                    000000000000000000N
031989101459003000002003TJESUS MARIA RUIZ-AYUCAR ALONSO                                              000000000000000000N
031989101459010000003010TCARLOS GRANDA LANZAROT                                                      000000000000000000N
031989101459011000003011TJUAN ROJO VALLEJO                                                           000000000000000000N
031989101459012000003012TMARIA DEL CARMEN VALDIZAN VALLEDOR                                          000000000000000000N
031989101459016000004016TANGEL DORADO BADILLO                                                        000000000000000000N
031989101459017000004017TDANIEL PATON ALVAREZ                                                        000000000000000000N
031989101459018000004018TPEDRO TELLO DIAZ-MAROTO                                                     000000000000000000N
031989101459025000005025TPAULINA DE LAS MATAS ALONSO                                                 000000000000000000N
031989101459026000005026TALVARO RACAJ MORATO                                                         000000000000000000N
031989101459027000005027TANTONIO VITORA CARNEROS                                                     000000000000000000N
031989101459007000008007TIGNACIO CALERO HERNANDEZ                                                    000000000000000000N
031989101459008000008008TRAFAEL FERNANDEZ-CALEYA RIFE                                                000000000000000000N
031989101459009000008009TMARIA TERESA DE GRACIA HERNANDEZ-SAINZ                                      000000000000000000N
031989101459020000010020TCONCEPCION FAU DONAT                                                        000000000000000000N
031989101459013000012013TMARIA BEGOÑA JIMENEZ SANCHEZ                                                000000000000000000N
031989101459014000012014TJAVIER OJEDA MUÑOZ                                                          000000000000000000N
031989101459021000013021TMARIA DEL CARMEN MAYORAL MARTIN                                             000000000000000000N
031989101459019000027019TFRANCISCO JAVIER RODRIGUEZ GOMEZ PIMPOLLO                                   000000000000000000N
031989101459004000103004TJESUS BARROSO GARCIA                                                        000000000000000000N
031989101459005000103005TJESUS GARCIA SOBRINO                                                        000000000000000000N
031989101459006000103006TMARIANO RALERO TOLON                                                        000000000000000000N
031989101459015000113015TIVAN GARCIA OROBENGOA                                                       000000000000000000N
031989101059019000001019TJOSE LUIS BLAZQUEZ CANALES                                                  000000000000000000N
031989101059020000001020TAMPARO ORTIZ MARTIN                                                         000000000000000000N
031989101059021000001021TJESUS RIVERA CORDOBA                                                        000000000000000000N
031989101059001000002001TANGEL ACEBES PANIAGUA                                                       000000000000000000S
031989101059002000002002TAGUSTIN DIAZ DE MERA GARCIA CONSUEGRA                                       000000000000000000S
031989101059003000002003TJESUS TERCIADO SERNA                                                        000000000000000000S
031989101059023000003023TFERNANDO ALCON SAEZ                                                         000000000000000000N
031989101059024000003024TALBERTO MANUEL DORREGO GONZALEZ                                             000000000000000000S
031989101059025000003025TCELSO RODRIGUEZ LEGIDO                                                      000000000000000000N
031989101059027000004027TBENITO CAÑADAS MUÑOZ                                                        000000000000000000N
031989101059028000004028TEDDY D'ORLEANS JULIEN                                                       000000000000000000N
031989101059029000004029TSANTIAGO JIMENEZ GOMEZ                                                      000000000000000000N
031989101059015000005015TMARIA JESUS DIAZ FERNANDEZ                                                  000000000000000000N
031989101059016000005016TERNESTO CRESPO DEL PINO                                                     000000000000000000N
031989101059017000005017TJUAN JOSE MIGUEL ARRANZ                                                     000000000000000000N
031989101059004000006004TCARLOS JAVIER GALAN GUTIERREZ                                               000000000000000000N
031989101059012000008012TJAVIER MARTIN-DELGADO ESTEBAN                                               000000000000000000N
031989101059013000008013TFELIX MENESES SANCHEZ                                                       000000000000000000N
031989101059014000008014TFRANCISCO JOSE MIGUEL COLLADO                                               000000000000000000N
031989101059018000010018TDAVID RAMOS BARRERA                                                         000000000000000000N
031989101059009000013009TMARIA DEL CARMEN CASADO NAVARRO                                             000000000000000000N
031989101059010000013010TFERNANDO SANZ MUÑOZ                                                         000000000000000000N
031989101059011000013011TIGNACIO GIL PARRAS                                                          000000000000000000N
031989101059008000014008TFERNANDO REY MARFULL                                                        000000000000000000N
031989101059022000017022TMARIA PILAR SAN GERMAN ZORRILLA DE SAN MARTIN                               000000000000000000N
031989101059026000051026TMARIA BELEN COSME PATROCINIO                                                000000000000000000N
031989101059005000116005TMARIA TERESA DOMENECH TRADELL                                               000000000000000000N
031989101059006000116006TMARIANO MARTIN GALLEGO                                                      000000000000000000N
031989101059007000116007TGINES MARTINEZ SERRANO                                                      000000000000000000N
031989101099020000001020TJUAN JOSE LABORDA MARTIN                                                    000000000000000000S
031989101099021000001021TJULIAN SIMON ROMANILLOS                                                     000000000000000000N
031989101099022000001022TLEONISA ULL LAITA                                                           000000000000000000N
031989101099014000002014TALBERTO GALERON DE MIGUEL                                                   000000000000000000S
031989101099015000002015TPEDRO MARTIN IGLESIAS                                                       000000000000000000S
031989101099016000002016TPILAR URZAY UZQUIZA                                                         000000000000000000S
031989101099002000003002TMARIA PURIFICACION BUSTO SAIZ                                               000000000000000000N
031989101099003000003003TANTONIO VALVERDE ORTEGA                                                     000000000000000000N
031989101099004000003004TJOSE MARIA VILLEGAS MERINO                                                  000000000000000000N
031989101099011000004011TBERNARDO MARTINEZ MARCOS                                                    000000000000000000N
031989101099012000004012TMAXIMO PASTOR ALONSO                                                        000000000000000000N
031989101099013000004013TJOSE MARIA SANTAMARTA LASURTEGUI                                            000000000000000000N
031989101099007000005007TMIGUEL ANGEL AYALA BLANCO                                                   000000000000000000N
031989101099008000005008TDIEGO BARAZA URAN                                                           000000000000000000N
031989101099009000005009TMARIA ROSARIO GONZALEZ DIEZ                                                 000000000000000000N
031989101099005000006005TANTONIO BREVA FERRER                                                        000000000000000000N
031989101099006000006006TEVA CASTAÑEDA MARTIN                                                        000000000000000000N
031989101099017000008017TMIGUEL ANGEL GONZALEZ PEREZ                                                 000000000000000000N
031989101099001000013001TJOSE MANUEL LOPEZ DIEZ                                                      000000000000000000N
031989101099018000027018TMARIANO CRUZ CAÑIZARES                                                      000000000000000000N
031989101099019000027019TMIGUEL ANGEL ORTEGA SANZ                                                    000000000000000000N
031989101099010000051010TCRISTINA CARREÑO LUENGO                                                     000000000000000000N
031989101249014000001014TMARIA NIEVES FERNANDEZ RABANAL                                              000000000000000000S
031989101249015000001015TDANIEL GARCIA SANCHEZ                                                       000000000000000000S
031989101249016000001016TCELSO LOPEZ GAVELA                                                          000000000000000000S
031989101249027000002027TMARIO AMILIVIA GONZALEZ                                                     000000000000000000N
031989101249028000002028TJAIME LOBO ASENJO                                                           000000000000000000S
031989101249029000002029TMARIA DOLORES OTERO RODRIGUEZ DE LAS HERAS                                  000000000000000000N
031989101249018000003018TMARIA TERESA JOVITA ARIAS GUTIERREZ                                         000000000000000000N
031989101249019000003019TVICTOR GARCIA VALBUENA                                                      000000000000000000N
031989101249020000003020TMATIAS ROBLES PUENTE                                                        000000000000000000N
031989101249009000004009TVICENCIO GOMEZ MENDEZ                                                       000000000000000000N
031989101249010000004010TANA MARIA RODRIGUEZ ALONSO                                                  000000000000000000N
031989101249011000004011TMAXIMO VELADO HERRERAS                                                      000000000000000000N
031989101249004000005004TJUAN JOSE MANSO SANCHEZ                                                     000000000000000000N
031989101249005000005005TJULIO MIRALLES GARCIA                                                       000000000000000000N
031989101249006000005006TMIGUEL ANGEL SANCHEZ ORTEGA                                                 000000000000000000N
031989101249007000006007TMARIA JOSEFA DEL PILAR GONZALEZ CRESPO                                      000000000000000000N
031989101249008000006008TMANUEL REIGOSA GACIO                                                        000000000000000000N
031989101249024000008024TJOSE MARIA FRANGANILLO FERNANDEZ                                            000000000000000000N
031989101249025000008025TROMAN GONZALEZ DIEZ                                                         000000000000000000N
031989101249026000008026TFRANCISCO VALCARCEL TOSAR                                                   000000000000000000N
031989101249013000010013TMIGUEL ANGEL FERNANDEZ MARTIN                                               000000000000000000N
031989101249017000013017TMARIA PILAR GONZALEZ SIMON                                                  000000000000000000N
031989101249012000014012TRAMIRO PINTO CAÑON                                                          000000000000000000N
031989101249001000027001TANGEL FERNANDEZ ARIAS                                                       000000000000000000N
031989101249002000027002TJOSE FUENTE MAROTE                                                          000000000000000000N
031989101249003000027003TANTONIO LOPEZ DIEZ                                                          000000000000000000N
031989101249021000051021TFERNANDO CANDANEDO SANTAMARIA                                               000000000000000000N
031989101249022000051022TMANUEL MATILLA PEREZ                                                        000000000000000000N
031989101249023000051023TFELICISIMO PEDRO ONTANILLA GONZALEZ                                         000000000000000000N
031989101349012000001012THELIODORO GALLEGO CUESTA                                                    000000000000000000S
031989101349013000001013TAGUSTIN MANRIQUE GONZALEZ                                                   000000000000000000N
031989101349014000001014TEUSEBIO JESUS SANTOS DE LA MOTA                                             000000000000000000N
031989101349006000002006TFELIPE CALVO CALVO                                                          000000000000000000S
031989101349007000002007TJOSE LUIS LOPEZ HENARES                                                     000000000000000000S
031989101349008000002008TJOSE ANTONIO SACRISTAN RODRIGUEZ                                            000000000000000000S
031989101349015000003015TPEDRO PABLO ABAD HERNAN                                                     000000000000000000N
031989101349016000003016TMARIANO HARO CISNEROS                                                       000000000000000000N
031989101349017000003017TMARIA MARINA SANCHEZ GARCIA                                                 000000000000000000N
031989101349020000004020TALBINO ALAEZ URDIALES                                                       000000000000000000N
031989101349021000004021TMANUEL ALVAREZ RODRIGUEZ                                                    000000000000000000N
031989101349022000004022TSOCORRO ANTOLINEZ GARCIA                                                    000000000000000000N
031989101349009000005009TANGEL APARICIO MOLAGUERO                                                    000000000000000000N
031989101349010000005010TMANUEL HERRERO ARRIBAS                                                      000000000000000000N
031989101349011000005011TROSA MARIA RUIZ MACHO                                                       000000000000000000N
031989101349002000006002TENRIQUE RUIZ RUIZ                                                           000000000000000000N
031989101349024000010024TROSARIO BATANERO ALBERTOS                                                   000000000000000000N
031989101349001000013001TEDURNE CASAS GUTIERREZ                                                      000000000000000000N
031989101349023000014023TFERNANDO ESCOBAR OCHOTORENA                                                 000000000000000000N
031989101349019000017019TFEDERICO VILLA NIETO                                                        000000000000000000N
031989101349003000027003TSANTIAGO DIEZ MONGE                                                         000000000000000000N
031989101349004000027004TJOSE ANTONIO GONZALEZ BARBERA                                               000000000000000000N
031989101349005000027005TDELFIN JAIME CEBOLLADA                                                      000000000000000000N
031989101349018000051018TISAURA MARTIN GALAN                                                         000000000000000000N
031989101379018000001018TJOSE CASTRO RABADAN                                                         000000000000000000S
031989101379019000001019TENRIQUE CLEMENTE CUBILLAS                                                   000000000000000000N
031989101379020000001020TJUAN JOSE REAL OLIVA                                                        000000000000000000N
031989101379029000002029TCASIMIRO HERNANDEZ CALVO                                                    000000000000000000S
031989101379030000002030TJOAQUIN MARTIN HERNANDEZ                                                    000000000000000000S
031989101379031000002031TALEJANDRO MEANA FERRAJON                                                    000000000000000000S
031989101379002000003002TMANUEL JESUS DOMINGUEZ SANCHEZ                                              000000000000000000N
031989101379003000003003TJOSE MANUEL GOMEZ GUTIERREZ                                                 000000000000000000N
031989101379004000003004TBALTASAR VICENTE USABEL                                                     000000000000000000N
031989101379005000004005TDIONISIO ALONSO GUTIERREZ                                                   000000000000000000N
031989101379006000004006TMONSERRAT RODRIGUEZ Y CALDERON                                              000000000000000000N
031989101379007000004007TANTONIO LUIS SAMANIEGO SASTRE                                               000000000000000000N
