032015121049004000166001TJuan Carlos              Pérez                    Navas                    M00000000          S
032015121049005000166002TRosa María               Pintos                   Muñoz                    F00000000          N
032015121049006000166003TJosé                     Berruezo                 Padilla                  M00000000          N
032015121049016000178001TJesús                    Vicente                  Soler                    M00000000          N
032015121049017000178002TJuan Jesús               Cano                     Castañeda                M00000000          N
032015121049018000178003TRosa                     Alcaraz                  Pardo                    F00000000          N
032015121049001000187001TLuis Rogelio             Rodríguez Comendador     Pérez                    M00000000          S
032015121049002000187002TEugenio Jesús            Gonzálvez                García                   M00000000          S
032015121049003000187003TMaría Isabel             Sánchez                  Torregrosa               F00000000          S
032015121049027000194001TVíctor                   Mane                     Rodríguez                M00000000          N
032015121049010000293001TJuan                     Moreno                   Gómez                    M00000000          N
032015121049011000293002TAlicia                   Cifuentes                Salazar                  F00000000          N
032015121049012000293003TLaura                    Rodríguez-Carretero      Romera                   F00000000          N
032015121049013000340001TRubén                    Martínez                 Alonso                   M00000000          N
032015121049021000752001TAmanda                   Toledo                   Gómez                    F00000000          N
032015121049022000752002TFrancisco Javier         Tortosa                  Gil                      M00000000          N
032015121049023000752003TMaría del Carmen         Maldonado                Ureña                    F00000000          N
032015121049024001025001TConsuelo                 Sardón                   Montoya                  F00000000          N
032015121049025001025002TRamiro José              Téllez                   Sanz                     M00000000          N
032015121049026001025003TJosé Francisco           Berenguel                Gutiérrez                M00000000          N
032015121049014001129001TMónica                   Fernández                Amador                   F00000000          N
032015121049015001129002TLuis Jesús               López                    Pérez                    M00000000          N
032015121049019001203001TZenaida                  Gonzáles                 Cerón                    F00000000          N
032015121049007001242001TDavid                    García                   Del Valle                M00000000          N
032015121049008001242002TTeresa                   Novo                     García                   F00000000          N
032015121049009001242003TEnrique Luis             Usoz                     Chaparro                 M00000000          N
032015121049020001306001TJesús                    Navarro                  Selfa                    M00000000          N
032015121119004000057001TFrancisco                González                 Cabaña                   M00000000          S
032015121119005000057002TMaría Dolores            Naval                    Zarazaga                 F00000000          N
032015121119006000057003TFrancisco Manuel         Lara                     Fernández                M00000000          N
032015121119024000177001TMaría Jesús              García                   Tovar                    F00000000          N
032015121119025000177002TCarlos                   Pérez                    González                 M00000000          N
032015121119026000177003TFrancisco                López                    García                   M00000000          N
032015121119001000182001TJosé Ignacio             Landaluce                Calleja                  M00000000          S
032015121119002000182002TMaría José               De Alba                  Castiñeiras              F00000000          S
032015121119003000182003TJosé                     Ortiz                    Galván                   M00000000          S
032015121119010000404001TManuel                   Villalpando              Chanivet                 M00000000          N
032015121119011000404002TAmalia                   García                   López                    F00000000          N
032015121119012000404003TMaría del Carmen         Pérez                    Cortejosa                F00000000          N
032015121119013000490001TLuis Alberto             Lozano                   Rodríguez                M00000000          N
032015121119014000490002TCristina                 Ibáñez                   Pozo                     F00000000          N
032015121119015000490003TManuel                   Menéndez                 Álvarez-Dardet           F00000000          N
032015121119023000664001TEugenio                  Naranjo                  Sánchez                  M00000000          N
032015121119016000728001TAntonio                  Roldán                   Pozo                     M00000000          N
032015121119020000842001TAntonio                  Palomar                  García                   M00000000          N
032015121119021000842002TNatalia                  López-Azcutia            Busto                    F00000000          N
032015121119022000842003TSalvador                 Hueso                    Sañudo                   M00000000          N
032015121119017000861001TMaría Emma               Martín                   Díaz                     F00000000          N
032015121119018000861002TMercedes Gema            Jiménez                  Álvarez                  F00000000          N
032015121119019000861003TAnton Gilen              Haidl                    Dietlmeier               M00000000          N
032015121119007000945001TGonzalo                  Álias                    Gurría                   M00000000          N
032015121119008000945002TIsabel María             Fernández                Orihuela                 F00000000          N
032015121119009000945003TPedro Jesús              Carrero                  González                 M00000000          N
032015121119027001140001TFrancisco Javier         Jiménez                  Algora                   M00000000          N
032015121149001000063001TMaría Beatriz            Jurado                   Fernández de Córdoba     F00000000          S
032015121149002000063002TJesús Ramón              Aguirre                  Muñoz                    M00000000          N
032015121149003000063003TFernando                 Priego                   Chacón                   M00000000          N
032015121149004000076001TJosé Manuel              Mármol                   Servián                  M00000000          S
032015121149005000076002TMaría de la Salud        Navajas                  González                 F00000000          S
032015121149006000076003TJuan                     Díaz                     Caballero                M00000000          S
032015121149026000302001TAna María                Sánchez                  García                   F00000000          N
032015121149027000302002TManuel                   de Toro                  Costa                    M00000000          N
032015121149028000302003TNoelia                   Amador                   Burgos                   F00000000          N
032015121149010000315001TEmilio Juan Manuel       Sánchez                  Caballero                M00000000          N
032015121149011000315002TAna Isabel               Gómez                    Gómez                    F00000000          N
032015121149012000315003TLorenzo                  Aguilar                  Tabernero                M00000000          N
032015121149017000564001TAntonio                  Zurera                   Cañadillas               M00000000          N
032015121149018000564002TMaría del Carmen         Fernández                Martín                   F00000000          N
032015121149019000564003TFrancisco                Cejas                    Moreno                   M00000000          N
032015121149022000606001TFrancisco Genaro         Garrido                  Jiménez                  M00000000          N
032015121149023000606002TIsidoro                  García-Escribano         Acedo                    M00000000          N
032015121149024000606003TMaría del Carmen         Jaime                    Mena                     F00000000          N
032015121149007000776001TMaría Josefa             Bravo                    Rodríguez                F00000000          N
032015121149008000776002TJuan                     Merino                   Cañasveras               M00000000          N
032015121149009000776003TAntonia                  Naranjo                  Carmona                  F00000000          N
032015121149013000845001TMaría del Mar            Díaz                     Polonio                  F00000000          N
032015121149014000845002TFrancisco                Infante                  Lisarte                  M00000000          N
032015121149015001075001TMercedes                 Jiménez                  Ortiz                    F00000000          N
032015121149016001075002TManuel                   Lara                     Tejada                   M00000000          N
032015121149020001172001TMaría Alegría            Jiménez                  Abao                     F00000000          N
032015121149021001172002TJosé Manuel              Blanco                   Gómez                    M00000000          N
032015121149025001265001TFelix                    Caballero                Parreño                  M00000000          N
032015121189004000148001TJosé                     Martínez                 Olmos                    M00000000          S
032015121189005000148002TAna María                Gámez                    Tapias                   F00000000          S
032015121189006000148003TJosé María               Rueda                    Gómez                    M00000000          N
032015121189001000150001TSebastián Jesús          Pérez                    Ortiz                    M00000000          S
032015121189002000150002TLuis                     González                 Ruiz                     M00000000          N
032015121189003000150003TMaría Rocío              Díaz                     Jiménez                  F00000000          S
032015121189017000151001TAntonio Francisco        Suárez                   García                   M00000000          N
032015121189018000151002TSilvia                   Torres                   Contreras                F00000000          N
032015121189019000151003TFrancisco Javier         Cardenete                Herrera                  M00000000          N
032015121189016000152001TMiguel                   López                    Martínez                 M00000000          N
032015121189013000224001TRaquel                   Cabrerizo                Contreras                F00000000          N
032015121189014000224002TFrancisco José           Biedma                   Ortiz                    M00000000          N
032015121189015000224003TAna                      Martín                   Sánchez                  F00000000          N
032015121189010000449001TCarlos Jesús             Pérez                    Márquez                  M00000000          N
032015121189011000449002TMaría Inmaculada         Ruiz                     Felipe                   F00000000          N
032015121189012000449003TAlejandro                Zurita                   Martínez                 M00000000          N
032015121189025001210001TJesús María              Del Río                  Sánchez                  M00000000          N
032015121189026001210002TMaría Dolores            Vico                     Muñoz                    F00000000          N
032015121189027001210003TAntonio                  Daponte                  Codina                   M00000000          N
032015121189028001247001TIgnacio                  Nogueras                 Rodríguez                M00000000          N
032015121189020001273001TMaría Begoña             López                    Hernández                F00000000          N
032015121189021001273002TÁlvaro Luis              Salvador                 Jofre                    M00000000          N
032015121189022001298001TMaría Carmen             Dorador                  Contreras                F00000000          N
032015121189023001298002TEloy                     Gil                      López                    M00000000          N
032015121189024001298003TJosé Ignacio             Sánchez                  Rubio                    M00000000          N
032015121189007001341001TEva María                Fernández                Alberto                  F00000000          N
032015121189008001341002TJosefa                   Alganza                  Roldán                   F00000000          N
032015121189009001341003TJosé Antonio             Martín                   Rodríguez                M00000000          N
032015121219004000503001TManuel                   Guerra                   González                 M00000000          S
032015121219005000503002TAna María                Pérez                    Castilleja               F00000000          S
032015121219006000503003TAmaro                    Huelva                   Betanzos                 M00000000          S
032015121219013000657001TSebastián                Gómez                    Corrales                 M00000000          N
032015121219014000657002TMaría Amparo             Merina                   Ávila                    F00000000          N
032015121219015000657003TRogelio                  Rodríguez                Martín                   M00000000          N
032015121219021000750001TJuan José                Dionisio                 Vázquez                  M00000000          N
032015121219022000750002TMaría de los Ángeles     Muriel                   Rodríguez                F00000000          N
032015121219023000750003TIgnacio                  Ramírez                  Millán                   M00000000          N
032015121219027001107001TGregorio                 Bermejo                  Sánchez                  M00000000          N
032015121219007001154001TMaría José               Beiras                   Torrado                  F00000000          N
032015121219008001154002TCarmelo                  Cumbrera                 Santana                  M00000000          N
032015121219009001154003TMiguel Ángel             Gea                      Rifá                     M00000000          N
032015121219001001170001TMaría Dolores            López                    Gabarro                  F00000000          S
032015121219002001170002TMaría Soledad            Guadamillas              Mora                     F00000000          N
032015121219003001170003TPedro                    Yórquez                  Sancha                   M00000000          N
032015121219024001230001TJosefa                   Gallardo                 Santos                   F00000000          N
032015121219025001230002TAurelio                  González                 Peris                    M00000000          N
032015121219026001230003TLourdes                  Navarro                  Gandullo                 F00000000          N
032015121219016001314001TJosé Carlos              Santana                  Rodríguez                M00000000          N
032015121219020001332001TJosé Antonio             González                 Vaz                      M00000000          N
032015121219010001335001TJosé María               Ramírez                  Salas                    M00000000          N
032015121219011001335002TMaría del Rocío          Ortega                   Cumbreras                F00000000          N
032015121219012001335003TJuan José                Carabelos                Ferreira                 M00000000          N
032015121219017001337001TRafael                   Segovia                  Brome                    M00000000          N
032015121219018001337002TEligio                   Taboada                  Medero                   M00000000          N
032015121219019001337003TMaría Del Carmen         Morales                  Escuder                  F00000000          N
032015121239004000061001TLaura                    Berja                    Vega                     F00000000          S
032015121239005000061002TDavid                    Delgado                  Jiménez                  M00000000          S
032015121239006000061003TPío Rómulo               Zelaya                   Castro                   M00000000          S
032015121239022000069001TRocío                    Román                    Labrador                 F00000000          N
032015121239023000069002TVirginia                 Rodríguez                Sánchez                  F00000000          N
032015121239024000069003TAndrés                   Carmona                  Ruiz                     M00000000          N
032015121239030000075001TDolores                  Ciudad                   Campoy                   F00000000          N
032015121239031000075002TGabriel                  Soria                    Díaz                     M00000000          N
032015121239032000075003TAntonio                  Sutil                    Montero                  M00000000          N
032015121239001000097001TGabino                   Puche                    Rodríguez-Acosta         M00000000          S
032015121239002000097002TJuana María              Jiménez                  Cano                     F00000000          N
032015121239003000097003TJosé Juan                Sánchez                  Barrera                  M00000000          N
032015121239010000621001TRaúl Alberto             García                   Anguita                  M00000000          N
032015121239011000621002TJuana                    Gutiérrez                Montiel                  F00000000          N
032015121239012000621003TIsabel                   Gea                      Mora                     F00000000          N
032015121239013000632001TMaría Isabel             Rodríguez                Peralta                  F00000000          N
032015121239014000632002TDavid                    Diez                     Losa                     M00000000          N
032015121239015000632003TIsabel María             Muñoz                    Fortes                   F00000000          N
032015121239019000662001TLuis                     Ortiz                    Fernández                M00000000          N
032015121239020000662002TMarta                    Chinchilla               García                   F00000000          N
032015121239007000732001TJuana                    Cazorla                  Ruiz                     F00000000          N
032015121239008000732002TMaría Soledad            Gutiérrez                Liébana                  F00000000          N
032015121239009000732003TVictor Manuel            Medina                   González                 M00000000          N
032015121239021000848001TBeatriz                  Villar                   Caballero                F00000000          N
032015121239026000859001TJosé Miguel              López                    López                    M00000000          N
032015121239027000859002TRosario                  Matitos                  Rodríguez                F00000000          N
032015121239028000859003TJuan Manuel              Aleo                     Nebrera                  M00000000          N
032015121239025001092001TMaría Teresa             García                   Recena                   F00000000          N
032015121239016001110001TMaría Magdalena          Puentedura               Pérez                    F00000000          N
032015121239017001110002TInmaculada               Sánchez                  Hurtado                  F00000000          N
032015121239018001110003TPablo Francisco          Quevedo                  Cespedes                 M00000000          N
032015121239029001135001TCarlos Julián            Arjona                   Gómez                    M00000000          N
032015121299013000116001TNoemí                    Pérez                    Carrasco                 F00000000          N
032015121299014000116002TAgustín                  González                 Ferreiros                M00000000          N
032015121299015000116003TMarcos Manuel            Navarro                  García                   M00000000          N
032015121299004000199001TAntonio                  Morales                  Lázaro                   M00000000          S
032015121299005000199002TDeborah                  León                     Artacho                  F00000000          N
032015121299006000199003TFrancisco                Muñoz                    Rico                     M00000000          N
032015121299001000200001TMaría Ángeles            Muñoz                    Uriol                    F00000000          S
032015121299002000200002TJoaquín Luis             Ramírez                  Rodríguez                M00000000          S
032015121299003000200003TAvelino                  de Barrionuevo           Gener                    M00000000          S
032015121299029000350001TMaría Luisa              Valero                   González                 F00000000          N
032015121299030000350002TJesús                    Pérez-Lanzac             Muela                    M00000000          N
032015121299031000350003TMaría Isabel             Balbin                   Luque                    F00000000          N
032015121299010000478001TJosé Luis                Narbona                  Sánchez                  M00000000          N
032015121299011000478002TFrancisco                Pascual                  Vázquez                  M00000000          N
032015121299012000478003TMaría de la Paloma       Hidalgo de Caviedes      Moran                    F00000000          N
032015121299016000533001TMaría Iluminada          Ordóñez                  Casado                   F00000000          N
032015121299017000533002TJuan Manuel              Fernández                Martín                   M00000000          N
032015121299018000533003TCristóbal                Pérez                    Anaya                    M00000000          N
032015121299007000709001TManuel                   Sánchez                  Vicioso                  M00000000          N
032015121299008000709002TBerta                    Guerrero                 Bravo                    F00000000          N
032015121299009000709003TManuel                   Matas                    Padilla                  M00000000          N
032015121299032000735001TJuan Manuel              Luque                    González                 M00000000          N
032015121299022001120001TAna Cruz                 García                   Azcárate                 F00000000          N
032015121299023001120002TMaría Isabel             Pérez                    Hírvonen                 F00000000          N
032015121299024001120003TÁngel                    Requena                  Fraile                   M00000000          N
032015121299019001310001TFrancisco José           Rodríguez                Marín                    M00000000          N
032015121299020001310002TRafael                   Núñez                    Ruiz                     M00000000          N
032015121299021001310003TMaría del Carmen         Casán                    Ortega                   F00000000          N
032015121299025001344001TFrancisco de Asís        García                   Fortes                   M00000000          N
032015121299026001344002TEugenio                  Moltó                    García                   M00000000          N
032015121299027001344003TMaría Fernanda           Fontanellas              Crespo                   F00000000          N
032015121299028001358001TArmando                  Robles                   Valenzuela               M00000000          N
032015121419001000040001TJuan Carlos José         Raffo                    Camarillo                M00000000          S
032015121419002000040002TMaría José               Fernández                Muñoz                    F00000000          S
032015121419003000040003TAntonio Casimiro         Gavira                   Moreno                   M00000000          S
032015121419004000046001TJosé Luis                Sanz                     Ruíz                     M00000000          S
032015121419005000046002TMaría Carmen             Rodríguez                Hornillo                 F00000000          N
032015121419006000046003TAndrés                   Parrado                  Parra                    M00000000          N
032015121419026000089001TPablo Emérito            Cambronero               Piqueras                 M00000000          N
032015121419027000089002TMaría Cristina           Domenech                 Gómez                    F00000000          N
032015121419028000089003TPedro                    Taborda                  Martín                   M00000000          N
032015121419023000186001TRosa María               Jiménez                  Toledo                   F00000000          N
032015121419024000186002TGonzalo                  González                 Valencia                 M00000000          N
032015121419025000186003TMargarita                Zamudio                  León                     F00000000          N
032015121419021000683001TFrancisco de Asís        Serrano                  Castro                   M00000000          N
032015121419022000739001TIgnacio                  del Noval                López de Montenegro      M00000000          N
032015121419018000857001TTeresa                   García                   Azcarate                 F00000000          N
032015121419019000857002TMaría Ángeles            Fernández                Sánchez                  F00000000          N
032015121419020000857003TManuel                   Peña                     Callejas                 M00000000          N
032015121419010000909001TAndrés                   Esteban                  Martínez                 M00000000          N
032015121419011000909002TMaría del Carmen         Lamana                   Gómez                    F00000000          N
032015121419012000909003TEmmanuel                 Baena                    Fernández                M00000000          N
032015121419007000991001TAntonia                  Capitán                  Martínez                 F00000000          N
032015121419008000991002TAlejandro                Sánchez                  Moreno                   M00000000          N
032015121419009000991003TDavid                    Pérez                    Ramos                    M00000000          N
032015121419016001125001TAntonio                  Jiménez                  Martínez de Ubago        M00000000          N
032015121419017001224001TFrancisco Javier         Marín                    Mauri                    M00000000          N
032015121419013001372001TJorge Luis Francisco     Gil                      Lorenzo                  M00000000          N
032015121419014001372002TMaría José               Sabater                  Paralles                 F00000000          N
032015121419015001372003TMiguel Ángel             García                   García                   M00000000          N
032015121229025000431001TLuis Javier              Tejada                   Francia                  M00000000          N
032015121229026000431002TPilar                    Romero                   Moreno                   F00000000          N
032015121229027000431003TDiego                    Guallart                 Gil                      M00000000          N
032015121229021000498001TAdrián                   Cecconi                  Mosca                    M00000000          N
032015121229022000498002TJuan                     Carrero                  Jiménez                  M00000000          N
032015121229023000498003TVerónica                 Calvillo                 Zubiaurre                F00000000          N
032015121229016000505001TLuis Ladislao            Izquierdo                Pradilla                 M00000000          N
032015121229004000541001TBegoña                   Nasarre                  Oliva                    F00000000          S
032015121229005000541002TJosé María               Becana                   Sanahuja                 M00000000          N
032015121229006000541003TMaría Pilar              Vidal                    Cortés                   F00000000          N
032015121229013000555001TClara                    Mata                     Pociello                 F00000000          N
032015121229014000555002TManuel Martín            Cárdenas                 Espinoza                 M00000000          N
032015121229015000555003TDavid                    Valdovinos               Lacoma                   M00000000          N
032015121229007000634001TAlberto                  Romeo                    Inglán                   M00000000          N
032015121229008000634002TJara Adelina             Lascorz                  Lozano                   F00000000          N
032015121229009000634003TMaría Milva              Bueno                    Oliván                   F00000000          N
032015121229010000814001TMaría Luisa              Laborda                  Lalueza                  F00000000          N
032015121229011000814002TJuan Antonio             Parrilla                 Huertas                  M00000000          N
032015121229012000814003TJorge                    Moreno                   Samaniego                M00000000          N
032015121229001001062001TAntonio Ignacio          Romero                   Santolaria               M00000000          S
032015121229002001062002TMaría Belén              Ibarz                    Ibarz                    F00000000          S
032015121229003001062003TAntonio                  Villacampa               Duque                    M00000000          S
032015121229020001085001TCristina                 Sánchez                  Domínguez                F00000000          N
032015121229017001253001TCristina                 Vallés                   Ruiz                     F00000000          N
032015121229018001253002TMaría Teresa             Juanals                  Llobet                   F00000000          N
032015121229019001253003THéctor                   Mendal                   Escario                  M00000000          N
032015121229024001385001TLourdes                  Herbera                  Civiac                   F00000000          N
032015121449001000048001TMARIA CARMEN ISABEL      POBO                     SANCHEZ                  F00000000          S
032015121449002000048002TMIGUEL ANGEL             ESTEVAN                  SERRANO                  M00000000          S
032015121449003000048003TRAQUEL                   CLEMENTE                 MUÑOZ                    F00000000          S
032015121449004000056001TMARIA PERLA              BORAO                    AGUIRRE                  F00000000          S
032015121449005000056002TJOAQUIN                  NOE                      SERRANO                  M00000000          N
032015121449006000056003TMARIA JOSE               LAZARO                   BURILLO                  F00000000          N
032015121449024000067001TJUAN RAMON               CASTAÑO                  MARTINEZ                 M00000000          N
032015121449025000067002TMARIO                    ORTIZ                    GRIÑON                   M00000000          N
032015121449026000067003TALEJANDRA                FERRER                   ZAMORA                   F00000000          N
032015121449022000208001TAMPARO                   RODRIGUEZ                APARICIO                 F00000000          N
032015121449016000286001TMARIA ANGELES            PALACIOS                 COSCULLANO               F00000000          N
032015121449017000286002TCARLOS                   MONCLUS                  MATEO                    M00000000          N
032015121449018000286003TPALOMA                   SASTRE                   MATIN-MORENO             F00000000          N
032015121449007000305001TMARIA PEÑA               MARTINEZ                 RUBIO                    F00000000          N
032015121449008000305002TNOELIA                   ALEGRE                   BIELSA                   F00000000          N
032015121449009000305003TMIGUEL ISRAEL            FORNER                   CALVO                    M00000000          N
032015121449010000586001TDavid                    Rodrigo                  Mateo                    M00000000          N
032015121449011000586002TMaria Jesus              Bueno                    Castejon                 F00000000          N
032015121449012000586003TMariano Antonio          Va                       Martin                   M00000000          N
032015121449013000592001TMaria Teresa             Lou                      Arnal                    F00000000          N
032015121449014000592002TEmilio                   Del Castillo             Poza                     M00000000          N
032015121449015000592003TGemma Maria              Martinez                 Lorente                  F00000000          N
032015121449023000618001TAna Maria                Burriel                  Navarro                  F00000000          N
032015121449019001184001TJavier                   Sumelzo                  Alastuey                 M00000000          N
032015121449020001184002TMaria Isabel             Espes                    Repolles                 F00000000          N
032015121449021001184003TAgustin                  Clavero                  Marco                    M00000000          N
032015121509004000281001TJUAN JOSÉ                RUBIO                    RUIZ                     M00000000          S
032015121509005000281002TMARÍA NIEVES             PÉREZ                    SEVILLA                  F00000000          N
032015121509006000281003TJESÚS MARÍA              JIMÉNEZ                  SÁNCHEZ                  M00000000          N
032015121509001000388001TOCTAVIO                  LÓPEZ                    RODRÍGUEZ                M00000000          S
032015121509002000388002TROSA                     SANTOS                   FERNÁNDEZ                F00000000          S
032015121509003000388003TRICARDO                  CANALS                   LIZANO                   M00000000          S
032015121509026000409001TCARLOS                   APARICIO                 TEJEDOR                  M00000000          N
032015121509027000409002TMARÍA TRINIDAD           ARIAS                    FERRERO                  F00000000          N
032015121509028000409003TCONRADO                  MOLINA                   BOLOIX                   M00000000          N
032015121509013000415001TMARÍA CARMEN             TIERZ                    MUR                      F00000000          N
032015121509014000415002TLUIS MARIANO             ANDRÉS                   RAMIRO                   M00000000          N
032015121509015000415003TANA CRISTINA             MUÑOZ                    SISTAC                   F00000000          N
032015121509010000423001TJOSÉ LUIS                LAJARA                   LAGRANJA                 M00000000          N
032015121509011000423002TJESÚS                    CERDÁN                   SANSUAN                  M00000000          N
032015121509012000423003TMARÍA ELENA              BELLO                    BRAU                     F00000000          N
032015121509016000430001TLUZ DIVINA               NAVARRO                  RUBIO                    F00000000          N
032015121509017000430002TIVÁN                     ECHEVERRÍA               CIAURRI                  M00000000          N
032015121509018000430003TNURIA                    GABASA                   ALZÁS                    M00000000          N
032015121509007000846001TJUANA                    MOYA                     IBARZO                   F00000000          N
032015121509008000846002TADRIÁN                   TELLO                    GIMENO                   M00000000          N
032015121509009000846003THERMINIO                 LAFOZ                    RABAZA                   M00000000          N
032015121509029000981001TDavid                    Sancho                   Remón                    M00000000          N
032015121509023001028001TAlfonso                  Alegre                   Val                      M00000000          N
032015121509024001028002TCristina                 Pemán                    Fernández                F00000000          N
032015121509025001028003TAnaís                    Cid                      Fortea                   F00000000          N
032015121509019001074001TMiguel                   Galindo                  García                   M00000000          N
032015121509020001124001TJosé María               Abad                     Torres                   M00000000          N
032015121509021001124002TRosa Elena               Barcelona                Andrés                   F00000000          N
032015121509022001124003TAntonio                  Gómez                    Prior                    M00000000          N
032015121509030001288001TVicente                  Sánchez                  Cela                     M00000000          N
032015121509031001288002TMaría Jesús              Benedicto                Ortiz                    F00000000          N
032015121509032001288003TJosé María               Palleja                  Piñol                    M00000000          N
032015121509033001356001TFernando                 Díaz                     Sanz                     M00000000          N
032015121339004000185001TVicente Alberto          Álvarez                  Areces                   M00000000          S
032015121339005000185002TMaría                    Fernández                Álvarez                  F00000000          N
032015121339006000185003TPelayo                   Prendes                  González                 M00000000          N
032015121339026000188001TJavier                   Álvarez                  Peón                     M00000000          N
032015121339027000188002TCarmen Rosario           Fernández                Castillo                 F00000000          N
032015121339028000188003TCarlos José              Rábade                   Fernández                M00000000          N
032015121339007000251001TGemma                    Álvarez                  Delgado                  F00000000          N
032015121339008000251002TJulio                    Antuña                   Román                    M00000000          N
032015121339009000251003TLaura                    Álvarez                  García                   F00000000          N
032015121339001000447001TOvidio                   Sánchez                  Díaz                     M00000000          S
032015121339002000447002TMario                    Arias                    Navia                    M00000000          S
032015121339003000447003TRosa María               Domínguez de Posada      Puertas                  F00000000          S
032015121339010000507001TAlfredo                  Del Río                  Abreu                    M00000000          N
032015121339011000507002TMaría Covadonga          Muñiz                    Fidalgo                  F00000000          N
032015121339012000507003TDavid Alejandro          Fernández                Sancho                   M00000000          N
032015121339016000700001TCarmen                   Anes                     López                    F00000000          N
032015121339017000700002TJessica                  Roldán                   Sánchez                  F00000000          N
032015121339018000700003TLuis Gerardo             Moldes                   Vallejo                  M00000000          N
032015121339013000743001TMaría Florentina         Vega                     Fernández                F00000000          N
032015121339014000743002TManuel Ángel             Carril                   Suárez                   M00000000          N
032015121339015000743003TJosefa                   Barja                    Menéndez                 F00000000          N
032015121339022000963001TFernando                 Tortonda                 Gaspar                   M00000000          N
032015121339019001023001TSaúl                     Fernández                Garrote                  M00000000          N
032015121339020001023002TJosé Antonio             Álvarez                  Méndez                   M00000000          N
032015121339021001023003TAna María                Turrero                  Orrio                    F00000000          N
032015121339032001072001TMaría Aránzazu           Martínez                 Riola                    F00000000          N
032015121339033001072002TRoberto                  Fernández                Argüelles                M00000000          N
032015121339029001106001TJara                     González                 Villanueva               F00000000          N
032015121339030001106002TLluis Miguel             Orviz                    Menéndez                 M00000000          N
032015121339031001106003TLisístrata               Suárez                   Pedre                    F00000000          N
032015121339023001175001TJosé Antonio             Lobato                   González                 M00000000          N
032015121339024001175002TEduardo                  Madroñal                 Pedraza                  M00000000          N
032015121339025001175003TRosa María               Navarrete                Sehnert                  F00000000          N
032015121071020000397001TJAVIER ANTONIO           GONZÁLEZ                 GARCÍA                   M00000000          N
032015121071021000397002TLAURA                    RODEÑO                   HERNÁNDEZ                F00000000          N
032015121071003000399001TJOSÉ ANTONIO             MANCHADO                 LOZANO                   M00000000          N
032015121071004000399002TNATALIA                  TROYA                    ISERN                    F00000000          N
032015121071001000401001TMiguel Angel             Ramis                    Socías                   M00000000          S
032015121071002000401002TCatalina                 Soler                    Torres                   F00000000          S
032015121071009000402001TFrancisco                Alegret                  Crespí                   M00000000          N
032015121071010000402002TMaría Victoria           Ruiz                     Martínez                 F00000000          N
032015121071011000411001TDIANA MARÍA              MARTÍN                   HEMPHALA                 F00000000          N
032015121071012000411002TJOSÉ                     GONZÁLEZ                 SASTRE                   M00000000          N
032015121071018000782001TRafel                    Ballester                Riutort                  M00000000          N
032015121071019000782002TLucia                    Driessen                 Lladó                    F00000000          N
032015121071015000879001TJuan José                Fernández                Panadero                 M00000000          N
032015121071007000924001TRafael                   Polonio                  Gómez                    M00000000          N
032015121071008000924002TJosefina                 Fernández                Pérez                    F00000000          N
032015121071013001004001TGaspar                   Buades                   Rul.lan                  M00000000          N
032015121071014001004002TRosalía                  Cortés                   Sastre                   F00000000          N
032015121071005001048001TSara Margarita           Martín                   Comas                    F00000000          N
032015121071006001048002TSalvador                 Colomé                   Costa                    M00000000          N
032015121071016001108001TMARGARITA                QUETGLAS                 QUESADA                  F00000000          S
032015121071017001108002TTOMÁS                    FERNÁNDEZ                GONZÁLEZ                 M00000000          N
032015121072007000413001TMANUEL                   BONMATÍ                  PÉREZ                    M00000000          N
032015121072002000419001TGRÁCIA                   MERCADAL                 MARQUÉS                  F00000000          N
032015121072001000421001TJuana Francisca          Pons                     Vila                     F00000000          S
032015121072004000422001TMaría Ángeles            Fernández                Orts                     F00000000          N
032015121072008000424001TCATALINA                 SASTRE                   FLORIT                   F00000000          N
032015121072006000791001TNicolás                  Bordoy                   Riera                    M00000000          N
032015121072003000883001TPilar                    Arguimbau                Sintes                   F00000000          N
032015121072005001112001TBRIGIDA                  MORA                     CANET                    F00000000          N
032015121073007000391001TIRENE                    TORRES                   CARDONA                  F00000000          N
032015121073002000392001TSIMON                    PLANELLS                 STRUSE                   M00000000          N
032015121073001000394001TSantiago                 Marí                     Torres                   M00000000          S
032015121073004000395001TJosé                     Segador                  Parra                    M00000000          N
032015121073008000396001TRaquel                   Molina                   Costa                    F00000000          N
032015121073005000778001TCarlos                   Roig                     Rosello                  M00000000          N
032015121073003000921001TOSCAR                    RODRIGUEZ                ALLER                    M00000000          N
032015121073006001000001TIván                     Del Alcázar              Armada                   M00000000          N
032015121073009001102001TMARIO MIGUEL             DEVIS                    LUJAN                    M00000000          N
032015121351013000004001TJesús Felipe             Mojota                   Leal                     M00000000          N
032015121351014000004002TMaría Ascensión          García                   Cerdá                    F00000000          N
032015121351006000091001TBeatriz                  Calzada                  Ojeda                    F00000000          N
032015121351007000091002TGustavo                  Viera                    Ruíz                     M00000000          N
032015121351003000383001TJosé Miguel              Rodríguez                Rodríguez                M00000000          N
032015121351004000383002TJuan                     Díaz                     Sánchez                  M00000000          N
032015121351005000383003TSaraiba                  Leal                     Caraballo                F00000000          N
032015121351015000405001TFrancisca Carmen         Sánchez                  Macías                   F00000000          N
032015121351016000405002TJoaquín                  Ávila                    García                   M00000000          N
032015121351019000513001TJosé Carlos              Socorro                  Perdomo                  M00000000          N
032015121351020000513002TMaría Reyes              Martell                  González                 F00000000          N
032015121351017000543001TÁngel                    Rodriguez                Calderín                 M00000000          N
032015121351018000543002TTeresa de Jesús          García                   Miranda                  F00000000          N
032015121351021000552001TMaría del Pino           Alemán                   Guedes                   F00000000          S
032015121351022000552002TJose Antonio             De León                  Hernández                M00000000          N
032015121351027000908001TNicasio Jesús            Galván                   Sasia                    M00000000          N
032015121351028000908002TAndrés Alberto           Rodríguez                Almeida                  M00000000          N
032015121351029000908003TAlina                    López                    Hernández                F00000000          N
032015121351025000951001TMaría Ángeles            Batista                  Perdomo                  F00000000          N
032015121351026000951002TJosé Francisco           Pérez                    López                    M00000000          N
032015121351001001113001TFrancisco de Borja       Benítez de Lugo          Massieu                  M00000000          S
032015121351002001113002TMaría del Carmen         Hernández                Bento                    F00000000          S
032015121351030001187001TMaría Teresa             Mederos                  Rivero                   F00000000          N
032015121351031001187002TJosé Manuel              Senra                    Rodríguez                M00000000          N
032015121351023001197001TFrancisco (Fran)         de Torres                Fernández                M00000000          N
032015121351024001197002TLeticia                  García                   Díaz                     F00000000          N
032015121351008001212001TDavid                    Suárez                   González                 M00000000          N
032015121351009001212002TMaría Soledad            Ruíz                     Sánchez                  F00000000          N
032015121351012001228001TJavier                   Vázquez de la Torre      Salinas                  M00000000          N
032015121351010001246001TJorge Luis               Gómez                    González                 M00000000          N
032015121351011001246002TMaría Heidi              Álamo                    Martín                   F00000000          N
032015121352003000106001TMarciano                 Acuña                    Betancor                 M00000000          N
032015121352002000398001TAriagona                 González                 Pérez                    F00000000          N
032015121352006000538001TJorge                    García-Aráez             Martín-Montalvo          M00000000          N
032015121352010000550001TJosé Ramón               Galindo                  González                 M00000000          S
032015121352001001131001TÓscar Manuel             Luzardo                  Fuentes                  M00000000          N
032015121352007001151001TAna Isabel               Díaz                     Cruces                   F00000000          N
032015121352005001270001TIsmael Jesús             Sánchez                  Melián                   M00000000          N
032015121352009001275001TNeido Manuel             González                 Álvarez                  M00000000          N
032015121352008001278001TMaría del Carmen         Pellón                   Rodríguez                F00000000          N
032015121352004001283001TJosé                     Díaz                     Díaz                     M00000000          N
032015121353007000005001TMaría del Carmen         Rodríguez                Armas                    F00000000          N
032015121353002000081001TClaudina                 Morales                  Rodríguez                F00000000          N
032015121353003000390001TTaishet                  Fuentes                  Gutiérrez                M00000000          N
032015121353008000515001TMaría de los Ángeles     Encabo                   López                    F00000000          N
032015121353006000539001TNicolás Ángel            Mendoza                  Ríos                     M00000000          N
032015121353011000549001TPenélope                 Vázquez                  Quintero                 F00000000          N
032015121353010000906001TRicardo Ramón            Baña                     Oubiña                   M00000000          N
032015121353001001099001TClaudio                  Gutiérrez                Vera                     M00000000          S
032015121353012001313001TJosué Enrique            Flores                   Palacios                 M00000000          N
032015121353009001317001TAntonio                  Olmedo                   Manzanares               M00000000          N
032015121353004001320001TRoberto Lorenzo          Hernández                Bautista                 M00000000          N
032015121353005001324001TFrancisco Luis           Falcón                   González                 M00000000          N
032015121384005000465001TFrancisco                Linares                  García                   M00000000          N
032015121384006000465002TMaría de la O            Gaspar                   González                 F00000000          N
032015121384003000466001TOlivia María             Delgado                  Oval                     F00000000          S
032015121384004000466002TJosé Vicente             González                 Bethencourt              M00000000          N
032015121384015000467001TPetra                    Moyano                   Cachinero                F00000000          N
032015121384016000467002TJosé Manuel              Perera                   Quintana                 M00000000          N
032015121384013000500001TLeandro                  González                 García                   M00000000          N
032015121384014000500002TMaría Tatiana            Delgado                  Plasencia                F00000000          N
032015121384011000518001TTeresa                   Sarmiento                Eugenio                  F00000000          N
032015121384012000518002TFrancisco Javier         Pérez                    Herrera                  M00000000          N
032015121384017000553001TMartina                  Gutiérrez                Pérez                    F00000000          N
032015121384018000553002TJuan Carlos              Borda                    Crespo                   M00000000          N
032015121384019000829001TManuel José              González                 Mauricio                 M00000000          N
032015121384020000829002TMarta Esther             Jiménez                  Jaén                     F00000000          N
032015121384001000933001TAntonio                  Alarcó                   Hernández                M00000000          S
032015121384002000933002TMilagros                 Pérez                    León                     F00000000          S
032015121384009000975001TMiguel Ángel             Miranda                  Rodríguez                M00000000          N
032015121384010000975002TAna Teresa               Cruz                     Suárez                   F00000000          N
032015121384007001201001TNayra                    Caraballero              Pérez                    F00000000          N
032015121384008001201002TSaúl                     Gómez                    Alberola                 M00000000          N
032015121384023001221001TMateo Jesús              Pérez                    Marrero                  M00000000          N
032015121384024001221002TVioleta                  Abreu                    Pérez                    F00000000          N
032015121384025001249001TEnrique                  González                 Cabrera                  M00000000          N
032015121384026001249002TPriscila                 Millán                   De Silva                 F00000000          N
032015121384021001301001TJosé Ramón               Carrillo                 Rodríguez                M00000000          N
032015121384022001301002TCarmen Nieves            Gil                      González                 F00000000          N
032015121385003000462001TÁngeles Nieves           Fernández                Acosta                   F00000000          N
032015121385002000463001TFrancisco Javier         Paz                      Expósito                 M00000000          N
032015121385006000464001TLuis Carlos              Criado                   González                 M00000000          N
032015121385007000504001TCarlos                   Ruiz                     Miró                     M00000000          N
032015121385008000517001TJennifer Ester           Sosa                     Fuentes                  F00000000          N
032015121385009000812001TMaría Nieves             Pérez                    Concepción               F00000000          N
032015121385001000940001TMariano                  Hernández                Zapata                   M00000000          S
032015121385005000966001TAntonio Juan             De la Guardia            Hernández                M00000000          N
032015121385010001168001TRayco                    Pérez                    Rodríguez                M00000000          N
032015121385004001200001TMaría Vanesa             Catalán                  González                 F00000000          N
032015121386003000456001TBenjamín                 Trujillo                 Ascanio                  M00000000          N
032015121386001000457001TGregorio Ramón           Medina                   Tomé                     M00000000          N
032015121386006000458001TYaiza                    Castilla                 Herrera                  F00000000          S
032015121386007000459001TMiguel Ángel             Rodríguez                González                 M00000000          N
032015121386008000499001TSamuel                   Marichal                 Rodríguez                M00000000          N
032015121386009000516001TMaría José               Martín                   Fagundo                  F00000000          N
032015121386002000944001TSusana                   Rodríguez                Darias                   F00000000          N
032015121386005000973001TEduardo                  Peña                     González                 M00000000          N
032015121386011001103001TAnnabely                 Plasencia                Rodríguez                F00000000          N
032015121386010001161001TManuel Ruymán            Delgado                  Méndez                   M00000000          N
032015121386004001199001TManuel Tomás             Mendoza                  Bencomo                  M00000000          N
032015121387007000450001TSara María               Pérez                    Padrón                   F00000000          N
032015121387002000451001TJuan                     Castañeda                Acosta                   M00000000          N
032015121387008000514001TMaría Candelaria         Oval                     Afonso                   F00000000          N
032015121387001000770001TPablo                    Rodríguez                Cejas                    M00000000          S
032015121387009000822001TRaimundo                 Casañas                  Ortiz                    M00000000          N
032015121387003000946001TRita Beatriz             Machín                   González                 F00000000          N
032015121387005000959001TÁngel Basilio            González                 Mesa                     F00000000          N
032015121387006001077001TSara María               Martín                   Pimentel                 F00000000          N
032015121387010001148001TSelene Alexandra         Benítez                  Ghersi                   F00000000          N
032015121387004001189001TMiguel Ángel             Peraza                   Chinea                   M00000000          N
032015121399001000082001TFrancisco Javier         Fernández                González                 M00000000          S
032015121399002000082002TBlanca Azucena           Martínez                 Gómez                    F00000000          S
032015121399003000082003TMaría Esther             Merino                   Portugal                 F00000000          S
032015121399004000083001TMiguel Ángel             González                 Vega                     M00000000          S
032015121399005000083002TMaría Concepción         Linaza                   López                    F00000000          N
032015121399006000083003TManuel                   Ceballos                 Pérez                    M00000000          N
032015121399007000240001TCristina                 Gónzalez                 Vítores                  F00000000          N
032015121399008000240002TEloy                     Baro                     Fernández                M00000000          N
032015121399009000260001TDavid                    Acosta                   Desmedt                  M00000000          N
032015121399010000260002TCarlos Javier            Fernández                Pérez                    M00000000          N
032015121399011000260003TJulia María              Caballero                Morales                  F00000000          N
032015121399012000575001TCarmen Rosa              Rotella                  Aguado                   F00000000          N
032015121399013000575002TMarta                    San Emeterio             Luna                     F00000000          N
032015121399014000575003TVicente José             Bengochea                Botín                    M00000000          N
032015121399015000576001TEli-Zabad Shushannah     Fuentes                  MIer                     F00000000          N
032015121399016000576002TFernando                 García                   Aja                      M00000000          N
032015121399017000576003TEncarnación              García                   Aja                      F00000000          N
032015121399018000793001TJuan Salvador            Castañeda                Morla                    M00000000          N
032015121399019000794001TIsmael                   Gómez                    Gutiérrez                M00000000          N
032015121399020000813001TKevin                    Botejara                 López                    M00000000          N
032015121399021000813002TMontserrat               Obregón                  Crespo                   F00000000          N
032015121399022000813003TPilar                    Tueros                   Sainz                    F00000000          N
032015121399023000965001TJosé Luis                Pérez                    López                    M00000000          N
032015121399024001167001TMercedes                 Boix                     Rovira                   F00000000          N
032015121399025001167002TAlfonso Leonardo         García-Oliva             Mascarós                 M00000000          N
032015121399026001167003TMarta                    Peredo                   Escobedo                 F00000000          N
032015121029023000254001TLAUREANO                 GARCíA                   PALOMARES                M00000000          N
032015121029024000254002TLUIS ENRIQUE             MINGUEZ                  VAQUERO                  M00000000          N
032015121029025000254003TMARÍA TERESA             GARCÍA                   ARCE                     F00000000          N
032015121029004000264001TMATILDE                  VALENTÍN                 NAVARRO                  F00000000          S
032015121029005000264002TMANUEL                   MARTÍNEZ                 RODRÍGUEZ                M00000000          N
032015121029006000264003TJOSEFA                   MORENO                   DOCÓN                    F00000000          N
032015121029001000267001TVICENTE                  AROCA                    SÁEZ                     M00000000          S
032015121029002000267002TANTONIO MARCIAL          MARÍN                    HELLÍN                   M00000000          S
032015121029003000267003TMARÍA ROSARIO            RODRÍGUEZ                RUEDA                    F00000000          S
032015121029013000273001TFrancisco Javier         Romero                   Galdón                   M00000000          N
032015121029014000273002TAna Belén                Rojo                     Reino                    F00000000          N
032015121029015000273003TJuan Carlos              Rodríguez                Domínguez                M00000000          N
032015121029007000799001TCarmen                   De la Cuadra             Vila                     F00000000          N
032015121029008000799002TJosé Ignacio             Roldán                   Cortes                   M00000000          N
032015121029009000799003TFrancisco                Cañadas                  Martínez                 M00000000          N
032015121029026000800001TDELFIN                   CÓRCOLES                 PEÑA                     M00000000          N
032015121029016000801001TEduardo                  Puerta                   Cava                     M00000000          N
032015121029010000802001TMARÍA DE LOS LLANOS      SORIANO                  GARCÍA                   F00000000          N
032015121029011000802002TJOEL                     GALLEGO                  PÉREZ                    M00000000          N
032015121029012000802003TBIBIANA                  NAVARRO                  ARGELICH                 F00000000          N
032015121029017001295001TJuan Miguel              Rodríguez                Cuesta                   M00000000          N
032015121029018001295002TMaría Cesárea            Borja                    Gómez                    F00000000          N
032015121029019001295003TÁlvaro                   González                 Martínez                 M00000000          N
032015121029020001311001TJuan Miguel              González                 Sánchez                  M00000000          N
032015121029021001311002TMaria Carmen             Fajardo                  Barba                    F00000000          N
032015121029022001311003TRoberto Antonio          Serrano                  Gómez                    M00000000          N
032015121139001000022001TCarlos Manuel            Cotillas                 López                    M00000000          S
032015121139002000022002TMiguel Ángel             Valverde                 Menchero                 M00000000          S
032015121139003000022003TCristina Flora           Molina                   Ciudad                   F00000000          S
032015121139004000023001TJesús                    Martín                   Rodríguez                M00000000          S
032015121139005000023002TAna María                Martínez                 Losa                     F00000000          N
032015121139006000023003TLuis                     Rubio                    Bremard                  M00000000          N
032015121139017000024001TÁngela                   López                    Castro                   F00000000          N
032015121139018000024002TJavier                   Molinero                 Fernández                M00000000          N
032015121139019000024003TRichard                  Andrés                   Domínguez                M00000000          N
032015121139023000469001TRosa María               Peiteado                 Serrano                  F00000000          N
032015121139024000469002TRamón                    Sánchez Migallón         Alcarazo                 M00000000          N
032015121139025000469003TRafael                   Ocaña                    Serrano                  M00000000          N
032015121139026000469004TIluminada                Sánchez Crespo           Villanueva               F00000000          N
032015121139013000470001TFrancisco José           González                 Ruiz-Zorrilla            M00000000          N
032015121139014000470002TNoelia                   Novillo                  Jareño                   F00000000          N
032015121139015000470003TLuis                     Zamarreño                Cosme                    M00000000          N
032015121139016000667001TSantiago                 Fernández de Marcos      Rodríguez de Guzmán      M00000000          N
032015121139020001216001TLuis                     Benítez de Lugo          Enrich                   M00000000          N
032015121139021001216002TNuria                    Moraga                   Yébenes                  F00000000          N
032015121139022001216003TClorinda Ivonne          Tejada                   Chauca                   F00000000          N
032015121139010001225001TJerónimo                 Romero-Nieva             Lozano                   M00000000          N
032015121139011001225002TConsolación              del Coso                 Molina                   F00000000          N
032015121139012001225003TAgustín                  Olivares                 Muñoz                    M00000000          N
032015121139027001241001TMaría de las Mercedes    Goldero                  Felipe                   F00000000          N
032015121139007001354001TMiriam                   Salgado                  Fernández                F00000000          N
032015121139008001354002TMiguel                   Ramírez                  Muñoz                    M00000000          N
032015121139009001354003TCarmen                   de la Hoz                Calderón                 F00000000          N
032015121169001000334001TCARLOS ALBERTO           ALGABA                   SOLER                    M00000000          S
032015121169002000334002TMARÍA MONTSERRAT         MARTÍNEZ                 GONZÁLEZ                 F00000000          S
032015121169003000334003TPEDRO                    JAREÑO                   PARICIO                  M00000000          S
032015121169004000338001TMANUELA                  GALIANO                  LÓPEZ                    F00000000          S
032015121169005000338002TEUGENIO                  HEREDIA                  LÓPEZ                    M00000000          N
032015121169006000338003TGEMA MARÍA               PRADILLO                 BALLESTERO               F00000000          N
032015121169021000341001TROSA MARÍA               GALBIS                   MARTÍNEZ                 F00000000          N
032015121169013000601001TVICTORIA ÁNGELA          DE LA VEGA               MARTÍNEZ                 F00000000          N
032015121169014000601002TGONZALO                  TORRE MARÍN              DOMINGO                  M00000000          N
032015121169015000601003TMARÍA NATIVIDAD          GALLEGO                  PARRA                    F00000000          N
032015121169016000912001TÁNGEL                    ALBALADEJO               CUENCA                   M00000000          N
032015121169017000912002TJOAQUINA                 MIALDEA                  ABAD                     F00000000          N
032015121169007001024001TLORENA                   GALLEGO                  GARCÍA                   F00000000          N
032015121169008001024002TJESÚS                    MARTÍNEZ                 GARCÍA                   M00000000          N
032015121169009001024003TARTURO VICENTE           ZARZUELA                 PALACIOS                 M00000000          N
032015121169025001042001TAURELIO                  SAINZ                    PEZONAGA                 M00000000          N
032015121169026001042002TANA MARÍA                NAVARRETE                TUDELA                   F00000000          N
032015121169027001042003TVANESA                   SAIZ                     ECHEZARRETA              F00000000          N
032015121169010001049001TJOSÉ                     SERRA                    COLMENAR                 M00000000          N
032015121169011001049002TMARÍA PILAR              MAESO                    JAREÑO                   F00000000          N
032015121169012001049003TMARÍA JOSÉ               ÁLVAREZ                  PÉREZ                    F00000000          N
032015121169018001057001TADOLFO                   FERNÁNDEZ                GRIMALDOS                M00000000          N
032015121169019001057002TPEDRO                    DE LA TORRE              GARCÍA                   M00000000          N
032015121169020001057003TOFELIA                   MARTÍNEZ                 MUÑOZ                    F00000000          N
032015121169022001331001TJOSÉ AGUSTÍN             GARCÍA                   ARRIBAS                  M00000000          N
032015121169023001331002TMARÍA ISABEL             GUTIÉRREZ                PÉREZ                    F00000000          N
032015121169024001331003TÓSCAR                    MEDIANERO                LÓPEZ                    M00000000          N
032015121199023000230001TCarlos                   Maceiras                 Teijeiro                 M00000000          N
032015121199024000230002TJuan Carlos              Gil                      Rodrigo                  M00000000          N
032015121199025000230003TSilvia                   García                   Nieto                    F00000000          N
032015121199004000234001TRiansares                Serrano                  Morales                  F00000000          S
032015121199005000234002TAurelio                  Zapata                   Simón                    M00000000          N
032015121199006000234003TSara                     Martínez                 Bronchalo                F00000000          N
032015121199013000238001TLourdes                  Núñez                    Manzano                  F00000000          N
032015121199014000238002TAlejandro                López                    Perales                  M00000000          N
032015121199015000238003TCristina                 García                   Moreno                   F00000000          N
032015121199001000247001TJuan Pablo               Sánchez                  Sánchez-Seco             M00000000          S
032015121199002000247002TAna María                González                 García                   F00000000          S
032015121199003000247003TJuan Antonio             De Las Heras             Muela                    M00000000          S
032015121199016000671001TBegoña                   Rojas                    Gutiérrez                F00000000          N
032015121199017000671002TAntonio Francisco        Vila                     Ruiz                     M00000000          N
032015121199018000671003TFernando                 Plaza                    Minguez                  M00000000          N
032015121199007000698001TIsidro                   Rodríguez                Martínez                 M00000000          N
032015121199008000698002TMyriam                   Barat                    Conejos                  F00000000          N
032015121199009000698003THermes                   González                 González                 M00000000          N
032015121199010000834001TAdela                    Somolinos                Julia                    F00000000          N
032015121199011000834002TSergio                   Simón                    Bona                     M00000000          N
032015121199012000834003TNazaret                  García                   Tienda                   F00000000          N
032015121199026001174001TJulian Ángel             García                   Fernández                M00000000          N
032015121199022001274001TAdoración                Durán                    González                 F00000000          N
032015121199019001294001TEnrique                  Poole                    Ruiz                     M00000000          N
032015121199020001294002TVictor María             Pérez                    De Diego                 M00000000          N
032015121199021001294003TMaría Soledad Marta      Navarro                  Fernández                F00000000          N
032015121459001000113001TCarmen                   Riolobos                 Regadera                 F00000000          S
032015121459002000113002TTomás                    Burgos                   Beteta                   M00000000          S
032015121459003000113003TJesús                    Labrador                 Encinas                  M00000000          S
032015121459004000207001TJonathan                 Bermejo                  Corrochano               M00000000          N
032015121459005000207002TLuis Miguel              Uzquiano                 Díaz                     M00000000          N
032015121459006000207003TMiriam                   Dorado                   Muñoz                    F00000000          N
032015121459007000213001TFélix                    Ortega                   Fernández                M00000000          S
032015121459008000213002TNuria del Rosario        Herrero                  Rodríguez                F00000000          N
032015121459009000213003TDavid                    Talavera                 Almendro                 M00000000          N
032015121459010000265001TMirian                   Tamayo                   Fernández                F00000000          N
032015121459011000265002TDavid                    Palacios                 Esteban                  M00000000          N
032015121459012000265003TMaría Isabel             Cuesta                   Sánchez                  F00000000          N
032015121459013000605001TMaría Victoria           Hidalgo                  Lancha                   F00000000          N
032015121459014000605002TFidel                    Cordero                  Ampuero                  M00000000          N
032015121459015000605003TEloy                     Prol                     Iglesias                 M00000000          N
032015121459016000656001TFélix                    Romero                   Cañizares                M00000000          N
032015121459017000656002TAmanda                   de Lucio                 Moreno                   F00000000          N
032015121459018000656003TÁngel                    Velasco                  Aroca                    M00000000          N
032015121459019000693001TFrancisco                Macías                   Pérez                    M00000000          N
032015121459020000693002TMaría del Carmen         Portillo                 Romero                   F00000000          N
032015121459021000693003TDaniel                   Arias                    Vegas                    M00000000          N
032015121459022001123001TCecilia                  Redondo                  Calabuig                 F00000000          N
032015121459023001123002TJuan                     Turón                    de Manuel                M00000000          N
032015121459024001123003TSayla                    Gutiérrez                Íñigo                    F00000000          N
032015121459025001181001TDavid                    Espinosa                 Cuadrado                 M00000000          N
032015121459026001325001TJuan Fernando            Pérez                    Díaz                     M00000000          N
032015121059004000209001TMaría del Carmen         Iglesias                 Parra                    F00000000          S
032015121059005000209002TJosé Antonio             Herráez                  Martín                   M00000000          N
032015121059006000209003TJuliana                  Jiménez                  Hernández                F00000000          N
032015121059013000218001TManuel                   de la Herrán             Gascón                   M00000000          N
032015121059001000280002TSebastián                González                 Vázquez                  M00000000          S
032015121059002000280003TMiguel Ángel             García                   Nieto                    M00000000          S
032015121059003000280004TMaría del Carmen         De Arágon                Amunarriz                F00000000          S
032015121059018000307001TFrancisco Javier         Escudero                 Zubelzu                  M00000000          N
032015121059019000307002TMiguel Luis              Jiménez                  Rodríguez                M00000000          N
032015121059020000307003TMercedes                 Serrano                  García                   F00000000          N
032015121059017000572001TCarmen                   Díez                     Benito                   F00000000          N
032015121059007000721001TEmilio                   Vallejo                  Herrero                  M00000000          N
032015121059008000721002TMaría Montserrat         Sánchez                  Jiménez                  F00000000          N
032015121059009000721003TAlberto                  López                    Casillas                 M00000000          N
032015121059010000769001TMaría de los Ángeles     Bartolomé                González                 F00000000          N
032015121059011000769002TÁlvaro                   Aparicio                 Mourelo                  M00000000          N
032015121059012000769003TCarmen María             Rodríguez                Rebollo                  F00000000          N
032015121059024000821001TÓscar                    Aller                    León                     M00000000          N
032015121059025000821002TJuana Teresa             Jiménez                  Perrino                  F00000000          N
032015121059026000821003TJavier                   Sánchez                  Sainz Pardo              M00000000          N
032015121059027000821004TMargarita                Merino                   Del Moral                F00000000          N
032015121059014001046001TAnastasio                Rodríguez                Martín                   M00000000          N
032015121059015001046002TFrancisco Miguel         López                    Vázquez                  M00000000          N
032015121059016001046003TElena                    Antolín                  Piñán                    F00000000          N
032015121059021001145001TSantiago                 Alba                     Rico                     M00000000          N
032015121059022001145002TMiriam                   Martín                   Prieto                   F00000000          N
032015121059023001145003TPedro                    Herrero                  García                   M00000000          N
032015121099015000016001TRodrigo                  del Pozo                 Fernández                M00000000          N
032015121099016000016002THilda                    Vizarro                  Taipe                    F00000000          N
032015121099017000016003TJorge                    Lara                     Izquierdo                M00000000          N
032015121099001000175001TMaría Begoña             Contreras                Olmedo                   F00000000          S
032015121099002000175002TArturo                   Pascual                  Madina                   M00000000          S
032015121099003000175003TCristina                 Ayala                    Santamaría               F00000000          S
032015121099024000426001TJavier                   Batallé                  Sáiz                     M00000000          N
032015121099025000426002TJulián                   Ruiz                     Navazo                   M00000000          N
032015121099026000426003TMercedes                 López                    Ruiz                     F00000000          N
032015121099004000437001TAndrés                   Gil                      García                   M00000000          S
032015121099005000437002TBlanca Elena             Merino                   Ausín                    F00000000          N
032015121099006000437003TGerardo                  Triana                   Sánchez                  M00000000          N
032015121099027000446001TFélix Lorenzo            Martín                   Moro                     M00000000          N
032015121099021000617001TIgnacio                  Lacámara                 González                 M00000000          N
032015121099022000617002TCristina                 Ferreras                 Pineda                   F00000000          N
032015121099023000617003TAndrés                   Gonzalo                  Serrano                  M00000000          N
032015121099019000645001TTomás                    Rodríguez                Vecino                   M00000000          N
032015121099010000653001TJuan Antonio             Jorde                    González                 M00000000          N
032015121099011000653002TRebeca                   Corralejo                Palacios                 F00000000          N
032015121099012000653003TSergio                   Carpio                   Mateos                   M00000000          N
032015121099028000976001TCarlos                   Presa                    Irazábal                 M00000000          N
032015121099018000990001TAna María                Miguel                   Mínguez                  F00000000          N
032015121099007001010001TJorge                    García                   Velasco                  M00000000          N
032015121099008001010002TEva María                Peláez                   Bartolomé                F00000000          N
032015121099009001010003TLuis                     Delgado                  Mariscal                 M00000000          N
032015121099013001292001TSilvia Marcela           Beresiarte               Rodrigo                  F00000000          N
032015121099014001292002TJuan José                Obregón                  Díaz                     M00000000          N
032015121099020001302001TJuan Carlos              Díaz                     Díaz                     M00000000          N
032015121249001000021001TLuis                     Aznar                    Fernández                M00000000          S
032015121249002000021002TEsther                   Muñoz                    de la Iglesia            F00000000          S
032015121249003000021003TAlfonso Jesús            Rodríguez-Hevia          González                 M00000000          S
032015121249019000027001TAngélica                 Fernández                Soto                     F00000000          N
032015121249023000094001TIgnacio Ramón            López                    Fernández                M00000000          N
032015121249024000094002TMiguel Angel             Cuervo                   Santos                   M00000000          N
032015121249025000094003TRosa                     Luna                     Fernández                F00000000          N
032015121249016000202001TNuria                    Alcántara                Fernández                F00000000          N
032015121249017000202002TJose Luis                Moreno                   Tirado                   M00000000          N
032015121249018000202003TMaría Luisa              Chana                    Gil                      F00000000          N
032015121249004000297001TGraciliano               Palomo                   García                   M00000000          S
032015121249005000297002TNuria                    Díaz de Geras            Rodríguez                F00000000          N
032015121249006000297003TJose Luis                Martínez                 Matilla                  M00000000          N
032015121249010000675001TAngel                    Atienza                  Carreño                  M00000000          N
032015121249011000675002TJavier                   Castañeda                Viñuela                  M00000000          N
032015121249012000675003TAna María                García                   Fernández                F00000000          N
032015121249026000723001TAngel                    Alvarez                  Vega                     M00000000          N
032015121249027000723002TMaría Carmen             Fernández                Sánchez                  F00000000          N
032015121249028000723003TMaría del Mar            Iglesias                 Fernández                F00000000          N
032015121249013000767001TAna Isabel               Benitez                  Bardal                   F00000000          N
032015121249014000767002TJuan Carlos              Berciano                 Fuertes                  M00000000          N
032015121249015000767003TJesús                    Fernández                Villar                   M00000000          N
032015121249020000855001TEmilia Luisa             Esteban                  Fernández                F00000000          N
032015121249021000855002TMaría Luisa del Milagro  Varela                   Fuertes                  F00000000          N
032015121249022000855003TRaúl                     Martín                   Gil                      M00000000          N
032015121249032001011001TLuis Manuel              Ferreira                 Espinedo                 M00000000          N
032015121249033001011002TMaría Angeles            Olivares                 Chaparro                 F00000000          N
032015121249034001067001TRubén                    González                 Carracedo                M00000000          N
032015121249035001067002TRita de Cacia            Borges                   de Oliveira              F00000000          N
032015121249007001119001TSusana                   Carballo                 González                 F00000000          N
032015121249008001119002TMaría Elena              Fernández                Honrado                  F00000000          N
032015121249009001119003TFaustino                 Cañizares                Ruiz                     M00000000          N
032015121249029001220001TIsidoro                  Fernández                Cadenas                  M00000000          N
032015121249030001220002TJosé Carlos              Rua                      Perandones               M00000000          N
032015121249031001220003TMercedes                 Nava                     Ferreira                 F00000000          N
032015121349004000206001TROSA MARIA               ALDEA                    GOMEZ                    F00000000          S
032015121349005000206002TLUIS FERNANDO            CANTERO                  MENA                     M00000000          N
032015121349006000206003TMARIA ARANTZAZU          OBLANCA                  COLINAS                  F00000000          N
032015121349017000210001TENRIQUE                  JUNCO                    NAVASCUÉS                M00000000          N
032015121349018000210002TEDUARDO                  ÁLVAREZ                  REDONDO                  M00000000          N
032015121349019000210003TMARÍA MERCEDES           MARTÍN                   MARCOS                   F00000000          N
032015121349001000211001TJOSÉ ANTONIO             RUBIO                    MIELGO                   M00000000          S
032015121349002000211002TMARÍA NURIA              SIMÓN                    GONZÁLEZ                 F00000000          S
032015121349003000211003TMANUEL                   BETEGÓN                  BAEZA                    M00000000          S
032015121349015000214001TANA MARIA                CUEVAS                   REOYO                    F00000000          N
032015121349014000685001TJULIO CÉSAR              DE ALAIZ                 MARTÍNEZ                 M00000000          N
032015121349023000694001TJORGE                    GONZALEZ                 DANIEL                   M00000000          N
032015121349007000699001TMÓNICA INMACULADA        CALZADA                  SANTIAGO                 F00000000          N
032015121349008000699002TJUAN JOSÉ                ZAMORANO                 ESTEBANEZ                M00000000          N
032015121349009000699003TMARIA DEL PILAR          GONZALEZ                 CASTRILLO                F00000000          N
032015121349016001205001TMIGUEL ANGEL             PÉREZ                    FERNÁNDEZ                M00000000          N
032015121349020001207001TANA MARIA                RODRIGUEZ                VEGA                     F00000000          N
032015121349021001207002TJENNIFER                 DEL RIO                  MORENO                   F00000000          N
032015121349022001207003TJOSE GABRIEL             ZURBANO                  MELERO                   M00000000          N
032015121349013001211001TSARAYEHEN                GIL                      CALONGE                  F00000000          N
032015121349010001214001TTOMÁS                    APARICIO                 ORDOÑEZ                  M00000000          N
032015121349011001214002TENRIQUE                  CARRASCO                 GARABATO                 M00000000          N
032015121349012001214003TROSINA MARÍA             RUBIO                    GARCÍA                   F00000000          N
032015121379004000684001TRosa María               López                    Alonso                   F00000000          S
032015121379005000684002TAlfonso Buenaventura     Calvo                    González                 M00000000          N
032015121379006000684003TMaría del Carmen         Juanes                   Barciela                 F00000000          N
032015121379013000714001TMaría Rocío              Gómez                    Juanes                   F00000000          N
032015121379014000714002TJosé María               Medina                   Gómez                    M00000000          N
032015121379015000714003TMaría Teresa             Román                    Luis                     F00000000          N
032015121379016000731001TLiduvino                 Barbado                  Sastre                   M00000000          N
032015121379017000731002TAna                      Suárez                   Otero                    F00000000          N
032015121379018000731003TAlejandro                Del Amo                  García                   M00000000          N
032015121379007000751001TSantiago                 Aramendi                 Ostolaza                 M00000000          N
032015121379008000751002TAntonio                  Cruz                     Fernández                M00000000          N
032015121379009000751003TSeila                    Fernández                Fernández                F00000000          N
032015121379019000774001TFrancisco Javier         Rubio                    Bragado                  M00000000          N
032015121379020000774002TAlexander Samuel         Pérez                    Gutiérrez                M00000000          N
032015121379021000774003TMaría                    Ferrer                   Torío                    F00000000          N
032015121379001000828001TGonzalo Jesús            Robles                   Orozco                   M00000000          S
032015121379002000828002TFrancisco Javier         Iglesias                 García                   M00000000          S
032015121379003000828003TEsther Basilia           Del Brio                 González                 F00000000          S
032015121379022000850001TMiguel Ángel             Diego                    Núñez                    M00000000          N
032015121379023000850002TManuela                  Iglesias                 Carreño                  F00000000          N
032015121379024000850003TJosé Benito              Mateos                   Pascual                  M00000000          N
032015121379010001397001TMaría Isabel             López                    Blázquez                 F00000000          N
032015121379011001397002TAlejandro                Álvarez                  García                   M00000000          N
032015121379012001397003TJosé Luis                Sánchez                  Martín                   M00000000          N
032015121379025001398001TMaría Dolores            Ochoa                    Amador                   F00000000          N
032015121379026001399001TJosé Antonio             Mateos                   Temprano                 M00000000          N
032015121379027001399002TRafael                   Fraile                   García                   M00000000          N
032015121379028001399003TSusana                   Luengo                   Gallego                  F00000000          N
032015121379029001400001TMario                    López                    Pascua                   M00000000          N
032015121409017000651001TJuan Luis                López                    Fragoso                  M00000000          N
032015121409018000651002TMaría Josefa             García                   Orejana                  F00000000          N
032015121409019000651003TCarlos                   Cobos                    Briz                     M00000000          N
032015121409004000659001TFélix                    Montes                   Jort                     M00000000          S
032015121409005000659002TAlba                     Barrio                   Martín                   F00000000          N
032015121409006000659003TÁlvaro                   Serrano                  Del Pino                 M00000000          N
032015121409001000678001TPaloma Inés              Sanz                     Jerónimo                 F00000000          S
032015121409002000678002TJuan Ramón               Represa                  Fernández                M00000000          S
032015121409003000678003TJuan Carlos              Álvarez                  Cabrero                  M00000000          S
032015121409016000692001TJuan Manuel              De La Serna              Lorenzo                  M00000000          N
032015121409007000702001TRicardo                  Hernanz                  Maderuelo                M00000000          N
032015121409008000702002TMaría Reyes              Lobo                     San Juan                 F00000000          N
032015121409009000702003TJosé Carlos              Rodríguez                Marinero                 M00000000          N
032015121409020000741001TÁngel                    Sanz                     Moreno                   M00000000          N
032015121409021000753001TFrancisco Javier         Lobo                     De Frutos                M00000000          N
032015121409022000753002TMaría José               Bueno                    González                 F00000000          N
032015121409023000753003TManuel Jesús             García                   Cob                      M00000000          N
032015121409010000772001TJosé Alberto             Castaño                  Pascual                  M00000000          N
032015121409011000772002TMaría del Carmen         Cuervo                   Rubio                    F00000000          N
032015121409012000772003TJosé Javier              Davía                    Herránz                  M00000000          N
032015121409013000781001TEsther                   Jurado                   Escalante                F00000000          N
032015121409014000781002TRafael Cesar             Boró                     Díaz                     M00000000          N
032015121409015000781003TBeatriz                  Gutiérrez                Arranz                   F00000000          N
032015121429001000299001TMaría del Mar            Angulo                   Martínez                 F00000000          S
032015121429002000299002TGerardo                  Martínez                 Martínez                 M00000000          S
032015121429003000299003TTomás                    Cabezón                  Casas                    M00000000          S
032015121429004000310001TMaría                    Irigoyen                 Pérez                    F00000000          S
032015121429005000310002TJesús Manuel             Alonso                   Jiménez                  M00000000          N
032015121429006000310003TAsunción                 Medrano                  Marina                   F00000000          N
032015121429015000316001TJosé Luis                Palomar                  Romero                   M00000000          N
