032015121010400199ABLA                                                                                                000100100000001426000020000108300001083000000000000000000000436000006570000001100000052000007460000000000000000000S
032015121010400299ABRUCENA                                                                                            000200200000001262000020000106300001063000000000000000000000377000006180000002600000020000007020000000000000000000S
032015121010400399ADRA                                                                                                000300300000024782000260001736500017365000000000000000000005400000087110000029500000374000101320000000000000000000S
032015121010400499ALBÁNCHEZ                                                                                           000400400000000772000010000042100000421000000000000000000000173000002520000001800000009000002810000000000000000000S
032015121010400599ALBOLODUY                                                                                           000500500000000642000010000057700000577000000000000000000000222000003630000000300000015000004180000000000000000000S
032015121010400699ALBOX                                                                                               000600600000011715000130000701600007016000000000000000000002270000036220000025500000162000043540000000000000000000S
032015121010400799ALCOLEA                                                                                             000700700000000861000010000073600000736000000000000000000000237000004390000001000000013000005260000000000000000000S
032015121010400899ALCÓNTAR                                                                                            000800800000000578000020000050100000501000000000000000000000204000003320000001700000007000003950000000000000000000S
032015121010400999ALCUDIA DE MONTEAGUD                                                                                000900900000000140000010000016900000169000000000000000000000063000000960000001000000005000001120000000000000000000S
032015121010401099ALHABIA                                                                                             001001000000000681000010000057900000579000000000000000000000270000003950000001400000014000004380000000000000000000S
032015121010401199ALHAMA DE ALMERÍA                                                                                   001101100000003753000040000279800002798000000000000000000001176000017940000005000000068000020920000000000000000000S
032015121010401299ALICÚN                                                                                              001201200000000239000010000019100000191000000000000000000000099000001460000000600000002000001610000000000000000000S
032015121010401399ALMERÍA                                                                                             001301300000193351002120014111600141116000000000000000000051175000754250000360100002641000875410000000000000000000S
032015121010401499ALMÓCITA                                                                                            001401400000000167000010000015300000153000000000000000000000066000000910000000300000004000001110000000000000000000S
032015121010401599ALSODUX                                                                                             001501500000000131000010000013000000130000000000000000000000051000000800000000500000002000000910000000000000000000S
032015121010401699ANTAS                                                                                               001601600000003161000040000214600002146000000000000000000000719000012310000005400000056000014660000000000000000000S
032015121010401799ARBOLEAS                                                                                            001701700000004698000040000130100001301000000000000000000000461000007110000003600000023000008140000000000000000000S
032015121010401899ARMUÑA DE ALMANZORA                                                                                 001801800000000332000010000027400000274000000000000000000000121000001940000000500000010000002280000000000000000000S
032015121010401999BACARES                                                                                             001901900000000267000010000025100000251000000000000000000000097000001610000000800000001000001900000000000000000000S
032015121010402099BAYÁRCAL                                                                                            002002000000000340000010000029200000292000000000000000000000117000001670000000900000002000001970000000000000000000S
032015121010402199BAYARQUE                                                                                            002102100000000216000010000018700000187000000000000000000000077000001210000000200000009000001350000000000000000000S
032015121010402299BÉDAR                                                                                               002202200000000986000010000034800000348000000000000000000000145000002010000000600000009000002280000000000000000000S
032015121010402399BEIRES                                                                                              002302300000000112000010000013900000139000000000000000000000065000000860000000200000006000000940000000000000000000S
032015121010402499BENAHADUX                                                                                           002402400000004220000050000303600003036000000000000000000001326000018830000005700000077000021840000000000000000000S
032015121010402699BENITAGLA                                                                                           002602600000000071000010000007000000070000000000000000000000034000000500000000000000002000000580000000000000000000S
032015121010402799BENIZALÓN                                                                                           002702700000000284000010000024900000249000000000000000000000084000001210000000300000001000001560000000000000000000S
032015121010402899BENTARIQUE                                                                                          002802800000000255000010000022600000226000000000000000000000140000001770000000200000002000001930000000000000000000S
032015121010402999BERJA                                                                                               002902900000015323000140000888700008887000000000000000000002988000048000000015600000221000056550000000000000000000S
032015121010403099CANJÁYAR                                                                                            003003000000001365000020000114000001140000000000000000000000418000006670000001800000019000007890000000000000000000S
032015121010403199CANTORIA                                                                                            003103100000003617000040000235900002359000000000000000000000866000014460000004500000035000016330000000000000000000S
032015121010403299CARBONERAS                                                                                          003203200000007852000110000560600005606000000000000000000001666000028190000014600000096000034970000000000000000000S
032015121010403399CASTRO DE FILABRES                                                                                  003303300000000134000010000013900000139000000000000000000000065000000860000000500000003000000920000000000000000000S
032015121010403499CÓBDAR                                                                                              003403400000000154000010000017300000173000000000000000000000054000000820000000200000001000000980000000000000000000S
032015121010403599CUEVAS DEL ALMANZORA                                                                                003503500000013737000160000837500008375000000000000000000003070000049460000015600000207000056870000000000000000000S
032015121010403699CHERCOS                                                                                             003603600000000280000010000022800000228000000000000000000000085000001500000000600000002000001650000000000000000000S
032015121010403799CHIRIVEL                                                                                            003703700000001689000030000131200001312000000000000000000000509000007880000003900000040000009190000000000000000000S
032015121010403899DALÍAS                                                                                              003803800000003979000050000306600003066000000000000000000001070000017650000006600000073000019890000000000000000000S
032015121010404199ENIX                                                                                                004104100000000440000010000031800000318000000000000000000000155000001970000000600000005000002240000000000000000000S
032015121010404399FELIX                                                                                               004304300000000651000010000054600000546000000000000000000000279000003880000000700000009000004500000000000000000000S
032015121010404499FINES                                                                                               004404400000002203000020000155500001555000000000000000000000600000010240000003300000037000011770000000000000000000S
032015121010404599FIÑANA                                                                                              004504500000002201000030000177700001777000000000000000000000676000010010000003600000051000013120000000000000000000S
032015121010404699FONDÓN                                                                                              004604600000000991000020000086200000862000000000000000000000349000005270000000900000019000006170000000000000000000S
032015121010404799GÁDOR                                                                                               004704700000003096000040000227800002278000000000000000000001106000015590000003600000042000018270000000000000000000S
032015121010404899GALLARDOS (LOS)                                                                                     004804800000003126000030000150300001503000000000000000000000581000008580000003100000031000010370000000000000000000S
032015121010404999GARRUCHA                                                                                            004904900000008632000080000528000005280000000000000000000001856000029090000008100000096000034610000000000000000000S
032015121010405099GÉRGAL                                                                                              005005000000001034000010000083000000830000000000000000000000319000004660000002500000028000005400000000000000000000S
032015121010405199HUÉCIJA                                                                                             005105100000000525000010000044000000440000000000000000000000182000003110000001300000016000003370000000000000000000S
032015121010405299HUÉRCAL DE ALMERÍA                                                                                  005205200000016663000170001224600012246000000000000000000004386000066470000029300000261000077190000000000000000000S
032015121010405399HUÉRCAL-OVERA                                                                                       005305300000018374000220001233300012333000000000000000000004233000070820000026400000251000084920000000000000000000S
032015121010405499ILLAR                                                                                               005405400000000386000010000036300000363000000000000000000000166000002320000000900000016000002720000000000000000000S
032015121010405599INSTINCIÓN                                                                                          005505500000000463000010000037200000372000000000000000000000165000002690000000200000010000003030000000000000000000S
032015121010405699LAROYA                                                                                              005605600000000170000010000014700000147000000000000000000000041000000780000000400000001000001160000000000000000000S
032015121010405799LÁUJAR DE ANDARAX                                                                                   005705700000001633000020000133700001337000000000000000000000455000006930000003600000033000008600000000000000000000S
032015121010405899LÍJAR                                                                                               005805800000000435000010000036900000369000000000000000000000105000002040000000500000005000002690000000000000000000S
032015121010405999LUBRÍN                                                                                              005905900000001607000030000110000001100000000000000000000000413000006400000001100000026000007150000000000000000000S
032015121010406099LUCAINENA DE LAS TORRES                                                                             006006000000000614000010000046600000466000000000000000000000214000003050000000700000009000003430000000000000000000S
032015121010406199LÚCAR                                                                                               006106100000000802000010000061800000618000000000000000000000221000003660000002000000014000004590000000000000000000S
032015121010406299MACAEL                                                                                              006206200000005719000070000452800004528000000000000000000001882000027950000005800000104000034320000000000000000000S
032015121010406399MARÍA                                                                                               006306300000001315000020000109900001099000000000000000000000375000006680000003200000040000007640000000000000000000S
032015121010406499MOJÁCAR                                                                                             006406400000006838000060000277900002779000000000000000000000970000015380000006100000059000018900000000000000000000S
032015121010406599NACIMIENTO                                                                                          006506500000000507000010000036600000366000000000000000000000190000002470000000400000004000002820000000000000000000S
032015121010406699NÍJAR                                                                                               006606600000028627000270001357300013573000000000000000000004288000070080000025300000241000082440000000000000000000S
032015121010406799OHANES                                                                                              006706700000000696000010000058400000584000000000000000000000203000003470000001400000016000004010000000000000000000S
032015121010406899OLULA DE CASTRO                                                                                     006806800000000169000010000019500000195000000000000000000000086000001210000000100000002000001550000000000000000000S
032015121010406999OLULA DEL RÍO                                                                                       006906900000006387000060000469200004692000000000000000000001763000027340000014800000151000032970000000000000000000S
032015121010407099ORIA                                                                                                007007000000002495000040000162300001623000000000000000000000497000008960000004600000029000011940000000000000000000S
032015121010407199PADULES                                                                                             007107100000000484000010000039800000398000000000000000000000174000002740000001700000006000003040000000000000000000S
032015121010407299PARTALOA                                                                                            007207200000000671000010000031100000311000000000000000000000105000001880000001500000010000002190000000000000000000S
032015121010407399PATERNA DEL RÍO                                                                                     007307300000000411000010000033200000332000000000000000000000148000001960000001300000006000002110000000000000000000S
032015121010407499PECHINA                                                                                             007407400000003849000040000282900002829000000000000000000001001000015730000006600000058000018200000000000000000000S
032015121010407599PULPÍ                                                                                               007507500000008562000100000515200005152000000000000000000001802000030300000011500000121000034840000000000000000000S
032015121010407699PURCHENA                                                                                            007607600000001662000020000129600001296000000000000000000000434000007750000002700000051000009220000000000000000000S
032015121010407799RÁGOL                                                                                               007707700000000331000010000030300000303000000000000000000000161000002220000000500000004000002680000000000000000000S
032015121010407899RIOJA                                                                                               007807800000001406000020000109500001095000000000000000000000427000006530000001000000022000007450000000000000000000S
032015121010407999ROQUETAS DE MAR                                                                                     007907900000091682000800005080000050800000000000000000000017039000265530000112300001051000311340000000000000000000S
032015121010408099SANTA CRUZ DE MARCHENA                                                                              008008000000000216000010000022600000226000000000000000000000090000001360000001000000005000001670000000000000000000S
032015121010408199SANTA FE DE MONDÚJAR                                                                                008108100000000390000010000035600000356000000000000000000000159000002350000000500000001000002840000000000000000000S
032015121010408299SENÉS                                                                                               008208200000000320000010000030600000306000000000000000000000091000001660000000900000006000001930000000000000000000S
032015121010408399SERÓN                                                                                               008308300000002218000040000179000001790000000000000000000000591000010390000003300000021000013180000000000000000000S
032015121010408499SIERRO                                                                                              008408400000000401000010000033700000337000000000000000000000131000002250000000700000006000002400000000000000000000S
032015121010408599SOMONTÍN                                                                                            008508500000000502000010000039500000395000000000000000000000164000002510000000400000009000002870000000000000000000S
032015121010408699SORBAS                                                                                              008608600000002689000050000179200001792000000000000000000000571000009800000003400000036000011940000000000000000000S
032015121010408799SUFLÍ                                                                                               008708700000000219000010000018900000189000000000000000000000050000000910000000700000001000001320000000000000000000S
032015121010408899TABERNAS                                                                                            008808800000003646000040000247500002475000000000000000000000932000013350000004600000048000015890000000000000000000S
032015121010408999TABERNO                                                                                             008908900000001029000010000074600000746000000000000000000000240000004080000001800000011000005000000000000000000000S
032015121010409099TAHAL                                                                                               009009000000000396000010000030900000309000000000000000000000119000001820000000800000015000002130000000000000000000S
032015121010409199TERQUE                                                                                              009109100000000440000010000034200000342000000000000000000000197000002440000001300000004000002620000000000000000000S
032015121010409299TÍJOLA                                                                                              009209200000003776000050000285200002852000000000000000000000894000015830000006200000080000020320000000000000000000S
032015121010409399TURRE                                                                                               009309300000003563000040000187200001872000000000000000000000574000010070000003700000035000011770000000000000000000S
032015121010409499TURRILLAS                                                                                           009409400000000229000010000020900000209000000000000000000000077000001210000000000000001000001380000000000000000000S
032015121010409599ULEILA DEL CAMPO                                                                                    009509500000000924000010000072600000726000000000000000000000270000003680000001200000020000004300000000000000000000S
032015121010409699URRÁCAL                                                                                             009609600000000312000010000027400000274000000000000000000000085000001470000000800000004000001920000000000000000000S
032015121010409799VELEFIQUE                                                                                           009709700000000278000010000025400000254000000000000000000000121000001550000000700000000000001820000000000000000000S
032015121010409899VÉLEZ-BLANCO                                                                                        009809800000002064000030000153700001537000000000000000000000488000008820000004600000044000010530000000000000000000S
032015121010409999VÉLEZ-RUBIO                                                                                         009909900000006791000080000498800004988000000000000000000001813000029660000015500000204000033760000000000000000000S
032015121010410099VERA                                                                                                010010000000015018000140000871200008712000000000000000000002593000040460000021700000180000050840000000000000000000S
032015121010410199VIATOR                                                                                              010110100000005605000070000428300004283000000000000000000001660000024100000009100000103000027570000000000000000000S
032015121010410299VÍCAR                                                                                               010210200000024384000250001372900013729000000000000000000004410000070970000026100000415000082020000000000000000000S
032015121010410399ZURGENA                                                                                             010310300000003129000030000147800001478000000000000000000000490000008700000001400000032000010010000000000000000000S
032015121010490199TRES VILLAS (LAS)                                                                                   090190100000000583000020000053900000539000000000000000000000190000003080000000800000009000003710000000000000000000S
032015121010490299EJIDO (EL)                                                                                          090290200000084144000720004537300045373000000000000000000013630000219330000090600000787000262200000000000000000000S
032015121010490399MOJONERA (LA)                                                                                       090390300000008993000060000434500004345000000000000000000001412000023040000010000000101000026550000000000000000000S
032015121010490499BALANEGRA                                                                                           090490400000002835000020000175900001759000000000000000000000558000009330000003100000022000011330000000000000000000S
032015121011100199ALCALÁ DE LOS GAZULES                                                                               000100100000005377000070000437700004377000000000000000000001401000022640000010500000157000026880000000000000000000S
032015121011100299ALCALÁ DEL VALLE                                                                                    000200200000005221000070000428700004287000000000000000000001068000023620000004800000066000030840000000000000000000S
032015121011100399ALGAR                                                                                               000300300000001482000020000127000001270000000000000000000000466000007350000007400000040000007720000000000000000000S
032015121011100499ALGECIRAS                                                                                           000400400000117974001330008861700088617000000000000000000027468000434350000238200001731000497350000000000000000000S
032015121011100599ALGODONALES                                                                                         000500500000005677000080000456000004560000000000000000000001749000026820000015200000189000027920000000000000000000S
032015121011100699ARCOS DE LA FRONTERA                                                                                000600600000031250000370002450400024504000000000000000000008511000132950000089300000750000147770000000000000000000S
032015121011100799BARBATE                                                                                             000700700000022861000280001803600018036000000000000000000005435000087270000053600000553000094490000000000000000000S
032015121011100899BARRIOS (LOS)                                                                                       000800800000022991000250001746000017460000000000000000000006005000095080000051300000526000104800000000000000000000S
032015121011100999BENAOCAZ                                                                                            000900900000000719000010000060200000602000000000000000000000189000002860000003000000018000003730000000000000000000S
032015121011101099BORNOS                                                                                              001001000000008022000110000642000006420000000000000000000002054000034890000031800000233000037860000000000000000000S
032015121011101199BOSQUE (EL)                                                                                         001101100000002069000020000168800001688000000000000000000000556000009570000008200000078000010610000000000000000000S
032015121011101299CÁDIZ                                                                                               001201200000121739001530010046000100460000000000000000000037306000588400000304600002441000657830000000000000000000S
032015121011101399CASTELLAR DE LA FRONTERA                                                                            001301300000003084000040000232400002324000000000000000000000758000013670000007500000083000015080000000000000000000S
032015121011101499CONIL DE LA FRONTERA                                                                                001401400000022063000280001679100016791000000000000000000005687000091700000070400000420000098880000000000000000000S
032015121011101599CHICLANA DE LA FRONTERA                                                                             001501500000082298000920006233700062337000000000000000000019823000321900000169600001858000357320000000000000000000S
032015121011101699CHIPIONA                                                                                            001601600000019004000210001488000014880000000000000000000004832000079560000043400000404000089170000000000000000000S
032015121011101799ESPERA                                                                                              001701700000003912000050000320700003207000000000000000000001202000019420000011400000083000020290000000000000000000S
032015121011101899GASTOR (EL)                                                                                         001801800000001803000030000148500001485000000000000000000000584000009140000003400000049000010160000000000000000000S
032015121011101999GRAZALEMA                                                                                           001901900000002165000030000183000001830000000000000000000000641000011100000005500000126000012150000000000000000000S
032015121011102099JEREZ DE LA FRONTERA                                                                                002002000000212226002520016460100164601000000000000000000060129000920720000500900003341001025320000000000000000000S
032015121011102199JIMENA DE LA FRONTERA                                                                               002102100000009710000100000677700006777000000000000000000002579000039500000036500000255000041080000000000000000000S
032015121011102299LÍNEA DE LA CONCEPCIÓN (LA)                                                                         002202200000063132000740004877800048778000000000000000000012606000210250000112200000969000237320000000000000000000S
032015121011102399MEDINA-SIDONIA                                                                                      002302300000011794000160000935400009354000000000000000000003539000056150000037400000302000061880000000000000000000S
032015121011102499OLVERA                                                                                              002402400000008351000110000673500006735000000000000000000002114000038320000032900000232000044920000000000000000000S
032015121011102599PATERNA DE RIVERA                                                                                   002502500000005609000060000437000004370000000000000000000001512000026010000010600000136000028720000000000000000000S
032015121011102699PRADO DEL REY                                                                                       002602600000005885000070000480400004804000000000000000000001790000028780000020800000255000030640000000000000000000S
032015121011102799PUERTO DE SANTA MARÍA (EL)                                                                          002702700000088700001050006801000068010000000000000000000024681000375770000211900001631000419420000000000000000000S
032015121011102899PUERTO REAL                                                                                         002802800000041486000520003253200032532000000000000000000012289000192250000112900000925000206810000000000000000000S
032015121011102999PUERTO SERRANO                                                                                      002902900000007127000090000543300005433000000000000000000001481000024560000008100000193000027650000000000000000000S
032015121011103099ROTA                                                                                                003003000000029179000360002279600022796000000000000000000007162000117660000062600000607000138950000000000000000000S
032015121011103199SAN FERNANDO                                                                                        003103100000096335001120007559100075591000000000000000000025807000413590000232400001705000459280000000000000000000S
032015121011103299SANLÚCAR DE BARRAMEDA                                                                               003203200000067385000820005320200053202000000000000000000014968000253550000135800001477000287170000000000000000000S
032015121011103399SAN ROQUE                                                                                           003303300000029491000300002077300020773000000000000000000006517000107960000059400000589000119470000000000000000000S
032015121011103499SETENIL DE LAS BODEGAS                                                                              003403400000002856000040000234500002345000000000000000000000752000012830000003600000051000015030000000000000000000S
032015121011103599TARIFA                                                                                              003503500000017908000240001356900013569000000000000000000004379000070900000048400000377000079140000000000000000000S
032015121011103699TORRE ALHÁQUIME                                                                                     003603600000000776000010000069400000694000000000000000000000193000003560000001600000014000004010000000000000000000S
032015121011103799TREBUJENA                                                                                           003703700000007090000100000567800005678000000000000000000001981000036010000014500000186000040810000000000000000000S
032015121011103899UBRIQUE                                                                                             003803800000016884000230001380300013803000000000000000000005330000083560000056700000417000093920000000000000000000S
032015121011103999VEJER DE LA FRONTERA                                                                                003903900000012897000170001004400010044000000000000000000003186000052070000034500000217000060030000000000000000000S
032015121011104099VILLALUENGA DEL ROSARIO                                                                             004004000000000456000010000039800000398000000000000000000000153000002560000001700000024000002830000000000000000000S
032015121011104199VILLAMARTÍN                                                                                         004104100000012303000150000985600009856000000000000000000003373000054250000035500000327000063010000000000000000000S
032015121011104299ZAHARA                                                                                              004204200000001460000020000118900001189000000000000000000000376000006840000006000000022000007770000000000000000000S
032015121011190199BENALUP-CASAS VIEJAS                                                                                090190100000006967000080000565300005653000000000000000000002075000032820000019900000192000037130000000000000000000S
032015121011190299SAN JOSÉ DEL VALLE                                                                                  090290200000004457000060000361900003619000000000000000000001180000018900000007800000058000022710000000000000000000S
032015121011400199ADAMUZ                                                                                              000100100000004398000050000355200003552000000000000000000001238000020400000007600000097000026670000000000000000000S
032015121011400299AGUILAR DE LA FRONTERA                                                                              000200200000013631000140001095100010951000000000000000000003939000064500000027000000314000076410000000000000000000S
032015121011400399ALCARACEJOS                                                                                         000300300000001527000020000126500001265000000000000000000000497000007770000002300000030000009130000000000000000000S
032015121011400499ALMEDINILLA                                                                                         000400400000002468000030000203600002036000000000000000000000524000010080000004200000033000014050000000000000000000S
032015121011400599ALMODÓVAR DEL RÍO                                                                                   000500500000007977000100000635800006358000000000000000000002046000034430000014500000219000039220000000000000000000S
032015121011400699AÑORA                                                                                               000600600000001555000020000133100001331000000000000000000000625000009410000003000000072000010570000000000000000000S
032015121011400799BAENA                                                                                               000700700000020207000200001520000015200000000000000000000004685000079760000037700000539000100570000000000000000000S
032015121011400899BELALCÁZAR                                                                                          000800800000003427000040000287100002871000000000000000000001082000016510000007100000067000018920000000000000000000S
032015121011400999BELMEZ                                                                                              000900900000003227000040000277900002779000000000000000000001014000015540000006600000082000017600000000000000000000S
032015121011401099BENAMEJÍ                                                                                            001001000000005123000060000405100004051000000000000000000001147000022060000008400000122000027940000000000000000000S
032015121011401199BLÁZQUEZ (LOS)                                                                                      001101100000000701000010000058400000584000000000000000000000198000003140000000400000006000004670000000000000000000S
032015121011401299BUJALANCE                                                                                           001201200000007744000090000619000006190000000000000000000001890000032840000014400000199000042060000000000000000000S
032015121011401399CABRA                                                                                               001301300000021001000230001684500016845000000000000000000006175000095390000040200000470000116570000000000000000000S
032015121011401499CAÑETE DE LAS TORRES                                                                                001401400000003033000040000257000002570000000000000000000000984000015860000005900000070000019490000000000000000000S
032015121011401599CARCABUEY                                                                                           001501500000002632000040000214900002149000000000000000000000695000011820000007800000071000014570000000000000000000S
032015121011401699CARDEÑA                                                                                             001601600000001606000030000136400001364000000000000000000000503000007770000003200000023000009800000000000000000000S
032015121011401799CARLOTA (LA)                                                                                        001701700000013872000180001086900010869000000000000000000003581000061400000028000000348000074310000000000000000000S
032015121011401899CARPIO (EL)                                                                                         001801800000004516000060000371000003710000000000000000000001359000022400000010900000118000026310000000000000000000S
032015121011401999CASTRO DEL RÍO                                                                                      001901900000008052000110000647900006479000000000000000000002066000038130000015200000198000047380000000000000000000S
032015121011402099CONQUISTA                                                                                           002002000000000448000010000039100000391000000000000000000000144000002040000000400000011000002560000000000000000000S
032015121011402199CÓRDOBA                                                                                             002102100000328041003510026018900260189000000000000000000098267001498030000763300005261001735290000000000000000000S
032015121011402299DOÑA MENCÍA                                                                                         002202200000004935000050000403600004036000000000000000000001156000021590000008200000071000030130000000000000000000S
032015121011402399DOS TORRES                                                                                          002302300000002442000030000204100002041000000000000000000000916000013320000003400000083000016190000000000000000000S
032015121011402499ENCINAS REALES                                                                                      002402400000002375000030000192000001920000000000000000000000682000012240000007300000086000013450000000000000000000S
032015121011402599ESPEJO                                                                                              002502500000003474000050000295000002950000000000000000000001143000018480000005900000163000022240000000000000000000S
032015121011402699ESPIEL                                                                                              002602600000002438000030000207300002073000000000000000000000708000010360000005300000038000013270000000000000000000S
032015121011402799FERNÁN-NÚÑEZ                                                                                        002702700000009801000110000790800007908000000000000000000002841000047270000021900000246000055720000000000000000000S
032015121011402899FUENTE LA LANCHA                                                                                    002802800000000365000010000032000000320000000000000000000000105000001790000000700000013000002210000000000000000000S
032015121011402999FUENTE OBEJUNA                                                                                      002902900000004961000100000420600004206000000000000000000001572000024620000012300000105000029140000000000000000000S
032015121011403099FUENTE PALMERA                                                                                      003003000000011068000130000858000008580000000000000000000002818000051450000026400000236000060620000000000000000000S
032015121011403199FUENTE-TÓJAR                                                                                        003103100000000721000010000059700000597000000000000000000000201000003230000001000000013000004670000000000000000000S
032015121011403299GRANJUELA (LA)                                                                                      003203200000000482000010000042500000425000000000000000000000167000002550000000800000009000003260000000000000000000S
032015121011403399GUADALCÁZAR                                                                                         003303300000001604000020000128500001285000000000000000000000431000007600000004000000023000009090000000000000000000S
032015121011403499GUIJO (EL)                                                                                          003403400000000382000010000031800000318000000000000000000000109000001890000000900000014000002370000000000000000000S
032015121011403599HINOJOSA DEL DUQUE                                                                                  003503500000007126000080000599200005992000000000000000000002065000031980000018500000153000040800000000000000000000S
032015121011403699HORNACHUELOS                                                                                        003603600000004660000070000376700003767000000000000000000001440000022940000012200000101000026390000000000000000000S
032015121011403799IZNÁJAR                                                                                             003703700000004637000090000334400003344000000000000000000001013000018170000008500000119000022410000000000000000000S
032015121011403899LUCENA                                                                                              003803800000042748000400003223600032236000000000000000000010645000173490000091300000765000209620000000000000000000S
032015121011403999LUQUE                                                                                               003903900000003178000030000262800002628000000000000000000000793000014250000008200000108000019470000000000000000000S
032015121011404099MONTALBÁN DE CÓRDOBA                                                                                004004000000004472000050000379200003792000000000000000000001533000024510000009500000089000028210000000000000000000S
032015121011404199MONTEMAYOR                                                                                          004104100000004001000040000318000003180000000000000000000001029000017800000009900000102000021860000000000000000000S
032015121011404299MONTILLA                                                                                            004204200000023622000270001892100018921000000000000000000007258000112020000080400000673000131110000000000000000000S
032015121011404399MONTORO                                                                                             004304300000009744000100000757400007574000000000000000000002454000039150000018000000265000051080000000000000000000S
032015121011404499MONTURQUE                                                                                           004404400000001995000020000162400001624000000000000000000000618000009910000003800000039000011990000000000000000000S
032015121011404599MORILES                                                                                             004504500000003872000040000305500003055000000000000000000001000000018440000006600000102000023130000000000000000000S
032015121011404699NUEVA CARTEYA                                                                                       004604600000005540000060000448400004484000000000000000000001400000025650000009800000135000032520000000000000000000S
032015121011404799OBEJO                                                                                               004704700000002012000030000165400001654000000000000000000000602000009190000003000000074000010920000000000000000000S
032015121011404899PALENCIANA                                                                                          004804800000001571000020000120600001206000000000000000000000425000007720000003800000032000008830000000000000000000S
032015121011404999PALMA DEL RÍO                                                                                       004904900000021582000210001635700016357000000000000000000005867000095170000042000000343000113860000000000000000000S
032015121011405099PEDRO ABAD                                                                                          005005000000002960000040000239900002399000000000000000000000920000014380000004500000054000017780000000000000000000S
032015121011405199PEDROCHE                                                                                            005105100000001636000020000140100001401000000000000000000000570000008080000002700000049000010020000000000000000000S
032015121011405299PEÑARROYA-PUEBLONUEVO                                                                               005205200000011430000140000944700009447000000000000000000003052000047210000025000000206000056510000000000000000000S
032015121011405399POSADAS                                                                                             005305300000007512000080000605000006050000000000000000000002287000035850000016600000154000041310000000000000000000S
032015121011405499POZOBLANCO                                                                                          005405400000017491000180001366500013665000000000000000000005402000080990000048000000570000097450000000000000000000S
032015121011405599PRIEGO DE CÓRDOBA                                                                                   005505500000023112000290001857200018572000000000000000000006083000097220000072800000661000120390000000000000000000S
032015121011405699PUENTE GENIL                                                                                        005605600000030186000350002361300023613000000000000000000007847000131700000063900000525000157020000000000000000000S
032015121011405799RAMBLA (LA)                                                                                         005705700000007547000080000615200006152000000000000000000002368000039260000020500000202000045070000000000000000000S
032015121011405899RUTE                                                                                                005805800000010387000120000797300007973000000000000000000002626000044110000031500000281000051670000000000000000000S
032015121011405999SAN SEBASTIÁN DE LOS BALLESTEROS                                                                    005905900000000837000010000069900000699000000000000000000000318000004640000002400000028000004990000000000000000000S
032015121011406099SANTAELLA                                                                                           006006000000006097000080000485400004854000000000000000000001603000028090000012300000163000033730000000000000000000S
032015121011406199SANTA EUFEMIA                                                                                       006106100000000893000010000075600000756000000000000000000000306000004520000000800000021000005720000000000000000000S
032015121011406299TORRECAMPO                                                                                          006206200000001202000020000105200001052000000000000000000000534000006370000002600000029000007430000000000000000000S
032015121011406399VALENZUELA                                                                                          006306300000001261000020000106500001065000000000000000000000307000005830000002400000030000007480000000000000000000S
032015121011406499VALSEQUILLO                                                                                         006406400000000385000010000033100000331000000000000000000000116000001730000000900000010000002330000000000000000000S
032015121011406599VICTORIA (LA)                                                                                       006506500000002385000030000186100001861000000000000000000000742000011780000005200000043000013440000000000000000000S
032015121011406699VILLA DEL RÍO                                                                                       006606600000007426000090000589000005890000000000000000000001964000032960000012200000155000040970000000000000000000S
032015121011406799VILLAFRANCA DE CÓRDOBA                                                                              006706700000004893000060000387400003874000000000000000000001559000024690000009600000144000027610000000000000000000S
032015121011406899VILLAHARTA                                                                                          006806800000000719000010000054500000545000000000000000000000219000003250000001800000005000003860000000000000000000S
032015121011406999VILLANUEVA DE CÓRDOBA                                                                               006906900000009226000120000753600007536000000000000000000002669000039220000019200000208000051050000000000000000000S
032015121011407099VILLANUEVA DEL DUQUE                                                                                007007000000001580000020000134300001343000000000000000000000538000007960000003000000029000009540000000000000000000S
032015121011407199VILLANUEVA DEL REY                                                                                  007107100000001122000010000093700000937000000000000000000000287000004530000003400000032000005850000000000000000000S
032015121011407299VILLARALTO                                                                                          007207200000001264000020000107900001079000000000000000000000455000006710000002700000015000007900000000000000000000S
032015121011407399VILLAVICIOSA DE CÓRDOBA                                                                             007307300000003478000040000290000002900000000000000000000000871000014040000007200000081000018900000000000000000000S
032015121011407499VISO (EL)                                                                                           007407400000002683000040000230300002303000000000000000000001050000015730000003800000031000018690000000000000000000S
032015121011407599ZUHEROS                                                                                             007507500000000696000010000058100000581000000000000000000000210000003520000001400000028000004190000000000000000000S
032015121011800199AGRÓN                                                                                               000100100000000313000010000025600000256000000000000000000000081000001370000000600000000000001720000000000000000000S
032015121011800299ALAMEDILLA                                                                                          000200200000000658000010000056100000561000000000000000000000193000003550000000100000002000004390000000000000000000S
032015121011800399ALBOLOTE                                                                                            000300300000018306000200001402200014022000000000000000000004962000082140000038700000447000094390000000000000000000S
032015121011800499ALBONDÓN                                                                                            000400400000000797000010000072400000724000000000000000000000250000004020000000000000000000005110000000000000000000S
032015121011800599ALBUÑÁN                                                                                             000500500000000430000010000037500000375000000000000000000000138000002180000000800000005000002530000000000000000000S
032015121011800699ALBUÑOL                                                                                             000600600000006853000080000416100004161000000000000000000001367000021690000008100000096000026010000000000000000000S
032015121011800799ALBUÑUELAS                                                                                          000700700000000889000010000078500000785000000000000000000000257000004490000001400000015000004850000000000000000000S
032015121011801099ALDEIRE                                                                                             001001000000000644000010000056300000563000000000000000000000204000003760000001500000013000004360000000000000000000S
032015121011801199ALFACAR                                                                                             001101100000005490000070000432100004321000000000000000000001776000024980000011500000142000028460000000000000000000S
032015121011801299ALGARINEJO                                                                                          001201200000002875000050000233000002330000000000000000000000741000011770000007200000052000015190000000000000000000S
032015121011801399ALHAMA DE GRANADA                                                                                   001301300000006191000060000423600004236000000000000000000001372000022770000006300000100000031240000000000000000000S
032015121011801499ALHENDÍN                                                                                            001401400000008306000090000637200006372000000000000000000002176000035560000021400000191000043230000000000000000000S
032015121011801599ALICÚN DE ORTEGA                                                                                    001501500000000529000010000044300000443000000000000000000000119000002310000000200000002000003320000000000000000000S
032015121011801699ALMEGÍJAR                                                                                           001601600000000361000010000032300000323000000000000000000000095000001650000000600000005000002270000000000000000000S
032015121011801799ALMUÑÉCAR                                                                                           001701700000027195000300001817200018172000000000000000000006076000094920000040400000391000110200000000000000000000S
032015121011801899ALQUIFE                                                                                             001801800000000701000010000064000000640000000000000000000000259000003780000001000000013000004580000000000000000000S
032015121011802099ARENAS DEL REY                                                                                      002002000000001913000030000146900001469000000000000000000000405000007930000003700000029000009720000000000000000000S
032015121011802199ARMILLA                                                                                             002102100000023175000250001745100017451000000000000000000006066000099560000059000000506000114540000000000000000000S
032015121011802299ATARFE                                                                                              002202200000017570000210001330600013306000000000000000000004545000073130000029500000392000083860000000000000000000S
032015121011802399BAZA                                                                                                002302300000020644000250001573800015738000000000000000000005352000084950000057300000497000100270000000000000000000S
032015121011802499BEAS DE GRANADA                                                                                     002402400000001005000010000085500000855000000000000000000000314000005490000002600000024000005970000000000000000000S
032015121011802599BEAS DE GUADIX                                                                                      002502500000000364000010000029400000294000000000000000000000118000001730000000200000002000002100000000000000000000S
032015121011802799BENALÚA                                                                                             002702700000003296000040000256200002562000000000000000000000833000015310000004600000070000017090000000000000000000S
032015121011802899BENALÚA DE LAS VILLAS                                                                               002802800000001163000020000094500000945000000000000000000000236000005330000001100000018000007570000000000000000000S
032015121011802999BENAMAUREL                                                                                          002902900000002414000020000183300001833000000000000000000000600000010120000004500000031000011640000000000000000000S
032015121011803099BÉRCHULES                                                                                           003003000000000762000010000058400000584000000000000000000000175000003290000001500000005000003950000000000000000000S
032015121011803299BUBIÓN                                                                                              003203200000000315000010000023900000239000000000000000000000066000001250000001100000008000001590000000000000000000S
032015121011803399BUSQUÍSTAR                                                                                          003303300000000296000010000029400000294000000000000000000000074000001590000000200000003000002110000000000000000000S
032015121011803499CACÍN                                                                                               003403400000000594000020000051000000510000000000000000000000211000003190000000700000003000003730000000000000000000S
032015121011803599CÁDIAR                                                                                              003503500000001545000020000125500001255000000000000000000000457000007060000002300000032000008950000000000000000000S
032015121011803699CÁJAR                                                                                               003603600000004929000050000376800003768000000000000000000001547000023860000011000000106000026370000000000000000000S
032015121011803799CALICASAS                                                                                           003703700000000583000010000053000000530000000000000000000000182000003110000001500000013000003670000000000000000000S
032015121011803899CAMPOTÉJAR                                                                                          003803800000001317000020000106600001066000000000000000000000271000005410000003200000043000007630000000000000000000S
032015121011803999CANILES                                                                                             003903900000004514000060000354400003544000000000000000000001111000019640000014800000114000022290000000000000000000S
032015121011804099CÁÑAR                                                                                               004004000000000408000010000022500000225000000000000000000000075000001200000000600000010000001220000000000000000000S
032015121011804299CAPILEIRA                                                                                           004204200000000496000010000041400000414000000000000000000000125000002420000000400000005000003320000000000000000000S
032015121011804399CARATAUNAS                                                                                          004304300000000209000010000012900000129000000000000000000000058000000750000000000000002000000930000000000000000000S
032015121011804499CÁSTARAS                                                                                            004404400000000242000010000017900000179000000000000000000000044000000780000000200000000000001140000000000000000000S
032015121011804599CASTILLÉJAR                                                                                         004504500000001487000020000114900001149000000000000000000000354000006200000002700000046000007230000000000000000000S
032015121011804699CASTRIL                                                                                             004604600000002290000050000186700001867000000000000000000000410000008880000004600000031000010960000000000000000000S
032015121011804799CENES DE LA VEGA                                                                                    004704700000007943000090000588800005888000000000000000000002049000032050000018200000120000036760000000000000000000S
032015121011804899CIJUELA                                                                                             004804800000003209000040000239000002390000000000000000000000880000014880000004200000045000017090000000000000000000S
032015121011804999COGOLLOS DE GUADIX                                                                                  004904900000000664000010000061700000617000000000000000000000227000003660000002000000022000004020000000000000000000S
032015121011805099COGOLLOS DE LA VEGA                                                                                 005005000000002043000030000171100001711000000000000000000000570000009070000007500000060000011110000000000000000000S
032015121011805199COLOMERA                                                                                            005105100000001431000020000114900001149000000000000000000000355000005900000002100000009000007940000000000000000000S
032015121011805399CORTES DE BAZA                                                                                      005305300000002098000030000166700001667000000000000000000000478000008160000004400000031000009860000000000000000000S
032015121011805499CORTES Y GRAENA                                                                                     005405400000001023000010000086800000868000000000000000000000309000005110000001100000017000005960000000000000000000S
032015121011805699CÚLLAR                                                                                              005605600000004500000060000354500003545000000000000000000001305000021310000008500000103000024960000000000000000000S
032015121011805799CÚLLAR VEGA                                                                                         005705700000007139000070000526300005263000000000000000000002156000032800000018700000152000035440000000000000000000S
032015121011805999CHAUCHINA                                                                                           005905900000005499000060000415300004153000000000000000000001454000025030000008000000106000028630000000000000000000S
032015121011806199CHIMENEAS                                                                                           006106100000001387000020000105900001059000000000000000000000337000006330000000800000017000007900000000000000000000S
032015121011806299CHURRIANA DE LA VEGA                                                                                006206200000013652000130001029800010298000000000000000000003617000060980000030700000299000069140000000000000000000S
032015121011806399DARRO                                                                                               006306300000001501000020000119100001191000000000000000000000301000005540000000600000019000007420000000000000000000S
032015121011806499DEHESAS DE GUADIX                                                                                   006406400000000453000010000037900000379000000000000000000000114000002150000001200000005000002880000000000000000000S
032015121011806599DEHESAS VIEJAS                                                                                      006506500000000766000010000062500000625000000000000000000000175000003460000000400000021000004670000000000000000000S
032015121011806699DEIFONTES                                                                                           006606600000002574000030000210800002108000000000000000000000536000011530000002400000027000014760000000000000000000S
032015121011806799DIEZMA                                                                                              006706700000000766000010000071100000711000000000000000000000202000003530000001400000018000004850000000000000000000S
032015121011806899DÍLAR                                                                                               006806800000001825000020000156600001566000000000000000000000627000009800000003900000047000011250000000000000000000S
032015121011806999DÓLAR                                                                                               006906900000000619000010000049300000493000000000000000000000216000002940000001100000014000003300000000000000000000S
032015121011807099DÚDAR                                                                                               007007000000000340000010000028300000283000000000000000000000101000001720000000400000008000002110000000000000000000S
032015121011807199DÚRCAL                                                                                              007107100000007159000090000558300005583000000000000000000002419000035660000015700000169000038250000000000000000000S
032015121011807299ESCÚZAR                                                                                             007207200000000780000010000066600000666000000000000000000000238000003980000001500000013000004500000000000000000000S
032015121011807499FERREIRA                                                                                            007407400000000326000010000027300000273000000000000000000000111000001720000000900000003000002000000000000000000000S
032015121011807699FONELAS                                                                                             007607600000001050000010000081500000815000000000000000000000239000004580000000500000007000005630000000000000000000S
032015121011807899FREILA                                                                                              007807800000000985000010000073900000739000000000000000000000251000004400000002000000015000005580000000000000000000S
032015121011807999FUENTE VAQUEROS                                                                                     007907900000004479000040000346500003465000000000000000000001298000022400000002900000108000025400000000000000000000S
032015121011808299GALERA                                                                                              008208200000001183000010000086700000867000000000000000000000273000004910000002200000018000005830000000000000000000S
032015121011808399GOBERNADOR                                                                                          008308300000000304000010000026600000266000000000000000000000115000001810000000900000002000001960000000000000000000S
032015121011808499GÓJAR                                                                                               008408400000005390000050000421500004215000000000000000000001718000026330000012100000132000028860000000000000000000S
032015121011808599GOR                                                                                                 008508500000000797000010000072900000729000000000000000000000184000003680000001700000018000004520000000000000000000S
032015121011808699GORAFE                                                                                              008608600000000415000010000035500000355000000000000000000000139000002280000000400000007000002740000000000000000000S
032015121011808799GRANADA                                                                                             008708700000237540002790018487300184873000000000000000000073586001110570000529200003620001275540000000000000000000S
032015121011808899GUADAHORTUNA                                                                                        008808800000001984000020000155600001556000000000000000000000488000008710000001700000007000010890000000000000000000S
032015121011808999GUADIX                                                                                              008908900000018898000250001513200015132000000000000000000005251000081880000035800000417000096000000000000000000000S
032015121011809399GUALCHOS                                                                                            009309300000004975000050000275200002752000000000000000000000959000015280000002600000044000017840000000000000000000S
032015121011809499GÜEJAR SIERRA                                                                                       009409400000002946000040000238900002389000000000000000000000921000014270000008200000096000016640000000000000000000S
032015121011809599GÜEVÉJAR                                                                                            009509500000002558000030000195900001959000000000000000000000650000011050000004100000061000013730000000000000000000S
032015121011809699HUÉLAGO                                                                                             009609600000000438000010000034200000342000000000000000000000111000002180000000300000006000002510000000000000000000S
032015121011809799HUÉNEJA                                                                                             009709700000001193000020000095600000956000000000000000000000266000005330000002100000028000006470000000000000000000S
032015121011809899HUÉSCAR                                                                                             009809800000007772000100000616700006167000000000000000000002106000033220000016800000166000040040000000000000000000S
032015121011809999HUÉTOR DE SANTILLÁN                                                                                 009909900000001916000020000158100001581000000000000000000000565000009460000004600000052000011520000000000000000000S
032015121011810099HUÉTOR TÁJAR                                                                                        010010000000010075000120000776900007769000000000000000000002528000043680000018900000222000052430000000000000000000S
032015121011810199HUÉTOR VEGA                                                                                         010110100000011844000120000926300009263000000000000000000003604000056480000028300000271000061980000000000000000000S
032015121011810299ILLORA                                                                                              010210200000010500000130000842400008424000000000000000000002487000044480000016200000246000053000000000000000000000S
032015121011810399ITRABO                                                                                              010310300000001014000010000076000000760000000000000000000000304000004850000000800000009000005780000000000000000000S
032015121011810599IZNALLOZ                                                                                            010510500000006867000060000454800004548000000000000000000001264000023060000008000000132000029360000000000000000000S
032015121011810799JAYENA                                                                                              010710700000001212000020000097100000971000000000000000000000320000005990000001800000021000006750000000000000000000S
032015121011810899JEREZ DEL MARQUESADO                                                                                010810800000001027000010000085800000858000000000000000000000300000005190000002700000035000005920000000000000000000S
032015121011810999JETE                                                                                                010910900000000929000010000059900000599000000000000000000000230000003480000000700000011000004050000000000000000000S
032015121011811199JUN                                                                                                 011111100000003661000040000274300002743000000000000000000001059000016530000008700000059000018990000000000000000000S
032015121011811299JUVILES                                                                                             011211200000000134000010000013100000131000000000000000000000026000000420000000100000005000000820000000000000000000S
032015121011811499CALAHORRA (LA)                                                                                      011411400000000748000010000063400000634000000000000000000000211000003550000002300000017000004100000000000000000000S
032015121011811599LÁCHAR                                                                                              011511500000003260000040000254800002548000000000000000000000941000015280000005000000061000017450000000000000000000S
032015121011811699LANJARÓN                                                                                            011611600000003717000050000288200002882000000000000000000001145000016870000007000000098000020460000000000000000000S
032015121011811799LANTEIRA                                                                                            011711700000000526000010000051300000513000000000000000000000186000003180000001900000011000003720000000000000000000S
032015121011811999LECRÍN                                                                                              011911900000002178000050000172900001729000000000000000000000637000010730000004400000040000012580000000000000000000S
032015121011812099LENTEGÍ                                                                                             012012000000000358000010000027000000270000000000000000000000073000001510000000600000004000002030000000000000000000S
032015121011812199LOBRAS                                                                                              012112100000000165000010000013200000132000000000000000000000049000000710000000600000001000000940000000000000000000S
032015121011812299LOJA                                                                                                012212200000021136000260001617100016171000000000000000000005185000087950000044900000491000106260000000000000000000S
032015121011812399LUGROS                                                                                              012312300000000328000010000029300000293000000000000000000000107000001870000001800000008000001960000000000000000000S
032015121011812499LÚJAR                                                                                               012412400000000504000010000039300000393000000000000000000000125000002080000000400000007000002600000000000000000000S
032015121011812699MALAHÁ (LA)                                                                                         012612600000001853000020000149700001497000000000000000000000594000009040000002500000021000010080000000000000000000S
032015121011812799MARACENA                                                                                            012712700000021633000220001658600016586000000000000000000005965000095550000040700000511000109070000000000000000000S
032015121011812899MARCHAL                                                                                             012812800000000428000010000034400000344000000000000000000000110000001970000001000000003000002380000000000000000000S
032015121011813299MOCLÍN                                                                                              013213200000004059000050000331200003312000000000000000000001006000018430000004900000085000024260000000000000000000S
032015121011813399MOLVÍZAR                                                                                            013313300000002903000040000218700002187000000000000000000000850000013980000002400000047000016560000000000000000000S
032015121011813499MONACHIL                                                                                            013413400000007398000090000581100005811000000000000000000001950000031890000015800000152000036400000000000000000000S
032015121011813599MONTEFRÍO                                                                                           013513500000005806000060000458300004583000000000000000000001215000020460000009600000148000027780000000000000000000S
032015121011813699MONTEJÍCAR                                                                                          013613600000002265000030000187500001875000000000000000000000592000010210000003300000044000013920000000000000000000S
032015121011813799MONTILLANA                                                                                          013713700000001324000020000100500001005000000000000000000000268000004590000001800000000000007290000000000000000000S
032015121011813899MORALEDA DE ZAFAYONA                                                                                013813800000003224000030000248200002482000000000000000000000880000015100000003400000033000016430000000000000000000S
032015121011814099MOTRIL                                                                                              014014000000060870000630004356700043567000000000000000000015521000234440000088500001161000268280000000000000000000S
032015121011814199MURTAS                                                                                              014114100000000541000010000041400000414000000000000000000000156000002150000000300000007000002660000000000000000000S
032015121011814399NIGÜELAS                                                                                            014314300000001219000010000097900000979000000000000000000000349000006430000002900000024000007250000000000000000000S
032015121011814499NÍVAR                                                                                               014414400000000920000010000078200000782000000000000000000000280000004480000003100000020000005310000000000000000000S
032015121011814599OGÍJARES                                                                                            014514500000013681000150001043200010432000000000000000000004039000062510000036200000282000070790000000000000000000S
032015121011814699ORCE                                                                                                014614600000001264000020000097000000970000000000000000000000390000006080000002600000031000006700000000000000000000S
032015121011814799ÓRGIVA                                                                                              014714700000005393000060000373400003734000000000000000000001230000017470000006600000108000021960000000000000000000S
032015121011814899OTÍVAR                                                                                              014814800000001108000010000081900000819000000000000000000000315000004880000000500000025000006350000000000000000000S
032015121011814999VILLA DE OTURA                                                                                      014914900000006872000070000517700005177000000000000000000002011000030810000014200000188000035740000000000000000000S
032015121011815099PADUL                                                                                               015015000000008353000090000673000006730000000000000000000002469000039750000014200000239000043860000000000000000000S
032015121011815199PAMPANEIRA                                                                                          015115100000000323000010000026000000260000000000000000000000103000001560000001600000007000001660000000000000000000S
032015121011815299PEDRO MARTÍNEZ                                                                                      015215200000001182000010000093800000938000000000000000000000358000005560000001800000013000006550000000000000000000S
032015121011815399PELIGROS                                                                                            015315300000011212000120000858000008580000000000000000000002981000049920000026100000192000057420000000000000000000S
032015121011815499PEZA (LA)                                                                                           015415400000001263000020000101600001016000000000000000000000312000005380000000900000014000008360000000000000000000S
032015121011815799PINOS GENIL                                                                                         015715700000001407000020000112300001123000000000000000000000424000006760000003400000032000007610000000000000000000S
032015121011815899PINOS PUENTE                                                                                        015815800000012808000130000840800008408000000000000000000002617000044950000018600000209000051340000000000000000000S
032015121011815999PÍÑAR                                                                                               015915900000001234000020000100900001009000000000000000000000302000006100000002100000018000007670000000000000000000S
032015121011816199POLÍCAR                                                                                             016116100000000234000010000022000000220000000000000000000000081000001400000000200000001000001790000000000000000000S
032015121011816299POLOPOS                                                                                             016216200000001847000020000095100000951000000000000000000000381000005900000001200000008000007190000000000000000000S
032015121011816399PÓRTUGOS                                                                                            016316300000000382000010000032400000324000000000000000000000101000001790000000300000013000002210000000000000000000S
032015121011816499PUEBLA DE DON FADRIQUE                                                                              016416400000002324000040000183100001831000000000000000000000611000009730000005700000039000011660000000000000000000S
032015121011816599PULIANAS                                                                                            016516500000005366000060000413500004135000000000000000000001526000023780000009700000115000027070000000000000000000S
032015121011816799PURULLENA                                                                                           016716700000002429000030000189700001897000000000000000000000622000010740000004100000039000012090000000000000000000S
032015121011816899QUÉNTAR                                                                                             016816800000000992000010000080900000809000000000000000000000266000004360000002400000025000005270000000000000000000S
032015121011817099RUBITE                                                                                              017017000000000455000010000033600000336000000000000000000000115000001700000000300000006000002170000000000000000000S
032015121011817199SALAR                                                                                               017117100000002735000030000212300002123000000000000000000000743000013320000004900000065000014970000000000000000000S
032015121011817399SALOBREÑA                                                                                           017317300000012431000120000897800008978000000000000000000003359000051440000016200000279000058210000000000000000000S
032015121011817499SANTA CRUZ DEL COMERCIO                                                                             017417400000000552000010000044200000442000000000000000000000165000002740000000400000019000003260000000000000000000S
032015121011817599SANTA FE                                                                                            017517500000015168000180001162400011624000000000000000000004587000070600000032200000398000076800000000000000000000S
032015121011817699SOPORTÚJAR                                                                                          017617600000000320000010000025800000258000000000000000000000074000001410000001400000002000001610000000000000000000S
032015121011817799SORVILÁN                                                                                            017717700000000569000010000042700000427000000000000000000000123000001780000000600000005000002480000000000000000000S
032015121011817899TORRE-CARDELA                                                                                       017817800000000860000010000074300000743000000000000000000000251000004390000001000000010000005520000000000000000000S
032015121011817999TORVIZCÓN                                                                                           017917900000000710000010000054600000546000000000000000000000160000003040000000700000003000003670000000000000000000S
032015121011818099TREVÉLEZ                                                                                            018018000000000792000010000063100000631000000000000000000000186000003230000003600000008000003810000000000000000000S
032015121011818199TURÓN                                                                                               018118100000000289000010000022300000223000000000000000000000065000001260000000200000002000001540000000000000000000S
032015121011818299UGÍJAR                                                                                              018218200000002619000030000191900001919000000000000000000000682000010830000003100000031000012590000000000000000000S
032015121011818399VÁLOR                                                                                               018318300000000623000010000066000000660000000000000000000000214000003660000001000000014000004430000000000000000000S
032015121011818499VÉLEZ DE BENAUDALLA                                                                                 018418400000002876000040000215800002158000000000000000000000912000014010000004800000058000015360000000000000000000S
032015121011818599VENTAS DE HUELMA                                                                                    018518500000000676000010000055600000556000000000000000000000251000003790000002100000006000004210000000000000000000S
032015121011818799VILLANUEVA DE LAS TORRES                                                                            018718700000000677000010000056100000561000000000000000000000150000002470000000800000003000004000000000000000000000S
032015121011818899VILLANUEVA MESÍA                                                                                    018818800000002045000020000164200001642000000000000000000000558000010030000004100000060000011400000000000000000000S
032015121011818999VÍZNAR                                                                                              018918900000000991000010000077200000772000000000000000000000264000004960000001300000017000005490000000000000000000S
032015121011819299ZAFARRAYA                                                                                           019219200000002023000030000152900001529000000000000000000000505000009520000002600000030000011500000000000000000000S
032015121011819399ZUBIA (LA)                                                                                          019319300000018574000200001419400014194000000000000000000005282000081000000049800000485000093530000000000000000000S
032015121011819499ZÚJAR                                                                                               019419400000002825000030000215200002152000000000000000000000592000010400000006500000059000013570000000000000000000S
032015121011890199TAHA (LA)                                                                                           090190100000000663000010000051200000512000000000000000000000174000002490000001400000011000003230000000000000000000S
032015121011890299VALLE (EL)                                                                                          090290200000001049000020000084700000847000000000000000000000395000005700000001700000018000006420000000000000000000S
032015121011890399NEVADA                                                                                              090390300000001149000020000089200000892000000000000000000000310000005240000001700000017000006050000000000000000000S
032015121011890499ALPUJARRA DE LA SIERRA                                                                              090490400000001065000020000077900000779000000000000000000000276000004310000001600000012000005310000000000000000000S
032015121011890599GABIAS (LAS)                                                                                        090590500000019364000210001450000014500000000000000000000005159000081570000037900000347000092230000000000000000000S
032015121011890699GUAJARES (LOS)                                                                                      090690600000001128000030000091700000917000000000000000000000318000005180000001800000026000006370000000000000000000S
032015121011890799VALLE DEL ZALABÍ                                                                                    090790700000002274000040000185900001859000000000000000000000641000011820000003600000039000013870000000000000000000S
032015121011890899VILLAMENA                                                                                           090890800000001063000020000080500000805000000000000000000000330000004940000003100000026000005530000000000000000000S
032015121011890999MORELÁBOR                                                                                           090990900000000685000010000058900000589000000000000000000000172000003460000000500000005000004460000000000000000000S
032015121011891099PINAR (EL)                                                                                          091091000000001001000020000080300000803000000000000000000000271000004510000001700000016000005310000000000000000000S
032015121011891199VEGAS DEL GENIL                                                                                     091191100000010264000110000739200007392000000000000000000002663000042970000016600000240000047790000000000000000000S
032015121011891299CUEVAS DEL CAMPO                                                                                    091291200000001919000020000148800001488000000000000000000000383000006710000001800000036000009470000000000000000000S
032015121011891399ZAGRA                                                                                               091391300000000898000010000081800000818000000000000000000000237000004150000001600000030000005580000000000000000000S
032015121011891499VALDERRUBIO                                                                                         091491400000002111000020000165800001658000000000000000000000605000010550000003500000068000011880000000000000000000S
032015121012100199ALÁJAR                                                                                              000100100000000798000010000064800000648000000000000000000000248000003550000000900000029000004360000000000000000000S
032015121012100299ALJARAQUE                                                                                           000200200000019857000220001534800015348000000000000000000004525000078350000057200000423000097420000000000000000000S
032015121012100399ALMENDRO (EL)                                                                                       000300300000000846000010000069500000695000000000000000000000196000003500000000800000029000004840000000000000000000S
032015121012100499ALMONASTER LA REAL                                                                                  000400400000001863000040000164100001641000000000000000000000413000007690000004000000060000009660000000000000000000S
032015121012100599ALMONTE                                                                                             000500500000023046000240001548600015486000000000000000000005186000078820000028300000408000095500000000000000000000S
032015121012100699ALOSNO                                                                                              000600600000004103000050000340200003402000000000000000000000998000018520000005800000076000022270000000000000000000S
032015121012100799ARACENA                                                                                             000700700000007859000120000623100006231000000000000000000001942000030830000017700000214000038250000000000000000000S
032015121012100899AROCHE                                                                                              000800800000003205000050000266200002662000000000000000000000753000013440000007400000075000016870000000000000000000S
032015121012100999ARROYOMOLINOS DE LEÓN                                                                               000900900000000998000010000086000000860000000000000000000000279000004020000003100000029000005020000000000000000000S
032015121012101099AYAMONTE                                                                                            001001000000019690000230001468400014684000000000000000000003520000065290000037300000392000078060000000000000000000S
032015121012101199BEAS                                                                                                001101100000004190000060000346400003464000000000000000000001101000019320000010200000082000023320000000000000000000S
032015121012101299BERROCAL                                                                                            001201200000000329000010000032200000322000000000000000000000104000001770000000400000012000002110000000000000000000S
032015121012101399BOLLULLOS PAR DEL CONDADO                                                                           001301300000014393000150001059700010597000000000000000000003232000055760000025300000432000064220000000000000000000S
032015121012101499BONARES                                                                                             001401400000006244000060000404100004041000000000000000000001347000022830000009000000100000029980000000000000000000S
032015121012101599CABEZAS RUBIAS                                                                                      001501500000000760000010000068300000683000000000000000000000166000003210000001700000018000003760000000000000000000S
032015121012101699CALA                                                                                                001601600000001244000020000103400001034000000000000000000000395000006120000003200000040000006880000000000000000000S
032015121012101799CALAÑAS                                                                                             001701700000004167000060000364300003643000000000000000000000840000016790000006900000095000021170000000000000000000S
032015121012101899CAMPILLO (EL)                                                                                       001801800000002144000030000178000001780000000000000000000000514000008910000006600000061000010090000000000000000000S
032015121012101999CAMPOFRÍO                                                                                           001901900000000673000010000059000000590000000000000000000000212000003590000003700000018000003730000000000000000000S
032015121012102099CAÑAVERAL DE LEÓN                                                                                   002002000000000416000010000037200000372000000000000000000000133000002040000001200000001000002250000000000000000000S
032015121012102199CARTAYA                                                                                             002102100000019168000180001223300012233000000000000000000002814000053080000038800000347000067500000000000000000000S
032015121012102299CASTAÑO DEL ROBLEDO                                                                                 002202200000000211000010000017400000174000000000000000000000043000000840000000200000009000001020000000000000000000S
032015121012102399CERRO DE ANDÉVALO (EL)                                                                              002302300000002460000040000214700002147000000000000000000000425000009580000005400000050000012610000000000000000000S
032015121012102499CORTECONCEPCIÓN                                                                                     002402400000000556000010000049500000495000000000000000000000197000002670000001300000017000003120000000000000000000S
032015121012102599CORTEGANA                                                                                           002502500000005025000080000404900004049000000000000000000001098000018280000015100000126000022950000000000000000000S
032015121012102699CORTELAZOR                                                                                          002602600000000289000010000027000000270000000000000000000000083000001340000001800000015000001400000000000000000000S
032015121012102799CUMBRES DE ENMEDIO                                                                                  002702700000000048000010000004900000049000000000000000000000023000000270000000400000003000000290000000000000000000S
032015121012102899CUMBRES DE SAN BARTOLOMÉ                                                                            002802800000000426000010000038100000381000000000000000000000112000002170000000400000012000002740000000000000000000S
032015121012102999CUMBRES MAYORES                                                                                     002902900000001872000030000156400001564000000000000000000000498000008470000004900000072000010410000000000000000000S
032015121012103099CHUCENA                                                                                             003003000000002020000030000182400001824000000000000000000000781000012760000003200000038000014080000000000000000000S
032015121012103199ENCINASOLA                                                                                          003103100000001304000020000120900001209000000000000000000000333000005620000002100000040000007640000000000000000000S
032015121012103299ESCACENA DEL CAMPO                                                                                  003203200000002082000030000180500001805000000000000000000000639000011160000003500000066000014270000000000000000000S
032015121012103399FUENTEHERIDOS                                                                                       003303300000000625000010000053600000536000000000000000000000214000003170000002000000010000003590000000000000000000S
032015121012103499GALAROZA                                                                                            003403400000001503000020000120700001207000000000000000000000376000006250000005000000025000007590000000000000000000S
032015121012103599GIBRALEÓN                                                                                           003503500000012474000140000962200009622000000000000000000002934000047730000023100000249000058290000000000000000000S
