031993061049005000002005TMARIA DEL MAR AGUERO RUANO                                                  000000000000000000S
031993061049006000002006TRAFAEL ANGEL SALAS MARIN                                                    000000000000000000N
031993061049007000002007TJULIO VAZQUEZ FERNANDEZ                                                     000000000000000000N
031993061049027000003027TPATRICIO ESTEVEZ LOPEZ                                                      000000000000000000N
031993061049028000003028TMARIA ISABEL LOPEZ ESCOBAR                                                  000000000000000000N
031993061049029000003029TVICENTE RUIZ FERRE                                                          000000000000000000N
031993061049018000006018TCARLOS NAVARRO BARBERAN                                                     000000000000000000N
031993061049019000006019TANTONIO RUIZ ORTEGA                                                         000000000000000000N
031993061049004000010004TELVIRA RAFALES GARCIA                                                       000000000000000000N
031993061049024000020024TFRANCISCO FRESNEDA LOPEZ                                                    000000000000000000N
031993061049025000020025TANTONIO LOPEZ TARIFA                                                        000000000000000000N
031993061049026000020026TJUAN ANTONIO VERDEJO PADILLA                                                000000000000000000N
031993061049021000023021TFRANCISCO CANO DIAZ                                                         000000000000000000N
031993061049022000023022TJOSE ANTONIO LOPEZ VARGAS                                                   000000000000000000N
031993061049023000023023TMARIA ISABEL MARTINEZ SOLER                                                 000000000000000000N
031993061049001000024001TANTONIO BONILLA RODRIGUEZ                                                   000000000000000000S
031993061049002000024002TBLAS DIAZ BONILLO                                                           000000000000000000S
031993061049003000024003TMARTIRIO TESORO AMATE                                                       000000000000000000S
031993061049014000025014TANTONIO NICOLAS GONZALEZ PARRA                                              000000000000000000N
031993061049015000025015TANTONIO LOPEZ LOPEZ                                                         000000000000000000N
031993061049016000025016TJUAN MARTINEZ GONZALEZ                                                      000000000000000000N
031993061049008000080008TJERONIMA HERVAS LOPEZ                                                       000000000000000000N
031993061049009000080009TJOSE SANCHEZ CAPARROS                                                       000000000000000000N
031993061049010000080010TJOSE VARGAS LOPEZ                                                           000000000000000000N
031993061049020000086020TVICTORIA GAITAN MARTINEZ                                                    000000000000000000N
031993061049017000096017TFRANCISCO LORENZO GARCIA                                                    000000000000000000N
031993061049011000135011TNICOLAS AGUADO FERNANDEZ                                                    000000000000000000N
031993061049012000135012TFEDERICO GARCIA BUENO                                                       000000000000000000N
031993061049013000135013TJUAN DIEGO SANCHEZ CORTES                                                   000000000000000000N
031993061049030000171030THERMINIA ANTEQUERA CORTES                                                   000000000000000000N
031993061049031000171031TISABEL CANO LOPEZ                                                           000000000000000000N
031993061049032000171032TJOSEFA GUERRERO BERENGUEL                                                   000000000000000000N
031993061119033000002033TALVARO MOLINA FERNANDEZ DE MIRANDA                                          000000000000000000S
031993061119034000002034TJOSE MARIA RODRIGUEZ ROMERO                                                 000000000000000000N
031993061119035000002035TSEBASTIAN RUIZ BENITEZ                                                      000000000000000000N
031993061119027000003027TMIGUEL MUÑOZ ROJAS                                                          000000000000000000N
031993061119028000003028TANTONIO GONZALEZ SOBRINO                                                    000000000000000000N
031993061119029000003029TANTONIO SEQUERA TOVAL                                                       000000000000000000N
031993061119005000006005TFERNANDO PORRO GUERRERO                                                     000000000000000000N
031993061119006000006006TMANUEL PARODI GALLARDO                                                      000000000000000000N
031993061119007000006007TSEBASTIAN VEGA CALERO                                                       000000000000000000N
031993061119008000010008TEDUARDO SAENZ JIMENEZ                                                       000000000000000000N
031993061119025000013025TJOSE LUIS BATUGG SERRANO                                                    000000000000000000N
031993061119022000020022TJUAN MANUEL GOMEZ LOPEZ DE LA BANDA                                         000000000000000000N
031993061119023000020023TLAMBERTO MOROTTI TORRE                                                      000000000000000000N
031993061119024000020024TMARIA DEL CARMEN SECO FERNANDEZ                                             000000000000000000N
031993061119036000021036TANTONIO RAMOS ARGUELLES                                                     000000000000000000N
031993061119016000022016TRAFAEL RIVERO GUTIERREZ                                                     000000000000000000N
031993061119017000022017TMANUEL LOZANO FIGUEROA                                                      000000000000000000N
031993061119018000022018TANTONINO PARRA SERRANO                                                      000000000000000000N
031993061119013000023013TANTONIO ALBA CARO                                                           000000000000000000N
031993061119014000023014TGERVASIO MANUEL HERNANDEZ PALOMEQUE                                         000000000000000000N
031993061119015000023015TMARIA CARMEN PATINO LAURAL                                                  000000000000000000N
031993061119010000024010TJOSE CARRASCAO GUTIERREZ                                                    000000000000000000S
031993061119011000024011TJAIME PEREZ-LLORCA RODRIGO                                                  000000000000000000S
031993061119012000024012TRAFAEL ROMAN GUERRERO                                                       000000000000000000S
031993061119019000025019TRAMON SANCHEZ HEREDIA                                                       000000000000000000N
031993061119020000025020TMANUEL PULETE TROYANO                                                       000000000000000000N
031993061119021000025021TNICOLAS RUBIO GARCIA                                                        000000000000000000N
031993061119001000080001TCARMEN HUGUET MOYA                                                          000000000000000000N
031993061119002000080002TROBERTO LOSADA CABEZA                                                       000000000000000000N
031993061119003000080003TEMILIO RUBIALES ROJAS                                                       000000000000000000N
031993061119026000086026TSALVADOR FILLOL PIRIS                                                       000000000000000000N
031993061119004000115004TJOSE MARIA VEGA PEREZ                                                       000000000000000000N
031993061119030000135030TPATRICIA MARIA MUÑOZ JIMENEZ                                                000000000000000000N
031993061119031000135031TJUAN ANTONIO SALAS CAÑA                                                     000000000000000000N
031993061119032000135032TMARIA VICTORIA VALLE MILLAN                                                 000000000000000000N
031993061119009000171009TROSA PATRON PEREZ                                                           000000000000000000N
031993061149008000002008TENRIQUE RAFAEL BELLIDO MUÑOZ                                                000000000000000000S
031993061149009000002009TANTONIA LUISA SOLA NAVAS                                                    000000000000000000N
031993061149010000002010TMARIA TERESA VELASCO PORTERO                                                000000000000000000N
031993061149028000003028TMARIA DEL CARMEN GUZMAN BRAVO                                               000000000000000000N
031993061149029000003029TJOSE ANTONIO NIETO BALLESTEROS                                              000000000000000000N
031993061149030000003030TJOSE PEÑA LOZANO                                                            000000000000000000N
031993061149032000006032TRAFAEL ARANDA ORDOÑEZ                                                       000000000000000000N
031993061149033000006033TFRANCISCO PEREA ARELLANO                                                    000000000000000000N
031993061149012000009012TFRANCISCO SANTIAGO TEJADA                                                   000000000000000000N
031993061149006000010006TABRAHAM SALVADOR LUNA                                                       000000000000000000N
031993061149022000020022TMARIA LUISA ALCALA DUARTE                                                   000000000000000000N
031993061149023000020023TFRANCISCO JAVIER MAESTRE MARTINEZ                                           000000000000000000N
031993061149024000020024TENRIQUE OSUNA MEMBRILLA                                                     000000000000000000N
031993061149004000022004TFRANCISCO CEJAS MORENO                                                      000000000000000000N
031993061149005000022005TJUAN SOSA GARCIA                                                            000000000000000000N
031993061149016000023016TRAFAEL GARCIA CONTRERAS                                                     000000000000000000N
031993061149017000023017TMANUEL GOMEZ GOMEZ                                                          000000000000000000N
031993061149018000023018TINMACULADA TRUJILLO PERALES                                                 000000000000000000N
031993061149025000024025TDIEGO ALONSO COLACIOS                                                       000000000000000000S
031993061149026000024026TJOAQUIN MARTINEZ BJORKMAN                                                   000000000000000000S
031993061149027000024027TANA MARIA SANCHEZ DE MIGUEL                                                 000000000000000000S
031993061149001000025001TJUAN MIGUEL MARTIN RUEDA                                                    000000000000000000N
031993061149002000025002TMANUEL RIVERA MATEOS                                                        000000000000000000N
031993061149003000025003TJOSE MIGUEL SANTOS GONZALEZ                                                 000000000000000000N
031993061149019000080019TMANUEL JESUS CANO PRIETO                                                    000000000000000000N
031993061149020000080020TMARIA CARMEN MORALES DIEZ                                                   000000000000000000N
031993061149021000080021TCARMEN RAMIREZ BALTANAS                                                     000000000000000000N
031993061149007000086007TFRANCISCO ALMAZAN CAMAÑEZ                                                   000000000000000000N
031993061149011000115011TMARIA EGUIAZAROVA ALDAZABAL                                                 000000000000000000N
031993061149013000135013TJUAN JOSE ALEMANY GRANDA                                                    000000000000000000N
031993061149014000135014TFRANCISCO MUÑOZ CALERO                                                      000000000000000000N
031993061149015000135015TISIDORO RUIZ MATEOS JIMENEZ DE TEJADA                                       000000000000000000N
031993061149031000171031TBEGOÑA VIEJO OJANGUREN                                                      000000000000000000N
031993061189021000002021TJUAN DE DIOS MARTINEZ SORIANO                                               000000000000000000S
031993061189022000002022TMARIA JOSE PEREZ TITOS                                                      000000000000000000N
031993061189023000002023TJAIME SANCHEZ ILLESCAS                                                      000000000000000000N
031993061189028000003028TDIEGO HERNANDEZ LOPEZ                                                       000000000000000000N
031993061189029000003029TCRISTOBAL PEREZ VALENZUELA                                                  000000000000000000N
031993061189030000003030TEDUARDO SASTRE GARZON                                                       000000000000000000N
031993061189012000006012TJOSE MARIA CABALLERO MORENO                                                 000000000000000000N
031993061189013000006013TFRANCISCO GARZON BALLESTEROS                                                000000000000000000N
031993061189014000006014TCRISTOBAL MARTIN MENDOZA                                                    000000000000000000N
031993061189008000010008TMARIA ANGELES PATIÑO ORTIZ                                                  000000000000000000N
031993061189024000012024TJOSE CABALLERO FERNANDEZ                                                    000000000000000000N
031993061189015000020015TFRANCISCO JOSE DE ALARCON ECHEVARRIA                                        000000000000000000N
031993061189016000020016TMARIA ANTONIA NUÑEZ RODRIGUEZ                                               000000000000000000N
031993061189017000020017TSERGIO SANTANA DOMINGUEZ                                                    000000000000000000N
031993061189025000022025TCARMEN FERNANDEZ DE LA ROSA                                                 000000000000000000N
031993061189026000022026TJUAN MANUEL PUGA BARROSO                                                    000000000000000000N
031993061189027000022027TANTONIO RODRIGUEZ RECIO                                                     000000000000000000N
031993061189031000023031TMANUEL PIÑAS GOMEZ                                                          000000000000000000N
031993061189032000023032TFRANCISCO RUIZ CASTRO                                                       000000000000000000N
031993061189033000023033TAMALIA TORO SORIANO                                                         000000000000000000N
031993061189018000024018TJUAN CUENCA DOBLADO                                                         000000000000000000S
031993061189019000024019TDIEGO HURTADO GALLARDO                                                      000000000000000000S
031993061189020000024020TFRANCISCA PLEGUEZUELOS AGUILAR                                              000000000000000000S
031993061189005000025005TMIGUEL AVILA PADIAL                                                         000000000000000000N
031993061189006000025006TANTONIO JOSE DIEZ GARCIA                                                    000000000000000000N
031993061189007000025007TANTONIO PAREJO CARMONA                                                      000000000000000000N
031993061189004000069004TANTONIO JESUS GARCIA MUÑOZ                                                  000000000000000000N
031993061189001000080001TJOSE MARIA AGUI FUENTES                                                     000000000000000000N
031993061189002000080002TANTONIO JOSE ESCAMEZ RODRIGUEZ                                              000000000000000000N
031993061189003000080003TJUAN ENRIQUE PEREZ GONZALEZ                                                 000000000000000000N
031993061189034000086034TMARIA ASUNCION BUSO PARDO                                                   000000000000000000N
031993061189038000115038TJUAN FABERO CENDRERO                                                        000000000000000000N
031993061189009000135009TFRANCISCO DE ASIS LOPEZ MARTIN                                              000000000000000000N
031993061189010000135010TMANUEL MATEOS GARCIA                                                        000000000000000000N
031993061189011000135011TANTONIA MARIA ROSALES CANO                                                  000000000000000000N
031993061189035000171035TJUAN JOSE CABRERA JORDAN                                                    000000000000000000N
031993061189036000171036TJESUS ESPINOSA GONZALEZ                                                     000000000000000000N
031993061189037000171037TFRANCISCO J. SALAZAR RUIZ (INDEPENDIENTE)                                   000000000000000000N
031993061219002000002002TARTURO ESTEBAN ALBERT                                                       000000000000000000S
031993061219003000002003TJESUS MARIA GARCIA PEREZ                                                    000000000000000000N
031993061219004000002004TJOSE SANCHEZ SEVILLANO                                                      000000000000000000N
031993061219027000003027TCELESTINO FERNANDEZ PANIAGUA                                                000000000000000000N
031993061219028000003028TNARCISO MACIAS CORDERO                                                      000000000000000000N
031993061219029000003029TJOAQUIN CARLOS VILAR MARTIN                                                 000000000000000000N
031993061219019000006019TJOSE RAMON MADROÑAL SOLIS                                                   000000000000000000N
031993061219020000006020TRAFAEL MONTES ZORILLA                                                       000000000000000000N
031993061219021000006021TMANUEL VIRELLA REDONDO                                                      000000000000000000N
031993061219018000010018TMARIA DEL CARMEN DIEZ ALMEIDA                                               000000000000000000N
031993061219009000020009TJUAN FLORES GONZALEZ                                                        000000000000000000N
031993061219010000020010TMARIA TERESA MANSILLA RODRIGUEZ                                             000000000000000000N
031993061219011000020011TINMACULADA VARGAS DOMINGUEZ                                                 000000000000000000N
031993061219024000023024TMANUEL ANGEL BENITO JIMENEZ                                                 000000000000000000N
031993061219025000023025TLUIS DOMINGUEZ BONET                                                        000000000000000000N
031993061219026000023026TLUISA GUERRERO ALVAREZ                                                      000000000000000000N
031993061219015000024015TROSARIO BALLESTER ANGULO                                                    000000000000000000S
031993061219016000024016TANTONIO GARCIA CORREA                                                       000000000000000000S
031993061219017000024017TTOMAS SEISDEDOS MARTIN                                                      000000000000000000S
031993061219006000025006TPABLO DIAZ SANCHEZ                                                          000000000000000000N
031993061219007000025007TJOSE GONZALEZ JAPON                                                         000000000000000000N
031993061219008000025008TJUAN FRANCISCO RODRIGUEZ CASTRO                                             000000000000000000N
031993061219012000080012TJOSE LUIS LERIDA MORENO                                                     000000000000000000N
031993061219013000080013TFRANCISCO MUÑOZ HIERRO                                                      000000000000000000N
031993061219014000080014TAMADOR RIVERO GONZALEZ                                                      000000000000000000N
031993061219005000086005TRAFAEL PRIETO MORALEDA                                                      000000000000000000N
031993061219022000135022TJUANA TERESA AQUINO PEREZ                                                   000000000000000000N
031993061219023000135023TMARIA EULALIA MARIN LUNA                                                    000000000000000000N
031993061219001000171001TINMACULADA JOSE OSORIO AREU                                                 000000000000000000N
031993061239018000002018TRAMON PALACIOS RUBIO                                                        000000000000000000S
031993061239019000002019TDEMETRIO RISOTO MARCOS                                                      000000000000000000N
031993061239020000002020TCLEMENTA SANCHEZ RAMIRO                                                     000000000000000000N
031993061239014000003014TRAFAEL CHARQUERO DEL CAMPO                                                  000000000000000000N
031993061239015000003015TMIGUEL ANGEL LATORRE CANO                                                   000000000000000000N
031993061239016000003016TMIGUEL REYES LORITE                                                         000000000000000000N
031993061239007000006007TANTONIO GOMEZ LILLO                                                         000000000000000000N
031993061239008000006008TCRISTOBAL GABRIEL HERRADOR MARIN                                            000000000000000000N
031993061239009000006009TALFONSO TOLEDANO SALVADOR                                                   000000000000000000N
031993061239017000010017TALICIA DEL RIO RUBIO                                                        000000000000000000N
031993061239024000020024TCARMEN LOPEZ MIÑONES                                                        000000000000000000N
031993061239025000020025TANTONIO ROMERO RAMOS                                                        000000000000000000N
031993061239026000020026TVICENTE SANTAMARINA GARZON                                                  000000000000000000N
031993061239027000022027TGABRIEL PEREZ DE LA CASA                                                    000000000000000000N
031993061239031000024031TFRANCISCO GARCIA VICO                                                       000000000000000000S
031993061239032000024032TISIDRO REVERTE ORTEGA                                                       000000000000000000S
031993061239033000024033TJOSE MARIA DE LA TORRE COLMENERO                                            000000000000000000S
031993061239028000025028TJOSE BAUTISTA DE LA TORRE                                                   000000000000000000N
031993061239029000025029TCELEDONIO FORNELLS ARMIJO                                                   000000000000000000N
031993061239030000025030TANTONIO LOZANO LOPEZ                                                        000000000000000000N
031993061239021000060021TMARIA MILAGROS MERINO SANTAMARIA                                            000000000000000000N
031993061239022000060022TMANUEL MUÑOZ MAGDALENO                                                      000000000000000000N
031993061239023000060023TFRANCISCO-ERNESTO PUERTAS MOYA                                              000000000000000000N
031993061239011000080011TJOSE MARIA CARVAJAL NUÑEZ                                                   000000000000000000N
031993061239012000080012TTOMAS CHILLON BARRERO                                                       000000000000000000N
031993061239013000080013TFRANCISCO PEREZ PORTILLO                                                    000000000000000000N
031993061239001000086001TJOSE ESTEVEZ GOMEZ                                                          000000000000000000N
031993061239006000115006TJAVIER VIDAL GUTIERREZ SAINZ                                                000000000000000000N
031993061239002000116002TRAFAEL ARJONA ALEJANDRE                                                     000000000000000000N
031993061239003000116003TFRANCISCO GUTIERREZ FERNANDEZ                                               000000000000000000N
031993061239004000116004TMARINA HEREDIA FIGUERAS                                                     000000000000000000N
031993061239010000135010TRAFAEL MIRANDA DE LEYVA                                                     000000000000000000N
031993061239005000171005TFRANCISCO MOLINO OLMEDO                                                     000000000000000000N
031993061299029000002029TJOSE MIGUEL FERNANDEZ PELEGRINA                                             000000000000000000S
031993061299030000002030TCONCEPCION FORTUNY PEREZ                                                    000000000000000000N
031993061299031000002031TMARIO ROBLES DEL MORAL                                                      000000000000000000N
031993061299019000003019TVIRGINIA ESTERO MOLINA                                                      000000000000000000N
031993061299020000003020TMANUEL FLORES SOLER                                                         000000000000000000N
031993061299021000003021TEMILIA GARCIA RODRIGUEZ                                                     000000000000000000N
031993061299026000006026TJOSE BERDUGO ROMERO                                                         000000000000000000N
031993061299027000006027TJUAN JOSE DIEGO BARQUIN                                                     000000000000000000N
031993061299028000006028TVICTOR GERMAN TROYANO ESCALANTE                                             000000000000000000N
031993061299032000009032TSANTIAGO DEL RIO GUERRERO                                                   000000000000000000N
031993061299033000010033TANGELA LOPEZ RAMOS                                                          000000000000000000N
031993061299006000020006TMARCELO ARCE AVIÑO                                                          000000000000000000N
031993061299007000020007TROMAN MARTINEZ DE VELASCO FARINOS                                           000000000000000000N
031993061299008000020008TPEDRO JOSE SALVAT ROIG                                                      000000000000000000N
031993061299012000022012TJOSEFA ALCARAZ ALCARAZ                                                      000000000000000000N
031993061299013000022013TJOSE LUIS MUÑOZ CABRERA                                                     000000000000000000N
031993061299022000023022TFELIX MARTIN CARRO                                                          000000000000000000N
031993061299023000023023TPEDRO MORENO BRENES                                                         000000000000000000N
031993061299024000023024TCRISTINA RUIZ CORTINA SIERRA                                                000000000000000000N
031993061299002000024002TANTONIO GARCIA DUARTE                                                       000000000000000000S
031993061299003000024003TANA DEL CARMEN GUIRADO PEREZ                                                000000000000000000S
031993061299004000024004TANTONIO MALDONADO PEREZ                                                     000000000000000000S
031993061299034000025034TJUAN DE JESUS IGNACIO DUARTE VAZQUEZ                                        000000000000000000N
031993061299035000025035TANTONIO MARIA MARIN LARA                                                    000000000000000000N
031993061299036000025036TSALVADOR SANCHEZ PEREZ                                                      000000000000000000N
031993061299025000069025TDOMINGO BAREA LAINEZ                                                        000000000000000000N
031993061299016000080016TMANUEL BERENGUER PEREZ                                                      000000000000000000N
031993061299017000080017TBARTOLOME FLORIDO LUQUE                                                     000000000000000000N
031993061299018000080018TLUIS CARLOS TIMONET ANDREU                                                  000000000000000000N
031993061299005000086005TMANUEL LAPUENTE MONEDERO                                                    000000000000000000N
031993061299001000129001TMIGUEL ANGEL MUÑOZ BAUTISTA                                                 000000000000000000N
031993061299009000135009TDAVID BENAVENTE PEREZ                                                       000000000000000000N
031993061299010000135010TTRISTAN JULIAN GONZALEZ CANDELA                                             000000000000000000N
031993061299011000135011TJOSE ENRIQUE HERNANDO GIMENEZ                                               000000000000000000N
031993061299014000171014TMARIA NIEVES FARIÑAS LUCAS                                                  000000000000000000N
031993061299015000171015TFRANCISCO JAVIER REINA CABALLERO                                            000000000000000000N
031993061419004000002004TJUAN MOYA SANABRIA                                                          000000000000000000S
031993061419005000002005TJOSE MARIA PAREJA CIURO                                                     000000000000000000N
031993061419006000002006TAUREA SANCHEZ DE CUETO LOZANO                                               000000000000000000N
031993061419031000003031TANTONIO ANGULO ORTIZ                                                        000000000000000000N
031993061419032000003032TPEDRO COLLADO VILLALTA                                                      000000000000000000N
031993061419033000003033TJUAN GUIJO GOMEZ                                                            000000000000000000N
031993061419024000006024TANTONIO BENITEZ CRESPO                                                      000000000000000000N
031993061419025000006025TFRANCISCO PACHECO VAZQUEZ                                                   000000000000000000N
031993061419026000006026TBENITO PINEDA CONDE                                                         000000000000000000N
031993061419010000009010TRAQUEL DIAZ DEL RIO                                                         000000000000000000N
031993061419011000010011TJOSE PEREGRINA RAMOS                                                        000000000000000000N
031993061419013000013013TANTONIO POSTIGO LEON                                                        000000000000000000N
031993061419014000013014TJOSE URBANO SANCHEZ                                                         000000000000000000N
031993061419037000020037TANTONIO BECERRA SANCHEZ                                                     000000000000000000N
031993061419038000020038TALFONSO CRESPO MORENO                                                       000000000000000000N
031993061419039000020039TJOSE SANTIAGO GOMEZ                                                         000000000000000000N
031993061419034000021034TANGELES CALVO ROMEO                                                         000000000000000000N
031993061419035000021035TFERNANDO DIAZ RUIZ DE LA FUENTE                                             000000000000000000N
031993061419036000021036TMARIA CRISTINA LADRON DE GUEVARA GARCIA                                     000000000000000000N
031993061419018000022018TJOSE MANUEL GUERRA LOBO                                                     000000000000000000N
031993061419007000023007TMANUEL SANTIAGO FERNANDEZ DEL POZO                                          000000000000000000N
031993061419008000023008TJUAN PRADAS ORTIZ                                                           000000000000000000N
031993061419009000023009TMANUELA SANTOS GUTIERREZ                                                    000000000000000000N
031993061419028000024028TALFONSO GARRIDO AVILA                                                       000000000000000000S
031993061419029000024029TFRANCISCO LOPEZ REAL                                                        000000000000000000S
031993061419030000024030TFRANCISCO MORENO FRANCO                                                     000000000000000000S
031993061419001000025001TMIGUEL CAMACHO RAMIREZ                                                      000000000000000000N
031993061419002000025002TEMILIO LECHUGA GALLEGO                                                      000000000000000000N
031993061419003000025003TJULIO MARVIZON PRENEY                                                       000000000000000000N
031993061419012000069012TJOSE ANTONIO LENCINA GARCIA                                                 000000000000000000N
031993061419021000080021TMANUEL ALVAREZ FUENTES                                                      000000000000000000N
031993061419022000080022TMARIA DE LOS ANGELES FERNANDEZ LUNA                                         000000000000000000N
031993061419023000080023TMARIA DOLORES GARCIA-BAQUERO SEVILLA                                        000000000000000000N
031993061419027000086027TAMPARO-CARMEN LLORET VIVO                                                   000000000000000000N
031993061419019000115019TMARIA REYES BURGOS CANTOS                                                   000000000000000000N
031993061419015000135015TESTEBAN LOPEZ NAVARRO                                                       000000000000000000N
031993061419016000135016TJOSEFA RODRIGUEZ VERANO                                                     000000000000000000N
031993061419017000135017TJUAN VARGAS HIDALGO                                                         000000000000000000N
031993061419020000171020TMANUEL POLO OLIVA                                                           000000000000000000N
031993061229018000001018TGONZALO ARGUILE LAGUARTA                                                    000000000000000000S
031993061229019000001019TJUAN JOSE RODRIGUEZ TORRES                                                  000000000000000000S
031993061229020000001020TMARIA BEGOÑA SANCHO ANTONIO                                                 000000000000000000S
031993061229013000002013TRODOLFO AINSA ESCARTIN                                                      000000000000000000S
031993061229014000002014TANGEL ESCOLAN GELOS                                                         000000000000000000N
031993061229015000002015TESTEBAN DE MARIA GARICANO CEBRIAN                                           000000000000000000N
031993061229007000003007TJAVIER ANGEL ALBEROLA ASPIROZ                                               000000000000000000N
031993061229008000003008TJOSE ANTONIO BERNABEU NACHER                                                000000000000000000N
031993061229009000003009TJOSE LUIS POMAR SUAREZ                                                      000000000000000000N
031993061229017000010017TMARIA PILAR SESMA LORENTE                                                   000000000000000000N
031993061229001000029001TJOSE IGNACIO ALCALDE HERRERO                                                000000000000000000N
031993061229002000029002TJOSE MARIA FANTOVA AUSED                                                    000000000000000000N
031993061229003000029003TCARLOS ENRIQUE GABRIEL REYES RUBIO                                          000000000000000000N
031993061229004000030004TANTONIO SIXTO ABADIAS CAMBRA                                                000000000000000000N
031993061229005000030005TJUAN ARELLANO MUR                                                           000000000000000000N
031993061229006000030006TJOSE LUIS BANDRES MELER                                                     000000000000000000N
031993061229021000086021TJUAN FRANCISCO MUÑOZ LOPEZ                                                  000000000000000000N
031993061229010000104010TMARIA ROSARIO BRUNED SALAMERO                                               000000000000000000N
031993061229011000104011TPABLO MALO MURILLO                                                          000000000000000000N
031993061229012000104012TJOSE ANTONIO MARTINEZ VAL                                                   000000000000000000N
031993061229016000115016TANDRES VICHO EDERRA                                                         000000000000000000N
031993061229022000119022TMARTIN FERRER ABAD (ARM)                                                    000000000000000000N
031993061229023000119023TJOSEFA GABANDE BANERES (ARM)                                                000000000000000000N
031993061449013000001013TJOSE LUIS ALEGRE ESCUDER                                                    000000000000000000S
031993061449014000001014TRUFINO FOZ DEL CACHO                                                        000000000000000000S
031993061449015000001015TCARLOS GUIA MARQUES                                                         000000000000000000S
031993061449007000002007TGREGORIO GARZARAN GARCIA                                                    000000000000000000S
031993061449008000002008TFERNANDO JOAQUIN IBAÑEZ GIMENO                                              000000000000000000N
031993061449009000002009TJOSE MARIA PASCUAL FERNANDEZ LAYOS                                          000000000000000000N
031993061449004000003004TJOSE MARIA FUSTER MUNIESA                                                   000000000000000000N
031993061449005000003005TJULIO GARCIA LOMBART                                                        000000000000000000N
031993061449006000003006TJOSE ANDRES GOMEZ CEREZO                                                    000000000000000000N
031993061449021000009021TANUNCIACION T.CARRASCOSO MANSILLA                                           000000000000000000N
031993061449016000010016TDOLORES CAMBIL MEDINA                                                       000000000000000000N
031993061449022000012022TESTHER LUISA BUJEDA LAZARO                                                  000000000000000000N
031993061449023000029023TFERNANDO JOSE BURILLO ALBACETE                                              000000000000000000N
031993061449024000029024TFRANCISCO MARTIN FERNANDEZ                                                  000000000000000000N
031993061449025000029025TANTONIO PEREZ SANCHEZ                                                       000000000000000000N
031993061449010000030010TLUIS BALLESTER SAURA                                                        000000000000000000N
031993061449011000030011TJUAN MIGUEL FERRER GORRIZ                                                   000000000000000000N
031993061449012000030012TINOCENCIO MARTINEZ SANCHEZ                                                  000000000000000000N
031993061449026000086026TVICENTE CANDEL RAMIREZ                                                      000000000000000000N
031993061449018000104018TPABLO DIEZ HERNANDO                                                         000000000000000000N
031993061449019000104019TVISITACION GARCIA ALQUEZAR                                                  000000000000000000N
031993061449020000104020TDIEGO LOPEZ DIAZ                                                            000000000000000000N
031993061449017000115017TANTONIO ORTIZ AVILA(INDEPENDIENTE)                                          000000000000000000N
031993061449001000119001TJOSE LUIS GALINDO MONGE                                                     000000000000000000N
031993061449002000119002TPEDRO JOSE GARCIA LOPEZ                                                     000000000000000000N
031993061449003000119003TMARIA DEL CARMEN MODREGO LAFORA                                             000000000000000000N
031993061509010000001010TBERNARDO BAYONA AZNAR                                                       000000000000000000S
031993061509011000001011TARMANDO PEREZ BORROY                                                        000000000000000000S
031993061509012000001012TMARIA INES POZIÑA PEREZ                                                     000000000000000000S
031993061509007000002007TMARIANO ALIERTA IZUEL                                                       000000000000000000S
031993061509008000002008TVERONICA LOPE FONTAGNE                                                      000000000000000000N
031993061509009000002009TRAMON MORENO BUSTOS                                                         000000000000000000N
031993061509013000003013TENRIQUE APARICIO PALOMAR                                                    000000000000000000N
031993061509014000003014TANGEL PELLICER COSCOLIN                                                     000000000000000000N
031993061509015000003015TMARIA ELENA SANZ LIGORRE                                                    000000000000000000N
031993061509030000010030TMARIA TERESA BLASCO VAL                                                     000000000000000000N
031993061509027000012027TSANTIAGO GASCON SANTOS                                                      000000000000000000N
031993061509019000013019TMIGUEL ANGEL GAVIN LANGARITA                                                000000000000000000N
031993061509020000013020TPABLO JULIAN LOU IBARRA                                                     000000000000000000N
031993061509022000029022TJOSE ANTONIO ACERO GIL                                                      000000000000000000N
031993061509023000029023TFELIPE GONZALEZ MUÑOZ                                                       000000000000000000N
031993061509024000029024TALFREDO FEDERICO SOLANO CALVO                                               000000000000000000N
031993061509004000030004TMANUEL ESCOLA HERNANDO                                                      000000000000000000N
031993061509005000030005TLUIS MARIA GARRIGA ORTIZ                                                    000000000000000000N
031993061509006000030006TMARIA JESUS DE SUS GARCIA                                                   000000000000000000N
031993061509028000048028TESMERALDA ALFARO GIMENO                                                     000000000000000000N
031993061509031000058031TMIGUEL ROMANO AYALA (INDEPENDIENTE)                                         000000000000000000N
031993061509025000083025TMARIA JESUS AYLON BORJA                                                     000000000000000000N
031993061509026000083026TMARIA EUGENIA PEREZ PELAYO                                                  000000000000000000N
031993061509021000086021TJUAN JOSE GRAU OLIVERT                                                      000000000000000000N
031993061509001000104001TADOLFO BURRIEL BORQUE                                                       000000000000000000N
031993061509002000104002TMARIA DE LAS MERCEDES GALLIZO LLAMAS                                        000000000000000000N
031993061509003000104003TEMILIO LACAMBRA MANZANO                                                     000000000000000000N
031993061509029000115029TALICIA GALDEANO DIAZ                                                        000000000000000000N
031993061509016000119016TMANUEL AGUILERA LOPEZ                                                       000000000000000000N
031993061509017000119017TDOMINGO FERNANDO BERNAD PELEGAY                                             000000000000000000N
031993061509018000119018TJOAQUIN SOGUERO ROMEA                                                       000000000000000000N
031993061339011000001011TRAFAEL LUIS FERNANDEZ ALVAREZ                                               000000000000000000S
031993061339012000001012TMARIA NELLY FERNANDEZ ARIAS                                                 000000000000000000S
031993061339013000001013TJOSE RAMON HERRERO MEREDIZ                                                  000000000000000000S
031993061339008000002008TANGEL FERNANDEZ MENENDEZ                                                    000000000000000000S
031993061339009000002009TISIDRO MANUEL MARTINEZ OBLANCA                                              000000000000000000N
031993061339010000002010TLUIS SERVANDO PELAEZ RODRIGUEZ                                              000000000000000000N
031993061339017000003017TJAVIER VIDAL GARCIA SANCHEZ                                                 000000000000000000N
031993061339018000003018TALFONSO ROMAN LOPEZ GONZALEZ                                                000000000000000000N
031993061339019000003019TCARLOS MARTIN PANICERES ESTRADA                                             000000000000000000N
031993061339032000009032TPATRICIA GESTO LOPEZ                                                        000000000000000000N
031993061339033000010033TJOSE ANTONIO PUIG MARCO                                                     000000000000000000N
031993061339031000013031TCRISTOBAL CHAPARRO PEREZ                                                    000000000000000000N
031993061339007000017007TMARIA LUISA CORRAL FERNANDEZ                                                000000000000000000N
031993061339014000031014TMARIA ANTONIA ANTON FERNANDEZ                                               000000000000000000N
031993061339015000031015TESTEBAN INTRIAGO DE DIEGO                                                   000000000000000000N
031993061339016000031016TJOSE CARLOS RUBIERA TUYA                                                    000000000000000000N
031993061339024000033024TMARIA DOLORES BECERRA GARCIA                                                000000000000000000N
031993061339025000033025TANA ROSA GONZALEZ RIERA                                                     000000000000000000N
031993061339026000033026TANA MARIA LOPEZ MARTINEZ                                                    000000000000000000N
031993061339001000048001TJOSE IGNACIO CARRERA RUIZ                                                   000000000000000000N
031993061339002000048002TCARLOS GARCIA ALCALDE                                                       000000000000000000N
031993061339003000048003TMARIA TERESA MUÑIZ FERNANDEZ                                                000000000000000000N
031993061339034000051034TJOSE LUIS DIEGO NUÑEZ                                                       000000000000000000N
031993061339020000097020TJUAN MANUEL ALVAREZ MUÑIZ                                                   000000000000000000N
031993061339027000100027TARTURO XOSE BERMEJO GARCIA                                                  000000000000000000N
031993061339028000100028TMARCO ANTONIO GARCIA FERNANDEZ                                              000000000000000000N
031993061339029000100029TMARIA DEL CARMEN PEREZ ANTOLIN                                              000000000000000000N
031993061339030000115030TMARIA CRUZ JIMENEZ PALOP                                                    000000000000000000N
031993061339004000151004TGASPAR LLAMAZARES TRIGO                                                     000000000000000000N
031993061339005000151005TNOEMI MARTIN GONZALEZ                                                       000000000000000000N
031993061339006000151006TJOSE ANTONIO SAAVEDRA RODRIGUEZ                                             000000000000000000N
031993061339021000156021TJOSE ENRIQUE GARCIA FERNANDEZ                                               000000000000000000N
031993061339022000156022TMILAGROS SUAREZ ESPINOSA                                                    000000000000000000N
031993061339023000156023TANGEL ABELARDO SUAREZ GONZALEZ                                              000000000000000000N
031993061071007000001007TANTONIO GARCIAS COLL                                                        000000000000000000S
031993061071008000001008TMIGUEL RIERA NADAL                                                          000000000000000000N
031993061071003000002003TJOSE CAÑELLAS FONS                                                          000000000000000000S
031993061071004000002004TJAIME FONT BARCELO                                                          000000000000000000S
031993061071021000003021TMIGUEL ARTIGUES BONET                                                       000000000000000000N
031993061071022000003022TMIQUEL NADAL PALOU                                                          000000000000000000N
031993061071025000010025TSERGI PAU VICENT ZAHONERO                                                   000000000000000000N
031993061071014000026014TJERONIMO ALBERTI PICORNELL                                                  000000000000000000N
031993061071015000026015TFERNANDO TRUJILLO ZAFORTEZA                                                 000000000000000000N
031993061071011000035011TCOSME GARCIA NOGUERA                                                        000000000000000000N
031993061071012000035012TJUAN RIPOLL HUGUET                                                          000000000000000000N
031993061071019000058019TANTONIO QUIROS ABADIA                                                       000000000000000000N
031993061071016000062016TJOAN MIR I OBRADOR                                                          000000000000000000N
031993061071005000079005TMARIA BONNIN CORTES                                                         000000000000000000N
031993061071006000079006TMIGUEL ANGEL CABEZA RODRIGUEZ                                               000000000000000000N
031993061071013000086013TVICENTE HABA LUJAN                                                          000000000000000000N
031993061071017000092017TLUIS GARCIA-RUIZ SERRA                                                      000000000000000000N
031993061071018000092018TMARIA VICTORIA ROCA LASHERAS                                                000000000000000000N
031993061071001000107001TMAGDALENA BLANCA CIREROL GOLLIARD                                           000000000000000000N
031993061071002000107002TMIGUEL ANGEL LLADO RIBAS                                                    000000000000000000N
031993061071009000112009TJOAN ARBONA MAS                                                             000000000000000000N
031993061071010000112010TPERE SAMPOL MAS                                                             000000000000000000N
031993061071023000115023TJOAQUINA GALVEZ GUARDIOLA                                                   000000000000000000N
031993061071024000115024TANTONIO VERA THOMAS                                                         000000000000000000N
031993061071020000124020TEDUARDO VIZCAINO CIFRE                                                      000000000000000000N
031993061072002000001002TJUANA MARIA BARCELO MARTI                                                   000000000000000000N
031993061072005000002005TMARTIN JOSE ESCUDERO SIREROL                                                000000000000000000S
031993061072004000003004TGABRIEL MARTI BARBER                                                        000000000000000000N
031993061072009000026009TJOSE F. XABUCH FORTUNY                                                      000000000000000000N
031993061072001000035001TCOSME GARCIA TORRES                                                         000000000000000000N
031993061072006000062006TLLORENC LLUIS CARRERAS I MURILLO                                            000000000000000000N
031993061072007000079007TANTONIO VENANCIO CASERO RODRIGUEZ                                           000000000000000000N
031993061072008000112008TMARIA JUAN BENEJAM                                                          000000000000000000N
031993061072003000115003TANTONIO COLOM COVAS                                                         000000000000000000N
031993061073008000001008TMARIANO TORRES TORRES                                                       000000000000000000N
031993061073003000002003TJOSE JUAN CARDONA                                                           000000000000000000S
031993061073001000035001TTOMAS MARTIN SAN JUAN                                                       000000000000000000N
031993061073002000062002TBERNAT JUAN I MARI                                                          000000000000000000N
031993061073006000079006TMIGUEL RAMON JUAN                                                           000000000000000000N
031993061073007000107007TJOSE RAMON BALANZAT TORRES                                                  000000000000000000N
031993061073005000112005TANTONIO MARI MARI                                                           000000000000000000N
031993061073004000115004TSILVESTRE ANTONIO DIAZ MAESTRE                                              000000000000000000N
031993061351026000001026TJUAN JOSE ESPINO DEL TORO                                                   000000000000000000N
031993061351027000001027TALFREDO HERRERA PIQUE                                                       000000000000000000N
031993061351006000002006TJOSEFA LUZARDO ROMANO                                                       000000000000000000S
031993061351007000002007TCARLOS RAMIREZ PERY                                                         000000000000000000S
031993061351018000003018TMARCELINO ALONSO HERNANDEZ                                                  000000000000000000N
031993061351019000003019TALEJANDRO HERNANDEZ DE LA NUEZ                                              000000000000000000N
031993061351014000005014TJOSE MARCELINO GALINDO SANTANA (ICAN)                                       000000000000000000S
031993061351015000005015TJESUS JOSE GOMEZ RODRIGUEZ (CCI)                                            000000000000000000N
031993061351009000008009TGERARDO PEDRO JOSE HERNANDEZ CASTELLON                                      000000000000000000N
031993061351010000008010TANDRES TIMON AYUSO                                                          000000000000000000N
031993061351021000009021TSEBASTIAN GONZALEZ ALONSO                                                   000000000000000000N
031993061351022000009022TAGUSTIN JULIO PRIETO AGUILAR                                                000000000000000000N
031993061351023000009023TAGUSTIN PRIETO RINQUEL                                                      000000000000000000N
031993061351012000012012TROSA MARIA ORAMAS TORRES                                                    000000000000000000N
031993061351013000012013TRUBEN RODRIGUEZ PADILLA                                                     000000000000000000N
031993061351020000013020TANTONIO JOAQUIN MESA VIERA                                                  000000000000000000N
031993061351005000038005TJOSE DEL TORO AUGUSTO                                                       000000000000000000N
031993061351024000039024TFERNANDO SAGASETA CABRERA                                                   000000000000000000N
031993061351025000039025TDOMINGO TARAJANO MESA                                                       000000000000000000N
031993061351016000040016TADELINA CODINA CASALS                                                       000000000000000000N
031993061351017000040017TGEMINIANO SEGURADO DIAZ                                                     000000000000000000N
031993061351028000047028TANTONIO CABRAL GODOY                                                        000000000000000000N
031993061351029000047029TJOSEFA CORTIJOS MORALES                                                     000000000000000000N
031993061351003000048003TCEFERINO PERERA CARDENES                                                    000000000000000000N
031993061351004000048004TMARTIN MACARIO PERESTELO SANGIL                                             000000000000000000N
031993061351001000052001TBARTOLOME ARTILES RODRIGUEZ (INDEPENDIENTE)                                 000000000000000000N
031993061351002000052002TCAYETANO GONZALEZ-ROCA ESPINO (INDEPENDIENTE)                               000000000000000000N
031993061351008000086008TJUAN ALSINA CATALA                                                          000000000000000000N
031993061351011000115011TFRANCISCO RAMIREZ FERNANDEZ                                                 000000000000000000N
031993061352001000001001TJOSE MARIA ESPINO GONZALEZ                                                  000000000000000000N
031993061352005000002005TJERONIMO RAMON QUEVEDO GUERRA                                               000000000000000000N
031993061352003000003003TCANDIDO REGUERA DIAZ                                                        000000000000000000N
031993061352002000005002TCANDIDO ARMAS RODRIGUEZ (PIL-AIC)                                           000000000000000000S
031993061352004000008004TMANUEL LOPEZ-BREA RUIZ                                                      000000000000000000N
031993061353002000001002TDOMINGO FUENTES CURBELO                                                     000000000000000000N
031993061353003000002003TEDUARDO HERNANDEZ CABRERA                                                   000000000000000000N
031993061353004000003004TSEBASTIAN VIERA RODRIGUEZ                                                   000000000000000000N
031993061353001000005001TMANUEL BERNABE TRAVIESO DARIAS (AM)                                         000000000000000000S
031993061353005000038005TLORENZA MACHIN ALARCON                                                      000000000000000000N
031993061384003000001003TSANTIAGO PEREZ GARCIA                                                       000000000000000000S
031993061384004000001004TJOSE SEGURA CLAVELL                                                         000000000000000000S
031993061384005000002005TJOSE FRANCISCO FELIPE CONCEPCION                                            000000000000000000N
031993061384006000002006TJUAN ANTONIO GARCIA-TALAVERA CASAÑAS                                        000000000000000000N
031993061384013000003013TMARIO SPREAFICO GARCIA                                                      000000000000000000N
031993061384014000003014TLORENZO ALBERTO SUAREZ ALONSO                                               000000000000000000N
031993061384009000005009TMIGUEL ANGEL BARBUZANO GONZALEZ (ATI-AIC)                                   000000000000000000S
031993061384010000005010TOSWALDO NARCISO BRITO GONZALEZ (INDEPENDIENTE)                              000000000000000000N
031993061384002000009002TMARIA LOURDES BENITEZ LOPEZ                                                 000000000000000000N
031993061384015000012015TVICTOR MANUEL GARCIA BRUNETTO                                               000000000000000000N
031993061384016000012016TLEONARDA GONZALEZ YANES                                                     000000000000000000N
031993061384018000013018TPEDRO MARTIN SOSA                                                           000000000000000000N
031993061384019000013019TMARIA BELEN HERNANDEZ CANO                                                  000000000000000000N
031993061384007000039007TRAFAEL NAZARIO MEDINA SANTOS                                                000000000000000000N
031993061384008000039008TLUIS EDMUNDO HERNANDEZ LEON                                                 000000000000000000N
031993061384011000044011TPEDRO DE LAS CASAS ALONSO                                                   000000000000000000N
031993061384012000044012TANTONIO GARCIA CACERES                                                      000000000000000000N
031993061384017000086017TJOSE RAFAEL MARCO BALLESTER                                                 000000000000000000N
031993061384001000115001TVICENTE MUÑOZ LOPEZ                                                         000000000000000000N
031993061385005000001005TMANUEL MARCOS PEREZ HERNANDEZ                                               000000000000000000S
031993061385001000002001TJOSE FRANCISCO HERNANDEZ GUIMERA                                            000000000000000000N
031993061385004000003004TBARTOLOME FERNANDO MENDEZ LLORENS                                           000000000000000000N
031993061385007000005007TGREGORIO GUADALUPE RODRIGUEZ (API-AIC)                                      000000000000000000N
031993061385006000012006TELIA ROJAS ROJAS                                                            000000000000000000N
031993061385003000039003TMANUEL ROQUE CONCEPCION VIDAL                                               000000000000000000N
031993061385002000044002TJUAN CARLOS MARTIN PEREZ                                                    000000000000000000N
031993061386001000001001TCASIMIRO CURBELO CURBELO                                                    000000000000000000S
031993061386005000002005TJOSE MANUEL MEDINA MESA                                                     000000000000000000N
031993061386003000003003TANGEL LUIS RODRIGUEZ HERNANDEZ                                              000000000000000000N
031993061386006000005006TCANDIDO ELOY HERNANDEZ MARTIN                                               000000000000000000N
031993061386002000012002TMARIA NIEVES PEREZ ESTRELLO                                                 000000000000000000N
031993061386004000044004TJUAN ANTONIO ALFONSO SIVERIO                                                000000000000000000N
031993061387003000001003TJOSE FRANCISCO ARMAS PEREZ                                                  000000000000000000N
031993061387002000002002TEULALIO ELVIRO REBOSO GUTIERREZ                                             000000000000000000N
031993061387004000003004TMANUEL LUIS ESPINOSA KRAWANY                                                000000000000000000N
031993061387005000005005TPEDRO LUIS PADRON RODRIGUEZ (AHI-AIC)                                       000000000000000000S
031993061387001000012001TMARIA LOURDES RODRIGUEZ FIGUEROA                                            000000000000000000N
031993061399022000001022TJAIME BLANCO GARCIA                                                         000000000000000000S
031993061399023000001023TMIGUEL ANGEL PALACIO GARCIA                                                 000000000000000000S
031993061399024000001024TMAXIMINO VALLE GARMENDIA                                                    000000000000000000S
031993061399016000002016TRICARDO BUENO FERNANDEZ                                                     000000000000000000S
031993061399017000002017TNICANOR GUTIERREZ LOZANO                                                    000000000000000000N
031993061399018000002018TJOSE FRANCISCO PERNIA CALVO                                                 000000000000000000N
031993061399010000003010TFEDERICO M. AROZAMENA PEREZ                                                 000000000000000000N
031993061399011000003011TVICENTE GONZALEZ GONZALEZ                                                   000000000000000000N
031993061399012000003012TISAAC LISASO CASTANEDO                                                      000000000000000000N
031993061399019000007019TMIGUEL ANGEL GARCIA CUETOS                                                  000000000000000000N
031993061399020000007020TJOSE ANTONIO NAVARRO HARO                                                   000000000000000000N
031993061399021000007021TJESUS TELECHEA GONZALEZ                                                     000000000000000000N
031993061399003000008003TANA MARIA BRERA GADEA                                                       000000000000000000N
031993061399001000010001TANA GONZALEZ SUSILLA                                                        000000000000000000N
031993061399002000017002TJOSEFINA SOLLA PEREZ DEL REY                                                000000000000000000N
031993061399008000021008TRAMON FELIPE MUCIENTES DONAIRE                                              000000000000000000N
031993061399028000042028TJOSE MARIA DE COS SALAS                                                     000000000000000000N
031993061399029000042029TCARLOS MONTANS RUEDA                                                        000000000000000000N
031993061399030000042030TEDUARDO OBREGON BARREDA                                                     000000000000000000N
031993061399031000042031TJESUS RUIZ AJA                                                              000000000000000000N
031993061399004000043004TBERNARDO FRANCISCO COLSA LLOREDA                                            000000000000000000N
031993061399005000043005TANDRES ANGEL DIEZ GUTIERREZ                                                 000000000000000000N
031993061399006000043006TJAVIER VILLA SAN MILLAN                                                     000000000000000000N
031993061399025000045025TJUAN HORMAECHEA CAZON                                                       000000000000000000N
031993061399026000045026TJUAN JOSE RODRIGUEZ REVUELTA                                                000000000000000000N
031993061399027000045027TMARIA OLGA SALCINES MANDADO                                                 000000000000000000N
031993061399007000086007TMARIA PILAR MUÑOZ PARRA                                                     000000000000000000N
031993061399009000115009TFRANCISCO PONCE ALVAREZ                                                     000000000000000000N
031993061399032000127032TALFONSO CARLOS LAMALFA DIAZ                                                 000000000000000000N
031993061399033000127033TJOSE AGUSTIN RIVAS SAN EMETERIO                                             000000000000000000N
031993061399034000127034TMARIA ROSA VARILLAS ANGEL                                                   000000000000000000N
031993061399013000142013TSATURNINO ANGEL CHAVES CUERVO                                               000000000000000000N
031993061399014000142014TBERNARDINA GUTIERREZ PEREZ                                                  000000000000000000N
031993061399015000142015TEZEQUIEL MARTINEZ ROSALES                                                   000000000000000000N
031993061029004000001004TMANUEL ANGEL AGUILAR BELDA                                                  000000000000000000S
031993061029005000001005TANGEL SAMUEL GALAN CANO                                                     000000000000000000S
031993061029006000001006TRITA MORAGA FERRANDIZ                                                       000000000000000000S
031993061029013000002013TMANUEL ACACIO COLLADO                                                       000000000000000000S
031993061029014000002014TMARIA AMAYA CASILDA CADIZ SANCHEZ                                           000000000000000000N
031993061029015000002015TALFONSO JORQUERA SANZA                                                      000000000000000000N
031993061029001000003001TJOSE DEOGRACIAS CARRION IÑIGUEZ                                             000000000000000000N
031993061029002000003002TANGEL SANTOS SANTOS                                                         000000000000000000N
031993061029003000003003TJOSE LUIS TRESPALACIOS LOPEZ                                                000000000000000000N
031993061029018000004018TMARIA VICTORIA DELICADO USEROS (INDEPENDIENTE)                              000000000000000000N
031993061029019000004019TFRANCISCO JAVIER MORCILLO CLAVIJO                                           000000000000000000N
031993061029020000004020TRAMON SOTOS CALLEJAS                                                        000000000000000000N
031993061029010000008010TDIEGO ALMANSA MUNERA                                                        000000000000000000N
031993061029011000008011TJOSE NEMESIO TELLO MARTINEZ                                                 000000000000000000N
031993061029012000008012TJULIO IGNACIO SORRIBES GUIGO                                                000000000000000000N
031993061029017000010017TMARIA DESAMPARADOS SAEZ SAEZ                                                000000000000000000N
031993061029016000012016TANTONIO MOLINA RUIZ                                                         000000000000000000N
031993061029009000048009TVICTORIA VALVERDE CARAME                                                    000000000000000000N
031993061029008000072008TJUSTO PRIETO VAZQUEZ                                                        000000000000000000N
031993061029007000115007TROBERTO PALACIOS RECIO                                                      000000000000000000N
031993061139012000001012THILARIO CABALLERO MOYA                                                      000000000000000000S
031993061139013000001013TELENA FLORES VALENCIA                                                       000000000000000000S
031993061139014000001014TLORENZO SELAS CESPEDES                                                      000000000000000000S
031993061139004000002004TFRANCISCO GIL-ORTEGA RINCON                                                 000000000000000000S
031993061139005000002005TGABRIEL RODADO FERNANDEZ                                                    000000000000000000N
031993061139006000002006TJOSE JAVIER ROMERO MELCON                                                   000000000000000000N
031993061139009000003009TANTONIO ARROYO VILLA                                                        000000000000000000N
031993061139010000003010TMANUEL MUÑOZ GALLEGO                                                        000000000000000000N
031993061139011000003011TANTONIO JESUS RUIZ DIAZ                                                     000000000000000000N
031993061139015000004015TMARIA ELENA GONZALEZ CARDENAS                                               000000000000000000N
031993061139016000004016TCAYO LARA MOYA                                                              000000000000000000N
031993061139017000004017TFLORENTINO LOPEZ MONTERO                                                    000000000000000000N
031993061139003000048003TLUZ MARIA OSORIO AREU                                                       000000000000000000N
031993061139007000086007TGLORIA BELENGUER ABADIA                                                     000000000000000000N
031993061139008000115008TLORENZO FERNANDEZ PARRALEJO                                                 000000000000000000N
031993061139001000155001TDOMINGA FERNANDEZ NIEVA                                                     000000000000000000N
031993061139002000155002TISMAEL MARTINEZ SANDOVAL                                                    000000000000000000N
031993061169013000001013TJUAN VICENTE CASAS CASAS                                                    000000000000000000S
031993061169014000001014TMARIA ANGELES DEL PILAR DIAZ VIECO                                          000000000000000000N
031993061169015000001015TJOSE MARTINEZ GUIJARRO                                                      000000000000000000N
031993061169004000002004TREYES MARTINEZ GARCIA                                                       000000000000000000S
031993061169005000002005TMARIA TERESA PEREZ TOLEDO                                                   000000000000000000S
031993061169006000002006TFRANCISCO UTRERA MORA                                                       000000000000000000S
031993061169016000003016TLORENZO BONILLA SANTOS                                                      000000000000000000N
031993061169017000003017TANTONIO GOMEZ PEREZ                                                         000000000000000000N
031993061169018000003018TJOSE ANTONIO SEQUI ALPUENTE                                                 000000000000000000N
031993061169019000008019TJESUS MIGUEL ALONSO GARCIA                                                  000000000000000000N
031993061169020000008020TMARIA DEL CARMEN GIL FERRER                                                 000000000000000000N
031993061169021000008021TMARIEN VIYELLA VELASCO                                                      000000000000000000N
031993061169008000010008TMANUEL CAMBIL MEDINA                                                        000000000000000000N
031993061169007000048007TDOLORES RIVERA LOPEZ                                                        000000000000000000N
031993061169001000072001TTERESA CARLAVILLA SANZ                                                      000000000000000000N
031993061169002000072002TPEDRO DOMINGUEZ FERNANDEZ                                                   000000000000000000N
031993061169003000072003TCLEMENTE DE LOS SANTOS BENITO                                               000000000000000000N
031993061169012000086012TJOSE QUINZA PENADES                                                         000000000000000000N
031993061169009000132009TJUAN ANTONIO ARRANZ HERNANDO                                                000000000000000000N
031993061169010000132010TEUSTASIA PILAR NAVARRO DONATE                                               000000000000000000N
031993061169011000132011TSALVADOR ORTEGA MARTINEZ                                                    000000000000000000N
031993061199014000001014TJUAN PABLO HERRANZ MARTINEZ                                                 000000000000000000S
031993061199015000001015TANA ISABEL MARTINEZ HERRANZ                                                 000000000000000000N
031993061199016000001016TJULIAN MARTINEZ MARTIN                                                      000000000000000000N
031993061199001000002001TJOSE MARIA BRIS GALLEGO                                                     000000000000000000S
031993061199002000002002TLUIS MANUEL FRAGA EGUSQUIAGUIRRE                                            000000000000000000S
031993061199003000002003TFRANCISCO TOMEY GOMEZ                                                       000000000000000000S
031993061199010000003010TGILBERTO MARTIN VICENTE                                                     000000000000000000N
031993061199011000003011TJOSE CARLOS MORATILLA MACHUCA                                               000000000000000000N
031993061199012000003012TANA MARIA VAZQUEZ LOSADA                                                    000000000000000000N
031993061199017000004017TANA MARIA GONZALEZ MARTIN                                                   000000000000000000N
031993061199018000004018TSEGUNDO MARTIN CARBALLIDO                                                   000000000000000000N
031993061199019000004019TFERNANDO REVUELTA SOMALO                                                    000000000000000000N
031993061199020000010020TPALOMA CARRASCO COELLO                                                      000000000000000000N
031993061199021000010021TJOSE MANUEL GONZALEZ FOLGUEIRAS                                             000000000000000000N
031993061199004000049004TCARLOS CHENA ALBA                                                           000000000000000000N
031993061199005000049005TSERGIO MARTINEZ GUILLEN                                                     000000000000000000N
031993061199006000049006TJULIO SANZ RETUERTA                                                         000000000000000000N
031993061199023000072023TJUAN LUIS POVEDA MARTINEZ                                                   000000000000000000N
031993061199013000086013TMILAGROS BORRULL BUSTAMANTE                                                 000000000000000000N
031993061199009000115009TANGELES MARTINEZ DEL MORAL                                                  000000000000000000N
031993061199022000133022TROSALIA DIEZ CELAYA                                                         000000000000000000N
031993061199007000152007TJOAQUIN CASAS MARTINEZ                                                      000000000000000000N
031993061199008000152008TMARIA JESUS DOMINGUEZ VADILLO                                               000000000000000000N
031993061459011000001011TALFREDO ARIJA HERNANDEZ                                                     000000000000000000S
031993061459012000001012TRAFAEL MARTIN SANCHEZ                                                       000000000000000000S
031993061459013000001013TMARIA VICTORIA PEREZ MAESTU                                                 000000000000000000S
031993061459001000002001TMARIANO ALVAREZ GUTIERREZ                                                   000000000000000000S
031993061459002000002002TCESAR DE MIGUEL LOPEZ                                                       000000000000000000N
031993061459003000002003TMARIA TERESA MARTIN DEL RIO BENAYAS                                         000000000000000000N
031993061459006000003006TSIXTO RUIZ DIAZ                                                             000000000000000000N
031993061459007000003007TVICENTE MUÑOZ MADERO                                                        000000000000000000N
031993061459008000003008TCARLOS GRANDA LANZAROT                                                      000000000000000000N
031993061459015000004015TBENITO DIAZ DIAZ                                                            000000000000000000N
031993061459016000004016TJULIO HERRERA SANT                                                          000000000000000000N
031993061459017000004017TOLVIDO VALERO DE LA CRUZ                                                    000000000000000000N
031993061459009000008009TAGUSTIN DEL RIO LOPEZ                                                       000000000000000000N
031993061459018000009018TLUIS ENRIQUE GONZALEZ TORTOSA                                               000000000000000000N
031993061459004000010004TFERNANDO JOSE BLASCO PECO                                                   000000000000000000N
031993061459010000086010TFRANCISCO MIGUEL VILCHES MONROIG                                            000000000000000000N
031993061459005000115005TJUAN REDONDO RAMOS                                                          000000000000000000N
031993061459014000133014TBENJAMIN SANCHEZ SOLANA                                                     000000000000000000N
031993061059015000001015TNARCISO SERRANO ALVAREZ GIRALDO                                             000000000000000000S
031993061059016000001016TANTONIO SIERRA CAPITAN                                                      000000000000000000N
031993061059017000001017TESMERALDA ZANCAJO RODRIGUEZ                                                 000000000000000000N
031993061059005000002005TANGEL JESUS ACEBES PANIAGUA                                                 000000000000000000S
031993061059006000002006TJOSE MARIA GARCIA TIEMBLO                                                   000000000000000000S
031993061059007000002007TFELIX SAN SEGUNDO NIETO                                                     000000000000000000S
031993061059012000003012TALBERTO MANUEL DORREGO GONZALEZ                                             000000000000000000N
031993061059013000003013TJOSE MARIA MONFORTE CARRASCO                                                000000000000000000N
031993061059014000003014TCELSO RODRIGUEZ LEGIDO                                                      000000000000000000N
031993061059008000010008TROBERTO CARLOS BLANCO LIANO                                                 000000000000000000N
031993061059018000046018TPEDRO BRAGADO JUEZ                                                          000000000000000000N
031993061059010000072010TJUSTA GONZALEZ SANZ                                                         000000000000000000N
031993061059011000086011TLUISA DEVESA BORRULL                                                        000000000000000000N
031993061059009000115009TFRANCISCO JAVIER SANCHEZ MONJAVACAS                                         000000000000000000N
031993061059002000130002TJOSE MARIA GONZALEZ SUAREZ                                                  000000000000000000N
031993061059003000130003TSONSOLES HERRERA PINDADO                                                    000000000000000000N
031993061059004000130004TCARLOS REVIEJO HERNANDEZ                                                    000000000000000000N
031993061059001000133001TMARIA ISABEL REBOLLO MELLADO                                                000000000000000000N
031993061099010000001010TJUAN JOSE LABORDA MARTIN                                                    000000000000000000S
031993061099011000001011TJULIAN SIMON ROMANILLOS                                                     000000000000000000N
031993061099012000001012TLEONISA ULL LAITA                                                           000000000000000000N
031993061099019000002019TGALO BARAHONA ALVAREZ                                                       000000000000000000S
031993061099020000002020TPEDRO MARTIN IGLESIAS                                                       000000000000000000S
031993061099021000002021TPILAR URZAY URQUIZA                                                         000000000000000000S
031993061099015000003015TJOSE ANTONIO ESCUDERO PEÑA                                                  000000000000000000N
031993061099016000003016TJUAN MOLINA RAMIREZ                                                         000000000000000000N
031993061099017000003017TJOSE MARIA PERO-SANZ EXPOSITO                                               000000000000000000N
031993061099002000006002TCECILIO HERREROS UCEDA                                                      000000000000000000N
031993061099013000008013TFRANCISCO JAVIER BOADA SOTO                                                 000000000000000000N
031993061099014000008014TJESUS DEL OLMO PEÑACOBA                                                     000000000000000000N
031993061099009000010009TJOSE ANTONIO AMUTIO IBAÑEZ                                                  000000000000000000N
031993061099003000037003TJOSEFA AUSIN RODRIGO                                                        000000000000000000N
031993061099004000037004TMIGUEL ESCOBAR BAÑO                                                         000000000000000000N
031993061099005000037005TPABLO RODRIGUEZ HERRAIZ                                                     000000000000000000N
031993061099001000048001TESPERANZA IBAÑEZ DE JUANA                                                   000000000000000000N
031993061099022000072022TANTONIO IZARRA SANTAMARIA                                                   000000000000000000N
031993061099023000072023TJUAN MANUEL LOPEZ DELGADO                                                   000000000000000000N
031993061099024000072024TJUAN CARLOS RAD MORADILLO                                                   000000000000000000N
031993061099025000086025TALFONSO ENRIQUE ORTI MARI                                                   000000000000000000N
031993061099018000115018TAURORA GARCIA FERNANDEZ                                                     000000000000000000N
031993061099006000130006TLUIS BUSTO SALAZAR                                                          000000000000000000N
031993061099007000130007TROBERTO DELGADO PASTOR                                                      000000000000000000N
031993061099008000130008TLOURDES MARTIN LOPEZ                                                        000000000000000000N
031993061249028000001028TMARIA NIEVES FERNANDEZ RABANAL                                              000000000000000000S
031993061249029000001029TDANIEL GARCIA SANCHEZ                                                       000000000000000000N
031993061249030000001030TCELSO LOPEZ GAVELA                                                          000000000000000000N
031993061249022000002022TISMAEL ALVAREZ RODRIGUEZ                                                    000000000000000000S
031993061249023000002023TJAIME LOBO ASENJO                                                           000000000000000000S
031993061249024000002024TALFREDO PRADA PRESA                                                         000000000000000000S
031993061249013000003013TGONZALO LOPEZ GONZALEZ                                                      000000000000000000N
031993061249014000003014TJOSE MANUEL PEREZ VILLAR                                                    000000000000000000N
031993061249015000003015TLAUDINO SIERRA GONZALEZ                                                     000000000000000000N
031993061249007000006007TMANUEL REIGOSA GACIO                                                        000000000000000000N
031993061249025000009025TMARIA SOLEDAD BRAVO CARRERA                                                 000000000000000000N
031993061249019000051019TFERNANDO CANDANEDO SANTAMARIA                                               000000000000000000N
031993061249020000051020TMIGUEL ANGEL GARCIA FIDALGO                                                 000000000000000000N
031993061249021000051021TJOSE MARIA MANUEL GARCIA-OSUNA RODRIGUEZ                                    000000000000000000N
031993061249026000072026TMARIA JULIA FERNANDEZ MARTINEZ                                              000000000000000000N
031993061249027000086027TENRIQUE MONTBLANCH LATORRE                                                  000000000000000000N
031993061249012000095012TTARSICIO CARBALLO GALLARDO                                                  000000000000000000N
031993061249016000097016TLUIS BLANCO VEGA                                                            000000000000000000N
031993061249017000097017TMARIA LUISA CERVIÑO RAMOS                                                   000000000000000000N
031993061249018000097018TOSCAR GARCIA PRIETO                                                         000000000000000000N
031993061249008000115008TMARIA ANGELES LUDIVINA CRIADO MORAN                                         000000000000000000N
031993061249001000133001TELOY GARCIA ALVAREZ                                                         000000000000000000N
031993061249002000133002TRAMIRO PINTO CAÑON                                                          000000000000000000N
031993061249003000133003TSANTIAGO RODRIGUEZ MAGALLON                                                 000000000000000000N
031993061249009000136009TJUAN JOSE CARRO PALACIOS                                                    000000000000000000N
031993061249010000136010TMARCELINO COBO VOCES                                                        000000000000000000N
031993061249011000136011TFRANCISCO VALCARCEL TOSAR                                                   000000000000000000N
031993061249004000145004TMARIA TERESA COLIN GONZALEZ                                                 000000000000000000N
031993061249005000145005TMARIA LUISA GABELA ORDOÑEZ                                                  000000000000000000N
031993061249006000145006TANTONIO GARCIA REGUEIRO                                                     000000000000000000N
031993061349020000001020THELIODORO GALLEGO CUESTA                                                    000000000000000000S
031993061349021000001021TMARIA DEL CARMEN MERINO MEDINA                                              000000000000000000N
031993061349022000001022TEVILIO MORAN GOMEZ                                                          000000000000000000N
031993061349017000002017TJESUS MARIA CASTRO ASENSIO                                                  000000000000000000S
031993061349018000002018TJOSE LUIS LOPEZ HENARES                                                     000000000000000000S
031993061349019000002019TMARIA JESUS CELINDA SANCHEZ GARCIA                                          000000000000000000S
031993061349011000003011TPEDRO PABLO ABAD HERNAN                                                     000000000000000000N
031993061349012000003012TJUAN VICENTE MARCOS PEREZ                                                   000000000000000000N
031993061349013000003013TJOSE ANTONIO SAN JUAN DE LA FUENTE                                          000000000000000000N
031993061349034000006034TPATROCINIO CASTAÑEDA MARTIN                                                 000000000000000000N
031993061349007000007007TRAIMUNDO NEVADO ROMAN                                                       000000000000000000N
031993061349008000007008TMARIANO TEJEDOR RODRIGUEZ                                                   000000000000000000N
031993061349033000014033TJULIO VALLEJO GARRACHON                                                     000000000000000000N
031993061349030000046030TJOSE LUIS GARCIA CANCIO                                                     000000000000000000N
031993061349031000046031TDIONISIO LAMAS MUÑOZ                                                        000000000000000000N
031993061349032000046032TLUIS ANGEL PEREZ MARTIN                                                     000000000000000000N
031993061349010000051010TFRANCISCO IGLESIAS GONZALEZ                                                 000000000000000000N
031993061349014000069014TGREGORIO AMADEO ANDION LOPEZ                                                000000000000000000N
031993061349015000069015TANTONIO JIMENO GARCIMARTIN                                                  000000000000000000N
031993061349016000069016TJOSE IGNACIO SANTAMERA GARCIA                                               000000000000000000N
031993061349027000072027TANASTASIO CALVO GARCIA                                                      000000000000000000N
031993061349028000072028TJUAN BAUTISTA MARTIN DE LA TORRE                                            000000000000000000N
031993061349029000072029TCANDIDO PRIETO GONZALEZ                                                     000000000000000000N
031993061349009000097009TJAVIER CALLADO COBO                                                         000000000000000000N
031993061349023000099023TESTEBAN DIEZ BURGOS                                                         000000000000000000N
031993061349024000099024TANTONIO-MAGIN ENCINA LOSADA                                                 000000000000000000N
031993061349025000099025TABEL GONZALEZ FUENTES                                                       000000000000000000N
031993061349026000133026TFERNANDO ESCOBAR OCHOTORENA                                                 000000000000000000N
031993061349004000145004TALBINO ALAEZ URDIALES                                                       000000000000000000N
031993061349005000145005TMANUEL ALVAREZ RODRIGUEZ                                                    000000000000000000N
031993061349006000145006THERMINIA FRANCOS MULAS                                                      000000000000000000N
031993061349001000157001TJOSE MANUEL ALVAREZ SERNA                                                   000000000000000000N
031993061349002000157002TMANUEL SANTOS RODILANA                                                      000000000000000000N
031993061349003000157003TJAVIER VILLA DEL AMO                                                        000000000000000000N
031993061379021000001021TJOSE CASTRO RABADAN                                                         000000000000000000S
031993061379022000001022TLUIS ENRIQUE CLEMENTE CUBILLAS                                              000000000000000000N
031993061379023000001023TJOSE YAÑEZ RODRIGUEZ                                                        000000000000000000N
031993061379018000002018TFELIX COLSA BUENO                                                           000000000000000000S
031993061379019000002019TCASIMIRO HERNANDEZ CALVO                                                    000000000000000000S
031993061379020000002020TJULIAN LANZAROTE SASTRE                                                     000000000000000000S
031993061379003000003003TLORENZO MARCOS FIZ                                                          000000000000000000N
031993061379004000003004TFRANCISCO MARTIN MARTIN                                                     000000000000000000N
031993061379005000003005TFRANCISCO MATEOS PEREZ                                                      000000000000000000N
031993061379007000008007TDAMIAN GIL GIL                                                              000000000000000000N
031993061379012000046012TEMILIO ACOSTA PIRIZ                                                         000000000000000000N
031993061379013000046013TEUGENIO HERMOSA FINAMOR                                                     000000000000000000N
031993061379014000046014TANA ISABEL SANCHEZ LUCAS                                                    000000000000000000N
031993061379015000051015TMARIA OLIVA ALVAREZ PEREZ                                                   000000000000000000N
031993061379016000051016TMIGUEL ANGEL DIEGO NUÑEZ                                                    000000000000000000N
031993061379017000051017TELIAS VEGA MOZO                                                             000000000000000000N
031993061379001000072001TBASILIO ANTON GONZALEZ                                                      000000000000000000N
031993061379006000086006TMARIA JOSE PEREZ CISCAR                                                     000000000000000000N
031993061379002000097002TLUIS ANGEL MERINO FERNANDEZ                                                 000000000000000000N
031993061379011000115011TMARIA MERCEDES ALVAREZ RUIZ                                                 000000000000000000N
031993061379008000133008TJESUS CABEZAS FLORES                                                        000000000000000000N
031993061379009000133009TROBERTO GARCIA SAENZ                                                        000000000000000000N
031993061379010000133010TFRANCISCO MARTIN MARTIN                                                     000000000000000000N
031993061379024000145024TMARIA ENCARNACION COLLADO SANCHEZ                                           000000000000000000N
031993061379025000145025TULPIANO DIAZ MORETA                                                         000000000000000000N
031993061379026000145026TANTONIO LUIS SAMANIEGO SASTRE                                               000000000000000000N
031993061409012000001012TMANUEL AGUDIEZ CALVO                                                        000000000000000000S
031993061409013000001013TJESUS OLMOS PASCUAL                                                         000000000000000000N
031993061409014000001014TANA MARIA PASTOR GARCIA                                                     000000000000000000N
031993061409001000002001TPEDRO ANTONIO HERNANDEZ ESCORIAL                                            000000000000000000S
031993061409002000002002TJAIME RODRIGUEZ GOMEZ                                                       000000000000000000S
031993061409003000002003TCLEMENTE SANZ BLANCO                                                        000000000000000000S
031993061409009000003009TANTONIO LOPEZ GARCIA                                                        000000000000000000N
031993061409010000003010TCARMEN REVUELTA CARAVES                                                     000000000000000000N
031993061409011000003011TJUAN MANUEL SASTRE NAVARRO                                                  000000000000000000N
031993061409017000008017TANGEL GARCIA MARTIN                                                         000000000000000000N
031993061409018000008018TPRIMITIVO LOPEZ HERNANDEZ                                                   000000000000000000N
031993061409008000010008TSATURNINA MARTIN SASTRE                                                     000000000000000000N
031993061409007000046007TCARLOS HERREROS GARCIA                                                      000000000000000000N
031993061409019000069019TJOSE MARIA PERMUY REY                                                       000000000000000000N
031993061409020000069020TMARIA VICTORIA CALDERON CIUDAD                                              000000000000000000N
031993061409021000069021TMIGUEL ANGEL JIMENO GARCIA                                                  000000000000000000N
031993061409022000072022TANA BELEN GUEMES GUEMES                                                     000000000000000000N
031993061409015000086015TDESAMPARADOS ROS BIOT                                                       000000000000000000N
031993061409016000133016TCRISTINA GRAU LOPEZ                                                         000000000000000000N
031993061409004000145004TDOMINGO ASENJO MATE                                                         000000000000000000N
031993061409005000145005TJUAN GILBAJA QUEVEDO                                                        000000000000000000N
031993061409006000145006TMARIA VICTORIA GOMEZ-MONEDERO DEL VAL                                       000000000000000000N
031993061429022000001022TRAMIRO CERCOS PEREZ                                                         000000000000000000S
031993061429023000001023TFELIX LAVILLA MARTINEZ                                                      000000000000000000N
031993061429024000001024TFRANCISCO JAVIER ROMERO BENITO                                              000000000000000000N
031993061429012000002012TJOSE MARIA GARCIA ROYO                                                      000000000000000000S
031993061429013000002013TJAVIER GOMEZ GOMEZ                                                          000000000000000000S
031993061429014000002014TJOSE LUIS LISO MARIN                                                        000000000000000000S
031993061429003000003003TJOSE MARIA ABARRATEGUI SOMOLINOS                                            000000000000000000N
031993061429004000003004TPEDRO MARTIN MOLINA                                                         000000000000000000N
031993061429005000003005TMARIA DE LOS ANGELES PEREZ HORNILLOS                                        000000000000000000N
031993061429010000010010TJAIME DELSO VALER                                                           000000000000000000N
031993061429011000046011TMIGUEL ANGEL SANCHEZ BALTAR                                                 000000000000000000N
031993061429018000048018TMARIA ASUNCION MARTIN GOMEZ                                                 000000000000000000N
031993061429016000050016TMARIA ASUNCION RAMA MIRANDA                                                 000000000000000000N
031993061429006000051006TCRISTINA CARREÑO LUENGO                                                     000000000000000000N
031993061429002000072002TMIGUEL ANGEL MORENO PEÑAS                                                   000000000000000000N
031993061429017000086017TANGELES ASCENSION MARQUES BORT                                              000000000000000000N
031993061429001000098001TLUIS LLANOS DIAZ                                                            000000000000000000N
031993061429015000115015TJERONIMO RODRIGUEZ LANCHO                                                   000000000000000000N
031993061429019000136019TIRENE MARIA TERESA ALCALAYA PEÑA                                            000000000000000000N
031993061429020000136020TJOSE CONTRERAS MAQUEDA                                                      000000000000000000N
031993061429021000136021TMANUEL PEDRO SESEÑA VALVERDE                                                000000000000000000N
031993061429007000145007TMARIA PILAR CACHO PEREZ                                                     000000000000000000N
031993061429008000145008TCECILIA ANTONINA HERNANDEZ GARCIA                                           000000000000000000N
031993061429009000145009TMONICO VICENTE GARCIA                                                       000000000000000000N
031993061479013000001013TJUAN ANTONIO AREVALO SANTIAGO                                               000000000000000000S
031993061479014000001014TFRANCISCO JAVIER PANIAGUA IÑIGUE                                            000000000000000000N
031993061479015000001015TMARIA DEL PILAR VICENTE MUÑOZ                                               000000000000000000N
031993061479023000002023TJOSE ANTONIO GONZALEZ CAVIEDES                                              000000000000000000S
031993061479024000002024TRAMIRO FELIPE RUIZ MEDRANO                                                  000000000000000000S
031993061479025000002025TJUAN JOSE UNCETA ANTON                                                      000000000000000000S
