022011111289999000124012TPablo Lucas              García Cano              Locatelli                M00000000          N
022011111289999000124013TPaula                    Sánchez                  Cerdá                    F00000000          N
022011111289999000124014TFrancisco Javier         Cepeda                   González                 M00000000          N
022011111289999000124015TJosé Luis                Sánchez                  Martín                   M00000000          N
022011111289999000124016TMaría Adoración          Martín                   Aguirre                  F00000000          N
022011111289999000124017TEnrique                  Dargallo                 Guerra                   M00000000          N
022011111289999000124018TIsabel                   Cerdá                    Martín                   F00000000          N
022011111289999000124019TYolanda                  Martínez                 Mahillo                  F00000000          N
022011111289999000124020TDavid                    Silván                   Martín                   M00000000          N
022011111289999000124021TAurora                   de la Calle              González                 F00000000          N
022011111289999000124022TMariano                  Muñoz                    Ortiz                    M00000000          N
022011111289999000124023TEva                      González                 Guillamón                F00000000          N
022011111289999000124024TLuis                     Arias de Reyna           Ferrero                  M00000000          N
022011111289999000124025TMaría Pilar              Sanjurjo                 González                 F00000000          N
022011111289999000124026TEsther                   Audinis                  Escudero                 F00000000          N
022011111289999000124027TNuria                    Béjar                    Pizarro                  F00000000          N
022011111289999000124028TFelipe                   Merinero                 Ballesteros              M00000000          N
022011111289999000124029TFrancisco Guillermo      Cano                     Martínez                 M00000000          N
022011111289999000124030TLucía                    Rojo                     Parra                    F00000000          N
022011111289999000124031TLuis                     Redondo                  Contreras                M00000000          N
022011111289999000124032TRosa                     Autric                   Crespo                   F00000000          N
022011111289999000124033TMarta                    Béjar                    Pizarro                  F00000000          N
022011111289999000124034TIván                     Pérez                    López                    M00000000          N
022011111289999000124035TÁlvaro                   Sánchez                  Jiménez                  M00000000          N
022011111289999000124036TElvira                   Velázquez                González                 F00000000          N
022011111289999000128001TMariano                  Rajoy                    Brey                     M00000000          S
022011111289999000128002TMaría Soraya             Sáenz de Santamaría      Antón                    F00000000          S
022011111289999000128003TAna                      Mato                     Adrover                  F00000000          S
022011111289999000128004TAlberto                  Ruiz-Gallardón           Jiménez                  M00000000          S
022011111289999000128005TMiguel                   Arias                    Cañete                   M00000000          S
022011111289999000128006TSantiago                 Cervera                  Soto                     M00000000          S
022011111289999000128007TJuan Carlos              Vera                     Pró                      M00000000          S
022011111289999000128008TIgnacio Esteban          Astarloa                 Huarte-Mendicoa          M00000000          S
022011111289999000128009TBeatriz                  Rodríguez-Salmones       Cabeza                   F00000000          S
022011111289999000128010TCayetana                 Álvarez de Toledo        Peralta Ramos            F00000000          S
022011111289999000128011TFrancisco José           Villar                   García Moreno            M00000000          S
022011111289999000128012TTeófilo                  De Luis                  Rodríguez                M00000000          S
022011111289999000128013TMaría Teresa             De Lara                  Carbó                    F00000000          S
022011111289999000128014TCarlos                   Aragonés                 Mendiguchía              M00000000          S
022011111289999000128015TEva                      Durán                    Ramos                    F00000000          S
022011111289999000128016TGabriel                  Elorriaga                Pisarik                  M00000000          S
022011111289999000128017TMaría Carmen             Álvarez-Arenas           Cisneros                 F00000000          S
022011111289999000128018TMario                    Mingo                    Zapatero                 M00000000          S
022011111289999000128019TMaría Luz                Bajo                     Prieto                   F00000000          S
022011111289999000128020TAlfonso Alfredo          De Senillosa             Ramoneda                 M00000000          N
022011111289999000128021TRoberto                  Soravilla                Fernández                M00000000          N
022011111289999000128022TMaría Cristina           Cifuentes                Cuencas                  F00000000          N
022011111289999000128023TEsteban                  Parro                    Del Prado                M00000000          N
022011111289999000128024TMaría Carmen             Rodríguez                Flores                   F00000000          N
022011111289999000128025TPilar                    Marcos                   Domínguez                F00000000          N
022011111289999000128026TJosé Ramón               García                   Hernández                M00000000          N
022011111289999000128027TMariano                  Pérez-Hickman            Silván                   M00000000          N
022011111289999000128028TMaría Valentina          Martínez                 Ferro                    F00000000          N
022011111289999000128029TMaría Isabel             Orozco                   Pedroche                 F00000000          N
022011111289999000128030TDiego                    Lora                     Pagola                   M00000000          N
022011111289999000128031TCarlos                   Fernández                Ojea                     M00000000          N
022011111289999000128032TAlejo Joaquín            Miranda de Larra         Arnaiz                   M00000000          N
022011111289999000128033TMaría Isabel             Martínez-Cubells         Yraola                   F00000000          N
022011111289999000128034TCarlos                   Izquierdo                Torres                   M00000000          N
022011111289999000128035TIsabel Natividad         Díaz                     Ayuso                    F00000000          N
022011111289999000128036TÁngel                    Garrido                  García                   M00000000          N
022011111289999000137001TAlfredo                  Pérez                    Rubalcaba                M00000000          S
022011111289999000137002TElena                    Valenciano               Martínez-Orozco          F00000000          S
022011111289999000137003TTomás Valeriano          Gómez                    Sánchez                  M00000000          S
022011111289999000137004TMaría Cristina           Narbona                  Ruiz                     F00000000          S
022011111289999000137005TRafael                   Simancas                 Simancas                 M00000000          S
022011111289999000137006TAntonio                  Hernando                 Vera                     M00000000          S
022011111289999000137007TRosa Delia               Blanco                   Terán                    F00000000          S
022011111289999000137008TJosé Enrique             Serrano                  Martínez                 M00000000          S
022011111289999000137009TDiego                    López                    Garrido                  M00000000          S
022011111289999000137010TÁngeles                  Álvarez                  Álvarez                  F00000000          S
022011111289999000137011TPedro                    Sánchez                  Pérez-Castejón           M00000000          N
022011111289999000137012TManuel                   De La Rocha              Rubí                     M00000000          N
022011111289999000137013TCarlos                   Mulas                    Granados                 M00000000          N
022011111289999000137014TMaría Virtudes           Cediel                   Martínez                 F00000000          N
022011111289999000137015TLucila María             Corral                   Ruiz                     F00000000          N
022011111289999000137016TDaniel                   Méndez                   Guillén                  M00000000          N
022011111289999000137017TSara                     Hernández                Barroso                  F00000000          N
022011111289999000137018TTeófilo                  Vidal                    De La Parte              M00000000          N
022011111289999000137019TMacarena                 Elvira                   Rubio                    F00000000          N
022011111289999000137020TDiego Emir               Pinilla                  Zambrano                 M00000000          N
022011111289999000137021TMaría Isabel             Andaluz                  Andaluz                  F00000000          N
022011111289999000137022TOscar José               Monterrubio              Rodríguez                M00000000          N
022011111289999000137023TIsabel                   Martínez-Mora            Soler                    F00000000          N
022011111289999000137024TNorma                    Bernad                   Romeo                    F00000000          N
022011111289999000137025TJuan                     Lobato                   Gandarias                M00000000          N
022011111289999000137026TMaría Ángeles            Sáez                     Sáez                     F00000000          N
022011111289999000137027TJosé Luís                Escalona                 Yáñez                    M00000000          N
022011111289999000137028TPetra                    Morano                   Toribio                  F00000000          N
022011111289999000137029TMargarita                Peña                     García                   F00000000          N
022011111289999000137030TFrancisco Carlos         Colomer                  Molina                   M00000000          N
022011111289999000137031TMargarita                Fernández de Marcos      Honrado                  F00000000          N
022011111289999000137032TEmilia                   Sánchez                  Prieto                   F00000000          N
022011111289999000137033TAna Paula                Espinosa                 Izquierdo                F00000000          N
022011111289999000137034TRaúl                     Biencinto                Martín                   M00000000          N
022011111289999000040033TIrene                    Garabato                 Gamarra                  F00000000          N
022011111289999000040034TPedro Ángel              Sánchez                  Muelas                   M00000000          N
022011111289999000040035TModesta                  López                    Lastras                  F00000000          N
022011111289999000040036TDaniel                   Jiménez                  Martínez                 M00000000          N
022011111289999000060001TCarlos                   Bousoño                  Calzón                   M00000000          N
022011111289999000060002TMaría del Mar            De Bernabé               Portolés                 F00000000          N
022011111289999000060003TRafael                   Enríquez de Salamanca    Lorente                  M00000000          N
022011111289999000060004TGonzalo                  Millán                   Adaro                    M00000000          N
022011111289999000060005TRosa María               Prada                    Pérez                    F00000000          N
022011111289999000060006TJavier                   Tejedor                  García                   M00000000          N
022011111289999000060007TJosé Miguel              Díaz                     Canseco                  M00000000          N
022011111289999000060008TMaría Visitación         Hernández                Hernández                F00000000          N
022011111289999000060009TMaría del Carmen         López                    Iglesias                 F00000000          N
022011111289999000060010TÁgata                    Jiménez                  Martínez                 F00000000          N
022011111289999000060011TCarlos                   Montes                   García                   M00000000          N
022011111289999000060012TSonia                    Hijarrubia               San Miguel               F00000000          N
022011111289999000060013TLuis Álvaro              Arribas                  Navarro                  M00000000          N
022011111289999000060014TMaría del Pilar          Suárez                   Portales                 F00000000          N
022011111289999000060015TGonzalo Álberto          Rivera                   Escribano                M00000000          N
022011111289999000060016TMaría Belén              Álvarez                  Cotroneo                 F00000000          N
022011111289999000060017TJuan Manuel              Escolar                  López                    M00000000          N
022011111289999000060018TMaría Cristina           Díaz                     Rivero                   F00000000          N
022011111289999000060019TLuis Agustín             Yáñez                    Rodríguez-Valdés         M00000000          N
022011111289999000060020TBegoña                   Blanco                   Maldonado                F00000000          N
022011111289999000060021TEmilio                   Jaraiz                   Puig                     M00000000          N
022011111289999000060022TSusana                   Alcoceba                 Rodríguez                F00000000          N
022011111239999000161006TJuan José                Gutiérrez                Quesada                  M00000000          N
022011111239999000168001TMiguel                   Peña                     Peña                     M00000000          N
022011111239999000168002TRamón Agustín            Mesa                     Quilez                   M00000000          N
022011111239999000168003TMaría del Rosario        Alcalde                  Espinosa                 F00000000          N
022011111239999000168004TFaustino                 Castillo                 Plaza                    M00000000          N
022011111239999000168005TAntonia                  Viedma                   Millán Chicharro         F00000000          N
022011111239999000168006TMaría Teresa             Anguita                  Pérez                    F00000000          N
022011111249999000039001TJesús                    Tábara                   Carbajo                  M00000000          N
022011111249999000039002TBeatriz                  Alija                    Fernández                F00000000          N
022011111249999000039003TLuis                     Dos Santos               González                 M00000000          N
022011111249999000039004TMaría del Carmen         Lora                     Romón                    F00000000          N
022011111249999000039005TNoé                      Pinillas                 García                   M00000000          N
022011111249999000081001TMaría del Rosario        Bilbao                   Alcázar                  F00000000          N
022011111249999000081002TJuan Pedro               Lario                    Díez                     M00000000          N
022011111249999000081003TMaría Aurora             Panizo                   Luengo                   F00000000          N
022011111249999000081004TLuis Miguel              Nistal                   Tomé                     M00000000          N
022011111249999000081005TMaría Elena              Fernández                Honrado                  F00000000          N
022011111249999000107001TSusana María             Gómez                    Martín                   F00000000          N
022011111249999000107002TYaiza                    González                 Prieto                   F00000000          N
022011111249999000107003TLourdes                  González                 Martínez                 F00000000          N
022011111249999000107004TManuel                   Guardia                  San antonio              M00000000          N
022011111249999000107005TLuis                     Negro                    González                 M00000000          N
022011111249999000110001TEster                    Cubero                   Suárez                   F00000000          N
022011111249999000110002TMartín                   Pérez                    Bedia                    M00000000          N
022011111249999000110003TJorge                    Fernández                López                    M00000000          N
022011111249999000110004TFelicita                 Santamarina              Pérez                    F00000000          N
022011111249999000110005TAstor                    García                   Suárez                   M00000000          N
022011111249999000127001TAlfredo                  Prada                    Presa                    M00000000          S
022011111249999000127002TEduardo                  Fernández                García                   M00000000          S
022011111249999000127003TMaría Aránzazu           Miguélez                 Pariente                 F00000000          S
022011111249999000127004TPedro Vicente            Sánchez                  García                   M00000000          N
022011111249999000127005TMaría Milagros           Gordaliza                Valbuena                 F00000000          N
022011111249999000133001TFabiola María Mercedes   Gonzalez                 Muñiz                    F00000000          N
022011111249999000133002TMiguel Ángel             García                   Fidalgo                  M00000000          N
022011111249999000133003TMaría Oliva              Álvarez                  Pérez                    F00000000          N
022011111289999000137035TFrancisco Ismael         Pérez                    Guarido                  M00000000          N
022011111289999000137036TMiriam                   Herrero                  Mondelo                  F00000000X         N
022011111289999000150001TRamiro                   Viñuales                 Ferreiro                 M00000000          N
022011111289999000150002TLila                     Fernández                Delgado                  F00000000          N
022011111289999000150003TCarlos Joaquín           De Miguel                Ximénez de Embún         M00000000          N
022011111289999000150004TÁngela María             Sánchez                  Nagy                     F00000000          N
022011111289999000150005TAntonio Arturo           Sieira                   Mucientes                M00000000          N
022011111289999000150006TMatilde Victoria         Ferreiro                 Barrios                  F00000000          N
022011111289999000150007TGuillermo                Hita                     Pascual                  M00000000          N
022011111289999000150008TEva                      Delgado                  Araujo                   F00000000          N
022011111289999000150009TRafael                   Amat                     Rueda                    M00000000          N
022011111289999000150010TNatalia                  Gullón                   Muñoz-Repiso             F00000000          N
022011111289999000150011TPablo                    Navarro                  Castell                  M00000000          N
022011111289999000150012TMaría                    Carretero                Mayor                    F00000000          N
022011111289999000150013TJuan                     López                    Tagle                    M00000000          N
022011111289999000150014TMarta Rosario            Sánchez                  García                   F00000000          N
022011111289999000150015TLuis                     Cacho                    Montes                   M00000000          N
022011111289999000150016TVictoria María           Díaz                     Marugán                  F00000000          N
022011111289999000150017TJuan Pablo               Nebrera                  Salcedo                  M00000000          N
022011111289999000150018TFrancisca                Payero                   Soto                     F00000000          N
022011111289999000150019TAgustín                  Vivanco                  González                 M00000000          N
022011111289999000150020TMaría Carmen             Fuente                   Canalda                  F00000000          N
022011111289999000150021TGabriel                  Díaz                     Marugán                  M00000000          N
022011111289999000150022TXuan-Zthanh              Ton-Nu                   Huynh                    F00000000          N
022011111289999000150023TAlejandro                López                    Arias                    M00000000          N
022011111289999000150024TMaría Luz                Polo                     López                    F00000000          N
022011111289999000150025TMiguel                   García-Inés              Alcalde                  M00000000          N
022011111289999000150026THaydde Milagro           Cueva                    Olivas                   F00000000          N
022011111289999000150027TMarco Aurelio            Sánchez                  Morales                  M00000000          N
022011111289999000150028TMaría                    Jiménez                  Rollán                   F00000000          N
022011111289999000150029TManuel                   Gallego                  Alonso                   M00000000          N
022011111289999000150030TCarmen                   Martínez-Pazos           Santos                   F00000000          N
022011111289999000150031TAugusto Pedro            Baena                    Reig                     M00000000          N
022011111289999000150032TÁngela                   Esteban                  Martínez                 F00000000          N
022011111289999000150033TJavier                   Nieto                    Rico                     M00000000          N
022011111289999000150034TMaría                    Fernández de Alarcón     Medina                   F00000000          N
022011111289999000150035TAlberto                  Armijo                   Suárez                   M00000000          N
022011111289999000150036TMarta                    Angoloti                 Benavides                F00000000          N
022011111289999000152001TPedro Alberto            García                   Bilbao                   M00000000          N
022011111289999000152002TSebastián                Vegas                    Cuadrado                 M00000000          N
022011111289999000152003TGermán                   Coppini                  López Tormos             M00000000          N
022011111289999000152004TMaría del Carmen         Manzano                  Alonso                   F00000000          N
022011111289999000152005TMaría Teresa             Martín                   Yuguero                  F00000000          N
022011111289999000152006TAlejandra                Hernampérez              González                 F00000000          N
022011111289999000152007TCarlos                   Hermida                  Revillas                 M00000000          N
022011111289999000152008TJosé Luis                Galán                    Corrochano               M00000000          N
022011111289999000152009TFélix                    Rodríguez                Sanz                     M00000000          N
022011111289999000152010TMercedes                 Expósito                 Martín                   F00000000          N
022011111289999000152011TCarlos                   Arroyo                   Fernández                M00000000          N
022011111289999000152012TCarmelo                  Escudero                 Méndez                   M00000000          N
022011111289999000152013TSonia                    Castro                   Saquete                  F00000000          N
022011111289999000152014TMirian                   Barbero                  Cepeda                   F00000000          N
022011111289999000152015TIndalecio                Hernández                Segovia                  M00000000          N
022011111289999000152016TGuillermo                González                 Cabello                  M00000000          N
022011111289999000152017TJulia                    Pérez                    Dendariena               F00000000          N
022011111289999000152018TMarta María              Sánchez                  Viloria                  F00000000          N
022011111289999000152019TDavid                    Calpena                  Gómez                    M00000000          N
022011111289999000152020TRaúl                     Carmona                  Sanz                     M00000000          N
022011111289999000152021TJuan Manuel Félix        Morales                  Suarez                   M00000000          N
022011111289999000152022TMaría Dolores            Val                      Caballero                F00000000          N
022011111289999000152023TManuel                   González                 Hernando                 M00000000          N
022011111289999000152024TMaría Concepción         Moreno                   Jiménez                  F00000000          N
022011111289999000152025TJosé Carlos              Lizana                   Molina                   M00000000          N
022011111289999000152026TManuel José              Molina                   Jiménez                  M00000000          N
022011111289999000152027TFrancisco José           Prieto                   Hernández                M00000000          N
022011111289999000152028TJosefa                   Rosa                     Sardón                   F00000000          N
022011111289999000152029TMaría del Carmen         García                   Herrera                  F00000000          N
022011111289999000152030TEmilio                   Rojas                    Parla                    M00000000          N
022011111289999000152031TPascual                  Izquierdo                Dionisio                 M00000000A         N
022011111289999000152032TMaría Jesús              Suárez                   Cortés                   F00000000          N
022011111289999000152033TJusta                    Hernández                Macías                   F00000000          N
022011111289999000152034TDiego                    Manso                    Martín                   M00000000          N
022011111289999000152035TMaría Begoña             Olaso                    Bilbao                   F00000000          N
022011111289999000152036TJulio Manuel             Fernández                López                    M00000000          N
022011111289999000158001TMarta                    Prieto                   Vidal                    F00000000          N
022011111289999000158002TCarlos Fernando          Llarandi                 Arroyo                   M00000000          N
022011111289999000158003TMaría Cristina           Casanova                 González                 F00000000          N
022011111289999000158004TErnesto                  Calleja                  García                   M00000000          N
022011111289999000158005TMónica                   Prieto                   Vidal                    F00000000          N
022011111289999000158006TJuan Antoni              Tapia                    Sanz                     M00000000          N
022011111289999000158007TManuel                   Araus                    Segura                   M00000000          N
022011111289999000158008TMaría Ángeles            Jiménez                  Valentín                 F00000000          N
022011111289999000158009TÁngela María             Vidal                    Merayo                   F00000000          N
022011111289999000158010TMaría Mar                Araus                    Segura                   F00000000          N
022011111289999000158011TAlberto Miguel           Ortiz                    Gándara                  M00000000          N
022011111289999000158012TPaloma                   Gil                      Sánchez                  F00000000          N
022011111289999000158013TJulián Ángel             García                   Fernández                M00000000          N
022011111289999000168022TJulián                   Sánchez                  González                 M00000000          N
022011111289999000168023TSonia                    Andrés                   García                   F00000000          N
022011111289999000168024TLuis                     Baeza-Rojano             Cauqui                   M00000000          N
022011111289999000168025TWalter Hugo              Scansetti                Lobo                     M00000000          N
022011111289999000168026TSilvia                   Bermejo                  Reinoso                  F00000000          N
022011111289999000168027TGuillermo                Quintana-Lacaci          Sanz                     M00000000          N
022011111289999000168028TMaría de los Ángeles     Álvarez                  Chávez                   F00000000          N
022011111289999000168029TJosé Manuel              Angulo                   Rivas                    M00000000          N
022011111289999000168030TJuan José                Asenjo                   Liras                    M00000000          N
022011111289999000168031TDavid de los Reyes       Montalvo                 Gómez                    M00000000          N
022011111289999000168032TMaría                    Fernández de Castro      Pombo                    F00000000          N
022011111289999000168033TRosina María             Rubio                    García                   F00000000          N
022011111289999000168034TJosé Luis                Gil                      Abanades                 M00000000          N
022011111289999000168035TMaría Juana              Rodríguez                Sanz                     F00000000          N
022011111289999000168036TManuel                   Lindo                    Garrido                  M00000000          N
022011111299999000001001TFrancisco                Roldán                   Castro                   M00000000          N
022011111299999000001002TMaría Inmaculada         Máquez                   Sánchez                  F00000000          N
022011111299999000001003TVictor José              Palenque                 Montero                  M00000000          N
022011111299999000001004TJosefa                   Lorente                  Correro                  F00000000          N
022011111299999000001005TMaría Angeles            Vera                     Coto                     F00000000          N
022011111299999000001006TJosé Antonio             Ruiz                     Gutiérrez                M00000000          N
022011111299999000001007TAnastasia                Florido                  Rodríguez                F00000000          N
022011111299999000001008TJoaquín Jorge            Ruiz                     Báez                     M00000000          N
022011111299999000001009TCatalina María           Durán                    Ruiz                     F00000000          N
022011111299999000001010TMaría Dolores            Bullón                   Ayala                    F00000000          N
022011111299999000039001TJavier                   De Luis                  Ferreras                 M00000000          N
022011111299999000039002TElena                    Fernández                Díaz                     F00000000          N
022011111299999000039003TAngel Isidoro            Rodríguez                Ramírez                  M00000000          N
022011111299999000039004TMaría Carmen             Borrego                  Aguayo                   F00000000          N
022011111299999000039005TJosé Agapito             Garrido                  Gil                      M00000000          N
022011111299999000039006TAna María                Cruzado                  Carmona                  F00000000          N
022011111299999000039007TAngel                    Terrón                   Pisonero                 M00000000          N
022011111299999000039008THerminia                 Serrano                  Carrasco                 F00000000          N
022011111299999000039009TDavid                    Torralba                 Portilla                 M00000000          N
022011111299999000039010TMaría Aurora             Fernández                Fernández                F00000000          N
022011111299999000040001TOscar Noel               Gavira                   Romero                   M00000000          N
022011111299999000040002TIsabel María             González                 Padilla                  F00000000          N
022011111299999000040003TJosé Luis                Carpintero               Avellaneda               M00000000          N
022011111299999000040004TMaría Inmaculada         Gómez                    Villegas                 F00000000          N
022011111299999000040005TManuel                   Cañas                    Gómez                    M00000000          N
022011111299999000040006TRafael Enrique           Sesmero                  Carrasco                 M00000000          N
022011111299999000040007TMaría Isabel             Alvarez                  Gallardo                 F00000000          N
022011111299999000040008TElisabet                 Carmona                  Martín                   F00000000          N
022011111299999000040009TJuana                    Pino                     Villegas                 F00000000          N
022011111299999000040010TJosé Javier              Regalado                 González                 M00000000          N
022011111299999000086001TAlberto                  Garzón                   Espinosa                 M00000000          S
022011111299999000086002TAmanda                   Meyer                    Hidalgo                  F00000000          N
022011111299999000086003TEfraín de Jesús          Campos                   Vidal                    M00000000          N
022011111299999000086004TElena                    Galán                    Jurado                   F00000000          N
022011111299999000086005TAlvaro                   Carreño                  González                 M00000000          N
022011111299999000086006TIsabel María             Cortés                   Rodríguez                F00000000          N
022011111299999000086007TGuzmán                   Ahumada                  Gavira                   M00000000          N
022011111299999000086008TMaría del Carmen         Otaola                   Heredia                  F00000000          N
022011111299999000086009TTelesforo                Romero                   Villasclaras             M00000000          N
022011111299999000086010TMaría Dolores            Quintana                 Campos                   F00000000          N
022011111299999000106001TSalvador                 López                    González                 M00000000          N
022011111299999000106002TRaquel                   Gabarrón                 Martín                   F00000000          N
022011111299999000106003TBenito                   Carrillo                 Martínez                 M00000000          N
022011111299999000106004TGenoveva                 García                   Escudero                 F00000000          N
022011111299999000106005TJose Luis                Florido                  Peláez                   M00000000          N
022011111299999000106006TLidia                    Maldonado                Yuste                    F00000000          N
022011111299999000106007TJosé                     Pascual                  Madrona                  M00000000          N
022011111299999000106008TSilvia                   Ponce                    Rasero                   F00000000          N
022011111299999000106009TJuan Álvaro              González                 Sánchez                  M00000000          N
022011111299999000106010TConcepción               Álvarez                  Rodríguez                F00000000          N
022011111299999000107001TAlonso                   Coronado                 Fernández                M00000000          N
022011111299999000107002TMaría Angeles            Bernal                   Martínez                 F00000000          N
022011111299999000107003TAntonio José             Villalba                 Fernández                M00000000          N
022011111299999000107004TMaría del Carmen         Silvente                 Fernández                F00000000          N
022011111299999000107005TJosé                     Pérez de León            Andreu                   M00000000          N
022011111299999000107006TVerónica                 Robles                   López                    F00000000          N
022011111299999000107007TCarlos                   Téllez                   Egea                     M00000000          N
022011111299999000107008TSilvia                   Arcas                    Arcas                    F00000000          N
022011111299999000107009TAntonio                  Cáceres                  López                    M00000000          N
022011111299999000107010TLourdes                  García                   Enriquez                 F00000000          N
022011111299999000110001TManuel                   Picón                    Lebrón                   M00000000          N
022011111299999000110002TMaría Gloria             Fernández                Ruiz                     F00000000          N
022011111299999000110003TAntonio                  Jiménez                  Martínez de Ubago        M00000000          N
022011111299999000110004TMaría Iluminada          Ordóñez                  Casado                   F00000000          N
022011111299999000110005TCristóbal                Pérez                    Anaya                    M00000000          N
022011111299999000110006TMaría Adela              Ruiz                     Cañete                   F00000000          N
022011111299999000110007TJesús David              Relinque                 Redondo                  M00000000          N
022011111299999000110008TMaría Pilar              Prado                    Álvarez                  F00000000          N
022011111299999000110009TJosé Gregorio            Martín                   Carrasquilla             M00000000          N
022011111299999000110010TDolores                  Valiente                 Borrego                  F00000000          N
022011111299999000122001TMiguel Angel             Fernández                Rodríguez                M00000000          N
022011111299999000122002TPatricia                 Ruiz                     Antúnez                  F00000000          N
022011111299999000122003TAngel                    Martín                   Hernández                M00000000          N
022011111299999000122004TMaría José               Gallardo                 Chica                    F00000000          N
022011111299999000122005TJosé                     Sobrino                  Caldado                  M00000000          N
022011111299999000122006TMaría Rosa               Galindo                  González                 F00000000          N
022011111299999000122007TJosé                     Caro                     Molina                   M00000000          N
022011111299999000122008TCarmen                   Jiménez                  Siles                    F00000000          N
022011111299999000122009TCarlos Alberto           Sánchez del Río          García                   M00000000          N
022011111299999000122010TMaría Inmaculada         Pérez                    Sánchez                  F00000000          N
022011111299999000127001TCelia                    Villalobos               Talero                   F00000000          S
022011111299999000127002TJuan Manuel              Moreno                   Bonilla                  M00000000          S
022011111299999000127003TMargarita del Carmen     Del Cid                  Muñoz                    F00000000          S
022011111299999000127004TCarolina                 España                   Reina                    F00000000          S
022011111299999000127005TAngel Luis               González                 Muñoz                    M00000000          S
022011111299999000127006TJoaquín                  Villanova                Rueda                    M00000000          S
022011111299999000127007TPaloma                   García                   Gálvez                   F00000000          N
022011111299999000127008TMaría del Mar            Baena                    Azuaga                   F00000000          N
022011111299999000127009TJesús Ignacio            Vázquez                  García                   M00000000          N
022011111299999000127010TLuis Alberto             Vázquez                  Alfarache                M00000000          N
022011111299999000136001TTrinidad                 Jiménez                  García-Herrera           F00000000          S
022011111299999000136002TMiguel Angel             Heredia                  Díaz                     M00000000          S
022011111299999000136003TJosé Andrés              Torres                   Mora                     M00000000          S
022011111299999000136004TDaniel                   Pérez                    Morales                  M00000000          N
022011111299999000136005TEstefanía                Martín                   Palop                    F00000000          N
022011111299999000136006TMaría del Mar            Jiménez                  García                   F00000000          N
022011111299999000136007TMaría del Carmen         Sánchez                  Aranda                   F00000000          N
022011111299999000136008TAntonio                  Hijano                   Recio                    M00000000          N
022011111299999000136009TIsabel María             García                   Muñoz                    F00000000          N
022011111299999000136010TAntonio                  López                    Blanco                   M00000000          N
022011111299999000158001TJosé                     González                 Ruiz                     M00000000          N
022011111299999000158002TMaría del Carmen         Soto                     Valiente                 F00000000          N
022011111299999000158003TMaría del Carmen         Nogales                  Pérez                    F00000000          N
022011111299999000158004TLuís Fernando            Prieto                   Pradas                   M00000000          N
022011111299999000158005TJosé Manuel              Cidre                    Mascato                  M00000000          N
022011111299999000158006TFernando                 García                   Rodríguez                M00000000          N
022011111299999000158007TVíctor Edson             Martín                   Román                    M00000000          N
022011111289999000158014TEnrique María            Prieto                   Gómez                    M00000000          N
022011111289999000158015TCristina                 Fuentes                  Muñoz                    F00000000          N
022011111289999000158016TJesús Miguel             Berenguer                Zamorano                 M00000000          N
022011111289999000158017TJosé Ángel               Bueno                    Crego                    M00000000          N
022011111289999000158018TGemma                    Olmos                    Centenera                F00000000          N
022011111289999000158019TJavier                   Gil                      Sánchez                  M00000000          N
022011111289999000158020TLucía                    Travillo                 Mayoral                  F00000000          N
022011111289999000158021TJudith Grasole           Campos                   Encinoso                 F00000000          N
022011111289999000158022TMoisés                   Mato                     López                    M00000000          N
022011111289999000158023TMaría Mar                Fernández                Peña                     F00000000          N
022011111289999000158024TMaría Jesús              Pérez                    De Vallejo               F00000000          N
022011111289999000158025TIgnacio                  Domenech                 Llorente                 M00000000          N
022011111289999000158026TLuis Alberto             Mangas                   Rivas                    M00000000          N
022011111289999000158027TMaría Julia              Galindo                  Gallego                  F00000000          N
022011111289999000158028TMaría Trinidad           Gómez del  Castillo      Segurado                 F00000000          N
022011111289999000158029TBerta                    García                   Puente                   F00000000          N
022011111289999000158030TCarlos Javier            Martínez                 Cerezal                  M00000000          N
022011111289999000158031TÓscar                    Quintela                 Jorge                    M00000000          N
022011111289999000158032TPilar Amelia             Gómez-Ulla               Astray                   F00000000          N
022011111289999000158033TFrancisco Javier         Díez                     Losa                     M00000000          N
022011111289999000158034TInmaculada               Ortiz                    Rodríguez                F00000000          N
022011111289999000158035TMaría de los Ángeles     Pérez                    Cano                     F00000000          N
022011111289999000158036TNuria                    Fuentes                  Muñoz                    F00000000          N
022011111289999000162001TAna María                Luque                    Sillero                  F00000000          N
022011111289999000162002TEncarnación              García                   Llamas                   F00000000          N
022011111289999000162003TMariano                  Soriano                  Giménez                  M00000000          N
022011111289999000162004TJesús                    Jiménez                  González                 M00000000          N
022011111289999000162005TJosé Gregorio            Morillas                 Cantero                  M00000000          N
022011111289999000162006TFrancisca                García                   Cascales                 F00000000          N
022011111289999000162007TCelia                    Ochoa                    Torres                   F00000000          N
022011111289999000162008TÁlvaro                   Fernández                Mateo                    M00000000          N
022011111289999000162009TÁngel                    Roldán                   López                    M00000000          N
022011111289999000162010TJuan                     Fuster                   Peiró                    M00000000          N
022011111289999000162011TMaría Raquel             Ochoa                    Torres                   F00000000          N
022011111289999000162012TLaura                    Santajuana               Aldea                    F00000000          N
022011111289999000162013TSaturnino                Benito                   Carrión                  M00000000          N
022011111289999000162014TJesús                    López                    Rivas                    M00000000          N
022011111289999000162015TFlorián                  Muñoz                    del Moral                M00000000          N
022011111289999000162016TAdriana                  Torres                   Luque                    F00000000          N
022011111289999000162017TSandra                   Menéndez                 Holguín                  F00000000          N
022011111289999000162018TJuan Carlos              Torres                   Ochoa                    M00000000          N
022011111289999000162019TMario                    de Juan                  Alemany                  M00000000          N
022011111289999000162020TSalvador                 Noriega                  Borrachero               M00000000          N
022011111289999000162021TMaría Luisa              Anta                     Maldonado                F00000000          N
022011111289999000162022TIsabel                   Noguera                  Montero                  F00000000          N
022011111289999000162023TDomingo                  Delgado                  López                    M00000000          N
022011111289999000162024TJorge                    González                 Daniel                   M00000000          N
022011111289999000162025TMiguel Ángel             Martínez                 Sevilla                  M00000000          N
022011111289999000162026TMaría Jesús              González                 Manganero                F00000000          N
022011111289999000162027TAntonia                  Ochoa                    Amador                   F00000000          N
022011111289999000162028TFernando José            Velao                    Reyes                    M00000000          N
022011111289999000162029TAlberto                  González                 Pérez                    M00000000          N
022011111289999000162030TDavid                    López                    Mondejar                 M00000000          N
022011111289999000162031TLara                     Catalán                  Noguera                  F00000000          N
022011111289999000162032TBlanca                   Muños                    Suárez                   F00000000          N
022011111289999000162033TVíctor                   Andrés                   González                 M00000000          N
022011111289999000162034TJosé Antonio             Mestre                   Burgos                   M00000000          N
022011111289999000162035TFélix J.                 Campos                   Sánchez                  M00000000          N
022011111289999000162036TMercedes                 García                   Álvarez                  F00000000          N
022011111289999000168001TRosa María               Díez                     González                 F00000000          S
022011111289999000168002TCarlos                   Martínez                 Gorriarán                M00000000          S
022011111289999000168003TÁlvaro                   Anchuelo                 Crego                    M00000000          S
022011111289999000168004TIrene                    Lozano                   Domingo                  F00000000          S
022011111289999000168005TRafael                   Calduch                  Cervera                  M00000000          N
022011111289999000168006TFernando                 Maura                    Barandiarán              M00000000          N
022011111289999000168007TMercedes                 Fuertes                  López                    F00000000          N
022011111289999000168008TDavid                    Andina                   Martínez                 M00000000          N
022011111289999000168009TMaría Yolanda            Sánchez                  Moya                     F00000000          N
022011111289999000168010TJaime                    de Piniés                Bianchi                  M00000000          N
022011111289999000168011TRodrigo                  Tena                     Arregui                  M00000000          N
022011111289999000168012TMaría Victoria           Fernández-Savater        Martín                   F00000000          N
022011111289999000168013TNieves Milagros          Martín                   García                   F00000000          N
022011111289999000168014TJosé Ignacio             Fernández                Gonzalo                  M00000000          N
022011111289999000168015TJosé Antonio             Álvaro                   Garrido (León Arsenal)   M00000000          N
022011111289999000168016TJuan Ramón               Sánchez                  Carballido               M00000000          N
022011111289999000168017TAurora                   Sotos                    García                   F00000000          N
022011111289999000168018TAna Belén                Castell                  Aranda                   F00000000          N
022011111309999000127006TLourdes                  Méndez                   Monasterio               F00000000          S
022011111309999000127007TArsenio                  Pacheco                  Atienza                  M00000000          S
022011111309999000127008TDolores                  Bolarín                  Sánchez                  F00000000          S
022011111309999000127009TTeodoro                  García                   Egea                     M00000000          N
022011111309999000127010TFrancisco                Abril                    Ruiz                     M00000000          N
022011111309999000136001TMaría                    González                 Veracruz                 F00000000          S
022011111309999000136002TPedro                    Saura                    García                   M00000000          S
022011111309999000136003TSara                     García                   Ruiz                     F00000000          N
022011111309999000136004TJuan Antonio             Hurtado                  Alcaraz                  M00000000          N
022011111309999000136005TJosé                     Espadas                  López                    M00000000          N
022011111309999000136006TMaría Carmen             Tristante                Lozano                   F00000000          N
022011111309999000136007TJosé                     García                   Ruiz                     M00000000          N
022011111309999000136008TAntonio Francisco        Gómez                    Gómez                    M00000000          N
022011111309999000136009TEva María                Abad                     Medina                   F00000000          N
022011111309999000136010TJesús                    Navarro                  Jiménez                  M00000000          N
022011111309999000152001TSergio                   Avílés                   Rico                     M00000000          N
022011111309999000152002TFlorencio                Dimas                    Balsalobre               M00000000          N
022011111309999000152003TFernando Manuel          Miñana                   Hurtado                  M00000000          N
022011111309999000152004TJosefina                 Sánchez                  Nevado                   F00000000          N
022011111309999000152005TEva Dolores              Hermosilla               Sánchez                  F00000000          N
022011111309999000152006TFernando                 Orenes                   Sánchez                  M00000000          N
022011111309999000152007TJaime                    Hidalgo                  Arroyo                   M00000000          N
022011111309999000152008TMaravillas               Valera                   Hidalgo                  F00000000          N
022011111309999000152009TEloy                     Ruiz                     Arcas                    M00000000          N
022011111309999000152010TEstefanía                Alarcón                  Calderón                 F00000000          N
022011111309999000161001TConcepción               Hernández                Mompeán                  F00000000          N
022011111309999000161002TPablo                    Martínez                 Escanciano               M00000000          N
022011111309999000161003TSergio                   Laurenti                 Alvarez                  M00000000          N
022011111309999000161004TFrancisco José           Sánchez                  López                    M00000000          N
022011111309999000161005TGertrudis                Hurtado                  García                   F00000000          N
022011111309999000161006TRoberto                  Romera                   Vivancos                 M00000000          N
022011111309999000161007TSergio                   Sánchez                  Nicolás                  M00000000          N
022011111309999000161008TMaría Arantzazu          Blanco                   Bernardeau               F00000000          N
022011111309999000161009TMaría de los DesamparadosEstellés                 Carrasco                 F00000000          N
022011111309999000161010TLuis Miguel              San Nicolás              Monje                    M00000000          N
022011111309999000168001TManuel                   Hernández                Iglesias                 M00000000          N
022011111309999000168002TCelia                    Martínez                 Vílchez                  F00000000          N
022011111309999000168003TFulgencio                Egea                     Moya                     M00000000          N
022011111309999000168004TJuan Manuel              Cabrera                  Pareja                   M00000000          N
022011111309999000168005TAlicia                   Alcaraz                  López                    F00000000          N
022011111309999000168006TAngel                    Carrillo                 López                    M00000000          N
022011111309999000168007TAntonio                  Pérez                    Martínez                 M00000000          N
022011111309999000168008TElvira                   Martínez                 Jiménez                  F00000000          N
022011111309999000168009TJosefa                   Lucas                    Bermúdez                 F00000000          N
022011111309999000168010TJuan Antonio             Sánchez                  García                   M00000000          N
022011111319999000003001TJosé Ramón Sabino        Cuadra                   Lasarte                  M00000000          S
022011111319999000003002TAritz                    Romeo                    Ruiz                     M00000000          N
022011111319999000003003TMiren Julia              Aranoa                   Astigarraga              F00000000          N
022011111319999000003004TSaioa                    Jaime                    Pastor                   F00000000          N
022011111319999000003005TMaría Angeles            Gorraiz                  Areopagita               F00000000          N
022011111319999000033001TFélix                    Ortega                   Salcedo                  M00000000          N
022011111319999000033002TSara                     González                 López                    F00000000          N
022011111319999000033003TSilvia                   Baleztena                Abarrategui              F00000000          N
022011111319999000033004TFrancisco Javier         Octavio de Toledo        Eugui                    M00000000          N
022011111319999000033005TMaría Nieves             Ciprés                   Aznar                    F00000000          N
022011111319999000039001TRebeca                   Remiro                   Íñigo                    F00000000          N
022011111319999000039002TJosé Joaquín             Pastor                   Arriazu                  M00000000          N
022011111319999000039003TÁngeles                  García                   Ruiz                     F00000000          N
022011111319999000039004TSilvano                  Baztán                   Guindo                   M00000000          N
022011111319999000039005TMaría Sofía              Pérez                    Ibiricu                  F00000000          N
022011111319999000061001TUxue                     Barkos                   Berruezo                 F00000000          S
022011111319999000061002TBizente                  Serrano                  Izko                     M00000000          N
022011111319999000061003TMaría Roncesvalles       Solana                   Arana                    F00000000          N
022011111319999000061004TPedro María              Ayerdi                   Echeverri                M00000000          N
022011111319999000061005TJokin                    Castiella                Imaz                     M00000000          N
022011111319999000071001TPablo Jesús              Archel                   Domench                  M00000000          N
022011111319999000071002TMaría Teresa             Mola                     Sáinz                    F00000000          N
022011111319999000071003TMaría Belén              Huarte                   Nagore                   F00000000          N
022011111319999000071004TLaura Lucía              Pérez                    Ruano                    F00000000          N
022011111319999000071005TFracisco Javier          Jimeno                   Torres                   M00000000          N
022011111319999000126001TFergus                   Reig                     Gracia                   M00000000          N
022011111319999000126002TAlberto                  Lamana                   Milagro                  M00000000          N
022011111319999000126003TJosé Carlos              Barahona                 Iturralde                M00000000          N
022011111319999000126004TTania                    de Dios                  Murugarren               F00000000          N
022011111319999000126005TBeatriz                  Cruz                     Regueras                 F00000000          N
022011111319999000136001TJuan                     Moscoso del Prado        Hernández                M00000000          S
022011111319999000136002TMaría José               Fernández                Aguerri                  F00000000          N
022011111319999000136003TJosé Angel               Andrés                   Gutierrez                M00000000          N
022011111319999000136004TValentina                Azcona                   Moreno                   F00000000          N
022011111319999000136005TCarlos                   Moreno                   Díaz                     M00000000          N
022011111319999000150001TAsier                    Porres                   Juaristi                 M00000000          N
022011111319999000150002TAna                      Gayte                    Diego                    F00000000          N
022011111319999000150003TMiguel                   Hidalgo                  Trueba                   M00000000          N
022011111319999000150004TMaría Antonia            Llamas                   Abad                     F00000000          N
022011111319999000150005TJesús Alberto            Fernández                Gómez                    M00000000          N
022011111319999000158001TLuis Miguel              Latasa                   Asso                     M00000000          N
022011111319999000158002TNuria                    Sánchez                  Díaz de Isla             F00000000          N
022011111319999000158003TIldefonso                Hervás                   Ruiz                     M00000000          N
022011111319999000158004TMª Inmaculada            Marcos                   Lazcano                  F00000000          N
022011111319999000158005TDavid                    Marcilla                 García                   M00000000          N
022011111319999000161001TMaría Luisa              Domenech                 Castillo                 F00000000          N
022011111319999000161002TSantiago                 Casal                    Ribas                    M00000000          N
022011111319999000161003TMaría Adela              Cubillo                  Lázaro                   F00000000          N
022011111319999000161004THector Manuel            Lloret                   Pardo                    M00000000          N
022011111319999000161005TAdriana                  Goikoetxea               Basilio                  F00000000          N
022011111319999000167001TCarlos                   Salvador                 Armendariz               M00000000          S
022011111319999000167002TJosé Cruz                Pérez                    Lapazarán                M00000000          S
022011111319999000167003TBegoña                   Sanzberro                Iturriria                F00000000          N
022011111319999000167004TMª Sagrario              Guindulain               Guerendiáin              F00000000          N
022011111319999000167005TJaime                    Zuza                     Ruiz de Alda             M00000000          N
022011111319999000168001TDiego                    Paños                    Olaiz                    M00000000          N
022011111319999000168002TJulián                   Pérez                    Muñoz                    M00000000          N
022011111319999000168003TMª Purificación Pascuala Fernández                Hernández                F00000000          N
022011111319999000168004TMaite                    Arrondo                  Segovia                  F00000000          N
022011111319999000168005TErnesto                  Arellano                 Suberviola               M00000000          N
022011111329999000014001TXosé Manuel              Pérez                    Bouza                    M00000000          N
022011111329999000014002TSusana Mª                García                   Rodríguez                F00000000          N
022011111329999000014003TManuel                   Agra                     Villar                   M00000000          N
022011111329999000014004TMª Teresa                Barge                    Bello                    F00000000          N
022011111329999000029001TXosé                     Febrero                  Bande                    M00000000          N
022011111329999000029002TEnrique                  Carballo                 Rodríguez                M00000000          N
022011111329999000029003TMaría Ángeles            Alonso                   Alvar                    F00000000          N
022011111329999000029004TJulia                    Fernández                Rodríguez                F00000000          N
022011111329999000038001TAna Belén                Meije                    Fernández                F00000000          N
022011111329999000038002TMiguel                   Cid                      Fernández                M00000000          N
022011111329999000038003TMaría Cristina           Valentín                 Fernández                F00000000          N
022011111329999000038004TÁngel                    García                   Brea                     M00000000          N
022011111329999000044001TMaría Sofía              Díaz                     Gómez                    F00000000          N
022011111329999000044002TJosé Antonio             Villar                   Blanco                   M00000000          N
022011111329999000044003TFernanda                 Cedrón                   Trigo                    F00000000          N
022011111329999000044004TJon                      Sáez                     García                   M00000000          N
022011111329999000107001TJavier                   Calvo                    Cano                     M00000000          N
022011111329999000107002TAlmudena                 Hernández                Ruescas                  F00000000          N
022011111329999000107003TFernando                 Díaz                     Pintado                  M00000000          N
022011111329999000107004TPilar                    Herraez                  Díaz-Crespo              F00000000          N
022011111329999000118001TLaura Carmen             Seara                    Sobrado                  F00000000          S
022011111329999000118002TJosé                     Arcos                    Álvarez                  M00000000          N
022011111329999000118003TFernando                 Fernández                Yáñez                    M00000000          N
022011111329999000118004TMaría Elena              Espinosa                 Mangana                  F00000000          N
022011111329999000128001TCelso Luís               Delgado                  Arce                     M00000000          S
022011111329999000128002TGuillermo                Collarte                 Rodríguez                M00000000          S
022011111329999000128003TAna Belén                Vázquez                  Blanco                   F00000000          S
022011111329999000128004TJackeline Elizabeth      Fernández                Macías                   F00000000          N
022011111329999000150001TRafael Manuel            Fernández                Alonso                   M00000000          N
022011111329999000150002TMaría Jesús              Fernández                Conde                    F00000000          N
022011111329999000150003TMechy                    Batista                  Rodríguez                F00000000          N
022011111329999000150004TCarlos                   Besada                   Gesto                    M00000000          N
022011111329999000162001TLorena                   Padrón                   Cabo                     F00000000          N
022011111329999000162002TSergio                   Pérez                    Miguel                   M00000000          N
022011111329999000162003TMaría Isabel             Bascoy                   Vilas                    F00000000          N
022011111329999000162004TRubén Delmiro            González                 Álvarez                  M00000000          N
022011111329999000168001TLaureano                 Bermejo                  Ansía                    M00000000          N
022011111329999000168002TCarlos                   Fernández                Vilacha                  M00000000          N
022011111329999000168003TEva                      Fernández                Prieto                   F00000000          N
022011111329999000168004TMaría José               García                   Hidalgo                  F00000000          N
022011111339999000004001TArturu Xosé              Bermeyu                  García                   M00000000          N
022011111339999000004002TLlucía                   Fernández                Marqués                  F00000000          N
022011111339999000004003TPablo                    Rios                     Suárez                   M00000000          N
022011111339999000004004TBruno                    Gómez                    Jiménez                  M00000000          N
022011111339999000004005TMaría Del Carme          Pérez                    Antolín                  F00000000          N
022011111339999000004006TFernán                   Gonzali                  Llechosa                 M00000000          N
022011111339999000004007TPaloma                   García                   Fernández                F00000000          N
022011111339999000004008TLaura                    Prida                    Carbajal                 F00000000          N
022011111339999000039001TMaría Del Pilar          Calvo                    Holgado                  F00000000          N
022011111339999000039002TAdrián                   Blanco                   García                   M00000000          N
022011111339999000039003TCristina                 Entrialgo                Vega                     F00000000          N
022011111339999000039004TEduardo                  Campomanes               Calleja                  M00000000          N
022011111339999000039005TNatalia                  García                   Posada                   F00000000          N
022011111339999000039006TJoaquín                  Arce                     Fernández                M00000000          N
022011111339999000039007TMaría                    Fernández                López                    F00000000          N
022011111339999000039008TJosé Antonio             Ballesteros              Garrido                  M00000000          N
022011111339999000040001TLuis                     Prado                    García                   M00000000          N
022011111339999000040002TPedro                    Arancón                  Pastor                   M00000000          N
022011111339999000040003TSaúl                     Caño                     Alberto                  M00000000          N
022011111339999000040004TTernura Rosa             Rojas                    Durán                    F00000000          N
022011111289999000168019TCarlos                   Rey                      García                   M00000000          N
022011111289999000168020TModesto                  Ogea                     Martínez-Orozco          M00000000          N
022011111289999000168021TAránzazu                 De Irala                 Aurrecoechea             F00000000          N
022011111289999000060023TDaniel                   Martínez                 Martín                   M00000000          N
022011111289999000060024TMaría Luisa              Isac                     Gassol                   F00000000          N
022011111289999000060025TFederico                 Gil                      Ibáñez                   M00000000          N
022011111289999000060026TPatricia                 Martínez                 Crespo                   F00000000          N
022011111289999000060027TMaría Sara               Jiménez                  Martínez                 F00000000          N
022011111289999000060028TManuel Jorge             Alarcón                  Gordón                   M00000000          N
022011111289999000060029TAlberto Luis             Ortego                   García                   M00000000          N
022011111289999000060030TAzucena                  Tejedor                  García                   F00000000          N
022011111289999000060031TAlberto                  Cler                     Hernández                M00000000          N
022011111289999000060032TLidia                    Bermejo                  Navarro                  F00000000          N
022011111289999000060033TDaniel                   Peña                     Sevilla                  M00000000          N
022011111289999000060034TMónica                   Lalaguna                 Garín                    F00000000          N
022011111289999000060035TJoaquín                  Álvarez                  Cotroneo                 M00000000          N
022011111289999000060036TLuis                     Díaz-Caneja              Sela                     M00000000          N
022011111289999000088001TCayo                     Lara                     Moya                     M00000000          S
022011111289999000088002TAscensión                de las Heras             Ladera                   F00000000          S
022011111289999000088003TMaría Caridad            García                   Álvarez                  F00000000          S
022011111289999000088004TCarmen                   Pérez-Carballo           Veiga                    F00000000          N
022011111289999000088005TDemetrio Eduardo         Sánchez                  Iglesias                 M00000000          N
022011111289999000088006TAlejandro                León                     Lacal                    M00000000          N
022011111289999000088007TMiguel Ángel             García                   Herrero                  M00000000          N
022011111289999000088008TNoemí                    Ruiz                     Ruiz                     F00000000          N
022011111289999000088009TEsther                   Gómez                    Morante                  F00000000          N
022011111289999000088010TGracia                   Trujillo                 Barbadillo               F00000000          N
022011111289999000088011TRaúl                     Calle                    Gallardo                 M00000000          N
022011111289999000088012TIsmael                   González                 López                    M00000000          N
022011111289999000088013TFrancisco Javier         Casado                   Arboniés                 M00000000          N
022011111289999000088014TMaría de los Reyes       Vargas                   Díaz                     F00000000          N
022011111289999000088015TLeonarda María           Gallarosa                Porras                   F00000000          N
022011111289999000088016TJavier                   Gómez                    Ochoa                    M00000000          N
022011111289999000088017TFrancisco de Borja       Goñi                     López de Armentia        M00000000          N
022011111289999000088018TAlberto                  Hidalgo                  Hermoso                  M00000000          N
022011111289999000088019TMaría Elena              Sigüenza                 Carbonell                F00000000          N
022011111289999000088020TEva                      Gómez                    Orgaz                    F00000000          N
022011111289999000088021TNicolás                  Franze                   Ferreira                 M00000000          N
022011111289999000088022TJerónimo                 Hernández                Casares                  M00000000          N
022011111289999000088023TGerardo                  Del Val                  Cid                      M00000000          N
022011111289999000088024TMaría Josefa             Amat                     Ruiz                     F00000000          N
022011111289999000088025TLeonor                   Villazala                Roca                     F00000000          N
022011111289999000088026TJosé Miguel              De Sebastián             Carrero                  M00000000          N
022011111289999000088027TMaría del Pilar          Fernández                Herrador                 F00000000          N
022011111289999000088028TOctavio                  Marco                    Cabero                   M00000000          N
022011111289999000088029TJuan                     Santana                  Uriarte                  M00000000          N
022011111289999000088030TSira                     Abed                     Rego                     F00000000          N
022011111289999000088031TPaloma                   Vázquez                  Laserna                  F00000000          N
022011111289999000088032TLaura                    Blázquez                 Del Hierro               F00000000          N
022011111289999000088033TCarlos                   Perandones               Serrano                  M00000000          N
022011111289999000088034TMaría                    Santos                   Ricoy                    F00000000          N
022011111289999000088035TJosé Antonio             López                    Tinaquero                M00000000          N
022011111289999000088036TJuan Manuel              Román                    Andrades                 M00000000          N
022011111289999000107001TSilvia                   Barquero                 Nogales                  F00000000          N
022011111289999000107002TElisa                    Blanco                   Barba                    F00000000          N
022011111289999000107003TPilar                    de la Vega               Sestelo                  F00000000          N
022011111289999000107004TMiguel                   Rodríguez                Martí                    M00000000          N
022011111289999000107005TJuan de Dios             Rodríguez                Arriaza                  M00000000          N
022011111289999000107006TMaría Prado              Rivero                   Domínguez                F00000000          N
022011111289999000107007TMaría José               López                    López                    F00000000          N
022011111289999000107008TMargarita                Morales                  Sarabia                  F00000000          N
022011111289999000107009TDavid                    Díaz                     Tardón                   M00000000          N
022011111289999000107010TLuis Alberto             Bermejo                  San Juan                 M00000000          N
022011111289999000107011TAsunción                 Estévez                  Chacón                   F00000000          N
022011111289999000107012TNatalia del Pilar        Alcázar                  Contell                  F00000000          N
022011111289999000107013TBerta                    Barrios                  de Jesús                 F00000000          N
022011111289999000107014TAntonio                  García Palao             Redondo                  M00000000          N
022011111289999000107015TRaúl                     Sánchez                  López                    M00000000          N
022011111289999000107016TCristina                 López                    Nieto                    F00000000          N
022011111289999000107017TMaría Teresa             Pujante                  González                 F00000000          N
022011111289999000107018TClara                    Teruel                   Martínez                 F00000000          N
022011111289999000107019TMario                    García                   Ramírez                  M00000000          N
022011111289999000107020TAntonio                  Ortega                   Martín                   M00000000          N
022011111289999000107021TMaría Dolores            Checa                    Maza                     F00000000          N
022011111289999000107022TFlorencia                Herrero                  Gavilán                  F00000000          N
022011111289999000107023TCarmen                   Estremera                Vieytiz                  F00000000          N
022011111289999000107024TÍñigo                    Triguero                 Domínguez                M00000000          N
022011111289999000107025TCésar                    Pérez                    Cerviño                  M00000000          N
022011111289999000107026TPilar                    Gallego                  Bernal                   F00000000          N
022011111289999000107027TDiana                    Rodríguez                Segura                   F00000000          N
022011111289999000107028TTeodosia                 Felipe                   Delgado                  F00000000          N
022011111289999000107029TFrancisco Javier         Pérez                    Cerviño                  M00000000          N
022011111289999000107030TÁngel                    Esteban                  Lozano                   M00000000          N
022011111289999000107031TZoraya                   Marghih                  Berral                   F00000000          N
022011111289999000107032TMaría Norma              Fierro                   Rolán                    F00000000          N
022011111289999000107033TDéborah                  Delgado                  Estévez de Casabuena     F00000000          N
022011111289999000107034TMiguel                   Esteban                  Díez                     M00000000          N
022011111289999000107035TFauzy                    Jaafar                   Arias                    M00000000          N
022011111289999000107036TJosé Manuel              Querol                   Royo                     M00000000          N
022011111289999000111001TBlanca Esther            Rivas                    González                 F00000000          N
022011111289999000111002TJavier                   Martorell                Nieves                   M00000000          N
022011111289999000111003TÁlvaro                   Barreiro                 Álvarez                  M00000000          N
022011111289999000111004THelena Rosa              Menéndez                 Ruano                    F00000000          N
022011111289999000111005TMiguel Ángel             Villalón                 Rivera                   M00000000          N
022011111289999000111006TRamón                    Tiscar                   Marín                    M00000000          N
022011111289999000111007TJuan Antonio             Diéguez                  Martín                   M00000000          N
022011111289999000111008TFernando                 Bendicho                 Campoy                   M00000000          N
022011111289999000111009TMaría del Carmen         Vicente                  Cenzano                  F00000000          N
022011111289999000111010TMilagros                 de Frutos                Moreno                   F00000000          N
022011111289999000111011TVíctor Manuel            Lucas                    Ranz                     M00000000          N
022011111289999000111012TAlberto                  Arana                    Gallardo                 M00000000          N
022011111289999000111013TMaría Elena              García                   García                   F00000000          N
022011111289999000111014TZinaida                  Rumiantseva              Rumiantseva              F00000000          N
022011111289999000111015TJosé Luis                López de Santa María     Miró                     M00000000          N
022011111289999000111016TJuan Pedro               López                    Lorite                   M00000000          N
022011111289999000111017TAntonio                  Vicente                  Cenzano                  M00000000          N
022011111289999000111018TMaría José               Moleón                   Martínez                 F00000000          N
022011111289999000111019TMaría del Pilar          Domínguez                Fernández                F00000000          N
022011111289999000111020TVíctor                   Moreno                   Sainero                  M00000000          N
022011111289999000111021TSalvador                 Ramírez                  Murillo                  M00000000          N
022011111289999000111022TJosé Luis                Torremocha               Martín                   M00000000          N
022011111289999000111023TMelquiades               Jiménez                  Vicente                  M00000000          N
022011111289999000111024TNatividad                Martín                   Sierra                   F00000000          N
022011111289999000111025TAlmudena                 Morate                   Roldán                   F00000000          N
022011111289999000111026TAlberto                  Pérez                    Santiago                 M00000000          N
022011111289999000111027TRoque                    Segovia                  Herrera                  M00000000          N
022011111289999000111028TMario                    Durán                    Domínguez                M00000000          N
022011111289999000111029TMaría Teresa             Rodríguez                Celador                  F00000000          N
022011111289999000111030TZoe                      Rodríguez                Pérez                    F00000000          N
022011111289999000111031TRicardo                  Huerta                   Blanco                   M00000000          N
022011111289999000111032TMaría Teresa             Belmonte                 Paredes                  F00000000          N
022011111289999000111033TMaría del Carmen         Casado                   Esteban                  F00000000          N
022011111289999000111034TDavid                    González                 Rubio                    M00000000          N
022011111289999000111035TAlberto                  Sánchez                  Colomo                   M00000000          N
022011111289999000111036TMaría Rosario            Cortina                  Gómez-Tostón             F00000000          N
022011111289999000114001TDiego José               Ruiz                     Rincón                   M00000000          N
022011111289999000114002TRoxana                   Nicula                   Tanase                   F00000000          N
022011111289999000114003TSandra Isabel            Martín                   Alcaide                  F00000000          N
022011111289999000114004TIván                     Sánchez                  Díaz                     M00000000          N
022011111289999000114005TFrancisco                Cacharro                 Gosende                  M00000000          N
022011111289999000114006TPedro José               Horcajo                  Burgueño                 M00000000          N
022011111289999000114007TSandra                   Sardiña                  García                   F00000000          N
022011111289999000114008TAna Isabel               Serrano                  Lorenzo                  F00000000          N
022011111289999000114009TSergio                   Soriano                  San Martín               M00000000          N
022011111289999000114010TYolanda                  Rández                   García                   F00000000          N
022011111289999000114011TLuis                     Espinosa                 Goded                    M00000000          N
022011111289999000114012TJosé María               Rodríguez                Cañete                   M00000000          N
022011111289999000114013TXavier                   Rodríguez                Esteller                 M00000000          N
022011111289999000114014TAinara                   Herrán                   Martínez de San Vicente  F00000000          N
022011111289999000114015TBeatriz                  Contreras                López                    F00000000          N
022011111289999000114016TOscar                    Timón                    Arnaiz                   M00000000          N
022011111239999000039002TNoelia                   Rodríguez                Aranda                   F00000000          N
022011111239999000039003TRene                     Fernández                Olsen                    M00000000          N
022011111239999000039004TMaría Josefa             Jiménez                  Tello                    F00000000          N
022011111239999000039005TPedro Antonio            Jodar                    de la Casa               M00000000          N
022011111239999000039006TConcepción               Martínez                 Alcalá                   F00000000          N
022011111239999000086001TSebastián                López                    Mateos                   M00000000          N
022011111239999000086002TMaría del Mar            López                    Estrella                 F00000000          N
022011111239999000086003TDiego de la Cruz         Martínez                 López                    M00000000          N
022011111239999000086004TMaría del Mar            Torres                   Pulido                   F00000000          N
022011111239999000086005TJosé                     Palomares                Martínez                 M00000000          N
022011111239999000086006TJuana de Dios            Peragón                  Roca                     F00000000          N
022011111239999000105001TJosé                     Salas                    Gil                      M00000000          N
022011111239999000105002TFrancisco Javier         Moreno                   Casado                   M00000000          N
022011111239999000105003TAna María                Ramos                    Martínez                 F00000000          N
022011111239999000105004TJesús                    Gómez                    Martínez                 M00000000          N
022011111239999000105005TEncarnación              Camacho                  Muñoz                    F00000000          N
022011111239999000105006TRosa Blanca              Ruiz                     Martínez                 F00000000          N
022011111239999000127001TMaría Elvira             Rodríguez                Herrer                   F00000000          S
022011111239999000127002TGabino                   Puche                    Rodríguez Acosta         M00000000          S
022011111239999000127003TMiguel                   Sánchez de Alcázar       Ocaña                    M00000000          S
022011111239999000127004TJosé Juan                Sánchez                  Barrera                  M00000000          N
022011111239999000127005TSofía María              Castelló                 Nicás                    F00000000          N
022011111239999000127006TMontserrat               Prieto                   García                   F00000000          N
022011111239999000134001TMiguel Ángel             Rus                      Casado                   M00000000          N
022011111239999000134002TJosefa Luisa             Juárez                   Ruiz                     F00000000          N
022011111239999000134003TSebastián David          Ruiz                     Gámez                    M00000000          N
022011111239999000134004TMarcos                   Rentero                  Casado                   M00000000          N
022011111239999000134005TManuela                  Pérez                    Escribano                F00000000          N
022011111239999000134006TFrancisca                Molina                   Ruiz                     F00000000          N
022011111239999000136001TMaría Concepción         Gutiérrez                del Castillo             F00000000          S
022011111239999000136002TGaspar Carlos            Zarrías                  Arévalo                  M00000000          S
022011111239999000136003TFelipe Jesús             Sicilia                  Alférez                  M00000000          S
022011111239999000136004TMaría de las Mercedes    Gámez                    García                   F00000000          N
022011111239999000136005TJuan José                Martínez                 Galán                    M00000000          N
022011111239999000136006TInmaculada Concepción    Álvarez                  Gálvez                   F00000000          N
022011111239999000158001TCatalina                 Trillo                   Molina                   F00000000          N
022011111239999000158002TFrancisco Javier         Ráez                     Ruiz                     M00000000          N
022011111239999000158003TGuadalupe                Molina                   Díaz                     F00000000          N
022011111239999000158004TMaría Isabel             García                   Fernández                F00000000          N
022011111239999000158005TGerardo                  Rodríguez                García                   M00000000          N
022011111239999000158006TJosé de la Ascensión     Marín                    Zamora                   M00000000          N
022011111239999000161001TEsperanza                Rico                     Moral                    F00000000          N
022011111239999000161002TJulio Cesar              Vargas                   Lupión                   M00000000          N
022011111239999000161003TMiriam Natty             Zambrana                 Cordero                  F00000000          N
022011111239999000161004TJuan Pedro               Moreno                   Fernández                M00000000          N
022011111239999000161005TEva Alsacia              Carmona                  Ruiz                     F00000000          N
022011111259999000162002TManuel                   Iglesias                 Meléndez                 M00000000          N
022011111259999000162003TDolores                  García                   Fernández                F00000000          N
022011111259999000162004TIvan                     Renales                  Palau                    M00000000          N
022011111259999000168001TLucianne Natacha         Silva                    Machado                  F00000000          N
022011111259999000168002TAndrés                   Pardo                    Granero                  M00000000          N
022011111259999000168003TIsabel Ursula            Martínez                 Valero                   F00000000          N
022011111259999000168004TPablo                    Pérez                    López                    M00000000          N
022011111269999000039001TJose Manuel              Zúñiga                   Suescún                  M00000000          N
022011111269999000039002TAraceli                  Ortiz                    Somovilla                F00000000          N
022011111269999000039003TJuan Genaro              Iglesias                 Velasco                  M00000000          N
022011111269999000039004TMaria Olga               Villanueva               Heinrichs                F00000000          N
022011111269999000085001TRubén                    Esteban                  Alesón                   M00000000          N
022011111269999000085002TEva María                Lacarra                  Córdova                  F00000000          N
022011111269999000085003TJulián Oscar             Moreno                   Lavilla                  M00000000          N
022011111269999000085004TBlanca Nieves            Miera                    Sáinz                    F00000000          N
022011111269999000107001TBeatriz                  Martínez                 Domingo                  F00000000          N
022011111269999000107002TDiego                    Palacios                 Marxuach                 M00000000          N
022011111269999000107003TShirley Stephania        Briones                  Valencia                 F00000000          N
022011111269999000107004TÓscar                    Márquez                  Brera                    M00000000          N
022011111269999000110001TJuan Carlos              Martínez-Portillo        Heras                    M00000000          N
022011111269999000110002TAna                      Escauriaza               Del Pueyo                F00000000          N
022011111269999000110003TDaniel                   Sáenz de la Cuesta       Ruiz                     M00000000          N
022011111269999000110004TLaura                    Pérez                    Sáenz                    F00000000          N
022011111269999000127001TConrado                  Escobar                  Las Heras                M00000000          S
022011111269999000127002TMaría Concepción         Bravo                    Ibáñez                   F00000000          S
022011111269999000127003TJuan Antonio             Abad                     Pérez                    M00000000          S
022011111269999000127004TMaria del Carmen         Duque                    Palacios                 F00000000          N
022011111269999000136001TCésar                    Luena                    López                    M00000000          S
022011111269999000136002TMaría Victoria           De Pablo                 Dávila                   F00000000          N
022011111269999000136003TEmilia                   Fernández                Núñez                    F00000000          N
022011111269999000136004TRaúl                     Llorente                 Mendizábal               M00000000          N
022011111269999000150001TJorge Pablo              Moreno                   Alcalde                  M00000000          N
