022015121119999000066007TJuan Antonio             Liaño                    Pazos                    M00000000          N
022015121119999000066008TIgnacio                  Macias                   Fernández                M00000000          N
022015121119999000066009TMaría Caridad            Salazar                  Merino                   F00000000          N
022015121119999000378001TFrancisco José           Pozo                     Gago                     M00000000          N
022015121119999000378002THugo                     Cañellas                 Ávila                    M00000000          N
022015121119999000378003TNoelia                   Guerrero                 Hidalgo                  F00000000          N
022015121119999000378004TJosé Francisco           Carrasco                 Gallego                  M00000000          N
022015121119999000378005TYaiza                    Umpiérrez                Trujillo                 F00000000          N
022015121119999000378006TRoque                    Ortega                   Plazuelo                 M00000000          N
022015121119999000378007TAdelaida                 Arcila                   García de Quirós         F00000000          N
022015121119999000378008TMiguel                   Mena                     Muñoz                    M00000000          N
022015121119999000378009TIsabel María             Meléndez                 Béjar                    F00000000          N
022015121119999000489001TEduardo Antonio          Arañó                    Hidalgo                  M00000000          N
022015121119999000489002TGema                     Pigueiras                Voces                    F00000000          N
022015121119999000489003TAntonio                  Abate                    González                 M00000000          N
022015121119999000489004TMaría del Carmen         Arias                    Patrón                   F00000000          N
022015121119999000489005TJesica                   Martínez                 Faraldo                  F00000000          N
022015121119999000489006TJuan Antonio             Raposo                   Camacho                  M00000000          N
022015121119999000489007TMaría del Carmen         López                    Merino                   F00000000          N
022015121119999000489008TAna María                Muiños                   Frasquet                 F00000000          N
022015121119999000489009TManuel María             Cabello                  Izquierdo                M00000000          N
022015121119999000636001TEnrique                  Guillén                  Morilla                  M00000000          N
022015121119999000636002TCarmen                   Díaz                     López                    F00000000          N
022015121119999000636003TFrancisco Ginés          Fernández                Payán                    M00000000          N
022015121119999000636004TMaría Cristina           Contreras                Mojarro                  F00000000          N
022015121119999000636005TGregorio                 Lobato                   López                    M00000000          N
022015121119999000636006TManuel Cayetano          Giménez                  Vázquez                  M00000000          N
022015121119999000636007TAmor                     Contreras                Velázquez                F00000000          N
022015121119999000636008TLuis Miguel              Pérez                    Matallana                M00000000          N
022015121119999000636009TSandra Luz               Pérez                    Custodio                 F00000000          N
022015121119999000711001TFrancisco José           Ferrer                   Gálvez                   M00000000          N
022015121119999000711002TYolanda                  Castro                   Jiménez                  F00000000          N
022015121119999000711003TAntonio                  Pérez                    Castellano               M00000000          N
022015121119999000711004TVirginia                 Moreno                   Muñoz                    F00000000          N
022015121119999000711005TJosé                     Raposo                   Sánchez                  M00000000          N
022015121119999000711006TManuela                  Ferrer                   Gálvez                   F00000000          N
022015121119999000711007TMario                    Carrillo                 Trujillo                 M00000000          N
022015121119999000711008TÁfrica                   Merino                   Ruiz                     F00000000          N
022015121119999000711009TÁlvaro                   Roldán                   Villalar                 M00000000          N
022015121179999000141006TOLGA                     SIMARRO                  ROJAS                    F00000000          N
022015121179999000304001TCONCEPCIÓ                VERAY                    CAMA                     F00000000          N
022015121179999000304002TJOAN                     MENACHO                  GABARDINO                M00000000          N
022015121179999000304003TMARINA                   GUILLÉN                  CAMPOS                   F00000000          N
022015121179999000304004TABRAHAM                  RODRÍGUEZ                REQUENA                  M00000000          N
022015121179999000304005TJOSÉ ANTONIO             SEPÚLVEDA                MORENO                   M00000000          N
022015121179999000304006TCARMEN                   VICENS                   CODINA                   F00000000          N
022015121179999000329001TFERNANDO                 LÓPEZ DE CASTRO          FA                       M00000000          N
022015121179999000329002TSALVADOR                 VALENZUELA               PULIDO                   M00000000          N
022015121179999000329003TOLGA                     HERNÁNDEZ                GARCÍA                   F00000000          N
022015121179999000329004TJOSÉ ANTONIO             SÁNCHEZ                  MESA                     M00000000          N
022015121179999000329005TCRISTINA                 RODRÍGUEZ                MÍGUEZ                   F00000000          N
022015121179999000329006TISABEL                   MACHADO                  ROSA                     F00000000          N
022015121179999000339001TMIGUEL ÁNGEL             RODRÍGUEZ                TAPIA                    M00000000          N
022015121179999000339002TMARIA DEL PILAR          FERRÀNDIZ                JORDÀ                    F00000000          N
022015121179999000339003TISABEL                   RAMOS                    SIERPES                  F00000000          N
022015121179999000339004TAITZIBER                 SÁEZ DE BURUAGA          COUSILLAS                F00000000          N
022015121179999000339005TFERRAN                   MIR                      CULELL                   M00000000          N
022015121179999000339006TJOSÉ LUIS                SÁNCHEZ                  BORQUE                   M00000000          N
022015121179999000568001TENCARNACIÓN              CONESA                   LÓPEZ                    F00000000          N
022015121179999000568002TRUBÉN                    PARRA                    MARTÍNEZ                 M00000000          N
022015121179999000568003TVANESA                   PONS                     GUILLÉN                  F00000000          N
022015121289999000824028TCarmen                   Perez-Carballo           Veiga                    F00000000          N
022015121289999000824029TOscar                    Peñas                    García                   M00000000          N
022015121289999000824030TMaría Isabel             Cabrera                  Sevilla                  F00000000          N
022015121289999000824031TCarlos                   Rodriguez                Sierra                   M00000000          N
022015121289999000824032TTania                    Rodríguez                González                 F00000000          N
022015121289999000824033TJorge                    Lozano                   Mendoza                  M00000000          N
022015121289999000824034TEsther                   Rodriguez                Moreno                   F00000000          N
022015121289999000824035TCarlos                   Fernández                Liria                    M00000000          N
022015121289999000824036TFrancisca                Jodar                    Beltran                  F00000000          N
022015121289999000884001TNorberto                 Pico                     Sanabria                 M00000000          N
022015121289999000884002TIván                     González                 Sánchez                  M00000000          N
022015121289999000884003TMaría Doris              Chulilla                 Maier                    F00000000          N
022015121289999000884004TMaría del Camino         Carrillo                 Iglesias                 F00000000          N
022015121289999000884005TJosé Luis                Daza                     Santos                   M00000000          N
022015121289999000884006TJavier                   Juárez                   del Amo                  M00000000          N
022015121289999000884007TElisa                    Sánchez                  Ramos                    F00000000          N
022015121289999000884008TPablo                    Márquez                  Díez                     M00000000          N
022015121289999000884009TJulio                    Sánchez de las Matas     Sanz                     M00000000          N
022015121289999000884010TMaría del Carmen         Arroyo                   Gómez                    F00000000          N
022015121289999000884011TDiego                    Márquez                  García                   M00000000          N
022015121289999000884012TCristina                 Márquez                  Díez                     F00000000          N
022015121289999000884013TMaría del Carmen         Hernández                Urbistondo               F00000000          N
022015121289999000884014TPedro                    Cantero                  López                    M00000000          N
022015121289999000884015TJuan Carlos              Delgado                  Rubio                    M00000000          N
022015121289999000884016TJosé Antonio             Márquez                  Díez                     M00000000          N
022015121289999000884017TMaría del Camino         Iglesias                 García                   F00000000          N
022015121289999000884018TGloria                   Sanabria                 Albarrán                 F00000000          N
022015121289999000884019TMaría Olivia             Orozco                   Gaviria                  F00000000          N
022015121289999000884020TGabriel                  García                   Hernández                M00000000          N
022015121289999000884021TCarlos Javier            Carmona                  García                   M00000000          N
022015121289999000884022TMaría Cristina           Andreu                   Cano                     F00000000          N
022015121289999000884023TPedro                    Arriola                  Turpin                   M00000000          N
022015121289999000884024TMaría Paz                Varela                   Bris                     F00000000          N
022015121289999000884025TFernán Nuño              García                   Brugos                   M00000000          N
022015121289999000884026TJosé Ramón               Franco                   Abad                     M00000000          N
022015121289999000884027TMaravillas Carmen        López                    Pérez                    F00000000          N
022015121289999000884028TGloria María             Sánchez                  Abellán                  F00000000          N
022015121289999000884029TRamón                    Olivenza                 Gallardo                 M00000000          N
022015121289999000884030TFrancisco Jesús          González                 Rodríguez                M00000000          N
022015121289999000884031TJulio                    González                 Moreno                   M00000000          N
022015121289999000884032TMercedes                 Sánchez                  Aguilar                  F00000000          N
022015121289999000884033TMaría Fátima             Melendo                  Bustos                   F00000000          N
022015121289999000884034TAna Belén                Cuervo                   Aparicio                 F00000000          N
022015121289999000884035TEva                      Sánchez                  Abellán                  F00000000          N
022015121289999000884036TÁngel                    Pozo                     Granado                  M00000000          N
022015121289999000895001TDaniel                   Martínez                 Martínez                 M00000000          N
022015121289999000895002TRoxana                   Nicula                   Tanase                   F00000000          N
022015121289999000895003TIsrael Ignacio           Alonso                   Gómez                    M00000000          N
022015121289999000895004TRosario                  López                    Romero                   F00000000          N
022015121289999000895005TYván Ricardo             Ecarri                   Gómez                    M00000000          N
022015121289999000895006TJorge                    Martín                   Espada                   M00000000          N
022015121289999000895007TÓscar                    Timón                    Arnaiz                   M00000000          N
022015121289999000895008TMaría de los Ángeles     Chamorro                 Martínez                 F00000000          N
022015121289999000895009TAdolfo                   Lozano                   del Campo                M00000000          N
022015121289999000895010TLucía                    Herranz                  del Toro                 F00000000          N
022015121289999000895011TIván                     Izquierdo                Peña                     M00000000          N
022015121289999000895012TJosé Luis                Montesinos               Ramón                    M00000000          N
022015121289999000895013TLuis Ignacio Balbino     Gómez                    Fernández                M00000000          N
022015121389999000551003TMaría Concepción         Machuca                  Armas                    F00000000          N
022015121389999000551004TPablo                    García                   Bolaños                  M00000000          N
022015121389999000551005TAntonio Ramón            Blanco                   Ramos                    M00000000          N
022015121389999000551006TCorina del Carmen        Carvajal                 Pérez                    F00000000          N
022015121389999000551007TMario                    Olivares                 Araña                    M00000000          N
022015121389999000674001TAna Mª                   Oramas                   González-Moro            F00000000          S
022015121389999000674002TCarlos E.                Alonso                   Rodríguez                M00000000          N
022015121389999000674003TJordi                    Pérez                    Camacho                  M00000000          N
022015121389999000674004TChristian                Méndez                   Benedetti                M00000000          N
022015121389999000674005TMª Aracely               Socas                    LLanos                   F00000000          N
022015121389999000674006TFelìpe David             Benítez                  Pérez                    M00000000          N
022015121389999000674007TMaría Isabel             Sicilia                  Martín                   F00000000          N
022015121389999000844001TAlberto                  Rodríguez                Rodríguez                M00000000          S
022015121389999000844002TCarmen Marina            Barreto                  Vargas                   F00000000          N
022015121389999000844003TIgnacio                  García                   Sanz                     M00000000          N
022015121389999000844004TLaura                    Fuentes                  Vega                     F00000000          N
022015121389999000844005TRodrigo                  Laiz                     García                   M00000000          N
022015121389999000844006TAna Gloria               Gallardo                 Mancebo                  F00000000          N
022015121389999000844007TSandra Magdalena         Lima                     Casañas                  F00000000          N
022015121389999000923001TPablo                    Matos                    Mascareño                M00000000          S
022015121389999000923002TMaría Elena              Álvarez                  Simón                    F00000000          S
022015121419999000900002TAna María                Cazallo                  Antúnez                  F00000000          N
022015121419999000900003TMateo Carmelo            García                   Lozano                   M00000000          N
022015121419999000900004TMaría Teresa             Alonso                   Pérez-Tinao              F00000000          N
022015121419999000900005TGuillermo                Ferrer                   Sánchez                  M00000000          N
022015121419999000900006TPatricia                 Vázquez                  Pérez                    F00000000          N
022015121419999000900007TLuis                     Limón                    Fernández                M00000000          N
022015121419999000900008TAmparo                   Hidalgo                  Pechamiel                F00000000          N
022015121419999000900009TPablo                    Rodríguez                Fernández                M00000000          N
022015121419999000900010TRaquel del Pilar         González                 Bolea                    F00000000          N
022015121419999000900011TMaría                    Ruíz                     Lora                     F00000000          N
022015121419999000900012TJuan Antonio             Peña                     Torres                   M00000000          N
022015121419999000952001TMiguel Ángel             Bustamante               Martín                   M00000000          N
022015121419999000952002TIsabel                   Pulido                   Marín                    F00000000          N
022015121419999000952003TJuan                     Clemente                 Sánchez                  M00000000          N
022015121419999000952004TIsabel                   Mora                     Toro                     F00000000          N
022015121419999000952005TFidel                    Romero                   Ruíz                     M00000000          N
022015121419999000952006TEncarnación              Núñez                    Jiménez                  F00000000          N
022015121419999000952007TSantiago                 Jiménez                  Torres                   M00000000          N
022015121419999000952008TFrancisca                Bejarano                 Albalá                   F00000000          N
022015121419999000952009TJosé                     Gallego                  Casaus                   M00000000          N
022015121419999000952010TMaría Antonia            Cuenca                   Ariza                    F00000000          N
022015121419999000952011TFrancisco Javier         Martínez                 Galán                    M00000000          N
022015121419999000952012TMaría Dolores            Rodríguez                Álvarez                  F00000000          N
022015121419999001109001TJosé                     Martínez                 León                     M00000000          N
022015121419999001109002TJessica                  Rodríguez                Souza                    F00000000          N
022015121419999001109003TAntonio                  Valiente                 Borrego                  M00000000          N
022015121419999001109004TCarlos                   Gómez                    Sutilo                   M00000000          N
022015121419999001109005TAna Josefa               Méndez                   Acosta                   F00000000          N
022015121419999001109006TIsmael                   Guillén                  Ortega                   M00000000          N
022015121419999001109007TAna                      Soto                     Torralbo                 F00000000          N
022015121419999001109008TJosé Carlos              Baena                    Rodríguez                M00000000          N
022015121419999001109009TJosé Gregorio            Martín                   Carrasquilla             M00000000          N
022015121419999001109010TMarina                   López                    del Prado                F00000000          N
022015121419999001109011TEnrique Ignacio          Margalef                 Cubillas                 M00000000          N
022015121419999001109012TPilar                    Navareño                 Mateos                   F00000000          N
022015121419999001192001TFrancisco Javier         Arias                    Carmona                  M00000000          N
022015121419999001192002TAntonio Luis             Marín                    Garzón                   M00000000          N
022015121419999001192003TGonzalo                  de las Heras             Díaz                     M00000000          N
022015121089999000425013TAlbert                   Peris                    i Miras                  M00000000          N
022015121089999000425014TM. Mercè                 Blanco                   i Ribas                  F00000000          N
022015121089999000425015TSílvia                   Garcia                   i Pacheco                F00000000          N
022015121089999000425016TAnaïs                    Sánchez                  i Figueras               F00000000          N
022015121089999000425017TMaria Del Carme          Ballesta                 i Galiana                F00000000          N
022015121089999000425018TOriol                    Lázaro                   i Llovera                M00000000          N
022015121089999000425019TJoan                     March                    i Naspleda               M00000000          N
022015121089999000425020TElena                    Medina                   i Rodríguez              F00000000          N
022015121089999000425021TEnric-Ernest             Munt                     i Gutierrez              M00000000          N
022015121089999000425022TM. Jesús                 Cucurull                 i Farré                  F00000000          N
022015121089999000425023TJordi Lluís              Bailach                  i Aspa                   M00000000          N
022015121089999000425024TEva                      Cordobés                 i Millán                 F00000000          N
022015121089999000425025TFrancisco                Martínez                 i Boluda                 M00000000          N
022015121089999000425026TJoaquim                  Ferrer                   i Franch                 M00000000          N
022015121089999000425027TJosep Maria              Bosch                    i Bessa                  M00000000          N
022015121089999000425028TCarmen                   Risueño                  i Villanueva             F00000000          N
022015121089999000425029TJose Maria               Faura                    i Messa                  M00000000          N
022015121089999000425030TMarta                    Llorens                  i Garcia                 F00000000          N
022015121089999000425031TAlfredo                  Pastor                   i Bodmer                 M00000000          N
022015121089999000438001TCarme                    Chacón                   Piqueras                 F00000000          S
022015121089999000438002TGermán                   Rodríguez                Sánchez                  M00000000          S
022015121089999000438003TMercè                    Perea                    Conillas                 F00000000          S
022015121089999000438004TJosé                     Zaragoza                 Alonso                   M00000000          S
022015121089999000438005TLídia                    Guinart                  Moreno                   F00000000          S
022015121089999000438006TMaurici                  Lucena                   i Betriu                 M00000000          N
022015121089999000438007TIsabel                   López                    Chamosa                  F00000000          N
022015121089999000438008TJoan                     Rangel                   Tarrés                   M00000000          N
022015121089999000438009TCarme                    Carmona                  Pascual                  F00000000          N
022015121089999000438010TArnau                    Ramírez                  Carner                   M00000000          N
022015121089999000438011TElia                     Tortolero                Orejuela                 F00000000          N
022015121089999000438012TGabriel                  Colomé                   i Garcia                 M00000000          N
022015121089999000438013TMeritxell                Cabezón                  Arbat                    F00000000          N
022015121089999000438014TJoan Lluis               Ruiz                     López                    M00000000          N
022015121089999000438015TNoemí                    Trucharte                Cervera                  F00000000          N
022015121089999000438016TJosep                    Paré                     Aregall                  M00000000          N
022015121089999000438017TMaria Pilar              Díaz                     López                    F00000000          N
022015121089999000438018TJuan Carlos              Corcuera                 Plaza                    M00000000          N
022015121089999000438019TElena                    Díaz                     Torrevejano              F00000000          N
022015121089999000438020TNicolás                  Cortés                   Rojano                   M00000000          N
022015121089999000438021TMarta                    Villanueva               Cendán                   F00000000          N
022015121089999000438022TMohammad                 Iqbal                    Chauhdry                 M00000000          N
022015121089999000438023TConcepción               Jiménez                  Cruz                     F00000000          N
022015121089999000438024TÓscar                    Mantilla                 Téllez                   M00000000          N
022015121089999000438025TEva María                Menor                    Cantador                 F00000000          N
022015121089999000438026TJordi                    Darocas                  Fonellosa                M00000000          N
022015121089999000438027TRosalía                  Monroy                   Sánchez                  F00000000          N
022015121089999000438028TRenato                   Marín                    López                    M00000000          N
022015121089999000438029TPatricia                 Román                    Martínez                 F00000000          N
022015121089999000438030TJosé María               García-Calvillo          Fernández                M00000000          N
022015121089999000438031TEulàlia                  Lluch                    Bramon                   F00000000          N
022015121089999000172001TAnaïs                    Arranz                   Mir                      F00000000          N
022015121089999000172002TC. Ana                   Bayle                    Garcia                   F00000000          N
022015121089999000172003TJavier                   Muñoz                    Aranda                   M00000000          N
022015121089999000172004TCristina                 García                   González                 F00000000          N
022015121089999000172005TJavier                   Clotet                   Juan                     M00000000          N
022015121089999000172006TMª Teresa                Martín                   Mínguez                  F00000000          N
022015121089999000172007TAurora                   Carrasco                 Peris                    F00000000          N
022015121089999000172008TMiguel                   García                   Argilés                  M00000000          N
022015121089999000172009TBlanca                   Pérez                    Uñó                      F00000000          N
022015121089999000172010TRaúl                     Ligero                   Sánchez                  M00000000          N
022015121089999000172011TElena                    Allué                    Tejerina                 F00000000          N
022015121089999000172012TMontserrat               Alcaraz                  Pitarque                 F00000000          N
022015121179999000568004TJOSÉ MANUEL              TORRES                   MENDOZA                  M00000000          N
022015121179999000568005TMARGARITA JESÚS          FLORES                   GONZÁLES                 F00000000          N
022015121179999000568006TJUAN CARLOS              SOUTO                    FERRO                    M00000000          N
022015121179999000588001TJORDI                    XUCLÀ                    i COSTA                  M00000000          S
022015121179999000588002TELENA                    RIBERA                   i GARIJO                 F00000000          S
022015121179999000588003TJORDI                    CORDON                   i PULIDO                 M00000000          N
022015121179999000588004TELISABET                 TERRADES                 i BOIX                   F00000000          N
022015121179999000588005TMARC                     CLAPAROLS                i FABRI                  M00000000          N
022015121179999000588006TGLÒRIA                   RIBAS                    i FRADERA                F00000000          N
022015121179999000837001TTERESA                   JORDÀ                    ROURA                    F00000000          S
022015121179999000837002TJOAN                     OLÒRIZ                   SERRA                    M00000000          S
022015121179999000837003TJOAN                     MARGALL                  SASTRE                   M00000000          N
022015121179999000837004TANA                      HINOJOSA                 VALENCIA                 F00000000          N
022015121179999000837005TSUSANNA                  PAGÈS                    JUTGLAR                  F00000000          N
022015121179999000837006TDAVID                    MASCORT                  SUBIRANAS                M00000000          N
022015121179999000938001TDOLORS                   TERRADAS                 i VIÑALS                 F00000000          S
022015121179999000938002TJOAN                     LUENGO                   i SALA                   M00000000          N
022015121179999000938003TMONTSERRAT               MOLINER                  i VICENT                 F00000000          N
022015121179999000938004TDOLORS                   RUBIO                    i CASTILLO               F00000000          N
022015121179999000938005TLLUÍS                    FLORES                   i TALAVERA               M00000000          N
022015121179999000938006TWILDER                   PALACIO                  i PINEDA                 M00000000          N
022015121179999001016001TJOAN                     SUREDA                   CASAMOR                  M00000000          N
022015121179999001016002TMARINA                   PUENTE                   MATAS                    F00000000          N
022015121179999001016003TESTEVE                   HUGUET                   PARDO                    M00000000          N
022015121179999001016004TTANIA                    NOTARIO                  CALURANO                 F00000000          N
022015121179999001016005TALEXANDRE                NIETO                    PUIG                     M00000000          N
022015121179999001016006TALBA                     BALLESTEROS              ZARZA                    F00000000          N
022015121179999000815001TFRANCESC SERGIO          IBAÑEZ                   LAFFORT                  M00000000          N
022015121179999000815002TFRANCISCA                CINTAS                   GONZÁLEZ                 F00000000          N
022015121179999000815003TJOSÉ RAMÓN               GARCÍA                   BREGANTE                 M00000000          N
022015121179999000815004TAMPARO                   MUÑIZ                    MATEO                    F00000000          N
022015121179999000815005TJORDI                    MURGADELLA               SOLÀ                     M00000000          N
022015121179999000815006TSANDRA                   MENOR                    VENTURA                  F00000000          N
022015121189999000140001TElvira                   Ramón                    Utrabo                   F00000000          S
022015121189999000140002TGregorio                 Cámara                   Villar                   M00000000          S
022015121189999000140003TAna Belén                Palomares                Bastida                  F00000000          N
022015121189999000140004TAlejandro José           Zubeldia                 Santoyo                  M00000000          N
022015121189999000140005TElena Cristina           Fernández                Peñafiel                 F00000000          N
022015121189999000140006TJosé                     Puerta                   Alarcón                  M00000000          N
022015121189999000140007TMercedes                 Martín                   Torres                   F00000000          N
022015121189999000122001TCarlos                   Rojas                    García                   M00000000          S
022015121189999000122002TSantiago                 Pérez                    López                    M00000000          S
022015121189999000122003TMaría de la Concepción   De Santa Ana             Fernández                F00000000          S
022015121189999000122004TPablo                    García                   Pérez                    M00000000          N
022015121189999000122005TTrinidad                 Herrera                  Lorente                  F00000000          N
022015121189999000122006TAna Belén                Garrido                  Ramírez                  F00000000          N
022015121189999000122007TFrancisco Joaquín        Camacho                  Borrego                  M00000000          N
022015121189999000155001TLuis Miguel              Salvador                 García                   M00000000          S
022015121189999000155002TMaría del Mar            Sánchez                  Muñoz                    F00000000          N
022015121189999000155003TJosé                     Romera                   López                    M00000000          N
022015121189999000155004TMaría Leticia            Ruiz                     Vílchez                  F00000000          N
022015121189999000155005TManuel                   Aguilera                 Fernández                M00000000          N
022015121189999000155006TMaría Dolores            Sánchez                  Álvarez                  F00000000          N
022015121189999000155007TManuel                   García                   González                 M00000000          N
022015121189999000124001TSergio                   Aranda                   Ruiz-Matas               M00000000          N
022015121189999000124002TMarina                   Orantes                  Pozo                     F00000000          N
022015121189999000124003TFrancisco José           Martínez                 Aguilar                  M00000000          N
022015121189999000124004TLaura                    Vílchez                  López                    F00000000          N
022015121189999000124005TJosé                     Gómez                    Urbaneja                 M00000000          N
022015121189999000124006TIsabel María             Fernández                Marín                    F00000000          N
022015121189999000124007TFrancisco Antonio        Martín                   Hersog                   M00000000          N
022015121189999000219001TCarlos                   Alba                     Raya                     M00000000          N
022015121289999000895014TPilar                    Mansilla                 Rodríguez                F00000000          N
022015121289999000895015TBenita Antonia           Martínez                 García                   F00000000          N
022015121289999000895016TFranciso                 Ramos                    Escobar                  M00000000          N
022015121289999000895017TPatrick                  Agut                     Klose                    M00000000          N
022015121289999000895018TLeonardo Esteban         Ravier                   Rodríguez                M00000000          N
022015121289999000895019TInmaculada               Guiu                     Parejo                   F00000000          N
022015121289999000895020TRegina                   Gordo                    Reyes                    F00000000          N
022015121289999000895021TMarcelino Javier         Cuesta                   García                   M00000000          N
022015121289999000895022TEmilio                   Vargas                   Martín-Torres            M00000000          N
022015121289999000895023TMariano                  Bas                      Uribe                    M00000000          N
022015121289999000895024TGema                     Izquierdo                Sanz                     F00000000          N
022015121289999000895025TNoelia Luisa             Núñez                    de Marcos                F00000000          N
022015121289999000895026TGuillermo Jacinto        Truchuelo                Rodrigo                  M00000000          N
022015121289999000895027TFrancisco                Muñoz                    Almarza                  M00000000          N
022015121289999000895028TAída                     Martín                   López                    F00000000          N
022015121289999000895029TRosario                  Romero                   Alcalde                  F00000000          N
022015121289999000895030TElena                    Andradas                 Montoro                  F00000000          N
022015121289999000895031TEduardo                  Martín                   Cabanas                  M00000000          N
022015121289999000895032TBeatriz                  Carrión                  Negrete                  F00000000          N
022015121289999000895033TMaría Elena              Monge                    Rello                    F00000000          N
022015121289999000895034TLuis                     Fernández                Platero                  M00000000          N
022015121289999000895035TDiego José               Ruiz                     Rincón                   M00000000          N
022015121289999000895036TJuan Manuel              Pina                     Mérida                   M00000000          N
022015121289999001362001TEDUARDO                  CORRALES                 MORENO                   M00000000          N
022015121289999001362002TJORGE                    VELAZQUEZ                MERINO                   M00000000          N
022015121289999001362003TMARINA                   GOMEZ                    GUTIERREZ                F00000000          N
022015121289999001362004TJAVIER                   MARTIN                   RODRIGUEZ                M00000000          N
022015121289999001362005TBLANCA ESTHER            RIVAS                    GONZALEZ                 F00000000          N
022015121289999001362006TCLARA ISABEL             URBAN                    MARTIN                   F00000000          N
022015121289999001362007TEDUARDO                  VECINO                   VILLA                    M00000000          N
022015121289999001362008TJAVIER                   MARTORELL                NIEVES                   M00000000          N
022015121289999001362009TSERGIO                   CAMEO                    PEREZ                    M00000000          N
022015121289999001362010TMARIA TERESA             RODRIGUEZ                CELADOR                  F00000000          N
022015121289999001362011TVICTOR MANUEL            LUCAS                    RANZ                     M00000000          N
022015121289999001362012TVICTOR                   MORENO                   SAINERO                  M00000000          N
022015121289999001362013TCARMEN AINOA             MARTINEZ                 CUERVO                   F00000000          N
022015121289999001362014TMELQUIADES               JIMENEZ                  VICENTE                  M00000000          N
022015121289999001362015TESTEFANIA                SALGADO                  NIETO                    F00000000          N
022015121289999001362016TALEJANDRO                SANZ                     GREGORIO                 M00000000          N
022015121289999001362017TROBERTO                  GUIJARRO                 LOPEZ                    M00000000          N
022015121289999001362018TROCIO                    MONTILLA                 MOYA                     F00000000          N
022015121289999001362019TLUIS MIGUEL              SANCHEZ                  GONZALEZ                 M00000000          N
022015121289999001362020TRAQUEL                   TORAL                    SANCHEZ                  F00000000          N
022015121289999001362021TDAVID ALEJANDRO          DELGADO                  GARCIA                   M00000000          N
022015121289999001362022TRAMON                    TISCAR                   MARIN                    M00000000          N
022015121289999001362023TINES                     MARTIN                   FERNANDEZ                F00000000          N
022015121289999001362024TPEDRO                    FERNANDEZ                GARCIA                   M00000000          N
022015121289999001362025TOLVIDO                   INGUANZO                 INGUANZO                 F00000000          N
022015121289999001362026TDAVID                    MARTINEZ                 SERRANO                  M00000000          N
022015121289999001362027TMIGUEL                   COELLO                   ARCE                     M00000000          N
022015121289999001362028TJAVIER                   PALACIO                  MONTES                   M00000000          N
022015121289999001362029TMARIA MERCEDES           ROLDAN                   LUCENO                   F00000000          N
022015121289999001362030TLAURA                    GARCIA                   GARCIA                   F00000000          N
022015121289999001362031THUGO                     CARRASCO                 GONZALEZ                 M00000000          N
022015121289999001362032THELGA                    FERNANDEZ                LLAMOSAS                 F00000000          N
022015121289999001362033TDAVID                    PARRALEJO                MANZANO                  M00000000          N
022015121289999001362034TJUAN ANTONIO             DIEGUEZ                  MARTIN                   M00000000          N
022015121289999001362035TCARMEN                   REBOLLO                  RODRIGUEZ                F00000000          N
022015121289999001362036TLIVIA                    SUÁREZ                   PASCA                    F00000000          N
022015121419999001192004TEncarnación              García                   Manzano                  F00000000          N
022015121419999001192005TMaría del Carmen         Belmonte                 Núñez                    F00000000          N
022015121419999001192006TÁlvaro                   Perea                    Delgado                  M00000000          N
022015121419999001192007TMiguel                   Molina                   Guillén                  M00000000          N
022015121419999001192008TMaría Esther             Bendala                  Pavón                    F00000000          N
022015121419999001192009TIsabel                   Méndez                   Franco                   F00000000          N
022015121419999001192010TAna María                López                    Delgado                  F00000000          N
022015121419999001192011TJoaquín                  García                   Martín                   M00000000          N
022015121419999001192012TMaría Ángeles            Fernández                Galán                    F00000000          N
022015121419999001367001TJosé David               Díaz                     Fernández                M00000000          N
022015121419999001367002TFrancisco Javier         Morillo-Velarde          Gallego                  M00000000          N
022015121419999001367003TJosé                     Baldaraque               Benítez                  M00000000          N
022015121419999001367004TAntonia                  de Dios                  Jurado                   F00000000          N
022015121419999001367005TMaría Peña               Claros                   Moreno                   F00000000          N
022015121419999001367006TFernando                 Roldán                   Cadena                   M00000000          N
022015121419999001367007TFrancisco Jesús          Cabello                  González                 M00000000          N
022015121419999001367008TAntonio                  Martín                   Collado                  M00000000          N
022015121419999001367009TMagdalena                Rodríguez                Hidalgo                  F00000000          N
022015121419999001367010TMaría Dolores            García                   Otero                    F00000000          N
022015121419999001367011TGracia                   Collado                  Montanero                F00000000          N
022015121419999001367012TJacobo                   Ruiz                     Rodríguez                M00000000          N
022015121429999000221001TJesús María              Posada                   Moreno                   M00000000          S
022015121429999000221002TAdelina Lucía            Gil                      Rampérez                 F00000000          N
022015121429999000227001TJavier                   Antón                    Cacho                    M00000000          S
022015121429999000227002TRosa                     Romero                   Amaya                    F00000000          N
022015121429999000291001TJosé Luis                Alonso                   Sanz                     M00000000          N
022015121429999000291002TMaría Belén              Redondo                  Ortiz                    F00000000          N
022015121429999000296001TClaudia                  Mañas                    Huete                    F00000000          N
022015121429999000296002TJosé Antonio             Santos                   Pérez                    M00000000          N
022015121429999000531001TÁngel Alberto            Flores                   Gaitán                   M00000000          N
022015121429999000531002TEva                      Vera                     Delgado                  F00000000          N
022015121429999000600001TManuela                  Ruiz                     Martínez                 F00000000          N
022015121429999000600002TCelio Nicanor            Espejo                   Suin                     M00000000          N
022015121429999001019001TCarmelo                  Romero                   Salvador                 M00000000          N
022015121429999001019002TLeonor Andrea            Lahoz                    Goig                     F00000000          N
022015121429999001054001TAndrés                   Fontán                   Zarralanga               M00000000          N
022015121429999001054002TRebeca                   Álvarez                  Fernández                F00000000          N
022015121429999001064001TIgnacio                  Alejo                    Torres                   M00000000          N
022015121429999001064002TMaría de los Dolores     Soto                     Pérez                    F00000000          N
022015121429999001137001TCristina                 Llorente                 Millán                   F00000000          N
022015121429999001137002TJuan José                Foix                     Guerra                   M00000000          N
022015121439999000345001TMartí                    Barberà                  i Montserrat             M00000000          N
022015121439999000345002TJoan Maria               Sardà                    i Padrell                M00000000          N
022015121439999000345003TMarta                    Borràs                   i Donato                 F00000000          N
022015121439999000345004TRosa Maria               Cid                      i Garcia                 F00000000          N
022015121439999000345005TJoan Maria               Ventosa                  i Rodón                  M00000000          N
022015121439999000345006TLaura                    Montané                  i Esquirol               F00000000          N
022015121439999000357001TSergio                   del Campo                Estaún                   M00000000          S
022015121439999000357002TJosé Antonio             Quesada                  Martínez                 M00000000          N
022015121439999000357003TVicente                  Castillo                 Molina                   M00000000          N
022015121439999000357004TJosefa                   Méndez                   Higuero                  F00000000          N
022015121439999000357005TMaria Luz                Ramírez                  Mancha                   F00000000          N
022015121439999000357006TMary Carmen              Fernández                Fernández                F00000000          N
022015121439999000362001TJoan                     Ruiz                     i Carbonell              M00000000          S
022015121439999000362002TDiana                    Salvadó                  Artells                  F00000000          N
022015121439999000362003TVíctor                   Alcoverro                Albesa                   M00000000          N
022015121439999000362004TTeresa                   Esmel                    Casanova                 F00000000          N
022015121439999000362005TAlfons                   Ribas                    Pérez                    M00000000          N
022015121439999000362006TSofia                    Acosta                   Belles                   F00000000          N
022015121089999000172013TMónica Soledad           Álvarez                  Cónsul                   F00000000          N
022015121089999000172014TSalvador                 Jodar                    Rivas                    M00000000          N
022015121089999000172015TJuan Carlos              Besoli                   García                   M00000000          N
022015121089999000172016TGemma                    Visent                   Bueso                    F00000000          N
022015121089999000172017TMª Elisa                 López-Mateos             Moreno                   F00000000          N
022015121089999000172018TEdita                    Olaizola                 Fernández                F00000000          N
022015121089999000172019TAlejandro                Ceruelo                  Delgado                  M00000000          N
022015121089999000172020TAgustín                  Jurado                   Jiménez                  M00000000          N
022015121089999000172021TSolagne Ivana            Núñez                    Sienra                   F00000000          N
022015121089999000172022TAnna                     Vila                     Miret                    F00000000          N
022015121089999000172023TEulàlia                  Llobet                   Sales                    F00000000          N
022015121089999000172024TJuan Carlos              Villar                   Moreno                   M00000000          N
022015121089999000172025TIván                     Salichs                  Sancho                   M00000000          N
022015121089999000172026TMontserrat               Campos                   Cuenca                   F00000000          N
022015121089999000172027TConcepción               Dempere                  Llinás                   F00000000          N
022015121089999000172028TJuan José                Corres                   Orué                     M00000000          N
022015121089999000172029TManuel                   Almagro                  Torres                   M00000000          N
022015121089999000172030TEva                      Perez                    Ríos                     F00000000          N
022015121089999000172031TMiguel                   Foraster                 Serra                    M00000000          N
022015121089999000173001TGabriel                  Rufián                   i Romero                 M00000000          S
022015121089999000173002TJoan                     Tardà                    i Coma                   M00000000          S
022015121089999000173003TEster                    Capella                  i Farré                  F00000000          S
022015121089999000173004TAna María                Surra                    i Spadea                 F00000000          S
022015121089999000173005TJoan                     Capdevila                i Esteve                 M00000000          S
022015121089999000173006TMirella                  Cortès                   i Gès                    F00000000          N
022015121089999000173007TXavier                   Roger                    i Anglada                M00000000          N
022015121089999000173008TJosep Manuel             Bueno                    i Martínez               M00000000          N
022015121089999000173009TAndreu                   Francisco                i Roger                  M00000000          N
022015121089999000173010TPaloma                   Tevar                    i Poyato                 F00000000          N
022015121089999000173011TÈric                     Gómez                    i Pérez                  M00000000          N
022015121089999000173012TMeritxell                Benedí                   i Altés                  F00000000          N
022015121089999000173013TAntoni                   Sisternas                i Sànchez                M00000000          N
022015121089999000173014TMartí                    Fortuny                  i Planas                 M00000000          N
022015121089999000173015TGlòria                   Llobet                   i Torres                 F00000000          N
022015121089999000173016TDavid                    Prat                     i Jorba                  M00000000          N
022015121089999000173017TEster                    Pérez                    i Massana                F00000000          N
022015121089999000173018TPilar                    Pérez                    i Bautista               F00000000          N
022015121089999000173019TCarles                   Ruiz                     i Feltrer                M00000000          N
022015121089999000173020TMeritxell                Humbert                  i Figueras               F00000000          N
022015121089999000173021TIrina                    Moreno                   i Martí                  F00000000          N
022015121089999000173022TAntoni                   Masana                   i Ubach                  M00000000          N
022015121089999000173023TJosep Domènec            Meseguer                 i Garcia                 M00000000          N
022015121089999000173024TTeresa                   Sánchez                  i Barrocal               F00000000          N
022015121089999000173025TMontserrat               Lara                     i Lara                   F00000000          N
022015121089999000173026TAndreu                   Bosch                    i Rodoreda               M00000000          N
022015121089999000173027TLluís                    Mombiela                 i Carrera                M00000000          N
022015121089999000173028TOriol                    Ortega                   i Tous                   M00000000          N
022015121089999000173029TRosa                     Altimiras                i Rovira                 F00000000          N
022015121089999000173030TTeresa                   Garcerà                  i Piquer                 F00000000          N
022015121089999000173031TIsidre                   Mateu                    i Sabater                M00000000          N
022015121089999000174001TJorge                    Fernández                Díaz                     M00000000          S
022015121089999000174002TJorge                    Moragas                  Sánchez                  M00000000          S
022015121089999000174003TAlicia                   Sánchez-Camacho          Pérez                    F00000000          S
022015121089999000174004TDolors                   Montserrat               Montserrat               F00000000          S
022015121089999000174005TMª Ángeles               Esteller                 Ruedas                   F00000000          N
022015121089999000174006TManuel                   Reyes                    López                    M00000000          N
022015121089999000174007TDaniel                   Serrano                  Coronado                 M00000000          N
022015121089999000174008TConsuelo                 Santos                   Neyra                    F00000000          N
022015121089999000174009TManuel                   Gallardo                 Martínez                 M00000000          N
022015121089999000174010TGloria                   Saez                     Villar                   F00000000          N
022015121089999000174011TMª Jesús                 Hervás                   Minguez "Maritxu"        F00000000          N
022015121089999000174012TJavier                   Barreña                  Flores                   M00000000          N
022015121089999000174013TJosé Luís                Calzada                  Olmedo                   M00000000          N
022015121189999000219002TNuria                    Molina                   Garzón                   F00000000          N
022015121189999000219003TFrancisco Jesús          Guerrero                 Ibáñez                   M00000000          N
022015121189999000219004TNuria María              Mendoza                  Payán                    F00000000          N
022015121189999000219005TMaría Elena              Gutiérrez                Cortacero                F00000000          N
022015121189999000219006TRafael                   Vázquez                  García                   M00000000          N
022015121189999000219007TNatalia                  Moreno                   Gómez                    F00000000          N
022015121189999000448001TFernando María           Gracia                   Climent                  M00000000          N
022015121189999000448002TJuan Manuel              García                   Gonzalo                  M00000000          N
022015121189999000448003TNuria                    Martínez                 Chicón                   F00000000          N
022015121189999000448004TMaría Laura              López                    Quintas                  F00000000          N
022015121189999000448005TCarlos María             González                 Martín                   M00000000          N
022015121189999000448006TMaría Inmaculada         Arredondo                Ruiz                     F00000000          N
022015121189999000448007TIsidro                   Poyatos                  Molero                   M00000000          N
022015121189999001179001TAna Belén                Terrón                   Berbel                   F00000000          S
022015121189999001179002TLeticia                  García                   Panal                    F00000000          N
022015121189999001179003TNestor                   Salvador                 Galindo                  M00000000          N
022015121189999001179004TMaría Trinidad           Montes                   Martín                   F00000000          N
022015121189999001179005TPedro Antonio            Honrubia                 Hurtado                  M00000000          N
022015121189999001179006TMaría Esther             Salcedo                  Castro                   F00000000          N
022015121189999001179007TDavid                    Sánchez                  Chaves                   M00000000          N
022015121189999001245001TMaría Loreto             García-Valdecasas        Nogales                  F00000000          N
022015121189999001245002TAntonio Francisco        Quirós                   Roldán                   M00000000          N
022015121189999001245003TJosé Luis                Evangelista              Martín                   M00000000          N
022015121189999001245004TCarlos                   García                   Pérez                    M00000000          N
022015121189999001245005TOlga                     Sánchez                  García                   F00000000          N
022015121189999001245006TGustavo                  De Castro                Sierra                   M00000000          N
022015121189999001245007TMaría Montserrat         Martín                   Cabeo                    F00000000          N
022015121189999001263001TVioleta                  Tercedor                 López                    F00000000          N
022015121189999001263002TJosé                     Morillas                 López                    M00000000          N
022015121189999001263003TMiguel Ángel             Avilés                   Tamayo                   M00000000          N
022015121189999001263004TMarta                    Cortés                   Martínez                 F00000000          N
022015121189999001263005TJesús                    López                    Gázquez                  M00000000          N
022015121189999001263006TJulio                    Ruano                    García                   M00000000          N
022015121189999001263007TMaría Dolores            Minuesa                  Soria                    F00000000          N
022015121189999001333001TDiego                    Castillo                 Caballero                M00000000          N
022015121189999001333002TMaría Amparo             Quirantes                Blanco                   F00000000          N
022015121189999001333003TLuis                     Cotarelo                 Álvarez                  M00000000          N
022015121189999001333004TNoelia                   Pérez                    Alameda                  F00000000          N
022015121189999001333005TJesús                    Fernández                Martín                   M00000000          N
022015121189999001333006TMaría Teresa             Molina                   Navarro                  F00000000          N
022015121189999001333007TAlejandro                Quesada                  Solana                   M00000000          N
022015121189999001369001TJuan                     Burgos                   Ruiz                     M00000000          N
022015121189999001369002TDavid Andrés             Casasola                 Arrobo                   M00000000          N
022015121189999001369003TMaría Noelia             Barea                    Gutiérrez                F00000000          N
022015121189999001369004TIrene                    Estepa                   Galindo                  F00000000          N
022015121189999001369005TRafael Alejandro         Rodríguez                Gómez                    M00000000          N
022015121189999001369006TBeatriz                  Estévez                  García                   F00000000          N
022015121189999001369007TJuan Félix               Muñoz                    Sánchez                  M00000000          N
022015121199999000243001TSilvia                   Valmaña                  Ochaíta                  F00000000          S
022015121199999000243002TRamón                    Aguirre                  Rodríguez                M00000000          N
022015121199999000243003TAlfonso                  Esteban                  Señor                    M00000000          N
022015121199999000228001TOrlena María             Miguel                   Muñoz                    F00000000          S
022015121199999000228002TAntonio José             De Lamo                  Villar                   M00000000          N
022015121199999000228003TCarlos                   Morales                  Mena                     M00000000          N
022015121199999000233001TMaría Luz                Rodríguez                Fernández                F00000000          S
022015121199999000233002TIgnacio José             Andarias                 Moriñigo                 M00000000          N
022015121199999000233003TMaría Susana             Alcalde                  Adeva                    F00000000          N
022015121199999000237001TLorena                   Vargas                   Tortosa                  F00000000          N
022015121199999000237002TSusana                   Barrios                  García                   F00000000          N
022015121289999001271001TSantiago                 Abascal                  Conde                    M00000000          N
022015121289999001271002TRocio                    Monasterio               San Martin               F00000000          N
022015121289999001271003TFrancisco Jose           Contreras                Pelaez                   M00000000          N
022015121289999001271004TInmaculada               Sequi                    Serrano                  F00000000          N
022015121289999001271005TRaad                     Salam                    Naaman                   M00000000          N
022015121289999001271006TMazaly                   Aguilar                                           F00000000          N
022015121289999001271007TMaria Jesus              Gonzalez                 Fueyo                    F00000000          N
022015121289999001271008TVictor Manuel            Sanchez                  Del Real                 M00000000          N
022015121289999001271009TMaria De La Cabeza       Ruiz                     Solas                    F00000000          N
022015121289999001271010TJose Maria               Figaredo                 Alvarez-sala             M00000000          N
022015121289999001271011TAlicia Veronica          Rubio                    Calle                    F00000000          N
022015121289999001271012TJuan Ignacio             Minguez                  Martinez                 M00000000          N
022015121289999001271013TGema Pilar               Herrero                  Monroy                   F00000000          N
022015121289999001271014TJose Enrique             Garza                    Grau                     M00000000          N
022015121289999001271015TMaria Victoria           Bocanegra                Buisan                   F00000000          N
022015121289999001271016TAntonio                  De Miguel                Anton                    M00000000          N
022015121289999001271017TMaria Luisa              Bueno                    Gomez                    F00000000          N
022015121289999001271018TFrancisco Javier         Garcia                   Martin                   M00000000          N
022015121289999001271019TAna Belen                Ayuso                    Galisteo                 F00000000          N
022015121289999001271020TJesus Carlos             Riosalido                Gambotti                 M00000000          N
022015121289999001271021TMaria Luz                Viniegra                 Garcia                   F00000000          N
022015121289999001271022TJavier Cipriano          Viviente                 Sole                     M00000000          N
022015121289999001271023TElena Beatriz            Navarro                  Garcia                   F00000000          N
022015121289999001271024TDonato Francisco Javier  Barba                    Prieto                   M00000000          N
022015121289999001271025TLucia                    Rodriguez-gilgado        De Tena                  F00000000          N
022015121289999001271026TIgnacio                  Vazquez                  Bauer                    M00000000          N
022015121289999001271027TMaria Inmaculada         Lozano                   Reinoso                  F00000000          N
022015121289999001271028TAngel                    Serrano                  Escabias                 M00000000          N
022015121289999001271029TCovadonga                Fernandez-jardon         Vassallo                 F00000000          N
022015121289999001271030TJuan Luis                Jara                     Delgado                  M00000000          N
022015121289999001271031TMaria Almudena           Molinuevo                Sauca                    F00000000          N
022015121289999001271032TFernando                 Anaya                    Garcia                   M00000000          N
022015121289999001271033TMaria Concepcion         Molinuevo                Sauca                    F00000000          N
022015121259999000581004TNuria Montserrat         Guitián                  Sánchez                  F00000000          N
022015121259999000668001TÓscar                    Uceda                    Márquez                  M00000000          N
022015121259999000668002TSergio                   Casanova                 Ramírez                  M00000000          N
022015121259999000668003TSofia                    Molinero                 Alvarez                  F00000000          N
022015121259999000668004TCristina                 Daza                     Requena                  F00000000          N
022015121259999000762001TAntoni                   Postius                  Terrado                  M00000000          S
022015121259999000762002TRamon                    Royes                    Guàrdia                  M00000000          N
022015121259999000762003TJeannine                 Abella                   Chica                    F00000000          N
022015121259999000762004TMariona                  Balasch                  Fusté                    F00000000          N
022015121259999000831001TPedro                    Menchón                  Bernabé                  M00000000          N
022015121259999000831002TMahmoud                  Abdelli                  Quelhazi                 M00000000          N
022015121259999000831003TElena                    Perdiguero               Teruel                   F00000000          N
022015121259999000831004TMaria del Pilar          Crespo                   Muñoz                    F00000000          N
022015121259999000937001TJaume                    Moya                     Matas                    M00000000          S
022015121259999000937002TVictoria                 Pacheco                  Moreno                   F00000000          N
022015121259999000937003TEduard                   Puigpelat                Rodríguez                M00000000          N
022015121259999000937004TLaia                     Martí                    Cacho                    F00000000          N
022015121259999001136001TJosep Maria              Baró                     i Paris                  M00000000          N
022015121259999001136002TMaria Sogues             Mateu                    Navés                    F00000000          N
022015121259999001136003TManel                    Dueñas                   Triguero                 M00000000          N
022015121259999001136004TMaria Mercè              Escudé                   Sicart                   F00000000          N
022015121259999001348001TJesús                    Ler                      González                 M00000000          N
022015121259999001348002TManuela                  Asto                     Roldán                   F00000000          N
022015121259999001348003TAlfredo                  Palacin                  Cambra                   M00000000          N
022015121259999001348004TNieves                   Ruíz                     Balaguera                F00000000          N
022015121279999000436001TJoaquín María            García                   Díez                     M00000000          S
022015121439999001384001TJordi                    Salvador                 i Duch                   M00000000          S
022015121439999001384002TJosep Maria              Pallàs                   i Guasch                 M00000000          N
022015121439999001384003TMaria del Carme          Navarro                  i Balada                 F00000000          N
022015121439999001384004TLluís                    Navarrete                i García                 M00000000          N
022015121439999001384005TAnna                     Chillida                 i Fibla                  F00000000          N
022015121439999001384006TMuntsa                   Cabetas                  i Samper                 F00000000          N
022015121439999000368001TJordi                    Roca                     Mas                      M00000000          S
022015121439999000368002TJuan                     Bertomeu                 Bertomeu                 M00000000          N
022015121439999000368003TSilvia                   Pujol                    Garcia                   F00000000          N
022015121439999000368004TFrancisco                Ripoll                   Roig                     M00000000          N
022015121439999000368005TMaria                    Borràs                   Fernandez                F00000000          N
022015121439999000368006TAna Isabel               Rubio                    Garcia                   F00000000          N
022015121439999000642001TÁngel                    Martín                   Sánchez                  M00000000          N
022015121439999000642002TMercè                    Azcona                   Casas                    F00000000          N
022015121439999000642003TSamuel                   Álvarez                  Freire                   M00000000          N
022015121439999000642004TAlexia                   Fernández                Rodríguez                F00000000          N
022015121439999000642005TIván                     Pérez                    Aragón                   M00000000          N
022015121439999000642006TMiriam                   Acosta                   López                    F00000000          N
022015121439999000658001TAndrés                   Peñalver                 Bernardo                 M00000000          N
022015121439999000658002TMaría Victoria           Sánchez                  Monjo                    F00000000          N
022015121439999000658003TBernardo                 Palmas                   Bernard                  M00000000          N
022015121439999000658004TRosario                  Garcia                   Gutierrez                F00000000          N
022015121439999000658005TRaúl Faustino            Parada                   Gascón                   M00000000          N
022015121439999000658006TRosario                  Belizón                  Aleu                     F00000000          N
022015121439999001387001TRut                      Clemente                 Martín                   F00000000          N
022015121439999001387002TJosé Luis                Villacampa               Val                      M00000000          N
022015121439999001387003TMª Carmen                López                    Ruiz                     F00000000          N
022015121439999001387004TRafael                   Mateu                    Díaz                     M00000000          N
022015121439999001387005TMaría Florentina         Artime                   Vega                     F00000000          N
022015121439999001387006TJoan Francesc            Martínez                 Ten                      M00000000          N
022015121439999000928001TAlberto                  Blázquez                 Torres                   M00000000          N
022015121439999000928002TLlibertat                Ferré                    Iranzo                   F00000000          N
022015121439999000928003TCesar                    del Valle                Bautista                 M00000000          N
022015121439999000928004TSamira                   El Haouass               Berdie                   F00000000          N
022015121439999000928005TAlbert                   Santín                   Curto                    M00000000          N
022015121439999000928006TMaría del Carmen         Beltri                   García                   F00000000          N
022015121439999000961001TJosep Lluís              Calabuig                 Pastor                   M00000000          N
022015121439999000961002TErnest                   Torrellas                Sanz                     M00000000          N
022015121439999000961003TMaria Dolors             Manso                    de Haro                  F00000000          N
022015121439999000961004TIvan                     Castells                 Iglesias                 M00000000          N
022015121439999000961005TMaite                    Vidal                    Vives                    F00000000          N
022015121439999000961006TGuillermina              Bravo                    López                    F00000000          N
022015121439999001389001TFerran                   Bel                      Accensi                  M00000000          S
022015121439999001389002TM. Mercè                 Dalmau                   Mallafré                 F00000000          N
022015121439999001389003TMar                      Vázquez                  Oliveros                 F00000000          N
022015121439999001389004TJoan                     Güell                    Serra                    M00000000          N
022015121439999001389005TOriol                    Vázquez                  Tarrida                  M00000000          N
022015121439999001389006TNúria                    Balagué                  Raga                     F00000000          N
022015121439999001363001TFelix                    Alonso                   Cantornè                 M00000000          S
022015121439999001363002TYolanda                  López                    Fernández                F00000000          N
022015121439999001363003TDavid                    Jarque                   Abad                     M00000000          N
022015121439999001363004TMaria Isabel             Bou                      Bayona                   F00000000          N
022015121439999001363005TJosé Vicente             Pruñonosa                Reverter                 M00000000          N
022015121439999001363006TMaria Argaño             Sentís                   Mate                     F00000000          N
022015121449999000045001TMANUEL                   BLASCO                   MARQUES                  M00000000          S
022015121449999000045002TJOSE ALBERTO             HERRERO                  BONO                     M00000000          S
022015121449999000045003TOLGA                     SANCHEZ                  SANCHEZ                  F00000000          N
022015121449999000054001TIGNACIO                  URQUIZU                  SANCHO                   M00000000          S
022015121449999000054002TSILVIA INES              GIMENO                   GASCON                   F00000000          N
022015121449999000054003TCARLOS                   CASARES                  IGUAL                    M00000000          N
022015121089999000174014TÁlvaro                   Benejam                  Pereto                   M00000000          N
022015121089999000174015TAlicia                   Richart                  Ramon                    F00000000          N
022015121089999000174016TElisabet                 Ortega                   Robles                   F00000000          N
022015121089999000174017TEster                    Sevilla                  Roselló                  F00000000          N
022015121089999000174018TJuan                     Fernández                Benítez                  M00000000          N
022015121089999000174019TJuan Antonio             López                    Noguera                  M00000000          N
022015121089999000174020TMiriam                   Casanova                 Doménech                 F00000000          N
022015121089999000174021TJoan                     Agramunt                 Seuba                    M00000000          N
022015121089999000174022TMarta                    Giménez                  Arcusa                   F00000000          N
022015121089999000174023TSusana                   Calvo                    Casadesús                F00000000          N
022015121089999000174024TJuan Luís                Sistac                   Vicen                    M00000000          N
022015121089999000174025TJonatan                  Cobo                     Ortega                   M00000000          N
022015121089999000174026TCarles                   Jiménez                  Morera                   M00000000          N
022015121089999000174027TSonia                    Esplugas                 González                 F00000000          N
022015121089999000174028TAntonio                  Molina                   Melero                   M00000000          N
022015121089999000174029TEugènia                  Ávila                    Correas                  F00000000          N
022015121089999000174030TManuel                   Buenaño                  García                   M00000000          N
022015121089999000174031TXavier                   García                   Albiol                   M00000000          N
022015121089999000441001TJuan Carlos              Girauta                  Vidal                    M00000000          S
022015121089999000441002TAntonio                  Roldan                   Mones                    M00000000          S
022015121089999000441003TElena                    Faba                     De La Encarnación        F00000000          S
022015121089999000441004TJose Manuel              Villegas                 Pérez                    M00000000          S
022015121089999000441005TNuria Maria              González-Saenz           Casas                    M00000000          N
022015121089999000441006TJuan Ignacio             Fuster-Fabra             Toapanta                 M00000000          N
022015121089999000441007TMaria Julia              Calonge                  Coch                     F00000000          N
022015121089999000441008TFrancisco                Andres                   Perez                    M00000000          N
022015121089999000441009TCarolina                 Torres                   Garcia                   F00000000          N
022015121089999000441010TRaul                     Gonzalez                 Fuentes                  M00000000          N
022015121089999000441011TMiguel                   García                   Del Valle                M00000000          N
022015121089999000441012TManuel                   Losada                   Seivane                  M00000000          N
022015121089999000441013TDolores                  Agenjo                   Recuero                  F00000000          N
022015121089999000441014TSusana                   Alonso                   Ortiz                    F00000000          N
022015121089999000441015TJorge                    García                   Mulet                    M00000000          N
022015121089999000441016TAngel                    Guillén                  Deu                      M00000000          N
022015121089999000441017TSonia                    Sanchez                  Ponce                    F00000000          N
022015121089999000441018TDimas                    Gragera                  Velaz                    M00000000          N
022015121089999000441019TNatividad                Sanjurjo                 Golpe                    F00000000          N
022015121089999000441020TJuan                     Diaz                     Delgado                  M00000000          N
022015121089999000441021TJulia Victoria           Juan                     Gimeno                   F00000000          N
022015121089999000441022TEsther                   Martinez                 Marti                    F00000000          N
022015121089999000441023TGerman                   Prado                    Perez                    M00000000          N
022015121089999000441024TNicolas                  Ortiz                    Cuevas                   M00000000          N
022015121089999000441025TJose Luis                Cerro                    Fernandez                M00000000          N
022015121089999000441026TMaria Del Socorro        Mendez                   Lopez                    F00000000          N
022015121089999000441027TDavid                    Aguinaga                 Abad                     M00000000          N
022015121089999000441028TCristina                 Claret                   Fernández                F00000000          N
022015121089999000441029TIsabel                   Garcia                   Bejarano                 F00000000          N
022015121089999000441030TJose Luis                Fernández                Diaz                     M00000000          N
022015121089999000441031TPaloma                   Jimenez De Parga         Maseda                   F00000000          N
022015121089999001008001TFerran                   Nieto                    Gasull                   M00000000          N
022015121089999001008002TGlòria                   Marrugat                 Domènech                 F00000000          N
022015121089999001008003TMiguel                   Guerrero                 Sánchez                  M00000000          N
022015121089999001008004TMaría Teresa             Barrionuevo              Altube                   F00000000          N
022015121089999001008005TFrancisco                Aguilera                 Ruano                    M00000000          N
022015121089999001008006TMáximo                   Luna                     Luna                     M00000000          N
022015121089999001008007TAna María                González                 García                   F00000000          N
022015121089999001008008TAlejandro                De La Fuente             García                   M00000000          N
022015121089999001008009TMaría Esther             Díaz                     Cruz                     F00000000          N
022015121089999001008010TManuel                   Mora                     Porras                   M00000000          N
022015121089999001008011TRamón                    Vidal                    Miras                    M00000000          N
022015121089999001008012TMaría Lourdes            Cortina                  Blanca                   F00000000          N
022015121199999000237003TDavid                    Rubio                    Fernández                M00000000          N
022015121199999000639001TAriel Ernesto            Jerez                    Novara                   M00000000          N
022015121199999000639002TMarta Elena              Miranda                  Muñoz                    F00000000          N
022015121199999000639003TÁngel Jesús              Andrés                   Lafuente                 M00000000          N
022015121199999000712001TJuan Rafael              Moreno                   Gordillo                 M00000000          N
022015121199999000712002TMiguel Ángel             Sánchez                  Sánchez                  M00000000          N
022015121199999000712003TGloria                   Calvo                    Santos-García            F00000000          N
022015121199999000708001TPablo                    Michelena                De Vera                  M00000000          N
022015121199999000708002TMarta                    Del Olmo                 Martínez                 F00000000          N
022015121199999000708003TSantiago                 Cuesta                   Sanz                     M00000000          N
022015121199999000816001TDomingo                  Alcázar                  Martínez                 M00000000          N
022015121199999000816002TMaría Del Carmen         Sánchez                  Gómez                    F00000000          N
022015121199999000816003TCarlos                   Rodríguez                De la Rosa               M00000000          N
022015121199999001166001TMónica                   Prieto                   Vidal                    F00000000          N
022015121199999001166002TJesús                    García                   Trapiello                M00000000          N
022015121199999001166003TMelissa Judith           García                   Chavarria                F00000000          N
022015121199999001261001TInemoha                  González                 Calero                   F00000000          N
022015121199999001261002TTeresa                   Hernández                López                    F00000000          N
022015121199999001261003TCarlos Alberto           Marqués                  Moya                     M00000000          N
022015121219999000501001TJosé Juan                Díaz                     Trillo                   M00000000          S
022015121219999000501002TJosefa Inmaculada        González                 Bayo                     F00000000          S
022015121219999000501003TManuel Jesús             Domínguez                Limón                    M00000000          N
022015121219999000501004TRocío                    Rodríguez                González                 F00000000          N
022015121219999000501005TDaniel                   Carrasco                 Iglesias                 M00000000          N
022015121219999000627001TInés                     Aulló                    Pérez                    F00000000          N
022015121219999000627002TFrancisco José           Mulet                    Ferrer                   M00000000          N
022015121219999000627003TMaría Dolores            Fernández                Avanthay                 F00000000          N
022015121219999000627004TEladio                   Felipe                   Armenteros               M00000000          N
022015121219999000627005TMaría Del Carmen         Barrera                  Rodríguez                F00000000          N
022015121219999000738001TRafael Luis              Corrales                 García                   M00000000          N
022015121219999000738002TFrancisco Javier         Gutiérrez                Domínguez                M00000000          N
022015121219999000738003TManuel                   Repiso                   Núñez                    M00000000          N
022015121219999000738004TMaría Victoria           Cáceres                  Titos                    F00000000          N
022015121219999000738005TMaría de los Ángeles     Carbajo                  Domínguez                F00000000          N
022015121219999001105001TManuel                   Crespo                   Martín                   M00000000          N
022015121219999001105002TIsidora                  Barrera                  Díaz                     F00000000          N
022015121219999001105003TJosé Domingo             López                    Ligero                   M00000000          N
022015121219999001105004TAntonio                  Rodríguez                Jaramago                 M00000000          N
022015121219999001105005TCelia                    Domínguez                Gutiérrez                F00000000          N
022015121219999001150001TDaniel                   Hernando                 Berger                   M00000000          N
022015121219999001150002TMaría Isabel             Gutiérrez                Ruíz                     F00000000          N
022015121219999001150003TAntonio Damián           García                   Sánchez                  M00000000          N
022015121219999001150004TIsabel María             Salas                    Martín                   F00000000          N
022015121219999001150005TAlejo                    Beltrán                  Palanco                  M00000000          N
022015121219999001169001TMaría Fátima             Báñez                    García                   F00000000          S
022015121219999001169002TCarmelo                  Romero                   Hernández                M00000000          S
022015121219999001169003TJuan Antonio             Márquez                  Lancha                   M00000000          N
022015121219999001169004TBella Pilar              Coro                     Martín                   F00000000          N
022015121219999001169005TGabriel                  Maestre                  Ponce                    M00000000          N
022015121219999001218001TIsabel                   Franco                   Carmona                  F00000000          S
022015121219999001218002TMercedes                 Domínguez                Ramírez                  F00000000          N
022015121219999001218003TJosé Manuel              Benítez                  Portillo                 M00000000          N
022015121219999001218004TAlba                     Espina                   Boa                      F00000000          N
022015121219999001218005TÁngel                    Ruiz                     Medina                   M00000000          N
022015121219999001239001TJairo Manuel             Suárez                   Cerrejón                 M00000000          N
022015121219999001239002TJennifer                 Angulo                   Castro                   F00000000          N
022015121219999001239003TMaría                    Gallego                  Zamora                   F00000000          N
022015121219999001239004TJosefa                   García                   García                   F00000000          N
022015121279999000436002TJaime Eduardo            De Olano                 Vela                     M00000000          S
022015121279999000436003TMercedes Josefina        González                 Alonso                   F00000000          N
022015121279999000436004TMaría Ana de Jesús       Fernández                Castro                   F00000000          N
022015121279999000616001TMargarita                Pérez                    Herráiz                  F00000000          S
022015121279999000616002TIago                     Fernández                Pena                     M00000000          N
022015121279999000616003TMarta                    Jato                     Díaz                     F00000000          N
022015121279999000616004TRodrigo                  Pavón                    Prieto                   M00000000          N
022015121279999000620001TIsabel Ángela            Cendán                   Fernández-Peinado        F00000000          N
022015121279999000620002TJesús                    Pérez                    Prada                    M00000000          N
022015121279999000620003TÓscar                    Regueiro                 Díaz                     M00000000          N
022015121279999000620004TRaquel                   Jiménez                  Ferreiro                 F00000000          N
022015121279999000635001TVioleta                  Núñez                    Martínez                 F00000000          N
022015121279999000635002TMarcos                   Celeiro                  Carballo                 M00000000          N
022015121279999000635003TMaría Belén              Fontal                   Belón                    F00000000          N
022015121279999000635004TRamón                    Servia                   García                   M00000000          N
022015121279999001406001TEstrella                 Mo                       Álvarez                  F00000000          N
022015121279999001406002TMaría del Carmen         Soliño                   Castro                   F00000000          N
022015121279999001406003TJacobo                   Castro                   Castro                   M00000000          N
022015121279999001406004TPablo                    Rodríguez                García                   M00000000          N
022015121279999000718001TMaría Raquel             Casabella                Fernández                F00000000          N
022015121279999000718002TFrancisco José           Fernández                Ortiz                    M00000000          N
022015121279999000718003TMaría                    Landa                    Gundín                   F00000000          N
022015121279999000718004TLuis                     Mateos                   Del Moral                M00000000          N
022015121279999000795001TAgustín                  Gallego                  Vigo                     M00000000          N
022015121279999000795002TBeatriz                  Seivane                  Llanes                   F00000000          N
022015121279999000795003TMarcelino                Montoto                  Ledo                     M00000000          N
022015121279999000795004TMaría Luisa              Velasco                  Prieto                   F00000000          N
022015121279999000955001TOlalla                   Rodil                    Fernández                F00000000          N
022015121279999000955002TXosé Antón               Ledo                     Pan                      M00000000          N
022015121279999000955003TMaría Montserrat         Porteiro                 Sánchez                  F00000000          N
022015121279999000955004TJosé                     Paleo                    Rodríguez                M00000000          N
022015121279999001022001TPorfirio                 Embade                   Pita                     M00000000          N
022015121279999001022002TRosa María               Rey                      Varela                   F00000000          N
022015121279999001022003TDiego                    Rodríguez                Reija                    M00000000          N
022015121279999001022004TMaría Jesús              Fernández                Fernández                F00000000          N
022015121279999001186001TMiguel Anxo Elías        Fernández                Bello                    M00000000          S
022015121279999001186002TRocío                    Somoza                   López                    F00000000          N
022015121279999001186003TJosé Manuel              Pérez                    Afonso                   M00000000          N
022015121279999001186004TSol                      González-Ruiz            Carcur                   F00000000          N
022015121289999000355001TSILVIA                   BARQUERO                 NOGALES                  F00000000          N
022015121289999000355002TSABINA MARÍA             SÁNCHEZ                  SÁNCHEZ                  F00000000          N
022015121289999000355003TANA MARÍA DE LA ASCENSIÓNSÁNCHEZ                  LÓPEZ                    F00000000          N
022015121289999000355004TLUIS ALBERTO             BERMEJO                  SAN JUAN                 M00000000          N
022015121289999000355005TENRIQUE                  HERAS                    FERRER                   M00000000          N
022015121289999000355006TASUNCIÓN                 ESTÉVEZ                  CHACÓN                   F00000000          N
022015121289999000355007TMARGARITA                MORALES                  SARABIA                  F00000000          N
