022016061049999000013001TDiego                    Clemente                 Giménez                   00000000          S
022016061049999000013002TArturo Ángel             Ortiz                    Alarcón                   00000000          N
022016061049999000013003TJoaquín                  Fernández                Cortés                    00000000          N
022016061049999000013004TMaría Dolores            Martín                   Arévalo                   00000000          N
022016061049999000013005TAlmudena                 Serrano                  Felices                   00000000          N
022016061049999000013006TIrene                    Gálvez                   González                  00000000          N
022016061049999000017001TJosé                     Caparrós                 Cervantes                 00000000          N
022016061049999000017002TIsabel María             Segura                   Rodríguez                 00000000          N
022016061049999000017003TJosé Antonio             del Moral                Arroyo                    00000000          N
022016061049999000017004TMaría del                Carmen Muñoz             Segura                    00000000          N
022016061049999000017005TFrancisco                López                    Contreras                 00000000          N
022016061049999000017006TMariana                  García                   Hernández                 00000000          N
022016061049999000028001TMaría del                Mar Rodríguez            Córdoba                   00000000          N
022016061049999000028002TPedro José               Ruipérez                 Pérez                     00000000          N
022016061049999000028003TJesús                    Navarro                  Selfa                     00000000          N
022016061049999000028004TMaría Dolores            Cerdán                   Morales                   00000000          N
022016061049999000028005TFuensanta                Morales                  Leante                    00000000          N
022016061049999000028006TRafael                   García                   Jiménez                   00000000          N
022016061049999000035001TTomás                    Martínez                 Peña                      00000000          N
022016061049999000035002TMarta Lucía              Acuña                    Torres                    00000000          N
022016061049999000035003TBeatriz                  Iribarne                 Sánchez                   00000000          N
022016061049999000035004TRosa                     Otero                    Mateos                    00000000          N
022016061049999000035005TSerafín                  Maldonado                García                    00000000          N
022016061049999000035006TRafael José              Plaza                    Pino                      00000000          N
022016061049999000041001TAna María                Martínez                 Rosales                   00000000          N
022016061049999000041002TManuel                   Conejero                 Calvo-Flores              00000000          N
022016061049999000041003TEstefanía                Márquez                  Sánchez                   00000000          N
022016061049999000041004TAlfonso                  Gutiérrez                Colomera                  00000000          N
022016061049999000041005TAmanda                   Toledo                   Gómez                     00000000          N
022016061049999000041006TPío Bertrán              Gil                      Perillaud                 00000000          N
022016061049999000049001TJuan José                Sánchez                  López                     00000000          N
022016061049999000049002TJosé Manuel              Piedra                   Galera                    00000000          N
022016061049999000049003TMaría Rosario            Carvajal                 Ávila                     00000000          N
022016061049999000049004TBeatriz                  Martínez                 Estrada                   00000000          N
022016061049999000049005TDavid                    Martínez                 Clares                    00000000          N
022016061049999000049006TNerea                    Ortiz                    Domínguez                 00000000          N
022016061049999000062001TJosé Julio               Rodríguez                Fernández                 00000000          N
022016061049999000062002TSonia                    Barreiro                 Martínez                  00000000          N
022016061049999000062003TMaría Remedios           Giménez                  Rodríguez                 00000000          N
022016061049999000062004TEduardo                  Valderrama               Cerezo                    00000000          N
022016061049999000062005TRamón Joaquín            Arnalte                  Fuertes                   00000000          N
022016061049999000062006TNoelia                   Márquez                  Ortiz                     00000000          N
022016061049999000068001TRafael Antonio           Hernando                 Fraile                    00000000          S
022016061049999000068002TJuan José                Matarí                   Sáez                      00000000          S
022016061049999000068003TEloísa María             Cabrera                  Carmona                   00000000          S
022016061049999000068004TMaría del                Carmen Navarro           Cruz                      00000000          N
022016061049999000068005TMagdalena Elizabeth      Martínez                 López                     00000000          N
022016061049999000068006TRamón                    Fernández-Pacheco        Monterreal                00000000          N
022016061049999000077001TSonia                    Ferrer                   Tesoro                    00000000          S
022016061049999000077002TJuan                     Jiménez                  Tortosa                   00000000          S
022016061049999000077003TIsabel                   Arévalo                  Barrionuevo               00000000          N
022016061049999000077004TRubén                    Rodríguez                Giménez                   00000000          N
022016061049999000077005TMaría                    López                    Cervantes                 00000000          N
022016061049999000077006TEmilio Sánchez           de                       Amo                       00000000          N
022016061049999000081001TCarlos Enrique           Marín                    Bernal                    00000000          N
022016061049999000081002TRosa María               Caulín                   Escribano                 00000000          N
022016061049999000081003TFrancisco Agustín        Agüera                   Alarcón                   00000000          N
022016061049999000081004TMaría Jesús              Chacón                   Mesa                      00000000          N
022016061049999000081005TJosé María               Sáez                     Abad                      00000000          N
022016061049999000081006TJosefa                   Ruano                    López                     00000000          N
022016061049999000093001TCésar Jesús              Mateos                   Hernández                 00000000          N
022016061049999000093002TIrene                    Pérez                    Pérez                     00000000          N
022016061049999000093003TDesiderio                Enciso                   Lirola                    00000000          N
022016061049999000093004TAlicia                   Cifuentes                Salazar                   00000000          N
022016061049999000093005TAntonio José             Álamo                    Baños                     00000000          N
022016061049999000093006TMercedes                 Giménez                  Segura                    00000000          N
022016061049999000094001TÁlvaro                   Cantón                   Victoria                  00000000          N
022016061049999000094002TEnrique                  Medina                   Lao                       00000000          N
022016061049999000094003TMaría del                Rocío Oreiro             Fernández                 00000000          N
022016061049999000094004TAntonio José             Martín                   Sánchez                   00000000          N
022016061049999000094005TMaría del                Saliente García          García                    00000000          N
022016061049999000094006TConcepción Alicia        Sanz                     Salvador                  00000000          N
022016061119999000013004TErnesto                  Navarro                  Alonso                    00000000          N
022016061119999000013001TFrancisco Javier         Cano                     Leal                      00000000          S
022016061119999000013002TAgustín                  Paloma                   Martín                    00000000          N
022016061119999000013003TAna María                Castillo                 López                     00000000          N
022016061119999000013005TMaría del                Carmen Ruiz              Gallego                   00000000          N
022016061119999000013006TJuan Francisco           Andrades                 Heredia                   00000000          N
022016061119999000013007TNicolás                  Fuentes                  Sanzo                     00000000          N
022016061119999000013008TMaría del                Carmen Márquez           Delgado                   00000000          N
022016061119999000013009TMaría Almudena           Camacho                  Sumariva                  00000000          N
022016061119999000028001TRaúl                     Jordán                   Gutiérrez                 00000000          N
022016061119999000028002TErnesto Jesús            Florín                   Secades                   00000000          N
022016061119999000028003TTamara                   Nour                     Milleiro                  00000000          N
022016061119999000028004TJosé María               Trillo                   Gutiérrez                 00000000          N
022016061119999000028005TMaría José               Sabater                  Parallé                   00000000          N
022016061119999000028006TJonathan                 Iglesias                 García                    00000000          N
022016061119999000028007TMauro                    Pastor                   Choya                     00000000          N
022016061119999000028008TMaría de                 la Paz                   Brea Trujillo             00000000          N
022016061119999000028009TAna María                Gutiérrez San            Juan                      00000000          N
022016061119999000041001TEduardo Antonio          Arañó                    Hidalgo                   00000000          N
022016061119999000041002TGema                     Pigueiras                Voces                     00000000          N
022016061119999000041003TManuel María             Cabello                  Izquierdo                 00000000          N
022016061119999000041004TJesica                   Martínez                 Faraldo                   00000000          N
022016061119999000041005TAlba                     Luna                     Rodríguez                 00000000          N
022016061119999000041006TJuan Antonio             Raposo                   Camacho                   00000000          N
022016061119999000041007TSilvia                   Sánchez                  García                    00000000          N
022016061119999000041008TIanire                   Barturen                 Torre                     00000000          N
022016061119999000041009TRafael                   Ruiz                     Ariza                     00000000          N
022016061119999000049004TVirginia                 Moreno                   Muñoz                     00000000          N
022016061119999000049001TFrancisco José           Ferrer                   Gálvez                    00000000          N
022016061119999000049002TYolanda                  Castro                   Jiménez                   00000000          N
022016061119999000049003TAntonio                  Pérez                    Castellano                00000000          N
022016061119999000049005TJosé                     Raposo                   Sánchez                   00000000          N
022016061119999000049006TManuela                  Ferrer                   Gálvez                    00000000          N
022016061119999000049007TJuan                     Marchena                 Moreno                    00000000          N
022016061119999000049008TMaría África             Merino                   Ruiz                      00000000          N
022016061119999000049009TÁlvaro                   Roldán                   Villalar                  00000000          N
022016061119999000053001TEnrique                  Guillén                  Morilla                   00000000          N
022016061119999000053002TSelene                   González                 García                    00000000          N
022016061119999000053003TEugenio                  Naranjo                  Sánchez                   00000000          N
022016061119999000053004TAmor                     Contreras                Velázquez                 00000000          N
022016061119999000053005TManuel Cayetano          Giménez                  Vázquez                   00000000          N
022016061119999000053006TIrene                    López                    Bravo                     00000000          N
022016061119999000053007TMiguel                   Balbás                   Casal                     00000000          N
022016061119999000053008TMaría Cristina           Contreras                Mojarro                   00000000          N
022016061119999000053009TLuis Miguel              Pérez                    Matallana                 00000000          N
022016061119999000062001TNoelia                   Vera                     Ruiz-Herrera              00000000          S
022016061119999000062002TJuan Antonio             Delgado                  Ramos                     00000000          S
022016061119999000062003TSantiago                 Gutiérrez                Ruiz                      00000000          N
022016061119999000062004TInmaculada               Morillo                  Chía                      00000000          N
022016061119999000062005TAna Fernández            de                       Cosa                      00000000          N
022016061119999000062006TJuan                     Molina                   Gómez                     00000000          N
022016061119999000062007TGemma                    Espinosa                 Ortega                    00000000          N
022016061119999000062008TMaría José               Jiménez                  Izquierdo                 00000000          N
022016061119999000062009TJosé María               González                 Santos                    00000000          N
022016061119999000068001TTeófila                  Mártinez                 Saiz                      00000000          S
022016061119999000068002TMaría José               García-Pelayo            Jurado                    00000000          S
022016061119999000068003TAlfonso                  Candón                   Adan                      00000000          S
022016061119999000068004TAndrés                   Núñez                    Jiménez                   00000000          N
022016061119999000068005TIgnacio                  Romaní                   Cantera                   00000000          N
022016061119999000068006TInmaculada               Gil                      López                     00000000          N
022016061119999000068007TOscar                    Curtido                  Naranjo                   00000000          N
022016061119999000068008TIgnacio                  Macias                   Fernández                 00000000          N
022016061119999000068009TMaría Caridad            Salazar                  Merino                    00000000          N
022016061119999000077001TSalvador Antonio         de la                    Encina Ortega             00000000          S
022016061119999000077002TMirian                   Alconchel                Gonzaga                   00000000          S
022016061119999000077003TJuan Carlos              Campo                    Moreno                    00000000          S
022016061119999000077004TEva María                Foncubierta              Cubillana                 00000000          N
022016061119999000077005TFrancisco Javier         Vidal                    Bernal                    00000000          N
022016061119999000077006TLucía                    Torrejón                 Toledo                    00000000          N
022016061119999000077007TJesús                    Alba                     Manzanares                00000000          N
022016061119999000077008TMaría Leonor             Varela                   Rodríguez                 00000000          N
022016061119999000077009TJuan Antonio             Palacios                 Escobar                   00000000          N
022016061119999000081001TAna María                Muñoz                    Colera                    00000000          N
022016061119999000081002TJosé                     Pantoja                  Salas                     00000000          N
022016061119999000081003TJosefa                   Fernández                Leal                      00000000          N
022016061119999000081004TVictor Manuel            Real                     Sánchez                   00000000          N
022016061119999000081005TSoraya Jiménez           de                       Ávila                     00000000          N
022016061119999000081006TJesús Manuel             Agudo                    Niño                      00000000          N
022016061119999000081007TEva María                Ávila                    Valera                    00000000          N
022016061119999000081008TJosé Manuel              Álvarez                  Estrada                   00000000          N
022016061119999000081009TJuana Rosa               Rico                     Moral                     00000000          N
022016061119999000093001THugo                     Cañellas                 Ávila                     00000000          N
022016061119999000093002TBenito                   García                   Peinado                   00000000          N
022016061119999000093003TMaría del                Mar Coronil              García                    00000000          N
022016061119999000093004TLuis Fernando            Fernández-Llebrez        González                  00000000          N
022016061119999000093005TMaría del                Rocío Ramiro             Bernal                    00000000          N
022016061119999000093006TRoque                    Ortega                   Plazuelo                  00000000          N
022016061119999000093007TNoelia                   Guerrero                 Hidalgo                   00000000          N
022016061119999000093008TLuis Fernando            Retortillo               García                    00000000          N
022016061119999000093009TCristina                 Caro                     Verdia                    00000000          N
022016061119999000094001TManuel                   Gavira                   Florentino                00000000          N
022016061119999000094002TÁngelas María            Mulas                    Belizón                   00000000          N
022016061119999000094004TConcepción               Rueda                    Gómez                     00000000          N
022016061119999000094003TJuan Carlos              López                    Pérez                     00000000          N
022016061119999000094005TJuan José                Fernández                Franco                    00000000          N
022016061119999000094006TAránzazu                 Orobio                   Remírez                   00000000          N
022016061119999000094007TJosé Antonio             González                 Brecia                    00000000          N
022016061119999000094008TMargarita                Quintanilla              Merino                    00000000          N
022016061119999000094009TAntonio                  García                   Prats                     00000000          N
022016061149999000002004TDolores                  Gutiérrez                Chica                     00000000          N
022016061149999000002001TMiguel                   García                   Mohedano                  00000000          N
022016061149999000002002TFátima                   Cortés                   Ortiz                     00000000          N
022016061149999000002003TManuel                   Bautista                 Venegas                   00000000          N
022016061149999000002005TAntonio                  López                    Cabello                   00000000          N
022016061149999000002006TRosalía de               las Mercedes             Bautista Venegas          00000000          N
022016061149999000013001TMarcial                  Gómez                    Balsera                   00000000          S
022016061149999000013002TMaría Carmen             Otero                    Uribe                     00000000          N
022016061149999000013003TJesús Mateo              Lupiáñez                 Noguerol                  00000000          N
022016061149999000013004TMaría del                Carmen Bernal            Torres                    00000000          N
022016061149999000013005TJosé Antonio             Prados                   Jiménez                   00000000          N
022016061149999000013006TMaría Isabel             Albás                    Vives                     00000000          N
022016061149999000017001TRafael de                Troya                    Bononato                  00000000          N
022016061149999000017002TMaría del                Carmen Carmona           Delgado                   00000000          N
022016061149999000017003TManuel                   Elías                    Roldán                    00000000          N
022016061149999000017004TMaría Lourdes            Bellido                  Garrido                   00000000          N
022016061149999000017005TRafael                   González                 Aranda                    00000000          N
022016061149999000017006TPilar                    Márquez                  Quesada                   00000000          N
022016061149999000028001TMaría Teresa             Caballero                Parreño                   00000000          N
022016061149999000028002TFernando                 García                   Molina                    00000000          N
022016061149999000028003TMaría Carmen             Pérez                    Novo                      00000000          N
022016061149999000028004TSalvador Lorenzo         Benítez                  Rodríguez                 00000000          N
022016061149999000028005TAurora                   Molina                   Martín                    00000000          N
022016061149999000028006TRaúl                     Moreno                   Muñoz                     00000000          N
022016061149999000041001TJavier                   Luna                     Sánchez                   00000000          N
022016061149999000041002TMarta                    Luque                    Cabello                   00000000          N
022016061149999000041003TAntonio                  Quintana                 Cano                      00000000          N
022016061149999000041004TMaría                    Román                    Jáimez                    00000000          N
022016061149999000041005TRafael Carlos            Soriano                  Mármol                    00000000          N
022016061149999000041006TJessica                  Cepedello                Jiménez                   00000000          N
022016061149999000044001TVíctor                   Núñez                    Luque                     00000000          N
022016061149999000044002TMaría José               Hoyo                     Aceituno                  00000000          N
022016061149999000044003TJosé David               Contreras                Guerrero                  00000000          N
022016061149999000044004TManuela                  García                   Morillas                  00000000          N
022016061149999000044005TJesús Manuel             Pérez                    López                     00000000          N
022016061149999000044006TTeresa                   Luque                    Naranjo                   00000000          N
022016061149999000049001TManuel                   Maestre                  Barranco                  00000000          N
022016061149999000049002TJosefa                   Barbarroja               Alcalde                   00000000          N
022016061149999000049003TAntonio                  Muñoz                    Jaime                     00000000          N
022016061149999000049004TMaría Victoria           Bogas                    Urbano                    00000000          N
022016061149999000049005TJosé                     Ramírez                  Campos                    00000000          N
022016061149999000049006TAna Isabel               Moraleda                 Blánquez                  00000000          N
022016061149999000062001TManuel Enrique           Monereo                  Pérez                     00000000          S
022016061149999000062002TAntonia                  Parrado                  Rojas                     00000000          N
022016061149999000062003TFrancisco José           Ruiz                     León                      00000000          N
022016061149999000062004TFrancisco                Cañasveras               Garrido                   00000000          N
022016061149999000062005TSusana                   Falcon                   Tornu                     00000000          N
022016061149999000062006TMicaela                  Soria                    Zambrano                  00000000          N
022016061149999000068001TJosé Antonio             Nieto                    Ballesteros               00000000          S
022016061149999000068002TRafael                   Merino                   López                     00000000          S
022016061149999000068003TMaría Luisa              Ceballos                 Casas                     00000000          N
022016061149999000068004TIsabel                   Cabezas                  Regaño                    00000000          N
022016061149999000068005TManuel                   Torres                   Fernández                 00000000          N
022016061149999000068006TMaría Isabel             Medina                   Murillo                   00000000          N
022016061149999000077001TMaría Jesús              Serrano                  Jiménez                   00000000          S
022016061149999000077002TAntonio                  Hurtado                  Zurera                    00000000          S
022016061149999000077003TInmaculada               Durán                    Sánchez                   00000000          N
022016061149999000077004TManuel                   Torres                   Aguilar                   00000000          N
022016061149999000081002TÁngel                    Vega                     Sánchez                   00000000          N
022016061149999000077005TRosa Ana                 González                 Moreno                    00000000          N
022016061149999000077006TAntonio Luis             Amaro                    López                     00000000          N
022016061149999000081001TCarmen Gloria            Pérez                    Fernández                 00000000          N
022016061149999000081003TIsabel                   Jimeno                   Taguas                    00000000          N
022016061149999000081004TOscar                    Ramírez                  Calvo                     00000000          N
022016061149999000081005TAraceli                  Roldán                   Tejada                    00000000          N
022016061149999000081006TManuel                   Lara                     Tejada                    00000000          N
022016061149999000093001TEmilio Juan              Manuel Sánchez           Caballero                 00000000          N
022016061149999000093002TRafael Ruiz              de                       Lara                      00000000          N
022016061149999000093003TBelén María              Solís                    Valle                     00000000          N
022016061149999000093004TAntonia                  Montilla                 López                     00000000          N
022016061149999000093005TJuan Carlos              Alamillo                 Tinahones                 00000000          N
022016061149999000093006TAna Isabel               Gómez                    Gómez                     00000000          N
022016061149999000094001TEnrique                  Rubio                    Merino                    00000000          N
022016061149999000094002TMaría Francisca          de Prado                 López                     00000000          N
022016061149999000094003TRafael                   Ruiz                     Díaz                      00000000          N
022016061149999000094004TMaría Francisca          Osuna                    Moliz                     00000000          N
022016061149999000094005TAntonio José             Jiménez                  Pérez                     00000000          N
022016061149999000094006TMaría Pilar              Figueroa                 García                    00000000          N
022016061189999000013004TManuel                   Aguilera                 Fernández                 00000000          N
022016061189999000013001TLuis Miguel              Salvador                 García                    00000000          S
022016061189999000013002TMaría del                Mar Sánchez              Muñoz                     00000000          N
022016061189999000013003TMaría Leticia            Ruiz                     Vílchez                   00000000          N
022016061189999000013005TManuel                   García                   González                  00000000          N
022016061189999000013006TMaría Dolores            Sánchez                  Álvarez                   00000000          N
022016061189999000013007TJosé Manuel              Casals                   Medina                    00000000          N
022016061189999000035001TJavier                   Castillo                 Jiménez                   00000000          N
022016061189999000035002TSusana María             Pedraza                  Picón                     00000000          N
022016061189999000035003TJéssica                  Carmona                  Rodríguez                 00000000          N
022016061189999000035004TJulio Gregorio           Millán                   Sanjuán                   00000000          N
022016061189999000035005TAlejandro                García                   Ferrer                    00000000          N
022016061189999000035006TMaría Encarnación        Ladrón de                Guevara Hernández         00000000          N
022016061189999000035007TRubén                    Quirante                 Román                     00000000          N
022016061189999000041001TCarlos                   Alba                     Raya                      00000000          N
022016061189999000041002TNuria                    Molina                   Garzón                    00000000          N
022016061189999000041003TFrancisco Jesús          Guerrero                 Ibáñez                    00000000          N
022016061189999000041004TNatalia                  Moreno                   Gómez                     00000000          N
022016061189999000041005TMaría José               Ramos                    Ramos                     00000000          N
022016061189999000041006TFrancisco José           Biedma                   Ortiz                     00000000          N
022016061189999000041007TNuria Esther             Castillo                 Rivas                     00000000          N
022016061189999000049001TSergio                   Aranda                   Ruiz-Matas                00000000          N
022016061189999000049002TMarina                   Orantes                  Pozo                      00000000          N
022016061189999000049003TJosé                     Gómez                    Urbaneja                  00000000          N
022016061189999000049004TLaura                    Vílchez                  López                     00000000          N
022016061189999000049005TBruno Alberto            Levy                     Guillén                   00000000          N
022016061189999000062002TLeticia                  García                   Panal                     00000000          N
022016061189999000049006TMaría del                Pilar Mínguez            Navareño                  00000000          N
022016061189999000049007TEduardo Manuel           Rodríguez                Martín                    00000000          N
022016061189999000062001TAna Belén                Terrón                   Berbel                    00000000          S
022016061189999000062003TNéstor                   Salvador                 Galindo                   00000000          N
022016061189999000062004TDiego                    Castillo                 Caballero                 00000000          N
022016061189999000062005TMaría Trinidad           Montes                   Martín                    00000000          N
022016061189999000062006TMaría Esther             Salcedo                  Castro                    00000000          N
022016061189999000062007TDavid                    Sánchez                  Chaves                    00000000          N
022016061189999000068001TCarlos                   Rojas                    García                    00000000          S
022016061189999000068002TSantiago                 Pérez                    López                     00000000          S
022016061189999000068003TMaría de la              Concepción de Santa      Ana Fernández             00000000          S
022016061189999000068004TPablo                    García                   Pérez                     00000000          N
022016061189999000068005TTrinidad                 Herrera                  Lorente                   00000000          N
022016061189999000068006TAna Belén                Garrido                  Ramírez                   00000000          N
022016061189999000068007TFrancisco Joaquín        Camacho                  Borrego                   00000000          N
022016061189999000077001TElvira                   Ramón                    Utrabo                    00000000          S
022016061189999000077002TGregorio                 Cámara                   Villar                    00000000          S
022016061189999000077003TAna Belén                Palomares                Bastida                   00000000          N
022016061189999000077004TManuel                   Domínguez                García                    00000000          N
022016061189999000077005TElena Cristina           Fernández                Peñafiel                  00000000          N
022016061189999000077006TJosé                     Puerta                   Alarcón                   00000000          N
022016061189999000077007TMercedes                 Martín                   Torres                    00000000          N
022016061189999000081001TVioleta                  Tercedor                 López                     00000000          N
022016061189999000081002TAlberto                  Vázquez                  Pérez                     00000000          N
022016061189999000081003TAlexandra                Calero                   Cervera                   00000000          N
022016061189999000081004TJosé                     Morillas                 López                     00000000          N
022016061189999000081005TMarta                    Cortés                   Martínez                  00000000          N
022016061189999000081006TCarmelo                  Diéguez                  Castillo                  00000000          N
022016061189999000081007TMaría Dolores            Minuesa                  Soria                     00000000          N
022016061189999000093001TFernando María           Gracia                   Climent                   00000000          N
022016061189999000093002TElena                    Díaz                     Almela                    00000000          N
022016061189999000093003TCarlos María             González                 Martín                    00000000          N
022016061189999000093004TIsabel                   Guerra-Librero           Bonilla                   00000000          N
022016061189999000093005TManuel                   Muñoz                    Vinuesa                   00000000          N
022016061189999000093006TMónica                   Soto                     Cazorla                   00000000          N
022016061189999000093007TIsidro                   Poyatos                  Molero                    00000000          N
022016061189999000094001TAntonio Francisco        Quirós                   Roldán                    00000000          N
022016061189999000094002TCarlos                   García                   Pérez                     00000000          N
022016061189999000094003TMaría Montserrat         Martín                   Cabeo                     00000000          N
022016061189999000094004TAlejandro Rafael         Alonso                   Ramírez                   00000000          N
022016061189999000094005TOlga                     Sánchez                  García                    00000000          N
022016061189999000094006TMaría de                 los Ángeles              Nogueras Rodríguez        00000000          N
022016061189999000094007TJosé Luis                Evangelista              Martín                    00000000          N
022016061219999000013004TMª del                   Carmen Moreno            Ortega                    00000000          N
022016061219999000013001TManuel                   Repiso                   Núñez                     00000000          N
022016061219999000013002TMaría Victoria           Cáceres                  Titos                     00000000          N
022016061219999000013003TFrancisco                Martínez                 Seoane                    00000000          N
022016061219999000013005TJuan                     Ruiz                     Cascales                  00000000          N
022016061219999000041001TSebastián                Gómez                    Corrales                  00000000          N
022016061219999000041002TInés                     Aulló                    Pérez                     00000000          N
022016061219999000041003TÁlvaro Jesús             Quintero                 Morales                   00000000          N
022016061219999000041004TAlexandra                Fernández                Pérez                     00000000          N
022016061219999000041005TEladio                   Felipe                   Armenteros                00000000          N
022016061219999000049001TManuel                   Crespo                   Martín                    00000000          N
022016061219999000049002TIsidora                  Barrera                  Díaz                      00000000          N
022016061219999000049003TJosé Domingo             López                    Ligero                    00000000          N
022016061219999000049004TAntonio                  Rodríguez                Jaramago                  00000000          N
022016061219999000049005TCelia                    Domínguez                Gutiérrez                 00000000          N
022016061219999000062001TIsabel                   Franco                   Carmona                   00000000          S
022016061219999000062002TDaniel                   Hernando                 Berger                    00000000          N
022016061219999000062003TMercedes                 Domínguez                Ramírez                   00000000          N
022016061219999000062004TJosé Manuel              Benítez                  Portillo                  00000000          N
022016061219999000062005TAlba                     Espina                   Boa                       00000000          N
022016061219999000068001TMaría Fátima             Báñez                    García                    00000000          S
022016061219999000068002TCarmelo                  Romero                   Hernández                 00000000          S
022016061219999000068003TJuan Antonio             Márquez                  Lancha                    00000000          N
022016061219999000068004TBella Pilar              Coro                     Martín                    00000000          N
022016061219999000068005TGabriel                  Maestre                  Ponce                     00000000          N
022016061219999000077001TJosé Juan                Díaz                     Trillo                    00000000          S
022016061219999000077002TJosefa Inmaculada        González                 Bayo                      00000000          S
022016061219999000077003TManuel Jesús             Domínguez                Limón                     00000000          N
022016061219999000077004TRocío                    Rodríguez                González                  00000000          N
022016061219999000077005TDaniel                   Carrasco                 Iglesias                  00000000          N
022016061219999000081001TSixto Manuel             Blanco                   Núñez                     00000000          N
022016061219999000081002TAna María                Jaldón                   Eugenio                   00000000          N
022016061219999000081003TPedro Antonio            Nos                      Gómez                     00000000          N
022016061219999000081004TMaría Elena              Villalba                 Murillo                   00000000          N
022016061219999000081005TJuan Pedro               Chamorro                 López                     00000000          N
022016061219999000093001TJosé María               Ramírez                  Salas                     00000000          N
022016061219999000093002TEsther                   Benítez                  Domínguez                 00000000          N
022016061219999000093003TJosé Enrique             Camacho                  Jiménez                   00000000          N
022016061219999000093004TMaría José               Salas                    García                    00000000          N
022016061219999000093005TFrancisco Javier         López                    Quintero                  00000000          N
022016061219999000094001TJosé                     García                   Luna                      00000000          N
022016061219999000094002TEligio                   Taboada                  Medero                    00000000          N
022016061219999000094003TJosé Miguel              Casanova                 Domínguez                 00000000          N
022016061219999000094004TAna Rocío                Cía López                de Lemus                  00000000          N
022016061219999000094005TRosa María               Cruz                     Rodríguez                 00000000          N
022016061239999000012004TNazaret                  Navarro                  Toledano                  00000000          N
022016061239999000012001TJavier                   Hernández                Tubío                     00000000          N
022016061239999000012002TMacarena                 Rueda                    Cantón                    00000000          N
022016061239999000012003TJuan Antonio             Barrero                  Sánchez                   00000000          N
022016061239999000012005TFrancisco Javier         Bris                     Peñalver                  00000000          N
022016061239999000013001TRaquel                   Morales                  Martínez                  00000000          N
022016061239999000013002TVíctor Manuel            García                   Carrasco                  00000000          N
022016061239999000013003TJuan Antonio             Tobaruela                Manjón                    00000000          N
022016061239999000013004TAlicia                   López                    Latorre                   00000000          N
022016061239999000013005TDaniel                   Sánchez                  Puerto                    00000000          N
022016061239999000041001TManuel                   Serrano                  Baena                     00000000          N
022016061239999000041002TInmaculada               García                   Ramírez                   00000000          N
022016061239999000041003TPedro                    Espino                   Calvo                     00000000          N
022016061239999000041004TBonosa Candelaria        Casado                   Galisteo                  00000000          N
022016061239999000041005TPedro José               Zaragoza                 Soto                      00000000          N
022016061239999000049001TJuan Antonio             Pérez                    Fereiro                   00000000          N
022016061239999000049002TSheila                   Carmona                  Silva                     00000000          N
022016061239999000049003TIsabel María             Cruz de                  la Torre                  00000000          N
022016061239999000049004TMario                    Troya                    Gallego                   00000000          N
022016061239999000049005TNazaret                  Rios                     Zurera                    00000000          N
022016061239999000062001TDiego                    Cañamero                 Valle                     00000000          S
022016061239999000062002TAna Manuela              Jiménez del              Moral                     00000000          N
022016061239999000062003TBenito                   Zambrano                 Tejero                    00000000          N
022016061239999000062004TManuela                  Blanco                   Moreno                    00000000          N
022016061239999000062005TMaría Josefa             Jiménez                  Tello                     00000000          N
022016061239999000068001TJosé Enrique             Fernández de             Moya Romero               00000000          S
022016061239999000068002TÁngeles                  Isac                     García                    00000000          S
022016061239999000068003TJavier                   Calvente                 Gallego                   00000000          N
022016061239999000068004TMaría                    Torres                   Tejada                    00000000          N
022016061239999000068005TMiguel Sánchez           de Alcázar               Ocaña                     00000000          N
022016061239999000077001TMicaela                  Navarro                  Garzón                    00000000          S
022016061239999000077002TFelipe Jesús             Sicilia                  Alférez                   00000000          S
022016061239999000077003TMaría de                 la Paz                   del Moral Milla           00000000          N
022016061239999000081002TTeresa                   Recena                   González                  00000000          N
022016061239999000077004TJuan Antonio             López                    Vílchez                   00000000          N
022016061239999000077005TFrancisca                Alcántara                Godino                    00000000          N
022016061239999000081001TEsperanza                Rico                     Moral                     00000000          N
022016061239999000081003TJulio César              Vargas                   Lupión                    00000000          N
022016061239999000081004TDolores                  Rico                     Moral                     00000000          N
022016061239999000081005TFelipe                   Mateos                   Casado                    00000000          N
022016061239999000093001TMaría del                Carmen Gila              Malo                      00000000          N
022016061239999000093002TPurificación             Gómez                    Matas                     00000000          N
022016061239999000093003TFrancisco                Tirado                   López                     00000000          N
022016061239999000093004TAlmudena                 Calderón                 Cruz                      00000000          N
022016061239999000093005TAntonio Javier           Carreras                 Vargas                    00000000          N
022016061239999000094001TCarlos                   García                   Ruiz                      00000000          N
022016061239999000094002TMartín                   Ruiz                     Calvente                  00000000          N
022016061239999000094003TMaría del                Rosario del              Aguila Gallego            00000000          N
022016061239999000094004TLaura María              Ordóñez                  Fernández                 00000000          N
022016061239999000094005TJosé Antonio             Olmo                     Rodríguez                 00000000          N
022016061299999000002002TManuela                  Cañete                   Durán                     00000000          N
022016061299999000002001TFrancisco Javier         Bautista                 Venegas                   00000000          N
022016061299999000002010TAna María                Pérez                    Avila                     00000000          N
022016061299999000002011TFernando                 García                   Domínguez                 00000000          N
022016061299999000002003TMiguel Ángel             Molina                   Presa                     00000000          N
022016061299999000002004TMaría Angustias          Victoria Cortés          Ortíz                     00000000          N
022016061299999000002005TJavier                   García                   Salas                     00000000          N
022016061299999000002006TMaría del                Carmen Martínez          Diago                     00000000          N
022016061299999000002007TMiguel                   Serrano                  García                    00000000          N
022016061299999000002008TMaría José               Velasco                  López                     00000000          N
022016061299999000002009TAntonio                  Ramírez                  Arrebola                  00000000          N
022016061299999000013001TIrene                    Rivera                   Andrés                    00000000          S
022016061299999000013010TJosé Luis                Guerrero                 Ruiz                      00000000          N
022016061299999000013011TMaría Jesús              Pasadas                  Moreno                    00000000          N
022016061299999000013002TGuillermo                Díaz                     Gómez                     00000000          S
022016061299999000013003TGabriel de               Pablo                    Capel                     00000000          N
022016061299999000013004TAntonio                  Molina                   Sánchez                   00000000          N
022016061299999000013005TMaría Susana             Domínguez                Salas                     00000000          N
022016061299999000013006TVicente                  Sánchez                  Martínez                  00000000          N
022016061299999000013007TJenny Rosiris            Feal                     Amaya                     00000000          N
022016061299999000013008TYolanda                  Gordillo                 Moreno                    00000000          N
022016061299999000013009TIgnacio Santiago         Amador                   Cañardo                   00000000          N
022016061299999000035001TMaría José               Teruel                   García                    00000000          N
022016061299999000035010TRocío                    Segovia                  Herrera                   00000000          N
022016061299999000035011TJosé Antonio             Vargas                   Vergara                   00000000          N
022016061299999000035002TRocío                    Filpo                    Martín                    00000000          N
022016061299999000035003TNoé                      Muñoz                    Muñoz                     00000000          N
022016061299999000035004TDavid Israel             Sánchez                  Castilla                  00000000          N
022016061299999000035005TLuisa María              Robles                   Gutiérrez                 00000000          N
022016061299999000035006TAdolfo                   Granero                  Tuñón                     00000000          N
022016061299999000035007TÁngel                    Narváez                  Llinares                  00000000          N
022016061299999000035008TEva María                Urbano                   Cobos                     00000000          N
022016061299999000035009TJuan                     Fidalgo                  Palomino                  00000000          N
022016061299999000041001TAndrés                   Cardenete                Montiel                   00000000          N
022016061299999000041002TAlejandra                Rodríguez                González                  00000000          N
022016061299999000041003TAlonso                   Coronado                 Fernández                 00000000          N
022016061299999000041004TEva                      Ramos                    Taillefer                 00000000          N
022016061299999000041005TMaría Ángeles            Bernal                   Martínez                  00000000          N
022016061299999000041007TMaría Pilar              Carranza                 Martínez                  00000000          N
022016061299999000041010TPatricia                 Pomares                  Pérez                     00000000          N
022016061299999000041011TJosé                     Álvarez                  Merino                    00000000          N
022016061299999000041006TFrancisco José           García                   Ramos                     00000000          N
022016061299999000041008TFrancisco Javier         Rodríguez                Rubio                     00000000          N
022016061299999000041009TAlba Noa                 Casal                    Lucena                    00000000          N
022016061299999000049001TMaría Gloria             Fernández                Ruíz                      00000000          N
022016061299999000049010TJosé Luis                López                    Quesada                   00000000          N
022016061299999000049011TDolores                  Valiente                 Borrego                   00000000          N
022016061299999000049002TAntonio Jiménez          Martínez de              Ubago                     00000000          N
022016061299999000049003TDaniel                   Tomaselli                Martín                    00000000          N
022016061299999000049004TAna Isabel               Bastida                  Burgos                    00000000          N
022016061299999000049005TJerónimo                 Perujo                   Fuentes                   00000000          N
022016061299999000049006TVictoria                 Soler                    Anaya                     00000000          N
022016061299999000049007TPedro Arredondo          Da                       Silva                     00000000          N
022016061299999000049008TIván                     Burgos                   Pardo                     00000000          N
022016061299999000049009TMaría Concepción         del Prado                Álvarez                   00000000          N
022016061299999000062001TAlberto                  Montero                  Soler                     00000000          S
022016061299999000062010TJosé Ramón               Páez                     Pareja                    00000000          N
022016061299999000062011TLorena                   Ruiz                     González                  00000000          N
022016061299999000062002TEva                      García                   Sempere                   00000000          S
022016061299999000062003TMaría Isabel             Medina                   Suárez                    00000000          N
022016061299999000062004TAlejandro                Serrato                  Delgado                   00000000          N
022016061299999000062005TFrancisco Javier         Guzmán                   Lucena                    00000000          N
022016061299999000062006TAntonia                  Marfil                   Moreno                    00000000          N
022016061299999000062007TFrancisco                Soler                    Luque                     00000000          N
022016061299999000062008TEsperanza Macarena       Ruiz                     Gómez                     00000000          N
022016061299999000062009TAna Vanessa              Mallén                   Almanza                   00000000          N
022016061299999000068001TCarolina                 España                   Reina                     00000000          S
022016061299999000068010TElías                    Bendodo                  Benasayag                 00000000          N
022016061299999000068011TFrancisco Manuel         de la                    Torre Prados              00000000          N
022016061299999000068002TCelia                    Villalobos               Talero                    00000000          S
022016061299999000068003TAvelino de               Barrionuevo              Gener                     00000000          S
022016061299999000068004TÁngel Luis               González                 Muñoz                     00000000          S
022016061299999000068005TMaría Paz                Fernández                Lobato                    00000000          N
022016061299999000068006TManuel                   López                    Mestanza                  00000000          N
022016061299999000068007TJesús                    Lupiáñez                 Herrera                   00000000          N
022016061299999000068008TLidia                    Moreno                   Aguilar                   00000000          N
022016061299999000068009TMaría Teresa             Otero                    Cobos                     00000000          N
022016061299999000077001TMiguel Ángel             Heredia                  Díaz                      00000000          S
022016061299999000077010TIsabel                   González                 Cueto                     00000000          N
022016061299999000077011TEnrique Domínguez        Sánchez                  Lafuente                  00000000          N
022016061299999000077002TVictoria Begoña          Tundidor                 Moreno                    00000000          S
022016061299999000077003TJosé Andrés              Torres                   Mora                      00000000          S
022016061299999000077004TAlicia                   Murillo                  López                     00000000          N
022016061299999000077005TRicardo Juan             López                    Weeden                    00000000          N
022016061299999000077006TDesireé                  Rodríguez                Ramírez                   00000000          N
022016061299999000077007TFernando                 Salcedo                  Delgado                   00000000          N
022016061299999000077008TMaría Carmen             Segura                   Belmonte                  00000000          N
022016061299999000077009TDavid                    Fernández                Tirado                    00000000          N
022016061299999000081001TAdrián                   Ramírez                  Rodríguez                 00000000          N
022016061299999000081010TIsabel                   Fernández                Morales                   00000000          N
022016061299999000081011TAntonio                  González                 Calderón                  00000000          N
022016061299999000081002TMaría                    Hita                     Muñoz                     00000000          N
022016061299999000081003TAntonio                  Fuentes                  Ruiz                      00000000          N
022016061299999000081004TEncarnación              Jiménez                  Fernández                 00000000          N
022016061299999000081005TAntonio José             Asensi                   Yuste                     00000000          N
022016061299999000081006TRaquel                   Delgado                  Beiroa                    00000000          N
022016061299999000081007TEmilio                   Suárez                   Villena                   00000000          N
022016061299999000081008TAurora                   Torres                   Guerrero                  00000000          N
022016061299999000081009TJosé Manuel              Santaella                Romero                    00000000          N
022016061299999000093001TFrancisco                Pascual                  Vázquez                   00000000          N
022016061299999000093002TGuillermina              Paniagua                 López                     00000000          N
022016061299999000093003TMarcos Antonio           Paz                      Gutiérrez                 00000000          N
022016061299999000093004TRicardo                  Mercado                  Gámez                     00000000          N
022016061299999000093006TJosé Luis                Jiménez de               Prado                     00000000          N
022016061299999000093010TMaría Gloria             Pérez                    Fernández                 00000000          N
022016061299999000093011TManuel                   Vaz                      Benítez                   00000000          N
022016061299999000093005TVictoria                 Acosta                   Torres                    00000000          N
022016061299999000093007TMíriam                   Aragón                   Gómez                     00000000          N
022016061299999000093008TFrancisco Jesús          Moreno                   Valenzuela                00000000          N
022016061299999000093009TMaría Mercedes           Espinel del              Castillo                  00000000          N
022016061299999000094001TJavier                   Rubio                    Casares                   00000000          N
022016061299999000094010TIsabel                   García                   Mudarra                   00000000          N
022016061299999000094011TJulia                    Calleja                  Hurtado                   00000000          N
022016061299999000094002TCarlos                   Magro                    Castellanos               00000000          N
022016061299999000094003TMaría Remedios           Jiménez                  García                    00000000          N
022016061299999000094004TCarmen Carolina          Alejandro                Caro                      00000000          N
022016061299999000094005TAntonio Manuel           Calle                    Arjona                    00000000          N
022016061299999000094006TFrancisco                Garrido                  Guerrero                  00000000          N
022016061299999000094007TFrancisco                Trigo                    Garrido                   00000000          N
022016061299999000094008TMaría Teresa             Estévez                  Álvarez                   00000000          N
022016061299999000094009TGerardo Ricardo          García                   Bibas                     00000000          N
022016061419999000013003TAntonia                  Ramírez                  Ramírez                   00000000          N
022016061419999000013001TMaría Virginia           Millán                   Salmerón                  00000000          S
022016061419999000013002TFidel                    Prieto                   Romero                    00000000          N
022016061419999000013010TMaría Ángeles            Acevedo                  Rojas                     00000000          N
022016061419999000013011TAna María                Chaves                   Reyes                     00000000          N
022016061419999000013012TAgustín                  Bravo                    Abreu                     00000000          N
022016061419999000013004TLucrecia                 Bernáldez                Rodríguez                 00000000          N
022016061419999000013005TJavier                   Cabezas                  Carbonero                 00000000          N
022016061419999000013006TRosa                     Vílchez                  Ruiz                      00000000          N
022016061419999000013007TJosé Vicente             Gallart                  Moreno                    00000000          N
022016061419999000013008TFrancisco José           Ríos                     Manzanares                00000000          N
022016061419999000013009TArturo                   Sotelo                   Diego                     00000000          N
022016061419999000028001TJoaquín                  Montañés                 Ruiz                      00000000          N
022016061419999000028010TAntonia                  Moreno                   Cuevas                    00000000          N
022016061419999000028011TSusana                   Alba                     Álvarez                   00000000          N
022016061419999000028012TJosé                     Baldaraque               Benítez                   00000000          N
022016061419999000028002TJosé David               Díaz                     Fernández                 00000000          N
022016061419999000028003TGabriel Otero            de                       Dios                      00000000          N
022016061419999000028004TMagdalena                Rodríguez                Hidalgo                   00000000          N
022016061419999000028005TAntonia de               Dios                     Jurado                    00000000          N
022016061419999000028006TÁngel                    Romero                   Moreira                   00000000          N
022016061419999000028007TAntonio                  Martín                   Collado                   00000000          N
022016061419999000028008TRafael                   Japón                    Jiménez                   00000000          N
022016061419999000028009TMaría Victoria           Álvarez                  Álvarez                   00000000          N
022016061419999000041001TFrancisco Javier         Sanabria                 Moya                      00000000          N
022016061419999000041010TRosario                  Carmona                  Rodríguez                 00000000          N
022016061419999000041011TFrancisco Javier         Fernández                Navas                     00000000          N
022016061419999000041012TConsolación              Martín                   Pozo                      00000000          N
022016061419999000041002TMaría                    Cutiño                   Zamora                    00000000          N
022016061419999000041003TEnrique Rafael           Larrad                   Venegas                   00000000          N
022016061419999000041004TMilagrosa                Caballero                Olaegui                   00000000          N
022016061419999000041005TManuel                   Romero                   Muñoz                     00000000          N
022016061419999000041006TMaría José               Colón                    Reyero                    00000000          N
022016061419999000041007TSergio David             Mesas                    Moreno                    00000000          N
022016061419999000041008TMaría Leticia            Morilla                  Cala                      00000000          N
022016061419999000041009TJorge                    Figueroa                 González                  00000000          N
022016061419999000044001TFrancisco José           Barjas                   Fernández                 00000000          N
022016061419999000044010TDolores                  Alfaro                   López                     00000000          N
022016061419999000044011TJosé Antonio             Toledo                   Gavira                    00000000          N
022016061419999000044012TPilar                    Ariza                    Ruiz                      00000000          N
022016061419999000044002TGuillermo Augusto        Ramos                    Ruiz                      00000000          N
022016061419999000044003TMaría Isabel             García                   Gahete                    00000000          N
022016061419999000044004TMarcos                   Prado                    Fernández                 00000000          N
022016061419999000044005TJuana María              Leal                     León                      00000000          N
022016061419999000044006TRafael                   García                   Berzagay                  00000000          N
022016061419999000044007TSara                     Pérez                    Chomón                    00000000          N
022016061419999000044008TIgnacio                  Rubio                    Alfaro                    00000000          N
022016061419999000044009TArmando                  Cáceres                  Vázquez                   00000000          N
022016061419999000049001TCarlos                   Gómez                    Sutilo                    00000000          N
022016061419999000049010TJosé Manuel              del Valle                Gómez                     00000000          N
022016061419999000049011TAna                      Soto                     Torralbo                  00000000          N
022016061419999000049012TAntonio                  Muñoz                    Zamora                    00000000          N
022016061419999000049002TJuana                    Rodríguez                Macías                    00000000          N
022016061419999000049003TAntonio                  Valiente                 Borrego                   00000000          N
022016061419999000049004THerminia                 Godino                   Alonso                    00000000          N
022016061419999000049005TJosé Gregorio            Martín                   Carrasquilla              00000000          N
022016061419999000049006TEnrique Ignacio          Margalef                 Cubillas                  00000000          N
022016061419999000049007TPilar                    Navareño                 Mateos                    00000000          N
022016061419999000049008TJosé Carlos              Baena                    Rodríguez                 00000000          N
022016061419999000049009TMarina López             del                      Prado                     00000000          N
022016061419999000062001TSergio                   Pascual                  Peña                      00000000          S
022016061419999000062010TIsabel María             Jiménez                  García                    00000000          N
022016061419999000062011TJosé                     Rodríguez                Núñez                     00000000          N
022016061419999000062012TMaría José               Arco                     Hidalgo                   00000000          N
022016061419999000062002TMaría Auxiliadora        Honorato                 Chulián                   00000000          S
022016061419999000062003TMiguel Ángel             Bustamente               Martín                    00000000          S
022016061419999000062004TMarta                    Domínguez                Álvarez                   00000000          N
022016061419999000062005TSofía                    González                 Reguera                   00000000          N
022016061419999000062006TGranada                  Santos                   García                    00000000          N
022016061419999000062007TManuel                   Rodríguez                Guillén                   00000000          N
022016061419999000062008TRosario                  Caballero                Elena                     00000000          N
022016061419999000062009TAlejandro                Aguilar                  Sandino                   00000000          N
022016061419999000068001TJuan Ignacio             Zoido                    Álvarez                   00000000          S
022016061419999000068002TRicardo                  Tarno                    Blanco                    00000000          S
022016061419999000068010TPedro Ángel              González                 Rodríguez-Albariño        00000000          N
022016061419999000068011TVanessa María            Serrano                  Aguilar                   00000000          N
022016061419999000068012TJuan Manuel              Albendea                 Pabón                     00000000          N
022016061419999000068003TMaría Eugenia            Romero                   Rodríguez                 00000000          S
022016061419999000068004TSilvia                   Heredia                  Martín                    00000000          S
022016061419999000068005TMaría del                Lidón Guillén            Baena                     00000000          N
022016061419999000068006TMaría Teresa             Astolfi                  González-Mogena           00000000          N
022016061419999000068007TFernando Francisco       Lorenzo                  Pérez                     00000000          N
022016061419999000068008TMaría Remedios           Olmedo                   Borrego                   00000000          N
022016061419999000068009TJosé Joaquín             Hérnandez                Díaz                      00000000          N
022016061419999000077001TAntonio Francisco        Pradas                   Torres                    00000000          S
022016061419999000077010TMaría Luisa              Sánchez                  Trancoso                  00000000          N
022016061419999000077011TJuan Antonio             Jiménez                  Pinto                     00000000          N
022016061419999000077012TFeliciana                Bernal                   Romero                    00000000          N
022016061419999000077002TJuana Amalia             Rodríguez                Hernández                 00000000          S
022016061419999000077003TAntonio                  Gutiérrez                Limones                   00000000          S
022016061419999000077004TCarmen Rocío             Cuello                   Pérez                     00000000          S
022016061419999000077005TJosé Manuel              Girela de                la Fuente                 00000000          N
022016061419999000077006TTrinidad Carmen          Argota                   Castro                    00000000          N
022016061419999000077007TLuis Manuel              Rodríguez de             Tembleque Cepeda          00000000          N
022016061419999000077008TJuana María              Carmona                  González                  00000000          N
022016061419999000077009TAgustín                  Cañete                   Carmona                   00000000          N
022016061419999000081001TFrancisco Javier         Arias                    Carmona                   00000000          N
022016061419999000081010TCarmen                   Guerrero                 Martínez                  00000000          N
022016061419999000081011TJosé Alfredo             Tovar                    Cantos                    00000000          N
022016061419999000081012TAna María                López                    Delgado                   00000000          N
022016061419999000081002TAntonio Luis             Marín                    Garzón                    00000000          N
022016061419999000081003TFrancisco                Vicedo                   Carmona                   00000000          N
022016061419999000081004TEncarnación              García                   Manzano                   00000000          N
022016061419999000081005TFrancisca                Álvarez                  Pérez                     00000000          N
022016061419999000081006TÁngel                    Moreno                   Fernández                 00000000          N
022016061419999000081007TFrancisco                Gómez                    Rodríguez                 00000000          N
022016061419999000081008TMaría del                Carmen Lozano            Vega                      00000000          N
022016061419999000081009TMaría Ángeles            Márquez                  Pavón                     00000000          N
022016061419999000093001TGuillermo Ferrer         Sánchez de               Movellán                  00000000          N
022016061419999000093010TNatalia Teresa           Cambeiro                 Méndez                    00000000          N
022016061419999000093011TRosario                  Vázquez                  Pino                      00000000          N
022016061419999000093012TJuan Antonio             Peña                     Torres                    00000000          N
022016061419999000093002TMaría del                Carmen Lamana            Gómez                     00000000          N
022016061419999000093003TEmmanuel                 Baena                    Fernández                 00000000          N
022016061419999000093004TIsabel María             González                 Blanquero                 00000000          N
022016061419999000093005TJesús María              Cornac                   Fisas                     00000000          N
022016061419999000093006TAlfonso Carlos           Arce                     Madruga                   00000000          N
022016061419999000093007TRaquel del               Pilar González           Bolea                     00000000          N
022016061419999000093008TEmilio Antonio           León Sanz                Mazuelos                  00000000          N
022016061419999000093009TRocío                    González                 Blanquero                 00000000          N
022016061419999000094001TJavier                   Cortés                   Lucena                    00000000          N
022016061419999000094010TMaría José               Lucena                   Varea                     00000000          N
022016061419999000094011TManuel                   Otero                    Pascual                   00000000          N
022016061419999000094012TRocío                    Molina                   León                      00000000          N
022016061419999000094002TFátima                   Azmani                   Ramírez                   00000000          N
022016061419999000094003TJesús                    Graciani                 Alonso                    00000000          N
022016061419999000094004TMaría de                 los Reyes                Romero Vilches            00000000          N
022016061419999000094005TJosé Antonio             Rodríguez                Hervella                  00000000          N
022016061419999000094006TMaría Dolores            López-Bellido            Garrido                   00000000          N
022016061419999000094007TRafael                   Morillo                  Salvador                  00000000          N
022016061419999000094008TMaría                    Triguero                 Piñero                    00000000          N
022016061419999000094009TAlfonso                  Díaz                     Marín                     00000000          N
022016061229999000013001TJorge                    Capella                  Callaved                  00000000          N
022016061229999000013002TAna María                Jiménez                  Val                       00000000          N
022016061229999000013003TMaría José               Espín                    Utrera                    00000000          N
022016061229999000017001TÁlvaro                   García                   Cortés                    00000000          N
022016061229999000017002TAna Rosa                 Lobera                   Serrano                   00000000          N
022016061229999000017003TDiego                    Guallart                 Gil                       00000000          N
022016061229999000024001TChabier                  Vicente                  Moreno                    00000000          N
022016061229999000024002TMaría Teresa             Calvo                    Chivite                   00000000          N
022016061229999000024003TVicente                  Mairal                   Fañanás                   00000000          N
022016061229999000039001TAbel                     Lúcia                    Rivera                    00000000          N
022016061229999000039002TAna                      Castiella                Cosculluela               00000000          N
022016061229999000039003TRobert                   Molla                    Pérez                     00000000          N
022016061229999000041001TMaría del                Mar Rodrigo              Marín                     00000000          N
022016061229999000041002TSantiago                 Vilar                    Marín                     00000000          N
022016061229999000041003TMagdalena                Tello                    Mudarra                   00000000          N
022016061229999000049001TAntonio                  Moles                    Castán                    00000000          N
022016061229999000049002TLucía                    Roca                     Guardia                   00000000          N
022016061229999000049003TFrancisco Javier         Fauvell                  Fuste                     00000000          N
022016061229999000060001TJorge                    Luis                     Baíl                      00000000          S
022016061229999000060002TAmor                     Olomí                    Calderón                  00000000          N
022016061229999000060003TTrinidad                 Rincón                   Carmona                   00000000          N
022016061229999000071001TAna Isabel               Alós                     López                     00000000          S
022016061229999000071002TManuel                   Mora                     Bernat                    00000000          N
022016061229999000071003TJulio                    Riverola                 Atarés                    00000000          N
022016061229999000077001TGonzalo                  Palacín                  Guarné                    00000000          S
022016061229999000077002TRosa María               Gerbás                   Aragüés                   00000000          N
022016061229999000077003TAlfonso                  Adán                     Pozo                      00000000          N
022016061229999000081001TFrancisco Javier         Guiu                     Benito                    00000000          N
022016061229999000081002TMaría Ángeles            Calavera                 Beltrán                   00000000          N
022016061229999000081003TRubén                    Larrayad                 Moneo                     00000000          N
022016061229999000093001TAránzazu                 Simón                    Pérez                     00000000          N
022016061229999000093002TFrancisco Javier         Peleato González         Gallego                   00000000          N
022016061229999000093003TMario                    Gracia                   Gallego                   00000000          N
022016061229999000094001TJuan José                García                   Giménez                   00000000          N
022016061229999000094002TLucía Manuela            Rojo Cañedo              Argüelles                 00000000          N
022016061229999000094003THicham                   Choaibi                  Choaibi                   00000000          N
022016061449999000013003TAntonio                  Miguel                   Seron                     00000000          N
022016061449999000013001TNomaya                   Prats                    Joven                     00000000          N
022016061449999000013002TFrancisco                Blas                     Ávila                     00000000          N
022016061449999000017001TÁngeles                  Cabestre                 Ramos                     00000000          N
022016061449999000017002TOliver                   Navarrete                Cabestre                  00000000          N
022016061449999000017003TVanesa                   Yaniz                    Lacarra                   00000000          N
022016061449999000028001TEnrique                  Villanueva               Edo                       00000000          N
022016061449999000028002TAlba                     Navarro                  Salvador                  00000000          N
022016061449999000028003TJavier                   Boix                     Zorrilla                  00000000          N
022016061449999000034001TAlfonso                  Gómez                    Torcal                    00000000          N
022016061449999000034002TNuria                    Lafuente                 Sánchez                   00000000          N
022016061449999000034003TÁngel                    Alaman                   Muñoz                     00000000          N
022016061449999000039001TFrancisco de             Asís García              Sánchez                   00000000          N
022016061449999000039002TMaría del                Carmen Martínez          Heredia                   00000000          N
022016061449999000039003TJonatan García           del Pozo                 Rodríguez                 00000000          N
022016061449999000041001TAnna                     Martínez                 Zaragoza                  00000000          N
022016061449999000041002TPascual Javier           Vera                     Castejón                  00000000          N
022016061449999000041003TMarta                    Po                       Marquina                  00000000          N
022016061449999000049001TVanessa                  Pozo                     García                    00000000          N
022016061449999000049002TCristobal                Sanchís                  Blasco                    00000000          N
022016061449999000049003TMaría Carmen             García                   García                    00000000          N
022016061449999000061001TDaniel                   Palomo                   Espallargas               00000000          N
022016061449999000061002TMaría                    Galindo                  Rodríguez                 00000000          N
022016061449999000061003TAitor                    Clemente                 Guillén                   00000000          N
022016061449999000071001TManuel                   Blasco                   Marqués                   00000000          S
022016061449999000071002TJosé Alberto             Herrero                  Bono                      00000000          S
022016061449999000071003TOlga                     Sánchez                  Sánchez                   00000000          N
022016061449999000077001TIgnacio                  Urquizu                  Sancho                    00000000          S
022016061449999000077002TSilvia Inés              Gimeno                   Gascón                    00000000          N
022016061449999000077003TCarlos                   Casares                  Igual                     00000000          N
022016061449999000081001TNoemí                    Larrayad                 Moneo                     00000000          N
022016061449999000081002TLuís Fernando            Martínez                 Pérez                     00000000          N
022016061449999000081003TMaría Yolanda            Alarcón                  Ruiz                      00000000          N
022016061449999000087001THelen                    Mukoro                   Idisi                     00000000          N
022016061449999000087002TJosé                     Morillo                  Pérez                     00000000          N
022016061509999000013005TMaría Pilar              Llamas                   Binaburo                  00000000          N
022016061449999000087003TPaulina María            Herrera                  Espinal                   00000000          N
022016061509999000013001TRodrigo                  Gómez                    García                    00000000          S
022016061509999000013002TLorenzo                  Sancho                   Redondo                   00000000          N
022016061509999000013003TSheila                   Lahilla                  Royo                      00000000          N
022016061509999000013004TDavid José               Visus                    Blasco                    00000000          N
022016061509999000013006TLuis Antonio             Lahuerta                 Sopesens                  00000000          N
022016061509999000013007TElisa                    Sacacia                  Larrayad                  00000000          N
022016061509999000017001TJuan                     García                   Corzán                    00000000          N
022016061509999000017002TMaría Ángeles            Gómez                    Buil                      00000000          N
022016061509999000017003TMiguel Angel             Clavero                  Royo                      00000000          N
022016061509999000017004TPaula                    Conde                    Vazquez                   00000000          N
022016061509999000017005TRafael                   Peralta                  Guerrero                  00000000          N
022016061509999000017006TSalomé Pérez             de Viñaspre              Adrados                   00000000          N
022016061509999000017007TSantiago                 Arque                    Clavero                   00000000          N
022016061509999000034001TAmadeo                   Escolán                  Remártinez                00000000          N
022016061509999000034002TLorenzo                  Iriarte                  Galiacho                  00000000          N
022016061509999000034003TFernando Benjamín        Ruiz                     Sebastián                 00000000          N
022016061509999000034004TCecilia                  Márquez                  Rufaco                    00000000          N
022016061509999000034005TMaría Mercedes           Mariblanca               Morales                   00000000          N
022016061509999000034006TFrancisco Javier         de la                    Rosa Lanuza               00000000          N
022016061509999000034007TMarta                    Abad                     Torres                    00000000          N
022016061509999000039001TAdrían Santiago          Lafuente                 Fajardo                   00000000          N
022016061509999000039002TJoaquín Valentín         Pizarro                  Montorio                  00000000          N
022016061509999000039003TAna Isabel               García                   Calvo                     00000000          N
022016061509999000039004TMaría Isabel             Echeverría               Guerrero                  00000000          N
022016061509999000039005TLuis Francisco           Martínez                 Royo                      00000000          N
022016061509999000039006TMaría Luisa              Edo                      Artiaga                   00000000          N
022016061509999000039007TJorge                    Torrijos                 Benito                    00000000          N
022016061509999000041001TOlga                     García                   Sanz                      00000000          N
022016061509999000041002TMarta                    González                 Juncosa                   00000000          N
022016061509999000041006TRebeca                   Vera                     Pascual                   00000000          N
022016061509999000041003TIván                     Echeverria               Ciaurri                   00000000          N
022016061509999000041004TJorge Pablo              Gabás                    Canelo                    00000000          N
022016061509999000041005TMaría Begoña             Goitia                   Medina                    00000000          N
022016061509999000041007TJorge                    Castillo                 Pérez                     00000000          N
022016061509999000049001TCarlos                   Martinez                 Agustin                   00000000          N
022016061509999000049002TAlberto                  Sopeña                   Borroy                    00000000          N
022016061509999000049003TMarina                   Lapuente                 Rey                       00000000          N
022016061509999000049004TAdrian                   Bertol                   Pinilla                   00000000          N
022016061509999000049005TAriadna                  Nuñez                    Gonzalez                  00000000          N
022016061509999000049006TCristian                 Ferrer                   Garcia                    00000000          N
022016061509999000049007TMaria Isabel             Gonzalez                 Lancharro                 00000000          N
022016061509999000061001TPedro                    Arrojo                   Agudo                     00000000          S
022016061509999000061002TRosa María               Matilde Artal            Martínez                  00000000          N
022016061509999000061003TMaría Rosa               Magallón                 Botaya                    00000000          N
022016061509999000061004TMaría Carmen             López                    Miguel                    00000000          N
022016061509999000061005TJoan Vila                i                        Bonet                     00000000          N
022016061509999000061006TMaría Luisa              Broto                    Bernués                   00000000          N
022016061509999000061007TPedro José               Santisteve               Roche                     00000000          N
022016061509999000071001TEloy                     Suárez                   Lamata                    00000000          S
022016061509999000071002TPilar                    Cortés                   Bureta                    00000000          S
022016061509999000071003TRamón                    Moreno                   Bustos                    00000000          S
022016061509999000071004TSara                     Cobos                    Trallero                  00000000          N
022016061509999000071005TJosé Manuel              Aranda                   Lassa                     00000000          N
022016061509999000071006TOscar                    Cámara                   Gil                       00000000          N
022016061509999000071007TInés                     Bellido                  Octavio                   00000000          N
022016061509999000077001TSusana                   Sumelzo                  Jordán                    00000000          S
022016061509999000077002TOscar                    Galeano                  Gracia                    00000000          S
022016061509999000077003TRuth Mª                  Vallejo                  Dacosta                   00000000          N
022016061509999000077004TVíctor Ruiz              de                       Diego                     00000000          N
022016061509999000077005TMónica                   Sanz                     Abad                      00000000          N
022016061509999000077006TLuís                     Zubieta                  Lacámara                  00000000          N
022016061509999000077007TMarta                    Azagra                   Marco                     00000000          N
022016061509999000081001TAna Luisa                Blasco                   Peco                      00000000          N
022016061509999000081002TBlas                     Guevara                  Prieto                    00000000          N
022016061509999000081003TÁngeles                  Chueca                   Perales                   00000000          N
022016061509999000081004TJuan Antonio             Olalla                   Gómez                     00000000          N
022016061509999000081005TAna                      Arguedas                 Gaspar                    00000000          N
022016061509999000081006TNatalia                  Montalbo                 Oliveira                  00000000          N
022016061509999000081007TRaul                     Iliarte                  Miñana                    00000000          N
022016061509999000093001TJesús                    López                    Floria                    00000000          N
022016061509999000093002TSilvia                   Miguelena                Abelló                    00000000          N
022016061509999000093003TÁngel Javier             López                    Capape                    00000000          N
022016061509999000093004TMiguel Ángel             Mateu                    Bardaji                   00000000          N
022016061509999000093005TÁngela Avelina           Diest                    Esco                      00000000          N
022016061509999000093006TJuan Antonio             González                 Velasco                   00000000          N
022016061509999000093007TSilvia                   Gómez                    Álvarez                   00000000          N
022016061509999000094001TSantiago                 Morón                    Sanjuan                   00000000          N
022016061509999000094002TAna Carmen               Urcelay                  Solans                    00000000          N
022016061509999000094003TAlfredo                  Quintana                 Machin                    00000000          N
022016061509999000094004TAna                      Arnedo                   Abad                      00000000          N
022016061509999000094005TErnesto Pinilla          del                      Rosario                   00000000          N
022016061509999000094006TJuana Maria              Lacarda                  Larrode                   00000000          N
022016061509999000094007TJose Manuel              Alonso                   Latasa                    00000000          N
022016061339999000013003TPedro Luis               González                 Santín                    00000000          N
022016061339999000013001TJosé Ignacio             Prendes                  Prendes                   00000000          S
022016061339999000013002TAna María                Fernández del            Caño                      00000000          N
