021996031049999000032001TANTONIO RODRIGUEZ HERRERO                                                   000000000000000000N
021996031049999000032002TVICTOR GERMAN TROYANO ESCALANTE                                             000000000000000000N
021996031049999000032003TFRANCISCO CORTES FAJARDO                                                    000000000000000000N
021996031049999000032004TJOSE RUEDA DOMINGUEZ                                                        000000000000000000N
021996031049999000032005TJUAN ANTONIO FORTES MORENO                                                  000000000000000000N
021996031049999000051001TDIEGO JESUS CERVANTES OCAÑA                                                 000000000000000000N
021996031049999000051002TCONCEPCION MARQUEZ FERNANDEZ                                                000000000000000000N
021996031049999000051003TMANUEL DEL PINO BERENGUEL                                                   000000000000000000N
021996031049999000051004TCARMEN GONZALEZ ESPINOSA                                                    000000000000000000N
021996031049999000051005TCRISTOBAL MARIN MARTINEZ                                                    000000000000000000N
021996031049999000065001TEMILIO SOLER MARIÑO                                                         000000000000000000N
021996031049999000065002TMARIA DOLORES JUNCO GONZALEZ                                                000000000000000000N
021996031049999000065003TJOAQUIN SALMERON RUBIO                                                      000000000000000000N
021996031049999000065004TFRANCISCA AMADOR SANTIAGO                                                   000000000000000000N
021996031049999000065005TJOSE MIGUEL GUERRERO BONACHERA                                              000000000000000000N
021996031049999000068001TJOSE PORCEL PRAENA                                                          000000000000000000N
021996031049999000068002TJUAN MARTINEZ GONZALEZ                                                      000000000000000000N
021996031049999000068003TILDEFONSO ROMAN GRANADOS                                                    000000000000000000N
021996031049999000068004TTEOFILO MONTOYA SOLA                                                        000000000000000000N
021996031049999000068005TJUAN PARRA PARRA                                                            000000000000000000N
021996031049999000074001TJULIA RODRIGUEZ PEREZ                                                       000000000000000000N
021996031049999000074002TJAIME GARCIA MORALES                                                        000000000000000000N
021996031049999000074003TMARIA SOLEDAD SANCHEZ LOPEZ                                                 000000000000000000N
021996031049999000074004TPAULINO GOMEZ MONTES                                                        000000000000000000N
021996031049999000074005TWILMA ROMAN HERRERA                                                         000000000000000000N
021996031049999000081001TMARIA JOSE GALLARDO CHICA                                                   000000000000000000N
021996031049999000081002TSILVIA MARIA HEREDIA GUTIERREZ                                              000000000000000000N
021996031049999000081003TMIGUEL ANGEL DIAZ GALVEZ                                                    000000000000000000N
021996031049999000081004TROSARIO IBAÑEZ LOPEZ                                                        000000000000000000N
021996031049999000081005TANTONIO CAMPOS SANCHEZ                                                      000000000000000000N
021996031049999000091001TMANUEL ARQUEROS OROZCO                                                      000000000000000000S
021996031049999000091002TRAFAEL ANTONIO HERNANDO FRAILE                                              000000000000000000S
021996031049999000091003TRAFAEL ANGEL SALAS MARIN                                                    000000000000000000N
021996031049999000091004TFLAVIA RUIZ ASENSIO                                                         000000000000000000N
021996031049999000091005TMARIA PILAR PEREZ VAQUERO                                                   000000000000000000N
021996031049999000101001TJUAN GREGORIO CASTRO LUACES                                                 000000000000000000N
021996031049999000101002TJUSTO ANGEL MONTESEIRIN PORTILLO                                            000000000000000000N
021996031049999000101003TEMILIO SUAREZ SANCHEZ                                                       000000000000000000N
021996031049999000101004TMARIA PALOMARES ARENAS CABRAL                                               000000000000000000N
021996031049999000101005TFRANCISCO EUGENIO SANCHEZ GARCIA                                            000000000000000000N
021996031049999000109001TJOSE ANTONIO AMATE RODRIGUEZ                                                000000000000000000S
021996031049999000109002TMARIA CRISTINA NARBONA RUIZ                                                 000000000000000000S
021996031049999000109003TMARIA ISABEL SALINAS GARCIA                                                 000000000000000000S
021996031049999000109004TADOLFO GARCIA DE VIANA CARDENAS                                             000000000000000000N
021996031049999000109005TBASILISA IBAÑEZ ALBA                                                        000000000000000000N
021996031049999000116001TMARIA TERESA CRISTINA CAMPOS SANCHEZ                                        000000000000000000N
021996031049999000116002TNICOLAS FERNANDEZ DE LARA REYES                                             000000000000000000N
021996031049999000116003TMARIA DOLORES CORRALES PEREZ                                                000000000000000000N
021996031049999000116004TPEDRO LUIS ORDEJON MATEO                                                    000000000000000000N
021996031049999000116005TCARMEN MARIA GOMEZ CALDERON                                                 000000000000000000N
021996031119999000032001TJOSE LUIS ANTOLIN DE ANTONIO                                                000000000000000000N
021996031119999000032002TALFREDO REVUELTA CORRAL                                                     000000000000000000N
021996031119999000032003TJOSE MANUEL RUIZ VELA                                                       000000000000000000N
021996031119999000032004TMARIA JOSE SABATER PARALLE                                                  000000000000000000N
021996031119999000032005TFRANCISCO GUTIERREZ MARQUEZ                                                 000000000000000000N
021996031119999000032006TROGELIO ANTONIO GOMEZ GOMEZ                                                 000000000000000000N
021996031119999000032007TCRISTOBAL GARCIA SUPERVIELLE                                                000000000000000000N
021996031119999000032008TAMBROSIO VARO PAREJA                                                        000000000000000000N
021996031119999000032009TEMILIO JIMENEZ NAVAS                                                        000000000000000000N
021996031119999000051001TWILLY ENRIQUE MEYER PLEITE                                                  000000000000000000S
021996031119999000051002TGERVASIO MANUEL HERNANDEZ PALOMEQUE                                         000000000000000000N
021996031119999000051003TMARIA LOURDES OJEDA NUÑEZ                                                   000000000000000000N
021996031119999000051004TANGEL FUENTES MORENO                                                        000000000000000000N
021996031119999000051005TIGNACIO PELAYO GARCIA RODRIGUEZ                                             000000000000000000N
021996031119999000051006TMARIA DEL PILAR TERESA DE JESUS ROMERO CAMPUZANO                            000000000000000000N
021996031119999000051007TJUAN JIMENEZ MARIN                                                          000000000000000000N
021996031119999000051008TARACELI GARRIDO LINARES                                                     000000000000000000N
021996031119999000051009TMANUEL CARDENAS MORENO                                                      000000000000000000N
021996031119999000065001TNORBERTO MARQUEZ RODRIGUEZ                                                  000000000000000000N
021996031119999000065002TFRANCISCO JAVIER FOSSATI GUTIERREZ                                          000000000000000000N
021996031119999000065003TMARIA DEL CARMEN SANCHEZ GARCIA                                             000000000000000000N
021996031119999000065004TEDUARDO SEGURA GARCIA                                                       000000000000000000N
021996031119999000065005TLUIS MIGUEL MUÑOZ PAYA                                                      000000000000000000N
021996031119999000065006TDAVID GONZALEZ DIAZ                                                         000000000000000000N
021996031119999000065007TFRANCISCO JAVIER BEJAR BOLAINO                                              000000000000000000N
021996031119999000065008TMIGUEL ANGEL CARMONA MELERO                                                 000000000000000000N
021996031119999000065009TANTONIO DELGADO GAVILAN                                                     000000000000000000N
021996031119999000068001TANTONIO PATRICIO GONZALEZ GARCIA                                            000000000000000000N
021996031119999000068002TRAMON SANCHEZ HEREDIA                                                       000000000000000000N
021996031119999000068003TANTONIO PRATS RIVERO                                                        000000000000000000N
021996031119999000068004TVICENTE MORENO FLORES                                                       000000000000000000N
021996031119999000068005TJOSE ANTONIO GONZALEZ PAVON                                                 000000000000000000N
021996031119999000068006TMARIA DEL ROSARIO ALVAREZ ALIAS                                             000000000000000000N
021996031119999000068007TANTONIO GUERRERO AZNAR                                                      000000000000000000N
021996031119999000068008THERMENEGILDO GONZALEZ NUÑEZ                                                 000000000000000000N
021996031119999000068009TCASIANO LOPEZ PACHECO                                                       000000000000000000N
021996031119999000074001TFRANCISCO CAMPOS BLANCO                                                     000000000000000000N
021996031119999000074002TJUAN ANTONIO CABALLERO OLEA                                                 000000000000000000N
021996031119999000074003TANA BORREGO CAMACHO                                                         000000000000000000N
021996031119999000074004TMARIA LUISA MONTIS DEL RIO                                                  000000000000000000N
021996031119999000074005TJOSE ROMERO CABELLO                                                         000000000000000000N
021996031119999000074006TALVARO ROLDAN DOMINGUEZ                                                     000000000000000000N
021996031119999000074007TJOSE CANO GOMEZ                                                             000000000000000000N
021996031119999000074008TJOSE ALGABA NOA                                                             000000000000000000N
021996031119999000074009TCONCEPCION HERRERO LARA                                                     000000000000000000N
021996031119999000081001TFRANCISCO PALOMO ARAGON                                                     000000000000000000N
021996031119999000081002TDIANA MARIA MIRA GORDILLO                                                   000000000000000000N
021996031119999000081003TFRANCISCO BARROSO PEREZ                                                     000000000000000000N
021996031119999000081004TMARIA LUISA RODRIGUEZ OTERO                                                 000000000000000000N
021996031119999000081005TJUAN ANTONIO BARROSO PEREZ                                                  000000000000000000N
021996031119999000081006TMARIA DOLORES PARRA ROMERO                                                  000000000000000000N
021996031119999000081007TPEDRO MIGUEL BARROSO PEREZ                                                  000000000000000000N
021996031119999000081008TJESUS MANUEL CENDON BARROSO                                                 000000000000000000N
021996031119999000081009TJOSE VEGA MUÑOZ                                                             000000000000000000N
021996031119999000091001TMARIA TEOFILA MARTINEZ SAIZ                                                 000000000000000000S
021996031119999000091002TLUIS ANGEL FERNANDEZ RODRIGUEZ                                              000000000000000000S
021996031119999000091003TAURELIO SANCHEZ RAMOS                                                       000000000000000000S
021996031119999000091004TJUAN FRANCISCO IBAÑEZ HARO                                                  000000000000000000S
021996031119999000091005TJOSE LUIS LANDERO MATEOS                                                    000000000000000000N
021996031119999000091006TMANUELA FORJA RAMIREZ                                                       000000000000000000N
021996031119999000091007TJOSE ANTONIO SALGUERO ROSADO                                                000000000000000000N
021996031119999000091008TJORGE CARLOS MORENO OSORIO                                                  000000000000000000N
021996031119999000091009TJUSTO JOSE MASOT MONSERRAT                                                  000000000000000000N
021996031119999000101001TANGEL CARRIQUE CALDERON                                                     000000000000000000N
021996031119999000101002TROBERTO CARLOS CADIERNO MARTIN                                              000000000000000000N
021996031119999000101003THERMINIA ALARCON FERNANDEZ                                                  000000000000000000N
021996031119999000101004TJOSE MANUEL LOPEZ RUBIO                                                     000000000000000000N
021996031119999000101005TJOAQUINA SILVA DIAZ                                                         000000000000000000N
021996031119999000101006TRAMON CARDONA PALLAS                                                        000000000000000000N
021996031119999000101007TANTONIO ROMERO GALVAN                                                       000000000000000000N
021996031119999000101008TCRISTINA ALVAREZ GALERA                                                     000000000000000000N
021996031119999000101009TMARIA DEL PILAR FERNANDEZ GARCIA                                            000000000000000000N
021996031119999000109001TALFONSO PERALES PIZARRO                                                     000000000000000000S
021996031119999000109002TMARIA DEL CARMEN JULIA ROMERO LOPEZ                                         000000000000000000S
021996031119999000109003TSALVADOR ANTONIO DE LA ENCINA ORTEGA                                        000000000000000000S
021996031119999000109004TSERGIO MORENO MONROVE                                                       000000000000000000S
021996031119999000109005TMARIA COLON LOZANO                                                          000000000000000000N
021996031119999000109006TMANUEL BRENES RIVAS                                                         000000000000000000N
021996031119999000109007TFRANCISCO GIL CUEVAS                                                        000000000000000000N
021996031119999000109008TFRANCISCA VARELA CEBALLOS                                                   000000000000000000N
021996031119999000109009TPEDRO JIMENEZ GALAN                                                         000000000000000000N
021996031119999000116001TAURELIANO PEREZ GARCIA                                                      000000000000000000N
021996031119999000116002TPALOMA DOMINGO MARTINEZ                                                     000000000000000000N
021996031119999000116003TMANUEL BELTRAN RIVERO                                                       000000000000000000N
021996031119999000116004TCLARA DEL SAZ OROZCO ESTEPA                                                 000000000000000000N
021996031119999000116005TRAMON CANO LOPEZ                                                            000000000000000000N
021996031119999000116006TTERESA JOSEFA PEREZ GARCIA                                                  000000000000000000N
021996031119999000116007TLEONARDO MUÑOZ CABAÑAS                                                      000000000000000000N
021996031119999000116008TJUANA ECHARRI LAMIEL                                                        000000000000000000N
021996031119999000116009TJUAN CARLOS LOPEZ-REY MARTIN                                                000000000000000000N
021996031149999000032001TFRANCISCO ANTONIO RAMIREZ VERDU                                             000000000000000000N
021996031149999000032002TLUIS BUGELLA GOMEZ                                                          000000000000000000N
021996031149999000032003TDOLORES MARTIN CASTRO                                                       000000000000000000N
021996031149999000032004TANA LAGO RAMOS                                                              000000000000000000N
021996031149999000032005TJOSE ANTONIO VARONA VARONA                                                  000000000000000000N
021996031149999000032006TMARIA JESUS ALLONA OBREGON                                                  000000000000000000N
021996031149999000032007TFRANCISCO SANCHEZ JIMENEZ                                                   000000000000000000N
021996031149999000051001TROSA AGUILAR RIVERO                                                         000000000000000000S
021996031149999000051002TMIGUEL MORA HIDALGO                                                         000000000000000000N
021996031149999000051003TRAFAEL GARCIA CONTRERAS                                                     000000000000000000N
021996031149999000051004TNATIVIDAD MAÑAS LAHOZ                                                       000000000000000000N
021996031149999000051005TFRANCISCO JAVIER ALTAMIRANO SANCHEZ                                         000000000000000000N
021996031149999000051006TNURIA SEPULVEDA CASTILLA                                                    000000000000000000N
021996031149999000051007TMANUEL GOMEZ GOMEZ                                                          000000000000000000N
021996031149999000065001TJOSE REINA GARCIA                                                           000000000000000000N
021996031149999000065002TJUAN FERNANDO ESCOBAR LEAL                                                  000000000000000000N
021996031149999000065003TMARIA COVADONGA SANCHEZ ALONSO                                              000000000000000000N
021996031149999000065004TFRANCISCO NUÑEZ CABELLO                                                     000000000000000000N
021996031149999000065005TENRIQUE PLEGUEZUELO ACEDO                                                   000000000000000000N
021996031149999000065006TVICENTE MILLAN TORRES                                                       000000000000000000N
021996031149999000065007TMARIA DEL PILAR RECIO RECIO                                                 000000000000000000N
021996031149999000068001TMANUEL VALERIANO COBACHO MARQUEZ                                            000000000000000000N
021996031149999000068002TMIGUEL RUIZ MADRUGA                                                         000000000000000000N
021996031149999000068003TMARIA DE FATIMA PARDO VALDIVIA                                              000000000000000000N
021996031149999000068004TJOSE MARTIN NARANJO                                                         000000000000000000N
021996031149999000068005TMANUEL PERABAD MORA                                                         000000000000000000N
021996031149999000068006TJOSE GUADIX MUÑOZ GUERRERO                                                  000000000000000000N
021996031149999000068007TRAFAEL MONTAÑO MERLO                                                        000000000000000000N
021996031149999000074001TANTONIO ZURERA CAÑADILLAS                                                   000000000000000000N
021996031149999000074002TCRISTOBAL PULIDO RUEDA                                                      000000000000000000N
021996031149999000074003TJOSE MARIA PULIDO ROMERO                                                    000000000000000000N
021996031149999000074004TJOSE REYES NAVARRO                                                          000000000000000000N
021996031149999000074005TMARIA CARMEN MONTORO REINA                                                  000000000000000000N
021996031149999000074006TJUAN DIAZ PULIDO                                                            000000000000000000N
021996031149999000074007TANTONIO MONTES GUIRADO                                                      000000000000000000N
021996031149999000081001TFERNANDO MIGUEL HERNANDEZ CEREZO                                            000000000000000000N
021996031149999000081002TRAQUEL JIMENEZ NUÑEZ                                                        000000000000000000N
021996031149999000081003TYOLANDA HARO GALIANO                                                        000000000000000000N
021996031149999000081004TEVA MARIA SOLER MONTAÑEZ                                                    000000000000000000N
021996031149999000081005TJOSE CARLOS MARTIN BRIASCO                                                  000000000000000000N
021996031149999000081006TISABEL VEGAS TIRADO                                                         000000000000000000N
021996031149999000081007TFRANCISCO SANTIAGO TEJADA                                                   000000000000000000N
021996031149999000091001TDIEGO JORDANO SALINAS                                                       000000000000000000S
021996031149999000091002TJOSE MARIA ROBLES FRAGA                                                     000000000000000000S
021996031149999000091003TANGEL BLANCO MORENO                                                         000000000000000000N
021996031149999000091004TCARMEN SANTAELLA COBACHO                                                    000000000000000000N
021996031149999000091005TJUAN MARIA MUÑOZ TOMAS                                                      000000000000000000N
021996031149999000091006TMARIA ANTONIA CUADRADO MUÑOZ                                                000000000000000000N
021996031149999000091007TMARIA DEL PILAR TUÑON NIETO                                                 000000000000000000N
021996031149999000101001TBEATRIZ ALARCON FERNANDEZ                                                   000000000000000000N
021996031149999000101002TMANUEL PEREZ NAVAS                                                          000000000000000000N
021996031149999000101003TFRANCISCO MANUEL GALAN GORDILLO                                             000000000000000000N
021996031149999000101004TDANIEL MAXIMO FRONTINI IZZO                                                 000000000000000000N
021996031149999000101005TPETRA MONTERO GOMEZ                                                         000000000000000000N
021996031149999000101006TFELIPE ALEGRIA SARASIBAR                                                    000000000000000000N
021996031149999000101007TALFONSO ENRIQUE PECERO                                                      000000000000000000N
021996031149999000116001TMARIA PILAR GASCUEÑA PEREZ                                                  000000000000000000N
021996031149999000116002TRICARDO MORANTE SANCHEZ                                                     000000000000000000N
021996031149999000116003TEUGENIO PEREZ CRISPIN                                                       000000000000000000N
021996031149999000116004TMIGUEL FABIOS APARICIO                                                      000000000000000000N
021996031149999000116005TAURORA JURADO PRIETO                                                        000000000000000000N
021996031149999000116006TRAFAEL CUENCA POYATO                                                        000000000000000000N
021996031149999000116007TJESUS TEJEDOR VICENTE                                                       000000000000000000N
021996031149999000132001TJOSE ANTONIO GRIÑAN MARTINEZ                                                000000000000000000S
021996031149999000132002TCARMEN DEL CAMPO CASASUS                                                    000000000000000000S
021996031149999000132003TPEDRO MOYA MILANES                                                          000000000000000000S
021996031149999000132004TMARIA CARMEN MONTES CONTRERAS                                               000000000000000000S
021996031149999000132005TANTONIO SANCHEZ VILLAVERDE                                                  000000000000000000N
021996031149999000132006TISABEL MARIA ASUNCION NIÑOLES FERRANDEZ                                     000000000000000000N
021996031149999000132007TDIEGO FERNANDEZ JIMENEZ                                                     000000000000000000N
021996031189999000032001TJESUS DOMINGO RODRIGUEZ GOMEZ                                               000000000000000000N
021996031189999000032002TCLEMENTE BOSCH WETBESSE                                                     000000000000000000N
021996031189999000032003TALEJANDRO JESUS RODRIGUEZ REGALADO (INDEPENDIENTE)                          000000000000000000N
021996031189999000032004TPIEDAD TELLO FAGES                                                          000000000000000000N
021996031189999000032005TFRANCISCO GONZALEZ MORALES                                                  000000000000000000N
021996031189999000032006TJOSE FRANCISCO ZAFRA JIMENEZ                                                000000000000000000N
021996031189999000032007TANTONIO CORTES SANCHEZ                                                      000000000000000000N
021996031189999000051001TPEDRO VAQUERO DEL POZO                                                      000000000000000000S
021996031189999000051002TVICTORIA CALERO CARRERO                                                     000000000000000000N
021996031189999000051003TJESUS MARIA DEL RIO SANCHEZ                                                 000000000000000000N
021996031189999000051004TIDELFONSO RUIZ RODRIGUEZ                                                    000000000000000000N
021996031189999000051005TVALENTIN GONZALEZ MEDINA                                                    000000000000000000N
021996031189999000051006TMARIA ANGELES PEREZ CRUZ                                                    000000000000000000N
021996031189999000051007TINMACULADA CINTA TOSCANO VELA                                               000000000000000000N
021996031189999000065001TDIANA MARTINEZ MENDOZA                                                      000000000000000000N
021996031189999000065002TOSCAR GARCIA MAYA                                                           000000000000000000N
021996031189999000065003TANGEL MORALES AGUILAR                                                       000000000000000000N
021996031189999000065004TMIGUEL MARTIN AYLLON                                                        000000000000000000N
021996031189999000065005TEDUARDO JOSE QUESADA SIERRA                                                 000000000000000000N
021996031189999000065006TANA DOMINGUEZ FUENTES                                                       000000000000000000N
021996031189999000065007TDAVID RODRIGUEZ RAMIREZ                                                     000000000000000000N
021996031189999000068001TELADIO JOSE FERNANDEZ NIETO FERNANDEZ                                       000000000000000000N
021996031189999000068002TJOSE RUIZ GUERRERO                                                          000000000000000000N
021996031189999000068003TBERNARDO LORENZO GONZALEZ                                                   000000000000000000N
021996031189999000068004TMARIA ANGELES GARCIA FERNANDEZ                                              000000000000000000N
021996031189999000068005TANTONIO SANCHEZ ORANTES                                                     000000000000000000N
021996031189999000068006TMANUEL LOPEZ PEREGRINA                                                      000000000000000000N
021996031189999000068007TPEDRO PABLO SERRANO GONZALEZ                                                000000000000000000N
021996031189999000074001TMARIA DEL CARMEN MORENTE MUÑOZ                                              000000000000000000N
021996031189999000074002TJUAN MANUEL PUGA BARROSO                                                    000000000000000000N
021996031189999000074003TFRANCISCO DE ASIS DELGADO LOPEZ                                             000000000000000000N
021996031189999000074004TENRIQUE IGNACIO MARGALEF CUBILLAS                                           000000000000000000N
021996031189999000074005TGREGORIO TENORIO FERNANDEZ                                                  000000000000000000N
021996031189999000074006TJESUS MANUEL NARVAEZ AGENJO                                                 000000000000000000N
021996031189999000074007TMIGUEL ANGEL ROJAS MUÑOZ                                                    000000000000000000N
021996031189999000081001TJOSE SOBRINO CALDADO                                                        000000000000000000N
021996031189999000081002THERMINIA HIRALDO GOMEZ                                                      000000000000000000N
021996031189999000081003TJOSE MANUEL MARTIN CASTILLO                                                 000000000000000000N
021996031189999000081004TMARINA MATILDE MARTINEZ SERRANO                                             000000000000000000N
021996031189999000081005TALICIA GOMEZ PEREZ                                                          000000000000000000N
021996031189999000081006TJOSE MIGUEL MARTINEZ SERRANO                                                000000000000000000N
021996031189999000081007TFRANCISCO JAVIER MORA RODRIGUEZ                                             000000000000000000N
021996031189999000091001TANDRES OLLERO TASSARA                                                       000000000000000000S
021996031189999000091002TBLANCA FERNANDEZ-CAPEL BAÑOS                                                000000000000000000S
021996031189999000091003TEUGENIO ENRIQUE CASTILLO JAEN                                               000000000000000000S
021996031189999000091004TEDUARDO CARACUEL ROMERO                                                     000000000000000000N
021996031189999000091005TSANTIAGO PEREZ LOPEZ                                                        000000000000000000N
021996031189999000091006TANA FRESNEDA ALVAREZ                                                        000000000000000000N
021996031189999000091007TCARLOS ROJAS GARCIA                                                         000000000000000000N
021996031189999000101001TJUAN CARRIQUE CALDERON                                                      000000000000000000N
021996031189999000101002TFERNANDO MONTAÑO GARCIA                                                     000000000000000000N
021996031189999000101003TFRANCISCO JOSE REBOLLO FERNANDEZ (INDEPENDIENTE)                            000000000000000000N
021996031189999000101004TANGEL SANVICENTE VALONERO (INDEPENDIENTE)                                   000000000000000000N
021996031189999000101005TMARIA JOSE PEREZ TRUJILLO                                                   000000000000000000N
021996031189999000101006TJOAQUIN GARFIA LUNA                                                         000000000000000000N
021996031189999000101007TDOLORES ISABEL SANCHEZ RIVERO                                               000000000000000000N
021996031189999000109001TJOSE ENRIQUE MORATALLA MOLINA                                               000000000000000000S
021996031189999000109002TANGEL DIAZ SOL                                                              000000000000000000S
021996031189999000109003TRAFAEL ESTRELLA PEDROLA                                                     000000000000000000S
021996031189999000109004TMARIA TERESA JIMENEZ VILCHEZ                                                000000000000000000N
021996031189999000109005TJESUS ROMERO FERNANDEZ                                                      000000000000000000N
021996031189999000109006TISABEL RODRIGUEZ CALVO                                                      000000000000000000N
021996031189999000109007TFRANCISCO MARTIN GARCIA                                                     000000000000000000N
021996031189999000116001TEDUARDO SASTRE GARZON                                                       000000000000000000N
021996031189999000116002TANA MARIA RIAÑO LOPEZ                                                       000000000000000000N
021996031189999000116003TPEDRO SANCHEZ ALCAIDE                                                       000000000000000000N
021996031189999000116004TMIGUEL CRESPO MIEGIMOLLE                                                    000000000000000000N
021996031189999000116005TJUAN MANUEL JIMENEZ RUIZ                                                    000000000000000000N
021996031189999000116006TJOSE MOLEON VAQUERO                                                         000000000000000000N
021996031189999000116007TANGEL EDUARDO JORGE PALACIOS AGUIRRE                                        000000000000000000N
021996031219999000032001TMANUEL ESCUDERO DIAZ (INDEPENDIENTE)                                        000000000000000000N
021996031219999000032002THERMENEGILDO PEÑALVER GALVEZ                                                000000000000000000N
021996031219999000032003TCARLOS DAZA FERNANDEZ                                                       000000000000000000N
021996031219999000032004TAGUSTIN SANCHEZ SANCHEZ                                                     000000000000000000N
021996031219999000032005TJOSE ZARAGOZA MACIA                                                         000000000000000000N
021996031219999000051001TFRANCISCO ORTA BUENO                                                        000000000000000000N
021996031219999000051002TMARIA PILAR MOSQUERA PADIN                                                  000000000000000000N
021996031219999000051003TVICTORIO LUIS GARCIA HIDALGO                                                000000000000000000N
021996031219999000051004TMARIA LUISA DOMINGUEZ NUÑEZ                                                 000000000000000000N
021996031219999000051005TMANUEL DIAZ SALGADO                                                         000000000000000000N
021996031219999000065001TMARIA PILAR SOSA SANCHEZ                                                    000000000000000000N
021996031219999000065002TFERNANDO ALVAREZ MORA                                                       000000000000000000N
021996031219999000065003TIGNACIO VALLES SILVAN                                                       000000000000000000N
021996031219999000065004TROCIO GOMEZ ALFONSO                                                         000000000000000000N
021996031219999000065005TMARIA TERESA GONZALEZ GOMEZ                                                 000000000000000000N
021996031219999000068001TJACINTO CRIADO CHAPARRO                                                     000000000000000000N
021996031219999000068002TANTONIA GRAO FANECA                                                         000000000000000000N
021996031219999000068003TMANUELA C. RASCO PEÑA                                                       000000000000000000N
021996031219999000068004TJOSE IGNACIO CUCALA FEU                                                     000000000000000000N
021996031219999000068005TFERNANDO HIDALGO FERNANDEZ                                                  000000000000000000N
021996031219999000074001TFRANCISCO BARRIGA VISO                                                      000000000000000000N
021996031219999000074002TJOSE RODRIGUEZ PULGAR                                                       000000000000000000N
021996031219999000074003TLEONOR CAMPOS BLANCO                                                        000000000000000000N
021996031219999000074004TJOSE ANTONIO RODRIGUEZ BURRERO                                              000000000000000000N
021996031219999000074005TANTONIO MOLINA JIMENEZ                                                      000000000000000000N
021996031219999000081001TENCARNACION CARRASCO CAMACHO                                                000000000000000000N
021996031219999000081002TJESUS ANGEL MARURI RODRIGUEZ                                                000000000000000000N
021996031219999000081003TESPERANZA GODOY LUNA                                                        000000000000000000N
021996031219999000081004TMONTSERRAT MARTIN FERNANDEZ                                                 000000000000000000N
021996031219999000081005TRAFAEL FERNANDEZ NAVARRO                                                    000000000000000000N
021996031219999000091001TLUIS MARQUINEZ MARQUINEZ                                                    000000000000000000S
021996031219999000091002TPILAR PULGAR FRAILE                                                         000000000000000000S
021996031219999000091003TFATIMA BAÑEZ GARCIA                                                         000000000000000000N
021996031219999000091004TWENCESLAO FONT BRIONES                                                      000000000000000000N
021996031219999000091005TJOSE NIEVES GALVIN                                                          000000000000000000N
021996031219999000101001TFRANCISCO SANCHEZ MARTINEZ                                                  000000000000000000N
021996031219999000101002TESTHER CONDE EUJEN (INDEPENDIENTE)                                          000000000000000000N
021996031219999000101003TIRENE JUAN CHICO                                                            000000000000000000N
021996031219999000101004TFRANCISCO RAMIREZ MONTE (INDEPENDIENTE)                                     000000000000000000N
021996031219999000101005TPAULINO GARCIA PEREZ                                                        000000000000000000N
021996031219999000109001TCARLOS MANUEL NAVARRETE MERINO                                              000000000000000000S
021996031219999000109002TJAIME JAVIER BARRERO LOPEZ                                                  000000000000000000S
021996031219999000109003TJOSE JENARO GREGORIO GARCIA-ARRECIADO BATANERO                              000000000000000000S
021996031219999000109004TMARIA TERESA DEL CARMEN CAMACHO VAZQUEZ                                     000000000000000000N
021996031219999000109005TELENA RINCON RUFO                                                           000000000000000000N
021996031219999000116001TJUAN MANUEL MARTIN RIVERO                                                   000000000000000000N
021996031219999000116002TOLIVA MARIA FERNANDEZ RODRIGUEZ                                             000000000000000000N
021996031219999000116003TMANUEL JESUS SANCHEZ REQUENA                                                000000000000000000N
021996031219999000116004TMARIA DEL ROSARIO FERNANDEZ RODRIGUEZ                                       000000000000000000N
021996031219999000116005TMARIA BELEN MARTIN SAMPER                                                   000000000000000000N
021996031239999000032001TPEDRO MANUEL SERRANO PEREZ                                                  000000000000000000N
021996031239999000032002TFRANCISCO JAVIER CARRASCOSA SALGUERO                                        000000000000000000N
021996031239999000032003TANTONIO GOMEZ LILLO                                                         000000000000000000N
021996031239999000032004TALFONSO TOLEDANO SALVADOR                                                   000000000000000000N
021996031239999000032005TMARINO HERNANDEZ JIMENEZ                                                    000000000000000000N
021996031239999000032006TMANUEL GARCIA MONTILLA                                                      000000000000000000N
021996031239999000051001TLUIS SEGURA PEÑAS                                                           000000000000000000N
021996031239999000051002TMERCEDES MENSAN LAINEZ                                                      000000000000000000N
021996031239999000051003TJUAN PEREZ SANCHEZ                                                          000000000000000000N
021996031239999000051004TPETRA GUSANO MARTINEZ                                                       000000000000000000N
021996031239999000051005TFRANCISCO SERRANO JODAR                                                     000000000000000000N
021996031239999000051006TJUAN BENIGNO JURADO ORTEGA                                                  000000000000000000N
021996031239999000065001TJOSE ANTONIO JUNCO GONZALEZ                                                 000000000000000000N
021996031239999000065002TJUAN LOZANO VILCHEZ                                                         000000000000000000N
021996031239999000065003TISABEL LOPEZ ZARAGOZA                                                       000000000000000000N
021996031239999000065004TALICIA JUNCO GONZALEZ                                                       000000000000000000N
021996031239999000065005TMATILDE SANCHEZ JIMENEZ                                                     000000000000000000N
021996031239999000065006TNICOLAS PEDRO JUNCO LOPEZ                                                   000000000000000000N
021996031239999000068001TPEDRO ANTONIO HERRERA LASERNA                                               000000000000000000N
021996031239999000068002TJOSE CARLOS ORTEGA MORENO                                                   000000000000000000N
021996031239999000068003TMIGUEL ANGEL LAGUNAS NAVIDAD                                                000000000000000000N
021996031239999000068004TJOSEFA PADILLA LOPEZ                                                        000000000000000000N
021996031239999000068005TSIXTO RUIZ COCA                                                             000000000000000000N
021996031239999000068006TFAUSTO LIEBANAS MORALES                                                     000000000000000000N
021996031239999000074001TCARMEN BUITRAGO JIMENEZ (INDEPENDIENTE)                                     000000000000000000N
021996031239999000074002TFRANCISCO CANO MOYA                                                         000000000000000000N
021996031239999000074003TMIGUEL FUENTES ROJAS                                                        000000000000000000N
021996031239999000074004TROSA TORRES VILLAR                                                          000000000000000000N
021996031239999000074005TJUAN ALONSO CAÑADAS RUIZ                                                    000000000000000000N
021996031239999000074006TMARIA CARMEN GALERA CORPAS                                                  000000000000000000N
021996031239999000081001TDAVID GOMEZ ORDOÑEZ                                                         000000000000000000N
021996031239999000081002TJOSE MIGUEL GONZALEZ RODRIGUEZ                                              000000000000000000N
021996031239999000081003TANTONIO LUIS CORDON CORTINA                                                 000000000000000000N
021996031239999000081004TERIKA SILVIA GARCIA NOLTING                                                 000000000000000000N
021996031239999000081005TREMEDIOS VALDERRAMA DOÑA                                                    000000000000000000N
021996031239999000081006TMARTA SANTOS MORENO                                                         000000000000000000N
021996031239999000091001TGABINO PUCHE RODRIGUEZ-ACOSTA                                               000000000000000000S
021996031239999000091002TLUIS DE TORRES GOMEZ                                                        000000000000000000S
021996031239999000091003TJAVIER IGNACIO GARCIA GOMEZ                                                 000000000000000000S
021996031239999000091004TFRANCISCO ARMIJO HIGUERAS                                                   000000000000000000N
021996031239999000091005TMARIA TERESA GIMENEZ MENA                                                   000000000000000000N
021996031239999000091006TRAFAEL JOSE LOPEZ FERNANDEZ                                                 000000000000000000N
021996031239999000101001TANTONIO MUÑOZ SEGURA                                                        000000000000000000N
021996031239999000101002TMANUEL LADISLAO PRATS NAVARRO                                               000000000000000000N
021996031239999000101003TANGEL MONTESEIRIN PORTILLO                                                  000000000000000000N
021996031239999000101004TJUAN LUIS LOZANO LAGARES                                                    000000000000000000N
021996031239999000101005TALEJANDRA MARTINEZ GOMEZ (INDEPENDIENTE)                                    000000000000000000N
021996031239999000101006TANA HERNANDEZ SANCHEZ                                                       000000000000000000N
021996031239999000109001TJOSE PLIEGO CUBERO                                                          000000000000000000S
021996031239999000109002TMARIA TERESA FERNANDEZ DE LA VEGA SANZ(INDEPENDIEN                          000000000000000000S
021996031239999000109003TMARIA DEL CARMEN CALLEJA DE PABLO                                           000000000000000000S
021996031239999000109004TANTONIO MARTIN MESA (INDEPENDIENTE)                                         000000000000000000N
021996031239999000109005TNATIVIDAD REDONDO CRESPO                                                    000000000000000000N
021996031239999000109006TJUAN RAMON ROMERO JURADO                                                    000000000000000000N
021996031239999000116001TJUAN PEDRO GONZALEZ HERVAS                                                  000000000000000000N
021996031239999000116002TMIGUEL REYES LORITE                                                         000000000000000000N
021996031239999000116003TMARIA CARMEN SUAREZ RUANO                                                   000000000000000000N
021996031239999000116004TJOSE GARRIDO ESCOBAR                                                        000000000000000000N
021996031239999000116005TANA MARIA VILCHES REYES                                                     000000000000000000N
021996031239999000116006TMARIA CARMEN DEL CASTILLO CARREÑO                                           000000000000000000N
021996031299999000032001TFRANCISCO ORTIZ LOZANO                                                      000000000000000000N
021996031299999000032010TDOLORES MOYANO TRUJILLO                                                     000000000000000000N
021996031299999000032002TJUAN JOSE DIEGO BARQUIN                                                     000000000000000000N
021996031299999000032003TJOSE JAVIER MARTINEZ RUIZ                                                   000000000000000000N
021996031299999000032004TANTONIO ROMAY MARTINEZ                                                      000000000000000000N
021996031299999000032005TMARIA DEL CARMEN HOLGADO GAMEZ                                              000000000000000000N
021996031299999000032006TMANUEL QUINTANILLA SANCHEZ-AJOFRIN                                          000000000000000000N
021996031299999000032007TVICENTE RUANO BUSTOS                                                        000000000000000000N
021996031299999000032008TFRANCISCO RODRIGUEZ DE HINOJOSA TRABADELA                                   000000000000000000N
021996031299999000032009TJUAN DUARTE BERROCAL                                                        000000000000000000N
021996031299999000051001TJOSE LUIS CENTELLA GOMEZ                                                    000000000000000000S
021996031299999000051010TJOSE ORTIGOSA RUIZ                                                          000000000000000000N
021996031299999000051002TANGEL GALAN SANCHEZ                                                         000000000000000000N
021996031299999000051003TANGELES FIDALGO DELGADO                                                     000000000000000000N
021996031299999000051004TJUAN GAVILAN PERDIGUERO                                                     000000000000000000N
021996031299999000051005TPEDRO MORENO BRENES                                                         000000000000000000N
021996031299999000051006TREMEDIOS RAMOS SANCHEZ                                                      000000000000000000N
021996031299999000051007TJOSE CABRERA DIAZ                                                           000000000000000000N
021996031299999000051008TAMALIA MARIA JIMENEZ JIMENEZ                                                000000000000000000N
021996031299999000051009TANA MARIA MERCHAN GUERRERO                                                  000000000000000000N
021996031299999000065001TNIEVES PURIFICACION SANCHEZ SUAREZ                                          000000000000000000N
021996031299999000065010TLUIS ANTONIO BAHILLO LEAL                                                   000000000000000000N
021996031299999000065002TJUANA DEL PILAR SERVERA GONZALEZ                                            000000000000000000N
021996031299999000065003TANTONIO MARCIAL ALARCON DE LEON                                             000000000000000000N
021996031299999000065004TJOSE LUIS MONTOYA MORENO                                                    000000000000000000N
021996031299999000065005TMARIA LUZ VARON CUADROS                                                     000000000000000000N
021996031299999000065006TCLARA EUGENIA PEROGIL ASENSIO                                               000000000000000000N
021996031299999000065007TJOSE IGNACIO RASO MORENO                                                    000000000000000000N
021996031299999000065008TROBERTO TORRES CAZORLA                                                      000000000000000000N
021996031299999000065009TFRANCISCO ALVARO CASTILLO MORON                                             000000000000000000N
021996031299999000068001TMANUEL BERENGUER PEREZ                                                      000000000000000000N
021996031299999000068010TANTONIO MANUEL PEREZ BUENO                                                  000000000000000000N
021996031299999000068002TMARCELINO MENDEZ-TRELLES RAMOS                                              000000000000000000N
021996031299999000068003TFRANCISCO MUÑOZ CASTAÑO                                                     000000000000000000N
021996031299999000068004TRAFAEL MONTESINOS RUBIO                                                     000000000000000000N
021996031299999000068005TMANUEL CAÑESTRO CHAVES                                                      000000000000000000N
021996031299999000068006TPEDRO RIOS CUEVAS                                                           000000000000000000N
021996031299999000068007TPABLO GONZALEZ GARCIA                                                       000000000000000000N
021996031299999000068008TJUAN SANCHEZ LUQUE                                                          000000000000000000N
021996031299999000068009TANTONIO JIMENEZ GOMEZ                                                       000000000000000000N
021996031299999000074001TLEOPOLDO DEL PRADO ALVAREZ                                                  000000000000000000N
021996031299999000074010TMARIA CONCEPCION DEL PRADO ALVAREZ                                          000000000000000000N
021996031299999000074002TTERESA VACA RACERO                                                          000000000000000000N
021996031299999000074003TJUAN MANUEL FERNANDEZ MARTIN                                                000000000000000000N
021996031299999000074004TDOLORES RIOJA CASTILLERO                                                    000000000000000000N
021996031299999000074005TMANUEL CORPAS GUARINO                                                       000000000000000000N
021996031299999000074006TDOLORES VALIENTE BORREGO                                                    000000000000000000N
021996031299999000074007TFRANCISCO BERLANGA PACHECO                                                  000000000000000000N
021996031299999000074008TJOSEFA ALCARAZ ALCARAZ                                                      000000000000000000N
021996031299999000074009TADOLFO BAEZA RODRIGUEZ                                                      000000000000000000N
021996031299999000081001TMARIA CARMEN JIMENEZ SILES                                                  000000000000000000N
021996031299999000081010TJESUS SANCHEZ JIMENEZ                                                       000000000000000000N
021996031299999000081002THUGO FERMIN RODRIGUEZ GHIARA                                                000000000000000000N
021996031299999000081003TVICTORIA BARCELO NOGALES                                                    000000000000000000N
021996031299999000081004TJOSE CARO MOLINA                                                            000000000000000000N
021996031299999000081005TFRANCISCO CALDERON DIAZ                                                     000000000000000000N
021996031299999000081006TCARLOS ALBERTO SANCHEZ DEL RIO GARCIA                                       000000000000000000N
021996031299999000081007TMARIA PAZ RUIZ GARCIA                                                       000000000000000000N
021996031299999000081008TANGEL MARTIN HERNANDEZ                                                      000000000000000000N
021996031299999000081009TJOSEFA MOLINA AZUAGA                                                        000000000000000000N
021996031299999000091001TCELIA VILLALOBOS TALERO                                                     000000000000000000S
021996031299999000091010TLUIS ALBERTO VAZQUEZ ALFARACHE                                              000000000000000000N
021996031299999000091002TDAMIAN CANEDA MORALES                                                       000000000000000000S
021996031299999000091003TFEDERICO JAVIER SOUVIRON GARCIA                                             000000000000000000S
021996031299999000091004TPABLO MARCIAL IZQUIERDO JUAREZ                                              000000000000000000S
021996031299999000091005TFRANCISCO JAVIER BERLANGA FERNANDEZ                                         000000000000000000N
021996031299999000091006TMARIA CONCEPCION TOLEDANO DEL VALLE INCLAN                                  000000000000000000N
021996031299999000091007TJAVIER MARTIR AVILA                                                         000000000000000000N
021996031299999000091008TMARIA DEL CARMEN GIRALDEZ MORENO                                            000000000000000000N
021996031299999000091009TMANUEL ANTONIO NAVARRO MARMOL                                               000000000000000000N
021996031299999000109001TMARIA CRISTINA ALBERDI ALONSO                                               000000000000000000S
021996031299999000109010TGABRIEL GARCIA MARTIN                                                       000000000000000000N
021996031299999000109002TCARLOS SANJUAN DE LA ROCHA                                                  000000000000000000S
021996031299999000109003TMARIA DOLORES SANCHEZ LOPEZ                                                 000000000000000000S
021996031299999000109004TJUAN MIGUEL RODRIGUEZ RODRIGUEZ                                             000000000000000000S
021996031299999000109005TMIGUEL ANGEL HEREDIA DIAZ                                                   000000000000000000S
021996031299999000109006TANA PAULA MONTERO BARQUERO                                                  000000000000000000N
021996031299999000109007TPEDRO DE SAN JOSE ALCUDIA NARANJO                                           000000000000000000N
021996031299999000109008TMIGUEL ESTEBAN CASTRO CARRASCO                                              000000000000000000N
021996031299999000109009TFRANCISCO ANTONIO OSUNA POZO                                                000000000000000000N
021996031299999000115001TMIGUEL LOPEZ GASPAR                                                         000000000000000000N
021996031299999000115010TSEBASTIAN RUIZ OJEDA                                                        000000000000000000N
021996031299999000115002TRAFAEL ANGEL LOPEZ HOYOS                                                    000000000000000000N
021996031299999000115003TFELIX MARTIN BARBA                                                          000000000000000000N
021996031299999000115004TTERESA MARTIN JIMENEZ                                                       000000000000000000N
021996031299999000115005TAGUSTINA SUAREZ GOMEZ                                                       000000000000000000N
021996031299999000115006TANTONIO FERNANDEZ AGUILAR                                                   000000000000000000N
021996031299999000115007TJOSE ANTONIO SOS CABRERA                                                    000000000000000000N
021996031299999000115008TJUAN ANTONIO PEREZ GUERRERO                                                 000000000000000000N
021996031299999000115009TANDRES FRANCISCO POSTIGO FERNANDEZ                                          000000000000000000N
021996031299999000116001TJOSE ENRIQUE MUÑOZ TORRES                                                   000000000000000000N
021996031299999000116010TJUAN CARMONA CARMONA                                                        000000000000000000N
021996031299999000116002TJOSE MONTIEL MUÑOZ                                                          000000000000000000N
021996031299999000116003TISABEL GONZALEZ RUIZ                                                        000000000000000000N
021996031299999000116004TGASPAR GARCIA ORTEGA                                                        000000000000000000N
021996031299999000116005TJUANA GALLEGO GALLEGO                                                       000000000000000000N
021996031299999000116006TANTONIO CARRASCO SUAREZ                                                     000000000000000000N
021996031299999000116007TRAQUEL DOBLAS BERMUDEZ                                                      000000000000000000N
021996031299999000116008TEDUARDO JOSE CARO LOPEZ                                                     000000000000000000N
021996031299999000116009TMARIANA CUENCA RUBIO                                                        000000000000000000N
021996031419999000007001TEDUARDO ARIAS HIJAS                                                         000000000000000000N
021996031419999000007010TM. NIEVES VALVERDE PEREZ                                                    000000000000000000N
021996031419999000007011TENRIQUE MORILLAS CASANOVA                                                   000000000000000000N
021996031419999000007012TEDUARDO JOSE TRUQUE ROSIQUE                                                 000000000000000000N
021996031419999000007013TDOMINGO POVEDA GARCIA                                                       000000000000000000N
021996031419999000007002TGONZALO CALIXTO GARCIA YANGUELA                                             000000000000000000N
021996031419999000007003TPILAR ANTONIA ARROYO SANCHEZ                                                000000000000000000N
021996031419999000007004TANTONIO CARROZA PACHECO                                                     000000000000000000N
021996031419999000007005TCARLOS JAVIER RODRIGUEZ LOPEZ                                               000000000000000000N
021996031419999000007006TMACARENA RECENA UGART                                                       000000000000000000N
021996031419999000007007TARTURO FERNANDEZ-PALACIOS ESCASSI                                           000000000000000000N
021996031419999000007008TMARTA ZALBA CABANILLAS                                                      000000000000000000N
021996031419999000007009TADOLFO SANZ RUIZ                                                            000000000000000000N
021996031419999000032001TJOSE BUSTOS JIMENEZ                                                         000000000000000000N
021996031419999000032010TJOSE MARIA PIÑAL DE CASTILLA DIAZ                                           000000000000000000N
021996031419999000032011TVICENTA SANCHEZ LLEDO                                                       000000000000000000N
021996031419999000032012TVICENTE ALFONSO SANCHEZ                                                     000000000000000000N
021996031419999000032013TJOSE ANTONIO BERNALDEZ RUIZ                                                 000000000000000000N
021996031419999000032002TLORENZO NAVA MINONDO                                                        000000000000000000N
021996031419999000032003TMIGUEL BERNARDEZ PRADA                                                      000000000000000000N
021996031419999000032004TJOAQUIN MILLAN MOLINILLO                                                    000000000000000000N
021996031419999000032005TJOSE MARIA GONZALEZ RUBIO                                                   000000000000000000N
021996031419999000032006TMANUEL GOMEZ DURAN                                                          000000000000000000N
021996031419999000032007TFELIX BOTRAN MARTINEZ                                                       000000000000000000N
021996031419999000032008TJOSE FELIPE MONCHO FRANCES                                                  000000000000000000N
021996031419999000032009TMARIA DEL PILAR PELLIN RIZO                                                 000000000000000000N
021996031419999000033001TANTONIO MARTIN COLLADO                                                      000000000000000000N
021996031419999000033010TCARLOS NAVARRO PUIG                                                         000000000000000000N
021996031419999000033011TDOLORES AGUILERA ROMERO                                                     000000000000000000N
021996031419999000033012TJUAN ANTONIO GASCON ASENCIO                                                 000000000000000000N
021996031419999000033013TCARLOS PUIG GARCIA-LEANIZ                                                   000000000000000000N
021996031419999000033002TJESUS JUAN PEREZ                                                            000000000000000000N
021996031419999000033003TRAFAEL MILLAN MUÑOZ                                                         000000000000000000N
021996031419999000033004TJOSE MARIA DIEGUEZ PEREZ                                                    000000000000000000N
021996031419999000033005TANGEL SANCHEZ MORENO                                                        000000000000000000N
021996031419999000033006TEMMA VIRGINIA ESCOBAR AVILA                                                 000000000000000000N
021996031419999000033007TJOSE ANTONIO SEQUERA OLLA                                                   000000000000000000N
021996031419999000033008TANGEL MARIA MANSILLA GARCIA ROJO                                            000000000000000000N
021996031419999000033009TJUAN CASTILLO PAREJO                                                        000000000000000000N
021996031419999000051001TLUIS FELIPE ALCARAZ MASATS                                                  000000000000000000S
021996031419999000051010TAGUSTINA CAMPA ARTILLO                                                      000000000000000000N
021996031419999000051011TISIDORO JIMENEZ ZARAGOZA                                                    000000000000000000N
021996031419999000051012TFRANCISCA TERCERO CABEZA                                                    000000000000000000N
021996031419999000051013TENCARNACION VELAZQUEZ OJEDA                                                 000000000000000000N
021996031419999000051002TMARIA JESUS ARAMBURU DEL RIO                                                000000000000000000S
021996031419999000051003TJOSE ANTONIO MESA MORA                                                      000000000000000000N
021996031419999000051004TCARLOS JESUS BENITEZ SAUREL                                                 000000000000000000N
021996031419999000051005TMARIA SOLEDAD PICON MARTIN                                                  000000000000000000N
021996031419999000051006TEDUARDO TAMARIT PRADAS                                                      000000000000000000N
021996031419999000051007TMARIA DEL CARMEN ROCA TORREGROSA                                            000000000000000000N
021996031419999000051008TFIDEL ROMERO RUIZ                                                           000000000000000000N
021996031419999000051009TFRANCISCO JAVIER LENGO CABELLO                                              000000000000000000N
021996031419999000065001TJORGE PORTILLO MARTIN                                                       000000000000000000N
021996031419999000065010TJOSE LUIS MEJIAS FORNET                                                     000000000000000000N
021996031419999000065011TMANUEL RODRIGUEZ GONZALEZ                                                   000000000000000000N
021996031419999000065012TJOSE MANUEL ANGUIANO MARQUEZ                                                000000000000000000N
021996031419999000065013TPEDRO HERMOSIN MIRANDA                                                      000000000000000000N
021996031419999000065002TPEDRO ANTONIO GAMIZ SANCHEZ                                                 000000000000000000N
021996031419999000065003TJOSE LUIS ALCAZAR LOPEZ                                                     000000000000000000N
021996031419999000065004TABEL HERMOSIN BALLESTEROS                                                   000000000000000000N
021996031419999000065005TFELIX MORENO CAMPOS                                                         000000000000000000N
021996031419999000065006TFIDEL SANCHEZ REYES                                                         000000000000000000N
021996031419999000065007TJESUS MANUEL GORMAZ RODRIGUEZ                                               000000000000000000N
021996031419999000065008TJESUS PEDRO VERGARA VARELA                                                  000000000000000000N
021996031419999000065009TANTONIO SILVESTRE ESCOTE                                                    000000000000000000N
021996031419999000068001TMARIA DEL MAR DE LOS REYES CALDERON MIRANDA                                 000000000000000000N
021996031419999000068010TENCARNACION BENJUMEA BARRIONUEVO                                            000000000000000000N
021996031419999000068011TDIEGO GONZALEZ CRUZ                                                         000000000000000000N
021996031419999000068012TISABEL DONADO NORTES                                                        000000000000000000N
021996031419999000068013TANA ISABEL ARILLO RAMIREZ                                                   000000000000000000N
021996031419999000068002TPEDRO MARIA MANCERA PULIDO                                                  000000000000000000N
021996031419999000068003TFRANCISCO VERGARA HUERTAS                                                   000000000000000000N
021996031419999000068004TJUAN CARLOS SORIANO HERNANDEZ                                               000000000000000000N
021996031419999000068005TLUIS RODRIGUEZ PEREZ                                                        000000000000000000N
021996031419999000068006TJUAN FABIAN DELGADO SERRANO                                                 000000000000000000N
021996031419999000068007TJOSE ANTONIO SANCHEZ RODRIGUEZ                                              000000000000000000N
021996031419999000068008TMANUEL ROMERO MORENO                                                        000000000000000000N
021996031419999000068009TPEDRO EMILIO MARQUEZ ESCUDERO                                               000000000000000000N
021996031419999000074001TFERNANDO GUERRA LOBO                                                        000000000000000000N
021996031419999000074010TFERNANDO CASTILLERO ANDUJAR                                                 000000000000000000N
021996031419999000074011TMANUEL ALGABA ALFONSECA                                                     000000000000000000N
021996031419999000074012TJUAN SOSA GARCIA                                                            000000000000000000N
021996031419999000074013TCARMEN LOBO BAREA                                                           000000000000000000N
021996031419999000074002TFRANCISCO MANUEL RUIZ CONEJERO                                              000000000000000000N
021996031419999000074003TMARTA GAMEZ OCON                                                            000000000000000000N
021996031419999000074004TJOSE ERNESTO SANTOS POVEDANO                                                000000000000000000N
021996031419999000074005TFRANCISCO ESPINOSA DURAN                                                    000000000000000000N
021996031419999000074006TANTONIO VALIENTE BORREGO                                                    000000000000000000N
021996031419999000074007TMARCELINO CONTRERAS RODRIGUEZ                                               000000000000000000N
021996031419999000074008TMICAELA SANCHEZ BELMONTE                                                    000000000000000000N
021996031419999000074009TMANUEL GARCIA VALDIVIESO-MORQUECHO                                          000000000000000000N
021996031419999000081001TLUIS SILVA GARCIA                                                           000000000000000000N
021996031419999000081010TMARIA JESUS RODRIGUEZ NUÑEZ                                                 000000000000000000N
021996031419999000081011TJOSE ANTONIO ESCOT FLORES                                                   000000000000000000N
021996031419999000081012TENCARNACION MARIA FUENTES MUÑOZ                                             000000000000000000N
021996031419999000081013TMARIA ANGELES FLOREZ MEDINA                                                 000000000000000000N
021996031419999000081002TMARIA TERESA GUTIERREZ RUIZ                                                 000000000000000000N
021996031419999000081003TJOSE LUIS PRIETO DELGADO                                                    000000000000000000N
021996031419999000081004TANTONIA GOMEZ ALVAREZ                                                       000000000000000000N
021996031419999000081005TFRANCISCO JAVIER ESCALANTE VELA                                             000000000000000000N
021996031419999000081006TMARIA DEMETRIA SALAS BOTE                                                   000000000000000000N
021996031419999000081007TEVA MARTINEZ CABANA                                                         000000000000000000N
021996031419999000081008TISABEL FERNANDA RODRIGUEZ NUÑEZ                                             000000000000000000N
021996031419999000081009TBERNARDO SAMANIEGO GOMEZ                                                    000000000000000000N
021996031419999000091001TMARIA JOSE CAMILLERI HERNANDEZ                                              000000000000000000S
021996031419999000091010TFRANCISCO DE LA ROSA BUENO                                                  000000000000000000N
021996031419999000091011TANTONIO LOPEZ LOPEZ                                                         000000000000000000N
021996031419999000091012TIRENE MARQUEZ GONZALEZ                                                      000000000000000000N
021996031419999000091013TJAIME BRETON BESNIER                                                        000000000000000000N
021996031419999000091002TMANUEL SECO GORDILLO                                                        000000000000000000S
021996031419999000091003TJUAN MANUEL ALBENDEA PABON                                                  000000000000000000S
021996031419999000091004TMARIA DOLORES CALDERON PEREZ                                                000000000000000000S
021996031419999000091005TJOSE MARIA RUEDA SEGURA                                                     000000000000000000N
021996031419999000091006TMIGUEL ANGEL ARAUZ RIVERO                                                   000000000000000000N
021996031419999000091007TJULIO GIL-TORESANO RIEGO                                                    000000000000000000N
021996031419999000091008TMARIA CONCEPCION SAINZ DE GOMARA                                            000000000000000000N
021996031419999000091009TROSARIO MARTIN LUQUE                                                        000000000000000000N
021996031419999000101001TROBERTO RODRIGUEZ CABEZA                                                    000000000000000000N
021996031419999000101010TRAFAEL BERNABE FERNANDEZ CORDERO                                            000000000000000000N
021996031419999000101011TULISES JONATHAN RAMOS CORDERO                                               000000000000000000N
021996031419999000101012TPABLO TERRADILLOS RODRIGUEZ (INDEPENDIENTE)                                 000000000000000000N
021996031419999000101013TMANUEL VASCO RODRIGUEZ (INDEPENDIENTE)                                      000000000000000000N
021996031419999000101002TJOSE MARIA BRUN GONZALEZ                                                    000000000000000000N
021996031419999000101003TFRANCISCO VELAZQUEZ LOPEZ                                                   000000000000000000N
021996031419999000101004TENRIQUE RUBIN CORDOBA                                                       000000000000000000N
021996031419999000101005TFRANCISCA SANCHEZ GOMEZ                                                     000000000000000000N
021996031419999000101006TISMAEL MUÑOZ RAMIREZ                                                        000000000000000000N
021996031419999000101007TANTONIO DELGADO RODRIGUEZ                                                   000000000000000000N
021996031419999000101008TJOAQUIN CARO RIVERO                                                         000000000000000000N
021996031419999000101009TDANIEL GONZALEZ TORO                                                        000000000000000000N
021996031419999000109001TALFONSO GUERRA GONZALEZ                                                     000000000000000000S
021996031419999000109010TCARMEN LARA BONILLA                                                         000000000000000000N
021996031419999000109011TMANUEL RODRIGUEZ CABELLO                                                    000000000000000000N
021996031419999000109012TJOAQUIN DIAZ GONZALEZ                                                       000000000000000000N
021996031419999000109013TROSARIO GONZALEZ MARTINEZ                                                   000000000000000000N
021996031419999000109002TLUIS YAÑEZ-BARNUEVO GARCIA                                                  000000000000000000S
021996031419999000109003TANTONIO CUEVAS DELGADO                                                      000000000000000000S
021996031419999000109004TMARIA AMPARO RUBIALES TORREJON                                              000000000000000000S
021996031419999000109005TFRANCISCO MORENO FRANCO                                                     000000000000000000S
021996031419999000109006TRAMON RUEDA ESPINAR                                                         000000000000000000S
021996031419999000109007TMARIA ISABEL POZUELO MEÑO                                                   000000000000000000S
021996031419999000109008TMILAGROS DEL MONTE FRIAS NAVARRETE                                          000000000000000000N
021996031419999000109009TJOSE NAVARRO TORNAY                                                         000000000000000000N
021996031419999000116001TENRIQUE LOPEZ DEL ESTAL                                                     000000000000000000N
021996031419999000116010TFRANCISCO DE ASIS RODRIGUEZ MARQUE                                          000000000000000000N
021996031419999000116011TANTONIO ANSELMO TITOS CLARES                                                000000000000000000N
021996031419999000116012TJUAN GUIJO GOMEZ                                                            000000000000000000N
021996031419999000116013TRAFAEL CARMONA RUIZ                                                         000000000000000000N
021996031419999000116002TJOSE DONAIRE PEREJON                                                        000000000000000000N
021996031419999000116003TJOSE MANUEL PEREZ VASCO                                                     000000000000000000N
021996031419999000116004TFRANCISCO SERRANO MORENO                                                    000000000000000000N
021996031419999000116005TANTONIO ANGULO ORTIZ                                                        000000000000000000N
021996031419999000116006TISAAC TIMON UBIERA                                                          000000000000000000N
021996031419999000116007TFERMIN LAZPIUR RODRIGUEZ                                                    000000000000000000N
021996031419999000116008TMANUEL GONZALEZ DOMINGUEZ                                                   000000000000000000N
021996031419999000116009TANTONIO RUANO LEON                                                          000000000000000000N
021996031419999000125001TRICARDO BORJA VARGAS                                                        000000000000000000N
021996031419999000125010TANTONIO ALVAREZ ROLDAN                                                      000000000000000000N
021996031419999000125011TINOCENCIO MARTINEZ MARTIN                                                   000000000000000000N
021996031419999000125012TFRANCISCO GARCIA CARDOSO                                                    000000000000000000N
021996031419999000125013TMARIA MANUELA NIETO AMAYA                                                   000000000000000000N
021996031419999000125002TFRANCISCO MARTIN MIRANDA                                                    000000000000000000N
021996031419999000125003TBERNARDO PRIETO GONZALEZ                                                    000000000000000000N
021996031419999000125004TFRANCISCO GARRIDO MARTIN                                                    000000000000000000N
021996031419999000125005TANTONIO HEREDIA JIMENEZ                                                     000000000000000000N
021996031419999000125006TANA MARIA TAMARIT GARROTE                                                   000000000000000000N
021996031419999000125007TMIGUEL MORALES RUIZ                                                         000000000000000000N
021996031419999000125008TJUAN CARLOS RODRIGUEZ PARADELA                                              000000000000000000N
021996031419999000125009TANTONIO MARTIN RODRIGUEZ                                                    000000000000000000N
021996031229999000014001TSALVADOR ARISTE LATRE                                                       000000000000000000N
021996031229999000014002TJOSE MARIA FANTOVA AUSED                                                    000000000000000000N
021996031229999000014003TNATALIA MARIA LOPEZ RAMON                                                   000000000000000000N
021996031229999000032001TMARIA NIEVES GALLEGO LECHON                                                 000000000000000000N
021996031229999000032002TMIGUEL ALFONSO CONTE ROBRES                                                 000000000000000000N
021996031229999000032003TJOSE ANTONIO TORRIJOS GARCIA                                                000000000000000000N
021996031229999000042001TIGNACIO JAVIER CASTAN ANDOLZ                                                000000000000000000N
021996031229999000042002TANGEL LUIS HERRANZ ESPORRIN                                                 000000000000000000N
021996031229999000042003TALICIA ANTON ORUE                                                           000000000000000000N
021996031229999000094001TCESAR VILLALON RICO                                                         000000000000000000S
021996031229999000094002TANGEL PINTADO BARBANOJ                                                      000000000000000000S
021996031229999000094003TJAVIER MONTES AZNAR                                                         000000000000000000N
021996031229999000101001TMARIA DOLORES ALVAREZ GALERA                                                000000000000000000N
021996031229999000101002TFRANCISCA ROMERO MERCADER                                                   000000000000000000N
021996031229999000101003TJOSE SANCHEZ COSANO                                                         000000000000000000N
021996031229999000108001TVICTOR MORLAN GRACIA                                                        000000000000000000S
021996031229999000108002TMARIA PELLICER RASO                                                         000000000000000000N
021996031229999000108003TVICENTE JUAN JUESAS                                                         000000000000000000N
021996031229999000112001TJESUS GARCIA MAYNAR                                                         000000000000000000N
021996031229999000112002TROSA ANA GABARRE LARDIES                                                    000000000000000000N
021996031229999000112003TJESUS VALLES GRACIA                                                         000000000000000000N
021996031229999000116001TJERONIMO SANZ VALDES                                                        000000000000000000N
021996031229999000116002TMARIA LUISA ALEJOS PITA RIO                                                 000000000000000000N
021996031229999000116003TANTONIO SISTAC BALAGUER                                                     000000000000000000N
021996031449999000014001TFERNANDO JOSE BURILLO ALBACETE                                              000000000000000000N
021996031449999000014002TCONCEPCION MARZO HERRERO                                                    000000000000000000N
021996031449999000014003TMARIA SONIA ESCUDERO MATEO                                                  000000000000000000N
021996031449999000032001TINMACULADA GARCIA CASAMAYOR                                                 000000000000000000N
021996031449999000032002TJOSE A. MUSTIENES ROMERO                                                    000000000000000000N
021996031449999000032003TANTONIO GRASA GASCON                                                        000000000000000000N
021996031449999000042001TFELIX RUBIO FERRER                                                          000000000000000000N
021996031449999000042002TVISITACION GARCIA ALQUEZAR                                                  000000000000000000N
021996031449999000042003TMIGUEL ANGEL PASCUAL CARCELLER                                              000000000000000000N
021996031449999000094001TLEOCADIO BUESO ZAERA (PP)                                                   000000000000000000S
021996031449999000094002TJOSE ANGEL AZUARA CAROD (PP)                                                000000000000000000S
021996031449999000094003TCARLOS ENRIQUE MUÑOZ OBON (PP)                                              000000000000000000N
021996031449999000101001TCLAUDIA PATRICIA OSORIO LABRA                                               000000000000000000N
021996031449999000101002TAMALIO MARTIN AVILA                                                         000000000000000000N
021996031449999000101003TPEDRO SANCHEZ PRADO                                                         000000000000000000N
021996031449999000108001TGERARDO TORRES SAHUQUILLO                                                   000000000000000000S
021996031449999000108002TMARIA LUCIA GOMEZ GARCIA                                                    000000000000000000N
021996031449999000108003TJOSE RAMON IBAÑEZ BLASCO                                                    000000000000000000N
021996031449999000116001TCARLOS HERNANZ PEREZ                                                        000000000000000000N
021996031449999000116002TROSA MARIA CALVO MARTIN                                                     000000000000000000N
021996031449999000116003TLEON MATEO SALESA                                                           000000000000000000N
021996031509999000014001TJOSE ANTONIO LABORDETA SUBIAS                                               000000000000000000N
021996031509999000014002TBIZEN FUSTER SANTALIESTRA                                                   000000000000000000N
021996031509999000014003TFERNANDO LAMPRE VITALLER                                                    000000000000000000N
021996031509999000014004TMIGUEL ANGEL GARGALLO LOZANO                                                000000000000000000N
021996031509999000014005TMARIA PILAR GARCIA CHILLON                                                  000000000000000000N
021996031509999000014006TFRANCISCO JOSE HERRERO ROCHE                                                000000000000000000N
021996031509999000014007TGONZALO MAXIMO BORRAS GUALIS                                                000000000000000000N
021996031509999000020001TJOSE MARIA LOPEZ GIMENO                                                     000000000000000000N
021996031509999000020002TJAVIER DOBLAS MARTIN                                                        000000000000000000N
021996031509999000020003TANTONIO FERNANDO OROS ESCANILLA                                             000000000000000000N
021996031509999000020004TMYRIAN LOPEZ ESTRAÑA                                                        000000000000000000N
021996031509999000020005TLUIS MIGUEL RAMIREZ CALON                                                   000000000000000000N
021996031509999000020006TMARIA ATOCHA ANGULO MARTINEZ                                                000000000000000000N
021996031509999000020007TLUIS SANCHEZ FORCADA                                                        000000000000000000N
021996031509999000032001TDANIEL IGNACIO GARCIA SIMON                                                 000000000000000000N
021996031509999000032002TMANUEL CUELLAR PACHECO                                                      000000000000000000N
021996031509999000032003TJESUS MORFIOLI MARTINEZ                                                     000000000000000000N
021996031509999000032004TJOSE ANTONIO MARTINEZ MEDRANO                                               000000000000000000N
021996031509999000032005TRAMON CORTES MORENO                                                         000000000000000000N
021996031509999000032006TJESUS RAFAEL SOPENA DEL RIO                                                 000000000000000000N
021996031509999000032007TANGEL LUIS PASTOR GRACIA                                                    000000000000000000N
021996031509999000042001TEMILIO MANRIQUE PERSIVA                                                     000000000000000000N
021996031509999000042002TANA MARIA SANROMAN LOPEZ                                                    000000000000000000N
021996031509999000042003TJAIME DELFIN BORBON OLIVER                                                  000000000000000000N
021996031509999000042004TMARIA PILAR GRACIA SEVILLA                                                  000000000000000000N
021996031509999000042005TJOSE RICARDO ALVAREZ DOMINGUEZ                                              000000000000000000N
021996031509999000042006TADOLFO BARRENA SALCES                                                       000000000000000000N
021996031509999000042007TMARIA ISABEL PEREZ MORTE                                                    000000000000000000N
021996031509999000081001TERNESTO HORACIO DE CASAS GONZALEZ                                           000000000000000000N
021996031509999000081002TFELISA MERCADO CORTES                                                       000000000000000000N
021996031509999000081003TMARIA JESUS NUÑEZ GARCIA                                                    000000000000000000N
021996031509999000081004TMIGUEL ANGEL CARREÑO JIMENEZ                                                000000000000000000N
021996031509999000081005TELENA PLAZA ANDRES                                                          000000000000000000N
021996031509999000081006TVERONICA ESTHER SIMON CASADO                                                000000000000000000N
021996031509999000081007TRAQUEL MARIA CALVO MOVELLAN                                                 000000000000000000N
021996031509999000094001TGUSTAVO ADOLFO ALCALDE SANCHEZ (PP)                                         000000000000000000S
021996031509999000094002TANTONIO JESUS SERRANO VINUE (PAR)                                           000000000000000000S
021996031509999000094003TRAMON ANTONIO MORENO BUSTOS (PP)                                            000000000000000000S
021996031509999000094004TLUIS GONZAGA NAVARRO ELOLA (PP)                                             000000000000000000S
021996031509999000094005TRICARDO CANALS LIZANO (PP)                                                  000000000000000000N
021996031509999000094006TMARIA ANTONIA AVILES PEREA (PP)                                             000000000000000000N
021996031509999000094007TALFONSO SANCHEZ SANCHEZ (PP)                                                000000000000000000N
021996031509999000101001TLORENZA VERGARA LOPEZ                                                       000000000000000000N
021996031509999000101002TMANUELA CUMPLIDO FUNES (INDEPENDIENTE)                                      000000000000000000N
021996031509999000101003TALEJANDRO CALER VERGARA                                                     000000000000000000N
021996031509999000101004THERMINIA FERNANDEZ MENDEZ                                                   000000000000000000N
021996031509999000101005TJOSE MARIA ROMERO MERCADER                                                  000000000000000000N
021996031509999000101006TJULIA OJEA MIRO (INDEPENDIENTE)                                             000000000000000000N
021996031509999000101007TANTONIA CARRILLO VACAS                                                      000000000000000000N
021996031509999000108001TJUAN ALBERTO BELLOCH JULBE                                                  000000000000000000S
021996031509999000108002TBERNARDO BAYONA AZNAR                                                       000000000000000000S
021996031509999000108003TFERNANDO GIMENO GARIN                                                       000000000000000000S
021996031509999000108004TFLORENCIO GARCIA MADRIGAL                                                   000000000000000000N
021996031509999000108005TMANUELA GARCIA VILLAMAYOR                                                   000000000000000000N
021996031509999000108006TNORMA BERNAD ROMEO                                                          000000000000000000N
021996031509999000108007TFRANCISCO PEREZ MARTINEZ                                                    000000000000000000N
021996031509999000112001TMIGUEL ALEJANDRO VERICAD MARCUELLO                                          000000000000000000N
021996031509999000112002TFRANCHO BELTRAN AUDERA                                                      000000000000000000N
021996031509999000112003TMARIA JESUS PEDREGAL CASANOVA                                               000000000000000000N
021996031509999000112004TMARIA DEL CARMEN BANET RISCO                                                000000000000000000N
021996031509999000112005TEDUARDO GIL DELGADO                                                         000000000000000000N
021996031509999000112006TMARIA PILAR SALVADOR LACAMARA                                               000000000000000000N
021996031509999000112007TBEATRIZ CLARIANA LACRUZ                                                     000000000000000000N
021996031339999000032001TSANTIAGO ANTONIO FERNANDEZ ZUAZUA                                           000000000000000000N
021996031339999000032002TCRISTINA PEREZ GONZALEZ                                                     000000000000000000N
021996031339999000032003TFRANCISCO JOSE TRABANCO ARECES                                              000000000000000000N
021996031339999000032004TBELEN MARIA JULIANA RODRIGUEZ                                               000000000000000000N
021996031339999000032005TFRANCISCO JAVIER VAZQUEZ GONZALEZ                                           000000000000000000N
021996031339999000032006TSUSANA MARIA SUAREZ GONZALEZ                                                000000000000000000N
021996031339999000032007TROBERTO ENRIQUEZ SOLIS                                                      000000000000000000N
021996031339999000032008TMARIA MANUELA VAZQUEZ GONZALEZ                                              000000000000000000N
021996031339999000032009TJOSE ANTONIO VILLA BLANCO                                                   000000000000000000N
021996031339999000041001TMARIANO CESAR SANTISO DEL VALLE                                             000000000000000000S
021996031339999000041002TJESUS ENRIQUE IGLESIAS FERNANDEZ                                            000000000000000000N
021996031339999000041003TMARIA PILAR GARCIA CUETOS                                                   000000000000000000N
021996031339999000041004TLUIS MANUEL ALVAREZ PAYO                                                    000000000000000000N
021996031339999000041005TCARMEN GARRIDO GONZALEZ                                                     000000000000000000N
021996031339999000041006TJUAN LUIS VALLINA ARIZNAVARRETA                                             000000000000000000N
021996031339999000041007TVALENTINA VALDES ALPERI                                                     000000000000000000N
021996031339999000041008TADOLFO SARO HERRERO                                                         000000000000000000N
021996031339999000041009TAIDA ARGUELLES PARDO                                                        000000000000000000N
021996031339999000071001TXESUS CAÑEDO VALLE                                                          000000000000000000N
021996031339999000071002TMARIO SAN MARTIN FERNANDEZ                                                  000000000000000000N
021996031339999000071003TJOSE CARLOS RUBIERA TUYA                                                    000000000000000000N
021996031339999000071004TJULIAN FERNANDEZ MONTES                                                     000000000000000000N
021996031339999000071005TMIGUEL ANGEL DIAZ DIAZ                                                      000000000000000000N
021996031339999000071006TRAIMUNDO COLLADA GARCIA                                                     000000000000000000N
021996031339999000071007TMANUEL ANGEL RUBIO CAMBON                                                   000000000000000000N
021996031339999000071008TJOSE MANUEL RODRIGUEZ GARCIA                                                000000000000000000N
021996031339999000071009TLUIS ANTONIO GONZALEZ FERNANDEZ                                             000000000000000000N
021996031339999000076001TALBERTO MUÑIZ ALVAREZ                                                       000000000000000000N
021996031339999000076002TDIANA BAZO MORALES                                                          000000000000000000N
021996031339999000076003TSUSANA SANTOS LOPEZ                                                         000000000000000000N
021996031339999000076004TMANUEL FUENTES CARRERA                                                      000000000000000000N
021996031339999000076005TAURELIO HEVIA CARMONA                                                       000000000000000000N
021996031339999000076006TLILIANA FERNANDEZ-PEÑA VEGA                                                 000000000000000000N
021996031339999000076007TCARLOS RICO FERNANDEZ                                                       000000000000000000N
021996031339999000076008TCAROLINA ALVAREZ MARTINEZ                                                   000000000000000000N
021996031339999000076009TFERNANDO GARCIA ALVAREZ                                                     000000000000000000N
021996031339999000091001TFRANCISCO ALVAREZ-CASCOS FERNANDEZ                                          000000000000000000S
021996031339999000091002TALICIA CASTRO MASAVEU                                                       000000000000000000S
021996031339999000091003TMARIA MERCEDES FERNANDEZ GONZALEZ                                           000000000000000000S
021996031339999000091004TANTONIO LANDETA ALVAREZ-VALDES                                              000000000000000000S
021996031339999000091005TFERNANDO RAMON FERNANDEZ NOVAL                                              000000000000000000N
021996031339999000091006TANA JOSE FERNANDEZ COBAS                                                    000000000000000000N
021996031339999000091007TGERVASIO ACEVEDO FERNANDEZ                                                  000000000000000000N
021996031339999000091008TANA MARIA BARRIENTOS ALVAREZ                                                000000000000000000N
021996031339999000091009TMIGUEL ANGEL VILLORIA NORIEGA                                               000000000000000000N
021996031339999000101001TMARINA CASTELLO MAYO                                                        000000000000000000N
021996031339999000101002TNATALIA GILPEREZ HORNERO                                                    000000000000000000N
021996031339999000101003TJOSE GONZALEZ ARTE                                                          000000000000000000N
021996031339999000101004TNURIA CALZADO DE DIOS                                                       000000000000000000N
021996031339999000101005TANTONIO PORRAS ARZA                                                         000000000000000000N
021996031339999000101006TMARIA JESUS ACIN GONZALEZ                                                   000000000000000000N
021996031339999000101007TMARIA ELENA HARO REDONDO                                                    000000000000000000N
021996031339999000101008TJOSE ANTONIO FERNANDEZ ACEITUNO                                             000000000000000000N
021996031339999000101009TYOLANDA JORGE MUÑOZ                                                         000000000000000000N
021996031339999000108001TLUIS MARTINEZ NOVAL                                                         000000000000000000S
021996031339999000108002TGUSTAVO SUAREZ PERTIERRA                                                    000000000000000000S
021996031339999000108003TALVARO CUESTA MARTINEZ                                                      000000000000000000S
021996031339999000108004TJAVIER FERNANDEZ FERNANDEZ                                                  000000000000000000S
021996031339999000108005TALBERTO PEREZ CUETO                                                         000000000000000000N
