021996031010400199ABLA                                                                                                001301300000001597000020000127300001273000000000000000000000610000009300000000600000002000010820000000000000000000N
021996031010400299ABRUCENA                                                                                            001301300000001476000020000118300001183000000000000000000000650000008570000000400000008000010240000000000000000000N
021996031010400399ADRA                                                                                                002902900000020979000210001491600014916000000000000000000005234000092040000005900000046000112430000000000000000000N
021996031010400499ALBANCHEZ                                                                                           005305300000000686000010000060000000600000000000000000000000296000004210000000500000003000004880000000000000000000N
021996031010400599ALBOLODUY                                                                                           001301300000000857000010000069100000691000000000000000000000271000005200000000300000002000005910000000000000000000N
021996031010400699ALBOX                                                                                               005305300000010236000110000697100006971000000000000000000002579000045870000005300000031000055440000000000000000000N
021996031010400799ALCOLEA                                                                                             001301300000000842000010000066800000668000000000000000000000308000004370000000000000001000005700000000000000000000N
021996031010400899ALCONTAR                                                                                            005305300000000646000020000058600000586000000000000000000000190000003810000000100000004000004650000000000000000000N
021996031010400999ALCUDIA DE MONTEAGUD                                                                                001301300000000206000010000017100000171000000000000000000000084000001070000000100000002000001360000000000000000000N
021996031010401099ALHABIA                                                                                             001301300000000744000010000056500000565000000000000000000000288000004420000000400000001000004900000000000000000000N
021996031010401199ALHAMA DE ALMERIA                                                                                   001301300000003124000040000238200002382000000000000000000000998000017200000000900000007000020710000000000000000000N
021996031010401299ALICUN                                                                                              001301300000000242000010000020000000200000000000000000000000110000001580000000200000003000001810000000000000000000N
021996031010401399ALMERIA                                                                                             001301300000167361001620012760400127604000000000000000000052966000799070000086500000427000962060000000000000000000N
021996031010401499ALMOCITA                                                                                            001301300000000179000010000016000000160000000000000000000000077000001100000000000000000000001390000000000000000000N
021996031010401599ALSODUX                                                                                             001301300000000123000010000011000000110000000000000000000000068000000910000000000000000000000990000000000000000000N
021996031010401699ANTAS                                                                                               010010000000002595000030000200700002007000000000000000000000626000013110000001200000012000016250000000000000000000N
021996031010401799ARBOLEAS                                                                                            005305300000001537000020000120500001205000000000000000000000464000008150000000400000005000009460000000000000000000N
021996031010401899ARMUÑA DE ALMANZORA                                                                                 005305300000000365000010000028100000281000000000000000000000117000002160000000200000001000002390000000000000000000N
021996031010401999BACARES                                                                                             005305300000000300000010000025600000256000000000000000000000102000001710000000100000002000002030000000000000000000N
021996031010402099BAYARCAL                                                                                            001301300000000388000010000031200000312000000000000000000000126000002040000000200000000000002440000000000000000000N
021996031010402199BAYARQUE                                                                                            005305300000000233000010000020400000204000000000000000000000082000001470000000100000000000001710000000000000000000N
021996031010402299BEDAR                                                                                               010010000000000515000010000038400000384000000000000000000000216000002770000000200000001000003050000000000000000000N
021996031010402399BEIRES                                                                                              001301300000000133000010000013400000134000000000000000000000055000000870000000000000001000000970000000000000000000N
021996031010402499BENAHADUX                                                                                           001301300000002514000020000188900001889000000000000000000000824000013470000000900000004000016150000000000000000000N
021996031010402699BENITAGLA                                                                                           001301300000000105000010000008900000089000000000000000000000023000000350000000000000000000000600000000000000000000N
021996031010402799BENIZALON                                                                                           001301300000000308000010000025000000250000000000000000000000077000001440000000000000000000001810000000000000000000N
021996031010402899BENTARIQUE                                                                                          001301300000000347000010000028700000287000000000000000000000186000002400000000000000000000002600000000000000000000N
021996031010402999BERJA                                                                                               002902900000012731000130000948500009485000000000000000000003747000063060000002000000035000076170000000000000000000N
021996031010403099CANJAYAR                                                                                            001301300000001770000030000146900001469000000000000000000000719000009910000000200000004000012050000000000000000000N
021996031010403199CANTORIA                                                                                            005305300000003342000040000261100002611000000000000000000001221000019570000000500000007000022160000000000000000000N
021996031010403299CARBONERAS                                                                                          010010000000006075000060000438800004388000000000000000000001607000028590000000500000016000035810000000000000000000N
021996031010403399CASTRO DE FILABRES                                                                                  001301300000000150000010000012400000124000000000000000000000065000000800000000000000000000000940000000000000000000N
021996031010403499COBDAR                                                                                              001301300000000269000010000024400000244000000000000000000000112000001830000000100000004000002010000000000000000000N
021996031010403599CUEVAS DEL ALMANZORA                                                                                010010000000009341000110000694300006943000000000000000000002807000047760000002200000028000057410000000000000000000N
021996031010403699CHERCOS                                                                                             005305300000000304000010000024700000247000000000000000000000111000002030000000000000000000002310000000000000000000N
021996031010403799CHIRIVEL                                                                                            005305300000002005000040000159500001595000000000000000000000646000010720000001300000006000012900000000000000000000N
021996031010403899DALIAS                                                                                              002902900000003626000050000286400002864000000000000000000001154000018940000001400000021000022640000000000000000000N
021996031010403999DARRICAL                                                                                            002902900000000306000010000018200000182000000000000000000000060000000960000000000000000000001180000000000000000000N
021996031010404199ENIX                                                                                                001301300000000247000010000020800000208000000000000000000000113000001480000000200000000000001710000000000000000000N
021996031010404399FELIX                                                                                               001301300000000591000010000049000000490000000000000000000000203000002580000000000000003000004160000000000000000000N
021996031010404499FINES                                                                                               005305300000001682000020000129000001290000000000000000000000482000009370000000200000007000010880000000000000000000N
021996031010404599FIÑANA                                                                                              001301300000002700000030000209300002093000000000000000000000887000014180000000400000008000017460000000000000000000N
021996031010404699FONDON                                                                                              001301300000000937000010000079800000798000000000000000000000333000005740000000300000003000006480000000000000000000N
021996031010404799GADOR                                                                                               001301300000002592000020000198400001984000000000000000000001014000016090000000600000002000017860000000000000000000N
021996031010404899GALLARDOS (LOS)                                                                                     010010000000001670000020000130200001302000000000000000000000556000008900000000400000001000011000000000000000000000N
021996031010404999GARRUCHA                                                                                            010010000000004591000040000344300003443000000000000000000001124000023590000001000000008000028100000000000000000000N
021996031010405099GERGAL                                                                                              001301300000001085000010000092200000922000000000000000000000448000006550000000100000001000007490000000000000000000N
021996031010405199HUECIJA                                                                                             001301300000000557000010000045200000452000000000000000000000184000003350000000000000002000003970000000000000000000N
021996031010405299HUERCAL DE ALMERIA                                                                                  001301300000004157000050000345800003458000000000000000000001654000024790000001100000016000028030000000000000000000N
021996031010405399HUERCAL-OVERA                                                                                       005305300000013814000180001066300010663000000000000000000003846000072300000006500000041000086450000000000000000000N
021996031010405499ILLAR                                                                                               001301300000000477000010000038900000389000000000000000000000233000003160000000000000002000003670000000000000000000N
021996031010405599INSTINCION                                                                                          001301300000000595000010000047800000478000000000000000000000214000003740000000000000002000004400000000000000000000N
021996031010405699LAROYA                                                                                              005305300000000124000010000009500000095000000000000000000000033000000590000000000000000000000760000000000000000000N
021996031010405799LAUJAR DE ANDARAX                                                                                   001301300000001864000020000145300001453000000000000000000000599000009570000000500000005000011880000000000000000000N
021996031010405899LIJAR                                                                                               005305300000000528000010000042500000425000000000000000000000117000002700000000000000000000003520000000000000000000N
021996031010405999LUBRIN                                                                                              010010000000001938000030000162300001623000000000000000000000691000010880000000400000006000012330000000000000000000N
021996031010406099LUCAINENA DE LAS TORRES                                                                             001301300000000552000010000046900000469000000000000000000000185000003260000000100000001000003760000000000000000000N
021996031010406199LUCAR                                                                                               005305300000000754000010000063200000632000000000000000000000241000004220000000200000005000005360000000000000000000N
021996031010406299MACAEL                                                                                              005305300000006086000050000432700004327000000000000000000001899000030020000001300000013000034930000000000000000000N
021996031010406399MARIA                                                                                               005305300000001737000030000137100001371000000000000000000000443000008760000000400000003000010930000000000000000000N
021996031010406499MOJACAR                                                                                             010010000000003731000040000198500001985000000000000000000000653000011750000000800000006000015720000000000000000000N
021996031010406599NACIMIENTO                                                                                          001301300000000483000010000045800000458000000000000000000000272000003540000000100000001000004010000000000000000000N
021996031010406699NIJAR                                                                                               001301300000014053000170001066900010669000000000000000000003555000065700000003700000057000078510000000000000000000N
021996031010406799OHANES                                                                                              001301300000000860000010000070300000703000000000000000000000309000004900000000200000003000005890000000000000000000N
021996031010406899OLULA DE CASTRO                                                                                     001301300000000233000010000019500000195000000000000000000000114000001520000000000000000000001640000000000000000000N
021996031010406999OLULA DEL RIO                                                                                       005305300000005841000050000435800004358000000000000000000001797000029450000002700000009000035410000000000000000000N
021996031010407099ORIA                                                                                                005305300000002367000040000195000001950000000000000000000000761000013020000000300000018000015890000000000000000000N
021996031010407199PADULES                                                                                             001301300000000506000010000044700000447000000000000000000000205000003200000000100000001000003680000000000000000000N
021996031010407299PARTALOA                                                                                            005305300000000388000010000034500000345000000000000000000000136000002510000000000000001000002980000000000000000000N
021996031010407399PATERNA DEL RIO                                                                                     001301300000000344000010000030300000303000000000000000000000149000002020000000000000000000002410000000000000000000N
021996031010407499PECHINA                                                                                             001301300000002422000020000184000001840000000000000000000000849000013480000000500000003000015340000000000000000000N
021996031010407599PULPI                                                                                               010010000000004887000050000362700003627000000000000000000001270000024810000001300000024000029960000000000000000000N
021996031010407699PURCHENA                                                                                            005305300000001735000020000134200001342000000000000000000000425000008630000000400000006000011300000000000000000000N
021996031010407799RAGOL                                                                                               001301300000000420000010000034400000344000000000000000000000197000002750000000000000002000003050000000000000000000N
021996031010407899RIOJA                                                                                               001301300000001174000010000092100000921000000000000000000000506000007510000000300000004000008250000000000000000000N
021996031010407999ROQUETAS DE MAR                                                                                     001301300000033306000320002503000025030000000000000000000009348000154850000015400000091000183770000000000000000000N
021996031010408099SANTA CRUZ                                                                                          001301300000000199000010000018500000185000000000000000000000095000001350000000000000001000001550000000000000000000N
021996031010408199SANTA FE DE MONDUJAR                                                                                001301300000000420000010000034600000346000000000000000000000167000002740000000100000003000003080000000000000000000N
021996031010408299SENES                                                                                               001301300000000368000010000030200000302000000000000000000000123000001990000000000000000000002370000000000000000000N
021996031010408399SERON                                                                                               005305300000002992000040000232600002326000000000000000000000873000014550000001100000008000017670000000000000000000N
021996031010408499SIERRO                                                                                              005305300000000561000010000039000000390000000000000000000000135000002610000000400000002000003030000000000000000000N
021996031010408599SOMONTIN                                                                                            005305300000000505000010000041500000415000000000000000000000192000002910000000100000000000003590000000000000000000N
021996031010408699SORBAS                                                                                              001301300000002752000050000221500002215000000000000000000000777000015700000000400000004000017590000000000000000000N
021996031010408799SUFLI                                                                                               005305300000000246000010000020700000207000000000000000000000074000001280000000000000000000001600000000000000000000N
021996031010408899TABERNAS                                                                                            001301300000003155000050000239000002390000000000000000000000976000015900000000400000001000019170000000000000000000N
021996031010408999TABERNO                                                                                             005305300000001040000010000082600000826000000000000000000000273000004740000000000000000000006200000000000000000000N
021996031010409099TAHAL                                                                                               001301300000000499000010000037100000371000000000000000000000239000002670000000000000000000003120000000000000000000N
021996031010409199TERQUE                                                                                              001301300000000449000010000037300000373000000000000000000000208000003120000000400000004000003330000000000000000000N
021996031010409299TIJOLA                                                                                              005305300000003716000050000276800002768000000000000000000001063000019250000002400000010000023630000000000000000000N
021996031010409399TURRE                                                                                               010010000000002188000020000165000001650000000000000000000000611000011850000000800000005000013920000000000000000000N
021996031010409499TURRILLAS                                                                                           001301300000000278000010000019500000195000000000000000000000068000001120000000000000000000001490000000000000000000N
021996031010409599ULEILA DEL CAMPO                                                                                    001301300000001026000010000080600000806000000000000000000000294000005110000000500000002000005930000000000000000000N
021996031010409699URRACAL                                                                                             005305300000000337000010000028500000285000000000000000000000105000001660000000200000000000002400000000000000000000N
021996031010409799VELEFIQUE                                                                                           001301300000000343000010000027000000270000000000000000000000114000001760000000000000001000002010000000000000000000N
021996031010409899VELEZ BLANCO                                                                                        005305300000002303000040000185300001853000000000000000000000679000012780000000400000010000015300000000000000000000N
021996031010409999VELEZ RUBIO                                                                                         005305300000006544000100000525300005253000000000000000000002131000038780000002500000030000044940000000000000000000N
021996031010410099VERA                                                                                                010010000000006431000060000480700004807000000000000000000001700000029800000002200000020000037800000000000000000000N
021996031010410199VIATOR                                                                                              001301300000002922000030000232400002324000000000000000000001101000016990000001300000011000019240000000000000000000N
021996031010410299VICAR                                                                                               001301300000012932000130000926800009268000000000000000000003283000057740000002500000060000068870000000000000000000N
021996031010410399ZURGENA                                                                                             005305300000002190000020000164900001649000000000000000000000639000011420000000700000002000013550000000000000000000N
021996031010490199TRES VILLAS (LAS)                                                                                   001301300000000799000020000065900000659000000000000000000000306000004490000000100000001000005280000000000000000000N
021996031010490299EJIDO (EL)                                                                                          002902900000044373000420003236600032366000000000000000000010896000184250000017700000147000222960000000000000000000N
021996031010490399MOJONERA (LA)                                                                                       001301300000005852000050000414700004147000000000000000000001389000025700000002100000015000031040000000000000000000N
021996031011100199ALCALA DE LOS GAZULES                                                                               003103100000005688000060000444900004449000000000000000000001810000028240000001700000014000033050000000000000000000N
021996031011100299ALCALA DEL VALLE                                                                                    000600600000005421000040000394000003940000000000000000000001350000026770000000700000006000033150000000000000000000N
021996031011100399ALGAR                                                                                               000600600000001891000020000146300001463000000000000000000000580000009660000000200000011000011000000000000000000000N
021996031011100499ALGECIRAS                                                                                           000400400000103787001030007677700076777000000000000000000029862000461400000037600000353000545100000000000000000000N
021996031011100599ALGODONALES                                                                                         000600600000005833000080000441800004418000000000000000000001971000029970000001800000019000034730000000000000000000N
021996031011100699ARCOS DE LA FRONTERA                                                                                000600600000027901000290002100300021003000000000000000000009582000145780000006900000110000166200000000000000000000N
021996031011100799BARBATE DE FRANCO                                                                                   001501500000022664000190001671100016711000000000000000000005274000091190000007400000120000108520000000000000000000N
021996031011100899BARRIOS (LOS)                                                                                       000400400000014920000100001087200010872000000000000000000003992000070100000007500000092000083560000000000000000000N
021996031011100999BENAOCAZ                                                                                            000600600000000578000010000046400000464000000000000000000000217000003210000000100000000000003760000000000000000000N
021996031011101099BORNOS                                                                                              000600600000008051000080000599600005996000000000000000000002520000041240000002200000037000046740000000000000000000N
021996031011101199BOSQUE (EL)                                                                                         000600600000001802000020000137300001373000000000000000000000560000009120000000100000008000011000000000000000000000N
021996031011101299CADIZ                                                                                               001201200000155438001180011812000118120000000000000000000044598000706940000096400000787000851740000000000000000000N
021996031011101399CASTELLAR DE LA FRONTERA                                                                            003303300000002418000020000177500001775000000000000000000000791000013250000000600000013000014860000000000000000000N
021996031011101499CONIL DE LA FRONTERA                                                                                001501500000016359000170001229800012298000000000000000000004434000076030000008400000132000085120000000000000000000N
021996031011101599CHICLANA DE LA FRONTERA                                                                             001501500000050697000500003784200037842000000000000000000014520000228360000019400000216000268180000000000000000000N
021996031011101699CHIPIONA                                                                                            003203200000015399000140001119900011199000000000000000000004282000075040000004700000059000088880000000000000000000N
021996031011101799ESPERA                                                                                              000600600000004197000040000307500003075000000000000000000001349000021640000001100000015000024860000000000000000000N
021996031011101899GASTOR (EL)                                                                                         000600600000002121000030000159500001595000000000000000000000713000011360000000900000007000012880000000000000000000N
021996031011101999GRAZALEMA                                                                                           000600600000002296000030000180100001801000000000000000000000692000013130000000300000014000014980000000000000000000N
021996031011102099JEREZ DE LA FRONTERA                                                                                002002000000186273001810014189200141892000000000000000000059202000869290000103400000641001027450000000000000000000N
021996031011102199JIMENA DE LA FRONTERA                                                                               003303300000009025000120000682500006825000000000000000000003182000048660000003800000035000055800000000000000000000N
021996031011102299LINEA DE LA CONCEPCION (L                                                                           003303300000061280000600004612900046129000000000000000000017176000281800000021000000243000330330000000000000000000N
021996031011102399MEDINA-SIDONIA                                                                                      003103100000010850000110000803200008032000000000000000000003731000058810000003100000035000067660000000000000000000N
021996031011102499OLVERA                                                                                              000600600000009144000080000702600007026000000000000000000002794000046680000003600000032000056920000000000000000000N
021996031011102599PATERNA DE RIVERA                                                                                   003103100000005063000060000364400003644000000000000000000001589000027100000001300000010000030860000000000000000000N
021996031011102699PRADO DEL REY                                                                                       000600600000005665000060000428700004287000000000000000000001865000030110000002000000033000035140000000000000000000N
021996031011102799PUERTO DE SANTA MARIA (EL                                                                           002702700000069656000730005210400052104000000000000000000018388000295660000034100000299000351110000000000000000000N
021996031011102899PUERTO REAL                                                                                         002702700000031086000280002354400023544000000000000000000009501000139630000022300000137000164360000000000000000000N
021996031011102999PUERTO SERRANO                                                                                      000600600000006648000070000464100004641000000000000000000002078000029980000000700000026000033860000000000000000000N
021996031011103099ROTA                                                                                                002702700000024287000290001802400018024000000000000000000006316000108100000007800000097000130710000000000000000000N
021996031011103199SAN FERNANDO                                                                                        003103100000087588000920006523400065234000000000000000000025092000377610000044700000410000454640000000000000000000N
021996031011103299SANLUCAR DE BARRAMEDA                                                                               003203200000059780000730004287700042877000000000000000000013749000234050000021300000297000286840000000000000000000N
021996031011103399SAN ROQUE                                                                                           003303300000022079000300001637400016374000000000000000000007195000111230000011800000089000127160000000000000000000N
021996031011103499SETENIL                                                                                             000600600000003301000040000249500002495000000000000000000000975000015980000000900000007000018970000000000000000000N
021996031011103599TARIFA                                                                                              000400400000014934000160001130800011308000000000000000000004185000073470000006700000068000086620000000000000000000N
021996031011103699TORRE-ALHAQUIME                                                                                     000600600000001004000020000077200000772000000000000000000000236000004510000000500000002000005510000000000000000000N
021996031011103799TREBUJENA                                                                                           003203200000006999000100000527600005276000000000000000000002146000037530000002100000028000043510000000000000000000N
021996031011103899UBRIQUE                                                                                             000600600000018320000190001384500013845000000000000000000006735000099730000009100000095000116460000000000000000000N
021996031011103999VEJER DE LA FRONTERA                                                                                001501500000012957000150000970900009709000000000000000000003147000055130000004700000069000066780000000000000000000N
021996031011104099VILLALUENGA DEL ROSARIO                                                                             000600600000000495000010000032600000326000000000000000000000089000001820000000100000001000002440000000000000000000N
021996031011104199VILLAMARTIN                                                                                         000600600000012473000120000904600009046000000000000000000003870000061520000004300000076000071280000000000000000000N
021996031011104299ZAHARA                                                                                              000600600000001585000020000124100001241000000000000000000000544000008560000000500000004000010140000000000000000000N
021996031011190199BENALUP                                                                                             003103100000006067000090000441800004418000000000000000000001934000031360000002600000018000036980000000000000000000N
021996031011190299SAN JOSE DEL VALLE                                                                                  002002000000004117000040000325300003253000000000000000000001184000019880000000700000016000024040000000000000000000N
021996031011400199ADAMUZ                                                                                              002102100000004557000050000339900003399000000000000000000001294000024220000000200000008000030950000000000000000000N
021996031011400299AGUILAR                                                                                             000200200000013366000130001011900010119000000000000000000004681000074620000002700000029000087610000000000000000000N
021996031011400399ALCARACEJOS                                                                                         005405400000001520000020000116400001164000000000000000000000573000008770000000500000010000010320000000000000000000N
021996031011400499ALMEDINILLA                                                                                         005505500000002627000030000213700002137000000000000000000000796000013210000000700000012000017580000000000000000000N
021996031011400599ALMODOVAR DEL RIO                                                                                   005305300000007297000070000529500005295000000000000000000002102000036050000002300000020000041600000000000000000000N
021996031011400699AÑORA                                                                                               005405400000001687000020000131900001319000000000000000000000779000010560000000600000006000012010000000000000000000N
021996031011400799BAENA                                                                                               000700700000020572000190001443800014438000000000000000000005480000094520000005000000056000112540000000000000000000N
021996031011400899BELALCAZAR                                                                                          005205200000004117000040000326100003261000000000000000000001383000022420000001700000011000026430000000000000000000N
021996031011400999BELMEZ                                                                                              005205200000004395000060000355600003556000000000000000000001635000024240000001800000009000027620000000000000000000N
021996031011401099BENAMEJI                                                                                            003803800000004648000050000360100003601000000000000000000001394000025260000000700000024000030930000000000000000000N
021996031011401199BLAZQUEZ                                                                                            005205200000000751000010000061600000616000000000000000000000242000004510000000100000000000005420000000000000000000N
021996031011401299BUJALANCE                                                                                           002102100000008640000100000640600006406000000000000000000003062000047610000002000000027000055610000000000000000000N
021996031011401399CABRA                                                                                               001301300000020710000210001588500015885000000000000000000006204000102550000007800000086000132920000000000000000000N
021996031011401499CAÑETE DE LAS TORRES                                                                                002102100000003433000040000270200002702000000000000000000001282000020550000000900000015000023950000000000000000000N
021996031011401599CARCABUEY                                                                                           005505500000002923000040000232900002329000000000000000000000849000013650000000800000002000019910000000000000000000N
021996031011401699CARDEÑA                                                                                             002102100000002093000030000168100001681000000000000000000000855000012780000000800000003000014850000000000000000000N
021996031011401799CARLOTA (LA)                                                                                        005305300000009836000130000766000007660000000000000000000003342000055290000003000000024000063790000000000000000000N
021996031011401899CARPIO (EL)                                                                                         002102100000004636000060000363700003637000000000000000000001752000027150000001000000013000031000000000000000000000N
021996031011401999CASTRO DEL RIO                                                                                      002102100000007968000090000625600006256000000000000000000002753000048200000003100000053000054270000000000000000000N
021996031011402099CONQUISTA                                                                                           005405400000000564000010000045800000458000000000000000000000204000002880000000000000001000003480000000000000000000N
021996031011402199CORDOBA                                                                                             002102100000315948003330024256900242569000000000000000000110392001606940000195800001126001898970000000000000000000N
021996031011402299DOÑA MENCIA                                                                                         001301300000005172000040000393400003934000000000000000000001333000023180000001000000018000033320000000000000000000N
021996031011402399DOS TORRES                                                                                          005405400000002563000030000200600002006000000000000000000001154000016270000000200000009000018210000000000000000000N
021996031011402499ENCINAS REALES                                                                                      003803800000002368000020000191300001913000000000000000000000786000014310000000400000007000016540000000000000000000N
021996031011402599ESPEJO                                                                                              002102100000005067000060000338400003384000000000000000000001748000027650000000700000025000031080000000000000000000N
021996031011402699ESPIEL                                                                                              005205200000002620000030000193800001938000000000000000000001001000014090000001000000004000016390000000000000000000N
021996031011402799FERNAN NUÑEZ                                                                                        004204200000009629000110000731900007319000000000000000000003555000054860000003300000026000061980000000000000000000N
021996031011402899FUENTE LA LANCHA                                                                                    005205200000000460000010000036800000368000000000000000000000184000002910000000000000000000003270000000000000000000N
021996031011402999FUENTE OBEJUNA                                                                                      005205200000006378000110000505500005055000000000000000000002380000035740000001000000021000042150000000000000000000N
021996031011403099FUENTE PALMERA                                                                                      005305300000009786000110000704500007045000000000000000000002898000051660000001400000028000060470000000000000000000N
021996031011403199FUENTE-TOJAR                                                                                        005505500000000881000010000072400000724000000000000000000000320000005110000000000000002000006210000000000000000000N
021996031011403299GRANJUELA (LA)                                                                                      005205200000000537000010000042800000428000000000000000000000216000003220000000000000004000003610000000000000000000N
021996031011403399GUADALCAZAR                                                                                         005305300000001173000010000084400000844000000000000000000000370000006450000000400000000000007400000000000000000000N
021996031011403499GUIJO                                                                                               005405400000000445000010000037000000370000000000000000000000168000002780000000000000002000003200000000000000000000N
021996031011403599HINOJOSA DEL DUQUE                                                                                  005205200000008265000090000653600006536000000000000000000003244000047410000001800000029000056150000000000000000000N
021996031011403699HORNACHUELOS                                                                                        005305300000005152000060000372400003724000000000000000000001741000029360000002000000020000032040000000000000000000N
021996031011403799IZNAJAR                                                                                             003803800000005588000080000438200004382000000000000000000001333000025550000002300000030000035410000000000000000000N
021996031011403899LUCENA                                                                                              003803800000034262000330002551000025510000000000000000000010352000165680000012200000109000206840000000000000000000N
021996031011403999LUQUE                                                                                               000700700000003404000030000276700002767000000000000000000001020000018630000000600000009000023540000000000000000000N
021996031011404099MONTALBAN DE CORDOBA                                                                                004204200000004623000040000362600003626000000000000000000001571000026920000002300000015000030660000000000000000000N
021996031011404199MONTEMAYOR                                                                                          004204200000003765000040000293000002930000000000000000000001404000022540000001000000014000025790000000000000000000N
021996031011404299MONTILLA                                                                                            004204200000023311000240001814200018142000000000000000000008125000128700000010200000116000157310000000000000000000N
021996031011404399MONTORO                                                                                             002102100000009828000090000750100007501000000000000000000003511000054170000001800000032000063040000000000000000000N
021996031011404499MONTURQUE                                                                                           000200200000002002000020000147900001479000000000000000000000676000009260000000400000007000013180000000000000000000N
021996031011404599MORILES                                                                                             000200200000003762000040000290700002907000000000000000000001167000020870000001200000009000025810000000000000000000N
021996031011404699NUEVA CARTEYA                                                                                       001301300000005842000060000429200004292000000000000000000002010000031340000001600000018000037920000000000000000000N
021996031011404799OBEJO                                                                                               002102100000001465000020000119300001193000000000000000000000468000007480000000700000003000009350000000000000000000N
021996031011404899PALENCIANA                                                                                          003803800000001691000020000126300001263000000000000000000000547000009400000000600000008000010510000000000000000000N
021996031011404999PALMA DEL RIO                                                                                       005305300000019121000220001448800014488000000000000000000006184000105490000007300000091000121320000000000000000000N
021996031011405099PEDRO ABAD                                                                                          002102100000003040000040000230800002308000000000000000000001104000017090000000700000013000019930000000000000000000N
021996031011405199PEDROCHE                                                                                            005405400000001930000020000151000001510000000000000000000000715000010630000000600000011000012430000000000000000000N
021996031011405299PEÑARROYA-PUEBLONUEVO                                                                               005205200000014159000180001078000010780000000000000000000004965000071100000003400000041000083370000000000000000000N
021996031011405399POSADAS                                                                                             005305300000007240000080000549200005492000000000000000000002617000038600000002900000012000045580000000000000000000N
021996031011405499POZOBLANCO                                                                                          005405400000015679000190001205000012050000000000000000000006376000087270000009100000053000105220000000000000000000N
021996031011405599PRIEGO DE CORDOBA                                                                                   005505500000022344000310001733200017332000000000000000000007064000113140000007700000110000143010000000000000000000N
021996031011405699PUENTE GENIL                                                                                        000200200000027598000290002153400021534000000000000000000008643000150980000009900000101000175020000000000000000000N
021996031011405799RAMBLA (LA)                                                                                         004204200000007066000070000535700005357000000000000000000002481000041470000002800000020000047430000000000000000000N
021996031011405899RUTE                                                                                                003803800000010220000100000788200007882000000000000000000003110000051320000003100000031000066760000000000000000000N
021996031011405999SAN SEBASTIAN DE LOS BALL                                                                           004204200000000837000010000067700000677000000000000000000000379000005260000000600000009000005790000000000000000000N
021996031011406099SANTAELLA                                                                                           004204200000005826000060000428300004283000000000000000000001741000030980000001300000019000037260000000000000000000N
021996031011406199SANTA EUFEMIA                                                                                       005405400000001268000010000103500001035000000000000000000000504000007730000000000000003000009060000000000000000000N
021996031011406299TORRECAMPO                                                                                          005405400000001556000020000124500001245000000000000000000000585000009170000000600000004000010410000000000000000000N
021996031011406399VALENZUELA                                                                                          000700700000001553000020000128800001288000000000000000000000554000009490000000700000006000011040000000000000000000N
021996031011406499VALSEQUILLO                                                                                         005205200000000524000010000044700000447000000000000000000000207000003130000000200000004000003650000000000000000000N
021996031011406599VICTORIA (LA)                                                                                       004204200000001752000020000139600001396000000000000000000000683000011300000000800000008000012650000000000000000000N
021996031011406699VILLA DEL RIO                                                                                       002102100000007152000070000532300005323000000000000000000002636000040820000001900000013000046510000000000000000000N
021996031011406799VILLAFRANCA DE CORDOBA                                                                              002102100000003707000050000286400002864000000000000000000001427000021730000001800000009000024890000000000000000000N
021996031011406899VILLAHARTA                                                                                          005205200000000630000010000051700000517000000000000000000000257000003780000000200000000000004470000000000000000000N
021996031011406999VILLANUEVA DE CORDOBA                                                                               005405400000010374000120000818200008182000000000000000000003841000055270000003000000055000068880000000000000000000N
021996031011407099VILLANUEVA DEL DUQUE                                                                                005405400000001992000020000161200001612000000000000000000000763000011090000000800000005000013460000000000000000000N
021996031011407199VILLANUEVA DEL REY                                                                                  005205200000001324000020000106600001066000000000000000000000512000007400000000300000005000008990000000000000000000N
021996031011407299VILLARALTO                                                                                          005405400000001700000020000138500001385000000000000000000000770000010470000000100000005000011580000000000000000000N
021996031011407399VILLAVICIOSA DE CORDOBA                                                                             002102100000004011000040000326100003261000000000000000000001546000022220000000500000007000027930000000000000000000N
021996031011407499VISO (EL)                                                                                           005405400000003447000050000268000002680000000000000000000001642000020500000000900000006000022930000000000000000000N
021996031011407599ZUHEROS                                                                                             001301300000000956000010000079400000794000000000000000000000322000005550000000200000003000007050000000000000000000N
021996031011800199AGRON                                                                                               012212200000000451000010000035800000358000000000000000000000139000002700000000100000001000002990000000000000000000N
021996031011800299ALAMEDILLA                                                                                          008908900000001004000010000076300000763000000000000000000000276000005380000000300000001000006290000000000000000000N
021996031011800399ALBOLOTE                                                                                            008708700000011358000120000836300008363000000000000000000003763000058140000004000000054000067820000000000000000000N
021996031011800499ALBONDON                                                                                            014714700000001316000020000103300001033000000000000000000000403000006420000000400000000000008270000000000000000000N
021996031011800599ALBUÑAN                                                                                             008908900000000488000010000041700000417000000000000000000000150000002820000000000000000000003260000000000000000000N
021996031011800699ALBUÑOL                                                                                             014714700000005578000060000416000004160000000000000000000001549000027170000000600000011000033810000000000000000000N
021996031011800799ALBUÑUELAS                                                                                          014714700000001357000020000107500001075000000000000000000000382000006560000000300000003000008420000000000000000000N
021996031011801099ALDEIRE                                                                                             008908900000000814000010000067800000678000000000000000000000243000004680000000200000001000005640000000000000000000N
021996031011801199ALFACAR                                                                                             008708700000003992000040000307400003074000000000000000000001428000021270000001300000011000024860000000000000000000N
021996031011801299ALGARINEJO                                                                                          012212200000005194000070000350500003505000000000000000000001087000017590000001500000007000024480000000000000000000N
021996031011801399ALHAMA DE GRANADA                                                                                   012212200000006142000060000476700004767000000000000000000002074000032360000002000000033000038780000000000000000000N
021996031011801499ALHENDIN                                                                                            008708700000003954000040000303400003034000000000000000000001242000020680000001600000003000025160000000000000000000N
021996031011801599ALICUN DE ORTEGA                                                                                    008908900000000805000010000055500000555000000000000000000000195000003520000000100000001000004320000000000000000000N
021996031011801699ALMEGIJAR                                                                                           014714700000000443000010000037800000378000000000000000000000142000002620000000200000002000003130000000000000000000N
021996031011801799ALMUÑECAR                                                                                           014014000000021102000230001527600015276000000000000000000006655000102330000005500000066000120240000000000000000000N
021996031011801899ALQUIFE                                                                                             008908900000001079000010000087500000875000000000000000000000359000005700000000300000001000007380000000000000000000N
021996031011802099ARENAS DEL REY                                                                                      012212200000002118000030000174400001744000000000000000000000648000011570000000200000003000013970000000000000000000N
021996031011802199ARMILLA                                                                                             008708700000012116000120000909300009093000000000000000000003884000057590000006000000028000067520000000000000000000N
021996031011802299ATARFE                                                                                              008708700000010508000090000785500007855000000000000000000003299000054610000003400000029000063050000000000000000000N
021996031011802399BAZA                                                                                                002302300000021640000230001635500016355000000000000000000005712000093570000005800000042000111880000000000000000000N
021996031011802499BEAS DE GRANADA                                                                                     008708700000000943000010000078900000789000000000000000000000308000005450000001100000005000006510000000000000000000N
021996031011802599BEAS DE GUADIX                                                                                      008908900000000413000010000033900000339000000000000000000000158000002560000000100000000000002850000000000000000000N
021996031011802799BENALUA DE GUADIX                                                                                   008908900000003444000040000255700002557000000000000000000000978000018330000004100000007000020210000000000000000000N
021996031011802899BENALUA DE LAS VILLAS                                                                               008708700000001407000010000117900001179000000000000000000000440000008200000000100000005000010310000000000000000000N
021996031011802999BENAMAUREL                                                                                          002302300000002564000030000206400002064000000000000000000000957000014050000000600000003000016090000000000000000000N
021996031011803099BERCHULES                                                                                           014714700000000866000010000069600000696000000000000000000000308000004150000000000000004000005190000000000000000000N
021996031011803299BUBION                                                                                              014714700000000369000010000027400000274000000000000000000000105000001590000000000000000000002120000000000000000000N
021996031011803399BUSQUISTAR                                                                                          014714700000000460000010000031900000319000000000000000000000094000001860000000100000001000002420000000000000000000N
021996031011803499CACIN                                                                                               012212200000000891000020000073900000739000000000000000000000321000005430000000100000000000006270000000000000000000N
021996031011803599CADIAR                                                                                              014714700000001983000030000157600001576000000000000000000000702000010390000001000000005000012360000000000000000000N
021996031011803699CAJAR                                                                                               008708700000002432000020000196300001963000000000000000000000940000013390000002000000004000015890000000000000000000N
021996031011803799CALICASAS                                                                                           008708700000000605000010000048200000482000000000000000000000195000003440000000100000000000004390000000000000000000N
021996031011803899CAMPOTEJAR                                                                                          008708700000001478000020000115600001156000000000000000000000235000007680000000100000002000010370000000000000000000N
021996031011803999CANILES                                                                                             002302300000005280000070000414700004147000000000000000000001346000026340000000500000009000032180000000000000000000N
021996031011804099CAÑAR                                                                                               014714700000000345000010000026700000267000000000000000000000096000001370000000200000002000001760000000000000000000N
021996031011804299CAPILEIRA                                                                                           014714700000000581000010000045900000459000000000000000000000181000002820000000300000000000003780000000000000000000N
021996031011804399CARATAUNAS                                                                                          014714700000000219000010000014900000149000000000000000000000044000000800000000200000001000001050000000000000000000N
021996031011804499CASTARAS                                                                                            014714700000000339000010000028800000288000000000000000000000080000001480000000100000000000001950000000000000000000N
021996031011804599CASTILLEJAR                                                                                         002302300000002205000030000180200001802000000000000000000000714000010990000000700000005000012460000000000000000000N
021996031011804699CASTRIL                                                                                             002302300000003204000050000252300002523000000000000000000000667000014980000000400000015000017720000000000000000000N
021996031011804799CENES DE LA VEGA                                                                                    008708700000003169000020000268800002688000000000000000000001025000016830000002000000009000020670000000000000000000N
021996031011804899CIJUELA                                                                                             008708700000001451000010000115800001158000000000000000000000540000008940000000500000003000009990000000000000000000N
021996031011804999COGOLLOS DE GUADIX                                                                                  008908900000000797000010000064600000646000000000000000000000319000005250000000200000004000005330000000000000000000N
021996031011805099COGOLLOS VEGA                                                                                       008708700000002072000020000159000001590000000000000000000000632000011280000000100000006000013490000000000000000000N
021996031011805199COLOMERA                                                                                            008708700000001870000020000143500001435000000000000000000000527000009250000000700000006000011830000000000000000000N
021996031011805399CORTES DE BAZA                                                                                      002302300000002950000040000237600002376000000000000000000000787000014850000001200000002000017270000000000000000000N
021996031011805499CORTES Y GRAENA                                                                                     008908900000001025000010000085600000856000000000000000000000294000005450000000400000002000006650000000000000000000N
021996031011805699CULLAR                                                                                              002302300000005518000100000428700004287000000000000000000001922000031860000001400000014000036590000000000000000000N
021996031011805799CULLAR-VEGA                                                                                         008708700000002041000020000166900001669000000000000000000000726000012800000001300000005000014070000000000000000000N
021996031011805999CHAUCHINA                                                                                           008708700000003972000040000318500003185000000000000000000001350000023720000000600000009000027180000000000000000000N
021996031011806199CHIMENEAS                                                                                           012212200000001606000020000128700001287000000000000000000000507000009170000000400000009000010890000000000000000000N
021996031011806299CHURRIANA DE LA VEGA                                                                                008708700000006013000070000458800004588000000000000000000001950000032700000001800000019000038060000000000000000000N
021996031011806399DARRO                                                                                               008708700000001638000020000121700001217000000000000000000000469000007900000000400000008000009650000000000000000000N
021996031011806499DEHESAS DE GUADIX                                                                                   008908900000000681000010000048500000485000000000000000000000177000003300000000100000000000003980000000000000000000N
021996031011806699DEIFONTES                                                                                           008708700000002560000030000201000002010000000000000000000000836000013840000000100000003000016400000000000000000000N
021996031011806799DIEZMA                                                                                              008708700000001036000010000082900000829000000000000000000000308000005430000000000000002000007180000000000000000000N
021996031011806899DILAR                                                                                               008708700000001529000020000126000001260000000000000000000000518000008120000000200000009000009940000000000000000000N
021996031011806999DOLAR                                                                                               008908900000000704000010000057400000574000000000000000000000310000004420000000800000002000004740000000000000000000N
021996031011807099DUDAR                                                                                               008708700000000273000010000021800000218000000000000000000000068000001390000000100000001000001900000000000000000000N
021996031011807199DURCAL                                                                                              014714700000006155000060000476900004769000000000000000000001997000031680000003000000023000038900000000000000000000N
021996031011807299ESCUZAR                                                                                             008708700000000970000010000078700000787000000000000000000000352000005550000000000000005000006350000000000000000000N
021996031011807499FERREIRA                                                                                            008908900000000419000010000035100000351000000000000000000000138000002350000000100000002000002910000000000000000000N
021996031011807699FONELAS                                                                                             008908900000001369000010000100900001009000000000000000000000385000006580000000000000003000007660000000000000000000N
021996031011807899FREILA                                                                                              002302300000001240000010000093900000939000000000000000000000350000006370000000300000005000007250000000000000000000N
021996031011807999FUENTE VAQUEROS                                                                                     008708700000003960000040000304000003040000000000000000000001319000022650000001800000020000026040000000000000000000N
021996031011808299GALERA                                                                                              002302300000001613000020000130500001305000000000000000000000434000007550000000500000004000009500000000000000000000N
021996031011808399GOBERNADOR                                                                                          008908900000000404000010000035300000353000000000000000000000165000002550000000000000001000002930000000000000000000N
021996031011808499GOJAR                                                                                               008708700000002716000030000220300002203000000000000000000000985000015630000002600000008000017700000000000000000000N
021996031011808599GOR                                                                                                 008908900000001292000020000101500001015000000000000000000000403000006210000000400000001000007450000000000000000000N
021996031011808699GORAFE                                                                                              008908900000000603000010000047700000477000000000000000000000233000003790000000200000002000004290000000000000000000N
021996031011808799GRANADA                                                                                             008708700000271180002950021024700210247000000000000000000091496001360200000197500000730001616350000000000000000000N
021996031011808899GUADAHORTUNA                                                                                        008708700000002450000020000175800001758000000000000000000000839000012210000000500000002000014950000000000000000000N
021996031011808999GUADIX                                                                                              008908900000020658000170001486100014861000000000000000000005667000095480000004100000046000110980000000000000000000N
021996031011809399GUALCHOS                                                                                            014014000000003048000040000231100002311000000000000000000000976000016940000000500000003000019160000000000000000000N
021996031011809499GUEJAR-SIERRA                                                                                       008708700000002873000030000223900002239000000000000000000000880000014190000001000000005000018070000000000000000000N
021996031011809599GUEVEJAR                                                                                            008708700000001378000010000107400001074000000000000000000000380000008400000000400000002000009580000000000000000000N
021996031011809699HUELAGO                                                                                             008908900000000712000010000052700000527000000000000000000000220000003970000000200000000000004360000000000000000000N
021996031011809799HUENEJA                                                                                             008908900000001353000020000110700001107000000000000000000000319000006650000000000000005000008930000000000000000000N
021996031011809899HUESCAR                                                                                             002302300000010196000120000847600008476000000000000000000002806000043710000003400000018000052980000000000000000000N
021996031011809999HUETOR-SANTILLAN                                                                                    008708700000001639000020000131500001315000000000000000000000585000009470000000700000005000011010000000000000000000N
021996031011810099HUETOR-TAJAR                                                                                        012212200000007956000100000631500006315000000000000000000002677000044750000002000000034000052300000000000000000000N
021996031011810199HUETOR-VEGA                                                                                         008708700000007320000070000558300005583000000000000000000002487000035730000003500000023000043260000000000000000000N
021996031011810299ILLORA                                                                                              012212200000011025000120000833500008335000000000000000000003506000058340000001400000049000069220000000000000000000N
021996031011810399ITRABO                                                                                              014014000000001080000010000088000000880000000000000000000000428000006840000000200000003000008040000000000000000000N
021996031011810599IZNALLOZ                                                                                            008708700000006880000080000507200005072000000000000000000002208000035290000001300000013000042870000000000000000000N
021996031011810799JAYENA                                                                                              012212200000001553000010000119600001196000000000000000000000456000008180000000200000001000009580000000000000000000N
021996031011810899JEREZ DEL MARQUESADO                                                                                008908900000001255000010000103300001033000000000000000000000478000007300000000000000001000008450000000000000000000N
021996031011810999JETE                                                                                                014014000000000742000010000061000000610000000000000000000000269000004700000000000000001000005590000000000000000000N
021996031011811199JUN                                                                                                 008708700000001355000010000106600001066000000000000000000000354000006670000000300000002000008630000000000000000000N
021996031011811299JUVILES                                                                                             014714700000000224000010000014700000147000000000000000000000058000000780000000100000000000000980000000000000000000N
021996031011811499CALAHORRA (LA)                                                                                      008908900000001042000010000082800000828000000000000000000000226000005060000000400000001000006390000000000000000000N
021996031011811599LACHAR                                                                                              008708700000002385000030000186300001863000000000000000000000826000013330000000600000011000015560000000000000000000N
021996031011811699LANJARON                                                                                            014714700000004052000040000331600003316000000000000000000001432000020880000001100000016000025740000000000000000000N
021996031011811799LANTEIRA                                                                                            008908900000000706000010000060400000604000000000000000000000279000004380000000800000004000005030000000000000000000N
021996031011811999LECRIN                                                                                              014714700000002450000050000204400002044000000000000000000000818000014340000000300000015000016740000000000000000000N
021996031011812099LENTEJI                                                                                             014014000000000380000010000029000000290000000000000000000000132000002110000000000000001000002570000000000000000000N
021996031011812199LOBRAS                                                                                              014714700000000219000010000018700000187000000000000000000000075000001170000000000000004000001440000000000000000000N
021996031011812299LOJA                                                                                                012212200000021729000300001559300015593000000000000000000006095000101690000006800000112000124650000000000000000000N
021996031011812399LUGROS                                                                                              008908900000000448000010000039500000395000000000000000000000162000002590000000000000000000003090000000000000000000N
021996031011812499LUJAR                                                                                               014014000000000613000010000045500000455000000000000000000000226000003200000000000000000000003750000000000000000000N
021996031011812699MALAHA (LA)                                                                                         008708700000001643000020000130600001306000000000000000000000751000010270000000500000001000011290000000000000000000N
021996031011812799MARACENA                                                                                            008708700000013855000170001050800010508000000000000000000004858000072200000006800000051000084790000000000000000000N
021996031011812899MARCHAL                                                                                             008908900000000485000010000037100000371000000000000000000000146000002510000000000000001000003110000000000000000000N
021996031011813299MOCLIN                                                                                              008708700000004887000060000368400003684000000000000000000001563000027410000000600000013000031920000000000000000000N
021996031011813399MOLVIZAR                                                                                            014014000000002711000020000224400002244000000000000000000001054000016700000000300000006000019990000000000000000000N
021996031011813499MONACHIL                                                                                            008708700000004871000050000381100003811000000000000000000001568000022100000001700000011000028100000000000000000000N
021996031011813599MONTEFRIO                                                                                           012212200000008180000090000585100005851000000000000000000002056000033570000001700000028000043440000000000000000000N
021996031011813699MONTEJICAR                                                                                          008708700000003023000030000217800002178000000000000000000000913000014910000000700000003000018920000000000000000000N
021996031011813799MONTILLANA                                                                                          008708700000001427000010000117900001179000000000000000000000450000006750000000100000007000009830000000000000000000N
021996031011813899MORALEDA DE ZAFAYONA                                                                                012212200000002677000030000210600002106000000000000000000000913000014970000000600000001000017310000000000000000000N
021996031011814099MOTRIL                                                                                              014014000000048984000550003672500036725000000000000000000015448000235490000016500000172000282070000000000000000000N
021996031011814199MURTAS                                                                                              014714700000001075000010000084400000844000000000000000000000270000004470000000200000007000005450000000000000000000N
021996031011814399NIGUELAS                                                                                            014714700000001211000010000099300000993000000000000000000000323000006580000000200000007000008140000000000000000000N
021996031011814499NIVAR                                                                                               008708700000000631000010000053300000533000000000000000000000205000003500000000400000001000004340000000000000000000N
021996031011814599OGIJARES                                                                                            008708700000006120000070000484000004840000000000000000000002124000032310000003900000020000038520000000000000000000N
021996031011814699ORCE                                                                                                002302300000001488000020000124300001243000000000000000000000558000008290000000300000010000009930000000000000000000N
021996031011814799ORGIVA                                                                                              014714700000005345000060000390600003906000000000000000000001637000023610000001000000010000029120000000000000000000N
021996031011814899OTIVAR                                                                                              014014000000001155000010000091400000914000000000000000000000380000006010000000300000000000008010000000000000000000N
021996031011814999OTURA                                                                                               008708700000003238000040000264900002649000000000000000000001151000018100000001000000012000021810000000000000000000N
021996031011815099PADUL                                                                                               008708700000006445000070000505400005054000000000000000000002341000035030000001900000019000042030000000000000000000N
021996031011815199PAMPANEIRA                                                                                          014714700000000356000010000026100000261000000000000000000000081000001420000000200000000000001890000000000000000000N
021996031011815299PEDRO-MARTINEZ                                                                                      008908900000001553000020000133000001330000000000000000000000646000009300000000400000006000010910000000000000000000N
021996031011815399PELIGROS                                                                                            008708700000006969000060000517000005170000000000000000000002351000036980000002400000023000042890000000000000000000N
021996031011815499PEZA (LA)                                                                                           008908900000001568000010000127500001275000000000000000000000500000008460000000000000001000009940000000000000000000N
021996031011815799PINOS-GENIL                                                                                         008708700000001133000010000084100000841000000000000000000000406000006440000000700000003000007360000000000000000000N
021996031011815899PINOS-PUENTE                                                                                        008708700000013878000130001030100010301000000000000000000004219000071870000003400000046000083250000000000000000000N
021996031011815999PIÑAR                                                                                               008708700000001527000020000114500001145000000000000000000000437000008270000000000000001000009920000000000000000000N
021996031011816199POLICAR                                                                                             008908900000000261000010000020700000207000000000000000000000088000001520000000000000001000001840000000000000000000N
021996031011816299POLOPOS                                                                                             014714700000001216000020000097900000979000000000000000000000377000006070000000000000003000008090000000000000000000N
021996031011816399PORTUGOS                                                                                            014714700000000469000010000039400000394000000000000000000000099000002270000000300000002000003260000000000000000000N
021996031011816499PUEBLA DE DON FADRIQUE                                                                              002302300000002677000040000212800002128000000000000000000000698000013820000001000000009000017130000000000000000000N
021996031011816599PULIANAS                                                                                            008708700000002898000030000223000002230000000000000000000001140000016670000000700000007000018620000000000000000000N
021996031011816799PURULLENA                                                                                           008908900000002634000030000197500001975000000000000000000000722000012960000000200000005000015680000000000000000000N
021996031011816899QUENTAR                                                                                             008708700000001166000010000087900000879000000000000000000000331000005600000000600000002000007000000000000000000000N
021996031011817099RUBITE                                                                                              014714700000000442000010000035900000359000000000000000000000142000002230000000100000000000002870000000000000000000N
021996031011817199SALAR                                                                                               012212200000002801000030000217000002170000000000000000000001028000016090000000200000008000018540000000000000000000N
021996031011817399SALOBREÑA                                                                                           014014000000009983000100000723500007235000000000000000000002982000049760000004200000017000057940000000000000000000N
021996031011817499SANTA CRUZ DEL COMERCIO                                                                             012212200000000592000010000045900000459000000000000000000000200000003380000000200000004000003910000000000000000000N
021996031011817599SANTA FE                                                                                            008708700000012608000130000952600009526000000000000000000004253000068580000005700000050000078420000000000000000000N
021996031011817699SOPORTUJAR                                                                                          014714700000000275000010000023600000236000000000000000000000073000001430000000000000000000001830000000000000000000N
021996031011817799SORVILAN                                                                                            014714700000000945000020000063200000632000000000000000000000203000003380000000100000003000004520000000000000000000N
021996031011817899TORRE-CARDELA                                                                                       008708700000001300000010000106700001067000000000000000000000365000007500000000000000001000008920000000000000000000N
021996031011817999TORVIZCON                                                                                           014714700000001126000010000089600000896000000000000000000000296000005450000000400000000000006840000000000000000000N
021996031011818099TREVELEZ                                                                                            014714700000000820000010000065000000650000000000000000000000267000003850000000200000003000005120000000000000000000N
021996031011818199TURON                                                                                               014714700000000428000010000034300000343000000000000000000000103000001600000000000000004000002080000000000000000000N
021996031011818299UGIJAR                                                                                              014714700000003012000040000233500002335000000000000000000000862000014150000000900000003000017510000000000000000000N
021996031011818399VALOR                                                                                               014714700000001135000010000089700000897000000000000000000000327000005700000000000000003000006990000000000000000000N
021996031011818499VELEZ DE BENAUDALLA                                                                                 014014000000002556000020000204200002042000000000000000000000979000014850000000300000010000016920000000000000000000N
021996031011818599VENTAS DE HUELMA                                                                                    012212200000000697000010000058600000586000000000000000000000289000004270000000100000000000004900000000000000000000N
021996031011818799VILLANUEVA DE LAS TORRES                                                                            008908900000001069000010000077500000775000000000000000000000292000005510000000000000000000006210000000000000000000N
021996031011818899VILLANUEVA MESIA                                                                                    012212200000001955000020000149700001497000000000000000000000646000011370000000800000006000012860000000000000000000N
021996031011818999VIZNAR                                                                                              008708700000000816000010000060200000602000000000000000000000252000004140000000100000003000005000000000000000000000N
021996031011819299ZAFARRAYA                                                                                           012212200000002233000030000179500001795000000000000000000000718000012860000000600000007000015500000000000000000000N
021996031011819399ZUBIA (LA)                                                                                          008708700000010233000110000796600007966000000000000000000003470000053780000005500000022000063330000000000000000000N
021996031011819499ZUJAR                                                                                               002302300000003062000030000241500002415000000000000000000000945000017010000000800000009000019760000000000000000000N
021996031011890199TAHA (LA)                                                                                           014714700000000981000010000077100000771000000000000000000000278000004080000000400000000000005270000000000000000000N
021996031011890299VALLE (EL)                                                                                          014714700000001494000030000121900001219000000000000000000000594000008870000000300000006000010270000000000000000000N
021996031011890399NEVADA                                                                                              014714700000001503000030000121700001217000000000000000000000495000007080000000900000007000009340000000000000000000N
021996031011890499ALPUJARRA DE LA SIERRA                                                                              014714700000001299000020000107200001072000000000000000000000500000007400000000800000004000008660000000000000000000N
021996031011890599GABIAS (LAS)                                                                                        008708700000006627000070000525800005258000000000000000000002520000037200000003400000011000042380000000000000000000N
021996031011890699GUAJARES (LOS)                                                                                      014014000000001491000030000125900001259000000000000000000000490000008000000000200000006000010350000000000000000000N
021996031011890799VALLE DEL ZALABI                                                                                    008908900000002530000040000207100002071000000000000000000000929000014660000000300000004000017830000000000000000000N
021996031011890899VILLAMENA                                                                                           014714700000001032000020000083300000833000000000000000000000367000005760000000100000004000006960000000000000000000N
021996031011890999MORELABOR                                                                                           008708700000001027000010000082100000821000000000000000000000368000005490000000200000003000006990000000000000000000N
021996031011891099PINAR (EL)                                                                                          014714700000001308000020000104800001048000000000000000000000389000006840000000300000003000008320000000000000000000N
021996031011891199VEGAS DEL GENIL                                                                                     008708700000002683000040000220100002201000000000000000000000895000015480000001100000012000018080000000000000000000N
021996031011891299CUEVAS DEL CAMPO                                                                                    002302300000002409000030000192500001925000000000000000000000639000011490000000400000007000014670000000000000000000N
021996031011891399ZAGRA                                                                                               012212200000001264000020000104500001045000000000000000000000390000006160000000200000001000008360000000000000000000N
021996031012100199ALAJAR                                                                                              000700700000000861000010000064000000640000000000000000000000302000004200000000100000001000004740000000000000000000N
021996031012100299ALJARAQUE                                                                                           004104100000007565000060000606200006062000000000000000000002219000036830000005300000026000046540000000000000000000N
021996031012100399ALMENDRO (EL)                                                                                       001001000000000867000010000066700000667000000000000000000000296000005140000000100000002000005640000000000000000000N
021996031012100499ALMONASTER LA REAL                                                                                  000700700000002145000040000170600001706000000000000000000000609000010280000000800000012000012560000000000000000000N
021996031012100599ALMONTE                                                                                             005405400000017107000190001261700012617000000000000000000005156000078280000004800000058000097820000000000000000000N
021996031012100699ALOSNO                                                                                              007207200000004965000060000400600004006000000000000000000001725000027770000001000000020000031800000000000000000000N
021996031012100799ARACENA                                                                                             000700700000006746000060000514700005147000000000000000000002061000031800000002400000043000039400000000000000000000N
021996031012100899AROCHE                                                                                              000700700000003633000040000286700002867000000000000000000001149000017730000000900000015000021850000000000000000000N
021996031012100999ARROYOMOLINOS DE LEON                                                                               000700700000001227000020000096900000969000000000000000000000407000005990000000300000005000007670000000000000000000N
021996031012101099AYAMONTE                                                                                            001001000000015796000190001195300011953000000000000000000003789000069250000004900000048000082030000000000000000000N
021996031012101199BEAS                                                                                                004104100000004081000040000320600003206000000000000000000001466000023970000001300000009000027810000000000000000000N
021996031012101299BERROCAL                                                                                            007207200000000419000010000035500000355000000000000000000000171000002610000000300000002000002920000000000000000000N
021996031012101399BOLLULLOS PAR DEL CONDADO                                                                           005405400000012824000120001009200010092000000000000000000004200000065680000004000000041000079270000000000000000000N
021996031012101499BONARES                                                                                             005005000000005011000050000385300003853000000000000000000001698000027710000001400000012000033930000000000000000000N
021996031012101599CABEZAS RUBIAS                                                                                      007207200000000967000010000073800000738000000000000000000000233000004010000000000000001000004970000000000000000000N
021996031012101699CALA                                                                                                000700700000001530000020000121900001219000000000000000000000489000008330000000800000007000009800000000000000000000N
021996031012101799CALAÑAS                                                                                             007207200000005043000060000399500003995000000000000000000001557000026030000001800000014000030850000000000000000000N
021996031012101899CAMPILLO (EL)                                                                                       007207200000002621000030000200700002007000000000000000000000860000013980000000500000012000016330000000000000000000N
021996031012101999CAMPOFRIO                                                                                           000700700000000898000010000070500000705000000000000000000000275000005010000000800000007000005830000000000000000000N
021996031012102099CAÑAVERAL DE LEON                                                                                   000700700000000575000010000045500000455000000000000000000000174000002960000000000000000000003330000000000000000000N
021996031012102199CARTAYA                                                                                             004104100000011002000100000844100008441000000000000000000002978000049020000004400000036000060600000000000000000000N
021996031012102299CASTAÑO DEL ROBLEDO                                                                                 000700700000000213000010000016800000168000000000000000000000074000001140000000000000000000001420000000000000000000N
021996031012102399CERRO DE ANDEVALO (EL)                                                                              007207200000002889000040000232800002328000000000000000000000915000014610000000400000012000017580000000000000000000N
021996031012102499CORTECONCEPCION                                                                                     000700700000000689000010000055200000552000000000000000000000288000003970000000100000001000004480000000000000000000N
021996031012102599CORTEGANA                                                                                           000700700000005302000070000414600004146000000000000000000001571000023430000001100000021000030060000000000000000000N
021996031012102699CORTELAZOR                                                                                          000700700000000320000010000028200000282000000000000000000000126000001900000000600000000000002210000000000000000000N
021996031012102799CUMBRES DE ENMEDIO                                                                                  000700700000000060000010000005800000058000000000000000000000021000000400000000300000000000000480000000000000000000N
021996031012102899CUMBRES DE SAN BARTOLOME                                                                            000700700000000615000010000053100000531000000000000000000000263000003890000000300000010000004400000000000000000000N
021996031012102999CUMBRES MAYORES                                                                                     000700700000002271000020000181000001810000000000000000000000746000012390000001300000008000014650000000000000000000N
021996031012103099CHUCENA                                                                                             005405400000001962000020000153400001534000000000000000000000652000012560000000300000012000013300000000000000000000N
021996031012103199ENCINASOLA                                                                                          000700700000001970000030000183000001830000000000000000000000669000010950000000300000006000013500000000000000000000N
021996031012103299ESCACENA DEL CAMPO                                                                                  005405400000002243000020000171700001717000000000000000000000685000011970000000400000009000014330000000000000000000N
021996031012103399FUENTEHERIDOS                                                                                       000700700000000677000010000052000000520000000000000000000000268000003810000000000000000000004330000000000000000000N
021996031012103499GALAROZA                                                                                            000700700000001657000020000130500001305000000000000000000000553000008730000000200000011000010240000000000000000000N
021996031012103599GIBRALEON                                                                                           004104100000010150000090000771500007715000000000000000000003238000052920000002800000010000064020000000000000000000N
021996031012103699GRANADA DE RIOTINTO (LA)                                                                            000700700000000217000010000020500000205000000000000000000000106000001540000000000000000000001730000000000000000000N
021996031012103799GRANADO (EL)                                                                                        001001000000000691000010000054000000540000000000000000000000176000003510000000200000004000004340000000000000000000N
