071994061010400199ABLA                                                                                                001301300000001621000020000124700001247000000000000000000000576000008170000000200000003000009850000000000000000000N
071994061010400299ABRUCENA                                                                                            001301300000001441000020000114700001147000000000000000000000486000007580000000600000005000009290000000000000000000N
071994061010400399ADRA                                                                                                002902900000020847000210001435900014360000000000000000000004275000068080000004500000037000090250000000000000000000N
071994061010400499ALBANCHEZ                                                                                           005305300000000684000010000061100000611000000000000000000000277000004070000000300000000000004910000000000000000000N
071994061010400599ALBOLODUY                                                                                           001301300000000872000010000070200000702000000000000000000000274000004760000000100000002000005610000000000000000000N
071994061010400699ALBOX                                                                                               005305300000010271000110000679600006804000000000000000000002361000037030000003400000025000048120000000000000000000N
071994061010400799ALCOLEA                                                                                             001301300000000833000010000066200000662000000000000000000000291000004400000000000000006000005230000000000000000000N
071994061010400899ALCONTAR                                                                                            005305300000000658000020000054700000547000000000000000000000140000002900000000300000005000004090000000000000000000N
071994061010400999ALCUDIA DE MONTEAGUD                                                                                001301300000000207000010000016200000161000000000000000000000086000001100000000000000000000001300000000000000000000N
071994061010401099ALHABIA                                                                                             001301300000000737000010000057700000577000000000000000000000365000003650000000300000005000004290000000000000000000N
071994061010401199ALHAMA DE ALMERIA                                                                                   001301300000003089000040000230600002306000000000000000000000999000015320000000700000008000019270000000000000000000N
071994061010401299ALICUN                                                                                              001301300000000240000010000019000000190000000000000000000000103000001530000000000000001000001740000000000000000000N
071994061010401399ALMERIA                                                                                             001301300000162316001620012330100123428000000000000000000046329000640340000059700000324000819840000000000000000000N
071994061010401499ALMOCITA                                                                                            001301300000000184000010000016600000166000000000000000000000057000000960000000000000002000001310000000000000000000N
071994061010401599ALSODUX                                                                                             001301300000000127000010000010500000105000000000000000000000053000000800000000000000001000000890000000000000000000N
071994061010401699ANTAS                                                                                               010010000000002555000030000195600001957000000000000000000000472000010540000001100000012000014360000000000000000000N
071994061010401799ARBOLEAS                                                                                            005305300000001525000020000121400001215000000000000000000000461000007590000000200000008000008860000000000000000000N
071994061010401899ARMUÑA DE ALMANZORA                                                                                 005305300000000367000010000028800000288000000000000000000000132000001870000000000000001000002350000000000000000000N
071994061010401999BACARES                                                                                             005305300000000303000010000025700000257000000000000000000000088000001860000000300000002000002090000000000000000000N
071994061010402099BAYARCAL                                                                                            001301300000000384000010000030300000303000000000000000000000070000001350000000500000001000002050000000000000000000N
071994061010402199BAYARQUE                                                                                            005305300000000230000010000020300000203000000000000000000000069000001270000000300000002000001610000000000000000000N
071994061010402299BEDAR                                                                                               010010000000000512000010000041800000418000000000000000000000203000002780000000300000002000003030000000000000000000N
071994061010402399BEIRES                                                                                              001301300000000137000010000012500000125000000000000000000000049000000820000000100000000000000960000000000000000000N
071994061010402499BENAHADUX                                                                                           001301300000002394000020000177800001778000000000000000000000861000011500000001300000009000013690000000000000000000N
071994061010402699BENITAGLA                                                                                           001301300000000105000010000009000000090000000000000000000000040000000400000000100000000000000560000000000000000000N
071994061010402799BENIZALON                                                                                           001301300000000326000010000024400000244000000000000000000000041000001030000000000000002000001290000000000000000000N
071994061010402899BENTARIQUE                                                                                          001301300000000355000010000028200000282000000000000000000000181000002250000000100000002000002490000000000000000000N
071994061010402999BERJA                                                                                               002902900000012570000130000912800009127000000000000000000003179000053110000002300000031000065900000000000000000000N
071994061010403099CANJAYAR                                                                                            001301300000001801000030000143400001435000000000000000000000638000008990000000400000001000010720000000000000000000N
071994061010403199CANTORIA                                                                                            005305300000003352000040000261900002623000000000000000000001072000016450000000400000003000020090000000000000000000N
071994061010403299CARBONERAS                                                                                          010010000000005978000060000409000004091000000000000000000001090000021260000001400000019000029170000000000000000000N
071994061010403399CASTRO DE FILABRES                                                                                  001301300000000152000010000012800000128000000000000000000000056000000860000000200000001000000960000000000000000000N
071994061010403499COBDAR                                                                                              001301300000000278000010000022200000222000000000000000000000070000001310000000000000001000001760000000000000000000N
071994061010403599CUEVAS DEL ALMANZORA                                                                                010010000000009251000110000677800006779000000000000000000002479000039700000002900000021000050900000000000000000000N
071994061010403699CHERCOS                                                                                             005305300000000308000010000024600000246000000000000000000000090000001670000000100000000000002050000000000000000000N
071994061010403799CHIRIVEL                                                                                            005305300000002002000040000159000001591000000000000000000000516000008520000000900000014000010750000000000000000000N
071994061010403899DALIAS                                                                                              002902900000003583000050000279500002795000000000000000000001026000015660000001100000025000019490000000000000000000N
071994061010403999DARRICAL                                                                                            002902900000000360000010000023700000237000000000000000000000072000000960000000000000000000001110000000000000000000N
071994061010404199ENIX                                                                                                001301300000000239000010000020300000204000000000000000000000103000001400000000200000001000001550000000000000000000N
071994061010404399FELIX                                                                                               001301300000000601000010000048100000481000000000000000000000224000003280000000100000003000003880000000000000000000N
071994061010404499FINES                                                                                               005305300000001676000020000123600001236000000000000000000000478000008140000000300000013000009910000000000000000000N
071994061010404599FIÑANA                                                                                              001301300000002705000030000206600002066000000000000000000000767000011290000000600000014000015630000000000000000000N
071994061010404699FONDON                                                                                              001301300000000929000010000078900000789000000000000000000000296000004770000000200000007000005900000000000000000000N
071994061010404799GADOR                                                                                               001301300000002555000020000192800001928000000000000000000001024000014590000000400000017000016710000000000000000000N
071994061010404899GALLARDOS (LOS)                                                                                     010010000000001680000020000125100001251000000000000000000000472000007570000000500000005000009470000000000000000000N
071994061010404999GARRUCHA                                                                                            010010000000004562000040000327100003271000000000000000000001161000018150000001200000009000022990000000000000000000N
071994061010405099GERGAL                                                                                              001301300000001104000010000086800000868000000000000000000000391000005730000000000000003000006430000000000000000000N
071994061010405199HUECIJA                                                                                             001301300000000560000010000044900000449000000000000000000000208000003240000000200000003000003710000000000000000000N
071994061010405299HUERCAL DE ALMERIA                                                                                  001301300000003972000040000300600003003000000000000000000001210000017560000000900000015000021430000000000000000000N
071994061010405399HUERCAL-OVERA                                                                                       005305300000013673000180001027100010279000000000000000000003565000059460000005300000037000075220000000000000000000N
071994061010405499ILLAR                                                                                               001301300000000482000010000039500000396000000000000000000000241000003050000000100000001000003650000000000000000000N
071994061010405599INSTINCION                                                                                          001301300000000613000010000047700000477000000000000000000000255000003650000000000000001000004230000000000000000000N
071994061010405699LAROYA                                                                                              005305300000000127000010000009900000099000000000000000000000020000000490000000200000000000000700000000000000000000N
071994061010405799LAUJAR DE ANDARAX                                                                                   001301300000001850000020000142300001422000000000000000000000500000008320000000600000008000010580000000000000000000N
071994061010405899LIJAR                                                                                               005305300000000531000010000040600000406000000000000000000000144000002650000000000000002000003150000000000000000000N
071994061010405999LUBRIN                                                                                              010010000000001973000030000163300001633000000000000000000000596000008960000000800000021000010240000000000000000000N
071994061010406099LUCAINENA DE LAS TORRES                                                                             001301300000000565000010000046500000465000000000000000000000172000003020000000000000005000003640000000000000000000N
071994061010406199LUCAR                                                                                               005305300000000754000010000060500000605000000000000000000000223000003410000000300000002000004760000000000000000000N
071994061010406299MACAEL                                                                                              005305300000006072000050000423000004230000000000000000000001650000023110000001100000033000028880000000000000000000N
071994061010406399MARIA                                                                                               005305300000001743000030000135700001357000000000000000000000386000006630000000300000003000008690000000000000000000N
071994061010406499MOJACAR                                                                                             010010000000003690000040000222400002224000000000000000000000758000012020000000800000012000016290000000000000000000N
071994061010406599NACIMIENTO                                                                                          001301300000000483000010000044600000446000000000000000000000216000003090000000000000004000003530000000000000000000N
071994061010406699NIJAR                                                                                               001301300000013754000170001013100010131000000000000000000002813000047680000002800000034000064300000000000000000000N
071994061010406799OHANES                                                                                              001301300000000847000010000070400000704000000000000000000000417000004700000000200000005000005690000000000000000000N
071994061010406899OLULA DE CASTRO                                                                                     001301300000000234000010000020800000208000000000000000000000097000001590000000000000000000001690000000000000000000N
071994061010406999OLULA DEL RIO                                                                                       005305300000005804000050000431100004312000000000000000000001550000022950000002700000015000029360000000000000000000N
071994061010407099ORIA                                                                                                005305300000002420000040000198000001981000000000000000000000610000011480000000300000020000014360000000000000000000N
071994061010407199PADULES                                                                                             001301300000000514000010000044100000441000000000000000000000210000002720000000000000001000003520000000000000000000N
071994061010407299PARTALOA                                                                                            005305300000000393000010000034200000342000000000000000000000130000002250000000000000000000002730000000000000000000N
071994061010407399PATERNA DEL RIO                                                                                     001301300000000343000010000028800000288000000000000000000000114000001780000000300000000000002040000000000000000000N
071994061010407499PECHINA                                                                                             001301300000002381000020000171300001713000000000000000000000751000011020000000100000004000013200000000000000000000N
071994061010407599PULPI                                                                                               010010000000004707000050000348100003481000000000000000000001174000020070000002000000012000025890000000000000000000N
071994061010407699PURCHENA                                                                                            005305300000001756000020000135100001351000000000000000000000458000007840000000300000009000010310000000000000000000N
071994061010407799RAGOL                                                                                               001301300000000427000010000034600000346000000000000000000000215000002760000000000000004000003070000000000000000000N
071994061010407899RIOJA                                                                                               001301300000001162000010000088500000884000000000000000000000491000006930000000000000002000007680000000000000000000N
071994061010407999ROQUETAS DE MAR                                                                                     001301300000030629000320002207100022079000000000000000000006864000107820000013200000131000135540000000000000000000N
071994061010408099SANTA CRUZ                                                                                          001301300000000197000010000017600000176000000000000000000000105000001350000000200000001000001490000000000000000000N
071994061010408199SANTA FE DE MONDUJAR                                                                                001301300000000418000010000034300000343000000000000000000000154000002490000000100000002000003000000000000000000000N
071994061010408299SENES                                                                                               001301300000000366000010000030000000300000000000000000000000123000001900000000300000002000002210000000000000000000N
071994061010408399SERON                                                                                               005305300000002987000040000233600002336000000000000000000000852000012730000000900000012000016480000000000000000000N
071994061010408499SIERRO                                                                                              005305300000000563000010000040300000403000000000000000000000135000002130000000100000004000002460000000000000000000N
071994061010408599SOMONTIN                                                                                            005305300000000489000010000041000000410000000000000000000000194000002810000000100000000000003350000000000000000000N
071994061010408699SORBAS                                                                                              001301300000002797000050000215200002152000000000000000000000623000011890000000300000003000015250000000000000000000N
071994061010408799SUFLI                                                                                               005305300000000258000010000019400000194000000000000000000000079000001140000000400000000000001470000000000000000000N
071994061010408899TABERNAS                                                                                            001301300000003141000050000239000002391000000000000000000000810000013480000000400000006000017700000000000000000000N
071994061010408999TABERNO                                                                                             005305300000001045000010000082100000821000000000000000000000275000004410000000100000008000005400000000000000000000N
071994061010409099TAHAL                                                                                               001301300000000504000010000037000000372000000000000000000000123000002260000000000000001000002910000000000000000000N
071994061010409199TERQUE                                                                                              001301300000000447000010000037100000371000000000000000000000202000002770000000000000004000003200000000000000000000N
071994061010409299TIJOLA                                                                                              005305300000003703000050000273600002736000000000000000000000989000015860000000900000019000021310000000000000000000N
071994061010409399TURRE                                                                                               010010000000002183000020000164900001649000000000000000000000603000010510000000500000011000012870000000000000000000N
071994061010409499TURRILLAS                                                                                           001301300000000282000010000020300000203000000000000000000000056000001140000000000000000000001360000000000000000000N
071994061010409599ULEILA DEL CAMPO                                                                                    001301300000001012000010000080300000803000000000000000000000295000004680000000000000005000005440000000000000000000N
071994061010409699URRACAL                                                                                             005305300000000324000010000028100000281000000000000000000000082000001450000000200000000000001980000000000000000000N
071994061010409799VELEFIQUE                                                                                           001301300000000353000010000027100000272000000000000000000000096000001450000000000000000000001780000000000000000000N
071994061010409899VELEZ BLANCO                                                                                        005305300000002331000040000185800001858000000000000000000000665000011530000000300000014000013990000000000000000000N
071994061010409999VELEZ RUBIO                                                                                         005305300000006467000100000518700005187000000000000000000001974000032540000003000000041000039340000000000000000000N
071994061010410099VERA                                                                                                010010000000006357000060000459100004591000000000000000000001422000021870000002300000021000030820000000000000000000N
071994061010410199VIATOR                                                                                              001301300000002863000030000213500002136000000000000000000001023000014600000000800000019000016850000000000000000000N
071994061010410299VICAR                                                                                               001301300000012460000130000856800008573000000000000000000002545000044070000003400000026000055510000000000000000000N
071994061010410399ZURGENA                                                                                             005305300000002197000020000165100001651000000000000000000000614000010870000000100000015000012180000000000000000000N
071994061010490199TRES VILLAS (LAS)                                                                                   001301300000000703000020000067500000675000000000000000000000248000004230000000300000003000005040000000000000000000N
071994061010490299EJIDO (EL)                                                                                          002902900000043466000420003073300030736000000000000000000008053000129910000013900000118000169470000000000000000000N
071994061010490399MOJONERA (LA)                                                                                       001301300000005684000050000394700003947000000000000000000001110000019810000001200000023000024140000000000000000000N
071994061011100199ALCALA DE LOS GAZULES                                                                               003103100000005655000060000443800004438000000000000000000001494000021330000002700000018000028660000000000000000000N
071994061011100299ALCALA DEL VALLE                                                                                    000600600000005378000040000388500003885000000000000000000001265000020010000001000000005000025590000000000000000000N
071994061011100399ALGAR                                                                                               000600600000001901000020000144300001443000000000000000000000570000007450000000400000006000009880000000000000000000N
071994061011100499ALGECIRAS                                                                                           000400400000102998001020007406700074127000000000000000000026120000355960000029700000170000429630000000000000000000N
071994061011100599ALGODONALES                                                                                         000600600000005795000080000432900004329000000000000000000001678000022570000001400000021000029230000000000000000000N
071994061011100699ARCOS DE LA FRONTERA                                                                                000600600000027693000290002038000020382000000000000000000007805000103600000005200000109000136210000000000000000000N
071994061011100799BARBATE DE FRANCO                                                                                   001501500000022406000190001631300016314000000000000000000004599000069370000005200000059000086200000000000000000000N
071994061011100899BARRIOS (LOS)                                                                                       000400400000014482000100001012500010130000000000000000000003857000053660000006500000050000066440000000000000000000N
071994061011100999BENAOCAZ                                                                                            000600600000000543000010000043300000433000000000000000000000164000002560000000300000001000003490000000000000000000N
071994061011101099BORNOS                                                                                              000600600000008022000080000577700005779000000000000000000002035000028440000001800000046000037500000000000000000000N
071994061011101199BOSQUE (EL)                                                                                         000600600000001785000020000132300001323000000000000000000000482000006830000000900000005000008780000000000000000000N
071994061011101299CADIZ                                                                                               001201200000155555001160011644200116497000000000000000000039905000554400000070300000402000720160000000000000000000N
071994061011101399CASTELLAR DE LA FRONTERA                                                                            003303300000002384000020000171200001712000000000000000000000642000010050000000700000014000012920000000000000000000N
071994061011101499CONIL DE LA FRONTERA                                                                                001501500000016067000170001149300011493000000000000000000003450000051260000008500000116000063090000000000000000000N
071994061011101599CHICLANA DE LA FRONTERA                                                                             001501500000048988000460003512200035140000000000000000000009096000144000000016200000174000180320000000000000000000N
071994061011101699CHIPIONA                                                                                            003203200000014995000140001064300010643000000000000000000003301000052700000004800000067000071260000000000000000000N
071994061011101799ESPERA                                                                                              000600600000004192000040000295900002960000000000000000000001100000014240000002400000017000018300000000000000000000N
071994061011101899GASTOR (EL)                                                                                         000600600000002131000030000156100001560000000000000000000000686000008910000001100000020000010570000000000000000000N
071994061011101999GRAZALEMA                                                                                           000600600000002272000030000174600001746000000000000000000000623000010020000001700000010000013090000000000000000000N
071994061011102099JEREZ DE LA FRONTERA                                                                                002002000000187622001820014054200140632000000000000000000051290000648480000064600000354000833310000000000000000000N
071994061011102199JIMENA DE LA FRONTERA                                                                               003303300000009023000110000671800006718000000000000000000002967000040200000003500000056000048020000000000000000000N
071994061011102299LINEA DE LA CONCEPCION (L                                                                           003303300000060302000600004449700044511000000000000000000015433000216630000018000000141000263960000000000000000000N
071994061011102399MEDINA-SIDONIA                                                                                      003103100000010844000110000774500007746000000000000000000003274000047070000004400000041000058550000000000000000000N
071994061011102499OLVERA                                                                                              000600600000009106000080000690800006908000000000000000000002646000037040000001600000016000048840000000000000000000N
071994061011102599PATERNA DE RIVERA                                                                                   003103100000004990000060000349500003497000000000000000000001285000018970000001600000017000024680000000000000000000N
071994061011102699PRADO DEL REY                                                                                       000600600000005631000060000414000004140000000000000000000001676000023410000001900000030000029260000000000000000000N
071994061011102799PUERTO DE SANTA MARIA(EL)                                                                           002702700000067939000650004884300048896000000000000000000014689000200140000021800000227000263670000000000000000000N
071994061011102899PUERTO REAL                                                                                         002702700000030483000270002205300022054000000000000000000007006000094920000012700000085000121920000000000000000000N
071994061011102999PUERTO SERRANO                                                                                      000600600000006552000070000446500004465000000000000000000001592000021040000001400000025000026010000000000000000000N
071994061011103099ROTA                                                                                                002702700000023727000270001689700016903000000000000000000005160000075430000006500000102000096580000000000000000000N
071994061011103199SAN FERNANDO                                                                                        003103100000086679000910006262300062640000000000000000000020557000273070000036600000162000346980000000000000000000N
071994061011103299SANLUCAR DE BARRAMEDA                                                                               003203200000058580000630004068400040719000000000000000000009844000142840000013000000224000199760000000000000000000N
071994061011103399SAN ROQUE                                                                                           003303300000021769000300001608000016081000000000000000000006577000087120000009400000084000106670000000000000000000N
071994061011103499SETENIL                                                                                             000600600000003255000030000243900002439000000000000000000000922000013420000000600000004000016150000000000000000000N
071994061011103599TARIFA                                                                                              000400400000014781000160001101100011011000000000000000000003559000056520000006700000118000073700000000000000000000N
071994061011103699TORRE-ALHAQUIME                                                                                     000600600000001013000010000076900000769000000000000000000000236000003670000000300000002000004470000000000000000000N
071994061011103799TREBUJENA                                                                                           003203200000006999000090000516000005160000000000000000000002173000029590000005100000045000037500000000000000000000N
071994061011103899UBRIQUE                                                                                             000600600000018292000190001348600013487000000000000000000006130000086010000015200000065000103380000000000000000000N
071994061011103999VEJER DE LA FRONTERA                                                                                001501500000012933000150000954900009549000000000000000000002490000036340000004700000085000047730000000000000000000N
071994061011104099VILLALUENGA DEL ROSARIO                                                                             000600600000000500000010000034400000344000000000000000000000117000001600000000000000003000002280000000000000000000N
071994061011104199VILLAMARTIN                                                                                         000600600000012442000120000880300008807000000000000000000003415000045010000002900000075000059040000000000000000000N
071994061011104299ZAHARA                                                                                              000600600000001581000020000119500001195000000000000000000000448000006630000000000000004000008810000000000000000000N
071994061011190199BENALUP                                                                                             003103100000005973000090000426200004272000000000000000000001557000022840000002200000027000030260000000000000000000N
071994061011400199ADAMUZ                                                                                              002102100000004572000050000336200003362000000000000000000001736000021690000001100000013000028960000000000000000000N
071994061011400299AGUILAR                                                                                             000200200000013303000130000990800009908000000000000000000004510000061580000003900000043000076440000000000000000000N
071994061011400399ALCARACEJOS                                                                                         005405400000001532000020000116500001165000000000000000000000557000007790000000600000018000009640000000000000000000N
071994061011400499ALMEDINILLA                                                                                         005505500000002604000030000211600002116000000000000000000000859000011730000000400000028000015570000000000000000000N
071994061011400599ALMODOVAR DEL RIO                                                                                   005305300000007214000070000512700005127000000000000000000001964000025330000002700000025000034410000000000000000000N
071994061011400699AÑORA                                                                                               005405400000001704000020000130900001309000000000000000000000733000009680000000900000004000011040000000000000000000N
071994061011400799BAENA                                                                                               000700700000020489000190001423900014239000000000000000000005630000077820000006600000086000102260000000000000000000N
071994061011400899BELALCAZAR                                                                                          005205200000004138000040000327300003273000000000000000000001407000018660000002300000012000022280000000000000000000N
071994061011400999BELMEZ                                                                                              005205200000004367000060000356200003563000000000000000000001557000020260000002200000025000024760000000000000000000N
071994061011401099BENAMEJI                                                                                            003803800000004627000050000351700003517000000000000000000001400000019750000001400000012000027220000000000000000000N
071994061011401199BLAZQUEZ                                                                                            005205200000000759000010000061500000615000000000000000000000262000003830000000100000003000004980000000000000000000N
071994061011401299BUJALANCE                                                                                           002102100000008622000100000635700006357000000000000000000003130000039990000003300000024000051420000000000000000000N
071994061011401399CABRA                                                                                               001301300000020591000210001558100015581000000000000000000006636000088140000010000000089000117650000000000000000000N
071994061011401499CAÑETE DE LAS TORRES                                                                                002102100000003438000020000266500002665000000000000000000001226000017330000000800000026000022250000000000000000000N
071994061011401599CARCABUEY                                                                                           005505500000002909000040000227800002278000000000000000000000975000013290000001100000019000018230000000000000000000N
071994061011401699CARDEÑA                                                                                             002102100000002098000030000168300001683000000000000000000000768000010260000000700000005000013450000000000000000000N
071994061011401799CARLOTA (LA)                                                                                        005305300000009547000120000728100007283000000000000000000002622000035260000003900000040000051440000000000000000000N
071994061011401899CARPIO (EL)                                                                                         002102100000004644000060000361700003618000000000000000000001803000022230000000700000019000028640000000000000000000N
071994061011401999CASTRO DEL RIO                                                                                      002102100000007984000090000616400006164000000000000000000002813000038640000003600000038000049300000000000000000000N
071994061011402099CONQUISTA                                                                                           005405400000000563000010000047200000472000000000000000000000176000002300000000200000000000002940000000000000000000N
071994061011402199CORDOBA                                                                                             002102100000311641003300023472200234752000000000000000000102597001288880000167000000726001578120000000000000000000N
071994061011402299DOÑA MENCIA                                                                                         001301300000005152000040000386200003866000000000000000000001772000023950000000800000034000029900000000000000000000N
071994061011402399DOS-TORRES                                                                                          005405400000002563000030000198500001985000000000000000000001043000014230000000500000008000016620000000000000000000N
071994061011402499ENCINAS REALES                                                                                      003803800000002336000020000185800001857000000000000000000000827000012130000001000000012000015210000000000000000000N
071994061011402599ESPEJO                                                                                              002102100000005045000050000337100003371000000000000000000001908000024310000001500000023000029750000000000000000000N
071994061011402699ESPIEL                                                                                              005205200000002652000030000194800001948000000000000000000000930000010900000000800000012000014740000000000000000000N
071994061011402799FERNAN NUÑEZ                                                                                        004204200000009543000100000719400007195000000000000000000003170000042870000005000000047000054160000000000000000000N
071994061011402899FUENTE LA LANCHA                                                                                    005205200000000469000010000037600000376000000000000000000000197000002530000000100000002000003020000000000000000000N
071994061011402999FUENTE OBEJUNA                                                                                      005205200000006393000110000502900005029000000000000000000002251000029730000002300000029000038110000000000000000000N
071994061011403099FUENTE PALMERA                                                                                      005305300000009690000110000686300006864000000000000000000002484000037320000002400000022000053150000000000000000000N
071994061011403199FUENTE-TOJAR                                                                                        005505500000000881000010000071300000713000000000000000000000292000004010000000200000009000005620000000000000000000N
071994061011403299GRANJUELA (LA)                                                                                      005205200000000540000010000042400000424000000000000000000000218000002790000000000000004000003360000000000000000000N
071994061011403399GUADALCAZAR                                                                                         005305300000001177000010000084700000847000000000000000000000382000005360000000200000004000006910000000000000000000N
071994061011403499GUIJO                                                                                               005405400000000451000010000037500000375000000000000000000000177000002400000000000000008000002830000000000000000000N
071994061011403599HINOJOSA DEL DUQUE                                                                                  005205200000008236000090000649300006493000000000000000000002991000039470000002100000036000048880000000000000000000N
071994061011403699HORNACHUELOS                                                                                        005305300000005144000050000368000003680000000000000000000001730000021330000001700000025000028540000000000000000000N
071994061011403799IZNAJAR                                                                                             003803800000005647000080000440600004406000000000000000000001384000020070000001500000045000031610000000000000000000N
071994061011403899LUCENA                                                                                              003803800000033553000320002449700024498000000000000000000009597000129030000011200000083000169370000000000000000000N
071994061011403999LUQUE                                                                                               000700700000003402000030000266200002662000000000000000000000963000014490000000800000018000020640000000000000000000N
071994061011404099MONTALBAN DE CORDOBA                                                                                004204200000004588000040000352500003525000000000000000000001495000021940000002500000017000027370000000000000000000N
071994061011404199MONTEMAYOR                                                                                          004204200000003750000040000285800002858000000000000000000001240000017290000001800000016000022420000000000000000000N
071994061011404299MONTILLA                                                                                            004204200000023008000240001774900017751000000000000000000008164000107320000014300000125000139920000000000000000000N
071994061011404399MONTORO                                                                                             002102100000009833000090000738900007389000000000000000000003400000042160000002400000063000055940000000000000000000N
071994061011404499MONTURQUE                                                                                           000200200000001990000020000146800001468000000000000000000000624000008110000000800000017000011620000000000000000000N
071994061011404599MORILES                                                                                             000200200000003740000030000287800002878000000000000000000001321000018000000000800000012000023100000000000000000000N
071994061011404699NUEVA-CARTEYA                                                                                       001301300000005757000060000421200004212000000000000000000002022000027270000002000000028000035050000000000000000000N
071994061011404799OBEJO                                                                                               002102100000001457000020000115300001153000000000000000000000469000006010000000500000002000008440000000000000000000N
071994061011404899PALENCIANA                                                                                          003803800000001697000020000124800001248000000000000000000000531000007110000000500000008000009020000000000000000000N
071994061011404999PALMA DEL RIO                                                                                       005305300000018975000150001406800014069000000000000000000006262000081910000007200000070000105880000000000000000000N
071994061011405099PEDRO ABAD                                                                                          002102100000003052000040000230500002305000000000000000000001256000014720000000900000015000018970000000000000000000N
071994061011405199PEDROCHE                                                                                            005405400000001902000020000151800001518000000000000000000000715000009110000000900000006000010960000000000000000000N
071994061011405299PEÑARROYA-PUEBLONUEVO                                                                               005205200000014170000150001067800010692000000000000000000004347000055330000003700000049000070940000000000000000000N
071994061011405399POSADAS                                                                                             005305300000007205000080000528000005282000000000000000000002384000031230000002800000033000039070000000000000000000N
071994061011405499POZOBLANCO                                                                                          005405400000015567000160001174400011744000000000000000000006060000076340000007700000066000094500000000000000000000N
071994061011405599PRIEGO DE CORDOBA                                                                                   005505500000022136000270001690400016904000000000000000000006776000094480000008800000106000124100000000000000000000N
071994061011405699PUENTE-GENIL                                                                                        000200200000027292000290002107900021079000000000000000000008885000117930000008800000106000151190000000000000000000N
071994061011405799RAMBLA (LA)                                                                                         004204200000006986000060000519300005194000000000000000000002571000034730000002600000024000041970000000000000000000N
071994061011405899RUTE                                                                                                003803800000010140000100000779800007801000000000000000000003314000044460000004100000049000059300000000000000000000N
071994061011405999SAN SEBASTIAN DE LOS BALL                                                                           004204200000000821000010000066800000668000000000000000000000334000004100000000100000006000005240000000000000000000N
071994061011406099SANTAELLA                                                                                           004204200000005829000060000414500004145000000000000000000001536000021320000002000000023000031760000000000000000000N
071994061011406199SANTA EUFEMIA                                                                                       005405400000001273000010000102100001021000000000000000000000493000006540000000200000002000007990000000000000000000N
071994061011406299TORRECAMPO                                                                                          005405400000001552000020000125700001257000000000000000000000501000007250000000300000006000009130000000000000000000N
071994061011406399VALENZUELA                                                                                          000700700000001573000020000129000001290000000000000000000000625000007900000000700000009000010080000000000000000000N
071994061011406499VALSEQUILLO                                                                                         005205200000000534000010000043200000432000000000000000000000203000002720000000300000006000003270000000000000000000N
071994061011406599VICTORIA (LA)                                                                                       004204200000001733000020000135800001358000000000000000000000703000009020000000800000007000011450000000000000000000N
071994061011406699VILLA DEL RIO                                                                                       002102100000007100000070000519600005196000000000000000000002521000032100000002600000023000040980000000000000000000N
071994061011406799VILLAFRANCA DE CORDOBA                                                                              002102100000003669000050000279000002790000000000000000000001318000016170000001500000010000021750000000000000000000N
071994061011406899VILLAHARTA                                                                                          005205200000000638000010000052700000527000000000000000000000314000003400000000000000000000004260000000000000000000N
071994061011406999VILLANUEVA DE CORDOBA                                                                               005405400000010376000120000816900008169000000000000000000003599000045860000004500000036000061250000000000000000000N
071994061011407099VILLANUEVA DEL DUQUE                                                                                005405400000002006000020000162400001624000000000000000000000828000010270000000900000014000012290000000000000000000N
071994061011407199VILLANUEVA DEL REY                                                                                  005205200000001324000020000108400001084000000000000000000000521000006210000000100000013000007720000000000000000000N
071994061011407299VILLARALTO                                                                                          005405400000001706000020000143800001438000000000000000000000811000009930000000300000002000011340000000000000000000N
071994061011407399VILLAVICIOSA DE CORDOBA                                                                             002102100000004020000040000321400003214000000000000000000001507000019860000001100000013000025470000000000000000000N
071994061011407499VISO (EL)                                                                                           005405400000003454000050000269100002691000000000000000000001455000018270000001400000015000020960000000000000000000N
071994061011407599ZUHEROS                                                                                             001301300000000945000010000078700000787000000000000000000000418000005080000000400000013000006340000000000000000000N
071994061011800199AGRON                                                                                               012212200000000451000010000035700000357000000000000000000000084000001620000000000000002000002470000000000000000000N
071994061011800299ALAMEDILLA                                                                                          008908900000001021000010000074700000747000000000000000000000204000003980000000700000001000004970000000000000000000N
071994061011800399ALBOLOTE                                                                                            008708700000010898000120000777300007773000000000000000000003128000040330000002600000023000054790000000000000000000N
071994061011800499ALBONDON                                                                                            014714700000001352000020000102500001026000000000000000000000357000005520000000300000003000007080000000000000000000N
071994061011800599ALBUÑAN                                                                                             008908900000000494000010000041600000422000000000000000000000160000002120000000100000001000002840000000000000000000N
071994061011800699ALBUÑOL                                                                                             014714700000005442000060000400500004005000000000000000000001236000020950000001000000026000028850000000000000000000N
071994061011800799ALBUÑUELAS                                                                                          014714700000001369000020000108700001087000000000000000000000439000005970000000600000006000007640000000000000000000N
071994061011801099ALDEIRE                                                                                             008908900000000805000010000066200000662000000000000000000000224000003250000000100000003000004910000000000000000000N
071994061011801199ALFACAR                                                                                             008708700000003834000030000285300002853000000000000000000001053000016470000001100000022000020570000000000000000000N
071994061011801299ALGARINEJO                                                                                          012212200000005240000070000356100003561000000000000000000001023000015520000001600000023000021730000000000000000000N
071994061011801399ALHAMA DE GRANADA                                                                                   012212200000006070000050000470300004704000000000000000000001890000026170000002300000017000033950000000000000000000N
071994061011801499ALHENDIN                                                                                            008708700000003839000040000285900002860000000000000000000001037000015380000001100000017000020590000000000000000000N
071994061011801599ALICUN DE ORTEGA                                                                                    008908900000000811000010000055500000555000000000000000000000204000002850000000000000001000003940000000000000000000N
071994061011801699ALMEGIJAR                                                                                           014714700000000449000010000038000000380000000000000000000000116000002100000000100000000000002740000000000000000000N
071994061011801799ALMUÑECAR                                                                                           014014000000020708000170001495800014970000000000000000000005952000086080000003900000061000106060000000000000000000N
071994061011801899ALQUIFE                                                                                             008908900000001113000010000088200000882000000000000000000000348000004940000000000000001000006930000000000000000000N
071994061011802099ARENAS DEL REY                                                                                      012212200000002084000030000169800001698000000000000000000000468000007170000000700000005000011240000000000000000000N
071994061011802199ARMILLA                                                                                             008708700000011660000100000849100008491000000000000000000003353000043340000003700000023000054520000000000000000000N
071994061011802299ATARFE                                                                                              008708700000010289000090000743200007435000000000000000000003233000041750000003900000036000052120000000000000000000N
071994061011802399BAZA                                                                                                002302300000021036000200001590200015903000000000000000000005053000072740000006900000091000094520000000000000000000N
071994061011802499BEAS DE GRANADA                                                                                     008708700000000936000010000073100000731000000000000000000000275000004360000001100000003000005430000000000000000000N
071994061011802599BEAS DE GUADIX                                                                                      008908900000000413000010000032300000323000000000000000000000136000001780000000000000002000002090000000000000000000N
071994061011802799BENALUA DE GUADIX                                                                                   008908900000003435000030000250700002507000000000000000000000900000013460000000600000016000018250000000000000000000N
071994061011802899BENALUA DE LAS VILLAS                                                                               008708700000001395000010000114500001145000000000000000000000451000007050000000400000003000009380000000000000000000N
071994061011802999BENAMAUREL                                                                                          002302300000002521000020000203600002036000000000000000000000754000010450000001000000014000013430000000000000000000N
071994061011803099BERCHULES                                                                                           014714700000000856000010000066300000664000000000000000000000251000003600000000100000003000004530000000000000000000N
071994061011803299BUBION                                                                                              014714700000000356000010000025700000257000000000000000000000068000001240000000100000001000001710000000000000000000N
071994061011803399BUSQUISTAR                                                                                          014714700000000454000010000031300000313000000000000000000000081000001560000000000000002000001860000000000000000000N
071994061011803499CACIN                                                                                               012212200000000890000020000074000000740000000000000000000000294000004050000000000000002000005380000000000000000000N
071994061011803599CADIAR                                                                                              014714700000001967000030000158500001585000000000000000000000525000008540000000200000010000011280000000000000000000N
071994061011803699CAJAR                                                                                               008708700000002389000020000176900001769000000000000000000000799000010270000001600000005000013010000000000000000000N
071994061011803799CALICASAS                                                                                           008708700000000603000010000045200000452000000000000000000000219000002890000000000000002000003810000000000000000000N
071994061011803899CAMPOTEJAR                                                                                          008708700000001486000010000114100001141000000000000000000000401000006380000000600000005000009140000000000000000000N
071994061011803999CANILES                                                                                             002302300000005231000070000404200004042000000000000000000001176000019270000001500000023000026240000000000000000000N
071994061011804099CAÑAR                                                                                               014714700000000337000010000027000000270000000000000000000000077000001160000000100000000000001440000000000000000000N
071994061011804299CAPILEIRA                                                                                           014714700000000570000010000043100000431000000000000000000000131000002050000000000000001000002970000000000000000000N
071994061011804399CARATAUNAS                                                                                          014714700000000219000010000015000000150000000000000000000000044000000730000000200000000000000930000000000000000000N
071994061011804499CASTARAS                                                                                            014714700000000340000010000028800000288000000000000000000000068000001220000000100000000000001580000000000000000000N
071994061011804599CASTILLEJAR                                                                                         002302300000002190000030000182800001828000000000000000000000600000008260000000100000009000011380000000000000000000N
071994061011804699CASTRIL                                                                                             002302300000003224000050000249200002492000000000000000000000593000010210000000700000015000014160000000000000000000N
071994061011804799CENES DE LA VEGA                                                                                    008708700000002798000020000211800002118000000000000000000000839000011410000001500000007000014590000000000000000000N
071994061011804899CIJUELA                                                                                             008708700000001406000010000110700001107000000000000000000000474000006660000000400000004000008320000000000000000000N
071994061011804999COGOLLOS DE GUADIX                                                                                  008908900000000807000010000064100000641000000000000000000000259000004070000000300000005000004660000000000000000000N
071994061011805099COGOLLOS VEGA                                                                                       008708700000002023000020000155400001552000000000000000000000591000008990000001000000006000011730000000000000000000N
071994061011805199COLOMERA                                                                                            008708700000001862000020000144600001446000000000000000000000537000007560000000300000010000010470000000000000000000N
071994061011805399CORTES DE BAZA                                                                                      002302300000002946000040000239600002396000000000000000000000708000010240000000600000006000014470000000000000000000N
071994061011805499CORTES Y GRAENA                                                                                     008908900000001015000010000081100000811000000000000000000000277000004130000000200000003000005900000000000000000000N
071994061011805699CULLAR                                                                                              002302300000005478000070000430900004311000000000000000000001853000026500000001100000019000032760000000000000000000N
071994061011805799CULLAR-VEGA                                                                                         008708700000001928000020000148500001485000000000000000000000589000008350000000900000005000010870000000000000000000N
071994061011805999CHAUCHINA                                                                                           008708700000003891000040000301100003012000000000000000000001303000017850000001400000010000022730000000000000000000N
071994061011806199CHIMENEAS                                                                                           012212200000001573000020000127300001273000000000000000000000548000008080000001000000008000009940000000000000000000N
071994061011806299CHURRIANA DE LA VEGA                                                                                008708700000005860000050000428800004288000000000000000000001717000024830000001700000010000031130000000000000000000N
071994061011806399DARRO                                                                                               008708700000001617000010000120100001201000000000000000000000410000006110000000100000004000008010000000000000000000N
071994061011806499DEHESAS DE GUADIX                                                                                   008908900000000682000010000047800000478000000000000000000000134000002400000000200000000000003240000000000000000000N
071994061011806699DEIFONTES                                                                                           008708700000002494000020000191600001917000000000000000000000776000010210000000200000006000014030000000000000000000N
071994061011806799DIEZMA                                                                                              008708700000001040000010000079800000798000000000000000000000260000004360000000100000000000006390000000000000000000N
071994061011806899DILAR                                                                                               008708700000001499000020000120900001210000000000000000000000507000006850000000500000008000008530000000000000000000N
071994061011806999DOLAR                                                                                               008908900000000708000010000057800000578000000000000000000000306000003670000000000000003000004330000000000000000000N
071994061011807099DUDAR                                                                                               008708700000000259000010000020300000203000000000000000000000062000001020000000000000000000001530000000000000000000N
071994061011807199DURCAL                                                                                              014714700000006007000060000461400004616000000000000000000001907000026540000002300000030000033900000000000000000000N
071994061011807299ESCUZAR                                                                                             008708700000000967000010000076800000768000000000000000000000318000003970000000200000002000004920000000000000000000N
071994061011807499FERREIRA                                                                                            008908900000000423000010000035500000355000000000000000000000127000001920000000100000002000002690000000000000000000N
071994061011807699FONELAS                                                                                             008908900000001399000010000097700000977000000000000000000000265000004010000000200000004000005910000000000000000000N
071994061011807899FREILA                                                                                              002302300000001236000010000093400000934000000000000000000000314000004470000000300000006000006030000000000000000000N
071994061011807999FUENTE VAQUEROS                                                                                     008708700000003928000030000297400002971000000000000000000001252000017070000001700000031000022590000000000000000000N
071994061011808299GALERA                                                                                              002302300000001624000010000130700001307000000000000000000000386000005650000000500000006000007550000000000000000000N
071994061011808399GOBERNADOR                                                                                          008908900000000411000010000033700000337000000000000000000000124000002100000000000000001000002780000000000000000000N
071994061011808499GOJAR                                                                                               008708700000002532000020000200700002008000000000000000000000812000010680000001500000007000013450000000000000000000N
071994061011808599GOR                                                                                                 008908900000001291000010000102800001028000000000000000000000364000005510000000200000005000006540000000000000000000N
071994061011808699GORAFE                                                                                              008908900000000617000010000046800000468000000000000000000000226000002880000000300000001000003570000000000000000000N
071994061011808799GRANADA                                                                                             008708700000265371002240020642600206628000000000000000000083883001132930000146000000510001400000000000000000000000N
071994061011808899GUADAHORTUNA                                                                                        008708700000002462000020000171000001713000000000000000000000616000010000000000200000003000013310000000000000000000N
071994061011808999GUADIX                                                                                              008908900000020468000180001446900014469000000000000000000005335000075380000005400000061000095200000000000000000000N
071994061011809399GUALCHOS                                                                                            014014000000003021000030000222100002222000000000000000000000872000013840000000300000011000017100000000000000000000N
071994061011809499GUEJAR-SIERRA                                                                                       008708700000002849000030000218500002185000000000000000000000765000011000000000700000014000015270000000000000000000N
071994061011809599GUEVEJAR                                                                                            008708700000001323000010000099100000991000000000000000000000390000005400000000600000004000008070000000000000000000N
071994061011809699HUELAGO                                                                                             008908900000000696000010000051700000517000000000000000000000166000002680000000000000000000003760000000000000000000N
071994061011809799HUENEJA                                                                                             008908900000001373000020000111200001112000000000000000000000239000004790000000400000011000007250000000000000000000N
071994061011809899HUESCAR                                                                                             002302300000010120000120000852400008534000000000000000000002450000034370000002100000046000045300000000000000000000N
071994061011809999HUETOR-SANTILLAN                                                                                    008708700000001609000010000123100001231000000000000000000000511000007520000000700000003000009500000000000000000000N
071994061011810099HUETOR-TAJAR                                                                                        012212200000007800000070000611800006118000000000000000000002298000033500000002000000028000043400000000000000000000N
071994061011810199HUETOR-VEGA                                                                                         008708700000006964000060000517800005176000000000000000000001918000025500000003800000025000033790000000000000000000N
071994061011810299ILLORA                                                                                              012212200000010864000120000819600008198000000000000000000003354000045090000002500000051000061040000000000000000000N
071994061011810399ITRABO                                                                                              014014000000001098000010000087500000875000000000000000000000335000005890000000100000000000006990000000000000000000N
071994061011810599IZNALLOZ                                                                                            008708700000006783000060000489200004892000000000000000000001939000027570000002200000022000036850000000000000000000N
071994061011810799JAYENA                                                                                              012212200000001530000010000116600001166000000000000000000000420000006500000000300000002000008080000000000000000000N
071994061011810899JEREZ DEL MARQUESADO                                                                                008908900000001231000010000100300001003000000000000000000000470000006230000000600000009000007430000000000000000000N
071994061011810999JETE                                                                                                014014000000000739000010000059000000590000000000000000000000261000004080000000000000002000004970000000000000000000N
071994061011811199JUN                                                                                                 008708700000001266000010000093200000932000000000000000000000398000005180000000500000001000006400000000000000000000N
071994061011811299JUVILES                                                                                             014714700000000217000010000015600000156000000000000000000000045000000680000000000000000000001000000000000000000000N
071994061011811499CALAHORRA (LA)                                                                                      008908900000001036000010000081700000817000000000000000000000229000003730000000300000002000005250000000000000000000N
071994061011811599LACHAR                                                                                              008708700000002352000020000181300001813000000000000000000000729000009670000000400000020000012900000000000000000000N
071994061011811699LANJARON                                                                                            014714700000004039000040000331100003311000000000000000000001317000018300000001900000024000022630000000000000000000N
071994061011811799LANTEIRA                                                                                            008908900000000712000010000059200000592000000000000000000000278000003980000000200000002000004580000000000000000000N
071994061011811999LECRIN                                                                                              014714700000002429000050000202500002025000000000000000000000792000012210000000500000007000015730000000000000000000N
071994061011812099LENTEJI                                                                                             014014000000000382000010000028800000288000000000000000000000103000001700000000000000002000002120000000000000000000N
071994061011812199LOBRAS                                                                                              014714700000000221000010000018900000189000000000000000000000050000000910000000000000003000001110000000000000000000N
071994061011812299LOJA                                                                                                012212200000021357000290001530800015316000000000000000000005719000077920000006800000121000106080000000000000000000N
071994061011812399LUGROS                                                                                              008908900000000461000010000038500000385000000000000000000000145000002090000000000000002000002430000000000000000000N
071994061011812499LUJAR                                                                                               014014000000000624000010000045400000454000000000000000000000206000002720000000000000000000003360000000000000000000N
071994061011812699MALAHA (LA)                                                                                         008708700000001626000010000125300001253000000000000000000000621000008680000000900000002000009790000000000000000000N
071994061011812799MARACENA                                                                                            008708700000013489000160001006000010061000000000000000000004280000058570000004100000048000069760000000000000000000N
071994061011812899MARCHAL                                                                                             008908900000000472000010000037400000374000000000000000000000108000002150000000100000001000002810000000000000000000N
071994061011813299MOCLIN                                                                                              008708700000004800000060000364400003652000000000000000000001471000021780000000900000013000028910000000000000000000N
071994061011813399MOLVIZAR                                                                                            014014000000002594000020000212100002122000000000000000000000749000013330000000200000005000017720000000000000000000N
071994061011813499MONACHIL                                                                                            008708700000004741000040000351100003510000000000000000000001139000015880000002100000009000021260000000000000000000N
071994061011813599MONTEFRIO                                                                                           012212200000008202000070000582700005827000000000000000000001810000028210000002100000041000037570000000000000000000N
071994061011813699MONTEJICAR                                                                                          008708700000003011000030000214500002145000000000000000000000872000013390000000500000012000016870000000000000000000N
071994061011813799MONTILLANA                                                                                          008708700000001402000010000113500001135000000000000000000000395000006490000000500000008000008790000000000000000000N
071994061011813899MORALEDA DE ZAFAYONA                                                                                012212200000002624000030000204600002046000000000000000000000780000010090000000900000014000013580000000000000000000N
071994061011814099MOTRIL                                                                                              014014000000047911000410003521200035232000000000000000000012137000175970000013900000172000227690000000000000000000N
071994061011814199MURTAS                                                                                              014714700000001127000010000085000000850000000000000000000000236000003830000000000000001000004750000000000000000000N
071994061011814399NIGUELAS                                                                                            014714700000001205000010000097000000966000000000000000000000350000005390000000200000006000007170000000000000000000N
071994061011814499NIVAR                                                                                               008708700000000580000010000047900000479000000000000000000000186000002170000000200000004000003470000000000000000000N
071994061011814599OGIJARES                                                                                            008708700000005665000040000418000004182000000000000000000001620000022830000001700000022000028130000000000000000000N
071994061011814699ORCE                                                                                                002302300000001498000020000124400001244000000000000000000000499000007010000000200000004000008530000000000000000000N
071994061011814799ORGIVA                                                                                              014714700000005242000050000382300003824000000000000000000001423000019020000001400000015000024260000000000000000000N
071994061011814899OTIVAR                                                                                              014014000000001164000010000089400000894000000000000000000000298000004600000000000000004000007010000000000000000000N
071994061011814999OTURA                                                                                               008708700000002967000020000230600002305000000000000000000000875000013220000002100000011000017080000000000000000000N
071994061011815099PADUL                                                                                               008708700000006348000050000479900004798000000000000000000001929000027490000002100000027000034840000000000000000000N
071994061011815199PAMPANEIRA                                                                                          014714700000000350000010000026500000266000000000000000000000089000001420000000100000000000001810000000000000000000N
071994061011815299PEDRO-MARTINEZ                                                                                      008908900000001533000020000131100001310000000000000000000000537000007130000000200000002000009310000000000000000000N
071994061011815399PELIGROS                                                                                            008708700000006717000050000484900004849000000000000000000002004000027510000002400000010000034790000000000000000000N
071994061011815499PEZA (LA)                                                                                           008908900000001572000010000123300001231000000000000000000000461000006820000000300000004000008370000000000000000000N
071994061011815799PINOS-GENIL                                                                                         008708700000001096000010000081100000811000000000000000000000362000005210000000700000005000006530000000000000000000N
071994061011815899PINOS-PUENTE                                                                                        008708700000013545000120001000400010003000000000000000000004077000056510000003000000044000071210000000000000000000N
071994061011815999PIÑAR                                                                                               008708700000001537000020000112300001124000000000000000000000444000006890000000400000001000009240000000000000000000N
071994061011816199POLICAR                                                                                             008908900000000258000010000021300000213000000000000000000000094000001410000000100000000000001800000000000000000000N
071994061011816299POLOPOS                                                                                             014714700000001204000030000095500000957000000000000000000000395000005650000000500000004000007250000000000000000000N
071994061011816399PORTUGOS                                                                                            014714700000000466000010000038700000387000000000000000000000100000002040000000200000000000003080000000000000000000N
071994061011816499PUEBLA DE DON FADRIQUE                                                                              002302300000002672000030000209900002099000000000000000000000601000010870000000600000018000014090000000000000000000N
071994061011816599PULIANAS                                                                                            008708700000002705000020000202800002029000000000000000000000890000012030000000400000009000014480000000000000000000N
071994061011816799PURULLENA                                                                                           008908900000002595000030000185200001852000000000000000000000661000009450000000400000004000013100000000000000000000N
071994061011816899QUENTAR                                                                                             008708700000001126000010000085600000856000000000000000000000304000004090000000400000010000005990000000000000000000N
071994061011817099RUBITE                                                                                              014714700000000431000010000034900000350000000000000000000000109000001670000000400000000000002290000000000000000000N
071994061011817199SALAR                                                                                               012212200000002817000030000215600002156000000000000000000001007000013490000000800000012000017300000000000000000000N
071994061011817399SALOBREÑA                                                                                           014014000000009832000080000706700007067000000000000000000002534000037240000002000000023000047700000000000000000000N
071994061011817499SANTA CRUZ DEL COMERCIO                                                                             012212200000000594000010000046500000465000000000000000000000210000002800000000200000004000003490000000000000000000N
071994061011817599SANTA FE                                                                                            008708700000012459000120000922700009226000000000000000000003736000052890000006000000034000067300000000000000000000N
071994061011817699SOPORTUJAR                                                                                          014714700000000274000010000023600000236000000000000000000000063000001160000000100000000000001600000000000000000000N
071994061011817799SORVILAN                                                                                            014714700000000954000020000065900000659000000000000000000000214000003170000000200000001000004310000000000000000000N
071994061011817899TORRE-CARDELA                                                                                       008708700000001254000010000103100001030000000000000000000000371000006440000000000000003000007940000000000000000000N
071994061011817999TORVIZCON                                                                                           014714700000001149000010000089400000894000000000000000000000249000004500000000100000012000006090000000000000000000N
071994061011818099TREVELEZ                                                                                            014714700000000825000010000063200000632000000000000000000000178000003120000000000000003000004370000000000000000000N
071994061011818199TURON                                                                                               014714700000000444000010000037200000372000000000000000000000084000001690000000000000000000002170000000000000000000N
071994061011818299UGIJAR                                                                                              014714700000003006000040000231700002317000000000000000000000704000012030000000600000005000015270000000000000000000N
071994061011818399VALOR                                                                                               014714700000001120000010000089300000893000000000000000000000256000005080000000400000008000006110000000000000000000N
071994061011818499VELEZ DE BENAUDALLA                                                                                 014014000000002533000020000198100001982000000000000000000000730000011690000001100000005000014840000000000000000000N
071994061011818599VENTAS DE HUELMA                                                                                    012212200000000694000010000056700000567000000000000000000000310000003740000000400000004000004380000000000000000000N
071994061011818799VILLANUEVA DE LAS TORRES                                                                            008908900000001054000010000076500000765000000000000000000000303000004220000000000000000000005560000000000000000000N
071994061011818899VILLANUEVA MESIA                                                                                    012212200000001926000020000145600001456000000000000000000000604000008710000001000000008000011030000000000000000000N
071994061011818999VIZNAR                                                                                              008708700000000802000010000056100000561000000000000000000000206000003330000000000000005000004370000000000000000000N
071994061011819299ZAFARRAYA                                                                                           012212200000002249000030000176700001767000000000000000000000541000010590000000600000009000013390000000000000000000N
071994061011819399ZUBIA (LA)                                                                                          008708700000009657000080000707600007076000000000000000000002848000038730000002600000037000047590000000000000000000N
071994061011819499ZUJAR                                                                                               002302300000003003000030000239700002397000000000000000000000845000011980000000300000021000016380000000000000000000N
071994061011890199TAHA (LA)                                                                                           014714700000000981000010000075800000758000000000000000000000226000003400000000100000006000004300000000000000000000N
071994061011890299VALLE (EL)                                                                                          014714700000001511000030000122500001225000000000000000000000558000007770000000200000011000009410000000000000000000N
071994061011890399NEVADA                                                                                              014714700000001513000030000121100001211000000000000000000000364000006550000000700000014000008220000000000000000000N
071994061011890499ALPUJARRA DE LA SIERRA                                                                              014714700000001302000020000105700001057000000000000000000000416000006020000000300000006000007220000000000000000000N
071994061011890599GABIAS (LAS)                                                                                        008708700000006389000070000482300004825000000000000000000002035000027170000002100000007000033950000000000000000000N
071994061011890699GUAJARES (LOS)                                                                                      014014000000001504000030000123100001231000000000000000000000468000006860000000300000007000009400000000000000000000N
071994061011890799VALLE DEL ZALABI                                                                                    008908900000002502000030000199600001996000000000000000000000749000011690000000900000008000015580000000000000000000N
071994061011890899VILLAMENA                                                                                           014714700000001000000020000082700000827000000000000000000000379000005080000000700000001000006330000000000000000000N
071994061011890999MORELABOR                                                                                           008708700000001038000010000079600000796000000000000000000000305000004680000000000000007000006180000000000000000000N
071994061011891099PINAR (EL)                                                                                          014714700000001311000020000102000001020000000000000000000000331000005070000000200000008000007110000000000000000000N
071994061011891199VEGAS DEL GENIL                                                                                     008708700000002691000040000211700002118000000000000000000000827000011120000000800000011000014810000000000000000000N
071994061011891299CUEVAS DEL CAMPO                                                                                    002302300000002380000030000190900001910000000000000000000000553000007950000000200000009000011560000000000000000000N
071994061011891399ZAGRA                                                                                               012212200000001267000020000104300001043000000000000000000000389000005290000000100000009000007370000000000000000000N
071994061012100199ALAJAR                                                                                              000700700000000862000010000065200000652000000000000000000000298000003570000000300000005000004110000000000000000000N
071994061012100299ALJARAQUE                                                                                           004104100000007202000060000528100005282000000000000000000001709000023780000003400000017000033430000000000000000000N
071994061012100399ALMENDRO (EL)                                                                                       001001000000000875000010000065500000659000000000000000000000274000003450000000300000004000004690000000000000000000N
071994061012100499ALMONASTER LA REAL                                                                                  000700700000002145000040000169700001697000000000000000000000595000007830000000400000006000011110000000000000000000N
071994061012100599ALMONTE                                                                                             005405400000016792000150001216300012163000000000000000000004141000054550000004400000072000075040000000000000000000N
071994061012100699ALOSNO                                                                                              007207200000004982000060000390600003907000000000000000000001740000021400000001100000017000026820000000000000000000N
071994061012100799ARACENA                                                                                             000700700000006679000060000506200005060000000000000000000001925000026250000003300000058000033090000000000000000000N
071994061012100899AROCHE                                                                                              000700700000003599000040000284800002848000000000000000000001020000012830000000800000011000017730000000000000000000N
071994061012100999ARROYOMOLINOS DE LEON                                                                               000700700000001231000020000097800000978000000000000000000000389000005080000000200000005000006550000000000000000000N
071994061012101099AYAMONTE                                                                                            001001000000015702000170001147200011476000000000000000000003346000046420000005600000046000061380000000000000000000N
071994061012101199BEAS                                                                                                004104100000004075000040000313700003137000000000000000000001428000018790000000500000013000024680000000000000000000N
071994061012101299BERROCAL                                                                                            007207200000000421000010000035400000354000000000000000000000159000002290000000000000001000002950000000000000000000N
071994061012101399BOLLULLOS PAR DEL CONDADO                                                                           005405400000012792000110000995000009950000000000000000000003489000050710000002900000060000065110000000000000000000N
071994061012101499BONARES                                                                                             005005000000004986000030000380700003807000000000000000000001566000022130000001200000017000029670000000000000000000N
071994061012101599CABEZAS RUBIAS                                                                                      007207200000000970000010000071400000713000000000000000000000230000003050000000300000008000003700000000000000000000N
071994061012101699CALA                                                                                                000700700000001493000020000117500001175000000000000000000000518000007230000000200000005000009090000000000000000000N
071994061012101799CALAÑAS                                                                                             007207200000005057000050000399200003992000000000000000000001692000021210000001400000012000027990000000000000000000N
071994061012101899CAMPILLO (EL)                                                                                       007207200000002632000030000199300001993000000000000000000000799000010580000000900000013000013950000000000000000000N
071994061012101999CAMPOFRIO                                                                                           000700700000000894000010000070600000706000000000000000000000260000003730000000900000012000004870000000000000000000N
071994061012102099CAÑAVERAL DE LEON                                                                                   000700700000000583000010000045300000453000000000000000000000169000002290000000000000000000002540000000000000000000N
071994061012102199CARTAYA                                                                                             004104100000010806000090000804600008049000000000000000000002007000029060000003300000029000041560000000000000000000N
071994061012102299CASTAÑO DEL ROBLEDO                                                                                 000700700000000204000010000017000000170000000000000000000000057000000980000000100000000000001340000000000000000000N
071994061012102399CERRO DE ANDEVALO (EL)                                                                              007207200000002872000030000231300002313000000000000000000000905000012550000000900000018000015650000000000000000000N
071994061012102499CORTECONCEPCION                                                                                     000700700000000689000010000054400000544000000000000000000000274000003430000000300000003000004180000000000000000000N
071994061012102599CORTEGANA                                                                                           000700700000005305000070000405500004055000000000000000000001342000017220000001700000026000023420000000000000000000N
071994061012102699CORTELAZOR                                                                                          000700700000000320000010000028600000286000000000000000000000101000001480000000000000001000001960000000000000000000N
071994061012102799CUMBRES DE EN MEDIO                                                                                 000700700000000059000010000005600000056000000000000000000000024000000300000000000000000000000450000000000000000000N
071994061012102899CUMBRES DE SAN BARTOLOME                                                                            000700700000000628000010000053700000537000000000000000000000279000003580000000300000006000004180000000000000000000N
071994061012102999CUMBRES MAYORES                                                                                     000700700000002307000020000178400001784000000000000000000000767000010370000002100000019000012750000000000000000000N
071994061012103099CHUCENA                                                                                             005405400000001945000020000150700001507000000000000000000000681000009680000000900000008000011720000000000000000000N
071994061012103199ENCINASOLA                                                                                          000700700000001995000030000181500001816000000000000000000000707000012980000000600000004000012880000000000000000000N
071994061012103299ESCACENA DEL CAMPO                                                                                  005405400000002237000020000167900001679000000000000000000000635000009340000000900000003000011620000000000000000000N
071994061012103399FUENTEHERIDOS                                                                                       000700700000000666000010000050300000503000000000000000000000236000002910000000100000001000003670000000000000000000N
071994061012103499GALAROZA                                                                                            000700700000001636000020000130400001304000000000000000000000515000006680000000200000005000008550000000000000000000N
071994061012103599GIBRALEON                                                                                           004104100000010128000090000731300007318000000000000000000003321000042240000002400000032000055260000000000000000000N
071994061012103699GRANADA DE RIO-TINTO (LA)                                                                           000700700000000221000010000018900000189000000000000000000000068000000960000000200000001000001200000000000000000000N
071994061012103799GRANADO (EL)                                                                                        001001000000000692000010000052200000523000000000000000000000197000002860000000400000006000003750000000000000000000N
071994061012103899HIGUERA DE LA SIERRA                                                                                000700700000001318000010000104500001045000000000000000000000368000005100000001200000007000006430000000000000000000N
