041995051010400199ABLA                                                                                                001301300000001597000020000129800001298000000000000000000000597000008460000000800000004000009890090000000000000000N
041995051010400299ABRUCENA                                                                                            001301300000001476000020000117300001173000000000000000000000489000007920000000600000005000009980090000000000000000N
041995051010400399ADRA                                                                                                002902900000020979000210001472300014723000000000000000000004789000071080000007100000029000095940210000000000000000N
041995051010400499ALBANCHEZ                                                                                           005305300000000686000010000066300000663000000000000000000000330000004170000000600000006000005060070000000000000000N
041995051010400599ALBOLODUY                                                                                           001301300000000857000010000069800000698000000000000000000000273000004790000000500000009000005760070000000000000000N
041995051010400699ALBOX                                                                                               005305300000010236000110000710900007109000000000000000000002801000040370000004000000024000054030170000000000000000N
041995051010400799ALCOLEA                                                                                             001301300000000842000010000066800000668000000000000000000000362000004880000000000000003000005780070000000000000000N
041995051010400899ALCONTAR                                                                                            005305300000000646000020000059500000595000000000000000000000220000003830000000100000003000005200070000000000000000N
041995051010401099ALHABIA                                                                                             001301300000000744000010000057200000572000000000000000000000301000004130000000800000006000004610070000000000000000N
041995051010401199ALHAMA DE ALMERIA                                                                                   001301300000003124000040000237700002377000000000000000000001036000015430000001300000006000019940110000000000000000N
041995051010401399ALMERIA                                                                                             001301300000167361001620012576400125764000000000000000000047285000636120000079200000231000822390270000000000000000N
041995051010401699ANTAS                                                                                               010010000000002595000030000208500002085000000000000000000000726000011240000002300000029000015790110000000000000000N
041995051010401799ARBOLEAS                                                                                            005305300000001537000020000128000001280000000000000000000000445000006920000002100000004000009060090000000000000000N
041995051010401899ARMUÑA DE ALMANZORA                                                                                 005305300000000365000010000028600000286000000000000000000000129000001920000000200000001000002350070000000000000000N
041995051010401999BACARES                                                                                             005305300000000300000010000029500000295000000000000000000000126000001920000000200000002000002230070000000000000000N
041995051010402099BAYARCAL                                                                                            001301300000000388000010000032000000320000000000000000000000140000002020000000500000000000002580070000000000000000N
041995051010402299BEDAR                                                                                               010010000000000515000010000050800000508000000000000000000000196000002470000000300000000000003000070000000000000000N
041995051010402499BENAHADUX                                                                                           001301300000002514000020000188000001880000000000000000000000897000012540000001100000007000015780110000000000000000N
041995051010402799BENIZALON                                                                                           001301300000000308000010000025500000255000000000000000000000076000001460000000200000000000001980070000000000000000N
041995051010402899BENTARIQUE                                                                                          001301300000000347000010000029100000291000000000000000000000185000002250000000100000002000002590070000000000000000N
041995051010402999BERJA                                                                                               002902900000012731000130000940500009405000000000000000000003350000050390000005500000050000066180170000000000000000N
041995051010403099CANJAYAR                                                                                            001301300000001770000030000142500001425000000000000000000000681000010050000000500000009000011780090000000000000000N
041995051010403199CANTORIA                                                                                            005305300000003342000040000279800002798000000000000000000001187000017700000000600000010000022550110000000000000000N
041995051010403299CARBONERAS                                                                                          010010000000006075000060000435600004356000000000000000000001742000027470000001900000005000035900130000000000000000N
041995051010403499COBDAR                                                                                              001301300000000269000010000024900000249000000000000000000000127000001750000000100000000000002230070000000000000000N
041995051010403599CUEVAS DEL ALMANZORA                                                                                010010000000009341000110000704200007042000000000000000000002736000041170000007500000071000051580130000000000000000N
041995051010403699CHERCOS                                                                                             005305300000000304000010000025800000258000000000000000000000118000001810000000000000002000002290070000000000000000N
041995051010403799CHIRIVEL                                                                                            005305300000002005000040000169100001691000000000000000000000632000009670000002200000011000011970110000000000000000N
041995051010403899DALIAS                                                                                              002902900000003626000050000288700002887000000000000000000001142000017120000002800000019000020970110000000000000000N
041995051010403999DARRICAL                                                                                            002902900000000306000010000020500000205000000000000000000000086000001060000000000000001000001470070000000000000000N
041995051010404399FELIX                                                                                               001301300000000591000010000049900000499000000000000000000000261000003680000001100000001000004150070000000000000000N
041995051010404499FINES                                                                                               005305300000001682000020000125500001255000000000000000000000530000008380000000500000004000010990090000000000000000N
041995051010404599FIÑANA                                                                                              001301300000002700000030000210700002107000000000000000000000852000012440000001100000009000015800110000000000000000N
041995051010404699FONDON                                                                                              001301300000000937000020000081500000815000000000000000000000393000005410000000800000006000006490070000000000000000N
041995051010404799GADOR                                                                                               001301300000002592000020000197100001971000000000000000000001099000014960000000800000012000017320110000000000000000N
041995051010404899GALLARDOS (LOS)                                                                                     010010000000001670000020000135300001353000000000000000000000559000008190000000700000004000010800090000000000000000N
041995051010404999GARRUCHA                                                                                            010010000000004591000040000338800003388000000000000000000001456000021870000001700000008000027280110000000000000000N
041995051010405099GERGAL                                                                                              001301300000001085000010000092200000922000000000000000000000421000006080000000000000004000007680090000000000000000N
041995051010405199HUECIJA                                                                                             001301300000000557000010000045400000454000000000000000000000229000003420000000200000004000004010070000000000000000N
041995051010405299HUERCAL DE ALMERIA                                                                                  001301300000004157000050000328200003282000000000000000000001454000020360000000700000011000025050110000000000000000N
041995051010405399HUERCAL-OVERA                                                                                       005305300000013814000180001071900010719000000000000000000004412000066890000007700000020000085940170000000000000000N
041995051010405499ILLAR                                                                                               001301300000000477000010000039000000390000000000000000000000262000003180000000000000002000003720070000000000000000N
041995051010405599INSTINCION                                                                                          001301300000000595000010000048500000485000000000000000000000231000003660000000700000001000004290070000000000000000N
041995051010405799LAUJAR DE ANDARAX                                                                                   001301300000001864000020000147100001471000000000000000000000614000009480000000700000005000012290090000000000000000N
041995051010405899LIJAR                                                                                               005305300000000528000010000043800000438000000000000000000000168000002890000000100000000000003770070000000000000000N
041995051010405999LUBRIN                                                                                              010010000000001938000030000180300001803000000000000000000000661000010130000000200000022000012350090000000000000000N
041995051010406099LUCAINENA DE LAS TORRES                                                                             001301300000000552000010000052800000528000000000000000000000210000003350000000500000000000004020070000000000000000N
041995051010406199LUCAR                                                                                               005305300000000754000010000062100000621000000000000000000000288000004100000000000000003000005570070000000000000000N
041995051010406299MACAEL                                                                                              005305300000006086000050000427000004270000000000000000000001945000025880000001700000013000033100130000000000000000N
041995051010406399MARIA                                                                                               005305300000001737000030000140400001404000000000000000000000531000007990000000800000005000009880090000000000000000N
041995051010406499MOJACAR                                                                                             010010000000003731000040000209300002093000000000000000000000674000010920000001000000019000015840110000000000000000N
041995051010406599NACIMIENTO                                                                                          001301300000000483000010000046100000461000000000000000000000272000003540000000000000007000003990070000000000000000N
041995051010406699NIJAR                                                                                               001301300000014053000170001069300010693000000000000000000003224000051770000003300000020000070130170000000000000000N
041995051010406799OHANES                                                                                              001301300000000860000010000070600000706000000000000000000000383000004880000000400000006000005990070000000000000000N
041995051010406999OLULA DEL RIO                                                                                       005305300000005841000050000439600004396000000000000000000001678000023470000005000000014000032130130000000000000000N
041995051010407099ORIA                                                                                                005305300000002367000040000204800002048000000000000000000000807000012180000000300000006000015820110000000000000000N
041995051010407199PADULES                                                                                             001301300000000506000010000043700000437000000000000000000000240000003010000001000000001000003560070000000000000000N
041995051010407299PARTALOA                                                                                            005305300000000388000010000034900000349000000000000000000000154000002390000000300000001000002990070000000000000000N
041995051010407399PATERNA DEL RIO                                                                                     001301300000000344000010000030700000307000000000000000000000136000002020000000000000005000002310070000000000000000N
041995051010407499PECHINA                                                                                             001301300000002422000020000184600001846000000000000000000000869000012360000001600000011000014900110000000000000000N
041995051010407599PULPI                                                                                               010010000000004887000050000358000003580000000000000000000001381000021810000001100000006000028690110000000000000000N
041995051010407699PURCHENA                                                                                            005305300000001735000020000137700001377000000000000000000000457000007400000001400000013000010630090000000000000000N
041995051010407799RAGOL                                                                                               001301300000000420000010000034900000349000000000000000000000232000002850000000000000001000003200070000000000000000N
041995051010407899RIOJA                                                                                               001301300000001174000010000091900000919000000000000000000000567000007180000000000000006000008260090000000000000000N
041995051010407999ROQUETAS DE MAR                                                                                     001301300000033306000320002379800023798000000000000000000007867000114180000014900000021000150410210000000000000000N
041995051010408199SANTA FE DE MONDUJAR                                                                                001301300000000420000010000035700000357000000000000000000000198000002610000000000000000000003230070000000000000000N
041995051010408299SENES                                                                                               001301300000000368000010000032700000327000000000000000000000125000001960000000200000002000002460070000000000000000N
041995051010408399SERON                                                                                               005305300000002992000040000246100002461000000000000000000000963000014270000000800000004000018190110000000000000000N
041995051010408499SIERRO                                                                                              005305300000000561000010000039600000396000000000000000000000160000002470000000100000004000003210070000000000000000N
041995051010408599SOMONTIN                                                                                            005305300000000505000010000043000000430000000000000000000000220000003000000000000000003000003890070000000000000000N
041995051010408699SORBAS                                                                                              001301300000002752000050000218900002189000000000000000000000834000013810000000600000003000017770110000000000000000N
041995051010408899TABERNAS                                                                                            001301300000003155000050000244500002445000000000000000000000875000012160000000600000013000017700110000000000000000N
041995051010408999TABERNO                                                                                             005305300000001040000010000089100000891000000000000000000000325000004920000000000000003000006770090000000000000000N
041995051010409099TAHAL                                                                                               001301300000000499000010000041400000414000000000000000000000156000002330000000100000006000003080070000000000000000N
041995051010409199TERQUE                                                                                              001301300000000449000010000037000000370000000000000000000000241000003040000000100000002000003310070000000000000000N
041995051010409299TIJOLA                                                                                              005305300000003716000050000280000002800000000000000000000001185000017790000002000000016000022980110000000000000000N
041995051010409399TURRE                                                                                               010010000000002188000020000182800001828000000000000000000000676000011720000000600000002000015540110000000000000000N
041995051010409499TURRILLAS                                                                                           001301300000000278000010000020800000208000000000000000000000099000001340000000000000000000001670070000000000000000N
041995051010409599ULEILA DEL CAMPO                                                                                    001301300000001026000010000089000000890000000000000000000000300000005110000000700000010000006070090000000000000000N
041995051010409699URRACAL                                                                                             005305300000000337000010000029700000297000000000000000000000139000001960000000200000001000002560070000000000000000N
041995051010409799VELEFIQUE                                                                                           001301300000000343000010000030600000306000000000000000000000098000001590000000000000002000002130070000000000000000N
041995051010409899VELEZ BLANCO                                                                                        005305300000002303000040000188100001881000000000000000000000702000011700000001500000037000014100110000000000000000N
041995051010409999VELEZ RUBIO                                                                                         005305300000006544000100000562500005625000000000000000000002116000032900000003400000049000042640130000000000000000N
041995051010410099VERA                                                                                                010010000000006431000060000471000004710000000000000000000001845000027150000001300000023000036930130000000000000000N
041995051010410199VIATOR                                                                                              001301300000002922000030000223400002234000000000000000000001171000015860000001700000007000018180110000000000000000N
041995051010410299VICAR                                                                                               001301300000012932000130000889700008897000000000000000000003151000045750000003300000012000062530170000000000000000N
041995051010410399ZURGENA                                                                                             005305300000002190000020000164500001645000000000000000000000715000010860000000400000003000013840110000000000000000N
041995051010490199TRES VILLAS (LAS)                                                                                   001301300000000799000020000069500000695000000000000000000000406000004880000000400000000000006140070000000000000000N
041995051010490299EJIDO (EL)                                                                                          002902900000044373000420003162800031628000000000000000000009022000134570000020000000068000183180210000000000000000N
041995051010490399MOJONERA (LA)                                                                                       001301300000005852000050000406800004068000000000000000000001439000022480000001800000013000028470130000000000000000N
041995051011100199ALCALA DE LOS GAZULES                                                                               003103100000005688000060000448100004481000000000000000000001765000024030000004800000011000030150130000000000000000N
041995051011100299ALCALA DEL VALLE                                                                                    000600600000005421000040000403600004036000000000000000000001175000017980000002100000006000031010130000000000000000N
041995051011100399ALGAR                                                                                               000600600000001891000020000147000001470000000000000000000000645000008480000000300000010000010690090000000000000000N
041995051011100499ALGECIRAS                                                                                           000400400000103787001030007633200076332000000000000000000026297000356220000031800000163000440130270000000000000000N
041995051011100599ALGODONALES                                                                                         000600600000005833000080000452700004527000000000000000000001733000022530000004000000016000029020130000000000000000N
041995051011100699ARCOS DE LA FRONTERA                                                                                000600600000027901000290002090400020904000000000000000000008007000109890000009200000049000142090210000000000000000N
041995051011100799BARBATE DE FRANCO                                                                                   001501500000022664000190001662200016622000000000000000000005810000084800000007400000021000105920210000000000000000N
041995051011100899BARRIOS (LOS)                                                                                       000400400000014920000100001061000010610000000000000000000004669000062860000008500000042000079310170000000000000000N
041995051011100999BENAOCAZ                                                                                            000600600000000578000010000047200000472000000000000000000000236000003180000000100000003000004230070000000000000000N
041995051011101099BORNOS                                                                                              000600600000008051000080000595700005957000000000000000000002333000032370000003200000010000041490130000000000000000N
041995051011101199BOSQUE (EL)                                                                                         000600600000001802000020000139800001398000000000000000000000663000009120000000400000009000010800090000000000000000N
041995051011101299CADIZ                                                                                               001201200000155438001170011725300117253000000000000000000043536000586390000084000000274000738550270000000000000000N
041995051011101399CASTELLAR DE LA FRONTERA                                                                            003303300000002418000020000175900001759000000000000000000000860000012340000001600000024000014380110000000000000000N
041995051011101499CONIL DE LA FRONTERA                                                                                001501500000016359000170001200800012008000000000000000000004194000069740000005600000019000081100170000000000000000N
041995051011101599CHICLANA DE LA FRONTERA                                                                             001501500000050697000490003681300036813000000000000000000011207000157440000020200000048000198240250000000000000000N
041995051011101699CHIPIONA                                                                                            003203200000015399000140001104500011045000000000000000000003934000061410000004800000024000080430170000000000000000N
041995051011101799ESPERA                                                                                              000600600000004197000040000305600003056000000000000000000001205000016380000003500000008000021350110000000000000000N
041995051011101899GASTOR (EL)                                                                                         000600600000002121000030000158700001587000000000000000000000820000010830000001500000010000012500110000000000000000N
041995051011101999GRAZALEMA                                                                                           000600600000002296000030000183500001835000000000000000000000773000011810000001600000025000014160110000000000000000N
041995051011102099JEREZ DE LA FRONTERA                                                                                002002000000186273001810014050100140501000000000000000000048246000608450000072900000283000776380270000000000000000N
041995051011102199JIMENA DE LA FRONTERA                                                                               003303300000009025000120000690200006902000000000000000000002869000040070000006100000030000049370130000000000000000N
041995051011102299LINEA DE LA CONCEPCION (L                                                                           003303300000061280000600004736100047361000000000000000000015847000227930000025200000080000274690250000000000000000N
041995051011102399MEDINA-SIDONIA                                                                                      003103100000010850000110000792100007921000000000000000000003301000047790000007300000031000058910170000000000000000N
041995051011102499OLVERA                                                                                              000600600000009144000080000718800007188000000000000000000002761000037600000003300000026000051240130000000000000000N
041995051011102599PATERNA DE RIVERA                                                                                   003103100000005063000060000361600003616000000000000000000001730000025620000002900000005000030230130000000000000000N
041995051011102699PRADO DEL REY                                                                                       000600600000005665000060000421100004211000000000000000000001906000025750000003400000029000031530130000000000000000N
041995051011102799PUERTO DE SANTA MARIA (EL                                                                           002702700000069656000730005050300050503000000000000000000015561000215480000027800000163000282710250000000000000000N
041995051011102899PUERTO REAL                                                                                         002702700000031086000280002292800022928000000000000000000008461000107610000019400000031000136450210000000000000000N
041995051011102999PUERTO SERRANO                                                                                      000600600000006648000070000456000004560000000000000000000001598000020330000002200000012000034010130000000000000000N
041995051011103099ROTA                                                                                                002702700000024287000290001760100017601000000000000000000006159000086820000008000000039000113320210000000000000000N
041995051011103199SAN FERNANDO                                                                                        003103100000087588000920006393800063938000000000000000000020274000263050000038500000110000340180250000000000000000N
041995051011103299SANLUCAR DE BARRAMEDA                                                                               003203200000059780000630004207000042070000000000000000000010567000165470000024300000065000227070250000000000000000N
041995051011103399SAN ROQUE                                                                                           003303300000022079000300001642000016420000000000000000000007032000094570000010700000061000112880210000000000000000N
041995051011103499SETENIL                                                                                             000600600000003301000040000255000002550000000000000000000001114000014950000000800000019000017860110000000000000000N
041995051011103599TARIFA                                                                                              000400400000014934000160001119700011197000000000000000000004528000065990000011200000087000081420170000000000000000N
041995051011103699TORRE-ALHAQUIME                                                                                     000600600000001004000020000080200000802000000000000000000000332000004760000000200000004000005570090000000000000000N
041995051011103799TREBUJENA                                                                                           003203200000006999000100000526800005268000000000000000000002272000033620000006400000037000040440130000000000000000N
041995051011103899UBRIQUE                                                                                             000600600000018320000190001374100013741000000000000000000006596000090100000013100000051000109220170000000000000000N
041995051011103999VEJER DE LA FRONTERA                                                                                001501500000012957000150000968300009683000000000000000000002794000042560000004900000022000057140170000000000000000N
041995051011104099VILLALUENGA DEL ROSARIO                                                                             000600600000000495000010000033500000335000000000000000000000106000001940000000400000005000002380070000000000000000N
041995051011104199VILLAMARTIN                                                                                         000600600000012473000120000896800008968000000000000000000003573000047770000006000000020000063070170000000000000000N
041995051011104299ZAHARA                                                                                              000600600000001585000020000123400001234000000000000000000000618000007890000000800000006000009670090000000000000000N
041995051011190199BENALUP                                                                                             003103100000006067000090000434700004347000000000000000000001697000024100000001600000008000033090130000000000000000N
041995051011190299SAN JOSE DEL VALLE                                                                                  002002000000004117000040000319100003191000000000000000000001024000018140000000400000000000023010110000000000000000N
041995051011400199ADAMUZ                                                                                              002102100000004557000050000340100003401000000000000000000001898000023310000001300000011000030830110000000000000000N
041995051011400299AGUILAR                                                                                             000200200000013366000130001001800010018000000000000000000004876000063670000005000000034000079250170000000000000000N
041995051011400399ALCARACEJOS                                                                                         005405400000001520000020000117600001176000000000000000000000667000008300000001100000020000009800090000000000000000N
041995051011400499ALMEDINILLA                                                                                         005505500000002627000030000213900002139000000000000000000000904000013270000000500000011000017430110000000000000000N
041995051011400599ALMODOVAR DEL RIO                                                                                   005305300000007297000070000533400005334000000000000000000002054000027490000004100000010000037590130000000000000000N
041995051011400699AÑORA                                                                                               005405400000001687000020000132600001326000000000000000000000784000009810000000800000005000011780090000000000000000N
041995051011400799BAENA                                                                                               000700700000020572000190001436900014369000000000000000000006107000081080000006900000050000104870210000000000000000N
041995051011400899BELALCAZAR                                                                                          005205200000004117000040000330200003302000000000000000000001713000021090000002200000006000025400110000000000000000N
041995051011400999BELMEZ                                                                                              005205200000004395000060000374000003740000000000000000000001753000022530000000600000007000027750110000000000000000N
041995051011401099BENAMEJI                                                                                            003803800000004648000050000356700003567000000000000000000001618000022120000000800000013000029700110000000000000000N
041995051011401199BLAZQUEZ                                                                                            005205200000000751000010000062600000626000000000000000000000301000004030000000000000009000005230070000000000000000N
041995051011401299BUJALANCE                                                                                           002102100000008640000100000640100006401000000000000000000003213000039840000005400000049000050570130000000000000000N
041995051011401399CABRA                                                                                               001301300000020710000210001587700015877000000000000000000007027000091400000007100000028000121780210000000000000000N
041995051011401499CAÑETE DE LAS TORRES                                                                                002102100000003433000020000269600002696000000000000000000001407000018680000002400000024000022340110000000000000000N
041995051011401599CARCABUEY                                                                                           005505500000002923000040000233100002331000000000000000000000999000013300000001700000012000018830110000000000000000N
041995051011401699CARDEÑA                                                                                             002102100000002093000030000169400001694000000000000000000000878000011000000000600000004000014600110000000000000000N
041995051011401799CARLOTA (LA)                                                                                        005305300000009836000130000750200007502000000000000000000002834000037100000005200000026000053530130000000000000000N
041995051011401899CARPIO (EL)                                                                                         002102100000004636000060000364800003648000000000000000000001933000023700000001200000012000030530110000000000000000N
041995051011401999CASTRO DEL RIO                                                                                      002102100000007968000090000623200006232000000000000000000003322000041880000005600000024000050620130000000000000000N
041995051011402099CONQUISTA                                                                                           005405400000000564000010000047100000471000000000000000000000242000002890000000400000001000003610070000000000000000N
041995051011402199CORDOBA                                                                                             002102100000315948003330024036200240362000000000000000000084119001127780000230200000508001484110290000000000000000N
041995051011402299DOÑA MENCIA                                                                                         001301300000005172000040000399300003993000000000000000000001650000024070000001000000006000031300130000000000000000N
041995051011402399DOS TORRES                                                                                          005405400000002563000030000202700002027000000000000000000001091000013960000000700000010000017090110000000000000000N
041995051011402499ENCINAS REALES                                                                                      003803800000002368000020000188500001885000000000000000000000993000013080000001600000024000015770110000000000000000N
041995051011402599ESPEJO                                                                                              002102100000005067000050000345900003459000000000000000000002041000025530000001300000016000031190130000000000000000N
041995051011402699ESPIEL                                                                                              005205200000002620000030000200900002009000000000000000000001023000012610000000200000008000016530110000000000000000N
041995051011402799FERNAN NUÑEZ                                                                                        004204200000009629000100000733100007331000000000000000000003472000044530000004500000034000055930130000000000000000N
041995051011402899FUENTE LA LANCHA                                                                                    005205200000000460000010000037500000375000000000000000000000210000002710000000600000005000003270070000000000000000N
041995051011402999FUENTE OBEJUNA                                                                                      005205200000006378000110000514700005147000000000000000000002511000031430000001700000023000040090130000000000000000N
041995051011403099FUENTE PALMERA                                                                                      005305300000009786000110000695600006956000000000000000000002596000037070000002500000024000054510130000000000000000N
041995051011403199FUENTE-TOJAR                                                                                        005505500000000881000010000072700000727000000000000000000000346000004380000000400000009000005750070000000000000000N
041995051011403299GRANJUELA (LA)                                                                                      005205200000000537000010000043200000432000000000000000000000197000002760000000700000005000003320070000000000000000N
041995051011403399GUADALCAZAR                                                                                         005305300000001173000010000085200000852000000000000000000000400000005760000000400000004000007280090000000000000000N
041995051011403499GUIJO                                                                                               005405400000000445000010000036800000368000000000000000000000186000002630000000000000003000003080070000000000000000N
041995051011403599HINOJOSA DEL DUQUE                                                                                  005205200000008265000090000662300006623000000000000000000003318000042740000002600000029000052950130000000000000000N
041995051011403699HORNACHUELOS                                                                                        005305300000005152000060000372600003726000000000000000000001680000021710000003100000013000028830130000000000000000N
041995051011403799IZNAJAR                                                                                             003803800000005588000080000440400004404000000000000000000001617000022480000001600000016000032940130000000000000000N
041995051011403899LUCENA                                                                                              003803800000034262000330002512600025126000000000000000000010069000134900000014500000076000178460210000000000000000N
041995051011403999LUQUE                                                                                               000700700000003404000030000277200002772000000000000000000001198000016590000001200000016000022700110000000000000000N
041995051011404099MONTALBAN DE CORDOBA                                                                                004204200000004623000040000362400003624000000000000000000001571000020730000005300000019000026250110000000000000000N
041995051011404199MONTEMAYOR                                                                                          004204200000003765000040000291600002916000000000000000000001434000018590000001600000034000023010110000000000000000N
041995051011404299MONTILLA                                                                                            004204200000023311000240001809400018094000000000000000000008608000112870000015400000070000144680210000000000000000N
041995051011404399MONTORO                                                                                             002102100000009828000090000744100007441000000000000000000003403000043110000003300000012000057040130000000000000000N
041995051011404499MONTURQUE                                                                                           000200200000002002000020000148900001489000000000000000000000675000009430000000400000008000012470110000000000000000N
041995051011404599MORILES                                                                                             000200200000003762000040000289500002895000000000000000000001515000019900000001500000016000023190110000000000000000N
041995051011404699NUEVA CARTEYA                                                                                       001301300000005842000060000428500004285000000000000000000002102000028410000002400000026000035570130000000000000000N
041995051011404799OBEJO                                                                                               002102100000001465000020000118400001184000000000000000000000520000006670000002000000001000008200090000000000000000N
041995051011404899PALENCIANA                                                                                          003803800000001691000020000125400001254000000000000000000000630000007850000001000000002000009960090000000000000000N
041995051011404999PALMA DEL RIO                                                                                       005305300000019121000170001451700014517000000000000000000005897000080850000007200000043000106900170000000000000000N
041995051011405099PEDRO ABAD                                                                                          002102100000003040000040000230700002307000000000000000000001233000015330000001400000014000019440110000000000000000N
041995051011405199PEDROCHE                                                                                            005405400000001930000020000154800001548000000000000000000000835000010440000001700000010000012560090000000000000000N
041995051011405299PEÑARROYA-PUEBLONUEVO                                                                               005205200000014159000180001156000011560000000000000000000004239000055300000007600000047000071870170000000000000000N
041995051011405399POSADAS                                                                                             005305300000007240000080000552600005526000000000000000000002420000031330000005100000017000039780130000000000000000N
041995051011405499POZOBLANCO                                                                                          005405400000015679000190001194900011949000000000000000000005900000074920000015800000061000094270170000000000000000N
041995051011405599PRIEGO DE CORDOBA                                                                                   005505500000022344000270001717500017175000000000000000000006762000097460000008700000052000127440210000000000000000N
041995051011405699PUENTE GENIL                                                                                        000200200000027598000290002145100021451000000000000000000009677000123840000008700000065000158760210000000000000000N
041995051011405799RAMBLA (LA)                                                                                         004204200000007066000060000533500005335000000000000000000002662000035000000003500000047000043090130000000000000000N
041995051011405899RUTE                                                                                                003803800000010220000100000783900007839000000000000000000003415000046640000004700000030000061790170000000000000000N
041995051011405999SAN SEBASTIAN DE LOS BALL                                                                           004204200000000837000010000068600000686000000000000000000000435000005090000000500000006000006000070000000000000000N
041995051011406099SANTAELLA                                                                                           004204200000005826000060000424400004244000000000000000000001734000023430000003900000025000032390130000000000000000N
041995051011406199SANTA EUFEMIA                                                                                       005405400000001268000010000104300001043000000000000000000000588000007140000000200000005000008620090000000000000000N
041995051011406299TORRECAMPO                                                                                          005405400000001556000020000126700001267000000000000000000000591000008440000000400000002000010050090000000000000000N
041995051011406399VALENZUELA                                                                                          000700700000001553000020000130500001305000000000000000000000694000008730000001500000008000011050090000000000000000N
041995051011406499VALSEQUILLO                                                                                         005205200000000524000010000043400000434000000000000000000000183000002560000001400000007000003260070000000000000000N
041995051011406599VICTORIA (LA)                                                                                       004204200000001752000020000137700001377000000000000000000000754000009230000000700000008000012080090000000000000000N
041995051011406699VILLA DEL RIO                                                                                       002102100000007152000070000527700005277000000000000000000002703000034400000002200000019000043850130000000000000000N
041995051011406799VILLAFRANCA DE CORDOBA                                                                              002102100000003707000050000286500002865000000000000000000001332000017080000001500000018000022710110000000000000000N
041995051011406899VILLAHARTA                                                                                          005205200000000630000010000053600000536000000000000000000000271000003370000000600000002000004220070000000000000000N
041995051011406999VILLANUEVA DE CORDOBA                                                                               005405400000010374000120000824200008242000000000000000000003878000048690000006900000063000063270170000000000000000N
041995051011407099VILLANUEVA DEL DUQUE                                                                                005405400000001992000020000166400001664000000000000000000000868000010710000000200000021000012900090000000000000000N
041995051011407199VILLANUEVA DEL REY                                                                                  005205200000001324000020000109700001097000000000000000000000602000006980000000800000006000008670090000000000000000N
041995051011407299VILLARALTO                                                                                          005405400000001700000020000142700001427000000000000000000000835000009960000001000000037000011200090000000000000000N
041995051011407399VILLAVICIOSA DE CORDOBA                                                                             002102100000004011000040000327600003276000000000000000000001525000019210000001000000011000025650110000000000000000N
041995051011407499VISO (EL)                                                                                           005405400000003447000050000273700002737000000000000000000001582000019120000000500000030000022590110000000000000000N
041995051011407599ZUHEROS                                                                                             001301300000000956000010000079200000792000000000000000000000438000005400000000500000005000006730070000000000000000N
041995051011800199AGRON                                                                                               012212200000000451000010000036900000369000000000000000000000126000002240000000500000001000003080070000000000000000N
041995051011800299ALAMEDILLA                                                                                          008908900000001004000010000078500000785000000000000000000000325000004460000000500000003000005480090000000000000000N
041995051011800399ALBOLOTE                                                                                            008708700000011358000120000841000008410000000000000000000003454000045110000006000000022000059310170000000000000000N
041995051011800499ALBONDON                                                                                            014714700000001316000020000103400001034000000000000000000000390000005580000000900000009000007910090000000000000000N
041995051011800599ALBUÑAN                                                                                             008908900000000488000010000046800000468000000000000000000000220000003000000000300000005000003630070000000000000000N
041995051011800699ALBUÑOL                                                                                             014714700000005578000060000422000004220000000000000000000001591000025090000001600000011000033950130000000000000000N
041995051011800799ALBUÑUELAS                                                                                          014714700000001357000020000111400001114000000000000000000000437000006550000000300000003000008470090000000000000000N
041995051011801099ALDEIRE                                                                                             008908900000000814000010000068300000683000000000000000000000273000004120000000300000009000005540070000000000000000N
041995051011801199ALFACAR                                                                                             008708700000003992000040000305200003052000000000000000000001374000018260000002500000004000022680110000000000000000N
041995051011801299ALGARINEJO                                                                                          012212200000005194000070000351600003516000000000000000000001230000019820000001100000016000025680130000000000000000N
041995051011801399ALHAMA DE GRANADA                                                                                   012212200000006142000060000479200004792000000000000000000002081000028790000002500000027000036610130000000000000000N
041995051011801499ALHENDIN                                                                                            008708700000003954000040000298100002981000000000000000000001355000019080000001200000015000023940110000000000000000N
041995051011801599ALICUN DE ORTEGA                                                                                    008908900000000805000010000055500000555000000000000000000000230000003110000000000000000000004000070000000000000000N
041995051011801699ALMEGIJAR                                                                                           014714700000000443000010000039300000393000000000000000000000140000002030000001000000003000002840070000000000000000N
041995051011801799ALMUÑECAR                                                                                           014014000000021102000230001516500015165000000000000000000007121000095320000008100000039000116370210000000000000000N
041995051011801899ALQUIFE                                                                                             008908900000001079000010000087600000876000000000000000000000325000005080000000400000012000007110090000000000000000N
041995051011802099ARENAS DEL REY                                                                                      012212200000002118000030000173300001733000000000000000000000610000009260000000600000014000012230110000000000000000N
041995051011802199ARMILLA                                                                                             008708700000012116000120000912300009123000000000000000000003732000048660000006200000031000060270170000000000000000N
041995051011802299ATARFE                                                                                              008708700000010508000090000791900007919000000000000000000003415000045720000004100000028000056070170000000000000000N
041995051011802399BAZA                                                                                                002302300000021640000230001619400016194000000000000000000005434000074390000010700000037000098530210000000000000000N
041995051011802499BEAS DE GRANADA                                                                                     008708700000000943000010000076500000765000000000000000000000360000004910000000300000001000006360070000000000000000N
041995051011802599BEAS DE GUADIX                                                                                      008908900000000413000010000033400000334000000000000000000000206000002410000000200000000000002880070000000000000000N
041995051011802799BENALUA DE GUADIX                                                                                   008908900000003444000040000256500002565000000000000000000000895000013550000002200000010000018360110000000000000000N
041995051011802899BENALUA DE LAS VILLAS                                                                               008708700000001407000010000119600001196000000000000000000000541000008390000000300000000000010400090000000000000000N
041995051011802999BENAMAUREL                                                                                          002302300000002564000030000211400002114000000000000000000001044000012330000000300000003000015570110000000000000000N
041995051011803099BERCHULES                                                                                           014714700000000866000010000069600000696000000000000000000000271000003520000000300000023000004810070000000000000000N
041995051011803299BUBION                                                                                              014714700000000369000010000027000000270000000000000000000000113000001680000000100000000000002280070000000000000000N
041995051011803399BUSQUISTAR                                                                                          014714700000000460000010000031700000317000000000000000000000122000001850000000000000003000002470070000000000000000N
041995051011803499CACIN                                                                                               012212200000000891000020000076800000768000000000000000000000351000004740000000500000009000006080070000000000000000N
041995051011803599CADIAR                                                                                              014714700000001983000030000161200001612000000000000000000000574000009000000001200000010000012140090000000000000000N
041995051011803699CAJAR                                                                                               008708700000002432000020000191900001919000000000000000000000873000011400000001800000000000014510110000000000000000N
041995051011803799CALICASAS                                                                                           008708700000000605000010000047900000479000000000000000000000246000003150000000000000004000004180070000000000000000N
041995051011803899CAMPOTEJAR                                                                                          008708700000001478000020000116700001167000000000000000000000522000007270000000600000008000009610090000000000000000N
041995051011803999CANILES                                                                                             002302300000005280000070000420900004209000000000000000000001428000024140000001400000018000030970130000000000000000N
041995051011804099CAÑAR                                                                                               014714700000000345000010000027100000271000000000000000000000123000001670000000000000000000002220070000000000000000N
041995051011804299CAPILEIRA                                                                                           014714700000000581000010000045800000458000000000000000000000188000002690000000900000000000003640070000000000000000N
041995051011804499CASTARAS                                                                                            014714700000000339000010000028800000288000000000000000000000094000001380000000200000000000002030070000000000000000N
041995051011804599CASTILLEJAR                                                                                         002302300000002205000030000186200001862000000000000000000000639000008580000002400000006000011420110000000000000000N
041995051011804699CASTRIL                                                                                             002302300000003204000050000253000002530000000000000000000000691000011950000000600000011000017230110000000000000000N
041995051011804799CENES DE LA VEGA                                                                                    008708700000003169000020000243300002433000000000000000000000924000012570000003200000006000015730110000000000000000N
041995051011804899CIJUELA                                                                                             008708700000001451000010000115600001156000000000000000000000600000007730000001300000001000009730090000000000000000N
041995051011804999COGOLLOS DE GUADIX                                                                                  008908900000000797000010000066500000665000000000000000000000327000004530000000400000004000005190070000000000000000N
041995051011805099COGOLLOS VEGA                                                                                       008708700000002072000020000161900001619000000000000000000000710000009870000001000000004000013040110000000000000000N
041995051011805199COLOMERA                                                                                            008708700000001870000020000147500001475000000000000000000000557000008190000000800000005000011300090000000000000000N
041995051011805399CORTES DE BAZA                                                                                      002302300000002950000040000242800002428000000000000000000000720000010760000001400000008000015300110000000000000000N
041995051011805499CORTES Y GRAENA                                                                                     008908900000001025000010000085000000850000000000000000000000331000005000000000200000014000007060090000000000000000N
041995051011805699CULLAR                                                                                              002302300000005518000100000427600004276000000000000000000002073000027910000002900000013000034630130000000000000000N
041995051011805799CULLAR-VEGA                                                                                         008708700000002041000020000161200001612000000000000000000000707000009700000001200000009000012220110000000000000000N
041995051011805999CHAUCHINA                                                                                           008708700000003972000040000321900003219000000000000000000001395000019330000001500000034000024120110000000000000000N
041995051011806199CHIMENEAS                                                                                           012212200000001606000020000130200001302000000000000000000000561000008530000001100000020000011340090000000000000000N
041995051011806299CHURRIANA DE LA VEGA                                                                                008708700000006013000070000462200004622000000000000000000001750000025170000002700000038000032310130000000000000000N
041995051011806399DARRO                                                                                               008708700000001638000020000124400001244000000000000000000000464000006730000000700000004000008670090000000000000000N
041995051011806499DEHESAS DE GUADIX                                                                                   008908900000000681000010000050000000500000000000000000000000176000002980000000000000000000003990070000000000000000N
041995051011806699DEIFONTES                                                                                           008708700000002560000030000203400002034000000000000000000000825000010700000000500000011000013810110000000000000000N
041995051011806799DIEZMA                                                                                              008708700000001036000010000083400000834000000000000000000000291000004800000002900000002000006400090000000000000000N
041995051011806899DILAR                                                                                               008708700000001529000020000126400001264000000000000000000000575000007550000001100000014000009310090000000000000000N
041995051011806999DOLAR                                                                                               008908900000000704000010000060100000601000000000000000000000313000003730000001700000009000004050070000000000000000N
041995051011807099DUDAR                                                                                               008708700000000273000010000022300000223000000000000000000000092000001390000000600000002000001710070000000000000000N
041995051011807199DURCAL                                                                                              014714700000006155000060000483500004835000000000000000000002006000028720000003200000006000036820130000000000000000N
041995051011807299ESCUZAR                                                                                             008708700000000970000010000079400000794000000000000000000000381000004780000000100000012000005980070000000000000000N
041995051011807499FERREIRA                                                                                            008908900000000419000010000035200000352000000000000000000000113000002410000000100000003000002960070000000000000000N
041995051011807699FONELAS                                                                                             008908900000001369000010000101300001013000000000000000000000249000003970000000400000002000005510090000000000000000N
041995051011807899FREILA                                                                                              002302300000001240000010000093500000935000000000000000000000323000004810000000200000001000006700090000000000000000N
041995051011807999FUENTE VAQUEROS                                                                                     008708700000003960000040000314200003142000000000000000000001421000019150000003400000040000023820110000000000000000N
041995051011808299GALERA                                                                                              002302300000001613000020000137100001371000000000000000000000464000006910000000900000007000008790090000000000000000N
041995051011808399GOBERNADOR                                                                                          008908900000000404000010000038700000387000000000000000000000175000002590000000700000005000003040070000000000000000N
041995051011808499GOJAR                                                                                               008708700000002716000030000219800002198000000000000000000000916000012010000002200000020000015430110000000000000000N
041995051011808599GOR                                                                                                 008908900000001292000020000105200001052000000000000000000000361000005410000000400000013000007170090000000000000000N
041995051011808699GORAFE                                                                                              008908900000000603000010000046900000469000000000000000000000212000002910000000400000000000003760070000000000000000N
041995051011808799GRANADA                                                                                             008708700000271180002950021549300215493000000000000000000085501001140540000212900000526001409370270000000000000000N
041995051011808899GUADAHORTUNA                                                                                        008708700000002450000020000179900001799000000000000000000000720000010460000001000000006000014390110000000000000000N
041995051011808999GUADIX                                                                                              008908900000020658000170001483400014834000000000000000000005732000078870000004700000029000099080210000000000000000N
041995051011809399GUALCHOS                                                                                            014014000000003048000040000232700002327000000000000000000000943000014980000001000000009000018230110000000000000000N
041995051011809499GUEJAR-SIERRA                                                                                       008708700000002873000030000229900002299000000000000000000000948000012560000002000000011000016880110000000000000000N
041995051011809599GUEVEJAR                                                                                            008708700000001378000010000107800001078000000000000000000000506000007050000001800000027000008690090000000000000000N
041995051011809699HUELAGO                                                                                             008908900000000712000010000053800000538000000000000000000000226000003440000000200000003000004580070000000000000000N
041995051011809799HUENEJA                                                                                             008908900000001353000020000110600001106000000000000000000000397000007100000000300000005000009680090000000000000000N
041995051011809899HUESCAR                                                                                             002302300000010196000120000825100008251000000000000000000002779000037500000003700000043000049460170000000000000000N
041995051011809999HUETOR-SANTILLAN                                                                                    008708700000001639000020000131000001310000000000000000000000599000008110000000800000010000010140090000000000000000N
041995051011810099HUETOR-TAJAR                                                                                        012212200000007956000100000625300006253000000000000000000002614000037530000003100000025000047470130000000000000000N
041995051011810199HUETOR-VEGA                                                                                         008708700000007320000070000557800005578000000000000000000002195000028780000003000000009000038460130000000000000000N
041995051011810299ILLORA                                                                                              012212200000011025000120000839000008390000000000000000000003854000050800000004600000042000066790170000000000000000N
041995051011810399ITRABO                                                                                              014014000000001080000010000087900000879000000000000000000000474000006770000000400000001000007880090000000000000000N
041995051011810599IZNALLOZ                                                                                            008708700000006880000080000521300005213000000000000000000002105000030040000003000000026000038890130000000000000000N
041995051011810799JAYENA                                                                                              012212200000001553000010000118000001180000000000000000000000470000007020000001100000010000008120090000000000000000N
041995051011810899JEREZ DEL MARQUESADO                                                                                008908900000001255000010000101500001015000000000000000000000507000006850000001100000005000008420090000000000000000N
041995051011810999JETE                                                                                                014014000000000742000010000060100000601000000000000000000000381000004620000000100000002000005600070000000000000000N
041995051011811199JUN                                                                                                 008708700000001355000010000103600001036000000000000000000000478000006380000002800000011000007720090000000000000000N
041995051011811499CALAHORRA (LA)                                                                                      008908900000001042000010000084500000845000000000000000000000260000002600000000600000012000006170090000000000000000N
041995051011811599LACHAR                                                                                              008708700000002385000030000190200001902000000000000000000000811000011350000001300000022000014260110000000000000000N
041995051011811699LANJARON                                                                                            014714700000004052000040000337500003375000000000000000000001517000020550000003600000013000025150110000000000000000N
041995051011811799LANTEIRA                                                                                            008908900000000706000010000060200000602000000000000000000000326000004340000000500000007000005210070000000000000000N
041995051011811999LECRIN                                                                                              014714700000002450000050000209700002097000000000000000000000938000013570000001700000012000016710110000000000000000N
041995051011812099LENTEJI                                                                                             014014000000000380000010000029900000299000000000000000000000145000002250000000000000001000002590070000000000000000N
041995051011812299LOJA                                                                                                012212200000021729000300001544800015448000000000000000000005863000081050000012100000073000110210210000000000000000N
041995051011812399LUGROS                                                                                              008908900000000448000010000039200000392000000000000000000000171000002450000000100000001000002990070000000000000000N
041995051011812499LUJAR                                                                                               014014000000000613000010000045200000452000000000000000000000210000002800000000000000002000003600070000000000000000N
041995051011812699MALAHA (LA)                                                                                         008708700000001643000020000131700001317000000000000000000000777000009880000000200000000000011230090000000000000000N
041995051011812799MARACENA                                                                                            008708700000013855000170001064100010641000000000000000000004300000055020000013200000087000069180170000000000000000N
041995051011812899MARCHAL                                                                                             008908900000000485000010000037600000376000000000000000000000154000002280000000200000002000003190070000000000000000N
041995051011813299MOCLIN                                                                                              008708700000004887000060000377200003772000000000000000000001524000022050000003000000011000029420110000000000000000N
041995051011813399MOLVIZAR                                                                                            014014000000002711000020000223600002236000000000000000000001050000016570000000800000008000020710110000000000000000N
041995051011813499MONACHIL                                                                                            008708700000004871000050000382300003823000000000000000000001324000018690000004500000017000024000110000000000000000N
041995051011813599MONTEFRIO                                                                                           012212200000008180000090000580700005807000000000000000000002269000032730000002700000027000042800130000000000000000N
041995051011813699MONTEJICAR                                                                                          008708700000003023000030000221900002219000000000000000000000813000012320000001900000019000016040110000000000000000N
041995051011813799MONTILLANA                                                                                          008708700000001427000010000118200001182000000000000000000000445000006730000000600000004000009910090000000000000000N
041995051011813899MORALEDA DE ZAFAYONA                                                                                012212200000002677000030000209000002090000000000000000000000800000010980000001900000004000015300110000000000000000N
041995051011814099MOTRIL                                                                                              014014000000048984000550003597900035979000000000000000000012251000179800000021200000153000232050210000000000000000N
041995051011814199MURTAS                                                                                              014714700000001075000010000086000000860000000000000000000000259000004100000000600000004000005280090000000000000000N
041995051011814399NIGUELAS                                                                                            014714700000001211000010000100200001002000000000000000000000408000006420000001300000012000007840090000000000000000N
041995051011814499NIVAR                                                                                               008708700000000631000010000051200000512000000000000000000000222000003410000000100000000000004430070000000000000000N
041995051011814599OGIJARES                                                                                            008708700000006120000070000467300004673000000000000000000001881000026450000005000000022000031440130000000000000000N
041995051011814699ORCE                                                                                                002302300000001488000020000130000001300000000000000000000000632000007860000000300000010000009310090000000000000000N
041995051011814799ORGIVA                                                                                              014714700000005345000060000398300003983000000000000000000001605000021120000003600000027000027010130000000000000000N
041995051011814899OTIVAR                                                                                              014014000000001155000010000095200000952000000000000000000000374000005310000000000000000000007590090000000000000000N
041995051011814999OTURA                                                                                               008708700000003238000040000258800002588000000000000000000001147000016030000001700000004000019430110000000000000000N
041995051011815099PADUL                                                                                               008708700000006445000070000508900005089000000000000000000002285000031140000002400000020000037870130000000000000000N
041995051011815199PAMPANEIRA                                                                                          014714700000000356000010000026400000264000000000000000000000102000001590000000000000003000002290070000000000000000N
041995051011815299PEDRO-MARTINEZ                                                                                      008908900000001553000020000134000001340000000000000000000000590000007640000001300000004000009640090000000000000000N
041995051011815399PELIGROS                                                                                            008708700000006969000060000516700005167000000000000000000002320000029890000004500000026000036600130000000000000000N
041995051011815499PEZA (LA)                                                                                           008908900000001568000010000129000001290000000000000000000000519000008330000000100000007000009810090000000000000000N
041995051011815799PINOS-GENIL                                                                                         008708700000001133000010000084900000849000000000000000000000447000005790000000800000011000006910090000000000000000N
041995051011815899PINOS-PUENTE                                                                                        008708700000013878000130001035900010359000000000000000000004598000060730000007000000088000075200170000000000000000N
041995051011815999PIÑAR                                                                                               008708700000001527000020000117100001171000000000000000000000461000006710000000700000003000009390090000000000000000N
041995051011816199POLICAR                                                                                             008908900000000261000010000020800000208000000000000000000000101000001560000000000000000000001830070000000000000000N
041995051011816299POLOPOS                                                                                             014714700000001216000020000100600001006000000000000000000000368000005330000000100000004000007760090000000000000000N
041995051011816399PORTUGOS                                                                                            014714700000000469000010000079900000799000000000000000000000146000002480000000000000001000003490070000000000000000N
041995051011816499PUEBLA DE DON FADRIQUE                                                                              002302300000002677000040000210400002104000000000000000000000790000013550000000500000005000017350110000000000000000N
041995051011816599PULIANAS                                                                                            008708700000002898000030000225600002256000000000000000000001041000013550000003000000010000016160110000000000000000N
041995051011816799PURULLENA                                                                                           008908900000002634000030000194400001944000000000000000000000681000009670000001700000014000013960110000000000000000N
041995051011816899QUENTAR                                                                                             008708700000001166000010000090200000902000000000000000000000365000005220000000300000002000007310090000000000000000N
041995051011817099RUBITE                                                                                              014714700000000442000010000036500000365000000000000000000000181000002290000000100000005000003140070000000000000000N
041995051011817199SALAR                                                                                               012212200000002801000030000218700002187000000000000000000001002000012950000001700000020000018160110000000000000000N
041995051011817399SALOBREÑA                                                                                           014014000000009983000100000715700007157000000000000000000003027000044090000004800000042000053950130000000000000000N
041995051011817499SANTA CRUZ DEL COMERCIO                                                                             012212200000000592000010000048600000486000000000000000000000218000002180000000000000021000003810070000000000000000N
041995051011817599SANTA FE                                                                                            008708700000012608000130000975200009752000000000000000000003958000055320000006700000034000069740170000000000000000N
041995051011817699SOPORTUJAR                                                                                          014714700000000275000010000024000000240000000000000000000000082000001320000000300000000000002010070000000000000000N
041995051011817799SORVILAN                                                                                            014714700000000945000020000066100000661000000000000000000000248000003320000000500000005000004650070000000000000000N
041995051011817899TORRE-CARDELA                                                                                       008708700000001300000010000106300001063000000000000000000000359000006690000000400000016000008520090000000000000000N
041995051011817999TORVIZCON                                                                                           014714700000001126000010000090900000909000000000000000000000328000005300000000600000007000007120090000000000000000N
041995051011818099TREVELEZ                                                                                            014714700000000820000010000065500000655000000000000000000000229000003330000000300000004000005020070000000000000000N
041995051011818199TURON                                                                                               014714700000000428000010000034600000346000000000000000000000157000002070000000100000002000002700070000000000000000N
041995051011818299UGIJAR                                                                                              014714700000003012000040000237500002375000000000000000000000884000013050000001500000011000016860110000000000000000N
041995051011818399VALOR                                                                                               014714700000001135000010000091100000911000000000000000000000303000004900000000300000009000006650090000000000000000N
041995051011818499VELEZ DE BENAUDALLA                                                                                 014014000000002556000020000205400002054000000000000000000000925000013340000000300000017000016350110000000000000000N
041995051011818599VENTAS DE HUELMA                                                                                    012212200000000697000010000059200000592000000000000000000000323000004400000000000000001000005130070000000000000000N
041995051011818799VILLANUEVA DE LAS TORRES                                                                            008908900000001069000010000076600000766000000000000000000000285000003940000000300000005000005290090000000000000000N
041995051011818899VILLANUEVA MESIA                                                                                    012212200000001955000020000149000001490000000000000000000000671000009790000000800000003000012330090000000000000000N
041995051011818999VIZNAR                                                                                              008708700000000816000010000060400000604000000000000000000000265000003990000000000000002000005090070000000000000000N
041995051011819299ZAFARRAYA                                                                                           012212200000002233000030000183000001830000000000000000000000618000011540000002300000020000014030110000000000000000N
041995051011819399ZUBIA (LA)                                                                                          008708700000010233000110000789400007894000000000000000000003099000043310000004600000027000053470170000000000000000N
041995051011819499ZUJAR                                                                                               002302300000003062000030000244000002440000000000000000000000831000013200000000500000013000017930110000000000000000N
041995051011890199TAHA (LA)                                                                                           014714700000000981000010000076500000765000000000000000000000259000003470000000300000010000005520070000000000000000N
041995051011890299VALLE (EL)                                                                                          014714700000001494000030000126300001263000000000000000000000578000007950000000200000015000009460090000000000000000N
041995051011890399NEVADA                                                                                              014714700000001503000030000125400001254000000000000000000000435000006940000001400000014000008510090000000000000000N
041995051011890499ALPUJARRA DE LA SIERRA                                                                              014714700000001299000020000109600001096000000000000000000000443000006120000000800000005000007870090000000000000000N
041995051011890599GABIAS (LAS)                                                                                        008708700000006627000070000519200005192000000000000000000002282000029950000002800000006000037270130000000000000000N
041995051011890699GUAJARES (LOS)                                                                                      014014000000001491000030000127300001273000000000000000000000529000007860000001800000003000010140090000000000000000N
041995051011890799VALLE DEL ZALABI                                                                                    008908900000002530000040000205100002051000000000000000000000826000013220000001400000025000017120110000000000000000N
041995051011890899VILLAMENA                                                                                           014714700000001032000020000085400000854000000000000000000000415000005940000000700000009000007090090000000000000000N
041995051011890999MORELABOR                                                                                           008708700000001027000010000082500000825000000000000000000000350000004920000000400000015000006890090000000000000000N
041995051011891099PINAR (EL)                                                                                          014714700000001308000020000107500001075000000000000000000000375000005970000000800000016000007600090000000000000000N
041995051011891199VEGAS DEL GENIL                                                                                     008708700000002683000040000224000002240000000000000000000000943000013470000001500000016000017010110000000000000000N
041995051011891299CUEVAS DEL CAMPO                                                                                    002302300000002409000030000192500001925000000000000000000000750000010210000000400000014000013490110000000000000000N
041995051011891399ZAGRA                                                                                               012212200000001264000020000105100001051000000000000000000000435000005570000001400000010000007810090000000000000000N
041995051012100199ALAJAR                                                                                              000700700000000861000010000064500000645000000000000000000000306000004040000000700000000000005020070000000000000000N
041995051012100299ALJARAQUE                                                                                           004104100000007565000060000569100005691000000000000000000001890000027400000005200000018000038730130000000000000000N
041995051012100399ALMENDRO (EL)                                                                                       001001000000000867000010000068600000686000000000000000000000275000003860000000100000000000005240070000000000000000N
041995051012100499ALMONASTER LA REAL                                                                                  000700700000002145000040000171700001717000000000000000000000630000008580000001200000010000011840110000000000000000N
041995051012100599ALMONTE                                                                                             005405400000017107000160001242700012427000000000000000000004509000061030000006000000032000078970170000000000000000N
041995051012100699ALOSNO                                                                                              007207200000004965000060000396900003969000000000000000000001795000024120000001800000030000030100110000000000000000N
041995051012100799ARACENA                                                                                             000700700000006746000060000511600005116000000000000000000002273000029580000002800000011000037680130000000000000000N
041995051012100899AROCHE                                                                                              000700700000003633000040000367600003676000000000000000000001199000015170000000800000005000020640110000000000000000N
041995051012100999ARROYOMOLINOS DE LEON                                                                               000700700000001227000020000097000000970000000000000000000000457000005710000001800000004000007070090000000000000000N
041995051012101099AYAMONTE                                                                                            001001000000015796000180001183400011834000000000000000000003576000051000000008300000032000067110170000000000000000N
041995051012101199BEAS                                                                                                004104100000004081000040000320400003204000000000000000000001513000020140000001500000006000025980110000000000000000N
041995051012101299BERROCAL                                                                                            007207200000000419000010000035200000352000000000000000000000195000002590000000100000000000003000070000000000000000N
041995051012101399BOLLULLOS PAR DEL CONDADO                                                                           005405400000012824000120001006200010062000000000000000000003642000054550000005400000017000067690170000000000000000N
041995051012101499BONARES                                                                                             005005000000005011000050000382700003827000000000000000000001627000022460000002100000008000031210130000000000000000N
041995051012101599CABEZAS RUBIAS                                                                                      007207200000000967000010000072500000725000000000000000000000270000003750000000100000000000004570070000000000000000N
041995051012101699CALA                                                                                                000700700000001530000020000119300001193000000000000000000000525000007520000003900000020000009130090000000000000000N
041995051012101799CALAÑAS                                                                                             007207200000005043000060000404800004048000000000000000000001646000021810000004000000038000028750130000000000000000N
041995051012101899CAMPILLO (EL)                                                                                       007207200000002621000030000199800001998000000000000000000000927000012240000000300000014000015350110000000000000000N
041995051012101999CAMPOFRIO                                                                                           000700700000000898000010000072400000724000000000000000000000303000004380000000300000001000005840070000000000000000N
041995051012102099CAÑAVERAL DE LEON                                                                                   000700700000000575000010000045400000454000000000000000000000224000002760000000500000001000003020070000000000000000N
041995051012102199CARTAYA                                                                                             004104100000011002000100000825600008256000000000000000000002994000041700000006000000031000055320170000000000000000N
041995051012102399CERRO DE ANDEVALO (EL)                                                                              007207200000002889000040000233800002338000000000000000000001034000013030000001700000006000016680110000000000000000N
041995051012102499CORTECONCEPCION                                                                                     000700700000000689000010000056400000564000000000000000000000303000003710000000900000001000004240070000000000000000N
041995051012102599CORTEGANA                                                                                           000700700000005302000070000410900004109000000000000000000001636000021830000002100000014000028660130000000000000000N
041995051012102699CORTELAZOR                                                                                          000700700000000320000010000027800000278000000000000000000000173000002020000000100000001000002400070000000000000000N
041995051012102899CUMBRES DE SAN BARTOLOME                                                                            000700700000000615000010000054000000540000000000000000000000297000003720000000300000011000004270070000000000000000N
041995051012102999CUMBRES MAYORES                                                                                     000700700000002271000020000181100001811000000000000000000000741000010590000006300000032000012440110000000000000000N
041995051012103099CHUCENA                                                                                             005405400000001962000020000151500001515000000000000000000000774000010850000001800000007000013210090000000000000000N
041995051012103199ENCINASOLA                                                                                          000700700000001970000030000182400001824000000000000000000000760000010220000001700000018000012850090000000000000000N
041995051012103299ESCACENA DEL CAMPO                                                                                  005405400000002243000020000171900001719000000000000000000000766000010930000001400000010000013730110000000000000000N
041995051012103399FUENTEHERIDOS                                                                                       000700700000000677000010000052200000522000000000000000000000238000003140000000200000005000004020070000000000000000N
041995051012103499GALAROZA                                                                                            000700700000001657000020000130500001305000000000000000000000643000008360000000400000006000010040090000000000000000N
041995051012103599GIBRALEON                                                                                           004104100000010150000090000759200007592000000000000000000003493000045880000002700000016000061680170000000000000000N
041995051012103799GRANADO (EL)                                                                                        001001000000000691000010000055100000551000000000000000000000251000003680000000200000006000004340070000000000000000N
041995051012103899HIGUERA DE LA SIERRA                                                                                000700700000001295000010000103700001037000000000000000000000468000006400000000500000002000007890090000000000000000N
041995051012103999HINOJALES                                                                                           000700700000000469000010000035700000357000000000000000000000202000002380000000000000002000002710070000000000000000N
041995051012104099HINOJOS                                                                                             005405400000003429000040000269600002696000000000000000000001504000018570000005000000019000021610110000000000000000N
041995051012104199HUELVA                                                                                              004104100000145049001400011258300112583000000000000000000037168000487170000073900000173000651310270000000000000000N
041995051012104299ISLA CRISTINA                                                                                       001001000000017729000180001356100013561000000000000000000003402000052440000010100000024000072880170000000000000000N
041995051012104399JABUGO                                                                                              000700700000002618000030000199600001996000000000000000000000832000011260000001100000009000014300110000000000000000N
041995051012104499LEPE                                                                                                001001000000017185000160001246600012466000000000000000000004116000058820000005000000014000075630170000000000000000N
041995051012104599LINARES DE LA SIERRA                                                                                000700700000000293000010000024000000240000000000000000000000147000001860000000000000000000002240070000000000000000N
041995051012104699LUCENA DEL PUERTO                                                                                   005005000000002116000020000156800001568000000000000000000000593000009720000000300000007000013040110000000000000000N
041995051012104799MANZANILLA                                                                                          005405400000002590000030000202300002023000000000000000000000891000013810000001600000008000017470110000000000000000N
041995051012104899MARINES (LOS)                                                                                       000700700000000360000010000027200000272000000000000000000000195000002240000000100000000000002370070000000000000000N
041995051012104999MINAS DE RIOTINTO                                                                                   007207200000005393000070000444300004443000000000000000000001635000021650000005800000030000027620130000000000000000N
041995051012105099MOGUER                                                                                              005005000000012986000120000940900009409000000000000000000002995000043340000005600000022000061220170000000000000000N
041995051012105199NAVA (LA)                                                                                           000700700000000340000010000027300000273000000000000000000000116000001640000000100000004000002200070000000000000000N
041995051012105299NERVA                                                                                               007207200000007004000080000541000005410000000000000000000002497000031830000003300000018000038790130000000000000000N
041995051012105399NIEBLA                                                                                              005005000000003858000040000302500003025000000000000000000000999000019340000000900000008000024450110000000000000000N
041995051012105499PALMA DEL CONDADO (LA)                                                                              005405400000009635000100000730000007300000000000000000000003158000044000000009200000087000053790130000000000000000N
041995051012105599PALOS DE LA FRONTERA                                                                                005005000000006945000080000503100005031000000000000000000001590000022820000003800000005000033880130000000000000000N
041995051012105699PATERNA DEL CAMPO                                                                                   005405400000003895000040000303600003036000000000000000000001239000016280000005600000106000019430110000000000000000N
