0819950510837120ENCINA DE SAN SILVESTRE                                                                             2742740001280111111100000003405900000109005N
0819950510837151GOLPEJAS                                                                                            2742740002330117617600000008613700500814605N
0819950510837214NAVA DE FRANCIA                                                                                     0460460001680112712700000006508700000509405N
0819950510837215NAVA DE SOTROBAL                                                                                    2462460002370121221200000009813300400316805N
0819950510847169TORRE DE ESGUEVA                                                                                    1861860001250111511500000006207700000009005N
0819950510837238PEDROSILLO EL RALO                                                                                  2742740001470112512500000005808400200210605N
0819950510847143SAN LLORENTE                                                                                        1861860002310120320300000009414002502210404N
0819950510847147SAN PABLO DE LA MORALEJA                                                                            0850850001970116716700000006011900200813305N
0819950510847152SANTA EUFEMIA DEL ARROYO                                                                            0860860001490112112100000006708300200009705N
0819950510847154SANTIBAÑEZ DE VALCORBA                                                                              1861860002280118218200000006512400000316805N
0819950510847172TORRESCARCELA                                                                                       1861860001870216516500000007410701401110803N
0819950510847187VEGA DE RUIPONCE                                                                                    0860860001790115115100000009911600200411905N
0819950510842064CIRIA                                                                                               1731730001060109209200000005306500000007605N
0919950510847211VILLALBA DE LA LOMA                                                                                 0860860000560104404400000002102500800002201N
0819950510842008ALCUBILLA DE LAS PEÑAS                                                                              0200200001090109409400000003705400300107105N
0819950510842009ALDEALAFUENTE                                                                                       1731730001690313913900000003906601900208605N
0819950510842024ARANCON                                                                                             1731730001310110610600000004405200500006305N
0819950510847225VILLASEXMIR                                                                                         1861860001390111111100000002307400100009205N
0819950510849005ALFARAZ DE SAYAGO                                                                                   2752750002420121221200000008615800300614905N
0819950510849030BUSTILLO DEL ORO                                                                                    2192190001980116216200000007710800400511305N
0919950510842042BUITRAGO                                                                                            1731730000590105005000000001302100400002501N
0919950510842050CAÑAMAQUE                                                                                           0200200000570105205200000000902300300002301N
0919950510842082ESTEPA DE SAN JUAN                                                                                  1731730000160101601600000000801200000101401N
0819950510842075DEVANOS                                                                                             1731730001690115715700000009812400400212905N
0819950510842090FUENTEPINILLA                                                                                       0200200001760316316300000006510601700010805N
0919950510840019ARAHUETES                                                                                           1951950000540103403400000001602000100002501N
0819950510840125MATILLA (LA)                                                                                        1951950001310111111100000002204800800006104N
0819950510840143NAVARES DE ENMEDIO                                                                                  1951950001900116916900000007610702000809904N
0819950510837319TEJADO (EL)                                                                                         0460460002160119319300000009212600100314505N
0819950510837321TENEBRON                                                                                            1071070002350121621600000010316800000318505N
0819950510837378ZAMARRA                                                                                             1071070001760216216200000003409100302607705N
0819950510849047CERECINOS DEL CARRIZAL                                                                              2752750001770116316300000007610800300311805N
0819950510849059CUELGAMURES                                                                                         2752750001570113513500000006010300100411705N
0819950510908249SANTA FE DEL PENEDES                                                                                3053050002210117317300000010013400200016205N
0819950511006110REINA                                                                                               0740740002480121021000000011514200701316105N
0819950510943174VILELLA BAIXA (LA)                                                                                  1231230001600114614600000006108300500109905N
0819950510840013ALDEASOÑA                                                                                           0630630001600114014000000005709800100411305N
0819950510840054CEREZO DE ARRIBA                                                                                    1951950002120117517500000007710500100312705N
0919950510840055CILLERUELO DE SAN MAMES                                                                             1701700000640105305300000003303600100004801N
0919950510840062CUBILLO                                                                                             1941940000750106506500000003103301300003201N
0919950510840104ITUERO Y LAMA                                                                                       1851850000600105305300000001502800000304301N
0919950510840127MEMBIBRE DE LA HOZ                                                                                  0630630000960109509500000003806103000702901N
0819950510840092FUENTIDUEÑA                                                                                         0630630002130118518500000012413300200116605N
0819950510840099HONRUBIA DE LA CUESTA                                                                               1701700001030108308300000004705800400705305N
0819950510840101HONTANARES DE ERESMA                                                                                1941940001450111811800000005008400200110305N
0819950510840108LAGUNA DE CONTRERAS                                                                                 0630630002000219519500000006008402100309205N
0819950510925202SENTERADA                                                                                           2342340001120110210200000003005100100007205N
0819950510925221TIRVIA                                                                                              2092090001160111411400000002305100000007605N
0919950510837309SIERPE (LA)                                                                                         2742740000610105305300000001702900300603201N
0919950510840002ADRADA DE PIRON                                                                                     1941940000510104504500000001203100600102801N
0819950510849165PRADO                                                                                               2502500001280110910900000004808000300108905N
0819950510849168QUINTANILLA DEL MONTE                                                                               2502500001670113713700000007609701100309205N
0819950510849183SALCE                                                                                               2752750001710115115100000006911900100113005N
0819950511010028BERROCALEJO                                                                                         1311310001430114114100000008108100000109905N
0819950511010031BOTIJA                                                                                              0370370001980116816800000008211101200510305N
0819950510908195SANT AGUSTI DE LLUCANES                                                                             2982980001080108808800000002505100000206705N
0819950510908255SANTA MARIA DE MERLES                                                                               0220220001910115615600000003706400000008505N
0819950510805252VALDECASA                                                                                           0190190001330111311300000003106500000008705N
0819950510805266ZAPARDIEL DE LA CAÑADA                                                                              1861860002220119119100000010413800700714105N
0819950510805267ZAPARDIEL DE LA RIBERA                                                                              1861860001590114914900000005207101400107505N
0919950510809247PALACIOS DE RIOPISUERGA                                                                             0590590000420103903900000002102400100202801N
0819950510908271SOBREMUNT                                                                                           2982980001000107007000000002504100000004405N
0819950510917106MOLLET DE PERALADA                                                                                  0660660001840116716700000007310100500111105N
0819950510925057BORDES (ES)                                                                                         2432430002060118218200000008010900300013605N
0819950510805035BLASCOSANCHO                                                                                        0160160001680115615600000007611702001010805N
0919950510809010ALCOCERO DE MOLA                                                                                    0590590000630106606600000004805100400505201N
0919950510809013ALTABLE                                                                                             2192190000740106706700000001803201201401901N
0819950510809019ARANDILLA                                                                                           0180180002210119819800000008610501500510205N
0819950510809029ATAPUERCA                                                                                           0590590001480216016000000000000001700206605N
0819950510809030AUSINES (LOS)                                                                                       0590590001240213113100000007009200100210305N
0819950510809050BERBERANA                                                                                           9039030001000109409400000003605100700005105N
0819950510809065CAMPILLO DE ARANDA                                                                                  0180180001870118818800000006211500200715405N
0919950510809078CASCAJARES DE LA SIERRA                                                                             3303300000170102302300000000801000000001501N
0919950510809119CUEVAS DE SAN CLEMENTE                                                                              1941940000640106706700000003404600100204901N
0919950510809123ESPINOSA DEL CAMINO                                                                                 0590590000580105405400000002503000600103201N
0919950510908277TALAMANCA                                                                                           1131130000930108408400000003504300300005601N
0819950510917029BOADELLA D'EMPORDA                                                                                  0660660002220119519500000008611800400215305N
0819950510917080GOMBREN                                                                                             1411410002470121821800000011617000200218605N
0819950510805063COLLADO DEL MIRON                                                                                   1861860001150110610600000005906300000306905N
0819950510805080GALLEGOS DE SOBRINOS                                                                                1861860001190111211200000005005501102203901N
0819950510805087GOTARRENDURA                                                                                        0190190001990117417400000010812700800912705N
0819950510805107HURTUMPASCUAL                                                                                       1861860001510113513500000004307700100208805N
0819950510805108JUNCIANA                                                                                            1861860001070110010000000007407800100108705N
0819950510805149NARROS DE SALDUEÑA                                                                                  0160160002390119419400000010914600400714905N
0919950510805188POVEDA                                                                                              1861860000990109409400000004807700100308301N
0919950510805206SAN ESTEBAN DE LOS PATOS                                                                            0190190000380104804800000003503800400303801N
0819950510805224SANTA MARIA DEL ARROYO                                                                              0190190001550112712700000007109300200209905N
0819950510805170NAVATEJARES                                                                                         1861860001170112012000000006607801000108205N
0819950510805198SALVADIOS                                                                                           0160160001430111411400000003608800300109505N
0819950510805222SANTA CRUZ DE PINARES                                                                               0190190002470120520500000011114500400415305N
0819950510805243TOLBAÑOS                                                                                            0190190001650114614600000006708800301108505N
0819950510805259VILLANUEVA DEL ACERAL                                                                               0160160002390118818800000007314400300017005N
0819950510809006AGUAS CANDIDAS                                                                                      0560560001040109609600000003905500100307605N
0919950510809021ARAUZO DE SALCE                                                                                     3303300000820107507500000001702600000003701N
0819950510809037BARBADILLO DE HERREROS                                                                              3303300001540113513500000004106203000705505N
0919950510809044BARRIOS DE COLINA                                                                                   0590590000890106106100000002903900100005501N
0919950510809047BELBIMBRE                                                                                           0590590000870106706700000001603300800004301N
0919950510809075CARDEÑUELA-RIOPICO                                                                                  0590590000800107707700000004505800300106601N
0919950510809183JARAMILLO DE LA FUENTE                                                                              3303300000330103603600000001902200300102301N
0819950510809266PINEDA DE LA SIERRA                                                                                 0590590001220111311300000005608600300209605N
0819950510809122ESPINOSA DE CERVERA                                                                                 3303300001200112212200000002407601500407805N
0819950510809128FRANDOVINEZ                                                                                         0590590001000108108100000001803500800503605N
0819950510809160HONTANGAS                                                                                           0180180001620115715700000005208600800907805N
0819950510809232NEILA                                                                                               3303300002430122822800000012117500400820305N
0819950510809243PADILLA DE ARRIBA                                                                                   0590590001490114314300000006309000000211005N
0819950510805113LLANOS DE TORMES (LOS)                                                                              1861860001640115715700000009412400100213105N
0819950510805118MANCERA DE ARRIBA                                                                                   1861860001770116216200000010411700000513105N
0919950510809273PRADANOS DE BUREBA                                                                                  0560560000830107807800000005106800200007101N
0819950510809287QUINTANAORTUÑO                                                                                      0590590001150110110100000004706102600504205N
0819950510809326RUBENA                                                                                              0590590001510113013000000006809300800609705N
0819950510809366SOLARANA                                                                                            1941940001300112312300000002905801900505005N
0919950510809378TEJADA                                                                                              1941940000560105805800000002903300000203701N
0819950510809380TERRADILLOS DE ESGUEVA                                                                              0180180001410111811800000006908000700707305N
0919950510809454VILLANUEVA DE TEBA                                                                                  2192190000760107907900000002803800400004501N
0819950510809458VILLARIEZO                                                                                          0590590001550113813800000004107500700709705N
0919950510809001ABAJAS                                                                                              0560560000510104704700000000302101100101101N
0819950510809054BOZOO                                                                                               2192190001070109709700000003803800000008005N
0919950510809062CABEZON DE LA SIERRA                                                                                3303300000870107807800000002605000101204701N
0819950510809088CASTRILLO DE RIOPISUERGA                                                                            0590590001010209009000000006307400100607005N
0819950510809101CIADONCHA                                                                                           1941940001440113013000000003208000200107905N
0919950510809104CILLERUELO DE ARRIBA                                                                                1941940000930108308300000004406103400402801N
0919950510809120ENCIO                                                                                               2192190000660105505500000002002701300003001N
0819950510809135FUENTEBUREBA                                                                                        0560560001010209709700000003404102200203804N
0919950510809144GALLEGA (LA)                                                                                        3303300000930108408400000002505400800306001N
0919950510809149GRISALEÑA                                                                                           0560560000600106106100000003004000000004501N
0919950510809191JURISDICCION DE LARA                                                                                3303300000750107807800000003305200000006301N
0819950510809196MADRIGAL DEL MONTE                                                                                  1941940001800218118100000008414000600914505N
0819950510809225MONCALVILLO                                                                                         3303300001460115915900000000000000300306205N
0919950510809230NAVAS DE BUREBA                                                                                     0560560000490104904900000001702800000004401N
0819950510809242PADILLA DE ABAJO                                                                                    0590590001200111211200000005707600800507605N
0919950510809265PIERNIGAS                                                                                           0560560000430104504500000001502000200102801N
0819950510809276PUEBLA DE ARGANZON (LA)                                                                             2192190002350127627600000019121500601422005N
0819950510809277PUENTEDURA                                                                                          1941940001400112512500000007109300100309705N
0919950510809292QUINTANAVIDES                                                                                       0560560000820107307300000000000001900502301N
0819950510809162HONTORIA DE LA CANTERA                                                                              0590590001060111211200000002206700100008405N
0919950510809167HORNILLOS DEL CAMINO                                                                                0590590000800107307300000002303700700303201N
0819950510809197MADRIGALEJO DEL MONTE                                                                               1941940001810216016000000006610900300213305N
0819950510809199MAMBRILLA DE CASTREJON                                                                              0180180001780114914900000006208302100606805N
0919950510809206MAZUELA                                                                                             1941940000910108808800000004205000200106301N
0819950510809220MIRAVECHE                                                                                           2192190001240113113100000004507000602106305N
0819950510809224MONASTERIO DE RODILLA                                                                               0560560002150118818800000005609701300011605N
0919950510809226MONTERRUBIO DE DEMANDA                                                                              3303300000950109109100000002706002100205101N
0819950510809257PEDROSA DEL PARAMO                                                                                  0590590001230110410400000002706001300106605N
0819950511626098MUNILLA                                                                                             0360360001430114514500000005407600900309105N
0919950511626100MURO DE AGUAS                                                                                       0360360000730105905900000001903200000004901N
0919950511626115PINILLOS                                                                                            0890890000320102902900000001601800000002701N
0819950511703060CUATRETONDETA                                                                                       0090090001920117017000000010212600000714605N
0819950510809298QUINTANILLA SAN GARCIA                                                                              0560560001350112512500000004007700500608805N
0819950510809398URBEL DEL CASTILLO                                                                                  0590590001120109109100000002804300800404505N
0819950510809405VALDEZATE                                                                                           0180180002360120720700000008413701300614605N
0819950510809409VALLE DE MANZANEDO                                                                                  9039030001330213013000000006807900200109905N
0819950511712024BENAFER                                                                                             1401400001310112412400000006708800700209205N
0819950510805144NARRILLOS DEL ALAMO                                                                                 1861860001820117117100000008312100100214705N
0819950510805172NIHARRA                                                                                             0190190002170117917900000004611000600514305N
0919950510805190POZANCO                                                                                             0190190000660105905900000003404200900103601N
0819950510805192PUERTO CASTILLA                                                                                     1861860001590114414400000006008800500210105N
0819950510805197SALOBRAL                                                                                            0190190001360111411400000003809000100609705N
0819950510805199SAN BARTOLOME DE BEJAR                                                                              1861860001020109609600000005506301000106205N
0819950510805200SAN BARTOLOME DE CORNEJA                                                                            1861860001380113313300000002408800600008705N
0819950510805230SANTO TOME DE ZABARCOS                                                                              0190190001320111511500000005108300500309505N
0819950510805231SAN VICENTE DE AREVALO                                                                              0160160002490119319300000008512700400714705N
0819950510805232SERRADA (LA)                                                                                        0190190001470112912900000008310400200311105N
0919950510805234SIGERES                                                                                             0190190000910107207200000002804500800504601N
0819950510809011ALFOZ DE BRICIA                                                                                     9039030001430212712700000005807100000009505N
0819950510809022ARAUZO DE TORRE                                                                                     3303300001190111311300000005107000500807105N
0819950510719166MALAGA DEL FRESNO                                                                                   1301300002290119819800000011316100000017605N
0919950511712064FUENTES DE AYODAR                                                                                   0720720000860108708700000004705800000206501N
0919950510719147HUERMECES DEL CERRO                                                                                 2572570000690106706700000002904900200005501N
0919950510719153INIESTOLA                                                                                           2572570000280102002000000001001100000001801N
0919950510719178MEGINA                                                                                              1901900000890108408400000004205500100006401N
0919950510719182MIERLA (LA)                                                                                         1301300000350102102100000000701200000002001N
0819950510719196MUDUEX                                                                                              1301300001370111211200000005308600100209705N
0919950510719199OCENTEJO                                                                                            1301300000450104504500000002403300000004201N
0819950511401019CRIPAN                                                                                              0590590001980117717700000003909000100512405N
0919950511228020BERZOSA DEL LOZOYA                                                                                  0450450000890109809800000005307300100108201N
0919950511228071HORCAJUELO DE LA SIERRA                                                                             0450450000830107307300000002205200400205601N
0919950511228078MADARCOS                                                                                            0450450000300102702700000001402000100002201N
0919950511331075CIRIZA                                                                                              2012010000600104904900000001202000500001901N
0819950511331112GARAIOA                                                                                             0190190001440112012000000004405001000107905N
0819950511331118GOÑI                                                                                                0970970002080118618600000005308300000208304N
0919950511331146LEACHE                                                                                              0190190000620105505500000001602700300003801N
0819950511331151LERGA                                                                                               0190190001020109409400000005405802500204105N
0819950511331160LUQUIN                                                                                              0970970001380112012000000004507002300106705N
0919950511331196ORBARA                                                                                              0190190000650106006000000000000000300002501N
0819950511331197ORISOAIN                                                                                            2272270001070108608600000003303901600304305N
0819950511331219SANSOL                                                                                              0970970001440112912900000006808900200210605N
0919950511712088PAVIAS                                                                                              1401400000620105605600000002203300500103701N
0919950511228016ATAZAR (EL)                                                                                         0450450000920109409400000003306200700206401N
0819950511228064GASCONES                                                                                            0450450001100109009000000001505100300008005N
0819950511228070HORCAJO DE LA SIERRA                                                                                0450450001170111211200000006907800100208505N
0919950511626048CIDAMON                                                                                             0710710000840107607600000002303800100205601N
0819950511626050CIRUEÑA                                                                                             0710710001340113213200000005707500000111605N
0919950511626065GALBARRULI                                                                                          0710710000640105305300000001002700100104001N
0919950511626067GALLINERO DE CAMEROS                                                                                0890890000270102702700000001601600000002301N
0919950511626086LEDESMA DE LA COGOLLA                                                                               0890890000190102002000000001901900300101501N
0919950511626088LEZA DE RIO LEZA                                                                                    0890890000440104904900000001702600000003601N
0819950511626114PEDROSO                                                                                             0890890001140109709700000004307800000109105N
0819950511626169VILLANUEVA DE CAMEROS                                                                               0890890001320113213200000005707702700407604N
0919950511626173VILLARROYA                                                                                          0360360000100100900900000000100300000000701N
0819950511703007ALCOCER DE PLANES                                                                                   0090090001310111211200000005807700200009805N
0819950511703027BENIARDA                                                                                            1391390002310119719700000013215600100118505N
0819950511703039BENIMASOT                                                                                           0090090001130111011000000004406100000009505N
0819950511331265ZUÑIGA                                                                                              0970970001270113113100000006709800600210905N
0819950510842116MIÑO DE SAN ESTEBAN                                                                                 0430430001160110710700000004606500400307305N
0919950510842124MURIEL DE LA FUENTE                                                                                 0430430000890108908900000002804400300006101N
0819950510842131NOLAY                                                                                               0200200001030109509500000001205000500006205N
0819950510842145QUINTANAS DE GORMAZ                                                                                 0430430002110118318300000009312007001305401N
0819950511228121REDUEÑA                                                                                             0450450001420111911900000005608500200010105N
0819950511331095ESPARZA                                                                                             0190190001230112312300000004506100700906805N
0819950511228117PRADENA DEL RINCON                                                                                  0450450001120109509500000005507800200107905N
0819950511626123REDAL (EL)                                                                                          0360360002360121021000000008714900700217405N
0819950511626139SAN TORCUATO                                                                                        0710710001360111611600000007709600000210205N
0919950510842157RIBA DE ESCALOTE (LA)                                                                               0200200000400103703700000002002500900001701N
0919950510842175SUELLACABRAS                                                                                        1731730000490104704700000002503000600203001N
0919950510842192VALDEGEÑA                                                                                           1731730000600105605600000001503002100001901N
0919950510842193VALDELAGUA DEL CERRO                                                                                1731730000420104104100000001902000300002101N
0819950510847074HORNILLOS                                                                                           0850850001480113213200000007109000700810205N
0819950510847096MORALES DE CAMPOS                                                                                   0860860002230117917900000007512700200514305N
0819950511331233TULEBRAS                                                                                            2322320001160109909900000004105300400007405N
0919950511331253VIDAURRETA                                                                                          2012010000980109609600000002502600300205001N
0819950511331255VILLAMAYOR DE MONJARDIN                                                                             0970970001180109809800000002303900000004505N
0819950511401021ELBURGO                                                                                             0590590002100117617600000004808301401108605N
0819950511401060YECORA                                                                                              0590590002420121421400000010013400200318005N
0819950511420031ELDUAIN                                                                                             0710710002400122322300000011416200200119105N
0819950510840109LANGUILLA                                                                                           1701700001560115215200000009410400400710605N
0919950510840118MARAZUELA                                                                                           1851850000950108508500000004605403400003301N
0819950510840119MARTIN MIGUEL                                                                                       1941940002020118118100000007611901300612805N
0819950510840123MATABUENA                                                                                           1951950002230119219200000008912602902809105N
0819950510840160PINARNEGRILLO                                                                                       0630630002090117917900000006007600600713005N
0919950510840190SANTO DOMINGO DE PIRON                                                                              1941940000500102802800000003304500000005101N
0919950510840157PELAYOS DEL ARROYO                                                                                  1941940000460104304300000001802400200102501N
0919950510840158PEROSILLO                                                                                           0630630000380103303300000001902300200002801N
0919950510840163PUEBLA DE PEDRAZA                                                                                   1951950000940109309300000003406200300108201N
0819950510840213VALDEVACAS Y GUIJAR                                                                                 1941940001650113213200000007610302600408505N
0919950510842046CALATAÑAZOR                                                                                         1731730000760307507500000002703700200005001N
0819950510842048CALTOJAR                                                                                            0200200001650115915900000005106800800208305N
0919950510842056CASTILFRIO DE LA SIERRA                                                                             1731730000380102802800000000401100000002601N
0919950510842079ESCOBOSA DE ALMAZAN                                                                                 0200200000500104304300000000802500800201701N
0819950510842081ESPEJON                                                                                             0430430002360121921900000010315900300218105N
0919950510842087FUENTECANTOS                                                                                        1731730000510104604600000001802600700102301N
0919950510842105LICERAS                                                                                             0430430000740106406400000002405300000006101N
0919950510842106LOSILLA (LA)                                                                                        1731730000220102202200000000700800600000401N
0919950510842139PINILLA DEL CAMPO                                                                                   1731730000300102702700000000901200000101901N
0819950510842141POVEDA DE SORIA (LA)                                                                                1731730001370112712700000005406900500707105N
0919950510842153RELLO                                                                                               0200200000490104404400000002102300200102501N
0819950510842161SALDUERO                                                                                            1731730002130119219200000009511602100810404N
0819950510842168SANTA MARIA DE LAS HOYAS                                                                            0430430002310120920900000008112200300215105N
0919950510842172SOLIEDRA                                                                                            0200200000480204204200000002002700000003701N
0919950510842182TARODA                                                                                              0200200000900108708700000003604500600104301N
0919950510842202VELILLA DE LOS AJOS                                                                                 0200200000530104704700000000802900200103401N
0819950510847013BARCIAL DE LA LOMA                                                                                  0860860001810115515500000007810400200011805N
0919950510847014BARRUELO                                                                                            1861860000810107407400000002506100500106601N
0819950510847016BENAFARCES                                                                                          0860860001030108408400000004405700000206405N
0819950510847032CAMPORREDONDO                                                                                       1861860002390120920900000010713801400014605N
0819950510847040CASTROBOL                                                                                           0860860001000109009000000005706800100107805N
0819950510842014ALDEHUELAS (LAS)                                                                                    1731730001550114314300000005807100401106305N
0919950510842015ALENTISQUE                                                                                          0200200000570205305300000001102800000003701N
0919950510847106OLMOS DE PEÑAFIEL                                                                                   1861860000930108508500000002905400300005501N
0919950510847126PURAS                                                                                               0850850000680105805800000003103900700104301N
0919950510847137ROTURAS                                                                                             1861860000280102702700000001001600300002001N
0819950510847153SANTERVAS DE CAMPOS                                                                                 0860860001900118518500000008411100601310105N
0819950510847162TAMARIZ DE CAMPOS                                                                                   0860860001170109909900000004706700100008505N
0919950510847168TORRECILLA DE LA TORRE                                                                              1861860000470103903900000001002500000003701N
0819950510847200VILLACO                                                                                             1861860001610113813800000005909501900209105N
0919950510842140PORTILLO DE SORIA                                                                                   1731730000250102102100000000200600000001201N
0919950510842159ROLLAMIENTA                                                                                         1731730000590105505500000002904000100104401N
0819950510842177TAJUECO                                                                                             0200200001480114014000000007710400200510905N
0919950510842201VELILLA DE LA SIERRA                                                                                1731730000200101901900000000800800000001401N
0819950510842212VILLASAYAS                                                                                          0200200001220110310300000000000000100002805N
0919950510842217VOZMEDIANO                                                                                          1731730000650106206200000003004400100005401N
0819950510847012BAHABON                                                                                             1861860002470120820800000008713402001711605N
0819950510847021BOCIGAS                                                                                             0850850001740112612600000005007300100010105N
0819950510847034CANILLAS DE ESGUEVA                                                                                 1861860001610113313300000007108201600607605N
0919950510847068FUENTE-OLMEDO                                                                                       0850850000650106106100000002803601000103801N
0919950510847070GATON DE CAMPOS                                                                                     0860860000660105405400000001502800600004101N
0919950510847080MANZANILLO                                                                                          1861860000700105605600000001902600200003301N
0919950510847081MARZALES                                                                                            1861860000900106606600000002704300300005401N
0819950510847092MONTEALEGRE                                                                                         0860860001730114014000000007711700100213605N
0919950510847095MORALEJA DE LAS PANADERAS                                                                           0850850000280102302300000000501100000701501N
0819950510847119PIÑEL DE ARRIBA                                                                                     1861860001680115515500000008410901100810605N
0919950510847132RAMIRO                                                                                              0850850000880108508500000004005200000007601N
0919950510847083MATILLA DE LOS CAÑOS                                                                                1861860000940107807800000002904200600104701N
0819950510847088MELGAR DE ABAJO                                                                                     0860860002070114114100000007611501801011305N
0919950510847128QUINTANILLA DEL MOLAR                                                                               0860860000910107607600000002704500100705401N
0819950510847135ROBLADILLO                                                                                          1861860001030108608600000003405600900205705N
0819950510847180VALDEARCOS                                                                                          1861860001650114314300000006409500200510405N
0819950510847185VALVERDE DE CAMPOS                                                                                  0860860001220111111100000005507402100706704N
0819950510847188VEGA DE VALDETRONCO                                                                                 1861860002090118218200000007413600800315105N
0819950510847189VELASCALVARO                                                                                        0850850002020115615600000004712700400612705N
0819950510847192VENTOSA DE LA CUESTA                                                                                0850850001630113913900000006408200101709705N
0819950510847208VILLAGOMEZ LA NUEVA                                                                                 0860860001080110010000000004007000000308805N
0919950510847209VILLALAN DE CAMPOS                                                                                  0860860000530104604600000002803800200004001N
0919950510847215VILLAMURIEL DE CAMPOS                                                                               0860860000930108608600000003905701100405701N
0819950510849031CABAÑAS DE SAYAGO                                                                                   2752750002380120420400000009614300200217305N
0819950511010042CAMPILLO DE DELEITOSA                                                                               1311310001620120020000000008309100200510505N
0919950510842036BLACOS                                                                                              0430430000740106606600000001903300600203401N
0919950510842051CARABANTES                                                                                          1731730000420104104100000000801200400001701N
0919950510842070CUBILLA                                                                                             0430430000980108308300000003905500200006301N
0819950510842125MURIEL VIEJO                                                                                        1731730001010109809800000004706700100208305N
0919950510842163SAN FELICES                                                                                         1731730000930107907900000004605200500205601N
0819950510842178TALVEILA                                                                                            0430430002280122122100000011015100600615405N
0819950510847019BERRUECES                                                                                           0860860001130110010000000003806700200008405N
0819950510847026BUSTILLO DE CHAVES                                                                                  0860860001100209409400000004306200000008705N
0919950510834009AMAYUELAS DE ARRIBA                                                                                 0170170000550104704700000001702900000303301N
0819950510834019AUTILLO DE CAMPOS                                                                                   0720720002220118918900000009314000100516505N
0819950510834039BUSTILLO DEL PARAMO DE CA                                                                           0470470001140109909900000001706800800107505N
0819950510834082HERMEDES DE CERRATO                                                                                 0220220001700114814800000008211301100211605N
0819950510834093LAVID DE OJEDA                                                                                      0560560001590114214200000005409700900010905N
0919950510834096LOMAS                                                                                               0470470000700106406400000003104400300105101N
0919950510834109MORATINOS                                                                                           1571570000970109009000000003106100000007201N
0819950510834154REVILLA DE COLLAZOS                                                                                 1571570001050109409400000005007100000208005N
0819950510834190VALDERRABANO                                                                                        1571570001150110510500000003205601100405205N
0819950510925060CABANABONA                                                                                          0400400001060109009000000003305400500106205N
0819950510925063CANEJAN                                                                                             2432430001080111511500000005706800200607905N
0819950510925100GOSOL                                                                                               2072070001980116516500000007612900100214505N
0819950510925114IVORRA                                                                                              0720720001470112812800000008910200100211105N
0819950510925123LLADORRE                                                                                            2092090002190119419400000006010300000016305N
0819950510917173SANT MARTI VELL                                                                                     0790790002040117317300000006209200501709705N
0819950510917191SERRA DE DARO                                                                                       0220220001820115615600000007312200000014005N
0819950510917196TERRADES                                                                                            0660660001820116516500000006810100900011005N
0819950510917203ULTRAMORT                                                                                           0220220001960116516500000010214400000015905N
0819950510917206URUS                                                                                                1411410001340111911900000005207100200008805N
0819950510917216VILADASENS                                                                                          0790790001900115815800000007712100000213905N
0819950510917232VILOPRIU                                                                                            0790790001770115815800000009111400000412505N
0819950510925074CIUTADILLA                                                                                          0720720002230118918900000010414400100615805N
0819950510925082ESPOT                                                                                               2092090002410122322300000005511701000313605N
0919950510925087ESTERRI DE CARDOS                                                                                   2092090000720106206200000003003500500004001N
0919950510925089FARRERA                                                                                             2092090000950108508500000000402000600002801N
0819950510925111GUIXERS                                                                                             2072070001600114114100000008010500000012705N
0819950511010066CONQUISTA DE LA SIERRA                                                                              1951950002040117517500000008910800300312805N
0819950510925092FLORESTA (LA)                                                                                       0580580001950117017000000007508900800310905N
0819950510925105GRANYENA DE LES GARRIGUES                                                                           1201200001850116116100000008009700000610705N
0819950510925136MOLSOSA (LA)                                                                                        2072070001330110610600000004607600100009905N
0819950510925143MONTORNES DE SEGARRA                                                                                0720720001190109909900000002803900200205805N
0819950510925175PRATS I SANSOR                                                                                      2032030001720114814800000004407600200208605N
0819950510925201SARROCA DE BELLERA                                                                                  2342340001410213313300000006008700100410605N
0819950510925219TARROJA DE SEGARRA                                                                                  0720720001890115415400000006208900000412305N
0819950510925247VILAMOS                                                                                             2432430001300109609600000004806500300307305N
0819950510925904CASTELL DE MUR                                                                                      2342340001510114414400000003107500800010505N
0819950510943089MONTFERRI                                                                                           1631630001610114014000000004906800500307205N
0819950510943164VESPELLA                                                                                            1631630001200112712700000007809700000710905N
0819950510943115PRADELL DE LA TEIXETA                                                                               1231230002470121521500000008413400100518205N
0919950510805120MARLIN                                                                                              0190190000390104504500000001702700000003201N
0819950510805133MONSALUPE                                                                                           0190190001070109109100000004405900200406105N
0819950510809395TUBILLA DEL AGUA                                                                                    0590590001670215415400000006609500000910505N
0919950510809407VALMALA                                                                                             0590590000330103403400000001702100000202801N
0819950510809418VALLES DE PALENZUELA                                                                                0590590001110110310300000000000000600104205N
0919950510809445VILLAMBISTIA                                                                                        0590590000860108408400000005005603900202501N
0919950510809455VILLAQUIRAN DE LA PUEBLA                                                                            0590590000780106506500000002704101800003201N
0819950510809471VILLAYERNO MORQUILLAS                                                                               0590590001340112312300000005007000300608005N
0919950510809476VILLORUEBO                                                                                          3303300000430104504500000001202100100302501N
0819950510925104GRANYENA DE SEGARRA                                                                                 0720720001720116116100000007710100600410905N
0819950510925150OLIOLA                                                                                              0400400002090116216200000006010100000213405N
0819950510925152OLUGES (LES)                                                                                        0720720002090119219200000005608600200209805N
0819950510925163COMA I LA PEDRA (LA)                                                                                2072070002450122422400000011016300200418405N
0819950510925224TORMS (ELS)                                                                                         0580580002070117317300000006808700800110805N
0819950510943017ARGENTERA (L')                                                                                      1231230001350112212200000005508300200110505N
0819950510943045COLLDEJOU                                                                                           1231230001940114414400000004106600600008105N
0819950510943046CONESA                                                                                              1611610001260110610600000003505400500006205N
0919950510943143SAVALLA DEL COMTAT                                                                                  1611610000640105305300000003604200000204601N
0819950510943154TORROJA DEL PRIORAT                                                                                 1231230001400112412400000006308700000010505N
0819950510809154HACINAS                                                                                             3303300002140119919900000009012800300713905N
0919950510809159HONTANAS                                                                                            0590590000890107607600000003405201500204401N
0819950510809178IBRILLOS                                                                                            0590590001110110510500000005807900400507905N
0819950510809198MAHAMUD                                                                                             1941940001760116216200000007910001100310705N
0919950510809202MANCILES                                                                                            0590590000480104204200000002302700000302701N
0919950510809223MONASTERIO DE LA SIERRA                                                                             3303300000360103403400000002002000700001901N
0919950510805081GARGANTA DEL VILLAR                                                                                 1861860000890108608600000002005100400505401N
0919950510805119MANJABALAGO                                                                                         1861860000860108308300000004306300100106701N
0819950510805130MIRONCILLO                                                                                          0190190001400112612600000007709700200110405N
0819950510805140MUÑOMER DEL PECO                                                                                    0160160001390110810800000004508200100209705N
0819950510805155NAVAESCURIAL                                                                                        1861860001210111111100000003404401300805304N
0819950510805183PEDRO RODRIGUEZ                                                                                     0160160002480120420400000010614500601415505N
0819950510805185PEÑALBA DE AVILA                                                                                    0190190001380111811800000004408100700309005N
0819950510805244TORMELLAS                                                                                           1861860001430112412400000008008300300008805N
0819950510805246TORTOLES                                                                                            1861860001370113913900000007210000100111105N
0819950510805229SANTO DOMINGO DE LAS POSA                                                                           0190190001000108708700000005206800000507605N
0819950510805256VILLAFLOR                                                                                           0190190001840115415400000009012200100913205N
0819950510805261VILLAR DE CORNEJA                                                                                   1861860001070109809800000005907200400007205N
0819950510809012ALFOZ DE SANTA GADEA                                                                                9039030001640114114100000005409200100211005N
0819950510809017ANGUIX                                                                                              0180180001850115815800000010011200100711505N
0819950510824032CAMPAZAS                                                                                            0890890002080118418400000005212000500114705N
0819950510824141SAN ADRIAN DEL VALLE                                                                                0100100002270120320300000009413200600813705N
0819950510809127FONTIOSO                                                                                            1941940001010109709700000005406200000007805N
0819950510809148GRIJALBA                                                                                            0590590001560114514500000004408400200609305N
0819950510809172HUERMECES                                                                                           0590590001630213113100000006609000100310505N
0919950510809176HURONES                                                                                             0590590000590105505500000002803600000104501N
0819950510809221MODUBAR DE LA EMPAREDADA                                                                            0590590002210118618600000005709302200411105N
0919950510809239OQUILLAS                                                                                            0180180000800106806800000002503500400104101N
0919950510809269PINILLA DE LOS MOROS                                                                                3303300000540204604600000002302900400103301N
0919950510809280QUINTANABUREBA                                                                                      0560560000480104404400000002203500000003901N
0819950510809294QUINTANILLA DE LA MATA                                                                              1941940001750115815800000008911602800609105N
0819950510809295QUINTANILLA DEL COCO                                                                                1941940001290211511500000004406400200107505N
0919950510809310REINOSO                                                                                             0560560000290102602600000000000000000400001N
0819950510809316REVILLA-VALLEGERA                                                                                   0590590001860216716700000008210901201011105N
0919950510809318RIOCAVADO DE LA SIERRA                                                                              3303300000770107107100000002403600300403601N
0819950510809348SANTA INES                                                                                          1941940002180118218200000006909501200910505N
0819950510809355SANTIBAÑEZ DE ESGUEVA                                                                               1941940001820118418400000010211800701511105N
0819950510809362SARRACIN                                                                                            0590590001480113813800000007210900200212505N
0919950510809365SEQUERA DE HAZA (LA)                                                                                0180180000740106806800000003103801000603101N
0819950510824096MARAÑA                                                                                              0560560001990119019000000007710500300411805N
0819950510824149SAN MILLAN DE LOS CABALLE                                                                           0890890002160116216200000007309900800311305N
0819950510824217VILLAMORATIEL DE LAS MATA                                                                           1391390002290220120100000009313800300316505N
0919950510834032BERZOSILLA                                                                                          0560560000820107407400000004204600900304501N
0819950510809302RABANERA DEL PINAR                                                                                  3303300001710116116100000008110200701609305N
0819950510809329SALAS DE BUREBA                                                                                     0560560001860117317300000006409002000708805N
0919950510809335SAN ADRIAN DE JUARROS                                                                               0590590000370103903900000002502600000003801N
0819950511401006ARMIÑON                                                                                             0590590001310112312300000004607100100808605N
0819950511401049SALINAS DE AÑANA                                                                                    0590590001920118618600000009914400200316805N
0819950511401061ZALDUONDO                                                                                           0590590001300111111100000005007800600308505N
0919950510809055BRAZACORTA                                                                                          0180180000990109609600000005306802100504601N
0919950510809070CARAZO                                                                                              3303300000490104204200000001802700000003701N
0919950510809083CASTIL DE PEONES                                                                                    0560560000470104304300000001802400400102501N
0819950510809086CASTRILLO DEL VAL                                                                                   0590590002450121521500000008613500500415805N
0919950510809094CEBRECOS                                                                                            1941940000780108108100000001904000700004401N
0919950510809102CILLAPERLATA                                                                                        0560560000840108508500000002205301600405101N
0819950510809112CORUÑA DEL CONDE                                                                                    0180180001710117017000000005208502100708305N
0819950510809268PINILLA DE LOS BARRUECOS                                                                            3303300001360112812800000006509400401908305N
0919950510809303RABANOS                                                                                             0590590000660106206200000002403600300003901N
0919950510809327RUBLACEDO DE ABAJO                                                                                  0560560000410104104100000001602300000202801N
0819950510809337SAN JUAN DEL MONTE                                                                                  0180180001900117317300000008810400700611505N
0819950510809347SANTA GADEA DEL CID                                                                                 2192190002250118718700000005510400400910605N
0919950510809382TOBAR                                                                                               0590590000550105105100000002703700400103401N
0819950510809387TORREGALINDO                                                                                        0180180001610114414400000006210401101310105N
0819950510809406VALDORROS                                                                                           1941940001060113913900000007109200100112405N
0919950510809408VALLARTA DE BUREBA                                                                                  0560560000840107607600000000000000600504001N
0919950510809416VALLE DE ZAMANZAS                                                                                   9039030000470206506500000002703700100404401N
0919950510809417VALLEGERA                                                                                           0590590000580105505500000002904400100005001N
0919950510809423VILEÑA                                                                                              0560560000510105005000000001403200500303601N
0819950510809485ZUÑEDA                                                                                              0560560001000109409400000003707202400205105N
0819950510824050CASTROTIERRA                                                                                        1391390001760116216200000007510600100212405N
0819950511420048LARRAUL                                                                                             0710710001420111611600000002905200100106405N
0919950511420904BALIARRAIN                                                                                          0710710000990108408400000003204800000005401N
0819950511401034LEZA                                                                                                0590590002000117617600000007310600200811905N
0819950511401044PEÑACERRADA                                                                                         0590590002460122222200000009414900001217205N
0919950511420060OREXA                                                                                               0710710000780107307300000003604000100605201N
0819950511420068LEINTZ-GATZAGA                                                                                      0740740002420120620600000009212502600412905N
0819950511420037GAINZA                                                                                              0710710001340111311300000004505900500306405N
0919950511626016ARENZANA DE ARRIBA                                                                                  0890890000450104004000000001702800000103401N
0819950511626027BERCEO                                                                                              0890890002440122122100000011317000000019205N
0819950511626031BOBADILLA                                                                                           0890890001910115315300000009312300000514005N
0919950511626057DAROCA DE RIOJA                                                                                     0890890000580105505500000002504200100204401N
0819950511626128SAJAZARRA                                                                                           0710710001630113913900000009111100400511005N
0819950511626136SANTA EULALIA BAJERA                                                                                0360360001070110710700000007008600300009205N
0819950511626162VALGAÑON                                                                                            0710710001800115115100000010312300500013705N
0919950511626183ZORRAQUIN                                                                                           0710710000450104404400000001602700000203301N
0819950511703022BENASAU                                                                                             0090090002140118718700000011413900500316005N
0919950511703036BENILLUP                                                                                            0090090000870106506500000003104900800205001N
0819950511626076HORMILLEJA                                                                                          0890890001940117117100000006010300100414505N
0919950511626093MANSILLA                                                                                            0890890000530105205200000002503800200104101N
0919950511626143SOJUELA                                                                                             0890890000930108808800000004006400100008001N
0919950511626147TERROBA                                                                                             0890890000350103503500000000701500000003201N
0919950511626154TORREMONTALBO                                                                                       0890890000150101101100000001101100000001101N
0819950511626164VENTROSA                                                                                            0890890001050114814800000003705400000409005N
0819950511703062DAYA VIEJA                                                                                          0990990002020118518500000009713200000115805N
0819950510849083FUENTESECAS                                                                                         2192190001010109709700000005506700700208405N
0819950510849088GAMONES                                                                                             2752750001140110310300000004807100000009205N
0819950510849028BRIME DE URZ                                                                                        0210210001870116616600000007310400100712705N
0819950510849038CASASECA DE CAMPEAN                                                                                 2752750001760115515500000007009700300110805N
0819950510849044CAZURRA                                                                                             2752750001020110210200000004607100200008605N
0819950510837290SAN PEDRO DEL VALLE                                                                                 2742740001370111511500000004207501200007405N
0819950510837310SIETEIGLESIAS DE TORMES                                                                             2742740001770114014000000006008500600710305N
0819950510837314TABERA DE ABAJO                                                                                     2742740001330110610600000006307500300009205N
0919950510837343VALLEJERA DE RIOFRIO                                                                                0460460000670105905900000003504900300005101N
0819950510837019ALDEARRODRIGO                                                                                       2742740002210119719700000009713500800614005N
0819950510837028ALMENDRA                                                                                            2742740002470121021000000013416600000119005N
0819950510837030AÑOVER DE TORMES                                                                                    2742740001270110610600000001006800200008905N
0819950510837203MONTERRUBIO DE LA SIERRA                                                                            2742740001770116416400000008211900500412905N
0819950510837222NEGRILLA DE PALENCIA                                                                                2742740001200109609600000005907400000008405N
0919950510837277SALVATIERRA DE TORMES                                                                               2742740000740107107100000003404000300304401N
0819950510837223OLMEDO DE CAMACES                                                                                   3763760002110117817800000012014200000016305N
0819950510837241PELARRODRIGUEZ                                                                                      2742740002330118918900000009012500000414905N
0919950510837249PERALEJOS DE ARRIBA                                                                                 3763760000840107407400000002304300200104701N
0819950510837251PEROMINGO                                                                                           0460460001700113813800000005307900100908205N
0819950510837253PINO DE TORMES (EL)                                                                                 2742740001760114414400000006510100200112005N
0819950510837272SAELICES EL CHICO                                                                                   1071070002170117717700000008211800800913805N
0819950510840075ESCOBAR DE POLENDOS                                                                                 1941940002410120620600000011014300101715505N
0819950510840082FUENTE DE SANTA CRUZ                                                                                1851850002130118918900000010914800100516105N
0819950510840083FUENTE EL OLMO DE FUENTID                                                                           0630630002000117817800000010611901600810004N
0819950510840084FUENTE EL OLMO DE ISCAR                                                                             0630630001080110610600000005307202400605405N
0819950510840107LABAJOS                                                                                             1851850001700114314300000008911100100112605N
0819950510840130MONTEJO DE LA VEGA DE LA                                                                            1701700002060119419400000008310901101610305N
0819950510840136MUÑOVEROS                                                                                           1941940002360120620600000011614600500214905N
0819950510840140NAVALILLA                                                                                           1951950001850118118100000006710501900809005N
0919950511626077HORNILLOS DE CAMEROS                                                                                0890890000270102502500000000901200200002201N
0819950511626092MANJARRES                                                                                           0890890001450113313300000006210200000312105N
0819950511626107NIEVA DE CAMEROS                                                                                    0890890001230115415400000008009100300810205N
0819950511626119PREJANO                                                                                             0360360002240121821800000012315000200317505N
0919950511626126ROBRES DEL CASTILLO                                                                                 0890890000240102202200000001201600000001901N
0919950511626131SAN MILLAN DE YECORA                                                                                0710710000760106606600000002104400800504001N
0819950511626132SAN ROMAN DE CAMEROS                                                                                0890890001940119019000000008813900000016305N
0819950511626135SANTA ENGRACIA DEL JUBERA                                                                           0890890002100120620600000007412000200615805N
0919950511626149TOBIA                                                                                               0890890000590105805800000003104000300603601N
0819950511626150TORMANTOS                                                                                           0710710002270121721700000011115700101716005N
0919950511626161VALDEMADERA                                                                                         0360360000160101901900000000901000000001901N
0819950511626167VILLALOBAR DE RIOJA                                                                                 0710710001410112712700000006608500900708705N
0919950511626179VINIEGRA DE ARRIBA                                                                                  0890890000540105205200000001503200300103301N
0819950511703016ALMUDAINA                                                                                           0090090001320111211200000006207601700307305N
0819950510834208VILLAELES DE VALDAVIA                                                                               1571570001000109609600000005306301100106805N
0819950510834220VILLAMARTIN DE CAMPOS                                                                               1201200001750116816800000007111900000413305N
0819950510834228VILLANUÑO DE VALDAVIA                                                                               1571570001440210510500000006508700100409505N
0819950510834240VILLERIAS DE CAMPOS                                                                                 0720720001380113113100000005809900000011905N
0819950510837021ALDEASECA DE ALBA                                                                                   2742740001550114014000000006709601200709605N
0819950510837024ALDEAVIEJA DE TORMES                                                                                2742740001450111411400000005708300300608305N
0819950510842021ALMAZUL                                                                                             1731730002070218818800000008009400500011105N
0819950510842030BARCA                                                                                               0200200001610214414400000007809201500807905N
0919950510842031BARCONES                                                                                            0200200000570105605600000001302300300003001N
0819950510842088FUENTELMONGE                                                                                        0200200001680113513500000006807900400109005N
0919950510842097GORMAZ                                                                                              0430430000270102102100000000701300000201601N
0919950510842100HINOJOSA DEL CAMPO                                                                                  1731730000620106106100000001402400500202801N
0919950510842108MAJAN                                                                                               0200200000170101801800000000900900000001501N
0819950510842110MATALEBRERAS                                                                                        1731730001470114214200000006008400100211605N
0919950510842118MOMBLONA                                                                                            0200200000530104604600000002603300400302901N
0919950510842128NARROS                                                                                              1731730000640105105100000002803500700003401N
0919950510842130NEPAS                                                                                               0200200000950108308300000001603800900203701N
0919950510842148QUIÑONERIA (LA)                                                                                     1731730000190101801800000000300700200000901N
0819950510842174SOTILLO DEL RINCON                                                                                  1731730002090120920900000007110100600213705N
0819950510842187TORRUBIA DE SORIA                                                                                   1731730001120109009000000003305100300006405N
0819950510842190VADILLO                                                                                             0430430001750115715700000005009004200805905N
0819950510842191VALDEAVELLANO DE TERA                                                                               1731730002380121221200000009815500300517305N
0919950510842196VALDEPRADO                                                                                          1731730000220102002000000000700900000101501N
0819950510842211VILLARES DE SORIA (LOS)                                                                             1731730001310311111100000005106900600208505N
0919950510840049CASTROSERNA DE ABAJO                                                                                1951950000680105505500000003004100100204501N
0819950510840060CONDADO DE CASTILNOVO                                                                               1951950001580113613600000005507302100206705N
0819950510840070DURUELO                                                                                             1951950001370111011000000003108000500408805N
0819950510849099LOSACIO                                                                                             2752750001900118318300000010512800200015005N
0819950510849190SAN MARTIN DE VALDERADUEY                                                                           2502500001030108908900000004606200100207005N
0819950510849230VALLESA                                                                                             2752750002080119319300000008512200100616005N
0819950510849057CUBO DE BENAVENTE                                                                                   0210210002490121221200000004813800100417405N
0819950510849086GALLEGOS DEL PAN                                                                                    2192190001900116916900000006611600100513305N
0819950510849180ROELOS                                                                                              2752750001760116916900000009012500100015105N
0819950510849188SAN ESTEBAN DEL MOLAR                                                                               2502500002230119219200000008313000200115905N
0919950510837259PUEBLA DE SAN MEDEL                                                                                 0460460000740106406400000001302700000103201N
0819950510837262PUERTAS                                                                                             3763760001240109809800000003306601200006005N
0819950510837268RINCONADA DE LA SIERRA (L                                                                           2742740001930116816800000005711900100412805N
0919950510837281SANCHON DE LA SAGRADA                                                                               2742740000640105105100000002903700600103701N
0819950510837320TEJEDA Y SEGOYUELA                                                                                  2742740001540111511500000005807300100208705N
0819950510837334VALDELAGEVE                                                                                         0460460001410112512500000005508800200310305N
0919950510837366VILLARMUERTO                                                                                        3763760000760106906900000003604700000505301N
0819950510837379ZAMAYON                                                                                             2742740001980117917900000006612200100214305N
0919950510840005ALCONADA DE MADERUELO                                                                               1701700000600105805800000003203300500103901N
0819950510840007ALDEALENGUA DE PEDRAZA                                                                              1951950001130109209200000003806500000208205N
0919950510840014ALDEHORNO                                                                                           1701700000980108908900000004605301900503501N
0919950510840015ALDEHUELA DEL CODONAL                                                                               1851850000650106206200000002203801200003001N
0819950510840018AÑE                                                                                                 1851850001250112012000000006208601300607805N
0919950510840033BRIEVA                                                                                              1941940000590105505500000002702900200003601N
0819950510840034CABALLAR                                                                                            1941940001090109209200000003404800700305205N
0819950510849097JUSTEL                                                                                              1661660002450122522500000004811500300113105N
0919950510840168RIAGUAS DE SAN BARTOLOME                                                                            1701700000760107807800000002904400000205901N
0919950510840201TOLOCIRIO                                                                                           1851850000670106706700000003304801200304301N
0819950510840206TORRE VAL DE SAN PEDRO                                                                              1951950002300118018000000009212500700613005N
0819950510840210URUEÑAS                                                                                             1951950001340112112100000005306501201105805N
0819950510840230VILLEGUILLO                                                                                         1851850001500113213200000005008800300510805N
0819950510842006ALCONABA                                                                                            1731730001760415315300000005509000500511205N
0919950510842016ALIUD                                                                                               1731730000540104904900000001202101800001401N
0819950510917188SELVA DE MAR (LA)                                                                                   0660660001670115815800000007511600100214405N
0819950510917192SETCASES                                                                                            1411410001570113513500000008610300200012205N
0819950510917201TOSES                                                                                               1411410001430112712700000004205301000007405N
0819950510917234BIURE                                                                                               0660660002270120120100000008411203000309805N
0819950510925030PONT DE BAR (EL)                                                                                    2032030001610115815800000005107300300109305N
0919950510925045BAUSEN                                                                                              2432430000670106106100000003403900000005701N
0819950510925064CASTELLAR DE LA RIBERA                                                                              2072070001500112912900000008609800100011905N
0819950510925076COGUL (EL)                                                                                          0580580002330119619600000005108200200210105N
0819950510908002AGUILAR DE SEGARRA                                                                                  1131130002040118418400000008911300200013805N
0819950510908189SANT PERE SALLAVINERA                                                                               1021020001720114914900000005908101600408705N
0919950510917099MERANGES                                                                                            1411410000710106906900000003805200000106401N
0819950510917129PEDRET I MARZA                                                                                      0660660001220110510500000005006900000009805N
0819950510917143RABOS                                                                                               0660660001380113613600000007709600000111605N
0919950510917154SALES DE LLIERCA                                                                                    1141140000570104304300000001702300200003101N
0819950510917171SANT LLORENC DE LA MUGA                                                                             0660660001690114914900000006109500100110805N
0819950510917174SANT MIQUEL DE CAMPMAJOR                                                                            1141140002110117617600000011412900300415005N
0819950510840126MELQUE DE CERCOS                                                                                    1851850001490114014000000007009301700109005N
0819950510840128MIGUELAÑEZ                                                                                          1851850001930117717700000008312602200611705N
0819950510840150OREJANA                                                                                             1951950001190111011000000004205201200205804N
0819950510840159PINAREJOS                                                                                           0630630002250120020000000009714400200316505N
0819950510840173RODA DE ERESMA                                                                                      1941940001050108808800000003906200000207605N
0919950510840186SANTA MARTA DEL CERRO                                                                               1951950000580105805800000001203400400003601N
0819950510840202TORREADRADA                                                                                         0630630001630113913900000006110701001009605N
0919950510840211VALDEPRADOS                                                                                         1941940000490105205200000003803800000004801N
0919950510840212VALDEVACAS DE MONTEJO                                                                               1701700000400103703700000001301500000102301N
0919950510840221VALLERUELA DE SEPULVEDA                                                                             1951950000770107707700000003905300400005601N
0919950510840224VENTOSILLA Y TEJADILLA                                                                              1951950000230102402400000000901500700500801N
0919950510840229VILLAVERDE DE MONTEJO                                                                               1701700000890107707700000004605000100205101N
0819950510840231YANGUAS DE ERESMA                                                                                   1941940002150118618600000008612700100414505N
0919950510842028AUSEJO DE LA SIERRA                                                                                 1731730000610305605600000001903000100304301N
0919950510842054CARRASCOSA DE LA SIERRA                                                                             1731730000170101701700000000800800600000501N
0919950510842065CIRUJALES DEL RIO                                                                                   1731730000450104004000000001103100200003601N
0919950510842086FUENTECAMBRON                                                                                       0430430000780207807800000003804201000304001N
0819950510842092FUENTES DE MAGAÑA                                                                                   1731730001230112112100000006007601200207105N
0819950510842121MONTENEGRO DE CAMEROS                                                                               1731730001260111211200000002804901200305603N
0919950510842176TAJAHUERCE                                                                                          1731730000490104904900000001802500200003401N
0819950510842184TORLENGUA                                                                                           0200200001390112212200000003406100000010205N
0819950510842209VILLAR DEL RIO                                                                                      1731730002080118118100000008010201300509905N
0919950510842219YELO                                                                                                0200200000820108008000000002603501100003401N
0819950510847025BRAHOJOS DE MEDINA                                                                                  0850850001960116216200000005712100100013805N
0819950510847031CAMPILLO (EL)                                                                                       0850850002490122722700000012017300300219305N
0919950510847042CASTROMEMBIBRE                                                                                      0860860000980108308300000003606300400306601N
0819950510943053DUESAIGUES                                                                                          1231230002190118518500000008812700300415905N
0819950510943073LLORAC                                                                                              1611610001060109209200000004105500300107205N
0819950510943091MONT-RAL                                                                                            1611610001420112112100000005407100200109205N
0819950510943105PILES (LES)                                                                                         1611610001500111911900000004708700200110305N
0919950510943146SENAN                                                                                               1611610000260102502500000000901500000002301N
0819950510943159VALLFOGONA DE RIUCORB                                                                               1611610001070110410400000004406800200008405N
0819950510943168VILANOVA DE PRADES                                                                                  1231230001560113513500000005206500100208205N
0819950511010038CACHORRILLA                                                                                         0670670001080110110100000005206000100108505N
0819950511010097HIGUERA                                                                                             1311310001260112212200000007309200000011605N
0819950511010101HUELAGA                                                                                             0670670002000116416400000009311700200013205N
0819950511010106JARILLA                                                                                             1481480001980118918900000009211500800414205N
0819950511010120MESAS DE IBOR                                                                                       1311310002240132432400000010613900200820405N
0819950511010156ROBLEDILLO DE GATA                                                                                  0670670002080116416400000007610100200612605N
0819950511010161RUANES                                                                                              1951950001060108508500000006406400000007505N
0819950511010182TORIL                                                                                               1311310001900114214200000006708800000111305N
0819950511010197VALDECAÑAS DE TAJO                                                                                  1311310001410113713700000007808700300111405N
0819950510809346SANTA CRUZ DEL VALLE URBI                                                                           0590590001350112912900000006309200400209705N
0819950510809352SANTA MARIA DE MERCADILLO                                                                           1941940002050120120100000010314700300417005N
0819950510809353SANTA MARIA-RIBARREDONDA                                                                            2192190001400114014000000007010300201110105N
0919950510809356SANTIBAÑEZ DEL VAL                                                                                  1941940000710207007000000002103200100004201N
0819950510809372SOTRAGERO                                                                                           0590590001260110510500000005906901701105605N
0819950510908272SORA                                                                                                2982980002020116316300000007710500000213705N
0819950510908280TAVERTET                                                                                            2982980001340110910900000004908000000009605N
0819950510805126MESEGAR DE CORNEJA                                                                                  1861860001400112712700000006410100000011605N
