0819950510519700000100700TEODORO ARROYO CAMPOS                                                                 00000000007N
0819950510519700000207205MIGUEL ANGEL DE LLANO SANCHEZ                                                         00000000046S
0819950510519700000207205JUAN CARLOS GOMEZ GOMEZ                                                               00000000065S
0819950510519700000207205JESUS MARIA SANCHEZ SANCHEZ                                                           00000000079S
0819950510519700000207205GREGORIO GARCIA SANCHEZ                                                               00000000037S
0819950510519700000207205FRANCISCO VENANCIO JIMENEZ MARTIN                                                     00000000059S
0819950510519800000104802SEGUNDO FERNANDEZ SANTOS                                                              00000000041N
0819950510519800000104802FRANCO ALONSO JIMENEZ                                                                 00000000048S
0819950510519800000104802CUSTODIO MARTIN DIAZ                                                                  00000000055S
0819950510519800000204603RAFAEL RODRIGUEZ GARCIA                                                               00000000019N
0819950510519800000204603JOSE MARIA GOMEZ RODRIGUEZ                                                            00000000042S
0819950510519800000204603JOSE EMILIO SANCHEZ SANCHEZ                                                           00000000047S
0819950510519800000204603JAVIER HERNANDO GONZALEZ                                                              00000000032N
0819950510519800000204603FEDERICO JESUS GONZALEZ SANTOS                                                        00000000045S
0819950510519900000204405SATURNINO BLAZQUEZ GARCIA                                                             00000000051S
0819950510519900000204405MARCELINO MORALES MARTIN                                                              00000000031S
0819950510519900000204405LUIS GARCIA MORALES                                                                   00000000033S
0819950510519900000204405JULIO DEL RIO BLAZQUEZ                                                                00000000021S
0819950510519900000204405ANTONIO MAJADAS GARCIA                                                                00000000040S
0819950510520000000205905NICOLAS CONSTANTINO GONZALEZ HERNANDEZ                                                00000000074S
0819950510520000000205905MARIA BEGOÑA HERNANDEZ SANCHEZ                                                        00000000030S
0819950510520000000205905JACINTO HERNANDEZ DE SANCHO                                                           00000000042S
0819950510520000000205905FRANCISCO BARTOLOME DIAZ HERNANDEZ                                                    00000000051S
0819950510520000000205905ANTONIO SANCHEZ GONZALEZ                                                              00000000038S
0819950510520500000105801MIGUEL GONZALEZ SANCHEZ                                                               00000000055N
0819950510520500000105801MARIA SAGRARIO GOMEZ JIMENEZ                                                          00000000059N
0819950510520500000105801MARIA ROSARIO GUTIERREZ SANCHEZ                                                       00000000060S
0819950510520500000105801LUCIANO HERRERO JIMENEZ                                                               00000000056N
0819950510520500000206304MARIA ROSA HERRAEZ MARTIN                                                             00000000067S
0819950510520500000206304MARIA LOURDES HERRAEZ MARTIN                                                          00000000063S
0819950510520500000206304JUAN MANUEL JIMENEZ HERRAEZ                                                           00000000062S
0819950510520500000206304FERNANDO HERRAEZ MANCEBO                                                              00000000061S
0919950510520600000100600JUAN RAMON CARRASCO GARCIA                                                            00000000006N
0919950510520600000203201JOSE LUIS MENDEZ CRISTOBAL                                                            00000000032S
0919950510520800000100000EMILIO ARROYO BLAZQUEZ                                                                00000000000N
0919950510520800000200800ENRIQUE LOPEZ LEGIDO                                                                  00000000008N
0919950510520800016204401MARCELIANO RODRIGUEZ LOPEZ                                                            00000000044S
0819950510520900000103500EMILIO LALANE CANFRANC                                                                00000000035N
0819950510520900000209705OBDULIO RODRIGUEZ BLAZQUEZ                                                            00000000082S
0819950510520900000209705LUCAS MARTIN MARTIN                                                                   00000000113S
0819950510520900000209705FELIX CARRETERO RODRIGUEZ                                                             00000000060S
0819950510520900000209705AGUSTIN RODRIGUEZ CARRETERO                                                           00000000068S
0819950510520900000209705ABRAHAN GUTIERREZ MARTIN                                                              00000000064S
0819950510521000000102901JOAQUINA HERNANDEZ TRIBANO                                                            00000000029S
0819950510521000000208504RAFAEL MARTIN SANTAMARIA                                                              00000000085S
0819950510521000000208504NICANOR MORENO SAEZ                                                                   00000000085S
0819950510521000000208504MARTIN LOPEZ RODRIGUEZ                                                                00000000083S
0819950510521000000208504FELIX MUÑOZ GOMEZ                                                                     00000000085S
0819950510521300000103801JOSE MARIA JIMENEZ MARTIN                                                             00000000040N
0819950510521300000103801JOSE ANTONIO NUÑEZ CORBO                                                              00000000043S
0819950510521300000103801JORGE MARTIN JIMENEZ                                                                  00000000039N
0819950510521300000103801FRANCISCO GONZALEZ OVEJERO                                                            00000000031N
0819950510521300000210804MARIANO JIMENEZ MUÑOZ                                                                 00000000122S
0819950510521300000210804MARIA CARMEN NUÑEZ MARTIN                                                             00000000110S
0819950510521300000210804JOSE ANTONIO CORBO MARTIN                                                             00000000094S
0819950510521300000210804GREGORIO SEGUNDO MUÑOZ NIETO                                                          00000000105S
0919950510521400000100000MARIA DEL PILAR CAMPOS GARCIA                                                         00000000000N
0919950510521400000200300RESURRECCION LOPEZ GOMEZ                                                              00000000003N
0919950510521405214105001JAIME DE LA FUENTE VINUESA                                                            00000000050S
0819950514925900000208003TOMAS MORAN FERNANDEZ                                                                 00000000077S
0819950514925900000208003MATEO GALENDE VILLAREJO                                                               00000000070S
0819950514925900000208003ANTONIO CARNERO LANSEROS                                                              00000000036N
0819950514925900000208003ANGEL MATEOS FREIRE                                                                   00000000072S
0819950514925900000208003AMANCIO GARCIA GALENDE                                                                00000000065N
0819950514926300000100801MARIA DEL PILAR RODRIGUEZ PEÑA                                                        00000000008S
0819950514926300000206004JUAN CARLOS ARES GONZALEZ                                                             00000000058S
0819950514926300000206004JOSE MANUEL PEREZ ESTEBAN                                                             00000000057S
0819950514926300000206004JESUS ANTONIO CAÑIBANO LEON                                                           00000000061S
0819950514926300000206004FRANCISCO JAVIER GARCIA MARTINEZ                                                      00000000062S
0819950514926500000102600JOSE MANUEL ALFONSO VICENTE                                                           00000000025N
0819950514926500000102600ANGEL VELASCO PINTADO                                                                 00000000026N
0819950514926500000205704SILVESTRE A. FERNANDO FERNANDO                                                        00000000065S
0819950514926500000205704MANUEL PINTADO FERNANDO                                                               00000000051S
0819950514926500000205704JOSE MANUEL MAGARZO PINTADO                                                           00000000052S
0819950514926500000205704HORACIO M. PINTADO NIETO                                                              00000000058S
0819950514926500004503101MARIA PILAR CALVO FERNANDO                                                            00000000027N
0819950514926500004503101JOSE LUIS RODRIGO FERNANDO                                                            00000000036S
0819950514926500004503101FERNANDO MODESTO FERNANDO MAGARZO                                                     00000000029N
0819950514926600000101901MARIA INES LOPEZ FERNANDEZ                                                            00000000019S
0819950514926600000206904JOSE-LUIS RUIZ VIDAL                                                                  00000000075S
0819950514926600000206904ISIDRO BENAYAS GALINDO                                                                00000000058S
0819950514926600000206904EXUPERIO SAN JUAN SAN JUAN                                                            00000000072S
0819950514926600000206904DOROTEO SAN JUAN VIDAL                                                                00000000070S
0819950514926700000104403MATEO TEMPRANO ALONSO                                                                 00000000047S
0819950514926700000104403MARIA LUISA RODRIGUEZ CONEJO                                                          00000000033N
0819950514926700000104403JUAN CARLOS ALONSO BERMEJO                                                            00000000052S
0819950514926700000104403ANTOLIN RODRIGUEZ SERRANO                                                             00000000042S
0819950514926700000205602SERGIO DEL TESO GAMAZO                                                                00000000056S
0819950514926700000205602JULIO CALLEJA FERNANDEZ                                                               00000000033N
0819950514926700000205602FRANCISCO CALLEJA HERRERO                                                             00000000054S
0819950514926700000205602FAUSTINO BERMEJO RODRIGUEZ                                                            00000000042N
0819950514926700000205602ANGEL CONDE MISOL                                                                     00000000039N
0819950514926700004501000MIGUEL ANGEL SALGADO TORRES                                                           00000000024N
0819950514926700004501000ILDEFONSO ALFAGEME ALIJAS                                                             00000000003N
0819950514926700004501000FRANCISCO CARRERAS LUIS                                                               00000000003N
0819950514927000000109104TOMAS ROMO COLORADO                                                                   00000000098S
0819950514927000000109104ROMUALDO MARCOS MANTECA                                                               00000000094S
0819950514927000000109104JOSE MANUEL CASAS NORIEGA                                                             00000000013N
0819950514927000000109104JOSE LUIS NORIEGA NORIEGA                                                             00000000078S
0819950514927000000109104FRANCISCO BERMEJO HERNANDEZ                                                           00000000081S
0819950514927000000207101JULIO ASENSIO VILLAR                                                                  00000000069N
0819950514927000000207101JULIAN VILLAR RODRIGUEZ                                                               00000000070N
0819950514927000000207101FELIX ASENSIO DEL TESO                                                                00000000070N
0819950514927000000207101EUSTAQUIO BLAS VILLAR VILLAR                                                          00000000074S
0819950514927200000102802MARIA NATIVIDAD MARTIN FERNANDEZ                                                      00000000025N
0819950514927200000102802JOSE MARIA JUNQUERA JUNQUERA (IND.).                                                  00000000029S
0819950514927200000102802FRANCISCO MAYOR VILLAREJO                                                             00000000035S
0819950514927200000102802FERMIN MARTIN DELGADO                                                                 00000000024N
0819950514927200000207803VIRGILIO VILLAREJO MAYOR                                                              00000000091S
0819950514927200000207803INOCENCIO SALVADOR MARTIN CENTENO                                                     00000000065S
0819950514927200000207803ANDRES MAYOR MARRON                                                                   00000000077S
0819950510521700000205805OSCAR LUIS ARRABAL ARROYO                                                             00000000057S
0819950510521700000205805OSCAR BERRENDO PEREZ                                                                  00000000038S
0819950510521700000205805MANUEL BRAVO BERMEJO                                                                  00000000009S
0819950510521700000205805EDUARDO ARROYO CERREDELO                                                              00000000063S
0819950510521700000205805CARLOS SANCHEZ BLAZQUEZ                                                               00000000063S
0919950510521900000100300JOSE MARIA TORRES CALVO                                                               00000000003N
0919950510521900000204001MARIA ANTONIA DIAZ DIAZ                                                               00000000040S
0819950510522200000104501FRANCISCO JAVIER MARTIN POZO                                                          00000000045N
0819950510522200000104501CESAREO LANCHEZ SANCHEZ                                                               00000000050S
0819950510522200000104501ANICETO LANCHEZ GARCIA                                                                00000000041N
0819950510522200000104501AMALIO LANCHEZ SANCHEZ                                                                00000000043N
0819950510522200000210604ROGELIO POZO MARTIN                                                                   00000000101S
0819950510522200000210604JESUS PEREZ MUÑOZ                                                                     00000000113S
0819950510522200000210604GERARDO GONZALEZ VALLES                                                               00000000105S
0819950510522200000210604CARMELO SANCHEZ POZO                                                                  00000000106S
0819950510522400000100200JOSE ALVAREZ RODRIGUEZ                                                                00000000002N
0819950510522400000207205PEDRO MARTINEZ JIMENEZ                                                                00000000054S
0819950510522400000207205JOSE JAVIER JIMENEZ SORIA                                                             00000000059S
0819950510522400000207205AURELIO SANCHEZ JIMENEZ                                                               00000000042S
0819950510522400000207205ARTURO MARTIN JIMENEZ                                                                 00000000078S
0819950510522400000207205ANTONIA ARRIBAS MARTIN                                                                00000000054S
0819950510522600000101301ASUNCION GONZALEZ GARCIA                                                              00000000013S
0819950510522600000209404PIO CHAPINAL GRANADO                                                                  00000000099S
0819950510522600000209404OSCAR MARTIN CHAPINAL                                                                 00000000094S
0819950510522600000209404ESTEBAN SERRANO HERNANDEZ                                                             00000000094S
0819950510522600000209404ANGEL HERNANDEZ YAÑEZ                                                                 00000000090S
0819950510522900000100100BERNARDINO PLAZA HERRADURA                                                            00000000001N
0819950510522900000204704TARSICIO RODRIGUEZ GARCIA                                                             00000000058S
0819950510522900000204704PEDRO R. VALVERDE SANCHEZ                                                             00000000039S
0819950510522900000204704MARCELO LOZANO LOPEZ                                                                  00000000042S
0819950510522900000204704ANA ISABEL RODRIGUEZ LOZANO                                                           00000000005N
0819950510522900000204704AMANCIO CASILLAS LAZARO                                                               00000000045S
0819950510522900016202701JUAN ANTONIO MUÑOZ RODRIGUEZ                                                          00000000021N
0819950510522900016202701AURELIO BERMEJO LOZANO                                                                00000000032S
0819950510522900016202701AUGURIO BARTOLOME SAEZ                                                                00000000024N
0819950510522900016202701ADALBERTO GONZALEZ RODRIGUEZ                                                          00000000031N
0819950510523000000100600M. DEL CARMEN GARCIA CASTAÑAS                                                         00000000006N
0819950510523000000207105MIGUEL ANGEL HERNANDO MARTIN                                                          00000000046S
0819950510523000000207105MARIA DEL SOL MONTALVO NIETO                                                          00000000056S
0819950510523000000207105JOSE JIMENEZ SANCHEZ                                                                  00000000060S
0819950510523000000207105JAVIER JIMENEZ GUTIERREZ                                                              00000000055S
0819950510523000000207105ABILIO HERNANDO GARCINUÑO                                                             00000000066S
0819950510523100000110305MIGUEL ANGEL HOLGADO DE JUAN                                                          00000000080S
0819950510523100000110305MAXIMO GALLEGO AYUSO                                                                  00000000060S
0819950510523100000110305MATIAS DIAZ MARTIN                                                                    00000000074S
0819950510523100000110305JOSE LUIS PEREZ GONZALEZ                                                              00000000083S
0819950510523100000110305FLORENTINO SANCHEZ MARTIN                                                             00000000115S
0819950510523100000205400ELISEO SACRISTAN SERRANO                                                              00000000054N
0819950510523200000103401JOSE MARIA JIMENEZ JIMENEZ                                                            00000000034S
0819950510523200000206004MAURICIO HERRAEZ PRIETO                                                               00000000035S
0819950510523200000206004MARIA SONSOLES GARCIA JIMENEZ                                                         00000000020N
0819950510523200000206004IRENE SAEZ PRIETO                                                                     00000000068S
0819950510523200000206004DAVID JIMENEZ GARCIA                                                                  00000000061S
0819950510523200000206004ANGEL RAUL JIMENEZ LOPEZ                                                              00000000057S
0919950510523400000100500EUSEBIO RIVERA GARVIN                                                                 00000000005N
0919950510523400000204101AGUSTINA DIEZ SANCHEZ                                                                 00000000041S
0819950510524300000205905SEGUNDO PINDADO GONZALEZ                                                              00000000038S
0819950510524300000205905FRANCISCO JAVIER MENDEZ MENDEZ                                                        00000000056S
0819950510524300000205905FRANCISCO BASILIO BURGUILLO SASTRE                                                    00000000038S
0819950510524300000205905CELESTINO HERNANDEZ MENDEZ                                                            00000000047S
0819950510524300000205905ANTONIO NAVAS ALONSO                                                                  00000000058S
0819950510524400000207505VALENTIN SANCHEZ SANCHEZ                                                              00000000076S
0819950510524400000207505PRIMITIVO BLAZQUEZ FAMILIAR                                                           00000000066S
0819950510524400000207505MIGUEL CASAMAYOR TRUJILLANO                                                           00000000035S
0819950510524400000207505JESUS GARCIA BLAZQUEZ                                                                 00000000067S
0819950510524400000207505ISIDORO TRUJILLANO MAYORAL                                                            00000000054S
0819950510524600000103601NICOLAS CASTILLA ELENA                                                                00000000031N
0819950510524600000103601LUCIO BLAZQUEZ ORTEGA                                                                 00000000040N
0819950510524600000103601JOSE LUIS RUBIO BARRANCO                                                              00000000042S
0819950510524600000103601JACINTO SERRANOS CASTILLA                                                             00000000032N
0819950510524600000206704PEDRO NUÑEZ DIAZ                                                                      00000000065S
0819950510524600000206704LUCIO DIAZ ELENA                                                                      00000000069S
0819950510524600000206704GREGORIO ELENA DIAZ                                                                   00000000067S
0819950510524600000206704FLORENCIO ORGAZ SERRANOS                                                              00000000066S
0819950510524900000105401PEDRO GARCIA GARCIA                                                                   00000000051N
0819950510524900000105401MIGUEL ANGEL JIMENEZ GARCIA                                                           00000000055N
0819950510524900000105401JOSE LUIS REDONDO MARTIN                                                              00000000059S
0819950510524900000105401JESUS GARCIA PEREZ                                                                    00000000052N
0819950510524900000207304JULIAN MANUEL BERMEJO SANCHEZ                                                         00000000071S
0819950510524900000207304JOAQUIN MARTIN GARCIA                                                                 00000000057S
0819950510524900000207304IGNACIO GARCIA BLAZQUEZ                                                               00000000075S
0819950510524900000207304EMILIO MAÑOSO BUESO                                                                   00000000076S
0819950510524900000207304DONATO PERALES COBOS                                                                  00000000013N
0819950510525100000209405MARCOS MONTERO BLAZQUEZ                                                               00000000071S
0819950510525100000209405JUAN RAMON MARTIN JIMENEZ                                                             00000000066S
0819950510525100000209405FRANCISCO MONTERO HERNANDEZ MARTIN                                                    00000000093S
0819950510525100000209405EULOGIO ROBLEDILLO PEREZ                                                              00000000060S
0819950510525100000209405BRAULIO SANTOS JIMENEZ SACRISTAN                                                      00000000085S
0819950510525200000105403PABLO JIMENEZ NIETO                                                                   00000000056S
0819950510525200000105403GREGORIO LOPEZ NIETO                                                                  00000000050S
0819950510525200000105403EUGENIO MUÑOZ MUÑOZ                                                                   00000000056S
0819950510525200000202301VICTOR MANUEL JIMENEZ MARTIN                                                          00000000023N
0819950510525200000202301MARINO JIMENEZ MUÑOZ                                                                  00000000023N
0819950510525200000202301ISMAEL JIMENEZ MARTIN                                                                 00000000024S
0819950510525200016204801M. MAGDALENA BARTOLOME GONZALEZ                                                       00000000048S
0819950510525300000102900MARIA VICTORIA RODRIGUEZ MAROTO                                                       00000000025N
0819950510525300000102900IGNACIO GARCIA GONZALEZ                                                               00000000031N
0819950510525300000102900HORACIO GARCIA GONZALEZ                                                               00000000026N
0819950510525300000102900ANDRES GARCIA GONZALEZ                                                                00000000035N
0819950510525300000207205TERESA DE JESUS GARCIA GONZALEZ                                                       00000000043S
0819950510525300000207205MODESTO JIMENEZ ARRIBAS                                                               00000000082S
0819950510525300000207205MARIA ALEJANDRA GARCIA FERNANDEZ                                                      00000000063S
0819950510525300000207205JOSE BERMEJO GARCIA                                                                   00000000056S
0819950510525300000207205FRANCISCO GONZALEZ GALAN                                                              00000000042S
0819950510525600000100900LORENZO GOMEZ GONZALEZ                                                                00000000009N
0819950510525600000205902LUCIANO MARTIN JIMENEZ                                                                00000000037N
0819950510525600000205902JULIO JUAN ROMERO MARTIN                                                              00000000039N
0819950510525600000205902JESUS GUTIERREZ JIMENEZ                                                               00000000038N
0819950510525600000205902FRANCISCO COELLO GONZALEZ                                                             00000000062S
0819950510525600000205902EDUARDO SANCHIDRIAN MUÑOZ                                                             00000000058S
0819950510525605256106703PEDRO MUÑOZ JIMENEZ                                                                   00000000056S
0819950510525605256106703PASCUAL SANCHIDRIAN MUÑOZ                                                             00000000039N
0819950510525605256106703ISIDRO MUÑOZ MUÑOZ                                                                    00000000062S
0819950510525605256106703FRANCISCA DIAZ MARTIN                                                                 00000000053N
0819950510525605256106703ENRIQUE JAVIER JIMENEZ JIMENEZ                                                        00000000057S
0819950510525800000103502VICENTE CUENCA HERNANDEZ                                                              00000000030N
0819950510525800000103502MAXIMO MARTIN GARCIA                                                                  00000000024N
0819950510525800000103502JUVENTINO GALAN MARTIN                                                                00000000041S
0819950510525800000103502ANTONIO MIGUEL GARCIA                                                                 00000000043S
0819950510525800000206503ROSA MARIA CUENCA CUENCA                                                              00000000041N
0819950510525800000206503MARCOS MARAZUELA LOPEZ                                                                00000000035N
0819950510525800000206503MANUEL ROMERO CARPIO                                                                  00000000060S
0819950510525800000206503FRUTOS GARCIA GALAN                                                                   00000000070S
0819950510525800000206503FELIPE GUTIERREZ FERNANDEZ                                                            00000000054S
0819950510525900000209804PEDRO JOSE SENOVILLA CALLEJO                                                          00000000094S
0819950510525900000209804MATIAS CALLEJO SANZ                                                                   00000000103S
0819950510525900000209804JESUS LOPEZ RODRIGUEZ                                                                 00000000096S
0819950510525900000209804DATIVO RODRIGUEZ GARCIA                                                               00000000100S
0819950510525900016206901MARCELINO LOPEZ ALONSO                                                                00000000067N
0819950510525900016206901JUAN JOSE LOPEZ GONZALEZ                                                              00000000067N
0819950510525900016206901JOSE MIGUEL MUÑOYERRO SACRISTAN                                                       00000000004N
0819950510525900016206901JOSE LUIS RODRIGUEZ VILLA                                                             00000000065N
0819950510525900016206901FRANCISCO JAVIER LOPEZ GOMEZ                                                          00000000074S
0819950510526100000203505SATURNINO SANCHEZ CARRETERO                                                           00000000034S
0819950510526100000203505PAULINO DIAZ LOPEZ                                                                    00000000040S
0819950510526100000203505JUSTINO HERNANDEZ BLAZQUEZ                                                            00000000024S
0819950510526100000203505JUSTINIANO DOMINGUEZ HERNANDEZ                                                        00000000012S
0819950510526100000203505FELIX HERNANDEZ SANCHEZ                                                               00000000029S
0919950510526400000100900PABLO GUTIERREZ DEL BOSQUE                                                            00000000009N
0919950510526400000205901SONSOLES GONZALEZ LOPEZ                                                               00000000059S
0819950510526500000205405PEDRO HERNANDO JIMENEZ                                                                00000000058S
0819950510526500000205405MANUEL BLAZQUEZ GONZALEZ                                                              00000000044S
0819950510526500000205405JULIO JIMENEZ JIMENEZ                                                                 00000000049S
0819950510526500000205405JOSE JIMENEZ JIMENEZ                                                                  00000000026S
0819950510526500000205405CREMENCIO MARTIN GARCIA                                                               00000000039S
0819950510526600000109504PEDRO HERNANDEZ JIMENEZ                                                               00000000094S
0819950510526600000109504JUAN ZAMORA JIMENEZ                                                                   00000000091S
0819950510526600000109504JESUS JIMENEZ BLAZQUEZ                                                                00000000101S
0819950510526600000109504ABILIO GOMEZ BLAZQUEZ                                                                 00000000094S
0819950510526600000204201LEONARDO JIMENEZ BLAZQUEZ                                                             00000000045S
0819950510526600000204201DANIEL PEREZ MARTIN                                                                   00000000040N
0819950510526600000204201ANTONIO JIMENEZ ZAMORA                                                                00000000041N
0819950510526700000205105NARCISO PRIETO LERALTA                                                                00000000043S
0819950510526700000205105INOCENCIO JIMENEZ PRIETO                                                              00000000032S
0819950510526700000205105ENRIQUE CAMPORBIN DE MATIAS                                                           00000000045S
0819950510526700000205105DARIO CAMPORBIN FRAILE                                                                00000000037S
0819950510526700000205105AURORA LUNA MATIAS                                                                    00000000045S
0919950510900100000201101CARLOS DELGADO CUEVAS                                                                 00000000011S
0819950510900600000102601TARSICIO GARCIA BARCENA                                                               00000000025N
0819950510900600000102601JOSE PEREZ RUIZ                                                                       00000000025N
0819950510900600000102601JESUS MARIA UGARTE CUEVA                                                              00000000027S
0819950510900600000102601BENEDICTO GOMEZ ALONSO                                                                00000000025N
0819950510900600000102601ADOLFO BARCENA SAEZ                                                                   00000000000N
0819950510900600000205104LUIS GONZALEZ SAIZ                                                                    00000000051S
0819950510900600000205104JUAN GREGORIO FERNANDEZ DE LA PEÑA                                                    00000000007N
0819950510900600000205104JOSE ANGEL FERNANDEZ MARTINEZ                                                         00000000046S
0819950510900600000205104JAVIER GARCIA BARCENA                                                                 00000000049S
0819950510900600000205104AGUSTINA MARTINEZ MARTINEZ                                                            00000000049S
0819950510900700000103100RICARDO MANZANEDO MANZANEDO                                                           00000000024N
0819950510900700000103100JOSE ANTONIO MANZANEDO MANZANEDO                                                      00000000032N
0819950510900700000103100JOAQUIN MANZANEDO GIL                                                                 00000000007N
0819950510900700000103100CONSTANTINO BARRIOCANAL LOPEZ                                                         00000000030N
0819950510900700000103100BENITO MANZANEDO GIL                                                                  00000000030N
0819950510900700000206105MILAGROS VARGA GOMEZ                                                                  00000000052S
0819950510900700000206105MARIA CRUZ MARTINEZ CALZADA                                                           00000000046S
0819950510900700000206105LUIS MIGUEL MARTINEZ GIL                                                              00000000047S
0819950510900700000206105JOSE LUIS MARTINEZ CALZADA                                                            00000000047S
0819950510800200001607804VALENTI RIERA I VILAPLANA (CDC)                                                       00000000078S
0819950510800200001607804SALVADOR SERRA I CARBONELL (INDEPENDENT)                                              00000000046N
0819950510800200001607804PERE ALIAGUILLA I ARNAO (INDEPENDENT)                                                 00000000082S
0819950510800200001607804MARIA ANGELS SERRA I VILARDELL (INDEPENDENT)                                          00000000058S
0819950510800200001607804JOAN TORRA I ESTRUCH (INDEPENDENT)                                                    00000000046S
0819950510800200001706601MARCEL PERRAMON I CLARENA                                                             00000000066S
0819950510800200014600300FRANCESC GONZALEZ MUÑOZ (PSC-PSOE)                                                    00000000003N
0819950510800800001605203ROSA VILAPLANA I VALLDEPERES (INDEPENDENT)                                            00000000070S
0819950510800800001605203JOSEP MARIA PUJO I ALBAREDA (INDEPENDENT)                                             00000000065S
0819950510800800001605203ISIDRE DAVINS I CLARET (INDEPENDENT)                                                  00000000060S
0819950510800800001605203ISIDRE BIOSCA I MASIP (UDC)                                                           00000000004N
0819950510800800001605203ANTONI BALCELLS I VILAPLANA (UDC)                                                     00000000007N
0819950510800800001703502LLUIS GASSO I JAUMA (INDEPENDENT)                                                     00000000002N
0819950510800800001703502JOSE MARIA GASSO I GOMA (INDEPENDENT)                                                 00000000063S
0819950510800800001703502JOSE ALBAREDA I QUERALT (INDEPENDENT)                                                 00000000066S
0819950510800800001703502JOAN BALCELLS I COLILLAS (INDEPENDENT)                                                00000000003N
0819950510800800001703502GABRIEL ENRICH I FIGUERAS (INDEPENDENT)                                               00000000004N
0819950510800800009900000RICARDO CAMPENY GRIFOL (PARTIT POPULAR)                                               00000000000N
0819950510800800009900000MARIA DEL PILAR SERVANDO VAQUERIZO (PARTIT POP)                                       00000000000N
0819950510800800009900000MARIA DE LOS DOLORES VERGES CAMPS (PARTIT POP)                                        00000000000N
0819950510800800009900000MARIA DE LA TRINIDAD ESPINOSA CARMONA (PARTIT POP)                                    00000000000N
0819950510800800009900000JUAN JOSE FERNANDEZ JIMENEZ (PARTIT POPULAR)                                          00000000000N
0819950510800808008103400RAMON CORTES LOPEZ                                                                    00000000037N
0819950510800808008103400MARIA MIQUEL CARPI                                                                    00000000036N
0819950510800808008103400JOSEP MARIA TAIXE VILANA                                                              00000000003N
0819950510800808008103400JOAN TORRALBAS MORERA                                                                 00000000030N
0819950510800808008103400JOAN SOLA MIRET                                                                       00000000030N
0819950510900700000206105ALEJANDRO GONZALEZ GONZALEZ                                                           00000000050S
0819950510900900000105404PEDRO BLANCO SUBIÑAS                                                                  00000000059S
0819950510900900000105404MARIANO RUIZ CASADO                                                                   00000000045S
0819950510900900000105404MARIA SONIA ESPIGA VALDIVIESO                                                         00000000041S
0819950510900900000105404JOSE ARCE GONZALEZ                                                                    00000000043S
0819950510900900000105404ALFREDO ARLANZON PARDO                                                                00000000026N
0819950510900900000203301PEDRO MARIA MARISCAL GARCIA                                                           00000000033S
0819950510900900000203301ANTONIO PEREZ BUSTAMANTE                                                              00000000032N
0919950510901000000101300RICARDO SAGREDO GOMEZ                                                                 00000000013N
0919950510901000000203901LORENZO SAN JUAN SAEZ                                                                 00000000039S
0819950510901100000103901RAMIRO FERNANDEZ ARGUESO                                                              00000000027N
0819950510901100000103901JOSE MARIA LOPEZ SAIZ                                                                 00000000035N
0819950510901100000103901JOSE ANTONIO FERNANDEZ GOMEZ                                                          00000000020N
0819950510901100000103901ENRIQUE VALLEJO SAIZ                                                                  00000000029N
0819950510901100000103901BERNARDO MARTIN PEREZ                                                                 00000000044S
0819950510901100000204504PEDRO LOPEZ SAIZ                                                                      00000000048S
0819950510901100000204504JOSE SIERO SIMAL                                                                      00000000039S
0819950510901100000204504JESUS SAIZ RUIZ                                                                       00000000013N
0819950510901100000204504JESUS PEÑA GUTIERREZ                                                                  00000000038S
0819950510901100000204504ALFONSO SEDANO SENDINO                                                                00000000042S
0819950510901200000104401ROBERTO DIEZ RODRIGUEZ (INDEPENDIENTE)                                                00000000038N
0819950510901200000104401MIGUEL VARONA RUIZ (INDEPENDIENTE)                                                    00000000042S
0819950510901200000104401JOSE EMILIO QUINTERO TAGLE (INDEPENDIENTE)                                            00000000021N
0819950510901200000104401JESUS ANGEL ISLA GALLO (INDEPENDIENTE)                                                00000000037N
0819950510901200000104401ANGEL SAIZ SAINZ (INDEPENDIENTE)                                                      00000000037N
0819950510901200000206004NOE ISIDRO PUENTE RUBIO                                                               00000000027N
0819950510901200000206004LUIS GUTIERREZ HERBOSA                                                                00000000057S
0819950510901200000206004JUAN JOSE TERCEÑO RODRIGUEZ                                                           00000000041S
0819950510901200000206004JAVIER FERNANDEZ RODRIGUEZ                                                            00000000064S
0819950510901200000206004ABILIO RODRIGUEZ BUSTAMANTE                                                           00000000052S
0919950510901300000201901JOSE LUIS GONZALEZ CANTERA                                                            00000000019S
0919950510901600000203201MARTIN MADRID TORRE                                                                   00000000032S
0819950510901700000104701OSCAR ARAUZO PEREZ                                                                    00000000049N
0819950510901700000104701JOSE MARIA SANZ BALLESTEROS                                                           00000000051S
0819950510901700000104701JOSE BALLESTEROS MARTINEZ                                                             00000000042N
0819950510901700000104701GERARDO CUESTA ZAPATERO                                                               00000000044N
0819950510901700000206504NAZARIO BALLESTEROS ZAPATERO                                                          00000000060S
0819950510901700000206504MARIA DEL PILAR ENCINAS PORCEL                                                        00000000069S
0819950510901700000206504LUIS BALLESTEROS GALLEGO                                                              00000000066S
0819950510901700000206504JULIO BALLESTEROS VILLALAIN                                                           00000000066S
0819950510901900000107705JULIA CAMARA GONZALO                                                                  00000000052S
0819950510901900000107705JOSE MARTINEZ LOPEZ (INDEPENDIENTE)                                                   00000000071S
0819950510901900000107705JOSE MARIA CAMARA JUEZ (INDEPENDIENTE)                                                00000000053S
0819950510901900000107705JOSE MANUEL CARAZO MARTINEZ                                                           00000000050S
0819950510901900000107705JOSE JAVIER MARTINEZ HERREDERO                                                        00000000080S
0919950510902100000203701JULIAN PASCUAL CORUÑA                                                                 00000000037S
0819950510902200000206005NICOMEDES REVILLA HERNANDO                                                            00000000062S
0819950510902200000206005JUAN JOSE BRIONGOS MERINO                                                             00000000042S
0819950510902200000206005JACINTO BRIONGOS CAMARA                                                               00000000039S
0819950510902200000206005BERNARDO HERNANDO UNGIL                                                               00000000051S
0819950510902200000206005AGUSTIN MERINO MARINA                                                                 00000000044S
0819950510902300000215905MIGUEL ANGEL GARCIA DE LA FUENTE                                                      00000000114S
0819950510902300000215905MANUEL FUENTE SAIZ                                                                    00000000138S
0819950510902300000215905JESUS IZARRA SEBASTIAN                                                                00000000154S
0819950510902300000215905BIENVENIDO GONZALEZ VALDIVIESO                                                        00000000155S
0819950510902300000215905AQUILINO DEL RIO PARA                                                                 00000000075S
0819950510902400000205803MANUEL CUESTA GONZALO                                                                 00000000057S
0819950510902400000205803FELIX IBAÑEZ GIL                                                                      00000000060S
0819950510902400000205803EUGENIO DE LA SERNA GUERRERO                                                          00000000056S
0919950510902700000202101SALVADOR MORQUILLAS MARINA                                                            00000000021S
0819950510902900000203805JERONIMO FAUNDEZ ENRIQUE                                                              00000000021S
0819950510902900000203805JAIME RODRIGO CERDA                                                                   00000000036S
0819950510902900000203805ISMAEL MENA CERDA                                                                     00000000043S
0819950510902900000203805ELIAS GARCIA MARTINEZ                                                                 00000000026S
0819950510902900000203805ABEL ELIAS GARCIA MENA                                                                00000000025S
0819950510903000000103401JUAN JOSE LOPEZ DE LAS HERAS                                                          00000000010N
0819950510903000000103401JOSE MARIA SANTAMARIA SANTOS                                                          00000000026N
0819950510903000000103401CIPRIANO SAIZ SAIZ                                                                    00000000039S
0819950510903000000103401CELESTINO CANTERO ESPINOSA                                                            00000000031N
0819950510903000000103401ANDRES CERRATO BARTOLOME                                                              00000000028N
0819950510903000000205904SATURNINO CANTERO NUÑO                                                                00000000060S
0819950510903000000205904PURIFICACION SAIZ GALLO                                                               00000000058S
0819950510903000000205904JESUS ESPINOSA REOYO                                                                  00000000052S
0819950510903000000205904ESTEBAN NAVARRO MANSILLA                                                              00000000063S
0819950510903000000205904ANTONIO SANCHO ORTEGA                                                                 00000000002N
0819950510903200000106405SERAFIN ALAMEDA ALONSO                                                                00000000048S
0819950510903200000106405JOSE LUIS SANTILLAN SAIZ                                                              00000000039S
0819950510903200000106405JOSE ANTONIO CAMARA CABAÑES                                                           00000000062S
0819950510903200000106405ISMAEL GRANDE CABAÑES                                                                 00000000057S
0819950510903200000106405EMILIO ANDRES SAIZ                                                                    00000000051S
0819950510903300002105105MARIA DEL CARMEN PALOMINO MARTINEZ                                                    00000000050S
0819950510903300002105105GERARDO ORCAJO DE JUAN                                                                00000000047S
0819950510903300002105105BENITO SIERRA SANTILLAN                                                               00000000036S
0819950510903300002105105ARTURO LAZARO AYALA                                                                   00000000047S
0819950510903300002105105ANA MARIA LAZARO AYALA                                                                00000000025S
0919950510903600000203001ANTONIO ROJAS LOPEZ                                                                   00000000030S
0919950510903600022200500JACINTO DIEZ VIADAS                                                                   00000000005N
0819950510903700000204305RAMON MARTINEZ GARCIA (INDEPENDIENTE)                                                 00000000045S
0819950510903700000204305JUAN CARLOS MILLAN GONZALEZ                                                           00000000036S
0819950510903700000204305GREGORIO GALLO CAMARERO                                                               00000000032S
0819950510903700000204305FERNANDO VIÑAS MIÑAN                                                                  00000000030S
0819950510504300000207905SEVERO ENRIQUE RODRIGUEZ                                                              00000000065S
0819950510504300000207905MIGUEL ANGEL RODRIGUEZ PORTERO                                                        00000000066S
0819950510504300000207905FELIPE AYUSO MUÑOZ                                                                    00000000063S
0819950510504300000207905CARMELO DURAN MARTIN                                                                  00000000062S
0819950510504300000207905BASILIO CABRERO MARTIN                                                                00000000061S
0819950510504500000205704SALVADOR LOPEZ MARTIN                                                                 00000000054S
0819950510504500000205704JUAN MANUEL MARTIN RODRIGUEZ                                                          00000000043S
0819950510504500000205704GUILLERMO HERNANDEZ MARTIN                                                            00000000043S
0819950510504500000205704GREGORIO HOLGADO HOLGADO                                                              00000000046S
0819950510504500000205704EUGENIO MARTIN HERNANDEZ                                                              00000000041N
0819950510504500016203201RICARDO SAEZ MARTIN                                                                   00000000023N
0819950510504500016203201JUAN ANTONIO HUERTA HOLGADO                                                           00000000032N
0819950510504500016203201IRENEO HERNANDEZ MARTIN                                                               00000000042S
0919950510504600000101100JOSE DURAN FERNANDEZ                                                                  00000000011N
0919950510504600000203301EMILIANO AYUSO ANTONIO                                                                00000000033S
0819950510504800000209205JUAN JOSE MARTINEZ GUTIERREZ                                                          00000000089S
0819950510504800000209205FELIX MARTIN GARCIA                                                                   00000000063S
0819950510504800000209205DANIEL MOISES GONZALEZ NIÑO                                                           00000000055S
0819950510504800000209205CLAUDINO GARCIA MARTIN                                                                00000000094S
0819950510504800000209205ANTONIO MARTIN ENCINAR                                                                00000000066S
0819950510505200000101800PEDRO GOMEZ ESTRELLA                                                                  00000000020N
0819950510505200000101800MANUEL JIMENEZ NIETO                                                                  00000000021N
0819950510505200000101800EUTIMIO LLORENTE LLORENTE                                                             00000000013N
0819950510505200000205604MATIAS MONTESANO HERNANDEZ                                                            00000000060S
0819950510505200000205604EMILIO LOPEZ SANCHEZ                                                                  00000000023N
0819950510505200000205604ELEUTERIO GAÑAN MARTIN                                                                00000000060S
0819950510505200000205604DOMINGO LOPEZ LLORENTE                                                                00000000040S
0819950510505200000205604ANTONIO HERNANDEZ HERNANDEZ                                                           00000000042S
0819950510505200016202001MARIANO SANCHEZ PERIBAÑEZ                                                             00000000014N
0819950510505200016202001JOSE IGNACIO ALONSO MORALES                                                           00000000026S
0819950510505300000100400JUAN CANO DEL RIO                                                                     00000000004N
0819950510505300000207205JOSE MANUEL JIMENEZ ZAZO                                                              00000000052S
0819950510505300000207205JESUS YONTE HERRAEZ                                                                   00000000054S
0819950510505300000207205GERMAN HERRAEZ JIMENEZ                                                                00000000065S
0819950510505300000207205EMILIANO JIMENEZ GUTIERREZ                                                            00000000069S
0819950510505300000207205AMELIA M. JIMENEZ GARCIA                                                              00000000049S
0819950510505300016202400JULIO MUÑOZ PRIETO                                                                    00000000038N
0819950510505300016202400JULIAN MORENO SANCHEZ                                                                 00000000024N
0819950510505300016202400CATALINO JIMENEZ MUÑOZ                                                                00000000017N
0819950510505300016202400ANGEL MUÑOZ SANCHEZ                                                                   00000000016N
0819950510505600000204802JUAN FRANCISCO GIL VELAZQUEZ                                                          00000000046N
0819950510505600000204802JUAN CARLOS ZURDO LOPEZ                                                               00000000024N
0819950510505600000204802GREGORIO DEL RIO GONZALEZ                                                             00000000056S
0819950510505600000204802FRANCISCO JAVIER COLLADO GUTIERREZ                                                    00000000066S
0819950510505600016206603JOSE RAUL GIL SASTRE                                                                  00000000065S
0819950510505600016206603ISMAEL LOPEZ ALONSO                                                                   00000000063S
0819950510505600016206603FERNANDO DIAZ GONZALEZ                                                                00000000022N
0819950510505600016206603EMILIANO ANTONIO CERMEÑO                                                              00000000053N
0819950510505600016206603ADOLFO LEGIDO DIAZ                                                                    00000000061S
0819950510505800000206204JUAN JIMENEZ DELGADO                                                                  00000000052S
0819950510505800000206204FRANCISCO J. JIMENEZ SANCHEZ                                                          00000000068S
0819950510505800000206204DEMETRIO JIMENEZ DOMINGUEZ                                                            00000000064S
0819950510505800000206204ANDRES MONTES REDONDO                                                                 00000000065S
0819950510505900000106203MANUELA NIETO ALONSO                                                                  00000000059S
0819950510505900000106203JOSE MARTIN JIMENEZ                                                                   00000000067S
0819950510505900000106203ANTONIO MUÑOZ DEL CERRO                                                               00000000060S
0819950510505900000206502MARIO DIAZ MORENO                                                                     00000000060S
0819950510505900000206502JUAN CARLOS JIMENEZ HERNANDEZ                                                         00000000070S
0819950510506000000211705NICOLAS GUTIERREZ HARO                                                                00000000082S
0819950510506000000211705MARIA FRANCISCA GUTIERREZ IZQUIERDO                                                   00000000117S
0819950510506000000211705JUAN JOSE MARTIN NIÑO                                                                 00000000103S
0819950510506000000211705JOSE RODRIGUEZ GUTIERREZ                                                              00000000088S
0819950510506000000211705ASUNCION MARTIN RODRIGUEZ                                                             00000000076S
0819950510506005060103500MANUEL GUTIERREZ RODRIGUEZ                                                            00000000036N
0819950510506005060103500JUAN PARADINAS DE DIOS                                                                00000000033N
0819950510506005060103500JOSE ANTONIO RODRIGUEZ MARTIN                                                         00000000031N
0819950510506005060103500JOSE ANTONIO GALLEGO DAVILA                                                           00000000039N
0819950510506005060103500CANDIDO GONZALEZ SANCHEZ                                                              00000000002N
0819950510506100000105803RAUL PINDADO COLLADO                                                                  00000000058S
0819950510506100000105803PASCUAL ALBERTO HERNANDEZ MONTERO                                                     00000000039N
0819950510506100000105803MARCELINO HERRAEZ MARTIN                                                              00000000061S
0819950510506100000105803JUAN CARLOS MONTERO MUÑOZ                                                             00000000073S
0819950510506100000205802LUIS JIMENEZ DEL POZO                                                                 00000000053S
0819950510506100000205802LUIS HERRAEZ MUÑOZ                                                                    00000000038N
0819950510506100000205802JAVIER MUÑOZ DEL POZO                                                                 00000000064S
0819950510506100000205802BENEDICTO MARTIN MUÑOZ                                                                00000000038N
0819950510506100000205802ALFONSO JIMENEZ MUÑOZ                                                                 00000000039N
0819950510506300000205305PAULINO GOMEZ ALVAREZ                                                                 00000000045S
0819950510506300000205305JUAN JULIAN SANCHEZ PERAL                                                             00000000035S
0819950510506300000205305FRANCO MARCOS HERNANDEZ                                                               00000000038S
0819950510506300000205305EVELIO RIOS GONZALEZ                                                                  00000000042S
0819950510506300000205305ELIODORO JIMENEZ PERAL                                                                00000000050S
0819950510506400000207405MARTIN-RAMON GUERRA GONZALEZ                                                          00000000048S
0819950510506400000207405JUAN-SANTOS LOPEZ MUÑOZ                                                               00000000050S
0819950510506400000207405JOSE LOPEZ MARTIN                                                                     00000000045S
0819950510506400000207405JACINTO HERNANDEZ DIAZ                                                                00000000060S
0819950510506400000207405BERNABE LOPEZ ASENSIO                                                                 00000000094S
0819950510506700000104702JULIANA JIMENEZ HERNANDEZ                                                             00000000034S
0819950510506700000104702JORGE ALONSO ARRIBAS                                                                  00000000060S
0819950510506700000206203LEONILO ARRIBAS SANCHEZ                                                               00000000057S
0819950510506700000206203JESUS BLAZQUEZ BLAZQUEZ                                                               00000000066S
0819950510506700000206203ANGEL JIMENEZ MARTIN                                                                  00000000063S
0819950510506900000205204ZOSIMO SANTAMARIA RODRIGUEZ                                                           00000000041S
0819950510506900000205204VICTORINO MARIANO RODRIGUEZ SANTAMARIA                                                00000000060S
0819950510506900000205204VICENTE GUTIERREZ HERNANDO                                                            00000000045S
0819950510506900000205204LUIS DE JUAN PERRINO                                                                  00000000018N
0819950510506900000205204HERMENEGILDO CANORA RODRIGUEZ                                                         00000000042S
0819950510506900016203701JUAN FRANCISCO RODRIGUEZ RODRIGUEZ                                                    00000000034N
0819950510506900016203701JESUS VICTOR GONZALEZ ZURDO                                                           00000000032N
0819950510506900016203701HERMINIO S. RODRIGUEZ SANTAMARIA                                                      00000000038N
0819950510506900016203701ANGEL TOMAS RODRIGUEZ GARCIA                                                          00000000044S
0919950510507000000102701LEOCADIO TOMAS GIBAJA ALONSO                                                          00000000027S
0919950510507000000202500LUIS ANGEL GONZALEZ AGUERO                                                            00000000025N
0819950510507200000105204JOSE ANTONIO CALLEJO LOPEZ                                                            00000000046S
0819950510507200000105204FEDERICO DOMINGUEZ DOMINGUEZ                                                          00000000044S
0819950510507200000105204FABIAN HERNANDEZ HIDALGO                                                              00000000059S
0819950510507200000105204ENRIQUE RUEDA SACRISTAN                                                               00000000057S
0819950510507200000203601CESAR CUENCA BERMUDEZ                                                                 00000000037S
0819950510507200000203601ALEJANDRO JESUS CUENCA DOMINGUEZ                                                      00000000035N
0819950510507500000103701PABLO MAYORGA MANCEBO                                                                 00000000013N
0819950510507500000103701MARIANO MANCEBO GOMEZ                                                                 00000000047S
0819950510507500000103701MARIA ISABEL MAYORGA ROSCO                                                            00000000027N
0819950510507500000103701JULIO JIMENEZ MARTIN                                                                  00000000019N
0819950510507500000103701ANGEL MORUEGO PEREZ                                                                   00000000040N
0819950510507500000205704VICTORIANO JARO PRIETO                                                                00000000059S
0819950510507500000205704JOSE MORENO FERNANDEZ                                                                 00000000065S
0819950510507500000205704ISABEL JARO PRIETO                                                                    00000000050S
0819950510507500000205704ENRIQUE SANCHEZ GARZON                                                                00000000053S
0819950510507800000103700MARIA JOSE DIAZ LOPEZ (I)                                                             00000000039N
0819950510507800000103700MARIA DEL CARMEN MIGUEL PAÑERO (I)                                                    00000000031N
0819950510507800000103700ALEJANDRO GARCIA ENRIQUEZ.PSOE                                                        00000000042N
0819950510507800000210805MARIANO ANTOLIN MUÑOZ MARTIN                                                          00000000078S
0819950510507800000210805JOSE MARIA MEDIERO GARCIA                                                             00000000064S
0819950514907900003606503PEDRO DELGADO FERRERO                                                                 00000000066S
0819950514907900003606503LORENZO ARSENIO NUÑEZ VALADO                                                          00000000062S
0819950514907900003606503CARLOS DELGADO MARTINEZ                                                               00000000067S
0819950514908300000101200LUIS JAVIER CAMPO RODRIGUEZ                                                           00000000012N
0819950514908300000205505JUAN CARLOS CARBAJO CARBAJO                                                           00000000047S
0819950514908300000205505JOSE MARIA DOMINGUEZ CHILLON                                                          00000000040S
0819950514908300000205505FELICITAS MARTIN RUIZ                                                                 00000000054S
0819950514908300000205505ELVIRA VELASCO MORILLO                                                                00000000039S
0819950514908300000205505ANA ISABEL CASTRO MASERO                                                              00000000040S
0819950514908600000101900ANTONIA PASTOR MANTECA                                                                00000000019N
0819950514908600000205403URBANO PASTOR MANTECA                                                                 00000000063S
0819950514908600000205403MARIA JESUS PRIETO GONZALEZ                                                           00000000051S
0819950514908600000205403JOSE ANTONIO GOMEZ BARBA                                                              00000000041N
0819950514908600000205403EVELIO TEMPRANO MANZANO                                                               00000000062S
0819950514908600039506002LEONCIO MASERO PASTOR (INDEPENDIENTE)                                                 00000000045N
0819950514908600039506002JESUS MARIA BAZ MARTIN (INDEPENDIENTE)                                                00000000049N
0819950514908600039506002IGNACIO PASTOR TEMPRANO (INDEPENDIENTE)                                               00000000037N
0819950514908600039506002HELIODORO MIRANDA DOMINGUEZ (INDEPENDIENTE)                                           00000000057S
0819950514908600039506002FELIX MARTIN MIRANDA (INDEPENDIENTE)                                                  00000000050S
0819950514908800000104704MARCELINA PEÑA MARTIN                                                                 00000000047S
0819950514908800000104704CEFERINO PASCUAL PASCUAL                                                              00000000048S
0819950514908800000104704BERNARDO CRESPO LUENGO                                                                00000000048S
0819950514908800000104704ANTONIO MARINO MARINO                                                                 00000000044S
0819950514908800000204201MANUEL MARTIN BARRIOS                                                                 00000000043S
0819950513716700000104601FRANCISCO JAVIER PILO GARCIA                                                          00000000046N
0819950513716700000104601ANDRES FAGUNDEZ GARCIA                                                                00000000051S
0819950513716700000208804RUFINO FUENTES CACHORRO                                                               00000000075S
0819950513716700000208804JUAN AGUSTIN FRAILE NIETO                                                             00000000028N
0819950513716700000208804FELIPE BARBERO DE LA ROSA                                                             00000000084S
0819950513716700000208804ENRIQUE ANDRES ARNES                                                                  00000000085S
0819950513716700000208804ANTONIO PEREZ RUANO                                                                   00000000080S
0819950513716700010100200JOSE MANUEL SANCHEZ CARABIAS                                                          00000000002N
0819950513717600000107404JUAN FRANCISCO GASCON SALGADO                                                         00000000077S
0819950513717600000107404HONORIO CIUDAD GUINALDO                                                               00000000066S
0819950513717600000107404BERNARDINO GUINALDO GUINALDO                                                          00000000072S
0819950513717600000107404ANGEL ANTONIO HERNANDEZ MAILLO                                                        00000000080S
0819950513717600000206201ROBERTO GUINALDO GUINALDO                                                             00000000065N
0819950513717600000206201PABLO SALGADO GASPAR                                                                  00000000058N
0819950513717600000206201DAVID MARCOS GUINALDO                                                                 00000000065S
0819950513717600000206201ANGELA ISABEL MARTIN SALGADO                                                          00000000061N
0819950513717800000106401TERESA GARCIA AREVALO                                                                 00000000071S
0819950513717800000106401MARIA TERESA NIETO CARRETERO                                                          00000000060N
0819950513717800000106401FRANCISCO LOSADA CORRAL                                                               00000000061N
0819950514908800000204201JUAN JOSE MARTIN RAMOS                                                                00000000042N
0819950514908800000204201BENJAMIN MARINO PASCUAL                                                               00000000042N
0819950514908800000204201BAUTISTA PASCUAL MARTIN                                                               00000000040N
0819950514909700000103100NICOLAS FERNANDEZ SALVADOR                                                            00000000030N
0819950514909700000103100JOSE ANTONIO LOBATO LANSEROS                                                          00000000025N
0819950514909700000103100ISIDRO DIEZ OTERO                                                                     00000000033N
0819950514909700000103100FRANCISCO LAFUENTE LOBATO                                                             00000000035N
0819950514909700000207405SANTIAGO SASTRE GARCIA                                                                00000000040S
0819950514909700000207405MIGUEL SEBASTIAN NIETO CARBALLO                                                       00000000083S
0819950514909700000207405JOSE MANUEL LANSEROS DOMINGUEZ                                                        00000000061S
0819950514909700000207405ANGEL LOSADA LAFUENTE                                                                 00000000075S
0819950514909700000207405ANDRES PARAMIO FERRERO                                                                00000000038S
0819950514909900000107704SANTIAGO CRESPO FERNANDEZ (IND.).                                                     00000000076S
0819950514909900000107704MANUEL REFOYO FERNANDEZ (IND.).                                                       00000000076S
0819950514909900000107704JOSE CAMPO ALFONSO (IND.).                                                            00000000080S
0819950514909900000107704FERNANDO FERNANDEZ BARRIGON (IND.).                                                   00000000076S
0819950514909900000207101TEOFILO GATO PINO                                                                     00000000070N
0819950514909900000207101MARIA CRESPO FINEZ                                                                    00000000072S
0819950514909900000207101JOSE ANTONIO VARA CRESPO                                                              00000000072N
0819950514909900000207101ISMAEL FERNANDEZ FERNANDEZ                                                            00000000071N
0819950514911100000104000JOSE REQUEJO FERNANDEZ                                                                00000000038N
0819950514911100000104000ISAIAS RUANO ARGUELLO                                                                 00000000045N
0819950514911100000104000FRANCISCO JAVIER CALVO FERRERO                                                        00000000037N
0819950514911100000104000BENJAMIN ARGUELLO RIOS                                                                00000000039N
0819950514911100000213205VALERIANO SERRANO GOMEZ                                                               00000000090S
0819950514911100000213205PURIFICACION MEZQUITA GONZALEZ                                                        00000000088S
0819950514911100000213205EUTIMIO CONTRA GALVAN                                                                 00000000154S
0819950514911100000213205DIEGO CARRILLO MEZQUITA                                                               00000000091S
0819950514911100000213205ANTONIO LOPEZ ILLANA                                                                  00000000106S
0819950514911200000109304VALENTIN CARBAJAL PEREZ                                                               00000000086S
0819950514911200000109304DIEGO ROMAN ARIAS                                                                     00000000094S
0819950514911200000109304BENITO ESCUDERO PRIETO                                                                00000000101S
0819950514911200000109304BASILIO VEGA CHARRO                                                                   00000000090S
0819950514911200000204701VICTOR PRIETO SANTIAGO                                                                00000000004N
0819950514911200000204701RAMIRO LOBATO LOBATO                                                                  00000000051S
0819950514911200000204701RAFAEL RIVERA PEREZ                                                                   00000000042N
0819950514911200000204701LEOPOLDO LOZANO PRIETO                                                                00000000049N
0819950513717800000106401ANDRES GARCIA MARCOS                                                                  00000000062N
0819950513717800000209004REMIGIO BLAZQUEZ BLAZQUEZ                                                             00000000097S
0819950513717800000209004MANUEL ANDRES HERNANDEZ VICENTE                                                       00000000086S
0819950513717800000209004JOSE LUIS SALINERO RUANO                                                              00000000081S
0819950513717800000209004ANGEL CUSTODIO MONZON HERNANDEZ                                                       00000000094S
0819950513718000000100100LOURDES CALVO SANCHEZ                                                                 00000000001N
0819950513718000000205705MANUEL PACHO SANCHEZ                                                                  00000000045S
0819950513718000000205705JULIAN AGUSTIN RUANO DELGADO                                                          00000000059S
0819950513718000000205705ISAAC DEL ARCO DELGADO                                                                00000000065S
0819950513718000000205705ANGEL GARCIA GARCIA                                                                   00000000028S
0819950513718000000205705ALEJANDRO DELGADO HERNANDEZ                                                           00000000031S
0819950513718000010102600PERFECTO SANCHEZ SANCHEZ                                                              00000000026N
0919950513718200000102600ANGELA MONTES DOMINGUEZ                                                               00000000026N
0919950513718200000204601ASUNCION VICENTE RECIO                                                                00000000046S
0819950513718600000103501MIGUEL MARTIN SANCHEZ                                                                 00000000029N
0819950513718600000103501JOSE LUIS GARRIDO APARICIO                                                            00000000040S
0819950513718600000208804MANUEL DIEZ MIGUEL                                                                    00000000094S
0819950513718600000208804JUAN JESUS MARTIN IZQUIERDO                                                           00000000090S
0819950513718600000208804ARTURO BERROCAL RAMOS                                                                 00000000082S
0819950513718600000208804ANTONIO GONZALEZ VICENTE                                                              00000000084S
0819950513718900000107504PATRICIO SAN JOSE MARTIN                                                              00000000078S
0819950513718900000107504MARCELINO GARCIA OLIVA                                                                00000000069S
0819950513718900000107504JOAQUIN ISIDRO MARTIN RUBIO (INDEPENDIENTE)                                           00000000077S
0819950513718900000107504FRANCISCO SANTIAGO SANCHEZ SANCHEZ                                                    00000000077S
0819950513718900000205501LUIS SANCHEZ HERNANDEZ                                                                00000000055N
0819950513718900000205501JEREMIAS TABERNERO FUENTES                                                            00000000052N
0819950513718900000205501FELIPE CALVO ALVAREZ                                                                  00000000057S
0819950513718900000205501ENRIQUE SERRANO HERNANDEZ                                                             00000000054N
0819950513719100000102300MARIA DEL PILAR FERNANDEZ TIMON                                                       00000000023N
0819950513719100000209805MARCOS VICENTE SANCHEZ                                                                00000000075S
0819950513719100000209805MANUEL RODRIGUEZ ARROYO                                                               00000000091S
0819950513719100000209805JOSE ANTONIO SANCHEZ VILLORIA                                                         00000000074S
0819950513719100000209805ISIDORO SANCHEZ VICENTE                                                               00000000070S
0819950513719100000209805ANGEL MARTIN VALLE                                                                    00000000080S
0819950513719200000106305TOMAS GONZALEZ SANCHEZ                                                                00000000063S
0819950513719200000106305SANTIAGO PEZ MINGUELA                                                                 00000000049S
0819950513719200000106305IGNACIO JAVIER MARTIN GOMEZ                                                           00000000048S
0819950513719200000106305FIDEL AMORES VITAR                                                                    00000000043S
0819950513719200000106305EUGENIO AMORES VITAR                                                                  00000000048S
0919950513719500000104401TOMAS HERNANDEZ HERNANDEZ                                                             00000000044S
0919950513719500000104401OBDULIA HERNANDEZ HERNANDEZ                                                           00000000000N
0919950513719500000200000ANTONIO CHAMORRO CASADO                                                               00000000000N
0819950514719200000207105MARIA ANA VARGAS DE FRIAS                                                             00000000058S
0819950514719200000207105MARCELO ALVAREZ DOMINGUEZ                                                             00000000045S
0819950514719200000207105JUAN CARLOS FERNANDEZ FERNANDEZ                                                       00000000068S
0919950514719600000203801RAFAEL ESCOBAR RUIZ                                                                   00000000038S
0819950514719800000204705TEOGENES HERNANDEZ CIMAS                                                              00000000045S
0819950514719800000204705MARIA PILAR BLANCO FUENTES                                                            00000000022S
0819950514719800000204705JOSE LUIS PEREZ GALLEGO                                                               00000000039S
0819950514719800000204705JAVIER ARSENIO DEL AMO HERRERO                                                        00000000033S
0819950514719800000204705FELIPE FRANCISCO ROJO GALLEGO                                                         00000000048S
0819950514719900000204805MARIA YOLANDA RODRIGUEZ FRANCISCO                                                     00000000039S
0819950514719900000204805EUQUERIO CUADRILLERO GONZALEZ                                                         00000000046S
0819950514719900000204805DIONISIO FERNANDEZ SANCHEZ                                                            00000000046S
0819950514719900000204805ANGEL LUIS PARDO LOPEZ                                                                00000000024S
0819950514719900000204805ALEJANDRO PARDO GONZALEZ                                                              00000000038S
0819950514720000000206505PABLO MIGUEL ALONSO DE LA MERCED                                                      00000000069S
0819950514720000000206505JOSE MARIA GONZALEZ REY                                                               00000000049S
0819950514720000000206505ISAIAS REY RUIZ                                                                       00000000033S
0819950510512305123105105JOSE MIGUEL GALAN AREVALO                                                             00000000033S
0819950510512305123105105FELIX JIMENEZ MOÑIVAS                                                                 00000000031S
0819950510512305123105105AURELIO GARCIA GARCIA                                                                 00000000048S
0919950510512500000205001JUAN MANUEL GOMEZ JIMENEZ                                                             00000000050S
0819950510512600000104801VICENTE MARTIN MARTIN                                                                 00000000038N
0819950510512600000104801NARCISO TOMAS GARCIA PEREZ                                                            00000000058S
0819950510512600000207304JUAN DIEGO SANCHEZ DIAZ                                                               00000000072S
0819950510512600000207304GASPAR MARTIN MARTIN                                                                  00000000035N
0819950510903700000204305ADOLFO FELICIANO GARCIA GALLO                                                         00000000028S
0819950510903800000104001RAMON IGNACIO CERREDA HERAS                                                           00000000025N
0819950510903800000104001MAXIMO SANTAMARIA MORENO                                                              00000000006N
0819950510903800000104001MARIA DEL CARMEN MORAL HORTIGUELA                                                     00000000037N
0819950510903800000104001JOSE ANTONIO SANCHO HERAS                                                             00000000045N
0819950510903800000104001ELOY MARAÑON VICARIO                                                                  00000000046S
0819950510903800000204501TEODORO BRANDO GARRIDO                                                                00000000009N
0819950510903800000204501MARIANO MIGUEL GONZALEZ                                                               00000000041N
0819950510903800000204501MARIANO GONZALEZ DE DOMINGO                                                           00000000048S
0819950510903800000204501JULIAN HERNANDO HURTADO                                                               00000000045N
0819950510903800000204501EMILIANO VICARIO HERAS                                                                00000000036N
0819950510903809038105903ESTEBAN IBAÑEZ ELVIRA                                                                 00000000052S
0819950510903809038105903EDUARDO MUÑOZ GARCIA                                                                  00000000063S
0819950510903809038105903DANIEL GONZALEZ DEL ALAMO                                                             00000000062S
0819950510903900000205205RICARDO CARDERO IZQUIERDO                                                             00000000053S
0819950510903900000205205PATRICIO GARCIA PERALTA                                                               00000000057S
0819950510903900000205205MIGUEL ANGEL HOYUELOS QUINTANILLA                                                     00000000028S
0819950510903900000205205BRAULIO CEREZO GARCIA                                                                 00000000032S
0819950510903900000205205ANGEL FELIX CARDERO SANTAMARIA                                                        00000000036S
0919950510904100000100000JESUS ALONSO CALVO                                                                    00000000000N
0919950510904100000202001PEDRO LONGINOS GOMEZ DE LA PEÑA                                                       00000000020S
0919950510904400000203701EMILIANO LUCAS GIL                                                                    00000000037S
0919950510904400022101800MELCHOR ANTON PEREZ                                                                   00000000018N
0919950510904600000203001MARINO AGUSTIN SAN MARTIN                                                             00000000030S
0919950510904700000204301MIGUEL ANGEL DE LA PEÑA GONZALEZ                                                      00000000043S
0819950510905000000203905JUAN MANUEL RAMIREZ ALAVA                                                             00000000033S
0819950510905000000203905JOSE RAMON ORIVE CORCUERA                                                             00000000037S
0819950510905000000203905JOSE MIGUEL RAMIREZ ROBREDO                                                           00000000035S
0819950510905000000203905JOSE MIGUEL ARBAZAGOITIA PEREA                                                        00000000028S
0819950510905000000203905JESUS MARIA GUINEA RAMIREZ                                                            00000000024S
0919950510905200000201701JESUS SALVADOR                                                                        00000000017S
0819950510905409054104804MOISES MOLINUEVO AYALA                                                                00000000048S
0819950510905409054104804FRUCTUOSO FUENTE CUEZVA                                                               00000000003N
0819950510905409054104804FLORENCIO GUINEA MENDOZA                                                              00000000048S
0819950510905409054104804FERNANDO RUIZ DE ANGULO QUINCOCES                                                     00000000049S
0819950510905409054104804BENEDICTO BARREDO GARCIA                                                              00000000044S
0819950510905409054203001JOSE MARIA RUIZ DE ANGULO BUSTO                                                       00000000028N
0819950510905409054203001JOSE ANTONIO CELADA URRUCHI                                                           00000000020N
0819950510905409054203001IGNACIO OLMOS IZARRA                                                                  00000000031S
0819950510905409054203001FERNANDO SALINAS OÑATE                                                                00000000029N
0819950510905409054203001ANGEL MARIANO BUJO ANGULO                                                             00000000011N
0919950510905500000104601RUFINO AGUILERA CARAZO                                                                00000000046S
0819950510905700000204805VICENTE GOMEZ SABANDO (INDEPENDIENTE)                                                 00000000046S
0819950510905700000204805SEVERIANO FERNANDEZ DE LA BASTIDA GOMEZ (INDEP)                                       00000000046S
0819950510905700000204805MARIO CASTILLO ARIN (INDEPENDIENTE)                                                   00000000008S
0819950510905700000204805ENRIQUE DEL VAL VALDERRAMA (INDEPENDIENTE)                                            00000000044S
0819950510905700000204805ANTONIO FERNANDEZ ORTIZ (INDEPENDIENTE)                                               00000000047S
0819950510905800000102101SERGIO SANJUAN BERNAL (INDEPENDIENTE)                                                 00000000022N
0819950510905800000102101JOSE MARIA GREGORIO MEDRANO (INDEPENDIENTE)                                           00000000023S
0819950510905800000102101JESUS PEREZ ESCANILLA                                                                 00000000016N
0819950510905800000102101ESTEBAN GREGORIO MATE                                                                 00000000021N
0819950510905800000200600JAIRO CARLOS HORTIGUELA REVILLA                                                       00000000006N
0819950510905809058108104VENTURA ROQUE GARCIA                                                                  00000000077S
0819950510905809058108104SANTOS DEL VAL ALBILLOS                                                               00000000071S
0819950510905809058108104JOSE ANTONIO DE LA FUENTE ALONSO                                                      00000000011N
0819950510905809058108104FRANCISCO PUENTE BARRERA                                                              00000000087S
0819950510905809058108104DAMASO DEL VAL GARCIA                                                                 00000000077S
0819950514911200000204701ANSELMO RENILLA ESTEBAN                                                               00000000043N
0819950514911200004201400SANTIAGO SANTIAGO SANTIAGO                                                            00000000013N
0819950514911200004201400JOSE LUIS LOBO LOBATO                                                                 00000000019N
0819950514911200004201400GIL SANTIAGO BLANCO                                                                   00000000021N
0819950514911200004201400DOMINGO LOBATO LOBATO                                                                 00000000003N
0819950514911200004201400CARLOS CARBAJAL PEREZ                                                                 00000000000N
0919950514911400000100500FELIPE CALZADA SANTIAGO                                                               00000000005N
0919950514911400000205801MARCELINO FRADEJAS LORENZO                                                            00000000058S
0819950514912000000103601PEDRO FERRERO LOPEZ                                                                   00000000030N
0819950514912000000103601ELOY PEREZ CADIERNO                                                                   00000000041S
0819950514912000000205604SERAFIN APARICIO LOZANO                                                               00000000050S
0819950514912000000205604JOSO GALLEGO LOZANO                                                                   00000000047S
0819950514912000000205604JOSO ARANGO ARANGO                                                                    00000000054S
0819950514912000000205604JESUS ENRIQUE OSORIO LOBO                                                             00000000039S
0819950514912000000205604FRANCISCO SALGADO FERRERO                                                             00000000033N
0819950514914800000101300MANUEL LOZANO SAN PEDRO                                                               00000000013N
0919950512800100000102501AGUSTIN GARCIA GONZALEZ                                                               00000000025S
0919950512800100000201900VICTORIANO SANZ ARAUJO                                                                00000000019N
0819950512800300000101000JOSE MARIA SANCHEZ LIZCANO                                                            00000000008N
0819950512800300000101000ERNESTO LOPEZ GARCIA                                                                  00000000015N
0819950512800300000101000CONCEPCION RAMIRO ALGABA                                                              00000000006N
0819950512800300000206004FUENCISLA SANZ SANZ                                                                   00000000059S
0819950512800300000206004FLORENTINO SANZ MARTIN                                                                00000000063S
0819950512800300000206004ELISA SANZ ALONSO                                                                     00000000069S
0819950512800300000206004ADOLFO MARTIN VELASCO                                                                 00000000048S
0819950512800300031001901MARTINA GARCIA GARCIA                                                                 00000000057S
0819950512800300031001901MARIA ISABEL GIL BAUTISTA                                                             00000000007N
0819950512800300031001901M. ADORACION TORIJANO LORENZO                                                         00000000004N
0819950512800300031001901EVA TORIJANO LORENZO                                                                  00000000002N
0819950512800300031001901CRISTINA CHARFOLE HERNANDEZ                                                           00000000006N
0819950510512600000207304FRANCO BULLON HERNANDEZ                                                               00000000060S
0819950510512600000207304FELIX GARCIA GARCIA                                                                   00000000055S
0819950510512600000207304AGUSTIN GALVEZ MONJE                                                                  00000000068S
0819950510513000000104001MARTIN FERNANDEZ RODRIGUEZ                                                            00000000035N
0819950510513000000104001ISABELO HERRAEZ MUÑOZ                                                                 00000000041N
0819950510513000000104001EUTIQUIO PRIETO HERNANDEZ                                                             00000000045S
0819950510513000000205804MARIA SONSOLES FERNANDEZ BLANCO                                                       00000000015N
0819950510513000000205804MARIA ADORACION RESCO DEL NOGAL                                                       00000000055S
0819950510513000000205804JUAN CARLOS GONZALEZ DEL NOGAL                                                        00000000057S
0819950510513000000205804JOSE MARIA GONZALEZ GONZAGA                                                           00000000061S
0819950510513000000205804JOSE LUIS HERNANDEZ RESCO                                                             00000000042S
0819950510513300000100400VENANCIO CANO DEL RIO                                                                 00000000004N
0819950510513300000204205MAXIMO LOPEZ FERNANDEZ                                                                00000000027S
0819950510513300000204205MARIA ISABEL ARRIBAS HERRAEZ                                                          00000000043S
0819950510513300000204205JULIAN PINDADO RAMOS                                                                  00000000029S
0819950510513300000204205EUTIQUIO GONZALEZ GIL                                                                 00000000038S
0819950510513300000204205DOMINGO HERRAEZ HERRAEZ                                                               00000000031S
0819950510513300004501000HILARIO CALVO HERNANDEZ                                                               00000000010N
0919950510513400000101800VIDAL DE LA FUENTE PEREZ                                                              00000000018N
0919950510513400000203701FELIX ALVAREZ DEL ALBA                                                                00000000037S
0819950510513600000105602SANTIAGO MARTIN DIAZ                                                                  00000000064S
0819950510513600000105602RAFAEL GARCIA LOPEZ                                                                   00000000051N
0819950510513600000105602MARIA DEL ROCIO BLAZQUEZ JIMENEZ                                                      00000000051N
0819950510513600000105602EUSEBIO DIAZ JIMENEZ                                                                  00000000057S
0819950510513600000206703VICENTE MARTIN MENDOZA                                                                00000000059S
0819950510513600000206703PABLO CORREDERA MARTIN                                                                00000000064S
0819950510513600000206703MARIA INMACULADA LOPEZ GARCIA                                                         00000000039N
0819950510513600000206703JOSE IGNACIO RODRIGUEZ DIAZ                                                           00000000050N
0819950510513600000206703EDUARDO LOPEZ GOMEZ                                                                   00000000055S
0819950510513900000100500MARIA CASTAÑAR GUZMAN                                                                 00000000005N
0819950510513900000205305MAXIMO LOPEZ AVILA                                                                    00000000050S
0819950510513900000205305MAXIMO JIMENEZ JIMENEZ                                                                00000000051S
0819950510513900000205305JULIAN CARLOS JIMENEZ JIMENEZ                                                         00000000024S
0819950510513900000205305BALTASAR JIMENEZ GARCIA                                                               00000000037S
0819950510513900000205305ADRIAN LOPEZ SANCHEZ                                                                  00000000050S
0819950510514000000100400JUAN MANUEL GONZALEZ MARTIN                                                           00000000004N
0819950510514000000100400JUAN FRANCISCO GONZALEZ SANCHEZ                                                       00000000004N
0819950510514000000206004VICTOR GONZALEZ JIMENEZ                                                               00000000062S
0819950510514000000206004VICENTE SOTO MEDIERO                                                                  00000000059S
0819950510514000000206004ISABEL DEL CURA SANTO DOMINGO                                                         00000000059S
0819950510514000000206004AMADOR HERNANDEZ MARTIN                                                               00000000060S
0819950510514005140103301RODRIGO NARRILLOS GARCIA                                                              00000000031S
0819950510514005140103301MACARIO LOPEZ HERNANDEZ                                                               00000000029N
