072009061999999000032049TMARIA ROSA               ARINES                   CABALLERO                F00000000          N
072009061999999000032050TJUAN CARLOS              RODRIGUEZ                ACOSTA                   M00000000          N
072009061999999000034001TNURIA                    SUAREZ                   HERNANDEZ                F00000000          N
072009061999999000034002TJUAN                     FUSTER                   PEIRO                    M00000000          N
072009061999999000034003TJUANA                    VILLENA                  PATERNA                  F00000000          N
072009061999999000034004TROSA ESTEFANIA           PEREZ                    FERNANDEZ                F00000000          N
072009061999999000034005TANTONIO                  RUIZ                     PRADANOS                 M00000000          N
072009061999999000034006TESPERANZA                RICO                     MORAL                    F00000000          N
072009061999999000034007TMARIA FUENSANTA          GARCES DE LOS FAYOS      MONTESINOS               F00000000          N
072009061999999000034008TJOSE CARLOS              VAZQUEZ                  GONZALEZ                 M00000000          N
072009061999999000034009TSANTIAGO PABLO           TEROL                    CABALLERO                M00000000          N
072009061999999000034010TANTONIO                  BARBA                    MARTI                    M00000000          N
072009061999999000034011TMANUELA                  RUIZ                     MARTINEZ                 F00000000          N
072009061999999000034012TANGELICA                 GARZON                   UMERENKOVA               F00000000          N
072009061999999000034013TMANUEL ANGEL             SANCHEZ                  DURAN                    M00000000          N
072009061999999000034014TANA LUISA                BLASCO                   PEGO                     F00000000          N
072009061999999000034015TSERGIO                   LARREDONDA               GONZALEZ                 M00000000          N
072009061999999000034016TSARA                     MONTERO                  SANCHEZ                  F00000000          N
072009061999999000034017TMARIA DOLORES            MINUESA                  SORIA                    F00000000          N
072009061999999000034018TDIEGO                    RUANO                    RUBIO                    M00000000          N
072009061999999000034019TJUAN ANDRES              PEREZ                    JULIAN                   M00000000          N
072009061999999000034020TJOAN ENRIC               CUNYAT                   TAMARIT                  M00000000          N
072009061999999000034021TMANUEL                   BERTI                    PUIG                     M00000000          N
072009061999999000034022TMARIA DE LAS MERCEDES    DE LA TORRE              MONTESINO                F00000000          N
072009061999999000034023TSANTIAGO                 OLALLA                   MORENO                   M00000000          N
072009061999999000034024TDIANA                    PLAZA                    SANCHEZ                  F00000000          N
072009061999999000034025TJOSE MARIA               SAEZ                     ABAD                     M00000000          N
072009061999999000034026TDOLORES                  RICO                     MORAL                    F00000000          N
072009061999999000034027TJOAN CARLES              CALDENTEY                MATHEU                   M00000000          N
072009061999999000034028TDIVINA PASTORA           FERNANDEZ                GARCIA                   F00000000          N
072009061999999000034029TSONIA                    FERRANDO                 COMPANY                  F00000000          N
072009061999999000034030TJORDI                    MARTINEZ                 RIGOL                    M00000000          N
072009061999999000034031TCONCEPCION               MARTINEZ                 MARTI                    F00000000          N
072009061999999000034032TRAMON                    LAMBAN                   ALASTUEY                 M00000000          N
072009061999999000034033TJORGE                    GARCIA                   ALEGRIA                  M00000000          N
072009061999999000034034TPASCUALA                 GOMEZ                    INIESTA                  F00000000          N
072009061999999000034035TISABEL MARIA             MARTINEZ                 OJEDA                    F00000000          N
072009061999999000034036TFRANCESC SERGIO          IBAÑEZ                   LAFFORT                  M00000000          N
072009061999999000034037TANA MARIA                LUQUE                    SILLERO                  F00000000          N
072009061999999000034038TJOSE ANTONIO             FERNANDEZ                CABELLO                  M00000000          N
072009061999999000034039TANA MARIA                BURRIEL                  NAVARRO                  F00000000          N
072009061999999000034040TMARCELO JOSE             ARMENGOT                 IBORRA                   M00000000          N
072009061999999000034041TJOAQUIN                  TORRES                   MORENO                   M00000000          N
072009061999999000034042TJOSE                     MORILLAS                 LOPEZ                    M00000000          N
072009061999999000034043TLAURA                    SEXER                    PEREZ                    F00000000          N
072009061999999000034044TJOSE GREGORIO            MORILLAS                 CANTERO                  M00000000          N
072009061999999000034045TELODIA VERACRUZ          POQUET                   VICTORIA                 F00000000          N
072009061999999000034046TANTONIO DAVID            CUARTERO                 USAN                     M00000000          N
072009061999999000034047TRICARDO JOSE             MARTINEZ                 MONTLLOR                 M00000000          N
072009061999999000034048TANA                      GARCIA                   CLAVER                   F00000000          N
072009061999999000034049TMARIA ENCARNACION        VALLE                    FERNANDEZ                F00000000          N
072009061999999000034050TPABLO                    MARTINEZ                 ESCANCIANO               M00000000          N
072009061999999000035001TJOSE BLAS                ORTEGA                   LLAVADOR                 M00000000          N
072009061999999000035002TANA ISABEL               GONZALEZ                 MARISCAL                 F00000000          N
072009061999999000035003TJESUS                    BEJAR                    SANCHEZ                  M00000000          N
072009061999999000035004TMIGUEL                   GONZALEZ                 MENDOZA                  M00000000          N
072009061999999000035005TISABEL                   CERDA                    MARTIN                   F00000000          N
072009061999999000035006TJESUS MARIA              PEREZ                    MARTINEZ                 M00000000          N
072009061999999000035007TPEDRO                    FELIP                    BUADES                   M00000000          N
072009061999999000035008TPAULA                    SANCHEZ                  CERDA                    F00000000          N
072009061999999000035009TENRIQUE                  SANCHEZ                  COLLADO                  M00000000          N
072009061999999000035010TIRANTZU                  GONZALEZ                 OLIVEIRA                 F00000000          N
072009061999999000031004TZESAR                    CORELLA                  ESCARIO                  M00000000          N
072009061999999000031005TM. ANGELES               MAESTRO                  MARTIN                   F00000000          N
072009061999999000031006TJOSE LUIS                MENDEZ                   FERRIN                   M00000000          N
072009061999999000031007TANTONIO                  SARDA                    ARTILES                  M00000000          N
072009061999999000031008TGLORIA                   PEREZ                    BERROCAL                 F00000000          N
072009061999999000031009TALICIA                   PEREZ                    HERRANZ                  F00000000          N
072009061999999000031010TANTONIO NICOLAS          MAIRA                    RODRIGUEZ                M00000000          N
072009061999999000031011TJAIME                    LOSADA                   BADIA                    M00000000          N
072009061999999000031012TCONCEPCION               BOSCH                    RIERA                    F00000000          N
072009061999999000031013TCELIA                    CAMPS                    PEREZ                    F00000000          N
072009061999999000037028TMARIA DEL SAGRARIO       TEJEDOR                  TEJEDOR                  F00000000          N
072009061999999000037029TJOSE IGNACIO             BLASCO                   TORREJON                 M00000000          N
072009061999999000037030TOLAIA                    RODRIGUEZ                CANABAL                  F00000000          N
072009061999999000037031TJAVIER                   VILAPLANA                POTTECHER                M00000000          N
072009061999999000037032TMARIA JESUS              URBANO                   URBANO                   F00000000          N
072009061999999000037033TMANUEL                   GRANADO                  VILLA                    M00000000          N
072009061999999000037034TMARIA YOLANDA            IRISARRI                 IRIBERRI                 F00000000          N
072009061999999000037035TFRANCISCO JAVIER         BATRES                   SANCHEZ                  M00000000          N
072009061999999000037036TMARIA LUISA              GARCIA DE LA RIVA        VALLIER                  F00000000          N
072009061999999000037037TJOSE ANTONIO             LUMBRERAS                TRICIO                   M00000000          N
072009061999999000037038TMARIA                    FERNANDEZ                ROLDAN                   F00000000          N
072009061999999000037039TERNESTO                  MAHIQUES                 ESPI                     M00000000          N
072009061999999000037040TEDITH                    RODON                    BRUNNER                  F00000000          N
072009061999999000037041TEUGENIO                  MUÑOZ                    FELIPE                   M00000000          N
072009061999999000037042TMARIA LUISA              GABALDON                 MAROTO                   F00000000          N
072009061999999000037043TPABLO                    SEGADO                   GARCIA DE LA RIVA        M00000000          N
072009061999999000037044TOLGA                     PARDO                    AYUSO                    F00000000          N
072009061999999000037045TMIGUEL ANGEL             ROMERO                   JUNQUERA                 M00000000          N
072009061999999000037046TMIRIAM                   HIDALGO                  LOPEZ                    F00000000          N
072009061999999000037047TLUIS ALFREDO             FILLOY                   PALMERO                  M00000000          N
072009061999999000037048TMARIA AMADA              CARRERO                  PRIETO                   F00000000          N
072009061999999000037049TJOAQUIN PABLO            SEGADO                   BIXQUERT                 M00000000          N
072009061999999000037050TMARIA ISABEL             RODRIGUEZ                FERNANDEZ                F00000000          N
072009061999999000035011TPABLO LUCAS              GARCIA CANO              LOCATELLI                M00000000          N
072009061999999000035012TFRANCISCA                RAMIREZ                  LOPEZ                    F00000000          N
072009061999999000035013TDANIEL                   CUADRADO                 GONZALEZ                 M00000000          N
072009061999999000035014TJOSEFA MARIA             AFONSO                   ORTIZ                    F00000000          N
072009061999999000035015TRAFAEL                   AGUILERA                 SANCHEZ                  M00000000          N
072009061999999000035016TJOSE LUIS                SANCHEZ                  MARTIN                   M00000000          N
072009061999999000035017TLOURDES LUISA            BARRIGA                  MUÑOZ                    F00000000          N
072009061999999000035018TJOSE FRANCISCO           DOMINGUEZ                SEVILLA                  M00000000          N
072009061999999000035019TEVA                      GONZALEZ                 GUILLAMON                F00000000          N
072009061999999000035020TFRANCISCO JAVIER         CEPEDA                   GONZALEZ                 M00000000          N
072009061999999000035021TMARIA ADORACION          MARTIN                   AGUIRRE                  F00000000          N
072009061999999000035022TJOSE ANTONIO             ALMEIA                   ESCOBEDO                 M00000000          N
072009061999999000035023TMARIA ANGELES            MARTINEZ                 ALONSO                   F00000000          N
072009061999999000035024TJOSE MARIA               CALZADA                  DOLADE                   M00000000          N
072009061999999000035025TMANUEL                   CAPILLA                  CAMARILLAS               M00000000          N
072009061999999000035026TIKER                     MIGUEL                   ESCUREDO                 M00000000          N
072009061999999000035027TENRIQUE                  HERRERO                  HERAS                    M00000000          N
072009061999999000035028TYOLANDA                  MARTINEZ                 MAHILLO                  F00000000          N
072009061999999000035029TRAQUEL                   SOTILLOS                 SERRANO                  F00000000          N
072009061999999000035030TENRIQUE                  DARGALLO                 GUERRA                   M00000000          N
072009061999999000035031TMIGUEL ANGEL             GONZALEZ                 SOIA                     M00000000          N
072009061999999000035032TMARIA REYES              BURGOS                   CANTOS                   F00000000          N
072009061999999000035033TJOSE ANTONIO             POZO                     GONZALEZ                 M00000000          N
072009061999999000035034TLUIS                     ARIAS DE REYNA           FERRERO                  M00000000          N
072009061999999000035035TROSA                     AUTRIC                   CRESPO                   F00000000          N
072009061999999000035036TJOSE ANTONIO             GARCIA                   VAZQUEZ                  M00000000          N
072009061999999000035037TTAMARA                   GIL                      SOMOZA                   F00000000          N
072009061999999000035038TLUIS JAVIER              MIGUEL                   MORO                     M00000000          N
072009061999999000035039TJOSE MARIA               CIMA                     FERNANDEZ                M00000000          N
072009061999999000035040TEVA                      COBO                     SANCHEZ                  F00000000          N
072009061999999000035041TJUSTINO GREGORIO         NDONGO                   NCHAMA                   M00000000          N
072009061999999000035042TANTONIO JUAN             GARCIA                   MORENO                   M00000000          N
072009061999999000035043TJULIA                    GONZALEZ                 BURGOS                   F00000000          N
072009061999999000035044TJOSE ANTONIO             NOVOA                    GONZALEZ                 M00000000          N
072009061999999000035045TLARA AZAHARA             ORTIZ                    RAMIREZ                  F00000000          N
072009061999999000035046TCARLOS                   RIVERA                   ROMERO                   M00000000          N
072009061999999000035047TANTONIO JUAN             JULVE                                             M00000000          N
072009061999999000035048TISABEL                   PIZARRO                  GARCIA                   F00000000          N
072009061999999000035049TMIKEL                    DIAZ                     VAZQUEZ                  M00000000          N
072009061999999000035050TMARIBEL                  DARGALLO                 GUERRA                   F00000000          N
072009061999999000036001TMARIO                    ARBESU                   IGLESIAS                 M00000000          N
072009061999999000036002TARTURU XOSE              BERMEYU                  GARCIA                   M00000000          N
072009061999999000036003TPALOMA                   GARCIA                   FERNANDEZ                F00000000          N
072009061999999000036004TMARIA DEL CARME          PEREZ                    ANTOLIN                  F00000000          N
072009061999999000036005TPAULO                    ARBOLEYA                 CANTELI                  M00000000          N
072009061999999000036006TPABLO                    RIOS                     SUAREZ                   M00000000          N
072009061999999000036007TDANIEL                   CUELI                    CANTO                    M00000000          N
072009061999999000036008TLLUCIA                   FERNANDEZ                MARQUES                  F00000000          N
072009061999999000036009TXICU XABEL               FERNANDI                 GUERTA                   M00000000          N
072009061999999000036010TMARIA SANDRA             SANTOS                   GARCIA                   F00000000          N
072009061999999000036011TANTONIO                  MARTINEZ                 FERNANDEZ                M00000000          N
072009061999999000036012TALEJANDRO                VEGA                     ACOSTA                   M00000000          N
072009061999999000036013TDULCE MARIA              GIL                      FERNANDEZ                F00000000          N
072009061999999000036014TMARIA DOLORES            SUAREZ                   VALLINA                  F00000000          N
072009061999999000036015TPABLO                    PEREZ                    FONSECA                  M00000000          N
072009061999999000036016TROCIO                    COLUNGA                  BERMEJO                  F00000000          N
072009061999999000036017TPAULA                    ARBESU                   IGLESIAS                 F00000000          N
072009061999999000036018TMARTIN                   POLADURA                 BERROS                   M00000000          N
072009061999999000036019TFERNAN                   GONZALI                  LLECHOSA                 M00000000          N
072009061999999000036020TLUIS                     FANJUL                   QUELLE                   M00000000          N
072009061999999000036021TVANESSA                  CUELI                    CANTO                    F00000000          N
072009061999999000036022TMARCOS ABEL              FERNANDEZ                MARQUES                  M00000000          N
072009061999999000036023TMARIA ROSARIO            FERNANDEZ                FUENTES                  F00000000          N
072009061999999000036024TXESUS NEL                GARCIA                   MUÑIZ                    M00000000          N
072009061999999000036025TJUAN FRANCISCO           SANTOS                   VISO                     M00000000          N
072009061999999000036026TFERNANDA MARIA           RODRIGUEZ                GONZALEZ                 F00000000          N
072009061999999000036027TLUCAS                    DIAZ                     ROZADA                   M00000000          N
072009061999999000036028TSAUL                     VALDES                   CASAL                    M00000000          N
072009061999999000036029TANA ISABEL               RIOS                     SUAREZ                   F00000000          N
072009061999999000036030THECTOR                   ALVAREZ                  VIZCAINO                 M00000000          N
072009061999999000036031TCATUXA LLARA             BERMEYU                  XIL                      F00000000          N
072009061999999000036032TDAVID                    SANTOS                   VISO                     M00000000          N
072009061999999000036033TRAQUEL                   DIAZ                     DIAZ                     F00000000          N
072009061999999000036034TDIEGO                    DIAZ                     MARTINO                  M00000000          N
072009061999999000036035TXOSE RAMON               FERNANDEZ                GONZALEZ                 M00000000          N
072009061999999000036036TJOSE ANTONIO             ARBESU                   IGLESIAS                 M00000000          N
072009061999999000036037TSUSANA                   CANTO                    GARCIA                   F00000000          N
072009061999999000036038TROCIO                    GARCIA                   AVIS                     F00000000          N
072009061999999000036039TDIEGO                    SAN JOSE                 HUERGO                   M00000000          N
072009061999999000036040TJOSE LUIS                FERNANDEZ                BUELGA                   M00000000          N
072009061999999000036041TVANESA                   FERNANDEZ                VILLA                    F00000000          N
072009061999999000036042TMARIA ANTONIA            FERNANDEZ                TASCON                   F00000000          N
072009061999999000036043TJOAQUIN                  GARCIA                   ALONSO                   M00000000          N
072009061999999000036044TSALVADOR                 SANTOS                   ROMERO                   M00000000          N
072009061999999000036045TOSCAR                    FERNANDEZ                TASCON                   M00000000          N
072009061999999000036046TMARIA CARMEN             MARQUES                  LOPEZ                    F00000000          N
072009061999999000036047TLORENA                   ORDIZ                    SALAN                    F00000000          N
072009061999999000036048TIVAN                     MARTINEZ                 SANCHEZ                  M00000000          N
072009061999999000036049TMANUEL                   CORTE                    SUAREZ                   M00000000          N
072009061999999000036050TMARCOS                   MENENDEZ                 VALLE                    M00000000          N
072009061999999000037001TJOSE IGNACIO             MARTINEZ                 GARCIA                   M00000000          N
072009061999999000037002TMARIA CARMEN             JIMENEZ                  SILES                    F00000000          N
072009061999999000037003TJOSE LUIS                ALVAREZ                  CEDENA                   M00000000          N
072009061999999000037004TJOSEFA                   ROBLES                   GARRIDO                  F00000000          N
072009061999999000037005TALFONSO                  HERNANDEZ                ALONSO                   M00000000          N
072009061999999000037006TESTHER                   GRANDA                   CACERES                  F00000000          N
072009061999999000037007TJOSE MANUEL              VAZQUEZ                  RIOS                     M00000000          N
072009061999999000037008TTERESA                   QUINTANILLA              REDONDO                  F00000000          N
072009061999999000037009TJOSE                     SOBRINO                  CALDADO                  M00000000          N
072009061999999000037010TGLORIA                   LOPEZ                    LOPEZ                    F00000000          N
072009061999999000037011TANGEL MARIO              RUBIO                    PINAR                    M00000000          N
072009061999999000037012TTERESA                   RUSO                     BERNARDO                 F00000000          N
072009061999999000037013TMIGUEL ANGEL             FERNANDEZ                RODRIGUEZ                M00000000          N
072009061999999000037014TMARIA LUISA              GONZALEZ                 GALEANO                  F00000000          N
072009061999999000037015TJULIAN                   MUÑOZ                    FELIPE                   M00000000          N
072009061999999000037016TANTONIA                  VILLEGAS                 DOMENE                   F00000000          N
072009061999999000037017TPEDRO PABLO              MARTIN                   HERNANDEZ                M00000000          N
072009061999999000037018TDOLORES MARIA            AGUILERA                 RAMOS                    F00000000          N
072009061999999000037019TVICTORINO                RODRIGUEZ                FRANCO                   M00000000          N
072009061999999000037020TMONTSERRAT               CURULL                   IBORRA                   F00000000          N
072009061999999000037021TBERNARDO                 SAMANIEGO                GOMEZ                    M00000000          N
072009061999999000037022TBEATRIZ                  PALANCA                  REYES                    F00000000          N
072009061999999000037023TLUIS                     SILVA                    GARCIA                   M00000000          N
072009061999999000037024TVIRGINIA                 LOPEZ                    LOPEZ                    F00000000          N
072009061999999000037025TJOSE MANUEL              MUÑOZ                    FELIPE                   M00000000          N
072009061999999000037026TSILVANA DEL ROCIO        ORTIZ                    DE-NICOLA                F00000000          N
072009061999999000037027TJUAN CARLOS              LEON                     ZAA                      M00000000          N
072009061999999000024024TBALTASAR                 DE CASANOVAS             HASBURG LOTHRINGEN       M00000000          N
072009061999999000024025TMARIA ENRIQUETA          RODRIGUEZ                VALERO                   F00000000          N
072009061999999000024026TAGUSTINA LUCIA           MARTIN                   SANTOS                   F00000000          N
072009061999999000024027TJORGE                    GARCIA                   MULET                    M00000000          N
072009061999999000024028TMARIA CANDELAS           PESCADOR                 GUTIERREZ                F00000000          N
072009061999999000024029TRAQUEL                   SANCHEZ                  CARRERA                  F00000000          N
072009061999999000024030TJULIO                    DEL POZO                 SIMARRO                  M00000000          N
072009061999999000024031TANA ISABEL               GONZALEZ-CORIA           DOMINGUEZ                F00000000          N
072009061999999000024032TVICTOR NICOLAS           ANGOY                    SANCHO                   M00000000          N
072009061999999000024033TANGELES                  MENCHEN                  COLLADO                  F00000000          N
072009061999999000024034TJOSE MARIA               ABAD                     TORRES                   M00000000          N
072009061999999000024035TINMACULADA               TRUJUILLO                GOMEZ                    F00000000          N
072009061999999000024036TELVIRA                   MENDEZ                   DURAN                    F00000000          N
072009061999999000024037TDIEGO                    ESTEBAN                  GARCIA                   M00000000          N
072009061999999000024038TMARIA ARANZAZU           LA PORTE                 FERNANDEZ-ALFARO         F00000000          N
072009061999999000024039TRUTH                     LORTZING                 QUERALT                  F00000000          N
072009061999999000024040TJAIME                    MUÑOZ                    PATIÑO                   M00000000          N
072009061999999000024041TANTONIO                  DIAZ                     LARA                     M00000000          N
072009061999999000024042TMARIA EUGENIA            RIVERA                   GONZALEZ DE RIVERA       F00000000          N
072009061999999000024043TALDO                     CIPRIAN                  RODRIGUEZ                M00000000          N
072009061999999000024044TPEDRO JOSE               ELHOMBRE                 MONTAÑES                 M00000000          N
072009061999999000024045TANGELES                  RIBES                    DUARTE                   F00000000          N
072009061999999000024046TMARIA LUISA              RODRIGUEZ                CABEZAS                  F00000000          N
072009061999999000024047TJOSE VICENTE             FERNANDEZ                ABRIL                    M00000000          N
072009061999999000024048TPETER                    SCHWENZER                PFAU                     M00000000          N
072009061999999000024049TNELIDA                   SANCHIDRIAN              GONZALEZ                 F00000000          N
072009061999999000024050TJESUS                    FRAILE                   MARTIN                   M00000000          N
072009061999999000025001TKRISTIEN                 LESAGE                                            F00000000          N
072009061999999000025002TESTEBAN                  CABAL                    RIERA                    M00000000          N
072009061999999000025003TJOSEP LLUIS              FREIJO                   LIZAN                    M00000000          N
072009061999999000025004TJUAN MANUEL              ROMAN                    ANDRADES                 M00000000          N
072009061999999000025005TMARIA MONTSERRAT         GRAU                     LAMBEA                   F00000000          N
072009061999999000025006TPEP                      RIBAS                    RIBAS                    M00000000          N
072009061999999000025007TAMPARO                   ENCINAS                  MENDOZA                  F00000000          N
072009061999999000025008TMARIA VIRTUDES           CARRERES                 MARTINEZ                 F00000000          N
072009061999999000025009TFRANCISCO JAVIER         MAYORAL                  CROCHE                   M00000000          N
072009061999999000025010TALBERTO JOSE             FONT                     GRANDIA                  M00000000          N
072009061999999000025011TANA                      GONZALEZ                 PEREZ                    F00000000          N
072009061999999000025012TROSA ANA                 RODRIGUEZ                BRESSANI                 F00000000          N
072009061999999000025013TALBERTO                  FUENTES                  FUENTES                  M00000000          N
072009061999999000025014TFRANCISCO                MARTIN                   MADROÑERO                M00000000          N
072009061999999000025015TMARIA BELEN              CARRASCAL                ELIZONDO                 F00000000          N
072009061999999000025016TJUAN OCTAVIO             HERNANDEZ                CABRERA                  M00000000          N
072009061999999000025017TJUAN                     REDONDO                  VILLALBA                 M00000000          N
072009061999999000025018TMARIA CRUZ               PEREZ                    ANCHUELO                 F00000000          N
072009061999999000025019TELVIRA                   CASAJUST                 LOPEZ                    F00000000          N
072009061999999000025020TNAARA                    ZAPATERO                 ARRATIBEL                F00000000          N
072009061999999000025021TMARIA BEGOÑA             RIBALLO                  MINGUEZ                  F00000000          N
072009061999999000025022TJUAN CARLOS              MARTINEZ                 AGUERA                   M00000000          N
072009061999999000025023TMARIA LUZ                GARCIA                   GARCIA                   F00000000          N
072009061999999000025024TRAQUEL                   DE LA CITA               BENITO                   F00000000          N
072009061999999000025025TDANIEL                   VILLALBA                 VIERA                    M00000000          N
072009061999999000025026TTEODORO                  MEDINA                   MURILLO                  M00000000          N
072009061999999000025027TALICIA                   ALCALA                   MORA                     F00000000          N
072009061999999000025028TMIGUEL ANGEL             ROZAS                    SANZ                     M00000000          N
072009061999999000025029TFRANCESC                 ALFAMBRA                 DOMINGUEZ                M00000000          N
072009061999999000025030TROSA                     PELAEZ                   LOZANO                   F00000000          N
072009061999999000025031TJOSE DANIEL              CARNE                    AGUSTI                   M00000000          N
072009061999999000025032TANGELES                  TONDA                    PIMENTEL                 F00000000          N
072009061999999000025033TJOSE FRANCISCO           VICENTE                  RODRIGUEZ                M00000000          N
072009061999999000025034TALBERTO                  CAÑAS                    RAMAL                    M00000000          N
072009061999999000025035TGEMMA                    HERRERA                  PUJOL                    F00000000          N
072009061999999000025036TMONICA                   ATANCE                   JIMENEZ                  F00000000          N
072009061999999000025037TALEJANDRO                FLOREZ                   STUDER                   M00000000          N
072009061999999000025038TEDITH                    MORENO                   GARCIA                   F00000000          N
072009061999999000025039TEDUARDO                  GIL                      DELGADO                  M00000000          N
072009061999999000025040TFRANCESC                 ORTS                     FUSTER                   M00000000          N
072009061999999000025041TMARIA ANGELES            PARDIÑAS                 VIDAL                    F00000000          N
072009061999999000025042TDAVID                    CORTES-RUSSELL           MIQUEL                   M00000000          N
072009061999999000025043TJOSE ANTONIO             GIL                      COMPANY                  M00000000          N
072009061999999000025044TJOSEP                    CARDONA                  VERDERA                  M00000000          N
072009061999999000025045TMARIA DEL ROSARIO        PEREZ                    LOPEZ                    F00000000          N
072009061999999000025046TJOSE                     NARVAEZ                  CALERO                   M00000000          N
072009061999999000025047TALFREDO                  CENARRO                  SANZ                     M00000000          N
072009061999999000025048TNURIA                    VILLAGRASA               SANCHEZ                  F00000000          N
072009061999999000025049TMARIA MAGDALENA          VENTURA                  IBAÑEZ                   F00000000          N
072009061999999000025050TJOSE LUIS                BERDONCES                SERRA                    M00000000          N
072009061999999000026001TJOSE FERNANDO            CANTALAPIEDRA            VILAR                    M00000000          N
072009061999999000026002TMARIA LUISA              CALLEJA                  MAYORDOMO                F00000000          N
072009061999999000026003TLUIS FELIPE              PEREZ                    GUTIERREZ                M00000000          N
072009061999999000026004TEMILIO JAVIER            MARIAT                   GARCIA                   M00000000          N
072009061999999000026005TMARIA DORIS              CHULILLA                 MAIER                    F00000000          N
072009061999999000026006TMANUEL ANGEL             PEREZ                    ALDANA                   M00000000          N
072009061999999000026007TCONSUELO                 BOLADO                   NORIEGA                  F00000000          N
072009061999999000026008TJORGE LUIS               ALVAREZ                  GARCIA-BERNARDO          M00000000          N
072009061999999000026009TMONICA                   GONZALEZ                 MORAIS                   F00000000          N
072009061999999000026010TSINFORIANO               BEZANILLA                BOLADO                   M00000000          N
072009061999999000026011TISABEL MARIA             BLASCO                   AHIS                     F00000000          N
072009061999999000026012TDANIEL                   ABELEIRA                 BLANCO                   M00000000          N
072009061999999000026013TMARIA DEL PILAR          SANZ                     GALLEGO                  F00000000          N
072009061999999000026014TALBERTO JOSE             BLANCO                   ALBAGES                  M00000000          N
072009061999999000026015TVICENTE                  MEJIA                    SEVILLA                  M00000000          N
072009061999999000026016TSILVIA                   AYUSO                    MUÑOZ                    F00000000          N
072009061999999000026017TALFONSO LUIS             SANCHEZ                  GARCIA                   M00000000          N
072009061999999000026018TMARIA BELEN              DE ESPONA                DELGADO                  F00000000          N
072009061999999000026019TEDUARDO                  ORGANISTA                IZQUIERDO                M00000000          N
072009061999999000026020TPURIFICACION             FERNANDEZ                FERNANDEZ                F00000000          N
072009061999999000026021TADRIAN                   ORTEGA                   QUIJANO                  M00000000          N
072009061999999000026022TMARIA DEL CARMEN         MARQUEZ                  BUITRAGO                 F00000000          N
072009061999999000026023TJESUS                    JUARRANZ                 DE HOZ                   M00000000          N
072009061999999000026024TVIRGINIA                 SANCHEZ                  FLORES                   F00000000          N
072009061999999000026025TANDRES                   SALGADO                  ERDMANN                  M00000000          N
072009061999999000026026TVIRGINIA                 LOBATO                   GALINDO                  F00000000          N
072009061999999000026027TFRANCISCO                ESPADA                   BERNAL                   M00000000          N
072009061999999000026028TADELA                    PALOMINO                 VALENCIA                 F00000000          N
072009061999999000026029TPABLO                    GONZALEZ                 GOMEZ                    M00000000          N
072009061999999000026030TGEMA                     ALVAREZ                  EGIDO                    F00000000          N
072009061999999000026031TCAMILO                   CARIDE                   VILLAAMIL                M00000000          N
072009061999999000026032TMARIA EVA                LOBATO                   GALINDO                  F00000000          N
072009061999999000026033TJOSE ANTONIO             PELEGRIN                 PARDOS                   M00000000          N
072009061999999000026034TELISABET                 SANCHEZ                  GRAGERA                  F00000000          N
072009061999999000026035TBARTOLOME                RIPOLLES                 LOPEZ                    M00000000          N
072009061999999000026036TJUANA MARIA              GALLEGO                  HEBRERO                  F00000000          N
072009061999999000026037TJOSE LUIS                ANTONAYA                 CASTAÑO                  M00000000          N
072009061999999000026038TDELIA                    SANCHEZ                  GRAGERA                  F00000000          N
072009061999999000026039TJAVIER                   CUADRADO                 GONZALEZ                 M00000000          N
072009061999999000026040TMARIA DE LAS MERCEDES    SANZ                     GALLEGO                  F00000000          N
072009061999999000026041TRICARDO                  SEGURA                   SANZ                     M00000000          N
072009061999999000026042TISABEL                   AHIS                     MARTINEZ                 F00000000          N
072009061999999000026043TPEDRO ANGEL              ALONSO                   DE LA LOSA               M00000000          N
072009061999999000026044TMARGARITA                MARTIN                   ARMERO                   F00000000          N
072009061999999000026045TJORGE                    SOLANS                   MARTINEZ                 M00000000          N
072009061999999000026046TCONCEPCION               TINTE                    ARRIBAS                  F00000000          N
072009061999999000026047TRUBEN                    RAMOS                    TINTE                    M00000000          N
072009061999999000026048TMARIA TERESA             SANZ                     GALLEGO                  F00000000          N
072009061999999000026049TANDRES JESUS             LOPEZ                    ESTEBAN                  M00000000          N
072009061999999000026050TNURIA BEATRIZ            BLASCO                   AHIS                     F00000000          N
072009061999999000027001TMARTA                    JIMENO                   ANTOLIN                  F00000000          N
072009061999999000027002TSILVIA                   BARQUERO                 NOGALES                  F00000000          N
072009061999999000027003TANTONIO VICENTE          MORENO                   ABOLAFIO                 M00000000          N
072009061999999000027004TM. ANTONIETA             MARTIN DE ALMAGRO        LOPEZ MENCHERO           F00000000          N
072009061999999000027005TMANEL                    MACIA                    GALLEMI                  M00000000          N
072009061999999000027006TFRANCISCO                GARCIA                   LEAL                     M00000000          N
072009061999999000027007TSIRO ALBERTO             LLORENTE                 PEREZ                    M00000000          N
072009061999999000027008TJOAN                     GRIMAL                   MOLINS                   M00000000          N
072009061999999000027009TMARIA RUSSELL            SIMONI                   ANDRES                   F00000000          N
072009061999999000027010TELISA                    BLANCO                   BARBA                    F00000000          N
072009061999999000027011TSUSANA MARIA             GOMEZ                    MARTIN                   F00000000          N
072009061999999000027012TJULIO                    ORTEGA                   FRAILE                   M00000000          N
072009061999999000027013TJAVIER                   MILLAN                   MARFIL                   M00000000          N
072009061999999000027014TGOIZANE                  RODRIGUEZ                BARROSO                  F00000000          N
072009061999999000027015TMARIA JESUS              BOCOS                    BOCOS                    F00000000          N
072009061999999000027016TMARIA LOURDES            RODRIGUEZ                IBAÑEZ                   F00000000          N
072009061999999000027017TPILAR                    DE LA VEGA               SESTELO                  F00000000          N
072009061999999000027018TMARIA DEL CARMEN         DE BOCK                  CANO                     F00000000          N
072009061999999000027019TFRANCISCO JAVIER         DELGADO                  GRANDE                   M00000000          N
072009061999999000027020TMIGUEL RICARDO           DE LA VEGA               RUIZ                     M00000000          N
072009061999999000027021TDEBORA                   PARRIS                   LITTLER                  F00000000          N
072009061999999000027022TGEMA INMACULADA          ROMERO                   TOLOSA                   F00000000          N
072009061999999000027023TALICIA BEATRIZ           RODRIGUEZ                PEREZ                    F00000000          N
072009061999999000027024TISMAEL JOSE              GONZALEZ                 CABRAL                   M00000000          N
072009061999999000027025TJOSE ANTONIO             POLO                     FERNANDEZ-MAYORALAS      M00000000          N
072009061999999000027026TMARIA                    IZQUIERDO                SANZ                     F00000000          N
072009061999999000027027TESTEFANIA MARIA          BORI                     ROMAN                    F00000000          N
072009061999999000027028TANA LOURDES              MORENO                   GARCIA                   F00000000          N
072009061999999000027029TJUAN                     PAREJO                   PEREZ                    M00000000          N
072009061999999000027030TKEPA JOSEBA              LOZANO                   CALVO                    M00000000          N
072009061999999000027031TELENA                    ALLUE                    TEJERINA                 F00000000          N
072009061999999000027032TJOSE ANTONIO             ALMAZAN                  MANRIQUE                 M00000000          N
072009061999999000027033TALONSO                   CORONADO                 FERNANDEZ                M00000000          N
072009061999999000027034TANGEL                    CANO                     ORTEGA                   M00000000          N
072009061999999000027035TALICIA                   VIVES                    GATON                    F00000000          N
072009061999999000027036TEULALIA                  LLOBET                   SALES                    F00000000          N
072009061999999000027037TLUIS VICTOR              MORENO                   BARBIERI                 M00000000          N
072009061999999000027038TJOSE ALBERTO             PLAZA                    SEBASTIAN                M00000000          N
072009061999999000027039TSALVADOR                 JODAR                    RIVAS                    M00000000          N
072009061999999000027040TANTONIA                  ESTEBAN                  GALLEGO                  F00000000          N
072009061999999000027041TNURIA                    BRUALLA                  NUÑEZ                    F00000000          N
072009061999999000027042TMONTSERRAT               ZAFRA                    MORENO                   F00000000          N
072009061999999000027043TBERTA                    BARRIOS                  DE JESUS                 F00000000          N
072009061999999000027044TENRIQUE                  DE VEGA                  GRACIA                   M00000000          N
072009061999999000027045TANTONIO                  GARCIA-PALAO             REDONDO                  M00000000          N
072009061999999000027046TMARIA ASUNCION           ISLA                     GIL                      F00000000          N
072009061999999000027047TJONATAN                  TORRALBA                 TORRON                   M00000000          N
072009061999999000027048TLUIS HUMBERTO            SALAZAR                  ROBLES                   M00000000          N
072009061999999000027049TLETICIA MARIA            REYES                    PEREZ                    F00000000          N
072009061999999000027050TMARTIN                   CASTRILLO                LAZARO                   M00000000          N
072009061999999000028001TJUAN FERNANDO            LOPEZ                    AGUILAR                  M00000000          S
072009061999999000028002TRAMON                    JAUREGUI                 ATONDO                   M00000000          S
072009061999999000028003TMAGDALENA                ALVAREZ                  ARZA                     F00000000          S
072009061999999000028004TMARIA                    BADIA I                  CUTCHET                  F00000000          S
072009061999999000028005TMIGUEL ANGEL             MARTINEZ                 MARTINEZ                 M00000000          S
072009061999999000028006TCARMEN                   ROMERO                   LOPEZ                    F00000000          S
072009061999999000028007TALEJANDRO                CERCAS                   ALONSO                   M00000000          S
072009061999999000028008TIRATXE                   GARCIA                   PEREZ                    F00000000          S
072009061999999000028009TENRIQUE                  GUERRERO                 SALOM                    M00000000          S
072009061999999000028010TINES                     AYALA                    SENDER                   F00000000          S
072009061999999000028011TANTOLIN                  SANCHEZ                  PRESEDO                  M00000000          S
072009061999999000028012TJUAN ANDRES              PERELLO                  RODRIGUEZ                M00000000          S
072009061999999000028013TRAIMON                   OBIOLS I                 GERMA                    M00000000          S
072009061999999000028014TEIDER                    GARDIAZABAL              RUBIAL                   F00000000          S
072009061999999000028015TJOSEFA                   ANDRES                   BAREA                    F00000000          S
072009061999999000028016TLUIS                     YAÑEZ                    BARNUEVO                 M00000000          S
072009061999999000028017TANTONIO                  MASIP                    HIDALGO                  M00000000          S
072009061999999000028018TEMILIO                   MENENDEZ                 DEL VALLE                M00000000          S
072009061999999000028019TMARIA                    MUÑIZ                    DE URQUIZA               F00000000          S
072009061999999000028020TTERESA                   RIERA                    MADURELL                 F00000000          S
072009061999999000028021TRICARDO                  CORTES                   LASTRA                   M00000000          S
072009061999999000028022TSERGIO                   GUTIERREZ                PRIETO                   M00000000          S
072009061999999000028023TMARIA                    IRIGOYEN                 PEREZ                    F00000000          S
072009061999999000028024TNURIA                    PARLON                   GIL                      F00000000          N
072009061999999000028025TDOLORES                  GARCIA-HIERRO            CARABALLO                F00000000          N
072009061999999000028026TVICENTE                  GARCES                   RAMON                    M00000000          N
072009061999999000028027TFRANCISCA                PLEGUEZUELOS             AGUILAR                  F00000000          N
072009061999999000028028TGLORIA                   MARTIN                   RODRIGUEZ                F00000000          N
072009061999999000028029TROSA                     MIGUELEZ                 RAMOS                    F00000000          N
072009061999999000028030TANTONIO                  MAGDALENO                ALEGRIA                  M00000000          N
072009061999999000028031TMOHAMMED                 AZAHAF                   MOUMEN                   M00000000          N
072009061999999000028032TCONCEPCION               ARRIBAS                  LLORENTE                 F00000000          N
072009061999999000028033TMARIA ROSA               LOPEZ-OCHOA              OÑA                      F00000000          N
072009061999999000028034TIZASKUN                  BERNAL                   CERDEIRA                 F00000000          N
072009061999999000028035TALEJANDRO                COLLDEFORNS              BERGNES LAS CASAS        M00000000          N
072009061999999000028036TYOLANDA                  SIERRA                   MARTINEZ                 F00000000          N
072009061999999000028037TANGELA DEL CARMEN        SIERRA                   GONZALEZ                 F00000000          N
072009061999999000028038TRAMON                    HERNANDEZ                GARRIDO                  M00000000          N
072009061999999000028039TSONIA                    MARTI I                  KORFF                    F00000000          N
072009061999999000028040TJUAN                     MARI                     SERRA                    M00000000          N
072009061999999000028041TMARIA PIEDAD             ALVAREZ                  CORTES                   F00000000          N
072009061999999000028042TBEATRIU                  DOMENECH                 SANCHEZ                  F00000000          N
072009061999999000028043TMARIA ISABEL             GOMEZ                    DE PEDRO                 F00000000          N
072009061999999000028044TREGINO                   MATEO                    PARDO                    M00000000          N
072009061999999000028045TDANIEL                   CARRILLO                 MUÑOZ                    M00000000          N
072009061999999000028046TMARIA JULIA              MARTINEZ                 TORALES                  F00000000          N
072009061999999000028047TRUFINO                   SANZ                     PEINADO                  M00000000          N
072009061999999000028048TDOLORS                   VIDAL                    GUIU                     F00000000          N
072009061999999000028049TBARBARA                  DUHRKOP                  DUHRKOP                  F00000000          N
072009061999999000028050TJOSEP                    BORRELL I                FONTELLES                M00000000          N
072009061999999000029001TMARIA DEL CARMEN         MARTIN                   PADIAL                   F00000000          N
072009061999999000029002TSTEN ERIK                NORLING                  PLAHN                    M00000000          N
072009061999999000029003TMATEO                    FIGUEROLA                NIUBO                    M00000000          N
072009061999999000029004TVICTORIA                 PUERTO                   PERDIGUERO               F00000000          N
072009061999999000029005TJOAN                     TERRE                    BOLIART                  M00000000          N
072009061999999000029006TJORGE ALBERTO            DE LA FUENTE             MIRO                     M00000000          N
072009061999999000029007TIRENE                    GIL                      GALLEGOS                 F00000000          N
072009061999999000029008TADRIANA                  CASTAÑERA                MARTIN                   F00000000          N
072009061999999000029009TJOSE MARIA               GILI                     CABESTANY                M00000000          N
072009061999999000029010TDANIEL                   RIVERA                   ALIJAS                   M00000000          N
072009061999999000029011TFRANCISCO DE ASIS        GOMEZ                    CABRERA                  M00000000          N
072009061999999000029012TLIDIA MARIA              CALDEIRA                 SILVA                    F00000000          N
072009061999999000029013TMARINA                   LERA                     GIMENEZ                  F00000000          N
072009061999999000029014TJOSE LUIS                PEREZ                    RODRIGUEZ                M00000000          N
072009061999999000029015TJUAN BAUTISTA            RODRIGUEZ                QUIÑONES                 M00000000          N
072009061999999000029016TIVAN                     CAMACHO                  NAVARRETE                M00000000          N
072009061999999000029017TCARMEN                   VIDAL                    NOGUERA                  F00000000          N
072009061999999000029018TSOLEDAD                  RAMOS                    SANCHEZ                  F00000000          N
072009061999999000029019TALEJANDRO                FERNANDEZ                RUIZ                     M00000000          N
072009061999999000029020TFRANCISCO                CALDERON                 ALVAREZ                  M00000000          N
072009061999999000029021TJAVIER                   MIGUEL                   LAFUENTE                 M00000000          N
072009061999999000029022TROCIO ELIADE             RODRIGUEZ                MARTINEZ                 F00000000          N
072009061999999000029023TDOLORES                  FERNANDEZ                ALVAREZ                  F00000000          N
072009061999999000029024TPEDRO LUIS               DE LA LASTRA             PEREZ                    M00000000          N
072009061999999000029025TPABLO                    LOPEZ                    RODRIGUEZ                M00000000          N
072009061999999000029026TANTONIO ANGEL            LEDESMA                  GONZALEZ                 M00000000          N
072009061999999000029027TALICIA                   MARTIN                   PASAMONTES               F00000000          N
072009061999999000029028TMARIA TERESA             SENENT                   GIRO                     F00000000          N
072009061999999000029029TALEJANDRO                MARTIN                   PESUDO                   M00000000          N
072009061999999000029030TDAVID                    ABAD                     VARA                     M00000000          N
072009061999999000029031TISAAC                    PRAT                     VALBUENA                 M00000000          N
072009061999999000029032TMARIA ANGELES            HUERTAS                  ALDROVES                 F00000000          N
072009061999999000029033TMARIA DEL CARMEN         MIRALLES                 MARTINEZ                 F00000000          N
072009061999999000029034TOSCAR                    ZAMORA                   LORIZ                    M00000000          N
072009061999999000029035TJOEL                     CUELLO                   CORTES                   M00000000          N
072009061999999000029036TANGEL                    FERNANDEZ                FERNANDEZ                M00000000          N
072009061999999000029037TMARIA                    GARCIA                   MONTOLAR                 F00000000          N
072009061999999000029038TMARIA ANTONIA            GOMEZ                    CARDOSO                  F00000000          N
072009061999999000029040TALBERTO                  PERAL                    GRANADOS                 M00000000          N
072009061999999000029041TROBERTO                  ALVAREZ                  RAMOS                    M00000000          N
072009061999999000029042TVANESA                   LANDA                    FERNANDEZ                F00000000          N
072009061999999000029043TMARIA ROCIO              MARTINEZ                 BLANQUEZ                 F00000000          N
072009061999999000029044TFRANCISCO JAVIER         MERINO                   MORANTE                  M00000000          N
072009061999999000029045TALBERT                   ESCORIHUELA              RAMOS                    M00000000          N
072009061999999000029046TROBERTO JOSE             LECHUGA                  MC CRACKEN               M00000000          N
072009061999999000029047TMARIA DOLORES            MARTIN                   PADIAL                   F00000000          N
072009061999999000029048TISABEL MARIA             HITA                     SEGURA                   F00000000          N
072009061999999000029049TEUGENIA                  SABADELL                 CARDUS                   F00000000          N
072009061999999000029050TANTONIO                  MARTINEZ                 CAYUELA                  M00000000          N
072009061999999000030001TDANIEL                   FERNANDEZ                BLANCO                   M00000000          N
072009061999999000030002TYOLANDA                  GONZALEZ                 HUERGO                   F00000000          N
072009061999999000030003TJOSE FERNANDO            ORNOSA                   FERNANDEZ                M00000000          N
072009061999999000030004TIRIS                     DIAZ                     TRANCHO                  F00000000          N
072009061999999000030005TMARIA TERESA             DUARTE                   LLANEZA                  F00000000          N
072009061999999000030006TXOSE ANTON               FERNANDEZ                MARTINEZ «AMBAS»         M00000000          N
072009061999999000030007TROBERTO                  HOLGADO                  IGLESIAS                 M00000000          N
072009061999999000030008TMARCO ANTONIO            GARCIA                   FERNANDEZ                M00000000          N
072009061999999000030009TCLARA                    DIEZ                     MARQUEZ                  F00000000          N
072009061999999000030010TANA                      PEREZ                    ALONSO                   F00000000          N
072009061999999000030011TFAUSTINO                 ZAPICO                   ALVAREZ                  M00000000          N
072009061999999000030012TMARIA TERESA             GARCIA                   MUÑIZ                    F00000000          N
072009061999999000030013TJUAN CARLOS              FERNANDEZ                CASTAÑON                 M00000000          N
072009061999999000030014TIGNACIO                  LOPEZ                    FERNANDEZ                M00000000          N
072009061999999000030015TMARIA                    SIERRA                   BUEY                     F00000000          N
072009061999999000030016TSERGIO                   GARCIA                   FERNANDEZ                M00000000          N
072009061999999000030017TTATIANA                  ORTEGA                   GARCIA                   F00000000          N
072009061999999000030018TJOSE LUIS                PELAEZ                   FERNANDEZ                M00000000          N
072009061999999000030019TFLORENTINA               CUADRIELLO               SANCHEZ                  F00000000          N
072009061999999000030020TMARIANO                  GARCIA                   RODRIGUEZ                M00000000          N
072009061999999000030021TMARIA LUISA              CUESTA                   PEÑA                     F00000000          N
072009061999999000030022TFLORENTINO               FERNANDEZ                BLANCO                   M00000000          N
072009061999999000030023TADRIAN                   VIGIL                    MORAN                    M00000000          N
072009061999999000030024TVANESA                   MATA                     CARRILLO                 F00000000          N
072009061999999000030025TANGEL                    CUESTA                   PIQUERO                  M00000000          N
072009061999999000030026TFRANCISCO                MELERO                   FERNANDEZ                M00000000          N
072009061999999000030027TMARIAN                   HOLGADO                  IGLESIAS                 F00000000          N
072009061999999000030028TPOLICARPO                MENCIA                   ALVAREZ                  M00000000          N
072009061999999000030029TMARIA ASUNCION           TORIO                    CAYARGA                  F00000000          N
072009061999999000030030TROBERTO                  LOBO                     RODRIGUEZ                M00000000          N
072009061999999000030031TLUDIVINA                 ALVAREZ                  FERNANDEZ                F00000000          N
072009061999999000030032TDAVID                    MENENDEZ                 MARTIN DE LA VEGA        M00000000          N
072009061999999000030033TMIGUEL                   FERNANDI                 GARCIA                   M00000000          N
072009061999999000030034TPABLO                    RODRIGUEZ                ALONSO                   M00000000          N
072009061999999000030035TMARIA CONCEPCION         SANCHEZ                  ALVAREZ                  F00000000          N
072009061999999000030036TALBERTO JUAN             ALCOCEBA                 RODRIGUEZ                M00000000          N
072009061999999000030037TANA ISABEL               GONZALEZ                 GOYANES                  F00000000          N
072009061999999000030038TJOSE SALADINO            FERNANDEZ                GUTIERREZ                M00000000          N
072009061999999000030039TSUSANA                   MATA                     CARRILLO                 F00000000          N
072009061999999000030040TJAVIER                   GONZALEZ                 VALLE                    M00000000          N
072009061999999000030041TJAIME                    MENENDEZ                 LOPEZ                    M00000000          N
072009061999999000030042TADELAIDA                 ALVAREZ                  SOLIS                    F00000000          N
072009061999999000030043TJENNIFER                 GARCIA                   LAMPRE                   F00000000          N
072009061999999000030044TALFREDO                  IGLESIAS                 LOPEZ                    M00000000          N
072009061999999000030045TXOSE LUIS                COLODRON                 ARDURA                   M00000000          N
072009061999999000030046TMARIA SONIA              PEREIRAS                 GARCIA                   F00000000          N
072009061999999000030047TBELARMINO DANIEL         ALVAREZ                  ALVAREZ                  M00000000          N
072009061999999000030048TABEL                     FERNANDEZ                ARDURA                   M00000000          N
072009061999999000030049TYOLANDA                  SAL                      PARRA                    F00000000          N
072009061999999000030050TROSARIO                  CARRILLO                 HINOJOSA                 F00000000          N
072009061999999000031001TALFONSO                  SASTRE                   SALVADOR                 M00000000          N
072009061999999000031002TDORIS MARIA              BENEGAS                  HADDAD                   F00000000          N
072009061999999000031003TJOSEP                    GARGANTE                 CLOSA                    M00000000          N
072009061999999000029039TVICTOR JOAQUIN           SORIANO                  FERRER                   M00000000          N
072009061999999000010001TSEAN                     O CURNEEN                CAÑAS                    M00000000          N
072009061999999000010002TGEMA                     SAN BRUNO                FEIO                     F00000000          N
072009061999999000010003TJOSE MANUEL              ZAMORA                   SANCHEZ                  M00000000          N
072009061999999000010004TJACQUELINE               CLAIRE                   COTTERILL                F00000000          N
072009061999999000010005TALFONSO M.               REINA                    BRIASCO                  M00000000          N
072009061999999000010006TOFELIA                   MARTINEZ                 MUÑOZ                    F00000000          N
072009061999999000010007TJOSE LUIS                FERNANDEZ                CORDERO                  M00000000          N
072009061999999000010008TVIRGINIA                 MAYO                     GONZALEZ                 F00000000          N
072009061999999000010009TSANTOS                   NOGUERAS                 PARIS                    M00000000          N
072009061999999000010010TMARIA ISABEL             RUIZ DE CASTAÑEDA        FLEISCHMANN              F00000000          N
072009061999999000010011TCARLOS                   CISTUE                   SOLA                     M00000000          N
072009061999999000010012TMARIA                    ARRAEZ                   LORENZO                  F00000000          N
072009061999999000010013TJOSE                     FERNANDEZ                BUENDIA                  M00000000          N
072009061999999000010014TANA                      FERNANDEZ                BASTIDA                  F00000000          N
072009061999999000010015TJUAN FRANCISCO           VALLS                    BROTONS                  M00000000          N
072009061999999000010016TMARIA AGUEDA             GARCIA                   MARTINEZ                 F00000000          N
072009061999999000010017TJOSE MANUEL              PALACIN                  RODRIGUEZ                M00000000          N
072009061999999000010018TMONTSERRAT               CARRILLO                 RODRIGUEZ                F00000000          N
072009061999999000010019TAURELIO                  FERNANDEZ                BARIVIERA                M00000000          N
072009061999999000010020TLAURA                    FERNANDEZ                CAMPA                    F00000000          N
072009061999999000010021TDAVID                    DE PRADO                 TARILONTE                M00000000          N
072009061999999000010022TSEBASTIANA               PARDO                    GARCIA                   F00000000          N
072009061999999000010023TCARLOS                   SANCHEZ-CRUZAT           BORAU                    M00000000          N
072009061999999000010024TLAURA                    BARNES                   ESCARABAJAL              F00000000          N
072009061999999000010025TJUAN                     IGLESIAS                 ROLDAN                   M00000000          N
072009061999999000010026TMARIA ROCIO              GARCIA                   LEON                     F00000000          N
072009061999999000010027TMANUEL ENRIQUE           MIRALLES                 RODRIGUEZ                M00000000          N
072009061999999000010028TINMACULADA               BRAVO                    CUTILLAS                 F00000000          N
072009061999999000010029TMANUEL ANGEL             NODA                     MENESES                  M00000000          N
072009061999999000010030TPILAR                    FERNANDEZ                CARMONA                  F00000000          N
072009061999999000010031TJUAN FRANCISCO           LOPEZ                    MUÑOZ                    M00000000          N
072009061999999000010032TLIRIA MARIA              FALCON                   PEREZ                    F00000000          N
072009061999999000010033TGREGORIO                 CABEZA                   RODRIGUEZ                M00000000          N
072009061999999000010034TMARIA DEL ROSARIO        CABRERA                  DELGADO                  F00000000          N
072009061999999000010035TJESUS                    MONTESINOS               ALBALADEJO               M00000000          N
072009061999999000010036TMARIA JESUS              MARTINEZ                 SUAREZ                   F00000000          N
072009061999999000010037TADOLFO                   NAVASCUES                GIL                      M00000000          N
072009061999999000010038TRAQUEL                   GARCIA                   MARTINEZ                 F00000000          N
072009061999999000010039TFRANCISCO JOSE           LOPEZ                    HERNANDEZ                M00000000          N
072009061999999000010040TANA ROSA                 BENITEZ                  HERNANDEZ                F00000000          N
072009061999999000010041TJOSE                     MUÑOZ                    CANO                     M00000000          N
072009061999999000010042TINMACULADA               MIRALLES                 GUIRAO                   F00000000          N
072009061999999000010043TALFONSO                  REINA                    SANCHEZ                  M00000000          N
072009061999999000010044TANA ISABEL               MARRON                   MOYA                     F00000000          N
072009061999999000010045TJOSE                     MESA                     GARCIA                   M00000000          N
072009061999999000010046TMANUELA                  GARCIA                   ZAPICO                   F00000000          N
072009061999999000010047TJOSE VICENTE             MOYA                     OVEJERO                  M00000000          N
072009061999999000010048TANGELA                   LANDETE                  ARNAL                    F00000000          N
072009061999999000010049TJULIA MARTA              SANCHEZ                  MARTIN                   F00000000          N
072009061999999000010050TVICTOR MANUEL            SARTO                    LOREN                    M00000000          N
072009061999999000011001TJOSE MANUEL              MIRALLES                 PIQUERES                 M00000000          N
072009061999999000011002TCARMELO                  ROMAGUERA                MARTINEZ                 M00000000          N
072009061999999000011003TMARIA AMPARO             GINER                    LORENZO                  F00000000          N
072009061999999000011004TMARIA ANTONIA            AJA                      RUBIO                    F00000000          N
072009061999999000011005TRAUL                     CERDA                    PELECHA                  M00000000          N
072009061999999000011006TJUAN BAUTISTA            ALBERT                   TORMO                    M00000000          N
072009061999999000011007TEMILIO JOSE              ESPERT                   NAVARRO                  M00000000          N
072009061999999000011008TPASCUAL                  GARCIA                   MURGUI                   M00000000          N
072009061999999000011009TENCARNACION              LLUCH                    CALABUIG                 F00000000          N
072009061999999000011010TMARIA TERESA             MANZANA                  SEGARRA                  F00000000          N
072009061999999000011011TJOSE MANUEL              PITARCH                  MIRAVET                  M00000000          N
072009061999999000011012TJULIO                    CHANZA                   ROMAGUERA                M00000000          N
072009061999999000011013TMARIA ANGELES            LOPEZ                    SARGUES                  F00000000          N
072009061999999000011014TJOSE                     SALAZAR                  CUADRADO                 M00000000          N
072009061999999000011015TROSA FINA                IBOR                     MARTINEZ                 F00000000          N
072009061999999000011016TSANTIAGO                 MONTANER                 ALBENTOSA                M00000000          N
072009061999999000011017TLUIS HIGINIO             MELERO                   PERIS                    M00000000          N
072009061999999000011018TANA MARIA                TALLADA                  MARTIN                   F00000000          N
072009061999999000011019TMARIA VICTORIA           CARRION                  GAITAN                   F00000000          N
072009061999999000011020TMARIA CRISTINA           SORIANO                  MARTINEZ                 F00000000          N
072009061999999000011021TJUAN JOSE                GARCIA                   DASI                     M00000000          N
072009061999999000011022TALFONSO VICENTE          GOMEZ-LOBO               MARTINEZ                 M00000000          N
072009061999999000011023TDIANA MARIA              ALARCON                  IBOR                     F00000000          N
072009061999999000011024TJAVIER                   CARBONELL                MONTESINOS               M00000000          N
072009061999999000011025TANA MARIA                ABELLAN                  BALLESTER                F00000000          N
072009061999999000011026TJUAN LUIS                MUSOLES                  PALAU                    M00000000          N
072009061999999000011027TJOSE VICENTE             FUENTES                  LORENTE                  M00000000          N
072009061999999000011028TJOSE JULIO               FILIPPI                  DOMINGUEZ                M00000000          N
072009061999999000011029TMARIA ANGELES            AVILA                    TERENCIO                 F00000000          N
072009061999999000011030TMARIA DEL CARMEN         CERVERA                  CUTANDA                  F00000000          N
072009061999999000011031TJOSE                     BALLESTER                ALBERT                   M00000000          N
072009061999999000011032TANTONIO                  AHULLANA                 GUEROLA                  M00000000          N
072009061999999000011033TMARIA AMPARO             EGEA                     AGUILAR                  F00000000          N
072009061999999000011034TJOSE                     BLAY                     ROBLEDO                  M00000000          N
072009061999999000011035TNATIVIDAD                GARCIA-MORENO            NIETO                    F00000000          N
072009061999999000011036TJOSEP MARIA              BONO                     NAVARRO                  M00000000          N
072009061999999000011037TCESAR                    GONZALEZ                 CALATAYUD                M00000000          N
072009061999999000011038TRICARDO                  SALVADOR                 BLASCO                   F00000000          N
072009061999999000011039TDELIA                    MADRID                   CONTRERAS                F00000000          N
072009061999999000011040TANGELES ASCENSION        MARQUES                  BORT                     F00000000          N
072009061999999000011041TRAMON                    SIFRE                    CABALLERO                M00000000          N
072009061999999000011042TJOSE ENRIQUE             MADRID                   LOPEZ                    M00000000          N
072009061999999000011043TMIGUEL ANGEL             MARZ                     MURGUI                   M00000000          N
072009061999999000011044TMARIA RESURRECCION       MAYORAL                  GONZALEZ                 F00000000          N
072009061999999000011045TROSARIO                  NAVARRO                  SALA                     F00000000          N
072009061999999000011046TSALVADOR                 GARCIA                   APARISI                  M00000000          N
072009061999999000011047TJOSE MANUEL              NAVARRO                  ARNAL                    M00000000          N
072009061999999000011048TVICTOR MANUEL            NAVARRO                  CONSUELO                 M00000000          N
072009061999999000011049TMARIA DEL PILAR          SEGARRA                  ESQUERDO                 F00000000          N
072009061999999000011050TMARIA                    GALIANA                  CARPENA                  F00000000          N
072009061999999000012001TRAFAEL                   LLORENTE                 MARTIN                   M00000000          N
072009061999999000012002TJUAN MARCOS              LIZARBE                  LASA                     M00000000          N
072009061999999000012003TMARIA JESUS              LUZAN                    GONZALEZ                 F00000000          N
072009061999999000012004TVICENT                   VILA                     TOMASA                   M00000000          N
072009061999999000012005TMARIA FRANCISCA          MORELL                   OLIVER                   F00000000          N
072009061999999000012006TJOSEP                    CARRERAS                 GARCIA                   M00000000          N
072009061999999000012007TJESUS JOSE               MARIÑOSO                 AMESTI                   M00000000          N
072009061999999000012008TTOMASA                   CALVO                    SANCHEZ                  F00000000          N
072009061999999000012009TANTONIO                  MOYA                     SOMOLINOS                M00000000          N
072009061999999000012010TMARIA DEL CARMEN         OCHOA                    NIETO                    F00000000          N
072009061999999000012011TRAFAEL                   RUIZ                     SERRANO                  M00000000          N
072009061999999000012012TMIGUEL                   AGUILELLA                MARTINEZ                 M00000000          N
072009061999999000012013TGEMA                     BAS                      SOLA                     F00000000          N
072009061999999000012014TJOSE MARIA               RICOMA                   PATLLE                   M00000000          N
072009061999999000012015TROSALIA                  CORTES                   SASTRE                   F00000000          N
072009061999999000012016TVICTOR                   PEREZ                    ROCHE                    M00000000          N
072009061999999000012017TJOSE ANTONIO             RODRIGUEZ                HERVELLA                 M00000000          N
072009061999999000012018TMARGARITA                MARIÑOSO                 AMESTI                   F00000000          N
072009061999999000012019TJUAN ANTONIO             DARDER                   COLOM                    M00000000          N
072009061999999000012020TMARTA IGNACIA            GONZALEZ                 CASELLAS                 F00000000          N
072009061999999000012021TRAUL                     SEMPERE                  DURA                     M00000000          N
072009061999999000012022TROGER ANGEL              VICHE                    GONZALEZ                 M00000000          N
072009061999999000012023TROCIO DEL CARMEN         DE LOS REYES             MACHUCA                  F00000000          N
072009061999999000012024TGEMMA                    ROS                      VALLS                    F00000000          N
072009061999999000012025TPABLO                    RICO                     MARTINEZ                 M00000000          N
072009061999999000012026TROBERTO                  GOMEZ                    BASTIDA                  M00000000          N
072009061999999000012027TIGNACIO                  GRANDES                  FONTANILLAS              M00000000          N
072009061999999000012028TMARIA                    GARCIA                   CORTES                   F00000000          N
072009061999999000012029TPABLO                    SANFELIU                 ARBOIX                   M00000000          N
072009061999999000012030TMARIA DESAMPARADOS       COSIN                    PUCHAU                   F00000000          N
072009061999999000012031TMIGUEL                   MOMPIO                   AZEMAR                   M00000000          N
072009061999999000012032TRAFAEL FERNANDO          SANTIAGO                 LUQUE                    M00000000          N
072009061999999000012033TMARIA JOSE               LUCAS                    MARTIN                   F00000000          N
072009061999999000012034TFERNANDO MARIA           PEREZ                    PEREZ                    M00000000          N
072009061999999000012035TMARIA GLORIA             ETXEZARRAGA              ERAUZKIN                 F00000000          N
072009061999999000012036TDANIEL                   ARNAL                    MESSEGUER                M00000000          N
072009061999999000012037TRAFAEL PEDRO             LA TORRE                 SANCHEZ                  M00000000          N
072009061999999000012038TMARIA AMALIA             SCHMIDT                  GIL MORENO DE MORA       F00000000          N
072009061999999000012039TARTURO ANTONIO           FABREGAT                 ROSAS                    M00000000          N
072009061999999000012040TMARIA DEL AMOR HERMOSO   LUCENA                   MOLINA                   F00000000          N
072009061999999000012041TADOLFA                   MAIDE                    ELENA                    F00000000          N
072009061999999000012042TLUIS                     POY                      CHAVARRA                 M00000000          N
072009061999999000012043TCIPRIANO                 PEREZ                    BARROSO                  M00000000          N
072009061999999000012044TANTONIO                  GOMEZ                    AMIGO                    M00000000          N
072009061999999000012045TBELEN                    MARTI                    SANCHIS                  F00000000          N
072009061999999000012046TDAMIAN                   FERRA                    MONTOYA                  M00000000          N
072009061999999000012047TANA MARIA                RUIZ                     PUGA                     F00000000          N
072009061999999000012048TCONCEPCION               AVILA                    NOVAS                    F00000000          N
072009061999999000012049TRAFAEL                   PRESENCIO                URETA                    M00000000          N
072009061999999000012050TIÑIGO                    URIEN                    AZPITARTE                M00000000          N
072009061999999000013001TJOSE MANUEL              AGUILAR                  DE BEN                   M00000000          N
072009061999999000013002TFRANCISCO JOSE           ALONSO                   RODRIGUEZ                M00000000          N
072009061999999000013003TJOSE MARIA               ABADAL                   VILLAYANDRE              M00000000          N
072009061999999000013004TMARIA CRISTINA           MARTINEZ                 NUÑEZ                    F00000000          N
072009061999999000013005TMARIA EUGENIA            ELORZ                    RUDIEZ                   F00000000          N
072009061999999000013006TRAMON                    CERDA                    JUAREZ                   M00000000          N
072009061999999000013007TLUISA FERNANDA           JOVER                    PAYA                     F00000000          N
072009061999999000013008TFRANCISCO JAVIER         VELASCO                  OLIAGA                   M00000000          N
072009061999999000013009TBIBIANA                  GONZALEZ                 GONZALEZ                 F00000000          N
072009061999999000013010TMARIA JESUS              TOBAL                    RODRIGUEZ                F00000000          N
072009061999999000013011TAGUSTIN                  ROCHE                    LOSADA                   M00000000          N
072009061999999000013012TMARIA ELOISA             JIMENEZ                  LOPEZ                    F00000000          N
072009061999999000031014TDAVID                    PEREZ                    RAMOS                    M00000000          N
072009061999999000031015TXAN ANDRES               CARBALLO                 RODRIGUEZ                M00000000          N
072009061999999000031016TMUSTAFA                  BACHIR                   MOHAMED                  M00000000          N
072009061999999000031017TADRIAN                   RUIZ                     IBAÑEZ                   M00000000          N
072009061999999000031018TGUILLERMA                SILVA                    DIAZ                     F00000000          N
072009061999999000031019TVIOLETA                  BENITEZ                  ROMERO                   F00000000          N
072009061999999000031020TALFONSO                  ARAQUE                   MACIAS                   M00000000          N
072009061999999000031021TLUIS N.M.A.              OCAMPO                   PEREIRA                  M00000000          N
072009061999999000031022TLUNA MARIA               FAJO                     CASTRO                   F00000000          N
072009061999999000031023TMARIA ROCIO              MIELGO                   BLANCO                   F00000000          N
072009061999999000031024TJOSE                     ESTRADA                  CRUZ                     M00000000          N
072009061999999000031025TJORDI                    CASANOVA                 GRACIA                   M00000000          N
072009061999999000031026TFRANCISCO JULIO          CASTRO                   LEGASPI                  M00000000          N
072009061999999000031027TDIEGO                    ARTERO                   GUERRERO                 M00000000          N
072009061999999000031028TMARIA FRANCISCA          MIGUENS                  LADO                     F00000000          N
072009061999999000031029TTANIA                    MERCADER                 LOPEZ                    F00000000          N
072009061999999000031030TJESUS MARIA              ROYO                     OCHOA                    M00000000          N
072009061999999000031031TPATRICIA                 GALAN                    ZAMORANO                 F00000000          N
072009061999999000031032TMANUEL                   LOPEZ                    BESTEIRO                 M00000000          N
072009061999999000031033TFELIPE                   ALEGRIA                  SARASIBAR                M00000000          N
072009061999999000031034TMARIA DEL PILAR          ALCOLEA                  MERODIO                  F00000000          N
072009061999999000031035TANGEL FRANCISCO          CEBALLOS                 RUIZ                     M00000000          N
072009061999999000031036TENCARNACION              JORDAN                   GUIL                     F00000000          N
072009061999999000031037TJOSEP LLUIS              DEL ALCAZAR              FABREGAT                 M00000000          N
072009061999999000031038TJOAQUIN                  DIAZ                     CACERES                  M00000000          N
072009061999999000031039TSILVIA                   ALVAREZ                  IGLESIAS                 F00000000          N
072009061999999000031040TANTONIO                  RODRIGUEZ                CARRILLO                 M00000000          N
072009061999999000031041TCHORCHE                  TRICAS                   LAMANA                   M00000000          N
072009061999999000031042TNOEMI                    MARTINEZ                 ALEDO                    F00000000          N
072009061999999000031043TIRENE                    ESTEBAN                  MOLINA                   F00000000          N
072009061999999000031044TFRANCISCO JAVIER         RIVAS                    MEDINA                   M00000000          N
072009061999999000031045TMIQUEL                   BLANCH                   I SOLE                   M00000000          N
072009061999999000031046TENCARNACION              MARTINEZ                 COLLAZO                  F00000000          N
072009061999999000031047TM. CONCEPCION M.         MINAYO                   ALFAGEME                 F00000000          N
072009061999999000031048TJESUS                    BLANCO                   BARBA                    M00000000          N
072009061999999000031049TERLANTZ                  IBARRONDO                MERINO                   M00000000          N
072009061999999000031050TM. CRISTINA              MAS                      ANDREU                   F00000000          N
072009061999999000032001TMANUEL                   CANDUELA                 SERRANO                  M00000000          N
072009061999999000032002TALVARO                   PEÑAS                    LOPEZ                    M00000000          N
072009061999999000032003TINMACULADA               CASAJUS                  MORALES                  F00000000          N
072009061999999000032004TLUIS                     MATEOS                   DE VEGA                  M00000000          N
072009061999999000032005TNATALIA                  DE CASTRO                HIDALGO                  F00000000          N
072009061999999000032006TALEJANDRO                VELEZ                    FERREIRA                 M00000000          N
072009061999999000032007TRAMON                    ROMAN                    PUENTES                  M00000000          N
072009061999999000032008TMAYVI                    PEREZ                    GONZALEZ                 F00000000          N
072009061999999000032009TARTURO                   ALVAREZ                  SAN AGUSTIN              M00000000          N
072009061999999000032010TANA                      PEDREÑO                  FENOLLAR                 F00000000          N
072009061999999000032011TADOLFO ANDRES            CARRASCO                 MARTINEZ                 M00000000          N
072009061999999000032012TJOSE RAMON               GARCIA                   HERNANDEZ                M00000000          N
072009061999999000032013TKRISTEL                  JONGEJAN                 BRULL                    F00000000          N
072009061999999000032014TJAIRO MANUEL             SUAREZ                   CERREJON                 M00000000          N
072009061999999000032015TCLARA                    GALAN                    NAVARRO                  F00000000          N
072009061999999000032016TVICENTE                  ESTADELLES               GIMENEZ                  M00000000          N
072009061999999000032017TJESICA                   PINEL                    MARTINEZ                 F00000000          N
072009061999999000032018TIGNACIO                  CASADO                   LOPEZ                    M00000000          N
072009061999999000032019TMIGUEL ANGEL             GARCIA                   DELGADO                  M00000000          N
072009061999999000032020TMARGARITA                DE VEGA                  GALLEGO                  F00000000          N
072009061999999000032021TEMILIO                   MARTINEZ                 PAÑEDA                   M00000000          N
072009061999999000032022TBEATRIZ REGINA           CARRASCO                 MARTINEZ                 F00000000          N
072009061999999000032023TANTONIO                  BARROSO                  ORTEGA                   M00000000          N
072009061999999000032024TJOSE MANUEL              LOPEZ                    ARAUS                    M00000000          N
072009061999999000032025TMARIA ANGELES            OLIVARES                 CHAPARRO                 F00000000          N
072009061999999000032026TEMILIO                   LOPEZ                    MARQUEÑO                 M00000000          N
072009061999999000032027TPAULA                    SAN FRUTOS               SEVILLEJA                F00000000          N
072009061999999000032028TRAUL                     PALACIO                  ORDOÑEZ                  M00000000          N
072009061999999000032029TROCIO                    SANCHEZ                  SORIANO                  F00000000          N
072009061999999000032030TMIGUEL                   BLASCO                   DEL ALAMO                M00000000          N
072009061999999000032031TFRANCISCO JAVIER         GUTIERREZ                YULES                    M00000000          N
072009061999999000032032TFELISA                   MARTINEZ                 MARTINEZ                 F00000000          N
072009061999999000032033TJUAN DIEGO               RUBIO                    MANZANO                  M00000000          N
072009061999999000032034TPALOMA                   MIÑANA                   CALVO                    F00000000          N
072009061999999000032035TJOSE LUIS                ARRANZ                   ARRANZ                   M00000000          N
072009061999999000032036TOLIVER                   NISTAL                   CALZON                   M00000000          N
072009061999999000032037TM. DE LOS DESAMPARADOS   CERDAN                   LORENTE                  F00000000          N
072009061999999000032038TPEDRO ANTONIO            PINTO                    VELASCO                  M00000000          N
072009061999999000032039TJAZMINA                  POZO                     TELLEZ                   F00000000          N
072009061999999000032040TRAUL                     GUTIERREZ                RODRIGUEZ                M00000000          N
072009061999999000032041TCARLOS ADOLFO            VILLAVERDE               CASAJUS                  M00000000          N
072009061999999000032042TSARA                     GONZALEZ                 NUÑEZ                    F00000000          N
072009061999999000032043TRAFAEL RODRIGO           SANTOS                   PEREZ                    M00000000          N
072009061999999000032044TMELISSA                  VALDIVIA                 LEANDRO                  F00000000          N
072009061999999000032045TPEDRO                    LERENA                   PIREZ                    M00000000          N
072009061999999000032046TRAMIRO                   OTERO                    ORMEÑO                   M00000000          N
072009061999999000032047TROCIO                    SUAREZ                   CERREJON                 F00000000          N
072009061999999000032048TGONZALO                  MARTIN                   GARCIA                   M00000000          N
072009061999999000019035TJULIO LUIS               MARTI                    GOMIS                    M00000000          N
072009061999999000019036TJOSE MANUEL              DIAZ DE TERAN            RODRIGUEZ                M00000000          N
072009061999999000019037TVIRGINIA                 QUINTANA                 FERNANDEZ                F00000000          N
072009061999999000019038TCONCEPCION               ROJO                     ALADRO                   F00000000          N
072009061999999000019039TRAFAEL                   MARTIN                   BOTELLA                  M00000000          N
072009061999999000019040TCARLOS LUIS              NOGUERO                  GARCIA                   M00000000          N
072009061999999000019041TJOSE FELIPE              MONCHO                   FRANCES                  M00000000          N
072009061999999000019042TJUAN DIEGO               AVENDAÑO                 ORTIZ                    M00000000          N
072009061999999000019043TMARIA ANTONIA            GOMIS                    ESCRIBANO                F00000000          N
072009061999999000019044TVERONICA                 COSTA                    NAVARRO                  F00000000          N
072009061999999000019045TJUAN RAMON               CABRERA                  RODRIGUEZ                M00000000          N
072009061999999000019046TJORGE                    GALVEZ                   BENACHES                 M00000000          N
072009061999999000019047TJOSE ANTONIO             ZARAGOZA                 GOMEZ                    M00000000          N
072009061999999000019048TMARIA CONCEPCION         CONESA                   CUENCA                   F00000000          N
072009061999999000019049TMARIA ANGELES            PEREZ                    LOPEZ                    F00000000          N
072009061999999000019050TMANUEL JOSE              MARTI                    LOZANO                   M00000000          N
072009061999999000020001TRAMIRO                   VIÑUALES                 FERREIRO                 M00000000          N
072009061999999000020002TANA                      POZO                     SANCHEZ                  F00000000          N
072009061999999000020003TMONTSERRAT               CORBELLA                 VALEA                    F00000000          N
072009061999999000020004TRAFAEL                   MARTINEZ                 ARIAS                    M00000000          N
072009061999999000020005TFERNANDA                 SERRANO                  DE NOREÑA                F00000000          N
072009061999999000020006TMIGUEL ANGEL             VAZQUEZ                  MARTIN                   M00000000          N
072009061999999000020007TRAFAEL MANUEL            FERNANDEZ                ALONSO                   M00000000          N
072009061999999000020008TCARMEN                   RAMIREZ                  CASTILLEJO               F00000000          N
072009061999999000020009TLUIS ANTONIO             RODRIGUEZ                HUERTAS                  M00000000          N
072009061999999000020010TMARIA ARANZAZU           FELIU                    VILLALBA                 F00000000          N
072009061999999000020011TANA MARIA                MOLINA                   BERNABEU                 F00000000          N
072009061999999000020012TMARIA CONCEPCION         BERNA                    GUISADO                  F00000000          N
072009061999999000020013TALBERTO                  SANCHEZ                  BUENDIA                  M00000000          N
072009061999999000020014TMARIA ELENA              MATA                     FUENTE                   F00000000          N
072009061999999000020015TFRANCESC                 CORBELLA                 VALEA                    M00000000          N
072009061999999000020016TMARIA CRUZ               BLANCO                   ITURRIAGA                F00000000          N
072009061999999000020017TOCRAN                    GARCIA                   MARTINEZ                 M00000000          N
072009061999999000020018TRAQUEL                   CHUMILLAS                FERNANDEZ                F00000000          N
072009061999999000020019TPEDRO                    FELIU                    DURAN                    M00000000          N
072009061999999000020020TJORGE                    SERRANO                  PARADINAS                M00000000          N
072009061999999000020021TPALOMA                   ESCOBAR                  HERRERO                  F00000000          N
