022015121010400199ABLA                                                                                                000100100000001426000020000108300001083000000000000000000000436000006570000000600000016000007900000000000000000000S
022015121010400299ABRUCENA                                                                                            000200200000001262000020000106300001063000000000000000000000377000006180000000100000005000007590000000000000000000S
022015121010400399ADRA                                                                                                000300300000024782000260001736500017365000000000000000000005400000087110000005700000101000107730000000000000000000S
022015121010400499ALBÁNCHEZ                                                                                           000400400000000772000010000042100000421000000000000000000000173000002520000000200000002000003100000000000000000000S
022015121010400599ALBOLODUY                                                                                           000500500000000642000010000057700000577000000000000000000000222000003630000000100000006000004310000000000000000000S
022015121010400699ALBOX                                                                                               000600600000011715000130000701600007016000000000000000000002270000036220000003300000037000047530000000000000000000S
022015121010400799ALCOLEA                                                                                             000700700000000861000010000073600000736000000000000000000000237000004390000000000000002000005510000000000000000000S
022015121010400899ALCÓNTAR                                                                                            000800800000000578000020000050100000501000000000000000000000204000003320000000300000005000004120000000000000000000S
022015121010400999ALCUDIA DE MONTEAGUD                                                                                000900900000000140000010000016900000169000000000000000000000063000000960000000000000001000001260000000000000000000S
022015121010401099ALHABIA                                                                                             001001000000000681000010000057900000579000000000000000000000270000003950000000200000005000004620000000000000000000S
022015121010401199ALHAMA DE ALMERÍA                                                                                   001101100000003753000040000279800002798000000000000000000001176000017940000001400000024000022060000000000000000000S
022015121010401299ALICÚN                                                                                              001201200000000239000010000019100000191000000000000000000000099000001460000000100000001000001680000000000000000000S
022015121010401399ALMERÍA                                                                                             001301300000193351002120014111600141116000000000000000000051175000754250000066900000578000939560000000000000000000S
022015121010401499ALMÓCITA                                                                                            001401400000000167000010000015300000153000000000000000000000066000000910000000000000000000001180000000000000000000S
022015121010401599ALSODUX                                                                                             001501500000000131000010000013000000130000000000000000000000051000000800000000100000000000000970000000000000000000S
022015121010401699ANTAS                                                                                               001601600000003161000040000214600002146000000000000000000000719000012310000000800000020000015560000000000000000000S
022015121010401799ARBOLEAS                                                                                            001701700000004698000040000130100001301000000000000000000000461000007110000000500000005000008710000000000000000000S
022015121010401899ARMUÑA DE ALMANZORA                                                                                 001801800000000332000010000027400000274000000000000000000000121000001940000000000000003000002420000000000000000000S
022015121010401999BACARES                                                                                             001901900000000267000010000025100000251000000000000000000000097000001610000000000000001000001980000000000000000000S
022015121010402099BAYÁRCAL                                                                                            002002000000000340000010000029200000292000000000000000000000117000001670000000100000001000002060000000000000000000S
022015121010402199BAYARQUE                                                                                            002102100000000216000010000018700000187000000000000000000000077000001210000000100000007000001400000000000000000000S
022015121010402299BÉDAR                                                                                               002202200000000986000010000034800000348000000000000000000000145000002010000000100000001000002410000000000000000000S
022015121010402399BEIRES                                                                                              002302300000000112000010000013900000139000000000000000000000065000000860000000100000002000001010000000000000000000S
022015121010402499BENAHADUX                                                                                           002402400000004220000050000303600003036000000000000000000001326000018830000001800000017000022900000000000000000000S
022015121010402699BENITAGLA                                                                                           002602600000000071000010000007000000070000000000000000000000034000000500000000000000000000000600000000000000000000S
022015121010402799BENIZALÓN                                                                                           002702700000000284000010000024900000249000000000000000000000084000001210000000100000000000001620000000000000000000S
022015121010402899BENTARIQUE                                                                                          002802800000000255000010000022600000226000000000000000000000140000001770000000000000001000001970000000000000000000S
022015121010402999BERJA                                                                                               002902900000015323000140000888700008887000000000000000000002988000048000000005300000055000059950000000000000000000S
022015121010403099CANJÁYAR                                                                                            003003000000001365000020000114000001140000000000000000000000418000006670000000800000002000008180000000000000000000S
022015121010403199CANTORIA                                                                                            003103100000003617000040000235900002359000000000000000000000866000014460000000700000005000017790000000000000000000S
022015121010403299CARBONERAS                                                                                          003203200000007852000110000560600005606000000000000000000001666000028190000001900000019000037510000000000000000000S
022015121010403399CASTRO DE FILABRES                                                                                  003303300000000134000010000013900000139000000000000000000000065000000860000000300000003000000940000000000000000000S
022015121010403499CÓBDAR                                                                                              003403400000000154000010000017300000173000000000000000000000054000000820000000300000000000001050000000000000000000S
022015121010403599CUEVAS DEL ALMANZORA                                                                                003503500000013737000160000837500008375000000000000000000003070000049460000002800000048000060030000000000000000000S
022015121010403699CHERCOS                                                                                             003603600000000280000010000022800000228000000000000000000000085000001500000000200000001000001730000000000000000000S
022015121010403799CHIRIVEL                                                                                            003703700000001689000030000131200001312000000000000000000000509000007880000000600000019000009940000000000000000000S
022015121010403899DALÍAS                                                                                              003803800000003979000050000306600003066000000000000000000001070000017650000002000000019000021300000000000000000000S
022015121010404199ENIX                                                                                                004104100000000440000010000031800000318000000000000000000000155000001970000000600000000000002350000000000000000000S
022015121010404399FELIX                                                                                               004304300000000651000010000054600000546000000000000000000000279000003880000000300000004000004590000000000000000000S
022015121010404499FINES                                                                                               004404400000002203000020000155500001555000000000000000000000600000010240000000900000010000012340000000000000000000S
022015121010404599FIÑANA                                                                                              004504500000002201000030000177700001777000000000000000000000676000010010000000900000010000013830000000000000000000S
022015121010404699FONDÓN                                                                                              004604600000000991000020000086200000862000000000000000000000349000005270000000600000002000006500000000000000000000S
022015121010404799GÁDOR                                                                                               004704700000003096000040000227800002278000000000000000000001106000015590000001300000015000018780000000000000000000S
022015121010404899GALLARDOS (LOS)                                                                                     004804800000003126000030000150300001503000000000000000000000581000008580000000700000008000010890000000000000000000S
022015121010404999GARRUCHA                                                                                            004904900000008632000080000528000005280000000000000000000001856000029090000002000000035000036030000000000000000000S
022015121010405099GÉRGAL                                                                                              005005000000001034000010000083000000830000000000000000000000319000004660000000300000003000005910000000000000000000S
022015121010405199HUÉCIJA                                                                                             005105100000000525000010000044000000440000000000000000000000182000003110000000000000001000003720000000000000000000S
022015121010405299HUÉRCAL DE ALMERÍA                                                                                  005205200000016663000170001224600012246000000000000000000004386000066470000008400000040000082690000000000000000000S
022015121010405399HUÉRCAL-OVERA                                                                                       005305300000018374000220001233300012333000000000000000000004233000070820000006600000084000089740000000000000000000S
022015121010405499ILLAR                                                                                               005405400000000386000010000036300000363000000000000000000000166000002320000000100000005000002910000000000000000000S
022015121010405599INSTINCIÓN                                                                                          005505500000000463000010000037200000372000000000000000000000165000002690000000000000000000003150000000000000000000S
022015121010405699LAROYA                                                                                              005605600000000170000010000014700000147000000000000000000000041000000780000000000000003000001200000000000000000000S
022015121010405799LÁUJAR DE ANDARAX                                                                                   005705700000001633000020000133700001337000000000000000000000455000006930000000200000008000009310000000000000000000S
022015121010405899LÍJAR                                                                                               005805800000000435000010000036900000369000000000000000000000105000002040000000200000001000002890000000000000000000S
022015121010405999LUBRÍN                                                                                              005905900000001607000030000110000001100000000000000000000000413000006400000000700000007000007380000000000000000000S
022015121010406099LUCAINENA DE LAS TORRES                                                                             006006000000000614000010000046600000466000000000000000000000214000003050000000200000003000003560000000000000000000S
022015121010406199LÚCAR                                                                                               006106100000000802000010000061800000618000000000000000000000221000003660000000500000004000004860000000000000000000S
022015121010406299MACAEL                                                                                              006206200000005719000070000452800004528000000000000000000001882000027950000002000000031000035590000000000000000000S
022015121010406399MARÍA                                                                                               006306300000001315000020000109900001099000000000000000000000375000006680000000200000012000008330000000000000000000S
022015121010406499MOJÁCAR                                                                                             006406400000006838000060000277900002779000000000000000000000970000015380000000800000023000020010000000000000000000S
022015121010406599NACIMIENTO                                                                                          006506500000000507000010000036600000366000000000000000000000190000002470000000200000002000002860000000000000000000S
022015121010406699NÍJAR                                                                                               006606600000028627000270001357300013573000000000000000000004288000070080000006500000081000085050000000000000000000S
022015121010406799OHANES                                                                                              006706700000000696000010000058400000584000000000000000000000203000003470000000000000008000004240000000000000000000S
022015121010406899OLULA DE CASTRO                                                                                     006806800000000169000010000019500000195000000000000000000000086000001210000000000000000000001580000000000000000000S
022015121010406999OLULA DEL RÍO                                                                                       006906900000006387000060000469200004692000000000000000000001763000027340000002900000034000035780000000000000000000S
022015121010407099ORIA                                                                                                007007000000002495000040000162300001623000000000000000000000497000008960000000700000004000012220000000000000000000S
022015121010407199PADULES                                                                                             007107100000000484000010000039800000398000000000000000000000174000002740000000200000001000003240000000000000000000S
022015121010407299PARTALOA                                                                                            007207200000000671000010000031100000311000000000000000000000105000001880000001400000003000002300000000000000000000S
022015121010407399PATERNA DEL RÍO                                                                                     007307300000000411000010000033200000332000000000000000000000148000001960000000200000001000002280000000000000000000S
022015121010407499PECHINA                                                                                             007407400000003849000040000282900002829000000000000000000001001000015730000002400000020000019210000000000000000000S
022015121010407599PULPÍ                                                                                               007507500000008562000100000515200005152000000000000000000001802000030300000001900000057000036960000000000000000000S
022015121010407699PURCHENA                                                                                            007607600000001662000020000129600001296000000000000000000000434000007750000000700000012000009860000000000000000000S
022015121010407799RÁGOL                                                                                               007707700000000331000010000030300000303000000000000000000000161000002220000000200000003000002720000000000000000000S
022015121010407899RIOJA                                                                                               007807800000001406000020000109500001095000000000000000000000427000006530000000700000005000007720000000000000000000S
022015121010407999ROQUETAS DE MAR                                                                                     007907900000091682000800005080000050800000000000000000000017039000265530000020000000233000334290000000000000000000S
022015121010408099SANTA CRUZ DE MARCHENA                                                                              008008000000000216000010000022600000226000000000000000000000090000001360000000200000003000001800000000000000000000S
022015121010408199SANTA FE DE MONDÚJAR                                                                                008108100000000390000010000035600000356000000000000000000000159000002350000000200000000000002880000000000000000000S
022015121010408299SENÉS                                                                                               008208200000000320000010000030600000306000000000000000000000091000001660000000000000001000002090000000000000000000S
022015121010408399SERÓN                                                                                               008308300000002218000040000179000001790000000000000000000000591000010390000000800000005000013710000000000000000000S
022015121010408499SIERRO                                                                                              008408400000000401000010000033700000337000000000000000000000131000002250000000100000003000002600000000000000000000S
022015121010408599SOMONTÍN                                                                                            008508500000000502000010000039500000395000000000000000000000164000002510000000000000004000002980000000000000000000S
022015121010408699SORBAS                                                                                              008608600000002689000050000179200001792000000000000000000000571000009800000000800000013000012500000000000000000000S
022015121010408799SUFLÍ                                                                                               008708700000000219000010000018900000189000000000000000000000050000000910000000100000001000001380000000000000000000S
022015121010408899TABERNAS                                                                                            008808800000003646000040000247500002475000000000000000000000932000013350000001000000014000016930000000000000000000S
022015121010408999TABERNO                                                                                             008908900000001029000010000074600000746000000000000000000000240000004080000000600000008000005220000000000000000000S
022015121010409099TAHAL                                                                                               009009000000000396000010000030900000309000000000000000000000119000001820000000100000000000002410000000000000000000S
022015121010409199TERQUE                                                                                              009109100000000440000010000034200000342000000000000000000000197000002440000000400000002000002740000000000000000000S
022015121010409299TÍJOLA                                                                                              009209200000003776000050000285200002852000000000000000000000894000015830000001300000024000021550000000000000000000S
022015121010409399TURRE                                                                                               009309300000003563000040000187200001872000000000000000000000574000010070000001000000013000012420000000000000000000S
022015121010409499TURRILLAS                                                                                           009409400000000229000010000020900000209000000000000000000000077000001210000000100000000000001400000000000000000000S
022015121010409599ULEILA DEL CAMPO                                                                                    009509500000000924000010000072600000726000000000000000000000270000003680000000200000003000004610000000000000000000S
022015121010409699URRÁCAL                                                                                             009609600000000312000010000027400000274000000000000000000000085000001470000000000000002000002060000000000000000000S
022015121010409799VELEFIQUE                                                                                           009709700000000278000010000025400000254000000000000000000000121000001550000000000000002000001940000000000000000000S
022015121010409899VÉLEZ-BLANCO                                                                                        009809800000002064000030000153700001537000000000000000000000488000008820000000800000010000011390000000000000000000S
022015121010409999VÉLEZ-RUBIO                                                                                         009909900000006791000080000498800004988000000000000000000001813000029660000002600000070000036880000000000000000000S
022015121010410099VERA                                                                                                010010000000015018000140000871200008712000000000000000000002593000040460000003000000063000054520000000000000000000S
022015121010410199VIATOR                                                                                              010110100000005605000070000428300004283000000000000000000001660000024100000002200000019000029280000000000000000000S
022015121010410299VÍCAR                                                                                               010210200000024384000250001372900013729000000000000000000004410000070970000011400000109000087640000000000000000000S
022015121010410399ZURGENA                                                                                             010310300000003129000030000147800001478000000000000000000000490000008700000000600000014000010310000000000000000000S
022015121010490199TRES VILLAS (LAS)                                                                                   090190100000000583000020000053900000539000000000000000000000190000003080000000000000002000003860000000000000000000S
022015121010490299EJIDO (EL)                                                                                          090290200000084144000720004537300045373000000000000000000013630000219330000024900000205000279710000000000000000000S
022015121010490399MOJONERA (LA)                                                                                       090390300000008993000060000434500004345000000000000000000001412000023040000003500000021000028400000000000000000000S
022015121010490499BALANEGRA                                                                                           090490400000002835000020000175900001759000000000000000000000558000009330000001500000013000011570000000000000000000S
022015121011100199ALCALÁ DE LOS GAZULES                                                                               000100100000005377000070000437700004377000000000000000000001401000022640000001700000049000028830000000000000000000S
022015121011100299ALCALÁ DEL VALLE                                                                                    000200200000005221000070000428700004287000000000000000000001068000023620000001500000007000032230000000000000000000S
022015121011100399ALGAR                                                                                               000300300000001482000020000127000001270000000000000000000000466000007350000001200000008000008870000000000000000000S
022015121011100499ALGECIRAS                                                                                           000400400000117974001330008861700088617000000000000000000027468000434350000058100000485000541520000000000000000000S
022015121011100599ALGODONALES                                                                                         000500500000005677000080000456000004560000000000000000000001749000026820000002100000060000031220000000000000000000S
022015121011100699ARCOS DE LA FRONTERA                                                                                000600600000031250000370002450400024504000000000000000000008511000132950000017600000163000163100000000000000000000S
022015121011100799BARBATE                                                                                             000700700000022861000280001803600018036000000000000000000005435000087270000018100000154000104970000000000000000000S
022015121011100899BARRIOS (LOS)                                                                                       000800800000022991000250001746000017460000000000000000000006005000095080000015100000185000114640000000000000000000S
022015121011100999BENAOCAZ                                                                                            000900900000000719000010000060200000602000000000000000000000189000002860000000500000004000004170000000000000000000S
022015121011101099BORNOS                                                                                              001001000000008022000110000642000006420000000000000000000002054000034890000006300000061000042990000000000000000000S
022015121011101199BOSQUE (EL)                                                                                         001101100000002069000020000168800001688000000000000000000000556000009570000001400000034000011910000000000000000000S
022015121011101299CÁDIZ                                                                                               001201200000121739001530010046000100460000000000000000000037306000588400000059000000613000715380000000000000000000S
022015121011101399CASTELLAR DE LA FRONTERA                                                                            001301300000003084000040000232400002324000000000000000000000758000013670000001600000034000016370000000000000000000S
022015121011101499CONIL DE LA FRONTERA                                                                                001401400000022063000280001679100016791000000000000000000005687000091700000016600000109000109800000000000000000000S
022015121011101599CHICLANA DE LA FRONTERA                                                                             001501500000082298000920006233700062337000000000000000000019823000321900000040700000330000396050000000000000000000S
022015121011101699CHIPIONA                                                                                            001601600000019004000210001488000014880000000000000000000004832000079560000012400000097000097240000000000000000000S
022015121011101799ESPERA                                                                                              001701700000003912000050000320700003207000000000000000000001202000019420000002800000027000023340000000000000000000S
022015121011101899GASTOR (EL)                                                                                         001801800000001803000030000148500001485000000000000000000000584000009140000001000000019000010800000000000000000000S
022015121011101999GRAZALEMA                                                                                           001901900000002165000030000183000001830000000000000000000000641000011100000000500000042000013660000000000000000000S
022015121011102099JEREZ DE LA FRONTERA                                                                                002002000000212226002520016540000165400000000000000000000060129000920720000118400000773001119080000000000000000000S
022015121011102199JIMENA DE LA FRONTERA                                                                               002102100000009710000100000677700006777000000000000000000002579000039500000005200000047000047270000000000000000000S
022015121011102299LÍNEA DE LA CONCEPCIÓN (LA)                                                                         002202200000063132000740004877800048778000000000000000000012606000210250000027700000213000260560000000000000000000S
022015121011102399MEDINA-SIDONIA                                                                                      002302300000011794000160000935400009354000000000000000000003539000056150000008600000062000068420000000000000000000S
022015121011102499OLVERA                                                                                              002402400000008351000110000673500006735000000000000000000002114000038320000003300000049000050320000000000000000000S
022015121011102599PATERNA DE RIVERA                                                                                   002502500000005609000060000437000004370000000000000000000001512000026010000002900000051000030940000000000000000000S
022015121011102699PRADO DEL REY                                                                                       002602600000005885000070000480400004804000000000000000000001790000028780000003100000070000034800000000000000000000S
022015121011102799PUERTO DE SANTA MARÍA (EL)                                                                          002702700000088700001050006801000068010000000000000000000024681000375770000040000000353000459220000000000000000000S
022015121011102899PUERTO REAL                                                                                         002802800000041486000520003253200032532000000000000000000012289000192250000027400000210000227070000000000000000000S
022015121011102999PUERTO SERRANO                                                                                      002902900000007127000090000543300005433000000000000000000001481000024560000002700000045000030400000000000000000000S
022015121011103099ROTA                                                                                                003003000000029179000360002279600022796000000000000000000007162000117660000014500000155000150770000000000000000000S
022015121011103199SAN FERNANDO                                                                                        003103100000096335001120007645200076452000000000000000000025807000413590000056800000394000508880000000000000000000S
022015121011103299SANLÚCAR DE BARRAMEDA                                                                               003203200000067385000820005389800053898000000000000000000014968000253550000037100000260000318010000000000000000000S
022015121011103399SAN ROQUE                                                                                           003303300000029491000300002077300020773000000000000000000006517000107960000017100000154000131620000000000000000000S
022015121011103499SETENIL DE LAS BODEGAS                                                                              003403400000002856000040000234500002345000000000000000000000752000012830000001000000012000015840000000000000000000S
022015121011103599TARIFA                                                                                              003503500000017908000240001356900013569000000000000000000004379000070900000009300000092000088150000000000000000000S
022015121011103699TORRE ALHÁQUIME                                                                                     003603600000000776000010000069400000694000000000000000000000193000003560000001300000002000004240000000000000000000S
022015121011103799TREBUJENA                                                                                           003703700000007090000100000567800005678000000000000000000001981000036010000002000000065000044060000000000000000000S
022015121011103899UBRIQUE                                                                                             003803800000016884000230001380300013803000000000000000000005330000083560000012100000152000103200000000000000000000S
022015121011103999VEJER DE LA FRONTERA                                                                                003903900000012897000170001004400010044000000000000000000003186000052070000009800000061000065250000000000000000000S
022015121011104099VILLALUENGA DEL ROSARIO                                                                             004004000000000456000010000039800000398000000000000000000000153000002560000000300000009000003140000000000000000000S
022015121011104199VILLAMARTÍN                                                                                         004104100000012303000150000985600009856000000000000000000003373000054250000008500000076000068820000000000000000000S
022015121011104299ZAHARA                                                                                              004204200000001460000020000118900001189000000000000000000000376000006840000000500000009000008630000000000000000000S
022015121011190199BENALUP-CASAS VIEJAS                                                                                090190100000006967000080000565300005653000000000000000000002075000032820000008400000044000040040000000000000000000S
022015121011190299SAN JOSÉ DEL VALLE                                                                                  090290200000004457000060000361900003619000000000000000000001180000018900000001700000021000023930000000000000000000S
022015121011400199ADAMUZ                                                                                              000100100000004398000050000355200003552000000000000000000001238000020400000002800000031000028020000000000000000000S
022015121011400299AGUILAR DE LA FRONTERA                                                                              000200200000013631000140001095100010951000000000000000000003939000064500000007200000081000080780000000000000000000S
022015121011400399ALCARACEJOS                                                                                         000300300000001527000020000126500001265000000000000000000000497000007770000000600000011000009640000000000000000000S
022015121011400499ALMEDINILLA                                                                                         000400400000002468000030000203600002036000000000000000000000524000010080000000600000014000014820000000000000000000S
022015121011400599ALMODÓVAR DEL RÍO                                                                                   000500500000007977000100000635800006358000000000000000000002046000034430000005600000107000042160000000000000000000S
022015121011400699AÑORA                                                                                               000600600000001555000020000133100001331000000000000000000000625000009410000000700000029000011300000000000000000000S
022015121011400799BAENA                                                                                               000700700000020207000200001520000015200000000000000000000004685000079760000008100000138000108450000000000000000000S
022015121011400899BELALCÁZAR                                                                                          000800800000003427000040000287100002871000000000000000000001082000016510000001100000019000020230000000000000000000S
022015121011400999BELMEZ                                                                                              000900900000003227000040000277900002779000000000000000000001014000015540000001300000007000019210000000000000000000S
022015121011401099BENAMEJÍ                                                                                            001001000000005123000060000405100004051000000000000000000001147000022060000001700000035000029510000000000000000000S
022015121011401199BLÁZQUEZ (LOS)                                                                                      001101100000000701000010000058400000584000000000000000000000198000003140000000300000001000004730000000000000000000S
022015121011401299BUJALANCE                                                                                           001201200000007744000090000619000006190000000000000000000001890000032840000002700000086000044610000000000000000000S
022015121011401399CABRA                                                                                               001301300000021001000230001684500016845000000000000000000006175000095390000014600000185000122680000000000000000000S
022015121011401499CAÑETE DE LAS TORRES                                                                                001401400000003033000040000257000002570000000000000000000000984000015860000000800000029000020670000000000000000000S
022015121011401599CARCABUEY                                                                                           001501500000002632000040000214900002149000000000000000000000695000011820000001300000021000016030000000000000000000S
022015121011401699CARDEÑA                                                                                             001601600000001606000030000136400001364000000000000000000000503000007770000000300000002000010420000000000000000000S
022015121011401799CARLOTA (LA)                                                                                        001701700000013872000180001086900010869000000000000000000003581000061400000007200000101000079570000000000000000000S
022015121011401899CARPIO (EL)                                                                                         001801800000004516000060000371000003710000000000000000000001359000022400000002800000036000028180000000000000000000S
022015121011401999CASTRO DEL RÍO                                                                                      001901900000008052000110000647900006479000000000000000000002066000038130000004600000055000050300000000000000000000S
022015121011402099CONQUISTA                                                                                           002002000000000448000010000039100000391000000000000000000000144000002040000000300000004000002710000000000000000000S
022015121011402199CÓRDOBA                                                                                             002102100000328041003510026018900260189000000000000000000098267001498030000193400001381001856240000000000000000000S
022015121011402299DOÑA MENCÍA                                                                                         002202200000004935000050000403600004036000000000000000000001156000021590000000900000030000031600000000000000000000S
022015121011402399DOS TORRES                                                                                          002302300000002442000030000204100002041000000000000000000000916000013320000001300000025000017040000000000000000000S
022015121011402499ENCINAS REALES                                                                                      002402400000002375000030000192000001920000000000000000000000682000012240000001000000034000014780000000000000000000S
022015121011402599ESPEJO                                                                                              002502500000003474000050000295000002950000000000000000000001143000018480000001000000035000024150000000000000000000S
022015121011402699ESPIEL                                                                                              002602600000002438000030000207300002073000000000000000000000708000010360000001300000016000014080000000000000000000S
022015121011402799FERNÁN-NÚÑEZ                                                                                        002702700000009801000110000790800007908000000000000000000002841000047270000005700000077000059510000000000000000000S
022015121011402899FUENTE LA LANCHA                                                                                    002802800000000365000010000032000000320000000000000000000000105000001790000000200000002000002420000000000000000000S
022015121011402999FUENTE OBEJUNA                                                                                      002902900000004961000100000420600004206000000000000000000001572000024620000003200000035000031030000000000000000000S
022015121011403099FUENTE PALMERA                                                                                      003003000000011068000130000858000008580000000000000000000002818000051450000006600000077000064760000000000000000000S
022015121011403199FUENTE-TÓJAR                                                                                        003103100000000721000010000059700000597000000000000000000000201000003230000000000000006000004840000000000000000000S
022015121011403299GRANJUELA (LA)                                                                                      003203200000000482000010000042500000425000000000000000000000167000002550000000300000012000003320000000000000000000S
022015121011403399GUADALCÁZAR                                                                                         003303300000001604000020000128500001285000000000000000000000431000007600000001100000017000009520000000000000000000S
022015121011403499GUIJO (EL)                                                                                          003403400000000382000010000031800000318000000000000000000000109000001890000000200000008000002500000000000000000000S
022015121011403599HINOJOSA DEL DUQUE                                                                                  003503500000007126000080000599200005992000000000000000000002065000031980000004400000038000043930000000000000000000S
022015121011403699HORNACHUELOS                                                                                        003603600000004660000070000376700003767000000000000000000001440000022940000005300000054000028040000000000000000000S
022015121011403799IZNÁJAR                                                                                             003703700000004637000090000334400003344000000000000000000001013000018170000002000000034000024220000000000000000000S
022015121011403899LUCENA                                                                                              003803800000042748000400003223600032236000000000000000000010645000173490000020900000209000225640000000000000000000S
022015121011403999LUQUE                                                                                               003903900000003178000030000262800002628000000000000000000000793000014250000001100000028000021120000000000000000000S
022015121011404099MONTALBÁN DE CÓRDOBA                                                                                004004000000004472000050000379200003792000000000000000000001533000024510000002300000026000029870000000000000000000S
022015121011404199MONTEMAYOR                                                                                          004104100000004001000040000318000003180000000000000000000001029000017800000002600000031000023470000000000000000000S
022015121011404299MONTILLA                                                                                            004204200000023622000270001892100018921000000000000000000007258000112020000018400000189000144690000000000000000000S
022015121011404399MONTORO                                                                                             004304300000009744000100000757400007574000000000000000000002454000039150000004600000061000054640000000000000000000S
022015121011404499MONTURQUE                                                                                           004404400000001995000020000162400001624000000000000000000000618000009910000000900000018000012580000000000000000000S
022015121011404599MORILES                                                                                             004504500000003872000040000305500003055000000000000000000001000000018440000001300000035000024380000000000000000000S
022015121011404699NUEVA CARTEYA                                                                                       004604600000005540000060000448400004484000000000000000000001400000025650000002200000053000034650000000000000000000S
022015121011404799OBEJO                                                                                               004704700000002012000030000165400001654000000000000000000000602000009190000001700000010000011940000000000000000000S
022015121011404899PALENCIANA                                                                                          004804800000001571000020000120600001206000000000000000000000425000007720000001100000018000009380000000000000000000S
022015121011404999PALMA DEL RÍO                                                                                       004904900000021582000210001635700016357000000000000000000005867000095170000012700000177000119020000000000000000000S
022015121011405099PEDRO ABAD                                                                                          005005000000002960000040000239900002399000000000000000000000920000014380000001100000022000018530000000000000000000S
022015121011405199PEDROCHE                                                                                            005105100000001636000020000140100001401000000000000000000000570000008080000000500000018000010720000000000000000000S
022015121011405299PEÑARROYA-PUEBLONUEVO                                                                               005205200000011430000140000944700009447000000000000000000003052000047210000004900000049000061520000000000000000000S
022015121011405399POSADAS                                                                                             005305300000007512000080000605000006050000000000000000000002287000035850000005600000071000043710000000000000000000S
022015121011405499POZOBLANCO                                                                                          005405400000017491000180001366500013665000000000000000000005402000080990000010300000245000105750000000000000000000S
022015121011405599PRIEGO DE CÓRDOBA                                                                                   005505500000023112000290001857200018572000000000000000000006083000097220000016700000177000132430000000000000000000S
022015121011405699PUENTE GENIL                                                                                        005605600000030186000350002361300023613000000000000000000007847000131700000012800000212000166760000000000000000000S
022015121011405799RAMBLA (LA)                                                                                         005705700000007547000080000615200006152000000000000000000002368000039260000005600000070000048470000000000000000000S
022015121011405899RUTE                                                                                                005805800000010387000120000797300007973000000000000000000002626000044110000004900000069000057420000000000000000000S
022015121011405999SAN SEBASTIÁN DE LOS BALLESTEROS                                                                    005905900000000837000010000069900000699000000000000000000000318000004640000000500000007000005470000000000000000000S
022015121011406099SANTAELLA                                                                                           006006000000006097000080000485400004854000000000000000000001603000028090000004300000062000035900000000000000000000S
022015121011406199SANTA EUFEMIA                                                                                       006106100000000893000010000075600000756000000000000000000000306000004520000000200000014000005900000000000000000000S
022015121011406299TORRECAMPO                                                                                          006206200000001202000020000105200001052000000000000000000000534000006370000000400000012000007970000000000000000000S
022015121011406399VALENZUELA                                                                                          006306300000001261000020000106500001065000000000000000000000307000005830000000400000006000007930000000000000000000S
022015121011406499VALSEQUILLO                                                                                         006406400000000385000010000033100000331000000000000000000000116000001730000000200000008000002420000000000000000000S
022015121011406599VICTORIA (LA)                                                                                       006506500000002385000030000186100001861000000000000000000000742000011780000001200000015000014340000000000000000000S
022015121011406699VILLA DEL RÍO                                                                                       006606600000007426000090000589000005890000000000000000000001964000032960000002900000044000042930000000000000000000S
022015121011406799VILLAFRANCA DE CÓRDOBA                                                                              006706700000004893000060000387400003874000000000000000000001559000024690000002900000047000029570000000000000000000S
022015121011406899VILLAHARTA                                                                                          006806800000000719000010000054500000545000000000000000000000219000003250000000600000003000004010000000000000000000S
022015121011406999VILLANUEVA DE CÓRDOBA                                                                               006906900000009226000120000753600007536000000000000000000002669000039220000004800000079000054470000000000000000000S
022015121011407099VILLANUEVA DEL DUQUE                                                                                007007000000001580000020000134300001343000000000000000000000538000007960000000900000018000009990000000000000000000S
022015121011407199VILLANUEVA DEL REY                                                                                  007107100000001122000010000093700000937000000000000000000000287000004530000000200000009000006400000000000000000000S
022015121011407299VILLARALTO                                                                                          007207200000001264000020000107900001079000000000000000000000455000006710000000500000004000008250000000000000000000S
022015121011407399VILLAVICIOSA DE CÓRDOBA                                                                             007307300000003478000040000290000002900000000000000000000000871000014040000001500000027000020260000000000000000000S
022015121011407499VISO (EL)                                                                                           007407400000002683000040000230300002303000000000000000000001050000015730000001300000011000019160000000000000000000S
022015121011407599ZUHEROS                                                                                             007507500000000696000010000058100000581000000000000000000000210000003520000000600000017000004400000000000000000000S
022015121011800199AGRÓN                                                                                               000100100000000313000010000025600000256000000000000000000000081000001370000000200000001000001750000000000000000000S
022015121011800299ALAMEDILLA                                                                                          000200200000000658000010000056100000561000000000000000000000193000003550000000100000002000004430000000000000000000S
022015121011800399ALBOLOTE                                                                                            000300300000018306000200001402200014022000000000000000000004962000082140000008200000087000102480000000000000000000S
022015121011800499ALBONDÓN                                                                                            000400400000000797000010000072400000724000000000000000000000250000004020000000300000006000005020000000000000000000S
022015121011800599ALBUÑÁN                                                                                             000500500000000430000010000037500000375000000000000000000000138000002180000000200000001000002630000000000000000000S
022015121011800699ALBUÑOL                                                                                             000600600000006853000080000416100004161000000000000000000001367000021690000002900000028000027590000000000000000000S
022015121011800799ALBUÑUELAS                                                                                          000700700000000889000010000078500000785000000000000000000000257000004490000000300000004000005200000000000000000000S
022015121011801099ALDEIRE                                                                                             001001000000000644000010000056300000563000000000000000000000204000003760000000400000004000004550000000000000000000S
022015121011801199ALFACAR                                                                                             001101100000005490000070000432100004321000000000000000000001776000024980000001000000017000031090000000000000000000S
022015121011801299ALGARINEJO                                                                                          001201200000002875000050000233000002330000000000000000000000741000011770000001500000010000016450000000000000000000S
022015121011801399ALHAMA DE GRANADA                                                                                   001301300000006191000060000423600004236000000000000000000001372000022770000001900000056000030330000000000000000000S
022015121011801499ALHENDÍN                                                                                            001401400000008306000090000637200006372000000000000000000002176000035560000004400000054000045220000000000000000000S
022015121011801599ALICÚN DE ORTEGA                                                                                    001501500000000529000010000044300000443000000000000000000000119000002310000000000000001000003370000000000000000000S
022015121011801699ALMEGÍJAR                                                                                           001601600000000361000010000032300000323000000000000000000000095000001650000000000000002000002370000000000000000000S
022015121011801799ALMUÑÉCAR                                                                                           001701700000027195000300001817200018172000000000000000000006076000094920000010100000123000118530000000000000000000S
022015121011801899ALQUIFE                                                                                             001801800000000701000010000064000000640000000000000000000000259000003780000000000000002000004880000000000000000000S
022015121011802099ARENAS DEL REY                                                                                      002002000000001913000030000146900001469000000000000000000000405000007930000000700000014000010250000000000000000000S
022015121011802199ARMILLA                                                                                             002102100000023175000250001745100017451000000000000000000006066000099560000010100000115000122040000000000000000000S
022015121011802299ATARFE                                                                                              002202200000017570000210001330600013306000000000000000000004545000073130000005100000074000090400000000000000000000S
022015121011802399BAZA                                                                                                002302300000020644000250001573800015738000000000000000000005352000084950000009200000096000110540000000000000000000S
022015121011802499BEAS DE GRANADA                                                                                     002402400000001005000010000085500000855000000000000000000000314000005490000000800000007000006450000000000000000000S
022015121011802599BEAS DE GUADIX                                                                                      002502500000000364000010000029400000294000000000000000000000118000001730000000000000002000002140000000000000000000S
022015121011802799BENALÚA                                                                                             002702700000003296000040000256200002562000000000000000000000833000015310000001900000019000018080000000000000000000S
022015121011802899BENALÚA DE LAS VILLAS                                                                               002802800000001163000020000094500000945000000000000000000000236000005330000000200000009000007790000000000000000000S
022015121011802999BENAMAUREL                                                                                          002902900000002414000020000183300001833000000000000000000000600000010120000000900000009000012340000000000000000000S
022015121011803099BÉRCHULES                                                                                           003003000000000762000010000058400000584000000000000000000000175000003290000000300000002000004230000000000000000000S
022015121011803299BUBIÓN                                                                                              003203200000000315000010000023900000239000000000000000000000066000001250000000000000003000001750000000000000000000S
022015121011803399BUSQUÍSTAR                                                                                          003303300000000296000010000029400000294000000000000000000000074000001590000000100000001000002180000000000000000000S
022015121011803499CACÍN                                                                                               003403400000000594000020000051000000510000000000000000000000211000003190000000100000000000003900000000000000000000S
022015121011803599CÁDIAR                                                                                              003503500000001545000020000125500001255000000000000000000000457000007060000000400000006000009540000000000000000000S
022015121011803699CÁJAR                                                                                               003603600000004929000050000376800003768000000000000000000001547000023860000001800000022000028640000000000000000000S
022015121011803799CALICASAS                                                                                           003703700000000583000010000053000000530000000000000000000000182000003110000000100000003000004070000000000000000000S
022015121011803899CAMPOTÉJAR                                                                                          003803800000001317000020000106600001066000000000000000000000271000005410000000200000010000008240000000000000000000S
022015121011803999CANILES                                                                                             003903900000004514000060000354400003544000000000000000000001111000019640000003400000033000024770000000000000000000S
022015121011804099CÁÑAR                                                                                               004004000000000408000010000022500000225000000000000000000000075000001200000000000000001000001410000000000000000000S
022015121011804299CAPILEIRA                                                                                           004204200000000496000010000041400000414000000000000000000000125000002420000000000000001000003410000000000000000000S
022015121011804399CARATAUNAS                                                                                          004304300000000209000010000012900000129000000000000000000000058000000750000000000000000000000950000000000000000000S
022015121011804499CÁSTARAS                                                                                            004404400000000242000010000017900000179000000000000000000000044000000780000000000000000000001160000000000000000000S
022015121011804599CASTILLÉJAR                                                                                         004504500000001487000020000114900001149000000000000000000000354000006200000001000000014000007790000000000000000000S
022015121011804699CASTRIL                                                                                             004604600000002290000050000186700001867000000000000000000000410000008880000000800000010000012070000000000000000000S
022015121011804799CENES DE LA VEGA                                                                                    004704700000007943000090000588800005888000000000000000000002049000032050000003200000028000039680000000000000000000S
022015121011804899CIJUELA                                                                                             004804800000003209000040000239000002390000000000000000000000880000014880000000800000018000017980000000000000000000S
022015121011804999COGOLLOS DE GUADIX                                                                                  004904900000000664000010000061700000617000000000000000000000227000003660000000300000005000004480000000000000000000S
022015121011805099COGOLLOS DE LA VEGA                                                                                 005005000000002043000030000171100001711000000000000000000000570000009070000000500000015000012510000000000000000000S
022015121011805199COLOMERA                                                                                            005105100000001431000020000114900001149000000000000000000000355000005900000000700000002000008160000000000000000000S
022015121011805399CORTES DE BAZA                                                                                      005305300000002098000030000166700001667000000000000000000000478000008160000000900000006000010690000000000000000000S
022015121011805499CORTES Y GRAENA                                                                                     005405400000001023000010000086800000868000000000000000000000309000005110000000200000003000006250000000000000000000S
022015121011805699CÚLLAR                                                                                              005605600000004500000060000354500003545000000000000000000001305000021310000002500000029000026620000000000000000000S
022015121011805799CÚLLAR VEGA                                                                                         005705700000007139000070000526300005263000000000000000000002156000032800000003300000031000039040000000000000000000S
022015121011805999CHAUCHINA                                                                                           005905900000005499000060000415300004153000000000000000000001454000025030000002300000035000030160000000000000000000S
022015121011806199CHIMENEAS                                                                                           006106100000001387000020000105900001059000000000000000000000337000006330000000100000006000008150000000000000000000S
022015121011806299CHURRIANA DE LA VEGA                                                                                006206200000013652000130001029800010298000000000000000000003617000060980000006700000072000074450000000000000000000S
022015121011806399DARRO                                                                                               006306300000001501000020000119100001191000000000000000000000301000005540000000600000003000007610000000000000000000S
022015121011806499DEHESAS DE GUADIX                                                                                   006406400000000453000010000037900000379000000000000000000000114000002150000000100000000000003070000000000000000000S
022015121011806599DEHESAS VIEJAS                                                                                      006506500000000766000010000062500000625000000000000000000000175000003460000000100000003000004990000000000000000000S
022015121011806699DEIFONTES                                                                                           006606600000002574000030000210800002108000000000000000000000536000011530000000400000006000015360000000000000000000S
022015121011806799DIEZMA                                                                                              006706700000000766000010000071100000711000000000000000000000202000003530000000000000001000005160000000000000000000S
022015121011806899DÍLAR                                                                                               006806800000001825000020000156600001566000000000000000000000627000009800000000500000020000012090000000000000000000S
022015121011806999DÓLAR                                                                                               006906900000000619000010000049300000493000000000000000000000216000002940000000300000003000003600000000000000000000S
022015121011807099DÚDAR                                                                                               007007000000000340000010000028300000283000000000000000000000101000001720000000000000005000002180000000000000000000S
022015121011807199DÚRCAL                                                                                              007107100000007159000090000558300005583000000000000000000002419000035660000003300000045000041430000000000000000000S
022015121011807299ESCÚZAR                                                                                             007207200000000780000010000066600000666000000000000000000000238000003980000000400000007000004700000000000000000000S
022015121011807499FERREIRA                                                                                            007407400000000326000010000027300000273000000000000000000000111000001720000000200000004000002110000000000000000000S
022015121011807699FONELAS                                                                                             007607600000001050000010000081500000815000000000000000000000239000004580000000000000001000005760000000000000000000S
022015121011807899FREILA                                                                                              007807800000000985000010000073900000739000000000000000000000251000004400000000400000003000005860000000000000000000S
022015121011807999FUENTE VAQUEROS                                                                                     007907900000004479000040000346500003465000000000000000000001298000022400000001600000026000026290000000000000000000S
022015121011808299GALERA                                                                                              008208200000001183000010000086700000867000000000000000000000273000004910000000400000005000006170000000000000000000S
022015121011808399GOBERNADOR                                                                                          008308300000000304000010000026600000266000000000000000000000115000001810000000100000003000002060000000000000000000S
022015121011808499GÓJAR                                                                                               008408400000005390000050000421500004215000000000000000000001718000026330000002400000036000031190000000000000000000S
022015121011808599GOR                                                                                                 008508500000000797000010000072900000729000000000000000000000184000003680000000200000005000004820000000000000000000S
022015121011808699GORAFE                                                                                              008608600000000415000010000035500000355000000000000000000000139000002280000000000000002000002830000000000000000000S
022015121011808799GRANADA                                                                                             008708700000237540002790018487300184873000000000000000000073586001110570000083600000764001366800000000000000000000S
022015121011808899GUADAHORTUNA                                                                                        008808800000001984000020000155600001556000000000000000000000488000008710000000500000005000011030000000000000000000S
022015121011808999GUADIX                                                                                              008908900000018898000250001513200015132000000000000000000005251000081880000006400000087000103380000000000000000000S
022015121011809399GUALCHOS                                                                                            009309300000004975000050000275200002752000000000000000000000959000015280000001000000015000018480000000000000000000S
022015121011809499GÜEJAR SIERRA                                                                                       009409400000002946000040000238900002389000000000000000000000921000014270000002200000021000018100000000000000000000S
022015121011809599GÜEVÉJAR                                                                                            009509500000002558000030000195900001959000000000000000000000650000011050000000500000012000014690000000000000000000S
022015121011809699HUÉLAGO                                                                                             009609600000000438000010000034200000342000000000000000000000111000002180000000100000001000002580000000000000000000S
022015121011809799HUÉNEJA                                                                                             009709700000001193000020000095600000956000000000000000000000266000005330000000100000012000006900000000000000000000S
022015121011809899HUÉSCAR                                                                                             009809800000007772000100000616700006167000000000000000000002106000033220000002200000025000043200000000000000000000S
022015121011809999HUÉTOR DE SANTILLÁN                                                                                 009909900000001916000020000158100001581000000000000000000000565000009460000001000000022000012390000000000000000000S
022015121011810099HUÉTOR TÁJAR                                                                                        010010000000010075000120000776900007769000000000000000000002528000043680000005700000078000055800000000000000000000S
022015121011810199HUÉTOR VEGA                                                                                         010110100000011844000120000926300009263000000000000000000003604000056480000005500000059000068570000000000000000000S
022015121011810299ILLORA                                                                                              010210200000010500000130000842400008424000000000000000000002487000044480000004100000067000056750000000000000000000S
022015121011810399ITRABO                                                                                              010310300000001014000010000076000000760000000000000000000000304000004850000000600000003000005870000000000000000000S
022015121011810599IZNALLOZ                                                                                            010510500000006867000060000454800004548000000000000000000001264000023060000001900000030000031200000000000000000000S
022015121011810799JAYENA                                                                                              010710700000001212000020000097100000971000000000000000000000320000005990000000600000008000007050000000000000000000S
022015121011810899JEREZ DEL MARQUESADO                                                                                010810800000001027000010000085800000858000000000000000000000300000005190000000000000005000006670000000000000000000S
022015121011810999JETE                                                                                                010910900000000929000010000059900000599000000000000000000000230000003480000000200000002000004170000000000000000000S
022015121011811199JUN                                                                                                 011111100000003661000040000274300002743000000000000000000001059000016530000001400000013000020190000000000000000000S
022015121011811299JUVILES                                                                                             011211200000000134000010000013100000131000000000000000000000026000000420000000100000002000000850000000000000000000S
022015121011811499CALAHORRA (LA)                                                                                      011411400000000748000010000063400000634000000000000000000000211000003550000000200000005000004500000000000000000000S
022015121011811599LÁCHAR                                                                                              011511500000003260000040000254800002548000000000000000000000941000015280000001600000018000018380000000000000000000S
022015121011811699LANJARÓN                                                                                            011611600000003717000050000288200002882000000000000000000001145000016870000001900000030000021960000000000000000000S
022015121011811799LANTEIRA                                                                                            011711700000000526000010000051300000513000000000000000000000186000003180000000400000006000003920000000000000000000S
022015121011811999LECRÍN                                                                                              011911900000002178000050000172900001729000000000000000000000637000010730000001300000013000013270000000000000000000S
022015121011812099LENTEGÍ                                                                                             012012000000000358000010000027000000270000000000000000000000073000001510000000200000002000002140000000000000000000S
022015121011812199LOBRAS                                                                                              012112100000000165000010000013200000132000000000000000000000049000000710000000100000001000000990000000000000000000S
022015121011812299LOJA                                                                                                012212200000021136000260001617100016171000000000000000000005185000087950000010600000162000114020000000000000000000S
022015121011812399LUGROS                                                                                              012312300000000328000010000029300000293000000000000000000000107000001870000000200000001000002250000000000000000000S
022015121011812499LÚJAR                                                                                               012412400000000504000010000039300000393000000000000000000000125000002080000000100000003000002700000000000000000000S
022015121011812699MALAHÁ (LA)                                                                                         012612600000001853000020000149700001497000000000000000000000594000009040000000700000007000010800000000000000000000S
022015121011812799MARACENA                                                                                            012712700000021633000220001658600016586000000000000000000005965000095550000009700000101000118000000000000000000000S
022015121011812899MARCHAL                                                                                             012812800000000428000010000034400000344000000000000000000000110000001970000000000000003000002480000000000000000000S
022015121011813299MOCLÍN                                                                                              013213200000004059000050000331200003312000000000000000000001006000018430000001400000026000025420000000000000000000S
022015121011813399MOLVÍZAR                                                                                            013313300000002903000040000218700002187000000000000000000000850000013980000000700000009000017150000000000000000000S
022015121011813499MONACHIL                                                                                            013413400000007398000090000581100005811000000000000000000001950000031890000002500000056000039210000000000000000000S
022015121011813599MONTEFRÍO                                                                                           013513500000005806000060000458300004583000000000000000000001215000020460000001400000047000029840000000000000000000S
022015121011813699MONTEJÍCAR                                                                                          013613600000002265000030000187500001875000000000000000000000592000010210000000700000007000014630000000000000000000S
022015121011813799MONTILLANA                                                                                          013713700000001324000020000100500001005000000000000000000000268000004590000000600000000000007520000000000000000000S
022015121011813899MORALEDA DE ZAFAYONA                                                                                013813800000003224000030000248200002482000000000000000000000880000015100000000800000009000017040000000000000000000S
022015121011814099MOTRIL                                                                                              014014000000060870000630004356700043567000000000000000000015521000234440000019400000223000287380000000000000000000S
022015121011814199MURTAS                                                                                              014114100000000541000010000041400000414000000000000000000000156000002150000000100000005000002760000000000000000000S
022015121011814399NIGÜELAS                                                                                            014314300000001219000010000097900000979000000000000000000000349000006430000000200000005000007740000000000000000000S
022015121011814499NÍVAR                                                                                               014414400000000920000010000078200000782000000000000000000000280000004480000000300000008000005850000000000000000000S
022015121011814599OGÍJARES                                                                                            014514500000013681000150001043200010432000000000000000000004039000062510000005600000062000077110000000000000000000S
022015121011814699ORCE                                                                                                014614600000001264000020000097000000970000000000000000000000390000006080000000600000007000007210000000000000000000S
022015121011814799ÓRGIVA                                                                                              014714700000005393000060000373400003734000000000000000000001230000017470000001000000030000023760000000000000000000S
022015121011814899OTÍVAR                                                                                              014814800000001108000010000081900000819000000000000000000000315000004880000000100000005000006650000000000000000000S
022015121011814999VILLA DE OTURA                                                                                      014914900000006872000070000517700005177000000000000000000002011000030810000002900000044000038730000000000000000000S
022015121011815099PADUL                                                                                               015015000000008353000090000673000006730000000000000000000002469000039750000002800000044000047860000000000000000000S
022015121011815199PAMPANEIRA                                                                                          015115100000000323000010000026000000260000000000000000000000103000001560000000000000000000001960000000000000000000S
022015121011815299PEDRO MARTÍNEZ                                                                                      015215200000001182000010000093800000938000000000000000000000358000005560000000100000006000006800000000000000000000S
022015121011815399PELIGROS                                                                                            015315300000011212000120000858000008580000000000000000000002981000049920000003900000054000062210000000000000000000S
022015121011815499PEZA (LA)                                                                                           015415400000001263000020000101600001016000000000000000000000312000005380000000200000000000007140000000000000000000S
022015121011815799PINOS GENIL                                                                                         015715700000001407000020000112300001123000000000000000000000424000006760000000800000013000008150000000000000000000S
022015121011815899PINOS PUENTE                                                                                        015815800000012808000130000840800008408000000000000000000002617000044950000003800000062000055040000000000000000000S
022015121011815999PÍÑAR                                                                                               015915900000001234000020000100900001009000000000000000000000302000006100000000300000009000007990000000000000000000S
022015121011816199POLÍCAR                                                                                             016116100000000234000010000022000000220000000000000000000000081000001400000000100000000000001830000000000000000000S
022015121011816299POLOPOS                                                                                             016216200000001847000020000095100000951000000000000000000000381000005900000000000000010000007340000000000000000000S
022015121011816399PÓRTUGOS                                                                                            016316300000000382000010000032400000324000000000000000000000101000001790000000100000004000002340000000000000000000S
022015121011816499PUEBLA DE DON FADRIQUE                                                                              016416400000002324000040000183100001831000000000000000000000611000009730000001100000013000012490000000000000000000S
022015121011816599PULIANAS                                                                                            016516500000005366000060000413500004135000000000000000000001526000023780000002300000029000028920000000000000000000S
022015121011816799PURULLENA                                                                                           016716700000002429000030000189700001897000000000000000000000622000010740000000800000008000013050000000000000000000S
022015121011816899QUÉNTAR                                                                                             016816800000000992000010000080900000809000000000000000000000266000004360000000500000001000005830000000000000000000S
022015121011817099RUBITE                                                                                              017017000000000455000010000033600000336000000000000000000000115000001700000000100000002000002240000000000000000000S
022015121011817199SALAR                                                                                               017117100000002735000030000212300002123000000000000000000000743000013320000001400000024000016020000000000000000000S
022015121011817399SALOBREÑA                                                                                           017317300000012431000120000897800008978000000000000000000003359000051440000005000000068000062010000000000000000000S
022015121011817499SANTA CRUZ DEL COMERCIO                                                                             017417400000000552000010000044200000442000000000000000000000165000002740000000200000006000003460000000000000000000S
022015121011817599SANTA FE                                                                                            017517500000015168000180001162400011624000000000000000000004587000070600000004100000082000084260000000000000000000S
022015121011817699SOPORTÚJAR                                                                                          017617600000000320000010000025800000258000000000000000000000074000001410000000300000001000001750000000000000000000S
022015121011817799SORVILÁN                                                                                            017717700000000569000010000042700000427000000000000000000000123000001780000000300000001000002550000000000000000000S
022015121011817899TORRE-CARDELA                                                                                       017817800000000860000010000074300000743000000000000000000000251000004390000000200000000000005690000000000000000000S
022015121011817999TORVIZCÓN                                                                                           017917900000000710000010000054600000546000000000000000000000160000003040000000100000001000003760000000000000000000S
022015121011818099TREVÉLEZ                                                                                            018018000000000792000010000063100000631000000000000000000000186000003230000000200000001000004450000000000000000000S
022015121011818199TURÓN                                                                                               018118100000000289000010000022300000223000000000000000000000065000001260000000000000002000001570000000000000000000S
022015121011818299UGÍJAR                                                                                              018218200000002619000030000191900001919000000000000000000000682000010830000000300000009000013440000000000000000000S
022015121011818399VÁLOR                                                                                               018318300000000623000010000066000000660000000000000000000000214000003660000000300000003000004620000000000000000000S
022015121011818499VÉLEZ DE BENAUDALLA                                                                                 018418400000002876000040000215800002158000000000000000000000912000014010000000400000025000016300000000000000000000S
022015121011818599VENTAS DE HUELMA                                                                                    018518500000000676000010000055600000556000000000000000000000251000003790000000100000000000004600000000000000000000S
022015121011818799VILLANUEVA DE LAS TORRES                                                                            018718700000000677000010000056100000561000000000000000000000150000002470000000100000001000004160000000000000000000S
022015121011818899VILLANUEVA MESÍA                                                                                    018818800000002045000020000164200001642000000000000000000000558000010030000000800000015000012260000000000000000000S
022015121011818999VÍZNAR                                                                                              018918900000000991000010000077200000772000000000000000000000264000004960000000700000004000005880000000000000000000S
022015121011819299ZAFARRAYA                                                                                           019219200000002023000030000152900001529000000000000000000000505000009520000000300000008000012050000000000000000000S
022015121011819399ZUBIA (LA)                                                                                          019319300000018574000200001419400014194000000000000000000005282000081000000009100000084000101050000000000000000000S
022015121011819499ZÚJAR                                                                                               019419400000002825000030000215200002152000000000000000000000592000010400000000600000010000014710000000000000000000S
022015121011890199TAHA (LA)                                                                                           090190100000000663000010000051200000512000000000000000000000174000002490000000100000002000003560000000000000000000S
022015121011890299VALLE (EL)                                                                                          090290200000001049000020000084700000847000000000000000000000395000005700000001000000006000006640000000000000000000S
022015121011890399NEVADA                                                                                              090390300000001149000020000089200000892000000000000000000000310000005240000000100000005000006440000000000000000000S
022015121011890499ALPUJARRA DE LA SIERRA                                                                              090490400000001065000020000077900000779000000000000000000000276000004310000000100000005000005640000000000000000000S
022015121011890599GABIAS (LAS)                                                                                        090590500000019364000210001450000014500000000000000000000005159000081570000008200000079000099760000000000000000000S
022015121011890699GUAJARES (LOS)                                                                                      090690600000001128000030000091700000917000000000000000000000318000005180000000200000008000006710000000000000000000S
022015121011890799VALLE DEL ZALABÍ                                                                                    090790700000002274000040000185900001859000000000000000000000641000011820000000500000007000014700000000000000000000S
022015121011890899VILLAMENA                                                                                           090890800000001063000020000080500000805000000000000000000000330000004940000000200000013000006180000000000000000000S
022015121011890999MORELÁBOR                                                                                           090990900000000685000010000058900000589000000000000000000000172000003460000000000000003000004590000000000000000000S
022015121011891099PINAR (EL)                                                                                          091091000000001001000020000080300000803000000000000000000000271000004510000000500000004000005640000000000000000000S
022015121011891199VEGAS DEL GENIL                                                                                     091191100000010264000110000739200007392000000000000000000002663000042970000004400000058000052570000000000000000000S
022015121011891299CUEVAS DEL CAMPO                                                                                    091291200000001919000020000148800001488000000000000000000000383000006710000000700000014000010000000000000000000000S
022015121011891399ZAGRA                                                                                               091391300000000898000010000081800000818000000000000000000000237000004150000000200000014000006010000000000000000000S
022015121011891499VALDERRUBIO                                                                                         091491400000002111000020000165800001658000000000000000000000605000010550000000800000014000012820000000000000000000S
022015121012100199ALÁJAR                                                                                              000100100000000798000010000064800000648000000000000000000000248000003550000000400000010000004650000000000000000000S
022015121012100299ALJARAQUE                                                                                           000200200000019857000220001534800015348000000000000000000004525000078350000008000000075000107840000000000000000000S
022015121012100399ALMENDRO (EL)                                                                                       000300300000000846000010000069500000695000000000000000000000196000003500000000100000008000005240000000000000000000S
022015121012100499ALMONASTER LA REAL                                                                                  000400400000001863000040000164100001641000000000000000000000413000007690000001000000023000010370000000000000000000S
022015121012100599ALMONTE                                                                                             000500500000023046000240001548600015486000000000000000000005186000078820000006400000121000101250000000000000000000S
022015121012100699ALOSNO                                                                                              000600600000004103000050000340200003402000000000000000000000998000018520000001300000039000023460000000000000000000S
022015121012100799ARACENA                                                                                             000700700000007859000120000623100006231000000000000000000001942000030830000004500000058000041820000000000000000000S
022015121012100899AROCHE                                                                                              000800800000003205000050000266200002662000000000000000000000753000013440000001400000016000018170000000000000000000S
022015121012100999ARROYOMOLINOS DE LEÓN                                                                               000900900000000998000010000086000000860000000000000000000000279000004020000000600000016000005490000000000000000000S
022015121012101099AYAMONTE                                                                                            001001000000019690000230001468400014684000000000000000000003520000065290000009200000068000086060000000000000000000S
022015121012101199BEAS                                                                                                001101100000004190000060000346400003464000000000000000000001101000019320000001900000018000024990000000000000000000S
022015121012101299BERROCAL                                                                                            001201200000000329000010000032200000322000000000000000000000104000001770000000000000007000002270000000000000000000S
022015121012101399BOLLULLOS PAR DEL CONDADO                                                                           001301300000014393000150001059700010597000000000000000000003232000055760000006900000159000069920000000000000000000S
022015121012101499BONARES                                                                                             001401400000006244000060000404100004041000000000000000000001347000022830000001500000033000031550000000000000000000S
022015121012101599CABEZAS RUBIAS                                                                                      001501500000000760000010000068300000683000000000000000000000166000003210000000600000005000004140000000000000000000S
022015121012101699CALA                                                                                                001601600000001244000020000103400001034000000000000000000000395000006120000000200000013000007620000000000000000000S
022015121012101799CALAÑAS                                                                                             001701700000004167000060000364300003643000000000000000000000840000016790000001700000032000022520000000000000000000S
022015121012101899CAMPILLO (EL)                                                                                       001801800000002144000030000178000001780000000000000000000000514000008910000001000000021000011210000000000000000000S
022015121012101999CAMPOFRÍO                                                                                           001901900000000673000010000059000000590000000000000000000000212000003590000000400000010000004190000000000000000000S
022015121012102099CAÑAVERAL DE LEÓN                                                                                   002002000000000416000010000037200000372000000000000000000000133000002040000000200000003000002360000000000000000000S
022015121012102199CARTAYA                                                                                             002102100000019168000180001223300012233000000000000000000002814000053080000009400000081000073760000000000000000000S
022015121012102299CASTAÑO DEL ROBLEDO                                                                                 002202200000000211000010000017400000174000000000000000000000043000000840000000100000006000001080000000000000000000S
022015121012102399CERRO DE ANDÉVALO (EL)                                                                              002302300000002460000040000214700002147000000000000000000000425000009580000000600000022000013510000000000000000000S
022015121012102499CORTECONCEPCIÓN                                                                                     002402400000000556000010000049500000495000000000000000000000197000002670000000500000006000003390000000000000000000S
022015121012102599CORTEGANA                                                                                           002502500000005025000080000404900004049000000000000000000001098000018280000002500000029000026280000000000000000000S
022015121012102699CORTELAZOR                                                                                          002602600000000289000010000027000000270000000000000000000000083000001340000000100000006000001770000000000000000000S
022015121012102799CUMBRES DE ENMEDIO                                                                                  002702700000000048000010000004900000049000000000000000000000023000000270000000100000000000000350000000000000000000S
022015121012102899CUMBRES DE SAN BARTOLOMÉ                                                                            002802800000000426000010000038100000381000000000000000000000112000002170000000000000003000002870000000000000000000S
022015121012102999CUMBRES MAYORES                                                                                     002902900000001872000030000156400001564000000000000000000000498000008470000001600000040000011100000000000000000000S
022015121012103099CHUCENA                                                                                             003003000000002020000030000182400001824000000000000000000000781000012760000001100000019000014610000000000000000000S
022015121012103199ENCINASOLA                                                                                          003103100000001304000020000120900001209000000000000000000000333000005620000000300000017000008250000000000000000000S
022015121012103299ESCACENA DEL CAMPO                                                                                  003203200000002082000030000180500001805000000000000000000000639000011160000001500000019000013440000000000000000000S
022015121012103399FUENTEHERIDOS                                                                                       003303300000000625000010000053600000536000000000000000000000214000003170000000000000004000003950000000000000000000S
022015121012103499GALAROZA                                                                                            003403400000001503000020000120700001207000000000000000000000376000006250000000800000010000008300000000000000000000S
022015121012103599GIBRALEÓN                                                                                           003503500000012474000140000962200009622000000000000000000002934000047730000006900000086000062440000000000000000000S
