031996031049020000007020TANTONIO MARTINEZ CAYUELA                                                    000000000000000000N
031996031049005000019005TFRANCISCO GONZALEZ HERNANDEZ                                                000000000000000000N
031996031049013000032013TJOSE BERDUGO ROMERO                                                         000000000000000000N
031996031049002000051002TJUAN EUGENIO ALFONSO FERNANDEZ                                              000000000000000000N
031996031049003000051003TRAFAEL LAZARO PEREZ                                                         000000000000000000N
031996031049004000051004TFRANCISCA OLIVENCIA FERNANDEZ                                               000000000000000000N
031996031049017000065017TSALVADOR GONZALEZ ROMERA                                                    000000000000000000N
031996031049018000065018TINDALECIO GUTIERREZ MUÑOZ                                                   000000000000000000N
031996031049019000065019TMARIANO JUNCO GONZALEZ                                                      000000000000000000N
031996031049007000068007TJOSE ANDREU GALAN                                                           000000000000000000N
031996031049008000068008TMARIA LORETO FERNANDEZ-NIETO FERNANDEZ                                      000000000000000000N
031996031049009000068009TFERNANDO MOLERO GARZON                                                      000000000000000000N
031996031049010000091010TENRIQUE PEDRO ARANCE SOTO                                                   000000000000000000S
031996031049011000091011TMARIA SOL PIZARRO SANCHEZ                                                   000000000000000000N
031996031049012000091012TLUIS ROGELIO RODRIGUEZ-COMENDADOR PEREZ                                     000000000000000000N
031996031049014000109014TANTONIO BONILLA RODRIGUEZ                                                   000000000000000000S
031996031049015000109015TBARTOLOME ANTONIO FLORES FLORES                                             000000000000000000S
031996031049016000109016TMARIA MARTINEZ CASTRO                                                       000000000000000000S
031996031049001000116001TFELIX SANTOS LARGO CANO                                                     000000000000000000N
031996031049006000124006TCIPRIA FLUIXA CASTELLO                                                      000000000000000000N
031996031119013000007013TJUAN ANTONIO GARCES DOMINGUEZ                                               000000000000000000N
031996031119020000019020TMANUEL GOMEZ LAGUNA                                                         000000000000000000N
031996031119005000032005TANGEL ROVIRA GARCIA                                                         000000000000000000N
031996031119010000051010TJOSE CAMPOS VARELA                                                          000000000000000000N
031996031119011000051011TMARIA DEL CARMEN ORTIZ VELASCO                                              000000000000000000N
031996031119012000051012TJUSTO DE LA ROSA JIMENEZ                                                    000000000000000000N
031996031119018000065018TANTONIO GODOY ROMERO                                                        000000000000000000N
031996031119019000065019TJUAN MANUEL NIETO GARCIA                                                    000000000000000000N
031996031119014000068014TFRANCISCO GOMEZ VILLALVA                                                    000000000000000000N
031996031119015000068015TMANUEL PAULETE TROYANO                                                      000000000000000000N
031996031119016000068016TEMILIO RUBIALES ROJAS                                                       000000000000000000N
031996031119001000074001TRAFAEL RIVERO GUTIERREZ                                                     000000000000000000N
031996031119006000091006TJUAN MANUEL ARMARIO VAZQUEZ                                                 000000000000000000S
031996031119007000091007TALVARO MOLINA FERNANDEZ DE MIRANDA                                          000000000000000000N
031996031119008000091008TSEBASTIAN RUIZ BENITEZ                                                      000000000000000000N
031996031119002000109002TJOSE CARRACAO GUTIERREZ                                                     000000000000000000S
031996031119003000109003TMARIA JESUS CASTRO MATEOS                                                   000000000000000000S
031996031119004000109004TJOSE FERNANDEZ CHACON                                                       000000000000000000S
031996031119009000116009TMARIA DEL CARMEN CHACON ORTEGA                                              000000000000000000N
031996031119017000124017TIGNACIO CARTAGENA SINISTERRA                                                000000000000000000N
031996031149007000007007TSIXTO POVEDA DIAZ                                                           000000000000000000N
031996031149012000019012TMARIA CRUZ JIMENEZ PALOP                                                    000000000000000000N
031996031149020000032020TJOSE CAPDEVILA OROZCO                                                       000000000000000000N
031996031149021000033021TGABRIEL LOZANO CANSINO                                                      000000000000000000N
031996031149022000033022TCARLOS VICENTE MORIN TORTOSA                                                000000000000000000N
031996031149001000051001TJUAN BALSERA SANTOS                                                         000000000000000000N
031996031149002000051002TCATALINA BARRAGAN MAGDALENO                                                 000000000000000000N
031996031149003000051003TERNESTO CABALLERO CASTILLO                                                  000000000000000000N
031996031149011000065011TANTOLIN JOAQUIN ORTIZ ATENCIANO                                             000000000000000000N
031996031149017000068017TJULIO ALCANTARA ALCANTARA                                                   000000000000000000N
031996031149018000068018TFRANCISCO NARANJO AMO                                                       000000000000000000N
031996031149019000068019TMARIA INES ACEVEDO MORENO                                                   000000000000000000N
031996031149015000074015TFRANCISCO CEJAS MORENO                                                      000000000000000000N
031996031149016000074016TMIGUEL MORILLO GUERRERO                                                     000000000000000000N
031996031149004000091004TENRIQUE RAFAEL BELLIDO MUÑOZ                                                000000000000000000S
031996031149005000091005TRAFAEL MERINO LOPEZ                                                         000000000000000000N
031996031149006000091006TSALVADOR SILES ARJONA                                                       000000000000000000N
031996031149013000116013TFERNANDO JAVIER FERNANDEZ MARTINEZ                                          000000000000000000N
031996031149014000124014TMIGUEL ANGEL GARCIA GIMENEZ                                                 000000000000000000N
031996031149008000132008TELOISA FERNANDEZ VALENZUELA                                                 000000000000000000S
031996031149009000132009TPRUDENCIO OSTOS DOMINGUEZ                                                   000000000000000000S
031996031149010000132010TPEDRO RODRIGUEZ CANTERO                                                     000000000000000000S
031996031189001000007001TLUIS JOSE ESCOBAR ALVARO                                                    000000000000000000N
031996031189027000019027TJUAN ANTONIO RIVILLA JIMENEZ                                                000000000000000000N
031996031189005000032005TMANUEL CONTRERAS BOLIVAR                                                    000000000000000000N
031996031189015000033015TITZIAR MILLAN JAUREGUIZAR                                                   000000000000000000N
031996031189017000051017TJUAN AGUDO SANCHEZ                                                          000000000000000000N
031996031189018000051018TAFRICA ALONSO MORALES                                                       000000000000000000N
031996031189019000051019TBLAS RUEDAS PONCE                                                           000000000000000000N
031996031189016000059016TFRANCISCO MARIA DEL RIO SANCHEZ                                             000000000000000000N
031996031189006000065006TFRANCISCO CABRERIZO SALMERON                                                000000000000000000N
031996031189007000065007TMARIO ESPINOSA SANCHEZ                                                      000000000000000000N
031996031189008000065008TMANUEL NIETO NAVARRO                                                        000000000000000000N
031996031189012000068012TMIGUEL AVILA PADIAL                                                         000000000000000000N
031996031189013000068013TLUIS PONCE DE LEON DIAZ                                                     000000000000000000N
031996031189014000068014TJUAN JESUS VALENZUELA RUIZ                                                  000000000000000000N
031996031189002000074002TANTONIA CALPENA GARCIA                                                      000000000000000000N
031996031189003000074003TCARMEN FERNANDEZ DE LA ROSA                                                 000000000000000000N
031996031189004000074004TROQUE ISIDRO HIDALGO ALVAREZ                                                000000000000000000N
031996031189009000091009TJOSE GABRIEL DIAZ BERBEL                                                    000000000000000000S
031996031189010000091010TJUAN DE DIOS MARTINEZ SORIANO                                               000000000000000000N
031996031189011000091011TRAFAEL VICENTE VALERO RODRIGUEZ                                             000000000000000000N
031996031189024000109024TENRIQUE SERAFIN COBO FERNANDEZ                                              000000000000000000S
031996031189025000109025TMANUEL DE LA PLATA RODRIGUEZ                                                000000000000000000S
031996031189026000109026TFRANCISCA PLEGUEZUELOS AGUILAR                                              000000000000000000S
031996031189020000116020TMARIA DEL CAMINO MAGRO FERNANDEZ                                            000000000000000000N
031996031189021000116021TDOLORES ORTEGA FERNANDEZ                                                    000000000000000000N
031996031189022000116022TMARIA EULALIA RIAÑO LOPEZ                                                   000000000000000000N
031996031189023000124023TAMADEO SANCHEZ YUSTE                                                        000000000000000000N
031996031219022000007022TMARIA TRENOR DICENTA                                                        000000000000000000N
031996031219003000032003TVICENTE ALFONSO MARTINEZ                                                    000000000000000000N
031996031219004000032004TMANUEL VIRELLA REDONDO                                                      000000000000000000N
031996031219011000033011TJUAN DE DIOS ALAMO RUIZ                                                     000000000000000000N
031996031219016000051016TJUAN MANUEL ARAZOLA CORVERA                                                 000000000000000000N
031996031219017000051017TDOMINGO CASERO RUIZ                                                         000000000000000000N
031996031219018000051018TMANUELA MARTIN CANO                                                         000000000000000000N
031996031219001000065001TARTURO CARRASCO SANCHEZ                                                     000000000000000000N
031996031219008000068008TMARIA BLANCA CANDON GONZALEZ                                                000000000000000000N
031996031219009000068009TJUAN BAUTISTA DE MORA NAVARRO                                               000000000000000000N
031996031219010000068010TLUIS DE LA RASILLA SANCHEZ-ARJONA                                           000000000000000000N
031996031219002000074002THERMINIA GODINO ALONSO                                                      000000000000000000N
031996031219013000091013TARTURO ESTEBAN ALBERT                                                       000000000000000000S
031996031219014000091014TMANUEL MARTIN FLORIDO                                                       000000000000000000N
031996031219015000091015TALFONSO VIEJO RIVERO                                                        000000000000000000N
031996031219019000109019TROSARIO BALLESTER ANGULO                                                    000000000000000000S
031996031219020000109020TFRANCISCO BELLA GALAN                                                       000000000000000000S
031996031219021000109021TANTONIO GARCIA CORREA                                                       000000000000000000S
031996031219005000116005TCELESTINO FERNANDEZ PANIAGUA                                                000000000000000000N
031996031219006000116006TMARIA DEL ROSARIO RODRIGUEZ GARCIA                                          000000000000000000N
031996031219007000116007TJOAQUIN CARLOS VILAR MARTIN                                                 000000000000000000N
031996031219012000124012TTEODORA MATEU DOMENECH                                                      000000000000000000N
031996031239007000007007TCARLOS RAMOS ALVAREZ                                                        000000000000000000N
031996031239014000019014TMARIA ROSARIO MARTIN COBO                                                   000000000000000000N
031996031239003000032003TJOSE MANUEL CUBERO GARCIA                                                   000000000000000000N
031996031239001000033001TJOSE MANUEL MONTAÑES RUIZ                                                   000000000000000000N
031996031239019000051019TMARCELO CUEVAS SANCHEZ                                                      000000000000000000N
031996031239020000051020TJUSTO MARTINEZ ESPINAR                                                      000000000000000000N
031996031239021000051021TANA TORRES MEDINA                                                           000000000000000000N
031996031239018000065018TMARIA ANGELES SANCHEZ JIMENEZ                                               000000000000000000N
031996031239011000068011TEUSEBIO GASCON MATEOS                                                       000000000000000000N
031996031239012000068012TGODOFREDO GUTIERREZ SANCHEZ                                                 000000000000000000N
031996031239013000068013TFRANCISCO PEREZ PORTILLO                                                    000000000000000000N
031996031239015000091015TRAMON PALACIOS RUBIO                                                        000000000000000000S
031996031239016000091016TCLEMENTA SANCHEZ RAMIRO                                                     000000000000000000N
031996031239017000091017TPABLO TORREGROSA HERNANDEZ                                                  000000000000000000N
031996031239008000109008TCRISTOBAL JOSE LOPEZ CARVAJAL                                               000000000000000000S
031996031239009000109009TFIDEL MESA CIRIZA                                                           000000000000000000S
031996031239010000109010TMICAELA NAVARRO GARZON                                                      000000000000000000S
031996031239004000116004TGERARDO APARICIO VILLENA                                                    000000000000000000N
031996031239005000116005TRAFAEL CHARQUERO DEL CAMPO                                                  000000000000000000N
031996031239006000116006TFRANCISCO HERRERA GARCIA                                                    000000000000000000N
031996031239002000124002TJOSE ARNAU GINER                                                            000000000000000000N
031996031299002000032002TJUAN ANTONIO HERRERA MARIN                                                  000000000000000000N
031996031299006000051006TMIGUEL LOPEZ GARCIA                                                         000000000000000000N
031996031299007000051007TELIAS RUIZ CORTES                                                           000000000000000000N
031996031299008000051008TBLANCA ADELA SANCHEZ ZAMBRANA                                               000000000000000000N
031996031299009000059009TIGNACIO MARIA RIOS SANCHEZ                                                  000000000000000000N
031996031299003000065003TFRANCISCO GABRIEL LIMA TIRADO                                               000000000000000000N
031996031299004000065004TRAFAEL PARRON PINTO                                                         000000000000000000N
031996031299005000065005TJOSEFA SANCHEZ SUAREZ                                                       000000000000000000N
031996031299021000068021TMIGUEL ANGEL ASENJO BENITEZ                                                 000000000000000000N
031996031299022000068022TANASTASIO MARTINEZ DE PEDRO                                                 000000000000000000N
031996031299023000068023TJOSE FRANCISCO RUIZ MONTES                                                  000000000000000000N
031996031299015000091015TJUAN BLANCAS LLAMAS                                                         000000000000000000S
031996031299016000091016TJOSE MIGUEL FERNANDEZ PELEGRINA                                             000000000000000000N
031996031299017000091017TMARIA ESPERANZA OÑA SEVILLA                                                 000000000000000000N
031996031299014000101014TVICENTA PADILLA MUÑOZ                                                       000000000000000000N
031996031299018000109018TMANUEL ARJONA SANTANA                                                       000000000000000000S
031996031299019000109019TANA DEL CARMEN GUIRADO PEREZ                                                000000000000000000S
031996031299020000109020TFRANCISCO JOSE ZAMORANO VAZQUEZ                                             000000000000000000S
031996031299001000115001TJOSE CARLOS JORDAN MARTIN                                                   000000000000000000N
031996031299010000116010TJULIA BURGOS GOMEZ                                                          000000000000000000N
031996031299011000116011TJOSE LUIS GOMEZ DIAZ                                                        000000000000000000N
031996031299012000116012TJUAN PEREA GARRIDO                                                          000000000000000000N
031996031299013000124013TMANUEL LAPUENTE MONEDERO                                                    000000000000000000N
031996031419022000019022TJUAN SANZ DEL CURA                                                          000000000000000000N
031996031419003000032003TENRIQUE CARBONELL SANCHEZ-GIJON                                             000000000000000000N
031996031419004000032004TMIGUEL ANGEL LOMA PEREZ                                                     000000000000000000N
031996031419005000032005TJACQUELINE NAVARRO VICENTE                                                  000000000000000000N
031996031419019000033019TJORGE LUIS FRANCISCO GIL LORENZO                                            000000000000000000N
031996031419020000033020TJOAQUIN MONTAÑES RUIZ                                                       000000000000000000N
031996031419013000051013TMANUEL SANTIAGO FERNANDEZ DEL POZO                                          000000000000000000N
031996031419014000051014TMARIA TERESA GARCIA GARCIA                                                  000000000000000000N
031996031419015000051015TJUAN PRADAS ORTIZ                                                           000000000000000000N
031996031419006000065006TMARIA ISABEL ALSINA CAELLAS                                                 000000000000000000N
031996031419007000065007TMARIA DEL MAR BAREA GARCIA                                                  000000000000000000N
031996031419008000065008TINMACULADA ORDOÑEZ RUIZ                                                     000000000000000000N
031996031419016000068016TTOMAS ALFARO SUAREZ                                                         000000000000000000N
031996031419017000068017TJESUS REYES PEREZ LOPEZ                                                     000000000000000000N
031996031419018000068018TJUAN ANTONIO RIVERA MELENDEZ                                                000000000000000000N
031996031419001000074001TJOSE MANUEL GUERRA LOBO                                                     000000000000000000N
031996031419010000091010TJUAN MOYA SANABRIA                                                          000000000000000000S
031996031419011000091011TMARGARITA PARRILLA MUÑOZ                                                    000000000000000000N
031996031419012000091012TVICTORIA YBARRA ALLENDE                                                     000000000000000000N
031996031419002000101002TANTONIO POSTIGO LEON                                                        000000000000000000N
031996031419026000109026TANA ISABEL ARNAIZ DE LAS REVILLAS GARCIA                                    000000000000000000S
031996031419027000109027TJOAQUIN JESUS GALAN PEREZ                                                   000000000000000000S
031996031419028000109028TJOSE MARIA RODRIGUEZ DE LA BORBOLLA CAMOYAN                                 000000000000000000S
031996031419021000116021TMARIA ANGELES AGUILERA LUNA                                                 000000000000000000N
031996031419009000124009TMARGARITA PALOMAR LACRUZ                                                    000000000000000000N
031996031419023000125023TJOSE MANZANO SANCHEZ                                                        000000000000000000N
031996031419024000125024TRAFAEL PERTEGAL RUIZ DE HENESTROSA                                          000000000000000000N
031996031419025000125025TROCIO RODRIGUEZ JIMENEZ                                                     000000000000000000N
031996031229015000014015TROSA MARIA AZUCENA LOZANO ROY                                               000000000000000000N
031996031229016000014016TCARLOS ENRIQUE GABRIEL REYES RUBIO                                          000000000000000000N
031996031229017000014017TJUAN JOSE SAMPIETRO NOGUERO                                                 000000000000000000N
031996031229006000019006TANA MARIA MUR ESTRADA                                                       000000000000000000N
031996031229014000032014TMIGUEL ANGEL LOPE BLESA                                                     000000000000000000N
031996031229001000042001TMANUEL PEDRO BENITO MOLINER                                                 000000000000000000N
031996031229002000042002TFLORENCIO JESUS ESCARTIN CLAVER                                             000000000000000000N
031996031229003000042003TISABEL MORENO GREGORIO                                                      000000000000000000N
031996031229018000094018TRODOLFO AINSA ESCARTIN                                                      000000000000000000S
031996031229019000094019TLUIS SEBASTIAN ESTAUN GARCIA                                                000000000000000000S
031996031229020000094020TPASCUAL RABAL PETRIZ                                                        000000000000000000S
031996031229010000098010TANDRES FERRERO FADON                                                        000000000000000000N
031996031229011000108011TJUAN JOSE RODRIGUEZ TORRES                                                  000000000000000000S
031996031229012000108012TENRIQUE SANCHEZ CARRASCO                                                    000000000000000000N
031996031229013000108013TISABEL SARASA LARROCHE                                                      000000000000000000N
031996031229007000112007TJOSE IGNACIO FABREGAS REIGOSA                                               000000000000000000N
031996031229008000112008TMIGUEL CARLOS RUEDA IBAÑEZ                                                  000000000000000000N
031996031229004000114004TDONATO ALLUE NIETO                                                          000000000000000000N
031996031229005000114005TMACARIO LATORRE SANTAMARIA                                                  000000000000000000N
031996031229009000116009TJOSE MARIA RIOS SAMPER                                                      000000000000000000N
031996031229021000124021TJOSE QUINZA PENADES                                                         000000000000000000N
031996031449004000014004TISIDRO PELLICER RUBIO                                                       000000000000000000N
031996031449005000014005TANTONIO MANUEL PEREZ SANCHEZ                                                000000000000000000N
031996031449006000014006TOSCAR VILLAGRASA GONZALEZ                                                   000000000000000000N
031996031449014000032014TMIGUEL A. ZUERAS CAÑADA                                                     000000000000000000N
031996031449015000042015TLUIS ANGEL ROMERO RODRIGUEZ                                                 000000000000000000N
031996031449016000042016TMANUELA RUBIO MARTIN                                                        000000000000000000N
031996031449017000042017TGONZALO RUIZ LORENTE                                                        000000000000000000N
031996031449001000094001TJOSE MARIA FUSTER MUNIESA (PAR)                                             000000000000000000S
031996031449002000094002TGREGORIO GARZARAN GARCIA (PP)                                               000000000000000000S
031996031449003000094003TJOSE MARIA PASCUAL FERNANDEZ-LAYOS (PP)                                     000000000000000000S
031996031449011000108011TJOSE LUIS ALEGRE ESCUDER                                                    000000000000000000S
031996031449012000108012TAMPARO GARCIA CASTELAR                                                      000000000000000000N
031996031449013000108013TCARLOS E. GUIA MARQUES                                                      000000000000000000N
031996031449007000116007TMARIA PILAR CATALAN GRACIA                                                  000000000000000000N
031996031449008000116008TMIGUEL ANGEL FORTEA PLUMED                                                  000000000000000000N
031996031449009000116009TLUIS JASANADA SALVADOR                                                      000000000000000000N
031996031449010000124010TJOAQUIN GEA ABAD                                                            000000000000000000N
031996031509013000007013TMIGUEL ANGEL RODRIGUEZ LARGO                                                000000000000000000N
031996031509010000014010TJOSE ANTONIO ACERO GIL                                                      000000000000000000N
031996031509011000014011TANTONIO GASPAR GALAN                                                        000000000000000000N
031996031509012000014012TFELIPE GONZALEZ MUÑOZ                                                       000000000000000000N
031996031509022000019022TMARIA GRACIA BOSCH LOPEZ                                                    000000000000000000N
031996031509003000020003TEMILIO GOMARIZ GARCIA                                                       000000000000000000N
031996031509004000020004TMARIA PILAR MARTIN CABREJAS                                                 000000000000000000N
031996031509018000032018TJOSE MARIA GAUDIOSO DE LOS HIELOS                                           000000000000000000N
031996031509019000042019TJUAN MANUEL ARAGUES ESTRAGUES                                               000000000000000000N
031996031509020000042020TJOSE LUIS MARTINEZ BLASCO                                                   000000000000000000N
031996031509021000042021TMARIA ISABEL MIGUEL RASAL                                                   000000000000000000N
031996031509023000061023TMARIA DEL CARMEN TEJERO LAINEZ                                              000000000000000000N
031996031509007000094007TMARIANO ALIERTA IZUEL (PP)                                                  000000000000000000S
031996031509008000094008TMANUEL LORENZO BLASCO NOGUES (PAR)                                          000000000000000000S
031996031509009000094009TJOSE IGNACIO SENAO GOMEZ (PP)                                               000000000000000000S
031996031509005000098005TANGEL RODRIGUEZ SIMON                                                       000000000000000000N
031996031509017000101017TMARIA CARMEN IBARZ CASTRO                                                   000000000000000000N
031996031509014000108014TPASCUAL MARCO SEBASTIAN                                                     000000000000000000S
031996031509015000108015TFLORENCIO MEURIS REPOLLES LASHERAS                                          000000000000000000N
031996031509016000108016TFLORENCIA AFRICA USE BARRIO                                                 000000000000000000N
031996031509001000112001TJOSE LUIS LATAS LACASTA                                                     000000000000000000N
031996031509002000112002TIRENE VERICAD MARCUELLO                                                     000000000000000000N
031996031509024000114024TAGUSTIN RIOS GONZALEZ                                                       000000000000000000N
031996031509025000114025TENRIQUE LUIS IBAÑEZ CONDE                                                   000000000000000000N
031996031509026000114026TJOSE ANTONIO MONTAÑES TURON                                                 000000000000000000N
031996031509006000124006TVICENTA MATEU NAVARRO                                                       000000000000000000N
031996031339020000007020TJOSE MARIA FERNANDEZ NAVARRO                                                000000000000000000N
031996031339021000007021TGONZALO MATA FERNANDEZ-MIRANDA                                              000000000000000000N
031996031339022000019022TBONIFACIO MARTIN SAINZ-AJA                                                  000000000000000000N
031996031339002000032002TSEGUNDO ALFONSO FERNANDEZ DEL REY                                           000000000000000000N
031996031339003000041003TSIXTO FELIPE ARMAN CARAMES                                                  000000000000000000N
031996031339004000041004TFRANCISCO JAVIER GARCIA VALLEDOR                                            000000000000000000N
031996031339005000041005TNOEMI MARTIN GONZALEZ                                                       000000000000000000N
031996031339014000071014TMARIA DEL PILAR ALONSO TORRE                                                000000000000000000N
031996031339015000071015TMARIA ANTONIA ANTON FERNANDEZ                                               000000000000000000N
031996031339016000071016TMARIA BEGOÑA GONZALEZ GARCIA                                                000000000000000000N
031996031339023000076023THIGINIO CANGA DIAZ                                                          000000000000000000N
031996031339024000076024TROGELIO CRESPO GONZALEZ                                                     000000000000000000N
031996031339025000076025TRAFAEL VELASCO RODRIGUEZ                                                    000000000000000000N
031996031339026000091026TANGEL FERNANDEZ MENENDEZ                                                    000000000000000000S
031996031339027000091027TISIDRO MANUEL MARTINEZ OBLANCA                                              000000000000000000S
031996031339028000091028TJUAN LUIS DE LA VALLINA VELARDE                                             000000000000000000S
031996031339009000098009TMARIA JESUS RODRIGUEZ FERNANDEZ                                             000000000000000000N
031996031339013000101013TRICARDO HECTOR GHINAUDO SOLA                                                000000000000000000N
031996031339010000108010TRAFAEL LUIS FERNANDEZ ALVAREZ                                               000000000000000000S
031996031339011000108011TMARIA PAZ FERNANDEZ FELGUEROSO                                              000000000000000000N
031996031339012000108012TPEDRO J. SANJURJO GONZALEZ                                                  000000000000000000N
031996031339006000116006TJAVIER ALVAREZ PEON                                                         000000000000000000N
031996031339007000116007TBENITO RODRIGUEZ SANCHEZ                                                    000000000000000000N
031996031339008000116008TMANUEL ANGEL VALLE PAREDES                                                  000000000000000000N
031996031339001000124001TANTONIO CORCOLES RUIZ                                                       000000000000000000N
031996031339017000128017TGERMAN ABAD CUADRIELLO                                                      000000000000000000N
031996031339018000128018TANGEL MANUEL GARCIA FERNANDEZ                                               000000000000000000N
031996031339019000128019TMARIA TERESA MUÑIZ FERNANDEZ                                                000000000000000000N
031996031071005000019005TMANUEL GARRI RIERA                                                          000000000000000000N
031996031071006000019006TANTONIO VERA THOMAS                                                         000000000000000000N
031996031071015000025015TGABRIEL CAMPS MORANTA                                                       000000000000000000N
031996031071013000031013TJOANA COLOMA BUSQUETS HUGUET                                                000000000000000000N
031996031071014000031014TMARGALIDA ROSSELLO PONS                                                     000000000000000000N
031996031071007000040007TISABEL EUGENIA NORA DEL CASTILLO                                            000000000000000000N
031996031071008000040008TMARIA MARGARITA THOMAS ANDREU                                               000000000000000000N
031996031071001000091001TJOSE CAÑELLAS FONS                                                          000000000000000000S
031996031071002000091002TJAIME FONT BARCELO                                                          000000000000000000S
031996031071003000107003TANTONI ALORDA VILLARRUBIAS                                                  000000000000000000N
031996031071004000107004TSEBASTIA SERRA BUSQUETS                                                     000000000000000000N
031996031071009000108009TANTONIO GARCIAS COLL                                                        000000000000000000S
031996031071010000108010TANTONI JOSEP ROIG CUART                                                     000000000000000000N
031996031071011000118011TMIGUEL FERRER VIVER                                                         000000000000000000N
031996031071012000118012TANTONIO PASCUAL RIBOT                                                       000000000000000000N
031996031072004000025004TJOEL BAGUR MELLINAS                                                         000000000000000000N
031996031072002000039002TPEDRO ROMAN BORDERA                                                         000000000000000000N
031996031072006000040006TJOSEP MARIA FOGUET COLL                                                     000000000000000000N
031996031072005000091005TBERNARDO LLOMPART DIAZ                                                      000000000000000000S
031996031072003000107003TJOAN MANEL MARTI LLUFRIU                                                    000000000000000000N
031996031072001000108001TTIRSO PONS PONS                                                             000000000000000000N
031996031073001000023001TPILAR COSTA SERRA                                                           000000000000000000S
031996031073002000091002TJOSE JUAN CARDONA                                                           000000000000000000N
031996031351003000007003TPEDRO LANGARICA MARTIN                                                      000000000000000000N
031996031351004000007004TARTURO MARTIN MESA                                                          000000000000000000N
031996031351001000010001TJOSE LUIS ALAMO SUAREZ                                                      000000000000000000N
031996031351002000010002TJOSE MARCELINO GALINDO SANTANA                                              000000000000000000N
031996031351013000035013TRAFAEL FRANQUELO MORILLAS                                                   000000000000000000N
031996031351014000035014TMARIA DE LOS ANGELES DEL TORO MONTESDEOCA                                   000000000000000000N
031996031351009000050009TJOSE JUAN CARDOSO MORALES                                                   000000000000000000N
031996031351010000050010TJAVIER DORESTE ZAMORA                                                       000000000000000000N
031996031351019000057019TSANTIAGO MACIAS FLORIDO                                                     000000000000000000N
031996031351020000057020TMARTIN MACARIO PERESTELO SANGIL                                             000000000000000000N
031996031351021000073021TANTONIO DIAZ HERNANDEZ                                                      000000000000000000N
031996031351022000073022TJOSE ANDRES SANTANA SUAREZ                                                  000000000000000000N
031996031351011000075011TANDRES ALVARADO JANINA                                                      000000000000000000N
031996031351012000075012TMARIA DEL CARMEN TALAVERA QUEVEDO                                           000000000000000000N
031996031351015000081015TROSA MARIA ORAMAS TORRES                                                    000000000000000000N
031996031351016000081016TRUBEN RODRIGUEZ PADILLA                                                     000000000000000000N
031996031351007000091007TJOSEFA LUZARDO ROMANO                                                       000000000000000000S
031996031351008000091008TCARLOS JUAN RAMIREZ PERY                                                    000000000000000000S
031996031351005000108005TCARMELO ARTILES BOLAÑOS                                                     000000000000000000S
031996031351006000108006TELIGIO HERNANDEZ GUTIERREZ                                                  000000000000000000N
031996031351017000116017TCARMEN ROBLES PEREZ                                                         000000000000000000N
031996031351018000116018TCRISTOBAL SEVILLA MARTE                                                     000000000000000000N
031996031352004000050004TJOSE ANTONIO GONZALEZ HERNANDEZ                                             000000000000000000N
031996031352002000084002TCANDIDO ARMAS RODRIGUEZ                                                     000000000000000000S
031996031352003000091003TNICOLAS DE PAIZ PEREYRA                                                     000000000000000000N
031996031352001000108001TVICTOR MANUEL BETANCOR DE LEON                                              000000000000000000N
031996031353004000010004TMANUEL BERNABE TRAVIESO DARIAS                                              000000000000000000N
031996031353006000050006TDAVID SERAFIN ARAUJO FERNANDEZ                                              000000000000000000N
031996031353005000075005TLORENZA MACHIN ALARCON                                                      000000000000000000N
031996031353001000091001TDOMINGO GONZALEZ ARROYO                                                     000000000000000000S
031996031353003000108003TDOMINGO FUENTES CURBELO                                                     000000000000000000N
031996031353002000116002TFRANCISCO JAVIER RAMOS BRITO                                                000000000000000000N
031996031384020000004020TMARIA DE LOS ANGELES ALVAREZ RAMOS                                          000000000000000000N
031996031384021000004021TENCARNACION HERNANDEZ BONILLA                                               000000000000000000N
031996031384010000010010TMIGUEL ANGEL BARBUZANO GONZALEZ                                             000000000000000000N
031996031384011000010011TMILAGROS LUIS BRITO                                                         000000000000000000N
031996031384012000035012TFRUCTUOSO RODRIGUEZ MORALES                                                 000000000000000000N
031996031384013000035013TCARLOS MANUEL RODRIGUEZ MARRERO                                             000000000000000000N
031996031384014000050014TJUAN JESUS BERMUDEZ FERRER                                                  000000000000000000N
031996031384015000050015TISABEL ANTONIA GONZALEZ GARCIA-ESTRADA                                      000000000000000000N
031996031384001000054001TMANUEL SALVADOR HERNANDEZ HERNANDEZ                                         000000000000000000N
031996031384006000057006TJOSE MARIA RODRIGUEZ TORRES                                                 000000000000000000N
031996031384007000057007TINOCENCIO RODRIGUEZ GALVAN                                                  000000000000000000N
031996031384016000075016TREINALDO AGAPITO PALMERO PALMERO                                            000000000000000000N
031996031384017000075017TJESUS FELICIANO DORTA NEGRIN                                                000000000000000000N
031996031384004000081004TVICTOR MANUEL GARCIA BRUNETTO                                               000000000000000000N
031996031384005000081005TLEONARDA GONZALEZ YANES                                                     000000000000000000N
031996031384008000091008TPEDRO TOMAS GALVAN URZAIZ                                                   000000000000000000S
031996031384009000091009TJOSE EMILIO GARCIA GOMEZ                                                    000000000000000000N
031996031384018000108018TSANTIAGO PEREZ GARCIA                                                       000000000000000000S
031996031384019000108019TMARIA MERCEDES PEREZ SCHWARTZ                                               000000000000000000S
031996031384002000116002TMARIA BELEN ALAYON MALLORQUIN                                               000000000000000000N
031996031384003000116003TEFRAIN TRUJILLO CONDE                                                       000000000000000000N
031996031385004000010004TJUAN RAMON HERNANDEZ GOMEZ                                                  000000000000000000N
031996031385003000050003TGUSTAVO REYES SANTANA ALMENARA                                              000000000000000000N
031996031385006000081006TALEJANDRO ROJAS HERNANDEZ                                                   000000000000000000N
031996031385001000091001TCLEMENTE ELIBERTO ALVAREZ FERNANDEZ                                         000000000000000000N
031996031385002000108002TMANUEL MARCOS PEREZ HERNANDEZ                                               000000000000000000S
031996031385005000116005TSANTIAGO MENDEZ PERERA                                                      000000000000000000N
031996031386003000010003TCANDIDO ELOY HERNANDEZ MARTIN                                               000000000000000000N
031996031386004000050004TFRANCISCO JOSE CASTILLA ARTEAGA                                             000000000000000000N
031996031386005000091005TMIGUEL ANGEL MORCUENDE HURTADO                                              000000000000000000N
031996031386001000108001TCASIMIRO CURBELO CURBELO                                                    000000000000000000S
031996031386002000116002TNARDO ALBERTO RAMOS CHINEA                                                  000000000000000000N
031996031387004000010004TPEDRO LUIS PADRON RODRIGUEZ                                                 000000000000000000S
031996031387001000050001TRAMON MORALES GONZALEZ                                                      000000000000000000N
031996031387005000091005TFEDERICO PADRON PADRON                                                      000000000000000000N
031996031387003000108003TINOCENCIO HERNANDEZ GONZALEZ                                                000000000000000000N
031996031387002000116002TVICTOR MANUEL PADRON BARRERA                                                000000000000000000N
031996031399008000006008TRAMON FELIPE MUCIENTES DONAIRE                                              000000000000000000N
031996031399009000006009TMARIA TERESA RUIZ RIVAS                                                     000000000000000000N
031996031399010000006010TALFONSO SOLAR SOLAR                                                         000000000000000000N
031996031399011000007011TSANTOS TOLOSA HERRAN                                                        000000000000000000N
031996031399021000019021TJOSE LUIS VINATEA REVUELTA                                                  000000000000000000N
031996031399004000041004TCARMEN MARIA FRAILE RIVERO                                                  000000000000000000N
031996031399005000041005TJESUS GARCIA DIAZ                                                           000000000000000000N
031996031399006000041006TEZEQUIEL MARTINEZ ROSALES                                                   000000000000000000N
031996031399001000076001TANTONIO BEDIA GONZALEZ                                                      000000000000000000N
031996031399002000076002TRICARDO MARTINEZ QUINTANA                                                   000000000000000000N
031996031399003000076003TENRIQUE IGLESIAS CABEZA                                                     000000000000000000N
031996031399015000091015TRICARDO BUENO FERNANDEZ                                                     000000000000000000S
031996031399016000091016TALBERTO TERAN MOLLEDA                                                       000000000000000000S
031996031399017000091017TJOSE LUIS VALLINES DIAZ                                                     000000000000000000S
031996031399018000108018TDOLORES GOROSTIAGA SAIZ                                                     000000000000000000S
031996031399019000108019TMIGUEL ANGEL PALACIO GARCIA                                                 000000000000000000N
031996031399020000108020TMAXIMINO VALLE GARMENDIA                                                    000000000000000000N
031996031399012000116012TLUIS ALBERTO ASENSIO DE LA HOZ                                              000000000000000000N
031996031399013000116013TISAAC LISASO CASTANEDO                                                      000000000000000000N
031996031399014000116014TFRANCISCO PEREZ GONZALEZ                                                    000000000000000000N
031996031399007000124007TFRANCISCO ISIDRO SALVADO YUSTE                                              000000000000000000N
031996031029016000007016TCESAR ANTONIO GOMEZ RIVAS                                                   000000000000000000N
031996031029005000019005TJOSE ESPINOSA LOSA                                                          000000000000000000N
031996031029021000032021TJOSE ANGEL RUIZ MOYA                                                        000000000000000000N
031996031029002000047002TPEDRO BOLIVAR REVERTE                                                       000000000000000000N
031996031029003000047003TPEDRO JOSE ROSA MARTINEZ                                                    000000000000000000N
031996031029004000047004TENCARNACION TARANCON PEREZ                                                  000000000000000000N
031996031029006000081006TGUSTAVO ORLANDO SANCHEZ SUAREZ                                              000000000000000000N
031996031029007000081007TJUANA MARTINEZ GARRIDO                                                      000000000000000000N
031996031029008000081008TALEJANDRO VAYA GOMEZ                                                        000000000000000000N
031996031029013000091013TMANUEL ACACIO COLLADO                                                       000000000000000000S
031996031029014000091014TJOSE MARIA BARCINA MAGRO                                                    000000000000000000S
031996031029015000091015TJUAN GARRIDO HERRAEZ                                                        000000000000000000S
031996031029001000096001TEMERITA AMORES VELASCO                                                      000000000000000000N
031996031029018000108018TMANUEL ANGEL AGUILAR BELDA                                                  000000000000000000S
031996031029019000108019TROSA ISABEL BLAZQUEZ SANCHEZ                                                000000000000000000N
031996031029020000108020TFRANCISCO SEGOVIA SOLANA                                                    000000000000000000N
031996031029012000113012TJUSTO PRIETO VAZQUEZ                                                        000000000000000000N
031996031029009000116009TANGEL SANTOS SANTOS                                                         000000000000000000N
031996031029010000116010TJOAQUIN BARTOLOME LINARES QUIJANO                                           000000000000000000N
031996031029011000116011TMANUEL BLANCA ALCAZAR                                                       000000000000000000N
031996031029017000124017TOSCAR EUSTAQUIO JUAN                                                        000000000000000000N
031996031139014000007014TRAFAEL JOSE MEY RODRIGUEZ                                                   000000000000000000N
031996031139019000019019TJOSE LUIS MARTINEZ ARIAS                                                    000000000000000000N
031996031139001000047001TJUAN BAUTISTA BARREDA PEREZ PRAT                                            000000000000000000N
031996031139002000047002TPAULA FERNANDEZ PAREJA                                                      000000000000000000N
031996031139003000047003TCAYO LARA MOYA                                                              000000000000000000N
031996031139018000081018TJOSE CARLOS LAGUNA SOBRINO                                                  000000000000000000N
031996031139011000091011TFRANCISCO GIL-ORTEGA RINCON                                                 000000000000000000S
031996031139012000091012TMARIA TERESA GOMEZ VALIENTE                                                 000000000000000000N
031996031139013000091013TMARIA ENCARNACION VALDENEBRO TORREGROSA                                     000000000000000000N
031996031139008000096008TJOSE SAMUEL GUERRERO GUERRERO                                               000000000000000000N
031996031139009000096009TEMILIANO POZUELO RAMON                                                      000000000000000000N
031996031139010000096010TMARIA JOSEFA ZAMORA DIAZ                                                    000000000000000000N
031996031139004000108004THILARIO CABALLERO MOYA                                                      000000000000000000S
031996031139005000108005TFRANCISCA LOPEZ YEBENES                                                     000000000000000000S
031996031139006000108006TLORENZO SELAS CESPEDES                                                      000000000000000000S
031996031139020000113020TJESUS PEREZ MOTOS                                                           000000000000000000N
031996031139015000116015TANTONIO ARROYO VILLA                                                        000000000000000000N
031996031139016000116016TMANUEL MUÑOZ GALLEGO                                                        000000000000000000N
031996031139017000116017TJUAN ROSILLO DONADO MAZARRON                                                000000000000000000N
031996031139007000124007TEVA MARIA ALBORS BRU                                                        000000000000000000N
031996031169014000007014TJOSE ANTONIO GONZALEZ VILLA                                                 000000000000000000N
031996031169018000019018TSANTIAGO VALVERDE LOPEZ                                                     000000000000000000N
031996031169008000047008TJUAN ANTONIO DE ARCE RODRIGUEZ                                              000000000000000000N
031996031169009000047009TANGEL LUIS CASTELLANO BOBILLO                                               000000000000000000N
031996031169010000047010TELISA LUMBRERAS GIMENEZ                                                     000000000000000000N
031996031169005000091005TLUCIA DELGADO GARCIA                                                        000000000000000000S
031996031169006000091006TREYES MARTINEZ GARCIA                                                       000000000000000000S
031996031169007000091007TFRANCISCO UTRERA MORA                                                       000000000000000000S
031996031169004000096004TMARIA DEL CARMEN MARTINEZ HERAS                                             000000000000000000N
031996031169011000108011TMARIANO ARRIBAS REDONDO                                                     000000000000000000N
031996031169012000108012TJUAN VICENTE CASAS CASAS                                                    000000000000000000S
031996031169013000108013TMANUELA GALIANO LOPEZ                                                       000000000000000000N
031996031169015000113015TPEDRO MANUEL DOMINGUEZ FERNANDEZ                                            000000000000000000N
031996031169016000113016TMIGUEL ALFONSO MONDEJAR CEBRIAN                                             000000000000000000N
031996031169017000113017TJUAN CARLOS TORRERO MARTINEZ                                                000000000000000000N
031996031169001000116001TABEL CARDO GONZALEZ                                                         000000000000000000N
031996031169002000116002TJOSE DE JUAN MONDEJAR                                                       000000000000000000N
031996031169003000116003TCARLOS SAIZ HUEDO                                                           000000000000000000N
031996031169019000124019TCARLOS RUBIO ASTUDILLO                                                      000000000000000000N
031996031199017000007017TFRANCISCO JESUS DIAZ-MADROÑERO CANOVAS                                      000000000000000000N
031996031199013000019013TTERESA REDONDO GARCIA                                                       000000000000000000N
031996031199016000032016TLUIS LAFON VAZQUEZ                                                          000000000000000000N
031996031199007000047007TROSARIO ALDEANUEVA PANIAGUA                                                 000000000000000000N
031996031199008000047008TJUAN MANUEL OTER HUERTA                                                     000000000000000000N
031996031199009000047009TFERNANDO REVUELTA SOMALO                                                    000000000000000000N
031996031199004000091004TJOSE MARIA BRIS GALLEGO                                                     000000000000000000S
031996031199005000091005TLUIS MANUEL FRAGA EGUSQUIAGUIRRE                                            000000000000000000S
031996031199006000091006TFRANCISCO TOMEY GOMEZ                                                       000000000000000000S
031996031199015000096015TMARIA DEL MAR HUERTAS ROLDAN                                                000000000000000000N
031996031199010000099010TANTONIO AGUDO RIEGO                                                         000000000000000000N
031996031199011000099011TJOSE MANUEL LEIVA DEL POZO                                                  000000000000000000N
031996031199012000099012TJOSE VICENTE ORALLO ALFARO                                                  000000000000000000N
031996031199018000101018TSEBASTIAN PEDRERO OCAÑA                                                     000000000000000000N
031996031199019000108019TJUAN PABLO HERRANZ MARTINEZ                                                 000000000000000000S
031996031199020000108020TMARIA VICTORIA PALACIOS TAMAYO                                              000000000000000000N
031996031199021000108021TJUAN JOSE PERIS RICART                                                      000000000000000000N
031996031199014000113014TSAGRARIO SERRANO CORPA                                                      000000000000000000N
031996031199001000116001TANTONIO CAMARA GOMEZ                                                        000000000000000000N
031996031199002000116002TMARIA DEL CARMEN ESTEBAN MENDOZA                                            000000000000000000N
031996031199003000116003TCARLOS DE FRANCISCO RODRIGUEZ                                               000000000000000000N
031996031199022000124022TVICTOR ROMAGUERA PASCUAL                                                    000000000000000000N
031996031459001000007001TTERESA DE JESUS IZCO ESTEBAN                                                000000000000000000N
031996031459010000019010TFRANCISCO GOMEZ FRANCISCO                                                   000000000000000000N
031996031459009000032009TPABLO PEÑAS DE LA VEGA (FE JONS)                                            000000000000000000N
031996031459011000047011TDOROTEO GARCIA JERONIMO                                                     000000000000000000N
031996031459012000047012TMARIA DEL MAR MOLINA GARCIA-ALCAÑIZ                                         000000000000000000N
031996031459013000047013TPEDRO ORGAZ PASAMONTES                                                      000000000000000000N
031996031459002000091002TTOMAS PEDRO BURGOS BETETA                                                   000000000000000000S
031996031459003000091003TJOSE GUTIERREZ RUIZ                                                         000000000000000000S
031996031459004000091004TJESUS MARIA RUIZ-AYUCAR ALONSO                                              000000000000000000S
031996031459020000096020TJOSE ANTONIO LLAVE MARTIN                                                   000000000000000000N
031996031459018000103018TVICENTE BAUTISTA CANO                                                       000000000000000000N
031996031459019000103019TANTONIO SANTOS RECIO                                                        000000000000000000N
031996031459014000108014TMANUEL GOYA BURGUES                                                         000000000000000000S
031996031459015000108015TMARIA ANGELES PEREZ ROBLEDO                                                 000000000000000000N
031996031459016000108016TGUMERSINDO QUIJORNA DEL ALAMO                                               000000000000000000N
031996031459017000113017TJOSE ANGEL SANCHEZ ORTIZ                                                    000000000000000000N
031996031459006000116006TALFONSA GARRIDO DIAZ                                                        000000000000000000N
031996031459007000116007TMIGUEL ANGEL PACHECO RODRIGUEZ                                              000000000000000000N
031996031459008000116008TJULIO ZAMORANO BARDERAS                                                     000000000000000000N
031996031459005000124005TMANUEL PEREZ NAVARRO                                                        000000000000000000N
031996031059018000007018TJOSE MANUEL TEJADA LOPEZ                                                    000000000000000000N
031996031059004000019004TFRANCISCO JAVIER MENA MOTA                                                  000000000000000000N
031996031059010000032010TCARLOS JAVIER GALAN GUTIERREZ                                               000000000000000000N
031996031059014000044014TMARIA MILAGROS GONZALEZ GARCIA                                              000000000000000000N
031996031059015000044015TJOSE MARIA GONZALEZ SUAREZ                                                  000000000000000000N
031996031059016000044016TFERMIN MARTIN VALERO                                                        000000000000000000N
031996031059009000086009TJOSE MARIA LLORENTE DIEZ                                                    000000000000000000N
031996031059011000091011TAGUSTIN DIAZ DE MERA Y GARCIA CONSUEGRA                                     000000000000000000S
031996031059012000091012TDIEGO LORA PAGOLA                                                           000000000000000000S
031996031059013000091013TANTOLIN SANZ PEREZ                                                          000000000000000000S
031996031059008000098008TJAVIER CRUZ RUBIO                                                           000000000000000000N
031996031059005000108005TNARCISO SERRANO ALVAREZ-GIRALDO                                             000000000000000000S
031996031059006000108006TYOLANDA VAZQUEZ SANCHEZ                                                     000000000000000000N
031996031059007000108007TJOSE VELASCO MESA                                                           000000000000000000N
031996031059017000113017TBENITO CALZADA PEÑA                                                         000000000000000000N
031996031059001000116001TPEDRO GARCIA BURGUILLO                                                      000000000000000000N
031996031059002000116002TJULIAN MARTIN POSE                                                          000000000000000000N
031996031059003000116003TMARIA DEL CARMEN MENDEZ ROSADO                                              000000000000000000N
031996031059020000123020TLAURA MATILDE ESTEVEZ ROMERO                                                000000000000000000N
031996031059021000123021TANGEL LUIS GARCIA HERNANDEZ                                                 000000000000000000N
031996031059022000123022TJUAN CARLOS GARCIA MELCHOR                                                  000000000000000000N
031996031059019000124019TMARIA ANGELES AVILA TERENCIO                                                000000000000000000N
031996031099013000007013TPEDRO PABLO PEÑA MUÑOZ                                                      000000000000000000N
031996031099011000019011TJAVIER DE LARIO TOME                                                        000000000000000000N
031996031099004000032004TJUAN HERRERO DE LA FUENTE                                                   000000000000000000N
031996031099001000044001TMARIA ESTIBALIZ AZCUE MARTINEZ                                              000000000000000000N
031996031099002000044002TLUIS GARCIA SANZ                                                            000000000000000000N
031996031099003000044003TANTONIO MIGUEL NIÑO                                                         000000000000000000N
031996031099022000070022TDAVID DIAZ CRUZ                                                             000000000000000000N
031996031099017000091017TIGNACIO JAVIER ARIZNAVARRETA ESTEBAN                                        000000000000000000S
031996031099018000091018TPEDRO MARTIN IGLESIAS                                                       000000000000000000S
031996031099019000091019TMARIA CRUZ RODRIGUEZ SALDAÑA                                                000000000000000000S
031996031099020000097020TFRANCISCO IGLESIAS GONZALEZ                                                 000000000000000000N
031996031099021000101021TJERONIMO PIROBE CAÑAS                                                       000000000000000000N
031996031099005000108005TJUAN JOSE LABORDA MARTIN                                                    000000000000000000S
031996031099006000108006TALFONSO PEREDA FERNANDEZ                                                    000000000000000000N
031996031099007000108007TMARIA MILAGROS RUIZ SUERO                                                   000000000000000000N
031996031099008000113008TJOSE ANTONIO DEL OLMO FERNANDEZ                                             000000000000000000N
031996031099009000113009TMARIA ELENA GALLEGO ZAZO                                                    000000000000000000N
031996031099010000113010TJUAN CARLOS RAD MORADILLO                                                   000000000000000000N
031996031099014000123014TANTOLIN COLINAS DIAZ                                                        000000000000000000N
031996031099015000123015TMARCELO DONCEL DIEZ                                                         000000000000000000N
031996031099016000123016TANGELA SALAMANCA RODRIGUEZ                                                  000000000000000000N
031996031099012000124012TISABEL DE LA CRUZ REVESADO                                                  000000000000000000N
031996031249005000019005TMARIA DOLORES TASCON FERNANDEZ                                              000000000000000000N
031996031249004000032004TJULIAN PATO MILLAN                                                          000000000000000000N
031996031249001000044001TFRANCISCA AFONSO MORAL                                                      000000000000000000N
031996031249002000044002TSIMON LOPEZ QUERO                                                           000000000000000000N
031996031249003000044003TJOSE ANDRES MARTINEZ GARCIA                                                 000000000000000000N
031996031249019000058019TRAMON CARLOS FRAILE LOZANO                                                  000000000000000000N
031996031249023000072023TJAVIER MARTINEZ RODRIGUEZ                                                   000000000000000000N
031996031249024000072024TFERNANDO VALCARCE GIRON                                                     000000000000000000N
031996031249025000072025TJUAN CARLOS VAZQUEZ ALVAREZ                                                 000000000000000000N
031996031249016000081016TALFONSO BUENO LOPEZ                                                         000000000000000000N
031996031249017000081017TCARLOS RODRIGUEZ VAAMONDE                                                   000000000000000000N
031996031249010000091010TFERNANDO BECKER ZUAZUA                                                      000000000000000000S
031996031249011000091011TJAIME LOBO ASENJO                                                           000000000000000000S
031996031249012000091012TALFREDO PRADA PRESA                                                         000000000000000000S
031996031249029000098029TESTEBAN ALVAREZ FRESNO                                                      000000000000000000N
031996031249030000098030TRAFAEL DIEGO NUÑEZ                                                          000000000000000000N
031996031249031000098031TJUAN MENDEZ JIMENO                                                          000000000000000000N
031996031249018000101018TAGUSTIN RUBIO FERNANDEZ                                                     000000000000000000N
031996031249020000108020TCONRADO ALONSO BUITRON                                                      000000000000000000S
031996031249021000108021TDANIEL GARCIA SANCHEZ                                                       000000000000000000N
031996031249022000108022TMARIA ANGELES OVIEDO GONZALEZ                                               000000000000000000N
031996031249006000113006TCARLOS MURIEL VAQUERO                                                       000000000000000000N
031996031249026000116026TJACINTO FARTO MARTINEZ                                                      000000000000000000N
031996031249027000116027TCARLOS JAVIER GARCIA GUTIERREZ                                              000000000000000000N
031996031249028000116028TAUREA MARIA GARCIA LORENZO                                                  000000000000000000N
031996031249007000119007TALFREDO FERNANDEZ ALVAREZ                                                   000000000000000000N
031996031249008000119008TOSCAR GARCIA PRIETO                                                         000000000000000000N
031996031249009000119009TMARIA VISITACION MIGUELEZ CASTRILLO                                         000000000000000000N
031996031249013000123013TFERNANDO JERONIMO GARCIA GONZALEZ                                           000000000000000000N
031996031249014000123014TSARA RODRIGUEZ GONZALEZ                                                     000000000000000000N
031996031249015000123015THONORIO VEGA GUILLEN                                                        000000000000000000N
031996031249032000124032TSALVADOR JAVIER VENDRELL MATOSES                                            000000000000000000N
031996031349024000007024TEUGENIO ALVAREZ ORTEGA                                                      000000000000000000N
031996031349001000019001TAURORA GARCIA FERNANDEZ                                                     000000000000000000N
031996031349014000032014TMARIA ALEJANDRA ALONSO PARDO                                                000000000000000000N
031996031349015000032015TMARIO TOME CASTRILLON                                                       000000000000000000N
031996031349026000033026TANTONIO AVILES PARRA                                                        000000000000000000N
031996031349027000033027TJOSE RAMON LUCIO SESMERO                                                    000000000000000000N
031996031349028000033028TAFRICA MARIA RODRIGUEZ PLAZA                                                000000000000000000N
031996031349010000044010TALBINO ALAEZ URDIALES                                                       000000000000000000N
031996031349011000044011THERMINIA FRANCOS MULAS                                                      000000000000000000N
031996031349012000044012TVIDAL VILDA MORENO                                                          000000000000000000N
031996031349013000062013TJOAQUINA ESPINOSA MEDINA                                                    000000000000000000N
031996031349002000076002TMARIA EVANGELINA RUEDA GONZALEZ                                             000000000000000000N
031996031349003000076003TDANIEL RUBI VILLARREAL MACHO                                                000000000000000000N
031996031349018000091018TJESUS MARIA CASTRO ASENSIO                                                  000000000000000000S
031996031349019000091019TALEJANDRO LAMALFA DIAZ                                                      000000000000000000S
031996031349020000091020TJOSE LUIS LOPEZ HENARES                                                     000000000000000000S
031996031349017000098017TESTEBAN SALVADOR LOPEZ VEGA                                                 000000000000000000N
031996031349004000108004THELIODORO GALLEGO CUESTA                                                    000000000000000000S
031996031349005000108005TMARIA SIRINA MARTIN CABRIA                                                  000000000000000000N
031996031349006000108006TMARIA DEL CARMEN MERINO MEDINA                                              000000000000000000N
031996031349016000113016TENRIQUE NEGUERUELA AZAROLA                                                  000000000000000000N
031996031349007000116007TBENITO BLANCO TIJERO                                                        000000000000000000N
031996031349008000116008TCONRADO MERINO INYESTO                                                      000000000000000000N
031996031349009000116009TJOSE JUAN DE SIERRA VICENTE                                                 000000000000000000N
031996031349021000123021TJOSE LUIS GARCIA CANCIO                                                     000000000000000000N
031996031349022000123022TDIONISIO LAMAS MUÑOZ                                                        000000000000000000N
031996031349023000123023TMIGUEL ANGEL SEBASTIAN DE LAS HERAS                                         000000000000000000N
031996031349025000124025TJUAN BENAVENT ALEIXOS                                                       000000000000000000N
031996031379010000007010TJOSE MURIEDAS HERNANDEZ                                                     000000000000000000N
031996031379023000019023TVIDAL GARCIA MARTIN                                                         000000000000000000N
031996031379024000019024TLUIS ANTONIO GARCIA MARTIN                                                  000000000000000000N
031996031379022000032022TADELA SANTAMARIA FERNANDEZ                                                  000000000000000000N
031996031379001000044001TLUIS ENRIQUE ESPINOZA GUERRA                                                000000000000000000N
031996031379002000044002TMARIA JESUS MERLO VEGA                                                      000000000000000000N
031996031379003000044003TSANTIAGO SANCHEZ VICENTE                                                    000000000000000000N
031996031379011000091011TJOSE MARIA BARAHONA HORTELANO                                               000000000000000000S
031996031379012000091012TFELIX COLSA BUENO                                                           000000000000000000S
031996031379013000091013TCASIMIRO HERNANDEZ CALVO                                                    000000000000000000S
031996031379007000098007TMIGUEL ANGEL DIEGO NUÑEZ                                                    000000000000000000N
031996031379008000098008TJOSE CARLOS COTOBAL PEREZ                                                   000000000000000000N
031996031379009000098009TANGEL ECHAVARRIA RODRIGUEZ                                                  000000000000000000N
031996031379018000108018TJOSE CASTRO RABADAN                                                         000000000000000000S
031996031379019000108019TMARIA DEL CARMEN ESTEBAN FONSECA                                            000000000000000000N
031996031379020000108020TCONCEPCION HERNANDEZ LOPEZ                                                  000000000000000000N
031996031379021000113021TFERNANDO NEBREDA BLANCO                                                     000000000000000000N
031996031379014000116014TCELEDONIO ALFONSO MARTIN                                                    000000000000000000N
031996031379015000116015TANTONIO GARCIA SIERRA                                                       000000000000000000N
031996031379016000116016TLORENZO MARCOS FIZ                                                          000000000000000000N
031996031379004000123004TBENITO BRAVO MARTIN                                                         000000000000000000N
031996031379005000123005TJOSE MANUEL DE LUIS ALONSO                                                  000000000000000000N
031996031379006000123006TFRANCISCO MARCOS NEVADO                                                     000000000000000000N
031996031379017000124017TMIGUEL ANGEL GARCIA MONEO                                                   000000000000000000N
031996031409012000007012TJUAN ERNESTO PFLUGER SAMPER                                                 000000000000000000N
031996031409008000032008TJOSE JOAQUIN GARCIA GARCIA                                                  000000000000000000N
031996031409017000044017TMIGUEL ANGEL PALACIOS HIJOSA                                                000000000000000000N
031996031409018000044018TROSARIO PEROMINGO BLANCO                                                    000000000000000000N
031996031409019000044019TANA MARIA RONCO GOZALO                                                      000000000000000000N
031996031409016000057016TANDRES RODRIGUEZ FERNANDEZ-CAMPOAMOR                                        000000000000000000N
031996031409013000091013TPEDRO ANTONIO HERNANDEZ ESCORIAL                                            000000000000000000S
031996031409014000091014TJAIME RODRIGUEZ GOMEZ                                                       000000000000000000S
031996031409015000091015TCLEMENTE SANZ BLANCO                                                        000000000000000000S
031996031409004000098004TJOSE MANUEL ARMENTEROS DEL OLMO                                             000000000000000000N
031996031409001000108001TARTURO GONZALEZ LOPEZ                                                       000000000000000000S
031996031409002000108002TMARIA TERESA RODRIGO ROJO                                                   000000000000000000N
031996031409003000108003TJUAN JOSE SANZ VICENTE                                                      000000000000000000N
031996031409011000113011TLUIS SANTAMARIA BUJEDO                                                      000000000000000000N
031996031409005000116005TJUAN CARLOS SANTA TERESA PINTOR                                             000000000000000000N
031996031409006000116006TJOSE MARIA TOVAR DE LA CRUZ                                                 000000000000000000N
031996031409007000116007TANDRES VICENTE MARTINEZ                                                     000000000000000000N
031996031409009000123009TJOSE ANGEL RECIO DIEZ                                                       000000000000000000N
031996031409010000124010TLUIS GARCIA MONEO                                                           000000000000000000N
031996031429011000007011TFRANCISCO DE ASIS GOMEZ CABRERA                                             000000000000000000N
031996031429013000019013TJAVIER MARTINEZ DE VELASCO HERNANDEZ                                        000000000000000000N
031996031429015000044015TCAROLINA FUENTES VIDARTE                                                    000000000000000000N
031996031429016000044016TMANUEL MADRID CASTRO                                                        000000000000000000N
031996031429017000044017TRAMON SEVILLANO CALVO                                                       000000000000000000N
031996031429005000091005TELIAS ARRIBAS ARAGONES                                                      000000000000000000S
031996031429006000091006TJOSE LUIS LISO MARIN                                                        000000000000000000S
031996031429007000091007TVIRGILIO VELASCO BUENO                                                      000000000000000000S
031996031429014000098014TCESAR GARCIA LOPEZ                                                          000000000000000000N
031996031429008000108008TRAMIRO CERCOS PEREZ                                                         000000000000000000N
031996031429009000108009TFELIX LAVILLA MARTINEZ                                                      000000000000000000S
031996031429010000108010TCONCEPCION MARTINEZ DE MIGUEL                                               000000000000000000N
031996031429003000113003TLUIS LLANOS DIAZ                                                            000000000000000000N
031996031429004000113004TCRESCENCIA PLAZAS MARTINEZ                                                  000000000000000000N
031996031429002000116002TMARIA DE LOS ANGELES PEREZ HORNILLOS                                        000000000000000000N
031996031429001000123001TMARIA DEL CARMEN SANZ MUÑOZ                                                 000000000000000000N
031996031429012000124012TJOSE ESTEVE GOMEZ                                                           000000000000000000N
031996031479009000007009TMARIA EUGENIA JIMENEZ REGO                                                  000000000000000000N
031996031479011000016011TPEDRO JESUS ARIAS FRAILE                                                    000000000000000000N
031996031479012000016012TJOSE ALBERTO CEBRIAN VELASCO                                                000000000000000000N
031996031479013000016013TMIGUEL ANGEL GARCIA BARRERO                                                 000000000000000000N
031996031479014000019014TFERMIN SANCHEZ MARTIN                                                       000000000000000000N
031996031479033000032033TJOSE MARIA PEREZ DE CASTRO                                                  000000000000000000N
031996031479021000033021TMANUEL GONZALEZ MAGARIÑO                                                    000000000000000000N
031996031479022000033022TIGNACIO DE LA ARADA ESCUDERO                                                000000000000000000N
031996031479023000033023TMARIA DIANA GIMENO ALVAREZ                                                  000000000000000000N
031996031479006000044006TCLARA ISABEL CALVO SALAMANCA                                                000000000000000000N
031996031479007000044007TJOSE IGNACIO CARRASCOSA MADARIAGA                                           000000000000000000N
031996031479008000044008TMARIA DEL VILLAR SANDOVAL NIETO                                             000000000000000000N
031996031479024000062024TBENITO CEA ZARZOSA                                                          000000000000000000N
031996031479001000076001TMARINA GARCIA BENITO                                                        000000000000000000N
031996031479002000076002TPABLO GIMON ARANDA                                                          000000000000000000N
031996031479010000081010TANGEL CANTADOR CABALLERO                                                    000000000000000000N
031996031479018000091018TJOSE ANTONIO GONZALEZ CAVIEDES                                              000000000000000000S
031996031479019000091019TJUAN JOSE UNCETA ANTON                                                      000000000000000000S
031996031479020000091020TEMILIO ZAPATERO VILLALONGA                                                  000000000000000000S
031996031479032000098032TEDUARDO RAMOS HERNANDEZ                                                     000000000000000000N
031996031479015000108015TJUAN ANTONIO AREVALO SANTIAGO                                               000000000000000000S
031996031479016000108016TMARIA VICTORIA DE DIEGO RIVAS                                               000000000000000000N
031996031479017000108017TJUAN ANTONIO GARCIA CALVO                                                   000000000000000000N
031996031479025000113025TJULIO JUSTO DE LA ROSA                                                      000000000000000000N
031996031479026000113026TMARIA ISABEL RAMOS SAHAGUN                                                  000000000000000000N
031996031479027000113027TJUAN CARLOS BOCOS RUEDA                                                     000000000000000000N
031996031479003000116003TALFONSO BLANCO OJEDA                                                        000000000000000000N
031996031479004000116004TLUIS COCHO DE LA RIVA                                                       000000000000000000N
031996031479005000116005TJUAN SAULO IGLESIAS HURTADO                                                 000000000000000000N
031996031479028000123028TMARCELINO GONZALO PIEDRAHITA                                                000000000000000000N
031996031479029000123029TCRESCENCIO LOPEZ CERMEÑO                                                    000000000000000000N
031996031479030000123030TEMILIANO RECA SOTILLO                                                       000000000000000000N
031996031479031000124031TPILAR GIRBES FERRAGUT                                                       000000000000000000N
031996031499010000007010TISIDORO LARA LOPEZ                                                          000000000000000000N
031996031499001000019001TJOSE MARIA ROMERO MENDEZ                                                    000000000000000000N
031996031499017000044017TJOSE ALONSO BRAVO                                                           000000000000000000N
031996031499018000044018TFRANCISCO GUARIDO VIÑUELA                                                   000000000000000000N
031996031499019000044019TMARIA DEL ROCIO RAMOS NIETO                                                 000000000000000000N
031996031499020000085020TANGELA ARIAS AMORES                                                         000000000000000000N
031996031499021000085021TLAUREANO GARCIA SARDA                                                       000000000000000000N
031996031499022000085022TCARLOS GONZALEZ RODRIGUEZ                                                   000000000000000000N
031996031499014000091014TDIONISIO GARCIA CARNERO                                                     000000000000000000S
031996031499015000091015TSAMUEL RODRIGUEZ FONTECHA                                                   000000000000000000S
031996031499016000091016TILDEFONSA SALGADO SANTOS                                                    000000000000000000S
031996031499003000098003TVICTORIANO BLANCO ALONSO                                                    000000000000000000N
031996031499004000098004TPLACIDO DEL RIO MIELGO                                                      000000000000000000N
031996031499005000098005TNAZARIO LOZANO LOZANO                                                       000000000000000000N
031996031499009000101009TJUAN MARTINEZ RUIZ                                                          000000000000000000N
031996031499026000108026TANDRES LUIS CALVO                                                           000000000000000000S
031996031499027000108027TMARIA JULIA ROMERO MARTIN                                                   000000000000000000N
031996031499028000108028TMIGUEL ANGEL VAQUERO PEREZ                                                  000000000000000000N
031996031499011000113011TJOSE CARLOS MARTIN BORDELL                                                  000000000000000000N
031996031499012000113012TFLORENCIO ONTAÑON BARRIUSO                                                  000000000000000000N
031996031499013000113013TEUSEBIO DEL BURGO TUDELA                                                    000000000000000000N
031996031499006000116006TONESIMO LOPEZ CHILLON                                                       000000000000000000N
031996031499007000116007TJOSE BENJAMIN MARTIN MUÑOZ                                                  000000000000000000N
031996031499008000116008TRAUL RODRIGUEZ ANDRES                                                       000000000000000000N
031996031499023000123023TJOSE MARIA GONZALEZ PEREZ                                                   000000000000000000N
031996031499024000123024TJOSE LUIS RODRIGUEZ COMMES                                                  000000000000000000N
031996031499025000123025TMARIA INMACULADA SANTOS BARROSO                                             000000000000000000N
031996031499002000124002TROBERTO GARCIA CASTELLO                                                     000000000000000000N
031996031089017000007017TJOSE MANUEL FERNANDEZ FANJUL                                                000000000000000000N
031996031089018000007018TFRANCISCO ROMEU SOLANO                                                      000000000000000000N
031996031089019000007019TJOSE RUIZ HERNANDEZ                                                         000000000000000000N
031996031089036000015036TSIXTE CAMBRA I SANCHEZ (CDC)                                                000000000000000000S
031996031089037000015037TJOAQUIM FORN I CHIARIELLO (CDC)                                             000000000000000000N
031996031089038000015038TROSA M.. RIPOLL I VILARRASA (CDC)                                           000000000000000000N
031996031089029000018029TJOSEP SERRA I ESTRUCH                                                       000000000000000000N
031996031089002000025002TM. ANGELS COTE I PASCUAL                                                    000000000000000000N
031996031089003000025003TALBERT GONZALEZ I ORDUNA                                                    000000000000000000N
031996031089004000025004TDAVID MINOVES I LLUCIA                                                      000000000000000000N
031996031089027000030027TELENA BONNIN BENITEZ                                                        000000000000000000N
031996031089023000032023TLUIS MIGUEL LOPEZ DE LA MANZANERA JODAR                                     000000000000000000N
031996031089012000033012TJOSE MANUEL MARTIN DELGADO                                                  000000000000000000N
031996031089013000033013TLUIS MANUEL MURILLO LOPEZ                                                   000000000000000000N
031996031089024000037024TANGELINA PUIG VALLS                                                         000000000000000000N
031996031089025000037025TJOAN TAFALLA MONFERRER                                                      000000000000000000N
031996031089026000037026TENRIC TELLO ARAGAY                                                          000000000000000000N
031996031089008000064008TEUSEBIO COTES MEDIAVILLA                                                    000000000000000000N
031996031089005000079005TJAIME GUILELLA MARTINEZ                                                     000000000000000000N
031996031089006000079006TEMILIO OLIVER PEREZ                                                         000000000000000000N
031996031089007000079007TJAIME ZARCO HUGUET                                                          000000000000000000N
031996031089033000080033TMARINA CAELLES I AMAT                                                       000000000000000000N
031996031089034000080034TJOAN CAMPOS I BAUTISTA                                                      000000000000000000N
031996031089035000080035TJOSEP OLLER I MARTI                                                         000000000000000000N
031996031089009000082009TFEDERICO GUTIERREZ REMESAL                                                  000000000000000000N
031996031089010000082010TANTONI OBACH XIFRA                                                          000000000000000000N
031996031089011000082011TLUIS PICO ELFA                                                              000000000000000000N
031996031089001000090001TALFONS BECH PEIRO                                                           000000000000000000N
031996031089030000091030TENRIQUE LACALLE I COLL                                                      000000000000000000N
031996031089031000091031TMERCEDES PEREZ GONZALEZ                                                     000000000000000000N
031996031089032000091032TANTONIO VALERO VICENTE                                                      000000000000000000N
031996031089020000098020THORACIO ARRIBAS MORALEJO                                                    000000000000000000N
031996031089021000102021TMARIA ESTHER DEL ALCAZAR I FABREGAT                                         000000000000000000N
031996031089022000102022TLEONARDO LOPEZ RUBIA                                                        000000000000000000N
031996031089014000104014TJORDI MARAGALL I NOBLE                                                      000000000000000000S
031996031089015000104015TFRANCESCA MARTI I VIGIL                                                     000000000000000000S
031996031089016000104016TCARMINA VIRGILI I RODON                                                     000000000000000000S
031996031089039000116039TJOSE FERNANDO ALAMILLA MELERO                                               000000000000000000N
031996031089040000116040TJOSE LINHARD MILCH                                                          000000000000000000N
031996031089041000116041TRAMON REDORTA LORENTE                                                       000000000000000000N
031996031089028000124028TJAVIER CARBONELL MONTESINOS                                                 000000000000000000N
031996031179010000015010TSALVADOR CAPDEVILA I BAS (UDC)                                              000000000000000000S
031996031179011000015011TSALVADOR CARRERA I COMES (CDC)                                              000000000000000000S
031996031179012000015012TJOAQUIM VIDAL I PERPIÑA (CDC)                                               000000000000000000S
031996031179019000018019TJOSE MARIA RIOS CABRAL                                                      000000000000000000N
031996031179007000025007TCARME CAPDEVILA I PALAU                                                     000000000000000000N
031996031179008000025008TJORDI CARRERA I SERRA                                                       000000000000000000N
031996031179009000025009TJOAN PAYTUVI I VENTURA                                                      000000000000000000N
031996031179017000030017TJOSEFINA FONT BIGATA                                                        000000000000000000N
031996031179018000032018TRAFAEL VACAS ROLDAN                                                         000000000000000000N
031996031179013000033013TOSCAR GRANDE GONZALEZ                                                       000000000000000000N
031996031179014000037014TMARIA DE LES NEUS FABREGAS TEIXIDOR                                         000000000000000000N
031996031179015000037015TGERMINAL ROS MARTI                                                          000000000000000000N
031996031179016000037016TJUAN SUREDA CASAMOR                                                         000000000000000000N
031996031179006000079006TJAIME ZARCO CORRAL                                                          000000000000000000N
031996031179004000082004TRAMON BOSCHDEMONT PARERA                                                    000000000000000000N
031996031179005000090005TFERNANDO LOPEZ ESCUDERO                                                     000000000000000000N
031996031179023000091023TPAULA GONZALEZ CALLEJAS                                                     000000000000000000N
031996031179024000091024TCONCEPCION OTERINO CASASECA                                                 000000000000000000N
031996031179025000091025TZARINI RODRIGUEZ GASULLA                                                    000000000000000000N
031996031179028000098028TANGEL BARTULOS GAGO                                                         000000000000000000N
031996031179026000102026TMONTSERRAT JULIA JUNCADELLA                                                 000000000000000000N
031996031179020000104020TARSENI GIBERT I BOSCH                                                       000000000000000000S
031996031179021000104021TJOAN LLENAS I JUSCAFRESA (INDEPENDENT)                                      000000000000000000N
031996031179022000104022TMA. DOLORS OMS I BASSOLS                                                    000000000000000000N
031996031179001000116001TFRANCESC GIRO ROURA                                                         000000000000000000N
031996031179002000116002TLIGORI PEREZ REVERTER                                                       000000000000000000N
031996031179003000116003TFRANCESC LORENZO FERNANDEZ                                                  000000000000000000N
031996031179027000124027TMANUEL RODRIGO ALFONSO                                                      000000000000000000N
031996031259019000015019TJAUME CARDONA I VILA (UDC)                                                  000000000000000000S
031996031259020000015020TJOAN HORACI SIMO I BURGUES (CDC)                                            000000000000000000S
031996031259021000015021TJOSEP VARELA SERRA (CDC)                                                    000000000000000000S
031996031259001000025001TJAUME CAMPADABAL I FARRE                                                    000000000000000000N
031996031259002000025002TFRANCESC MITJANS I GUARDIOLA                                                000000000000000000N
031996031259003000025003TANNA PEIRO I ROSELLO                                                        000000000000000000N
031996031259013000037013TJOSEP MARIA ALBA BARRI                                                      000000000000000000N
031996031259014000037014TMARIA ANGELES GUTIERREZ BUSTILLO                                            000000000000000000N
031996031259015000037015TANDRES ROLLAN CARVAJAL                                                      000000000000000000N
031996031259022000079022TJAIME GARRIDO JUANOS                                                        000000000000000000N
031996031259023000082023TJORGE ARAN LOR                                                              000000000000000000N
031996031259012000090012TJOAQUIM RIUS I ULLDEMOLINS                                                  000000000000000000N
031996031259016000093016TANTONIO AIGE SANCHEZ                                                        000000000000000000N
031996031259017000093017TMANUEL PARRA CABELLO                                                        000000000000000000N
031996031259018000093018TRAMON SISQUELLA ROSELLO                                                     000000000000000000N
031996031259005000098005TJAVIER CARLOS ALONSO NUEVO                                                  000000000000000000N
031996031259006000104006TJOSEP RAMON MODOL I PIFARRE (PSC)                                           000000000000000000S
031996031259007000104007TMARIA LOURDES ROSELL I TOMAS (JSC)                                          000000000000000000N
031996031259008000104008TFERMIN TORDESILLAS I CASALS (PSC)                                           000000000000000000N
031996031259009000116009TPEDRO GALAN ESTRUCH                                                         000000000000000000N
031996031259010000116010TMARIA DEL CARMEN HURTADO ROMERO                                             000000000000000000N
031996031259011000116011TJUAN VILADEVAIT COSTA                                                       000000000000000000N
031996031259004000124004TVICTOR HERNANDEZ PUJOL                                                      000000000000000000N
031996031439001000007001TMANUEL DA MATA VALVERDE                                                     000000000000000000N
031996031439002000007002TANA RODRIGUEZ DA NATIVIDADE                                                 000000000000000000N
031996031439019000015019TVICENT BEGUER I OLIVERES (CDC)                                              000000000000000000S
031996031439020000015020TSANTIAGO CAMPOS I PIÑOL (CDC)                                               000000000000000000N
031996031439021000015021TALBERT VALLVE I NAVARRO (UDC)                                               000000000000000000N
031996031439006000018006TSERGIO RUZAFA VILA                                                          000000000000000000N
031996031439007000025007TJOSEP ANDREU I DOMINGO                                                      000000000000000000N
031996031439008000025008TJOSEP LLUIS MILLAN I MASDEU                                                 000000000000000000N
031996031439009000025009TEMPAR PONT I ALBERT                                                         000000000000000000N
031996031439027000030027TMIREYA IRIGOYEN BAUZA                                                       000000000000000000N
031996031439026000032026TFRANCISCO CORREDERA MADURGA                                                 000000000000000000N
031996031439013000033013TMARIA JUANA MUÑOZ SANCHEZ                                                   000000000000000000N
031996031439023000037023TMARIA DEL CARMEN CONEJO SANCHO                                              000000000000000000N
031996031439024000037024TANDREA MUCHNIK BAJRAS                                                       000000000000000000N
031996031439025000037025TJAUME PROS PERELLO                                                          000000000000000000N
031996031439028000083028TRAFAEL DORADO MOLINA                                                        000000000000000000N
031996031439029000083029TENRIC PRAT RIBA                                                             000000000000000000N
031996031439030000083030TRAFAEL VARELA MORENO                                                        000000000000000000N
031996031439018000090018TMIGUEL SALAS YEBRA                                                          000000000000000000N
