041991051180087000159004TJOSE LUIS GONZALEZ LOZANO                                                   00000000          N
041991051180087000159005TROSA MARIA MEDINA DOMENECH                                                  00000000          N
041991051180087000159006TMIGUEL ANGEL SOLIS FERRERAS                                                 00000000          N
041991051180087000159007TELENA MARIA IBAÑEZ MARTINEZ                                                 00000000          N
041991051180087000159008TBRUNO JOSE JIMENEZ GUISADO                                                  00000000          N
041991051180087000159009TMARIA DEL PILAR GONZALVO LOPEZ                                              00000000          N
041991051180087000159010TJUAN ANTONIO LAGUNA SORINAS                                                 00000000          N
041991051180087000159011TMARIA CRUZ CONTRERAS MEGIAS                                                 00000000          N
041991051180087000159012TRAFAEL TEJERO IBANCOS                                                       00000000          N
041991051180087000159013TEUGENIA GIL GARCIA                                                          00000000          N
041991051180087000159014TLUIS DE MANUEL JEREZ                                                        00000000          N
041991051180087000159015TMIRIAM DEL RIO SANCHEZ                                                      00000000          N
041991051180087000159016TJUAN ORTIZ ESPINOSA                                                         00000000          N
041991051180087000159017TBEGOÑA VIEJO OJANGUREN                                                      00000000          N
041991051180087000159018TGABRIEL CARMONA ORANTES                                                     00000000          N
041991051180087000159019TROSARIO MARTIN DIAZ                                                         00000000          N
041991051180087000159020TJUAN DE DIOS LOPEZ GIL                                                      00000000          N
041991051180087000159021TYOLANDA MATARAN ROBLES                                                      00000000          N
041991051180087000159022TPABLO FCO. PAULA GARCIA LOPEZ                                               00000000          N
041991051180087000159023TCONCEPCION LOPEZ NAVARRO                                                    00000000          N
041991051180087000159024TANTONIO MARTIN LOPEZ                                                        00000000          N
041991051180087000159025TNATALIA LLORENS GONZALEZ                                                    00000000          N
041991051180087000159026TPEDRO JOSE COLLADO GOMEZ                                                    00000000          N
041991051180087000159027TJOSE LUIS SERRANO MORENO                                                    00000000          N
041991051180087000169001TANTONIO RODRIGUEZ ALARCON                                                   00000000          N
041991051180087000169002TMARCOS GONZALEZ SEDANO                                                      00000000          N
041991051180087000169003TJOSE JUAN BLANCA MARTOS                                                     00000000          N
041991051180087000169004TEMILIO CERVILLA ALONSO                                                      00000000          N
041991051180087000169005TMIGUEL ANGEL ROJAS MUÑOZ                                                    00000000          N
041991051180087000169006TMANUEL DUEÑAS PESO                                                          00000000          N
041991051180087000169007THIPOLITO PEÑAS LOPEZ                                                        00000000          N
041991051180087000169008TMARIA TERESA GARCIA CASTILLO                                                00000000          N
041991051180087000169009TCARMEN FERNANDEZ DE LA ROSA                                                 00000000          N
041991051180087000169010TSILVERIO GARCIA MARTIN                                                      00000000          N
041991051180087000169011TJESUS PARRA ESCUDERO                                                        00000000          N
041991051180087000169012TMARIA LUISA DUEÑAS PESO                                                     00000000          N
041991051180087000169013TANTONIO GUETO CUBERO                                                        00000000          N
041991051180087000169014TM. ANGELES MORENTE MUÑOZ                                                    00000000          N
041991051180087000169015TJULIO MINGUEZ GONZALEZ                                                      00000000          N
041991051180087000169016TJOSE MARTIN SOLA                                                            00000000          N
041991051180087000169017TJOSEFA LEYVA GARCIA                                                         00000000          N
041991051180087000169018TCESAR ALONSO PEREZ RUIZ                                                     00000000          N
041991051180087000169019TMARIA DEL CARMEN GALERA CORPAS                                              00000000          N
041991051180087000169020TJUAN ANTONIO MORENO MEDINA                                                  00000000          N
041991051180087000169021TANTONIO CASTILLO GERVILLA                                                   00000000          N
041991051180087000169022TM. INMACULADA MORENTE MUÑOZ                                                 00000000          N
041991051180087000169023TPRUDENCIO MARTINEZ MEDINA                                                   00000000          N
041991051180087000169024TCARMEN MUÑOZ NAVARRO                                                        00000000          N
041991051180087000169025TMANUEL TORRES ZURITA                                                        00000000          N
041991051180087000169026TFABIO JOSE RIOJA DIAZ                                                       00000000          N
041991051180087000169027TESTEBAN MARTIN PASTOR                                                       00000000          N
041991051180087000276001TJOSE SANCHEZ FABA                                                           00000000          N
041991051180087000276002TIGNACIO POZO GARCIA                                                         00000000          N
041991051180087000276003TMARGARITA CAPO BOVER                                                        00000000          N
041991051180087000276004TRAFAEL RUIZ PALENCIA                                                        00000000          N
041991051180087000276005TMIGUEL JOSE CARRASCOSA SALAS                                                00000000          N
041991051180087000276006TVICENTE BRAVO RODRIGUEZ                                                     00000000          N
041991051180087000276007TGABRIEL ENRIQUE CALLEJON ARRIOLA                                            00000000          N
041991051180087000276008TJOSEFA FERNANDEZ BERTOMEU                                                   00000000          N
041991051180087000276009TFRANCISCO JOSE LOPEZ SILVENTE                                               00000000          N
041991051180087000276010TFERNANDO RODRIGUEZ GINES                                                    00000000          N
041991051180087000276011TANTONIO GARCIA ROMAN                                                        00000000          N
041991051180087000276012TLUIS SANCHEZ VELAZQUEZ                                                      00000000          N
041991051180087000276013TAGUSTIN CARMONA FERNANDEZ                                                   00000000          N
041991051180087000276014TMARIA DEL CARMEN ROBLES JIMENEZ                                             00000000          N
041991051480020000074013TCESAR FERNANDEZ GALLEGUILLOS                                                00000000          N
041991051480020000074014TCARMEN LOPEZ DE ABERASTURI SUAREZ                                           00000000          N
041991051480020000074015TMIKEL DIAZ ISUSI                                                            00000000          N
041991051480020000074016TJUAN LUIS ELORDUI BIDAURRAZAGA                                              00000000          N
041991051480020000074017TJOSU ARTETXE SOLOZABAL                                                      00000000          N
041991051480020000074018TJOSE LUIS LATASA LOIZAGA                                                    00000000          N
041991051480020000074019TGORKA ANDER ASTEINZA AGIRRE                                                 00000000          N
041991051480020000074020TIÑAKI PEREZ ARSUAGA                                                         00000000          N
041991051480020000074021TIÑAKI MADARIAGA VARELA                                                      00000000          N
041991051480020000074022TJON GOIKOETXEA MUÑOZ                                                        00000000          N
041991051480020000074023TMIREN ARGIÑE GUAZA ASTOBIZA                                                 00000000          N
041991051480020000074024TMARIA LISBEL HURTADO REVILLA                                                00000000          N
041991051480020000074025TMAITE IZAGA BILBAO                                                          00000000          N
041991051480020000074026TKEPA AMEZAGA GAUBEKA                                                        00000000          N
041991051480020000074027TIÑAKI ZABALA BEASKOETXEA                                                    00000000          N
041991051480020000074028TSABIN ZUBIRI SANCHEZ                                                        00000000          N
041991051480020000074029TJOSEBA AZKARRAGA RODERO                                                     00000000          N
041991051480020000075001TROBERTO LERTXUNDI BARAÑANO                                                  00000000          S
041991051480020000075002TJOSUNE BARRENA LARRUZEA                                                     00000000          S
041991051480020000075003TIÑAKI GURREA BILBAO                                                         00000000          N
041991051480020000075004TANA MARIA ARRIOLA PALOMARES                                                 00000000          N
041991051480020000075005TJAVIER TERAN CASTILLERO                                                     00000000          N
041991051480020000075006TVIOLETA CORERA LUENGO                                                       00000000          N
041991051480020000075007TXABIER GEREÑO ARRARTE                                                       00000000          N
041991051480020000075008TMARIA JESUS GOIKOETXEA ITURREGI                                             00000000          N
041991051480020000075009TANGEL MARIA SANCHEZ MATA                                                    00000000          N
041991051480020000075010TNILE ARROITA ASTELARRA                                                      00000000          N
041991051480020000075011TALBERTO NOGALES PRIMO                                                       00000000          N
041991051480020000075012TOLGA DIAZ DE TUESTA BARRENA                                                 00000000          N
041991051480020000075013TVICTOR GONZALEZ PRIETO                                                      00000000          N
041991051480020000075014TMARIVI JIMENEZ RUIZ                                                         00000000          N
041991051480020000075015TCARLOS BEORLEGUI RODRIGUEZ                                                  00000000          N
041991051480020000075016TJOSEINE MOUGNIER CAVANDOLI                                                  00000000          N
041991051480020000075017TEDUARDO ESCOBES RODRIGUEZ                                                   00000000          N
041991051480020000075018TYOLANDA SAEZ GOMEZ                                                          00000000          N
041991051480020000075019TJOSE RAMIREZ RIOS                                                           00000000          N
041991051480020000075020TSUSANA MARAÑON MUÑOZ                                                        00000000          N
041991051480020000075021TAMALIO MUÑOZ ARRANZ                                                         00000000          N
041991051480020000075022TAGURTZANE ORTEGO F. DE RETANA                                               00000000          N
041991051480020000075023TJAVI CALLE DE LA PEÑA                                                       00000000          N
041991051480020000075024TALICIA JARAUTA VILLAFRANCA                                                  00000000          N
041991051480020000075025TJAVIER ARDANZA PERTICA                                                      00000000          N
041991051480020000075026TMAITE ETXEBARRIA ZELAIA                                                     00000000          N
041991051480020000075027TJOSE EZEQUIEL REGOYO LEON                                                   00000000          N
041991051480020000075028TARGIA ORDORIKA TORRE                                                        00000000          N
041991051480020000075029TARMANDO LOZANO MOLDES                                                       00000000          N
041991051480020000077001TTASIO ERKIZIA ALMANDOZ                                                      00000000          S
041991051480020000077002TAMELIA ORTIZ CALVO                                                          00000000          S
041991051480020000077003TKOLDO CELESTINO SAMPER                                                      00000000          S
041991051480020000077004TKEPA IBAIBARRIAGA GOIKURIA                                                  00000000          S
041991051480020000077005TIÑAKI ANTIGUEDAD AUDMENDI                                                   00000000          N
041991051480020000077006TFLORENCIO GOMEZ PEREZ                                                       00000000          N
041991051480020000077007TAMAIA MIANGOLARRA IBARZABAL                                                 00000000          N
041991051480020000077008TJOSE CARLOS RUIZ GARRO                                                      00000000          N
041991051480020000077009TMARIA JOSE ROMERO MARTINEZ                                                  00000000          N
041991051480020000077010TCARLOS MARIA GONZALEZ RAMOS                                                 00000000          N
041991051480020000077011TPAULA OTEIZA MUGERZA                                                        00000000          N
041991051480020000077012TKARMELE DE GUINEA ANASAGASTI                                                00000000          N
041991051480020000077013TJUAN CARLOS YURREBASO ATUTXA                                                00000000          N
041991051480020000077014TIKERNE LETAMENDI URRESTI                                                    00000000          N
041991051480020000077015TIOSU TELLERIA URIARTE                                                       00000000          N
041991051480020000077016TXABIER ZUBIRI SANCHEZ                                                       00000000          N
041991051480020000077017TJOSE RAMON BILBAO OTAOLA                                                    00000000          N
041991051480020000077018TMIKEL ARIZALETA BARBERIA                                                    00000000          N
041991051480020000077019TLOURDES LAZARO CRESPO                                                       00000000          N
041991051240089000148019TANA MARIA PASCUAL GONZALEZ                                                  00000000          N
041991051240089000148020TVISITACION VELEZ LEON                                                       00000000          N
041991051240089000148021TMANUEL MANSO HERRERO                                                        00000000          N
041991051240089000148022TISMAEL SANTOS FERNANDEZ                                                     00000000          N
041991051240089000148023TGONZALO ALEGRE SUTIL                                                        00000000          N
041991051240089000148024THIPOLITA MUÑOZ RANZ                                                         00000000          N
041991051240089000148025TFRANCISCO JAVIER RODRIGUEZ ESCANCIANO                                       00000000          N
041991051240089000148026TALBERTO CUESTA CABO                                                         00000000          N
041991051240089000148027TMARCELO PARDO SANTOS                                                        00000000          N
041991051240089000150001TJOSE MARIA RODRIGUEZ DE FRANCISCO                                           00000000          S
041991051240089000150002TMARGARITA RAMOS VILLAR                                                      00000000          S
041991051240089000150003TJOAQUIN GARCIA DIEZ                                                         00000000          S
041991051240089000150004TSENADOR GONZALEZ PUENTE                                                     00000000          N
041991051240089000150005TJUAN FELIPE GARZO CRESPO                                                    00000000          N
041991051240089000150006TGABRIEL ADEVA MARTINEZ                                                      00000000          N
041991051240089000150007TJOSE LUIS ZAYAS CARBAJAL                                                    00000000          N
041991051240089000150008TJUAN JOSE FOLGUERAL ANTON                                                   00000000          N
041991051240089000150009TSIMON FERNANDEZ VEGA                                                        00000000          N
041991051240089000150010TJULIO CESAR RODRIGUEZ LAGO                                                  00000000          N
041991051240089000150011TNEMESIO MIGUELEZ GONZALEZ                                                   00000000          N
041991051240089000150012TJULIO CESAR PEÑUELAS BALBAS                                                 00000000          N
041991051240089000150013TMARIA DEL MAR ALVAREZ MARTIN                                                00000000          N
041991051240089000150014TMARIA LUISA CERVIÑO RAMOS                                                   00000000          N
041991051240089000150015TAMELIA GARCIA GASPAR                                                        00000000          N
041991051240089000150016TRICARDO JAVIER GARCIA MONTENEGRO                                            00000000          N
041991051240089000150017TMIGUEL ANGEL ACERO HERRERO                                                  00000000          N
041991051240089000150018TRICARDO JESUS GARCIA PRADA                                                  00000000          N
041991051240089000150019TMARIA LUZ SANTOS HERRERAS                                                   00000000          N
041991051240089000150020TMARIA NELIDA DOMINGUEZ SILGO                                                00000000          N
041991051240089000150021TFRANCISCO JAVIER NUÑEZ GONZALEZ                                             00000000          N
041991051240089000150022TMARIA NATIVIDAD MARTINEZ MORALA                                             00000000          N
041991051240089000150023TCARLOS PRESA VILLAYANDRE                                                    00000000          N
041991051240089000150024TPEDRO FERNANDEZ GONZALEZ                                                    00000000          N
041991051240089000150025TOSCAR GARCIA PRIETO                                                         00000000          N
041991051240089000150026TMANUEL ANTONIO MANILLA GARCIA                                               00000000          N
041991051240089000150027TADELA CASARES CASARES                                                       00000000          N
041991051240089000184001TJESUS PRIETO OLIVERA                                                        00000000          N
041991051240089000184002TVICTOR MANUEL VELAZQUEZ GONZALEZ                                            00000000          N
041991051240089000184003TMARIA ELENA PEREZ ORDOÑEZ                                                   00000000          N
041991051240089000184004TMARIA JULIA GONZALEZ VIDAL                                                  00000000          N
041991051240089000184005TMANUEL PELAEZ DIEZ                                                          00000000          N
041991051240089000184006TJULIAN PATO MILLAN                                                          00000000          N
041991051240089000184007TCESAR GERARDO GARCIA LOPEZ                                                  00000000          N
041991051240089000184008TCARLOS LUIS HERRANZ SANCHEZ                                                 00000000          N
041991051240089000184009TMARIA ESTHER DIAZ GONZALEZ                                                  00000000          N
041991051240089000184010TSANTIAGO GONZALEZ LOPEZ                                                     00000000          N
041991051240089000184011TJOSE RODRIGUEZ SUAREZ                                                       00000000          N
041991051240089000184012TFRANCISCO JAVIER ESCAPA MARCOS                                              00000000          N
041991051240089000184013TJOSE MANUEL DE LA PUENTE SAENZ                                              00000000          N
041991051240089000184014TMARIA ROCIO RODRIGUEZ CAPIN                                                 00000000          N
041991051240089000184015TOSCAR JAVIER MARTINEZ GARCIA                                                00000000          N
041991051240089000184016TFRANCISCO JAVIER GOMEZ GUTIERREZ                                            00000000          N
041991051240089000184017TOSCAR PANIAGUA DIEZ                                                         00000000          N
041991051240089000184018TLUIS ENRIQUE TRECEÑO GARCIA                                                 00000000          N
041991051240089000184019TLORENZO MORA LOPEZ                                                          00000000          N
041991051240089000184020THASSAN ABDULKABIR GRAÑERAS                                                  00000000          N
041991051240089000184021TFELIX PRIETO FERNANDEZ                                                      00000000          N
041991051240089000184022TVALENTIN JAVIER RIVAS DEL CAMPO                                             00000000          N
041991051240089000184023TJOSE LUIS ROMERO ROMERO                                                     00000000          N
041991051240089000184024TJOSE ANGEL GONZALEZ CASTELLANOS                                             00000000          N
041991051240089000184025TADOLFO DIAZ ALVAREZ                                                         00000000          N
041991051240089000184026TRAFAELA GONZALEZ CASADO                                                     00000000          N
041991051240089000184027TFERNANDO QUINTELA RODRIGUEZ                                                 00000000          N
041991051180087000276015TJOSE RUIZ MATIAS                                                            00000000          N
041991051180087000276016TJUAN MIGUEL PEÑARRUBIA RODRIGUEZ                                            00000000          N
041991051180087000276017TMARIA DEL CARMEN TAMAYO LOPEZ                                               00000000          N
041991051180087000276018TMARIA PAZ ENCARNACION CALVO PANCORBO                                        00000000          N
041991051180087000276019TJOSE MIGUEL ROJAS CARDENETE                                                 00000000          N
041991051180087000276020TLUIS FERNANDO QUESADA VELAZQUEZ                                             00000000          N
041991051180087000276021TMARIA DEL MAR JIMENEZ GUERRERO                                              00000000          N
041991051180087000276022TANGEL CASARES JIMENEZ                                                       00000000          N
041991051180087000276023TSILVIA GONZALEZ MEANA                                                       00000000          N
041991051180087000276024TJUAN JOSE GOMEZ MOHEDANO                                                    00000000          N
041991051180087000276025TMIGUEL CECILIO BOTELLA LOPEZ                                                00000000          N
041991051180087000276026TJOSE ANTONIO TORRES GONZALEZ                                                00000000          N
041991051180087000276027TJOSE CUEVAS PEREZ                                                           00000000          N
041991051210041000002001TARTURO ESTEBAN ALVERT                                                       00000000          S
041991051210041000002002TANTONIO PEÑA SUAREZ                                                         00000000          S
041991051210041000002003TJOSE NIEVES GALVIN                                                          00000000          S
041991051210041000002004TJUAN JOSE IGLESIAS GARCIA                                                   00000000          S
041991051210041000002005TJOSE LUIS BARRAGAN BAQUERO                                                  00000000          S
041991051210041000002006TFRANCISCO GARCIA CARRETERO                                                  00000000          S
041991051210041000002007TANA MARIA RINO ESPIN                                                        00000000          S
041991051210041000002008TANTONIO ARIAS PEREZ                                                         00000000          N
041991051210041000002009TWENCESLAO ALBERTO FONT BRIONES                                              00000000          N
041991051210041000002010TROBERTO HERNANDEZ DOMINGUEZ                                                 00000000          N
041991051210041000002011TSOLEDAD CASTILLA VAZQUEZ                                                    00000000          N
041991051210041000002012TPABLO CASAS LOPEZ                                                           00000000          N
041991051210041000002013TROSARIO ANDUJAR BARROSO                                                     00000000          N
041991051210041000002014TFRANCISCO BELTRAN GARRIDO                                                   00000000          N
041991051210041000002015TANGEL ALVARADO FERNANDEZ                                                    00000000          N
041991051210041000002016TJOSE ANGEL REINA TORRADO                                                    00000000          N
041991051210041000002017TJUAN MANUEL RUZ AMIGO                                                       00000000          N
041991051210041000002018TESPERANZA BENITEZ MIGUEZ                                                    00000000          N
041991051210041000002019TEUSEBIO DE VEGA GOMEZ                                                       00000000          N
041991051210041000002020TJUAN MANUEL FERNANDEZ SANCHEZ                                               00000000          N
041991051210041000002021TCRISTINO GONZALEZ MANZANAL                                                  00000000          N
041991051480020000077020TKOLDO URRUTIKOETXEA OLABARRIA                                               00000000          N
041991051480020000077021TFERNANDO RAMOS VILLA                                                        00000000          N
041991051480020000077022TJOSU PRATS GARCIA                                                           00000000          N
041991051480020000077023TJUAN CARLOS ANDRES SENZ                                                     00000000          N
041991051480020000077024TJULIO VICENTE MARQUES                                                       00000000          N
041991051480020000077025TKEPA SAN PEDRO LAYUNO                                                       00000000          N
041991051480020000077026TITZIAR GARATE ZUBIAURRE                                                     00000000          N
041991051480020000077027TDAVID ALONSO ESTEBAN                                                        00000000          N
041991051480020000077028TJOSE MARIA GOMEZ CRISTOBAL                                                  00000000          N
041991051480020000077029TITXASO GOTI LANDA                                                           00000000          N
041991051480020000081001TJOSE MARIA FERNANDEZ ESPINOSA                                               00000000          N
041991051480020000081002TANDONI PEREZ AYALA                                                          00000000          N
041991051480020000081003TJOSE LUIS PEREZ AZCONA                                                      00000000          N
041991051480020000081004TLUIS FERNANDO HEPPE DIEZ                                                    00000000          N
041991051480020000081005TANA MARIA MARTINEZ DE ARENAZA MUÑOZ                                         00000000          N
041991051480020000081006TMARIA JESUS CRESPO BRINGAS                                                  00000000          N
041991051480020000081007TJOSE LUIS RUIZ CRESPO                                                       00000000          N
041991051480020000081008TEMETERIO JIMENO SANCHEZ                                                     00000000          N
041991051480020000081009TJOSE CAMACHO CAMACHO                                                        00000000          N
041991051480020000081010TJUAN PUERTO MORCILLO                                                        00000000          N
041991051480020000081011TAGAPITA LAVIN SETIEN                                                        00000000          N
041991051480020000081012TMIGUEL FERNANDEZ SANCHEZ                                                    00000000          N
041991051480020000081013TFERMIN CARRO JIMENEZ                                                        00000000          N
041991051480020000081014TJOSE FELIX HIDALGO CHARRO                                                   00000000          N
041991051480020000081015TGABRIEL MODUBAR CALVO                                                       00000000          N
041991051480020000081016TMARIA VERONICA LUCAS FIALLEGAS                                              00000000          N
041991051480020000081017TSANTOS MONZON FRUTOS                                                        00000000          N
041991051480020000081018TJOSE ANGEL ELGUEZABAL DUEÑAS                                                00000000          N
041991051480020000081019TAMADOR LEON MACHO                                                           00000000          N
041991051480020000081020TGERMAN LUCAS NIETO                                                          00000000          N
041991051480020000081021TJOSE GARCIA ABAD                                                            00000000          N
041991051480020000081022TJUSTO JAVIER GIMENO DEL RIO                                                 00000000          N
041991051480020000081023TLUIS JAVIER SORIA MATEO                                                     00000000          N
041991051480020000081024TJUSTINO ARROYO AGUILAR                                                      00000000          N
041991051480020000081025TJESUS MARIA GULIAS ONTAVILLA                                                00000000          N
041991051480020000081026TIGNACIO ARTIGAS AZCOAGA                                                     00000000          N
041991051480020000081027TMANUEL SANCHEZ PALMON                                                       00000000          N
041991051480020000081028TIVAN ALVAREZ GARCIA                                                         00000000          N
041991051480020000081029TJOSE ANTONIO MARTIN GONZALEZ                                                00000000          N
041991051480020000082001TRODOLFO ARES TABOADA                                                        00000000          S
041991051480020000082002TEDUARDO URIARTE ROMERO                                                      00000000          S
041991051480020000082003TPAULINO COLMENERO ARES                                                      00000000          S
041991051480020000082004TALBERTO RUIZ DE LAZCANO HUGUET                                              00000000          S
041991051480020000082005TDIMAS ANTONIO SAÑUDO AJA                                                    00000000          S
041991051480020000082006TANGEL MARIA ORTIZ ALFAU                                                     00000000          S
041991051480020000082007TMARIA ISABEL PEÑA AGUIRRE                                                   00000000          N
041991051480020000082008TCARLOS LOPEZ BERGES                                                         00000000          N
041991051480020000082009TJULIO FERNANDEZ OROZCO                                                      00000000          N
041991051480020000082010TYOLANDA SANCHEZ MIRAVALLES                                                  00000000          N
041991051480020000082011TJOSE ANGEL SUAREZ ALONSO                                                    00000000          N
041991051480020000082012TJOSE IGNACIO GARCIA ARBAIZA                                                 00000000          N
041991051480020000082013TFRANCISCO JAVIER MUÑOZ RODRIGUEZ                                            00000000          N
041991051480020000082014TPURIFICACION MARTINEZ PEREZ                                                 00000000          N
041991051480020000082015TFRANCISCO JAVIER LARRAZABAL IRAÑETA                                         00000000          N
041991051480020000082016TJUAN CARLOS DELGADO DUQUE                                                   00000000          N
041991051480020000082017TJULIO NEBREDA ONTAÑON                                                       00000000          N
041991051480020000082018TMARIA ISABEL GONZALEZ ALVAREZ                                               00000000          N
041991051480020000082019TDOMITILO ANDRES NUÑEZ                                                       00000000          N
041991051480020000082020THILARIO BARDON RECALDE                                                      00000000          N
041991051480020000082021TLUIS ALBERTO LANDA GUERRA                                                   00000000          N
041991051480020000082022TROSA MARIA SOENGAS PACIN                                                    00000000          N
041991051480020000082023TDAVID MORIN SALGADO                                                         00000000          N
041991051480020000082024TJESUS FELIX DEL CURA GORDEJUELA                                             00000000          N
041991051480020000082025TMARIA PILAR FERNANDEZ ZARZOSA                                               00000000          N
041991051480020000082026TIGNACIO JAVIER ECHENAGUSIA CEBALLOS                                         00000000          N
041991051210041000002022TFRANCISCO GARCIA FRANCO                                                     00000000          N
041991051210041000002023TFRANCISCA CATALINA GUTIERREZ RUIZ                                           00000000          N
041991051210041000002024TMAGDALENA GARRIDO QUINTERO                                                  00000000          N
041991051210041000002025TMANUEL MARCIAL NOGUEIRO FLORES                                              00000000          N
041991051210041000002026TJOSE MANUEL DE SOTO RIOJA                                                   00000000          N
041991051210041000002027TLUIS MARQUINEZ MARQUINEZ                                                    00000000          N
041991051210041000003001TSALUD DE SILVA GARCIA                                                       00000000          N
041991051210041000003002TMANUEL PALACIOS MAESTRE                                                     00000000          N
041991051210041000003003TRAFAEL GARCIA GARCIA                                                        00000000          N
041991051210041000003004TJOSE ANTONIO GONZALEZ DUQUE                                                 00000000          N
041991051210041000003005TJOAQUIN CARLOS VILAR MARTIN                                                 00000000          N
041991051210041000003006TMANUEL SANCHEZ NIETO                                                        00000000          N
041991051210041000003007TCELESTINO FERNANDEZ PANIAGUA                                                00000000          N
041991051210041000003008TANTONIO MARTINEZ GARCIA                                                     00000000          N
041991051210041000003009TMANUEL LEAL CAMPOS                                                          00000000          N
041991051210041000003010TVICTOR MANUEL DE SILVA MEDINA                                               00000000          N
041991051210041000003011TFRANCISCO DIAZ GOMEZ                                                        00000000          N
041991051210041000003012TOLIVA MARIA FERNANDEZ RODRIGUEZ                                             00000000          N
041991051210041000003013TROSARIO RODRIGUEZ GARCIA                                                    00000000          N
041991051210041000003014TMARIA TERESA IRALA RIVERO                                                   00000000          N
041991051210041000003015TRAMON MARQUEZ FITO                                                          00000000          N
041991051210041000003016TMARIA ISABEL SANCHEZ COLLADO OLIVER                                         00000000          N
041991051210041000003017TMARIA DOLORES ESTEVEZ MORENO                                                00000000          N
041991051210041000003018TFRANCISCO PEREZ RIVAS                                                       00000000          N
041991051210041000003019TJOSE LUIS O'KELLY MARTINEZ                                                  00000000          N
041991051210041000003020TJOSEFA GERTRUDIS MACIA MILLAN                                               00000000          N
041991051210041000003021TFRANCISCO LUIS MAQUEDA JIMENEZ                                              00000000          N
041991051210041000003022TJUAN CARLOS GARRIDO CUTILLA                                                 00000000          N
041991051210041000003023TJOSE MARIA PIJOAN VICENTE                                                   00000000          N
041991051210041000003024TANDRES GOMEZ GARFIA                                                         00000000          N
041991051210041000003025TJESUS REAL SOSA                                                             00000000          N
041991051210041000003026TCRISTOBAL BATANERO BRAVO                                                    00000000          N
041991051210041000003027TJOSE LUIS RUIZ DIAZ                                                         00000000          N
041991051210041000023001TJOSE QUINTERO GARCIA                                                        00000000          S
041991051210041000023002TLUIS DOMINGUEZ BONET                                                        00000000          S
041991051210041000023003TMARIA ESTRELLA MARTIN TEJERIZO                                              00000000          N
041991051210041000023004TMANUEL RODRIGUEZ MARTIN                                                     00000000          N
041991051210041000023005TVICENTE RUFINO RIVERO                                                       00000000          N
041991051210041000023006TPEDRO JIMENEZ SAN JOSE                                                      00000000          N
041991051210041000023007TJESUS MARIA LARRARTE LLORDEN                                                00000000          N
041991051210041000023008TMARIA ROSA MARTINEZ (MOGUEIRO)                                              00000000          N
041991051210041000023009TMANUEL CIRIA MACARRO                                                        00000000          N
041991051210041000023010TCONSUELO REVILLA DELGADO                                                    00000000          N
041991051210041000023011TMANUEL DE JESUS GUTIERREZ RUIZ                                              00000000          N
041991051210041000023012TJOSE MUIÑOS DE JESUS                                                        00000000          N
041991051210041000023013TMARIA TERESA MARTINEZ GIMENO                                                00000000          N
041991051210041000023014TJUAN JOSE LOPEZ CEREZO                                                      00000000          N
041991051210041000023015TFLORENCIO VILCHEZ GONZALEZ                                                  00000000          N
041991051210041000023016TRAFAEL ALJAMA ALCANTARA                                                     00000000          N
041991051210041000023017TLEONOR MARIA PALOMO CEJUDO                                                  00000000          N
041991051210041000023018TANTONIO ALFONSO TRISAC FERNANDEZ                                            00000000          N
041991051210041000023019TRICARDO DURAN GONZALEZ                                                      00000000          N
041991051210041000023020TFRANCISCO VAZQUEZ MOJARRO                                                   00000000          N
041991051210041000023021TANGEL FRANCISCO SENET CARTAGENA                                             00000000          N
041991051210041000023022TCRISTINA GONZALEZ RODRIGUEZ                                                 00000000          N
041991051210041000023023TJUAN MANUEL BAEZ GONZALEZ                                                   00000000          N
041991051210041000023024TROSARIO CORVILLO LUQUE                                                      00000000          N
041991051210041000023025TVICENTE CHAPARRO GONZALEZ                                                   00000000          N
041991051210041000023026TMARIA LUISA PEREZ DE LA CUADRA                                              00000000          N
041991051210041000023027TLUIS DE LA RASILLA SANCHEZ-ARJONA                                           00000000          N
041991051210041000024001TJUAN CEADA INFANTE                                                          00000000          S
041991051210041000024002TJUAN VAZQUEZ PAVON                                                          00000000          S
041991051210041000024003TAMALIA PERIANES CAMACHO                                                     00000000          S
041991051210041000024004TAMELIA LEON GOMEZ                                                           00000000          S
041991051210041000024005TRAFAEL ORTIZ GARCIA                                                         00000000          S
041991051480020000082027TESTHER GALLEGO BILBAO                                                       00000000          N
041991051480020000082028TJOSE M. RODRIGUEZ NOVO                                                      00000000          N
041991051480020000082029TMARCELO VIAN HOYOS                                                          00000000          N
041991051480020000094001TJOSU ORTUONDO LARREA                                                        00000000          S
041991051480020000094002TJESUS MARIA DUÑABEITIA VIDAL                                                00000000          S
041991051480020000094003TIBON ARESO MENDIGUREN                                                       00000000          S
041991051480020000094004TJUAN CARLOS LOIDI ARREGUI                                                   00000000          S
041991051480020000094005TMARTA BARCO MONDRAGON                                                       00000000          S
041991051480020000094006TJON KOLDO GANGOITI URRUTIA                                                  00000000          S
041991051480020000094007TPEDRO MARIA BARREIRO ZUBIRI                                                 00000000          S
041991051480020000094008TJULIAN FERNANDEZ FERNANDEZ                                                  00000000          S
041991051480020000094009TJOSEBA UNZURRUNZAGA MADINA                                                  00000000          S
041991051480020000094010TANA MARIA RECA ESPARZA                                                      00000000          S
041991051480020000094011TVICENTE BILBAO GOIRI                                                        00000000          S
041991051480020000094012TRICARDO ANDRES GOÑI HERNANDEZ                                               00000000          N
041991051480020000094013TRICARDO BARCALA ZUMELZU                                                     00000000          N
041991051480020000094014TMARIA DE ASIS FERNANDEZ ARTIETA                                             00000000          N
041991051480020000094015TROBERTO AYALA FERNANDEZ                                                     00000000          N
041991051480020000094016TPEDRO MARIA IBARRONDO ARBAIZA                                               00000000          N
041991051480020000094017TIÑAKI DE BANALES MEABE                                                      00000000          N
041991051480020000094018TJOSE ANTONIO BARREIRO SUSAETA                                               00000000          N
041991051480020000094019TJON MIKEL LATATU MIGOYA                                                     00000000          N
041991051480020000094020TJON ARTEAGOITIA IBARRECHE                                                   00000000          N
041991051480020000094021TARANTZA ISASMENDI BENGOA                                                    00000000          N
041991051480020000094022TALEJANDRO ARROYO BARRON                                                     00000000          N
041991051480020000094023TJON IÑARRITU ISUSI                                                          00000000          N
041991051480020000094024TLUIS MARIA CEREZO ROJO                                                      00000000          N
041991051480020000094025TJUAN ZUBIAURRE ARMENDIA                                                     00000000          N
041991051480020000094026TJOSE LUIS RUIZ DE ARBULO ZALDIVAR                                           00000000          N
041991051480020000094027TJON MIRAVALLES BARRENETXEA                                                  00000000          N
041991051480020000094028TLUCIO JOSE M. MUGUETA ELIZALDE                                              00000000          N
041991051480020000094029TPEDRO JANICES ABETE                                                         00000000          N
041991051480020000132001TJOSE ANGEL TUÑON MOTA                                                       00000000          N
041991051480020000132002TMIGUEL CLAVERIA AMAYA                                                       00000000          N
041991051480020000132003TSANTIAGO MARTINEZ FIGUEROA                                                  00000000          N
041991051480020000132004TALFONSO ARTOLA GIL                                                          00000000          N
041991051480020000132005TBEGOÑA GOROSTIZA SANTAMARIA                                                 00000000          N
041991051480020000132006TVICENTE CORTES JIMENEZ                                                      00000000          N
041991051480020000132007TMARIA DOLORES ARRIOLA LACRUZ                                                00000000          N
041991051480020000132008TGERARDO HERNANDO DE LIRAS                                                   00000000          N
041991051480020000132009TAURELIANA GOMEZ MANSILLA                                                    00000000          N
041991051480020000132010TANGEL HOYOS TUÑON                                                           00000000          N
041991051480020000132011TANTONIO LOPEZ DEL MORAL                                                     00000000          N
041991051480020000132012TPEDRO VITORIA ALEGRE                                                        00000000          N
041991051480020000132013TNURIA OYON GOMEZ                                                            00000000          N
041991051480020000132014TTERESA GARAMENDI MAGRO                                                      00000000          N
041991051480020000132015TFRANCISCO JAVIER GONZALEZ ALVAREZ                                           00000000          N
041991051480020000132016TM. LAZARO GUTIERREZ FRAILE                                                  00000000          N
041991051480020000132017TTERESA LORENZO SIERRA                                                       00000000          N
041991051480020000132018TMANUELA JULAR CALDERON                                                      00000000          N
041991051480020000132019TMARIA CARMEN TORRECILLA TUÑON                                               00000000          N
041991051480020000132020TEXABIER ARITZA TOJA GARAMENDI                                               00000000          N
041991051480020000132021TVALENTIN GABARRI JIMENEZ                                                    00000000          N
041991051480020000132022TJUAN CORTES DUAL                                                            00000000          N
041991051480020000132023TMARIANO VEGA BERRIO                                                         00000000          N
041991051480020000132024TFERNANDO ALONSO OJEDA                                                       00000000          N
041991051480020000132025TJOSE ANTONIO MARTIN BORJA                                                   00000000          N
041991051480020000132026TMARIA LUISA VEGA MUZA                                                       00000000          N
041991051480020000132027TFRANCISCO RODRIGUEZ CATARAIN                                                00000000          N
041991051480020000132028TJOSE ARA NAVARLAZ                                                           00000000          N
041991051480020000132029TMARIA GAUDENCIA BORJA VAZQUEZ                                               00000000          N
041991051480020000135001TROBERTO SERRANO GARCIA                                                      00000000          N
041991051480020000135002TFELIX ARRIBAS DEL ALAMO                                                     00000000          N
041991051480020000135003TMARINA DIEZ GONZALEZ                                                        00000000          N
041991051480020000135004TJOSE ANTONIO GARAIZAR SOUSA                                                 00000000          N
041991051210041000024006TJUAN GARCIA BARRANCA                                                        00000000          S
041991051210041000024007TJUAN JOSE OÑA HERVALEJO                                                     00000000          S
041991051210041000024008TOLIVA TORNERO CODER                                                         00000000          S
041991051210041000024009TANA MARIA DOMINGUEZ DE LA CORTE                                             00000000          S
041991051210041000024010TMANUEL VALDERAS TRABAJO                                                     00000000          S
041991051210041000024011TFRANCISCO JAVIER LOPEZ PEREZ                                                00000000          S
041991051210041000024012TCONCEPCION MARTIN BENITEZ                                                   00000000          S
041991051210041000024013TDAMIAN VIDAL GONZALEZ                                                       00000000          S
041991051210041000024014TJOAQUIN MANUEL MORON LOPEZ                                                  00000000          S
041991051210041000024015TANDRES ESCALANTE HIDALGO                                                    00000000          S
041991051210041000024016TANTONIO ROMERO GARCIA                                                       00000000          S
041991051210041000024017TMANUEL MUÑOZ SANCHEZ                                                        00000000          N
041991051210041000024018TSANTIAGO TORRES SANCHEZ                                                     00000000          N
041991051210041000024019TJOSE LUIS CANTERLA GONZALEZ                                                 00000000          N
041991051210041000024020TSEBASTIAN ACEVEDO MESA                                                      00000000          N
041991051210041000024021TDOLORES MESA GARRIDO                                                        00000000          N
041991051210041000024022TRAFAEL PEREZ MESA                                                           00000000          N
041991051210041000024023TMARIA R. FATIMA ABURTO BASELGA                                              00000000          N
041991051210041000024024TPILAR GONZALEZ CARAZO                                                       00000000          N
041991051210041000024025TANTONIO POSTA MACIAS                                                        00000000          N
041991051210041000024026TMARIA ASUNCION ACERO OTAMENDI                                               00000000          N
041991051210041000024027TEDUARDO MATEO ESPADA                                                        00000000          N
041991051210041000025001TDIEGO MIGUEL MARTIN JARA                                                    00000000          S
041991051210041000025002TMIGUEL ANGEL CARO FIGUERAS                                                  00000000          S
041991051210041000025003TJOSE GONZALEZ JAPON                                                         00000000          N
041991051210041000025004TFRANCISCO JOSE MARTINEZ DIAZ                                                00000000          N
041991051210041000025005TJOSE VEGA SERRANO                                                           00000000          N
041991051210041000025006TMARIA FUENTES MORA                                                          00000000          N
041991051210041000025007TJUAN MANUEL DE ALARCON FERNANDEZ                                            00000000          N
041991051210041000025008TJOSEFA DOLORES MORA RODRIGUEZ                                               00000000          N
041991051210041000025009TMANUEL GARCIA BORAITA                                                       00000000          N
041991051210041000025010TMARIA DE LOS ANGELES CAMACHO FRANCO                                         00000000          N
041991051210041000025011TANTONIO MUÑOZ SORIANO                                                       00000000          N
041991051210041000025012TELENA MARIA MARTINEZ CAMACHO                                                00000000          N
041991051210041000025013TDIEGO LUIS FRANCO AVILA                                                     00000000          N
041991051210041000025014TJOSE ANTONIO PONCE QUINTERO                                                 00000000          N
041991051210041000025015TEDUARDO CASTELL PALOMO                                                      00000000          N
041991051210041000025016TSERGIO FLORES BORREGO                                                       00000000          N
041991051210041000025017TMARIA TERESA SANCHEZ ARRANZ                                                 00000000          N
041991051210041000025018TJUAN MANTELL RODRIGUEZ                                                      00000000          N
041991051210041000025019TJOSE LUIS LERIDA MORENO                                                     00000000          N
041991051210041000025020TJUAN MANUEL GONZALEZ MORGADO                                                00000000          N
041991051210041000025021TLUCINDA GONZALEZ ENCARNACION                                                00000000          N
041991051210041000025022TJUANA MACEDA FERNANDEZ                                                      00000000          N
041991051210041000025023TFRANCISCO MORO BORRERO                                                      00000000          N
041991051210041000025024TMARIA VICTORIA VAZQUEZ AGUADO                                               00000000          N
041991051210041000025025TJUAN JOSE MAZO LAGARES                                                      00000000          N
041991051210041000025026TFRANCISCO CRUZ BELTRAN                                                      00000000          N
041991051210041000025027TANTONIO NUÑEZ ROLDAN                                                        00000000          N
041991051210041000159001TVICENTE SERRANO BARRIOS                                                     00000000          N
041991051210041000159002TJOSE LOPEZ PEÑA                                                             00000000          N
041991051210041000159003TJOSE LUIS SERRANO BARRIOS                                                   00000000          N
041991051210041000159004TANTONIO VALIENTE SANCHEZ                                                    00000000          N
041991051210041000159005TMANUEL MUÑOZ HIERRO                                                         00000000          N
041991051210041000159006TMARIA DEL ROCIO TIRALLES FEDRIANO                                           00000000          N
041991051210041000159007TJOSE CARLOS PASTORIZA VILA                                                  00000000          N
041991051210041000159008TJUAN MIGUEL VELASCO PEREZ                                                   00000000          N
041991051210041000159009TESPERANZA FERNANDEZ PATIÑO                                                  00000000          N
041991051210041000159010TFRANCISCO LAGARES FERNANDEZ                                                 00000000          N
041991051210041000159011TMIGUEL ANGEL LIMON CALVO                                                    00000000          N
041991051210041000159012TBENJAMIN CHANS GARCIA                                                       00000000          N
041991051210041000159013TRICARDO ALFREDO RODRIGUEZ MORETTI                                           00000000          N
041991051210041000159014TMANUEL SILVAN RODRIGUEZ                                                     00000000          N
041991051210041000159015TJOSE FALCON GOMEZ                                                           00000000          N
041991051210041000159016TRICARDO MANUEL QUINTERO MACIAS                                              00000000          N
041991051480020000135005TMARIA LOURDES MUELA BROUARD                                                 00000000          N
041991051480020000135006TMARIA LUISA VEGA PEREZ                                                      00000000          N
041991051480020000135007TJAVIER ZENITAGOYA URQUIZA                                                   00000000          N
041991051480020000135008TEMILIO MARTIN CASTAÑEDA                                                     00000000          N
041991051480020000135009TJUAN CRUZ CASADO GOTI                                                       00000000          N
041991051480020000135010TEVA MARIA SAIZ DE LA MAZA GUTIERREZ                                         00000000          N
041991051480020000135011TIGNACIO MORENO TERRON                                                       00000000          N
041991051480020000135012TVIRGINIA MARTIN GONZALO                                                     00000000          N
041991051480020000135013TJESUS MARIA CANTERO GONZALBO                                                00000000          N
041991051480020000135014TRAQUEL ARANA MARTINEZ                                                       00000000          N
041991051480020000135015TSONIA GARCIA HERNANDEZ                                                      00000000          N
041991051480020000135016TJ. CARLO LASECA MORILLO                                                     00000000          N
041991051480020000135017TJAVIER ARCE ARROYO                                                          00000000          N
041991051480020000135018TBEGOÑA TORRES EPELDE                                                        00000000          N
041991051480020000135019TISABEL DUQUE BERRUEZO                                                       00000000          N
041991051480020000135020TCRISTINA GOMEZ DE SEGURA SARRACHO                                           00000000          N
041991051480020000135021TMARIA LUZ ALVAREZ GUTIERREZ                                                 00000000          N
041991051480020000135022TMIGUEL ROCHA CARAZO                                                         00000000          N
041991051480020000135023TALBERTO CASTELO GOMEZ                                                       00000000          N
041991051480020000135024TCARLOS CRIADO TORRES                                                        00000000          N
041991051480020000135025TIÑIGO OTAOLA BAJENETA                                                       00000000          N
041991051480020000135026TANGEL R. LOPEZ GOMEZ                                                        00000000          N
041991051480020000135027TAINGERU DOMINGUEZ ALEGRE                                                    00000000          N
041991051480020000135028TJON GOMEZ AMURIZA                                                           00000000          N
041991051480020000135029TGOYO ECHEGOYEN ESTEBAN                                                      00000000          N
041991051210041000159017TFRANCISCO PEREZ CORRALEJO                                                   00000000          N
041991051210041000159018TMARIA SOLEDAD GOMEZ RODRIGUEZ                                               00000000          N
041991051210041000159019TDAVID FRANCISCO FERNANDEZ PORTELA                                           00000000          N
041991051210041000159020TALONSO GALAN GOMEZ                                                          00000000          N
041991051210041000159021TSOLEDAD BERMEJO MONTOYA                                                     00000000          N
041991051210041000159022TANTONIO GONZALEZ JIMENEZ                                                    00000000          N
041991051210041000159023TDELIA REBOYO LEANDRE                                                        00000000          N
041991051210041000159024TJESUS RODRIGUEZ BORREGO                                                     00000000          N
041991051210041000159025TJOSE RANGEL CONDE                                                           00000000          N
041991051210041000159026TMARIA INMACULADA BELLERIN PEREZ                                             00000000          N
041991051210041000159027TFLORENTINO BEADES ARTILLO                                                   00000000          N
041991051210041000168001TLUIS RODRIGUEZ GARCIA                                                       00000000          N
041991051210041000168002TJUANA ORTA GONZALEZ                                                         00000000          N
041991051210041000168003TVICENTE ANDRES COLOMBO ALBIOL                                               00000000          N
041991051210041000168004TMANUEL LUQUE JIMENEZ                                                        00000000          N
041991051210041000168005TMANUELA RODRIGUEZ DOMINGUEZ                                                 00000000          N
041991051210041000168006TMANUEL RAMIREZ DELGADO                                                      00000000          N
041991051210041000168007TRAFAELA RAMOS GALLEGO                                                       00000000          N
041991051210041000168008TARTURO BARROSO PIOSA                                                        00000000          N
041991051210041000168009TFRANCISCO PEREZ PONCE                                                       00000000          N
041991051210041000168010TJESUS MARQUEZ HERNANDEZ                                                     00000000          N
041991051210041000168011TMARIA CINTA RODRIGUEZ GOMEZ                                                 00000000          N
041991051210041000168012TMANUEL ANGEL CARBAJO GARCIA                                                 00000000          N
041991051210041000168013TMARIA DEL ROSARIO PEREZ GOMEZ                                               00000000          N
041991051210041000168014TJOSEFA DIAZ RODRIGUEZ                                                       00000000          N
041991051210041000168015TMIGUEL PEREZ LOPEZ                                                          00000000          N
041991051210041000168016TDOLORES CARBAJO GARCIA                                                      00000000          N
041991051210041000168017TJOSE MANUEL MORENO DOMINGUEZ                                                00000000          N
041991051210041000168018TJUAN JOSE DURAN CASTILLA                                                    00000000          N
041991051210041000168019TJUAN JOSE QUINTERO GARCIA                                                   00000000          N
041991051210041000168020TDAMASO GARCIA SANCHEZ                                                       00000000          N
041991051210041000168021TMANUEL BENEROSO GOMEZ                                                       00000000          N
041991051210041000168022TROCIO GOMEZ ALFONSO                                                         00000000          N
041991051210041000168023TDOLORES GOMEZ MARQUEZ                                                       00000000          N
041991051210041000168024TCONCEPCION LOZANO HURTADO                                                   00000000          N
041991051210041000168025TJUAN MORALES MARQUEZ                                                        00000000          N
041991051210041000168026TMARIA DE LA SOLEDAD RODRIGUEZ MTNEZ.                                        00000000          N
041991051210041000168027TJULIAN MACIAS REDONDO                                                       00000000          N
041991051210041000169001TJOSE L. PAVON CINTADO (PCPA)                                                00000000          N
041991051210041000169002TROSA A. FREITAS VILARIÑO (PCDA)                                             00000000          N
041991051210041000169003TJOSE M. CASTELLANO ROMERO (PCE) (M-L)                                       00000000          N
041991051210041000169004TANTONIO LOPEZ RODRIGUEZ (PCPA)                                              00000000          N
041991051210041000169005TJOSE L. RODRIGUEZ VEGA (PCPA)                                               00000000          N
041991051210041000169006TANTONIO GARCIA GALLEGO (INDEPENDIENTE)                                      00000000          N
041991051210041000169007TMANUEL DIAZ GOMEZ (INDEPENDIENTE)                                           00000000          N
041991051210041000169008TMANUEL GARRIDO MARTIN (PCPA)                                                00000000          N
041991051210041000169009TFRANCISCO VIDES MORALES (PCPA)                                              00000000          N
041991051210041000169010TANDRES RAYA EVANGELISTA (INDEPENDIENTE)                                     00000000          N
041991051210041000169011TFERNANDO SORIANO RODRIGUEZ (INDEPENDIENTE)                                  00000000          N
041991051210041000169012TJUANA M. JIMENEZ GRACIA (PCPA)                                              00000000          N
041991051210041000169013TJOSE RODRIGUEZ PULGAR (PCPA)                                                00000000          N
041991051210041000169014TM. ISABEL ARANDA JIMENEZ (INDEPENDIENTE)                                    00000000          N
041991051210041000169015TEMILIO FERNANDEZ GONZALEZ (INDEPENDIENTE)                                   00000000          N
041991051210041000169016TJUAN JESUS ORTA GOMEZ (PCPA)                                                00000000          N
041991051210041000169017TMANUEL GONZALEZ FLORES (INDEPENDIENTE)                                      00000000          N
041991051210041000169018TJOSE ESTEBAN DE LA CRUZ FERNANDEZ (INDEPENDIENTE)                           00000000          N
041991051210041000169019TLUIS MIGUEL NAVAS RITA (CJC)                                                00000000          N
041991051210041000169020TFRANCISCO GOMEZ GUILLEN (CJC)                                               00000000          N
041991051210041000169021TMARIA CARMEN RODRIGUEZ RAMIREZ (INDEPENDIENTE)                              00000000          N
041991051210041000169022TMANUEL ARANDA JIMENEZ (INDEPENDIENTE)                                       00000000          N
041991051210041000169023TJOSE D. LOPEZ LIGERO (PCPA)                                                 00000000          N
041991051210041000169024TLUISA ROCATALIATA BARROS (INDEPENDIENTE)                                    00000000          N
041991051300016000001001TJOSE ANTONIO ALONSO CONESA                                                  00000000          S
041991051300016000001002TM. SACRAMENTO CANOVAS MONTALBAN                                             00000000          S
041991051300016000001003TBALDOMERO SALAS GARCIA                                                      00000000          S
041991051300016000001004TJULIAN CONTRERAS GARCIA                                                     00000000          S
041991051300016000001005TPEDRO LOPEZ LORENTE                                                         00000000          S
041991051300016000001006TVICENTE ROSIQUE MOLINA                                                      00000000          S
041991051300016000001007TOLIMPIA RUIZ CANDELERA                                                      00000000          S
041991051300016000001008TJOSE ANTONIO PIÑERO GOMEZ                                                   00000000          S
041991051300016000001009TALFONSO CONESA ROS                                                          00000000          S
041991051300016000001010TRICARDO A. HERNANDEZ DIAZ                                                   00000000          S
041991051300016000001011TJOSE MARTINEZ GARCIA                                                        00000000          S
041991051300016000001012TJESUS CANO MARTINEZ                                                         00000000          S
041991051300016000001013TCARIDAD RUBIO MARTINEZ                                                      00000000          S
041991051300016000001014TISABEL BELMONTE UREÑA                                                       00000000          N
041991051300016000001015TJOSE LUIS FERNANDEZ LOZANO                                                  00000000          N
041991051300016000001016TJOSEFA ROSIQUE DIAZ                                                         00000000          N
041991051300016000001017TJOSE M. CAMPUZANO GARCIA                                                    00000000          N
041991051300016000001018TFELIPA CRESPO PEREZ                                                         00000000          N
041991051300016000001019TGINES MORAL SOLANA                                                          00000000          N
041991051300016000001020TANDRES MARTINEZ GARCIA                                                      00000000          N
041991051300016000001021TNARCISO FERNANDEZ ALBALADEJO                                                00000000          N
041991051300016000001022TM. TERESA BASTIDA SAEZ                                                      00000000          N
041991051300016000001023TFERNANDO HERNANDEZ DIAZ                                                     00000000          N
041991051300016000001024TSALVADOR ALONSO MARTINEZ                                                    00000000          N
041991051300016000001025TJUAN RUIZ ROS                                                               00000000          N
041991051300016000001026TJUAN JOSE CANO SAEZ                                                         00000000          N
041991051300016000001027TPEDRO TRUJILLO HERNANDEZ                                                    00000000          N
041991051300016000002001TANTONIO LUIS CARCELES NIETO                                                 00000000          S
041991051300016000002002TEMILIO LOZANO TONKIN                                                        00000000          S
041991051300016000002003TJULIO ANTONIO ALVAREZ GOMEZ                                                 00000000          S
041991051300016000002004TVICENTE BALIBREA AGUADO                                                     00000000          S
041991051300016000002005TMARIA DOLORES SOLER CELDRAN                                                 00000000          S
041991051300016000002006TRICARDO MULAS DELGADO                                                       00000000          S
041991051300016000002007TJUAN DESMONT GUTIERREZ                                                      00000000          S
041991051300016000002008TDOMINGO FERNANDEZ CANOVAS                                                   00000000          S
041991051300016000002009TENRIQUE PEREZ ABELLAN                                                       00000000          N
041991051300016000002010TJOSE MONTOYA MARTINEZ                                                       00000000          N
041991051300016000002011TFRANCISCO TERUEL SOLANO                                                     00000000          N
041991051300016000002012TJOSE MARIA HERNANDEZ SANCHEZ                                                00000000          N
041991051300016000002013TFRANCISCO CABEZOS NAVARRO                                                   00000000          N
041991051300016000002014TLOURDES COUTELENG OLORIZ                                                    00000000          N
041991051300016000002015TJOAQUIN GIMENEZ BRUNO                                                       00000000          N
041991051300016000002016TJUAN MANUEL RUIZ ROS                                                        00000000          N
041991051300016000002017TANTONIO MARTINEZ VALVERDE                                                   00000000          N
041991051300016000002018TDIEGO BONILLA SERRANO                                                       00000000          N
041991051300016000002019TJESUS LOPEZ-MULET MARTINEZ                                                  00000000          N
041991051300016000002020TJOSE DIAZ BERMEJO                                                           00000000          N
041991051210041000169025TMANUEL TELLADO GARRIDO (PCPA)                                               00000000          N
041991051210041000169026TROSARIO RODRIGUEZ JARAMAGO (INDEPENDIENTE)                                  00000000          N
041991051210041000169027TMIGUEL ANGEL RODRIGUEZ BURRERO (INDEPENDIENTE)                              00000000          N
041991051230050000002001TALFONSO SANCHEZ HERRERA                                                     00000000          S
041991051230050000002002TMIGUEL BENITEZ AREVALO                                                      00000000          S
041991051230050000002003TFRANCISCO JOAQUIN BLANCA COLMENERO                                          00000000          S
041991051230050000002004TFELIPE OYA RODRIGUEZ                                                        00000000          S
041991051230050000002005TFERNANDO LORITE GARCIA                                                      00000000          S
041991051230050000002006TFERNANDO HERMOSO POVES                                                      00000000          S
041991051230050000002007TJAVIER IGNACIO GARCIA GOMEZ                                                 00000000          S
041991051230050000002008TJOSE MARIA CRESPO NECHES                                                    00000000          S
041991051230050000002009TFRANCISCO LUIS GUTIERREZ RAMIREZ                                            00000000          S
041991051230050000002010TFRANCISCO MIGUEL GOMEZ ESPINOSA                                             00000000          S
041991051230050000002011TJOSEFA MARTOS MEDINA                                                        00000000          S
041991051230050000002012TJUAN PRADOS GARCIA                                                          00000000          S
041991051230050000002013TFRANCISCO ORTEGA RUIZ                                                       00000000          N
041991051230050000002014TJOSE ALCANTARA CARRILLO                                                     00000000          N
041991051230050000002015TJUAN RAMON SANCHEZ MOLINOS                                                  00000000          N
041991051230050000002016TJOSEFA LOMBARDO RODRIGUEZ                                                   00000000          N
041991051230050000002017TENRIQUE ALVAREZ CARDENAS                                                    00000000          N
041991051230050000002018TFRANCISCO FONTECHA CRUZ                                                     00000000          N
041991051230050000002019TFERNANDO ZALDUA MUÑOZ                                                       00000000          N
041991051230050000002020TMARIA DEL SOCORRO SANCHEZ VEGA                                              00000000          N
041991051230050000002021TJOSE RUIZ LENDINEZ                                                          00000000          N
041991051230050000002022TROCIO LOPEZ-BARAJAS COLMENERO                                               00000000          N
041991051230050000002023TALFREDO LOPEZ RECHE                                                         00000000          N
041991051230050000002024TFELIX CAMPOS ORTEGA                                                         00000000          N
041991051230050000002025TMARIA TERESA SANCHEZ DE ALCAZAR OCAÑA                                       00000000          N
041991051230050000002026TANDRES DE ACUÑA MARTINEZ                                                    00000000          N
041991051230050000002027TPEDRO AYORA LUNA                                                            00000000          N
041991051230050000003001TFRANCISCO MOZAS MARTINEZ                                                    00000000          N
041991051230050000003002TJUAN ANTONIO QUIROS MEDINA                                                  00000000          N
041991051230050000003003TMARIA ISABEL MORALES MARTIN                                                 00000000          N
041991051230050000003004TJUAN ANTONIO MINGORANCE CASTILLO                                            00000000          N
041991051230050000003005TMIGUEL ANGEL LATORRE CANO                                                   00000000          N
041991051230050000003006TANA GARCIA RUIZ                                                             00000000          N
041991051230050000003007TSANTIAGO PLAZA ALMAZAN                                                      00000000          N
041991051230050000003008TANTONIO CARDENAS CARMONA                                                    00000000          N
041991051230050000003009TJOSE MARTINEZ RAMIREZ                                                       00000000          N
041991051230050000003010TMIGUEL FRANCISCO FERNANDEZ CASTRO                                           00000000          N
041991051230050000003011TMARIA DE LA PAZ ORTEGA TEJERO                                               00000000          N
041991051230050000003012TFRANCISCO NAVARRO LOPEZ                                                     00000000          N
041991051230050000003013TMIGUEL MEJIAS MORENO                                                        00000000          N
041991051230050000003014TANTONIA OLMO GARCIA                                                         00000000          N
041991051230050000003015TANTONIO LISALDE MARTINEZ                                                    00000000          N
041991051230050000003016TANTONIO MONTES ROMAN                                                        00000000          N
041991051230050000003017TROSARIO SIERRA CERVERA                                                      00000000          N
041991051230050000003018TGREGORIO CARDENAS MORENO                                                    00000000          N
041991051230050000003019TTERESA GARCIA HERNANDEZ                                                     00000000          N
041991051230050000003020TJESUS LINDEZ LOPEZ                                                          00000000          N
041991051230050000003021TJAIME VISEDO RODRIGUEZ                                                      00000000          N
041991051230050000003022TANTONIO MARTINEZ RAMIREZ                                                    00000000          N
041991051230050000003023TCLAUDIO ROA ARAGON                                                          00000000          N
041991051230050000003024TMARIA FERNANDA BLANCO RICOY                                                 00000000          N
041991051230050000003025TJUAN CARLOS JIMENEZ CACERES                                                 00000000          N
041991051230050000003026TANTONIO LEOPOLDO LEAL SEGURA                                                00000000          N
041991051230050000003027TRAFAEL COTA GALAN                                                           00000000          N
041991051230050000006001TFRANCISCO ORTEGA PEÑAS                                                      00000000          N
041991051230050000006002TPEDRO MANUEL SERRANO PEREZ                                                  00000000          N
041991051230050000006003TANTONIO RUIZ ORTEGA                                                         00000000          N
041991051230050000006004TAMALIA NAVARRO GARCIA                                                       00000000          N
041991051230050000006005TNICOLAS ORTIZ ESTEBAN                                                       00000000          N
041991051230050000006006TJUAN ORTEGA COZAR                                                           00000000          N
041991051230050000006007TMANUEL MIGUEL CARO GABUCIO                                                  00000000          N
041991051230050000006008TGABRIEL RODRIGUEZ BELTRAN                                                   00000000          N
041991051230050000006009TMARIA TERESA PALOMARES RUIZ                                                 00000000          N
041991051230050000006010TENRIQUE FRANCISCO JIMENEZ CANO                                              00000000          N
041991051230050000006011TMARIA DEL LORETO NAVARRO GARCIA                                             00000000          N
041991051230050000006012TJOSE LUIS MARIN MORAL                                                       00000000          N
041991051230050000006013TAURELIO BEGARA ARRABAL                                                      00000000          N
041991051230050000006014TJUAN PASSAS UTRERA                                                          00000000          N
041991051230050000006015TIRENE JULIA URGEL GARCIA                                                    00000000          N
041991051230050000006016TJUAN LUIS PARRA LAULA                                                       00000000          N
041991051230050000006017TCARLOS RUIZ LOPEZ                                                           00000000          N
041991051230050000006018TCARLOS NAVARRO BARBERAN                                                     00000000          N
041991051230050000006019TJUAN ANTONIO LEIVA ESPINO                                                   00000000          N
041991051230050000006020TRAMONA REYES MOYANO                                                         00000000          N
041991051230050000006021TANTONIO CHICA NAVAS                                                         00000000          N
041991051230050000006022TMIGUEL MORENO OLALLA                                                        00000000          N
041991051230050000006023TMANUEL HIGUERAS MOLINA                                                      00000000          N
041991051230050000006024TTELEFORO PARRA NICAR                                                        00000000          N
041991051230050000006025TJOSE VARGAS ROMERO                                                          00000000          N
041991051230050000006026TANA GARCIA LATORRE                                                          00000000          N
041991051230050000006027TISIDORO DEL CASTILLO ARANDA                                                 00000000          N
041991051230050000023001TFRANCISCO JAVIER AGUILERA GALERA                                            00000000          S
041991051230050000023002TMARINA HEREDIA FIGUERAS                                                     00000000          S
041991051230050000023003TANGEL MANUEL IBAÑEZ RUIZ                                                    00000000          N
041991051230050000023004TFRANCISCO LARA VACAS                                                        00000000          N
041991051230050000023005TJESUS MELERO SANCHEZ                                                        00000000          N
041991051230050000023006TFRANCISCO GALAN ESPINOSA                                                    00000000          N
041991051230050000023007TRAFAELA PUERTA GUTIERREZ                                                    00000000          N
041991051230050000023008TJUAN AGUILERA GALERA                                                        00000000          N
041991051230050000023009TJOSE IGNACIO GAMEZ MESA                                                     00000000          N
041991051230050000023010TMARIA DEL CARMEN AMATE IBAÑEZ                                               00000000          N
041991051230050000023011TJOSE LUIS CANO PALOMINO                                                     00000000          N
041991051230050000023012TANA TORRES MEDINA                                                           00000000          N
041991051340120000001001THELIODORO GALLEGO CUESTA                                                    00000000          S
041991051340120000001002TANGEL DONIS HUSILLOS                                                        00000000          S
041991051340120000001003TJULIO VILLARRUBIA MEDIAVILLA                                                00000000          S
041991051340120000001004TMARIA PILAR MARCOS CLAVERO                                                  00000000          S
041991051340120000001005TPABLO ALARIO POZA                                                           00000000          S
041991051340120000001006TMARIA DEL CARMEN MERINO MEDINA                                              00000000          S
041991051340120000001007TMIGUEL ANGEL BRUGERA PIZARRO                                                00000000          S
041991051340120000001008TCARMELO ROSALES GONZALEZ                                                    00000000          S
041991051340120000001009TCELSO MELLADO SANTAMARIA                                                    00000000          S
041991051340120000001010TAGUSTIN ANGEL MARTINEZ GARCIA                                               00000000          S
041991051340120000001011TDEMETRIO CIMAS ROMAN                                                        00000000          S
041991051340120000001012TCARLOS NIÑO ARRAIZA                                                         00000000          N
041991051340120000001013TMARIA BELEN TAZO LERMA                                                      00000000          N
041991051340120000001014TPEDRO MARTIN RUBIO                                                          00000000          N
041991051340120000001015TVICTORINO MARTINEZ FERNANDEZ                                                00000000          N
041991051340120000001016TBEATRIZ CABALLERO ANTOLIN                                                   00000000          N
041991051340120000001017TJOSE MANUEL RUIZ LOPEZ                                                      00000000          N
041991051340120000001018TJESUS DIEZ VALLEJO                                                          00000000          N
041991051340120000001019TMARIA BEGOÑA NUÑEZ DIEZ                                                     00000000          N
041991051340120000001020TMARIA CONCEPCION SANTIAGO DE LOS MOZOS                                      00000000          N
041991051340120000001021TANGEL MIGUEL PARDO                                                          00000000          N
041991051340120000001022TLUIS CASERO AGUADO                                                          00000000          N
041991051340120000001023TPILAR CALVO HERNANDEZ                                                       00000000          N
041991051340120000001024TANGEL ALBILLO GARCIA                                                        00000000          N
041991051340120000001025TMARIA TERESA LOZANO CALLEJA                                                 00000000          N
041991051340120000002001TJOSE ANTONIO SACRISTAN RODRIGUEZ                                            00000000          S
041991051340120000002002TJESUS MAÑUECO ALONSO                                                        00000000          S
041991051340120000002003TMARCELO MANUEL MORTERA                                                      00000000          S
041991051340120000002004TJOSE LUIS GOMEZ GUIJAS                                                      00000000          S
041991051340120000002005TMARIA VALENTINA CALLEJA GONZALEZ                                            00000000          S
041991051340120000002006TSOTERO FERNANDEZ-PINILLA LOPEZ-MENCHERO                                     00000000          S
041991051340120000002007TALBERTO PEREZ VILLAR                                                        00000000          S
041991051340120000002008TENRIQUE LUIS MARTIN RODRIGUEZ                                               00000000          S
041991051340120000002009TJOSE MANUEL REVILLA DE LA PARTE                                             00000000          S
041991051340120000002010TMANUEL CARBAJO MARTIN                                                       00000000          S
041991051340120000002011TANTONIO MERINO VITORES                                                      00000000          N
041991051340120000002012TROSA ISABEL CUESTA COFRECES                                                 00000000          N
041991051340120000002013TJOSE LUIS COLINO PAULIS                                                     00000000          N
041991051340120000002014TCARLOS ENRIQUE BUISAN GARRIDO                                               00000000          N
041991051340120000002015TPEDRO MADRIGAL JUNQUERA                                                     00000000          N
041991051340120000002016TFELICISIMO ANTON PACHO                                                      00000000          N
041991051340120000002017TEDUARDO RODRIGUEZ RIGUERO                                                   00000000          N
041991051340120000002018TJOSE JAVIER ALONSO PANDO                                                    00000000          N
041991051340120000002019THELIODORO GARCIA RAMOS                                                      00000000          N
041991051340120000002020TMARIA ASUNCION MOSTANY ARANAGA                                              00000000          N
041991051230050000023013TROSARIO VICENTE TORRES                                                      00000000          N
041991051230050000023014TCRISOSTOMO LINDE MORENO                                                     00000000          N
041991051230050000023015TMARIA DOLORES NIETO NIETO                                                   00000000          N
041991051230050000023016TANTONIO BARRANCO ARROYO                                                     00000000          N
041991051230050000023017TFRANCISCA ANGUITA FUENTES                                                   00000000          N
041991051230050000023018TJUAN AGUILERA DONOSO                                                        00000000          N
041991051230050000023019TCONSUELO CAMACHO RUIZ                                                       00000000          N
041991051230050000023020TJUANA ROSA RICO RUBIO                                                       00000000          N
041991051230050000023021TJOSE TOMAS HEREDIA FIGUERAS                                                 00000000          N
041991051230050000023022TMARIA FRANCISCA BUENO ROMERO                                                00000000          N
041991051230050000023023TMAGDALENA PALOMO PRIETO                                                     00000000          N
041991051230050000023024TANTONIO LARA VACAS                                                          00000000          N
041991051230050000023025TJUANA ROJAS GOMEZ                                                           00000000          N
041991051230050000023026TJUSTO MARTINEZ ESPINAR                                                      00000000          N
041991051230050000023027TCARMEN MURILLO CASION                                                       00000000          N
041991051230050000024001TJOSE MARIA DE LA TORRE COLMENERO                                            00000000          S
041991051230050000024002TCRISTOBAL JOSE LOPEZ CARVAJAL                                               00000000          S
041991051230050000024003TFRANCISCO TUDELA SALVADOR                                                   00000000          S
041991051230050000024004TANTONIO MARTIN MESA (INDEPENDIENTE)                                         00000000          S
041991051230050000024005TJOSE ANGEL MONTANE RAMIREZ                                                  00000000          S
041991051230050000024006TFRANCISCO JAVIER AGUIRRE SADABA                                             00000000          S
041991051230050000024007TPATRICIO PALOMINO BARRIONUEVO                                               00000000          S
041991051230050000024008TCARMEN PURIFICACION PEÑALVER PEREZ                                          00000000          S
041991051230050000024009TFRANCISCO J. MARTOS GAMIZ                                                   00000000          S
041991051230050000024010TMANUEL LOPEZ ZAFRA (INDEPENDIENTE)                                          00000000          S
041991051230050000024011TMIGUEL ORTEGA CRUZ                                                          00000000          S
041991051230050000024012TDOLORES HERRERA TORTOSA                                                     00000000          S
041991051230050000024013TANTONIO GUINEA DE TORO                                                      00000000          N
041991051230050000024014TJOSE LUIS CARRETERO LOPEZ-TELLO                                             00000000          N
041991051230050000024015TANTONIO COBOS CORTES                                                        00000000          N
041991051230050000024016TFRANCISCO GUIJARRO GOMEZ                                                    00000000          N
041991051230050000024017TANTONIO ORTEGA SUCA                                                         00000000          N
041991051230050000024018TJUAN ANTONIO DIAZ HERNANDEZ                                                 00000000          N
041991051230050000024019TFRANCISCA ORTIZ RENTERO                                                     00000000          N
041991051230050000024020TMIGUEL AYALA MONTORO                                                        00000000          N
041991051230050000024021TMARIA ESTRELLA ROJAS TORRES (INDEPENDIENTE)                                 00000000          N
041991051230050000024022TCARLOS DE ANGEL MAESTRE                                                     00000000          N
041991051230050000024023TMIGUEL TORRES DEL MORAL                                                     00000000          N
041991051230050000024024TMARIA ANGELES SANCHEZ-ESCALONILLA SILVA                                     00000000          N
041991051230050000024025TANGEL GALVEZ MARTINEZ                                                       00000000          N
041991051230050000024026TROSARIO AGUILAR RODRIGUEZ                                                   00000000          N
041991051230050000024027TALFONSO IBAÑEZ SANCHEZ                                                      00000000          N
041991051230050000025001TJOSE BRAVO SANCHEZ                                                          00000000          S
041991051230050000025002TEDUARDO GALLARDO PEREZ                                                      00000000          N
041991051230050000025003TLUIS QUIROS MEDINA (INDEPENDIENTE)                                          00000000          N
041991051230050000025004TANDRES MIGUEL OLIVAN LINDO                                                  00000000          N
041991051230050000025005TJOAQUIN MACHUCA PEREZ                                                       00000000          N
041991051230050000025006TANTONIO LOZANO LOPEZ                                                        00000000          N
041991051230050000025007TFERNANDO MIRAS MORENO                                                       00000000          N
041991051230050000025008TMANUEL MEDINA CASADO                                                        00000000          N
041991051230050000025009TJOSE BENITEZ GARCIA                                                         00000000          N
041991051230050000025010TMARIA DEL CARMEN FERRERES ORTEGA                                            00000000          N
041991051230050000025011TBARTOLOME ANTERO JIMENEZ ANTONIO                                            00000000          N
041991051230050000025012TJUAN CARLOS GAITAN LINDE                                                    00000000          N
041991051230050000025013TCIPRIANO TORRES MEDINA                                                      00000000          N
041991051230050000025014TBLAS JIMENEZ GALIAN                                                         00000000          N
041991051230050000025015TSALVADOR ALEJANDRO RODRIGUEZ HERMOSO                                        00000000          N
041991051230050000025016TMARIA DEL PILAR MALDONADO MUDARRA                                           00000000          N
041991051230050000025017TMANUEL MARTINEZ ARROYO                                                      00000000          N
041991051230050000025018TJESUS JORGE MEDINA CASADO                                                   00000000          N
041991051230050000025019TPEDRO BARRERA LOPEZ                                                         00000000          N
041991051230050000025020TMIGUEL ANGEL ESTEVEZ GUARDIA                                                00000000          N
041991051230050000025021TLUIS DIAZ ROMERO                                                            00000000          N
041991051230050000025022TJOSE FRANCISCO LENDINEZ GALLO                                               00000000          N
