022008031039999000024007TLuis                     Falcó                    Maestre                  M00000000          N
022008031039999000024008TFrancesca                Gil                      Puigcerver               F00000000          N
022008031029999000014002TBenita                   Canal                    Rodríguez                F00000000          N
022008031029999000014003TCipriano                 García                   Medina                   M00000000          N
022008031029999000014004TJosefina                 Nieto                    Aranda                   F00000000          N
022008031029999000042001TErica                    González                 Gutiérrez                F00000000          N
022008031029999000042002TJavier                   Ruiz                     Baena                    M00000000          N
022008031029999000042003TMaría del Puy            López                    Quintana                 F00000000          N
022008031029999000042004TGonzalo                  Plaza                    González                 M00000000          N
022008031029999000044001TJorge                    Quinquer                 Agut                     M00000000          N
022008031029999000044002TPatricia                 Abad                     Martínez                 F00000000          N
022008031029999000044003TMaría                    Sánchez                  Morcillo                 F00000000          N
022008031029999000044004TJuan                     García                   González                 M00000000          N
022008031029999000064001TJoaquín Victor           Arenal                   Maíz                     M00000000          N
022008031029999000064002TMaría Dolores            Aniorte                  Martínez                 F00000000          N
022008031029999000064003TRebeca                   Cervantes                Valverde                 F00000000          N
022008031029999000064004TJorge                    Poyato                   Cañavate                 M00000000          N
022008031029999000073001TJosé Antonio             Sánchez                  Sánchez                  M00000000          N
022008031029999000073002TVerónica                 Arnedo                   Sanchís                  F00000000          N
022008031029999000073003TFrancisco                Rosingana                Herrera                  M00000000          N
022008031029999000073004TDionisia                 Serrano                  Secaduras                F00000000          N
022008031019999000008001TAlba Rosario             Yáñez                    Martínez                 F00000000          N
022008031019999000008002TIzascun                  Sanz                     Catalina                 F00000000          N
022008031019999000008003TEduardo José             Echeazarra               Pichel                   M00000000          N
022008031019999000008004TOscar                    Colino                   Damian                   M00000000          N
022008031019999000014001TLuis de los Reyes        Sosa-Tolosa              Del Valle                M00000000          N
022008031019999000014002TMarina                   Iranzo                   Domínguez                F00000000          N
022008031019999000014003TConrado                  Sáiz                     Alvarez                  M00000000          N
022008031019999000014004TSandra                   Pablo                    González                 F00000000          N
022008031019999000017001TPedro María              Sañudo                   Pérez                    M00000000          N
022008031019999000017002TAitor                    Ortíz                    Cores                    M00000000          N
022008031019999000017003TMaría Carmen             Flores                   Heras                    F00000000          N
022008031019999000017004TMiren                    Aragones                 Zarate                   F00000000          N
022008031019999000021001TJoseba Iñaki Mirena      Aldecoa                  Azarloza                 M00000000          N
022008031019999000021002TLaura                    Ruiz de Alegría          Ruiz de Gauna            F00000000          N
022008031019999000021003TAinhoa                   Astarloa                 Eguiguren                F00000000          N
022008031019999000021004TRubén                    Oribe                    González                 M00000000          N
022008031019999000023001TLara                     Pérez                    Dueñas                   F00000000          N
022008031019999000023002TEneko                    Gálvez                   Garrido                  M00000000          N
022008031039999000173006TJerónimo                 Sellés                   Sempere                  M00000000          N
022008031039999000173007TAlberto                  Muñoz                    Francés                  M00000000          N
022008031039999000173008TFrancisco A.             Hernández                Vizcón                   M00000000          N
022008031039999000173009TAmalia                   Toro                     Portal                   F00000000          N
022008031039999000173010TEncarnación              Martínez                 Millán                   F00000000          N
022008031039999000173011TPedro                    Reig                     Gandal                   M00000000          N
022008031039999000173012TLeticia                  Saldaña                  Ortiz                    F00000000          N
022008031039999000177001TMaría Dolores            Jiménez                  Muñoz                    F00000000          N
022008031039999000177002TGinés                    Saura                    Fernández                M00000000          N
022008031039999000177003TMaría del Leyre          Melero                   López                    F00000000          N
022008031039999000177004TOnofre                   Mirón                    Martínez                 M00000000          N
022008031039999000177005TJulio                    Diaz                     Diaz                     M00000000          N
022008031039999000177006TAlicia                   Crevillén                González                 F00000000          N
022008031039999000177007TIván                     Pérez                    Marín                    M00000000          N
022008031039999000177008TAntonio                  Durán                    Muñoz                    M00000000          N
022008031039999000177009TMaría Yolanda            Gómez                    González                 F00000000          N
022008031039999000177010TVicente Daniel           Alcaraz                  Mira                     M00000000          N
022008031039999000177011TAurora                   Bernal                   Recio                    F00000000          N
022008031039999000177012TEusebio                  Morales                  Parra                    M00000000          N
022008031049999000073002TPedro Francisco          Hernández                García                   M00000000          N
022008031049999000073003TRosa María               Hernández                García                   F00000000          N
022008031049999000073004TJoaquina                 García                   García                   F00000000          N
022008031049999000073005TPedro                    García                   Pérez                    M00000000          N
022008031049999000073006TRosa                     García                   Cruz                     F00000000          N
022008031049999000094001TCarlos Victor            Santos                   Cabezuelo                M00000000          N
022008031049999000094002TJosé                     Prados                   Caballero                M00000000          N
022008031049999000094003TSergio                   Gamito                   Calzado                  M00000000          N
022008031049999000094004TLuz María                Barranco                 Gallardo                 F00000000          N
022008031049999000094005TFrancisca                Ruiz                     Lozano                   F00000000          N
022008031049999000094006TDelva                    Torres                   Olivencia                F00000000          N
022008031049999000126001TManuel                   del Pino                 Berenguel                M00000000          N
022008031049999000126002TVanesa                   Segura                   Gaitán                   F00000000          N
022008031049999000126003TAntonio Juan             Romero                   Losana                   M00000000          N
022008031049999000126004TFeliciana                Gallegos                 Ruiz                     F00000000          N
022008031049999000126005TSebastian Jesús          González                 Mañas                    M00000000          N
022008031049999000126006TMaría del Pilar          Castillo                 García                   F00000000          N
022008031049999000135001TRaúl                     Ramos                    Sánchez                  M00000000          N
022008031049999000135002TMaría Jesús              Márquez                  García                   F00000000          N
022008031039999000251004TLuis                     Juan                     Canos                    M00000000          N
022008031039999000251005TJosé                     López                    Herrero                  M00000000          N
022008031039999000251006TElvira                   Sanchis                  Barrachina               F00000000          N
022008031039999000251007TManuel                   Palos                    Laosa                    M00000000          N
022008031039999000251008TGregoria Herminia        Tornero                  Peris                    F00000000          N
022008031039999000251009TRafel                    Domenech                 Sanz                     M00000000          N
022008031039999000251010TJessica                  Alfaro                   Llobat                   F00000000          N
022008031039999000251011TOlga                     Tomás                    Villena                  F00000000          N
022008031039999000251012TJoaquim                  Auladell                 Freixinet                M00000000          N
022008031039999000252001TAndrés                   Serrano                  Paradinas                M00000000          N
022008031039999000252002TMontserrat               Santos                   González                 F00000000          N
022008031039999000252003TMª Antonieta             Mucientes                Castro                   F00000000          N
022008031039999000252004TRamón Ignacio            Moreno                   Zapatero                 M00000000          N
022008031039999000252005TRoberto                  Valbuena                 Reyero                   M00000000          N
022008031039999000252006TAlmudena Victoria        Travesi                  de los Santos            F00000000          N
022008031039999000252007TDaniel                   Alavés                   Lledó                    M00000000          N
022008031039999000252008TAlvaro                   Pozo                     Sánchez                  M00000000          N
022008031039999000252009TMaría del Carmen         Paradinas                Riestra                  F00000000          N
022008031039999000252010TMaría Carmen             Fuente                   Canalda                  F00000000          N
022008031089999000018027TRosario                  Cruz                     Oria                     F00000000          N
022008031089999000018028TInmaculada               González                 Rodríguez                F00000000          N
022008031089999000018029TGumersindo               Coterillo                Vega                     M00000000          N
022008031089999000018030TMiguel Angel             Gonzalez                 Galarraga                M00000000          N
022008031089999000018031TGabriel                  Gómez                    Pechero                  M00000000          N
022008031089999000040001TSalomon                  Beneit                   Oliva                    M00000000          N
022008031089999000040002TMiguel Angel             Abril                    Hidalgo                  M00000000          N
022008031089999000040003TMarc                     Beneit                   Sadaba                   M00000000          N
022008031089999000040004TEmilia                   Sadaba                   Suescun                  F00000000          N
022008031089999000040005TDesiree                  Moya                     Ortega                   F00000000          N
022008031089999000040006TXavier                   Olivella                 Garcia                   M00000000          N
022008031089999000040007TSalvador                 Camps                    Morales                  M00000000          N
022008031089999000040008TPablo                    Colmenero                Costa                    M00000000          N
022008031089999000040009TIsabel Maria             Arnal                    Garres                   F00000000          N
022008031089999000040010TMeritxell                Beneit                   Sadaba                   F00000000          N
022008031089999000040011TFrancisco                Segura                   Estebe                   M00000000          N
022008031089999000040012TXavier                   Agullo                   Hinojosa                 M00000000          N
022008031089999000040013TRafael                   Sambola                  Uthe                     M00000000          N
022008031089999000040014TBerta                    Montcada                 Busquet                  F00000000          N
022008031089999000040015TCarme                    Garcia i                 Lafuente                 F00000000          N
022008031089999000040016TAntonio                  Ostos                    Saez                     M00000000          N
022008031079999000273004TJosefina                 Morell                   Vivancos                 F00000000          N
022008031079999000273005TIgnasi                   Torres                   Serra                    M00000000          N
022008031079999000273006TGlòria                   Domínguez                Torres                   F00000000          N
022008031079999000273007TMiquel                   Enseñat                  Riutort                  M00000000          N
022008031079999000273008TPonç                     Vaquer                   Jaume                    M00000000          N
022008031089999000005001TLaura                    Vilalta                  Serra                    F00000000          N
022008031089999000005002TJosé Luís                Donaire                  Rodríguez                M00000000          N
022008031089999000005003TOscar                    Nieto                    Caceres                  M00000000          N
022008031089999000005004TElia                     Calderón                 Giménez                  F00000000          N
022008031089999000005005TAngeles                  Calvo                    Hens                     F00000000          N
022008031089999000005006TJuan                     Doblado                  Calvo                    M00000000          N
022008031089999000005007TJuan Luís                Benítez                  Rosado                   M00000000          N
022008031089999000005008TJosé Manuel              Sánchez                  Cantero                  M00000000          N
022008031089999000005009TJennyfer                 Rodriguez                Vilanova                 F00000000          N
022008031089999000005010TAntonia                  Hens                     Pérez                    F00000000          N
022008031089999000005011TJosé Luís                Lazcano                  González                 M00000000          N
022008031089999000005012TValeriano                Holgado                  Barroso                  M00000000          N
022008031089999000005013TMiguel Angel             Porcel                   Villalba                 M00000000          N
022008031089999000005014TDolores                  Arjona                   Benítez                  F00000000          N
022008031089999000005015TMaria Teresa             Navarro                  Sapiña                   F00000000          N
022008031089999000005016TJosé Antonio             Valencia                 Ravela                   M00000000          N
022008031039999000080008TDomingo                  Orgíles                  Ruiz                     M00000000          N
022008031039999000080009TMaría Dolores            Beneyto                  Segura                   F00000000          N
022008031039999000080010TJosé Antonio             Arnau                    Espinosa                 M00000000          N
022008031039999000080011TMaría Angeles            Martínez                 Esplá                    F00000000          N
022008031039999000080012TJosé Antonio             Fernández                Cabello                  M00000000          N
022008031039999000088001TEnrique                  Antigüedad               Sánchez                  M00000000          N
022008031039999000088002TMaría Remedios           Gomis                    Escribano                F00000000          N
022008031039999000088003TJosé Pedro               Antón                    Conesa                   M00000000          N
022008031039999000088004TJacinto                  Navarro                  Martínez                 M00000000          N
022008031039999000088005TMaría Amparo             Baeza                    Miralles                 F00000000          N
022008031039999000088006TFrancisco Vicente        Sánchez                  Sánchez                  M00000000          N
022008031039999000088007TManuel José              Martí                    Lozano                   M00000000          N
022008031039999000088008TMaría Inmaculada         Rossi                    Tortosa                  F00000000          N
022008031039999000088009THermenegildo             Peñalver                 Gálvez                   M00000000          N
022008031039999000088010TCristiana Amelia         de la Cruz               Ayala                    F00000000          N
022008031039999000088011TEnrique                  Colomer                  Gomis                    M00000000          N
022008031039999000088012TMaría del Pilar          Pellín                   Rizo                     F00000000          N
022008031039999000096001TAntonio                  Lucas                    Santos                   M00000000          N
022008031039999000096002TFernando Antonio         Rivero                   Manero                   M00000000          N
022008031039999000024009TFrancisco Javier         Esquembre                Menor                    M00000000          N
022008031039999000024010TRosa Mª                  Muñoz                    Pérez                    F00000000          N
022008031039999000024011TRaquel                   Bermejo                  Alvarez                  F00000000          N
022008031039999000024012TAlfredo Alfonso          Botella                  Vicent                   M00000000          N
022008031039999000031001TManuel Enrique           Miralles                 Rodriguez                M00000000          N
022008031039999000031002TJuan Ramón               Buitrago                 Díaz                     M00000000          N
022008031039999000031003TJuan Antonio             Lumbier                  San José                 M00000000          N
022008031039999000031004TLaura                    Ramos                    Haddu                    F00000000          N
022008031039999000031005TMaría José               Serrano                  Asensi                   F00000000          N
022008031039999000031006TInmaculada Clara         García                   Martín                   F00000000          N
022008031039999000031007TMaría del Mar            Henry                    Badía                    F00000000          N
022008031039999000031008TJosé Alfonso             Gea                      Martínez                 M00000000          N
022008031039999000031009TAvelino                  Cerdá                    Cerdá                    M00000000          N
022008031039999000031010TRomualdo                 Alfaro                   Giménez                  M00000000          N
022008031039999000031011TLorena                   Blanes                   Leal                     F00000000          N
022008031039999000031012TModesto                  Santos                   Poveda                   M00000000          N
022008031039999000041001TFrancisco José           Ortíz                    Pastor                   M00000000          N
022008031039999000041002TSilvia                   Martín                   Pérez                    F00000000          N
022008031039999000041003TPascual                  Patiño                   Hernández                M00000000          N
022008031029999000088001TJulio César              Vergara                  Liante                   M00000000          N
022008031029999000088002TJesús                    Villagordo               López                    M00000000          N
022008031029999000088003TJuana                    Noguerón                 Megías                   F00000000          N
022008031029999000088004TFrancisca                Hernández                Martínez                 F00000000          N
022008031029999000090001TLuis Javier              Soler                    Díaz                     M00000000          N
022008031029999000090002TJosé Antonio             Ruiz                     Barba                    M00000000          N
022008031029999000090003TRosario                  Barba                    Jiménez                  F00000000          N
022008031029999000090004TConcepción               Núñez                    Cortés                   F00000000          N
022008031029999000129001TLuis Angel               Aguilar                  Montero                  M00000000          N
022008031029999000129002TMaría Victoria           Delicado                 Useros                   F00000000          N
022008031029999000129003TJuan Carlos              Marín                    Fernández                M00000000          N
022008031029999000129004TMaría Mercedes           Sánchez                  Hernando                 F00000000          N
022008031029999000161001TOlga                     Adell                    Argüello                 F00000000          N
022008031029999000161002TRuth                     Cano                     Ollé                     F00000000          N
022008031029999000161003TAlfonso                  Carrión                  Piqué                    M00000000          N
022008031039999000144012TKarin                    Jansen                   Wolfs                    F00000000          N
022008031039999000156001TMª Desamparados          Rubio                    Moya                     F00000000          N
022008031039999000156002TManuel                   López                    Fernández                M00000000          N
022008031039999000156003TJosé                     Cirujeda                 Mulet                    M00000000          N
022008031039999000156004TVicenta                  Pérez                    Martínez                 F00000000          N
022008031039999000156005TMª Elvira                Delgado                  Mascarell                F00000000          N
022008031039999000156006TLeticia                  Lapuente                 Buso                     F00000000          N
022008031039999000156007TMª D.                    Tortajada                Micó                     F00000000          N
022008031039999000156008TVicente                  Rodrigo                  Balaguer                 M00000000          N
022008031039999000156009TAdolfo                   Moreno                   Martínez                 M00000000          N
022008031039999000156010TVicente                  Giner                    Balaguer                 M00000000          N
022008031039999000156011TMª Luisa                 Callejo                  Vecino                   F00000000          N
022008031039999000156012TJosep Francesc           Puchalt                  Ferri                    M00000000          N
022008031039999000173001TJosé Luis                Núñez                    Pelayo                   M00000000          N
022008031039999000173002TJoaquín                  Gutiérrez                Ruiz                     M00000000          N
022008031039999000173003TCarlos                   Vidal                    Bolufer                  M00000000          N
022008031039999000173004TMaría Amparo             Pastor                   Mena                     F00000000          N
022008031039999000173005TLaura                    Gómez-Rivas              Maestre                  F00000000          N
022008031049999000044002TFélix                    Sánchez                  Caparrós                 M00000000          N
022008031049999000044003TMaría Angustias          Parrón                   Fernández                F00000000          N
022008031049999000044004TRamón                    Marín                    Peñas                    M00000000          N
022008031049999000044005TMercedes                 Hernández                Hernández                F00000000          N
022008031049999000044006TRosa                     Fortea                   Salto                    F00000000          N
022008031049999000049001TMaría                    Domínguez                Domínguez                F00000000          N
022008031049999000049002TJosé Antonio             Peláez                   González                 M00000000          N
022008031049999000049003TRoque                    Soler                    Rodríguez                M00000000          N
022008031049999000049004TCarmen María             González                 Piedra                   F00000000          N
022008031049999000049005TLorenzo                  Rodríguez                Martínez                 M00000000          N
022008031049999000049006TIsabel                   Franco                   López                    F00000000          N
022008031049999000064001TAndrés                   García                   Bonaque                  M00000000          N
022008031049999000064002TAmalia                   García                   Ortiz                    F00000000          N
022008031049999000064003TCarlos                   Vergara                  González                 M00000000          N
022008031049999000064004TMaría Silvia             Lara                     Hernández                F00000000          N
022008031049999000064005TJavier                   Martínez                 Cañavate                 M00000000          N
022008031049999000064006TMónica                   Castillo                 Marco                    F00000000          N
022008031049999000073001TBartolomé                Hernádez                 Muñoz                    M00000000          N
022008031039999000226010TEsther Celestina         Asensio                  Candela                  F00000000          N
022008031039999000226011TCarles                   Esteve                   Ferrer                   M00000000          N
022008031039999000226012TElena Irene              Martín                   Crevillén                F00000000          N
022008031039999000232001THelena                   Escoda                   Casas                    F00000000          N
022008031039999000232002TJorge                    Bayle                    García                   M00000000          N
022008031039999000232003TAugust                   Campdepadrós             Gol                      M00000000          N
022008031039999000232004TLaura Mª                 Cremades                 García                   F00000000          N
022008031039999000232005TMaría Teresa             Ridaura                  Gisbert                  F00000000          N
022008031039999000232006TAndrea                   Ripoll                   Cuesta                   F00000000          N
022008031039999000232007TMaría Lydia              Rodríguez                del Palacio              F00000000          N
022008031039999000232008TElena                    Sánchez                  Navarro                  F00000000          N
022008031039999000232009TJohn M.                  Caragol                  Urgelles                 M00000000          N
022008031039999000232010TAlejandro                Sanz                     Vilella                  M00000000          N
022008031039999000232011TAntonio José             Ruiz                     Rispolis                 M00000000          N
022008031039999000232012TMª Teresa                Sánchez                  Navarro                  F00000000          N
022008031039999000251001TMónica                   Martínez                 Rodríguez                F00000000          N
022008031039999000251002TMaría Dolors             Calatayud                Puchades                 F00000000          N
022008031039999000251003TAlicia                   Lozano                   Calatayud                F00000000          N
022008031089999000018006TLuis                     García                   Alvira                   M00000000          N
022008031089999000018007TIsabel                   Sanchez                  García                   F00000000          N
022008031089999000018008TFernando                 Velar                    Alves                    M00000000          N
022008031089999000018009TMª  Angeles              Trueba                   Cruz                     F00000000          N
022008031089999000018010TNoemi                    Visea                    Laguillo                 F00000000          N
022008031089999000018011TMercedes                 Saiz                     Polanco                  F00000000          N
022008031089999000018012TCristina                 Setien                   Miranda                  F00000000          N
022008031089999000018013TAna R.                   Muela                    Vega                     F00000000          N
022008031089999000018014TLuis Antonio             Crespo                   Valdés                   M00000000          N
022008031089999000018015TManuel                   Oria                     Laso                     M00000000          N
022008031089999000018016TNatividad                Martinez                 Samblás                  F00000000          N
022008031089999000018017TAntonia                  Valdés                   Vega                     F00000000          N
022008031089999000018018TCarmen                   Vega                     Irizabal                 F00000000          N
022008031089999000018019TManuel José              Pechero                  Arozamena                M00000000          N
022008031089999000018020TJosé Luis                Valdés                   Vega                     M00000000          N
022008031089999000018021TAna Mª                   Centeno                  Gonzalez                 F00000000          N
022008031089999000018022TBasilisa                 Vega                     Pila                     F00000000          N
022008031089999000018023TPilar                    Trueba                   Ponce                    F00000000          N
022008031089999000018024TRufino                   Muela                    Pechero                  M00000000          N
022008031089999000018025TJose Manuel              Crespo                   Valdes                   M00000000          N
022008031089999000018026TMª Luisa                 Galarraga                Pechero                  F00000000          N
022008031079999000252002TJimena del Carmen        Aguirre                  Araujo                   F00000000          N
022008031079999000252003TPablo                    Rodríguez                Merinero                 M00000000          N
022008031079999000252004TMaria del Puy            Zorrilla                 Torras                   F00000000          N
022008031079999000252005TFrancisco de Asís        Conesa                   Esteban                  M00000000          N
022008031079999000252006TIrene                    Villarroel               Fernández                F00000000          N
022008031079999000252007TFrancisco Javier         Fernández                Candela                  M00000000          N
022008031079999000252008TAna                      Rodríguez                Sancho                   F00000000          N
022008031079999000271001TMaria                    Fiol                     Borràs                   F00000000          N
022008031079999000271002TJosé Manuel              Soria                    Rico                     M00000000          N
022008031079999000271003TElena                    Vallhonrat               Ghezzi                   F00000000          N
022008031079999000271004TJosé Luis                Cortés                   de la Cruz               M00000000          N
022008031079999000271005TMaría Luisa              Sanders                  Martínez                 F00000000          N
022008031079999000271006TFrancisco Javier         Gómez                    Alarcón                  M00000000          N
022008031079999000271007TElena                    Díaz                     Almela                   F00000000          N
022008031079999000271008TJorge Arturo             Muñoz                    González                 M00000000          N
022008031079999000273001TPere                     Sampol                   Mas                      M00000000          N
022008031079999000273002TMargalida                Miguel                   Perelló                  F00000000          N
022008031079999000273003TCatalina                 Torres                   Roig                     F00000000          N
022008031039999000077002TM. Elia                  Navarro                  i Monerris               F00000000          N
022008031039999000077003TAndreu                   Más                      i Más                    M00000000          N
022008031039999000077004TMaría José               Esteve                   i García                 F00000000          N
022008031039999000077005TJosep Amílcar            Albert                   i Sabater                M00000000          N
022008031039999000077006TRosa Isabel              Torregrosa               i Lillo                  F00000000          N
022008031039999000077007TAntoni                   Mulet                    i Grimalt                M00000000          N
022008031039999000077008TLlúcia                   Hernández                i Martínez               F00000000          N
022008031039999000077009TJosep Rafel              Cortés                   i García                 M00000000          N
022008031039999000077010TMaría Remedios           Tortosa                  i Cañizares              F00000000          N
022008031039999000077011TJosep Manuel             Barber                   i Mengual                M00000000          N
022008031039999000077012TEmpar                    Pérez                    i Pastor                 F00000000          N
022008031039999000080001TMiguel Angel             Pavón                    García                   M00000000          N
022008031039999000080002TEsther                   López                    Barceló                  F00000000          N
022008031039999000080003TJosé Manuel              Martínez                 Andreu                   M00000000          N
022008031039999000080004TMaría Luisa              Martínez                 Pardo                    F00000000          N
022008031039999000080005TManuel Carlos            Martínez                 Guardiola                M00000000          N
022008031039999000080006TVictor                   Domínguez                Lucena                   M00000000          N
022008031039999000080007TLeonor                   Morales                  Lorente                  F00000000          N
022008031039999000014003TManuel                   de la Guía               Vela                     M00000000          N
022008031039999000014004TMaría                    Pérez-Seoane             Garau                    F00000000          N
022008031039999000014005TMaría Victoria           Aragón                   Carreras                 F00000000          N
022008031039999000014006TFrancisco                Campos                   Adalid                   M00000000          N
022008031039999000014007TFrancisco                Asencio                  Gallardo                 M00000000          N
022008031039999000014008TGerardo                  Marín                    Ruiz                     M00000000          N
022008031039999000014009TMaría Eugenia            Asencio                  Candela                  F00000000          N
022008031039999000014010TMaría Luisa              Crespo                   Pérez                    F00000000          N
022008031039999000014011TSalvador                 Palazón                  Selva                    M00000000          N
022008031039999000014012TMarta                    de Elías                 Cantalapiedra            F00000000          N
022008031039999000024001TRafael                   Climent                  González                 M00000000          N
022008031039999000024002TIsmael                   Vicedo                   Madrazo                  M00000000          N
022008031039999000024003TAdelaida                 Ruiz                     Muñoz                    F00000000          N
022008031039999000024004TAntonio                  Calvo                    Marco                    M00000000          N
022008031039999000024005TEster                    Esquembre                Bebiá                    F00000000          N
022008031039999000024006TAdoración Dolores        Cortés                   Gandia                   F00000000          N
022008031019999000170002TMaría Pilar              Arriola                  Lacruz                   F00000000          N
022008031019999000170003TCarmelo                  Garmendia                López                    M00000000          N
022008031019999000170004TMargarita                Garamendi                Magro                    F00000000          N
022008031019999000176001TRamón Gerardo            López                    García                   M00000000          N
022008031019999000176002TPablo                    Fontecha                 García                   M00000000          N
022008031019999000176003TAurora                   Ares                     Piñeiro                  F00000000          N
022008031039999000210008TMª Enriqueta             Seller                   Roca de Togores          F00000000          N
022008031039999000210009TMª Amparo                Ferrando                 Sendra                   F00000000          N
022008031039999000210010TJuan Bautista            Saval                    Ferrando                 M00000000          N
022008031039999000210011TRamón                    Martínez                 Piqueres                 M00000000          N
022008031039999000210012TAna María                Kringe                   Sánchez                  F00000000          N
022008031039999000219001TManuel Maximino          Belmonte                 Marín                    M00000000          N
022008031039999000219002TVicente                  Rico                     Ramirez                  M00000000          N
022008031039999000219003TRocio                    Fernández                González                 F00000000          N
022008031039999000219004TDaniel                   Sánchez                  García                   M00000000          N
022008031039999000219005TInmaculada               García                   Mengual                  F00000000          N
022008031039999000219006TAndrés                   Iglesias                 Castelao                 M00000000          N
022008031039999000219007TCristina                 Martín                   Muñoz                    F00000000          N
022008031039999000219008TMari Carmen              Ripoll                   Fuertes                  F00000000          N
022008031039999000219009TFrancisco José           Lillo                    Bernabeu                 M00000000          N
022008031039999000219010TFuensanta                Durante                  Martínez                 F00000000          N
022008031039999000219011TBeatriz                  Juan                     Noguera                  F00000000          N
022008031039999000219012TFructuoso                de la Morena             Colado                   M00000000          N
022008031039999000226001TBernat                   Soria                    Escoms                   M00000000          S
022008031039999000226002TLeire                    Pajín                    Iraola                   F00000000          S
022008031049999000191004TAdela                    Cantón                   Suárez                   F00000000          N
022008031049999000191005TAntonio Salvador         Matarín                  Guil                     M00000000          N
022008031049999000191006TIsabel María             Jiménez                  Oller                    F00000000          N
022008031049999000199001TJavier                   Monterroso               Muriel                   M00000000          N
022008031049999000199002TCarolina                 Pujol                    Soler                    F00000000          N
022008031049999000199003TRamón                    Roca                     Segú                     M00000000          N
022008031049999000199004TMaría Monserrat          Balsells                 Abeleira                 F00000000          N
022008031049999000199005TSergi                    Cabanas                  Ballbe                   M00000000          N
022008031049999000199006TTeresa                   Lladó                    Queralt                  F00000000          N
022008031049999000202001TMaría Rosa               Galindo                  González                 F00000000          N
022008031049999000202002TJosé                     Caro                     Molina                   M00000000          N
022008031049999000202003TAna Victoria             Rodríguez                Barceló                  F00000000          N
022008031049999000202004TIgnacio                  Aguado                   Fernández                M00000000          N
022008031049999000202005TClara Eliana             Gómez                    Valencia                 F00000000          N
022008031049999000202006TRafael                   Soler                    García                   M00000000          N
022008031049999000209001TRafael Antonio           Hernando                 Fraile                   M00000000          S
022008031049999000209002TJuan Jose                Matarí                   Sáez                     M00000000          S
022008031049999000209003TCarmen                   Navarro                  Cruz                     F00000000          S
022008031049999000209004TEloisa María             Cabrera                  Carmona                  F00000000          N
022008031039999000271006TPiedad                   Valenciano               Fernández                F00000000          N
022008031039999000271007TFélix                    Arias                    Sánchez                  M00000000          N
022008031039999000271008TMª del Carmen            Caballero                Jurado                   F00000000          N
022008031039999000271009TAlejandro Severino       Navarro                  Escalada                 M00000000          N
022008031039999000271010TFrancisco                López                    Navarrete                M00000000          N
022008031039999000271011TMª Pilar                 Beviá                    Llorca                   F00000000          N
022008031039999000271012TDavid                    López                    Segrelles                M00000000          N
022008031049999000008001TJosé Emilio              Soler                    Borja                    M00000000          N
022008031049999000008002TMatías                   Almagro                  Muñoz                    M00000000          N
022008031049999000008003TMaría                    Fernández                Fernández                F00000000          N
022008031049999000008004TSalvador Francisco       García                   Brecia                   M00000000          N
022008031049999000008005TShairasan                García                   García                   F00000000          N
022008031049999000008006TEva Belén                Páez                     Zaragoza                 F00000000          N
022008031049999000014001TLuis                     Morales                  Barrau                   M00000000          N
022008031049999000014002TFrancisca                Moreno                   Risueño                  F00000000          N
022008031049999000014003TAntonio Jesús            Jiménez                  Ramírez                  M00000000          N
022008031049999000014004TMaría Jesus              Roda                     Paniagua                 F00000000          N
022008031049999000014005TRamón                    Sala                     González                 M00000000          N
022008031089999000046007TFélix Laudelino          de la Fuente             Pascual                  M00000000          N
022008031089999000046008TJordi                    Cañas                    Pérez                    M00000000          N
022008031089999000046009TMonterrat                Rojas                    Serra                    F00000000          N
022008031089999000046010TCarmen                   Leal                     Adán                     F00000000          N
022008031089999000046011TJosefa                   López                    Murcia                   F00000000          N
022008031089999000046012TMª Pilar                 Barriendos               Clavero                  F00000000          N
022008031089999000046013TMaria Francisca          Valle                    Fuentes                  F00000000          N
022008031089999000046014TSergio                   Sanz                     Jiménez                  M00000000          N
022008031089999000046015TEduardo                  Beltrán                  Ortega                   M00000000          N
022008031089999000046016TNoemí                    De la Calle              Sifré                    F00000000          N
022008031089999000046017TMaria Luz                Ramírez                  Pavón                    F00000000          N
022008031089999000046018TMiguel Angel             Ibáñez                   Giner                    M00000000          N
022008031089999000046019TDaniel                   Perales                  Cárdenas                 M00000000          N
022008031089999000046020TCarlos Javier            Silva                    Campañón                 M00000000          N
022008031089999000046021TMargarita                Manzano                  López                    F00000000          N
022008031089999000046022TManuel                   Rojas                    Gil                      M00000000          N
022008031089999000046023TGemma                    Cruz                     Capdevila                F00000000          N
022008031089999000046024TJavier                   Casas                    Pérez                    M00000000          N
022008031089999000046025TJaume                    Mestre                   Sáez                     M00000000          N
022008031089999000046026TMª Enriqueta             Rodríguez                Valero                   F00000000          N
022008031089999000046027TManuel                   Ruíz                     Casanellas               M00000000          N
022008031089999000014007TAntonio                  Alonso                   Guillén                  M00000000          N
022008031089999000014008TBeatriz Carmen           Armada                   De Tomás                 F00000000          N
022008031089999000014009TAngel                    Sánchez                  Carrasco                 M00000000          N
022008031089999000014010TMaría                    Gascón                   Varillas                 F00000000          N
022008031089999000014011TRamón                    Escavias de Carvajal     Janer                    M00000000          N
022008031089999000014012TDavid                    Martínez                 Pérez                    M00000000          N
022008031089999000014013TMaría Oliva              Galve                    Sancho                   F00000000          N
022008031089999000014014TBernardino               Bolaños                  Moreno                   M00000000          N
022008031089999000014015TMaría Elena              Quintana                 Quijada                  F00000000          N
022008031089999000014016TGabriel                  Ortega                   Gutiérrez                M00000000          N
022008031089999000014017TManuel                   López                    López                    M00000000          N
022008031089999000014018TJosefa                   Martínez                 Pérez                    F00000000          N
022008031089999000014019TMiguel Angel             López                    Sevillano                M00000000          N
022008031089999000014020TMaría Victoria Silvia    De Mier                  Iglesias                 F00000000          N
022008031089999000014021TDavid                    Infante                  Santandreu               M00000000          N
022008031089999000014022TJosé María               González                 Zubieta                  M00000000          N
022008031089999000014023TMarcela  Ninette         Cobo                     Neira                    F00000000          N
022008031089999000014024TBartolomé                Rey                      Borrero                  M00000000          N
022008031089999000014025TCarmen                   Quesada                  Torres                   F00000000          N
022008031089999000014026TMariano                  Jiménez                  Hernández                M00000000          N
022008031039999000099010TPurificación             Castellanos              Barrilero                F00000000          N
022008031039999000099011TJuan Luís                del Río                  Cebrián                  M00000000          N
022008031039999000099012TMaría Jesús              González                 Clavero                  F00000000          N
022008031039999000141001TJosé Manuel              Dolón                    García                   M00000000          N
022008031039999000141002TJuan                     Calero                   Luna                     M00000000          N
022008031039999000141003TEncarnación              Larrosa                  Menargues                F00000000          N
022008031039999000141004TDolores                  Rivera                   López                    F00000000          N
022008031039999000141005TFederico                 López                    Samper                   M00000000          N
022008031039999000141006TVicente                  Sancho                   Pauner                   M00000000          N
022008031039999000141007TEsperanza                Hernández                Caselles                 F00000000          N
022008031039999000141008TDolores Ruth             Lloret                   Rivera                   F00000000          N
022008031039999000141009TEmili Pasqual            Olivares                 Martí                    M00000000          N
022008031039999000141010TFrancisco                Marco                    Juan                     M00000000          N
022008031039999000141011TMaría Concepción         Segura                   Candela                  F00000000          N
022008031039999000141012TAbelardo                 Lloret                   López                    M00000000          N
022008031039999000144001TAlberto                  Cañas                    Ramal                    M00000000          N
022008031039999000144002TJuan Pascual             Llopis                   Cano                     M00000000          N
022008031039999000144003TElisenda                 de Gracia                Nolla                    F00000000          N
022008031039999000043011TMaría del Carmen         Torregrosa               Abad                     F00000000          N
022008031039999000043012TEnrique                  Sánchez                  García                   M00000000          N
022008031039999000048001TJosé                     Signes                   Ferrer                   M00000000          N
022008031039999000048002TJosefina Luisa           Saez                     Ruiz                     F00000000          N
022008031039999000048003TFrancisco                Sirvent                  Devesa                   M00000000          N
022008031039999000048004TMaría Antonia            Sastre                   Salort                   F00000000          N
022008031089999000014027TMontserrat               Clapers                  Arbós                    F00000000          N
022008031089999000014028TEduardo                  Casarramona              Obiols                   M00000000          N
022008031089999000014029TMillán                   Rodriguez                Tena                     M00000000          N
022008031089999000014030TEtelvina                 Hernández                Franch                   F00000000          N
022008031089999000014031TMaría del Carmen         Gómez                    Jaubert                  F00000000          N
022008031089999000018001TJulio                    Garcia                   Alvira                   M00000000          N
022008031089999000018002TLaureano                 García                   Agudo                    M00000000          N
022008031089999000018003TAlfonso                  Berzunces                López                    M00000000          N
022008031089999000018004TSandra                   Segura                   García                   F00000000          N
022008031089999000018005TJosefa                   Alvira                   Margalef                 F00000000          N
022008031089999000185010TMartha                   Pares                    Giralt                   F00000000          N
022008031089999000185011TJulio                    Pena                     Gálata                   M00000000          N
022008031089999000185012TSandra                   Olmedo                   Navarro                  F00000000          N
022008031089999000185013TDaniel                   Faus                     Avella                   M00000000          N
022008031089999000185014TMónica                   Corredera                Martínez                 F00000000          N
022008031089999000185015TEnrique                  Alvarez                  Lecue                    M00000000          N
022008031089999000185016TLuís                     Ballesteros              Ballesteros              M00000000          N
022008031089999000185017TJosep Maria              Della                    Faba                     M00000000          N
022008031089999000185018TPilar                    Jiménez                  Budia                    F00000000          N
022008031089999000185019TPablo                    Fernández                Jurio                    M00000000          N
022008031089999000185020TIsabel                   Gasull                   Bleda                    F00000000          N
022008031039999000144004TFrancisca                Berenguer                García                   F00000000          N
022008031039999000144005TPaula                    Troncoso                 Román                    F00000000          N
022008031039999000144006TOscar Luis               Ruiz                     Benito                   M00000000          N
022008031039999000144007TRicardo                  Navarro                  Mañez                    M00000000          N
022008031039999000144008TOliverio                 Martínez                 Bustamante               M00000000          N
022008031039999000144009TRosa                     Peláez                   Lozano                   F00000000          N
022008031039999000144010TMercedes                 Damas                    Soler                    F00000000          N
022008031039999000144011TFrancisco Javier         Borrull                  Oliver                   M00000000          N
022008031089999000234010TAnton                    Prieto i                 Ruiz                     M00000000          N
022008031089999000234011TAntonio                  Gol                      Roca                     M00000000          N
022008031089999000234012TJosep Mª                 Biarnes                  Perpiñá                  M00000000          N
022008031089999000234013TEncarnació               Corominas                Cocharrera               F00000000          N
022008031089999000234014TJuan Francisco de Asís   Martín Aguilera          Arenales                 M00000000          N
022008031089999000234015TAna                      Porro                    Gorostiza                F00000000          N
022008031089999000234016TCecilia                  Cormenzana               López                    F00000000          N
022008031089999000234017TEstefanía                Bujanda                  López de Zubiria         F00000000          N
022008031089999000234018TEsther                   García                   Alzorriz                 F00000000          N
022008031089999000234019TRamón                    Muruzabal                Aldunate                 M00000000          N
022008031089999000234020TGermán                   Barandalla               Huici                    M00000000          N
022008031089999000234021TDomingo                  Madolell                 Aragonés                 M00000000          N
022008031039999000073006TLourdes                  Llorens                  Lloret                   F00000000          N
022008031039999000073007TIbán                     Pérez                    Belmonte                 M00000000          N
022008031039999000073008TTania                    Lillo                    Sánchez                  F00000000          N
022008031039999000073009TCarlos                   García                   Gil de Reboleño          M00000000          N
022008031039999000073010TMarta                    Botella                  Córdoba                  F00000000          N
022008031039999000073011TAntonio Luís             Moreno                   Molina                   M00000000          N
022008031039999000073012TErika                    Jiménez                  López                    F00000000          N
022008031039999000077001TSalvador                 Cervera                  i Reus                   M00000000          N
022008031089999000243009TAmadeo                   Atxara                   Alcarria                 M00000000          N
022008031089999000243010TMª Noemí                 Ruiz                     Roldán                   F00000000          N
022008031089999000243011TLuisa                    Olivares                 Manjón                   F00000000          N
022008031089999000243012TAntonio                  Santiago                 Martínez                 M00000000          N
022008031089999000243013TCristina                 Granero                  Luna                     F00000000          N
022008031089999000243014TGlòria                   Filbà                    Díaz                     F00000000          N
022008031089999000243015TFrancisco Javier         Somoza                   Castro                   M00000000          N
022008031089999000243016TMaria Encarnación ModestaDominguez                Hernández                F00000000          N
022008031089999000243017TMª Pilar                 Luque                    Medina                   F00000000          N
022008031089999000243018TMario                    Jiménez                  Montes                   M00000000          N
022008031089999000243019TMaria de la Serra        De Rialp                 Díaz                     F00000000          N
022008031089999000243020TPol                      Purull                   Susagna                  M00000000          N
022008031039999000008006TJesús                    Martín                   Cadavieco                M00000000          N
022008031039999000008007TMarta                    Roca                     Carles                   F00000000          N
022008031039999000008008TPablo                    Alcaraz                  Arcas                    M00000000          N
022008031039999000008009TMiriam                   Ortega                   Yepes                    F00000000          N
022008031039999000008010TJoaquin                  Suñé                     Valencia                 M00000000          N
022008031039999000048005TCelestino                Alvarez-Cienfuegos       Ballester                M00000000          N
022008031039999000048006TMaría del Mar            Carrascosa               Ponce                    F00000000          N
022008031039999000048007TJosé Celestino           Esteve                   Navarro                  M00000000          N
022008031039999000048008TCarmen                   Martí                    Moreno                   F00000000          N
022008031039999000048009TDesamparados             Boils                    Ruano                    F00000000          N
022008031039999000048010TAlberto                  Plá                      Mora                     M00000000          N
022008031039999000048011TMaría Teresa             Miralles                 Royo                     F00000000          N
022008031039999000048012TCarlos Javier            Recio                    Alfaro                   M00000000          N
022008031039999000073001TFrancisco José           Marcilla                 Vargas                   M00000000          N
022008031039999000073002TAlexandra                Vaca                     Cordero                  F00000000          N
022008031039999000073003TMario                    Ortiz                    Hermosín                 M00000000          N
022008031039999000073004TRosario                  Moreno                   Ruiz                     F00000000          N
022008031039999000073005TAntonio                  González                 Fuentes                  M00000000          N
022008031029999000226004TMaría José               Parra                    Jareño                   F00000000          N
022008031029999000252001TRaquel                   Chumillas                Fernández                F00000000          N
022008031029999000252002TAlberto Carlos           Yagüe                    Frías                    M00000000          N
022008031029999000252003TIria                     Alvarez-Novoa            Iglesias                 F00000000          N
022008031029999000252004TAntonio                  Piñas                    Mesa                     M00000000          N
022008031029999000258001TEmilio José              Zamora                   Martínez                 M00000000          N
022008031029999000258002TMaría                    Villega                  Castell                  F00000000          N
022008031029999000258003TPedro                    Rubio                    Ballesteros              M00000000          N
022008031029999000258004TMaría Socorro            Valenciano               Valenciano               F00000000          N
022008031029999000270001TAndrés Miguel            Hernández                Jiménez                  M00000000          N
022008031029999000270002TMercedes                 Donate                   Valera                   F00000000          N
022008031029999000270003TJosé Juan                Morcillo                 Pérez                    M00000000          N
022008031029999000270004TMaría Teresa             Córcoles                 García                   F00000000          N
022008031039999000008001TAntonio                  Vicedo                   Valdés                   M00000000          N
022008031039999000008002TEmiliano Alberto         Oliver                   Boj                      M00000000          N
022008031039999000008003TRufina                   Collado                  López                    F00000000          N
022008031039999000008004TJuan Luis                Rebenaque                Giménez                  M00000000          N
022008031039999000008005TRuth María               Roca                     Carles                   F00000000          N
022008031019999000176004TMaría de los Angeles     Menéndez                 García                   F00000000          N
022008031019999000202001TConcepción               Martínez                 Miguel                   F00000000          N
022008031019999000202002TAntonio                  Granda                   Cáceres                  M00000000          N
022008031019999000202003TAmaya                    Baldor                   Ceregido                 F00000000          N
022008031019999000202004TUnatz                    Iriondo                  Salcedo                  M00000000          N
022008031019999000207001TJosé Antonio             Novoa                    López                    M00000000          N
022008031019999000207002TAlberto                  Sánchez                  Salazar                  M00000000          N
022008031019999000207003TNatividad                Rodríguez                Rey                      F00000000          N
022008031019999000207004TJuan                     González                 Martín                   M00000000          N
022008031019999000210001TAlfonso                  Alonso                   Aranegui                 M00000000          S
022008031019999000210002TMª Eugenia               Martín                   Mendizabal               F00000000          N
022008031019999000210003TMarta                    Alaña                    Alonso                   F00000000          N
022008031019999000210004TJavier                   De Andrés                Guerra                   M00000000          N
022008031019999000222001TRamón                    Jauregui                 Atondo                   M00000000          S
022008031019999000222002TPilar                    Unzalu                   Pérez de Eulate          F00000000          S
022008031019999000222003TJosé Javier              Lasarte                  Iribarren                M00000000          N
022008031019999000222004TMª Teresa                Rodríguez                Barahona                 F00000000          N
022008031019999000252001TElena                    Ortíz de Lejarazu        Montoya                  F00000000          N
022008031019999000252002TJosé Carlos              Albillo                  Centeno                  M00000000          N
022008031039999000226003TMaría Juana              Serna                    Masiá                    F00000000          S
022008031039999000226004TCarlos Antonio           González                 Serna                    M00000000          S
022008031039999000226005THerick Manuel            Campos                   Arteseros                M00000000          S
022008031039999000226006TJosé Guillermo           Bernabeu                 Pastor                   M00000000          N
022008031039999000226007TVicenta                  Tortosa                  Urrea                    F00000000          N
022008031039999000226008TMaría Carmen             Prats                    Ruiz                     F00000000          N
022008031039999000226009TJosé Manuel              Butrón                   Sánchez                  M00000000          N
022008031049999000226001TJuan Gabriel             Callejón                 Baena                    M00000000          S
022008031049999000226002TMaría Consuelo           Rumí                     Ibáñez                   F00000000          S
022008031049999000226003TCarmelo                  López                    Villena                  M00000000          S
022008031049999000226004TAna                      Cano                     Díaz                     F00000000          N
022008031049999000226005TAntonio                  Bonilla                  Rodríguez                M00000000          N
022008031049999000226006TFrancisca                Pérez                    Laborda                  F00000000          N
022008031049999000252001TSusana                   Vinuales                 Ferreiro                 F00000000          N
022008031049999000252002TNatalia                  Jorquera                 Gil                      F00000000          N
022008031049999000252003TLuis                     Martín                   Carbonero                M00000000          N
022008031049999000252004TCarolina                 Martín                   Cabrero                  F00000000          N
022008031049999000252005TCarlos                   Cejas                    Fisac                    M00000000          N
022008031049999000209005TRita                     Mateos                   Robles                   F00000000          N
022008031049999000209006TLuis Rogelio             Rodríguez Comendador     Pérez                    M00000000          N
022008031049999000219001TJosé                     Tijeras                  Carrillo                 M00000000          N
022008031049999000219002TAntonio Horencio         Segui                    Sánchez                  M00000000          N
022008031049999000219003TSandra                   García                   Sorlozano                F00000000          N
022008031049999000219004TJudit                    Rubio                    Pascual                  F00000000          N
022008031049999000219005TJosé Manuel              Paz                      Mora                     M00000000          N
022008031049999000219006TMaría Sol                Herrero                  Bardisa                  F00000000          N
022008031059999000226003TAlvaro                   Ortega                   Alonso                   M00000000          N
022008031059999000252001TJavier                   Crego                    Carralero                M00000000          N
022008031059999000252002TAndrea                   Martínez                 García                   F00000000          N
022008031059999000252003TAntonio José             de Haro                  Balcells                 M00000000          N
022008031059999000258001TAlejandro Antonio        Olivar                   López                    M00000000          N
022008031059999000258002TMarco Antonio            Serrano                  López                    M00000000          N
022008031059999000258003TAngeles Verónica         Sánchez                  De Marcos                F00000000          N
022008031059999000271001TMaría Pilar Francisca    De Bustos                Pérez de Salcedo         F00000000          N
022008031059999000271002TLuis Francisco           Hernández                Pérez                    M00000000          N
022008031059999000271003TJulio César              Aparicio                 Tolosa                   M00000000          N
022008031049999000014006TCarmen                   Aguilar                  Alonso                   F00000000          N
022008031049999000034001TJuan Antonio             Rodríguez                Gilabert                 M00000000          N
022008031049999000034002TGenoveva Concepción      Márquez                  Ibáñez                   F00000000          N
022008031049999000034003TEmilio                   Melero                   Rodríguez                M00000000          N
022008031049999000034004TMaría Josefa             Baena                    Arias                    F00000000          N
022008031049999000034005TFrancisco José Pablo     Romero                   Sánchez                  M00000000          N
022008031049999000034006TJuana                    Bonillo                  Muñoz                    F00000000          N
022008031049999000044001TJuan Francisco           Rojas                    Fernández                M00000000          N
022008031069999000202002TRubén                    Mencía                   Gutiérrez                M00000000          N
022008031069999000202003TSoledad                  Velasco                  Franco                   F00000000          N
022008031069999000202004TSebastián                Petit                    Pérez                    M00000000          N
022008031069999000202005TMaría del Pilar          Franco                   Melara                   F00000000          N
022008031069999000202006TEva María                Rodríguez                Franco                   F00000000          N
022008031069999000209001TMariano                  Gallego                  Barrero                  M00000000          S
022008031069999000209002TAlejandro                Ramírez del Molino       Morán                    M00000000          S
022008031069999000209003TMaría José               Solana                   Barras                   F00000000          S
022008031069999000209004TGermán Augusto           López                    Iglesias                 M00000000          N
022008031069999000209005TMaría Agustina           Rodríguez                Martínez                 F00000000          N
022008031069999000209006TMaría Luz                Calvo                    Valero                   F00000000          N
022008031089999000046028TDavid                    Chacón                   Jover                    M00000000          N
022008031089999000046029TInmaculada               González                 Narbona                  F00000000          N
022008031089999000046030TEduardo                  de Delás                 de Ugarte                M00000000          N
022008031089999000046031TMª del Carmen            de Rivera                Pla                      F00000000          N
022008031089999000061001TJosep Antoni             Duran i                  Lleida                   M00000000          S
022008031089999000061002TPere                     Macias i                 Arau                     M00000000          S
022008031089999000061003TMaria Mercè              Pigem i                  Palmés                   F00000000          S
022008031089999000061004TCarles                   Campuzano i              Canadés                  M00000000          S
022008031089999000061005TInmaculada               Riera i                  Reñé                     F00000000          S
022008031089999000061006TJosep                    Sánchez i                Llibre                   M00000000          S
022008031089999000061007TManuel José              Silva i                  Sánchez                  M00000000          N
022008031079999000079006TArturo                   Parrón                   Guasch                   M00000000          N
022008031079999000079007TVerònica                 Melià                    Carreras                 F00000000          N
022008031079999000079008TFernando                 Gomila                   Mercadal                 M00000000          N
022008031079999000088001TRamón                    Mira                     Hernández                M00000000          N
022008031079999000088002TAntonio                  Lucas                    Martínez                 M00000000          N
022008031079999000088003TEsperanza                Peñalver                 Díez                     F00000000          N
022008031079999000088004TRaquel                   Rico                     Lucas                    F00000000          N
022008031079999000088005TManuel                   Toledo                   Rodríguez                M00000000          N
022008031079999000088006TRamona                   Rodríguez                Hernández                F00000000          N
022008031029999000161004TJaime                    García                   Lozano                   M00000000          N
022008031029999000177001TJesús                    Molina                   Valera                   M00000000          N
022008031029999000177002TMaría Carmen             Rico                     Leal                     F00000000          N
022008031029999000177003TJesús                    Gómez Calcerrada         Suárez                   M00000000          N
022008031019999000023003TTeresa                   Bidaguren                Sarricolea               F00000000          N
022008031019999000023004TJuan Ramón               Aguirre                  Arrieta                  M00000000          N
022008031019999000044001TMaría Victoria           Longares                 Alonso                   F00000000          N
022008031019999000044002TMariano                  De la Cruz               Marchante                M00000000          N
022008031019999000044003TMarisa                   Del Barrio               Gil de Gómez             F00000000          N
022008031019999000044004TMiguel                   De Lozar                 De la Viña               M00000000          N
022008031019999000063001TJosé Ramón               Hernández                García                   M00000000          N
022008031019999000063002TJulia María              Rojas                    Moreno                   F00000000          N
022008031019999000063003TFernando                 San José                 Jouron                   M00000000          N
022008031019999000063004TLucía                    Rengel                   Serra                    F00000000          N
022008031019999000083001TSantiago                 Merino                   Hernández                M00000000          N
022008031019999000083002TIratxe                   López de Aberasturi      Sáez de Vicuña           F00000000          N
022008031019999000083003TLuis Mariano             Alava                    Zorrilla                 M00000000          N
022008031019999000083004TMiren Elixabete          Balluerca                Lasa                     F00000000          N
022008031019999000084001TEmilio                   Olabarria                Muñoz Jn.                M00000000          S
022008031019999000084002TNerea                    Antía                    Vinós And.               F00000000          N
022008031019999000084003TJosune                   Irabien                  Marigorta And.           F00000000          N
022008031019999000084004TIgor                     Goirizelaia              Ziardegi Jn.             M00000000          N
022008031039999000202001TRaquel                   Martínez                 Raja                     F00000000          N
022008031039999000202002TMatías                   González                 Pinos                    M00000000          N
022008031039999000202003TMaría Soledad            Piqueras                 Serrano                  F00000000          N
022008031039999000202004TJosefa                   Molina                   González                 F00000000          N
022008031039999000202005TManuel                   Bordonado                Ibarra                   M00000000          N
022008031039999000202006TSalvador                 Gómez                    Torregrosa               M00000000          N
022008031039999000202007TJorge                    Pérez                    Alcaraz                  M00000000          N
022008031039999000202008TMaría Teresa             Robledillo               Bravo                    F00000000          N
022008031039999000202009TLourdes                  Cano                     Cano                     F00000000          N
022008031039999000202010TSusana                   López                    Pérez                    F00000000          N
022008031039999000202011TMaría Luz                Lozano                   Cerdán                   F00000000          N
022008031039999000202012TJuan Manuel              Ferrández                Irles                    M00000000          N
022008031039999000210001TFederico                 Trillo-Figueroa          Martínez-Conde           M00000000          S
022008031039999000210002TMª Adelaida              Pedrosa                  Roldán                   F00000000          S
022008031039999000210003TMiguel Ignacio           Peralta                  Viñes                    M00000000          S
022008031039999000210004TMacarena                 Montesinos               de Miguel                F00000000          S
022008031039999000210005TFrancisco V.             Murcia                   Barceló                  M00000000          S
022008031039999000210006TMercedes                 Alonso                   García                   F00000000          S
022008031039999000210007TMiguel A.                Campoy                   Suárez                   M00000000          S
022008031049999000135003TJuan Sebastián           Fernández                Prados                   M00000000          N
022008031049999000135004TSagrario                 Aguado                   Martínez                 F00000000          N
022008031049999000135005TMaría del Carmen         Segura                   Piedra                   F00000000          N
022008031049999000135006TMarcos                   Diéguez                  Vidal                    M00000000          N
022008031049999000161001TAna                      Dempere                  Llinas                   F00000000          N
022008031049999000161002TEva                      Blanch                   Martí                    F00000000          N
022008031049999000161003TAngel                    Lorente                  de Diego                 M00000000          N
022008031049999000161004TDavid                    Vázquez                  García                   M00000000          N
022008031049999000161005TJorge                    Aliena                   Royo                     M00000000          N
022008031049999000161006TSusana                   del Pozo                 Nievas                   F00000000          N
022008031049999000177001TDavid                    Alvarez                  Fernández                M00000000          N
022008031049999000177002TDacil Iballa             Curvelo                  Paz                      F00000000          N
022008031049999000177003TJosé Ramón               Galiano                  Vela                     M00000000          N
022008031049999000177004TMaría Concepción         Mihalic                  Sánchez                  F00000000          N
022008031049999000177005TJosé Luis                Cano                     Herrera                  M00000000          N
022008031049999000177006TMaría del Carmen         Benítez                  Mendoza                  F00000000          N
022008031049999000191001TTrinidad                 Moreno                   Ruiz                     F00000000          N
022008031049999000191002TJosé                     Añez                     Sánchez                  M00000000          N
022008031049999000191003TJerónimo                 Robles                   Aguado                   M00000000          N
022008031039999000252011TMaría José               Lledó                    Quirant                  F00000000          N
022008031039999000252012TAlberto Felipe           Carrillo                 de Comas                 M00000000          N
022008031039999000254001TAntonio                  Moreno                   Fernández                M00000000          N
022008031039999000254002TConcepción               Vera                     Mira                     F00000000          N
022008031039999000254003TPere                     Cantó                    Casanova                 M00000000          N
022008031039999000254004TYolanda                  González                 Teruel                   F00000000          N
022008031039999000254005TSantiago                 Chorro                   García                   M00000000          N
022008031039999000254006TAida                     Jiménez                  Soria                    F00000000          N
022008031039999000254007TMiguel                   Ruiz                     Guerrero                 M00000000          N
022008031039999000254008TMaría Cristina           Diez                     Gómez                    F00000000          N
022008031039999000254009TJesús                    Molina                   Lara                     M00000000          N
022008031039999000254010TMaría Asunción           Seguí                    García                   F00000000          N
022008031039999000254011TJuan Vicente             Ortuño                   Acampora                 M00000000          N
022008031039999000254012TCaridad                  Maciá                    Rodríguez                F00000000          N
022008031039999000271001TAurelio                  Carrillo                 Moreno                   M00000000          N
022008031039999000271002TEva                      Climent                  Martí                    F00000000          N
022008031039999000271003TArmando José             Esteve                   López                    M00000000          N
022008031039999000271004TManuela                  Nicolás                  Amorós                   F00000000          N
022008031039999000271005TJuan Eduardo             Guillén                  Nieto                    M00000000          N
022008031089999000040017TEloi                     Romero                   Valls                    M00000000          N
022008031089999000040018TJoan                     Boixadera                Olivares                 M00000000          N
022008031089999000040019TAna                      Balcells                 Fuentes                  F00000000          N
022008031089999000040020TMarta                    Rodriguez                Satorres                 F00000000          N
022008031089999000040021TJoan                     Sanchez                  Gonzalez                 M00000000          N
022008031089999000040022TSebastià                 Rodriguez                Moyano                   M00000000          N
022008031089999000040023TPablo                    Uson                     Vegas                    M00000000          N
022008031089999000040024TDolors                   Vilella                  Saludos                  F00000000          N
022008031089999000040025TMari Carmen              Diaz                     Garcia                   F00000000          N
022008031089999000040026TJoan                     Cruset                   Ciuret                   M00000000          N
022008031089999000040027TJoaquin                  Aragones                 Moreno                   M00000000          N
022008031089999000040028TMiguell Angel            Saez Benito              Abad                     M00000000          N
022008031089999000040029TDolors                   Segura                   Amat                     F00000000          N
022008031089999000040030TCarmen                   Mateo                    Moreno                   F00000000          N
022008031089999000040031TAlbert                   Mallol                   Bernier                  M00000000          N
022008031089999000046001TAlbert                   Rivera                   Díaz                     M00000000          N
022008031089999000046002TEsperanza                García                   González                 F00000000          N
022008031089999000046003TCarlos                   Carrizosa                Torres                   M00000000          N
022008031089999000046004TAlbert                   Roig                     Núñez                    M00000000          N
022008031089999000046005TSilvia                   Lovosevic                Gacesa                   F00000000          N
022008031089999000046006TJosé Manuel              Villegas                 Pérez                    M00000000          N
022008031089999000005017TJosé Tirso               Montoya                  Daimiel                  M00000000          N
022008031089999000005018TJesús                    Martínez                 Ferrer                   M00000000          N
022008031089999000005019TMaría Teresa             Vidal                    Roque                    F00000000          N
022008031089999000005020TSoledad                  Benítez                  Escobar                  F00000000          N
022008031089999000005021TJosé                     Garofono                 Pérez                    M00000000          N
022008031089999000005022TJosé                     Montoya                  Merino                   M00000000          N
022008031089999000005023TJosé Manuel              González                 González                 M00000000          N
022008031089999000005024TLurdes                   Raya                     Gómez                    F00000000          N
022008031089999000005025TMontserrat               Vinagre                  Temprano                 F00000000          N
022008031089999000005026TAntonio                  Barbero                  Muñoz                    M00000000          N
022008031089999000005027TIván                     Luque                    Martín                   M00000000          N
022008031089999000005028TJaume                    Masalles                 Cortés                   M00000000          N
022008031089999000005029TAngeles                  Gimenez                  Porcar                   F00000000          N
022008031089999000005030TAurora                   Muñoz                    Moreno                   F00000000          N
022008031089999000005031TJesús                    Ricote                   Invernon                 M00000000          N
022008031089999000014001TManuel Jesús             Acosta                   Jiménez                  M00000000          N
022008031089999000014002TPablo                    González                 Moreno                   M00000000          N
022008031089999000014003TIsabel María Ascensión   Taberné                  Lozano                   F00000000          N
022008031089999000014004TMiguel                   Toledano                 Lanza                    M00000000          N
022008031089999000014005TConsuelo                 Arroyo                   Elola                    F00000000          N
022008031089999000014006TRaúl                     Martín                   Alayón                   M00000000          N
022008031039999000096003TJoaquín                  Bertomeu                 Pallares                 M00000000          N
022008031039999000096004TElena                    Lodkina                  Melnikova                F00000000          N
022008031039999000096005TMagdalena                Moragues                 Signes                   F00000000          N
022008031039999000096006TGabriel                  López                    Ramón                    M00000000          N
022008031039999000096007TJosé Antonio             Silva                    Orta                     M00000000          N
022008031039999000096008TJosé Carlos              Lozano                   Llopis                   M00000000          N
022008031039999000096009TMaría de los Angeles     Más                      Alonso                   F00000000          N
022008031039999000096010TMaría                    Ferrer                   Armell                   F00000000          N
022008031039999000096011TJosé                     García                   Miralles                 M00000000          N
022008031039999000096012TJosefa                   Miralles                 Gironés                  F00000000          N
022008031039999000099001TRaúl                     Sempere                  Durá                     M00000000          N
022008031039999000099002TBelén                    Martí                    Sanchís                  F00000000          N
022008031039999000099003TLuís                     Mulió                    Sánchez                  M00000000          N
022008031039999000099004TMaría Carmen             Segura                   Rizo                     F00000000          N
022008031039999000099005TJosé Antonio             Penalva                  Zaragoza                 M00000000          N
022008031039999000099006TMaría Soledad            Vega                     Díez                     F00000000          N
022008031039999000099007TJosé Ignacio             Llombart                 Cantó                    M00000000          N
022008031039999000099008TMaría Angeles            Ros                      Aleixandre               F00000000          N
022008031039999000099009TJosé                     Rovira                   Cornet                   M00000000          N
022008031039999000041004TSusana                   Cabrera                  Luengo                   F00000000          N
022008031039999000041005TJosé Angel               Ramírez                  Berenguer                M00000000          N
022008031039999000041006TJosé Raúl                Caro                     Bautista                 M00000000          N
022008031039999000041007TMaría de los Angeles     Pérez                    Reverte                  F00000000          N
022008031039999000041008TJuan José                Ortiz                    Sierra                   M00000000          N
022008031039999000041009TYolanda                  Valero                   del Hoyo                 F00000000          N
022008031039999000041010TJosé Antonio             Pastor                   García                   M00000000          N
022008031039999000041011TOscar Dwight             Núñez del Prado          Cabrera                  M00000000          N
022008031039999000041012TElena                    Azorín                   Montero                  F00000000          N
022008031039999000043001TVicente                  Torregrosa               Lillo                    M00000000          N
022008031039999000043002TJuan Rafael              Navarro                  Rodríguez                M00000000          N
022008031039999000043003THiginio Alfredo          Eiroa                    López                    M00000000          N
022008031039999000043004TInmaculada               Gil                      Canicio                  F00000000          N
022008031039999000043005TAna                      Carretero                Batuecas                 F00000000          N
022008031039999000043006TEsperanza                Aguilar                  Jiménez                  F00000000          N
022008031039999000043007TMaría Dolores            Gómez                    Mateo                    F00000000          N
022008031039999000043008TJoaquín                  Brotons                  Navarro                  M00000000          N
022008031039999000043009TAngel                    Molina                   Onate                    M00000000          N
022008031039999000043010TDiego                    Gómez                    Torregrosa               M00000000          N
022008031029999000177004TJuana María              Mirón                    Martínez                 F00000000          N
022008031029999000199001TAna María                Reula                    Roche                    F00000000          N
022008031029999000199002TFrancisco                Calandra                 Díez                     M00000000          N
022008031029999000199003TJosefina                 Figueras                 Bautista                 F00000000          N
022008031029999000199004TJosé                     Reula                    Garcés                   M00000000          N
022008031029999000202001TJuana                    Martínez                 Garrido                  F00000000          N
022008031029999000202002TGustavo Orlando          Sánchez                  Suárez                   M00000000          N
022008031029999000202003TMilagros                 Calero                   Cañaveras                F00000000          N
022008031029999000202004TManuel                   Caravaca                 Moreno                   M00000000          N
022008031029999000209001TSixto                    González                 García                   M00000000          S
022008031029999000209002TAlvaro María             Nadal                    Belda                    M00000000          S
022008031029999000209003TMaría Carlota            Romero                   Lorite                   F00000000          N
022008031029999000209004TAmalia                   Gutiérrez                Serrano                  F00000000          N
022008031029999000219001TFrancisca                Romero                   González                 F00000000          N
022008031029999000219002TRafael                   Aracil                   Miralles                 M00000000          N
022008031029999000219003TMaría Victoria           Lara                     Espinosa                 F00000000          N
022008031029999000219004TJesús                    Martínez                 Rubiejo                  M00000000          N
022008031029999000226001TManuel                   Pérez                    Castell                  M00000000          S
022008031029999000226002TMaría Pilar              López                    Rodríguez                F00000000          S
022008031029999000226003TAntonio                  Delgado                  Jareño                   M00000000          N
022008031019999000086001TJosé Miguel              Fernández                López de Uralde  (Fote)  M00000000          N
022008031019999000086002TNerea                    Galvez                   Lavin                    F00000000          N
022008031019999000086003THiginio                  Arinas                   Orive                    M00000000          N
022008031019999000086004TNuria                    Buesa                    Belacortu                F00000000          N
022008031019999000096001TJavier                   Juárez                   Del Amo                  M00000000          N
022008031019999000096002TFrancisco Javier         Avilés                   Parra                    M00000000          N
022008031019999000096003TLeticia                  Breva                    Cabeza de Vaca           F00000000          N
022008031019999000096004TAmalia                   Pico                     Sanabria                 F00000000          N
022008031019999000160001TAinhoa                   Sainz                    Gorbea                   F00000000          N
022008031019999000160002TAsier David              Velez de Mendizabal      Aguinagalde              M00000000          N
022008031019999000160003TRosario                  Zatón                    Osés                     F00000000          N
