021979031010400199ABLA                                                                                                001301300000001775000010000129200001292000000000000000000000000000000000000000000000000000009230000000000000000000N
021979031010400299ABRUCENA                                                                                            001301300000001825000010000127900001279000000000000000000000000000000000000000000000000000009180000000000000000000N
021979031010400399ADRA                                                                                                002902900000016993000180001081500010815000000000000000000000000000000000000000000000000000073210000000000000000000N
021979031010400499ALBANCHEZ                                                                                           005305300000001078000010000085600000856000000000000000000000000000000000000000000000000000005350000000000000000000N
021979031010400599ALBOLODUY                                                                                           001301300000001121000010000085400000854000000000000000000000000000000000000000000000000000006610000000000000000000N
021979031010400699ALBOX                                                                                               005305300000010702000090000775000007750000000000000000000000000000000000000000000000000000042500000000000000000000N
021979031010400799ALCOLEA                                                                                             001301300000001269000010000092400000924000000000000000000000000000000000000000000000000000005070000000000000000000N
021979031010400899ALCONTAR                                                                                            005305300000000944000020000069700000697000000000000000000000000000000000000000000000000000003690000000000000000000N
021979031010400999ALCUDIA MONTEAGUD                                                                                   001301300000000286000010000024900000249000000000000000000000000000000000000000000000000000001460000000000000000000N
021979031010401099ALHABIA                                                                                             001301300000001192000010000082100000821000000000000000000000000000000000000000000000000000005600000000000000000000N
021979031010401199ALHAMA ALMERIA                                                                                      001301300000002985000030000204900002049000000000000000000000000000000000000000000000000000016790000000000000000000N
021979031010401299ALICUN                                                                                              001301300000000248000010000017600000176000000000000000000000000000000000000000000000000000001580000000000000000000N
021979031010401399ALMERIA                                                                                             001301300000133844001180008813500088135000000000000000000000000000000000000000000000000000591760000000000000000000N
021979031010401499ALMOCITA                                                                                            001301300000000284000010000022200000222000000000000000000000000000000000000000000000000000001680000000000000000000N
021979031010401599ALSODUX                                                                                             001301300000000170000010000013500000135000000000000000000000000000000000000000000000000000000980000000000000000000N
021979031010401699ANTAS                                                                                               010010000000002464000030000170900001709000000000000000000000000000000000000000000000000000011620000000000000000000N
021979031010401799ARBOLEAS                                                                                            005305300000001712000010000136600001366000000000000000000000000000000000000000000000000000008150000000000000000000N
021979031010401899ARMUNA ALMANZORA                                                                                    005305300000000395000010000030000000300000000000000000000000000000000000000000000000000000002160000000000000000000N
021979031010401999BACARES                                                                                             005305300000000458000010000036800000368000000000000000000000000000000000000000000000000000002490000000000000000000N
021979031010402099BAYARCAL                                                                                            001301300000000597000010000040000000400000000000000000000000000000000000000000000000000000002270000000000000000000N
021979031010402199BAYARQUE                                                                                            005305300000000333000010000025600000256000000000000000000000000000000000000000000000000000001620000000000000000000N
021979031010402299BEDAR                                                                                               010010000000000700000010000054500000545000000000000000000000000000000000000000000000000000003480000000000000000000N
021979031010402399BEIRES                                                                                              001301300000000246000010000019900000199000000000000000000000000000000000000000000000000000001430000000000000000000N
021979031010402499BENAHADUX                                                                                           001301300000001763000020000122200001222000000000000000000000000000000000000000000000000000010200000000000000000000N
021979031010402599BENINAR                                                                                             000000000000000422000000000035600000356000000000000000000000000000000000000000000000000000002130000000000000000000N
021979031010402699BENITAGLA                                                                                           001301300000000123000010000010700000107000000000000000000000000000000000000000000000000000000810000000000000000000N
021979031010402799BENIZALON                                                                                           001301300000000537000010000041500000415000000000000000000000000000000000000000000000000000002050000000000000000000N
021979031010402899BENTARIQUE                                                                                          001301300000000376000010000029400000294000000000000000000000000000000000000000000000000000002190000000000000000000N
021979031010402999BERJA                                                                                               002902900000012339000120000821900008219000000000000000000000000000000000000000000000000000055520000000000000000000N
021979031010403099CANJAYAR                                                                                            001301300000002533000030000182800001828000000000000000000000000000000000000000000000000000013180000000000000000000N
021979031010403199CANTORIA                                                                                            005305300000003889000030000286600002866000000000000000000000000000000000000000000000000000018850000000000000000000N
021979031010403299CARBONERAS                                                                                          010010000000003270000050000214000002140000000000000000000000000000000000000000000000000000013850000000000000000000N
021979031010403399CASTRO DE FILABRES                                                                                  001301300000000254000010000019800000198000000000000000000000000000000000000000000000000000001210000000000000000000N
021979031010403499COBDAR                                                                                              001301300000000595000010000046000000460000000000000000000000000000000000000000000000000000002520000000000000000000N
021979031010403599CUEVAS DEL ALMANZORA                                                                                010010000000007982000070000581600005816000000000000000000000000000000000000000000000000000039780000000000000000000N
021979031010403699CHERCOS                                                                                             005305300000000505000010000032700000327000000000000000000000000000000000000000000000000000002300000000000000000000N
021979031010403799CHIRIVEL                                                                                            005305300000002351000020000181700001817000000000000000000000000000000000000000000000000000011880000000000000000000N
021979031010403899DALIAS                                                                                              002902900000028419000050001722900017229000000000000000000000000000000000000000000000000000112490000000000000000000N
021979031010403999DARRICAL                                                                                            002902900000000689000010000053500000535000000000000000000000000000000000000000000000000000002060000000000000000000N
021979031010404199ENIX                                                                                                001301300000000490000010000033000000330000000000000000000000000000000000000000000000000000002330000000000000000000N
021979031010404399FELIX                                                                                               001301300000004006000010000253200002532000000000000000000000000000000000000000000000000000016870000000000000000000N
021979031010404499FINES                                                                                               005305300000001584000010000099500000995000000000000000000000000000000000000000000000000000007520000000000000000000N
021979031010404599FINANA                                                                                              001301300000003309000030000231700002317000000000000000000000000000000000000000000000000000015400000000000000000000N
021979031010404699FONDON                                                                                              001301300000001424000020000098600000986000000000000000000000000000000000000000000000000000006340000000000000000000N
021979031010404799GADOR                                                                                               001301300000002850000020000190700001907000000000000000000000000000000000000000000000000000014300000000000000000000N
021979031010404899GALLARDOS(LOS)                                                                                      010010000000001576000020000119100001191000000000000000000000000000000000000000000000000000007680000000000000000000N
021979031010404999GARRUCHA                                                                                            010010000000003144000020000214200002142000000000000000000000000000000000000000000000000000015800000000000000000000N
021979031010405099GERGAL                                                                                              001301300000001572000010000115000001150000000000000000000000000000000000000000000000000000007370000000000000000000N
021979031010405199HUECIJA                                                                                             001301300000000594000010000041900000419000000000000000000000000000000000000000000000000000003360000000000000000000N
021979031010405299HUERCAL DE ALMERIA                                                                                  001301300000003236000030000207000002070000000000000000000000000000000000000000000000000000015670000000000000000000N
021979031010405399HUERCAL-OVERA                                                                                       005305300000012882000140000896400008964000000000000000000000000000000000000000000000000000060880000000000000000000N
021979031010405499ILLAR                                                                                               001301300000000577000010000043800000438000000000000000000000000000000000000000000000000000003720000000000000000000N
021979031010405599INSTINCION                                                                                          001301300000000767000010000058600000586000000000000000000000000000000000000000000000000000004900000000000000000000N
021979031010405699LAROYA                                                                                              005305300000000303000010000020800000208000000000000000000000000000000000000000000000000000001250000000000000000000N
021979031010405799LAUJAR DE ANDARAX                                                                                   001301300000002111000020000145200001452000000000000000000000000000000000000000000000000000009640000000000000000000N
021979031010405899LIJAR                                                                                               005305300000000590000010000041000000410000000000000000000000000000000000000000000000000000003440000000000000000000N
021979031010405999LUBRIN                                                                                              010010000000002979000030000231600002316000000000000000000000000000000000000000000000000000014250000000000000000000N
021979031010406099LUCAINENA DE LAS TORRES                                                                             001301300000000916000010000068500000685000000000000000000000000000000000000000000000000000004910000000000000000000N
021979031010406199LUCAR                                                                                               005305300000000889000010000066500000665000000000000000000000000000000000000000000000000000004430000000000000000000N
021979031010406299MACAEL                                                                                              005305300000005524000050000334700003347000000000000000000000000000000000000000000000000000022340000000000000000000N
021979031010406399MARIA                                                                                               005305300000002012000030000148900001489000000000000000000000000000000000000000000000000000010700000000000000000000N
021979031010406499MOJACAR                                                                                             010010000000001716000020000118800001188000000000000000000000000000000000000000000000000000007510000000000000000000N
021979031010406599NACIMIENTO                                                                                          001301300000000858000010000062800000628000000000000000000000000000000000000000000000000000004250000000000000000000N
021979031010406699NIJAR                                                                                               001301300000012606000160000836700008367000000000000000000000000000000000000000000000000000049860000000000000000000N
021979031010406799OHANES                                                                                              001301300000001190000010000086200000862000000000000000000000000000000000000000000000000000005920000000000000000000N
021979031010406899OLULA DE CASTRO                                                                                     001301300000000463000010000030300000303000000000000000000000000000000000000000000000000000002050000000000000000000N
021979031010406999OLULA DEL RIO                                                                                       005305300000004913000040000323200003232000000000000000000000000000000000000000000000000000022750000000000000000000N
021979031010407099ORIA                                                                                                005305300000003297000040000253400002534000000000000000000000000000000000000000000000000000015390000000000000000000N
021979031010407199PADULES                                                                                             001301300000000757000010000057400000574000000000000000000000000000000000000000000000000000004140000000000000000000N
021979031010407299PARTALOA                                                                                            005305300000000630000010000047800000478000000000000000000000000000000000000000000000000000003410000000000000000000N
021979031010407399PATERNA DEL RIO                                                                                     001301300000000808000010000059600000596000000000000000000000000000000000000000000000000000002680000000000000000000N
021979031010407499PECHINA                                                                                             001301300000002083000020000145200001452000000000000000000000000000000000000000000000000000011040000000000000000000N
021979031010407599PULPI                                                                                               010010000000003766000040000251200002512000000000000000000000000000000000000000000000000000018810000000000000000000N
021979031010407699PURCHENA                                                                                            005305300000002096000020000149600001496000000000000000000000000000000000000000000000000000010020000000000000000000N
021979031010407799RAGOL                                                                                               001301300000000563000010000044800000448000000000000000000000000000000000000000000000000000003750000000000000000000N
021979031010407899RIOJA                                                                                               001301300000001274000010000089200000892000000000000000000000000000000000000000000000000000007290000000000000000000N
021979031010407999ROQUETAS DE MAR                                                                                     001301300000016622000170001034500010345000000000000000000000000000000000000000000000000000070650000000000000000000N
021979031010408099SANTA CRUZ                                                                                          001301300000000288000010000023200000232000000000000000000000000000000000000000000000000000001730000000000000000000N
021979031010408199SANTA FE DE MONDUJAR                                                                                001301300000000595000010000046600000466000000000000000000000000000000000000000000000000000003760000000000000000000N
021979031010408299SENES                                                                                               001301300000000763000010000058300000583000000000000000000000000000000000000000000000000000002290000000000000000000N
021979031010408399SERON                                                                                               005305300000004502000040000330300003303000000000000000000000000000000000000000000000000000017230000000000000000000N
021979031010408499SIERRO                                                                                              005305300000000680000010000042600000426000000000000000000000000000000000000000000000000000002900000000000000000000N
021979031010408599SOMONTIN                                                                                            005305300000000650000010000048400000484000000000000000000000000000000000000000000000000000003330000000000000000000N
021979031010408699SORBAS                                                                                              001301300000004467000050000344600003446000000000000000000000000000000000000000000000000000016310000000000000000000N
021979031010408799SUFLI                                                                                               005305300000000351000010000025400000254000000000000000000000000000000000000000000000000000001470000000000000000000N
021979031010408899TABERNAS                                                                                            001301300000004044000050000293900002939000000000000000000000000000000000000000000000000000017830000000000000000000N
021979031010408999TABERNO                                                                                             005305300000001019000010000081700000817000000000000000000000000000000000000000000000000000004780000000000000000000N
021979031010409099TAHAL                                                                                               001301300000000865000010000064000000640000000000000000000000000000000000000000000000000000003240000000000000000000N
021979031010409199TERQUE                                                                                              001301300000000564000010000040100000401000000000000000000000000000000000000000000000000000003160000000000000000000N
021979031010409299TIJOLA                                                                                              005305300000004076000050000280400002804000000000000000000000000000000000000000000000000000018910000000000000000000N
021979031010409399TURRE                                                                                               010010000000002083000020000148800001488000000000000000000000000000000000000000000000000000010340000000000000000000N
021979031010409499TURRILLAS                                                                                           001301300000000408000010000032900000329000000000000000000000000000000000000000000000000000002320000000000000000000N
021979031010409599ULEILA DEL CAMPO                                                                                    001301300000001169000010000089100000891000000000000000000000000000000000000000000000000000005110000000000000000000N
021979031010409699URRACAL                                                                                             005305300000000450000010000035000000350000000000000000000000000000000000000000000000000000002540000000000000000000N
021979031010409799VELEFIQUE                                                                                           001301300000000541000010000040300000403000000000000000000000000000000000000000000000000000002750000000000000000000N
021979031010409899VELEZ BLANCO                                                                                        005305300000003868000040000307100003071000000000000000000000000000000000000000000000000000017330000000000000000000N
021979031010409999VELEZ RUBIO                                                                                         005305300000008577000090000624000006240000000000000000000000000000000000000000000000000000033150000000000000000000N
021979031010410099VERA                                                                                                010010000000005269000060000351200003512000000000000000000000000000000000000000000000000000024730000000000000000000N
021979031010410199VIATOR                                                                                              001301300000002324000020000154300001543000000000000000000000000000000000000000000000000000012690000000000000000000N
021979031010410299VICAR                                                                                               001301300000006327000080000371900003719000000000000000000000000000000000000000000000000000021950000000000000000000N
021979031010410399ZURGENA                                                                                             005305300000002161000020000152400001524000000000000000000000000000000000000000000000000000010680000000000000000000N
021979031010490199TRES VILLAS (LAS)                                                                                   001301300000000979000010000068600000686000000000000000000000000000000000000000000000000000004360000000000000000000N
021979031011100199ALCALA DE LOS GAZULES                                                                               003103100000006867000060000450600004506000000000000000000000000000000000000000600000071000027550000000000000000000N
021979031011100299ALCALA DEL VALLE                                                                                    000600600000005136000040000322700003227000000000000000000000000000000000000000100000029000021610000000000000000000N
021979031011100399ALGAR                                                                                               000600600000002169000020000144200001442000000000000000000000000000000000000000000000005000007960000000000000000000N
021979031011100499ALGECIRAS                                                                                           000400400000092273000970006187900061879000000000000000000000000000000000000009700000665000363760000000000000000000N
021979031011100599ALGODONALES                                                                                         000600600000006752000080000470900004709000000000000000000000000000000000000000100000024000028100000000000000000000N
021979031011100699ARCOS DE LA FRONTERA                                                                                000600600000026425000270001676700016767000000000000000000000000000000000000001000000172000115140000000000000000000N
021979031011100799BARBATE DE FRANCO                                                                                   001501500000021656000190001312900013129000000000000000000000000000000000000000700000124000087540000000000000000000N
021979031011100899BARRIOS LOS                                                                                         000400400000010190000100000646900006469000000000000000000000000000000000000000100000047000049480000000000000000000N
021979031011100999BENAOCAZ                                                                                            000600600000000646000010000049300000493000000000000000000000000000000000000000000000008000002510000000000000000000N
021979031011101099BORNOS                                                                                              000600600000007752000080000498800004988000000000000000000000000000000000000000200000024000037790000000000000000000N
021979031011101199BOSQUE EL                                                                                           000600600000002071000020000136400001364000000000000000000000000000000000000000000000019000007490000000000000000000N
021979031011101299CADIZ                                                                                               001201200000153327001040010459200104592000000000000000000000000000000000000010200001707000628670000000000000000000N
021979031011101399CASTELLAR DE LA FRONTERA                                                                            003303300000002140000020000137500001375000000000000000000000000000000000000000000000010000010120000000000000000000N
021979031011101499CONIL DE LA FRONTERA                                                                                001501500000012671000170000817300008173000000000000000000000000000000000000001000000075000053020000000000000000000N
021979031011101599CHICLANA DE FRONTERA                                                                                001501500000035289000380002137800021378000000000000000000000000000000000000002400000181000140290000000000000000000N
021979031011101699CHIPIONA                                                                                            003203200000011461000130000696900006969000000000000000000000000000000000000001000000233000049970000000000000000000N
021979031011101799ESPERA                                                                                              000600600000004809000040000294800002948000000000000000000000000000000000000000000000033000019450000000000000000000N
021979031011101899GASTOR EL                                                                                           000600600000002580000030000177200001772000000000000000000000000000000000000000000000027000010530000000000000000000N
021979031011101999GRAZALEMA                                                                                           000600600000002547000040000173800001738000000000000000000000000000000000000000100000007000011900000000000000000000N
021979031011102099JEREZ DE LA FRONTERA                                                                                002002000000180098001750011345400113454000000000000000000000000000000000000011500001176000751400000000000000000000N
021979031011102199JIMENA DE FRONTERA                                                                                  003303300000008857000090000604200006042000000000000000000000000000000000000000800000049000042580000000000000000000N
021979031011102299LINEA DE LA CONCEPCION (L                                                                           003303300000057255000580003804900038049000000000000000000000000000000000000004800000306000252420000000000000000000N
021979031011102399MEDINA SIDONIA                                                                                      003103100000015179000110000919400009194000000000000000000000000000000000000001000000066000070360000000000000000000N
021979031011102499OLVERA                                                                                              000600600000011960000080000797900007979000000000000000000000000000000000000001200000035000042060000000000000000000N
021979031011102599PATERNA DE RIVERA                                                                                   003103100000004015000060000242100002421000000000000000000000000000000000000000100000009000016480000000000000000000N
021979031011102699PRADO DEL REY                                                                                       000600600000004934000040000324900003249000000000000000000000000000000000000000000000027000025130000000000000000000N
021979031011102799PUERTO DE SANTA MARIA (EL                                                                           002702700000051007000640003133000031330000000000000000000000000000000000000003500000283000194140000000000000000000N
021979031011102899PUERTO REAL                                                                                         002702700000022775000220001454100014541000000000000000000000000000000000000002300000232000104370000000000000000000N
021979031011102999PUERTO SERRANO                                                                                      000600600000005974000100000341900003419000000000000000000000000000000000000000000000009000024130000000000000000000N
021979031011103099ROTA                                                                                                002702700000020691000230001291500012915000000000000000000000000000000000000001000000315000078970000000000000000000N
021979031011103199SAN FERNANDO                                                                                        003103100000067614000920004340600043406000000000000000000000000000000000000006800000615000285460000000000000000000N
021979031011103299SANLUCAR DE BARRAMEDA                                                                               003203200000047558000630002906500029065000000000000000000000000000000000000010000000663000200120000000000000000000N
021979031011103399SAN ROQUE                                                                                           003303300000021118000230001353500013535000000000000000000000000000000000000001200000141000086570000000000000000000N
021979031011103499SETENIL                                                                                             000600600000004018000030000276200002762000000000000000000000000000000000000000100000010000014800000000000000000000N
021979031011103599TARIFA                                                                                              000400400000014621000170000957300009573000000000000000000000000000000000000000400000059000066180000000000000000000N
021979031011103699TORRE-ALHAQUIME                                                                                     000600600000001088000010000069000000690000000000000000000000000000000000000000100000002000003230000000000000000000N
021979031011103799TREBUJENA                                                                                           003203200000006365000090000412200004122000000000000000000000000000000000000000100000040000032400000000000000000000N
021979031011103899UBRIQUE                                                                                             000600600000015891000180001009400010094000000000000000000000000000000000000001600000102000082320000000000000000000N
021979031011103999VEJER DE LA FRONTERA                                                                                001501500000015039000130000955300009553000000000000000000000000000000000000000300000019000048090000000000000000000N
021979031011104099VILLALUENGA DEL ROSARIO                                                                             000600600000000638000010000052100000521000000000000000000000000000000000000000000000000000002190000000000000000000N
021979031011104199VILLAMARTIN                                                                                         000600600000013166000110000824800008248000000000000000000000000000000000000000500000067000053700000000000000000000N
021979031011104299ZAHARA                                                                                              000600600000002507000020000177300001773000000000000000000000000000000000000000000000009000008400000000000000000000N
021979031011400199ADAMUZ                                                                                              002102100000004542000040000326200003262000000000000000000000000000000000000000000000022000026460000000000000000000N
021979031011400299AGUILAR DE LA FRONTERA                                                                              000200200000014940000110000921000009210000000000000000000000000000000000000000600000017000079360000000000000000000N
021979031011400399ALCARACEJOS                                                                                         005405400000001991000010000146200001462000000000000000000000000000000000000000000000003000008160000000000000000000N
021979031011400499ALMEDINILLA                                                                                         005505500000003182000020000232700002327000000000000000000000000000000000000000200000024000014070000000000000000000N
021979031011400599ALMODOVAR DEL RIO                                                                                   005305300000006649000060000428600004286000000000000000000000000000000000000000000000022000033260000000000000000000N
021979031011400699ANORA                                                                                               005405400000002157000020000164400001644000000000000000000000000000000000000000000000009000010650000000000000000000N
021979031011400799BAENA                                                                                               000700700000020261000160001379000013790000000000000000000000000000000000000001100000108000085190000000000000000000N
021979031011400899BELALCAZAR                                                                                          005205200000004853000040000361700003617000000000000000000000000000000000000000200000009000025250000000000000000000N
021979031011400999BELMEZ                                                                                              005205200000004977000060000381600003816000000000000000000000000000000000000001200000012000026160000000000000000000N
021979031011401099BENAMEJI                                                                                            003803800000004625000040000308900003089000000000000000000000000000000000000000000000053000021080000000000000000000N
021979031011401199BLAZQUEZ LOS                                                                                        005205200000000884000010000068100000681000000000000000000000000000000000000000200000003000005270000000000000000000N
021979031011401299BUJALANCE                                                                                           002102100000009458000090000666300006663000000000000000000000000000000000000000100000034000050970000000000000000000N
021979031011401399CABRA                                                                                               001301300000020147000180001399500013995000000000000000000000000000000000000000700000056000101490000000000000000000N
021979031011401499CANETE DE LAS TORRES                                                                                002102100000003653000020000264200002642000000000000000000000000000000000000000800000017000020580000000000000000000N
021979031011401599CARCABUEY                                                                                           005505500000003258000040000244900002449000000000000000000000000000000000000000000000000000013830000000000000000000N
021979031011401699CARDENA                                                                                             002102100000002813000030000196100001961000000000000000000000000000000000000000200000013000012160000000000000000000N
021979031011401799CARLOTA LA                                                                                          005305300000008186000120000556500005565000000000000000000000000000000000000000200000042000041200000000000000000000N
021979031011401899CARPIO EL                                                                                           002102100000005126000060000367700003677000000000000000000000000000000000000000000000030000028430000000000000000000N
021979031011401999CASTRO DEL RIO                                                                                      002102100000008405000090000604500006045000000000000000000000000000000000000000800000034000048150000000000000000000N
021979031011402099CONQUISTA                                                                                           005405400000000665000010000053900000539000000000000000000000000000000000000000000000003000003430000000000000000000N
021979031011402199CORDOBA                                                                                             002102100000269998003070018118400181184000000000000000000000000000000000000035700001499001332830000000000000000000N
021979031011402299DONA MENCIA                                                                                         001301300000005270000040000372600003726000000000000000000000000000000000000000000000020000028670000000000000000000N
021979031011402399DOS TORRES                                                                                          005405400000002684000030000199600001996000000000000000000000000000000000000000100000020000014130000000000000000000N
021979031011402499ENCINAS REALES                                                                                      003803800000002346000020000161500001615000000000000000000000000000000000000000300000003000011030000000000000000000N
021979031011402599ESPEJO                                                                                              002102100000004665000040000368300003683000000000000000000000000000000000000000100000003000030460000000000000000000N
021979031011402699ESPIEL                                                                                              005205200000003561000030000262100002621000000000000000000000000000000000000000400000013000015390000000000000000000N
021979031011402799FERNAN-NUNEZ                                                                                        004204200000009086000090000619400006194000000000000000000000000000000000000000200000024000048450000000000000000000N
021979031011402899FUENTE LA LANCHA                                                                                    005205200000000581000010000044400000444000000000000000000000000000000000000000000000001000003200000000000000000000N
021979031011402999FUENTE-OVEJUNA                                                                                      005205200000007386000100000549000005490000000000000000000000000000000000000001200000039000040400000000000000000000N
021979031011403099FUENTE PALMERA                                                                                      005305300000008458000110000541700005417000000000000000000000000000000000000000200000019000039060000000000000000000N
021979031011403199FUENTE TOJAR                                                                                        005505500000001159000010000090000000900000000000000000000000000000000000000000200000000000006340000000000000000000N
021979031011403299GRANJUELA LA                                                                                        005205200000000718000010000054300000543000000000000000000000000000000000000000100000001000003460000000000000000000N
021979031011403399GUADALCAZAR                                                                                         005305300000002006000010000119800001198000000000000000000000000000000000000000100000004000006950000000000000000000N
021979031011403499GUIJO EL                                                                                            005405400000000702000010000051300000513000000000000000000000000000000000000000000000003000003190000000000000000000N
021979031011403599HINOJOSA DEL DUQUE                                                                                  005205200000009135000080000708800007088000000000000000000000000000000000000000700000042000049250000000000000000000N
021979031011403699HORNACHUELOS                                                                                        005305300000005717000040000353200003532000000000000000000000000000000000000000000000016000025040000000000000000000N
021979031011403799IZNAJAR                                                                                             003803800000007565000080000531800005318000000000000000000000000000000000000000300000077000030280000000000000000000N
021979031011403899LUCENA                                                                                              003803800000030734000290002000600020006000000000000000000000000000000000000002200000202000143010000000000000000000N
021979031011403999LUQUE                                                                                               000700700000004857000030000359000003590000000000000000000000000000000000000000000000038000020690000000000000000000N
021979031011404099MONTALBAN DE CORDOBA                                                                                004204200000004086000040000287900002879000000000000000000000000000000000000000000000014000025210000000000000000000N
021979031011404199MONTEMAYOR                                                                                          004204200000004011000040000280600002806000000000000000000000000000000000000000100000010000021250000000000000000000N
021979031011404299MONTILLA                                                                                            004204200000022277000210001503600015036000000000000000000000000000000000000000700000125000122760000000000000000000N
021979031011404399MONTORO                                                                                             002102100000012051000080000835000008350000000000000000000000000000000000000000200000047000056900000000000000000000N
021979031011404499MONTURQUE                                                                                           000200200000001930000020000130300001303000000000000000000000000000000000000000100000017000010950000000000000000000N
021979031011404599MORILES                                                                                             000200200000003617000030000237000002370000000000000000000000000000000000000000100000016000018590000000000000000000N
021979031011404699NUEVA CARTEYA                                                                                       001301300000005706000060000369000003690000000000000000000000000000000000000000100000013000030210000000000000000000N
021979031011404799OBEJO                                                                                               002102100000001565000020000109400001094000000000000000000000000000000000000000000000008000007430000000000000000000N
021979031011404899PALENCIANA                                                                                          003803800000001988000020000139300001393000000000000000000000000000000000000000000000004000008900000000000000000000N
021979031011404999PALMA DEL RIO                                                                                       005305300000018720000150001266700012667000000000000000000000000000000000000001000000080000091060000000000000000000N
021979031011405099PEDRO ABAD                                                                                          002102100000003037000040000223900002239000000000000000000000000000000000000000100000006000018610000000000000000000N
021979031011405199PEDROCHE                                                                                            005405400000002170000020000170300001703000000000000000000000000000000000000000000000008000011680000000000000000000N
021979031011405299PANARROYA-PUERBLONUEVO                                                                              005205200000014566000140001135400011354000000000000000000000000000000000000002400000078000080870000000000000000000N
021979031011405399POSADAS                                                                                             005305300000007604000060000538200005382000000000000000000000000000000000000000100000013000035070000000000000000000N
021979031011405499POZOBLANCO                                                                                          005405400000013898000130000997100009971000000000000000000000000000000000000001300000064000078720000000000000000000N
021979031011405599PRIEGO DE CORDOBA                                                                                   005505500000021597000240001510500015105000000000000000000000000000000000000001900000103000100610000000000000000000N
021979031011405699PUENTE GENIL                                                                                        000200200000027291000240001831700018317000000000000000000000000000000000000000900000198000132340000000000000000000N
021979031011405799RAMBLA LA                                                                                           004204200000007217000060000485500004855000000000000000000000000000000000000000100000022000037840000000000000000000N
021979031011405899RUTE                                                                                                003803800000010305000090000723100007231000000000000000000000000000000000000000300000084000054980000000000000000000N
021979031011405999SAN SEBASTIAN DE LOS BALL                                                                           004204200000000773000010000056100000561000000000000000000000000000000000000000000000008000004430000000000000000000N
021979031011406099SANTAELLA                                                                                           004204200000005312000050000352900003529000000000000000000000000000000000000000000000049000028020000000000000000000N
021979031011406199SANTA EUFEMIA                                                                                       005405400000001609000010000120000001200000000000000000000000000000000000000000000000000000007860000000000000000000N
021979031011406299TORRECAMPO                                                                                          005405400000001853000020000139800001398000000000000000000000000000000000000000100000006000009950000000000000000000N
021979031011406399VALENZUELA                                                                                          000700700000001776000020000133900001339000000000000000000000000000000000000000600000011000010650000000000000000000N
021979031011406499VALSEQUILLO                                                                                         005205200000000832000010000065400000654000000000000000000000000000000000000000000000003000003950000000000000000000N
021979031011406599VICTORIA LA                                                                                         004204200000001734000020000133500001335000000000000000000000000000000000000000100000008000010100000000000000000000N
021979031011406699VILLA DEL RIO                                                                                       002102100000006865000070000458400004584000000000000000000000000000000000000000100000025000037520000000000000000000N
021979031011406799VILLAFRANCA DE CORDOBA                                                                              002102100000003748000030000254300002543000000000000000000000000000000000000000100000005000020410000000000000000000N
021979031011406899VILLAHARTA                                                                                          005205200000000831000010000061100000611000000000000000000000000000000000000000000000000000004100000000000000000000N
021979031011406999VILLANUEVA DE CORDOBA                                                                               005405400000011274000120000851400008514000000000000000000000000000000000000000600000024000057480000000000000000000N
021979031011407099VILLANUEVA DEL DUQUE                                                                                005405400000002410000020000205800002058000000000000000000000000000000000000000000000009000013100000000000000000000N
021979031011407199VILLANUEVA DEL REY                                                                                  005205200000002041000020000154700001547000000000000000000000000000000000000000100000007000008640000000000000000000N
021979031011407299VILLARALTO                                                                                          005405400000002208000020000177800001778000000000000000000000000000000000000000000000003000011990000000000000000000N
021979031011407399VILLAVICIOSA DE CORDOBA                                                                             002102100000004604000040000344100003441000000000000000000000000000000000000000100000011000022990000000000000000000N
021979031011407499VISO EL                                                                                             005405400000003984000050000302600003026000000000000000000000000000000000000000000000010000018710000000000000000000N
021979031011407599ZUHEROS                                                                                             001301300000001469000010000099200000992000000000000000000000000000000000000000100000008000006440000000000000000000N
021979031011800199AGRON                                                                                               012212200000000606000010000041000000410000000000000000000000000000000000000000100000000000002590000000000000000000N
021979031011800299ALAMEDILLA                                                                                          008908900000001410000010000090900000909000000000000000000000000000000000000000000000002000006010000000000000000000N
021979031011800399ALBOLOTE                                                                                            008708700000006555000100000424300004243000000000000000000000000000000000000001300000003000033920000000000000000000N
021979031011800499ALBONDON                                                                                            014714700000002105000020000153400001534000000000000000000000000000000000000000100000002000008200000000000000000000N
021979031011800599ALBUNAN                                                                                             008908900000000639000010000047300000473000000000000000000000000000000000000000000000000000003370000000000000000000N
021979031011800699ALBUNOL                                                                                             014714700000005982000060000418500004185000000000000000000000000000000000000001600000000000025020000000000000000000N
021979031011800799ALBUNUELAS                                                                                          014714700000001672000020000113800001138000000000000000000000000000000000000002000000000000006010000000000000000000N
021979031011801099ALDEIRE                                                                                             008908900000001174000010000087700000877000000000000000000000000000000000000000300000000000005020000000000000000000N
021979031011801199ALFACAR                                                                                             008708700000003166000030000201500002015000000000000000000000000000000000000000200000002000015220000000000000000000N
021979031011801299ALGARINEJO                                                                                          012212200000006969000070000507400005074000000000000000000000000000000000000000900000000000020900000000000000000000N
021979031011801399ALHAMA DE GRANADA                                                                                   012212200000007212000050000510300005103000000000000000000000000000000000000001600000003000033880000000000000000000N
021979031011801499ALHENDIN                                                                                            008708700000003151000020000213900002139000000000000000000000000000000000000001300000000000015950000000000000000000N
021979031011801599ALICUN DE ORTEGA                                                                                    008908900000001159000010000070600000706000000000000000000000000000000000000000000000000000003900000000000000000000N
021979031011801699ALMEGIJAR                                                                                           014714700000000738000010000053600000536000000000000000000000000000000000000000000000000000002820000000000000000000N
021979031011801799ALMUNECAR                                                                                           014014000000016194000130001019500010195000000000000000000000000000000000000008200000005000071590000000000000000000N
021979031011801899ALQUIFE                                                                                             008908900000002046000010000118400001184000000000000000000000000000000000000001000000001000008150000000000000000000N
021979031011802099ARENAS DE REY                                                                                       012212200000002790000030000193200001932000000000000000000000000000000000000000100000002000010190000000000000000000N
021979031011802199ARMILLA                                                                                             008708700000009227000070000597000005970000000000000000000000000000000000000007700000004000041130000000000000000000N
021979031011802299ATARFE                                                                                              008708700000009684000070000663500006635000000000000000000000000000000000000002000000002000045530000000000000000000N
021979031011802399BAZA                                                                                                002302300000021288000140001444000014440000000000000000000000000000000000000005400000001000077950000000000000000000N
021979031011802499BEAS DE GRANADA                                                                                     008708700000000888000010000060600000606000000000000000000000000000000000000001700000001000003840000000000000000000N
021979031011802599BEAS DE GUADIX                                                                                      008908900000000611000010000039600000396000000000000000000000000000000000000000100000002000002300000000000000000000N
021979031011802799BENALUA DE GUADIX                                                                                   008908900000003602000020000226900002269000000000000000000000000000000000000001300000000000016570000000000000000000N
021979031011802899BENALUA DE LAS VILLAS                                                                               008708700000001477000010000100100001001000000000000000000000000000000000000000500000000000007870000000000000000000N
021979031011802999BENAMAUREL                                                                                          002302300000003400000020000248100002481000000000000000000000000000000000000001000000002000013430000000000000000000N
021979031011803099BERCHULES                                                                                           014714700000001889000020000145900001459000000000000000000000000000000000000000300000001000005350000000000000000000N
021979031011803299BUBION                                                                                              014714700000000490000010000038800000388000000000000000000000000000000000000000000000000000001670000000000000000000N
021979031011803399BUSQUISTAR                                                                                          000000000000000699000000000047700000477000000000000000000000000000000000000000000000000000002210000000000000000000N
021979031011803499CACIN                                                                                               012212200000000989000020000070900000709000000000000000000000000000000000000000300000000000005400000000000000000000N
021979031011803599CADIAR                                                                                              014714700000002488000030000175900001759000000000000000000000000000000000000000100000000000011670000000000000000000N
021979031011803699CAJAR                                                                                               008708700000001353000020000093000000930000000000000000000000000000000000000002100000000000006800000000000000000000N
021979031011803799CALICASAS                                                                                           008708700000000549000010000034500000345000000000000000000000000000000000000000200000000000002800000000000000000000N
021979031011803899CAMPOTEJAR                                                                                          008708700000001549000010000100000001000000000000000000000000000000000000000000000000000000007910000000000000000000N
021979031011803999CANILES                                                                                             002302300000008584000070000596600005966000000000000000000000000000000000000000700000002000029350000000000000000000N
021979031011804099CANAR                                                                                               014714700000000639000010000047800000478000000000000000000000000000000000000000000000001000002010000000000000000000N
021979031011804299CAPILEIRA                                                                                           014714700000000759000010000053300000533000000000000000000000000000000000000000000000000000003050000000000000000000N
021979031011804399CARATAUNAS                                                                                          014714700000000237000010000018200000182000000000000000000000000000000000000000000000000000001220000000000000000000N
021979031011804499CASTARAS                                                                                            014714700000000605000010000043600000436000000000000000000000000000000000000000000000001000002040000000000000000000N
021979031011804599CASTILLEJAR                                                                                         000000000000002776000000000204400002044000000000000000000000000000000000000000000000001000011440000000000000000000N
021979031011804699CASTRIL                                                                                             002302300000004483000060000309500003095000000000000000000000000000000000000002400000002000013320000000000000000000N
021979031011804799CENES DE LA VEGA                                                                                    008708700000001181000010000075000000750000000000000000000000000000000000000000000000018000005640000000000000000000N
021979031011804899CIJUELA                                                                                             008708700000001060000010000080100000801000000000000000000000000000000000000000100000000000006570000000000000000000N
021979031011804999COGOLLOS DE GUADIX                                                                                  008908900000001007000010000069700000697000000000000000000000000000000000000000000000000000004340000000000000000000N
021979031011805099COGOLLOS VEGA                                                                                       008708700000002082000020000147200001472000000000000000000000000000000000000000900000000000010900000000000000000000N
021979031011805199COLOMERA                                                                                            008708700000002430000020000165000001650000000000000000000000000000000000000000400000003000011250000000000000000000N
021979031011805399CORTES DE BAZA                                                                                      002302300000003648000050000249400002494000000000000000000000000000000000000000500000001000015590000000000000000000N
021979031011805499CORTES Y GRAENA                                                                                     008908900000001169000010000077600000776000000000000000000000000000000000000000500000000000004840000000000000000000N
021979031011805699CULLAR BAZA                                                                                         002302300000006361000070000460700004607000000000000000000000000000000000000001500000005000033750000000000000000000N
021979031011805799CULLAR VEGA                                                                                         008708700000001348000010000094100000941000000000000000000000000000000000000000100000002000007640000000000000000000N
021979031011805999CHAUCHINA                                                                                           008708700000003884000030000270700002707000000000000000000000000000000000000001300000000000015710000000000000000000N
021979031011806199CHIMENEAS                                                                                           012212200000002056000020000149900001499000000000000000000000000000000000000000600000000000009340000000000000000000N
021979031011806299CHURRIANA DE LA VEGA                                                                                008708700000003634000040000246500002465000000000000000000000000000000000000000200000003000019380000000000000000000N
021979031011806399DARRO                                                                                               008708700000001675000010000106200001062000000000000000000000000000000000000000600000000000006480000000000000000000N
021979031011806499DEHESAS DE GUADIX                                                                                   008908900000001144000010000067200000672000000000000000000000000000000000000000000000000000003030000000000000000000N
021979031011806699DEIFONTES                                                                                           008708700000002283000020000158200001582000000000000000000000000000000000000000000000000000012870000000000000000000N
021979031011806799DIEZMA                                                                                              008708700000001235000010000078800000788000000000000000000000000000000000000000200000000000005270000000000000000000N
021979031011806899DILAR                                                                                               008708700000001295000010000096000000960000000000000000000000000000000000000000300000000000007440000000000000000000N
021979031011806999DOLAR                                                                                               008908900000000876000010000069400000694000000000000000000000000000000000000000000000000000004920000000000000000000N
021979031011807099DUDAR                                                                                               008708700000000274000010000019200000192000000000000000000000000000000000000000500000000000001420000000000000000000N
021979031011807199DURCAL                                                                                              014714700000005081000040000359100003591000000000000000000000000000000000000003000000002000025080000000000000000000N
021979031011807299ESCUZAR                                                                                             008708700000001319000010000097000000970000000000000000000000000000000000000000000000000000006090000000000000000000N
021979031011807499FERREIRA                                                                                            008908900000000630000010000048400000484000000000000000000000000000000000000000000000000000002790000000000000000000N
021979031011807699FONELAS                                                                                             008908900000002396000010000144900001449000000000000000000000000000000000000000300000000000006830000000000000000000N
021979031011807899FREILA                                                                                              002302300000001516000010000101800001018000000000000000000000000000000000000000000000000000006130000000000000000000N
021979031011807999FUENTE VAQUEROS                                                                                     008708700000003676000030000253400002534000000000000000000000000000000000000001700000001000020520000000000000000000N
021979031011808299GALERA                                                                                              002302300000003559000020000248300002483000000000000000000000000000000000000000500000011000010600000000000000000000N
021979031011808399GOBERNADOR                                                                                          008908900000000469000010000035000000350000000000000000000000000000000000000000000000000000002320000000000000000000N
021979031011808499GOJAR                                                                                               008708700000001656000020000110600001106000000000000000000000000000000000000000000000000000009150000000000000000000N
021979031011808599GOR                                                                                                 008908900000002061000010000143800001438000000000000000000000000000000000000000100000000000008040000000000000000000N
021979031011808699GORAFE                                                                                              008908900000001018000010000068600000686000000000000000000000000000000000000000100000000000003940000000000000000000N
021979031011808799GRANADA                                                                                             008708700000225034001770015457500154575000000000000000000000000000000000000096500000196001120140000000000000000000N
021979031011808899GUADAHORTUNA                                                                                        008708700000002594000020000165900001659000000000000000000000000000000000000000800000000000011570000000000000000000N
021979031011808999GUADIX                                                                                              008908900000020826000150001366800013668000000000000000000000000000000000000008000000004000084310000000000000000000N
021979031011809399GUALCHOS                                                                                            014014000000002966000030000194300001943000000000000000000000000000000000000000100000001000013820000000000000000000N
021979031011809499GUEJAR SIERRA                                                                                       008708700000003425000030000238500002385000000000000000000000000000000000000000000000000000011810000000000000000000N
021979031011809599GUEVEJAR                                                                                            008708700000001035000010000070900000709000000000000000000000000000000000000000800000000000005860000000000000000000N
021979031011809699HUELAGO                                                                                             008908900000000893000010000056900000569000000000000000000000000000000000000000100000000000004080000000000000000000N
021979031011809799HUENEJA                                                                                             008908900000002100000020000149800001498000000000000000000000000000000000000001100000002000008430000000000000000000N
021979031011809899HUESCAR                                                                                             002302300000010219000100000658500006585000000000000000000000000000000000000001800000008000039310000000000000000000N
021979031011809999HUETOR SANTILLAN                                                                                    008708700000001421000010000095400000954000000000000000000000000000000000000000300000001000006640000000000000000000N
021979031011810099HUETOR TAJAR                                                                                        012212200000006894000060000449700004497000000000000000000000000000000000000001100000001000035250000000000000000000N
021979031011810199HUETOR VEGA                                                                                         008708700000004296000040000280500002805000000000000000000000000000000000000001400000000000020290000000000000000000N
021979031011810299ILLORA                                                                                              012212200000009989000090000687100006871000000000000000000000000000000000000004900000000000051140000000000000000000N
021979031011810399ITRABO                                                                                              014014000000001441000010000105300001053000000000000000000000000000000000000000300000000000007420000000000000000000N
021979031011810599IZNALLOZ                                                                                            008708700000007362000060000486800004868000000000000000000000000000000000000001200000003000033980000000000000000000N
021979031011810799JAYENA                                                                                              012212200000002020000010000127400001274000000000000000000000000000000000000000300000000000006300000000000000000000N
021979031011810899JEREZ DEL MARQUESADO                                                                                008908900000001727000010000128500001285000000000000000000000000000000000000000200000000000007750000000000000000000N
021979031011810999JETE                                                                                                014014000000000786000010000051500000515000000000000000000000000000000000000000000000000000004090000000000000000000N
021979031011811199JUN                                                                                                 008708700000000917000010000061800000618000000000000000000000000000000000000000200000002000004760000000000000000000N
021979031011811299JUVILES                                                                                             014714700000000259000010000018400000184000000000000000000000000000000000000000000000000000000720000000000000000000N
021979031011811499LA CALAHORRA                                                                                        008908900000001249000010000084400000844000000000000000000000000000000000000000100000000000005630000000000000000000N
021979031011811599LACHAR                                                                                              008708700000001915000020000129200001292000000000000000000000000000000000000001100000000000010520000000000000000000N
021979031011811699LANJARON                                                                                            014714700000004195000040000305800003058000000000000000000000000000000000000000100000000000022740000000000000000000N
021979031011811799LANTEIRA                                                                                            008908900000000884000010000067700000677000000000000000000000000000000000000000300000000000004710000000000000000000N
021979031011811999LECRIN                                                                                              014714700000002966000050000213200002132000000000000000000000000000000000000000200000003000016800000000000000000000N
021979031011812099LENTEGI                                                                                             014014000000000412000010000030100000301000000000000000000000000000000000000000000000001000002270000000000000000000N
021979031011812199LOBRAS                                                                                              014714700000000393000010000027300000273000000000000000000000000000000000000000000000000000001370000000000000000000N
021979031011812299LOJA                                                                                                012212200000023182000310001573300015733000000000000000000000000000000000000008600000010000098780000000000000000000N
021979031011812399LUGROS                                                                                              008908900000000699000010000046800000468000000000000000000000000000000000000000000000000000003050000000000000000000N
021979031011812499LUJAR                                                                                               014014000000000848000010000058700000587000000000000000000000000000000000000000200000000000003960000000000000000000N
021979031011812699LA MALA                                                                                             008708700000001544000010000100800001008000000000000000000000000000000000000000300000000000008320000000000000000000N
021979031011812799MARACENA                                                                                            008708700000009391000080000601900006019000000000000000000000000000000000000004600000004000048950000000000000000000N
021979031011812899MARCHAL                                                                                             008908900000000569000010000039700000397000000000000000000000000000000000000000100000000000002840000000000000000000N
021979031011813299MOCLIN                                                                                              008708700000005558000060000390200003902000000000000000000000000000000000000001400000002000026320000000000000000000N
021979031011813399MOLVIZAR                                                                                            014014000000002519000020000175700001757000000000000000000000000000000000000001500000001000013130000000000000000000N
021979031011813499MONACHIL                                                                                            008708700000003167000030000215500002155000000000000000000000000000000000000001300000000000015710000000000000000000N
021979031011813599MONTEFRIO                                                                                           012212200000010626000070000752200007522000000000000000000000000000000000000002700000007000039610000000000000000000N
021979031011813699MONTEJICAR                                                                                          008708700000003149000030000206600002066000000000000000000000000000000000000000900000000000015100000000000000000000N
021979031011813799MONTILLANA                                                                                          008708700000001625000010000110500001105000000000000000000000000000000000000000700000001000007060000000000000000000N
021979031011813899MORALEDA DE ZAFAYONA                                                                                012212200000002389000020000155600001556000000000000000000000000000000000000000600000001000012070000000000000000000N
021979031011814099MOTRIL                                                                                              014014000000038617000310002463000024630000000000000000000000000000000000000015500000011000182940000000000000000000N
021979031011814199MURTAS                                                                                              014714700000001788000010000125100001251000000000000000000000000000000000000000300000002000005770000000000000000000N
021979031011814399NIGUELAS                                                                                            014714700000001641000010000120900001209000000000000000000000000000000000000000000000018000007090000000000000000000N
021979031011814499NIVAR                                                                                               008708700000000399000010000027400000274000000000000000000000000000000000000000000000000000002310000000000000000000N
021979031011814599OGIJARES                                                                                            008708700000002476000020000140300001403000000000000000000000000000000000000001900000000000010950000000000000000000N
021979031011814699ORCE                                                                                                002302300000002461000020000174900001749000000000000000000000000000000000000000300000007000009660000000000000000000N
021979031011814799ORJIVA                                                                                              014714700000005437000040000397600003976000000000000000000000000000000000000001900000009000024730000000000000000000N
021979031011814899OTIVAR                                                                                              014014000000001309000010000088500000885000000000000000000000000000000000000000900000000000006440000000000000000000N
021979031011814999OTURA                                                                                               008708700000002274000020000150400001504000000000000000000000000000000000000000500000000000009660000000000000000000N
021979031011815099PADUL                                                                                               008708700000006530000040000439800004398000000000000000000000000000000000000002900000004000029220000000000000000000N
021979031011815199PAMPANEIRA                                                                                          014714700000000689000010000047100000471000000000000000000000000000000000000000000000000000001980000000000000000000N
021979031011815299PEDRO MARTINEZ                                                                                      008908900000002680000020000182400001824000000000000000000000000000000000000001000000000000011250000000000000000000N
021979031011815399PELIGROS                                                                                            008708700000004030000040000257100002571000000000000000000000000000000000000000800000001000021640000000000000000000N
021979031011815499PEZA (LA)                                                                                           008908900000001833000010000121800001218000000000000000000000000000000000000000500000001000008160000000000000000000N
021979031011815799PINOS GENIL                                                                                         008708700000000884000010000059400000594000000000000000000000000000000000000001700000000000004790000000000000000000N
021979031011815899PINOS PUENTE                                                                                        008708700000013055000100000897200008972000000000000000000000000000000000000006000000008000069300000000000000000000N
021979031011815999PINAR                                                                                               008708700000001925000020000129500001295000000000000000000000000000000000000000700000000000008810000000000000000000N
021979031011816199POLICAR                                                                                             008908900000000298000010000022000000220000000000000000000000000000000000000000100000001000001660000000000000000000N
021979031011816299POLOPOS                                                                                             014714700000001548000030000107400001074000000000000000000000000000000000000000100000000000007740000000000000000000N
021979031011816399PORTUGOS                                                                                            014714700000000516000010000038700000387000000000000000000000000000000000000000200000000000002350000000000000000000N
021979031011816499PUEBLA DE DON FABRIQUE                                                                              002302300000004173000030000296000002960000000000000000000000000000000000000000200000002000016270000000000000000000N
021979031011816599PULIANAS                                                                                            008708700000001957000020000129500001295000000000000000000000000000000000000000200000000000010310000000000000000000N
021979031011816799PURULLENA                                                                                           008908900000002481000030000181300001813000000000000000000000000000000000000000600000001000010580000000000000000000N
021979031011816899QUENTAR                                                                                             008708700000001361000010000093500000935000000000000000000000000000000000000000200000000000005710000000000000000000N
021979031011817099RUBITE                                                                                              014714700000000804000010000057100000571000000000000000000000000000000000000000500000000000003310000000000000000000N
021979031011817199SALAR                                                                                               012212200000003011000030000207500002075000000000000000000000000000000000000000300000000000016760000000000000000000N
021979031011817399SALOBRENA                                                                                           014014000000008472000060000550600005506000000000000000000000000000000000000003000000000000041400000000000000000000N
021979031011817499SANTA CRUZ DEL COMERCIO                                                                             012212200000000868000010000063700000637000000000000000000000000000000000000000000000000000002900000000000000000000N
021979031011817599SANTA FE                                                                                            008708700000011052000090000726800007268000000000000000000000000000000000000001800000013000054690000000000000000000N
021979031011817699SOPORTUJAR                                                                                          014714700000000372000010000027600000276000000000000000000000000000000000000000000000000000001710000000000000000000N
021979031011817799SORVILAN                                                                                            014714700000001159000020000090200000902000000000000000000000000000000000000001000000000000004260000000000000000000N
021979031011817899TORRE CARDELA                                                                                       008708700000001797000010000119500001195000000000000000000000000000000000000000000000000000007450000000000000000000N
021979031011817999TORVIZCON                                                                                           014714700000002047000010000146100001461000000000000000000000000000000000000000500000001000006610000000000000000000N
021979031011818099TREVELEZ                                                                                            014714700000001322000010000091800000918000000000000000000000000000000000000000000000000000003950000000000000000000N
021979031011818199TURON                                                                                               014714700000000896000010000063700000637000000000000000000000000000000000000000500000001000002980000000000000000000N
021979031011818299UGIJAR                                                                                              014714700000003247000040000245600002456000000000000000000000000000000000000000500000001000015000000000000000000000N
021979031011818399VALOR                                                                                               014714700000002083000010000139200001392000000000000000000000000000000000000000100000000000007390000000000000000000N
021979031011818499VELEZ BENAUDALLA                                                                                    014014000000002959000020000197700001977000000000000000000000000000000000000000400000002000014570000000000000000000N
021979031011818599VENTAS DE HUELMA                                                                                    012212200000000816000010000063200000632000000000000000000000000000000000000000100000000000004200000000000000000000N
021979031011818799VILLANUEVA DE LAS TORRES                                                                            008908900000001073000010000066400000664000000000000000000000000000000000000000100000000000004840000000000000000000N
021979031011818899VILLANUEVA MESIA                                                                                    012212200000001843000010000121900001219000000000000000000000000000000000000000000000002000008760000000000000000000N
021979031011818999VIZNAR                                                                                              008708700000000669000010000051500000515000000000000000000000000000000000000000100000000000003670000000000000000000N
021979031011819299ZAFARRAYA                                                                                           012212200000002511000030000190800001908000000000000000000000000000000000000000400000000000011970000000000000000000N
021979031011819399ZUBIA (LA)                                                                                          008708700000006118000040000404100004041000000000000000000000000000000000000004300000008000031540000000000000000000N
021979031011819499ZUJAR                                                                                               002302300000006366000030000422200004222000000000000000000000000000000000000003800000001000024800000000000000000000N
021979031011890199LA TEHA                                                                                             014714700000001406000010000101900001019000000000000000000000000000000000000000100000001000004930000000000000000000N
021979031011890299EL VALLE (RESTABAL)                                                                                 014714700000002073000030000141500001415000000000000000000000000000000000000000200000000000009950000000000000000000N
021979031011890399NEVADA (LAROLES)                                                                                    014714700000002085000030000148500001485000000000000000000000000000000000000001400000001000009120000000000000000000N
021979031011890499ALPUJARRA DE LA SIERRA                                                                              014714700000001824000020000128200001282000000000000000000000000000000000000000300000000000007510000000000000000000N
021979031011890599GABIAS.GABIA GRANDE                                                                                 008708700000005158000040000337800003378000000000000000000000000000000000000000500000011000026290000000000000000000N
021979031011890699GUAJARES.G.FARAGUIT                                                                                 014014000000001690000030000129200001292000000000000000000000000000000000000000500000000000009020000000000000000000N
021979031011890799VALLE DE ZALABI (ALCUDIA                                                                            008908900000002942000030000201100002011000000000000000000000000000000000000000000000000000012440000000000000000000N
021979031011890899VILLAMENA (COZVIJAR)                                                                                014714700000001144000020000081900000819000000000000000000000000000000000000000500000000000005130000000000000000000N
021979031011890999MORELABOR (MOREDA)                                                                                  008708700000001282000010000092000000920000000000000000000000000000000000000000200000001000006980000000000000000000N
021979031011891099EL PINAR                                                                                            014714700000001790000020000121100001211000000000000000000000000000000000000000400000000000007550000000000000000000N
021979031011891199VEGA GENIL                                                                                          008708700000002645000040000184800001848000000000000000000000000000000000000003500000011000014760000000000000000000N
021979031012100199ALAJAR                                                                                              000700700000001046000010000081700000817000000000000000000000000000000000000000000000003000005040000000000000000000N
021979031012100299ALJARAQUE                                                                                           004104100000003895000050000261700002617000000000000000000000000000000000000000000000023000018780000000000000000000N
021979031012100399ALMENDRO EL                                                                                         001001000000000943000010000061700000617000000000000000000000000000000000000000000000002000004440000000000000000000N
021979031012100499ALMONASTER LA REAL                                                                                  000700700000003044000040000214500002145000000000000000000000000000000000000000000000008000012240000000000000000000N
021979031012100599ALMONTE                                                                                             005405400000012935000150000856000008560000000000000000000000000000000000000000000000034000064040000000000000000000N
021979031012100699ALOSNO                                                                                              007207200000005504000060000417100004171000000000000000000000000000000000000000000000014000028010000000000000000000N
021979031012100799ARACENA                                                                                             000700700000006522000060000458200004582000000000000000000000000000000000000000000000027000028570000000000000000000N
021979031012100899AROCHE                                                                                              000700700000004460000040000335200003352000000000000000000000000000000000000000000000024000019440000000000000000000N
021979031012100999ARROYOMOLINOS DE LEON                                                                               000700700000001341000020000110900001109000000000000000000000000000000000000000000000001000007650000000000000000000N
021979031012101099AYAMONTE                                                                                            001001000000015022000160000893800008938000000000000000000000000000000000000000000000044000048560000000000000000000N
021979031012101199BEAS                                                                                                004104100000004073000040000344700003447000000000000000000000000000000000000000000000005000024520000000000000000000N
021979031012101299BERROCAL                                                                                            007207200000000561000010000046500000465000000000000000000000000000000000000000000000001000003320000000000000000000N
021979031012101399BOLLULLOS PAR DEL CONDADO                                                                           005405400000011935000110000911500009115000000000000000000000000000000000000000000000052000063120000000000000000000N
021979031012101499BONARES                                                                                             005005000000004811000030000328700003287000000000000000000000000000000000000000000000019000027150000000000000000000N
021979031012101599CABEZAS RUBIAS                                                                                      007207200000001047000010000079100000791000000000000000000000000000000000000000000000001000004320000000000000000000N
021979031012101699CALA                                                                                                000700700000001657000020000120200001202000000000000000000000000000000000000000000000007000008130000000000000000000N
021979031012101799CALANAS                                                                                             007207200000006235000050000526500005265000000000000000000000000000000000000000000000026000030600000000000000000000N
021979031012101899CAMPILLO EL                                                                                         007207200000002975000030000214500002145000000000000000000000000000000000000000000000031000015620000000000000000000N
021979031012101999CAMPOFRIO                                                                                           000700700000000901000010000065400000654000000000000000000000000000000000000000000000012000004650000000000000000000N
021979031012102099CANAVERAL DE LEON                                                                                   000700700000000615000010000048900000489000000000000000000000000000000000000000000000006000002970000000000000000000N
021979031012102199CARTAYA                                                                                             004104100000009093000090000590700005907000000000000000000000000000000000000000000000029000041310000000000000000000N
021979031012102299CASTANO DEL ROBLEDO                                                                                 000700700000000247000010000019000000190000000000000000000000000000000000000000000000001000001330000000000000000000N
021979031012102399CERRO DE ANDEVALO EL                                                                                007207200000004083000030000314400003144000000000000000000000000000000000000000000000026000015970000000000000000000N
021979031012102499CORTECONCEPCION                                                                                     000700700000000786000010000060800000608000000000000000000000000000000000000000000000008000003530000000000000000000N
021979031012102599CORTEGANA                                                                                           000700700000007381000070000552900005529000000000000000000000000000000000000000000000025000026690000000000000000000N
021979031012102699CORTELAZOR                                                                                          000700700000000509000010000037900000379000000000000000000000000000000000000000000000007000001660000000000000000000N
021979031012102799CUMBRES DE ENMEDIO                                                                                  000700700000000125000010000011100000111000000000000000000000000000000000000000000000001000000610000000000000000000N
021979031012102899CUMBRES DE SAN BARTOLOME                                                                            000700700000001000000010000090300000903000000000000000000000000000000000000000000000002000004540000000000000000000N
021979031012102999CUMBRES MAYORES                                                                                     000700700000003426000020000251100002511000000000000000000000000000000000000000000000016000013400000000000000000000N
021979031012103099CHUCENA                                                                                             005405400000001990000020000144900001449000000000000000000000000000000000000000000000000000012050000000000000000000N
021979031012103199ENCINASOLA                                                                                          000700700000003348000030000279200002792000000000000000000000000000000000000000000000011000015550000000000000000000N
021979031012103299ESCACENA DEL CAMPO                                                                                  005405400000002168000020000156400001564000000000000000000000000000000000000000000000004000012290000000000000000000N
021979031012103399FUENTEHERIDOS                                                                                       000700700000000779000010000058400000584000000000000000000000000000000000000000000000011000003190000000000000000000N
021979031012103499GALAROZA                                                                                            000700700000002004000020000143200001432000000000000000000000000000000000000000000000013000009290000000000000000000N
021979031012103599GIBRALEON                                                                                           004104100000009354000090000649700006497000000000000000000000000000000000000000000000046000043770000000000000000000N
021979031012103699GRANADA DE RIO TINTO                                                                                000700700000000279000010000020700000207000000000000000000000000000000000000000000000002000001170000000000000000000N
021979031012103799GRANADO EL                                                                                          001001000000000712000010000051400000514000000000000000000000000000000000000000000000000000003470000000000000000000N
021979031012103899HIGUERA DE LA SIERRA                                                                                000700700000001553000010000114700001147000000000000000000000000000000000000000000000006000006930000000000000000000N
021979031012103999HINOJALES                                                                                           000700700000000550000010000037700000377000000000000000000000000000000000000000000000002000002710000000000000000000N
021979031012104099HINOJOS                                                                                             005405400000003133000040000231600002316000000000000000000000000000000000000000000000009000018190000000000000000000N
021979031012104199HUELVA                                                                                              004104100000122494001190008026800080268000000000000000000000000000000000000000000000888000512150000000000000000000N
021979031012104299ISLA CRISTINA                                                                                       001001000000016319000140000957800009578000000000000000000000000000000000000000000000069000047200000000000000000000N
