072004061999999000001028TPILAR                    MAGRINYA                 I RULL                    00000000          N
072004061999999000001027TAMALIA                   BENAVENTE                BOTIA                     00000000          N
072004061999999000001026TFERNANDO                 BURILLO                  ALBACETE                  00000000          N
072004061999999000001025TJOSE ANTONIO             LARRAÑAGA                ECHAVE                    00000000          N
072004061999999000001024TNURIA                    ESCAPA                   I FALLOLA                 00000000          N
072004061999999000001023TRAQUEL                   ESTEBANEZ                OBESO                     00000000          N
072004061999999000001022TCONCHA                   NASARRE                  SARMIENTO                 00000000          N
072004061999999000001021TMARIE THERESE            HALSOUET                 LAMOTHE                   00000000          N
072004061999999000001020TJOSEP MARIA              RUFI                     I PAGES                   00000000          N
072004061999999000001019TLUIS                     ILLORO                   ARSUAGA                   00000000          N
072004061999999000001018TRAUL                     HUERTA                   FERNANDEZ                 00000000          N
072004061999999000001017TDAVID MANUEL             RIVAS                    INFANTE                   00000000          N
072004061999999000001016TMARIA ROSA               BAUTISTA                 GUERRA                    00000000          N
072004061999999000001015TJOSE                     GOMEZ                    I NACHER                  00000000          N
072004061999999000001014TFRANCHO CHABIER          NAGORE                   LAIN                      00000000          N
072004061999999000001013TJOSE RAMON               BENGOETXEA               CABALLERO                 00000000          N
072004061999999000001012TRAFEL                    MOLINA                   I FERNANDEZ               00000000          N
072004061999999000001011TCARLOS SALVADOR          CERVANTES                ZAMORA                    00000000          N
072004061999999000001010TISABEL NELIDA            GIMENEZ                  ULIAQUE                   00000000          N
072004061999999000058002TLUIS FELIPE              PEREZ                    GUTIERREZ                 00000000          N
072004061999999000058001TJOSE FERNANDO            CANTALAPIEDRA            VILAR                     00000000          N
072004061999999000059054TBRUNO                    LOPEZ                    TEIJEIRO                  00000000          N
072004061999999000059053TJOSE LUIS                BARREIRA                 RODRIGUEZ                 00000000          N
072004061999999000059052TMARIA                    SILVA                    BARCALA                   00000000          N
072004061999999000059051TANTONIO JESUS            PINO                     ROCHA                     00000000          N
072004061999999000059050TMARIA DEL HENAR          CAVERO                   ALONSO                    00000000          N
072004061999999000059049TJESUS MIGUEL             GARCIA                   FERNANDEZ                 00000000          N
072004061999999000059048TMARGARITA                BLASCO                   FERNANDEZ                 00000000          N
072004061999999000059047TJUAN CARLOS              LOPEZ                    DIAZ                      00000000          N
072004061999999000059046TMINERVA                  OLVEIRA                  VILELA                    00000000          N
072004061999999000059045TDIEGO                    BERNAL                   RICO                      00000000          N
072004061999999000059044TANTIA                    MARIÑO                   RIVADULLA                 00000000          N
072004061999999000059043TANGEL MANUEL             PONCE                    RODRIGUEZ                 00000000          N
072004061999999000059042TSARAY                    FERNANDEZ                MARQUES                   00000000          N
072004061999999000059041TJUAN CARLOS              REY                      PIÑEIRO                   00000000          N
072004061999999000059040TREBECA VANESA            BRAVO                    DOMINGO                   00000000          N
072004061999999000059039TEDUARDO                  VIGO                     DOMINGUEZ                 00000000          N
072004061999999000059038TMARIA                    ALVAREZ                  REY                       00000000          N
072004061999999000059037TJUAN FRANCISCO           PAZ                      LOPEZ                     00000000          N
072004061999999000059036TMARTA                    CARRILLO                 GREGORIO                  00000000          N
072004061999999000059035TPEDRO                    VILA                     TABOAS                    00000000          N
072004061999999000059034TMARIA FIODORA            LOPEZ                    PATIÑO                    00000000          N
072004061999999000057043TMARIA JESUS              CHUMILLAS                FERNANDEZ                 00000000          N
072004061999999000057042TMARIA MERCEDES           GONZALEZ                 GARCIA                    00000000          N
072004061999999000057041TMARTA                    PALOMEQUE                POZAS                     00000000          N
072004061999999000057040TMARTIN                   PRADO                    FOENTINES                 00000000          N
072004061999999000057039TJOSE MANUEL              TABOADA                  VALDES                    00000000          N
072004061999999000057038TRUT                      FERNANDEZ                JIMENEZ                   00000000          N
072004061999999000057037TMARIA DOLORES            NARANJO                  AGRAZ                     00000000          N
072004061999999000057036TGABRIEL                  ENGUIDANOS               MARTINEZ                  00000000          N
072004061999999000057035TROSA MARIA               HEREDIA                  DODERO                    00000000          N
072004061999999000057034TNATIVIDAD                CABRERA                  GARCIA                    00000000          N
072004061999999000057033TDANIEL                   CRESPO                   MESA                      00000000          N
072004061999999000057032TNATIVIDAD                LOPEZ                    CABRERA                   00000000          N
072004061999999000057031TLUIS MIGUEL              LOPEZ                    ORGAZ                     00000000          N
072004061999999000057030TJOSE LUIS                LOPEZ                    CABRERA                   00000000          N
072004061999999000057029TMARIA JESUS              TOBAL                    RODRIGUEZ                 00000000          N
072004061999999000057028TISABEL                   ALVAREZ                  RODRIGUEZ                 00000000          N
072004061999999000057027TANTONIO                  MARTIN                   DELGADO                   00000000          N
072004061999999000057026TDAMIAN                   OLIVARES                 PERALTA                   00000000          N
072004061999999000057025TMARTA REBECA             ALFARAZ                  CORRAL                    00000000          N
072004061999999000057024TVALERIANO                QUEIPO                   ZURDO                     00000000          N
072004061999999000057023TFRANCISCO                MARTIN                   ALONSO                    00000000          N
072004061999999000057022TIGNACIO                  MARTIN                   ALONSO                    00000000          N
072004061999999000057021TLAURA                    SANCHEZ                  SANCHEZ                   00000000          N
072004061999999000057020TAMADO                    SANCHEZ                  TEJEDOR                   00000000          N
072004061999999000047031TRAMON IGNACIO            MORENO                   ZAPATERO                  00000000          N
072004061999999000047030TMARIA ICIAR PILAR        VAL                      BURGUETE                  00000000          N
072004061999999000001054TJOSEP                    COMPANY                  I SALA                    00000000          N
072004061999999000001053TNEKANE                   EGUZKITZA                BILBAO                    00000000          N
072004061999999000001052TJULIO                    GUIRAL                   PELEGRIN                  00000000          N
072004061999999000001051TURBANO                   VILLEGAS                 RECIO                     00000000          N
072004061999999000001050TANA BELEN                GIMENO                   HERNANDEZ                 00000000          N
072004061999999000001049TFERMIN                   CIAURRIZ                 GOMEZ                     00000000          N
072004061999999000001048TASSUMPCIO                CIVIS                    I LLOVERA                 00000000          N
072004061999999000001047TPABLO                    MONSARAZ POTUMS          DORADO                    00000000          N
072004061999999000001046TJOSE IGNACIO             ALCALDE                  HERRERO                   00000000          N
072004061999999000001045TPATXI                    MARTINEZ DE ALBENIZ      CASI                      00000000          N
072004061999999000001044TJOAN ANDREU              RODRIGUEZ                I SERRA                   00000000          N
072004061999999000001043TESTEBAN                  MONTORO                  NAVARRO                   00000000          N
072004061999999000001042TCHORCHE                  TRICAS                   LAMANA                    00000000          N
072004061999999000001041TINMACULADA               BONETA                   PIEDRA                    00000000          N
072004061999999000001040TJOSEP FRANCESC           NOGUES                   I QUIXAL                  00000000          N
072004061999999000001039TENCARNA                  CRUZ                     MATILLA                   00000000          N
072004061999999000001038TCHARO                    GIMENEZ                  LAMBAN                    00000000          N
072004061999999000001037TCARLOS                   GARAIKOETXEA             MINA                      00000000          N
072004061999999000001036TBERNAT                   COSTAS                   I CASTILLA                00000000          N
072004061999999000001035TVANESA                   MORON                    ASCENSION                 00000000          N
072004061999999000001034TJOSE LUIS                MARTINEZ                 DE LOS REYES              00000000          N
072004061999999000001033TLAUREN                   URIA                     PEÑA                      00000000          N
072004061999999000001032TLAURA                    RIBALAIGA                I PRATS                   00000000          N
072004061999999000058025TMARIA PALOMA             BATRES                   CASADO                    00000000          N
072004061999999000058024TJAVIER                   GUIJARRO                 MONTOJO                   00000000          N
072004061999999000058023TFERNANDO                 CALVO                    GIL                       00000000          N
072004061999999000058022TANA ROSALIA              ARJONES                  BASTOS                    00000000          N
072004061999999000058021TLUIS                     LOPEZ                    NOVELLE                   00000000          N
072004061999999000058020TEMILIO JAVIER            MARIAT                   GARCIA                    00000000          N
072004061999999000058019TJOSE MARIA               FERRANDO                 LEON                      00000000          N
072004061999999000058018TSEGUNDO ALFONSO          FERNANDEZ                DEL REY                   00000000          N
072004061999999000058017TJORGE MANUEL             ARROYO                   COZAR                     00000000          N
072004061999999000058016TMARIA DEL CARMEN         APARICIO                 PERIQUET                  00000000          N
072004061999999000058015TIGNACIO                  BATRES                   CASADO                    00000000          N
072004061999999000058014TJESUS                    MUÑOZ                    MARTINEZ                  00000000          N
072004061999999000058013TFERNANDO CESAR           MARTINEZ                 DALMAU                    00000000          N
072004061999999000058012TCARLOS JAVIER            RODRIGUEZ                MUÑOZ                     00000000          N
072004061999999000058011TMANUEL ANGEL             PEREZ                    ALDANA                    00000000          N
072004061999999000058010TEDUARDO                  ARIAS                    HIJAS                     00000000          N
072004061999999000058009TANDRES                   SANTO                    FULLANA                   00000000          N
072004061999999000058008TANTONIO                  RUIZ                     VALERA                    00000000          N
072004061999999000058007TMANUEL                   ANARINO                  LOBO                      00000000          N
072004061999999000058006TSANTIAGO                 FONTENLA                 CONLES                    00000000          N
072004061999999000058005TSANTIAGO                 CASERO                   PEINADO                   00000000          N
072004061999999000058004TCARLOS                   BATRES                   ARNANZ                    00000000          N
072004061999999000058003TANTONIO                  GIBELLO                  GARCIA                    00000000          N
072004061999999000056012TROGER                    TORRAS                   PLANAS                    00000000          N
072004061999999000056011TTERESA                   JORDAN                   PLA                       00000000          N
072004061999999000056010TJOAN                     LLOBELL                  MARTORELL                 00000000          N
072004061999999000056009TRAMON                    MUÑOZ                    SALLO                     00000000          N
072004061999999000056008TXAVIER                   SAFONT-TRIA              RAMON                     00000000          N
072004061999999000056007TROSER                    PALOL                    QUEVEDO                   00000000          N
072004061999999000056006TJORDI                    JUANOLA                  COSTA                     00000000          N
072004061999999000056005TGONÇAL                   BRAVO                    REIG                      00000000          N
072004061999999000056004TJOSEP                    COMERES                  COSTA                     00000000          N
072004061999999000056003TANNA                     GABRIEL                  SABATE                    00000000          N
072004061999999000056002TXAVIER                   OCA                      BARADAD                   00000000          N
072004061999999000056001TJESUS                    ARTIOLA                  RUBI                      00000000          N
072004061999999000057054TGONZALO                  DELGADO                  ESPINOSA                  00000000          N
072004061999999000057053TGREGORIO                 VELASCO                  TRIGUERO                  00000000          N
072004061999999000057052TEPIFANIO                 ALFONSO                  BRIME                     00000000          N
072004061999999000057051TROSA                     CARBALLO                 URBINA                    00000000          N
072004061999999000057050TJOSE                     GARCIA                   JIMENEZ                   00000000          N
072004061999999000057049TTRINIDAD                 CASTILLO                 GARRIDO                   00000000          N
072004061999999000057048TJOSE                     ALONSO                   RUIZ                      00000000          N
072004061999999000057047TFRANCISCO                NIETO                    LUQUE                     00000000          N
072004061999999000057046THERMENEGILDO             MENDEZ                   LOPEZ                     00000000          N
072004061999999000057045TM. PILAR                 RODRIGUEZ                GAGO                      00000000          N
072004061999999000057044TEMILIO                   ALONSO                   RAMOS                     00000000          N
072004061999999000047054TMONTSERRAT               GARCIA                   DURO                      00000000          N
072004061999999000047053TRAFAEL                   AMAT                     ALCALA                    00000000          N
072004061999999000047052TRAFAEL IGNACIO           LLANES                   DE TORRES                 00000000          N
072004061999999000047051TCAROLINA                 CUESTA                   BOOTHMAN                  00000000          N
072004061999999000047050TRAMIRO                   VIÑUALES                 FERREIRO                  00000000          N
072004061999999000047049TLUIS                     HERNANDEZ                CUADRADO                  00000000          N
072004061999999000047048TFRANCISCO DE BORJA       ABOS                     NUÑEZ DE CELIS            00000000          N
072004061999999000047047TPABLO                    PITA                     OLALLA                    00000000          N
072004061999999000047046TBERTA                    NASARRE                  LOPEZ                     00000000          N
072004061999999000047045TTERESA                   PARADINAS                ZORRILLA                  00000000          N
072004061999999000047044TBEATRIZ                  ONTAÑON                  NASARRE                   00000000          N
072004061999999000047043TMARIA                    BRAÑAS                   LASALA                    00000000          N
072004061999999000047042TSARA LUCIA               SIEIRA                   MUCIENTES                 00000000          N
072004061999999000047041TJUAN                     GARCIA                   COLIS                     00000000          N
072004061999999000047040TMARIA                    SAMPEDRO                 ROZAS                     00000000          N
072004061999999000047039TMARTA ALMUDENA           PEREZ                    MARTIN                    00000000          N
072004061999999000047038TSERGIO                   HERNANDEZ                DE DEZA                   00000000          N
072004061999999000047037TMIGUEL PABLO             IRADIEL                  SANCHEZ                   00000000          N
072004061999999000047036TELENA                    GARCIA                   COLIS                     00000000          N
072004061999999000047035TRAFAEL                   AMAT                     RUEDA                     00000000          N
072004061999999000047034TMANUEL                   PITA                     OLALLA                    00000000          N
072004061999999000047033TMARIA ANTONIETA          MUCIENTES                CASTRO                    00000000          N
072004061999999000047032TALVARO                   MARTINEZ                 PALACIO                   00000000          N
072004061999999000067014TMARIA BELEN              NAVAJAS                  JOSA                      00000000          N
072004061999999000067013TCARLOS                   VARA                     MUÑOZ                     00000000          N
072004061999999000067012TJAVIER VICENTE           PEIRO                    BAEZA                     00000000          N
072004061999999000067011TANA                      GIRALT                   HERRERO                   00000000          N
072004061999999000067010TJOSE IGNACIO             SANZ                     VELLIDO                   00000000          N
072004061999999000067009TJORGE                    BOIL                     CASTAÑON                  00000000          N
072004061999999000067008TPEDRO MIGUEL             LOPEZ                    PEREZ                     00000000          N
072004061999999000067007TJUAN CARLOS              GARCIA                   MORENO                    00000000          N
072004061999999000067006TJULIO ANTONIO            SANCHEZ                  GONZALEZ                  00000000          N
072004061999999000067005TANTONIO MIGUEL           PEREZ                    BENCOMO                   00000000          N
072004061999999000067004TINMACULADA               GARCIA                   CASAMAYOR                 00000000          N
072004061999999000067003TTEODORO                  ROJO                     ALADRO                    00000000          N
072004061999999000067002TMARIA CONCEPCION         SANCHEZ                  JACOME                    00000000          N
072004061999999000067001TENRIQUE                  ANTIGÜEDAD               SANCHEZ                   00000000          N
072004061999999000068054TEVARISTO                 OLCINA                   JIMENEZ                   00000000          N
072004061999999000068053TBEGOÑA                   AGUIRRE                  FERNANDEZ                 00000000          N
072004061999999000068052TFELICIANO                VELEZ                    MEDRANO                   00000000          N
072004061999999000068051TJULIO MIGUEL ANGEL       GOMEZ                    BAHILLO                   00000000          N
072004061999999000068050THECTOR                   MIR                      LLORENTE                  00000000          N
072004061999999000068049TIGNACIO ALFONSO          ZABALA                   AMUNDARAIN                00000000          N
072004061999999000068048TIGNACIO MARIA            PETRINA                  ARANAZ                    00000000          N
072004061999999000068047TMARIA CARMEN             GARCIA                   OSET                      00000000          N
072004061999999000064050TLUIS                     MORALES                  BARRAU                    00000000          N
072004061999999000064049TJOAN MANUEL              ROSSY                    BALEN                     00000000          N
072004061999999000064048TMERCEDES                 MORA                     DIEZ                      00000000          N
072004061999999000064047TCLARA                    LOPEZ                    RUIZ                      00000000          N
072004061999999000064046TROGER ANGEL              VICHE                    GONZALEZ                  00000000          N
072004061999999000064045TJUAN MARIA               SANCHEZ                  PEREZ                     00000000          N
072004061999999000064044TJOAQUIN                  JOVER                    ALSINA                    00000000          N
072004061999999000064043TGABRIEL                  CAMIN                    JAMES                     00000000          N
072004061999999000064042TMARIA CARIDAD            VILLAESCUSA              GARCIA-QUIJADA            00000000          N
072004061999999000064041TMARIA ISABEL             MARTIN                   ARCIS                     00000000          N
072004061999999000064040TMARIA DE LAS MERCEDES    GONZALEZ                 GARCIA                    00000000          N
072004061999999000064039TCRISTINA                 SERRA                    BALLBE                    00000000          N
072004061999999000064038TDANIEL                   AMAL                     MESEGUER                  00000000          N
072004061999999000064037THILARIO                  RODRIGO                  MARTINEZ                  00000000          N
072004061999999000064036TLETICIA                  FERNANDEZ                MERINO                    00000000          N
072004061999999000064035TJOSE RAMON               GOMEZ                    DIAZ                      00000000          N
072004061999999000064034TMARIA VICTORIA           GALLEGO                  MIGUEL                    00000000          N
072004061999999000064033TMARIA JOSE               CASTRO                   SANCHEZ                   00000000          N
072004061999999000064032TRUBEN                    SOLA                     FOX                       00000000          N
072004061999999000064031TMARGARITA                MARIÑOSO                 AMESTI                    00000000          N
072004061999999000064030TEUGENIO                  ORTEGA                   JORGANES                  00000000          N
072004061999999000064029TMARIA VISITACION         ORTIZ                    ANGULO                    00000000          N
072004061999999000064028TJOSE ANTONIO             GUTIERREZ                GONZALEZ                  00000000          N
072004061999999000045038TTXOMIN                   MADARIA                  HERRAN                    00000000          N
072004061999999000045037TJOSU                     OIZ                      IBARROLA                  00000000          N
072004061999999000045036TREBECA                   UBERA                    ARANCETA                  00000000          N
072004061999999000045035TAURORA MARIA CAMINO      GARCIA                   MARROQUIN                 00000000          N
072004061999999000045034TIGOR                     LOPEZ DE MUNIAIN         GANUZA                    00000000          N
072004061999999000045033TASUN                     FERNANDEZ DE GARAYALDE   LAZKANO                   00000000          N
072004061999999000045032TLORENZO                  ZUBIRIA                  CAMINO 'LONTXO'           00000000          N
072004061999999000045031TANA MARIA                FERNANDEZ                GUTIERREZ                 00000000          N
072004061999999000045030TAINOA                    ASTARLOA                 EGIGUREN                  00000000          N
072004061999999000045029TPABLO                    MUÑOZ                    TRIGO                     00000000          N
072004061999999000045028TAINHOA                   LARRAÑAGA                ELORZA                    00000000          N
072004061999999000045027TMARIA BEGOÑA             RODRIGUEZ                SANCHEZ                   00000000          N
072004061999999000045026TIÑIGO                    LARRAGOITI               GONZALEZ DE MENDIBIL      00000000          N
072004061999999000045025TMARIA PILAR              MURUZABAL                MURUZABAL                 00000000          N
072004061999999000045024TJUAN MARTIN              ELEXPURU                 ARREGI                    00000000          N
072004061999999000045023TARRATE                   LARRAÑAGA                IBARZABAL                 00000000          N
072004061999999000045022TKOLDO                    ELEJALDE                 ZULUETA                   00000000          N
072004061999999000045021TJAVIER                   ESKUBI                   LARRAZ                    00000000          N
072004061999999000045020TAINHOA                   BEOLA                    OLAZIREGI                 00000000          N
072004061999999000045019TBEGOÑA                   CAMPO                    LASUEN                    00000000          N
072004061999999000045018TNURIA                    ALMAZAN                  LOPEZ                     00000000          N
072004061999999000045017TFERNANDO                 GUTIERREZ                MARTIN 'MORGAN'           00000000          N
072004061999999000043015TCARLOS JOSE              ITURGAIZ                 ANGULO                    00000000          S
072004061999999000043014TFERNANDO MANUEL          FERNANDEZ                MARTIN                    00000000          S
072004061999999000043013TAGUSTIN                  DIAZ DE MERA             GARCIA CONSUEGRA          00000000          S
072004061999999000043012TLUIS FRANCISCO           HERRERO-TEJEDOR          ALGAR                     00000000          S
072004061999999000043011TLUIS                     DE GRANDES               PASCUAL                   00000000          S
072004061999999000043010TPILAR                    DEL CASTILLO             VERA                      00000000          S
072004061999999000043009TJOSE JAVIER              POMES                    RUIZ                      00000000          S
072004061999999000043008TMARIA DEL CARMEN         FRAGA                    ESTEVEZ                   00000000          S
072004061999999000043007TJOSE MANUEL              GARCIA-MARGALLO          MARFIL                    00000000          S
072004061999999000043006TGRISTOBAL RICARDO        MONTORO                  ROMERO                    00000000          S
072004061999999000043005TANA                      MATO                     ADROVER                   00000000          S
072004061999999000043004TALEJO                    VIDAL-QUADRAS            ROCA                      00000000          S
072004061999999000043003TJOSE GERARDO             GALEOTE                  QUECEDO                   00000000          S
072004061999999000043002TLUISA FERNANDA           RUDI                     UBEDA                     00000000          S
072004061999999000043001TJAIME MARIA              MAYOR                    OREJA                     00000000          S
072004061999999000044054TDIONISIO                 GARCIA                   MATA                      0000000013122385-BN
072004061999999000044053TMARIA PURIFICACION       MARTINEZ                 ALONSO                    0000000013142725-LN
072004061999999000044052TMILLAN                   ALVAREZ                  PALACIOS                  0000000013118022-HN
072004061999999000044051TJUSTA                    GONZALEZ                 SANZ                      0000000013130599-ZN
072004061999999000044050TFERNANDO                 SANCHEZ                  DE LA ROSA                0000000009257920-YN
072004061999999000044049TALICIA                   ZUAZO                    ESPINOSA                  0000000013159360-WN
072004061999999000036041TMARIA PILAR              PRADO                    ALVAREZ                   00000000          N
072004061999999000036040TNOELIA                   PEREZ                    SANDEZ                    00000000          N
072004061999999000036039TFRANCISCO JAVIER         GARCIA                   LLOP                      00000000          N
072004061999999000036038TMARIA CARMEN             PARDO                    PEREZ                     00000000          N
072004061999999000036037TLUCIA                    GARCIA DE LA PARRA       BAÑARES                   00000000          N
072004061999999000036036TMARINA                   CASTELLO                 MAYO                      00000000          N
072004061999999000036035TMANUEL                   PICON                    LEBRON                    00000000          N
072004061999999000036034TJOSEP LLUIS              DEL ALCAZAR              I FABREGAT                00000000          N
072004061999999000036033TOLVIDO                   INGUANZO                 INGUANZO                  00000000          N
072004061999999000036032TMOISES                   MESSA                    JIMENEZ                   00000000          N
072004061999999000036031TJOSE ANDRES              DORADO                   CAMPOS                    00000000          N
072004061999999000036030TMIGUEL                   GUERRERO                 SANCHEZ                   00000000          N
072004061999999000036029TSILVIA                   RISPAU                   MERCADER                  00000000          N
072004061999999000036028TSERVANDO                 POZO                     LOPEZ                     00000000          N
072004061999999000036027TMARIA DEL CARMEN         ROMERO                   INIESTA                   00000000          N
072004061999999000036026TJESUS                    PRADES                   COSCOLLANO                00000000          N
072004061999999000036025TJAUME                    QUINTO                   FABREGAT                  00000000          N
072004061999999000036024TJOAQUIN                  BOIX                     LLUCH                     00000000          N
072004061999999000036023TEDUARDO                  ANDRADOS                 DE DIEGO                  00000000          N
072004061999999000036022TANTONIO                  MASA                     MARQUEZ                   00000000          N
072004061999999000036021TENRIQUE                  DIAZ                     TENORIO                   00000000          N
072004061999999000036020TMARIA TERESA             PANTOJA                  BARQUERO                  00000000          N
072004061999999000036019TABEL                     LAIN                     DIAZ FLORES               00000000          N
072004061999999000042054TJORDI                    SOLE                     TURA                      00000000          N
072004061999999000042053TFRANCISCO                VAZQUEZ                  VAZQUEZ                   00000000          N
072004061999999000042052TTRINIDAD                 JIMENEZ                  GARCIA-HERRERA            00000000          N
072004061999999000042051TJUAN DE DIOS             RAMIREZ                  HEREDIA                   00000000          N
072004061999999000042050TARACELI                  MARTINEZ                 ESTEBAN                   00000000          N
072004061999999000042049TCARME                    PORTACELI                ROIG                      00000000          N
072004061999999000042048TJOSE MIGUEL              ABARRATEGUI              GONZALEZ                  00000000          N
072004061999999000042047TMARIA DEL MAR            GIMENEZ                  GUERRERO                  00000000          N
072004061999999000042046TJOSE GABRIEL             JIMENEZ                  HEREDIA                   00000000          N
072004061999999000042045TGREGORIO                 ACHUTEGUI                BASAGOITI                 00000000          N
072004061999999000042044TMONICA                   MELLE                    HERNANDEZ                 00000000          N
072004061999999000042043TIRENE                    GARCIA                   BUZNADIEGO                00000000          N
072004061999999000042042TLOUIS                    LEMKOW                   ZETTERLING                00000000          N
072004061999999000042041TLAURA                    ROBLES                   CASTRO                    00000000          N
072004061999999000042040TLAURO                    OLMO                     ENCISO                    00000000          N
072004061999999000042039TJESUS JAVIER             PEREA                    CORTIJO                   00000000          N
072004061999999000042038TINMACULADA               BONILLA                  MARTINEZ                  00000000          N
072004061999999000042037TRAMON                    HERNANDEZ                GARRIDO                   00000000          N
072004061999999000042036TNURIA                    CARRERAS                 JORDI                     00000000          N
072004061999999000042035TALEJANDRO                MORATILLA                TORREGROSA                00000000          N
072004061999999000042034TMARIA ELENA              FRANCISCO                POSADAS                   00000000          N
072004061999999000042033TRAFAEL                   MORILLAS                 RUCIERO                   00000000          N
072004061999999000013027TANTONIO                  OCA                      FERNANDEZ                 00000000          N
072004061999999000013026TIZASKUN                  MARTINEZ DE LAHIDALGA    PINEDO                    00000000          N
072004061999999000013025TCARLA                    JARA                     BARRANQUERO               00000000          N
072004061999999000013024TANA                      MIRANDA                  PAZ                       00000000          N
072004061999999000013023TMARIA JOSE               MUNARRIZ                 GIMON                     00000000          N
072004061999999000013022TMERCE                    FONT                     VILAPLANA                 00000000          N
072004061999999000013021TGUILLERME                VAZQUEZ                  VAZQUEZ                   00000000          N
072004061999999000013020TJUAN LUIS                KRUZELEGI                GARATE                    00000000          N
072004061999999000013019TMARIA JOSEP              MORELL                   VIVANCOS                  00000000          N
072004061999999000013018TJOSE LUIS                MIRALLES                 GARCIA                    00000000          N
072004061999999000013017TESTEFANIA                GARCIA                   ESTEVE                    00000000          N
072004061999999000013016TROGER                    ALBINYANA                SAIGI                     00000000          N
072004061999999000013015TANA BELEN                PONTON                   MONDELO                   00000000          N
072004061999999000013014TJOSE ANTONIO             URBIOLA                  MATXINANDIARENA           00000000          N
072004061999999000013013TGERARD                   SERRA                    MARTINEZ                  00000000          N
072004061999999000013012TFERNANDO XABIER          BLANCO                   ALVAREZ                   00000000          N
072004061999999000013011TERIKA                    ETZEZARRA                ABAJOS                    00000000          N
072004061999999000013010TMARYSE                   OLIVE                    QUINTANA                  00000000          N
072004061999999000013009TENCARNACION              OTERO                    CEPEDA                    00000000          N
072004061999999000013008TPATXI                    BAZTARRIKA               GALPARSORO                00000000          N
072004061999999000013007TJOANA LLÜISA             MASCARO                  MELIA                     00000000          N
072004061999999000013006TJOAN                     MANSANET                 MANSANET                  00000000          N
072004061999999000011014TMARIA GUADALUPE          GONZALEZ                 TAÑO                      00000000          N
072004061999999000011013TRAUL                     MARIN                    OLMEDO                    00000000          N
072004061999999000011012TXESUS                    CAÑEDO                   VALLE                     00000000          N
072004061999999000011011TJOSE LUIS                PODEROSO                 CORTIJO                   00000000          N
072004061999999000011010TJOSE ANTONIO             LARREA                   TELLEZ                    00000000          N
072004061999999000011009TMONTSERRAT               BENEDICTO                FUERTES                   00000000          N
072004061999999000011008TAMPARO                   PICO                     PERIS                     00000000          N
072004061999999000011007TMARIA JOSEFA             RODRIGUEZ                VAZQUEZ                   00000000          N
072004061999999000011006TINES                     JIMENEZ                  MARTIN                    00000000          N
072004061999999000011005TROSARIO                  MORALES                  DE COCA                   00000000          N
072004061999999000011004TJUAN MANUEL              FERRANDEZ                LEZAUN                    00000000          N
072004061999999000011003TVALERO                   EUSTAQUIO                I JUAN                    00000000          N
072004061999999000011002TALFREDO                  BELDA                    QUINTANA                  00000000          N
072004061999999000011001TALEJANDRO                ROJAS-MARCOS             DE LA VIESCA              00000000          N
072004061999999000012054TDOMINGO                  DIAZ                     RODRIGUEZ                 00000000          N
072004061999999000012053TMARIA DEL PILAR          MORENO                   MORENO                    00000000          N
072004061999999000012052TANGEL                    GIL                      CORZO                     00000000          N
072004061999999000012051TMARIA DEL ROSARIO        DE DIOS                  GARCIA                    00000000          N
072004061999999000012050TJUAN MIGUEL              MORATO                   REVIDIEGO                 00000000          N
072004061999999000012049TANA MARIA                URBIETA                  FERNANDEZ                 00000000          N
072004061999999000012048TMARIO                    BAUTISTA                 TRIGUEROS                 00000000          N
072004061999999000012047TVICTOR MANUEL            SEVILLANO                RAMIREZ                   00000000          N
072004061999999000001031TBRAULIO                  VALDERAS                 PEREZ                     00000000          N
072004061999999000001030TMARTA                    DE SANTOS                LORIENTE                  00000000          N
072004061999999000001029TXABIER                   KINTANA                  URTIAGA                   00000000          N
072004061999999000043042TJOSE MANUEL              VELASCO                  RETAMOSA                  00000000          N
072004061999999000043041TCATALINA                 COSTA                    BONET                     00000000          N
072004061999999000043040TJESUS                    GOMEZ                    MARTINEZ                  00000000          N
072004061999999000019036TTEOFILO                  RICO                     VERDU                     00000000          N
072004061999999000019035TRAQUEL                   TORRES                   MOLINA                    00000000          N
072004061999999000019034TMARIA DOLORES            ALCALA                   MORA                      00000000          N
072004061999999000019033TMARIANO                  CARRERAS                 PLAZA                     00000000          N
072004061999999000019032TJORGE IGNACIO            GARCIA                   ANASTASIO                 00000000          N
072004061999999000019031TMARIA DOLORES            MOLINA                   MOLINS                    00000000          N
072004061999999000019030TPILAR                    SENTIS                   ZUAZOLA-GIGORRAGA         00000000          N
072004061999999000019029TALBERTO                  DILLIZ                   GONZALEZ                  00000000          N
072004061999999000019028TEDUARDO                  GIL                      DELGADO                   00000000          N
072004061999999000019027TANGELA                   SOTOS                    MARTIN                    00000000          N
072004061999999000019026TJOSE DOMINGO             CASAS                    BARRIOS                   00000000          N
072004061999999000019025TFRANCISCO PABLO          SOMACARRERA              MOLINA                    00000000          N
072004061999999000019024TLUIS                     MARTINEZ                 MENA                      00000000          N
072004061999999000019023TANTONIO                  NAVARRO                  ZANON                     00000000          N
072004061999999000019022TAIDA                     TORRENS                  MELIA                     00000000          N
072004061999999000019021TMARIA JESUS              FUERTES                  SANZO                     00000000          N
072004061999999000019020TXAVIER                   BORRAS                   CALVO                     00000000          N
072004061999999000019019TROCIO                    BURGOS                   PEÑA                      00000000          N
072004061999999000019018TJOSE RAMON               LOBO                     RICO                      00000000          N
072004061999999000019017TMARIA BELEN              CABAL                    RIERA                     00000000          N
072004061999999000019016TALICIA                   ALCALA                   MORA                      00000000          N
072004061999999000019015TFRANCISCO XAVIER         GARCIA                   PUJADAS                   00000000          N
072004061999999000019014TBALTASAR                 LORENZO                  RODRIGUEZ                 00000000          N
072004061999999000019013TANA MARIA                SANZ                     ARAPILES                  00000000          N
072004061999999000012023TANTONIO                  CALZADO                  HURTADO ROJAS             00000000          N
072004061999999000012022TMARIA                    OCAÑA                    VAZQUEZ                   00000000          N
072004061999999000012021TMATEO                    ALVAREZ                  SANCHEZ                   00000000          N
072004061999999000012020TROSARIO                  VELA                     PEREIRA                   00000000          N
072004061999999000012019TGERARDO                  GRAU                     FIBLA                     00000000          N
072004061999999000012018TMARIA                    DIEZ                     MARTIN                    00000000          N
072004061999999000012017TANTONIO                  HINOJOSA                 NEYRA                     00000000          N
072004061999999000012016TILDEFONSA                TRIGUEROS                ROMERO                    00000000          N
072004061999999000012015TJUAN                     MARTINEZ                 GALAN                     00000000          N
072004061999999000012014TVICTORIA                 JIMENEZ                  MADROÑAL                  00000000          N
072004061999999000012013TEDUARDO                  BENJUMEA                 RODRIGUEZ                 00000000          N
072004061999999000012012TMARIA DEL CARMEN         ALFEREZ                  CABRERA                   00000000          N
072004061999999000012011TJUAN JOSE                DORADO                   RAMIREZ                   00000000          N
072004061999999000012010TCARMEN                   CARRILLO                 VIER CARNICER             00000000          N
072004061999999000012009TRAFAEL                   PORRAS                   ESTRADA                   00000000          N
072004061999999000012008TLETICIA                  GUERRERO                 JIMENEZ                   00000000          N
072004061999999000012007TJOSEP JOAQUIM            SANTANA                  VALLS                     00000000          N
072004061999999000012006TCONCEPCION               VERA                     MARTIN                    00000000          N
072004061999999000012005TJOSE                     ROMERO                   ALONSO                    00000000          N
072004061999999000012004TMARIA MAGDALENA          REDONDO                  GOMEZ                     00000000          N
072004061999999000012003TFRANCISCO JAVIER         GONZALEZ                 RUIZ                      00000000          N
072004061999999000012002TMARIA DEL CARMEN         MARTIN                   LOPEZ                     00000000          N
072004061999999000012001TMANUEL                   RUIZ                     LUCAS                     00000000          N
072004061999999000011040TDORLETA                  ZUBIA                    GARDE                     00000000          N
072004061999999000011039TMATIAS                   BARON                    JUAN                      00000000          N
072004061999999000011038TM. CANDELARIA            AFONSO                   PEREZ                     00000000          N
072004061999999000011037TANTONIO                  JURADO                   LOPEZ                     00000000          N
072004061999999000011036TANA ISABEL               SANZ                     BALLARIN                  00000000          N
072004061999999000011035TJOAQUIN                  BALLESTER                SANZ                      00000000          N
072004061999999000011034TBLANCA ROSA              QUINTERO                 COELLO                    00000000          N
072004061999999000011033TANA MARIA                DE LA ROSA               CORDERO                   00000000          N
072004061999999000011032TJUAN ANTONIO             DE LA HOZ                GONZALEZ                  00000000          N
072004061999999000011031TMBAY                     FALL                                               00000000          N
072004061999999000011030TSANTIAGO                 DIAZ                     GARCIA                    00000000          N
072004061999999000011029TPEDRO AGUSTIN            LANZAS                   MERINO                    00000000          N
072004061999999000011028TLUIS MARIA               IBERO                    ELIA                      00000000          N
072004061999999000011027TJUANA                    ALOMAR                   SERRA                     00000000          N
072004061999999000011026TJOSE IGNACIO             VIÑAU                    ENA                       00000000          N
072004061999999000011025TMERCEDES                 SOLER                    TAMARIT                   00000000          N
072004061999999000011024TVENANCIO                 ACOSTA                   PADRON                    00000000          N
072004061999999000011023TMANUEL                   PRADO                    FERNANDEZ                 00000000          N
072004061999999000011022TSOLEDAD                  MONZON                   CABRERA                   00000000          N
072004061999999000047029TPABLO GUILLERMO          ONTAÑON                  NASARRE                   00000000          N
072004061999999000047028TMARIA JOSE               PIZARRO                  CAPARROS                  00000000          N
072004061999999000047027TANA                      POZO                     SANCHEZ                   00000000          N
072004061999999000047026TIGNACIO                  PITA                     OLALLA                    00000000          N
072004061999999000047025TJAVIER                   NIETO                    RICO                      00000000          N
072004061999999000047024TMARIA DEL MAR            MENDOZA                  GUTIERREZ                 00000000          N
072004061999999000047023TNOEMI                    LOPEZ                    MARTINEZ                  00000000          N
072004061999999000047022TJUSTINA                  BARAMBONES               DURAN                     00000000          N
072004061999999000047021TDANIEL                   LOUREDA                  LOPEZ                     00000000          N
072004061999999000047020TLUIS                     VILLALTA                 CABEZAS                   00000000          N
072004061999999000047019TMARIA CONCEPCION         ALCALA                   DE LIMA                   00000000          N
072004061999999000047018TMANUEL                   JULIA                    DE PARAMO                 00000000          N
072004061999999000047017TCECILIA                  GARCIA                   BAENA                     00000000          N
072004061999999000047016TMARIA GRACIA             GARCIA                   COLIS                     00000000          N
072004061999999000047015TGONZALO                  VIÑUALES                 FERREIRO                  00000000          N
072004061999999000047014TDOLORES                  NASARRE                  DE GOICOECHEA             00000000          N
072004061999999000047013TJAVIER                   GARCIA                   COLIS                     00000000          N
072004061999999000047012TLUIS                     DE SOBRON                MARTINEZ                  00000000          N
072004061999999000047011TJORGE                    SERRANO                  PARADINAS                 00000000          N
072004061999999000047010TALMUDENA VICTORIA        TRAVESI                  DE LOS SANTOS             00000000          N
072004061999999000047009TLUIS                     TAVIRA                   DIAZ                      00000000          N
072004061999999000068046TANA MARIA                MONTOYA                  UJUE                      00000000          N
072004061999999000068045TISABEL PILAR             LOPEZ                    BAQUEDANO                 00000000          N
072004061999999000068044TCARLOS                   MOREU                    SANZ                      00000000          N
072004061999999000068043TJESUS RAMON              GARZON                   SAEZ                      00000000          N
072004061999999000068042TFRANCISCO JAVIER         ONRUBIA                  REVUELTA                  00000000          N
072004061999999000068041TLUIS                     MARTIN                   BENDICHO                  00000000          N
072004061999999000068040TDELIA                    TEJEDOR                  GOMEZ                     00000000          N
072004061999999000068039TMARIA NIEVES             URREA                    ZABAL                     00000000          N
072004061999999000068038TANTONIO                  GIL                      BONANAD                   00000000          N
072004061999999000068037TVALENTINA                ANSOLA                   ALTUNA                    00000000          N
072004061999999000068036TMARIA ISABEL             ALZORRIZ                 IZU                       00000000          N
072004061999999000068035TIOSU ANDONI              ULI                      ELIZALDA                  00000000          N
072004061999999000068034TGERMAN                   BARANDALLA               HUICI                     00000000          N
072004061999999000068033TJOSE LUIS                LOPEZ                    BALLESTEROS               00000000          N
072004061999999000068032TABEL                     URSEGUIA                 SOSA                      00000000          N
072004061999999000068031TIGNACIO JAVIER           SALSAMENDI               ANSOLA                    00000000          N
072004061999999000068030THUGO FERMIN              DE PRADO                 EL CID                    00000000          N
072004061999999000068029TJOSE ANTONIO             FERNANDEZ DE LANDA       Y MARTINEZ DE LLARDUYA    00000000          N
072004061999999000068028TMARIA NIEVES             JIMENEZ                  SANTOS                    00000000          N
072004061999999000068027TANTONIO                  RUIZ                     MARTINEZ                  00000000          N
072004061999999000068026TBELEN                    GURRUCHARRI              GOLDARAZ                  00000000          N
072004061999999000068025TANTONIO FRANCISCO JAVIER RABANAL                  JARAUTA                   00000000          N
072004061999999000068024TJESUS MARIA              ARAGON                   SAMANES                   00000000          N
072004061999999000064027TMARIA DEL CARMEN         BOTELLA                  MARTINEZ                  00000000          N
072004061999999000064026TVICENÇ                   VILA                     TOMASA                    00000000          N
072004061999999000064025TMARIA PIA                ZAZU                     LAFUENTE                  00000000          N
072004061999999000064024TMYRIAM                   MERINO                   THOMAS                    00000000          N
072004061999999000064023TRAUL                     SEMPERE                  DURA                      00000000          N
072004061999999000064022TGREGORIO                 MASCARAQUE               PEÑO                      00000000          N
072004061999999000064021TRAFAEL                   CERVERA                  CASANUEVA                 00000000          N
072004061999999000064020TJUAN ANTONIO             PEREZ                    CHUECA                    00000000          N
072004061999999000064019TCONSUELO                 REDON                    VILLANUEVA                00000000          N
072004061999999000064018TMARIA DEL CARMEN         BERMEJO                  CANO                      00000000          N
072004061999999000064017TPEDRO FERNANDO           BARCELO                  BARRANCO                  00000000          N
072004061999999000064016TRAFAEL                   LLORENTE                 MARTIN                    00000000          N
072004061999999000064015TMARIA DOLORES            RUIZ                     CALAVERA                  00000000          N
072004061999999000064014TMARIA DOLORES            RUIZ                     RUIZ                      00000000          N
072004061999999000064013TMARIA DESAMPARADOS       COSIN                    PUCHAU                    00000000          N
072004061999999000064012TJOSE IGNACIO             RODRIGUEZ                GRANDE                    00000000          N
072004061999999000064011TJESUS                    PICAZO                   MORENO                    00000000          N
072004061999999000064010TVICTOR                   PEREZ                    ROCHE                     00000000          N
072004061999999000064009TVICENTE MANUEL           ROGLA                    BENEDITO                  00000000          N
072004061999999000064008TGEMMA                    BAS                      SOLA                      00000000          N
072004061999999000064007TJUAN MARCOS              LIZARBE                  LASA                      00000000          N
072004061999999000064006TJAVIER                   PEREDA                   PEREDA                    00000000          N
072004061999999000064005TJESUS MARIA              POVEDA                   AGUSTIN                   00000000          N
072004061999999000045016TPATXI                    SAENZ                    LAZKANO                   00000000          N
072004061999999000045015TPATXI                    AIERBE                   URBIZTONDO 'KOLI'         00000000          N
072004061999999000045014TIÑAKI                    ALDEKOA                  AZARLOZA                  00000000          N
072004061999999000045013TJOSEBA                   AZKARRAGA                ETXEGIBEL                 00000000          N
072004061999999000045012TX.                       SARASUA                  MARITXALAR                00000000          N
072004061999999000045011TEMILIO                   LOPEZ                    ADAN 'BELTZA'             00000000          N
072004061999999000045010TISABEL                   ARAMBURU                 BERGUA                    00000000          N
072004061999999000045009TJULEN                    KERMAN                   DE MADARIAGA Y AGUIRRE    00000000          N
072004061999999000045008TJOSE LUIS                ALVAREZ                  ENPARANTZA 'TXILLARDEGI'  00000000          N
072004061999999000045007TMARITXU                  GOIKOETXEA               GONZALEZ DE LOPIDANA      00000000          N
072004061999999000045006TFRANCESC                 SANTACATALINA            ALONSO                    00000000          N
072004061999999000045005TAINTZANE                 EZENARRO                 EGURBIDE                  00000000          N
072004061999999000045004TMIREN                    EGAÑA                    DESCARGA                  00000000          N
072004061999999000045003TIÑAKI                    IRAZABALBEITIA           FERNANDEZ                 00000000          N
072004061999999000045002TTXOMIN                   ARRANBIDE                                          00000000          N
072004061999999000045001TPATXI                    ZABALETA                 ZABALETA                  00000000          N
072004061999999000046054TLUIS                     SILVA                    GARCIA                    00000000          N
072004061999999000046053TJOSE IGNACIO             BLASCO                   TORREJON                  00000000          N
072004061999999000046052TRENE                     GOMEZ                    PEREZ                     00000000          N
072004061999999000046051TMARIA JOSEFA             SERRATOSA                BELLES                    00000000          N
072004061999999000046050TRAMON EZEQUIEL           ROJAS                    HERNANDEZ                 00000000          N
072004061999999000046049TMIGUEL                   CRUZ                     MOTOS                     00000000          N
072004061999999000046048TMARIA JOSE               ABAD                     DUART                     00000000          N
072004061999999000044048TFERNANDO                 NEBREDA                  BLANCO                    0000000013126313-YN
072004061999999000044047TANA BELEN ELENA          GÜEMES                   GÜEMES                    00000000 1313997-PN
072004061999999000044046TFRANCISCO JAVIER         PINEDA                   SIMON                     0000000013059808-VN
072004061999999000044045TMARIA DOLORES            GARCIA                   DELGADO                   0000000013144473-LN
072004061999999000044044TANGEL MANUEL             VALERA                   LOPEZ                     0000000050067353-XN
072004061999999000044043TBEATRIZ                  DE LA HORRA              LOPEZ                     0000000013130338-YN
072004061999999000044042TJOSE IGNACIO             DELGADO                  PALACIOS                  0000000009286437-AN
072004061999999000044041TTERESA                   HONTORIA                 JIMENEZ                   0000000045424218-PN
072004061999999000044040TMIGUEL ANGEL             PEÑA                     PALACIOS                  0000000045420421-KN
072004061999999000044039TJOSE ANTONIO             JIMENEZ                  WALIAS                    0000000053003891-TN
072004061999999000044038TMARIA JESUS              CONTRERAS                FERNANDEZ                 00000000  13120527N
072004061999999000044037TILDEFONSO                HERRERA                  GOMEZ                     0000000014594026-CN
072004061999999000044036TRAQUEL                   BARRIUSO                 RICHARD                   0000000013047307-MN
072004061999999000044035TFRANCISCO JAVIER         HERMOSILLA               GONZALEZ                  0000000015887814-NN
072004061999999000044034TMARIA JESUS              GONZALEZ                 SANZ                      0000000013125968-YN
072004061999999000044033TMANUEL                   GARCIA                   QUINTANA                  00000000 3114516-PN
072004061999999000044032TMARIA BEGOÑA             CALZADA                  PEÑA                      0000000016255432-KN
072004061999999000044031TCESAR                    AGUADO                   HUSILLOS                  0000000017116679-XN
072004061999999000044030TRAQUEL                   DE LA PEÑA               RIOSERAS                  0000000071274098-LN
072004061999999000044029THELIODORO                BRIONGOS                 PEÑALBA                   0000000013031854-PN
072004061999999000036018TPATRICIA                 SANTIAGO                 GARCIA                    00000000          N
072004061999999000036017TARMANDO RAFAEL           VARO                     GONZALEZ                  00000000          N
072004061999999000036016TVICTOR MANUEL            LUCAS                    RANZ                      00000000          N
072004061999999000036015TGEMMA                    CANADELL                 BUSSO                     00000000          N
072004061999999000036014TMARIA CRISTINA           MAS                      ANDREU                    00000000          N
072004061999999000036013TJOSE                     COLLAZO                  CASTRO                    00000000          N
072004061999999000036012TELIA                     IRALA                    MARIN                     00000000          N
072004061999999000036011TMIGUEL ANGEL             ANDRADE                  PEREA                     00000000          N
072004061999999000036010TMIQUEL                   BLANCH                   SOLE                      00000000          N
072004061999999000036009TJULIO                    DIAZ                     DIAZ                      00000000          N
072004061999999000036008TVICTOR MANUEL            CABRAL                   RODRIGUEZ                 00000000          N
072004061999999000036007TCESAR ANTONIO            SERRANO                  AYUSO                     00000000          N
072004061999999000036006TRAQUEL                   PALENCIAS                CID                       00000000          N
072004061999999000036005TDIANA                    BAZO                     MORALES                   00000000          N
072004061999999000036004TDIEGO                    REJON                    BAYO                      00000000          N
072004061999999000036003TSEBASTIA                 SALELLAS                 MAGRET                    00000000          N
072004061999999000036002TMARIA ESTHER             DEL ALCAZAR              I FABREGAT                00000000          N
072004061999999000036001TCARMELO                  SUAREZ                   CABRERA                   00000000          N
072004061999999000041005TJUAN FRANCISCO           VALLS                    BROTONS                   00000000          N
072004061999999000041004TJOSE                     URRUTIA                  LANDA                     00000000          N
072004061999999000041003TCARLOS                   GALDEANO                 SOLER                     00000000          N
072004061999999000041002TJOSE                     MOREIRA                  GONZALEZ                  00000000          N
072004061999999000041001TMARIA TERESA             GOMEZ-LIMON              AMADOR                    00000000          N
072004061999999000042032TLUZ                      HERNAEZ                  HIERRO                    00000000          N
072004061999999000042031TIRENE                    LAPUERTA                 MENDEZ                    00000000          N
072004061999999000042030TFRANCISCO JAVIER         FERNANDEZ                MAÑANES                   00000000          N
072004061999999000042029TMARIA DEL CARMEN         MORENO                   PEREZ                     00000000          N
072004061999999000042028TMARTI                    GRAU                     SEGU                      00000000          N
072004061999999000042027TJUAN                     FRAILE                   CANTON                    00000000          N
072004061999999000042026TVICENTE MIGUEL           GARCES                   RAMON                     00000000          N
072004061999999000042025TMARIA                    SORNOSA                  MARTINEZ                  00000000          S
072004061999999000042024TMARIA ISABEL             SALINAS                  GARCIA                    00000000          S
072004061999999000042023TTERESA                   RIERA                    MADURELL                  00000000          S
072004061999999000042022TJAVIER                   MORENO                   SANCHEZ                   00000000          S
072004061999999000042021TROSA                     MIGUELEZ                 RAMOS                     00000000          S
072004061999999000042020TDAVID                    HAMMERSTEIN              MINTZ                     00000000          S
072004061999999000042019TMIGUEL ANGEL             MARTINEZ                 MARTINEZ                  00000000          S
072004061999999000042018TMARIA                    BADIA                    I CUTXET                  00000000          S
072004061999999000042017TANTONIO                  MASIP                    HIDALGO                   00000000          S
072004061999999000042016TALEJANDRO                CERCAS                   ALONSO                    00000000          S
072004061999999000042015TFRANCISCA                PLEGUEZUELOS             AGUILAR                   00000000          S
072004061999999000042014TJOAN                     CALABUIG                 RULL                      00000000          S
072004061999999000042013TIRATXE                   GARCIA                   PEREZ                     00000000          S
072004061999999000042012TANTOLIN                  SANCHEZ                  PRESEDO                   00000000          S
072004061999999000042011TEMILIO                   MENENDEZ                 DEL VALLE                 00000000          S
072004061999999000042010TINES                     AYALA                    SENDER                    00000000          S
072004061999999000042009TMANUEL                   MEDINA                   ORTEGA                    00000000          S
072004061999999000013005TJOAN                     VALLVE                   RIBERA                    00000000          N
072004061999999000013004TDANIEL                   ORTIZ                    LLARGUES                  00000000          N
072004061999999000013003TCAMILO                   NOGUEIRA                 ROMAN                     00000000          N
072004061999999000013002TJOSU                     ORTUONDO                 LARREA                    00000000          S
072004061999999000013001TIGNASI                   GUARDANS                 CAMBO                     00000000          S
072004061999999000019054TJOSE JAVIER              MEDINA                   MUÑOZ                     00000000          N
072004061999999000019053TJORDI                    BIGUES                   I BALCELLS                00000000          N
072004061999999000019052TMARIA ESTHER             REDONDO                  GALLEGO                   00000000          N
072004061999999000019051TRODRIGO ONESIMO          MACNAB                   COLLINS                   00000000          N
072004061999999000019050TMARIA ROSARIO            MATAIX                   VIVANCOS                  00000000          N
072004061999999000019049TMANUEL                   GIL                      SORIA                     00000000          N
072004061999999000019048TROSA MARIA               VALLS                    KOTCHOUMIAN               00000000          N
072004061999999000019047TANDRES                   RODRIGUEZ                VELLISCA                  00000000          N
072004061999999000019046TVICENTE                  SANCHO                   PAUNER                    00000000          N
072004061999999000019045TISMAEL                   AWADA                    ABBAS                     00000000          N
072004061999999000019044TLAURA FATIMA             CRIADO                   LOPEZ PICAZO              00000000          N
072004061999999000019043TMANUEL FELIX             HERNANDEZ                CERVIÑO                   00000000          N
072004061999999000019042TCARMEN                   COMPAÑY                  ESTEBAN                   00000000          N
072004061999999000019041TATANASIA                 ESCUDERO                 CLEMENTE                  00000000          N
072004061999999000019040TJOSE ANTONIO             CUESTA                   MARTI                     00000000          N
072004061999999000019039TMARIA ANGELES            MARTIN                   CARO                      00000000          N
072004061999999000019038TJORGE JUAN               MORANTE                  LOPEZ                     00000000          N
072004061999999000019037TMARIA ISABEL             CARRERAS                 RABASCO                   00000000          N
072004061999999000012046TMARINA                   MOYA                     ROLDAN                    00000000          N
072004061999999000012045TFRANCISCO MANUEL         FREIRE                   FERNANDEZ                 00000000          N
072004061999999000012044TMARIA REYES              CARDENAS                 OCAÑA                     00000000          N
072004061999999000012043TJOSE                     LOPEZ                    MONTERO                   00000000          N
072004061999999000012042TFRANCISCO                DACOSTA                  MARIN                     00000000          N
072004061999999000012041TRICARDO                  PEREZ                    ALVAREZ                   00000000          N
072004061999999000012040TGERMAN                   FERNANDEZ                GALLARDO                  00000000          N
072004061999999000012039TANTONIO                  VERDUGO                  FORNET                    00000000          N
072004061999999000012038TMARIA ROSA               VAZQUEZ                  MARIN                     00000000          N
072004061999999000012037TANTONIO                  BAUTISTA                 CORRALIZA                 00000000          N
072004061999999000012036TMANUEL                   FIGERAS                  CRUZ                      00000000          N
072004061999999000012035TCONCEPCION               DOMINGUEZ                TORREJON                  00000000          N
072004061999999000012034TMANUEL                   MARTINEZ                 LORENZO                   00000000          N
072004061999999000012033TANDRES                   ARTEAGA                  PAREJO                    00000000          N
072004061999999000012032TMANUEL MARIA             MARTINEZ                 GAVIRA                    00000000          N
072004061999999000012031TMANUEL                   JIMENEZ                  ALGORA                    00000000          N
072004061999999000012030TMARIA VICTORIA           DURAN                    MONTERO                   00000000          N
072004061999999000012029TJOSE ALBERTO             JARA                     RUIZ                      00000000          N
072004061999999000012028TISABEL                   ARENAS                   ESPINO                    00000000          N
072004061999999000012027TALBERTO                  PARISH                   LOPEZ                     00000000          N
072004061999999000012026TROSARIO                  RICO                     MORENO                    00000000          N
072004061999999000012025TALBERTO EDUARDO          SALAS                    CABALLERO                 00000000          N
072004061999999000012024TMARIA DEL CARMEN         FERNANDEZ                CONTRERAS                 00000000          N
072004061999999000001009TJAVIER                   CAÑO                     MORENO                    00000000          N
072004061999999000001008TMERCE                    PLANAGUMA                I OBRADORS                00000000          N
072004061999999000001007TMIGUEL                   MARTINEZ                 TOMEY                     00000000          N
072004061999999000001006TMARIA JOSE GUADALUPE     EIZMENDI                 APELLANIZ                 00000000          N
072004061999999000001005TJOSE ANTONIO             PINO                     BARRERA                   00000000          N
072004061999999000001004TJOSEP CARLES             IBAÑEZ                   I MARTI                   00000000          N
072004061999999000001003TJOSE MIGUEL              DIAZ                     CALVO                     00000000          N
072004061999999000001002TMIKEL                    IRUJO                    AMEZAGA                   00000000          N
072004061999999000001001TBERNAT                   JOAN                     I MARI                    00000000          S
072004061999999000011054TLAURA                    CALVO                    ESTAUN                    00000000          N
072004061999999000011053TJOSE MANUEL              VICENT                   SALOMO                    00000000          N
072004061999999000011052TALFREDO                  GOÑI                     MARTIN                    00000000          N
072004061999999000011051TCARMEN MARIA             GONZALEZ                 PIEDRA                    00000000          N
072004061999999000011050TMARIA ALBERTA            MARQUEZ                  FERNANDEZ                 00000000          N
072004061999999000011049TRICARDO                  ORDOÑEZ                  BARRENA                   00000000          N
072004061999999000011048TPEDRO MIGUEL             REBOLE                   MORENO                    00000000          N
072004061999999000011047TMAGDALENA                ESTRANY                  ESPADA                    00000000          N
072004061999999000011046TILDEFONSO                SALILLAS                 LACASA                    00000000          N
072004061999999000011045TROSA FINA                IBOR                     MARTINEZ                  00000000          N
072004061999999000011044TJOSE EDUARDO             RAMIREZ                  HERMOSO                   00000000          N
072004061999999000011043TMONICA                   MUÑOZ                    MELGAR                    00000000          N
072004061999999000011042TLUIS ANTONIO             GONZALEZ                 FERNANDEZ                 00000000          N
072004061999999000011041TMAXIMA                   GUTIERRO                 CUADRADO                  00000000          N
072004061999999000077031TGERMAN JOSE              PALLARDO                 ROCE                      00000000          N
072004061999999000077030TVICTOR                   MONTOYA                  CANDETE                   00000000          N
072004061999999000077029TJULIA BEATRIZ            GARCIA                   GIL                       00000000          N
072004061999999000077028TJAVIER                   MIRALLES                 GREILLEN                  00000000          N
072004061999999000077027TQUITERIA                 MUÑOZ                    INGLADA                   00000000          N
072004061999999000077026TLLUIS                    PLANELLS                 ALOS                      00000000          N
072004061999999000077025TJUAN ANTONIO             AVALOS                   MASO                      00000000          N
072004061999999000077024TMARTA                    MARTIR                   REQUENA                   00000000          N
072004061999999000077023TMARIA LUISA              MARTIN                   NAVARRO                   00000000          N
072004061999999000077022TJOAN VICENT              MARTINEZ                 RAMADA                    00000000          N
072004061999999000077021TRAUL                     MONTAGUT                 RUIZ                      00000000          N
072004061999999000077020TSERGIO                   NAVARRO                  GIMENEZ                   00000000          N
072004061999999000077019TSARA                     SABATER                  GONZALEZ                  00000000          N
072004061999999000077018TFRANCISCO JOSE           CALABUIG                 MOLLA                     00000000          N
072004061999999000077017TMARIA CARMEZ             PASTOR                   RUIZ                      00000000          N
072004061999999000077016TMARIA ELENA              TORRE                    FERNANDEZ                 00000000          N
072004061999999000077015TMARIA VICENTA            ROMERO                   LEON                      00000000          N
072004061999999000077014TMARIA JESUS              SANMIGEL                 SANPEDRO                  00000000          N
072004061999999000077013TMARIA TERESA             CABO                     NAVARRO                   00000000          N
072004061999999000077012TJOSE JULIAN              SANCHEZ                  SANCHEZ                   00000000          N
072004061999999000077011TFERNANDO JOSE            SAEZ                     GONZALEZ                  00000000          N
072004061999999000077010TJOSE DANIEL              TORRES                   BENEIT                    00000000          N
072004061999999000077009TCHES                     MOLINA                   LARA                      00000000          N
072004061999999000060039TPORFIRIO JOSE            RODRIGUEZ                GUTIERREZ                 00000000          N
072004061999999000060038TJOSE                     GONZALEZ                 LUENGO                    00000000          N
072004061999999000060037TVICENTE                  FONTANILLO               FONTANILLO                00000000          N
072004061999999000060036TSANTOS                   BENAVIDES                GONZALEZ                  00000000          N
072004061999999000060035TSEBASTIAN                DOMINGUEZ                ROLDAN                    00000000          N
072004061999999000060034TLUISA                    PEREZ                    PASTOR                    00000000          N
072004061999999000060033TCASIMIRO                 CRESPO                   COUSELO                   00000000          N
072004061999999000060032TFABIOLA MARIA MERCEDES   GONZALEZ                 MUÑIZ                     00000000          N
072004061999999000060031TSALVADOR                 SERRANO                  NISTAL                    00000000          N
072004061999999000060030TMARIA CARMEN             CENTENO                  FERNANDEZ                 00000000          N
072004061999999000060029TARCADIO                  LORENZO                  TORRES                    00000000          N
072004061999999000060028TTERESITA LORETO          ALVAREZ                  PEREZ                     00000000          N
072004061999999000060027TJOSE VENTURA             ALFONSO                  RODRIGUEZ                 00000000          N
072004061999999000060026TANA MARIA                LLAMAZARES               GONZALEZ                  00000000          N
072004061999999000060025TVALERIANO                SUTIL                    ALVAREZ                   00000000          N
072004061999999000060024TBEGOÑA                   MATEO                    LORENZO                   00000000          N
072004061999999000060023TFELIPE                   PRIETO                   ARENAL                    00000000          N
072004061999999000060022TISIDORO                  GOMEZ                    IGLESIAS                  00000000          N
072004061999999000060021TJOSE ANTONIO             SILVAN                   DE LA TORRE               00000000          N
072004061999999000060020TJOSEFA                   GONZALEZ                 CENTENO                   00000000          N
072004061999999000060019TMIGUEL ANGEL             LOPEZ                    VALLE                     00000000          N
072004061999999000060018TTOMAS                    SAN DAMASO               SANCHEZ                   00000000          N
072004061999999000059033TABRAHAN                  ALONSO                   PINO                      00000000          N
072004061999999000059032TCARMEN MARIA             CAMPO                    MARTINEZ                  00000000          N
072004061999999000059031TRAMIRO                   VIDAL                    ALVARIÑO                  00000000          N
072004061999999000059030TGEMMA MARIA              BLANCO                   MARTINEZ                  00000000          N
072004061999999000059029TRODOLFO                  FERNANDEZ                VAZQUEZ                   00000000          N
072004061999999000059028TMARIA PILAR              VEIGA                    RODRIGUEZ                 00000000          N
072004061999999000059027TANXO XOSE                RODRIGUEZ                MERAYO                    00000000          N
072004061999999000059026TMARIA MICAELA            SANCHEZ                  GARCIA                    00000000          N
072004061999999000059025TIÑIGO                    ANSOTEGUI                SUAREZ                    00000000          N
072004061999999000059024TIRIA MARIA               LEIS                     FIGUEROA                  00000000          N
072004061999999000059023TALBERTO                  VALIÑO                   MARTINEZ                  00000000          N
072004061999999000059022TSHEILA                   FERNANDEZ                MIGUEZ                    00000000          N
072004061999999000059021TAFONSO                   MENDEZ                   SOUTO                     00000000          N
072004061999999000059020TSALVIA                   LOIS                     LUGILDE                   00000000          N
072004061999999000059019TEDUARDO XESUS            SANCHEZ                  MARAGOTO                  00000000          N
072004061999999000059018TPATRICIA                 SUAREZ                   SAYANS                    00000000          N
072004061999999000059017TBREIXO                   FORMOSO                  LOPEZ                     00000000          N
072004061999999000059016TNOELIA                   FERNANDEZ                MARQUES                   00000000          N
072004061999999000059015TMANUEL                   CAAMAÑO                  AÑON                      00000000          N
072004061999999000059014TMARIA BEATRIZ            PEREZ                    VIEITEZ                   00000000          N
072004061999999000059013TPAULO                    RICO                     PAINCEIRAS                00000000          N
072004061999999000059012TANA BERTA                LOPEZ                    PERMUY                    00000000          N
072004061999999000059011THENRIQUE XESUS           DEL BOSQUE               ZAPATA                    00000000          N
072004061999999000057019TCONSOLACION              SANCHEZ                  ROSON                     00000000          N
072004061999999000057018TFRANCISCO                COSA                     GARCIA                    00000000          N
072004061999999000057017TPABLO                    GONZALEZ                 ALONSO                    00000000          N
072004061999999000057016TFELIPE                   HUERTA                   SEIBANE                   00000000          N
072004061999999000057015TTOMAS                    CASAS                    PALANCAR                  00000000          N
072004061999999000057014TMARIA CARMEN             CANO                     RUIZ                      00000000          N
072004061999999000057013TJUANI                    CAPARROZ                 PULIDO                    00000000          N
072004061999999000057012TMARIA                    DE ARIZA                 CASTRO                    00000000          N
072004061999999000057011TMARIA MAR                BARANDA                  DOMINGUEZ                 00000000          N
072004061999999000057010TCESAR                    IGLESIAS                 APARICIO                  00000000          N
072004061999999000057009TMANUEL                   DE LA ROCHA              RODRIGUEZ                 00000000          N
072004061999999000057008TROMAN                    PEÑAS                    RODRIGUEZ                 00000000          N
072004061999999000057007TNANCY PATRICIA           UNTIVEROS                LAM                       00000000          N
072004061999999000057006TMARIA JOSEFA             IÑIGO                    RODRIGUEZ                 00000000          N
072004061999999000057005TANGEL                    BENEITEZ                 FERNANDEZ                 00000000          N
072004061999999000057004TFRANCISCO DE ASIS        PASTOR                   SAN JOSE                  00000000          N
072004061999999000057003TANTONIO                  LOPEZ                    ORTIZ                     00000000          N
072004061999999000057002TMARIA ANGELES            BENEITEZ                 TOLEDO                    00000000          N
072004061999999000057001TFRANCISCO JOSE           ALONSO                   RODRIGUEZ                 00000000          N
072004061999999000058054TTXOMEKA                  ITURRALDE                ESCAMEZ                   00000000          N
072004061999999000058053TFERNANDO                 CANTON                   RAMIREZ                   00000000          N
072004061999999000058052TLUIS                     VIZCAINO                 MARTINEZ                  00000000          N
072004061999999000058051TCONCEPCION               TINTE                    ARRIBAS                   00000000          N
072004061999999000047008TMARTA                    MARTIN                   CABRERO                   00000000          N
072004061999999000047007TMIGUEL                   RELAÑO                   MATA                      00000000          N
072004061999999000047006TMARIA PAZ                ARAUJO                   ROMERO                    00000000          N
072004061999999000047005TMANUEL                   ONTAÑON                  CARRERA                   00000000          N
072004061999999000047004TMANUEL                   MEDINA                   FERNANDEZ                 00000000          N
072004061999999000047003TNATALIA                  JORQUERA                 GIL                       00000000          N
072004061999999000047002TALVARO                   POZO                     SANCHEZ                   00000000          N
072004061999999000047001TANTONIO ARTURO           SIEIRA                   MUCIENTES                 00000000          N
072004061999999000056054TJULIA                    DE JODAR                 MUÑOZ                     00000000          N
072004061999999000056053TCARLES                   CASTELLANOS              LLORENS                   00000000          N
072004061999999000056052TJODI                     PUIG                     PANELLA                   00000000          N
072004061999999000056051TJOSEP ANTONI             VILALTA                  COLETES                   00000000          N
072004061999999000056050TVICENT                   HERNANDEZ                FONTANELLA                00000000          N
072004061999999000056049TCARLES                   BELDA                    VALLS                     00000000          N
072004061999999000056048TANTONI MANUEL            INFANTE                  PEREZ                     00000000          N
072004061999999000056047TDAVID                    MARTINEZ                 SALA                      00000000          N
072004061999999000056046TJAUME                    PONSA                    PEÑA                      00000000          N
072004061999999000056045TANTONI                   SOLSONA                  DELGADO                   00000000          N
072004061999999000056044TABEL                     CALDERA                  PUJOLS                    00000000          N
072004061999999000056043TENRIC                    BORRAS                   ABELLO                    00000000          N
072004061999999000056042TJORDI                    ROIG                     TOLRA                     00000000          N
072004061999999000056041TXAVIER                   PUIGBO                   MORERA                    00000000          N
072004061999999000056040TMERCE                    MASES                    OLIVA                     00000000          N
072004061999999000056039TANTONI                   FERNANDEZ                DOMENE                    00000000          N
072004061999999000068023TMARIA                    IRUÑA CORMENZANA         LOPEZ                     00000000          N
072004061999999000068022TMATIAS                   PALAU                    SANAHUJA                  00000000          N
072004061999999000068021TMARIA DE LOS ANGELES     FERNANDEZ CEBALLOS       CARRANZA                  00000000          N
072004061999999000068020TMARIA PILAR              GANUZA                   PORTILLO                  00000000          N
072004061999999000068019TLUIS                     GISMERO                  HINOJAL                   00000000          N
072004061999999000068018TMARIA VICTORIA           SALINAS                  ARTETA                    00000000          N
072004061999999000068017TMARIA DOLORES            ARRIOLA                  LACRUZ                    00000000          N
072004061999999000068016TMAITASUN                 TOJA                     GARAMENDI                 00000000          N
072004061999999000068015TILDEFONSO JOSE MARIA     PORRO                    SAINZ                     00000000          N
072004061999999000068014TMANUEL                   HERRERA                  BRAVO                     00000000          N
072004061999999000068013TJOSE MIGUEL              GOMEZ                    TUTOR                     00000000          N
072004061999999000068012TAMANDA                   CAÑADA                   SANTOS                    00000000          N
072004061999999000068011TCARLOS MARIA             ISERN                    ANGLADA                   00000000          N
072004061999999000068010TJAVIER                   CUBERO                   VICENTE                   00000000          N
072004061999999000068009TERNESTO                  PEREZ                    GORMAZ                    00000000          N
072004061999999000068008TJUAN JOSE                ZABALA                   IJURCO                    00000000          N
072004061999999000068007TFRANCISCO                LODEIRO                  RODRIGUEZ                 00000000          N
072004061999999000068006TJOSE MARIA               TERCERO                  PEREZ                     00000000          N
072004061999999000068005TMANUEL                   REGO                     NIETO                     00000000          N
072004061999999000068004TJOSE ANGEL               PEREZ-NIEVAS             ABASCAL                   00000000          N
072004061999999000068003TFERNANDO                 LUCAS                    ZARAGOZA                  00000000          N
072004061999999000068002TFRANCISCO                VENTURA                  SANJUAN                   00000000          N
072004061999999000064004TFRANCISCO JAVIER         JIMENEZ                  GOMEZ                     00000000          N
072004061999999000064003TPURIFICACION             GARCIA-MONCO             CARRA                     00000000          N
072004061999999000064002TMARIA ANTONIETA          CASANUEVA                LLAGUNO                   00000000          N
072004061999999000064001TIÑIGO                    COELLO DE PORTUGAL       MARTINEZ DEL PERAL        00000000          N
072004061999999000064054TFRANCISCO                CALANDRA                 REULA                     00000000          N
072004061999999000064053TIGNASI                   CABANAS                  CASTELLS                  00000000          N
072004061999999000064052TMARIA NATIVIDAD          PINA                     LEDESMA                   00000000          N
072004061999999000067054TMIGUEL                   HEDILLA                  DE ROJAS                  00000000          N
072004061999999000067053TJOSE LUIS                GONZALEZ                 TEJADA                    00000000          N
072004061999999000067052TFERNANDO JESUS           LARA                     DE VICENTE                00000000          N
072004061999999000067051TJUAN RAMON               TRILLO                   VILLAR                    00000000          N
072004061999999000067050TEMILIO                   SANCHEZ                  VERA                      00000000          N
072004061999999000067049TLUIS MANUEL              SARRIO                   LLEDO                     00000000          N
072004061999999000067048TFRANCISCO JOSE           JUEZ                     BARJOLA                   00000000          N
072004061999999000067047TJOSE LUIS                GIL                      DAMIAN                    00000000          N
072004061999999000067046TCARMELO                  GARCIA                   DEL CASTILLO              00000000          N
072004061999999000067045TJUAN AGUSTIN             FERRER                   FLORES                    00000000          N
072004061999999000067044TJUAN                     JUEZ                     TORIBIO                   00000000          N
072004061999999000067043TRAFAEL                   SARANDESES FERNANDEZ     SANTA EULALIA             00000000          N
072004061999999000067042TJOSE CARLOS PATRICIO     VAZQUEZ                  PEREZ                     00000000          N
072004061999999000067041TRODRIGO                  NAVARRO                  DIAZ                      00000000          N
072004061999999000067040TJUAN MIGUEL              MORENO                   APARICIO                  00000000          N
072004061999999000046047TMARIA AMPARO             REQUENA                  BUCH                      00000000          N
072004061999999000046046TMONTSERRAT               SAMPER                   ALTISENT                  00000000          N
072004061999999000046045TMARIA DE LOS ANGELES     FERNANDEZ                GONZALEZ                  00000000          N
072004061999999000046044TENCARNACION              ESCRIBANO                MARTINEZ                  00000000          N
072004061999999000046043TMARIA LUISA              GARCIA RIVA              VALLIER                   00000000          N
072004061999999000046042TLUISA                    OLIVARES                 MANJON                    00000000          N
072004061999999000046041TRAQUEL                   MARTINEZ                 RAJA                      00000000          N
072004061999999000046040TMARIA JOSE               GALLARDO                 CHICA                     00000000          N
072004061999999000046039TMARIA ANTONIA            SANZ                     ROMERA                    00000000          N
072004061999999000046038TMARIA JESUS              GARCIA                   FERNANDEZ                 00000000          N
072004061999999000046037TANTONIO                  GIL                      SABARIEGO                 00000000          N
072004061999999000046036TSILVANA DEL ROCIO        ORTIZ                    DE NICOLA                 00000000          N
072004061999999000046035TFRANCISCO JAVIER         ALMIDA                   PORRAS                    00000000          N
072004061999999000046034TSARA MERCED              TAJUELO                  SERRANO                   00000000          N
072004061999999000046033TALFONSO                  HERNANDEZ                ALONSO                    00000000          N
072004061999999000046032TMARIA DEL SAGRARIO       TEJEDOR                  TEJEDOR                   00000000          N
072004061999999000046031TISMAEL                   CABRERIZO                CEBRIAN                   00000000          N
072004061999999000046030TVIRGINIA                 LOPEZ                    LOPEZ                     00000000          N
072004061999999000046029TSIMON                    RODRIGUEZ                MACIA                     00000000          N
072004061999999000046028TMARYVONNE ESTELA         HERRERO                  LE LAY                    00000000          N
072004061999999000046027TFRANCISCO ALBERTO        MORAGO                   GARCIA                    00000000          N
072004061999999000046026TMARIA ALICIA             ALEJANDRE                LORENZO                   00000000          N
072004061999999000044028TCRISTINA                 GOMEZ                    RODRIGUEZ                 0000000013155731-FN
072004061999999000044027TALFONSO                  PADILLA                  IGLESIA                   0000000013124839-GN
072004061999999000044026TELENA                    RUIZ                     BARTOLOME                 0000000071265896-MN
072004061999999000044025TJOSE MARIA               AGÜERO                   UYARRA                    0000000013119577-DN
072004061999999000044024TMARIA ELENA              MORENO                   VELASCO                   0000000013165155-RN
072004061999999000044023TFRANCISCO                CARRASCO                 DELGADO-AGUILERA          0000000005795013-WN
072004061999999000044022TMANUEL ALBERTO           DUQUE                    MARTIN                    0000000003469305-PN
072004061999999000044021TMARIA SOLEDAD            GONZALEZ                 SANZ                      0000000071260150-DN
072004061999999000044020TDOLORES                  QUIJADA                  FERNANDEZ                 0000000014866705-BN
072004061999999000044019TVICENTE                  OLMO                     GIJON                     0000000005856969-LN
