02201904000003AHORA CANAR                                       AHORA CANARIAS: Alternativa Nacionalista Canaria A                                                                                                    000003000003000003
02201904000004ANDECHA AST                                       ANDECHA ASTUR                                                                                                                                         000004000004000004
02201904000006ARA-MES-ESQ                                       Veus PROGRESSISTES                                                                                                                                    000006000006000006
02201904000009AVANT ADELA                                       AVANT ADELANTE LOS VERDES                                                                                                                             000009000009000009
02201904000010AVANT-LOS V                                       LOS VERDES ECOPACIFISTAS ADELANTE                                                                                                                     000010000009000009
02201904000011AxSI                                              ANDALUCÍA POR SÍ                                                                                                                                      000011000011000011
02201904000012BNG                                               BLOQUE NACIONALISTA GALEGO                                                                                                                            000012000012000012
02201904000013C 21                                              CONVERXENCIA 21                                                                                                                                       000013000013000013
02201904000015CCa-PNC                                           COALICION CANARIA-PARTIDO NACIONALISTA CANARIO                                                                                                        000015000015000015
02201904000016centrados                                         CENTRADOS                                                                                                                                             000016000016000016
02201904000017C.Ex-C.R.Ex                                       EXTREMEÑOS PREX CREX                                                                                                                                  000017000017000017
02201904000018CILU-LINARE                                       CIUDADANOS INDEPENDIENTES DE LINARES UNIDOS                                                                                                           000018000018000018
02201904000019CNV                                               CONVERGENTS                                                                                                                                           000019000019000019
02201904000020COMPROMÍS 2                                       COMPROMÍS: BLOC-INICIATIVA-VERDSEQUO                                                                                                                  000020000020000020
02201904000021CpM                                               COALICION POR MELILLA                                                                                                                                 000021000021000021
02201904000022Cs                                                CIUDADANOS-PARTIDO DE LA CIUDADANÍA                                                                                                                   000022000022000022
02201904000023Cs                                                CIUTADANS-PARTIDO DE LA CIUDADANÍA                                                                                                                    000023000022000022
02201904000024CxG                                               COMPROMISO POR GALICIA                                                                                                                                000024000024000024
02201904000025DP                                                DEFENSA DE LO PÚBLICO                                                                                                                                 000025000025000025
02201904000026DPL                                               DEMOCRACIA PLURAL                                                                                                                                     000026000026000026
02201904000027EAJ-PNV                                           EUZKO ALDERDI JELTZALEA-PARTIDO NACIONALISTA VASCO                                                                                                    000027000027000027
02201904000028EB                                                ESCAÑOS EN BLANCO                                                                                                                                     000028000028000028
02201904000029EB                                                ESCAÑOS EN BLANCO-AULKI ZURIAK                                                                                                                        000029000029000028
02201904000030EB                                                ESCANOS EN BRANCO                                                                                                                                     000030000030000028
02201904000032ECP-GUANYEM                                       EN COMÚ PODEM - GUANYEM EL CANVI                                                                                                                      000032000032000032
02201904000033EH Bildu                                          EUSKAL HERRIA BILDU                                                                                                                                   000033000033000033
02201904000034ELAK/PCTE                                         EUSKADIKO LANGILEEN ALDERDI KOMUNISTA/PARTIDO COMU                                                                                                    000034000067000066
02201904000035EL PI                                             EL PI - PROPOSTA PER LES ILLES BALEARS                                                                                                                000035000035000035
02201904000036EN MAREA                                          EN MAREA                                                                                                                                              000036000036000036
02201904000037ERC-SOBIRAN                                       ESQUERRA REPUBLICANA DE CATALUNYA-SOBIRANISTES                                                                                                        000037000037000037
02201904000038ERPV                                              ESQUERRA REPUBLICANA DEL PAÍS VALENCIÀ                                                                                                                000038000038000038
02201904000039F8                                                FEMINISM8                                                                                                                                             000039000039000039
02201904000040FE de las J                                       FALANGE ESPAÑOLA DE LAS JONS                                                                                                                          000040000040000040
02201904000041FIA                                               FEDERACION DE LOS INDEPENDIENTES DE ARAGON                                                                                                            000041000041000041
02201904000042FRONT REPUB                                       POBLE LLIURE - SOM ALTERNATIVA - PIRATES DE CATALU                                                                                                    000042000042000042
02201904000043GBAI                                              GEROA BAI                                                                                                                                             000043000043000043
02201904000044IZAR                                              IZQUIERDA ANTICAPITALISTA REVOLUCIONARIA                                                                                                              000044000044000044
02201904000045IZQP                                              IZQUIERDA EN POSITIVO                                                                                                                                 000045000045000045
02201904000047"JF"                                              PARTIDO DE JUBILADOS POR EL FUTURO. DIGNIDAD Y DEM                                                                                                    000047000047000047
02201904000049JxCAT-JUNTS                                       JUNTS PER CATALUNYA-JUNTS                                                                                                                             000049000049000049
02201904000050+MAS+                                             MUERTE AL SISTEMA                                                                                                                                     000050000050000050
02201904000052NA+                                               NAVARRA SUMA                                                                                                                                          000052000052000052
02201904000053NCa                                               NUEVA CANARIAS                                                                                                                                        000053000053000053
02201904000054PACMA                                             PARTIDO ANIMALISTA CONTRA EL MALTRATO ANIMAL                                                                                                          000054000054000054
02201904000055PACMA                                             PARTIT ANIMALISTA CONTRA EL MALTRACTAMENT ANIMAL                                                                                                      000055000054000054
02201904000056PACT                                              ACTÚA                                                                                                                                                 000056000056000056
02201904000057PCOE                                              PARTIDO COMUNISTA OBRERO ESPAÑOL                                                                                                                      000057000057000057
02201904000058PCPA                                              PARTIDO COMUNISTA DEL PUEBLO ANDALUZ                                                                                                                  000058000058000058
02201904000060PCPC                                              PARTIDO COMUNISTA DEL PUEBLO CANARIO                                                                                                                  000060000060000063
02201904000061PCPC                                              PARTIT COMUNISTA DEL POBLE DE CATALUNYA                                                                                                               000061000061000061
02201904000063PCPE                                              PARTIDO COMUNISTA DE LOS PUEBLOS DE ESPAÑA                                                                                                            000063000063000063
02201904000064PCPE                                              PARTIT COMUNISTA DELS POBLES D'ESPANYA                                                                                                                000064000063000063
02201904000065PCTC                                              PARTIT COMUNISTA DELS TREBALLADORS DE CATALUNYA                                                                                                       000065000065000066
02201904000066PCTE                                              PARTIDO COMUNISTA DE LOS TRABAJADORES DE ESPAÑA                                                                                                       000066000066000066
02201904000067PCTE/ELAK                                         PARTIDO COMUNISTA DE LOS TRABAJADORES DE EUSKADI/E                                                                                                    000067000067000066
02201904000068PCTG                                              PARTIDO COMUNISTA DOS TRABALLADORES DE GALIZA                                                                                                         000068000068000066
02201904000069PDSJE-UDEC                                        PARTIDO DEMÓCRATA SOCIAL JUBILADOS EUROPEOS - UNID                                                                                                    000069000069000069
02201904000072PH                                                PARTIDO HUMANISTA                                                                                                                                     000072000072000072
02201904000073P-LIB                                             PARTIDO LIBERTARIO                                                                                                                                    000073000073000073
02201904000074PODEMOS-EUI                                       UNIDAS PODEMOS-UNIDES PODEM                                                                                                                           000074000074000077
02201904000075PODEMOS-EU-                                       EN COMÚN-UNIDAS PODEMOS                                                                                                                               000075000075000075
02201904000076PODEMOS-EUP                                       UNIDAS PODEMOS                                                                                                                                        000076000076000077
02201904000077PODEMOS-IU-                                       UNIDAS PODEMOS                                                                                                                                        000077000077000077
02201904000078PODEMOS-IU-                                       UNIDAS PODEMOS-ALTOARAGÓN EN COMÚN                                                                                                                    000078000077000077
02201904000079PODEMOS-IU-                                       UNIDAS PODEMOS                                                                                                                                        000079000079000077
02201904000080PODEMOS-IU-                                       ELKARREKIN PODEMOS-UNIDAS PODEMOS                                                                                                                     000080000080000077
02201904000081PODEMOS-IU                                        UNIDAS PODEMOS                                                                                                                                        000081000081000077
02201904000082PODEMOS-IX-                                       UNIDAS PODEMOS-XUNIES PODEMOS                                                                                                                         000082000082000077
02201904000083PP                                                PARTIDO POPULAR                                                                                                                                       000083000083000083
02201904000084PP                                                PARTIDO POPULAR/PARTIT POPULAR                                                                                                                        000084000083000083
02201904000085PP                                                PARTIT POPULAR-PARTIDO POPULAR                                                                                                                        000085000083000083
02201904000086PP-FORO                                           PARTIDO POPULAR - FORO                                                                                                                                000086000086000083
02201904000088PPSO                                              PLATAFORMA DEL PUEBLO SORIANO                                                                                                                         000088000088000088
02201904000089PR+                                               PARTIDO RIOJANO                                                                                                                                       000089000089000089
02201904000090PRC                                               PARTIDO REGIONALISTA DE CANTABRIA                                                                                                                     000090000090000090
02201904000091PREPAL                                            PARTIDO REGIONALISTA DEL PAIS LEONES                                                                                                                  000091000091000091
02201904000092PSC                                               PARTIT DELS SOCIALISTES DE CATALUNYA (PSC-PSOE)                                                                                                       000092000092000096
02201904000093PSdeG-PSOE                                        PARTIDO DOS SOCIALISTAS DE GALICIA-PARTIDO SOCIALI                                                                                                    000093000093000096
02201904000094PSE-EE (PSO                                       PARTIDO SOCIALISTA DE EUSKADI-EUSKADIKO EZKERRA (P                                                                                                    000094000094000096
02201904000096PSOE                                              PARTIDO SOCIALISTA OBRERO ESPAÑOL                                                                                                                     000096000096000096
02201904000097PSOE                                              PARTIT SOCIALISTA OBRER ESPANYOL                                                                                                                      000097000097000096
02201904000098PUM+J                                             PER UN MÓN MÉS JUST                                                                                                                                   000098000098000100
02201904000100PUM+J                                             POR UN MUNDO MÁS JUSTO                                                                                                                                000100000100000100
02201904000101PUM+J                                             POR UN MUNDO MÁS JUSTO (BIDEZKO MUNDURANTZ)                                                                                                           000101000100000100
02201904000103PYLN                                              PUYALON                                                                                                                                               000103000103000103
02201904000104RECORTES CE                                       RECORTES CERO-GRUPO VERDE                                                                                                                             000104000104000104
02201904000105RECORTES CE                                       RECORTES CERO-GRUPO VERDE-PARTIDO CASTELLANO-TIERR                                                                                                    000105000105000104
02201904000106RISA                                              PARTIDO REPUBLICANO INDEPENDIENTE SOLIDARIO ANDALU                                                                                                    000106000106000106
02201904000107SOLIDARIA                                         PARTIDO DE ACCIÓN SOLIDARIA EUROPEA                                                                                                                   000107000107000107
02201904000108SOMOS REGIÓ                                       SOMOS REGIÓN                                                                                                                                          000108000108000108
02201904000109UDT                                               UNIÓN DE TODOS                                                                                                                                        000109000109000109
02201904000110UIG-SOM-CUI                                       SOM VALENCIANS EN MOVIMENT                                                                                                                            000110000110000110
02201904000112UNIÓN REGIO                                       UNIÓN REGIONALISTA DE CASTILLA Y LEÓN                                                                                                                 000112000112000112
02201904000116VOU                                               VIVIR OURENSE                                                                                                                                         000116000116000116
02201904000117VOX                                               VOX                                                                                                                                                   000117000117000117
