032004031049015000001015TSERAFIN                  MALDONADO                GARCIA                    00000000          N
032004031049025000002025TGLORIA MARIA             GAGO                     VAZQUEZ                   00000000          N
032004031049026000002026TJUAN LUIS                PARIS                    SORIA                     00000000          N
032004031049027000002027TANTONIO                  TIJERAS                  PASTOR                    00000000          N
032004031049004000024004TJUAN ANTONIO             RODRIGUEZ                GILABERT                  00000000          N
032004031049019000032019TALEJANDRO                AGUIRRE                  GONZALEZ                  00000000          N
032004031049023000049023TJOSE EDUARDO             MOROTE                   VILLENA                   00000000          N
032004031049020000053020TSAUL JUAN                GARRIDO                  AGUILERA                  00000000          N
032004031049021000053021TFRANCISCO JOSE           LOPEZ                    SANCHEZ                   00000000          N
032004031049022000053022TFRANCISCO JESUS          RODRIGUEZ                TEMBLADOR                 00000000          N
032004031049009000077009TCONCEPCION               MARQUEZ                  FERNANDEZ                 00000000          N
032004031049010000077010TGINES JESUS              PARRA                    CORDOBA                   00000000          N
032004031049011000077011TDAMASO                   VISIEDO                  BALASTEGUI                00000000          N
032004031049001000098001TASCENSION                ARCAS                    GARCIA                    00000000          N
032004031049002000098002TJOSE LUIS                ARTERO                   GARCIA                    00000000          N
032004031049003000098003TFERNANDO MANUEL          DE LA TORRE              RODRIGUEZ                 00000000          N
032004031049024000101024TANTONIO JESUS            MARTIN                   AGUILERA                  00000000          N
032004031049018000111018TFRANCISCA                LOPEZ                    MARTINEZ                  00000000          N
032004031049005000117005TESPERANZA                ROBLEDO                  GOMEZ                     00000000          N
032004031049029000118029TROCIO                    GOMEZ                    PEREZ                     00000000          N
032004031049030000118030TEMILIA CARMEN            ROJAS                    BARRIGA                   00000000          N
032004031049028000128028TVIRGINIA                 RODRIGUEZ                CERDA                     00000000          N
032004031049012000130012TMARIA DEL MAR            AGÜERO                   RUANO                     00000000          S
032004031049013000130013TJOSE LUIS                AGUILAR                  GALLART                   00000000          N
032004031049014000130014TMARIA DEL CARMEN         NAVARRO                  CRUZ                      00000000          N
032004031049016000138016TEMILIO                   CRUZ                     MATILLA                   00000000          N
032004031049017000138017TJUAN DIEGO               DUEÑAS                   GARCIA                    00000000          N
032004031049006000146006TDIEGO MIGUEL             ASENSIO                  MARTINEZ                  00000000          S
032004031049007000146007TENCARNACION              IBAÑEZ                   VAZQUEZ                   00000000          S
032004031049008000146008TJUAN MIGUEL              PEÑA                     LINARES                   00000000          S
032004031119030000001030TCARLOS                   MENA                     ESPINOSA                  00000000          N
032004031119016000032016TJOSE MARIA               PEREZ                    BELTRAN                   00000000          N
032004031119023000049023TCARLOS                   GRIJALBO                 DE CABO                   00000000          N
032004031119001000052001TMARIA JESUS              JIMENEZ                  BRAZA                     00000000          N
032004031119008000053008TRAFAEL ANDRES            GALERA                   LOPEZ                     00000000          N
032004031119009000053009TDOMINGO                  BAREA                    LAINEZ                    00000000          N
032004031119010000053010TJOSE MARIA               SANCHEZ                  REGUEIRA                  00000000          N
032004031119022000067022TFRANCISCO JESUS          CEBALLOS                 MENDEZ                    00000000          N
032004031119018000077018TRAMON                    GUTIERREZ                TOSCANO                   00000000          N
032004031119019000077019TMARIA PURIFICACION       FERNANDEZ                SEVILLA                   00000000          N
032004031119020000077020TMIGUEL ANGEL             LOPEZ                    LOPEZ                     00000000          N
032004031119005000098005TCANDIDO JUAN             CARO                     AGUILAR                   00000000          N
032004031119006000098006TMARIA DEL CARMEN         GARCIA                   CARO                      00000000          N
032004031119007000098007TMARIA JOSE               MARTIN                   GUZMAN                    00000000          N
032004031119017000099017TMARIA NIEVES             ORELLANA                 DE MOLINA                 00000000          N
032004031119021000118021TFRANCISCO JAVIER         ROJAS                    CRUZ                      00000000          N
032004031119014000128014TCARLOS                   OSSET                    WUPPER                    00000000          N
032004031119015000128015TMANUEL                   DIAZ                     SUAREZ                    00000000          N
032004031119024000130024TJOSE BLAS                FERNANDEZ                SANCHEZ                   00000000          S
032004031119025000130025TJOSE IGNACIO             LANDALUCE                CALLEJA                   00000000          N
032004031119026000130026TLAURA                    SECO                     MORENO                    00000000          N
032004031119031000133031TANTONIO                  DOMINGUEZ                MONFILLO                  00000000          N
032004031119032000133032TNORBERTO RAMON           GOMEZ                    MONTES                    00000000          N
032004031119027000138027TMARIA ROSA               BAUTISTA                 GUERRA                    00000000          N
032004031119028000138028TMATEO                    HINOJO                   OLMEDO                    00000000          N
032004031119029000138029TJACQUELINE               MILLAN                   LORENZO                   00000000          N
032004031119002000146002TJOSE                     CARRACAO                 GUTIERREZ                 00000000          S
032004031119003000146003TMARIA JESUS              CASTRO                   MATEOS                    00000000          S
032004031119004000146004TANA MARIA                CHACON                   CARRETERO                 00000000          S
032004031119011000150011TJOSE                     GIL                      GOMEZ                     00000000          N
032004031119012000150012TLUIS ANTONIO             GIL-GUIJARRO             REDONDO                   00000000          N
032004031119013000150013TFRANCISCO                MOLINERO                 VELASCO                   00000000          N
032004031149030000001030TMANUEL                   MAESTRE                  BARRANCO                  00000000          N
032004031149031000001031TLOURDES                  PRIEGO                   URBANO                    00000000          N
032004031149032000001032TANTONIO                  ZURERA                   CAÑADILLAS                00000000          N
032004031149010000016010TEMILIO                   PEDROSA                  RUIZ                      00000000          N
032004031149023000024023TJUANA                    CASADO                   CARMONA                   00000000          N
032004031149024000024024TAMPARO                   DELGADO                  PEREZ                     00000000          N
032004031149014000032014TALFONSO CARLOS           GARZON                   MERGELINA                 00000000          N
032004031149015000032015TCARLOS JAVIER            MIRONES                  VITINI                    00000000          N
032004031149002000049002TFERNANDO JESUS           LARA                     DE VICENTE                00000000          N
032004031149011000053011TANTONIO                  GARCIA                   SOTO                      00000000          N
032004031149012000053012TJORGE                    HERNANDEZ                SANCHEZ                   00000000          N
032004031149013000053013TMAXIMILIANO              SALAS                    MELGUIZO                  00000000          N
032004031149036000067036TJUAN IGNACIO ADRIAN      JIMENEZ VELASCO          MAZARIO                   00000000          N
032004031149027000077027TFRANCISCO JAVIER         ALTAMIRANO               SANCHEZ                   00000000          N
032004031149028000077028TISABEL                   AMIL                     CASTILLO                  00000000          N
032004031149029000077029TRAFAEL                   MUÑOZ                    RAMIREZ                   00000000          N
032004031149016000096016TANTONIO JOSE             COLOMINO                 DE DIEGO                  00000000          N
032004031149017000096017TESTHER                   GONZALEZ                 BRAVO                     00000000          N
032004031149018000096018TSARA EVA                 INIESTA                  PEREZ                     00000000          N
032004031149019000096019TINMACULADA CONCEPCION    PUERTO                   VILLEGAS                  00000000          N
032004031149033000098033TJUAN                     GARRIDO                  CLAVERO                   00000000          N
032004031149034000098034TANTONIO                  MURO                     ROMERO                    00000000          N
032004031149035000098035TFRANCISCO                PEINADO                  FAJARDO                   00000000          N
032004031149003000101003TMIGUEL ANGEL             BODAS                    ESPEJEL                   00000000          N
032004031149001000117001TM. DE LAS MERCEDES       GARCIA                   PAINE                     00000000          N
032004031149020000118020TFERNANDO MIGUEL          HERNANDEZ                CEREZO                    00000000          N
032004031149021000118021TLEANDRA                  SANTOS                   MORENO                    00000000          N
032004031149022000118022TYOLANDA                  VALIENTE                 PAVON                     00000000          N
032004031149025000128025TM. ANGELES               MARTINEZ                 ALONSO                    00000000          N
032004031149026000128026TJOSE ANTONIO             TRONCOSO                 JIMENEZ                   00000000          N
032004031149007000130007TANGEL                    BLANCO                   MORENO                    00000000          S
032004031149008000130008TFLORENCIO                LUQUE                    AGUILAR                   00000000          N
032004031149009000130009TEVA MARIA                OSTOS                    MORENO                    00000000          N
032004031149004000138004TANTONIO                  CEREZO                   LARA                      00000000          N
032004031149005000138005TJORGE DIONISIO           GARCIA                   MORENO                    00000000          N
032004031149006000138006TMARIA DE LA PAZ          MOLINA                   VALVERDE                  00000000          N
032004031149037000146037TMARIA ISABEL ANTONIA     FLORES                   FERNANDEZ                 00000000          S
032004031149038000146038TLUIS                     MORENO                   CASTRO                    00000000          S
032004031149039000146039TPEDRO                    RODRIGUEZ                CANTERO                   00000000          S
032004031189008000001008TFRANCISCO                CABRERIZO                SALMERON                  00000000          N
032004031189009000001009TPEDRO JOSE               LUQUE                    FERNANDEZ                 00000000          N
032004031189017000016017TANGEL VALENTIN           GONZALEZ                 MARTOS                    00000000          N
032004031189014000032014TMARIA TERESA             ARAMBARRI                ARISTU                    00000000          N
032004031189015000032015TLUIS FERNANDO            GARZON                   MERGELINA                 00000000          N
032004031189016000032016TJUAN                     INDAVE                   NUIN                      00000000          N
032004031189004000043004TJUAN FRANCISCO           MONTORO                  SEGOVIA                   00000000          N
032004031189024000049024TENRIQUE                  SERRANO                  TORRES                    00000000          N
032004031189021000053021TSANTIAGO                 ALONSO                   GARCIA                    00000000          N
032004031189022000053022TJOSE MARIA               CABALLERO                MORENO                    00000000          N
032004031189010000067010TIVAN                     ZOIDO                    SALAZAR                   00000000          N
032004031189001000077001TRAUL                     GARCIA                   MARTIN                    00000000          N
032004031189002000077002TTERESA                   MARTIN                   FERNANDEZ                 00000000          N
032004031189003000077003TMARIA DOLORES            MORENO                   BAENA                     00000000          N
032004031189029000098029TANTONIO JAVIER           CASTRO                   RODRIGUEZ                 00000000          N
032004031189030000098030TMARIA ROSARIO            GONZALEZ                 HERNANDEZ                 00000000          N
032004031189031000098031TANGEL                    ORTEGA                   FERNANDEZ                 00000000          N
032004031189023000101023TMIGUEL                   BANEGAS                  GARCIA                    00000000          N
032004031189028000117028TJESUS                    MOLINA                   DIAZ                      00000000          N
032004031189019000128019TMARIA REYES              BURGOS                   CANTOS                    00000000          N
032004031189020000128020TANTONIO MANUEL           MONTAÑO                  RAMOS                     00000000          N
032004031189011000130011TEUGENIO ENRIQUE          CASTILLO                 JAEN                      00000000          S
032004031189012000130012TMARIA ESTHER             FERNANDEZ                PEREZ                     00000000          N
032004031189013000130013TMARIA DEL CARMEN         NESTARES                 GARCIA-TREVIJANO          00000000          N
032004031189005000138005TEUGENIO                  AGUILAR                  REYES                     00000000          N
032004031189006000138006TJOSE EMILIO              ARENAS                   VILLODRES                 00000000          N
032004031189007000138007TALEJANDRO                BEDMAR                   PEREZ                     00000000          N
032004031189025000147025TANTONIA                  ARANEGA                  JIMENEZ                   00000000          S
032004031189026000147026TMANUEL                   PEZZI                    CERETO                    00000000          S
032004031189027000147027TLUIS MIGUEL              SALVADOR                 GARCIA                    00000000          S
032004031189018000150018TDAVID                    NAVARRO                  CASTILLO                  00000000          N
032004031219009000001009TISAAC RODRIGO            LABRA                    MUÑIZ                     00000000          N
032004031219015000032015TGREGORIO                 GONZALEZ                 DEL CAMPO                 00000000          N
032004031219014000049014TJOSE MANUEL              DIAZ DE TERAN            RODRIGUEZ                 00000000          N
032004031219018000053018TJOSE                     SANCHEZ                  LINEROS                   00000000          N
032004031219019000053019TANTONIO GUSTAVO          GONZALEZ                 FERNANDEZ VILLAVICENCIO   00000000          N
032004031219020000053020TANA                      MONTERO                  SEGURA                    00000000          N
032004031219001000067001TMARIA CARMEN             PUNTADA                  GUILLEN                   00000000          N
032004031219006000077006TJOSE LUIS                PEREZ                    TAPIAS                    00000000          N
032004031219007000077007TREYES                    MARQUEZ                  MARQUEZ                   00000000          N
032004031219008000077008TCARLOS                   GARCIA                   BELLO                     00000000          N
032004031219029000096029TENRIQUE                  AZCONA                   BENITO                    00000000          N
032004031219023000098023TJOSE FRANCISCO           GOMEZ                    AVILA                     00000000          N
032004031219024000098024TJOSE LUIS                RAMOS                    RODRIGUEZ                 00000000          N
032004031219025000098025TCRISTOBAL                ROMERO                   MARQUEZ                   00000000          N
032004031219013000099013TANTONIO                  TOSCANO                  PINZON                    00000000          N
032004031219002000118002TMARIA DOLORES            MELERO                   REYES                     00000000          N
032004031219021000128021TANTONIO JAVIER           CADENAS                  RUBIO                     00000000          N
032004031219022000128022TVICENTE                  DIAZ                     SUAREZ                    00000000          N
032004031219010000130010TJUAN CARLOS              LAGARES                  FLORES                    00000000          S
032004031219011000130011TSALUD DEL CARMEN         MORENO                   ORTEGA                    00000000          N
032004031219012000130012TADELAIDA MARIA           ROMERO                   MORENO                    00000000          N
032004031219003000138003TMARGARITA                FERRERO                  MONTES                    00000000          N
032004031219004000138004TALVARO                   MARTINEZ                 REYES                     00000000          N
032004031219005000138005TJOSE LUIS                VILLEGA                  RECIO                     00000000          N
032004031219026000146026TFRANCISCO                BELLA                    GALAN                     00000000          S
032004031219027000146027TMARIA  TERESA DEL CARMEN CAMACHO                  VAZQUEZ                   00000000          S
032004031219028000146028TJOSE ANTONIO             MARIN                    RITE                      00000000          S
032004031219016000150016TJUAN JOSE                LOZANO                   HUECAS                    00000000          N
032004031219017000150017TRAFAEL                   CASTILLA                 GOMEZ                     00000000          N
032004031239033000001033TMARIA ANGELES            SANCHEZ                  JIMENEZ                   00000000          N
032004031239016000024016TMARIA JESUS              CASTRO                   JIMENEZ                   00000000          N
032004031239020000032020TFRANCISCO JAVIER         GARZON                   MASNA                     00000000          N
032004031239021000032021TMARIA DOLORES            MALDONADO                ARANAZ                    00000000          N
032004031239004000034004TSERGIO                   GARCIA                   LANDETE                   00000000          N
032004031239027000043027TJUAN JOSE                CHULIA                   TARIN                     00000000          N
032004031239028000043028TJOSE ANTONIO             GARCIA                   CANATA                    00000000          N
032004031239029000043029TRUBEN                    TENA                     AGOST                     00000000          N
032004031239014000049014TJESUS                    PEÑAS                    ARTERO                    00000000          N
032004031239026000053026TROSARIO                  MOLINA                   BLANCA                    00000000          N
032004031239011000067011TMARIA                    GIL                      DIAZ                      00000000          N
032004031239017000077017TJOSE LUIS                ANGULO                   NAVARRO                   00000000          N
032004031239018000077018TMARIANO                  RODRIGUEZ                GARCIA                    00000000          N
032004031239019000077019TMARIA DOLORES            ZAMORA                   MESA                      00000000          N
032004031239022000095022TJOSE LUIS                NAVARRO                  PEREZ                     00000000          N
032004031239005000098005TMARTA DE LA MERCED       JIMENEZ                  CASTELLANO                00000000          N
032004031239006000098006TFRANCISCO DE ASIS        MENDIETA                 FERNANDEZ                 00000000          N
032004031239007000098007TLEOPOLDO                 MORENO                   CASAS                     00000000          N
032004031239012000101012TANTONIO                  LALAGUNA                 ARROYO                    00000000          N
032004031239013000101013TMARIA PAULA              LANSEROS                 VALDES                    00000000          N
032004031239015000117015TFRANCISCO JAVIER         PEREDA                   PEREDA                    00000000          N
032004031239023000118023TJUAN                     CARRILLO                 FERNANDEZ                 00000000          N
032004031239024000118024TRAUL                     RUIZ                     ORDOÑEZ                   00000000          N
032004031239025000118025TFRANCISCO JOSE           SILES                    VALLEJO                   00000000          N
032004031239030000130030TRAMON                    PALACIOS                 RUBIO                     00000000          S
032004031239031000130031TJUAN                     SANIGER                  HERRERA                   00000000          N
032004031239032000130032TFRANCISCO LUIS           SOLA ISIDRO              OLMO                      00000000          N
032004031239001000138001TMIGUEL ANGEL             LAGUNAS                  NAVIDAD                   00000000          N
032004031239002000138002TMANUEL                   MARQUEZ                  CAYUELA                   00000000          N
032004031239003000138003TCRISTOBAL                RODRIGUEZ                LARA                      00000000          N
032004031239008000147008TCRISTOBAL JOSE           LOPEZ                    CARVAJAL                  00000000          S
032004031239009000147009TADORACION                QUESADA                  BRAVO                     00000000          S
032004031239010000147010TELENA                    VIBORAS                  JIMENEZ                   00000000          S
032004031299003000001003TTOMAS                    LAZARO                   RICO                      00000000          N
032004031299034000024034TSEBASTIANA               DOBLAS                   BERMUDEZ                  00000000          N
032004031299026000032026TMARIA DEL CORO MARGARITA HERNANDO DE LARRAMENDI   VARELA                    00000000          N
032004031299004000043004TJOAQUIN                  VALIENTE                 SANZ                      00000000          N
032004031299005000043005TFERMIN                   CANO                     CANO                      00000000          N
032004031299006000043006TRAFAEL                   SOSPEDRA                 BLASCO                    00000000          N
032004031299027000049027TFRANCISCO                ORTIZ                    LOZANO                    00000000          N
032004031299025000052025TGERMAN                   SANCHEZ                  SACO                      00000000          N
032004031299035000053035TMELCHOR                  COBO                     ORTA                      00000000          N
032004031299036000053036TCARLOS                   CERVERA                  RADIGALES                 00000000          N
032004031299037000053037TENRIQUE VICTOR           DE MORA                  QUIROS                    00000000          N
032004031299030000067030TMANUEL                   FAJARDO                  GUTIERREZ                 00000000          N
032004031299019000077019TMIGUEL                   LOPEZ                    GARCIA                    00000000          N
032004031299020000077020TENCARNACION              PAEZ                     ALBA                      00000000          N
032004031299021000077021TJOSE ANTONIO             PONCE                    FERNANDEZ                 00000000          N
032004031299031000096031TPEDRO                    HODGSON                  FRIEDRICHS                00000000          N
032004031299016000098016TFRANCISCO                OLIVA                    MARIN                     00000000          N
032004031299017000098017TSALVADOR                 ORTIZ                    TORRES                    00000000          N
032004031299018000098018TANTONIO                  PARRALES                 ACOSTA                    00000000          N
032004031299013000101013TJOSEFA                   LORENTE                  BROX                      00000000          N
032004031299022000107022TJUAN LUIS                ANAYA                    COLOMINA                  00000000          N
032004031299038000117038TANTONIO                  CASTRO                   SANCHEZ                   00000000          N
032004031299001000118001TJESUS ANTONIO            FERNANDEZ                OLMEDO                    00000000          N
032004031299002000118002TMIGUEL ANGEL             FERNANDEZ                RODRIGUEZ                 00000000          N
032004031299028000128028TANA MARIA                MARTIN                   NUÑEZ                     00000000          N
032004031299029000128029TJUAN JOSE                CABELLO                  RONCERO                   00000000          N
032004031299010000130010TDAMIAN                   CANEDA                   MORALES                   00000000          S
032004031299011000130011TPABLO MARCIAL            IZQUIERDO                JUAREZ                    00000000          N
032004031299012000130012TJOAQUIN                  VILLANOVA                RUEDA                     00000000          N
032004031299032000133032TMANUELA                  VEGA                     DIAZ                      00000000          N
032004031299033000133033TROSARIO TRINIDAD         MALDONADO                NUÑEZ                     00000000          N
032004031299023000138023TFERNANDO                 NARANJO                  CARRASCO                  00000000          N
032004031299024000138024TMIGUEL ANGEL             LUQUE                    VERTEDOR                  00000000          N
032004031299007000146007TMANUEL                   ARJONA                   SANTANA                   00000000          S
032004031299008000146008TMARIA EMELINA            FERNANDEZ                SORIANO                   00000000          S
032004031299009000146009TPEDRO                    VILLAGRAN                BUSTILLOS                 00000000          S
032004031299014000157014TFRANCISCO BORJA          SANCHEZ IBARGÜEN         MENCOS                    00000000          N
032004031299015000157015TANTONIO                  HURTADO                  RIVAS                     00000000          N
032004031419035000001035TJOSE LUIS                LOPEZ-CEPERO             PEREZ                     00000000          N
032004031419026000016026TMARIA                    QUILES                   MANSILLA                  00000000          N
032004031419027000016027TENRIQUE FERNANDO         RODRIGUEZ                GUTIERREZ                 00000000          N
032004031419036000024036TMARIA ESPERANZA          GOÑI                     SENRA                     00000000          N
032004031419037000024037TISABEL MARIA             MIGALLON                 AGUILAR                   00000000          N
032004031419038000024038TFERMIN                   SANCHEZ                  MARTINEZ                  00000000          N
032004031419004000025004TJOSE ANTONIO             BEDMAR                   REDONDO                   00000000          N
032004031419005000025005TMIGUEL ANGEL             JIMENEZ                  SOTO                      00000000          N
032004031419006000025006TMARIO ALBERTO            RECUERDA                 HERNANDEZ                 00000000          N
032004031419033000032033TRAFAEL JESUS             GARCIA                   BARRIENTOS                00000000          N
032004031419034000032034TJOSE FRANCISCO           ROMERO                   MOROS                     00000000          N
032004031419013000049013TJOSE IGNACIO             MIÑEROLA                 MARCO                     00000000          N
032004031419007000053007TDOLORES                  AGUILERA                 ROMERO                    00000000          N
032004031419008000053008TJORGE LUIS FRANCISCO     GIL                      LORENZO                   00000000          N
032004031419009000053009TJESUS                    JUAN                     PEREZ                     00000000          N
032004031419001000067001TJUAN MANUEL              MOLINA                   AGUIRRE                   00000000          N
032004031419014000077014TANTONIO                  CAMPON                   RAMIREZ                   00000000          N
032004031419015000077015TANTONIO                  CRIADO                   BARBERO                   00000000          N
032004031419016000077016TMARIA                    MAINEZ                   FERRERA                   00000000          N
032004031419028000096028TALFREDO                  VIÑAS                    GUTIERREZ                 00000000          N
032004031419039000098039TJOSE                     CALABUIG                 FERNANDEZ                 00000000          N
032004031419040000098040TESPERANZA MACARENA       CAMPOS                   BELMASTAR                 00000000          N
032004031419041000098041TASUNCION PILAR           LIÑAN                    CASTRO                    00000000          N
032004031419022000099022TLOREA                    ALONSO                   REYERO                    00000000          N
032004031419017000107017TMARIA DE LOS ANGELES     FERNANDEZ-CEBALLOS       CARRANZA                  00000000          N
032004031419018000107018TFERNANDO MARIA           GARCIA                   VILLARRUBIA               00000000          N
032004031419029000117029TERNESTO                  GARCIA                   LECHUGA                   00000000          N
032004031419023000118023TJOSE FRANCISCO           DURAN                    VELASCO                   00000000          N
032004031419024000118024TJOAQUIN                  GUARINOS                 CANOVAS                   00000000          N
032004031419025000118025TLUIS                     SILVA                    GARCIA                    00000000          N
032004031419002000128002TLOURDES LUISA            BARRIGA                  MUÑOZ                     00000000          N
032004031419003000128003TSANTIAGO RODRIGO         DE ZAYAS-ENRIQUEZ        HARRISON                  00000000          N
032004031419019000130019TSOLEDAD                  BECERRIL                 BUSTAMANTE                00000000          S
032004031419020000130020TMARIA DEL MAR            CASILLAS                 MONTAÑO                   00000000          N
032004031419021000130021TIGNACIO                  PLAZA                    TRUJILLO                  00000000          N
032004031419030000138030TANTONIO                  RESCALVO                 VIZCAINO                  00000000          N
032004031419031000138031TAMELIA                   SANCHEZ                  RODRIGUEZ                 00000000          N
032004031419032000138032TJESUS                    VIOLA                    FIGUERAS                  00000000          N
032004031419010000147010TENRIQUE                  ABAD                     BENEDICTO                 00000000          S
032004031419011000147011TFRANCISCO                RODRIGUEZ                MARTIN                    00000000          S
032004031419012000147012TBASILIA                  SANZ                     MURILLO                   00000000          S
032004031229028000024028TMARIA ANTONIA            OSES                     VIAMONTE                  00000000          N
032004031229008000027008TMARIA PILAR              ESTEBAN                  GAUDENS                   00000000          N
032004031229009000027009TERNESTO                  GOMEZ                    GARCIA                    00000000          N
032004031229010000027010TFRANCISCO JAVIER         MUR                      COUTO                     00000000          N
032004031229005000032005TCRISTOBAL                CASTAN                   FERRER                    00000000          N
032004031229006000032006TJOSE MIGUEL              ORTS                     TIMONER                   00000000          N
032004031229024000034024TFERNANDO JESUS           ARILLA                   MUR                       00000000          N
032004031229025000034025TJOSE                     PERUGA                   LOPEZ                     00000000          N
032004031229026000034026TANA MARIA                SANTOLARIA               GARCES                    00000000          N
032004031229001000049001TALVARO                   REMIS                    FERNANDEZ                 00000000          N
032004031229027000053027TJUAN EMILIO              PADRON                   PINTOS                    00000000          N
032004031229020000067020TROBERTO                  COUSILLAS                HERNANDO                  00000000          N
032004031229011000074011TJOSE IGNACIO (NACHO)     FABREGAS                 REIGOSA                   00000000          N
032004031229012000074012TJESUS FERNANDO           PEREZ                    NAVASA                    00000000          N
032004031229013000074013TMARIA CARMEN             SOLANO                   RIVERA                    00000000          N
032004031229021000103021TJOSE MARIA               ABARCA                   GIL                       00000000          N
032004031229022000103022TAFREDO                   CAJAL                    GAVIN                     00000000          N
032004031229023000103023TANTONIO                  RUSPIRA                  MORRAJA                   00000000          N
032004031229018000111018TREGINO                   SANCHEZ                  HERNANDEZ                 00000000          N
032004031229019000117019TDANIEL                   ARNAL                    MESEGUER                  00000000          N
032004031229017000118017TFERNANDO                 MOLINER                  FALAGAN                   00000000          N
032004031229007000128007TFRANCISCO                RODRIGUEZ                MORCILLO                  00000000          N
032004031229014000130014TRODOLFO                  AINSA                    ESCARTIN                  00000000          S
032004031229015000130015TJOSE LUIS                ESCUTIA                  DOTTI                     00000000          N
032004031229016000130016TANA ISABEL               LASHERAS                 MEAVILLA                  00000000          N
032004031229002000146002TMARTA                    GASTON                   MENAL                     00000000          S
032004031229003000146003TJUAN JOSE                RODRIGUEZ                TORRES                    00000000          S
032004031229004000146004TPEDRO                    SANTORROMAN              LACAMBRA                  00000000          S
032004031449014000021014TPETRA MARIA              SECANELLA                LIZANO                    00000000          N
032004031449022000024022TLUIS                     JASANADA                 SALVADOR                  00000000          N
032004031449001000027001TJAVIER                   DIAZ                     SORO                      00000000          N
032004031449002000027002TANGEL JAVIER             HERNANDEZ                SESE                      00000000          N
032004031449003000027003TADOLFO                   VILLANUEVA               RUBIO                     00000000          N
032004031449026000032026TMARGARITA VICTORIA       RAM DE VIU               DE SIVATTE                00000000          N
032004031449027000049027TJOSE                     ZARAGOZA                 MACIA                     00000000          N
032004031449021000053021TJOSE ANTONIO             IBAÑEZ                   CANO                      00000000          N
032004031449008000067008TJESUS MARIA              PEREZ                    AZNAR                     00000000          N
032004031449015000074015TANA CRISTINA             PEREZ                    GARCIA                    00000000          N
032004031449016000074016TJUAN ANTONIO             MOREU                    CHICA                     00000000          N
032004031449017000074017TGONZALO                  RUIZ                     LORENTE                   00000000          N
032004031449010000101010TJAVIER                   SENEN                    BRUGOS                    00000000          N
032004031449023000103023TMARIA                    HERRERO                  HERRERO                   00000000          N
032004031449024000103024TJOAQUIN                  PERIBAÑEZ                PEIRO                     00000000          N
032004031449025000103025TJOAQUIN                  TOMAS                    MINGUEZ                   00000000          N
032004031449006000111006TFRANCISCO                LOPEZ                    LOZANO                    00000000          N
032004031449009000117009TJUAN ANTONIO             PEREZ                    CHUECA                    00000000          N
032004031449004000118004TMARIA                    DOMENE                   ALVAREZ                   00000000          N
032004031449005000118005TBLANCA MARIA             MARTI                    GARCES                    00000000          N
032004031449007000128007TCONRADO                  SORIA                    GARCIA                    00000000          N
032004031449018000130018TMANUEL                   BLASCO                   MARQUES                   00000000          S
032004031449019000130019TJOSE ANTONIO             BURRIEL                  ALLOZA                    00000000          S
032004031449020000130020TCARMEN                   PRIMO                    ALBERT                    00000000          N
032004031449011000146011TVICENTE                  GUILLEN                  IZQUIERDO                 00000000          S
032004031449012000146012TESMERALDA                IRANZO                   SANCHEZ                   00000000          S
032004031449013000146013TJOSE ISAAC               SANTAMARTA               FLOREZ                    00000000          N
032004031509025000024025TVICENTE                  CATIVIELA                BESCOS                    00000000          N
032004031509026000024026TJESUS                    PUERTA                   GARCIA                    00000000          N
032004031509013000027013TROSA                     AZNAR                    GARCIA                    00000000          N
032004031509014000027014TRAMON                    GOMEZ                    SALAS                     00000000          N
032004031509015000027015TANTONIO                  LIZ                      GASPAR                    00000000          N
032004031509019000032019TCARLOS JAVIER            RAM DE VIU               DE SIVATTE                00000000          N
032004031509020000032020TJOSE MARIA               SALVO                    JIMENEZ                   00000000          N
032004031509021000032021TRAFAEL                   MIR                      MENA                      00000000          N
032004031509007000034007TFERNANDO JOSE            ACEDO                    SANCHEZ                   00000000          N
032004031509004000049004TMARIA DEL CARMEN         ESCRIBANO                MORENO                    00000000          N
032004031509005000053005TAMALIA                   NAVARRO                  GARCIA                    00000000          N
032004031509011000067011TVICTOR                   SANCHEZ                  ABENIA (IR)               00000000          N
032004031509027000074027TJESUS                    LACASA                   VIDAL (IU)                00000000          N
032004031509028000074028TMARIA ROSA               MAGALLON                 BOTAYA (IU)               00000000          N
032004031509029000074029TJESUS                    VALLES                   GRACIA (LV)               00000000          N
032004031509024000076024TMARGARITA                MARIÑOSO                 AMESTI                    00000000          N
032004031509016000103016TJAVIER                   ALLUE                    SUS                       00000000          N
032004031509017000103017TANA MARIA                DE SALAS                 GIMENEZ DE AZCARATE       00000000          N
032004031509018000103018TJOSE JAVIER              VICENTE                  INES                      00000000          N
032004031509023000111023TCARMEN                   GOMEZ                    MARTINEZ                  00000000          N
032004031509022000118022TENRIQUE JESUS            ZUECO                    RODRIGO                   00000000          N
032004031509006000123006TADRIAN                   PEREZ                    TORRES                    00000000          N
032004031509012000128012TANTONIO RAMON            QUESADA                  HERRERA                   00000000          N
032004031509001000130001TJOSE                     ATARES                   MARTINEZ                  00000000          S
032004031509002000130002TRICARDO                  MUR                      MONSERRAT                 00000000          N
032004031509003000130003TJOSE IGNACIO             SENAO                    GOMEZ                     00000000          N
032004031509008000146008TJESUS                    MARTINEZ                 HERRERA                   00000000          S
032004031509009000146009TMARIA JOSE               NAVARRO                  LAFITA                    00000000          S
032004031509010000146010TMARIA PILAR              PEREZ                    LAPUENTE                  00000000          S
032004031339012000003012TLLUCIA                   FERNANDEZ                MARQUES                   00000000          N
032004031339013000003013TXICU XABEL               FERNANDI                 GÜERTA                    00000000          N
032004031339014000003014TMARIA SANDRA             SANTOS                   GARCIA                    00000000          N
032004031339015000020015TJAVIER                   ALVAREZ                  PEON                      00000000          N
032004031339016000020016TROSA MARIA               GONZALEZ                 FERNANDEZ                 00000000          N
032004031339017000020017TJOSE MANUEL              MORAN                    ALVAREZ                   00000000          N
032004031339001000032001TANTONIO                  CUERVAS-MONS             HERNANDEZ                 00000000          N
032004031339002000032002TANA                      FAL-CONDE                SANCHEZ-GUARDAMINO        00000000          N
032004031339003000032003TMARIA COVADONGA          GALLEGO                  PIÑERUA                   00000000          N
032004031339029000049029TAGUSTIN                  QUINTANILLA              GIL                       00000000          N
032004031339018000053018TLETICIA                  TRIGO                    JIMENEZ                   00000000          N
032004031339026000061026TIGNACIO                  LOPEZ                    FERNANDEZ                 00000000          N
032004031339027000061027TPENELOPE                 MIRANDA                  FERNANDEZ                 00000000          N
032004031339028000061028TXANDRU                   SANCHEZ                  HOYA                      00000000          N
032004031339008000067008TJERONIMO                 MENENDEZ                 COMPANY                   00000000          N
032004031339005000073005TROBERTO                  COLUNGA                  FERNANDEZ                 00000000          N
032004031339006000073006TJAIME GARETH             FLOREZ                   BARREALES                 00000000          N
032004031339007000073007TANGELA ROSA              VALLINA                  NOVAL                     00000000          N
032004031339023000104023TXESUS                    CAÑEDO                   VALLE                     00000000          N
032004031339024000104024TXUAN RAMON               PERTIERRA                ARGIZ                     00000000          N
032004031339025000104025TFERMIN FRANCISCO DE ASIS RODRIGUEZ                URIA                      00000000          N
032004031339019000107019TJAVIER                   CUBERO                   VICENTE                   00000000          N
032004031339030000111030TMANUEL                   FUENTES                  CARRERA                   00000000          N
032004031339031000111031TAURELIO                  HEVIA                    CARMONA                   00000000          N
032004031339032000111032TRAFAEL                   VELASCO                  RODRIGUEZ                 00000000          N
032004031339033000118033TJOAQUIN                  GALLETERO                GALLETERO                 00000000          N
032004031339034000118034TJOSE BERNARDO            HURTADO                  PARRILLA                  00000000          N
032004031339004000128004TDANIEL                   CUADRADO                 GONZALEZ                  00000000          N
032004031339020000130020TMARIA DEL PILAR          FERNANDEZ                PARDO                     00000000          S
032004031339021000130021TJAIME                    REINARES                 FERNANDEZ                 00000000          S
032004031339022000130022TJAVIER                   SOPEÑA                   VELASCO                   00000000          S
032004031339035000146035TJOSE ANTONIO             ALONSO                   GARCIA                    00000000          S
032004031339036000146036TJOSE CARLOS              ALVAREZ                  GONZALEZ                  00000000          N
032004031339037000146037TMARIA AIDA               FUENTES                  CONCHESO                  00000000          N
032004031339009000162009TJOAQUIN                  ARCE                     FERNANDEZ                 00000000          N
032004031339010000162010TJOSE IGNACIO             CARRERA                  RUIZ                      00000000          N
032004031339011000162011TYOLANDA                  DEL VALLE                VARILLAS                  00000000          N
032004031071012000009012TJOSE ANTONIO             AZNAR                    LOPEZ                     00000000          N
032004031071013000009013TEZEQUIEL                 RAMOS                    RIESCO                    00000000          N
032004031071008000032008TJUSTO                    GARCIA DE VINUESA        GONZALEZ DE AGUILAR       00000000          N
032004031071009000032009TCONCEPCION               DE SIVATTE               ALGUERO                   00000000          N
032004031071007000049007TRUBEN                    CANO                     GARCIA                    00000000          N
032004031071017000053017TJORGE                    ARANSAY                  ANCHETA                   00000000          N
032004031071018000053018TSEBASTIAN                BARCELO                  BARCELO                   00000000          N
032004031071014000067014TROSA MARIA               MINGORANCE               LEDESMA                   00000000          N
032004031071015000130015TJUAN                     FAGEDA                   AUBERT                    00000000          S
032004031071016000130016TCARLOS                   RIPOLL Y                 MARTINEZ DE BEDOYA        00000000          S
032004031071003000145003TCECILI                   BUELE                    RAMIS                     00000000          N
032004031071004000145004TMIQUEL ANGEL             LLAUGER                  ROSSELLO                  00000000          N
032004031071010000146010TJOAQUIN ANTONIO          BELLON                   MARTINEZ                  00000000          S
032004031071011000146011TJUAN                     MESQUIDA                 FERRANDO                  00000000          N
032004031071005000152005TANTONIO                  JUAN                     JULVE                     00000000          N
032004031071006000152006TANTONIO                  VERA                     THOMAS                    00000000          N
032004031071001000156001TDOLÇA                    MULET                    DEZCALLAR                 00000000          N
032004031071002000156002TMIQUEL                   RIERA                    SERVERA                   00000000          N
032004031072002000032002TMIGUEL                   VALLINAS                 GARCIA                    00000000          N
032004031072001000039001TMIGUEL                   PONS                     VELASCO                   00000000          N
032004031072008000049008TJOAQUIN                  GONZALEZ                 BARRERO                   00000000          N
032004031072004000053004TMARGARITA                PONS                     MARTI                     00000000          N
032004031072003000130003TJOSE                     SEGUI                    DIAZ                      00000000          S
032004031072005000144005TJOAN MANEL               MARTI                    LLUFRIU                   00000000          N
032004031072007000146007TANTONI                   ORELL                    CALAFAT                   00000000          N
032004031072009000155009TPABLO                    LLUCH                    MESQUIDA                  00000000          N
032004031072006000158006TVICENTE                  GARAU                    JUAN                      00000000          N
032004031073004000009004TJOSE JAVIER              CANTERO                  VALDIVIELSO               00000000          N
032004031073005000032005TJOSE                     CHUST                    MONTELL                   00000000          N
032004031073003000049003TVICENTE                  QUESADA                  CANDELA                   00000000          N
032004031073002000053002TFELICIANO                GUTIERREZ                BONET                     00000000          N
032004031073006000059006TPEP                      RIBAS                    RIBAS                     00000000          N
032004031073007000130007TANTONIO                  MARI                     MARI                      00000000          S
032004031073001000137001TCATALINA                 TORRES                   ROIG                      00000000          N
032004031073008000146008TMARIA DEL CARMEN         FERRER                   CAMACHO                   00000000          N
032004031351010000007010TANTONIO                  GARCIA                   PADRON                    00000000          N
032004031351011000007011TARMANDO MARCOS           SUAREZ                   RAMIREZ                   00000000          N
032004031351020000013020TJUAN FERMIN              ALMEIDA                  ALMEIDA                   00000000          N
032004031351021000013021TBONIFACIO                CALERO                   SANTANA                   00000000          N
032004031351018000016018TANA ROSA                 BARRY                    GOMEZ                     00000000          N
032004031351019000016019THORACIO                  GRANDE                   PERDOMO                   00000000          N
032004031351024000017024TFROILAN                  RODRIGUEZ                DIAZ                      00000000          N
032004031351025000017025TM. PINO                  TORRES                   MELIAN                    00000000          N
032004031351015000024015TROVER                    FERREIRA                 LOPEZ                     00000000          N
032004031351016000024016TJUAN                     MIRANDA                  QUINTANA                  00000000          N
032004031351017000024017TPEDRO LUIS               MONTESDEOCA              NARANJO                   00000000          N
032004031351006000032006TJOAQUIN                  BALEZTENA                GURREA                    00000000          N
032004031351030000034030TJOSE MANUEL              GALVAN                   RODRIGUEZ                 00000000          N
032004031351001000049001TFRANCISCA                GONZALEZ                 ESCOBAR                   00000000          N
032004031351026000053026TGREGORIO                 GONZALEZ                 FULGENCIO                 00000000          N
032004031351027000053027TJOSE                     REGUERO                  HERNANDEZ                 00000000          N
032004031351014000067014TMARIA JOSE               SERRANO                  DE LA ROSA                00000000          N
032004031351008000086008TDOMINGO                  AFONSO                   MARTIN                    00000000          N
032004031351009000086009TMARIA LUISA              URIBASTERRA              AREIZAGA                  00000000          N
032004031351007000099007TANA BELEN                QUILEZ                   COSGAYA                   00000000          N
032004031351028000108028TANDRES                   ALVARADO                 JANINA                    00000000          N
032004031351029000108029TJUAN RAFAEL              LORENZO                  SANTANA                   00000000          N
032004031351002000118002TLOURDES                  BENITEZ                  LOPEZ                     00000000          N
032004031351003000118003TBENITO JOSE              HERNANDEZ                PEREZ                     00000000          N
032004031351005000128005TNOEMI                    HERNANDEZ                RODRIGUEZ                 00000000          N
032004031351022000130022TMARIA DEL CARMEN         GUERRA                   GUERRA                    00000000          S
032004031351023000130023TJOSE                     MACIAS                   SANTANA                   00000000          S
032004031351012000146012TARCADIO                  DIAZ                     TEJERA                    00000000          S
032004031351013000146013TSATURNINA                SANTANA                  DUMPIERREZ                00000000          N
032004031351004000164004TREGINA LUCIA             HERNANDEZ                BRITO                     00000000          N
032004031352002000004002TEMILIA MARIA             MORALES                  MARTIN                    00000000          N
032004031352008000016008TDELIA MARIA              HERNANDEZ                CAMACHO                   00000000          N
032004031352006000024006TJUAN MANUEL              DE LEON                  ROBAYNA                   00000000          N
032004031352001000032001TLUIS MIGUEL              RUIZ DE ASUA             MORO                      00000000          N
032004031352005000034005TANTONIO E.               AFONSO                   MARTEL                    00000000          N
032004031352009000086009TMARIA DE LOS ANGELES     FERRERA                  FERNANDEZ                 00000000          N
032004031352003000120003TJUAN PEDRO               HERNANDEZ                RODRIGUEZ                 00000000          N
032004031352004000130004TFEDERICO                 TOLEDO                   GUADALUPE                 00000000          N
032004031352007000146007TMARCOS FRANCISCO         HERNANDEZ                GUILLEN                   00000000          S
032004031353003000007003TPEDRO                    TAVIO                    GARCIA                    00000000          N
032004031353005000017005TCLAUDINA                 MORALES                  RODRIGUEZ                 00000000          N
032004031353008000024008TJOSE RAMON               FIGUEROLA                ABOY                      00000000          N
032004031353007000032007TCARLOS                   IBAÑEZ                   ESTEVEZ                   00000000          N
032004031353001000034001TMANUEL JESUS             MARTEL                   AFONSO                    00000000          N
032004031353004000108004TFRANCISCO                MACHIN                   RODRIGUEZ                 00000000          N
032004031353009000130009TANA DEL PILAR            PADILLA                  CAMEJO                    00000000          S
032004031353002000146002TBLAS                     ACOSTA                   CABRERA                   00000000          N
032004031353006000163006TCARMEN                   ANDRADA                  FELIX                     00000000          N
032004031384026000007026TSANTIAGO                 GONZALEZ                 SILVA                     00000000          N
032004031384027000007027TRAICO                    LOPEZ                    GALLARDO                  00000000          N
032004031384016000016016TLUIS EDUARDO             DORNAK                   POGREBINSKY               00000000          N
032004031384007000017007TALONSO                   ARROYO                   HODGSON                   00000000          N
032004031384008000017008TRICARDO                  MELCHIOR                 NAVARRO                   00000000          S
032004031384010000024010TGEMMA CRUZ               HERNANDEZ                MORALES                   00000000          N
032004031384011000024011TCARLOS                   LAVERS                   PEREZ                     00000000          N
032004031384014000032014TANTONIO MARIA            GARZON                   MERGELINA                 00000000          N
032004031384015000034015TIGNACIO JESUS            IZQUIERDO                SANCHEZ                   00000000          N
032004031384022000049022TJUAN RAMON               TRILLO                   VILLAR                    00000000          N
032004031384024000053024TJOSE MANUEL              CLEMENTE                 ARMAS                     00000000          N
032004031384025000053025TMARIA BEGOÑA             ESPAÑA                   CALLEJO                   00000000          N
032004031384009000067009TCRISTINA                 DELGADO                  VALLEJO                   00000000          N
032004031384005000082005TCARMELO                  ABRANTE                  MORA                      00000000          N
032004031384006000082006TARISTIDES                DE FEZ                   MARRERO                   00000000          N
032004031384017000086017TFRANCISCA                ALVAREZ                  ASCANIO                   00000000          N
032004031384001000108001TALEJANDRO ALFREDO        DORTA                    CASTILLO                  00000000          N
032004031384002000108002TJESUS FELICIANO          DORTA                    NEGRIN                    00000000          N
032004031384020000125020TMIGUEL                   DIAZ LLANOS              CANOVAS                   00000000          N
032004031384021000125021TJUAN MANUEL              REVERON                  ALFONSO                   00000000          N
032004031384012000128012TEFREN HERACLIO           FERRER                   MARTIN                    00000000          N
032004031384013000128013TJOSE IGNACIO             GARCIA                   FERNANDEZ                 00000000          N
032004031384003000130003TJUAN                     GARCIA-TALAVERA          CASAÑAS                   00000000          N
032004031384004000130004TALFONSO                  SORIANO                  BENITEZ DE LUGO           00000000          N
032004031384018000146018TJOSE VICENTE             GONZALEZ                 BETHENCOURT               00000000          S
032004031384019000146019TPATRICIA                 HERNANDEZ                GUTIERREZ                 00000000          S
032004031384023000164023TMARIBEL                  GARCIA                   EXPOSITO                  00000000          N
032004031385002000017002TJOSE LUIS                PERESTELO                RODRIGUEZ                 00000000          S
032004031385008000024008TVICTOR                   CASTAÑEDA                CASAÑAS                   00000000          N
032004031385004000032004TEVARISTO                 PALOMAR                  MALDONADO                 00000000          N
032004031385009000049009TRODOLFO                  JIMENEZ                  GARCES                    00000000          N
032004031385001000064001TJOSE MANUEL              PEREZ                    CASTRO                    00000000          N
032004031385006000086006TJUAN                     BONNY                    MASSIEU                   00000000          N
032004031385005000130005TNOELIA                   GARCIA                   LEAL                      00000000          N
032004031385007000146007TJOSE ADRIAN              HERNANDEZ                MONTOYA                   00000000          N
032004031385003000164003TFERNANDO                 TENA                     MORALES                   00000000          N
032004031386009000016009TJESUS MACARIO            ALVAREZ                  ALONSO                    00000000          N
032004031386008000017008TISIDRO MANUEL            BRITO                    HERNANDEZ                 00000000          N
032004031386006000024006TJOSE ALEXIS              HERRERA                  ALONSO                    00000000          N
032004031386003000032003TBEATRIZ                  BARRAGAN                 GARRIDO                   00000000          N
032004031386005000086005TANGEL JOSE               RODRIGUEZ                BAEZ                      00000000          N
032004031386002000125002TIGNACIO                  DARIAS                   CASTILLA                  00000000          N
032004031386004000130004TGONZALO                  SANCHEZ-FERRAGUT         ROJAS                     00000000          N
032004031386007000146007TCASIMIRO                 CURBELO                  CURBELO                   00000000          S
032004031386001000164001TCRISTINA                 SAVOIE                   ALVAREZ                   00000000          N
032004031387004000018004TFELIX                    AYALA                    FONTE                     00000000          S
032004031387006000024006TMANUEL LUIS              ESPINOSA                 KRAWANY                   00000000          N
032004031387001000032001TEDUARDO JOSE             HERNANDEZ                LOPEZ                     00000000          N
032004031387003000086003TALVARO JUAN              MONZON                   SANTANA                   00000000          N
032004031387007000093007TLUCIANO EUTIMIO          ARMAS                    MORALES                   00000000          N
032004031387005000130005TMARIA CARMEN             MORALES                  HERNANDEZ                 00000000          N
032004031387002000164002TMARIA FELINA             LEON                     BELTRAN                   00000000          N
032004031399020000024020TENRIQUE RAMON FRANCISCO SGONZALEZ                 SANCHEZ                   00000000          N
032004031399021000024021TDANIEL ENRIQUE           GORDALIZA                CRESPO                    00000000          N
032004031399022000024022TOLEG                     GUTIERREZ                FERNANDEZ                 00000000          N
032004031399005000031005TRAUL                     HUERTA                   FERNANDEZ                 00000000          N
032004031399006000031006TJESUS                    PELAYO                   MIRONES                   00000000          N
032004031399007000031007TEMILIANO                 RODRIGUEZ                PEREZ                     00000000          N
032004031399009000032009TRAMON ANGEL              CALVO                    CRESPO                    00000000          N
032004031399010000032010TSANTIAGO                 TODA                     ERASO                     00000000          N
032004031399011000032011TFELIX                    ZORRILLA                 PILA                      00000000          N
032004031399024000049024TANA                      GRIJALBO                 DE CABO                   00000000          N
032004031399023000053023TBASILIO                  MARTINEZ                 GUTIERREZ                 00000000          N
032004031399013000070013TMARIANO                  CANTERO                  SAÑUDO                    00000000          N
032004031399014000070014TVERONICA                 LOPEZ                    FERNANDEZ                 00000000          N
032004031399015000070015TFRANCISCO                MANTILLA                 GUTIERREZ                 00000000          N
032004031399012000096012TAURORA                   ALONSO                   FERNANDEZ                 00000000          N
032004031399008000099008TGUSTAVO MARIA            SAINZ                    FERNANDEZ                 00000000          N
032004031399001000107001TMARIA NIEVES             JIMENEZ                  SANTOS                    00000000          N
032004031399002000118002TMARA                     AVELLEIRA                MARCOS                    00000000          N
032004031399003000118003TMARIA CARMEN             BLANCO                   PEÑA                      00000000          N
032004031399004000118004TANTONIO                  ITURBE                   HERRERA                   00000000          N
032004031399016000128016TJOSE LUIS                VINATEA                  REVUELTA                  00000000          N
032004031399025000130025TLUIS                     BARCENAS                 GUTIERREZ                 00000000          S
032004031399026000130026TGONZALO JAVIER           PIÑEIRO                  GARCIA-LAGO               00000000          S
032004031399027000130027TALBERTO                  TERAN                    MOLLEDA                   00000000          S
032004031399017000146017TJAIME                    BLANCO                   GARCIA                    00000000          S
032004031399018000146018TRUTH                     CARRASCO                 RUIZ                      00000000          N
032004031399019000146019TMARIA JESUS              TRUEBA                   RAMIRO                    00000000          N
032004031029010000024010TDAVID                    HERNANDEZ                MEDINA                    00000000          N
032004031029020000032020TJOSE MARIA               CANALS                   SURIS                     00000000          N
032004031029014000034014TALBERTO                  RUIPEREZ                 MORENO                    00000000          N
032004031029021000049021TDEMETRIO                 CARRASCO                 MANCHA                    00000000          N
032004031029023000052023TJOSE MIGUEL              SANCHEZ                  GARCIA                    00000000          N
032004031029015000067015TJOSE                     GARCIA                   HERNANDEZ                 00000000          N
032004031029011000072011TLUIS ANGEL               AGUILAR                  MONTERO                   00000000          N
032004031029012000072012TMARIA DEL CARMEN         LOPEZ                    LOPEZ                     00000000          N
032004031029013000072013TVICENTE                  TENDERO                  HARO                      00000000          N
032004031029016000101016TJUAN IGNACIO             BROTONS                  PAGAN                     00000000          N
032004031029008000111008TJOSE                     MARTINEZ                 CEBRIAN                   00000000          N
032004031029009000111009TMANUEL                   SERNA                    OLTRA                     00000000          N
032004031029022000117022TMARIA DESAMPARADOS       COSIN                    PUCHAU                    00000000          N
032004031029004000128004TENRIQUE                  SANCHEZ                  COLLADO                   00000000          N
032004031029001000130001TMARIA DEL ROSARIO        CASADO                   SOBRINO                   00000000          S
032004031029002000130002TSIXTO                    GONZALEZ                 GARCIA                    00000000          S
032004031029003000130003TANTONIO                  SERRANO                  AGUILAR                   00000000          S
032004031029005000146005TANTONIO                  CALLADO                  GARCIA                    00000000          S
032004031029006000146006TRAMON                    GARCIA                   RODRIGUEZ                 00000000          N
032004031029007000146007TMARIA LOURDES            VAREA                    MORCILLO                  00000000          N
032004031029017000151017TJESUS JAVIER             DAVILA                   NIELFA                    00000000          N
032004031029018000151018TJOSE                     GONZALEZ                 CANALES                   00000000          N
032004031029019000151019TNURIA                    PASTOR                   BERMEJO                   00000000          N
032004031139016000032016TANTONIO                  BARRAU                   GARCIA                    00000000          N
032004031139021000049021TFRANCISCO                TALON                    CASTILLO                  00000000          N
032004031139004000052004TGUSTAVO-ADOLFO           MONTALVO                 VAZQUEZ                   00000000          N
032004031139012000067012TNURIA                    FERNANDEZ                BARO                      00000000          N
032004031139005000072005TFLORENTINO               LOPEZ                    MONTERO                   00000000          N
032004031139006000072006TANA MARIA                RUBIO                    TRUJILLO                  00000000          N
032004031139007000072007TGREGORIO                 SANCHEZ                  YEBENES                   00000000          N
032004031139011000086011TANTONIO                  NAVARRO                  ZANON                     00000000          N
032004031139026000096026TJOSE                     SANCHEZ-CASCADO          GONZALEZ-ALEJA            00000000          N
032004031139022000101022TFRANCISCO JAVIER         BRAVO                    URRACA                    00000000          N
032004031139017000111017TNOELIA                   VICENTE                  PANTOJA                   00000000          N
032004031139009000118009TMARIA LUISA              GONZALEZ                 GALEANO                   00000000          N
032004031139010000118010TPABLO ALBERTO            DE PEDRO                 MARTIN                    00000000          N
032004031139008000128008TENRIQUE                  HERRERO                  HERAS                     00000000          N
032004031139023000130023TMARIA DEL CARMEN         FUNEZ                    DE GREGORIO               00000000          S
032004031139024000130024TFRANCISCO                GIL-ORTEGA               RINCON                    00000000          N
032004031139025000130025TJOSE MANUEL              RODRIGUEZ                CARRETERO                 00000000          N
032004031139013000146013THILARIO                  CABALLERO                MOYA                      00000000          S
032004031139014000146014TCRISTINA                 MAESTRE                  MARTIN ALMAGRO            00000000          S
032004031139015000146015TISABEL                   RODRIGUEZ                GARCIA                    00000000          S
032004031139018000151018TVISITACION               MARTIN                   MURILLO                   00000000          N
032004031139019000151019TMARIA DEL CARMEN         MOLINA                   ESPINOSA                  00000000          N
032004031139020000151020TMARIA DE GRACIA          MORA                     DOMINGUEZ                 00000000          N
032004031139001000153001TFERNANDO                 CASAS                    GALAN                     00000000          N
032004031139002000153002TEMILIO                   NIETO                    LOPEZ                     00000000          N
032004031139003000153003TJOSE                     OVIEDO                   SANCHEZ DE LEON           00000000          N
032004031169007000024007TANTONIO JOSE             DE LEON                  ROBAYNA                   00000000          N
032004031169012000032012TIGNACIO                  ORBE                     SIVATTE                   00000000          N
032004031169016000034016TRAFAEL                   DONATE                   GARCIA                    00000000          N
032004031169006000049006TJOSE LUIS                GONZALEZ                 TEJADA                    00000000          N
032004031169004000067004TVICENTE                  MARTINEZ                 DE LA TORRE               00000000          N
032004031169018000072018TJOAQUIN                  GUTIERREZ                MORENO                    00000000          N
032004031169019000072019TMOISES                   HERAS                    GARCIA                    00000000          N
032004031169020000072020TJUDIT                    JIMENEZ                  FERNANDEZ                 00000000          N
032004031169021000107021TEMILIO                   MOTILLA                  OLMO                      00000000          N
032004031169022000111022TBRUNO                    RUIZ                     LOZANO                    00000000          N
032004031169008000117008TJORGE                    LAZARO                   CARRILLO                  00000000          N
032004031169017000118017TALFONSO                  BUENO                    LOPEZ                     00000000          N
032004031169005000128005TPALMIRA                  MUÑOZ                    MUÑOZ                     00000000          N
032004031169013000130013TMARIA ANGELES            GARCIA                   ROMERO                    00000000          S
032004031169014000130014TJOSE                     MONTALVO                 GARRIDO                   00000000          S
032004031169015000130015TROGELIO                  PARDO                    GABALDON                  00000000          S
032004031169001000146001TLUIS                     AYLLON                   OLIVA                     00000000          S
032004031169002000146002TMARIA INMACULADA         CRUZ                     SALCEDO                   00000000          N
032004031169003000146003TALFONSO                  ESCUDERO                 ORTEGA                    00000000          N
032004031169009000151009TJULIAN                   BONILLA                  ISIDRO                    00000000          N
032004031169010000151010TVICENTE                  PUIG                     PEÑARRUBIA                00000000          N
032004031169011000151011TGLORIA                   SERRANO                  CORPA                     00000000          N
032004031199029000016029TALVARO                   NAVARRO                  PALLARES                  00000000          N
032004031199002000025002TLUIS ANTONIO             DELGADO                  ORTEGA                    00000000          N
032004031199003000025003TMARIA ANGELES            NOBLEJAS                 FLOR                      00000000          N
032004031199020000032020TENRIQUE CASIMIRO         IZQUIERDO                CORBI                     00000000          N
032004031199005000049005TJOSE-IGNACIO             SANZ                     VELLIDO                   00000000          N
032004031199001000052001TJUAN-MANUEL              RUBIO                    RODRIGUEZ                 00000000          N
032004031199006000053006TMARIA SOCORRO            LOPEZ                    PEREZ                     00000000          N
032004031199023000067023TFELIX                    RODRIGUEZ                SANZ                      00000000          N
032004031199014000072014TVICTORIO                 CALLES                   LUENGO                    00000000          N
032004031199015000072015TCRISTINA                 IBEAS                    GIL                       00000000          N
032004031199016000072016TAGUSTIN                  LOZANO                   DE LA CRUZ                00000000          N
032004031199017000101017TJAIME GERARDO            ABAD                     CILLERUELO                00000000          N
032004031199018000101018TLUIS                     BRONCHALO                INIESTA                   00000000          N
032004031199019000107019TISIDORA                  LOBATO                   SANCHEZ                   00000000          N
032004031199021000111021TPEDRO                    HERNANDEZ                BUENDIA                   00000000          N
032004031199022000111022TFRANCISCO                PULIDO                   MORENO                    00000000          N
032004031199007000117007TANTONIA                  CRESPO                   PEREZ                     00000000          N
032004031199024000118024TM. SUSANA                ALEJANDRE                LORENZO                   00000000          N
032004031199025000118025TMARIA TERESA             ALEJANDRE                LORENZO                   00000000          N
032004031199030000128030TEMILIO                   PRIETO                   RUBIO                     00000000          N
032004031199011000130011TLUIS MANUEL              FRAGA                    EGUSQUIAGUIRRE            00000000          S
032004031199012000130012TANTONIO                  ROMAN                    JASANADA                  00000000          S
032004031199013000130013TJUAN PABLO               SANCHEZ                  SANCHEZ-SECO              00000000          S
032004031199026000136026TRAMON                    ACEBO                    FEITO                     00000000          N
032004031199027000136027TRAFAEL                   DIGES                    SANZ                      00000000          N
032004031199028000136028TJOAQUIN                  VALDUNCIEL               FRUTOS                    00000000          N
032004031199008000146008TJUAN JOSE                PALACIOS                 ROJO                      00000000          S
032004031199009000146009TMARIA DEL MONTE CARMELO  PEÑA                     HERNANDEZ                 00000000          N
032004031199010000146010TANA MARIA                PEREZ                    PUIG                      00000000          N
032004031199004000151004TPEDRO-ALBERTO            GARCIA                   BILBAO                    00000000          N
032004031459025000024025TIRENEO                   MORENO                   OTERO                     00000000          N
032004031459026000024026TVIRGILIA                 DIAZ                     GONZALEZ                  00000000          N
032004031459027000024027TJOSE LUIS                FERNANDEZ                GARCIA                    00000000          N
032004031459008000032008TMANUEL                   RICO                     ALMODOVAR                 00000000          N
032004031459009000032009TJAVIER                   BRUSTENGA                MARTINEZ                  00000000          N
032004031459029000034029TSERGIO                   NUÑEZ                    VADILLO                   00000000          N
032004031459015000049015TLUCIANO JAVIER           ZARAGOZA                 GOMEZ                     00000000          N
032004031459001000067001TFELIX                    HERNANDEZ                RABOSO                    00000000          N
032004031459012000072012TCRISTINA                 BASTANTE                 RUBIO                     00000000          N
032004031459013000072013TJULIAN                   BRASERO                  GONZALEZ                  00000000          N
032004031459014000072014TMANUEL                   FUENTES                  REVUELTA                  00000000          N
032004031459007000101007TANTONIO                  MANCHEÑO                 SANTIAGO                  00000000          N
032004031459002000107002TCONSTANZA MARGARITA      MORALES                  DIAZ                      00000000          N
032004031459003000107003TASUNCION                 MORENO                   LOPEZ                     00000000          N
032004031459028000111028TJOSE JULIAN              RODRIGUEZ                GOMEZ-PIMPOLLO            00000000          N
032004031459005000117005TFRANCISCO JAVIER         JIMENEZ                  GOMEZ                     00000000          N
032004031459004000118004TAGUSTINA                 SANZ                     CASTRO                    00000000          N
032004031459010000122010TJUAN CARLOS              PALOMARES                LUENGO                    00000000          N
032004031459011000122011TMANUEL ANTONIO           LUENGO                   GONZALEZ                  00000000          N
032004031459006000128006TENRIQUE                  DARGALLO                 GUERRA                    00000000          N
032004031459016000130016TTOMAS PEDRO              BURGOS                   BETETA                    00000000          S
032004031459017000130017TAGUSTIN                  CONDE                    BAJEN                     00000000          S
032004031459018000130018TREMEDIOS                 GAMEZ                    MATA                      00000000          N
032004031459022000146022TJOSE MIGUEL              CAMACHO                  SANCHEZ                   00000000          S
032004031459023000146023TFRANCISCO JAVIER         CASTAÑO                  DEL OLMO                  00000000          S
032004031459024000146024TMANUELA                  JUSTO                    LOPEZ                     00000000          N
032004031459019000151019TJESUS MARIA              LANCHAS                  REY                       00000000          N
032004031459020000151020TMIGUEL ALFONSO           MONDEJAR                 CEBRIAN                   00000000          N
032004031459021000151021TJESUS                    NAVARRO                  LAHERA                    00000000          N
032004031059025000024025TMONICA                   CABRA                    IZQUIERDO                 00000000          N
032004031059026000024026TMARIA LOURDES            MARCOS                   BERCEDO                   00000000          N
032004031059028000032028TBORJA                    DE CARLOS                GANDASEGUI                00000000          N
032004031059029000049029TCARLOS JAVIER            GALAN                    GUTIERREZ                 00000000          N
032004031059019000052019TMARIANO                  FERNANDEZ                CARRILLO                  00000000          N
032004031059008000053008TJUAN                     GARCIA                   RIVERO                    00000000          N
032004031059018000067018TFELIX                    GONZALEZ                 PRIETO                    00000000          N
032004031059005000070005TMARIA MONTSERRAT         BARCENILLA               MARTINEZ                  00000000          N
032004031059006000070006TSAMUEL JESUS             MARTIN                   GIL                       00000000          N
032004031059007000070007TJOSE ALBERTO             NOVOA                    NIETO                     00000000          N
032004031059001000096001TJOAQUIN                  NONO                     CADENAS                   00000000          N
032004031059004000101004TFERNANDO                 HERRERO                  PAYO                      00000000          N
032004031059020000107020TARTURO ENRIQUE           ESTEBANEZ                GARCIA                    00000000          N
032004031059003000109003TJOSE MANUEL              MUÑOZ                    MATEOS                    00000000          N
032004031059027000117027TMARIA ARANZAZU           MERINO                   THOMAS                    00000000          N
032004031059015000118015TSARA                     REY                      BRAVO                     00000000          N
032004031059016000118016TMARIA ISABEL             PINEL                    OLMEDA                    00000000          N
032004031059017000118017TMARIA JOSE               ZARCO                    BLANCO                    00000000          N
032004031059021000122021TRAIMUNDO                 CALVO                    LOPEZ                     00000000          N
032004031059002000128002TFELIPE                   MARINERO                 VALLESTEROS               00000000          N
032004031059009000130009TCARMEN                   DE ARAGON                AMUNARRIZ                 00000000          S
032004031059010000130010TALBERTO                  PINDADO                  GONZALEZ                  00000000          S
032004031059011000130011TANTOLIN                  SANZ                     PEREZ                     00000000          S
032004031059012000146012TJOSE MARIA               BURGOS                   GARCIA                    00000000          S
032004031059013000146013TMARIA PAZ                CANALES                  GARZON                    00000000          N
032004031059014000146014TSONIA                    CARRASCO                 NOVILLO                   00000000          N
032004031059022000151022TGONZALO                  MONJE                    SANCHEZ                   00000000          N
032004031059023000151023TERNESTO                  MARQUES                  PARRA                     00000000          N
032004031059024000151024TJOSE                     SERRANO                  DE FERNANDO               00000000          N
032004031099001000024001TMARIA ISABEL             DIAZ                     GUTIERREZ                 00000000          N
032004031099002000024002TBRUNO                    BRESSEND                 RODRIGUEZ                 00000000          N
032004031099026000032026TMARIA ESPERAZA           TENA                     MEDINA                    00000000          N
032004031099015000049015TINMACULADA               GARCIA                   CASAMAYOR                 00000000          N
032004031099023000053023TCONSUELO                 JIMENEZ                  BRAZA                     00000000          N
032004031099024000067024TDANIEL                   GOMEZ                    CULLA                     00000000          N
032004031099009000070009TJESUS                    OJEDA                    CALVO                     00000000          N
032004031099010000070010TMARIA CONCEPCION         ORTEGA                   ALONSO                    00000000          N
032004031099011000070011TJOSE MARIA               BARCINA                  VIRUMBRALES               00000000          N
032004031099027000086027TCESAR                    RODRIGUEZ                RUIZ                      00000000          N
032004031099025000096025TJAIME JOSE               COT                      DEL VALLE                 00000000          N
032004031099018000099018TMARIA ISABEL             ESTEBAN                  GALLEGO                   00000000          N
032004031099020000101020TPEDRO                    MARTINEZ                 MARTINEZ                  00000000          N
032004031099022000107022TJUAN CARLOS              CARRILLO                 ALMEIDA                   00000000          N
032004031099021000117021TMANUEL                   VIVES                    SOTO                      00000000          N
032004031099017000118017TRAUL                     GARCIA                   GIRON                     00000000          N
032004031099016000128016TANGEL                    GARCIA                   SANTAMARIA                00000000          N
032004031099003000130003TJUAN CARLOS              APARICIO                 PEREZ                     00000000          S
032004031099004000130004TMARIA BEGOÑA             CONTRERAS                OLMEDO                    00000000          S
032004031099005000130005TJOSE IGNACIO             MARIN                    IZQUIERDO                 00000000          S
032004031099006000146006TJUAN JOSE                LABORDA                  MARTIN                    00000000          S
032004031099007000146007TBERTA                    TRICIO                   GOMEZ                     00000000          N
032004031099008000146008TLUIS                     TUDANCA                  FERNANDEZ                 00000000          N
032004031099012000151012TJOSE LUIS                ESCOLAR                  GÜEMEZ                    00000000          N
032004031099013000151013TTERESA                   HONTORIA                 JIMENEZ                   00000000          N
032004031099014000151014TFERNANDO                 NEBREDA                  BLANCO                    00000000          N
032004031099019000166019TVENTURA                  RODRIGUEZ                ROSARIO                   00000000          N
032004031249004000024004TCARLOS                   ARIAS                    FERNANDEZ                 00000000          N
032004031249005000025005TALFREDO HELIODORO        SANSON                   KAUFFMAN                  00000000          N
032004031249006000032006TFERNANDO                 HERNANDEZ                GURRI                     00000000          N
032004031249024000049024TANDRES                   PIC                      NOGUERA                   00000000          N
032004031249020000052020TEDITH MARIA              FALCON                   VILLACURA                 00000000          N
032004031249021000052021TFRANCISCO                PRIETO                   ALVAREZ                   00000000          N
032004031249022000052022TJESUS ANGEL              PRIETO                   DIAZ                      00000000          N
032004031249017000053017TMARIA ANGELES            PEREZ                    CHICO                     00000000          N
032004031249023000067023TJOAQUIN                  RODERO                   CARRETERO                 00000000          N
032004031249001000070001TJOSE MARIA               MANGA                    ROBLES                    00000000          N
032004031249002000070002TGUILLERMO                MURIAS                   ANDONEGUI                 00000000          N
032004031249003000070003TYVETTE                   VALE                     PENA                      00000000          N
032004031249019000096019TNORBERTO                 GARCIA                   PRIETO                    00000000          N
032004031249031000106031TFERNANDO                 VALCARCE                 GIRON                     00000000          N
032004031249018000117018TSANTIAGO                 NISTAL                   RUIZ                      00000000          N
032004031249013000128013TJAVIER                   DE LARIO                 TOME                      00000000          N
032004031249028000130028TMARIO                    AMILIVIA                 GONZALEZ                  00000000          S
032004031249029000130029TEDUARDO                  FERNANDEZ                GARCIA                    00000000          N
032004031249030000130030TMARIA TRINIDAD           GARCIA                   ARIAS                     00000000          N
032004031249014000134014TJOSEFA                   GONZALEZ                 CENTENO                   00000000          N
032004031249015000134015TMANUELA                  IGLESIAS                 CARREÑO                   00000000          N
032004031249016000134016TAMADEO                   NUÑEZ                    VEGA                      00000000          N
032004031249010000146010TANTONIO                  CANEDO                   ALLER                     00000000          S
032004031249011000146011TANA LUISA                DURAN                    FRAGUAS                   00000000          S
032004031249012000146012TMIGUEL                   MARTINEZ                 FERNANDEZ                 00000000          S
032004031249025000151025TJESUS                    SIERRA                   SIERRA                    00000000          N
032004031249026000151026TRUBEN                    VELEZ                    ALVAREZ                   00000000          N
032004031249027000151027TENRIQUE                  VIDAL                    CARAZO                    00000000          N
032004031249007000159007TGEMA                     CABEZAS                  PEREZ                     00000000          N
032004031249008000159008TLAZARO                   GARCIA                   BAYON                     00000000          N
032004031249009000159009TJOSE MARIA               RODRIGUEZ                DE FRANCISCO              00000000          N
032004031349001000024001TMARIA DE LOS REYES       FRAILE                   GARCIA                    00000000          N
032004031349002000024002TAMADOR                   PRIEDE                   DIAZ                      00000000          N
032004031349008000029008TJOSEFINA                 FRAILE                   MARTIN                    00000000          N
032004031349024000032024TJOSE MARIA               IMAS                     GURREA                    00000000          N
032004031349023000049023TFIDEL                    GARCIA                   BLASCO                    00000000          N
032004031349003000053003TJOSE CARLOS              ZURRO                    TARAZONA                  00000000          N
032004031349018000067018TLUIS IGNACIO             MARTINEZ                 CONEJO                    00000000          N
032004031349014000070014TALBINO                   ALAEZ                    URDIALES                  00000000          N
032004031349015000070015TMANUEL                   ALVAREZ                  RODRIGUEZ                 00000000          N
032004031349016000070016THERMINIA                 FRANCOS                  MULAS                     00000000          N
032004031349009000101009TMARIANO                  HARO                     CISNEROS                  00000000          N
032004031349010000101010TMARIA CARMELA            LEZCANO                  MARTIN                    00000000          N
032004031349004000109004TDANIEL RUBI              VILLARREAL               MACHO                     00000000          N
032004031349017000117017TIÑIGO                    COELLO DE PORTUGAL       MARTINEZ DEL PERAL        00000000          N
032004031349022000118022TRAUL MARIO               DIEZ                     DIEZ                      00000000          N
032004031349019000130019TIGNACIO                  COSIDO                   GUTIERREZ                 00000000          S
032004031349020000130020TJOSE ANTONIO             SACRISTAN                RODRIGUEZ                 00000000          S
032004031349021000130021TMARIA CRISTINA           TEJEDOR                  UTRILLA                   00000000          S
032004031349011000146011TMARIA DEL CARMEN         GONZALEZ                 LAHIDALGA                 00000000          S
032004031349012000146012TMIGUEL                   NOZAL                    CALVO                     00000000          N
032004031349013000146013TANTONIO SANTIAGO         SAN MARTIN               NEMESIO                   00000000          N
032004031349005000151005TANGEL                    BARRIO                   DE LA FUENTE              00000000          N
032004031349006000151006TJULIO CESAR              PEDROSO                  ARIJA                     00000000          N
032004031349007000151007TJOSE MIGUEL              RODRIGUEZ                GARCIA                    00000000          N
032004031379013000024013TMARIA DEL CARMEN         DIAZ                     GUTIERREZ                 00000000          N
032004031379014000024014TLUIS ANTONIO             PRIEDE                   DIAZ                      00000000          N
032004031379019000032019TJOSE ANTONIO             BEJARANO                 MARTIN                    00000000          N
032004031379006000049006TLUIS FERNANDO            DE LA SOTA               NAVAS                     00000000          N
032004031379021000053021TANTONIO RICARDO          LINDOSA                  SEIBANE                   00000000          N
032004031379001000055001TANGEL                    DE PRADO                 HERRERA                   00000000          N
032004031379030000067030TDIEGO                    GONZALEZ                 MATIAS                    00000000          N
032004031379007000070007TVIRGINIA                 CARRERA                  GARROSA                   00000000          N
032004031379008000070008TJULIO                    FERNANDEZ                SEGURA                    00000000          N
032004031379009000070009TANTONIA                  HERNANDEZ                MAESTRE                   00000000          N
032004031379029000101029TELOINA                   PERRINO                  MORALEJO                  00000000          N
032004031379020000109020TMERCEDES                 LOPEZ                    GARCIA                    00000000          N
032004031379005000117005TMARIA DOLORES            RUIZ                     CALAVERA                  00000000          N
032004031379015000118015TJUAN                     DE LA TORRE              AULADELL                  00000000          N
032004031379028000128028TRAFAEL                   JIMENEZ                  FERNANDEZ                 00000000          N
032004031379010000130010TMARIA TERESA             COBALEDA                 HERNANDEZ                 00000000          S
032004031379011000130011TFRANCISCO JAVIER         IGLESIAS                 GARCIA                    00000000          S
032004031379012000130012TJOSE                     MUÑOZ                    MARTIN                    00000000          S
032004031379002000134002TMARIA OLIVA              ALVAREZ                  PEREZ                     00000000          N
032004031379003000134003TJUAN MANUEL              ANDRES                   LOPEZ                     00000000          N
032004031379004000134004TJOSE BENITO              MATEOS                   PASCUAL                   00000000          N
032004031379022000146022TJOSE                     CASTRO                   RABADAN                   00000000          S
032004031379023000146023TCRISTINA                 HERNANDEZ                MARTIN                    00000000          N
032004031379024000146024TTORIBIO                  PLAZA                    GALAN                     00000000          N
032004031379016000151016TLUIS ANGEL               CONCEJO                  SANMARTIN                 00000000          N
032004031379017000151017TVICTOR JOSE              GONZALEZ                 DOMINGUEZ                 00000000          N
032004031379018000151018TJESUS                    RODRIGUEZ                BERJA                     00000000          N
032004031379025000161025TRAUL                     HIDALGO                  GONZALEZ                  00000000          N
032004031379026000161026TJAIME                    MUÑOZ                    PATINO                    00000000          N
