022019041119999000011005TSara María               Domínguez                Gálvez                   F00000000          N
022019041119999000011006TAmador Manuel            González                 Gallardo                 M00000000          N
022019041119999000011007TAna                      Ruiz                     Morillo                  F00000000          N
022019041119999000011008TJosé Antonio             Saborido                 Garrido                  M00000000          N
022019041119999000011009TMaría del Mar            Varela                   Varela                   F00000000          N
022019041119999000022001TMaría del Carmen         Martínez                 Granados                 F00000000          S
022019041119999000022002TFrancisco Javier         Cano                     Leal                     M00000000          S
022019041119999000022003TSergio                   Pelayo                   Jimeno                   M00000000          N
022019041119999000022004TJuan Antonio             Martínez                 Romero                   M00000000          N
022019041119999000022005TLucrecia María           Valverde                 Lasanta                  F00000000          N
022019041119999000022006TSonia                    Álvarez                  Ruiz                     F00000000          N
022019041119999000022007TJavier Jesús             Gómez                    Porrúa                   M00000000          N
022019041119999000022008TAida                     Linares                  Lozano                   F00000000          N
022019041119999000022009TAgustín                  Lorenzo                  Morales                  M00000000          N
022019041119999000054001TEduardo Jesús            Rovira                   del Río                  M00000000          N
022019041119999000054002TManuel María             Cabello                  Izquierdo                M00000000          N
022019041119999000054003TMaría del Carmen         Ríos                     Cózar                    F00000000          N
022019041119999000054004TMaría del Pilar          Gato                     Silió                    F00000000          N
022019041119999000054005TEmilio                   Arcos                    Lanceta                  M00000000          N
022019041119999000054006TMaría de las Nieves      González                 España                   F00000000          N
022019041119999000054007TAlejandra                Gómez                    Becerra                  F00000000          N
022019041119999000054008TÁlvaro                   Morales                  Sánchez                  M00000000          N
022019041119999000054009TSalvador                 Sánchez                  Sánchez                  M00000000          N
022019041119999000057001TDavid Pelayo             Segura                   Moreno                   M00000000          N
022019041119999000057002TJesús                    Ruiz                     Gil                      M00000000          N
022019041119999000057003TYolanda                  Rodríguez                González                 F00000000          N
022019041119999000057004TLuis                     Delgado                  Ramírez                  M00000000          N
022019041119999000057005TÁgueda                   Parra                    Jiménez                  F00000000          N
022019041119999000057006TArmando                  Cáceres                  Vázquez                  M00000000          N
022019041119999000057007TCarmen                   León                     Sánchez                  F00000000          N
022019041119999000057008TCatalina                 Ruiz                     Sánchez                  F00000000          N
022019041119999000057009TIsidoro                  León                     Navarro                  M00000000          N
022019041119999000058001TFranciso José            Ferrer                   Gálvez                   M00000000          N
022019041119999000058002TMaría Josefa             López                    Sánchez                  F00000000          N
022019041119999000058003TJosé Miguel              Rojas                    Quintana                 M00000000          N
022019041119999000058004TMaría África             Merino                   Ruiz                     F00000000          N
022019041119999000058005TAntonio                  Pérez                    Castellano               M00000000          N
022019041119999000058006TManuela                  Ferrer                   Gálvez                   F00000000          N
022019041119999000058007TJosé Ramón               Aragón                   Orihuela                 M00000000          N
022019041119999000058008TAna María                Moreno                   Ramírez                  F00000000          N
022019041119999000058009TCristóbal                Nieto                    Pavón                    M00000000          N
022019041119999000081001TNoelia                   Vera                     Ruiz Herrera             F00000000          S
022019041119999000081002TJuan Antonio             Delgado                  Ramos                    M00000000          S
022019041119999000081003TSantiago                 Gutiérrez                Ruiz                     M00000000          N
022019041119999000081004TRosa María               Tomillero                Cortés                   F00000000          N
022019041119999000081005TCarlos                   Fernández                Aragón                   M00000000          N
022019041119999000081006TGema                     Martín                   de Arriba                F00000000          N
022019041119999000081007TJuan Jesús               Rivera                   León                     M00000000          N
022019041119999000081008TJosefa María             Franco                   Cantalejo                F00000000          N
022019041119999000081009TJosé Luis                Bueno                    Pinto                    M00000000          N
022019041119999000083001TMaría José               García-Pelayo            Jurado                   F00000000          S
022019041119999000083002TJosé                     Ortiz                    Galván                   M00000000          N
022019041119999000083003TJosé Ignacio             Romaní                   Cantera                  M00000000          N
022019041119999000083004TMaría Felicidad          Rodríguez                Sánchez                  F00000000          N
022019041119999000083005TErnesto                  Marín                    Andrade                  M00000000          N
022019041119999000083006TFrancisco Javier         Díaz                     Jurado                   M00000000          N
022019041119999000083007TMaría                    Muiño                    López                    F00000000          N
022019041119999000083008TMaría de los Ángeles     Morales                  Pérez                    F00000000          N
022019041119999000083009TAurelio Antonio          Sánchez                  Ramos                    M00000000          N
022019041209999000080001TPilar                    Garrido                  Gutierrez                F00000000          S
022019041209999000080002TRafael                   Sainz de Rozas           Bedialauneta             M00000000          N
022019041209999000080003TUbaldo                   Ortiz                    Rodrigo                  M00000000          N
022019041209999000080004TKelly Alba               Holmwood                 Benito                   F00000000          N
022019041209999000080005TCarlos                   Rodriguez                Rubio                    M00000000          N
022019041209999000080006TIsabel                   Salud                    Areste                   F00000000          N
022019041209999000083001TIñigo                    Arcauz                   Ascargorta               M00000000          N
022019041209999000083002TMaria Pilar              Elias                    Zabala                   F00000000          N
022019041209999000083003TJose Maria               Murguiondo               Casal                    M00000000          N
022019041209999000083004TJose Miguel              Ochoteco                 Aguirre                  M00000000          N
022019041209999000083005TSilvia                   Garcia                   Baglietto                F00000000          N
022019041209999000083006TPatricia María           Puértolas                Guerra                   F00000000          N
022019041209999000094001TOdon                     Elorza                   Gonzalez                 M00000000          S
022019041209999000094002TMaría Luisa del Pilar    Garcia                   Gurruchaga               F00000000          N
022019041209999000094003TJesus Maria              Zaballos                 de Llanos                M00000000          N
022019041209999000094004TAzahara                  Dominguez                Urtizberea               F00000000          N
022019041209999000094005TAlfonso                  Gurpegui                 Ruiz                     M00000000          N
022019041209999000094006TMaria Lourdes            Acevedo                  Beldarrain               F00000000          N
022019041209999000100001TJose Manuel              Corcuera                 Miranda                  M00000000          N
022019041209999000100002TMaria Rosario            Alonso                   Amigot                   F00000000          N
022019041209999000100003TJavier                   Denche                   Parrilla                 M00000000          N
022019041209999000100004TInes                     Cerdan                   Elcuaz                   F00000000          N
022019041209999000100005TGaizka                   Uceda                    Loroño                   M00000000          N
022019041209999000100006TMiren                    Segura                   Ruiz                     F00000000          N
022019041209999000104001TMaría Angeles            Alberdi                  Bergareche               F00000000          N
022019041209999000104002TRoberto                  Gómez                    Egido                    M00000000          N
022019041209999000104003TMaría del Carmen         Devesa                   García                   F00000000          N
022019041209999000104004TNagore                   Blasco                   Bilbao                   F00000000          N
022019041149999000096001TLuis                     Planas                   Puchades                 M00000000          S
022019041149999000096002TRafaela                  Crespín                  Rubio                    F00000000          S
022019041149999000096003TAntonio                  Hurtado                  Zurera                   M00000000          N
022019041149999000096004TTeba                     Roldán                   Juez                     F00000000          N
022019041149999000096005TJuan                     Díaz                     Caballero                M00000000          N
022019041149999000096006TMaría Josefa             Jurado                   Pescuezo                 F00000000          N
022019041149999000100001TJoaquín                  Malo de Molina           Fernández de Córdova     M00000000          N
022019041149999000100002TBegoña                   Escribano                Salmoral                 F00000000          N
022019041149999000100003TMiguel                   Delgado                  Ayuso                    M00000000          N
022019041149999000100004TMaría del Carmen         Espada                   Serrano                  F00000000          N
022019041149999000100005TJosé Luis                García                   Montero                  M00000000          N
022019041149999000100006TRaquel                   Castillo                 Fernández                F00000000          N
022019041149999000104001TMaría Dolores            Minuesa                  Soria                    F00000000          N
022019041149999000104002TÁngel                    Vega                     Sánchez                  M00000000          N
022019041149999000104003TAraceli                  Roldán                   Tejada                   F00000000          N
022019041149999000104004TManuel                   Cobacho                  Ramos                    M00000000          N
022019041149999000104005TLucía                    Requena                  Perea                    F00000000          N
022019041149999000104006TManuel                   Lara                     Tejada                   M00000000          N
022019041149999000117001TJosé                     Ramírez                  del Río                  M00000000          S
022019041149999000117002TMaría Dolores            Hermoso                  Porras                   F00000000          N
022019041149999000117003TFrancisco Jesús          Navas                    Ruíz                     M00000000          N
022019041149999000117004TMaría Francisca          de Prado                 López                    F00000000          N
022019041149999000117005TEnrique                  Rubio                    Merino                   M00000000          N
022019041149999000117006TMaría                    Trillo                   Sánchez                  F00000000          N
022019041159999000012001TNestor                   Rego                     Candamil                 M00000000          N
022019041159999000012002TMaría Xosé               Bravo                    San José                 F00000000          N
022019041159999000012003TRamón                    Fernández                Alfonzo "Mon"            M00000000          N
022019041159999000012004TSilvia                   Pardo                    Galdo                    F00000000          N
022019041159999000012005TMiguel                   Pernas                   Cora                     M00000000          N
022019041159999000012006TMaruxa                   Martínez                 Romaní                   F00000000          N
022019041159999000012007TAna                      Lestón                   Gallardo                 F00000000          N
022019041289999000072014TPedro                    Fernaud                  Quintana                 M00000000          N
022019041289999000072015TMaría Victoria           González                 Nogales                  F00000000          N
022019041289999000072016TCarmen                   Barroso                  Caballo                  F00000000          N
022019041289999000072017TJulián                   Múñoz                    Felipe                   M00000000          N
022019041289999000072018TVirginia                 López                    López                    F00000000          N
022019041289999000072019TJoaquín Pablo            Segado                   Bixquert                 M00000000          N
022019041289999000072020TTamara Rosa              Bueno                    Doral                    F00000000          N
022019041289999000072021TAntonio Javier           Pangua                   de la Varga              M00000000          N
022019041289999000072022TSusana                   Sánchez                  Jara                     F00000000          N
022019041289999000072023TManuel                   Hidalgo                  González                 M00000000          N
022019041289999000072024TMaría Isabel             Pérez                    Gallardo                 F00000000          N
022019041289999000072025TÁngel                    Pascual                  Merino                   M00000000          N
022019041289999000072026TOlga                     Pardo                    Ayuso                    F00000000          N
022019041289999000072027TSantiago                 Galletero                Galletero                M00000000          N
022019041289999000072028TMaría Teresa             Cuevas                   Pardo                    F00000000          N
022019041289999000072029TJorge Eduardo            Salinas                  Vélez                    M00000000          N
022019041289999000072030TPablo Alberto            de Pedro                 Martín                   M00000000          N
022019041289999000072031TAlfonso                  Bueno                    López                    M00000000          N
022019041289999000072032TMaría de las Mercedes    Rodríguez                Tenaguillo               F00000000          N
022019041289999000072033TIsrael                   Guadalix                 García                   M00000000          N
022019041289999000072034TCarmen                   Bendicho                 Ruiz                     F00000000          N
022019041289999000072035TBorja                    Guadalix                 García                   M00000000          N
022019041289999000072036TMiriam                   Hidalgo                  López                    F00000000          N
022019041289999000072037TFrancisco Javier         Batres                   Sánchez                  M00000000          N
022019041289999000077001TPablo                    Iglesias                 Turrión                  M00000000          S
022019041289999000077002TIrene                    Montero                  Gil                      F00000000          S
022019041289999000077003TEnrique                  Santiago                 Romero                   M00000000          S
022019041289999000077004TGloria                   Elizo                    Serrano                  F00000000          S
022019041289999000077005TRafael                   Mayoral                  Perales                  M00000000          S
022019041289999000077006TMaría Mercedes           Pérez                    Merino                   F00000000          S
022019041289999000077007TPablo Manuel             Fernández                Alarcón                  M00000000          N
022019041289999000077008TAnabel                   Segado                   Sújar                    F00000000          N
022019041289999000077009TMariano                  Muniesa                  de Caveda                M00000000          N
022019041289999000077010TEsperanza                Jubera                   García                   F00000000          N
022019041289999000077011TVíctor                   Alonso                   Rocafort                 M00000000          N
022019041289999000077012TAída María               Quinatoa                 Quinatoa                 F00000000          N
022019041289999000077013TMaite                    Pina                     Ledesma                  F00000000          N
022019041289999000077014TYeison Fernando          García                   López                    M00000000          N
022019041289999000077015TAntonia María            Quispe                   Ayala                    F00000000          N
022019041289999000077016TXavi                     García                   Fernández                M00000000          N
022019041289999000077017TLizeth                   Valeros                  Chura                    F00000000          N
022019041289999000096026TMaría Elena              Alfonso                  González                 F00000000          N
022019041289999000096027TCarlos                   Sanz                     Zudaire                  M00000000          N
022019041289999000096028TBegoña                   García                   García                   F00000000          N
022019041289999000096029TCándido                  Marín                    Madrid                   M00000000          N
022019041289999000096030TLucía                    Parcet                   Romero                   F00000000          N
022019041289999000096031TMiguel                   Ribagorda                Serrano                  M00000000          N
022019041289999000096032TMaría José               Linares                  Ruiz                     F00000000          N
022019041289999000096033TDiego                    Fernández                Reyes                    M00000000          N
022019041289999000096034TGloria                   Razabal                  González                 F00000000          N
022019041289999000096035TJosé Luis                Blanco                   Velasco                  M00000000          N
022019041289999000096036TVisitación               González                 Villa                    F00000000          N
022019041289999000096037TMariano                  Rubio                    Guzmán                   M00000000          N
022019041289999000100001TAlejandro                Plans                    Beriso                   M00000000          N
022019041289999000100002TMaría del Mar            Ruiz                     Baños                    F00000000          N
022019041289999000100003TIván                     de los Mozos             Hernando                 M00000000          N
022019041289999000100004TAmaya                    Valcárcel                Silvela                  F00000000          N
022019041289999000100005TJosé                     Serrano                  Paradinas                M00000000          N
022019041289999000100006TAndrea                   Doadrio                  Orenga                   F00000000          N
022019041119999000096001TFernando                 Grande-Marlaska          Gómez                    M00000000          S
022019041119999000096002TEva                      Bravo                    Barco                    F00000000          S
022019041119999000096003TJuan Carlos              Campo                    Moreno                   M00000000          S
022019041119999000096004TMaría Gemma              Araujo                   Morales                  F00000000          N
022019041119999000096005TJosé Ramón               Ortega                   Domínguez                M00000000          N
022019041119999000096006TCarla Alejandra          Leguiza                  Canicoba                 F00000000          N
022019041119999000096007TManuel Jesús             Melero                   Callado                  M00000000          N
022019041119999000096008TLaura                    Almisas                  Ramos                    F00000000          N
022019041119999000096009TAlejandro                Sañudo                   González                 M00000000          N
022019041119999000104001TAna María                Muñoz                    Colera                   F00000000          N
022019041119999000104002TVictor Manuel            Real                     Sánchez                  M00000000          N
022019041119999000104003TJosefa                   Fernández                Leal                     F00000000          N
022019041119999000104004TJosé                     Pantoja                  Salas                    M00000000          N
022019041119999000104005TMilagros                 Muñoz                    Pérez                    F00000000          N
022019041119999000104006TJosé Manuel              Álvarez                  Estrada                  M00000000          N
022019041119999000104007TAntonio                  García-Galán             Molina                   M00000000          N
022019041079999000054002TAglae Meritxell          Perin                    Luis                     F00000000          N
022019041079999000054003TLlorenç                  Pascual                  Vives                    M00000000          N
022019041079999000054004TCristina                 Perea                    Pau                      F00000000          N
022019041079999000054005TLluc                     Berrio                   Penycate                 M00000000          N
022019041079999000054006TSonia Estefanía          Mulet                    Martínez                 F00000000          N
022019041079999000054007TMateo Enrique            Coll                     Barrera                  M00000000          N
022019041079999000054008TNatalia                  Fernández                Martín                   F00000000          N
022019041079999000056001TAndrés Silvano           Bernstein                Darder                   M00000000          N
022019041079999000056002TMª Monserrat             Seijas                   Patiño                   F00000000          N
022019041079999000056003TGuillermo                Amengual                 Cantallops               M00000000          N
022019041079999000056004TShirley                  Siles                    Vargas                   F00000000          N
022019041079999000056005TEduardo Bute             Sánchez                  Hoyos                    M00000000          N
022019041079999000056006TMª Josefa                Ramos                    Palomino                 F00000000          N
022019041079999000056007TCarlos                   López                    Piñeiro                  M00000000          N
022019041079999000056008TAdriana Mª               García                   Martínez                 F00000000          N
022019041079999000074001TAntonia                  Jover                    Diaz                     F00000000          S
022019041079999000074002TLucía Miriam             Muñoz                    Dalda                    F00000000          S
022019041079999000074003TAlfonso                  Rodríguez                Sánchez                  M00000000          N
022019041079999000074004TAndrea                   Ortiz                    Parera                   F00000000          N
022019041079999000074005TSebastià                 Servera                  Moll                     M00000000          N
022019041079999000074006TJuan José                Hinojo                   Domené                   M00000000          N
022019041079999000074007TMaria Luisa              Lucas                    Perpiñá                  F00000000          N
022019041079999000074008TArtur                    Parrón                   Guasch                   M00000000          N
022019041079999000083001TMargarita                Prohens                  Rigo                     F00000000          S
022019041079999000083002TMiguel Angel             Jerez                    Juan                     M00000000          N
022019041079999000083003TAna Lía                  Noval                    García                   F00000000          N
022019041079999000083004TCarlos                   Martínez de Tejada       Pérez                    M00000000          N
022019041079999000083005TAnna                     Negre                    Casals                   F00000000          N
022019041079999000083006TLorenzo                  Cardona                  Seguí                    M00000000          N
022019041079999000083007TLourdes                  Cardona                  Ribas                    F00000000          N
022019041079999000083008TAntonio                  Gómez                    Pérez                    M00000000          N
022019041079999000097001TPere Joan                Pons                     Sampietro                M00000000          S
022019041079999000097002TSofia                    Hernanz                  Costa                    F00000000          S
022019041079999000097003TPau                      Morlà                    Florit                   M00000000          S
022019041079999000097004TRosa Maria               Bestard                  Pons                     F00000000          N
022019041079999000097005TJosep Antoni             Mayans                   Mesquida                 M00000000          N
022019041079999000097006TAmanda                   Fernández                Rubí                     F00000000          N
022019041079999000097007TJaime Juan               Oliver                   Vallés                   M00000000          N
022019041079999000097008TClara                    Costa                    Tur                      F00000000          N
022019041079999000100001TIñigo                    Diego                    Gayte                    M00000000          N
022019041079999000100002TMarina                   Fernandez                Delgado                  F00000000          N
022019041079999000100003TRuben                    Leal                     Garcia                   M00000000          N
022019041079999000100004TMaria Noel               Escardo                  Pereyra                  F00000000          N
022019041079999000100005TArmando                  Garcia                   Paniagua                 M00000000          N
022019041159999000012008TXesús Miguel             de Toro                  Santos "Suso de Toro"    M00000000          N
022019041159999000022001TMarta                    Rivera                   de la Cruz               F00000000          S
022019041159999000022002TMaría                    Vilas                    Liñares                  F00000000          N
022019041159999000022003TMónica                   Martínez                 Lema                     F00000000          N
022019041159999000022004TAndrés                   Pérez                    Rouco                    M00000000          N
022019041159999000022005TMarcos                   Martínez                 Candal                   M00000000          N
022019041159999000022006TMaría Esther             Diz                      García                   F00000000          N
022019041159999000022007TCésar Manuel             Iglesias                 Fernández                M00000000          N
022019041159999000022008TMarcial                  Martelo de la Maza       García                   M00000000          N
022019041159999000024001TXoán Manuel              Rodríguez                Bastida                  M00000000          N
022019041159999000024002TPaula María              Rey                      Gómez                    F00000000          N
022019041159999000024003TJosé Manuel              Parada                   Maroño                   M00000000          N
022019041159999000024004TMargarita                Vázquez                  Bermúdez                 F00000000          N
022019041159999000024005TXesús                    Ares                     Gómez                    M00000000          N
022019041159999000024006TCarmen Rosa              Roca                     Pagola                   F00000000          N
022019041159999000024007TPedro                    Castañeda                Sánchez                  M00000000          N
022019041159999000024008TMaría Xosefa             Comojo                   Sobradelo                F00000000          N
022019041159999000036001TAna                      Seijas                   Baranauskas              F00000000          N
022019041159999000036002TFrancisco                Casal                    Vidal                    M00000000          N
022019041159999000036003TAlba                     Nogueira                 López                    F00000000          N
022019041159999000036004TMaría                    Chao                     Martínez                 F00000000          N
022019041159999000036005TAdrián                   Dios                     Vicente                  M00000000          N
022019041159999000036006TCarmen                   Fernández                Ríos                     F00000000          N
022019041159999000036007TCarlos                   Neira                    Suárez                   M00000000          N
022019041159999000036008TDaniel                   Oca                      González                 M00000000          N
022019041159999000054001TMónica                   Velázquez                Couto                    F00000000          N
022019041159999000054002TPablo                    Díaz                     Cardamas                 M00000000          N
022019041159999000054003TYolanda                  Rey                      Castro                   F00000000          N
022019041159999000054004TJosé Antonio             González                 Álvarez                  M00000000          N
022019041159999000054005TManuela                  García                   López                    F00000000          N
022019041159999000054006TAlejandro                Villamor                 Iglesias                 M00000000          N
022019041159999000054007TAlejandra María          Rodríguez                Veiga                    F00000000          N
022019041159999000054008TLuis Miguel              González                 Seijas                   M00000000          N
022019041159999000057001TAndrés                   Paredes                  Sánchez                  M00000000          N
022019041159999000057002TAarón                    López                    Azcunaga                 M00000000          N
022019041159999000057003TCristina                 Riobóo                   Díaz                     F00000000          N
022019041159999000057004TAida                     Sánchez                  Iglesias                 F00000000          N
022019041159999000057005TRubén Darío              Vázquez                  Vázquez                  M00000000          N
022019041159999000057006TVanessa                  Meleiro                  Soto                     F00000000          N
022019041159999000057007TDavid                    Figueroa                 Collazo                  M00000000          N
022019041159999000057008TÁngela                   Matos                    Castellví                F00000000          N
022019041159999000068001TFrancisco Eugenio        Sebio                    Peña                     M00000000          N
022019041159999000068002TMaría Ángeles            Prin                     Bermúdez                 F00000000          N
022019041159999000068003TPorfirio                 Embade                   Pita                     M00000000          N
022019041159999000068004TTania                    Redondo                  González                 F00000000          N
022019041159999000068005TFrancisco Leonardo       Aneiros                  Dopico                   M00000000          N
022019041159999000068006TRosa María               Rey                      Varela                   F00000000          N
022019041159999000068007TDiego                    Ferreira                 Domínguez                M00000000          N
022019041159999000068008TMaría Azucena            Núñez                    Rodríguez                F00000000          N
022019041159999000075001TAntón                    Gómez-Reino              Varela                   M00000000          S
022019041159999000075002TLoreto                   Taibo                    Rama                     F00000000          N
022019041159999000075003TJosé                     García                   Buitrón                  M00000000          N
022019041159999000075004TAlberto                  Prieto                   Arranz                   M00000000          N
022019041159999000075005TLaura                    Porteiro                 Balsa                    F00000000          N
022019041159999000075006TNoelia                   Pedreira                 Díaz                     F00000000          N
022019041159999000075007TLuis Víctor              Ruíz                     Rodríguez                M00000000          N
022019041159999000075008TRaquel                   Bernárdez                Rodal                    F00000000          N
022019041159999000083001TMarta                    González                 Vázquez                  F00000000          S
022019041159999000083002TTristana María           Moraleja                 Gómez                    F00000000          S
022019041159999000083003TMaría Valentina          Martínez                 Ferro                    F00000000          S
022019041289999000100007TJuan                     Bayona                   Beriso                   M00000000          N
022019041289999000100008TMaría Begoña             Merinero                 Cortes                   F00000000          N
022019041289999000100009TFederico                 Rodríguez                Frade                    M00000000          N
022019041289999000100010TRosalía                  Sánchez                  Alonso                   F00000000          N
022019041289999000100011TJesús Manuel             Martín                   Fernández                M00000000          N
022019041289999000100012TMaría Belén              Meyer                    Delgado                  F00000000          N
022019041289999000100013TEmilio                   López                    Yebra                    M00000000          N
022019041289999000100014TMaría Aránzazu           Pando                    Ferrán                   F00000000          N
022019041289999000100015TModesto                  Gutiérrez                Gutiérrez                M00000000          N
022019041289999000100016TLaura                    García                   Díaz                     F00000000          N
022019041289999000100017TRamón Octavio            Carpena                  Ruiz                     M00000000          N
022019041289999000100018TMaría del Carmen         Pérez de Algaba          Cuenca                   F00000000          N
022019041289999000100019TDavid                    González                 Tejero                   M00000000          N
022019041289999000100020TKarla Alejandra          Rojas                    Armijos                  F00000000          N
022019041289999000100021TJosé María               Bayona                   Beriso                   M00000000          N
022019041289999000100022TMaría Rosa               Sanz                     Escudero                 F00000000          N
022019041289999000100023TArturo Francisco         Alonso                   Rivero                   M00000000          N
022019041289999000100024TMaría del Carmen         Santiago                 Martín                   F00000000          N
022019041289999000100025TFernando                 Llorente                 Gutiérrez                M00000000          N
022019041289999000100026TMaría Teresa             García                   Mesonero                 F00000000          N
022019041289999000100027TIgnacio                  de Oñate                 Alguero                  M00000000          N
022019041289999000100028TBeatriz                  Plans                    Beriso                   F00000000          N
022019041289999000100029TDavid                    Rey                      González                 M00000000          N
022019041289999000100030TMaría Mercedes           García                   Echandi                  F00000000          N
022019041289999000100031TInés                     Merino                   Gómez                    F00000000          N
022019041289999000100032TJuan Enrique             de Frutos                Pérez                    M00000000          N
022019041289999000100033TLourdes                  Martín-Laborda           García de la Rasilla     F00000000          N
022019041289999000100034TJosé Manuel              Gómez                    Barrientos               M00000000          N
022019041289999000100035TFrancisca                Espín                    Ruiz                     F00000000          N
022019041289999000100036TBernardino               Lozano                   González                 M00000000          N
022019041289999000100037TAna                      Gil                      Merino                   F00000000          N
022019041289999000105001TNuria                    Suárez                   Hernández                F00000000          N
022019041289999000105002TEsteban                  Cabal                    Riera                    M00000000          N
022019041289999000105003TAna María                Luque                    Sillero                  F00000000          N
022019041289999000105004TSara                     Ruiz                     Martínez                 F00000000          N
022019041289999000105005TÁngel                    Casero                   Hernández                M00000000          N
022019041289999000105006TAmanda                   Rodríguez                Cabal                    F00000000          N
022019041289999000105007TÁngel                    Roldán                   López                    M00000000          N
022019041289999000105008TLucía                    de la Torre              Montesino                F00000000          N
022019041289999000105009TÁlvaro                   Fernández                Mateo                    M00000000          N
022019041289999000105010TJuana Constantina        Zlotescu                 Simatu                   F00000000          N
022019041289999000105011TJuan                     Talavera                 Canales                  M00000000          N
022019041289999000105012TMaría de las Nieves      Gómez                    Martínez                 F00000000          N
022019041289999000105013TJorge                    González                 Daniel                   M00000000          N
022019041289999000105014TJulián                   Martínez                 García                   M00000000          N
022019041289999000105015TRaquel                   Álvarez                  Peláez                   F00000000          N
022019041289999000105016TMarcelo                  Armengot                 Iborra                   M00000000          N
022019041289999000105017TAna                      Rico                     Rubio                    F00000000          N
022019041289999000105018TNarciso                  Solorzano                Arévalo                  M00000000          N
022019041289999000105019TMaría Cecilia            Voter                    Renjifo                  F00000000          N
022019041289999000105020TPablo                    Guarino                  Luque                    M00000000          N
022019041289999000105021TMaría Dolores            Alcalá                   Mora                     F00000000          N
022019041289999000105022TErnesto Miguel           Nungesser                Luengo                   M00000000          N
022019041289999000105023TAntonio                  Oyuela                   Sánchez                  M00000000          N
022019041289999000105024TIria María               Peón                     García                   F00000000          N
022019041289999000105025TLucas Ricardo            González                 Hernández                M00000000          N
022019041289999000105026TMiguel Ángel             Rozas                    Sanz                     M00000000          N
022019041289999000105027TFabián                   Appel                    Katz                     M00000000          N
022019041289999000105028TEsther                   Martínez                 de la Hoya               F00000000          N
022019041079999000100006TSilvia                   Burdiel                  Alvaro                   F00000000          N
022019041079999000100007TFrancisco Javier         Barcina                  Burgui                   M00000000          N
022019041079999000100008TOlga Maria               Artero                   Calandria                F00000000          N
022019041079999000104001TNatalia                  Vara                     Bodas                    F00000000          N
022019041079999000104002TAdrià                    González                 Minaya                   M00000000          N
022019041079999000104003TLuis Juan                de la Torre              Guzmán                   M00000000          N
022019041079999000104004TMaryelin                 Amparo                   Ramírez                  F00000000          N
022019041079999000104005TJuan José                Fenández                 Panadero                 M00000000          N
022019041079999000104006TMireia                   Gómez                    Giner                    F00000000          N
022019041079999000104007TFrancisco                Merino                   Iglesias                 M00000000          N
022019041079999000104008TFrancica                 López                    Ferrer                   F00000000          N
022019041079999000117001TMagdalena Margarita      Contestí                 Rosselló                 F00000000          S
022019041079999000117002TPatricia                 de las Heras             Fernández                F00000000          N
022019041079999000117003TJaime                    Brunicardi               Martínez                 M00000000          N
022019041079999000117004TAndrés Tomás             Buades                   de Armenteras            M00000000          N
022019041079999000117005TMaría Dolores            Nchaso                   Sota                     F00000000          N
022019041079999000117006TFrancisco                Pol                      Alorda                   M00000000          N
022019041079999000117007TVanesa                   Jofre                    Blake                    F00000000          N
022019041079999000117008TFulgencio                Coll                     Bucher                   M00000000          N
022019041089999000019001TSílvia                   Requena                  Martínez                 F00000000          N
022019041089999000019002TBertrand                 de Five                  Pranger                  M00000000          N
022019041089999000019003TTeresa                   Clua                     Bosch                    F00000000          N
022019041089999000019004TJosep Ramon              Argilés                  Serrador                 M00000000          N
022019041089999000019005TTeresa                   Ribes                    Font                     F00000000          N
022019041089999000019006TTatiana Chris            Dominguez                Araujo                   F00000000          N
022019041089999000019007TMiguel Angel             Majadas                  Martinez                 F00000000          N
022019041089999000019008TJordi                    Sansalvador              Garrido                  M00000000          N
022019041089999000019009TAna Maria                Lafont                   Monie                    F00000000          N
022019041089999000019010TLuis Miguel              Perez                    Cervera                  M00000000          N
022019041089999000019011TMario                    Marti                    Gutierrez                M00000000          N
022019041089999000019012TMaria                    Monterde                 Comillas                 F00000000          N
022019041089999000019013TDavid                    Torner                   Mercader                 M00000000          N
022019041089999000019014TRat                      Gasol                    Pollina                  F00000000          N
022019041089999000019015TLuis                     Carrero                  Monserrat                M00000000          N
022019041089999000019016TLaura                    Piera                    Vidal                    F00000000          N
022019041089999000019017TRoger                    Basco                    Conesa                   M00000000          N
022019041089999000019018TEsteban                  Bague                    Benitez                  M00000000          N
022019041089999000019019TMaria                    de Jesus                 de Jesus                 F00000000          N
022019041089999000019020TVictor                   Trujillo                 Trapero                  M00000000          N
022019041089999000019021TPedro                    Sanchez                  Valdivia                 M00000000          N
022019041089999000019022TDolores                  Fernandez                Gutierrez                F00000000          N
022019041089999000019023TFrancisco Javier         Falgar                   Amat                     M00000000          N
022019041089999000019024TJuan                     Cabanas                  Oltra                    M00000000          N
022019041089999000019025TMagdalena                Català i                 Sanchez                  F00000000          N
022019041089999000019026TMaria Gloria             Queralto                 Perez                    F00000000          N
022019041089999000019027TRafel                    Gutierrez                Herran                   M00000000          N
022019041089999000019028TAntonio                  Serrano                  Rojas                    M00000000          N
022019041089999000019029TRosa                     Vallcaneras              Jiménez                  F00000000          N
022019041089999000019030TNoemi                    Jimenez                  Piera                    F00000000          N
022019041089999000019031TBibiana                  Estruch                  Herman                   F00000000          N
022019041089999000019032TGermà                    Gordó i                  Aubarell                 M00000000          N
022019041089999000022001TInés                     Arrimadas                García                   F00000000          S
022019041089999000022002TAntonio                  Roldán                   Monés                    M00000000          S
022019041089999000022003TFernando Tomás           de Páramo                Gómez                    M00000000          S
022019041089999000022004TJosé María               Espejo-Saavedra          Conesa                   M00000000          S
022019041089999000022005TCarina                   Mejías                   Sánchez                  F00000000          N
022019041089999000022006TLaia                     Garrido                  Angaron                  F00000000          N
022019041089999000022007TCarlos                   Aguilar                  Moreno                   M00000000          N
022019041089999000022008TMaría Cristina           Corona                   Guijarro                 F00000000          N
022019041089999000022009TIsabel                   Martínez                 Comas                    F00000000          N
022019041159999000083004TJosé Angel               Rodríguez                Prieto                   M00000000          N
022019041159999000083005TJulio                    Bustelo                  Castaño                  M00000000          N
022019041159999000083006TMaría José               Sampedro                 Fernández                F00000000          N
022019041159999000083007TRogelio                  Lema                     Mougan                   M00000000          N
022019041159999000083008TAlejandro                Sánchez-Brunete          Varela                   M00000000          N
022019041159999000093001TPilar                    Cancela                  Rodríguez                F00000000          S
022019041159999000093002TPablo                    Arangüena                Fernández                M00000000          S
022019041159999000093003TMaría Montserrat         García                   Chavarría                F00000000          S
022019041159999000093004TDiego Antonio            Taibo                    Monelos                  M00000000          N
022019041159999000093005TNatividad                González                 Laso                     F00000000          N
022019041159999000093006TJesús                    Fernández                Diez                     M00000000          N
022019041159999000093007TClarisa Beatriz          Domínguez                Siaba                    F00000000          N
022019041159999000093008TMiguel Ángel             Paz                      Barreiro                 M00000000          N
022019041159999000104001TSara                     Puga                     Rey                      F00000000          N
022019041159999000104002TIñaki                    Barinaga                 Olano                    M00000000          N
022019041159999000104003TAlfonso                  Casal                    Pita                     M00000000          N
022019041159999000104004TManuel Ángel             Martínez                 Sánchez                  M00000000          N
022019041159999000104005TMaría Estrella           Vázquez                  García                   F00000000          N
022019041159999000104006TAndrea                   Rodríguez                García                   F00000000          N
022019041159999000104007TJosé Francisco           Vicente                  Rodríguez                M00000000          N
022019041159999000104008TAlba                     Moreira                  Abalo                    F00000000          N
022019041159999000117001TMiguel Ángel             Fernández                López                    M00000000          N
022019041159999000117002TMaría Jesús              Herrero                  García                   F00000000          N
022019041159999000117003TEnrique                  Estella                  Ledo                     M00000000          N
022019041159999000117004TElisa Carolina           Fernández                Feijoo                   F00000000          N
022019041159999000117005TJuan Ignacio             Cao                      González                 M00000000          N
022019041159999000117006TCristina María           Álvarez                  Fernández                F00000000          N
022019041159999000117007TDarío                    Martínez                 García                   M00000000          N
022019041159999000117008TMónica                   Rey                      Carrasco                 F00000000          N
022019041169999000022001TJosé Luis                Muñoz                    López                    M00000000          N
022019041169999000022002TMaría Virginia           Gabaldón                 Guerrero                 F00000000          N
022019041169999000022003TÁngel                    Moral                    López                    M00000000          N
022019041169999000054001TMaría Rosa               Martínez                 Martínez                 F00000000          N
022019041169999000054002TEster                    Bonilla                  Merino                   F00000000          N
022019041169999000054003TSantiago                 Truchero                 Onís                     M00000000          N
022019041169999000066001TJoel                     Lozano                   Sadornil                 M00000000          N
022019041169999000066002TJuan                     Nogueira                 López                    M00000000          N
022019041169999000066003TMaría Mercedes           Martínez                 Cadenas                  F00000000          N
022019041169999000073001TCarlos                   Pérez                    Solera                   M00000000          N
022019041169999000073002TVanesa                   Marín                    Díaz                     F00000000          N
022019041169999000073003TPablo Andrés             Martín                   Grande                   M00000000          N
022019041169999000077001TFernando                 Garrote                  Massó                    M00000000          N
022019041169999000077002TClara Isabel             Martínez                 Jimeno                   F00000000          N
022019041169999000077003TArturo Vicente           Zarzuela                 Palacios                 M00000000          N
022019041169999000083001TRafael                   Catalá                   Polo                     M00000000          S
022019041169999000083002TMaría Jesús              Bonilla                  Domínguez                F00000000          N
022019041169999000083003TFrancisco Javier         Doménech                 Martínez                 M00000000          N
022019041169999000096001TLuis Carlos              Sahuquillo               García                   M00000000          S
022019041169999000096002TMariana de Gracia        Canales                  Duque                    F00000000          S
022019041169999000096003TCarlos                   Muelas                   Ramírez                  M00000000          N
022019041169999000100001TGabriel                  Luján                    Marco                    M00000000          N
022019041169999000100002TCristina                 Beriso                   Cadarso                  F00000000          N
022019041169999000100003TIgnacio                  Herraiz                  Regalado                 M00000000          N
022019041169999000105001TEncarnación              Serrano                  Paricio                  F00000000          N
022019041169999000105002TClemente                 de los Santos            Benito                   M00000000          N
022019041169999000105003TMaría Dolores            Álvaro                   Guijarro                 F00000000          N
022019041169999000117001TIsmael Iván              Vélez                    Cipriano                 M00000000          N
022019041169999000117002TAlejandro                Martínez                 Ramos                    M00000000          N
022019041169999000117003TJosefina                 Rincón                   Cuenca                   F00000000          N
022019041289999000105029TMaría Cristina           Martín                   Raya                     F00000000          N
022019041289999000105030TCintia                   López                    González                 F00000000          N
022019041289999000105031TTito Diego               Sánchez                  Salazar                  M00000000          N
022019041289999000105032TIsabel                   Holguín                  Alfageme                 F00000000          N
022019041289999000105033TJuan Manuel              Moratinos                Gutiérrez                M00000000          N
022019041289999000105034TJuan Carlos              Cantelar                 González                 M00000000          N
022019041289999000105035TMartha Cecilia           Román                    Román                    F00000000          N
022019041289999000105036TJorge Mario              Eines                    Landman                  M00000000          N
022019041289999000105037TAntonia                  González                 Pastor                   F00000000          N
022019041289999000117001TSantiago                 Abascal                  Conde                    M00000000          S
022019041289999000117002TJavier                   Ortega                   Smith-Molina             M00000000          S
022019041289999000117003TIván                     Espinosa de los Monteros de Simón                 M00000000          S
022019041289999000117004TMaría de la Cabeza       Ruiz                     Solás                    F00000000          S
022019041289999000117005TCarla                    Toscano                  de Balbín                F00000000          S
022019041289999000117006TJuan Luis                Steegmann                Olmedillas               M00000000          N
022019041289999000117007TMireia                   Borrás                   Pabón                    F00000000          N
022019041289999000117008TAna María                Velasco                  Vidal-Abarca             F00000000          N
022019041289999000117009TAlonso                   de Mendoza               Asensi                   M00000000          N
022019041289999000117010TJosé                     Cadenas                  Rabaixet                 M00000000          N
022019041289999000117011TGema Pilar               Herrero                  Monroy                   F00000000          N
022019041289999000117012TMarta Asunción           Castro                   Fuertes                  F00000000          N
022019041289999000117013TJesús Carlos             Riosalido                Gambotti                 M00000000          N
022019041289999000117014TJavier                   Moreno                   de Miguel                M00000000          N
022019041289999000117015TJosé Ignacio             Arias                    Moreno                   M00000000          N
022019041289999000117016TBeatriz                  Tejero                   Oller                    F00000000          N
022019041289999000117017TMaría Teresa Regina      Maroto                   Aparicio                 F00000000          N
022019041289999000117018TRubén                    Gallardo                 García                   M00000000          N
022019041289999000117019TJavier                   Viviente                 Sole                     M00000000          N
022019041289999000117020TSantiago Antonio         Ribas                    Sáez                     M00000000          N
022019041289999000117021TGonzalo                  Padrón                   Ramos                    M00000000          N
022019041289999000117022TMaría Teresa             López                    Divassón                 F00000000          N
022019041289999000117023TEulalia                  López                    García                   F00000000          N
022019041289999000117024TDaniel                   Cuesta                   Lagarejo                 M00000000          N
022019041289999000117025TJosé                     Hidalgo                  Serrano                  M00000000          N
022019041289999000117026TAmaya                    Acosta                   Barrera                  F00000000          N
022019041289999000117027TLaura                    Cid                      Grueso                   F00000000          N
022019041289999000117028TDonato Francisco Javier  Barba                    Prieto                   M00000000          N
022019041289999000117029TJuan Ignacio             Fernández                Tomás                    M00000000          N
022019041289999000117030TAlejandro                Abalo                    Delgado                  M00000000          N
022019041289999000117031TEva                      Arbeo                    Blázquez                 F00000000          N
022019041289999000117032TAna Isabel               Dompablo                 Guerrero                 F00000000          N
022019041289999000117033TEnrique Jesús            Ortiz                    Gómez                    M00000000          N
022019041289999000117034TAlejandro                Gozalo                   Yáñez                    M00000000          N
022019041289999000117035TElena                    Garachana                Nuño                     F00000000          N
022019041289999000117036TMaría Carmen             Rodríguez                Anta                     F00000000          N
022019041289999000117037TJosé Antonio             Ortega                   Lara                     M00000000          N
022019041299999000011001TJusto                    Aliseda                  Miranda                  M00000000          N
022019041299999000011002TFrancisco                Alejo                    Soriano                  M00000000          N
022019041299999000011003TMaría Felicitas          Aliseda                  Miranda                  F00000000          N
022019041299999000011004TMaría                    González                 Rios                     F00000000          N
022019041299999000011005TMaría Fernanda           Valdez                   García                   F00000000          N
022019041299999000011006TJosé Manuel              Quintero                 Fernández                M00000000          N
022019041299999000011007TMaría                    García                   Aliseda                  F00000000          N
022019041299999000011008TRaúl                     Comitre                  Carmona                  M00000000          N
022019041299999000011009TPatricia                 Millán                   Pérez                    F00000000          N
022019041299999000011010TJosé Luis                Gallardo                 Gallardo                 M00000000          N
022019041299999000011011TMaría Lourdes            Fernández                Navas                    F00000000          N
022019041299999000022001TGuillermo                Díaz                     Gómez                    M00000000          S
022019041089999000022010TFrancisco                Avilés                   Salazar                  M00000000          N
022019041089999000022011TSaray                    Cantero                  García                   F00000000          N
022019041089999000022012TCarolina                 Torres                   García                   F00000000          N
022019041089999000022013TRaul                     González                 Fuentes                  M00000000          N
022019041089999000022014TMaría                    Duarte                   Aparicio                 F00000000          N
022019041089999000022015TRafael                   Yepes                    Ruiz                     M00000000          N
022019041089999000022016TAntonio Miguel           Ruiz                     Redondo                  M00000000          N
022019041089999000022017TPedro                    Sánchez                  Álvarez                  M00000000          N
022019041089999000022018TManuel                   Torné                    Bueso                    M00000000          N
022019041089999000022019TSonia                    Reina                    Sánchez                  F00000000          N
022019041089999000022020TSonia                    Rodríguez                Ruiz                     F00000000          N
022019041089999000022021TFranciscO                Gavilán                  Peña                     M00000000          N
022019041089999000022022TRamón                    García                   Fernández                M00000000          N
022019041089999000022023TCristina                 Claret                   Fernández                F00000000          N
022019041089999000022024TErica                    Quintero                 Ultraran                 F00000000          N
022019041089999000022025TAnna Maria               Torra                    Garrido                  F00000000          N
022019041089999000022026TTahir                    Rafi                     Khanum                   M00000000          N
022019041089999000022027TManuel                   Losada                   Seivane                  M00000000          N
022019041089999000022028TMaría Soledad            García                   Durán                    F00000000          N
022019041089999000022029TDaniel                   Martínez                 Rodríguez                M00000000          N
022019041089999000022030TAurora                   Suárez                   Vázquez                  F00000000          N
022019041089999000022031TNicolás                  Ortiz                    Cuevas                   M00000000          N
022019041089999000022032TRaquel                   Quiles                   Puerto                   F00000000          N
022019041089999000032001TJaume                    Asens                    Llodrà                   M00000000          S
022019041089999000032002TAina                     Vidal                    Saez                     F00000000          S
022019041089999000032003TMaría del Mar            García                   Puig                     F00000000          S
022019041089999000032004TGerardo                  Pisarello                Prados                   M00000000          S
022019041089999000032005TJoan Miquel              Mena                     Arca                     M00000000          S
022019041089999000032006TMaria                    Freixanet                Mateo                    F00000000          S
022019041089999000032007TMarcelo                  Expósito                 Prieto                   M00000000          N
022019041089999000032008TAlicia                   Ramos                    Jordán                   F00000000          N
022019041089999000032009TNúria                    Lozano                   Montoya                  F00000000          N
022019041089999000032010TJosep                    Vendrell                 Gardeñes                 M00000000          N
022019041089999000032011TAnna Maria               Pérez                    Oller                    F00000000          N
022019041089999000032012TJaume                    Durall                   Lobete                   M00000000          N
022019041089999000032013TMercè                    Gómez                    Llobregat                F00000000          N
022019041089999000032014TMarina                   Escribano                Maspons                  F00000000          N
022019041089999000032015TCarles                   Rodríguez                Herencia                 M00000000          N
022019041089999000032016TIsabel                   Rodríguez                Borda                    F00000000          N
022019041089999000032017TCarlos                   Aguilar                  Paredes                  M00000000          N
022019041089999000032018TRafael                   Bernabé                  Pérez                    M00000000          N
022019041089999000032019TNati                     Veraguas                 Aguilera                 F00000000          N
022019041089999000032020TDolores                  Castro                   Leiva                    F00000000          N
022019041089999000032021TMarta                    Reina                    Izquiano                 F00000000          N
022019041089999000032022TLeandro Juan             Danza                    Arla                     M00000000          N
022019041089999000032023TMarcos                   Ortega                   Canillas                 M00000000          N
022019041089999000032024TEsther                   García                   Fernández                F00000000          N
022019041089999000032025TAïda                     Llauradó                 Álvarez                  F00000000          N
022019041089999000032026TAna Cecilia              Querol                   Muñoz                    F00000000          N
022019041089999000032027TJoaquín                  Pérez                    Gómez                    M00000000          N
022019041089999000032028TJosé Carlos              Vallejo                  Calderón                 M00000000          N
022019041089999000032029TLaia                     Rosich                   Solé                     F00000000          N
022019041089999000032030TJoan Carles              Gallego                  Herrera                  M00000000          N
022019041089999000032031TVicenç                   Navarro                  López                    M00000000          N
022019041089999000032032TRosa                     Lluch                    Bramon                   F00000000          N
022019041089999000037001TOriol                    Junqueras                i Vies                   M00000000          S
022019041089999000037002TGabriel                  Rufián                   Romero                   M00000000          S
022019041089999000037003TCarolina                 Telechea                 Lozano                   F00000000          S
022019041089999000037004TJoan Josep               Nuet                     Pujals                   M00000000          S
022019041089999000037005TMaria                    Carvalho                 Dantas                   F00000000          S
022019041179999000019001TJordi                    Cordón                   Pulido                   M00000000          N
022019041179999000019002TMaría Sonia              Ruíz                     Gómez                    F00000000          N
022019041179999000019003TNúria                    Iglesias                 Pros                     F00000000          N
022019041179999000019004TJuan                     Moré                     Díaz                     M00000000          N
022019041179999000019005TJudith                   Miralles                 López                    F00000000          N
022019041179999000019006TFrancisco                Serrano                  Zamorano                 M00000000          N
022019041179999000023001THéctor                   Amelló                   Montiu                   M00000000          N
022019041179999000023002TJaime                    Muzas                    Marcos                   M00000000          N
022019041179999000023003TArantxa                  Granada de Caramany      Bonet                    F00000000          N
022019041179999000023004TPere                     Cuadros                  i Dilla                  M00000000          N
022019041179999000023005TIsabel                   Machado                  Rosa                     F00000000          N
022019041179999000023006TElisabet                 Guillen                  Verdejo                  F00000000          N
022019041179999000032001TJoan                     Luengo                   Sala                     M00000000          N
022019041179999000032002TNatividad                Sánchez                  Arjona                   F00000000          N
022019041179999000032003TMaría                    Monje                    Romaní                   F00000000          N
022019041179999000032004TJordi                    Córdoba                  García                   M00000000          N
022019041179999000032005TInmaculada               Montrey                  Griño                    F00000000          N
022019041179999000032006TMiguel Ernesto           Gracia                   Moreno                   M00000000          N
022019041179999000037001TMontserrat               Bassa                    Coll                     F00000000          S
022019041179999000037002TJoan                     Margall                  Sastre                   M00000000          S
022019041179999000037003TLaia                     Cañigueral               Olivé                    F00000000          S
022019041179999000037004TEduard                   Coloma                   Boada                    M00000000          N
022019041179999000037005TXènia                    Sala                     Pareta                   F00000000          N
022019041179999000037006TDavid                    Pujol                    Bret                     M00000000          N
022019041179999000042001TMaria                    Besora                   Soler                    F00000000          N
022019041179999000042002TIsabel                   Mateos                   Caballero                F00000000          N
022019041179999000042003TAlbert                   Sunyer                   Castillo                 M00000000          N
022019041179999000042004TJosep                    Puig                     Costa                    M00000000          N
022019041179999000042005TEnric                    Cardona                  Garcia                   M00000000          N
022019041179999000042006TAna Maria                Invernon                 Caparros                 F00000000          N
022019041179999000045001TAndrés                   Peñalver                 Bernardo                 M00000000          N
022019041179999000045002TMaria Fabiola            Quilca                   Viracocha                F00000000          N
022019041179999000045003TRichard Alpidio          Peñafiel                 Vera                     M00000000          N
022019041179999000045004TMaritza Maribel          Lema                     Barragan                 F00000000          N
022019041179999000045005TJorge                    Sanjurjo                 Navarro                  M00000000          N
022019041179999000045006TRosa Gladys              Chac                     Palma                    F00000000          N
022019041179999000049001TJaume                    Alonso-Cuevillas         i Sayrol                 M00000000          S
022019041179999000049002TSergi                    Miquel                   i Valentí                M00000000          S
022019041179999000049003TMarina                   Geli                     i Fàbrega                F00000000          N
022019041179999000049004TEstefania (Fanny)        Carabellido              i Bruns                  F00000000          N
022019041179999000049005TTeresa Mª                Casademont               i Ruhí                   F00000000          N
022019041179999000049006TRamon                    Cotarelo                 i Garcia                 M00000000          N
022019041179999000055001TMònica del Mar           Jordán                   Pujol                    F00000000          N
022019041179999000055002TAlbert                   Benítez                  Hugas                    M00000000          N
022019041179999000055003TAitziber                 Saez de Buruaga          Cousillas                F00000000          N
022019041179999000055004TÁngel                    Rodríguez                Vilagran                 M00000000          N
022019041179999000055005TMª Elena                 Begara                   Lara                     F00000000          N
022019041179999000055006TRamon                    Torredemer               Turu                     M00000000          N
022019041179999000061001TMiguel                   de la Cruz               Astasio                  M00000000          N
022019041179999000061002TTania                    Notario                  Calurano                 F00000000          N
022019041179999000061003TAlexandre                Nieto                    Puig                     M00000000          N
022019041179999000061004TGemma Luisa              Gómez                    Bañón                    F00000000          N
022019041179999000061005TMarc                     Cabrejas                 Terradas                 M00000000          N
022019041179999000061006TSusagna                  Espigulé                 González                 F00000000          N
022019041179999000084001TSergio                   Santamaría               Santigosa                M00000000          N
022019041179999000084002TPau                      Romero                   Doménech                 M00000000          N
022019041179999000084003TMaria Carmen             Moreno                   Sáez                     F00000000          N
022019041179999000084004TJosé Antonio             Sepúlveda                Moreno                   M00000000          N
022019041179999000084005TMeritxel                 Forment                  Garreta                  F00000000          N
022019041179999000084006TAna María                Bernal                   Puiggarí                 F00000000          N
022019041299999000022002TIrene                    Rivera                   Andrés                   F00000000          S
022019041299999000022003TMaría                    García                   Ruiz                     F00000000          N
022019041299999000022004TJosé Luis                Paradas                  Romero                   M00000000          N
022019041299999000022005TMónica                   Alejo                    Jiménez                  F00000000          N
022019041299999000022006TMaría Cristina           Baca                     Domingo                  F00000000          N
022019041299999000022007TYolanda                  Gordillo                 Moreno                   F00000000          N
022019041299999000022008TManuel                   Romero                   Durán                    M00000000          N
022019041299999000022009TIgnacio                  Villena                  Álvarez                  M00000000          N
022019041299999000022010TManuel                   Vega                     Peña                     M00000000          N
022019041299999000022011TMaría Luísa              Valero                   González                 F00000000          N
022019041299999000054001TEva                      Ramos                    Taillefer                F00000000          N
022019041299999000054002TNoemi                    Pérez                    Carrasco                 F00000000          N
022019041299999000054003TAna Isabel               Melguizo                 Garín                    F00000000          N
022019041299999000054004TCarlos Fernando          Palomo                   Aranda                   M00000000          N
022019041299999000054005TFrancisco                Guerrero                 Morales                  M00000000          N
022019041299999000054006TMaría José               Torres                   Mayorga                  F00000000          N
022019041299999000054007TEva María                Bagu                     Cordero                  F00000000          N
022019041299999000054008TMaría José               Gutiérrez                Fernández                F00000000          N
022019041299999000054009TEmilio Alejandro         Martínez                 Vuijk                    M00000000          N
022019041299999000054010TCarlos                   Téllez                   Egea                     M00000000          N
022019041299999000054011TEnrique Manuel           Liceras                  Fernández                M00000000          N
022019041299999000058001TJuan Manuel              Fernández                Martín                   M00000000          N
022019041299999000058002TVictoria                 Soler                    Anaya                    F00000000          N
022019041299999000058003TAndrés Alejo             Vázquez                  Podadera                 M00000000          N
022019041299999000058004TTania                    de Paz                   Olmedo                   F00000000          N
022019041299999000058005TCarlos Javier            Valenzuela               Pintanel                 M00000000          N
022019041299999000058006TMaría Concepción         del Prado                Álvarez                  F00000000          N
022019041319999000117003TMaría Belén              Montes-Jovellar          Rovira                   F00000000          N
022019041319999000117004TMaría Jesús              Sernández                Fernández                F00000000          N
022019041319999000117005TRafael                   Mora                     Martínez                 M00000000          N
022019041329999000012001TIago                     Tabarés                  Pérez Piñeiro            M00000000          N
022019041329999000012002TSamanta                  Barreira                 Vivián                   F00000000          N
022019041329999000012003TRita María               Lago                     Ozores                   F00000000          N
022019041329999000012004TFrancisco                García                   Suárez                   M00000000          N
022019041329999000022001TInés Celia               Iglesias                 Canle                    F00000000          N
022019041329999000022002TJosé                     Araujo                   Fernández                M00000000          N
022019041329999000022003TXan Xosé                 Rodríguez                González                 M00000000          N
022019041329999000022004TSamanta                  Ferreiro                 González                 F00000000          N
022019041329999000024001TSara                     Corral                   Losada                   F00000000          N
022019041329999000024002TEladio                   Fernández                Vázquez                  M00000000          N
022019041329999000024003TCamila                   Rodríguez                Vaamonde                 F00000000          N
022019041329999000024004TAntonio Alberto          dos Santos               de la Fuente             M00000000          N
022019041329999000036001TIván                     Olmos                    Ferreiro                 M00000000          N
022019041329999000036002TIolanda                  Pérez                    Docampo                  F00000000          N
022019041329999000036003TJorge                    Vázquez                  Rodríguez                M00000000          N
022019041329999000036004TSonia                    Couso                    Fernández                F00000000          N
022019041329999000054001TPaula                    Rodríguez                Méndez                   F00000000          N
022019041329999000054002TJuan Manuel              Vilarchao                Gallego                  M00000000          N
022019041329999000054003TMaría del Carmen         Alves                    Pereira                  F00000000          N
022019041329999000054004TRafael                   Cabanelas                Seara                    M00000000          N
022019041329999000068001TEmilio                   de Miguel                Campos                   M00000000          N
022019041329999000068002TEva                      Novoa                    Vázquez                  F00000000          N
022019041329999000068003TMario                    Bastero                  Prieto                   M00000000          N
022019041329999000068004TMaría Laura              Iglesias                 García                   F00000000          N
022019041329999000075001TLedicia                  Piñeiro                  Prada                    F00000000          N
022019041329999000075002TIsabel                   Peña-Rey                 Lorenzo                  F00000000          N
022019041329999000075003TJosé Antonio             Villar                   Blanco                   M00000000          N
022019041329999000075004TDavid                    Bruzos                   Higuero                  M00000000          N
022019041329999000083001TAna Belén                Vázquez                  Blanco                   F00000000          S
022019041089999000037006TGerard                   Gómez del Moral          i Fuster                 M00000000          S
022019041089999000037007TMarta                    Rosique                  i Saltor                 F00000000          S
022019041089999000037008TJoan                     Capdevila                i Esteve                 M00000000          S
022019041089999000037009TPilar                    Vallugera                i Balañà                 F00000000          N
022019041089999000037010TAdelina                  Escandell                Grases                   F00000000          N
022019041089999000037011TXavier                   Godàs                    i Pérez                  M00000000          N
022019041089999000037012TMontserrat               Vilardosa                i Tomàs                  F00000000          N
022019041089999000037013TJosep Domènec            Meseguer                 i Garcia (Mingo)         M00000000          N
022019041089999000037014TNúria                    Escursell                i Serra                  F00000000          N
022019041089999000037015TAlfons                   Bech                     Peiro                    M00000000          N
022019041089999000037016TMontserrat               Font                     Fabra                    F00000000          N
022019041089999000037017TManuel                   Bueno                    i Martínez               M00000000          N
022019041089999000037018TMaria Isabel             Martinez                 Soriano                  F00000000          N
022019041089999000037019TJosep Tomàs              Àlvaro                   Juncosa                  M00000000          N
022019041089999000037020TAnna                     Cella                    i Navarro                F00000000          N
022019041089999000037021TJosep Miquel             Garcia                   Castañé                  M00000000          N
022019041089999000037022TMeritxell                Romero                   Pinet                    F00000000          N
022019041089999000037023TIsmael                   Benito                   Altamirano               M00000000          N
022019041089999000037024TMeritxell                Pi                       i Costa                  F00000000          N
022019041089999000037025TJoan                     Barrachina               Casals                   M00000000          N
022019041089999000037026TMontserrat               Medall                   i Prades                 F00000000          N
022019041089999000037027TAlbert                   Xoy                      i Serra                  M00000000          N
022019041089999000037028TLucía                    Pérez                    Porcel                   F00000000          N
022019041089999000037029TGerard                   Álvarez                  i Garcia                 M00000000          N
022019041089999000037030TAnna                     Sosa                     Ródenas                  F00000000          N
022019041089999000037031TEugenia                  Parejo                   Muñoz                    F00000000          N
022019041089999000037032TJoan                     Tardà                    i Coma                   M00000000          N
022019041089999000042001TAlbano Dante             Fachin                   Pozzi                    M00000000          N
022019041089999000042002TMaria Isabel (Mabel)     Rodríguez                Rivero                   F00000000          N
022019041089999000042003TGuillem Roure            Fuster                   Usas                     M00000000          N
022019041089999000042004TMireia                   Caldés                   Viñals                   F00000000          N
022019041089999000042005TRoger                    Español                  Tor                      M00000000          N
022019041089999000042006TLaura                    Haba                     Jiménez                  F00000000          N
022019041089999000042007TEnric                    Pineda                   Traïd                    M00000000          N
022019041089999000042008TMaria Margalida          Payeras                  Sitjar                   F00000000          N
022019041089999000042009TJosé Antonio             Téllez                   Oliva                    M00000000          N
022019041089999000042010TMontserrat               Morón                    Gámiz                    F00000000          N
022019041089999000042011TVictor Anibal            Garzón                   Baeza                    M00000000          N
022019041089999000042012TEsther                   Rocabayera               Jordan                   F00000000          N
022019041089999000042013TJordi                    Vives                    Faig                     M00000000          N
022019041089999000042014TMuriel                   Rovira                   Esteva                   F00000000          N
022019041089999000042015TJoan Josep               Belda                    Montes                   M00000000          N
022019041089999000042016TSusana                   Mártinez                 Varona                   F00000000          N
022019041089999000042017TOriol                    Corral                   Dinà                     M00000000          N
022019041089999000042018TMercedes                 Reina                    de Hita                  F00000000          N
022019041089999000042019TSergi                    Castañé                  López                    M00000000          N
022019041089999000042020TRoser                    Palol                    Quevedo                  F00000000          N
022019041089999000042021TJorge                    Haro                     Pardo                    M00000000          N
022019041089999000042022TMaria Lourdes            Prieto                   Cabo                     F00000000          N
022019041089999000042023TRuben-Darío              Castañé                  Carmona                  M00000000          N
022019041089999000042024TMaria de Lluc            Muñoz                    Canyelles                F00000000          N
022019041089999000042025TAlejandro                Velasco                  Gómez "Jandi"            M00000000          N
022019041089999000042026TMónica                   Pujadas                  Laguna                   F00000000          N
022019041089999000042027TAlejo                    Cuervo                   Rieger                   M00000000          N
022019041089999000042028TBlanca                   Serra                    Puig                     F00000000          N
022019041089999000042029TJosep                    Peraire                  Amella                   M00000000          N
022019041089999000042030TÀngels                   Martínez                 Castells                 F00000000          N
022019041089999000042031TJuliana                  Bacardit                 Garriga                  F00000000          N
022019041089999000042032TCarles                   Castellanos              Llorens                  M00000000          N
022019041089999000045001TRafael (RAFA)            Jiménez                  Ariza                    M00000000          N
022019041179999000092001TMarc                     Lamuà                    Estanyol                 M00000000          S
022019041179999000092002TBlanca                   Cercas                   Mena                     F00000000          N
022019041179999000092003TJosé Manuel (Chema)      Aliste                   Salís                    M00000000          N
022019041179999000092004TLaura                    Serrano                  Gálvez                   F00000000          N
022019041179999000092005TAntonio                  Lorente                  Estepa                   M00000000          N
022019041179999000092006TOlga                     Simarro                  Rojas                    F00000000          N
022019041179999000104001TRosa Estefanía           Pérez                    Fernández                F00000000          N
022019041179999000104002TJuan Carlos              Gonzalo                  Pérez                    M00000000          N
022019041179999000104003TSandra                   Barba                    Olaiz                    F00000000          N
022019041179999000104004TAngel                    Casado                   Iglesias                 M00000000          N
022019041179999000104005TFrancisca                Cintas                   González                 F00000000          N
022019041179999000104006TXavier                   Pérez                    Farre                    M00000000          N
022019041179999000117001TAlberto                  Tarradas                 Paneque                  M00000000          N
022019041179999000117002TPedro                    Bayonas                  Muñoz                    M00000000          N
022019041179999000117003TAránzazu del Pilar       García                   García-Verdugo           F00000000          N
022019041179999000117004TCristina                 Ruz                      Navarro                  F00000000          N
022019041179999000117005TJosé                     Cartañá                  Pons                     M00000000          N
022019041179999000117006TMaría Carmen             Comas                    Viladot                  F00000000          N
022019041189999000011001TJuan Daniel              Ortega                   Moreno                   M00000000          N
022019041189999000011002TJuan Carlos              Rodríguez                Fortes                   M00000000          N
022019041189999000011003TSusana Encarnación       Peña                     Gómez                    F00000000          N
022019041189999000011004TAlba María               Espinosa                 Montes                   F00000000          N
022019041189999000011005TTatiana                  Pérez                    Barbero                  F00000000          N
022019041189999000011006TDavid                    Vázquez                  Padial                   M00000000          N
022019041189999000011007TCarmen                   González                 Ferre                    F00000000          N
022019041189999000022001TFrancisco Javier         Hervías                  Chirosa                  M00000000          S
022019041189999000022002TLuis Miguel              Salvador                 García                   M00000000          N
022019041189999000022003TMaría Isabel             Leyva                    Teruel                   F00000000          N
022019041189999000022004TManuel                   García                   González                 M00000000          N
022019041189999000022005TGema                     González                 Urceláy                  F00000000          N
022019041189999000022006TCésar                    Robles                   Pérez                    M00000000          N
022019041189999000022007TPurificación             Rubio                    Verdejo                  F00000000          N
022019041189999000044001TRubén                    Quirante                 Román                    M00000000          N
022019041189999000044002TYasmina                  Soriano                  Galdeano                 F00000000          N
022019041189999000044003TAlejandro                García                   Ferrer                   M00000000          N
022019041189999000044004TJéssica                  Carmona                  Rodríguez                F00000000          N
022019041189999000044005TAdrián                   Mora                     González                 M00000000          N
022019041289999000077018TGemma                    Heras                    Juaristi                 F00000000          N
022019041289999000077019TIrene                    García-Durán             Jiménez de la Iglesia    F00000000          N
022019041289999000077020TAbel                     Díez                     de Lucas                 M00000000          N
022019041289999000077021TManuel                   Hernández                González                 M00000000          N
022019041289999000077022TMaría del Rosario        Rodero                   Salamanca                F00000000          N
022019041289999000077023TJorge                    Rochet                   Monteagudo               M00000000          N
022019041289999000077024TAmparo                   Sánchez                  Villalba                 M00000000          N
022019041289999000077025TLeire                    Olmeda                   García                   F00000000          N
022019041289999000077026TMariano                  García                   González                 M00000000          N
022019041289999000077027TMaría Pilar              Doñate                   Sanz                     F00000000          N
022019041289999000077028TAriel Edgar              Serrano                  Rico                     M00000000          N
022019041289999000077029TTamara de Lourdes        Olivares                 Huenuman                 F00000000          N
022019041289999000077030TPedro                    del Cura                 Sánchez                  M00000000          N
022019041289999000077031TLuisa                    Amaya                    Campos                   F00000000          N
022019041289999000077032TMaría Luisa              Crespo                   Alonso                   F00000000          N
022019041289999000077033TIrene                    Valiente                 Guerrero                 F00000000          N
022019041289999000077034TAntonio                  González                 Castillo                 M00000000          N
