041987061010400199ABLA                                                                                                001301300000001731000010000133100001331000000000000000000000000000000000000001300000014000009690090000000000000000N
041987061010400299ABRUCENA                                                                                            001301300000001594000010000122400001224000000000000000000000000000000000000000300000010000009330090000000000000000N
041987061010400399ADRA                                                                                                002902900000019358000170001280700012807000000000000000000000000000000000000004100000032000080270170000000000000000N
041987061010400499ALBANCHEZ                                                                                           005305300000000865000010000077100000771000000000000000000000000000000000000000500000006000005090070000000000000000N
041987061010400599ALBOLODUY                                                                                           001301300000001033000010000078600000786000000000000000000000000000000000000000300000007000006910090000000000000000N
041987061010400699ALBOX                                                                                               005305300000010321000080000627200006272000000000000000000000000000000000000001600000015000043730170000000000000000N
041987061010400799ALCOLEA                                                                                             001301300000000871000010000068800000688000000000000000000000000000000000000000100000002000005340070000000000000000N
041987061010400899ALCONTAR                                                                                            005305300000000698000020000056500000565000000000000000000000000000000000000000000000003000004650070000000000000000N
041987061010401099ALHABIA                                                                                             001301300000000885000010000064500000645000000000000000000000000000000000000000800000006000005480070000000000000000N
041987061010401199ALHAMA DE ALMERIA                                                                                   001301300000003068000030000224500002245000000000000000000000000000000000000000700000008000018020110000000000000000N
041987061010401399ALMERIA                                                                                             001301300000153592001170010670700106707000000000000000000000000000000000000050800000890000632470270000000000000000N
041987061010401699ANTAS                                                                                               010010000000002541000030000186600001866000000000000000000000000000000000000001700000010000014200110000000000000000N
041987061010401799ARBOLEAS                                                                                            005305300000001513000010000120700001207000000000000000000000000000000000000000400000002000008960090000000000000000N
041987061010401899ARMUÑA DE ALMANZORA                                                                                 005305300000000343000010000028300000283000000000000000000000000000000000000000100000001000002270070000000000000000N
041987061010401999BACARES                                                                                             005305300000000342000010000029400000294000000000000000000000000000000000000000300000001000002300070000000000000000N
041987061010402099BAYARCAL                                                                                            001301300000000447000010000032600000326000000000000000000000000000000000000000200000000000002630070000000000000000N
041987061010402199BAYARQUE                                                                                            005305300000000254000010000021000000210000000000000000000000000000000000000000200000002000001630070000000000000000N
041987061010402299BEDAR                                                                                               010010000000000587000010000045400000454000000000000000000000000000000000000000000000002000003260070000000000000000N
041987061010402499BENAHADUX                                                                                           001301300000002016000020000143900001439000000000000000000000000000000000000000400000010000012530110000000000000000N
041987061010402799BENIZALON                                                                                           001301300000000448000010000035100000351000000000000000000000000000000000000000000000001000002740070000000000000000N
041987061010402899BENTARIQUE                                                                                          001301300000000348000010000028100000281000000000000000000000000000000000000000200000003000002550070000000000000000N
041987061010402999BERJA                                                                                               002902900000011533000120000814800008148000000000000000000000000000000000000002500000046000061860170000000000000000N
041987061010403099CANJAYAR                                                                                            001301300000002205000030000172100001721000000000000000000000000000000000000000000000007000012930110000000000000000N
041987061010403199CANTORIA                                                                                            005305300000003406000030000266400002664000000000000000000000000000000000000000500000017000018650110000000000000000N
041987061010403299CARBONERAS                                                                                          010010000000005602000040000358000003580000000000000000000000000000000000000000300000006000027290130000000000000000N
041987061010403499COBDAR                                                                                              001301300000000305000010000025000000250000000000000000000000000000000000000000000000000000002170070000000000000000N
041987061010403599CUEVAS DEL ALMANZORA                                                                                010010000000009070000070000647800006478000000000000000000000000000000000000001500000024000045670130000000000000000N
041987061010403699CHERCOS                                                                                             005305300000000369000010000028200000282000000000000000000000000000000000000000000000001000002180070000000000000000N
041987061010403799CHIRIVEL                                                                                            005305300000002056000020000168500001685000000000000000000000000000000000000000600000008000011660110000000000000000N
041987061010403899DALIAS                                                                                              002902900000003625000040000269500002695000000000000000000000000000000000000001100000018000020900110000000000000000N
041987061010403999DARRICAL                                                                                            002902900000000388000010000033700000337000000000000000000000000000000000000000100000002000002020070000000000000000N
041987061010404399FELIX                                                                                               001301300000000685000010000054500000545000000000000000000000000000000000000000100000002000004420070000000000000000N
041987061010404499FINES                                                                                               005305300000001549000010000112300001123000000000000000000000000000000000000001300000012000008480090000000000000000N
041987061010404599FIÑANA                                                                                              001301300000002792000030000212900002129000000000000000000000000000000000000002000000011000014690110000000000000000N
041987061010404699FONDON                                                                                              001301300000001031000020000082500000825000000000000000000000000000000000000000500000005000005890090000000000000000N
041987061010404799GADOR                                                                                               001301300000002531000020000188200001882000000000000000000000000000000000000000100000011000016100110000000000000000N
041987061010404899GALLARDOS (LOS)                                                                                     010010000000001663000020000123200001232000000000000000000000000000000000000001300000007000009100090000000000000000N
041987061010404999GARRUCHA                                                                                            010010000000003756000020000260800002608000000000000000000000000000000000000023100000061000014060110000000000000000N
041987061010405099GERGAL                                                                                              001301300000001257000010000098700000987000000000000000000000000000000000000000600000009000007100090000000000000000N
041987061010405199HUECIJA                                                                                             001301300000000601000010000046100000461000000000000000000000000000000000000000000000011000003730070000000000000000N
041987061010405299HUERCAL DE ALMERIA                                                                                  001301300000003686000030000247600002476000000000000000000000000000000000000000600000030000017600110000000000000000N
041987061010405399HUERCAL-OVERA                                                                                       005305300000012745000130000921100009211000000000000000000000000000000000000005900000039000067090170000000000000000N
041987061010405499ILLAR                                                                                               001301300000000554000010000046000000460000000000000000000000000000000000000000200000000000004140070000000000000000N
041987061010405599INSTINCION                                                                                          001301300000000676000010000053900000539000000000000000000000000000000000000000000000002000004510070000000000000000N
041987061010405799LAUJAR DE ANDARAX                                                                                   001301300000001892000020000140400001404000000000000000000000000000000000000000300000008000010740090000000000000000N
041987061010405899LIJAR                                                                                               005305300000000560000010000043700000437000000000000000000000000000000000000000000000000000003550070000000000000000N
041987061010405999LUBRIN                                                                                              010010000000002199000030000182600001826000000000000000000000000000000000000008800000044000007160110000000000000000N
041987061010406099LUCAINENA DE LAS TORRES                                                                             001301300000000702000010000054200000542000000000000000000000000000000000000000000000002000003980070000000000000000N
041987061010406199LUCAR                                                                                               005305300000000802000010000062300000623000000000000000000000000000000000000000000000004000005190070000000000000000N
041987061010406299MACAEL                                                                                              005305300000005554000050000384000003840000000000000000000000000000000000000002100000023000027520130000000000000000N
041987061010406399MARIA                                                                                               005305300000001903000030000147100001471000000000000000000000000000000000000000500000022000009180090000000000000000N
041987061010406499MOJACAR                                                                                             010010000000002839000010000150300001503000000000000000000000000000000000000000500000008000011560110000000000000000N
041987061010406599NACIMIENTO                                                                                          001301300000000603000010000050500000505000000000000000000000000000000000000000300000006000004520070000000000000000N
041987061010406699NIJAR                                                                                               001301300000012102000160000840200008402000000000000000000000000000000000000002400000029000047780170000000000000000N
041987061010406799OHANES                                                                                              001301300000000995000010000079200000792000000000000000000000000000000000000000000000004000006160070000000000000000N
041987061010406999OLULA DEL RIO                                                                                       005305300000005212000040000371900003719000000000000000000000000000000000000002500000031000026530130000000000000000N
041987061010407099ORIA                                                                                                005305300000002651000040000211800002118000000000000000000000000000000000000001500000067000013020110000000000000000N
041987061010407199PADULES                                                                                             001301300000000614000010000049400000494000000000000000000000000000000000000000500000006000003450070000000000000000N
041987061010407299PARTALOA                                                                                            005305300000000490000010000041600000416000000000000000000000000000000000000000300000001000003460070000000000000000N
041987061010407399PATERNA DEL RIO                                                                                     001301300000000457000010000037100000371000000000000000000000000000000000000000100000000000002860070000000000000000N
041987061010407499PECHINA                                                                                             001301300000002090000020000147300001473000000000000000000000000000000000000000900000007000011210110000000000000000N
041987061010407599PULPI                                                                                               010010000000004161000030000291400002914000000000000000000000000000000000000001600000014000022590110000000000000000N
041987061010407699PURCHENA                                                                                            005305300000001857000020000137200001372000000000000000000000000000000000000001300000005000010440090000000000000000N
041987061010407799RAGOL                                                                                               001301300000000498000010000040100000401000000000000000000000000000000000000000000000001000003310070000000000000000N
041987061010407899RIOJA                                                                                               001301300000001172000010000088500000885000000000000000000000000000000000000000100000004000007300090000000000000000N
041987061010407999ROQUETAS DE MAR                                                                                     001301300000022122000150001409600014096000000000000000000000000000000000000005100000072000092300210000000000000000N
041987061010408099SANTA CRUZ                                                                                          001301300000000273000010000023700000237000000000000000000000000000000000000000200000004000001850070000000000000000N
041987061010408199SANTA FE DE MONDUJAR                                                                                001301300000000454000010000037700000377000000000000000000000000000000000000000300000001000003350070000000000000000N
041987061010408299SENES                                                                                               001301300000000528000010000043300000433000000000000000000000000000000000000000100000002000002940070000000000000000N
041987061010408399SERON                                                                                               005305300000003217000050000249600002496000000000000000000000000000000000000000800000021000016300110000000000000000N
041987061010408499SIERRO                                                                                              005305300000000724000010000043900000439000000000000000000000000000000000000000000000001000002650070000000000000000N
041987061010408599SOMONTIN                                                                                            005305300000000566000010000043900000439000000000000000000000000000000000000000000000002000003410070000000000000000N
041987061010408699SORBAS                                                                                              001301300000002829000050000216700002167000000000000000000000000000000000000000600000004000015550110000000000000000N
041987061010408799SUFLI                                                                                               005305300000000256000010000020600000206000000000000000000000000000000000000000200000000000001440070000000000000000N
041987061010408899TABERNAS                                                                                            001301300000003274000050000243600002436000000000000000000000000000000000000000400000012000019350110000000000000000N
041987061010408999TABERNO                                                                                             005305300000001034000010000081000000810000000000000000000000000000000000000000200000000000005750090000000000000000N
041987061010409099TAHAL                                                                                               001301300000000627000010000050500000505000000000000000000000000000000000000000100000001000004150070000000000000000N
041987061010409199TERQUE                                                                                              001301300000000526000010000041800000418000000000000000000000000000000000000000000000007000003680070000000000000000N
041987061010409299TIJOLA                                                                                              005305300000003722000040000269200002692000000000000000000000000000000000000000600000021000019840110000000000000000N
041987061010409399TURRE                                                                                               010010000000002072000020000149800001498000000000000000000000000000000000000000400000003000012440110000000000000000N
041987061010409499TURRILLAS                                                                                           001301300000000298000010000023400000234000000000000000000000000000000000000000000000001000001860070000000000000000N
041987061010409599ULEILA DEL CAMPO                                                                                    001301300000001095000010000086600000866000000000000000000000000000000000000000100000004000006100090000000000000000N
041987061010409699URRACAL                                                                                             005305300000000397000010000031700000317000000000000000000000000000000000000000100000000000002380070000000000000000N
041987061010409799VELEFIQUE                                                                                           001301300000000428000010000035000000350000000000000000000000000000000000000000000000001000002140070000000000000000N
041987061010409899VELEZ-BLANCO                                                                                        005305300000002612000040000214000002140000000000000000000000000000000000000000600000019000013930110000000000000000N
041987061010409999VELEZ-RUBIO                                                                                         005305300000006594000090000520500005205000000000000000000000000000000000000002600000021000036300130000000000000000N
041987061010410099VERA                                                                                                010010000000005442000060000383000003830000000000000000000000000000000000000001800000024000027070130000000000000000N
041987061010410199VIATOR                                                                                              001301300000002647000020000182200001822000000000000000000000000000000000000002800000045000012700110000000000000000N
041987061010410299VICAR                                                                                               001301300000010006000080000629700006297000000000000000000000000000000000000001300000052000040740170000000000000000N
041987061010410399ZURGENA                                                                                             005305300000002224000020000156800001568000000000000000000000000000000000000000500000010000012180110000000000000000N
041987061010490199TRES VILLAS (LAS)                                                                                   001301300000000751000010000060800000608000000000000000000000000000000000000000200000000000005270070000000000000000N
041987061010490299EJIDO(EL)                                                                                           002902900000036335000250002370800023708000000000000000000000000000000000000005600000148000133230220000000000000000N
041987061010490399MOJONERA (LA)                                                                                       001301300000005057000040000319700003197000000000000000000000000000000000000000900000036000019680130000000000000000N
041987061011100199ALCALA DE LOS GAZULES                                                                               003103100000005632000060000411700004117000000000000000000000000000000000000001600000031000027890130000000000000000N
041987061011100299ALCALA DEL VALLE                                                                                    000600600000005250000040000352600003526000000000000000000000000000000000000003000000042000026190130000000000000000N
041987061011100399ALGAR                                                                                               000600600000002145000020000152600001526000000000000000000000000000000000000000100000011000009810110000000000000000N
041987061011100499ALGECIRAS                                                                                           000400400000096882000940006511900065119000000000000000000000000000000000000038500000493000364420250000000000000000N
041987061011100599ALGODONALES                                                                                         000600600000005975000080000423600004236000000000000000000000000000000000000001200000020000029200130000000000000000N
041987061011100699ARCOS DE LA FRONTERA                                                                                000600600000026781000270001749000017490000000000000000000000000000000000000007100000138000115870210000000000000000N
041987061011100799BARBATE DE FRANCO                                                                                   001501500000022047000190001481800014818000000000000000000000000000000000000008300000079000087070210000000000000000N
041987061011100899BARRIOS (LOS)                                                                                       000400400000012148000100000797200007972000000000000000000000000000000000000003300000063000058770170000000000000000N
041987061011100999BENAOCAZ                                                                                            000600600000000503000010000036100000361000000000000000000000000000000000000000400000001000002950070000000000000000N
041987061011101099BORNOS                                                                                              000600600000007848000080000525200005252000000000000000000000000000000000000001000000019000040320130000000000000000N
041987061011101199BOSQUE (EL)                                                                                         000600600000001795000020000121100001211000000000000000000000000000000000000000400000013000008980090000000000000000N
041987061011101299CADIZ                                                                                               001201200000155299001050011063100110631000000000000000000000000000000000000072600001437000591130270000000000000000N
041987061011101399CASTELLAR DE LA FRONTERA                                                                            003303300000002121000020000149300001493000000000000000000000000000000000000002400000029000011630110000000000000000N
041987061011101499CONIL DE LA FRONTERA                                                                                001501500000014362000150000929100009291000000000000000000000000000000000000001300000021000065560170000000000000000N
041987061011101599CHICLANA DE LA FRONTERA                                                                             001501500000041677000380002646300026463000000000000000000000000000000000000009000000121000144660210000000000000000N
041987061011101699CHIPIONA                                                                                            003203200000013474000130000868400008684000000000000000000000000000000000000003600000133000063300170000000000000000N
041987061011101799ESPERA                                                                                              000600600000004195000040000279000002790000000000000000000000000000000000000001400000019000020840110000000000000000N
041987061011101899GASTOR (EL)                                                                                         000600600000002292000030000161800001618000000000000000000000000000000000000000500000018000010930110000000000000000N
041987061011101999GRAZALEMA                                                                                           000600600000002288000040000165000001650000000000000000000000000000000000000001400000014000012080110000000000000000N
041987061011102099JEREZ DE LA FRONTERA                                                                                002002000000179191001750012295500122955000000000000000000000000000000000000049700001544000766530270000000000000000N
041987061011102199JIMENA DE LA FRONTERA                                                                               003303300000008539000090000611600006116000000000000000000000000000000000000008300000052000044010130000000000000000N
041987061011102299LA LINEA DE LA CONCEPCION                                                                           003303300000058779000580004047800040478000000000000000000000000000000000000025500000254000244220250000000000000000N
041987061011102399MEDINA SIDONIA                                                                                      003103100000015786000170001040500010405000000000000000000000000000000000000003700000045000077870170000000000000000N
041987061011102499OLVERA                                                                                              000600600000009229000080000662200006622000000000000000000000000000000000000004200000031000045390130000000000000000N
041987061011102599PATERNA DE RIBERA                                                                                   003103100000004666000050000295400002954000000000000000000000000000000000000001600000008000024080110000000000000000N
041987061011102699PRADO DEL REY                                                                                       000600600000005383000040000370900003709000000000000000000000000000000000000001000000023000029540130000000000000000N
041987061011102799PUERTO DE SANTA MARIA(EL)                                                                           002702700000060638000650004124400041244000000000000000000000000000000000000021200000314000202530250000000000000000N
041987061011102899PUERTO REAL                                                                                         002702700000026915000250001830100018301000000000000000000000000000000000000015500000174000094020210000000000000000N
041987061011102999PUERTO SERRANO                                                                                      000600600000006156000060000387600003876000000000000000000000000000000000000001500000025000025940130000000000000000N
041987061011103099ROTA                                                                                                002702700000021285000240001437400014374000000000000000000000000000000000000003900000050000108250210000000000000000N
041987061011103199SAN FERNANDO                                                                                        003103100000080057000890005383300053833000000000000000000000000000000000000025900000467000287710250000000000000000N
041987061011103299SANLUCAR DE BARRAMEDA                                                                               003203200000053017000550003526000035260000000000000000000000000000000000000010200000171000205600250000000000000000N
041987061011103399SAN ROQUE                                                                                           003303300000021459000230001394500013945000000000000000000000000000000000000006900000096000090010210000000000000000N
041987061011103499SETENIL                                                                                             000600600000003338000040000234000002340000000000000000000000000000000000000002500000048000013840110000000000000000N
041987061011103599TARIFA                                                                                              000400400000014548000170001008400010084000000000000000000000000000000000000003800000074000068090170000000000000000N
041987061011103699TORRE-ALHAQUIME                                                                                     000600600000001058000010000077000000770000000000000000000000000000000000000000000000001000005450090000000000000000N
041987061011103799TREBUJENA                                                                                           003203200000006774000080000457600004576000000000000000000000000000000000000000800000017000039890130000000000000000N
041987061011103899UBRIQUE                                                                                             000600600000017747000170001198900011989000000000000000000000000000000000000005900000081000094720170000000000000000N
041987061011103999VEJER DE LA FRONTERA                                                                                001501500000012969000130000900000009000000000000000000000000000000000000000001600000034000051020170000000000000000N
041987061011104099VILLALUENGA DEL ROSARIO                                                                             000600600000000507000010000039500000395000000000000000000000000000000000000000100000003000002460070000000000000000N
041987061011104199VILLAMARTIN                                                                                         000600600000012050000110000798600007986000000000000000000000000000000000000004500000042000058110170000000000000000N
041987061011104299ZAHARA                                                                                              000600600000001688000020000125900001259000000000000000000000000000000000000000200000003000008510090000000000000000N
041987061011400199ADAMUZ                                                                                              002102100000004580000040000327600003276000000000000000000000000000000000000002800000021000028010110000000000000000N
041987061011400299AGUILAR                                                                                             000200200000012743000110000926400009264000000000000000000000000000000000000002500000065000078780170000000000000000N
041987061011400399ALCARACEJOS                                                                                         005405400000001518000010000116200001162000000000000000000000000000000000000000900000011000009700090000000000000000N
041987061011400499ALMEDINILLA                                                                                         005505500000002812000030000216400002164000000000000000000000000000000000000001100000011000016340110000000000000000N
041987061011400599ALMODOVAR DEL RIO                                                                                   005305300000006837000060000479500004795000000000000000000000000000000000000000800000026000036050130000000000000000N
041987061011400699AÑORA                                                                                               005405400000001834000020000142700001427000000000000000000000000000000000000000100000000000011590090000000000000000N
041987061011400799BAENA                                                                                               000700700000018701000150001309000013090000000000000000000000000000000000000004000000084000093370170000000000000000N
041987061011400899BELALCAZAR                                                                                          005205200000004138000040000324100003241000000000000000000000000000000000000000700000009000024950110000000000000000N
041987061011400999BELMEZ                                                                                              005205200000004647000060000364300003643000000000000000000000000000000000000004400000070000024710110000000000000000N
041987061011401099BENAMEJI                                                                                            003803800000004614000040000341300003413000000000000000000000000000000000000000600000012000027540110000000000000000N
041987061011401199BLAZQUEZ (LOS)                                                                                      005205200000000805000010000062400000624000000000000000000000000000000000000001000000016000004840070000000000000000N
041987061011401299BUJALANCE                                                                                           002102100000008864000090000643700006437000000000000000000000000000000000000004600000034000051960130000000000000000N
041987061011401399CABRA                                                                                               001301300000020134000190001475600014756000000000000000000000000000000000000009800000147000107150210000000000000000N
041987061011401499CAÑETE DE LAS TORRES                                                                                002102100000003472000020000266100002661000000000000000000000000000000000000001800000022000021970110000000000000000N
041987061011401599CARCABUEY                                                                                           005505500000003070000030000245800002458000000000000000000000000000000000000000400000020000018390110000000000000000N
041987061011401699CARDEÑA                                                                                             002102100000002210000030000169900001699000000000000000000000000000000000000006500000029000011820110000000000000000N
041987061011401799CARLOTA (LA)                                                                                        005305300000008775000120000619000006190000000000000000000000000000000000000002800000042000044010130000000000000000N
041987061011401899CARPIO (EL)                                                                                         002102100000004847000060000358600003586000000000000000000000000000000000000000700000035000028880110000000000000000N
041987061011401999CASTRO DEL RIO                                                                                      002102100000007858000090000601300006013000000000000000000000000000000000000002400000033000049490130000000000000000N
041987061011402099CONQUISTA                                                                                           005405400000000588000010000050100000501000000000000000000000000000000000000000000000000000003790070000000000000000N
041987061011402199CORDOBA                                                                                             002102100000295290003050021264600212646000000000000000000000000000000000000102500001316001361300270000000000000000N
041987061011402299DOÑA MENCIA                                                                                         001301300000005162000040000385500003855000000000000000000000000000000000000001000000024000028970130000000000000000N
041987061011402399DOS TORRES                                                                                          005405400000002496000030000195600001956000000000000000000000000000000000000000800000005000014570110000000000000000N
041987061011402499ENCINAS REALES                                                                                      003803800000002209000020000168500001685000000000000000000000000000000000000001200000011000014930110000000000000000N
041987061011402599ESPEJO                                                                                              002102100000005173000040000337700003377000000000000000000000000000000000000000900000024000030230130000000000000000N
041987061011402699ESPIEL                                                                                              005205200000002873000030000210800002108000000000000000000000000000000000000000600000011000015400110000000000000000N
041987061011402799FERNAN NUÑEZ                                                                                        004204200000009123000090000661100006611000000000000000000000000000000000000002500000038000052740130000000000000000N
041987061011402899FUENTE LA LANCHA                                                                                    005205200000000528000010000041900000419000000000000000000000000000000000000000100000003000003510070000000000000000N
041987061011402999FUENTE OBEJUNA                                                                                      005205200000007018000100000539500005395000000000000000000000000000000000000002000000033000038360130000000000000000N
041987061011403099FUENTE PALMERA                                                                                      005305300000008964000110000618700006187000000000000000000000000000000000000000600000039000047930130000000000000000N
041987061011403199FUENTE TOJAR                                                                                        005505500000000926000010000076700000767000000000000000000000000000000000000000100000006000006070070000000000000000N
041987061011403299GRANJUELA (LA)                                                                                      005205200000000560000010000044500000445000000000000000000000000000000000000000500000004000003270070000000000000000N
041987061011403399GUADALCAZAR                                                                                         005305300000001236000010000089800000898000000000000000000000000000000000000000000000007000007370090000000000000000N
041987061011403499GUIJO (EL)                                                                                          005405400000000527000010000041300000413000000000000000000000000000000000000000500000005000003440070000000000000000N
041987061011403599HINOJOSA DEL DUQUE                                                                                  005205200000008227000080000642900006429000000000000000000000000000000000000001800000027000049960130000000000000000N
041987061011403699HORNACHUELOS                                                                                        005305300000005258000040000374800003748000000000000000000000000000000000000002100000013000026200130000000000000000N
041987061011403799IZNAJAR                                                                                             003803800000006282000080000480800004808000000000000000000000000000000000000001100000021000032260130000000000000000N
041987061011403899LUCENA                                                                                              003803800000031035000260002141200021412000000000000000000000000000000000000009200000125000153890210000000000000000N
041987061011403999LUQUE                                                                                               000700700000003443000030000273000002730000000000000000000000000000000000000001400000021000022030110000000000000000N
041987061011404099MONTALBAN                                                                                           004204200000004371000040000315600003156000000000000000000000000000000000000000800000015000027120110000000000000000N
041987061011404199MONTEMAYOR                                                                                          004204200000003686000040000267000002670000000000000000000000000000000000000001500000009000022240110000000000000000N
041987061011404299MONTILLA                                                                                            004204200000022069000200001637300016373000000000000000000000000000000000000009800000172000125790210000000000000000N
041987061011404399MONTORO                                                                                             002102100000010020000080000709100007091000000000000000000000000000000000000001100000018000053880170000000000000000N
041987061011404499MONTURQUE                                                                                           000200200000002003000020000145100001451000000000000000000000000000000000000001400000039000010730110000000000000000N
041987061011404599MORILES                                                                                             000200200000003665000030000264600002646000000000000000000000000000000000000000900000007000021130110000000000000000N
041987061011404699NUEVA-CARTEYA                                                                                       001301300000005808000060000404600004046000000000000000000000000000000000000000400000022000032190130000000000000000N
041987061011404799OBEJO                                                                                               002102100000001505000020000113100001131000000000000000000000000000000000000000500000015000008120090000000000000000N
041987061011404899PALENCIANA                                                                                          003803800000001764000020000133500001335000000000000000000000000000000000000000200000008000009670090000000000000000N
041987061011404999PALMA DEL RIO                                                                                       005305300000018561000150001317500013175000000000000000000000000000000000000003200000121000095290170000000000000000N
041987061011405099PEDRO ABAD                                                                                          002102100000003032000040000224500002245000000000000000000000000000000000000000800000013000019190110000000000000000N
041987061011405199PEDROCHE                                                                                            005405400000001942000020000159600001596000000000000000000000000000000000000000200000023000011670090000000000000000N
041987061011405299PEÑARROYA-PUEBLONUEVO                                                                               005205200000013779000140001038400010384000000000000000000000000000000000000009400000109000065660170000000000000000N
041987061011405399POSADAS                                                                                             005305300000007041000060000507400005074000000000000000000000000000000000000002600000027000039570130000000000000000N
041987061011405499POZOBLANCO                                                                                          005405400000014513000110001087600010876000000000000000000000000000000000000005000000074000087090170000000000000000N
041987061011405599PRIEGO DE CORDOBA                                                                                   005505500000020624000240001556100015561000000000000000000000000000000000000005400000086000099970210000000000000000N
041987061011405699PUENTE-GENIL                                                                                        000200200000026588000230001920500019205000000000000000000000000000000000000006200000166000135620210000000000000000N
041987061011405799RAMBLA (LA)                                                                                         004204200000007056000060000490900004909000000000000000000000000000000000000003000000026000040780130000000000000000N
041987061011405899RUTE                                                                                                003803800000010145000090000780300007803000000000000000000000000000000000000002500000041000058320170000000000000000N
041987061011405999S SBT.DE LOS BALLESTEROS                                                                            004204200000000816000010000062200000622000000000000000000000000000000000000000000000001000005250070000000000000000N
041987061011406099SANTAELLA                                                                                           004204200000005728000050000389900003899000000000000000000000000000000000000001200000034000030610130000000000000000N
041987061011406199SANTA EUFEMIA                                                                                       005405400000001389000010000111100001111000000000000000000000000000000000000000100000003000009280090000000000000000N
041987061011406299TORRECAMPO                                                                                          005405400000001686000020000133400001334000000000000000000000000000000000000002200000030000008940090000000000000000N
041987061011406399VALENZUELA                                                                                          000700700000001695000020000135600001356000000000000000000000000000000000000000200000013000011250090000000000000000N
041987061011406499VALSEQUILLO                                                                                         005205200000000648000010000052500000525000000000000000000000000000000000000000700000006000003690070000000000000000N
041987061011406599VICTORIA (LA)                                                                                       004204200000001732000020000129900001299000000000000000000000000000000000000000600000007000010930090000000000000000N
041987061011406699VILLA DEL RIO                                                                                       002102100000007092000060000503000005030000000000000000000000000000000000000002900000028000040400130000000000000000N
041987061011406799VILLAFRANCA DE CORDOBA                                                                              002102100000003540000030000257300002573000000000000000000000000000000000000001100000031000020720110000000000000000N
041987061011406899VILLAHARTA                                                                                          005205200000000675000010000053200000532000000000000000000000000000000000000000100000005000004090070000000000000000N
041987061011406999VILLANUEVA DE CORDOBA                                                                               005405400000010443000120000818200008182000000000000000000000000000000000000002500000041000066600170000000000000000N
041987061011407099VILLANUEVA DEL DUQUE                                                                                005405400000002177000020000175100001751000000000000000000000000000000000000000900000015000012590110000000000000000N
041987061011407199VILLANUEVA DEL REY                                                                                  005205200000001415000020000116000001160000000000000000000000000000000000000000700000014000009100090000000000000000N
041987061011407299VILLARALTO                                                                                          005405400000001887000020000154000001540000000000000000000000000000000000000000100000007000012680090000000000000000N
041987061011407399VILLAVICIOSA DE CORDOBA                                                                             002102100000004319000040000326700003267000000000000000000000000000000000000001500000025000023290110000000000000000N
041987061011407499VISO (EL)                                                                                           005405400000003653000040000292600002926000000000000000000000000000000000000000700000019000022960110000000000000000N
041987061011407599ZUHEROS                                                                                             001301300000001061000010000082400000824000000000000000000000000000000000000002400000045000005170090000000000000000N
041987061011800199AGRON                                                                                               012212200000000484000010000038900000389000000000000000000000000000000000000000300000002000002490070000000000000000N
041987061011800299ALAMEDILLA                                                                                          008908900000001143000010000078900000789000000000000000000000000000000000000000100000002000005440090000000000000000N
041987061011800399ALBOLOTE                                                                                            008708700000008087000050000550600005506000000000000000000000000000000000000001100000065000040640130000000000000000N
041987061011800499ALBONDON                                                                                            014714700000001478000020000113700001137000000000000000000000000000000000000000300000006000008650090000000000000000N
041987061011800599ALBUÑAN                                                                                             008908900000000547000010000043000000430000000000000000000000000000000000000000100000002000003600070000000000000000N
041987061011800699ALBUÑOL                                                                                             014714700000005529000060000392900003929000000000000000000000000000000000000000600000021000028350130000000000000000N
041987061011800799ALBUÑUELAS                                                                                          014714700000001421000020000110000001100000000000000000000000000000000000000000200000004000008320090000000000000000N
041987061011801099ALDEIRE                                                                                             008908900000000987000010000080100000801000000000000000000000000000000000000000300000001000005720070000000000000000N
041987061011801199ALFACAR                                                                                             008708700000003056000020000219400002194000000000000000000000000000000000000001400000015000017220110000000000000000N
041987061011801299ALGARINEJO                                                                                          012212200000005188000070000413600004136000000000000000000000000000000000000000300000012000024570130000000000000000N
041987061011801399ALHAMA DE GRANADA                                                                                   012212200000006141000050000465100004651000000000000000000000000000000000000001900000038000034180130000000000000000N
041987061011801499ALHENDIN                                                                                            008708700000003361000020000238100002381000000000000000000000000000000000000002000000009000017590110000000000000000N
041987061011801599ALICUN DE ORTEGA                                                                                    008908900000000806000010000057900000579000000000000000000000000000000000000000000000001000004000070000000000000000N
041987061011801699ALMEGIJAR                                                                                           014714700000000552000010000044900000449000000000000000000000000000000000000000700000001000003380070000000000000000N
041987061011801799ALMUÑECAR                                                                                           014014000000017149000110001149500011495000000000000000000000000000000000000001500000031000090000170000000000000000N
041987061011801899ALQUIFE                                                                                             008908900000001390000010000107000001070000000000000000000000000000000000000001400000028000007950090000000000000000N
041987061011802099ARENAS DEL REY                                                                                      012212200000002167000030000169300001693000000000000000000000000000000000000001200000064000010490110000000000000000N
041987061011802199ARMILLA                                                                                             008708700000011743000060000816600008166000000000000000000000000000000000000004700000090000046710170000000000000000N
041987061011802299ATARFE                                                                                              008708700000009713000070000702000007020000000000000000000000000000000000000002700000029000050050130000000000000000N
041987061011802399BAZA                                                                                                002302300000020768000140001503300015033000000000000000000000000000000000000005100000087000078320210000000000000000N
041987061011802499BEAS DE GRANADA                                                                                     008708700000000834000010000064300000643000000000000000000000000000000000000000700000003000004140070000000000000000N
041987061011802599BEAS DE GUADIX                                                                                      008908900000000481000010000034100000341000000000000000000000000000000000000000000000000000002130070000000000000000N
041987061011802799BENALUA DE GUADIX                                                                                   008908900000003586000020000247100002471000000000000000000000000000000000000000400000017000017230110000000000000000N
041987061011802899BENALUA DE LAS VILLAS                                                                               008708700000001383000010000106100001061000000000000000000000000000000000000000000000009000007920090000000000000000N
041987061011802999BENAMAUREL                                                                                          002302300000002741000020000210100002101000000000000000000000000000000000000000600000004000014010110000000000000000N
041987061011803099BERCHULES                                                                                           014714700000001014000020000081000000810000000000000000000000000000000000000000200000006000004780090000000000000000N
041987061011803299BUBION                                                                                              014714700000000327000010000024300000243000000000000000000000000000000000000000200000001000001890070000000000000000N
041987061011803399BUSQUISTAR                                                                                          014714700000000434000010000033200000332000000000000000000000000000000000000000400000003000001260070000000000000000N
041987061011803499CACIN                                                                                               012212200000000965000020000076700000767000000000000000000000000000000000000000100000012000005980070000000000000000N
041987061011803599CADIAR                                                                                              014714700000002159000030000166600001666000000000000000000000000000000000000001300000004000011750110000000000000000N
041987061011803699CAJAR                                                                                               008708700000001623000020000119800001198000000000000000000000000000000000000001400000011000008910090000000000000000N
041987061011803799CALICASAS                                                                                           008708700000000589000010000042300000423000000000000000000000000000000000000000000000003000003680070000000000000000N
041987061011803899CAMPOTEJAR                                                                                          008708700000001461000010000109000001090000000000000000000000000000000000000000900000008000008430090000000000000000N
041987061011803999CANILES                                                                                             002302300000006109000070000445900004459000000000000000000000000000000000000001100000016000028890130000000000000000N
041987061011804099CAÑAR                                                                                               014714700000000398000010000033800000338000000000000000000000000000000000000000100000002000002240070000000000000000N
041987061011804299CAPILEIRA                                                                                           014714700000000598000010000043800000438000000000000000000000000000000000000000200000009000003370070000000000000000N
041987061011804499CASTARAS                                                                                            014714700000000366000010000030600000306000000000000000000000000000000000000000000000000000001880070000000000000000N
041987061011804599CASTILLEJAR                                                                                         002302300000002431000030000201400002014000000000000000000000000000000000000000200000005000011790110000000000000000N
041987061011804699CASTRIL                                                                                             002302300000003645000060000280300002803000000000000000000000000000000000000001100000013000014560110000000000000000N
041987061011804799CENES DE LA VEGA                                                                                    008708700000001398000010000093500000935000000000000000000000000000000000000000500000007000008040090000000000000000N
041987061011804899CIJUELA                                                                                             008708700000001177000010000091200000912000000000000000000000000000000000000000100000004000007080090000000000000000N
041987061011804999COGOLLOS DE GUADIX                                                                                  008908900000000858000010000069100000691000000000000000000000000000000000000000200000005000004400070000000000000000N
041987061011805099COGOLLOS VEGA                                                                                       008708700000001852000020000141600001416000000000000000000000000000000000000001100000021000011100090000000000000000N
041987061011805199COLOMERA                                                                                            008708700000002030000020000154100001541000000000000000000000000000000000000000400000006000011560110000000000000000N
041987061011805399CORTES DE BAZA                                                                                      002302300000003320000050000250800002508000000000000000000000000000000000000000400000011000015710110000000000000000N
041987061011805499CORTES Y GRAENA                                                                                     008908900000001009000010000077700000777000000000000000000000000000000000000000400000009000005820090000000000000000N
041987061011805699CULLAR                                                                                              002302300000005859000070000460900004609000000000000000000000000000000000000000800000020000032150130000000000000000N
041987061011805799CULLAR VEGA                                                                                         008708700000001420000010000106900001069000000000000000000000000000000000000001000000011000008560090000000000000000N
041987061011805999CHAUCHINA                                                                                           008708700000004009000030000288900002889000000000000000000000000000000000000006500000126000018420110000000000000000N
041987061011806199CHIMENEAS                                                                                           012212200000001633000020000124700001247000000000000000000000000000000000000001000000023000009770090000000000000000N
041987061011806299CHURRIANA DE LA VEGA                                                                                008708700000004749000020000324900003249000000000000000000000000000000000000001500000025000023670110000000000000000N
041987061011806399DARRO                                                                                               008708700000001625000010000111400001114000000000000000000000000000000000000000100000001000007890090000000000000000N
041987061011806499DEHESAS DE GUADIX                                                                                   008908900000001013000010000058600000586000000000000000000000000000000000000000800000000000003100090000000000000000N
041987061011806699DEIFONTES                                                                                           008708700000002452000020000191200001912000000000000000000000000000000000000000400000009000013720110000000000000000N
041987061011806799DIEZMA                                                                                              008708700000001125000010000082900000829000000000000000000000000000000000000000100000003000007050090000000000000000N
041987061011806899DILAR                                                                                               008708700000001299000010000104900001049000000000000000000000000000000000000000600000012000007280090000000000000000N
041987061011806999DOLAR                                                                                               008908900000000779000010000064000000640000000000000000000000000000000000000000600000005000004430070000000000000000N
041987061011807099DUDAR                                                                                               008708700000000279000010000021100000211000000000000000000000000000000000000000200000001000001420070000000000000000N
041987061011807199DURCAL                                                                                              014714700000005485000030000409600004096000000000000000000000000000000000000020600000085000025640130000000000000000N
041987061011807299ESCUZAR                                                                                             008708700000001143000010000087600000876000000000000000000000000000000000000000400000007000005580090000000000000000N
041987061011807499FERREIRA                                                                                            008908900000000453000010000037900000379000000000000000000000000000000000000000000000004000002940070000000000000000N
041987061011807699FONELAS                                                                                             008908900000001601000010000104600001046000000000000000000000000000000000000000200000004000006260090000000000000000N
041987061011807899FREILA                                                                                              002302300000001424000010000102900001029000000000000000000000000000000000000000500000001000006820090000000000000000N
041987061011807999FUENTEVAQUEROS                                                                                      008708700000003715000030000269100002691000000000000000000000000000000000000000900000049000021370110000000000000000N
041987061011808299GALERA                                                                                              002302300000001937000020000152600001526000000000000000000000000000000000000000200000012000010090090000000000000000N
041987061011808399GOBERNADOR                                                                                          008908900000000446000010000037400000374000000000000000000000000000000000000000000000013000002720070000000000000000N
041987061011808499GOJAR                                                                                               008708700000001969000020000143600001436000000000000000000000000000000000000001900000025000010260090000000000000000N
041987061011808599GOR                                                                                                 008908900000001572000010000124800001248000000000000000000000000000000000000000400000003000007580090000000000000000N
041987061011808699GORAFE                                                                                              008908900000000761000010000057600000576000000000000000000000000000000000000000500000008000003450070000000000000000N
041987061011808799GRANADA                                                                                             008708700000256073001660018587200185872000000000000000000000000000000000000093000001857001164650270000000000000000N
041987061011808899GUADAHORTUNA                                                                                        008708700000002530000020000175200001752000000000000000000000000000000000000001100000013000012750110000000000000000N
041987061011808999GUADIX                                                                                              008908900000020155000170001352400013524000000000000000000000000000000000000004600000055000087830210000000000000000N
041987061011809399GUALCHOS                                                                                            014014000000002962000030000208100002081000000000000000000000000000000000000000500000003000016620110000000000000000N
041987061011809499GUEJAR SIERRA                                                                                       008708700000002576000030000200100002001000000000000000000000000000000000000000600000007000014570110000000000000000N
041987061011809599GUEVEJAR                                                                                            008708700000001124000010000081200000812000000000000000000000000000000000000000100000006000007150090000000000000000N
041987061011809699HUELAGO                                                                                             008908900000000764000010000063600000636000000000000000000000000000000000000000100000002000004850070000000000000000N
041987061011809799HUENEJA                                                                                             008908900000001631000030000129000001290000000000000000000000000000000000000000700000012000009480090000000000000000N
041987061011809899HUESCAR                                                                                             002302300000010333000100000764500007645000000000000000000000000000000000000004000000051000044360170000000000000000N
041987061011809999HUETOR SANTILLAN                                                                                    008708700000001359000010000099900000999000000000000000000000000000000000000000900000011000007800090000000000000000N
041987061011810099HUETOR TAJAR                                                                                        012212200000007469000040000562000005620000000000000000000000000000000000000000500000014000041730130000000000000000N
041987061011810199HUETOR VEGA                                                                                         008708700000005675000040000391700003917000000000000000000000000000000000000002300000021000026620130000000000000000N
041987061011810299ILLORA                                                                                              012212200000010278000090000763700007637000000000000000000000000000000000000002500000051000058370170000000000000000N
041987061011810399ITRABO                                                                                              014014000000001200000010000094600000946000000000000000000000000000000000000000400000002000007670090000000000000000N
041987061011810599IZNALLOZ                                                                                            008708700000006912000060000529000005290000000000000000000000000000000000000002000000011000034980130000000000000000N
041987061011810799JAYENA                                                                                              012212200000001506000010000111200001112000000000000000000000000000000000000000300000001000008380090000000000000000N
041987061011810899JEREZ DEL MARQUESADO                                                                                008908900000001329000010000108300001083000000000000000000000000000000000000000600000005000008110090000000000000000N
041987061011810999JETE                                                                                                014014000000000721000010000054900000549000000000000000000000000000000000000000100000006000004800070000000000000000N
041987061011811199JUN                                                                                                 008708700000000846000010000060300000603000000000000000000000000000000000000000500000001000005100070000000000000000N
041987061011811499LA CALAHORRA                                                                                        008908900000001084000010000084800000848000000000000000000000000000000000000000600000003000005810090000000000000000N
041987061011811599LACHAR                                                                                              008708700000002100000020000147600001476000000000000000000000000000000000000000400000013000011220110000000000000000N
041987061011811699LANJARON                                                                                            014714700000004231000040000316700003167000000000000000000000000000000000000001000000026000023870110000000000000000N
041987061011811799LANTEIRA                                                                                            008908900000000787000010000065200000652000000000000000000000000000000000000000700000003000004840070000000000000000N
041987061011811999LECRIN                                                                                              014714700000002616000050000206800002068000000000000000000000000000000000000002200000014000015030110000000000000000N
041987061011812099LENTEGI                                                                                             014014000000000373000010000028600000286000000000000000000000000000000000000000100000002000002340070000000000000000N
041987061011812199LOBRAS                                                                                              014714700000000257000010000020600000206000000000000000000000000000000000000000100000002000001190070000000000000000N
041987061011812299LOJA                                                                                                012212200000020279000310001466600014666000000000000000000000000000000000000004600000125000094660210000000000000000N
041987061011812399LUGROS                                                                                              008908900000000623000010000047000000470000000000000000000000000000000000000000300000002000002600070000000000000000N
041987061011812499LUJAR                                                                                               014014000000000695000010000052100000521000000000000000000000000000000000000000400000004000003200070000000000000000N
041987061011812699MALA(LA)                                                                                            008708700000001654000010000118600001186000000000000000000000000000000000000000200000007000008700090000000000000000N
041987061011812799MARACENA                                                                                            008708700000011095000080000766700007667000000000000000000000000000000000000002400000064000057030170000000000000000N
041987061011812899MARCHAL                                                                                             008908900000000534000010000043700000437000000000000000000000000000000000000000200000003000002980070000000000000000N
041987061011813299MOCLIN                                                                                              008708700000005037000060000381900003819000000000000000000000000000000000000002800000022000026420130000000000000000N
041987061011813399MOLVIZAR                                                                                            014014000000002427000020000193500001935000000000000000000000000000000000000000300000013000016090110000000000000000N
041987061011813499MONACHIL                                                                                            008708700000003725000020000293700002937000000000000000000000000000000000000002000000012000017890110000000000000000N
041987061011813599MONTEFRIO                                                                                           012212200000008359000070000628300006283000000000000000000000000000000000000002800000049000040630130000000000000000N
041987061011813699MONTEJICAR                                                                                          008708700000003005000020000214400002144000000000000000000000000000000000000000700000007000015760110000000000000000N
041987061011813799MONTILLANA                                                                                          008708700000001415000010000107000001070000000000000000000000000000000000000000200000012000007740090000000000000000N
041987061011813899MORALEDA DE ZAFAYONA                                                                                012212200000002547000020000179800001798000000000000000000000000000000000000003100000027000011360110000000000000000N
041987061011814099MOTRIL                                                                                              014014000000044482000310003027000030270000000000000000000000000000000000000014000000203000175610210000000000000000N
041987061011814199MURTAS                                                                                              014714700000001225000010000096200000962000000000000000000000000000000000000000100000005000006480090000000000000000N
041987061011814399NIGUELAS                                                                                            014714700000001217000010000100000001000000000000000000000000000000000000000000600000013000007050090000000000000000N
041987061011814499NIVAR                                                                                               008708700000000487000010000038100000381000000000000000000000000000000000000000500000001000003150070000000000000000N
041987061011814599OGIJARES                                                                                            008708700000002921000020000200200002002000000000000000000000000000000000000001000000010000015470110000000000000000N
041987061011814699ORCE                                                                                                002302300000001626000020000130700001307000000000000000000000000000000000000000500000005000009310090000000000000000N
041987061011814799ORGIVA                                                                                              014714700000005155000030000393400003934000000000000000000000000000000000000001400000014000025090130000000000000000N
041987061011814899OTIVAR                                                                                              014014000000001213000010000089000000890000000000000000000000000000000000000000500000001000006690090000000000000000N
041987061011814999OTURA                                                                                               008708700000002209000020000149100001491000000000000000000000000000000000000000700000006000012180110000000000000000N
041987061011815099PADUL                                                                                               008708700000006056000040000446600004466000000000000000000000000000000000000001800000024000033520130000000000000000N
041987061011815199PAMPANEIRA                                                                                          014714700000000358000010000030100000301000000000000000000000000000000000000000200000001000002040070000000000000000N
041987061011815299PEDRO MARTINEZ                                                                                      008908900000002017000020000153700001537000000000000000000000000000000000000002200000064000007980110000000000000000N
041987061011815399PELIGROS                                                                                            008708700000005275000040000355900003559000000000000000000000000000000000000002700000018000027730130000000000000000N
041987061011815499PEZA (LA)                                                                                           008908900000001740000010000127300001273000000000000000000000000000000000000000400000003000008210090000000000000000N
041987061011815799PINOS GENIL                                                                                         008708700000000910000010000065500000655000000000000000000000000000000000000000500000005000005360070000000000000000N
041987061011815899PINOS PUENTE                                                                                        008708700000013370000090000983300009833000000000000000000000000000000000000007100000072000071240170000000000000000N
041987061011815999PIÑAR                                                                                               008708700000001549000020000119500001195000000000000000000000000000000000000000300000006000008890090000000000000000N
041987061011816199POLICAR                                                                                             008908900000000274000010000022700000227000000000000000000000000000000000000000200000000000001790070000000000000000N
041987061011816299POLOPOS                                                                                             014714700000001387000030000106600001066000000000000000000000000000000000000000100000002000008610090000000000000000N
041987061011816399PORTUGOS                                                                                            014714700000000438000010000035300000353000000000000000000000000000000000000000000000001000002820070000000000000000N
041987061011816499PUEBLA DE DON FADRIQUE                                                                              002302300000002894000030000219700002197000000000000000000000000000000000000000900000017000015430110000000000000000N
041987061011816599PULIANAS                                                                                            008708700000002291000020000157600001576000000000000000000000000000000000000001200000014000011590110000000000000000N
041987061011816799PURULLENA                                                                                           008908900000002757000030000189200001892000000000000000000000000000000000000000100000010000013340110000000000000000N
041987061011816899QUENTAR                                                                                             008708700000001253000010000093600000936000000000000000000000000000000000000000700000053000006180090000000000000000N
041987061011817099RUBITE                                                                                              014714700000000554000010000045800000458000000000000000000000000000000000000000000000000000002930070000000000000000N
041987061011817199SALAR                                                                                               012212200000002867000030000213600002136000000000000000000000000000000000000000800000010000018310110000000000000000N
041987061011817399SALOBREÑA                                                                                           014014000000008926000060000627900006279000000000000000000000000000000000000001600000014000045250130000000000000000N
041987061011817499SANTA CRUZ DEL COMERCIO                                                                             012212200000000627000010000048400000484000000000000000000000000000000000000000200000004000003580070000000000000000N
041987061011817599SANTA FE                                                                                            008708700000011695000090000833900008339000000000000000000000000000000000000003100000112000058730170000000000000000N
041987061011817699SOPORTUJAR                                                                                          014714700000000274000010000023500000235000000000000000000000000000000000000000200000003000001640070000000000000000N
041987061011817799SORVILAN                                                                                            014714700000001025000020000077000000770000000000000000000000000000000000000000700000004000004670090000000000000000N
041987061011817899TORRE CARDELA                                                                                       008708700000001500000010000112200001122000000000000000000000000000000000000000600000004000008950090000000000000000N
041987061011817999TORVIZCON                                                                                           014714700000001309000010000100300001003000000000000000000000000000000000000000800000004000006320090000000000000000N
041987061011818099TREVELEZ                                                                                            014714700000000877000010000066800000668000000000000000000000000000000000000000200000002000004400070000000000000000N
041987061011818199TURON                                                                                               014714700000000515000010000039700000397000000000000000000000000000000000000000100000001000003340070000000000000000N
041987061011818299UGIJAR                                                                                              014714700000003149000040000235200002352000000000000000000000000000000000000000800000009000017200110000000000000000N
041987061011818399VALOR                                                                                               014714700000001202000010000099000000990000000000000000000000000000000000000000300000003000006360090000000000000000N
041987061011818499VELEZ BENAUDALLA                                                                                    014014000000002630000020000197900001979000000000000000000000000000000000000000000000012000014580110000000000000000N
041987061011818599VENTAS DE HUELMA                                                                                    012212200000000777000010000063200000632000000000000000000000000000000000000001400000000000004350070000000000000000N
041987061011818799VILLANUEVA DE LAS TORRES                                                                            008908900000001118000010000078200000782000000000000000000000000000000000000000200000029000004350090000000000000000N
041987061011818899VILLANUEVA MESIA                                                                                    012212200000001814000010000133500001335000000000000000000000000000000000000000200000021000010740090000000000000000N
041987061011818999VIZNAR                                                                                              008708700000000683000010000055600000556000000000000000000000000000000000000001300000005000003440070000000000000000N
041987061011819299ZAFARRAYA                                                                                           012212200000002244000030000173700001737000000000000000000000000000000000000000900000017000014380110000000000000000N
041987061011819399ZUBIA                                                                                               008708700000007120000040000498300004983000000000000000000000000000000000000002300000020000036270130000000000000000N
041987061011819499ZUJAR                                                                                               002302300000003547000030000260900002609000000000000000000000000000000000000000200000017000018080110000000000000000N
041987061011890199TAHA (LA)                                                                                           014714700000000920000010000072600000726000000000000000000000000000000000000000000000000000005090070000000000000000N
041987061011890299VALLE (EL)                                                                                          014714700000001644000030000124500001245000000000000000000000000000000000000000100000005000009170090000000000000000N
041987061011890399NEVADA                                                                                              014714700000001599000030000124200001242000000000000000000000000000000000000000600000020000008500090000000000000000N
041987061011890499ALPUJARRA DE LA SIERRA                                                                              014714700000001484000020000117800001178000000000000000000000000000000000000000200000003000008230090000000000000000N
041987061011890599GABIAS (LAS)                                                                                        008708700000005373000050000385300003853000000000000000000000000000000000000004200000010000027550130000000000000000N
041987061011890699GUAJARES (LOS)                                                                                      014014000000001630000030000125000001250000000000000000000000000000000000000000800000007000009000090000000000000000N
041987061011890799VALLE DEL ZABALI                                                                                    008908900000002657000030000203300002033000000000000000000000000000000000000000500000008000016450110000000000000000N
041987061011890899VILLAMENA                                                                                           014714700000001168000020000089200000892000000000000000000000000000000000000000300000002000007010090000000000000000N
041987061011890999MORELABOR                                                                                           008708700000001161000010000087800000878000000000000000000000000000000000000000500000004000007480090000000000000000N
041987061011891099PINAR (EL)                                                                                          014714700000001478000020000113900001139000000000000000000000000000000000000000500000004000007650090000000000000000N
041987061011891199VEGAS DEL GENIL                                                                                     008708700000002595000030000197700001977000000000000000000000000000000000000001100000009000014240110000000000000000N
041987061011891299CUEVAS DEL CAMPO                                                                                    002302300000002588000030000189600001896000000000000000000000000000000000000000400000010000013360110000000000000000N
041987061011891399ZAGRA                                                                                               012212200000001501000020000102100001021000000000000000000000000000000000000000500000009000007840090000000000000000N
041987061012100199ALAJAR                                                                                              000700700000000908000010000071200000712000000000000000000000000000000000000000000000011000004800070000000000000000N
041987061012100299ALJARAQUE                                                                                           004104100000005390000050000368800003688000000000000000000000000000000000000003600000011000025120130000000000000000N
041987061012100399ALMENDRO (EL)                                                                                       001001000000000889000010000064100000641000000000000000000000000000000000000005300000018000002240070000000000000000N
041987061012100499ALMONASTER LA REAL                                                                                  000700700000002377000040000188600001886000000000000000000000000000000000000007700000042000008470110000000000000000N
041987061012100599ALMONTE                                                                                             005405400000014604000140001015900010159000000000000000000000000000000000000006300000064000061070170000000000000000N
041987061012100699ALOSNO                                                                                              007207200000005045000060000406100004061000000000000000000000000000000000000002000000037000033460130000000000000000N
041987061012100799ARACENA                                                                                             000700700000006331000060000481600004816000000000000000000000000000000000000001400000044000031010130000000000000000N
041987061012100899AROCHE                                                                                              000700700000003845000040000301900003019000000000000000000000000000000000000002800000014000019720110000000000000000N
041987061012100999ARROYOMOLINOS DE LEON                                                                               000700700000001320000020000106100001061000000000000000000000000000000000000000700000012000007880090000000000000000N
041987061012101099AYAMONTE                                                                                            001001000000016745000160001129600011296000000000000000000000000000000000000004100000033000060810170000000000000000N
041987061012101199BEAS                                                                                                004104100000004010000040000307500003075000000000000000000000000000000000000002500000006000024240110000000000000000N
041987061012101299BERROCAL                                                                                            007207200000000446000010000039700000397000000000000000000000000000000000000000100000005000003020070000000000000000N
041987061012101399BOLLULLOS DEL CONDADO                                                                               005405400000012304000110000923300009233000000000000000000000000000000000000004200000035000066050170000000000000000N
041987061012101499BONARES                                                                                             005005000000004872000030000353700003537000000000000000000000000000000000000003100000025000028260110000000000000000N
041987061012101599CABEZAS RUBIAS                                                                                      007207200000000960000010000075200000752000000000000000000000000000000000000000600000001000002420070000000000000000N
041987061012101699CALA                                                                                                000700700000001558000020000117500001175000000000000000000000000000000000000000300000012000008870090000000000000000N
041987061012101799CALAÑAS                                                                                             007207200000005371000050000437300004373000000000000000000000000000000000000000900000026000031570130000000000000000N
041987061012101899CAMPILLO (EL)                                                                                       007207200000002912000030000219600002196000000000000000000000000000000000000002200000021000013300110000000000000000N
041987061012101999CAMPOFRIO                                                                                           000700700000000923000010000072200000722000000000000000000000000000000000000000500000004000005270070000000000000000N
041987061012102099CAÑAVERAL DE LEON                                                                                   000700700000000603000010000049300000493000000000000000000000000000000000000004500000001000002000070000000000000000N
041987061012102199CARTAYA                                                                                             004104100000009867000090000691900006919000000000000000000000000000000000000005500000028000044680130000000000000000N
041987061012102399CERRO DE ANDEVALO (EL)                                                                              007207200000003082000030000254200002542000000000000000000000000000000000000001300000011000016650110000000000000000N
041987061012102499CORTECONCEPCION                                                                                     000700700000000724000010000056700000567000000000000000000000000000000000000002300000001000003170070000000000000000N
041987061012102599CORTEGANA                                                                                           000700700000005474000070000423300004233000000000000000000000000000000000000001400000023000026090130000000000000000N
041987061012102699CORTELAZOR                                                                                          000700700000000378000010000031000000310000000000000000000000000000000000000000000000004000002260070000000000000000N
041987061012102899CUMBRES DE SAN BARTOLOME                                                                            000700700000000763000010000064600000646000000000000000000000000000000000000001300000018000004210070000000000000000N
041987061012102999CUMBRES MAYORES                                                                                     000700700000002491000020000194800001948000000000000000000000000000000000000004500000042000013070110000000000000000N
041987061012103099CHUCENA                                                                                             005405400000001914000020000148600001486000000000000000000000000000000000000000400000015000012750090000000000000000N
041987061012103199ENCINASOLA                                                                                          000700700000002431000030000204300002043000000000000000000000000000000000000001700000015000013480110000000000000000N
041987061012103299ESCACENA DEL CAMPO                                                                                  005405400000002229000020000167900001679000000000000000000000000000000000000001100000019000012980110000000000000000N
041987061012103399FUENTEHERIDOS                                                                                       000700700000000645000010000049200000492000000000000000000000000000000000000000400000006000003420070000000000000000N
041987061012103499GALAROZA                                                                                            000700700000001694000020000133100001331000000000000000000000000000000000000000100000018000008880090000000000000000N
041987061012103599GIBRALEON                                                                                           004104100000009733000090000696900006969000000000000000000000000000000000000002700000030000047300130000000000000000N
041987061012103799GRANADO (EL)                                                                                        001001000000000717000010000052400000524000000000000000000000000000000000000000100000006000004110070000000000000000N
041987061012103899HIGUERA DE LA SIERRA                                                                                000700700000001439000010000113300001133000000000000000000000000000000000000001400000014000007430090000000000000000N
041987061012103999HINOJALES                                                                                           000700700000000499000010000039700000397000000000000000000000000000000000000000000000002000002500070000000000000000N
041987061012104099HINOJOS                                                                                             005405400000003421000040000253300002533000000000000000000000000000000000000005900000029000018780110000000000000000N
041987061012104199HUELVA                                                                                              004104100000135210001190009536300095363000000000000000000000000000000000000057600000776000492580270000000000000000N
041987061012104299ISLA CRISTINA                                                                                       001001000000015535000120001068500010685000000000000000000000000000000000000002600000030000058810170000000000000000N
041987061012104399JABUGO                                                                                              000700700000002544000030000190700001907000000000000000000000000000000000000001800000010000013180110000000000000000N
041987061012104499LEPE                                                                                                001001000000015223000120001020300010203000000000000000000000000000000000000003700000024000063220170000000000000000N
041987061012104599LINARES DE LA SIERRA                                                                                000700700000000281000010000022600000226000000000000000000000000000000000000000100000001000001860070000000000000000N
041987061012104699LUCENA DEL PUERTO                                                                                   005005000000001988000020000143200001432000000000000000000000000000000000000000200000005000011350090000000000000000N
041987061012104799MANZANILLA                                                                                          005405400000002471000020000193100001931000000000000000000000000000000000000000400000011000015410110000000000000000N
041987061012104899MARINES (LOS)                                                                                       000700700000000373000010000030600000306000000000000000000000000000000000000001800000016000001430070000000000000000N
041987061012104999MINAS DE RIOTINTO                                                                                   007207200000006220000070000465000004650000000000000000000000000000000000000008000000026000024610130000000000000000N
041987061012105099MOGUER                                                                                              005005000000011009000090000742100007421000000000000000000000000000000000000004400000052000045850170000000000000000N
041987061012105199NAVA (LA)                                                                                           000700700000000387000010000029300000293000000000000000000000000000000000000000200000005000002080070000000000000000N
041987061012105299NERVA                                                                                               007207200000007336000080000577100005771000000000000000000000000000000000000001900000033000040030130000000000000000N
041987061012105399NIEBLA                                                                                              005005000000003941000030000292800002928000000000000000000000000000000000000002300000009000022780110000000000000000N
041987061012105499PALMA DEL CONDADO (LA)                                                                              005405400000009252000070000683600006836000000000000000000000000000000000000002000000027000048600130000000000000000N
