071987061999999000112023TMARIA DEL CORO GARMENDIA GALVETE                                            000000000000000000N
071987061999999000112024TRAFAEL VICTOR MARTINEZ CASTRO                                               000000000000000000N
071987061999999000112025TCASIMIR IGLESIAS I RODRIGUEZ                                                000000000000000000N
071987061999999000112026TJORDI TOLRA I MABILON                                                       000000000000000000N
071987061999999000112027TPERE SAMPOL MAS                                                             000000000000000000N
071987061999999000112028TANA MARIA BANDRES ZAMACONA                                                  000000000000000000N
071987061999999000112029TXOSE DIAZ DIAZ                                                              000000000000000000N
071987061999999000112030TENRIC CAPILLA I MONZONIS                                                    000000000000000000N
071987061999999000112031TOCTAVI JULIA I ARCUSA                                                       000000000000000000N
071987061999999000112032TANDREU OLIVER OLIVER                                                        000000000000000000N
071987061999999000112033TKEPA AULESTIA URRUTIA                                                       000000000000000000N
071987061999999000112034TMARIA JESUS DIAZ SANCHEZ                                                    000000000000000000N
071987061999999000112035TRAIMON GALIANA I ARAGON                                                     000000000000000000N
071987061999999000112036TANTONI MORRAL I BERENGUER                                                   000000000000000000N
071987061999999000112037TANTONI SANSO SERVERA                                                        000000000000000000N
071987061999999000112038TROBERTO LERCHUNDI BARA헤NO                                                  000000000000000000N
071987061999999000112039TJOSE BLANCO RODRIGUEZ                                                       000000000000000000N
071987061999999000112040TENRIC CASABAN I MOYA                                                        000000000000000000N
071987061999999000112041TCARME BERTRAN I GONZALEZ                                                    000000000000000000N
071987061999999000112042TJOSE MARIA SOLCHAGA HERRERA                                                 000000000000000000N
071987061999999000112043TJUAN TRABA DIAZ                                                             000000000000000000N
071987061999999000112044TMARIA JOSEP SIMBOR I ROIG                                                   000000000000000000N
071987061999999000112045TMAGDA ORANICH I SOLAGRAN                                                    000000000000000000N
071987061999999000112046TJOSE MARIA LARA FERNANDEZ                                                   000000000000000000N
071987061999999000112047TFRANCISCO GONZALEZ VIEITEZ                                                  000000000000000000N
071987061999999000112048TFELIP SOLE I SABARIS                                                        000000000000000000N
071987061999999000112049TMARIA TERESA PASCUAL BONIS                                                  000000000000000000N
071987061999999000112050TFRANCISCO VILLANUEVA GONZALEZ                                               000000000000000000N
071987061999999000112051TAVEL-LI ARTIS GENER                                                         000000000000000000N
071987061999999000112052TMARTIN AUZMENDI AYERBE                                                      000000000000000000N
071987061999999000112053TANTONIO COSTA RICO                                                          000000000000000000N
071987061999999000112054TIGONE ARTEAGABEITIA CHAVARRI                                                000000000000000000N
071987061999999000112055TALBINO PRADA BLANCO                                                         000000000000000000N
071987061999999000112056TPABLO-ANGEL RUIZ DE GORDEJUELA URQUIJO                                      000000000000000000N
071987061999999000112057TROSA MARIA BELLO SOTO                                                       000000000000000000N
071987061999999000112058TPERE VALLS RECASENS                                                         000000000000000000N
071987061999999000112059TJORDI TORRADES I ALADREN                                                    000000000000000000N
071987061999999000112060TMARIA LUISA CARASUSAN UNCITI                                                000000000000000000N
071987061999999000113001TLUIS ARTURO VAN DEN EYNDE CERUTI                                            000000000000000000N
071987061999999000113002TMARIA ANGELS TOMAS GONZALO                                                  000000000000000000N
071987061999999000113003TMARTIN PRETEL GARRIDO                                                       000000000000000000N
071987061999999000113004TMARTA EEK COMAS                                                             000000000000000000N
071987061999999000113005TMIGUEL SALAS YEBRA                                                          000000000000000000N
071987061999999000113006TNURIA MARTI SATO                                                            000000000000000000N
071987061999999000113007TALFONSO BECH PEIRO                                                          000000000000000000N
071987061999999000113008TANA MARIA CALAF PUEYO                                                       000000000000000000N
071987061999999000113009TVICENTE BALLESTER PALLAROL                                                  000000000000000000N
071987061999999000113010TANNA CARBONELL CURELL                                                       000000000000000000N
071987061999999000113011TVICTOR GARCIA GONZALEZ                                                      000000000000000000N
071987061999999000113012TMARIA DEL CARMEN BAUTISTA PALOMARES                                         000000000000000000N
071987061999999000113013TFERMIN ROMAN ALAMIN                                                         000000000000000000N
071987061999999000113014TDOLORES BOGUERO PALMA                                                       000000000000000000N
071987061999999000113015TSANTIAGO DE ALEGRIA SANCHEZ-CABEZUDO                                        000000000000000000N
071987061999999000113016TMARIA DEL CARMEN SANSA ALBERT                                               000000000000000000N
071987061999999000113017TLUIS JIMENEZ FERNANDEZ                                                      000000000000000000N
071987061999999000113018TMIGUEL ANGEL GONZALEZ CANALEJO                                              000000000000000000N
071987061999999000113019TLUIS LARA HURTADO                                                           000000000000000000N
071987061999999000113020TROSARIO PINEDA CASADEMONT                                                   000000000000000000N
071987061999999000113021TABEL RODRIGUEZ CALLEJO                                                      000000000000000000N
071987061999999000113022TCRISTINA ALVAREZ ROSENDE                                                    000000000000000000N
071987061999999000113023TALBERTO MARTI SATO                                                          000000000000000000N
071987061999999000113024TMARIA ISABEL MARTINEZ SORIANO                                               000000000000000000N
071987061999999000113025TANTONIO JESUS RUIZ MEDINA                                                   000000000000000000N
071987061999999000113026TINES GIRBAU COSTA                                                           000000000000000000N
071987061999999000113027TJUAN EGUREN LONGAN                                                          000000000000000000N
071987061999999000113028TEMERITA ARBONES SARRIAS                                                     000000000000000000N
071987061999999000113029TSANTOS VICTORIANO ORDASS CREMER                                             000000000000000000N
071987061999999000113030TENCARNACION TARRES ALAVEDRA                                                 000000000000000000N
071987061999999000113031TJOSE ANTONIO SANCHEZ RAZ                                                    000000000000000000N
071987061999999000113032TROSA MARIA ALVAREZ ESTEVEZ                                                  000000000000000000N
071987061999999000113033TEMILIO MU헲Z MALDONADO                                                      000000000000000000N
071987061999999000113034TMARIA LUISA FERNANDEZ FERNANDEZ                                             000000000000000000N
071987061999999000113035TJUAN JOSE BRAVO SAN JOSE                                                    000000000000000000N
071987061999999000113036TSTJEPAN BALOGH MOREIRA                                                      000000000000000000N
071987061999999000113037TJAVIER VIVANCOS ZARAGOZA                                                    000000000000000000N
071987061999999000113038TMARIA LUISA PEREZAGUA MARTIN                                                000000000000000000N
071987061999999000113039TJORGE FERRI TOMAS                                                           000000000000000000N
071987061999999000113040TMARIA PUEYO RIPOLL                                                          000000000000000000N
071987061999999000113041TPABLO ALVAREZ ROSENDE                                                       000000000000000000N
071987061999999000113042TDIEGO VILORIA FUENTES                                                       000000000000000000N
071987061999999000113043TESPERANZA JOSEFINA ALAMIN DUPRE                                             000000000000000000N
071987061999999000113044TLUIS JIMENEZ GARCIA                                                         000000000000000000N
071987061999999000113045TCASIMIRO MEJIAS SERRANO                                                     000000000000000000N
071987061999999000113046TJOSE MARIA FERNANDEZ LANTARON                                               000000000000000000N
071987061999999000113047TJOSE MANUEL SAIZ CALVO                                                      000000000000000000N
071987061999999000113048TMARIA DEL CARMEN MATA VILLARRUBIA                                           000000000000000000N
071987061999999000113049TMARIANO MAROTO MARUGAN                                                      000000000000000000N
071987061999999000113050TANDRES IZQUIERDO OLMO                                                       000000000000000000N
071987061999999000113051TFRANCISCO MARTIN FERNANDEZ CORONADO                                         000000000000000000N
071987061999999000113052TNIEVES GRIMAU GIMENO                                                        000000000000000000N
071987061999999000113053TMILAGROS GARCIA GONZALEZ                                                    000000000000000000N
071987061999999000113054TMARIA CRISTINA JIMENEZ FERNANDEZ                                            000000000000000000N
071987061999999000113055TFRANCISCO GARCIA GOMEZ                                                      000000000000000000N
071987061999999000113056TJOSEP MESTRES SEBASTIA                                                      000000000000000000N
071987061999999000113057TLUIS VALERA CALVO                                                           000000000000000000N
071987061999999000113058TISABEL DELGADO HERNANDEZ                                                    000000000000000000N
071987061999999000113059TJOSEFA LOPEZ GARCIA                                                         000000000000000000N
071987061999999000113060TFRANCES MARTINEZ LOPEZ                                                      000000000000000000N
071987061999999000114001TFERNANDO R. RIBES GARCIA                                                    000000000000000000N
071987061999999000114002TJOSE TOVAR VICENTE                                                          000000000000000000N
071987061999999000114003TFRANCISCO DOMINGO IBA헨Z                                                    000000000000000000N
071987061999999000114004TENRIQUE MONSONIS DOMINGO                                                    000000000000000000N
071987061999999000114005TMARTIRIAN SANCHEZ MONTERDE                                                  000000000000000000N
071987061999999000114006TRAMON FERRER NAVARRO                                                        000000000000000000N
071987061999999000114007TLUIS S. URRUTIA ROJAS                                                       000000000000000000N
071987061999999000114008TANA MARIA OLMOS PUIG                                                        000000000000000000N
071987061999999000114009TJOSE LUIS NAVARRO FANDOS                                                    000000000000000000N
071987061999999000114010TJULIO TECLES CASADO                                                         000000000000000000N
071987061999999000114011TMANUEL ZARZOSO GARNES                                                       000000000000000000N
071987061999999000114012TBERNARDI S. PALACIOS GUARDIOLA                                              000000000000000000N
071987061999999000114013TFERNANDO ZABALA CASTA^O                                                     000000000000000000N
071987061999999000114014TJOAN S. LOPEZ VERDEJO                                                       000000000000000000N
071987061999999000114015TANDRES SELMA RUEDA                                                          000000000000000000N
071987061999999000114016TJUAN F. VILA GOMEZ                                                          000000000000000000N
071987061999999000114017TJOSE CANTAVELLA CLARAMONTE                                                  000000000000000000N
071987061999999000114018TOCTAVIO R. HERNANDEZ TORRADO                                                000000000000000000N
071987061999999000114019TSALVADOR GARCIA BATALLER                                                    000000000000000000N
071987061999999000114020TPEDRO MARTINEZ VIEL                                                         000000000000000000N
071987061999999000114021TANGEL J. BORDANOVA GIMENO                                                   000000000000000000N
071987061999999000114022TJUAN C. BERRIALIS ARLANDIS                                                  000000000000000000N
071987061999999000114023TJ. FRANCISCO RIPOLLES VALLS                                                 000000000000000000N
071987061999999000114024TJUAN ANTONIO SEGRERA TORRES                                                 000000000000000000N
071987061999999000114025TRICARDO SILVESTRE BALAGUER                                                  000000000000000000N
071987061999999000114026TANGELES BRULL GREGORI                                                       000000000000000000N
071987061999999000114027TVICENTE CUCALA CHETO                                                        000000000000000000N
071987061999999000114028TATANASIO BOIX VALLES                                                        000000000000000000N
071987061999999000114029TJUSTO ALMELA CATALA                                                         000000000000000000N
071987061999999000114030TANGEL V. CALPE CLIMET                                                       000000000000000000N
071987061999999000114031TANTONIO LOPEZ SELLES                                                        000000000000000000N
071987061999999000114032TVICENTE CAMA헨S MONTAGUD                                                    000000000000000000N
071987061999999000114033TVICENTE PASTOR GURREA                                                       000000000000000000N
071987061999999000114034TANTONIO PONS MARTI                                                          000000000000000000N
071987061999999000114035TALFONSO CASSE SALMERON                                                      000000000000000000N
071987061999999000114036TEDUARDO OLMEDO DE LA CALLE                                                  000000000000000000N
071987061999999000114037TELVIRA MARCO ROS                                                            000000000000000000N
071987061999999000114038TLUIS V. DE MESA REIG                                                        000000000000000000N
071987061999999000114039TMANUEL AMIGUET BOIX                                                         000000000000000000N
071987061999999000114040TMA. CONCEPCION ESTIVALIS SANCHO                                             000000000000000000N
071987061999999000114041TARMANDO J. MENA CUADRA                                                      000000000000000000N
071987061999999000114042TFRANCISCO SOCARRADES MARTI                                                  000000000000000000N
071987061999999000114043TTOMAS RUIZ OLIVARES                                                         000000000000000000N
071987061999999000114044TMANUEL SENDER GIL                                                           000000000000000000N
071987061999999000114045TJUAN I. FERRANDIS OLMOS                                                     000000000000000000N
071987061999999000114046TJUAN FORES ESCURA                                                           000000000000000000N
071987061999999000114047TJAIME RECLES PARDO                                                          000000000000000000N
071987061999999000114048TJOSE NAVARRO VERDEGUER                                                      000000000000000000N
071987061999999000114049TBLAS RODRIGUEZ CONTRERAS                                                    000000000000000000N
071987061999999000114050TJUAN B. MELCHOR LLOPIS                                                      000000000000000000N
071987061999999000114051TGUILLERMO EMILIO RODRIGUEZ PASTOR                                           000000000000000000N
071987061999999000114052TJOSE MARIA ALMELA MARIN                                                     000000000000000000N
071987061999999000114053TMARIA AMPARO C. MARTINEZ CHINER                                             000000000000000000N
071987061999999000114054TJOSE A. PELEJERO VILA                                                       000000000000000000N
071987061999999000114055TCONCEPCION LLUCH OMS                                                        000000000000000000N
071987061999999000114056TTERESA ALBERICH A헲                                                         000000000000000000N
071987061999999000114057TJUAN BONET TARREGA                                                          000000000000000000N
071987061999999000114058TCARLOS SEGARRA MARTIN                                                       000000000000000000N
071987061999999000114059TVICENTE LLOMBART VILLAPLANA                                                 000000000000000000N
071987061999999000114060TVICENTE J. SANZ SANCHO                                                      000000000000000000N
071987061999999000115001TJOSE MARIA RUIZ-MATEOS Y JIMENEZ DE TEJADA                                  000000000000000000N
071987061999999000115002TALFONSO LACAVE RUIZ-TAGLE                                                   000000000000000000N
071987061999999000115003TALFONSO BARON RIVERO                                                        000000000000000000N
071987061999999000115004TMANUEL SANCHEZ MARIN                                                        000000000000000000N
071987061999999000115005TJOSE MARIA ALVAREZ PI헨RO                                                   000000000000000000N
071987061999999000115006TDANIEL GUTIERREZ FERNANDEZ                                                  000000000000000000N
071987061999999000115007TJESUS SOLANA MARTIN                                                         000000000000000000N
071987061999999000115008TARMANDO FERNANDEZ FERNANDEZ                                                 000000000000000000N
071987061999999000115009TEUGENIO DIAZ HIDALGO                                                        000000000000000000N
071987061999999000115010TANGEL FERNANDEZ BESTEIRO                                                    000000000000000000N
071987061999999000115011TELADIO CECILIO URZAY GALILEA                                                000000000000000000N
071987061999999000115012TRAMON ROCA SUAREZ-INCLAN                                                    000000000000000000N
071987061999999000115013TLUIS PLAZA Y DE LA MATA NORIEGA                                             000000000000000000N
071987061999999000115014TBEGO헤 RUIZ-MATEOS RIVERO                                                   000000000000000000N
071987061999999000115015TDOLORES JIMENEZ DEL POZO                                                    000000000000000000N
071987061999999000115016TMANUEL ALBERTO GIMENEZ MARTI                                                000000000000000000N
071987061999999000115017TJAVIER TAMARIT MONTESINOS                                                   000000000000000000N
071987061999999000115018TJOSE SORZANO JIMENEZ                                                        000000000000000000N
071987061999999000115019TANTONIO GUTIERREZ DORADO                                                    000000000000000000N
071987061999999000115020TMARIA DEL CARMEN LOPEZ-JALVO                                                000000000000000000N
071987061999999000115021TALFONSO LAGUNA GAITE                                                        000000000000000000N
071987061999999000115022TMIGUEL LAMANA SOBEJANO                                                      000000000000000000N
071987061999999000115023TJUAN MANUEL SUAREZ PACHECO                                                  000000000000000000N
071987061999999000115024TFRANCISCO ROJAS LINARES                                                     000000000000000000N
071987061999999000115025TJOSE DE LAS HERAS INCIERTE                                                  000000000000000000N
071987061999999000115026TGERMAN DE ANDRES PARAMO                                                     000000000000000000N
071987061999999000115027TFRANCISCO HURTADO DIAZ                                                      000000000000000000N
071987061999999000115028TFRANCISCO GARCIA MOLINA                                                     000000000000000000N
071987061999999000115029TFRANCISCO JAVIER MOTILLA DE LA CALLE                                        000000000000000000N
071987061999999000115030TMARIA LUISA HERNANZ GONZALEZ                                                000000000000000000N
071987061999999000115031TLUIS ALFONSO PEREZ LLANOS                                                   000000000000000000N
071987061999999000115032TJESUS DEL RIO CA헤S                                                         000000000000000000N
071987061999999000115033TMANUEL VALLE MORENO                                                         000000000000000000N
071987061999999000115034TJUAN MANUEL CLAVIJO SANCHEZ                                                 000000000000000000N
071987061999999000115035TFRANCISCO FERNANDEZ RUANO                                                   000000000000000000N
071987061999999000115036TJOSE FRANCISCO TORRENS RACERO                                               000000000000000000N
071987061999999000115037TJOSE MONTERO RUIZ                                                           000000000000000000N
071987061999999000115038TLUIS REINADO PACHECO                                                        000000000000000000N
071987061999999000115039TJOSE MARIA VICENTE MARROIG FERRER                                           000000000000000000N
071987061999999000115040TNARCISO SANCHEZ DAVILA                                                      000000000000000000N
071987061999999000115041TANTONIO ARRIERO DEL CERRO                                                   000000000000000000N
071987061999999000115042TCARLOS JOSE HUETE DIEZ                                                      000000000000000000N
071987061999999000115043TJULIO FERNANDEZ MATA                                                        000000000000000000N
071987061999999000115044TJOSE MANUEL ALVAREZ DIAZ                                                    000000000000000000N
071987061999999000115045TJOSE ANTONIO CA헲 GARCIA                                                    000000000000000000N
071987061999999000115046TFERNANDO RAMIREZ DEL MORAL                                                  000000000000000000N
071987061999999000115047TGRADENIA GABINA RAMOS HERNADEZ                                              000000000000000000N
071987061999999000115048TJUAN RAMON ROBLES OROZCO                                                    000000000000000000N
071987061999999000115049TPILAR GIL SORIA                                                             000000000000000000N
071987061999999000115050TASCENSION DE LUCAS GARCIA                                                   000000000000000000N
071987061999999000115051TFERNANDO BRAVO LANTARON                                                     000000000000000000N
071987061999999000115052TMARIA ASCENSION POSADAS BERNARDINO                                          000000000000000000N
071987061999999000115053TANDRES VILACOBA CORTINA                                                     000000000000000000N
071987061999999000115054TMABEL OTERO ROMERO                                                          000000000000000000N
071987061999999000115055TASCENSION RINCON FERNANDEZ                                                  000000000000000000N
071987061999999000115056TFRANCISCO JAVIER MARTIN DE LA FUENTE                                        000000000000000000N
071987061999999000115057TRICARDO BARBELLIDO MANZANARES                                               000000000000000000N
071987061999999000115058TMARIA BELEN GONZALEZ BALADRON                                               000000000000000000N
071987061999999000115059TANA MARIA RIERA PEREZ                                                       000000000000000000N
071987061999999000115060TALFONSO IRUSTA PENA                                                         000000000000000000N
071987061999999000116001TRAMON VI헤LS SOLER                                                          000000000000000000N
071987061999999000116002TJAVIER IRIBAR ARTIACH                                                       000000000000000000N
071987061999999000116003TJAUME BERNADES FUMADO                                                       000000000000000000N
071987061999999000116004TJOAN VILALTA PARDO                                                          000000000000000000N
071987061999999000116005TJULIO SILVA ARISTA                                                          000000000000000000N
071987061999999000116006TFERNANDO AIZPIRI FERNANDEZ                                                  000000000000000000N
071987061999999000116007TMARIA DEL MAR BERNADES BARRIONUEVO                                          000000000000000000N
071987061999999000116008TMARIA TERESA MU헲Z MONTEGUI                                                 000000000000000000N
071987061999999000116009TMIGUEL MORALES DIAZ                                                         000000000000000000N
071987061999999000116010TTOMAS TORRENTS DOMENECH                                                     000000000000000000N
071987061999999000116011TANDRES CASANOVAS RABASSA                                                    000000000000000000N
071987061999999000116012TJAUME BERNADES BARRIONUEVO                                                  000000000000000000N
071987061999999000116013TANA MARIA ACILLONA LECANDA                                                  000000000000000000N
071987061999999000116014TOSCAR ESCRIG DURAN                                                          000000000000000000N
071987061999999000116015TJORDI CASACUBERTA PEREZ                                                     000000000000000000N
071987061999999000116016TANA LECANDA VITORICA                                                        000000000000000000N
071987061999999000116017TALFREDO SITJES BORDAS                                                       000000000000000000N
071987061999999000116018TSALVADOR VI헤S BAUTO                                                        000000000000000000N
071987061999999000116019TLUISA LECANDA VITORICA                                                      000000000000000000N
071987061999999000116020TMARIA DE LOS ANGELES VILALTA MINGUEZ                                        000000000000000000N
071987061999999000116021TJOAQUIN ALONSO MARTINEZ                                                     000000000000000000N
071987061999999000116022TLUIS GRAU JIMENEZ                                                           000000000000000000N
071987061999999000116023TRAMON SALADRIGAS TRIGO                                                      000000000000000000N
071987061999999000116024TFERNANDO MARGARIT FELIZ                                                     000000000000000000N
071987061999999000116025TMIREIA VI헤LS CAPDEPON                                                      000000000000000000N
071987061999999000116026TLAURA RIQUELME MONTALBAN                                                    000000000000000000N
071987061999999000116027TJAIME CANADES BALADA                                                        000000000000000000N
071987061999999000116028TFRANCISCO PEREZ BARBERA                                                     000000000000000000N
071987061999999000116029TAGUSTIN VALLVE GUIRBAU                                                      000000000000000000N
071987061999999000116030TJOSE LUIS RIQUELME SALINAS                                                  000000000000000000N
071987061999999000116031TMARIA MERCEDES RIQUELME MONTALBAN                                           000000000000000000N
071987061999999000116032TMARIA JOSE VILALTA MINGUEZ                                                  000000000000000000N
071987061999999000116033TRAFAELA MARCO DIAZ                                                          000000000000000000N
071987061999999000116034TMARIA DEL PILAR PALOMARES MARTINEZ                                          000000000000000000N
071987061999999000116035TANDRES CASANOVAS RABASSA                                                    000000000000000000N
071987061999999000116036TJULIA MINGUEZ NAVALON                                                       000000000000000000N
071987061999999000116037TJOSEFA MONTALBAN EZCURRA                                                    000000000000000000N
071987061999999000116038TENRIQUE DURO VILARRASA                                                      000000000000000000N
071987061999999000116039TMARIA DEL PILAR CAPDEPON SEGON                                              000000000000000000N
071987061999999000116040TANTONIA FUMADO VIVES                                                        000000000000000000N
071987061999999000116041TMIREN KARMELE UNCILLA MONTEGUI                                              000000000000000000N
071987061999999000116042TARTURO ALVARO VILA                                                          000000000000000000N
071987061999999000116043TALFONSO AIZPICI FERNANDEZ                                                   000000000000000000N
071987061999999000116044TOSCAR ESTEVE GARCIA                                                         000000000000000000N
071987061999999000116045TPURIFICACION ANTOLIN GIL                                                    000000000000000000N
071987061999999000116046TGINETTE PALLARES JORDA                                                      000000000000000000N
071987061999999000116047TMANUEL PARDO SABARTES                                                       000000000000000000N
071987061999999000116048TJUANA BRIONES MINGUEZ                                                       000000000000000000N
071987061999999000116049TARIADNA VI헤LS CAPDEPON                                                     000000000000000000N
071987061999999000116050TMONSERRAT CARRERAS CASADESUS                                                000000000000000000N
071987061999999000116051TROBERTO HOYOS ALVAREZ                                                       000000000000000000N
071987061999999000116052TALBERTA ISERN BLANCHAR                                                      000000000000000000N
071987061999999000116053TJULIO AIZPIRI FERNANDEZ                                                     000000000000000000N
071987061999999000116054TXAVIER VI헤LS CAPDEPON                                                      000000000000000000N
071987061999999000116055TJOSE MANUEL CARMONA ORTIZ                                                   000000000000000000N
071987061999999000116056TPRESENTACION BARRIONUEVO RUIZ                                               000000000000000000N
071987061999999000116057TJOSE BELE헤 GUTIERREZ                                                       000000000000000000N
071987061999999000116058TAMPARO GARCIA FORNIELES                                                     000000000000000000N
071987061999999000116059TJOSE GILI ANGLI                                                             000000000000000000N
071987061999999000116060TAGUEDA PARDO TORRES                                                         000000000000000000N
071987061999999000032008TMARIA ENCARNACION VALLE FERNANDEZ                                           000000000000000000N
071987061999999000032009TCONCEPCION MARTINEZ MARTI                                                   000000000000000000N
071987061999999000032010TINES DE NICOLAS GALACHE                                                     000000000000000000N
071987061999999000032011TNURIA SUAREZ FERNANDEZ                                                      000000000000000000N
071987061999999000032012TROSA BORJA BARTUAL                                                          000000000000000000N
071987061999999000032013TMARIA JOSEFA SALVADOR PEREZ                                                 000000000000000000N
071987061999999000032014TTERESA ISABEL GISBERT ARAGO                                                 000000000000000000N
071987061999999000032015TASUNCION CALPE NAVARRO                                                      000000000000000000N
071987061999999000032016TMERCEDES DE LA TORRE MONTESINOS                                             000000000000000000N
071987061999999000032017TANTONIA ALEDON PASTOR                                                       000000000000000000N
071987061999999000032018TCARMEN VALIENTE FRANCO                                                      000000000000000000N
071987061999999000032019TADELA MARTINEZ MARTI                                                        000000000000000000N
071987061999999000032020TLAURA SEXER PEREZ                                                           000000000000000000N
071987061999999000032021TISABEL CASTILLO HERNANDEZ                                                   000000000000000000N
071987061999999000032022TGISSELLE CAROL HAZOUT CHICHE                                                000000000000000000N
071987061999999000032023TMARIA JESUS COLLADO BLASCO                                                  000000000000000000N
071987061999999000032024TASUNCION MERLOS SANCHEZ                                                     000000000000000000N
071987061999999000032025TISABEL NAVARRO MOLINA                                                       000000000000000000N
071987061999999000032026TBALDOMERA LLORENTE ESTEBAN                                                  000000000000000000N
071987061999999000032027TDOLORES CAMBIL MEDINA                                                       000000000000000000N
071987061999999000032028TROSA MARIA ROMERO BARREIRO                                                  000000000000000000N
071987061999999000032029TYOLANDA GONZALEZ AMADO                                                      000000000000000000N
071987061999999000032030TMARIA EUGENIA CARDENAL DE LA NUEZ                                           000000000000000000N
071987061999999000032031TMIRELLA GOMEZ GINER                                                         000000000000000000N
071987061999999000032032TEMPAR VIDEILLA DOLERA                                                       000000000000000000N
071987061999999000032033TREYER BERNAL NAVARRO                                                        000000000000000000N
071987061999999000032034TMARINA RODRIGUEZ GARCIA                                                     000000000000000000N
071987061999999000032035TTERESA BLASCO VAL                                                           000000000000000000N
071987061999999000032036TMARIA DE LA CINTA GARCIA RIVERO                                             000000000000000000N
071987061999999000032037TMARIA JOSEFA POQUET VICTORIA                                                000000000000000000N
071987061999999000032038TMARIA LAURA MATA ROMAN                                                      000000000000000000N
071987061999999000032039TVICTORIA MENENDEZ BRA헤S                                                    000000000000000000N
071987061999999000032040TMARIA GORETTI FERRANDO EGIDO                                                000000000000000000N
071987061999999000032041TJOSEFA MARTINEZ LOPEZ                                                       000000000000000000N
071987061999999000032042TISABEL ROMERO ARIZA                                                         000000000000000000N
071987061999999000032043TANA LUISA BLASCO PECO                                                       000000000000000000N
071987061999999000032044TMARIA DOLORES SALAS RODRIGUEZ                                               000000000000000000N
071987061999999000032045TMARIA JULIA DOMINGUEZ GUERRERO                                              000000000000000000N
071987061999999000032046TANA ISABEL FONTBUENA BELMONTE                                               000000000000000000N
071987061999999000032047TYOLANDA MARIA MU^OZ CREMADES                                                000000000000000000N
071987061999999000032048TLUISA FERNANDA ORS CANDELA                                                  000000000000000000N
071987061999999000032049TMIRELLA VANDELLOS MARTI                                                     000000000000000000N
071987061999999000032050TGEMMA ROSINA FERRER MAS                                                     000000000000000000N
071987061999999000032051TMANUELA MORENO PARRE헲                                                      000000000000000000N
071987061999999000032052TMARIA CINTA LORENZO VERDUGO                                                 000000000000000000N
071987061999999000032053TCONCEPCION MOLINA ORTIZ                                                     000000000000000000N
071987061999999000032054TALICIA ESPERANZA SERRANO ALAVA                                              000000000000000000N
071987061999999000032055TSILVIA ROMEU ALFARO                                                         000000000000000000N
071987061999999000032056TCARMEN DIAZ ALMEIDA                                                         000000000000000000N
071987061999999000032057TMARIA VICTORIA PEREZ JIMENEZ                                                000000000000000000N
071987061999999000032058TLAURA DALMAU LOPEZ                                                          000000000000000000N
071987061999999000032059TMARIA DE LAS NIEVES ALEGRE GALINDO                                          000000000000000000N
071987061999999000032060TPATRICIA MARTIN PINILLOS                                                    000000000000000000N
071987061999999000034001TLEOPOLDO ORTIZ CLIMENT                                                      000000000000000000N
071987061999999000034002TLEONARDO RAMON SALES                                                        000000000000000000N
071987061999999000034003TVICENTE GONZALEZ LIZONDO                                                    000000000000000000N
071987061999999000034004TMARIA DOLORES PARDO ORTIZ                                                   000000000000000000N
071987061999999000034005TFRANCISCO JAVIER MARTINEZ LEON                                              000000000000000000N
071987061999999000034006TLUIS ALOS REBOLL                                                            000000000000000000N
071987061999999000034007TFRANCISCO MIGUEL CLERIGUES SABATER                                          000000000000000000N
071987061999999000098046TCONCEPCION ALVAREZ MARTINEZ                                                 000000000000000000N
071987061999999000098047TJOSE MANUEL SEIJAS FREIRE                                                   000000000000000000N
071987061999999000098048TJOSEFINA PEREIRA RIVAS                                                      000000000000000000N
071987061999999000098049TCESAR RICARDO NAVAL PARAPAR                                                 000000000000000000N
071987061999999000098050TISIDRO LOPEZ RUBIO                                                          000000000000000000N
071987061999999000098051TJOSE RAMON FRAGA RODRIGUEZ                                                  000000000000000000N
071987061999999000098052TMANUEL ANDRES GARCIA CARTELLE                                               000000000000000000N
071987061999999000098053TJOSE LUIS GONZALEZ VAZQUEZ                                                  000000000000000000N
071987061999999000098054TANDRES GONZALEZ VIZOSO                                                      000000000000000000N
071987061999999000098055TMARIA CONCEPCION TORRES MOURE                                               000000000000000000N
071987061999999000098056TMANUEL OTERO PEREZ                                                          000000000000000000N
071987061999999000098057TMARIA ISABEL RODRIGUEZ OJEA                                                 000000000000000000N
071987061999999000098058TJOSE SEIJAS FORMOSO                                                         000000000000000000N
071987061999999000098059TJOSE MIRANDA RUIZ                                                           000000000000000000N
071987061999999000098060TMARIA DEL SOCORRO GONZALEZ TORRE                                            000000000000000000N
071987061999999000105001TBLAS PI헤R LOPEZ                                                            000000000000000000N
071987061999999000105002TANGEL ORTU헲 MU헲Z                                                          000000000000000000N
071987061999999000105003TENRIQUE ALONSO YAGUE                                                        000000000000000000N
071987061999999000105004TJOAQUIN MILLAN LAVIN                                                        000000000000000000N
071987061999999000105005TVICENTE MARTORELL EIXARCH                                                   000000000000000000N
071987061999999000105006TMIGUEL BERNAD REMON                                                         000000000000000000N
071987061999999000105007TLUIS-JOSE CILLERO PEDRERO                                                   000000000000000000N
071987061999999000105008TRAFAEL MELENDEZ-VALDES CRIADO                                               000000000000000000N
071987061999999000105009TRICARDO RUEDA SEGURA                                                        000000000000000000N
071987061999999000105010TFRANCISCO MARCET CORREA                                                     000000000000000000N
071987061999999000105011TVICTORIA-JOSEFA SOTO RODRIGUEZ                                              000000000000000000N
071987061999999000105012TJAIME SERRANO DE QUINTANA                                                   000000000000000000N
071987061999999000105013TSAMUEL CLUA PALAU                                                           000000000000000000N
071987061999999000105014TANGEL MARQUEZ ALCALDE                                                       000000000000000000N
071987061999999000105015TPEDRO VIAPLANA RIERA                                                        000000000000000000N
071987061999999000105016TEMILIO ZABALZA ERRAZQUIN                                                    000000000000000000N
071987061999999000105017TRAMON-MARIA DE LA CALZADA PE헤LOSA                                          000000000000000000N
071987061999999000105018TALFONSO-MIGUEL SANZ ALARTE                                                  000000000000000000N
071987061999999000105019TMARIA-ISABEL MARTINEZ IRANZU                                                000000000000000000N
071987061999999000105020TJOSE-LUIS BORJA HERRERA                                                     000000000000000000N
071987061999999000105021TJOSE-ORIOL SEVILLA VALLEJO                                                  000000000000000000N
071987061999999000105022TIGNACIO VALENTIN-GAMAZO Y FERNANDEZ                                         000000000000000000N
071987061999999000105023TFERNANDO NOGUERAS LOPEZ                                                     000000000000000000N
071987061999999000105024TJOSE VIDAL PAGES                                                            000000000000000000N
071987061999999000105025TABELARDO BURBANO AZNAR                                                      000000000000000000N
071987061999999000105026TMARIA-LUISA BLANES DELTELL                                                  000000000000000000N
071987061999999000105027TMARIA DE LA VEGA BAHAMONDE RADA                                             000000000000000000N
071987061999999000105028TMANUEL MOSCOSO ARIAS                                                        000000000000000000N
071987061999999000105029TJOSE ARAGON PALOMINO                                                        000000000000000000N
071987061999999000105030TJOSE RODRIGUEZ PEROMINGO                                                    000000000000000000N
071987061999999000105031TRAMON MORENO PERALES                                                        000000000000000000N
071987061999999000105032TFEDERICO LUBIAN ANTOLIN                                                     000000000000000000N
071987061999999000105033TMARIANO PAREJA BRAOJOS                                                      000000000000000000N
071987061999999000105034TMIGUEL MORANTE FRONTELO                                                     000000000000000000N
071987061999999000105035TERNESTO-ANGEL PEREZ BERNAL                                                  000000000000000000N
071987061999999000105036TALFONSO MARTINEZ RODRIGUEZ                                                  000000000000000000N
071987061999999000105037TISIDORO GARCIA-GRANERO FERNANDEZ                                            000000000000000000N
071987061999999000105038TMANUEL GONZALEZ BERMEJO                                                     000000000000000000N
071987061999999000105039TJESUS RAMIREZ ARENAS                                                        000000000000000000N
071987061999999000105040TFERNANDO RETAMOSA CAMPOS                                                    000000000000000000N
071987061999999000105041TFRANCISCO TORRES GARCIA                                                     000000000000000000N
071987061999999000105042TRAFAEL OCHANDO AGRAMUNT                                                     000000000000000000N
071987061999999000105043TMANUEL ABASCAL PE헤RANDA                                                    000000000000000000N
071987061999999000105044TDOMINGO GOMEZ DE DIOS                                                       000000000000000000N
071987061999999000105045TFRANCISCO-JAVIER GOMEZ JENE                                                 000000000000000000N
071987061999999000105046TFERNANDO AGUADO CRUZ                                                        000000000000000000N
071987061999999000105047TEDUARDO ANDRES LAPE헤                                                       000000000000000000N
071987061999999000105048TSEBASTIAN MARINE BIGORRA                                                    000000000000000000N
071987061999999000105049TANTONIO BENABENT CANDEL                                                     000000000000000000N
071987061999999000105050TLUIS-MARIA RODRIGUEZ ANCIOLA                                                000000000000000000N
071987061999999000037031TJOSE MANUEL MACIAS ROMERO                                                   000000000000000000N
071987061999999000037032TEDUARDO JUAN GONZALEZ DE MOLINA NAVARRO                                     000000000000000000N
071987061999999000037033TJOSE SORIANO BARQUERO                                                       000000000000000000N
071987061999999000037034TJOSE ANTONIO ARAMBARRI ABEJON                                               000000000000000000N
071987061999999000037035TVICENTE QUINTANA PEREZ                                                      000000000000000000N
071987061999999000037036TMARIA DE LAS CRUCES GLEZ-MOHINO GARCIA-CONSUEGRA                            000000000000000000N
071987061999999000037037TJOSE JESUS RODRIGUEZ GIL                                                    000000000000000000N
071987061999999000037038TJOSE LUIS MARTIN CABEZALI                                                   000000000000000000N
071987061999999000037039TJOSE GUERRERO LOPEZ                                                         000000000000000000N
071987061999999000037040TJUAN GARCIA GARCIA                                                          000000000000000000N
071987061999999000037041TRAMON MONCHOLI COSCOLLA                                                     000000000000000000N
071987061999999000037042TJOSE MANUEL CERVERA GRAJERA                                                 000000000000000000N
071987061999999000037043TFRANCISCO JAVIER MU헲Z RODRIGUEZ                                            000000000000000000N
071987061999999000037044TMIGUEL ANGEL ANTONIO LORIENTE ARIZA                                         000000000000000000N
071987061999999000037045TJOSE JAVIER PUERTAS DIEZ                                                    000000000000000000N
071987061999999000037046TANTONIO ABEL RAMIRO GARCIA                                                  000000000000000000N
071987061999999000037047TBUENAVENTURA MARGO VIVES                                                    000000000000000000N
071987061999999000037048TJOSE FERNANDEZ PI헨IRO                                                      000000000000000000N
071987061999999000037049TMANUEL MARTIN SANCHEZ                                                       000000000000000000N
071987061999999000037050TVICENTE ZARAGOZA MICHAVILA                                                  000000000000000000N
071987061999999000037051TALFREDO GUILLEM CONTRERAS                                                   000000000000000000N
071987061999999000037052TLUIS LOPEZ GARCIA                                                           000000000000000000N
071987061999999000037053TANTONIO GARCIA LARIOS                                                       000000000000000000N
071987061999999000037054TJUAN VALLE TRIGUERO                                                         000000000000000000N
071987061999999000037055TMANUEL LOPEZ LOPEZ                                                          000000000000000000N
071987061999999000037056TMANUEL LOPEZ MARTIN                                                         000000000000000000N
071987061999999000037057TMANUEL EUGENIO FARI헤 DOVAL                                                 000000000000000000N
071987061999999000037058TJOSE ESCALONA IDA헨Z                                                        000000000000000000N
071987061999999000037059TJOSE MARTIN CHICA                                                           000000000000000000N
071987061999999000037060TMARIO RAMIREZ MU헲Z                                                         000000000000000000N
071987061999999000038001TANTONIO ELEGIDO GONZALEZ-QUEVEDO                                            000000000000000000N
071987061999999000038002TJOSE RAMON GARCIA PEREZ                                                     000000000000000000N
071987061999999000038003TFELIX HERRERA PALOMERO                                                      000000000000000000N
071987061999999000038004TMARIA CARMEN SANCHEZ COBOS                                                  000000000000000000N
071987061999999000038005TMARIA BEGO헤 CORRAL RINCON                                                  000000000000000000N
071987061999999000038006TCONCEPCION GUTIERREZ ELEZ                                                   000000000000000000N
071987061999999000038007TMAXIMILIANO ELEGIDO GONZALEZ-QUEVEDO                                        000000000000000000N
071987061999999000038008TARANZAZU HERRERO MARTIN                                                     000000000000000000N
071987061999999000038009TJOSE MANUEL PORTELA FERRO                                                   000000000000000000N
071987061999999000038010TPEDRO HERNANDEZ JIMENEZ                                                     000000000000000000N
071987061999999000038011TMARIA MERCEDES DUCH MELIZ                                                   000000000000000000N
071987061999999000038012TAURELIO CARRETERO BRAVO                                                     000000000000000000N
071987061999999000038013TMARIA DEL ROSARIO GARCIA TERCERO                                            000000000000000000N
071987061999999000038014TMARIA AMELIA DE SOLA DOMINGUEZ                                              000000000000000000N
071987061999999000038015TEDUARDO GOZALO GONZALEZ                                                     000000000000000000N
071987061999999000038016TMARIA DE LOS DOLORES BLANCO LOPEZ                                           000000000000000000N
071987061999999000038017TJUAN CARLOS MORENO BLANCO                                                   000000000000000000N
071987061999999000038018TMANUEL HIDALGO GONZALEZ                                                     000000000000000000N
071987061999999000038019TISIDRO PEREZ PEREZ                                                          000000000000000000N
071987061999999000038020TMARIA ALICIA ALEJANDRE LORENZO                                              000000000000000000N
071987061999999000038021TJOSE MANUEL MU헲Z FELIPE                                                    000000000000000000N
071987061999999000038022TJULIO DEL OLMO GONZALEZ                                                     000000000000000000N
071987061999999000038023TRAFAEL FUENTES LUNA                                                         000000000000000000N
071987061999999000038024TMILAGROS MU헲Z FERANTON                                                     000000000000000000N
071987061999999000038025TMARIA JOSE SERRATOSA BELLES                                                 000000000000000000N
071987061999999000038026TJUAN DE LA TORRE AULADELL                                                   000000000000000000N
071987061999999000038027TMARIA TERESA CHAMON MORENTIN                                                000000000000000000N
071987061999999000038028TLUISA OLIVARES MANJON                                                       000000000000000000N
071987061999999000038029TPEDRO PABLO MARTIN HERNANDEZ                                                000000000000000000N
071987061999999000038030TROSA GARCIA MARTIN                                                          000000000000000000N
071987061999999000038031TMARIA JOSE HERNANDO AGUADO                                                  000000000000000000N
071987061999999000038032TMARIA VICTORIA MARIN GARCIA                                                 000000000000000000N
071987061999999000038033TJOAQUIN PABLO SEGADO BIXQUERT                                               000000000000000000N
071987061999999000038034TROSA MARIA GORGOJO GIMENO                                                   000000000000000000N
071987061999999000038035TMARIA DEL VALLE CARRERA CERECEDA                                            000000000000000000N
071987061999999000038036TLUIS CARLOS MARTIN VILANOVA                                                 000000000000000000N
071987061999999000038037TFERNANDO JAVIER PUERTA ANDRES                                               000000000000000000N
071987061999999000038038TAURELIO MARTINEZ TERUEL                                                     000000000000000000N
071987061999999000038039TCARLOS PERAL LOPEZ                                                          000000000000000000N
071987061999999000038040TROSENDO TROYANO OGAYAR                                                      000000000000000000N
071987061999999000038041TALICIA HERNANDEZ COLLADO                                                    000000000000000000N
071987061999999000038042TSALVADOR RIVERA VALENCIA                                                    000000000000000000N
071987061999999000038043TMARIA AMPARO BLANCO NAVARRO                                                 000000000000000000N
071987061999999000038044TMARIA SOLEDAD GONZALEZ ALONSO                                               000000000000000000N
071987061999999000038045TMANUELA RIVEIRO PARADA                                                      000000000000000000N
071987061999999000038046TANGELICA ARCE CABRERA                                                       000000000000000000N
071987061999999000038047TFELISA MERCADO CORTES                                                       000000000000000000N
071987061999999000038048TMIGUEL ANGEL INVARATO INAREJOS                                              000000000000000000N
071987061999999000038049TANUNCIACION PEREZ RODRIGUEZ                                                 000000000000000000N
071987061999999000038050TGUILLERMO GONZALEZ-VALLES SACO                                              000000000000000000N
071987061999999000038051TFRANCISCO ORTEGA OSORIO                                                     000000000000000000N
071987061999999000038052TMARIA ISABEL PINEL OLMEDA                                                   000000000000000000N
071987061999999000038053TBLANCA ALBERTOS DE CEANO-VIVAS                                              000000000000000000N
071987061999999000038054TROSA MARIA ANGULO NAVARRO                                                   000000000000000000N
071987061999999000038055TJOSE LUIS OCHAVO RODRIGUEZ                                                  000000000000000000N
071987061999999000038056TLUIS ALFREDO FILLOY PALMERO                                                 000000000000000000N
071987061999999000038057TFRANCISCO JAVIER SAMPEDRO VACA                                              000000000000000000N
071987061999999000038058TJAVIER JESUS HERRANZ AGUAYO                                                 000000000000000000N
071987061999999000038059TMARIA MARIN AGUAYO                                                          000000000000000000N
071987061999999000038060TJAVIER CABALLERO ROLDAN                                                     000000000000000000N
071987061999999000046001TANTONIO ROSES JUANEDA                                                       000000000000000000N
071987061999999000046002TMAXIMILIANO C. MORALES GOMEZ                                                000000000000000000N
071987061999999000046003TMIGUEL A. BORRAS LLABRES                                                    000000000000000000N
071987061999999000046004T                                                                            000000000000000000N
071987061999999000046005T                                                                            000000000000000000N
071987061999999000046006T                                                                            000000000000000000N
071987061999999000046007T                                                                            000000000000000000N
071987061999999000046008T                                                                            000000000000000000N
071987061999999000046009T                                                                            000000000000000000N
071987061999999000046010T                                                                            000000000000000000N
071987061999999000046011T                                                                            000000000000000000N
071987061999999000046012T                                                                            000000000000000000N
071987061999999000046013T                                                                            000000000000000000N
071987061999999000046014T                                                                            000000000000000000N
071987061999999000046015T                                                                            000000000000000000N
071987061999999000046016T                                                                            000000000000000000N
071987061999999000046017T                                                                            000000000000000000N
071987061999999000046018T                                                                            000000000000000000N
071987061999999000046019T                                                                            000000000000000000N
071987061999999000046020T                                                                            000000000000000000N
071987061999999000046021T                                                                            000000000000000000N
071987061999999000046022T                                                                            000000000000000000N
071987061999999000046023T                                                                            000000000000000000N
071987061999999000046024T                                                                            000000000000000000N
071987061999999000046025T                                                                            000000000000000000N
071987061999999000046026T                                                                            000000000000000000N
071987061999999000046027T                                                                            000000000000000000N
071987061999999000046028T                                                                            000000000000000000N
071987061999999000046029T                                                                            000000000000000000N
071987061999999000046030T                                                                            000000000000000000N
071987061999999000046031T                                                                            000000000000000000N
071987061999999000046033T                                                                            000000000000000000N
071987061999999000046034T                                                                            000000000000000000N
071987061999999000046035T                                                                            000000000000000000N
071987061999999000046036T                                                                            000000000000000000N
071987061999999000046037T                                                                            000000000000000000N
071987061999999000046038T                                                                            000000000000000000N
071987061999999000046039T                                                                            000000000000000000N
071987061999999000046040T                                                                            000000000000000000N
071987061999999000046041T                                                                            000000000000000000N
071987061999999000046042T                                                                            000000000000000000N
071987061999999000046043T                                                                            000000000000000000N
071987061999999000046044T                                                                            000000000000000000N
071987061999999000046045T                                                                            000000000000000000N
071987061999999000046046T                                                                            000000000000000000N
071987061999999000046047T                                                                            000000000000000000N
071987061999999000046048T                                                                            000000000000000000N
071987061999999000046049T                                                                            000000000000000000N
071987061999999000046050T                                                                            000000000000000000N
071987061999999000046051T                                                                            000000000000000000N
071987061999999000046052T                                                                            000000000000000000N
071987061999999000046053T                                                                            000000000000000000N
071987061999999000046054T                                                                            000000000000000000N
071987061999999000046055T                                                                            000000000000000000N
071987061999999000046056T                                                                            000000000000000000N
071987061999999000046057T                                                                            000000000000000000N
071987061999999000046058T                                                                            000000000000000000N
071987061999999000046059T                                                                            000000000000000000N
071987061999999000046060T                                                                            000000000000000000N
071987061999999000058001TFRANCISCO JAVIER ROSINO MATA                                                000000000000000000N
071987061999999000058002TROSA MARIA VALLEJO GONZALEZ                                                 000000000000000000N
071987061999999000058003TRAMON RUIZ RUIZ                                                             000000000000000000N
071987061999999000058004TJOSE LUIS GONZALEZ GOMEZ                                                    000000000000000000N
071987061999999000058005TMANUEL ALEGRIA FERNANDEZ                                                    000000000000000000N
071987061999999000058006TJOSE VILLEGAS DIEGO                                                         000000000000000000N
071987061999999000058007TFELIPE VICENTE CASADO MOYA                                                  000000000000000000N
071987061999999000058008TFRANCISCO GOMEZ MARTINEZ                                                    000000000000000000N
071987061999999000058009TJULIO PELAYO LASO                                                           000000000000000000N
071987061999999000058010TROSENDO MARTINEZ MARTINEZ                                                   000000000000000000N
071987061999999000058011TJOSE MANUEL CALVO MARTINEZ                                                  000000000000000000N
071987061999999000058012TENRIQUE ORTIZ ROLDAN SAINZ                                                  000000000000000000N
071987061999999000058013TJOSE MANUEL ESCUDERO ORTIZ                                                  000000000000000000N
071987061999999000058014TJUAN JOSE GARCIA GONZALEZ                                                   000000000000000000N
071987061999999000058015TAMBROSIO GONZALEZ DE LA VEGA                                                000000000000000000N
071987061999999000058016TIRENE CUEVAS CANSECO                                                        000000000000000000N
071987061999999000058017TFACUNDO ORTIZ MARTINEZ                                                      000000000000000000N
071987061999999000058018TANGEL DIAZ OCEJO                                                            000000000000000000N
071987061999999000058019TJOSE ISIDORO ARCE FERNANDEZ                                                 000000000000000000N
071987061999999000058020TBALBINO A. RODRIGUEZ GONZALEZ                                               000000000000000000N
071987061999999000058021TPEDRO GOMEZ PE헤                                                            000000000000000000N
071987061999999000058022TTOMAS REVUELTA MANTECON                                                     000000000000000000N
071987061999999000058023TFELIX IGLESIAS GONZALEZ                                                     000000000000000000N
071987061999999000058024TPEDRO LUIS DIAZ GOMEZ                                                       000000000000000000N
071987061999999000058025TJOSE MANUEL GUTIERREZ SANCHEZ                                               000000000000000000N
071987061999999000058026TFERNANDO BORRAJO DEL RIO                                                    000000000000000000N
071987061999999000108012TJOSE CARLOS MELLA VILLAR                                                    000000000000000000N
071987061999999000108013TJOSEP RAHOLA DE ESPONA                                                      000000000000000000N
071987061999999000108014TMARTIN UGALDE ORRADRE                                                       000000000000000000N
071987061999999000108015TPERFECTO YEBRA MARTUL-ORTEGA                                                000000000000000000N
071987061999999000108016TFRANCISCO DALMAU NORAT                                                      000000000000000000N
071987061999999000108017TVICTORIANO LUIS MICHELENA ELISSALT                                          000000000000000000N
071987061999999000046032T                                                                            000000000000000000N
071987061999999000108018TXAVIER CASASSAS MIRALLES                                                    000000000000000000N
071987061999999000108019TMARIA DEL CARMEN ENRIQUEZ SALIDO                                            000000000000000000N
071987061999999000108020TSEBASTIA VIDAL JUAN                                                         000000000000000000N
071987061999999000108021TCARLOS SANTAMARIA ANSA                                                      000000000000000000N
071987061999999000108022TMANUEL GENS MONTES                                                          000000000000000000N
071987061999999000108023TJORGE CASAS-SALAT FOSSAS                                                    000000000000000000N
071987061999999000108024TNESTOR BASTERRECHEA AZADUN                                                  000000000000000000N
071987061999999000108025TMIGUEL PORTER MOIX                                                          000000000000000000N
071987061999999000108026TELISEO ANTONIO CERVI헲 FRAGA                                                000000000000000000N
071987061999999000108027TNIEVES ORMAOLEA LAUZIRIKA                                                   000000000000000000N
071987061999999000108028TJOSEP LLUIS CAROD ROVIRA                                                    000000000000000000N
071987061999999000108029TFRANCISCO RAUL PEREZ SOLVEIRA                                               000000000000000000N
071987061999999000108030TNURIA COMAS GUELL                                                           000000000000000000N
071987061999999000108031TJUAN IGNACIO RETEGUI PETRICORENA                                            000000000000000000N
071987061999999000108032TCESAR GUILLERMO ANTONIO RUA MARTINEZ                                        000000000000000000N
071987061999999000108033TJORDI POU VIDAL                                                             000000000000000000N
071987061999999000108034TMANUEL CABALEIRO FABEIRO                                                    000000000000000000N
071987061999999000108035TMARIA DOLORES IRUJO ELIZALDE                                                000000000000000000N
071987061999999000108036TFRANCESC PERMANYER RIPOLL                                                   000000000000000000N
071987061999999000108037TJUAN ANTONIO PEREZ LOPEZ                                                    000000000000000000N
071987061999999000108038TRICARD VENDRELL MARTI                                                       000000000000000000N
071987061999999000108039TJUAN CARLOS ITURRI ZABALETA                                                 000000000000000000N
071987061999999000108040TJOSE MOSQUERA CASERO                                                        000000000000000000N
071987061999999000108041TJOAN FRANCESC ARGILES CISCART                                               000000000000000000N
071987061999999000108042TJUAN IGNACIO LORENTE ZUGARZA                                                000000000000000000N
071987061999999000108043TRAMON DIAZ BARROS                                                           000000000000000000N
071987061999999000108044TRICARD CASANOVAS SARSANEDAS                                                 000000000000000000N
071987061999999000108045TFERMIN LUIS CIAURRIZ GOMEZ                                                  000000000000000000N
071987061999999000108046TDAVID LOPEZ CASAL                                                           000000000000000000N
071987061999999000108047TENRIC GARRIGA TRULLOLS                                                      000000000000000000N
071987061999999000108048TJOSE ALEJANDRO LIZASO MENDIZABAL                                            000000000000000000N
071987061999999000108049TANA ISABEL GONZALEZ FERNANDEZ                                               000000000000000000N
071987061999999000108050TGABRIEL CAMPS MORANTA                                                       000000000000000000N
071987061999999000108051TJORGE KNORR BORRAS                                                          000000000000000000N
071987061999999000108052TJOSE MANUEL LENZOS SEBE                                                     000000000000000000N
071987061999999000108053TXAVIER BOSCH GARCIA                                                         000000000000000000N
071987061999999000108054TJUAN JOSE PUJANA ARZA                                                       000000000000000000N
071987061999999000108055TALBERTO MOZO CAJARAVILLE                                                    000000000000000000N
071987061999999000108056TJAUME GILABERT TORRUELLA                                                    000000000000000000N
071987061999999000108057TJOSE LARREA ORMAZABAL                                                       000000000000000000N
071987061999999000108058TANTONIO OLIVES QUINTAS                                                      000000000000000000N
071987061999999000108059TJESUS PRUJA PUIG                                                            000000000000000000N
071987061999999000108060TMARIO FERNANDEZ PELAZ                                                       000000000000000000N
071987061999999000109020TMARIA OLIVA NU헨Z ABEL                                                      000000000000000000N
071987061999999000109021TFRANCISCO JAVIER GARAGALZA RUIZ                                             000000000000000000N
071987061999999000109022TJOSE ANTONIO VILLAR PI헲N                                                   000000000000000000N
071987061999999000109023TDANIEL INNERARITY GRAU                                                      000000000000000000N
071987061999999000109024TJOAQUIN PEREIRA SOMOZA                                                      000000000000000000N
071987061999999000109025TMARIA ROSARIO IGUEREGUI ITURRARAN                                           000000000000000000N
071987061999999000109026TSANTIAGO SAYANS LEAL                                                        000000000000000000N
071987061999999000109027TAITOR ARRIOLA ANSOLA                                                        000000000000000000N
071987061999999000109028TGELASIO VARELA GESTO                                                        000000000000000000N
071987061999999000109029TMARTA ZABALETA EGA헤                                                        000000000000000000N
071987061999999000109030TLUIS EUGENIO LOPEZ ALVAREZ                                                  000000000000000000N
071987061999999000109031TJESUS CRUCHAGA NAPAL                                                        000000000000000000N
071987061999999000109032TMARIA DEL PILAR NOGUEIRA NINE                                               000000000000000000N
071987061999999000109033TMIKEL GOTZON ECHEBARRIA ECHEITA                                             000000000000000000N
071987061999999000109034TMANUEL CHAS PARIS                                                           000000000000000000N
071987061999999000109035TSABINO IRULEGUI SANTA CRUZ                                                  000000000000000000N
071987061999999000109036TMANUEL JOSE PENADO FERNANDEZ                                                000000000000000000N
071987061999999000109037TFRANCISCO JAVIER ALLENDE ARIAS                                              000000000000000000N
071987061999999000109038TANA MARIA VILAS MENDEZ                                                      000000000000000000N
071987061999999000109039TJOSE MARIA MARTINEZ LEGARRETA                                               000000000000000000N
071987061999999000109040TANTONIO LUIS IBA헨Z MOURI헲                                                 000000000000000000N
071987061999999000109041TJONE MIREN UNZUETA CRESPO                                                   000000000000000000N
071987061999999000109042TJOSE MANUEL ESTEVEZ FREIJEIRO                                               000000000000000000N
071987061999999000109043TFELIX GABARAIN AMENABAR                                                     000000000000000000N
071987061999999000109044TMARIA TERESA GARCIA MENDEZ                                                  000000000000000000N
071987061999999000109045TJAVIER PERAL ASUA                                                           000000000000000000N
071987061999999000109046TVICTOR MANUEL SANCHEZ ABEIGON                                               000000000000000000N
071987061999999000109047TMARIA IDOYA OTAZU LARRAURI                                                  000000000000000000N
071987061999999000109048TFRANCISCO JAVIER VILAS MENDEZ                                               000000000000000000N
071987061999999000109049TJOSE CARLOS GARAY SOLAUN                                                    000000000000000000N
071987061999999000109050TFRANCISCO JAVIER NOGUEIRA NINE                                              000000000000000000N
071987061999999000109051TANDONI ECHEBESTE INCHAUSPE                                                  000000000000000000N
071987061999999000109052TFRANCISCO CANEDA PEREZ                                                      000000000000000000N
071987061999999000109053TMIGUEL ANGEL REDONDO ORQUIETA                                               000000000000000000N
071987061999999000109054TMANUEL BEIRAS GARCIA                                                        000000000000000000N
071987061999999000109055TJUANA MARIA ZAMARBIDE GASTESI                                               000000000000000000N
071987061999999000109056TRAMON MARTINEZ LOPEZ                                                        000000000000000000N
071987061999999000109057TMARIA PILAR ELORRIETA SANTOS                                                000000000000000000N
071987061999999000109058TMARTIN ECHEVERRIA ZULOAGA                                                   000000000000000000N
071987061999999000109059TMIREN EDURNE MARTIN IBARRARAN                                               000000000000000000N
071987061999999000109060TJOSE MANUEL ERASO GACEO                                                     000000000000000000N
071987061999999000109001TJUAN ANTONIO GANGOITI LLAGUNO                                               000000000000000000N
071987061999999000109002TMANUEL TUBIO GARRIDO                                                        000000000000000000N
071987061999999000109003TLUIS MARIA BANDRES UNANUE                                                   000000000000000000N
071987061999999000109004TJOSE MANUEL CASAL BARBEYTO                                                  000000000000000000N
071987061999999000109005TJOSE IGNACIO BAJO FANLO                                                     000000000000000000N
071987061999999000109006TLUIS GALLEGO DOMINGUEZ                                                      000000000000000000N
071987061999999000109007TIURGI GABIREL SARASA ROSALES                                                000000000000000000N
071987061999999000109008TLUIS RODRIGUEZ DIAZ                                                         000000000000000000N
071987061999999000109009TJOSE IGNACIO AZKUNA URRETA                                                  000000000000000000N
071987061999999000109010TPEDRO GONZALEZ LOPEZ                                                        000000000000000000N
071987061999999000109011TJUAN JULIO JAUREGUI ALONSO                                                  000000000000000000N
071987061999999000109012TRAMON DOMINGUEZ REGO                                                        000000000000000000N
071987061999999000109013TPAULINO RAMON CORCUERA MUGUERZA                                             000000000000000000N
071987061999999000109014TROSA NU헨Z MU헲Z                                                            000000000000000000N
071987061999999000109015TJESUS ABASOLO EPALZA                                                        000000000000000000N
071987061999999000109016TJOSE CARLOS BRA헤 TOBIO                                                     000000000000000000N
071987061999999000109017TI헬GO URCULLU RENTERIA                                                      000000000000000000N
071987061999999000109018TLAUREANO ALVAREZ MARTINEZ                                                   000000000000000000N
071987061999999000109019TANTONIO MARQUET ARTOLA                                                      000000000000000000N
071987061999999000111001TFRANCISCO JOSE CASAUBON ALCARAZ                                             000000000000000000N
071987061999999000111002TLORENZO ARMENTEROS DEL OLMO                                                 000000000000000000N
071987061999999000111003TMANUEL LOPEZ-ESCOBAR BEARES                                                 000000000000000000N
071987061999999000111004TJOSEP TU헬 PICADO                                                           000000000000000000N
071987061999999000111005TEVA MARIA FRAGERO BLESA                                                     000000000000000000N
071987061999999000111006TNORBERTO SANCHEZ PEREZ                                                      000000000000000000N
071987061999999000111007TJULIO LOPEZ MENDEZ                                                          000000000000000000N
071987061999999000111008TPABLO SERRANO BALAZOTE                                                      000000000000000000N
071987061999999000111009TFERNANDO SANZ DE FORCALLO                                                   000000000000000000N
071987061999999000111010TJAVIER ECHAVE ORIA                                                          000000000000000000N
071987061999999000111011TJOSE LUIS SANCHEZ GARCIA                                                    000000000000000000N
071987061999999000111012TLUIS FEDERICO HUIDOBRO QUIRCE                                               000000000000000000N
071987061999999000111013TSUSANA GUERRA GARCIA                                                        000000000000000000N
071987061999999000111014TJORGE OJEDA LEVENFELD                                                       000000000000000000N
071987061999999000111015TALBERT SASOT MATEUS                                                         000000000000000000N
071987061999999000111016TMIGUEL ANGEL VILA HEREDERO                                                  000000000000000000N
071987061999999000111017TMARIA DEL MAR GARCIA GIL                                                    000000000000000000N
071987061999999000111018TMIGUEL ANDUJAR SANCHEZ                                                      000000000000000000N
071987061999999000111019TPABLO SIMON LORDA                                                           000000000000000000N
071987061999999000111020TGLORIA PEREZ GONZALEZ                                                       000000000000000000N
071987061999999000111021TSANTIAGO DOMINGO FERNANDEZ DE PIEROLA MARIN                                 000000000000000000N
071987061999999000111022TDIEGO CONTRERAS TORRES                                                      000000000000000000N
071987061999999000111023TENRIQUE MU헲Z MANZANARES                                                    000000000000000000N
071987061999999000111024TJUAN NICASIO DE MIGUEL SAENZ                                                000000000000000000N
071987061999999000111025TENCARNACION LLANOS CERRATO                                                  000000000000000000N
071987061999999000111026TOSCAR ALONSO RODRIGUEZ                                                      000000000000000000N
071987061999999000111027TJAIME JAVIER CUERVO VALDES                                                  000000000000000000N
071987061999999000111028TPURIFICACION URBIETA QUIROGA                                                000000000000000000N
071987061999999000111029TJAIME FRANCISCO BLANCO SOLSONA                                              000000000000000000N
071987061999999000111030TJUAN JOSE CASADO CARO                                                       000000000000000000N
071987061999999000111031TFELIZ QUEIPO VILLAR                                                         000000000000000000N
071987061999999000111032TMIGUEL ANGEL MARCOS PEREZ                                                   000000000000000000N
071987061999999000111033TMARIA HECATE DIAZ OJEDA                                                     000000000000000000N
071987061999999000111034TMARIA JOSE LOPEZ-VILLALTA LOZANO                                            000000000000000000N
071987061999999000111035TRAMON GUTIERREZ TOSCANO                                                     000000000000000000N
071987061999999000111036TCARLOS GALINDO MALLOL                                                       000000000000000000N
071987061999999000111037TMARIA DEL CARMEN DEL POZO PEREZ                                             000000000000000000N
071987061999999000111038TRICARDO MARTINO ALBA                                                        000000000000000000N
071987061999999000111039TLUIS MARIA MATEOS DURAN                                                     000000000000000000N
071987061999999000111040TGERARDO ROJO MARCOS                                                         000000000000000000N
071987061999999000111041TIGNACIO JAVIER ROJO CHAPARRO                                                000000000000000000N
071987061999999000111042TJOSE MANUEL ESPADA CHAVARRIA                                                000000000000000000N
071987061999999000111043TJOSE JAVIER DE LA FUENTE NU헨Z                                              000000000000000000N
071987061999999000111044TGRACIELA MARTINEZ PALLI                                                     000000000000000000N
071987061999999000111045TJOSE AGUSTIN GONZALEZ HOLGUERA                                              000000000000000000N
071987061999999000111046TAGUSTI RUIZ I CABALLERO                                                     000000000000000000N
071987061999999000111047TIGNACIO ENRIQUEZ DE SALAMANCA HOLZINGER                                     000000000000000000N
071987061999999000111048TMIGUEL ANGEL RODRIGUEZ ZAMBRANO                                             000000000000000000N
071987061999999000111049TERIC ALBERTO GALLEGO EDELFELT                                               000000000000000000N
071987061999999000111050TSOLEDAD FERNANDEZ SAAVEDRA                                                  000000000000000000N
071987061999999000111051TROBERTO DE LA PLAZA LLAMAS                                                  000000000000000000N
071987061999999000111052TSANTIAGO SANTAMARIA ALONSO                                                  000000000000000000N
071987061999999000111053TALVARO BERMEJO THOMAS                                                       000000000000000000N
071987061999999000111054TAURORA BERRA DE UNAMUNO                                                     000000000000000000N
071987061999999000111055TJAVIER AVENDA헲 MOLERO                                                      000000000000000000N
071987061999999000111056TMARIA JOSE CASES HUERTA                                                     000000000000000000N
071987061999999000111057TMARTA GARCERAN GOMEZ                                                        000000000000000000N
071987061999999000111058TMARIO B. DELGADO MARTIN                                                     000000000000000000N
071987061999999000111059TSARA MARIA RISOTO SANCHEZ                                                   000000000000000000N
071987061999999000111060TFRANCISCO DEL OLMO ROMERO-NIEVA                                             000000000000000000N
071987061999999000112001TMARIO ONAINDIA NACHIONDO                                                    000000000000000000N
071987061999999000112002TGONZALO VAZQUEZ POZO                                                        000000000000000000N
071987061999999000112003TVICENT VENTURA I BELTRAN                                                    000000000000000000N
071987061999999000112004TMARC PALMES I GIRO                                                          000000000000000000N
071987061999999000112005TMATEU MORRO MARCE                                                           000000000000000000N
071987061999999000112006TJOSE RAMON PE헤GARICANO GARMENDIA                                           000000000000000000N
071987061999999000112007TELISEO XAVIER MIGUELEZ DIAZ                                                 000000000000000000N
071987061999999000112008TJOAN J. PEREZ BENLLOCH                                                      000000000000000000N
071987061999999000112009TJOAQUIN VENTURA Y RUIZ                                                      000000000000000000N
071987061999999000112010TANDREU MURILLO TUDURI                                                       000000000000000000N
071987061999999000112011TJUAN ANTONIO CASTRO PINEDO                                                  000000000000000000N
071987061999999000112012TANA GANDON MENDUI헤                                                         000000000000000000N
071987061999999000112013TANA SANCHEZ I TORRES                                                        000000000000000000N
071987061999999000112014TSANTIAGO BLANCO I VI헤S                                                     000000000000000000N
071987061999999000112015TANDREU MATAS JAUME                                                          000000000000000000N
071987061999999000112016TADOLFO LINARES SAIZ                                                         000000000000000000N
071987061999999000112017TJOAQUIN HERRERO LORENTE                                                     000000000000000000N
071987061999999000112018TESTEBAN EGUREN ALBISTEGI                                                    000000000000000000N
071987061999999000112019TJUAN JOSE LOPEZ FACAL                                                       000000000000000000N
071987061999999000112020TFRANCESC PEREZ MORAGON                                                      000000000000000000N
071987061999999000112021TFRANCESC CODINA Y VALLS                                                     000000000000000000N
071987061999999000112022TJERONIMA RAYO BENNASAR                                                      000000000000000000N
071987061999999000022026TIGNACIO ALVO RITUERTO                                                       000000000000000000N
071987061999999000022027TROBERTO BENITO SANZ                                                         000000000000000000N
071987061999999000022028TMARIA JOSEFA MARRACO DE LOS ARCOS                                           000000000000000000N
071987061999999000022029TANGEL FRANCO QUERO                                                          000000000000000000N
071987061999999000022030TFRANCISCO MERO헲 ROS                                                        000000000000000000N
071987061999999000022031TANTONIO AISA ROYO                                                           000000000000000000N
071987061999999000022032TAQUILINO PALOMAR ARRIBAS                                                    000000000000000000N
071987061999999000022033TMARIA ISABEL PONTAQUE ADELANTADO                                            000000000000000000N
071987061999999000022034TFLORENTINO GARRIDO PAREDES                                                  000000000000000000N
071987061999999000022035TMIGUEL SORIANO ASIN                                                         000000000000000000N
071987061999999000022036TMANUEL GUMIEL IBA헨Z                                                        000000000000000000N
071987061999999000022037TJOSE LUIS ALONSO NAVARRO                                                    000000000000000000N
071987061999999000022038TJESUS PEREZ CALVO                                                           000000000000000000N
071987061999999000022039TERNESTINA FERNANDEZ GUIANCE                                                 000000000000000000N
071987061999999000022040TPURIFICACION EIROA LAZARO                                                   000000000000000000N
071987061999999000022041TPASCUAL JIMENEZ JIMENEZ                                                     000000000000000000N
071987061999999000022042TMARIA DEL CARMEN RITUERTO MIQUELE                                           000000000000000000N
071987061999999000022043TMANUEL LICERAS HERRERO                                                      000000000000000000N
071987061999999000022044TJOSE GOSER LAILLA                                                           000000000000000000N
071987061999999000022045TTRINIDAD ABELIA SEBASTIAN GARCIA                                            000000000000000000N
071987061999999000022046TMARIA ROSARIO FERNANDEZ-PUJOL CABRERA                                       000000000000000000N
071987061999999000022047TFERNANDO PEREZ NARVION                                                      000000000000000000N
071987061999999000022048TSANTOS FUENTES DEL BARCO                                                    000000000000000000N
071987061999999000022049TANA CRISTINA ARRANZ VICENTE                                                 000000000000000000N
071987061999999000022050TMIGUEL SORIANO LOSHUERTOS                                                   000000000000000000N
071987061999999000022051TJULIA TORRE PEREZ                                                           000000000000000000N
071987061999999000022052TISABEL MARIA PEREZ ABENGOCHEA                                               000000000000000000N
071987061999999000022053TROBERTO BENITO BARRACHINA                                                   000000000000000000N
071987061999999000022054TJOSE MIGUEL RUIZ INDART                                                     000000000000000000N
071987061999999000022055TMARIA DEL MAR ANTON LAFOZ                                                   000000000000000000N
071987061999999000022056TGUADALUPE ZARATE DIEZ                                                       000000000000000000N
071987061999999000022057TBENITO JOSE MARQUETA GIMENO                                                 000000000000000000N
071987061999999000022058TJOSE LUIS GARCIA BELLIDO                                                    000000000000000000N
071987061999999000022059TJUAN MANUEL FERNANDEZ LEZAUN                                                000000000000000000N
071987061999999000022060TCLEMENTE SANCHEZ GARNICA GOMEZ                                              000000000000000000N
071987061999999000023001TILDEFONSO GOMEZ MARTINEZ                                                    000000000000000000N
071987061999999000023002TFRANCISCO CUSO TORELLO                                                      000000000000000000N
071987061999999000023003TFELIPE REVUELTA GONZALEZ                                                    000000000000000000N
071987061999999000023004TJOSE ANTONIO ALMELA ESCUBEDO                                                000000000000000000N
071987061999999000023005TREMEDIOS MARTIN RODRIGUEZ                                                   000000000000000000N
071987061999999000023006TMIGUEL DE LUIS CASAS                                                        000000000000000000N
071987061999999000023007TJOSE ANTONIO INIESTA MARTIN                                                 000000000000000000N
071987061999999000023008TMARIO PEREZ VICENTE                                                         000000000000000000N
071987061999999000023009TJOSE MIGUEL VILA ANTO헤NA                                                   000000000000000000N
071987061999999000023010TLUIS ANGEL GONZALEZ SAINZ                                                   000000000000000000N
071987061999999000023011TFLORENTINO ECOMO DE NSOGO Y AKURE                                           000000000000000000N
071987061999999000023012TMIGUEL ANGEL GONZALEZ SOLA                                                  000000000000000000N
071987061999999000023013TCASIANO MASI EDU-AYINGONO                                                   000000000000000000N
071987061999999000023014TMIGUEL GONZALEZ MENDOZA                                                     000000000000000000N
071987061999999000023015TFERMIN RODRIGUEZ CASTRO                                                     000000000000000000N
071987061999999000023016TJAVIER DE LARIOTOME                                                         000000000000000000N
071987061999999000023017TJOSE BLAS ORTEGA LLAVADOR                                                   000000000000000000N
071987061999999000023018TROBERTO TORNAMIRA SANCHEZ                                                   000000000000000000N
071987061999999000023019TJOSE GALLEGO CASAUS                                                         000000000000000000N
071987061999999000023020TJUAN JOSE URIONDO GIJON                                                     000000000000000000N
071987061999999000023021TMARIA REYES BURGOS CANTOS                                                   000000000000000000N
