031979031049009000007009TMANUEL MARTINEZ-CARLON GUIRAO                                               000000000000000000N
031979031049012000007012TJOSE MOLINA SANTISTEBAN                                                     000000000000000000N
031979031049014000007014TJOAQUIN MONTERREAL ALEMAN                                                   000000000000000000N
031979031049010000027010TFERNANDO MARTINEZ LOPEZ                                                     000000000000000000N
031979031049003000038003TANTONIO FERNANDEZ SAEZ                                                      000000000000000000N
031979031049011000038011TPEDRO MOLINA GARCIA                                                         000000000000000000N
031979031049016000038016TANTONIO MUÑOZ ZAMORA                                                        000000000000000000N
031979031049005000045005TJOSE LUIS GARCIA DE MORA                                                    000000000000000000N
031979031049018000045018TFRANCISCO OLEA PORCEL                                                       000000000000000000N
031979031049013000051013TMARIA JOSE MOLTO CINTRANO                                                   000000000000000000N
031979031049017000051017TFERNANDO NAVARRETE LOPEZ-COZAR                                              000000000000000000N
031979031049001000056001TVIRTUDES CASTRO GARCIA                                                      000000000000000000S
031979031049008000056008TSANTIAGO MARTINEZ CABREJAS                                                  000000000000000000N
031979031049020000056020TJOAQUIN PEREZ SIQUIER                                                       000000000000000000N
031979031049002000062002TJOSE FERNANDEZ ALEMAN                                                       000000000000000000S
031979031049021000062021TRAMON PONCE GARCIA                                                          000000000000000000S
031979031049023000062023TJOSE MANUEL DE TORRES ROLLON                                                000000000000000000S
031979031049007000066007TFRANCISCO IGLESIA GARCIA                                                    000000000000000000N
031979031049019000066019TJUAN FRANCISCO PASTOR JIMENEZ                                               000000000000000000N
031979031049022000066022TANTONIO SANCHEZ ALMODOVAR                                                   000000000000000000N
031979031049006000067006TGINES DE HARO ROSSI                                                         000000000000000000N
031979031049015000067015TANTONIO MORENO DELGADO                                                      000000000000000000N
031979031049004000071004TFRANCISCO GALDEANO FERNANDEZ                                                000000000000000000N
031979031119023000002023TANTONIO RAMOS ARGUELLES                                                     000000000000000000N
031979031119003000007003TJOSE ARELLANO CAMPOS                                                        000000000000000000N
031979031119015000007015TJOSE MARIA GOMEZ-SALOME RUIZ                                                000000000000000000N
031979031119018000007018TANTONIO MAÑA ZAFRA                                                          000000000000000000N
031979031119001000016001TJOSE ESTEBAN AGUIRAN CHURIAQUE                                              000000000000000000N
031979031119002000016002TCARLOS MANUEL ANTOLIN BRACHO                                                000000000000000000N
031979031119012000016012TISAAC FERREIRO OCAMPO                                                       000000000000000000N
031979031119009000017009TMARGARITA ESCOLL MARTINEZ                                                   000000000000000000N
031979031119027000017027TSANTIAGO RUBIO CARREIRA                                                     000000000000000000N
031979031119010000026010TJOSE ESTEPA MONTERO                                                         000000000000000000N
031979031119016000032016TEULOGIO HERNANDEZ MERINO                                                    000000000000000000N
031979031119014000038014TRAFAEL GOMEZ OJEDA                                                          000000000000000000N
031979031119031000038031TANDRES VAZQUEZ DOMINGO                                                      000000000000000000N
031979031119032000038032TMANUEL VERANO MARTINEZ                                                      000000000000000000N
031979031119019000045019TMANUEL MARTINEZ BERBEL                                                      000000000000000000N
031979031119017000051017TANTONIO JIMENEZ RODRIGUEZ                                                   000000000000000000N
031979031119024000051024TFERNANDO RODRIGUEZ VIAÑA                                                    000000000000000000N
031979031119026000051026TSEBASTIAN ROMERO GONZALEZ                                                   000000000000000000N
031979031119008000056008TJOSE MANUEL DUARTE CENDAN                                                   000000000000000000S
031979031119025000056025TRAFAEL ROMAN GUERRERO                                                       000000000000000000S
031979031119028000056028TJERONIMO SANCHEZ BLANCO                                                     000000000000000000N
031979031119022000062022TMARIA DEL CARMEN PINEDO SANCHEZ                                             000000000000000000S
031979031119030000062030TPEDRO VALDECANTOS GARCIA                                                    000000000000000000S
031979031119033000062033TJOSE LUIS VILLAR CERON                                                      000000000000000000N
031979031119007000066007TJOSE MARIA CORDERO LOPEZ                                                    000000000000000000N
031979031119011000066011TVICENTE FERNANDEZ CALVO                                                     000000000000000000N
031979031119021000066021TJOSE LUIS PAREJA GEY                                                        000000000000000000N
031979031119004000067004TFRANCISCO BESA DE ALBA                                                      000000000000000000N
031979031119005000067005TSIXTO DE LA CALLE JIMENEZ                                                   000000000000000000N
031979031119006000067006TANTONIO CANO AFAN DE RIBERA                                                 000000000000000000N
031979031119013000071013TJESUS GARCIA VIDAL                                                          000000000000000000N
031979031119020000071020TDIEGO LUIS MORENO RODRIGUEZ                                                 000000000000000000N
031979031119029000071029TALFONSO SANCHEZ FERRAJON                                                    000000000000000000N
031979031149004000007004TFRANCISCO BUENO SAINZ                                                       000000000000000000N
031979031149017000007017TFRANCISCO JAVIER MEDINA MEDINA                                              000000000000000000N
031979031149009000020009TSEBASTIAN GOMEZ LEGRAN                                                      000000000000000000N
031979031149023000026023TCARMEN RUIZ NAVARRO                                                         000000000000000000N
031979031149002000038002TFILOMENO APARICIO LOBO                                                      000000000000000000N
031979031149013000038013TILDEFONSO JIMENEZ DELGADO                                                   000000000000000000N
031979031149026000038026TJOSE MARIA VALLS BLANCO                                                     000000000000000000N
031979031149001000045001TANTONIO ACOSTA CINTAS                                                       000000000000000000N
031979031149006000051006TJOSE RAFAEL CABELLO LUCENA                                                  000000000000000000N
031979031149007000051007TRAFAEL CHACON VILLAFRANCA                                                   000000000000000000N
031979031149014000051014TFRANCISCO MARTIN LOPEZ                                                      000000000000000000N
031979031149008000056008TEMILIO FERNANDEZ CRUZ                                                       000000000000000000S
031979031149015000056015TJOAQUIN MARTINEZ BJORKMAN                                                   000000000000000000S
031979031149025000056025TRAFAEL VALLEJO RODRIGUEZ                                                    000000000000000000S
031979031149011000062011TJOSE  GUTIERREZ LUQUE                                                       000000000000000000N
031979031149020000062020TJOSE MARIA MONTOTO CAÑAS                                                    000000000000000000N
031979031149024000062024TCECILIO VALVERDE MAZUELAS                                                   000000000000000000S
031979031149012000066012TMARIANO GUTIERREZ MUÑOZ                                                     000000000000000000N
031979031149016000066016TROSA INES MARTINEZ ZAPICO                                                   000000000000000000N
031979031149021000066021TJOSE VICENTE PIÑEIRA NEMESIO                                                000000000000000000N
031979031149003000067003TPEDRO ARIZA RIOBOO                                                          000000000000000000N
031979031149005000067005TJOAQUIN CABELLO FERNANDEZ                                                   000000000000000000N
031979031149018000067018TJUAN MILLAN ALVAREZ                                                         000000000000000000N
031979031149010000071010TCRISTOBAL GUERRERO ALONSO                                                   000000000000000000N
031979031149019000071019TMANUEL MONTALVO SORIANO                                                     000000000000000000N
031979031149022000072022TMATIAS PRATS CAÑETE                                                         000000000000000000N
031979031189002000007002TJUAN BAUTISTA BARCELONA SANCHEZ                                             000000000000000000N
031979031189006000007006TFERMIN CAMACHO EVANGELISTA                                                  000000000000000000N
031979031189014000007014TFRANCISCO L. FERNANDEZ-MEJIA FERNANDEZ                                      000000000000000000N
031979031189001000016001TANTONIA MARIA AGUILAR GONZALEZ                                              000000000000000000N
031979031189010000016010TEDUARDO CASTILLO RUIZ                                                       000000000000000000N
031979031189012000016012TANTONIO DIAZ SANCHEZ                                                        000000000000000000N
031979031189016000016016TLUIS MARIANO GARCIA LACHICA                                                 000000000000000000N
031979031189008000017008TENRIQUE CARUNCHO TORGA                                                      000000000000000000N
031979031189027000024027TARTURO SERRANO MARTINEZ                                                     000000000000000000N
031979031189003000026003TFERNANDO BELBEL BULLEJOS                                                    000000000000000000N
031979031189004000038004TNICOLAS DE BENITO ANTAÑON                                                   000000000000000000N
031979031189009000038009TJOSE MIGUEL CASTILLO HIGUERAS                                               000000000000000000N
031979031189015000038015TRAFAEL FERNANDEZ-PIÑAR Y AFAN DE RIVERA                                     000000000000000000N
031979031189020000045020TRICARDO JIMENEZ HERNANDEZ                                                   000000000000000000N
031979031189021000051021TJOSE MARIA LOZANO MALDONADO                                                 000000000000000000N
031979031189026000051026TJOSE MARIA ROSALES DE ANGULO                                                000000000000000000N
031979031189028000051028TFRANCISCO TORRES GONZALEZ                                                   000000000000000000N
031979031189013000056013TRAFAEL ESTRELLA PEDROLA                                                     000000000000000000S
031979031189017000056017TJOSE GARCIA LADRON DE GUEVARA                                               000000000000000000S
031979031189022000056022TDANIEL MALDONADO LOPEZ                                                      000000000000000000N
031979031189024000057024TJUAN NAVIDAD FERNANDEZ                                                      000000000000000000N
031979031189019000062019TANTONIO JOSE IGLESIAS CASADO                                                000000000000000000S
031979031189023000062023TPEDRO MONTAÑES ESCOBAR                                                      000000000000000000S
031979031189025000062025TFRANCISCO ORTIZ DE SARACHO SUEIRO                                           000000000000000000N
031979031189005000067005TFERNANDO BOVILLE MARTINEZ                                                   000000000000000000N
031979031189007000067007TENRIQUE CANO GARCIA                                                         000000000000000000N
031979031189018000067018TEMILIO GODOY ESCRIBANO                                                      000000000000000000N
031979031189011000071011TENRIQUE SERAFIN COBO FERNANDEZ                                              000000000000000000N
031979031219003000007003TFRANCISCO CANTERLA MARTIN                                                   000000000000000000N
031979031219010000007010TEDUARDO FERNANDEZ CONTIOSO                                                  000000000000000000N
031979031219019000007019TJOSE MEDINA GUERRERO                                                        000000000000000000N
031979031219005000020005TJOSE MARIA CASTELLANO ROMERO                                                000000000000000000N
031979031219028000020028TLUIS TARACIDO GONZALEZ DE LEMA                                              000000000000000000N
031979031219001000024001TJUAN BARBA ROBLES                                                           000000000000000000N
031979031219004000024004TMANUEL CARRASCO MARTIN                                                      000000000000000000N
031979031219009000024009TJUAN MARIA DIAZ LAZO                                                        000000000000000000N
031979031219011000032011TMANUEL FERNANDEZ PORTELA                                                    000000000000000000N
031979031219022000032022TANTONIO RIVERA QUINTERO                                                     000000000000000000N
031979031219025000032025TJESUS SANCHEZ ANDRADA                                                       000000000000000000N
031979031219002000038002TREMEDIOS BLANCO TINOCO                                                      000000000000000000N
031979031219008000038008TNICOLAS CHAPARRO GONZALEZ                                                   000000000000000000N
031979031219012000038012TRICARDO GALLEGO PAJARES                                                     000000000000000000N
031979031219007000051007TMARIANO CORREA GONZALEZ                                                     000000000000000000N
031979031219024000051024TMANUEL RUIZ QUINTERO                                                        000000000000000000N
031979031219026000051026TFRANCISCO SANCHEZ DIAZ                                                      000000000000000000N
031979031219013000056013TANTONIO S. GARCIA CORREA                                                    000000000000000000S
031979031219016000056016TJOSE GONZALEZ GASTAÑAGA                                                     000000000000000000S
031979031219020000056020TJAIME MONTANER ROSELLO                                                      000000000000000000N
031979031219014000062014TJOSE LUIS GARCIA PALACIOS                                                   000000000000000000S
031979031219023000062023TJOSE FRANCISCO RODRIGUEZ NUÑEZ                                              000000000000000000N
031979031219027000062027TEMILIANO SANZ ESCALERA                                                      000000000000000000S
031979031219015000066015TELEUTERIO GOMEZ SANCHEZ                                                     000000000000000000N
031979031219021000066021TANTONIO PACHECO FERNANDEZ                                                   000000000000000000N
031979031219006000067006TANTONIO CERERO MACIAS                                                       000000000000000000N
031979031219017000067017TRAFAEL GONZALEZ IBAÑEZ                                                      000000000000000000N
031979031219018000071018TJOSE MARIA JIMENEZ CASANOVA                                                 000000000000000000N
031979031239003000007003TMANUEL CARRASCOSA BEDMAR                                                    000000000000000000N
031979031239006000007006TANTONIO CORDOBA NAVARRO                                                     000000000000000000N
031979031239014000007014TMANUEL MARCOS ARENAS                                                        000000000000000000N
031979031239022000020022TFRANCISCO SANCHEZ GONZALEZ                                                  000000000000000000N
031979031239001000038001TMANUEL ANGUITA PERAGON                                                      000000000000000000N
031979031239009000038009TESTEBAN FLORES TERUEL                                                       000000000000000000N
031979031239013000038013TJOSE MARIA LOPEZ MARTINEZ                                                   000000000000000000N
031979031239007000045007TMIGUEL CHAMORRO CAMPOS                                                      000000000000000000N
031979031239012000051012TMANUEL LEON LOPEZ                                                           000000000000000000N
031979031239018000051018TANTONIO ORTEGA GARCIA                                                       000000000000000000N
031979031239021000051021TMANUEL RODRIGUEZ ALVAREZ                                                    000000000000000000N
031979031239004000056004TMIGUEL COBO MARTIN                                                          000000000000000000S
031979031239017000056017TANTONIO OJEDA ESCOBAR                                                       000000000000000000S
031979031239024000056024TJUAN ZARRIAS JAREÑO                                                         000000000000000000S
031979031239002000062002TFERNANDO ARENAS DEL BUEY                                                    000000000000000000S
031979031239011000062011TLUIS GEA COBO                                                               000000000000000000N
031979031239023000062023TFRANCISCO SANCHEZ MARTINEZ                                                  000000000000000000N
031979031239008000066008TJOSE MANUEL FERNANDEZ RUIZ                                                  000000000000000000N
031979031239015000066015TJUAN ANGEL MEGIAS MEDINA                                                    000000000000000000N
031979031239020000066020TFERNANDO PEÑA GAMEZ                                                         000000000000000000N
031979031239005000067005TMELCHOR COBO ORTA                                                           000000000000000000N
031979031239016000067016TEDUARDO MORENO MARTINEZ                                                     000000000000000000N
031979031239019000067019TJUAN PASSAS UTRERA                                                          000000000000000000N
031979031239010000071010TJOSE GALLEGO FRIAS                                                          000000000000000000N
031979031299003000007003TMANUEL BLANCO RIOSALIDO                                                     000000000000000000N
031979031299009000007009TANTONIO GAMEZ BURGOS                                                        000000000000000000N
031979031299014000007014TNURIA DE MADARIAGA INIESTA                                                  000000000000000000N
031979031299004000016004TFRANCISCO BUTLER HALTER                                                     000000000000000000N
031979031299005000016005TMANUEL ISIDRO BUTLER HALTER                                                 000000000000000000N
031979031299013000017013TLUIS ALFONSO LOPEZ DIEGUEZ                                                  000000000000000000N
031979031299010000020010TANTONIO GARCIA BORRAJO                                                      000000000000000000N
031979031299012000030012TFUENCISLA GARCIA GARCIA                                                     000000000000000000N
031979031299015000038015TFRANCISCO MANRIQUE GONZALEZ                                                 000000000000000000N
031979031299017000038017TANTONIO NADAL SANCHEZ                                                       000000000000000000N
031979031299021000038021TANTONIO ROMERO RUIZ                                                         000000000000000000N
031979031299018000045018TBUENAVENTURA OLEA PORCEL                                                    000000000000000000N
031979031299001000051001TJOSE MANUEL ACOSTA PEREZ                                                    000000000000000000N
031979031299002000051002TMIGUEL ALCOBENDAS TIRADO                                                    000000000000000000N
031979031299008000051008TMANUEL DIAZ GONZALEZ                                                        000000000000000000N
031979031299011000056011TANTONIO GARCIA DUARTE                                                       000000000000000000S
031979031299019000056019TJUAN PAEZ PAEZ-CAMINO                                                       000000000000000000S
031979031299020000056020TFRANCISCO ROMAN DIAZ                                                        000000000000000000S
031979031299007000062007TCLAUDIO CONDE GALLARDO                                                      000000000000000000N
031979031299022000062022TJOSE SANCHEZ BLANCO                                                         000000000000000000N
031979031299023000062023TFRANCISCO VILLODRES GARCIA                                                  000000000000000000S
031979031299006000071006TFLORIAN CALVO VARGAS                                                        000000000000000000N
031979031299016000073016TEMILIO MORENO HERMOSO                                                       000000000000000000N
031979031419002000007002TANTONIO BAENA JIMENEZ                                                       000000000000000000N
031979031419007000007007TJOSE CAMACHO ALVAREZ                                                        000000000000000000N
031979031419025000007025TDANIEL SANCHEZ-BARRIGA PEÑA                                                 000000000000000000N
031979031419004000016004TFERNANDO BARRANCO RUIZ                                                      000000000000000000N
031979031419011000016011TEMILIA FERNANDEZ MARTIN                                                     000000000000000000N
031979031419014000016014TJORGE FIL LORENZO                                                           000000000000000000N
031979031419017000016017TANTONIO DEL MORAL GARCIA                                                    000000000000000000N
031979031419009000024009TMANUEL CORNEJO VEGA                                                         000000000000000000N
031979031419006000030006TMANUEL BORDALLO ALVAREZ                                                     000000000000000000N
031979031419027000032027TRAMON SOLE DE LA FUENTE                                                     000000000000000000N
031979031419005000038005TMANUEL BENITEZ RUFO                                                         000000000000000000N
031979031419031000038031TIGNACIO VAZQUEZ PARLADE                                                     000000000000000000N
031979031419032000038032TFRANCISCO VELASCO SANCHEZ                                                   000000000000000000N
031979031419024000045024TJUAN RODRIGUEZ NAVARRO                                                      000000000000000000N
031979031419001000051001TJUAN ALVAREZ-OSSORIO BARRAU                                                 000000000000000000N
031979031419018000051018TJOSE LUIS ORTIZ NUEVO                                                       000000000000000000N
031979031419022000051022TENRIQUE AUGUSTO ROBLES CLAVIJO                                              000000000000000000N
031979031419012000056012TJOSE PLACIDO FERNANDEZ VIAGAS                                               000000000000000000S
031979031419023000056023TJOSE RODRIGUEZ DE LA BORBOLLA CAMOYAN                                       000000000000000000S
031979031419029000056029TMANUEL DEL VALLE AREVALO                                                    000000000000000000S
031979031419008000057008TVENTURA CASTELLO HERNANDEZ                                                  000000000000000000N
031979031419013000062013TMANUEL FOMBUENA ESCUDERO                                                    000000000000000000S
031979031419015000062015TGINES LOPEZ-CIRERA VILLALBA                                                 000000000000000000N
031979031419026000062026TPEDRO LUIS SERRERA CONTRERAS                                                000000000000000000N
031979031419003000067003TALEJANDRO BAEZA SERRANO                                                     000000000000000000N
031979031419016000067016TANGEL MOLINI ESTRADA                                                        000000000000000000N
031979031419019000067019TLEOPOLDO PEREZ CALDERON-CARRION                                             000000000000000000N
031979031419020000067020TMANUEL POLO DE ALFARO                                                       000000000000000000N
031979031419021000071021TEMILIO PUJOL DE LA LLAVE                                                    000000000000000000N
031979031419028000071028TFERNANDO SOLER CANTOS                                                       000000000000000000N
031979031419030000071030TPEDRO LUIS  VAZQUEZ GARCIA                                                  000000000000000000N
031979031419010000074010TMIGUEL ANGEL DESCALZO REYMUNDO                                              000000000000000000N
031979031229006000007006TJESUS BENITO RAMON                                                          000000000000000000N
031979031229014000007014TPEDRO GOMEZ MOMPART                                                         000000000000000000N
031979031229017000007017TLUIS MONSON BELLOSTAS                                                       000000000000000000N
031979031229004000016004TENRIQUE DE LA BARRERA ARRIOLA                                               000000000000000000N
031979031229013000016013TALBERTO RAMON GARCIA BIELSA                                                 000000000000000000N
031979031229020000016020TDOMINGO PEREZ SOTO                                                          000000000000000000N
031979031229007000018007TPASCUAL CALVETE HERNANDEZ                                                   000000000000000000N
031979031229021000018021TJOSE MARIA PORTOLES CADENAS                                                 000000000000000000N
031979031229008000020008TJOAQUIN COLL CLAVERO                                                        000000000000000000N
031979031229022000020022TMIGUEL ANGEL SANCHEZ ALVAREZ                                                000000000000000000N
031979031229016000026016TALICIA FRANCISCA MAS ARRONDO                                                000000000000000000N
031979031229001000038001TSIXTO LUIS AGUDO GONZALEZ                                                   000000000000000000N
031979031229009000038009TVICENTE MANUEL CONTE LABORDA                                                000000000000000000N
031979031229018000038018TFRANCISCO JAVIER MORILLO MILLERA                                            000000000000000000N
031979031229023000052023TRAFAEL SOLA AZCARATE                                                        000000000000000000N
031979031229002000056002TFERNANDO BAEZA MARTOS                                                       000000000000000000S
031979031229005000056005TFRANCISCO BELTRAN ODRI                                                      000000000000000000N
031979031229025000056025TANGEL VALLES SIMELIO                                                        000000000000000000N
031979031229012000057012TFELIPE JOSE GABIÑA GONZALEZ                                                 000000000000000000N
031979031229003000062003TALBERTO BALLARIN MARCIAL                                                    000000000000000000S
031979031229010000062010TMANUEL FABREGAS GINE                                                        000000000000000000S
031979031229024000062024TMANUEL TISAIRE BUIL                                                         000000000000000000S
031979031229011000067011TRAMON FONTANA ABAD                                                          000000000000000000N
031979031229019000067019TJOSE ORTEGA POLO                                                            000000000000000000N
031979031229015000075015TFERNANDO LAZARO GARCIA                                                      000000000000000000N
031979031449004000007004TFRANCISCO CERRADA LABARGA                                                   000000000000000000N
031979031449009000007009TFERNANDO DE LATORRE JASA                                                    000000000000000000N
031979031449018000007018TANTONIO SERRANO CLIMENTE                                                    000000000000000000N
031979031449015000036015TFIDEL-ALEJOS PUIG IZQUIERDO                                                 000000000000000000N
031979031449003000038003TCLEMENTE CASTELLOT PRENDES                                                  000000000000000000N
031979031449013000038013TIGNACIO NAVARRO ASUN                                                        000000000000000000N
031979031449005000052005TLUIS GAY MOLINS                                                             000000000000000000N
031979031449017000052017TFRANCISCO JAVIER SAÑUDO BLASCO                                              000000000000000000N
031979031449007000056007TISIDRO GUIA MATEO                                                           000000000000000000S
031979031449014000056014TMARIA SOLEDAD NAVARRO PRATSAVALL                                            000000000000000000N
031979031449016000056016TVICENTE SANCHEZ SANCHEZ                                                     000000000000000000N
031979031449002000062002TJOSE ANGEL BIEL RIVERA                                                      000000000000000000S
031979031449006000062006TANTONIO GIMENO LAHOZ                                                        000000000000000000S
031979031449011000062011TMANUEL MAGALLON CELMA                                                       000000000000000000S
031979031449001000067001TSANTIAGO ALBESA BAYOD                                                       000000000000000000N
031979031449008000067008TSERAFIN HERRERO FIDALGO                                                     000000000000000000N
031979031449010000067010TJORGE DE LATORRE JASA                                                       000000000000000000N
031979031449012000076012TTERESA MUÑOZ MUÑOZ                                                          000000000000000000N
031979031509009000007009TENRIQUE CUADRADO OLIETE                                                     000000000000000000N
031979031509031000007031TANTONIO SOPEÑA MARCO                                                        000000000000000000N
031979031509033000007033TMANUEL VITORIA GARCES                                                       000000000000000000N
031979031509001000017001TCARLOS ALONSO GONZALEZ                                                      000000000000000000N
031979031509002000020002TCONSTANTINO ALVAREZ DIEZ                                                    000000000000000000N
031979031509003000020003TALEJANDRO GONZALO ARILLA ARILLA                                             000000000000000000N
031979031509020000020020TJOSE LUIS MANZANERO RIVILLOS                                                000000000000000000N
031979031509013000026013TMERCEDES GALLIZO LLAMAS                                                     000000000000000000N
031979031509016000032016TFERNANDO GIMENO MARIN                                                       000000000000000000N
031979031509018000035018TEMILIA HUGUET BAROJA                                                        000000000000000000N
031979031509029000035029TJUAN JOSE SANZ JARQUE                                                       000000000000000000N
031979031509035000035035TISAIAS ZARAZAGA BURILLO                                                     000000000000000000N
031979031509007000038007TGONZALO MAXIMO BORRAS GUALIS                                                000000000000000000N
031979031509010000038010TJESUS DELGADO ECHEVARRIA                                                    000000000000000000N
031979031509034000038034TLUIS YRACHE ESTEBAN                                                         000000000000000000N
031979031509011000052011TPILAR DELGADO NAVARRO                                                       000000000000000000N
031979031509012000052012TEDITH DUFOUR DE LATRE                                                       000000000000000000N
031979031509028000052028TCARLOS SANCHEZ MURILLO                                                      000000000000000000N
031979031509005000056005TJOSE ANTONIO BIESCAS FERRER                                                 000000000000000000S
031979031509015000056015TJAIME GASPAR AURIA                                                          000000000000000000N
031979031509027000056027TRAMON SAINZ DE VARANDA Y JIMENEZ DE LA IGLESIA                              000000000000000000N
031979031509008000057008TJULIO BOSQUED CUCALON                                                       000000000000000000N
031979031509030000057030TFRANCISCO SIMON ULLATE                                                      000000000000000000N
031979031509006000062006TJUAN ANTONIO BOLEA FORADADA                                                 000000000000000000S
031979031509017000062017TFERNANDO HERREIZ MURUZABAL                                                  000000000000000000S
031979031509023000062023TJOSE LUIS MORENO PEREZ-CABELLERO                                            000000000000000000S
031979031509021000066021TRAFAEL MARTIN GARCIA                                                        000000000000000000N
031979031509024000066024TENRIUQE OCEN ZUÑIGA                                                         000000000000000000N
031979031509032000066032TMANUEL PEREZ VILLARROYA                                                     000000000000000000N
031979031509004000067004TFRANCISCO AZNAREZ DELPLAN                                                   000000000000000000N
031979031509019000067019TMARTIN IBARRA FRANCO                                                        000000000000000000N
031979031509026000067026TSERAPIO DEL RIO ORTEGA                                                      000000000000000000N
031979031509014000075014TJOSE ANTONIO GARCIA CHARLES                                                 000000000000000000N
031979031509022000075022TMARIANO MERINA SALAZAR                                                      000000000000000000N
031979031509025000075025TPEDRO PIBERNAT DEULOFEU                                                     000000000000000000N
031979031339015000007015TJUAN ELADIO LLANEZA FERNANDEZ                                               000000000000000000N
031979031339016000007016TSERGIO MARQUEZ FERNANDEZ                                                    000000000000000000N
031979031339025000007025TROMAN SUAREZ BLANCO                                                         000000000000000000N
031979031339010000011010TMANUEL ANGEL GONZALEZ ZAPICO                                                000000000000000000N
031979031339002000016002TCONCEPCION ALVAREZ LOBATO                                                   000000000000000000N
031979031339004000016004TMARIA DEL AMPARO CARREÑO DIAZ                                               000000000000000000N
031979031339018000016018TLUIS MOLLEDA ALVAREZ                                                        000000000000000000N
031979031339011000018011TJULIAN FRANCISCO HERROJO RODRIGUEZ                                          000000000000000000N
031979031339017000018017TJOSE ANTONIO MESA GARCIA                                                    000000000000000000N
031979031339009000020009TJORGE LUIS GARCIA PALACIOS                                                  000000000000000000N
031979031339003000026003TJOSE MANUEL BOLADO GARCIA                                                   000000000000000000N
031979031339012000038012TSILVINO LANTERO VALLINA                                                     000000000000000000N
031979031339020000038020TMANUEL NEVADO MADRID                                                        000000000000000000N
031979031339027000038027TCARLOS SUAREZ NIETO                                                         000000000000000000N
031979031339001000040001TANITA ALDEANO BRASAS                                                        000000000000000000N
031979031339024000040024TJUAN JOSE DE LA ROZ CONCHA                                                  000000000000000000N
031979031339026000040026TPEDRO SUAREZ GARCIA                                                         000000000000000000N
031979031339005000056005THONORIO DIAZ DIAZ                                                           000000000000000000S
031979031339007000056007TRAFAEL LUIS FERNANDEZ ALVAREZ                                               000000000000000000S
031979031339019000056019TFERNANDO MORAN LOPEZ                                                        000000000000000000S
031979031339008000057008TJUSTO JOSE GARCIA MENENDEZ                                                  000000000000000000N
031979031339014000062014TENRIQUE LOPEZ GONZALEZ                                                      000000000000000000S
031979031339021000062021TCELESTINO DE NICOLAS PRIETO                                                 000000000000000000N
031979031339023000062023TLUIS RIERA POSADA                                                           000000000000000000N
031979031339006000067006TALEJANDRO FELGUEROSO RUIZ DE LA PEÑA                                        000000000000000000N
031979031339013000067013TLUIS LOPEZ-SELA DIAZ-FAES                                                   000000000000000000N
031979031339022000067022TMARIA LUISA DE NORIEGA Y VEGA                                               000000000000000000N
031979031071003000007003TDAMIAN BARCELO OBRADOR                                                      000000000000000000N
031979031071009000007009TJOSE MARIA LAFUENTE LOPEZ                                                   000000000000000000N
031979031071019000026019TJESUS VIVAS GONZALEZ                                                        000000000000000000N
031979031071005000036005TDAMIAN CONTESTI SASTRE                                                      000000000000000000N
031979031071008000036008TJOAQUIN GUAL DE TORRELLA TRUYOLS                                            000000000000000000N
031979031071015000038015TVICTORI PLANELLS LAVILLA                                                    000000000000000000N
031979031071018000038018TJOSE DE VILCHEZ CARRERAS                                                    000000000000000000N
031979031071012000056012TGREGORIO MIR MAYOL                                                          000000000000000000S
031979031071013000056013TMIGUEL OLIVER MASSUTI                                                       000000000000000000N
031979031071001000062001TJERONIMO ALBERTI PICORNELL                                                  000000000000000000S
031979031071020000062020TJOSE ZAFORTEZA CALVET                                                       000000000000000000S
031979031071004000066004TRAMON CAÑABATE MESAS                                                        000000000000000000N
031979031071006000066006TANTONIO FERRER COSTA                                                        000000000000000000N
031979031071010000066010TFELIPE MARTINEZ FERNANDEZ                                                   000000000000000000N
031979031071002000067002TANDRES ARDID SANCHEZ                                                        000000000000000000N
031979031071011000067011TGABRIEL MATEU MAIRATA                                                       000000000000000000N
031979031071016000077016TDAMIAN PONS PONS                                                            000000000000000000N
031979031071017000077017TSEBASTIAN SERRA BUSQUETS                                                    000000000000000000N
031979031071014000078014TSOTERO ORTIZ LEAL                                                           000000000000000000N
031979031071007000079007TMARIA LUISA FRIAS AZUARA                                                    000000000000000000N
031979031072001000007001TJOSE ALLES Y SERRA                                                          000000000000000000N
031979031072003000062003TFRANCISCO TUTZO BENNASAR                                                    000000000000000000N
031979031072002000080002TTIRSO PONS PONS                                                             000000000000000000S
031979031073004000007004TABEL MATUTES JUAN                                                           000000000000000000S
031979031073005000045005TGUILLERMO TUELLS RIQUER                                                     000000000000000000N
031979031073003000062003TJUAN MARI TUR                                                               000000000000000000N
031979031073001000067001TANTONIO FERRER JUAN                                                         000000000000000000N
031979031073002000081002TISIDOR MARI MAYANS                                                          000000000000000000N
031979031351001000005001TGONZALO ANGULO GONZALEZ                                                     000000000000000000N
031979031351006000005006TARCADIO DIAZ TEJERA                                                         000000000000000000N
031979031351003000007003TENRIQUE BLANCO TORRENT                                                      000000000000000000N
031979031351009000007009TLUIS LEON FERNANDEZ                                                         000000000000000000N
031979031351018000032018TCARLOS SUAREZ CABRERA                                                       000000000000000000N
031979031351008000038008TANTONIO GONZALEZ VIEITEZ                                                    000000000000000000N
031979031351014000038014TFELIPE MARTOS BUENO                                                         000000000000000000N
031979031351002000056002TCARMELO ARTILES BOLAÑOS                                                     000000000000000000N
031979031351007000056007TSALVADOR GARCIA CARRILLO                                                    000000000000000000N
031979031351013000062013TRAFAEL MARTIN HERNANDEZ                                                     000000000000000000S
031979031351015000062015TJUAN QUESADA LOPEZ                                                          000000000000000000S
031979031351019000062019TGREGORIO TOLEDO RODRIGUEZ                                                   000000000000000000S
031979031351004000066004TMANUEL CORONET DARIAS                                                       000000000000000000N
031979031351016000066016TMIGUEL RAMIREZ SANTANA                                                      000000000000000000N
031979031351017000066017TJOSE J. SARMIENTO HERNANDEZ                                                 000000000000000000N
031979031351005000067005TATILANO DE LA TORRE GRANADOS                                                000000000000000000N
031979031351011000067011TMARIA VICTORIA MARCO DE LINARES                                             000000000000000000N
031979031351010000082010TJUAN LEON SUAREZ                                                            000000000000000000N
031979031351012000082012TJUAN MARRERO PORTUGUES                                                      000000000000000000N
031979031352004000005004TANTONIO FELIX MARTIN HORMIGA                                                000000000000000000N
031979031352002000007002TEUFRONIO DIMAS GARCIA MONFORTE                                              000000000000000000N
031979031352003000038003TMANUEL GONZALEZ BARRERA                                                     000000000000000000N
031979031352005000056005TMANUEL MEDINA ORTEGA                                                        000000000000000000N
031979031352006000062006TRAFAEL STINGA GONZALEZ                                                      000000000000000000S
031979031352001000083001TFERNANDO DOMINGO CURBELO FERNANDEZ                                          000000000000000000N
031979031353002000007002TJOSE FRANCISCO JORGE MACHIN                                                 000000000000000000N
031979031353003000056003TMANUEL HERNANDEZ HIERRO                                                     000000000000000000N
031979031353004000062004TMIGUEL SANCHEZ VELAZQUEZ                                                    000000000000000000S
031979031353001000084001TMIGUEL CABRERA CABRERA                                                      000000000000000000N
031979031384006000005006TFELIX CASANOVA DE AYALA                                                     000000000000000000N
031979031384010000005010TJESUS CESAR RODRIGUEZ PLACERES                                              000000000000000000N
031979031384008000007008TRAMON L. GONZALEZ DE MESA MACHADO                                           000000000000000000N
031979031384013000007013TJOSE MIGUEL CEROLO DAVIDSON                                                 000000000000000000N
031979031384004000038004TJUAN ASCANIO GARCIA                                                         000000000000000000N
031979031384007000038007TEDUARDO ESPADA DONES                                                        000000000000000000N
031979031384003000056003TALBERTO DE ARMAS GARCIA                                                     000000000000000000S
031979031384009000056009TJESUS ILLADA QUINTERO                                                       000000000000000000N
031979031384001000062001TVICENTE ALVAREZ PEDREIRA                                                    000000000000000000S
031979031384012000062012TALFONSO SORIANO BENITEZ DE LUGO                                             000000000000000000S
031979031384002000067002TARTURO ARMADA VERNETTA                                                      000000000000000000N
031979031384005000085005TJUAN CABRERA PEREZ                                                          000000000000000000N
031979031384011000085011TDOMINGO SALAS LLADO                                                         000000000000000000N
031979031385001000007001TMANUEL BETHENCOURT MORALES                                                  000000000000000000N
031979031385006000038006TJOSE BLADIMIRO RODRIGUEZ BRITO                                              000000000000000000N
031979031385005000056005TRAMON RAMOS PEREZ                                                           000000000000000000N
031979031385002000062002TACENK ALEJANDRO GALVAN GONZALEZ                                             000000000000000000S
031979031385004000067004TMANUEL PEREIRA-GARCIA Y FELIPE                                              000000000000000000N
031979031385003000085003TJOSE MORALES GALINDO                                                        000000000000000000N
031979031386006000005006TFRANCISCO ISIDRO VERA SANTOS                                                000000000000000000N
031979031386004000007004TLUCIANO LEMUS IZQUIERDO                                                     000000000000000000N
031979031386002000038002TMANUEL BENITO HERRERA MESA                                                  000000000000000000N
031979031386003000056003TRAMON JEREZ HERRERA                                                         000000000000000000N
031979031386001000062001TCARLOS MANUEL BENCOMO MENDOZA                                               000000000000000000S
031979031386005000085005TFERNANDO PADILLA MIRANDA                                                    000000000000000000N
031979031387004000007004TCANDIDO MAGDALENO CRUZ                                                      000000000000000000N
031979031387001000038001TAURELIO AYALA FONTE                                                         000000000000000000N
031979031387003000056003TMANUEL HERNANDEZ QUINTERO                                                   000000000000000000N
031979031387005000062005TFEDERICO PADRON PADRON                                                      000000000000000000S
031979031387002000067002TRAMON FEBLES CASTAÑEDA                                                      000000000000000000N
031979031399006000007006TANGEL DIAZ DE ENTRESOTOS MIER                                               000000000000000000N
031979031399010000007010TJOSE MARIANO GONZALEZ-TARRIO GALLEGO                                        000000000000000000N
031979031399017000007017TJOSE LUIS DEL PIÑAL RUIZ DE HIUDOBRO                                        000000000000000000N
031979031399001000016001TBLANCA ALVAREZ FERNANDEZ                                                    000000000000000000N
031979031399004000016004TJOSEFA CASANUEVA MACHO                                                      000000000000000000N
031979031399016000016016TLUCIA OÑATE MATIENZO                                                        000000000000000000N
031979031399024000016024TMANUEL DARIO SETIEN PEREZ DE LA TORRE                                       000000000000000000N
031979031399007000018007TANGEL DIAZ ACEJO                                                            000000000000000000N
031979031399028000018028TANGEL JULIO JOSE DE VEGA DOMINGUEZ                                          000000000000000000N
031979031399018000038018TMANUEL ROBA CRESPO                                                          000000000000000000N
031979031399020000038020TAURELIO RUIZ DIORREGO                                                       000000000000000000N
031979031399023000038023TEDUARDO SAIZ LEÑERO                                                         000000000000000000N
031979031399005000045005TJUAN ANTONIO DIAZ LOPEZ                                                     000000000000000000N
031979031399009000056009TMARIO GARCIA-OLIVA PEREZ V                                                  000000000000000000S
031979031399014000056014TANGEL MADARIAGA DE LA CAMPA                                                 000000000000000000N
031979031399025000056025TMANUEL TEIRA FERNANDEZ                                                      000000000000000000N
031979031399026000060026TISABEL TEJERINA LOBO                                                        000000000000000000N
031979031399003000062003TAMBROSIO CALZADA HERNANDEZ                                                  000000000000000000S
031979031399022000062022TROBERTO SAEZ GONZALEZ                                                       000000000000000000S
031979031399027000062027TLEANDRO VALLE GONZALEZ-TORRE                                                000000000000000000S
031979031399008000066008TJULIO LUIS FERNANDEZ MIER                                                   000000000000000000N
031979031399013000066013TCARLOS MARIA DE LUIS GARCIA-MONTOTO                                         000000000000000000N
031979031399019000066019TJULIO RUBIO MALLO                                                           000000000000000000N
031979031399011000067011TELENA MARIA GONZALEZ TRUEBA                                                 000000000000000000N
031979031399021000067021TJOSE SAEZ CARRASCO                                                          000000000000000000N
031979031399002000086002TRAMON ARIAS AZPIAZU                                                         000000000000000000N
031979031399012000086012TBENITO HUERTA ARGENTA                                                       000000000000000000N
031979031399015000086015TEDUARDO OBREGON BARREDA                                                     000000000000000000N
031979031029003000007003TJOSE MARIA BLANC GARRIDO                                                    000000000000000000N
031979031029012000007012TGUMERSINDO NAVARRO ALFARO                                                   000000000000000000N
031979031029017000007017TJOSE VILANA ALAMA                                                           000000000000000000N
031979031029018000017018TJOSE YUSTE VAZQUEZ                                                          000000000000000000N
031979031029001000036001TFRANCISCO DE PAULA ALEGRE MORENO                                            000000000000000000N
031979031029002000036002TBALBINA AZORIN DEL REY                                                      000000000000000000N
031979031029004000038004TPEDRO BOLIVAR REVERTE                                                       000000000000000000N
031979031029005000038005TLUIS FERNANDO COLLADO GARCIA                                                000000000000000000N
031979031029007000038007TJOSE GOMEZ URREA                                                            000000000000000000N
031979031029006000056006TJUAN FRANCISCO DELGADO RUIZ                                                 000000000000000000S
031979031029013000056013TANDRES JOSE PICAZO GONZALEZ                                                 000000000000000000S
031979031029016000056016TVIRGINO SANCHEZ BARBERAN                                                    000000000000000000N
031979031029011000057011TPAULINO MORENO CORCOLES                                                     000000000000000000N
031979031029010000060010TANGEL VICENTE LEAL GONZALEZ-ALEJA                                           000000000000000000N
031979031029014000060014TVICTORINO RUIZ FERNANDEZ                                                    000000000000000000N
031979031029008000062008TPEDRO FRANCISCO GUTIERREZ PULIDO                                            000000000000000000N
031979031029009000062009TJOSE HERRERO ARCAS                                                          000000000000000000S
031979031029015000062015TFRANCISCO RUIZ RISUEÑO                                                      000000000000000000S
031979031139001000007001TFELIPE ALARCON FERNANDEZ                                                    000000000000000000N
031979031139005000007005TFRANCISCO CAÑIZARES DE LERA                                                 000000000000000000N
031979031139018000007018TDOMINGO TRIGUERO EXPOSITO                                                   000000000000000000N
031979031139007000038007TJUAN ESTEVEZ DELGADO                                                        000000000000000000N
031979031139012000038012TRAMON PARRA QUEVEDO                                                         000000000000000000N
031979031139015000038015TISABEL ANA RODRIGUEZ BLANCO                                                 000000000000000000N
031979031139003000056003TROGELIO BORRAS SERRA                                                        000000000000000000S
031979031139010000056010TCIPRIANO MORALES LIÑAN                                                      000000000000000000N
031979031139013000056013TJAVIER PAULINO PEREZ                                                        000000000000000000S
031979031139006000060006TANGEL CARRASCO GONZALEZ                                                     000000000000000000N
031979031139011000060011TJOSE RAMON NIEVES GARCIA                                                    000000000000000000N
031979031139017000060017TANTONIO SANCHEZ TOLEDO MUÑOZ                                                000000000000000000N
031979031139004000062004TCARLOS CALATAYUD MALDONADO                                                  000000000000000000S
031979031139014000062014TCECILIA RAPOSO LLOBET                                                       000000000000000000S
031979031139016000062016TMIGUEL SANCHEZ BUSTOS                                                       000000000000000000N
031979031139002000067002TLUIS BELMONTE CUARTERO                                                      000000000000000000N
031979031139008000067008TMANUEL GARCIA MARIN                                                         000000000000000000N
031979031139009000067009TJOSE GONZALEZ LARA                                                          000000000000000000N
031979031169001000007001TJUAN DE DIOS ALVAREZ MENDIZABAL DE LA VEGA                                  000000000000000000N
031979031169005000007005TMIGUEL BAÑON ALBACETE                                                       000000000000000000N
031979031169015000007015TPABLO PAÑOS MARTI                                                           000000000000000000N
031979031169006000016006TJULIO COBO FERNANDEZ                                                        000000000000000000N
031979031169009000016009TJESUS FERNANDEZ MARTINEZ                                                    000000000000000000N
031979031169016000016016TNICOLAS POVEDA PEÑAS                                                        000000000000000000N
031979031169021000016021TJOAQUINA VALIENTE PEREZ                                                     000000000000000000N
031979031169004000038004TJUAN ANTONIO ARRANZ HERNANDO                                                000000000000000000N
031979031169003000056003TFRANCISCO ARIAS SOLIS                                                       000000000000000000N
031979031169011000056011TRAFAEL MATAS CUELLAR                                                        000000000000000000N
031979031169012000056012TAMALIA MIRANZOS MARTINEZ                                                    000000000000000000S
031979031169007000062007TCARLOS CLEMENTE TORRIJOS                                                    000000000000000000S
031979031169014000062014TCONSTANTINO PALOMINO DE LUCAS                                               000000000000000000S
031979031169017000062017TMANUEL SEVILLA CORELLA                                                      000000000000000000S
031979031169020000062020TSIRO TORRECILLA SOTOCA                                                      000000000000000000N
031979031169008000066008TJULIAN DIAZ SAN JULIAN                                                      000000000000000000N
031979031169018000066018TMIGUEL ANGEL TEJEDA DE VALENCIA                                             000000000000000000N
031979031169019000066019TJUAN JOSE TORRALBA MUÑOZ                                                    000000000000000000N
031979031169002000067002TRAFAEL ARAQUE PEREZ                                                         000000000000000000N
031979031169010000067010TANDRES GARCIA HERNAIZ                                                       000000000000000000N
031979031169013000067013TEMILIO OJEDA LAZARO                                                         000000000000000000N
031979031199002000007002TANDRES BUENO ABASCAL                                                        000000000000000000N
031979031199003000007003TFELIX CALVO ORTEGA                                                          000000000000000000N
031979031199020000007020TCARLOS TORRES MARTINEZ                                                      000000000000000000N
031979031199007000016007TJOSE MARIA FERNANDEZ SEGURA                                                 000000000000000000N
031979031199009000016009TJUAN JACINTO HIGUERAS DE VALLEJO                                            000000000000000000N
031979031199018000016018TLUIS ALFONSO SAN MARTIN DOMINGUEZ                                           000000000000000000N
031979031199023000018023TNARCISO PERALES RODRIGUEZ DE VIGURI                                         000000000000000000N
031979031199014000030014TMARIA ISABEL RETUERTA MORANCHEL                                             000000000000000000N
031979031199008000038008TFRANCISCO JAVIER GARCIA BREVA                                               000000000000000000N
031979031199012000038012TCATALINA MAÑALICH CASAMADA                                                  000000000000000000N
031979031199015000038015TANTONIO RICO NIÑO                                                           000000000000000000N
031979031199011000045011TJOSE JODAR RODRIGUEZ                                                        000000000000000000N
031979031199010000056010TFRANCISCO JAVIER DE IRIZAR ORTEGA                                           000000000000000000S
031979031199017000056017TJESUS SALAS BERBEGAL                                                        000000000000000000N
031979031199021000056021TALFONSO TRILLO HERNANDO                                                     000000000000000000N
031979031199004000057004TRAFAEL ESCALERA ESPARZA                                                     000000000000000000N
031979031199019000057019TSOLEDAD SERRANO ROJO                                                        000000000000000000N
031979031199005000062005TJESUS ESTRINGANA MINGUEZ                                                    000000000000000000S
031979031199006000062006TANTONIO FERNANDEZ-GALIANO FERNANDEZ                                         000000000000000000S
031979031199016000062016TFELICIANO ROMAN RUIZ                                                        000000000000000000S
031979031199001000067001TGONZALO ANDRADAS DEL CASTILLO                                               000000000000000000N
031979031199013000067013TJOSE MARIA NIN DE CARDONA SANCHEZ                                           000000000000000000N
031979031199022000067022TJOSE RAMON VALCARCEL PEREZ                                                  000000000000000000N
031979031459016000002016TLUIS RODRIGUEZ Y OLIVER                                                     000000000000000000N
031979031459002000007002TJOSE EUGENIO DEL CASTILLO Y GARCIA                                          000000000000000000N
031979031459007000007007TARTURO GARCIA-TIZON Y LOPEZ                                                 000000000000000000N
031979031459019000007019TJAIME SUAREZ Y ALVAREZ                                                      000000000000000000N
031979031459004000038004TJOSE MARIA DIAZ-ROPERO Y OLIVARES                                           000000000000000000N
031979031459006000038006TANGEL DORADO Y BADILLO                                                      000000000000000000N
031979031459014000038014TOVIDIO ORGANERO Y VILLAJOS                                                  000000000000000000N
031979031459015000045015TJOSE PEÑA Y GONZALEZ                                                        000000000000000000N
031979031459005000056005TMANUEL LUCIO DIAZ-MARTA Y PINILLA                                           000000000000000000S
031979031459017000056017TJERONIMO ROS Y CAMPILLO                                                     000000000000000000N
031979031459020000056020TPABLO TELLO Y DIAZ                                                          000000000000000000N
031979031459008000057008TANTONIO GOMEZ DE ZAMORA Y GONZALEZ                                          000000000000000000N
031979031459011000057011TFELIPE LOPEZ Y AZPIRI                                                       000000000000000000N
031979031459013000057013TAMADEO MONDEJAR Y SAINZ                                                     000000000000000000N
031979031459012000060012TMANUEL LOPEZ Y GONZALEZ                                                     000000000000000000N
031979031459009000062009TJUAN GONZALEZ Y SERRANO                                                     000000000000000000S
031979031459018000062018TLEOPOLDO SEPULVEDA Y MUÑOZ                                                  000000000000000000S
031979031459021000062021TMARIA JESUS TORRES Y FERNANDEZ                                              000000000000000000S
031979031459001000067001TRAFAEL CARRASCO MARTINEZ                                                    000000000000000000N
031979031459003000067003TMARIA TERESA CORROCHANO Y SERRANO                                           000000000000000000N
031979031459010000067010TJESUS LABORDA Y MARTINEZ-POZO                                               000000000000000000N
031979031059010000007010TRAUL RUIZ FUENTES                                                           000000000000000000N
031979031059014000007014TJOSE A. VACA DE OSMA Y ESTEBAN DE LA REGUERA                                000000000000000000N
031979031059016000007016TCLEMENTE VICENTE GARCIA                                                     000000000000000000N
031979031059017000018017TMATIAS VIDAL AGUDO                                                          000000000000000000N
031979031059004000026004TJESUS MARIA CORNEJO CARRILLO                                                000000000000000000N
031979031059007000038007TANASTASIO MARTINEZ SAGUAR                                                   000000000000000000N
031979031059008000038008TCARLOS REVIEJO HERNANDEZ                                                    000000000000000000N
031979031059015000038015TMAURICIO VELAYOS FRAILE                                                     000000000000000000N
031979031059009000045009TMARIA DEL CARMEN ROMERO JIMENEZ                                             000000000000000000N
031979031059003000056003TJOSE FEDERICO DE CARVAJAL PEREZ                                             000000000000000000N
031979031059006000056006TMAXIMO IGLESIAS ELVIRA                                                      000000000000000000N
031979031059012000056012TJOSE SEGOVIA PEREZ                                                          000000000000000000N
031979031059001000062001TJESUS BARDERAS REVIEJO                                                      000000000000000000S
031979031059005000062005TALBERTO MANUEL DORREGO GONZALEZ                                             000000000000000000S
031979031059011000062011TJOSE IGNACIO SANCHEZ SANCHEZ                                                000000000000000000S
031979031059013000067013TJOSE LUIS DEL TORO SAN JUAN                                                 000000000000000000N
031979031059002000087002TVICENTE BOSQUE HITA                                                         000000000000000000S
031979031099012000007012TLESMES PEÑA HURTADO                                                         000000000000000000N
031979031099015000007015TFELIX PEREZ PEREZ                                                           000000000000000000N
031979031099018000007018TBONIFACIO RUIZ MARTINEZ                                                     000000000000000000N
031979031099003000026003TJULIAN CAMARERO DE LA TORRE                                                 000000000000000000N
031979031099007000032007TJOSE ANTONIO GONZALEZ GOMEZ                                                 000000000000000000N
031979031099002000038002TJUAN FRANCISCO BONILLA ENCINA                                               000000000000000000N
031979031099010000038010TJOSE ANTONIO LOPEZ VALVERDE                                                 000000000000000000N
031979031099020000038020TFRANCISCO UBIERNA UBIERNA                                                   000000000000000000N
031979031099001000045001TFLORENCIO BENITO GIL                                                        000000000000000000N
031979031099014000050014TSANTIAGO PEREZ MENDEZ                                                       000000000000000000N
031979031099009000056009TJUAN JOSE LABORDA MARTIN                                                    000000000000000000S
031979031099016000056016TLEOPOLDO QUEVEDO ROJO                                                       000000000000000000N
031979031099019000056019TMARIA JESUS TALAMILLO GARCIA                                                000000000000000000N
031979031099017000060017TMARIA DEL CARMEN-INMACULADA RIAÑO GOMEZ                                     000000000000000000N
031979031099004000062004TPEDRO CARAZO CARNICERO                                                      000000000000000000S
031979031099006000062006TJOSE MANUEL GARCIA-VERDUGO CANDON                                           000000000000000000S
031979031099011000062011TMARIANO LOSA QUINTANA                                                       000000000000000000S
031979031099005000067005TTOMAS GAMARRA ALCALDE                                                       000000000000000000N
031979031099008000067008TVALENTIN JUNCO CALDERON                                                     000000000000000000N
031979031099013000067013TCASTO PEREZ DE AREVALO BURGUETE                                             000000000000000000N
031979031249002000002002TJOSE VENANCIO ALVAREZ FERNANDEZ                                             000000000000000000N
031979031249011000007011TMIGUEL FIGUEIRA LOURO                                                       000000000000000000N
031979031249017000007017TTOMAS GONZALEZ CUBERO                                                       000000000000000000N
031979031249024000007024TALFONSO PRIETO PRIETO                                                       000000000000000000N
031979031249010000016010TARMANDO FERNANDEZ VILLABRILLE BLANCO                                        000000000000000000N
031979031249021000016021TJOSE LUIS MOLLEDA ALONSO                                                    000000000000000000N
031979031249026000016026TMARIA NIEVES DE LA VENTA NICIEZA                                            000000000000000000N
031979031249016000018016TELENA GOMEZ BUSTOS                                                          000000000000000000N
031979031249006000020006TTOMAS CARANDE DOMINGUEZ                                                     000000000000000000N
031979031249009000020009TFERNANDO CORTEGUERA FERNANDEZ                                               000000000000000000N
031979031249015000020015TATAULFO GARCIA RODRIGUEZ                                                    000000000000000000N
031979031249014000038014TJOSE LUIS GARCIA HERRERO                                                    000000000000000000N
031979031249025000038025TCESAR ROA MARCO                                                             000000000000000000N
031979031249027000038027TANGEL VILLA PRIETO                                                          000000000000000000N
031979031249001000045001TJOSE MARIA ALONSO COBOS                                                     000000000000000000N
031979031249008000050008TCIPRIANO CITORES RECIO                                                      000000000000000000N
031979031249022000050022TGERMAN ANTONIO MUELAS GUTIERREZ                                             000000000000000000N
031979031249007000056007TELADIO CASTRO URIA                                                          000000000000000000S
031979031249018000056018TCELSO LOPEZ GAVELA                                                          000000000000000000N
031979031249019000056019TDIONISIO LLAMAZARES FERNANDEZ                                               000000000000000000N
031979031249003000060003TJOSE MARIA ARRIBAS  MACHO                                                   000000000000000000N
031979031249004000062004TJUSTINO AZCARATE FLOREZ                                                     000000000000000000S
031979031249020000062020TEMILIO MARTIN VILLA                                                         000000000000000000S
031979031249023000062023TUBALDO NIETO DE ALBA                                                        000000000000000000S
031979031249005000067005TPEDRO BARRIOS TRONCOSO                                                      000000000000000000N
031979031249012000067012TALBERTO MATIAS GARCIA ALVAREZ                                               000000000000000000N
031979031249013000067013TANGEL GARCIA CORDERO                                                        000000000000000000N
031979031349002000007002TERADIO ALONSO DEL CAMPO                                                     000000000000000000N
031979031349014000007014TALVARO INCLAN ALONSO                                                        000000000000000000N
031979031349003000016003TLUIS ALONSO ROPERO                                                          000000000000000000N
031979031349016000016016TMARIA ISABEL LORENZO MONTALBAN                                              000000000000000000N
031979031349022000016022TSANTIAGO ANTONIO VILLEGAS ORTIZ DE LA TORRE                                 000000000000000000N
031979031349020000020020TJOSE MANUEL LOPEZ LECUNA                                                    000000000000000000N
031979031349012000038012TFRANCISCO JAVIER J. ANTONIO HERNANDEZ GARCIA                                000000000000000000N
031979031349017000038017TPEDRO MARTIN GARCIA                                                         000000000000000000N
031979031349019000038019TAMBROSIO ORTEGA ALONSO                                                      000000000000000000N
031979031349004000045004TCATALINA ALVAREZ ROBLES                                                     000000000000000000N
031979031349005000050005TLUIS BAZACO GUTIERREZ                                                       000000000000000000N
031979031349008000050008TSIXTO CAÑO PEREZ                                                            000000000000000000N
031979031349021000050021TPRUDENCIO RAMOS GUTIERREZ                                                   000000000000000000N
031979031349006000056006TANGEL BENITEZ MORO                                                          000000000000000000S
031979031349009000056009TJAIME CORTES FERNANDEZ                                                      000000000000000000N
031979031349011000056011TVICENTE GUTIERREZ PASCUAL                                                   000000000000000000N
031979031349013000060013TGLORIA DE LOS HOYOS GUTIERREZ                                               000000000000000000N
031979031349001000062001TJOSE LUIS ALONSO ALMODOVAR                                                  000000000000000000S
031979031349010000062010TJUAN CARLOS GUERRA ZUNZUNEGUI                                               000000000000000000S
031979031349015000062015TJOSE LUIS LOPEZ HENARES                                                     000000000000000000S
031979031349007000067007TJOSE RAMON BLANCO MERINO                                                    000000000000000000N
031979031349018000067018TFRANCISCO MOLINA SALAS                                                      000000000000000000N
031979031379003000007003TMARINO DAVILA-AVILA YAGUE                                                   000000000000000000N
031979031379008000007008TFRANCISCO V. GARCIA HERNANDEZ                                               000000000000000000N
031979031379012000007012TFELIPE GONZALEZ HIDALGO                                                     000000000000000000N
031979031379025000008025TTOMAS VELASCO JIMENEZ                                                       000000000000000000N
031979031379001000016001TJOSE ANTONIO AUSET GONZALEZ                                                 000000000000000000N
031979031379006000016006TFRANCISCO JAVIER FERNANDEZ HERMIDA                                          000000000000000000N
031979031379007000016007TMARIA LUISA GARCIA APARICIO                                                 000000000000000000N
031979031379010000038010TINOCENCIO GARCIA VELASCO                                                    000000000000000000N
031979031379017000038017TJOSE NUÑEZ LARRAZ                                                           000000000000000000N
031979031379023000038023TEMILIO TOME ARGUESO                                                         000000000000000000N
031979031379021000045021TJAVIER M. SEDANO PEREZ                                                      000000000000000000N
031979031379013000056013TJOSE LUIS GONZALEZ MARCOS                                                   000000000000000000S
031979031379016000056016TJUAN JOSE MELERO MARCOS                                                     000000000000000000N
031979031379018000056018TLUIS PINEDO ALARCON                                                         000000000000000000N
031979031379014000060014TJOSE MANUEL LORENZO HUERTA                                                  000000000000000000N
031979031379004000062004TMANUEL DELGADO SANCHEZ-ARJONA                                               000000000000000000S
031979031379009000062009TVIDAL GARCIA TABERNERO ORIVE                                                000000000000000000S
031979031379020000062020TJOSE LUIS SANCHEZ TORRES                                                    000000000000000000S
031979031379002000066002TJOSE MANUEL DE CASTRO ALMAZAN                                               000000000000000000N
031979031379005000066005TBENITO ECHEVARRIA AZCARATE                                                  000000000000000000N
031979031379011000066011TMANUEL GONZALEZ DIAZ                                                        000000000000000000N
031979031379019000067019TMANUEL RODRIGUEZ MARTIN                                                     000000000000000000N
031979031379022000067022TJESUS TELLEZ RIVAS                                                          000000000000000000N
031979031379024000067024TELIAS VALENCIA SERRANO                                                      000000000000000000N
031979031379015000088015TJOSE LUIS MARTIN RODRIGUEZ                                                  000000000000000000N
031979031409001000007001TJOAQUIN DE ALBA CARMONA                                                     000000000000000000N
031979031409002000016002TMARIA JESUS ALENDA MARTIN                                                   000000000000000000N
031979031409010000016010TJOSE LORENZO GARCIA FERNANDEZ                                               000000000000000000N
031979031409015000016015TJAVIER ONRUBIA REVUELTA                                                     000000000000000000N
031979031409020000016020TJUAN SANMARTIN DOMINGUEZ                                                    000000000000000000N
031979031409011000018011TNIEVES HERRANZ FERNANDEZ                                                    000000000000000000N
031979031409016000018016TFERNANDO PEREZ ALCARAZO                                                     000000000000000000N
031979031409018000026018TAURELIO QUINTANILLA FISAC                                                   000000000000000000N
031979031409005000038005TNICOLAS BERZAL ENCINAS                                                      000000000000000000N
031979031409007000038007TREGINO CASADO SUBTIL                                                        000000000000000000N
031979031409013000038013TJOSE LUIS NIETO CICUENDEZ                                                   000000000000000000N
031979031409003000045003TJOSE PEDRO ALVARO HERRERO                                                   000000000000000000N
031979031409009000050009TPABLO GARCIA BERNAL                                                         000000000000000000N
031979031409012000050012TJOSE LOPEZ BAYON                                                            000000000000000000N
031979031409021000050021TOSCAR SANTOS MANSO                                                          000000000000000000N
031979031409004000056004TSANTIAGO BALLESTEROS DE RODRIGO                                             000000000000000000S
031979031409006000056006TJESUS SANTIAGO BRAVO SOLANA                                                 000000000000000000N
031979031409017000056017TJOSE ANTONIO PEREZ GALLEGO                                                  000000000000000000N
031979031409014000062014TJULIO NIEVES BORREGO                                                        000000000000000000S
031979031409019000062019TLUCIANO SANCHEZ REUS                                                        000000000000000000S
031979031409022000062022TEMILIO ZAMARRIEGO MONEDERO                                                  000000000000000000S
031979031409008000067008TMARIA DEL CARMEN DIAZ GARRIDO                                               000000000000000000N
031979031429015000007015TPABLO LUIS VELILLA ALCUBILLA                                                000000000000000000N
031979031429014000026014TRAMON SEVILLANO CALVO                                                       000000000000000000N
031979031429001000045001TFELIZ ARENSE MEDINA                                                         000000000000000000N
031979031429004000056004TJUAN CASCANTE CABRERIZO                                                     000000000000000000N
031979031429009000056009TGREGORIO HERRERO BALSA                                                      000000000000000000N
031979031429011000056011TLORENZO LORENZO LERMA                                                       000000000000000000N
031979031429006000062006TMIGUEL GARCIA FUENTES                                                       000000000000000000N
031979031429007000062007TJOSE GARCIA LAGUNA                                                          000000000000000000S
031979031429010000062010TALFONSO IGLESIA LODOS                                                       000000000000000000N
031979031429012000067012THORTENSIA MARTINEZ MARTINEZ                                                 000000000000000000N
031979031429013000067013TJULIAN DEL PALACIO SANCHO                                                   000000000000000000N
031979031429016000067016TJESUS MARIA VILLANUEVA RUIZ                                                 000000000000000000N
031979031429002000089002TMIGUEL BORDEJE ANTON                                                        000000000000000000N
031979031429003000090003TJESUS BORQUE GUILLEN                                                        000000000000000000S
031979031429005000091005TRAMIRO CERCOS PEREZ                                                         000000000000000000S
031979031429008000092008TJOSE MARIA GARCIA ROYO                                                      000000000000000000S
031979031479005000007005TJESUS CUETO SESMERO                                                         000000000000000000N
031979031479013000007013TVICENTE GARRIDO CAPA                                                        000000000000000000N
031979031479001000016001TJUAN ANTONIO AGUILAR SANTILLAN                                              000000000000000000N
031979031479002000016002TJOSE FRANCISCO DE LA ARADA SAENZ DE HORMIJANA                               000000000000000000N
031979031479016000016016TJOSE LUIS LOPEZ-POZUELO GARCIA                                              000000000000000000N
031979031479026000016026TMARIANO REDONDO DE LA PAZ                                                   000000000000000000N
031979031479027000016027TMIGUEL ROJO LOPEZ                                                           000000000000000000N
031979031479018000026018TMANUEL LLUSIA NIETO                                                         000000000000000000N
031979031479011000030011TMARIA DEL CARMEN FERNANDEZ DE VELASCO GLEZ.                                 000000000000000000N
031979031479012000034012TSATURNINO GARCIA OVIEDO                                                     000000000000000000N
031979031479007000038007TFELIX MARIO FERNANDEZ CALLEJA                                               000000000000000000N
031979031479008000038008TJAVIER FERNANDEZ GONZALEZ                                                   000000000000000000N
031979031479022000038022TBALBINO NUÑEZ RODRIGUEZ                                                     000000000000000000N
031979031479030000045030TFERNANDO VELASCO FERNANDEZ                                                  000000000000000000N
031979031479019000050019TANGEL MARTIN GOMEZ                                                          000000000000000000N
031979031479024000050024TDEMETRIO PEREZ MENDEZ                                                       000000000000000000N
031979031479031000050031TFELICITO VILLAR LOPEZ                                                       000000000000000000N
031979031479003000056003TJUAN ANTONIO AREVALO SANTIAGO                                               000000000000000000S
031979031479014000056014TCARLOS GONZALEZ MAESTRO                                                     000000000000000000N
031979031479025000056025TANTONIO PEREZ SOLANO                                                        000000000000000000N
031979031479006000062006TLUIS MIGUEL ENCISO RECIO                                                    000000000000000000S
031979031479010000062010TROBERTO FERNANDEZ DE LA REGUERA LAGUNERO                                    000000000000000000S
031979031479028000062028TALEJANDRO ROYO-VILLANOVA PAYA                                               000000000000000000S
031979031479004000066004TJESUS DE LA CAL MEDIAVILLA                                                  000000000000000000N
031979031479015000066015TFERNANDO GUTIERREZ ALVAREZ                                                  000000000000000000N
031979031479017000066017TJOSE ENRIQUE LLERA ALONSO                                                   000000000000000000N
031979031479021000066021TROBERTO MARTINEZ SIERRA                                                     000000000000000000N
031979031479009000067009TJOAQUIN FERNANDEZ PARIS                                                     000000000000000000N
031979031479023000067023TVICENTE OLMEDILLA MUGUIRO                                                   000000000000000000N
031979031479029000067029TJESUS SANCHO GARCIA                                                         000000000000000000N
031979031479020000093020TFRANCISCO MANUEL MARTIN PARRA                                               000000000000000000N
031979031499018000007018TJOSE CARLOS MARTINEZ-CUBELLS CENDRA                                         000000000000000000N
031979031499020000007020TCARLOS PINILLA TURIÑO                                                       000000000000000000S
031979031499026000007026TANTONIO TORANZO GARCIA                                                      000000000000000000N
031979031499009000017009TMIGUEL HEDILLA ROJAS                                                        000000000000000000N
031979031499007000018007TASUNCION GONZALEZ ALMIRANTE                                                 000000000000000000N
031979031499005000026005TVICENTE FERNANDEZ GARCIA                                                    000000000000000000N
031979031499006000038006TAMABLE GARCIA DOMINGUEZ                                                     000000000000000000N
031979031499012000038012TJESUS DE LA IGLESIA MATOS                                                   000000000000000000N
031979031499019000038019TCIPRIANO MARTINEZ LORENZO                                                   000000000000000000N
031979031499002000045002TMODESTO ALONSO PELAYO                                                       000000000000000000N
031979031499025000045025TTOMAS SANTO CORCHERO                                                        000000000000000000N
031979031499027000045027TPAULINO DEL VALLE SOBEJANO                                                  000000000000000000N
031979031499003000050003TFRANCISCO BAZACO LOPEZ                                                      000000000000000000N
031979031499004000050004TAGAPITO FERNANDEZ FERNANDEZ                                                 000000000000000000N
031979031499024000050024TANDRES SAEZ GALINDO                                                         000000000000000000N
031979031499013000056013TLUIS DE LA IGLESIA DE SAN LUIS                                              000000000000000000N
031979031499016000056016TANDRES LUIS CALVO                                                           000000000000000000N
031979031499017000056017TDOMINGO MAÑANES MARQUES                                                     000000000000000000N
031979031499015000062015TONESIMO LOPEZ CHILLON                                                       000000000000000000S
031979031499021000062021TRICARDO RODRIGUEZ CASTAÑON                                                  000000000000000000S
031979031499022000062022TLUIS RODRIGUEZ SAN  LEON                                                    000000000000000000S
031979031499010000066010TDOSITEO HEREDERO LORENZO                                                    000000000000000000N
031979031499011000066011TMANUEL ANGEL DE LA IGLESIA CHILLON                                          000000000000000000N
031979031499023000066023TINOCENCIO RUS MATOS                                                         000000000000000000N
031979031499001000067001TLUIS FELIPE ALONSO LORENZO                                                  000000000000000000N
031979031499008000094008TMARIA INES DE JESUS GUTIERREZ CARBAJAL                                      000000000000000000N
031979031499014000094014TFRANCISCO IGLESIAS CARREÑO                                                  000000000000000000N
031979031089021000003021TENRIC GARRIGA TRULLOLS                                                      000000000000000000N
031979031089023000007023TMIGUEL LINARES RODRIGUEZ                                                    000000000000000000N
031979031089025000007025TMARCELINO DE LLORENS MARTINEZ AYALA                                         000000000000000000N
031979031089026000007026TMARIA ANTONIA MALLEN CLUA                                                   000000000000000000N
031979031089027000007027TJUAN ANTONIO MARAGALL NOBLE                                                 000000000000000000N
031979031089001000010001TJOSEP MARIA AINAUD DE LASARTE                                               000000000000000000N
031979031089010000010010TJOAN CARRERAS MARTI                                                         000000000000000000N
031979031089016000010016TJOSEP ESPAR TICO                                                            000000000000000000N
031979031089024000012024TMARIA CARMEN LLOBET RIVAS                                                   000000000000000000N
031979031089028000012028TPERE MARTI CODINA                                                           000000000000000000N
031979031089032000012032TFRANCESC MONTSERRAT MAS                                                     000000000000000000N
031979031089035000016035TANTONIO PELEGERO BARCELO                                                    000000000000000000N
031979031089018000017018TFRANCISCO BERNARDO GARCIA QUILIS                                            000000000000000000N
031979031089022000017022TANGEL GOMEZ PUERTOLAS                                                       000000000000000000N
031979031089029000017029TADOLFO MARTINEZ RUBIO                                                       000000000000000000N
031979031089020000020020TLUIS SANTIAGO GARCIA VICENTE                                                000000000000000000N
031979031089036000020036TJOSE REAL URRUTIA                                                           000000000000000000N
031979031089043000020043TLUISA XANDRI SEGUES                                                         000000000000000000N
031979031089008000024008TJOSE BORRAS MEDINA                                                          000000000000000000N
031979031089030000024030TMARIA MAGDALENA MATEO PLA                                                   000000000000000000N
031979031089041000024041TMARIA TERESA TURELL JULIA                                                   000000000000000000N
031979031089012000026012TNURIA CASALS PEREZ                                                          000000000000000000N
031979031089031000026031TANGEL FAUSTINO MERINO BENITO                                                000000000000000000N
031979031089040000026040TGUIFRE SERAS LLEONART                                                       000000000000000000N
031979031089019000030019TPEDRO GARCIA SEGURA                                                         000000000000000000N
031979031089034000030034TMARIA OLIVARES USAC                                                         000000000000000000N
031979031089004000032004TROSA MARIA BARCENA LINAJE                                                   000000000000000000N
031979031089002000043002TCESAR ALIAS ORTIN                                                           000000000000000000N
031979031089005000043005TMERCEDES BARRACHINA OSORIO                                                  000000000000000000N
031979031089017000043017TSANTOS FRAILE GALLEGO                                                       000000000000000000N
031979031089007000045007TJOSE BORAU SADO                                                             000000000000000000N
031979031089042000045042TROSENDO VALLS Y VALLS                                                       000000000000000000N
031979031089003000053003TJOSEP ANDREU I ABELLO                                                       000000000000000000S
031979031089013000053013TJOAN CASENELLES I IBARZ                                                     000000000000000000S
031979031089014000053014TALEXANDRE CIRICI I PELLICER                                                 000000000000000000S
031979031089011000062011TJOSEP RAFAEL CARRERA DE NADAL                                               000000000000000000N
031979031089015000062015TCARLOS CUATRECASAS TARGA                                                    000000000000000000N
031979031089033000067033TJOAQUIN DE OLANO Y LOPEZ DE LETONA                                          000000000000000000N
031979031089037000067037TFRANCISCO RUFAS SAURA                                                       000000000000000000N
031979031089039000067039TLIBERTO SENDEROS ARMENGOL                                                   000000000000000000N
031979031089006000095006TJOSEP BENET NORELL                                                          000000000000000000S
031979031089009000095009TFRANCISCO CANDEL TORTAJADA                                                  000000000000000000N
031979031089038000095038TJORGE SABARTES CRUZATE                                                      000000000000000000N
031979031179001000007001TALBERTO AMIEL CALVET                                                        000000000000000000N
031979031179022000007022TJUSTO SANTANA RODRIGUEZ                                                     000000000000000000N
031979031179003000010003TJOSE CAPELLA RIERA                                                          000000000000000000N
031979031179004000010004TJAIME CASADEMONT PERAFITA                                                   000000000000000000S
031979031179019000010019TPERE RIBAS CULUBRET                                                         000000000000000000N
031979031179002000016002TEMILIO ENRIQUE CALVO LAPLANA                                                000000000000000000N
031979031179006000016006TPEDRO CUESTA LOZANO                                                         000000000000000000N
031979031179011000016011TFRANCISCO LUIS LOZANO MORALES                                               000000000000000000N
031979031179016000016016TJUAN PEREZ PINAR                                                            000000000000000000N
031979031179020000024020TMARIA ROSA RIUS CAMPS                                                       000000000000000000N
031979031179005000030005TJORDI CREIXANS SARGATAL                                                     000000000000000000N
031979031179024000045024TELISABETH STRUTH WEISGERBER                                                 000000000000000000N
031979031179009000053009TFRANCESC FERRER GIRONES                                                     000000000000000000S
031979031179018000053018TJOSE RAHOLA DE ESPONA                                                       000000000000000000S
031979031179023000053023TJAIME SOBREQUES CALLICO                                                     000000000000000000S
031979031179007000062007TMAURICIO DURAN GARCIA                                                       000000000000000000N
031979031179010000062010TPEDRO GIRO BRUGUES                                                          000000000000000000N
031979031179014000062014TANA MARIA ORIOL MONCANUT                                                    000000000000000000N
031979031179012000067012TJUAN DE MALIBRAN GELABERT                                                   000000000000000000N
031979031179013000067013TMARTIN MARRO TEIXIDOR                                                       000000000000000000N
031979031179021000067021TDOMINGO SANCHEZ AVELLANA                                                    000000000000000000N
031979031179008000095008TPONC FELIU LLANSA                                                           000000000000000000N
031979031179015000095015TPEDRO DE PALOL SALELLAS                                                     000000000000000000N
031979031179017000095017TPEDRO PORTABELLA RAFOLS                                                     000000000000000000N
031979031179025000096025TJORDI VILANOVA CARDONA                                                      000000000000000000N
031979031259009000006009TMANUEL FERRER PROFITOS                                                      000000000000000000S
031979031259017000006017TJUAN MANUEL NADAL GAYA                                                      000000000000000000S
031979031259019000006019TALFONSO PORTA VILALTA                                                       000000000000000000S
031979031259021000007021TRAMON ROSELL VIVES                                                          000000000000000000N
031979031259024000007024TFRANCISCO SOLE CARULLA                                                      000000000000000000N
031979031259028000007028TAMALIA VIDAL IBARZ                                                          000000000000000000N
031979031259002000010002TFRANCESC XAVIER BADA AMATLLER                                               000000000000000000N
031979031259014000010014TJUAN GRAU SEGARRA                                                           000000000000000000N
031979031259018000010018TJOSE PALAU SEGARRA                                                          000000000000000000N
031979031259013000014013TJORDI GRAU I GRATACOS                                                       000000000000000000N
031979031259001000016001TJOSE AMIGO GOMEZ                                                            000000000000000000N
031979031259007000016007TVICENTE CUETO RUIZ DE ADANA                                                 000000000000000000N
031979031259026000016026TJOSE ANTONIO SOLIS NACARINO                                                 000000000000000000N
