041987061490275000063021TJOSE SANCHEZ CABRERO                                                        000000000000000000N
041987061490275000063022TMANUEL MARTIN PORRIS                                                        000000000000000000N
041987061490275000063023TMARIA JESUS GAGO VICENTE                                                    000000000000000000N
041987061490275000063024TFERMIN RODRIGUEZ LOZANO                                                     000000000000000000N
041987061490275000063025TNARCISO ISIDRO SANTOS POZA                                                  000000000000000000N
041987061080015000002001TJORGE CALVET SANCHEZ                                                        000000000000000000N
041987061080015000002002TJOSE MARIA GALVAN MARTIN                                                    000000000000000000N
041987061080015000002003TVICTORIA MAYO LLUIS                                                         000000000000000000N
041987061080015000002004TPASCUAL MOLINA TORA                                                         000000000000000000N
041987061080015000002005TJOSE MARIA ALSINA VALLS                                                     000000000000000000N
041987061080015000002006TFELIPE CATEURA ALVAREZ                                                      000000000000000000N
041987061080015000002007TJUAN CARLOS DUARTE CAMPOY                                                   000000000000000000N
041987061080015000002008TPEDRO MORLAN LOPEZ                                                          000000000000000000N
041987061080015000002009TROSA MARIA MONGAY MARTI                                                     000000000000000000N
041987061080015000002010TJAVIER GARCIA ALBIOL                                                        000000000000000000N
041987061080015000002011TROSA ROS PEIDRO                                                             000000000000000000N
041987061080015000002012TJOSE IGUAL LLOSCOS                                                          000000000000000000N
041987061080015000002013TPEDRO MOLINA TORA                                                           000000000000000000N
041987061080015000002014TANTONIO BUENO DIAZ                                                          000000000000000000N
041987061080015000002015TFRANCISCO COSTA CONTRERAS                                                   000000000000000000N
041987061080015000002016TCARLOS RODRIGUEZ MARTINEZ                                                   000000000000000000N
041987061080015000002017TFELIX MORAL GARCIA                                                          000000000000000000N
041987061080015000002018TFRANCISCO VAZQUEZ ROBLES                                                    000000000000000000N
041987061080015000002019TJACINTO FURQUET TUDELA                                                      000000000000000000N
041987061080015000002020TANGEL SILVESTRE CABEZA                                                      000000000000000000N
041987061080015000002021TVENANCIO NAVARRO PERAL                                                      000000000000000000N
041987061080015000002022TCARLOS PADILLA GARCIA                                                       000000000000000000N
041987061080015000002023TJESUS ALVAREZ TORRES                                                        000000000000000000N
041987061080015000002024TJACINTO TERUEL ADAN                                                         000000000000000000N
041987061080015000002025TRAFAEL RODRIGUEZ LUCENA                                                     000000000000000000N
041987061080015000002026TMARIA DOLORES DE ANTONIO ANTONIO                                            000000000000000000N
041987061080015000002027TFRANCISCO GONZALEZ AMOR                                                     000000000000000000N
041987061080015000003001TSALVADOR ALCARAZ PUCHADES                                                   000000000000000000N
041987061080015000003002TPEDRO CUESTA PARRAGA                                                        000000000000000000N
041987061080015000003003TMANUEL TOLEDO MARTINEZ                                                      000000000000000000N
041987061080015000003004TADORACION VALLESPIN SANCHEZ                                                 000000000000000000N
041987061080015000003005TRAMON NAVARRO TERRONES                                                      000000000000000000N
041987061080015000003006TENRIQUE LOPEZ CARRILLO                                                      000000000000000000N
041987061080015000003007TPABLO CARAVES CERRATO                                                       000000000000000000N
041987061080015000003008TALFONSO ABRIL GRACIA                                                        000000000000000000N
041987061080015000003009TVICENTE PUCHADES MARTINEZ                                                   000000000000000000N
041987061080015000003010TMANUEL RODRIGUEZ GUIRAO                                                     000000000000000000N
041987061080015000003011TDOLORES RODRIGUEZ ARRENDONDO                                                000000000000000000N
041987061080015000003012TCATALINA ROSALES MOLINA                                                     000000000000000000N
041987061080015000003013TTERESA GONZALEZ BLANCO                                                      000000000000000000N
041987061080015000003014TSEGUNDO ALONSO JIMENEZ                                                      000000000000000000N
041987061080015000003015TVICTORINO JORGE IBAÑEZ DOÑATE                                               000000000000000000N
041987061080015000003016TJUAN HURTADO ARJONA                                                         000000000000000000N
041987061080015000003017TAMADOR CONDE CONDE                                                          000000000000000000N
041987061080015000003018TFRANCISCO MAESTRE DOMINGUEZ                                                 000000000000000000N
041987061080015000003019TAURELIO ORTEGA VILLENA                                                      000000000000000000N
041987061080015000003020TDOMINGO VILLANUEVA VICIEN                                                   000000000000000000N
041987061080015000003021TROSA MARIA GONZALEZ RUIZ                                                    000000000000000000N
041987061080015000003022TANTONIO CARAVES CERRATO                                                     000000000000000000N
041987061080015000003023TFELIPE RODRIGUEZ CARRILLO                                                   000000000000000000N
041987061080015000003024TJUAN JOSE MOLINA ABELLAN                                                    000000000000000000N
041987061080015000003025TMARIANA EGEA PALOMINO                                                       000000000000000000N
041987061080015000003026TMARIA ENCARNACION GARCIA CAZORLA                                            000000000000000000N
041987061080015000003027TJUAN MANUEL PUGA LOPEZ                                                      000000000000000000N
041987061080015000010001TMARCEL RIERA BOU                                                            000000000000000000S
041987061080015000010002TVALENTI SALLAS CAMPMANY                                                     000000000000000000S
041987061080015000010003TANDRES PONSIRENAS MARTORELL                                                 000000000000000000S
041987061080015000010004TCARMEN PADROS GALERA                                                        000000000000000000S
041987061080015000010005TJUAN FERRER LLOBET                                                          000000000000000000N
041987061080015000010006TJOSEP PERA COLOME                                                           000000000000000000N
041987061080015000010007TFRANCESC XAVIER CANALS ROMERO                                               000000000000000000N
041987061080015000010008TESTHER MELLADO BARBERAN                                                     000000000000000000N
041987061080015000010009TFELICIANO SEBASTIAN MARTIN                                                  000000000000000000N
041987061080015000010010TMIGUEL TUDELA GIBERT                                                        000000000000000000N
041987061080015000010011TJUAN CANALS BOIX                                                            000000000000000000N
041987061080015000010012TJOSE ALONSO MONTES                                                          000000000000000000N
041987061080015000010013TJOAQUIN COLOME TRESSERRAS                                                   000000000000000000N
041987061080015000010014TJOSE DOMENECH RUZAFA                                                        000000000000000000N
041987061080015000010015TJAIME VENTURA ROVIRA                                                        000000000000000000N
041987061080015000010016TMERITXELL JUAN SEGARRA                                                      000000000000000000N
041987061080015000010017TJOSEP BALLESTEROS ESPAÑOL                                                   000000000000000000N
041987061080015000010018TMARIA DEL CARMEN VALLS SIRERA                                               000000000000000000N
041987061080015000010019TMARCEL FORNS BERHARDT                                                       000000000000000000N
041987061080015000010020TNURIA BARBERAN VILTRO                                                       000000000000000000N
041987061080015000010021TSALVADOR VALLDAURA VILA                                                     000000000000000000N
041987061080015000010022TJOSE OLIANA RECTORET                                                        000000000000000000N
041987061080015000010023TJOAN PAGES BARRIGA                                                          000000000000000000N
041987061080015000010024TFRANCESC PERA GRANE                                                         000000000000000000N
041987061080015000010025TJUAN MONES XIOL                                                             000000000000000000N
041987061080015000010026TSALVADOR LLIBRE ANGULO                                                      000000000000000000N
041987061080015000010027TJOSEP SERRA ALOY                                                            000000000000000000N
041987061080015000012001TRAMON BILBENY I RUIZ                                                        000000000000000000N
041987061080015000012002TJOAN GRIFOL I TRAMUNS                                                       000000000000000000N
041987061080015000012003TMONTSERRAT ROVIRA I GUARDIOLA                                               000000000000000000N
041987061080015000012004TFERRAN FALCO I ISERN                                                        000000000000000000N
041987061080015000012005TJOSEP MAS I RIUS                                                            000000000000000000N
041987061080015000012006TMONTSERRAT PRAT I MARESMA                                                   000000000000000000N
041987061080015000012007TJOSEP GIL I GOMEZ                                                           000000000000000000N
041987061080015000012008TESTHER JOSE I SABIOTE                                                       000000000000000000N
041987061080015000012009TJOAN BACARISAS I TEIXIDO                                                    000000000000000000N
041987061080015000012010TURBA RODRIGUEZ I COSTA                                                      000000000000000000N
041987061080015000012011TMARIA BORNIQUEL I MANZANAS                                                  000000000000000000N
041987061080015000012012TCARME ALVAREZ I CARRANZA                                                    000000000000000000N
041987061080015000012013TFRANCESC SANCHEZ I NACHE                                                    000000000000000000N
041987061080015000012014TADRIA SOLER I ESCOLA                                                        000000000000000000N
041987061080015000012015TJORDI ROSSELL I CUIXART                                                     000000000000000000N
041987061080015000012016TROGER VILLALMANZO I FERRAN                                                  000000000000000000N
041987061080015000012017TGLORIA BENEYTO I PELLICER                                                   000000000000000000N
041987061080015000012018TJORDI ALEMANY I JOAQUIMA                                                    000000000000000000N
041987061080015000012019TJOAN MONYART I VILA                                                         000000000000000000N
041987061080015000012020TRICARD CASELLAS I FONTSERRE                                                 000000000000000000N
041987061080015000012021TJOSEP RODES I MORE                                                          000000000000000000N
041987061080015000012022TMARIA CARME ROSES I ROVIRA                                                  000000000000000000N
041987061080015000012023TJORDI JOAQUINA I MARIA                                                      000000000000000000N
041987061080015000012024TJORDI SALA I PARRA                                                          000000000000000000N
041987061080015000012025TJOSEP TAFUNELL I PERULLES                                                   000000000000000000N
041987061080015000012026TGABRIEL SABATE I GALISTEO                                                   000000000000000000N
041987061080015000012027TMARIA TERESA VILA I SANVICENS                                               000000000000000000N
041987061080015000019001TRAFAEL VACAS ROLDAN                                                         000000000000000000N
041987061080015000019002TJORGE XIOL MARTIN                                                           000000000000000000N
041987061080015000019003TJOSE VALENZUELA BALDAN                                                      000000000000000000N
041987061080015000019004TJUAN MARTINEZ PAEZ                                                          000000000000000000N
041987061080015000019005TMANUEL AVILA LOMAS                                                          000000000000000000N
041987061080015000019006TTRINIDAD GONZALEZ FERNANDEZ                                                 000000000000000000N
041987061080015000019007TMANUEL FERRER PEREZ                                                         000000000000000000N
041987061080015000019008TARMANDO PEÑATO BERGA                                                        000000000000000000N
041987061080015000019009TJORGE SARDA FERRER                                                          000000000000000000N
041987061080015000019010TJUAN GOMEZ CARDONA                                                          000000000000000000N
041987061080015000019011TENCARNACION GRANADOS QUINTANA                                               000000000000000000N
041987061080015000019012TMARIA DEL CARMEN CARAVALLO SORIANO                                          000000000000000000N
041987061080015000019013TANTONIO SANCHEZ LIRIA                                                       000000000000000000N
041987061080015000019014TJOSE VICENTE AGUILAR BERTOLIN                                               000000000000000000N
041987061080015000019015TTERESA GONZALEZ FERNANDEZ                                                   000000000000000000N
041987061080015000019016TJUAN TORRES FERNANDEZ                                                       000000000000000000N
041987061080015000019017TBAUTISTA LOPEZ QUESADA                                                      000000000000000000N
041987061080015000019018TJUAN ANTONIO SEVILLA SANCHEZ                                                000000000000000000N
041987061080015000019019TJUAN AMENGUAL MATAS                                                         000000000000000000N
041987061080015000019020TMANUEL SEVILLANO SANCHEZ                                                    000000000000000000N
041987061080015000019021TMARIA ANGELA LLUCH ISERN                                                    000000000000000000N
041987061080015000019022TTOMAS RIVERA CANELA                                                         000000000000000000N
041987061080015000019023TLAURA MARTINEZ GONZALEZ                                                     000000000000000000N
041987061080015000019024TCARMEN LOPEZ MELLADO                                                        000000000000000000N
041987061080015000019025TJOSE PRIETO EXPOSITO                                                        000000000000000000N
041987061080015000019026TJOAQUIN LOPEZ ALMANSA                                                       000000000000000000N
041987061080015000019027TROMAN BERMEJO ROMERO                                                        000000000000000000N
041987061080015000023001TJUAN MANUEL RUIZ FERNANDEZ                                                  000000000000000000N
041987061080015000023002TMATEO SILES PARRILLA                                                        000000000000000000N
041987061080015000023003TJOSE SANAHUJA QUERALT                                                       000000000000000000N
041987061080015000023004TISABEL BALART PUENTE                                                        000000000000000000N
041987061080015000023005TENRIC CAPSETA RIBAS                                                         000000000000000000N
041987061080015000023006TFERNANDO ABOS CARRERAS                                                      000000000000000000N
041987061080015000023007TVENANCIO ADELANTADO ORERO                                                   000000000000000000N
041987061080015000023008TELISA ISABEL PEREZ RUIZ                                                     000000000000000000N
041987061080015000023009TJUAN GARCIA GARCIA                                                          000000000000000000N
041987061080015000023010TFRANCISCO MUÑOZ NAVARRO                                                     000000000000000000N
041987061080015000023011TMANUEL MARTIN FERNANDEZ                                                     000000000000000000N
041987061080015000023012TJUAN FELIX MACIAS GONZALEZ                                                  000000000000000000N
041987061080015000023013TJORDI SERRA FLOTATS                                                         000000000000000000N
041987061080015000023014TGERARDO VEGA VEGA                                                           000000000000000000N
041987061080015000023015TRAMON MONTON SERRANO                                                        000000000000000000N
041987061080015000023016TANTONIO CATALAN RUIZ                                                        000000000000000000N
041987061080015000023017TMARIA DEL CARMEN JUST CALPE                                                 000000000000000000N
041987061080015000023018TALBERTO OLIVENCIA CHICHARRO                                                 000000000000000000N
041987061080015000023019TFRANCISCO FONDON MAROCO                                                     000000000000000000N
041987061080015000023020TJUAN SABATE MAS                                                             000000000000000000N
041987061080015000023021TMARIA ELSA RIVEIRO DORADO                                                   000000000000000000N
041987061080015000023022TMANUEL PRADO PRIEGO                                                         000000000000000000N
041987061080015000023023TALBERTO GILI ALEMANY                                                        000000000000000000N
041987061080015000023024TELVIRA BORDAS MARTINEZ                                                      000000000000000000N
041987061080015000023025TDOLORES VIOR ORTIZ                                                          000000000000000000N
041987061080015000023026TMANUEL GIMENEZ MARTINEZ                                                     000000000000000000N
041987061080015000023027TMIGUEL ANGEL MARTINEZ FERNANDEZ                                             000000000000000000N
041987061080015000026001TJUAN BLANCH RODRIGUEZ                                                       000000000000000000S
041987061080015000026002TJUAN FELIPE RUIZ SABIDO                                                     000000000000000000S
041987061080015000026003TDESIDERIO LEON MARTINEZ                                                     000000000000000000S
041987061080015000026004TCIPRIANO LOPEZ VIEGAS                                                       000000000000000000S
041987061080015000026005TMARIA TERESA ARQUE FERRER                                                   000000000000000000S
041987061080015000026006TEDUARD TORTAJADA MOLINA                                                     000000000000000000S
041987061340120000001001THELIODORO GALLEGO CUESTA                                                    000000000000000000S
041987061340120000001002TRAUL-AURELIANO RUIZ CORTES                                                  000000000000000000S
041987061340120000001003TANGEL DONIS HUSILLOS                                                        000000000000000000S
041987061340120000001004TJULIO VILLARRUBIA MEDIAVILLA                                                000000000000000000S
041987061340120000001005TPEDRO GONZALEZ DE PRADO                                                     000000000000000000S
041987061340120000001006TMARIA PILAR MARCOS CLAVERO                                                  000000000000000000S
041987061340120000001007TJAIME HERRERO MORO                                                          000000000000000000S
041987061340120000001008TJOSE MARIA CRESPO LORENZO                                                   000000000000000000S
041987061340120000001009TCARMELO ROSALES GONZALEZ                                                    000000000000000000S
041987061340120000001010TCELSO MELLADO SANTAMARIA                                                    000000000000000000N
041987061340120000001011TMARIA DEL CARMEN MERINO MEDINA                                              000000000000000000N
041987061340120000001012TENRIQUE DE GUZMAN MATAIX                                                    000000000000000000N
041987061340120000001013TJOSE LUIS GARCIA ANTOLIN                                                    000000000000000000N
041987061340120000001014TMANUEL MARZOA GALAN                                                         000000000000000000N
041987061340120000001015TMARIA DEL PILAR RASILLO RODRIGUEZ                                           000000000000000000N
041987061340120000001016TJOSE PLACER MORENCIA                                                        000000000000000000N
041987061340120000001017TMARIA ANGELES FERRER PEDREJON                                               000000000000000000N
041987061340120000001018TJAIME CORTES FERNANDEZ                                                      000000000000000000N
041987061340120000001019TJESUS DIEZ VALLEJO                                                          000000000000000000N
041987061340120000001020TLUIS MATEO RODRIGUEZ                                                        000000000000000000N
041987061340120000001021TRAQUEL GARCIA MACHO                                                         000000000000000000N
041987061340120000001022TALFONSO GIL INVERNON                                                        000000000000000000N
041987061340120000001023TLUIS CARLOS MARTINEZ RODRIGUEZ                                              000000000000000000N
041987061340120000001024TGRACIANO MONEDERO RIBOTE                                                    000000000000000000N
041987061340120000001025TMARIA BEGOÑA NUÑEZ DIEZ                                                     000000000000000000N
041987061340120000002001TGERARDO CISNEROS MATIA                                                      000000000000000000S
041987061340120000002002TJESUS MAÑUECO ALONSO                                                        000000000000000000S
041987061340120000002003TANTONIO ENCINA LOSADA                                                       000000000000000000S
041987061340120000002004TSONIA-LUISA LALANDA SANMIGUEL                                               000000000000000000S
041987061340120000002005TALBERTO PEREZ VILLAR                                                        000000000000000000S
041987061080015000026007TMARIA DEL PILAR CANTERO ARAGON                                              000000000000000000S
041987061080015000026008TJOSE HERRERO GARCIA                                                         000000000000000000S
041987061080015000026009TENRIQUE FLO CODINA                                                          000000000000000000S
041987061080015000026010TFERRAN BELLO HERNAIZ                                                        000000000000000000S
041987061080015000026011TFRANCISCO PEREZ DE TUDELA GUTIERREZ                                         000000000000000000S
041987061080015000026012TPEDRO VALVERDE GARCIA                                                       000000000000000000S
041987061080015000026013TMANUEL RODRIGUEZ MIRALLES                                                   000000000000000000S
041987061080015000026014TFRANCISCO JOSE LOPEZ GUARDIOLA                                              000000000000000000N
041987061080015000026015TEDELMIRO SANCHO PEREZ                                                       000000000000000000N
041987061080015000026016TROSER CASTILLO PEREZ                                                        000000000000000000N
041987061080015000026017TLUIS PAPAZZONI PRADES                                                       000000000000000000N
041987061080015000026018TMANUEL LOPEZ SOLIS                                                          000000000000000000N
041987061080015000026019TINMACULADA VIOLANT NICOLAU                                                  000000000000000000N
041987061080015000026020TMANUEL PIÑERO GUIMERA                                                       000000000000000000N
041987061080015000026021TEVENCIO DE LOS AIRES ROE                                                    000000000000000000N
041987061080015000026022TFRANCESC PLANAS COMES                                                       000000000000000000N
041987061080015000026023TMARIA OVIDIA JIMENEZ GARCIA                                                 000000000000000000N
041987061080015000026024TJOSE ANTONIO MAHINDO MUÑOZ                                                  000000000000000000N
041987061080015000026025TJOSE GUZMAN LOPEZ                                                           000000000000000000N
041987061080015000026026TPEDRO RUZAFA FERNANDEZ                                                      000000000000000000N
041987061080015000026027TJUAN GUERRERO SAEZ                                                          000000000000000000N
041987061080015000038001TAURELIO MARTINEZ TERUEL                                                     000000000000000000N
041987061080015000038002TMANUEL GARCIA FERNANDEZ                                                     000000000000000000N
041987061080015000038003TRAUL GUSTAVO ROMERO SALAZAR                                                 000000000000000000N
041987061080015000038004TANTONIA MARTINEZ TERUEL                                                     000000000000000000N
041987061080015000038005TROSENDO URDEITX JORDI                                                       000000000000000000N
041987061080015000038006TELOINA CANO MOYA                                                            000000000000000000N
041987061080015000038007TTERESA MARTINEZ TERUEL                                                      000000000000000000N
041987061080015000038008TMARIA ROSA ROJAS INIESTA                                                    000000000000000000N
041987061080015000038009TMARIO CASADO CASAÑAS                                                        000000000000000000N
041987061080015000038010TEULALIA COLOMER PUJOL                                                       000000000000000000N
041987061080015000038011TMARIA DOLORES GALLEGO ALVAREZ                                               000000000000000000N
041987061080015000038012TPABLO PARRALEJO JIMENEZ                                                     000000000000000000N
041987061080015000038013TMARIA LUISA DUQUE CANALS                                                    000000000000000000N
041987061080015000038014TJUANA GARCIA JURADO                                                         000000000000000000N
041987061080015000038015TANTONIA RUIZ CERRATO                                                        000000000000000000N
041987061080015000038016TMARGARITA SOLE GUSANO                                                       000000000000000000N
041987061080015000038017TJOSE ANTONIO HINOJOSA                                                       000000000000000000N
041987061080015000038018TMANUEL RAMOS ALCARAZ                                                        000000000000000000N
041987061080015000038019TOSCAR OROVAL MARTINEZ                                                       000000000000000000N
041987061080015000038020TALBERTO PEREZ BEA                                                           000000000000000000N
041987061080015000038021TMARIA ISABEL MIGUEL FRIAS                                                   000000000000000000N
041987061080015000038022TRICARDO GREGORIO RODRIGUEZ RODRIGUEZ                                        000000000000000000N
041987061080015000038023TFELIX ROJA MOYA                                                             000000000000000000N
041987061080015000038024TMIGUEL ROJANO CANTERO                                                       000000000000000000N
041987061080015000038025TDOLORES MARTINEZ TERUEL                                                     000000000000000000N
041987061080015000038026TJOSE MARIA PUERTAS GORRIZ                                                   000000000000000000N
041987061080015000038027TJORGE ENRIQUE SAMA SAENZ DE PABLO                                           000000000000000000N
041987061080015000147001TMARIUS DIAZ I BIELSA                                                        000000000000000000S
041987061080015000147002TMANUEL ARMENTERO MOLINA                                                     000000000000000000S
041987061080015000147003TLUISA LONGAS BERNAT                                                         000000000000000000S
041987061080015000147004TCARLES SAGUES I BAIXERAS                                                    000000000000000000S
041987061080015000147005TPEDRO JESUS FERNANDEZ MARTINEZ                                              000000000000000000S
041987061080015000147006TJULIO MOLINA BARTHE                                                         000000000000000000S
041987061080015000147007TMARCELINO BELLOSO PENA                                                      000000000000000000S
041987061080015000147008TGERARD REMENDO I ORTEGA                                                     000000000000000000S
041987061080015000147009TANTONI BARBERA I MOLINA                                                     000000000000000000S
041987061080015000147010TMARIA ANTONIA SERRA JIMENEZ                                                 000000000000000000S
041987061080015000147011TMARIA PILAR MARTINEZ LABURTA                                                000000000000000000N
041987061080015000147012TMANUEL SOUSA GIL                                                            000000000000000000N
041987061340120000002006TFELIX DIEZ ZARZOSA                                                          000000000000000000S
041987061340120000002007TSOTERO FERNANDEZ PINILLA LOPEZ-MENCHERO                                     000000000000000000S
041987061340120000002008TERNESTO ARGUELLES BURGOS                                                    000000000000000000S
041987061340120000002009TFERNANDO-JOSE MARTINEZ-ZULAICA VAZQUEZ                                      000000000000000000S
041987061340120000002010TMARIA CRUZ GOMEZ SOTO                                                       000000000000000000S
041987061340120000002011TJUAN-CARLOS REVILLA DE LA PARTE                                             000000000000000000S
041987061340120000002012TMANUEL MARTINEZ GONZALEZ                                                    000000000000000000N
041987061340120000002013TFRANCISCO PEREZ LEON                                                        000000000000000000N
041987061340120000002014TABEL GONZALEZ FUENTES                                                       000000000000000000N
041987061340120000002015TGREGORIA PRIMO ANDRES                                                       000000000000000000N
041987061340120000002016TANA-ISABEL GARCIA VITORES                                                   000000000000000000N
041987061340120000002017TFRANCISCO-JAVIER ESPINOSA PUERTAS                                           000000000000000000N
041987061340120000002018TLUIS-FERNANDO GARCIA POLANCO                                                000000000000000000N
041987061340120000002019TANA-MARY ANDEREZ FLOREZ                                                     000000000000000000N
041987061340120000002020TJOSE RAMON ESCUDERO GONZALEZ                                                000000000000000000N
041987061340120000002021TROSA ISABEL CUESTA COFRECES                                                 000000000000000000N
041987061340120000002022TENRIQUE MARTIN FERNANDEZ                                                    000000000000000000N
041987061340120000002023TELISEO MARTINEZ RETORTILLO                                                  000000000000000000N
041987061340120000002024TJOSE ANTONIO DUQUE MOLPECERES                                               000000000000000000N
041987061340120000002025TMARIA DEL OLMO FERNANDEZ BAQUERIN                                           000000000000000000N
041987061340120000003001TPEDRO PABLO ABAD HERNAN                                                     000000000000000000S
041987061340120000003002TJOSE ANTONIO SAN JUAN DE LA FUENTE                                          000000000000000000S
041987061340120000003003TISIDORO FERNANDEZ NAVAS                                                     000000000000000000S
041987061340120000003004TJUAN-CARLOS GARCIA FERNANDEZ                                                000000000000000000N
041987061340120000003005TJOSE LUIS ALVAREZ CONDE                                                     000000000000000000N
041987061340120000003006TMARIA DEL CARMEN ROCA FERNANDEZ                                             000000000000000000N
041987061340120000003007TCONSTANTINO LOPEZ MANRIQUE                                                  000000000000000000N
041987061340120000003008TJOSE CARLOS ANERO BARTOLOME                                                 000000000000000000N
041987061340120000003009TISABEL ROJO FERNANDEZ                                                       000000000000000000N
041987061340120000003010TRAFAEL VAZQUEZ DELGADO                                                      000000000000000000N
041987061340120000003011TMARIA MARINA SANCHEZ GARCIA                                                 000000000000000000N
041987061340120000003012TALBERTO MARCOS ABRIL                                                        000000000000000000N
041987061140021000082012TSERGIO RAFAEL FERNANDEZ REYES                                               000000000000000000N
041987061140021000082013TVICTORIA ARROYO JARABA                                                      000000000000000000N
041987061140021000082014TFRANCISCO ARCHIDONA GONZALEZ                                                000000000000000000N
041987061140021000082015TANTONIO SOLA DIAZ                                                           000000000000000000N
041987061140021000082016TFRANCISCO CRESPO MARIN                                                      000000000000000000N
041987061140021000082017TANGELES LUQUE DE CASTRO                                                     000000000000000000N
041987061140021000082018TJOSE MARIA CALVO DE MORA REDONDO                                            000000000000000000N
041987061140021000082019TDAVID GELABERT RODRIGUEZ                                                    000000000000000000N
041987061140021000082020TMARIA GUERRERO GORDON                                                       000000000000000000N
041987061140021000082021TRAFAEL ALVAREZ CIVICO                                                       000000000000000000N
041987061140021000082022TTERESA ALAMEDA VIZCARRO                                                     000000000000000000N
041987061140021000082023TBLAS JIMENEZ GALIAN                                                         000000000000000000N
041987061140021000082024TMANUEL VALERIANO COBACHO MARQUEZ                                            000000000000000000N
041987061140021000082025TJOSE EXPOSITO REDONDO                                                       000000000000000000N
041987061140021000082026TTORCUATO REQUENA REQUENA                                                    000000000000000000N
041987061140021000082027TMANUEL DUEÑAS NATERA                                                        000000000000000000N
041987061140021000083001THERMINIO TRIGO AGUILAR                                                      000000000000000000S
041987061140021000083002TDIONISIO ORTIZ DELGADO                                                      000000000000000000S
041987061140021000083003TJUAN JIMENEZ COSTILLA                                                       000000000000000000S
041987061140021000083004TJOSE ACOSTA SANCHEZ                                                         000000000000000000S
041987061140021000083005TCANDIDO JIMENEZ SANCHEZ                                                     000000000000000000S
041987061140021000083006TBLANCA MARIA CIUDAD IMEDIO                                                  000000000000000000S
041987061140021000083007TMANUEL PEREZ PEREZ                                                          000000000000000000S
041987061140021000083008TJOAQUINA AGUILAR RIVERO                                                     000000000000000000S
041987061140021000083009TMARCELINO FERRERO MARQUEZ                                                   000000000000000000S
041987061140021000083010TALFONSO IGUALADA PEDRAZA                                                    000000000000000000S
041987061140021000083011TEMILIO LUCENA SANTOS                                                        000000000000000000N
041987061090059000001001TPEDRO DIEZ LABIN                                                            000000000000000000S
041987061090059000001002TANGEL OLIVARES RAMIREZ                                                      000000000000000000S
041987061090059000001003TMARIA LUISA DE MIGUEL GUTIERREZ                                             000000000000000000S
041987061090059000001004TFERNANDO CARDERO AZOFRA                                                     000000000000000000S
041987061090059000001005TAURELIO RUBIO MARCOS                                                        000000000000000000S
041987061090059000001006TPEDRO YAÑEZ MONEDERO                                                        000000000000000000S
041987061090059000001007TDAMIAN GONZALEZ DIEZ                                                        000000000000000000S
041987061090059000001008TANTONIO GREGORI FERNANDEZ                                                   000000000000000000S
041987061090059000001009TJOSE MARIA DEL OLMO CUESTA                                                  000000000000000000N
041987061090059000001010TMARIA ISABEL ABAD PINILLOS                                                  000000000000000000N
041987061090059000001011TMIRELA BARCENA GARCIA                                                       000000000000000000N
041987061090059000001012TJOSE JAVIER LOMAS FERNANDEZ DE LA CUESTA                                    000000000000000000N
041987061090059000001013TCARLOS MARIN PEREZ                                                          000000000000000000N
041987061090059000001014TFRANCISCO JAVIER PEREZ BARRIOCANAL                                          000000000000000000N
041987061090059000001015TFELIX PALOMERO ARAGON                                                       000000000000000000N
041987061090059000001016TGERARDO TRIANA SANCHEZ                                                      000000000000000000N
041987061090059000001017TFELIX ENRIQUE CALVO GONZALEZ                                                000000000000000000N
041987061090059000001018TGERARDO MANUEL CARNICERO MORAL                                              000000000000000000N
041987061090059000001019TJOSE ANTONIO SAIZ PEREZ                                                     000000000000000000N
041987061090059000001020TCLEMENCIO HERNANDEZ GUTIERREZ                                               000000000000000000N
041987061090059000001021TMARIA ASUNCION BENITO MARTIN                                                000000000000000000N
041987061090059000001022TESTEBAN GREGORIO MATE                                                       000000000000000000N
041987061090059000001023TLUDIVINA VALLEJO REBOLLARES                                                 000000000000000000N
041987061090059000001024TJULIO FRANCES LOPEZ                                                         000000000000000000N
041987061090059000001025TJESUS MARIA ESTEBANEZ HUERTOS                                               000000000000000000N
041987061090059000001026TFERNANDO GONZALEZ GARCIA                                                    000000000000000000N
041987061090059000001027TGREGORIO MAYORAL GARCIA                                                     000000000000000000N
041987061090059000003001TLUIS DE DIEGO MIRA                                                          000000000000000000S
041987061090059000003002TJOSE IGNACIO GUTIERREZ ESCUDERO                                             000000000000000000S
041987061090059000003003TMARIA PURIFICACION BUSTO SAIZ                                               000000000000000000N
041987061090059000003004TJOSE NICOLAS PEREZ-FADON DIAZ-OYUELOS                                       000000000000000000N
041987061090059000003005TJOSE MANUEL SANMARTIN VARONA                                                000000000000000000N
041987061090059000003006TFRANCISCO JAVIER YAGUE AGUILERA                                             000000000000000000N
041987061090059000003007TRAFAEL MARTINEZ GARCIA                                                      000000000000000000N
041987061090059000003008TVICENTE GARCIA ALONSO                                                       000000000000000000N
041987061090059000003009TJUAN JOSE ANTONIO IRIZARRI ORTEGA                                           000000000000000000N
041987061090059000003010TOSCAR JAVIER ORTEGA DELGADO                                                 000000000000000000N
041987061090059000003011TJOSE SANJOSE GONZALEZ                                                       000000000000000000N
041987061090059000003012TANTONIO NAVAS LOZANO                                                        000000000000000000N
041987061090059000003013TMARIA AGUSTINA GARCIA CALLEJA                                               000000000000000000N
041987061090059000003014TALFREDO CUESTA GUADILLA                                                     000000000000000000N
041987061090059000003015TALFREDO MARCOS RICO                                                         000000000000000000N
041987061090059000003016TVALERIANO RIO SANTOS                                                        000000000000000000N
041987061080015000147013TJAUME OLIVERAS I COSTA                                                      000000000000000000N
041987061080015000147014TANTONIO SALGUERO SOLANO                                                     000000000000000000N
041987061080015000147015TJUAN CORTES SAINER                                                          000000000000000000N
041987061080015000147016TMARIA TERESA TORELLO GALDON                                                 000000000000000000N
041987061080015000147017TJAUME SOLA I CAMPMANY                                                       000000000000000000N
041987061080015000147018TROSA MARIA ARAGONES I TOSSAS                                                000000000000000000N
041987061080015000147019TBERNARDO GAMEZ TITOS                                                        000000000000000000N
041987061080015000147020TEMILI MUÑOZ I MARTINEZ                                                      000000000000000000N
041987061080015000147021TMARIA PILAR RIZO DEL TORO                                                   000000000000000000N
041987061080015000147022TANTONIO BAYONA PINEDA                                                       000000000000000000N
041987061080015000147023TJOSEP SOLER I AMIGO                                                         000000000000000000N
041987061080015000147024TMANUEL MORENO HARTO                                                         000000000000000000N
041987061080015000147025TALBERTA GUIRAO BELMONTE                                                     000000000000000000N
041987061080015000147026TCONCEPCION CASTELLANO REMESAL                                               000000000000000000N
041987061080015000147027TANGEL PEIRO VADO                                                            000000000000000000N
041987061080015000151001TJOSE MARIA TABOADA DE TOLEDO                                                000000000000000000N
041987061080015000151002TRAFAEL CARMONA CARO                                                         000000000000000000N
041987061080015000151003TJOSE ANTONIO GONZALEZ SANCHEZ                                               000000000000000000N
041987061080015000151004TMARIA DOLORES CHACON REINA                                                  000000000000000000N
041987061080015000151005TELADIO RAMIREZ POVEDA                                                       000000000000000000N
041987061080015000151006TGLORIA ESPELT IÑIGO                                                         000000000000000000N
041987061080015000151007TDIONISIO MARTIN RIVERA                                                      000000000000000000N
041987061080015000151008TANGELES MORENO LOPEZ                                                        000000000000000000N
041987061080015000151009TAGUSTIN ARRIBAS YAGUE                                                       000000000000000000N
041987061080015000151010TANTONIO MARTINEZ IZQUIERDO                                                  000000000000000000N
041987061080015000151011TPILAR ANDREU FERNANDEZ                                                      000000000000000000N
041987061080015000151012TJENERO GONZALEZ SANCHEZ                                                     000000000000000000N
041987061080015000151013TLUCIO CHAPARRO PEÑO                                                         000000000000000000N
041987061080015000151014TJOSE IGLESIAS PIQUERO                                                       000000000000000000N
041987061080015000151015TEUSEBIO ESTRIEGANA PORRAS                                                   000000000000000000N
041987061080015000151016TMANUEL AYLLON MARTINEZ                                                      000000000000000000N
041987061080015000151017TALEJANDRA RUIZ GONZALEZ                                                     000000000000000000N
041987061080015000151018TFRANCISCO GABALDON HERNANDEZ                                                000000000000000000N
041987061080015000151019TJULIO LUENGO MUROS                                                          000000000000000000N
041987061080015000151020TVLADIMIRO ALGARA GARCIA                                                     000000000000000000N
041987061090059000061009TMIGUEL VALLECILLO RODRIGUEZ                                                 000000000000000000S
041987061090059000061010TFRANCISCO JAVIER QUINTANILLA FERNANDEZ                                      000000000000000000S
041987061090059000061011TFRANCISCO MARTINEZ ABASCAL                                                  000000000000000000S
041987061090059000061012TJOSE ANTONIO BAÑUELOS GARCIA                                                000000000000000000S
041987061090059000061013TVICTOR MARTINEZ LLORENTE                                                    000000000000000000S
041987061090059000061014TJOSE LUIS MONEO RODRIGUEZ                                                   000000000000000000S
041987061090059000061015TCANDIDA SAIZ GONZALEZ                                                       000000000000000000S
041987061090059000061016TCRISTINO DIEZ RUIZ                                                          000000000000000000S
041987061090059000061017TANTONIO JOSE PEREDA LOPEZ-LINARES                                           000000000000000000S
041987061090059000061018TMARCELINO SANTIAGO MATE MARTINEZ                                            000000000000000000N
041987061090059000061019TARTURO BILBAO GUTIERREZ                                                     000000000000000000N
041987061090059000061020TJESUS PRECIADO MEDRANO                                                      000000000000000000N
041987061090059000061021TJESUS CESAR NAVARRO LEIVA                                                   000000000000000000N
041987061090059000061022TCARLOS MATEO BALLORCA                                                       000000000000000000N
041987061090059000061023TISIDRO GALARRETA DEL ALAMO                                                  000000000000000000N
041987061090059000061024TMANUEL ANDUJAR TERAN                                                        000000000000000000N
041987061090059000061025TTEODORO TEJEDOR ARRANZ                                                      000000000000000000N
041987061090059000061026TJUAN MANUEL RUIZ SOLSONA                                                    000000000000000000N
041987061090059000061027TANDRES SANCHEZ GIL                                                          000000000000000000N
041987061140021000083012TLEONARDO RODRIGUEZ GARCIA                                                   000000000000000000N
041987061140021000083013TALFONSO CEBALLOS LEON                                                       000000000000000000N
041987061140021000083014TRAFAEL IBAÑEZ RECHE                                                         000000000000000000N
041987061140021000083015TRAFAEL GARCIA CONTRERAS                                                     000000000000000000N
041987061140021000083016TJOSE BIBIANO TABERNER GUASP                                                 000000000000000000N
041987061140021000083017TFRANCISCO PAÑOS SANTIAGO                                                    000000000000000000N
041987061140021000083018TANTONIO SANCHEZ ORDOÑEZ                                                     000000000000000000N
041987061140021000083019TJUAN PEREZ ORTIZ                                                            000000000000000000N
041987061140021000083020TISABEL AMIL CASTILLO                                                        000000000000000000N
041987061140021000083021TENRIQUE CENTELLA GOMEZ                                                      000000000000000000N
041987061140021000083022TJOSE RODIRGUEZ MAQUEDA                                                      000000000000000000N
041987061140021000083023TMANUEL GARCIA CABALLERO                                                     000000000000000000N
041987061140021000083024TPABLO DOMINGUEZ AREVALO                                                     000000000000000000N
041987061140021000083025TAMELIA CASTRO LLAMAS                                                        000000000000000000N
041987061140021000083026TPEDRO URBANOAMIL                                                            000000000000000000N
041987061140021000083027TCELESTINO CONESA SERRANO                                                    000000000000000000N
041987061140021000119001TANTONIO DE LA CRUZ GIL                                                      000000000000000000N
041987061140021000119002TJOSE GARCIA RIVERO                                                          000000000000000000N
041987061140021000119003TFRANCISCO CASTILLA MARTINEZ                                                 000000000000000000N
041987061140021000119004TFRANCISCO PIZARRO DE CELIS                                                  000000000000000000N
041987061140021000119005TMARIA DOLORES GARCIA CADENAS DE LLANO                                       000000000000000000N
041987061140021000119006TRICARDO GUISADO URBANO                                                      000000000000000000N
041987061140021000119007TMANUEL PORRAS RODRIGUEZ                                                     000000000000000000N
041987061140021000119008TFERNANDO VELA DE LA TORRE                                                   000000000000000000N
041987061140021000119009TGUILLERMO GUERRERO ORTIZ                                                    000000000000000000N
041987061140021000119010TRAFAEL BARRERA GOMEZ                                                        000000000000000000N
041987061140021000119011TLAZARO ENTRENAS AUMENTE                                                     000000000000000000N
041987061140021000119012TMARIA DOLORES GONZALEZ SANTA-CRUZ                                           000000000000000000N
041987061140021000119013TPEDRO VAZQUEZ VACAS                                                         000000000000000000N
041987061140021000119014TMARIA SOL REY FERNANDEZ DE HENESTROSA                                       000000000000000000N
041987061140021000119015TJUAN ESPEJO PORTERO                                                         000000000000000000N
041987061140021000119016TJUAN LUIS BERNEDO POYATOS                                                   000000000000000000N
041987061140021000119017TNATIVIDAD TRILLO CAMPAÑA                                                    000000000000000000N
041987061140021000119018TJUAN SILLERO JIMENEZ                                                        000000000000000000N
041987061140021000119019TJULIO GARRIDO PAREDES                                                       000000000000000000N
041987061090059000003017TJUAN JOSE MARTINEZ DEL RIO                                                  000000000000000000N
041987061090059000003018TMARTIN RAMOS MORENO                                                         000000000000000000N
041987061090059000003019TMARIA ISABEL GOMEZ ARNAIZ                                                   000000000000000000N
041987061090059000003020TVICENTE ANTON RUIZ                                                          000000000000000000N
041987061240089000001001TANGEL VILALBA ALVAREZ                                                       000000000000000000S
041987061240089000001002TGRACILIANO PALOMO GARCIA                                                    000000000000000000S
041987061240089000001003TAGUSTIN TURIEL SANDIN                                                       000000000000000000S
041987061240089000001004TJOSE LUIS CASAS ALONSO                                                      000000000000000000S
041987061240089000001005THONORIO VAZQUEZ ALVAREZ                                                     000000000000000000S
041987061240089000001006TJOSE IGNACIO GARCIA UNZUETA                                                 000000000000000000S
041987061240089000001007TMARCELO GONZALEZ CASTRILLO                                                  000000000000000000S
041987061240089000001008TMARIA DE LOS ANGELES ORDAS RODRIGUEZ                                        000000000000000000S
041987061240089000001009TRICARDO ALVAREZ FERNANDEZ                                                   000000000000000000S
041987061150030000027003TPEDRO VASCO PARDAVILA                                                       000000000000000000S
041987061150030000027004TFEDERICO DE LA FUENTE ESPERANTE                                             000000000000000000S
041987061150030000027005TPILAR VALIÑO PEREZ                                                          000000000000000000S
041987061150030000027006TESTEBAN MANUEL LAREO CASTRO                                                 000000000000000000S
041987061150030000027007TCARMEN MARON BELTRAN                                                        000000000000000000S
041987061150030000027008TFRANCISCO JAVIER LOSADA DE AZPIAZU                                          000000000000000000S
041987061150030000027009TCARLOS MARIA DOMENECH DE ASPE                                               000000000000000000S
041987061150030000027010TLUIS CLAUDIO PEREZ LAGO DE LANZOS                                           000000000000000000S
041987061150030000027011TEDUARDO BLANCO PEREIRA                                                      000000000000000000S
041987061150030000027012TJOSE LUIS MENDEZ ROMEU                                                      000000000000000000S
041987061150030000027013TCARLOS GONZALEZ GARCES SANTISO                                              000000000000000000S
041987061150030000027014TJUAN MANUEL IGLESIAS MATO                                                   000000000000000000S
041987061150030000027015TJOSE ANTONIO SANCHEZ PENAS                                                  000000000000000000S
041987061150030000027016TMANUEL REGUEIRO DIAZ                                                        000000000000000000S
041987061150030000027017TMARIA ANGELES DE LA IGLESIA DAVIÑA                                          000000000000000000S
041987061150030000027018TANA MARIA TORRES FERREIRO                                                   000000000000000000N
041987061150030000027019TLUIS EDUARDO MARIÑAS SANCHEZ                                                000000000000000000N
041987061150030000027020THECTOR HOMERO QUIROGA LORENZO                                               000000000000000000N
041987061150030000027021TMARGARITA RUIBAL FONTELA                                                    000000000000000000N
041987061150030000027022TJOSE MANUEL DIAZ MARTINEZ                                                   000000000000000000N
041987061150030000027023TMARIA TERESA ORDUÑA DOMINGO                                                 000000000000000000N
041987061150030000027024TFEDERICO DE LA FUENTE ORTIZ                                                 000000000000000000N
041987061150030000027025TJOSE MARIA UZAL BLANCO                                                      000000000000000000N
041987061150030000027026TJORGE JOSE MARIA BLANCO GONZALEZ                                            000000000000000000N
041987061150030000027027TMANUEL GONZALEZ ESPESO                                                      000000000000000000N
041987061150030000029001TGONZALO VAZQUEZ POZO                                                        000000000000000000N
041987061150030000029002TMANUEL MONJE GONZALEZ                                                       000000000000000000N
041987061150030000029003TJOSE LUIS MARTINEZ SUAREZ                                                   000000000000000000N
041987061150030000029004TFRANCISCO JAVIER PEDREIRA PARDO                                             000000000000000000N
041987061150030000029005TFRANCISCO JULIO CERVIÑO GONZALEZ                                            000000000000000000N
041987061150030000029006TPURA BARRIO VAL                                                             000000000000000000N
041987061150030000029007TFERNANDO LOPEZ CURRAS                                                       000000000000000000N
041987061150030000029008TRAMON FARALDO PARDO                                                         000000000000000000N
041987061150030000029009TXOAN CARLOS VERDINI DEUS                                                    000000000000000000N
041987061150030000029010TENRIQUE CAPEANS LEIS                                                        000000000000000000N
041987061150030000029011TCONCEPCION SANCHEZ SANCHEZ                                                  000000000000000000N
041987061150030000029012TJOSE AGUSTIN PEREZ GOMEZ                                                    000000000000000000N
041987061150030000029013TDANIEL FERNANDEZ VAZQUEZ                                                    000000000000000000N
041987061150030000029014TANA MARIA FERNANDEZ FAYA                                                    000000000000000000N
041987061150030000029015TXOSE MARIA MONTERROSO DEVESA                                                000000000000000000N
041987061150030000029016TMARIA DE LA PAZ NEGREIRA BARCIA                                             000000000000000000N
041987061150030000029017TVIRGINIA HERMO GOMEZ                                                        000000000000000000N
041987061150030000029018TANTONIO LISTA ROMEO                                                         000000000000000000N
041987061150030000029019TANUNCIO MAROÑO NOYA                                                         000000000000000000N
041987061150030000029020TAMELIA GOMEZ ARCAS                                                          000000000000000000N
041987061150030000029021TSUSANA LOPEZ FACAL                                                          000000000000000000N
041987061150030000029022TLUIS FONTAN MAZAS                                                           000000000000000000N
041987061150030000029023TMARIA DEL CARMEN CASCUDO ARIAS                                              000000000000000000N
041987061150030000029024TRAMON VERAS CASTRO                                                          000000000000000000N
041987061150030000029025TANDRES ROEL NIETO                                                           000000000000000000N
041987061150030000029026TDANIEL VILELA GARCIA                                                        000000000000000000N
041987061150030000029027TJOSE MARIO RODRIGUEZ GALA                                                   000000000000000000N
041987061150030000031001TMISERICORDIA TRILL VENTOS                                                   000000000000000000N
041987061150030000031002TSANTIAGO VILARIÑO IÑIGUEZ                                                   000000000000000000N
041987061150030000031003TSALVADOR DIAZ BLASCO                                                        000000000000000000N
041987061150030000031004TROBERTO LOPEZ LAGE                                                          000000000000000000N
041987061150030000031005TJUAN JOSE PORTA PEQUEÑO                                                     000000000000000000N
041987061150030000031006TJOSE LUIS LOPEZ LOPEZ                                                       000000000000000000N
041987061150030000031007TM. NIEVES ABAD FANDIÑO                                                      000000000000000000N
041987061150030000031008TJAIME ASTRAY VILARIÑO                                                       000000000000000000N
041987061150030000031009TRAMON MONTERROSO MARTINEZ                                                   000000000000000000N
041987061150030000031010TMIGUEL ANGEL VAZQUEZ NUÑEZ                                                  000000000000000000N
041987061150030000031011TJAVIER LOPEZ LAGE                                                           000000000000000000N
041987061150030000031012TBEGOÑA MARCOS BUJAN                                                         000000000000000000N
041987061150030000031013TRAMIRO DE LA FUENTE DE LA IGLESIA                                           000000000000000000N
041987061150030000031014TMANUELA MARTA MARTA                                                         000000000000000000N
041987061150030000031015TISIDORO MANUEL CORTES QUECUTY                                               000000000000000000N
041987061150030000031016TM. VICTORIA MILLAN LOPEZ                                                    000000000000000000N
041987061150030000031017TISABEL PEQUEÑO PANCHUELO                                                    000000000000000000N
041987061150030000031018TJULIA HERMIDA TEIJEIRO                                                      000000000000000000N
041987061150030000031019TBEATRIZ GARCIA-RAMOS MACHO                                                  000000000000000000N
041987061150030000031020TAMPARO FANDIÑO ASTRAY                                                       000000000000000000N
041987061150030000031021TJOSE LOPEZ VILARIÑO                                                         000000000000000000N
041987061150030000031022TAURORA ABASCAL SANCHEZ                                                      000000000000000000N
041987061150030000031023TANTONIO MANTIÑAN PRADO                                                      000000000000000000N
041987061150030000031024TEDUARDO CASTRO BAL                                                          000000000000000000N
041987061150030000031025TM. TERESA HERMIDA TEIJEIRO                                                  000000000000000000N
041987061150030000031026TRAMON FERNANDO RODRIGUEZ PATIÑO                                             000000000000000000N
041987061150030000031027TM. DEL MAR VILLABA CARAMES                                                  000000000000000000N
041987061150030000038001TISABEL GARCIA SENRA                                                         000000000000000000N
041987061090059000003021TENRIQUE BLANCO TOME                                                         000000000000000000N
041987061090059000003022TFRANCISCO ACERO IGLESIAS                                                    000000000000000000N
041987061090059000003023TMARIA CARMEN HERNANDO AGUILERA                                              000000000000000000N
041987061090059000003024TFRANCISCO JAVIER PINEDA SIMON                                               000000000000000000N
041987061090059000003025TCASIANO HERNANDEZ RUIZ-ALEJOS                                               000000000000000000N
041987061090059000003026TJUAN CASTILLO LINARES                                                       000000000000000000N
041987061090059000003027TMARIA CRISTINA GREDILLA CARDERO                                             000000000000000000N
041987061090059000004001TFAUSTINO BARRIUSO GUTIERREZ                                                 000000000000000000N
041987061090059000004002TJOSE MORAL JIMENEZ                                                          000000000000000000N
041987061090059000004003TBERNARDO MARTINEZ MARCOS                                                    000000000000000000N
041987061090059000004004TLEANDRO ALZAGA MARIJUAN                                                     000000000000000000N
041987061090059000004005TJUAN MANUEL ALONSO POZA                                                     000000000000000000N
041987061090059000004006TJUAN ANTONIO ANGULO SAINZ                                                   000000000000000000N
041987061090059000004007TVALENTINA TAMAYO TEJEDOR                                                    000000000000000000N
041987061090059000004008TSANTOS MARIA MARTINEZ HERNANDO                                              000000000000000000N
041987061090059000004009TPEDRO PEÑA ORTIZ                                                            000000000000000000N
041987061090059000004010TFEDERICO MIGUEL MIGUEL                                                      000000000000000000N
041987061090059000004011TEUGENIO CALVO PEREZ                                                         000000000000000000N
041987061090059000004012TMANUEL ORTEGA CAÑAS                                                         000000000000000000N
041987061150030000038002TAURORA TASENDE POMBO                                                        000000000000000000N
041987061150030000038003TANGEL MARIO BARRANCO HERVADA                                                000000000000000000N
041987061150030000038004TRAMON HUERTAS LOPEZ                                                         000000000000000000N
041987061150030000038005TM. ESTHER BARBEITO GARCIA                                                   000000000000000000N
041987061150030000038006TFERNANDO BARRAL LOPEZ                                                       000000000000000000N
041987061150030000038007TPEDRO M. RAMALLO FOLLA                                                      000000000000000000N
041987061150030000038008TFRANCISCO MICO DE BERNARDO                                                  000000000000000000N
041987061150030000038009TM. DEL MAR SANDE LESTON                                                     000000000000000000N
041987061150030000038010TPEDRO PEREZ DE LA FUENTE                                                    000000000000000000N
041987061150030000038011TJOSE CAMBEIRO RODRIGUEZ                                                     000000000000000000N
041987061150030000038012TM. ARANZAZU DELGADO IZARRA                                                  000000000000000000N
041987061150030000038013TMANUEL ANGEL SOILAN REY                                                     000000000000000000N
041987061150030000038014TDOMINGO ANTONIO DUBRA FERNANDEZ                                             000000000000000000N
041987061150030000038015TFRANCISCO TENREIRO SAAVEDRA                                                 000000000000000000N
041987061150030000038016TJUAN JOSE LOPEZ RIOS                                                        000000000000000000N
041987061150030000038017TSUSANA RODRIGUEZ ALEMPARTE                                                  000000000000000000N
041987061150030000038018TSILVIA SEIJAS CARBALLEDA                                                    000000000000000000N
041987061150030000038019TJOSE ALBERTO ARES MAROTO                                                    000000000000000000N
041987061150030000038020TANTONIO MARTINEZ PAZ                                                        000000000000000000N
041987061150030000038021TINMACULADA IGLESIAS DIAZ                                                    000000000000000000N
041987061150030000038022TMARIA SALOME PEREZ BLANCO                                                   000000000000000000N
041987061150030000038023TMARIA ISABEL REY FERNANDEZ                                                  000000000000000000N
041987061150030000038024TMONICA PARDO SANCHEZ                                                        000000000000000000N
041987061150030000038025TMIGUEL ANGEL CEDEIRA MONELOS                                                000000000000000000N
041987061150030000038026TJUAN MIGUEL FERNANDEZ GONZALEZ                                              000000000000000000N
041987061150030000038027TMARIA YOLANDA LOPEZ VARELA                                                  000000000000000000N
041987061150030000047001TPEDRO ARIAS VEIRA                                                           000000000000000000N
041987061150030000047002TJOSE SENEN MURIAS TABOADA                                                   000000000000000000N
041987061150030000047003TRAMON MARIA MEDINA GONZALEZ REDONDO                                         000000000000000000N
041987061150030000047004TMANUEL CORRAL MARTINEZ                                                      000000000000000000N
041987061150030000047005TJOSE REY MALLO                                                              000000000000000000N
041987061150030000047006TJOSE MANUEL LAGO PEÑAS                                                      000000000000000000N
041987061150030000047007TENRIQUE VEIRA PINO                                                          000000000000000000N
041987061150030000047008TDANIEL DIAZ CABANELA                                                        000000000000000000N
041987061150030000047009TMARIA VICTORIA SEIJAS SUAREZ                                                000000000000000000N
041987061150030000047010TISMAEL CABEZA GARCIA                                                        000000000000000000N
041987061150030000047011TEVA MARIA CALVETE GANTES                                                    000000000000000000N
041987061150030000047012TJOSE MANUEL SANCHEZ AGUION                                                  000000000000000000N
041987061150030000047013TJOSE ENRIQUE VEIRA VILLAR                                                   000000000000000000N
041987061150030000047014TRAFAEL DE LA CRUZ PARDO                                                     000000000000000000N
041987061150030000047015TFERNANDO SANDE SANGUIÑEDO                                                   000000000000000000N
041987061150030000047016TPABLO MIGUEL VAQUERO GONZALEZ                                               000000000000000000N
041987061150030000047017TROBERTO MEJUTO CAMPOS                                                       000000000000000000N
041987061150030000047018TROBERTO LIÑEIRA GRAÑA                                                       000000000000000000N
041987061320054000038006TJOSE RAMON ALVES PATO                                                       000000000000000000N
041987061320054000038007TM. PILAR PEREZ SANTOS                                                       000000000000000000N
041987061320054000038008TANTONIO PEREZ PEREZ                                                         000000000000000000N
041987061320054000038009TJOSE LUIS SANTALICES MIGUEZ                                                 000000000000000000N
041987061320054000038010TM. BEGOÑA DE URBANO MOURE                                                   000000000000000000N
041987061320054000038011TRICARDO GARCIA GOMEZ                                                        000000000000000000N
041987061320054000038012TJOSE LUIS ALVAREZ SALGADO                                                   000000000000000000N
041987061320054000038013TJUAN DIEGO CHAMBORRO CABRERA                                                000000000000000000N
041987061320054000038014TVICENTE ARAUJO NOVOA                                                        000000000000000000N
041987061320054000038015TJOSE LUIS GONZALEZ PEREZ                                                    000000000000000000N
041987061320054000038016TANTONIO SAMPAYO RODRIGUEZ                                                   000000000000000000N
041987061320054000038017TMOISES MARTINEZ CARREIRO                                                    000000000000000000N
041987061320054000038018TASUNCION PENEDO RODRIGUEZ                                                   000000000000000000N
041987061320054000038019TCARLOS FERNANDEZ ARAUJO                                                     000000000000000000N
041987061320054000038020TFELISA FOLGUEIRA NOVOA                                                      000000000000000000N
041987061320054000038021TBLANDINA ESTEVEZ ALONSO                                                     000000000000000000N
041987061090059000004013TENRIQUE MARTINEZ LOPEZ                                                      000000000000000000N
041987061090059000004014TMATIAS CALVO CARRASCO                                                       000000000000000000N
041987061090059000004015TJESUS IGNACIO PURAS TRIMIÑO                                                 000000000000000000N
041987061090059000004016TMIGUEL PRIETO RODRIGUEZ                                                     000000000000000000N
041987061090059000004017TALFONSO LARGO LAZCANO                                                       000000000000000000N
041987061090059000004018TANTONIO OLIVERA PEREZ                                                       000000000000000000N
041987061090059000004019TVICENTE JOSE GONZALEZ DEL HOYO                                              000000000000000000N
041987061090059000004020TJOSE LUIS SACRISTAN PEREZ                                                   000000000000000000N
041987061090059000004021TJOSE LUIS CABEZAS JUAN                                                      000000000000000000N
041987061090059000004022TMARIA ANGELES YEBRA JIMENEZ DEL BARCO                                       000000000000000000N
041987061090059000004023TMARTIN CRIADO ACOSTA                                                        000000000000000000N
041987061090059000004024TEUSEBIO ANTONIO RODRIGUEZ ONTANEDA                                          000000000000000000N
041987061090059000004025TJUAN GREGORIO BARBERO GONZALEZ                                              000000000000000000N
041987061090059000004026TRAFAEL ALEJOS CANTERO                                                       000000000000000000N
041987061090059000004027TRAFAEL ABELARDO OLEA PEREZ                                                  000000000000000000N
041987061090059000005001TEUGENIO ORTEGA DELGADO                                                      000000000000000000N
041987061090059000005002TJOSE ROMERO YAGUE                                                           000000000000000000N
041987061090059000005003TIGNACIO JAVIER ARIZNAVARRETA ESTEBAN                                        000000000000000000N
041987061090059000005004TJACINTO LOPEZ MIGUEL                                                        000000000000000000N
041987061090059000005005TCARLOS MARTINEZ GARCIA                                                      000000000000000000N
041987061090059000005006TRICARDO OSMA FRIAS                                                          000000000000000000N
041987061090059000005007TGONZALO COSME ARRIBAS ARRIBAS                                               000000000000000000N
041987061090059000005008TMARIANO MANSO RODRIGUEZ                                                     000000000000000000N
041987061090059000005009TJOSE ANGEL SAIZ RUBIO                                                       000000000000000000N
041987061090059000005010TMIGUEL ANGEL CARGAS ROMERO                                                  000000000000000000N
041987061090059000005011TMARIA TERESA BARCENA GOMEZ                                                  000000000000000000N
041987061090059000005012TJOSE MANUEL CANTERA QUITIAN                                                 000000000000000000N
041987061090059000005013TMARIA DEL MAR MORENTE MANERO                                                000000000000000000N
041987061090059000005014TCARLOS MIÑAMBRES SALINERO                                                   000000000000000000N
041987061090059000005015TALFONSO DE LA FUENTE MATEO                                                  000000000000000000N
041987061090059000005016TJOSE IGNACIO SOGORB FERNANDEZ LOMANA                                        000000000000000000N
041987061090059000005017TJULIO JAVIER DELGADO GONZALEZ                                               000000000000000000N
041987061090059000005018TJUAN JOSE IBEAS MORENO                                                      000000000000000000N
041987061090059000005019TJOSE ANTONIO RUEDA FERNANDEZ                                                000000000000000000N
041987061090059000005020TENRIQUE TAPIA RAMOS                                                         000000000000000000N
041987061090059000005021TENRIQUE CEJUDO GENTO                                                        000000000000000000N
041987061090059000005022TJULIANA MARTINEZ ALCALDE                                                    000000000000000000N
041987061090059000005023TENRIQUE GONZALEZ PEREZ                                                      000000000000000000N
041987061090059000005024TFELIX JAVIER HIDALGO FRANCO                                                 000000000000000000N
041987061090059000005025TSANTIAGO VELAZQUEZ PACHECO                                                  000000000000000000N
041987061090059000005026TEDUARDO LUIS GONZALEZ MUÑOZ                                                 000000000000000000N
041987061090059000005027TLUIS DEL PRADO GIL                                                          000000000000000000N
041987061090059000037001TENRIQUE FERNANDEZ LEON                                                      000000000000000000N
041987061090059000037002TELISEO PRADA MERINO                                                         000000000000000000N
041987061090059000037003TMARIA ROSARIO GONZALEZ DIEZ                                                 000000000000000000N
041987061090059000037004TFERNANDO RUIZ GALLEGO                                                       000000000000000000N
041987061090059000037005TMIGUEL ANGEL AYALA BLANCO                                                   000000000000000000N
041987061090059000037006TFAUSTINO CANO SIERRA                                                        000000000000000000N
041987061090059000037007TJESUS RAMIRO NOVILLO                                                        000000000000000000N
041987061090059000037008TJOSE GORJON RECIO                                                           000000000000000000N
041987061090059000037009TCANDIDO MARTINEZ FERNANDEZ                                                  000000000000000000N
041987061090059000037010TJOSE LUIS CASCAJO HIDALGO                                                   000000000000000000N
041987061090059000037011TBIENVENIDA DEL CRUZ QUINTERO                                                000000000000000000N
041987061090059000037012TVICENTE ANTON ALFONSO                                                       000000000000000000N
041987061090059000037013TJULIA PEREZ DE CASTRO                                                       000000000000000000N
041987061090059000037014TANTONIO SAN MAURO GOMEZ                                                     000000000000000000N
041987061090059000037015TFERNANDO MARTIN LUCAS                                                       000000000000000000N
041987061090059000037016TCONSTANCIO SOTO LUJAN                                                       000000000000000000N
041987061090059000037017TISABEL GUARDO ROJAS                                                         000000000000000000N
041987061090059000037018TJOSE SAEZ LOPEZ                                                             000000000000000000N
041987061080015000151021TMARIA ANTONIA MARTINEZ DIAGO                                                000000000000000000N
041987061080015000151022TFRANCISCA RODRIGUEZ FERNANDEZ                                               000000000000000000N
041987061080015000151023TLUIS MIGUEL MARTIN PEREZ                                                    000000000000000000N
041987061080015000151024TMARIA DE LOS REYES OLMEDILLAS GALICIA                                       000000000000000000N
041987061080015000151025TJOAQUIN EMILIO GUERRERO MARGALLO                                            000000000000000000N
041987061080015000151026TROSA BLANCO BLANCO                                                          000000000000000000N
041987061080015000151027TFERNANDO VAZQUEZ YEBENES                                                    000000000000000000N
041987061080019000002001TENRIQUE LACALLE COLL                                                        000000000000000000S
041987061080019000002002TANTONIO ALBESA VILALTA                                                      000000000000000000S
041987061080019000002003TJOSE ALBERTO FERNANDEZ DIAZ                                                 000000000000000000S
041987061080019000002004TMARIA EVA NAVARRETE IZQUIERDO                                               000000000000000000N
041987061080019000002005TAGUSTIN GUILLAMON ANDRES                                                    000000000000000000N
041987061080019000002006TCARLOS GRAELLS PANE                                                         000000000000000000N
041987061080019000002007TM. DEL CARMEN SANCHEZ PIQUE                                                 000000000000000000N
041987061080019000002008TM. PILAR OLMEDO LANDALUCE                                                   000000000000000000N
041987061080019000002009TM. LOURDES TORAL MARQUEZ                                                    000000000000000000N
041987061080019000002010TFERNANDO DE JUAN FANE                                                       000000000000000000N
041987061080019000002011TEMILIO MARZO NOVELLA                                                        000000000000000000N
041987061080019000002012TANGEL JAVIER JUAREZ GOMEZ                                                   000000000000000000N
041987061080019000002013TDANIEL TERSOL CASSOLA                                                       000000000000000000N
041987061080019000002014TM. ROSA SEGURA PEREZ                                                        000000000000000000N
041987061080019000002015TJORGE ALBERTO VILANOVA MESTRE                                               000000000000000000N
041987061080019000002016TANTONIO BARBAS HERNANDEZ                                                    000000000000000000N
041987061080019000002017TJUAN ANTONIO MARTINEZ ORTEGA                                                000000000000000000N
041987061080019000002018TRICARDO EDUARDO MIRACLE LAVILLA                                             000000000000000000N
041987061080019000002019TELOY TOSAS JORDA                                                            000000000000000000N
041987061080019000002020TMAXIMO GODO FOLGOSO                                                         000000000000000000N
041987061080019000002021TANA MARGARITA RUIZ USANO                                                    000000000000000000N
041987061080019000002022TJUAN LUIS SITAC VICEN                                                       000000000000000000N
041987061080019000002023TPASCUAL GIMENEZ SEGURADO                                                    000000000000000000N
041987061080019000002024TCARLOS NAVARRETE IZQUIERDO                                                  000000000000000000N
041987061080019000002025TFRANCESC XAVIER MARTINEZ IBAÑEZ                                             000000000000000000N
041987061080019000002026TJUANA FEDOU RAMON                                                           000000000000000000N
041987061080019000002027TM. CARMEN SABASTIA DE LA PRESA                                              000000000000000000N
041987061080019000002028TARTURO VIADER SANTIAGO                                                      000000000000000000N
041987061080019000002029TRAMON JESUS GELONCH MARTINEZ                                                000000000000000000N
041987061080019000002030TJAVIER MULLERAS VINZIA                                                      000000000000000000N
041987061080019000002031TM. DEL CARMEN GUADALUPE CORREDOIRA RODRIGUEZ                                000000000000000000N
041987061080019000002032TBERNARDO ENRIQUE BAIGET GARCIA-CUERVO                                       000000000000000000N
041987061080019000002033TEMILIANO JIMENEZ LEON                                                       000000000000000000N
041987061080019000002034TJUAN JOSE PRIETO CONTRERAS                                                  000000000000000000N
041987061080019000002035TLUIS ANTONIO MARTIN DOMINGUEZ                                               000000000000000000N
041987061080019000002036TALFONSO BERROCAL PUIG                                                       000000000000000000N
041987061080019000002037TELISEO MARTINEZ RODRIGUEZ                                                   000000000000000000N
041987061080019000002038TM. DOLORES AUSIN MINCHERO                                                   000000000000000000N
041987061080019000002039TM. JESUS LOPEZ-PRIETO PAHINO                                                000000000000000000N
041987061080019000002040TCONSUELO IZQUIERDO PASCUAL                                                  000000000000000000N
041987061320054000038022TJAVIER LAGO COLLAZO                                                         000000000000000000N
041987061320054000038023TM. CARMEN VARA PEREZ                                                        000000000000000000N
041987061320054000038024TALVARO BLANCO BLANCO                                                        000000000000000000N
041987061320054000038025TIRENE LASO PARADELA                                                         000000000000000000N
041987061320054000038026TMANUEL RAMOS RAMOS                                                          000000000000000000N
041987061320054000038027TM. MERCEDES GOMEZ DUARTE                                                    000000000000000000N
041987061320054000047001TMANUEL PEÑA-REY BOUZAS                                                      000000000000000000N
041987061320054000047002TMANUEL VILLAR FERNANDEZ                                                     000000000000000000N
041987061320054000047003TJOSE GOMEZ GOMEZ                                                            000000000000000000N
041987061320054000047004TM. ANGELES FERNANDEZ TOVAR                                                  000000000000000000N
041987061320054000047005TLUIS SERGIO PAZOS HUETE                                                     000000000000000000N
041987061320054000047006TJOSE LUIS GOMEZ LLAMAS                                                      000000000000000000N
041987061320054000047007TAVELINO F. RODRIGUEZ HERNANDEZ                                              000000000000000000N
041987061320054000047008TCRISTINA DE LORENZO GONZALEZ                                                000000000000000000N
041987061320054000047009TRICARDO FERNANDEZ CERREDA                                                   000000000000000000N
041987061320054000047010TJESUS ALVAREZ ALVAREZ                                                       000000000000000000N
041987061320054000047011TJOSE MANUEL MIGUEZ SUAREZ                                                   000000000000000000N
041987061320054000047012TM. DOLORES ALONSO REVERTER                                                  000000000000000000N
041987061320054000047013TTORIBIO GARCIA DE DIOS                                                      000000000000000000N
041987061320054000047014TARISTIDES ALVAREZ ARCE                                                      000000000000000000N
041987061320054000047015TDANIEL LUIS SEOANE ENCINAS                                                  000000000000000000N
041987061320054000047016TAURORA VAZQUEZ GONZALEZ                                                     000000000000000000N
041987061320054000047017TJULIA BERNARDO DE QUIROS ARIAS                                              000000000000000000N
041987061320054000047018TCLEMENTE JIMENEZ AISA                                                       000000000000000000N
041987061320054000047019TJOSE CARLOS LOPEZ LOSADA                                                    000000000000000000N
041987061320054000047020TMANUEL NOVOA GONZALEZ                                                       000000000000000000N
041987061320054000047021TJOSE ANTONIO MOURIN GONZALEZ                                                000000000000000000N
041987061320054000047022TJOSE ARIAS CARBALLO                                                         000000000000000000N
041987061320054000047023TARTEMIA DIEGUEZ PEREZ                                                       000000000000000000N
041987061320054000047024TANA M. GARRIDO RODRIGUEZ                                                    000000000000000000N
041987061320054000047025TMANUELA GARCIA RUIZ                                                         000000000000000000N
041987061320054000047026TFRANCISCO MAGIDE BIZARRO                                                    000000000000000000N
041987061320054000047027TAUGUSTO VALENCIA TEIJEIRO                                                   000000000000000000N
041987061320054000061001TLUIS IGLESIAS ALVAREZ                                                       000000000000000000N
041987061320054000061002TLUIS FAJARDO OTERO                                                          000000000000000000N
041987061320054000061003TMARIA ALVAREZ GIL                                                           000000000000000000N
041987061320054000061004TGIL GARROTE PEREZ                                                           000000000000000000N
041987061320054000061005TCARLOS A. OTERO MARTINEZ                                                    000000000000000000N
041987061320054000061006TRICARDO VAQUEIRO BRETAÑA                                                    000000000000000000N
041987061320054000061007TCESAR GARCIA IGLESIAS                                                       000000000000000000N
041987061320054000061008TM. DEL CAMPO MONSE REY PEREZ                                                000000000000000000N
041987061320054000061009TRAFAEL GIL RIBAO                                                            000000000000000000N
041987061320054000061010TEDUARDO CEBREIROS LORENZO                                                   000000000000000000N
041987061320054000061011TJAIME GIL GIL                                                               000000000000000000N
041987061320054000061012TENRIQUE GARCIA RODRIGUEZ                                                    000000000000000000N
041987061320054000061013TPEJERTO G. ZARAGOZA GONZALEZ                                                000000000000000000N
041987061320054000061014TJUAN MANUEL RUA SANTOS                                                      000000000000000000N
041987061320054000061015TEVARISTO VAZQUEZ GONZALEZ                                                   000000000000000000N
041987061320054000061016TJOSE CONDE GALLEGO                                                          000000000000000000N
041987061320054000061017TJOSE GOYANES MONTES                                                         000000000000000000N
041987061320054000061018TJOSE IGNACIO DOMINGUEZ DIAZ                                                 000000000000000000N
041987061320054000061019TARTURO DOVAL DO OLMO                                                        000000000000000000N
041987061320054000061020TBENIGNO FERNANDEZ CAMPOS                                                    000000000000000000N
041987061320054000061021TGUMERSINDO LOPEZ GONZALEZ                                                   000000000000000000N
041987061320054000061022TDAVID QUINTAS FERNANDEZ                                                     000000000000000000N
041987061320054000061023TCELSA INES RODRIGUEZ SOTO                                                   000000000000000000N
041987061320054000061024TANTONIO LOPEZ DEL RIO                                                       000000000000000000N
041987061320054000061025TSABINO RODRIGUEZ HERMIDA                                                    000000000000000000N
041987061320054000061026TABELARDO RODRIGUEZ FERNANDEZ                                                000000000000000000N
041987061320054000061027TRICARDO SALGADO PEREIRA                                                     000000000000000000N
041987061090059000037019TTOMAS DUQUE GARCIA                                                          000000000000000000N
041987061090059000037020TINDALECIO DE CASTRO SAINZ                                                   000000000000000000N
041987061090059000037021TANGELA GUERRA CANTERP                                                       000000000000000000N
041987061090059000037022TROSA RUBIO DIAZ                                                             000000000000000000N
041987061090059000037023TBENIGNA SANCHEZ TORCIDA                                                     000000000000000000N
041987061090059000037024TJUAN ANTONIO FERNANDEZ PACHECO LOPEZ                                        000000000000000000N
041987061090059000037025TEUSEBIO LORENZO CAMPOS                                                      000000000000000000N
041987061090059000037026TVICTORINA RODRIGUEZ HOLGUIN                                                 000000000000000000N
041987061090059000037027TVICENTE SANZ ROSON                                                          000000000000000000N
041987061090059000038001TMARIA ANGELES CAMPOS DEL RIO                                                000000000000000000N
041987061090059000038002TJUAN CARLOS PALAZUELOS CALVO                                                000000000000000000N
041987061090059000038003TMARIA DEL CARMEN SERRANO RODRIGUEZ                                          000000000000000000N
041987061090059000038004TCARMEN DE LA TORRE DE LA CRUZ                                               000000000000000000N
041987061090059000038005TMARIA BELEN ORTEGA ROJO                                                     000000000000000000N
041987061090059000038006TFELIX GABRIEL ORTEGA RODRIGUEZ                                              000000000000000000N
041987061090059000038007TJOSE ANTONIO LUIS DE LA TORRE                                               000000000000000000N
041987061090059000038008TINES IBAÑEZ SANTANA                                                         000000000000000000N
041987061090059000038009TTEODULO CARRILLO PEREZ                                                      000000000000000000N
041987061090059000038010TMARIA SOCORRO MERINO SAN JOSE                                               000000000000000000N
041987061090059000038011TMARIA VICTORIA ALVAREZ SANCHEZ                                              000000000000000000N
041987061090059000038012TAGUSTIN CARLOS HERNANDO MERINO                                              000000000000000000N
041987061090059000038013TGABRIEL DUQUE PEREZ                                                         000000000000000000N
041987061090059000038014TMARIA TERESA HERNAN-PEREZ BURON                                             000000000000000000N
041987061090059000038015TVICTORIANO TOMAS PASTOR BLANCO                                              000000000000000000N
041987061090059000038016TBLANCA ISABEL CASAS MISIEGO                                                 000000000000000000N
041987061090059000038017TMARIA BEGOÑA CARRASCAL PARRA                                                000000000000000000N
041987061090059000038018TJUAN CARLOS ORTEGA ROJO                                                     000000000000000000N
041987061090059000038019TPILAR DE LA TORRE DE LA CRUZ                                                000000000000000000N
041987061090059000038020TANA ISABEL VARONA GONZALEZ                                                  000000000000000000N
041987061090059000038021TMARCELO SANCHEZ GARCIA                                                      000000000000000000N
041987061090059000038022TFRANCISCO JAVIER ORTEGA ROJO                                                000000000000000000N
041987061090059000038023TTEODORO MANUEL ESTEBAN ABON                                                 000000000000000000N
041987061090059000038024TPEDRO GONZALEZ BEATO                                                        000000000000000000N
