101987061094316199VALLS                                                                                               016116100000052923000790004122300041223000000000000000000000000000000000000076500000550000278120030000000000000000N
101987061082411599PONFERRADA                                                                                          011511500000159159002190011883500118835000000000000000000000000000000000000076000001319000780730080000000000000000N
101987061174625099VALENCIA                                                                                            025025000001260744011890092870200929528000000000000000000000000000000000000733100009711006616040190000000000000000N
101987061083407299FRECHILLA                                                                                           007207200000010850000310000888400008884000000000000000000000000000000000000003300000114000071860010000000000000000N
101987061011405299PEÑARROYA-PUEBLONUEVO                                                                               005205200000045313000520003490500034905000000000000000000000000000000000000022000000307000247540020000000000000000N
101987061090818799SABADELL                                                                                            018718700000365485002800025334900253349000000000000000000000000000000000000198500001472001707070040000000000000000N
101987061090829899VIC                                                                                                 029829800000111090001240008528800085288000000000000000000000000000000000000162800001058000558340010000000000000000N
101987061112701699CHANTADA                                                                                            001601600000040313000530003342400033424000000000000000000000000000000000000007100000132000202870020000000000000000N
101987061011101299CADIZ                                                                                               001201200000155299001050011063100110631000000000000000000000000000000000000072600001437000591130050000000000000000N
101987061083405699CERVERA DE PISUERGA                                                                                 005605600000034889000530002771600027716000000000000000000000000000000000000025800000364000196180050000000000000000N
101987061011814799ORGIVA                                                                                              014714700000054221000710004149200041492000000000000000000000000000000000000035300000292000288140020000000000000000N
101987061090802299BERGA                                                                                               002202200000050373000740003997500039975000000000000000000000000000000000000040100000420000288780010000000000000000N
101987061092512099LLEIDA                                                                                              012012000000166194001710012837400128374000000000000000000000000000000000000121900000718000832370120000000000000000N
101987061100615899ZAFRA                                                                                               015815800000062328000760004676200046762000000000000000000000000000000000000031500000377000363920030000000000000000N
101987061022212599HUESCA                                                                                              012512500000075360001240005973900059739000000000000000000000000000000000000092800000845000405920090000000000000000N
101987061074516599TALAVERA DE LA REINA                                                                                016516500000130650001540009875200098752000000000000000000000000000000000000074200001329000738990070000000000000000N
101987061011405499POZOBLANCO                                                                                          005405400000044653000440003477500034775000000000000000000000000000000000000014000000233000274900010000000000000000N
101987061092524399VIELHA E MIJARAN                                                                                    024324300000006043000140000481100004811000000000000000000000000000000000000004400000027000029340010000000000000000N
101987061094314899TARRAGONA                                                                                           014814800000135894001520009990700099907000000000000000000000000000000000000081400000740000646270070000000000000000N
101987061012300599ANDUJAR                                                                                             000500500000073253000720005217100052171000000000000000000000000000000000000018900000295000393080030000000000000000N
101987061084017099RIAZA                                                                                               017017000000005728000240000487000004870000000000000000000000000000000000000011300000115000034140010000000000000000N
101987061101013199NAVALMORAL DE LA MATA                                                                               013113100000055854000670004260800042608000000000000000000000000000000000000038500000420000311250030000000000000000N
101987061174614599XATIVA                                                                                              014514500000114374001170008582100085821000000000000000000000000000000000000094800000931000688900020000000000000000N
101987061174621399REQUENA                                                                                             021321300000086537001030006545400065454000000000000000000000000000000000000049000000647000497550010000000000000000N
101987061100608399MERIDA                                                                                              008308300000108504001110007651700076517000000000000000000000000000000000000051000000620000549030040000000000000000N
101987061101019599TRUJILLO                                                                                            019519500000056993000710004429600044296000000000000000000000000000000000000050600000429000334110030000000000000000N
101987061012300299ALCALA LA REAL                                                                                      000200200000040283000460003064000030640000000000000000000000000000000000000007900000211000225090020000000000000000N
101987061011400799BAENA                                                                                               000700700000023839000200001717600017176000000000000000000000000000000000000005600000118000126650010000000000000000N
101987061011402199CORDOBA                                                                                             002102100000361802003690026103200261032000000000000000000000000000000000000130100001644001749260130000000000000000N
101987061091714199PUIGCERDA                                                                                           014114100000037913000640002996100029961000000000000000000000000000000000000036800000280000219520020000000000000000N
101987061094316399VENDRELL (EL)                                                                                       016316300000046291000510003393100033931000000000000000000000000000000000000072300000387000244570020000000000000000N
101987061012105499PALMA DEL CONDADO (LA)                                                                              005405400000062154000570004593600045936000000000000000000000000000000000000025000000258000326080040000000000000000N
101987061080905699BRIVIESCA                                                                                           005605600000012140000490001030300010303000000000000000000000000000000000000023600000229000067330020000000000000000N
101987061011102099JEREZ DE LA FRONTERA                                                                                002002000000179191001750012295500122955000000000000000000000000000000000000049700001544000766530050000000000000000N
101987061174622099SAGUNTO                                                                                             022022000000118019001070008745400087454000000000000000000000000000000000000104300001165000638870020000000000000000N
101987061011400299AGUILAR                                                                                             000200200000044999000390003256600032566000000000000000000000000000000000000011000000277000246260020000000000000000N
101987061071305399MANZANARES                                                                                          005305300000043557000490003224800032248000000000000000000000000000000000000024600000277000216490020000000000000000N
101987061080901899ARANDA DE DUERO                                                                                     001801800000049236000930003802600038026000000000000000000000000000000000000092200000812000248920030000000000000000N
101987061090812199MATARO                                                                                              012112100000194966001920014282000142820000000000000000000000000000000000000104600000975000963780020000000000000000N
101987061100615399VILLANUEVA DE LA SERENA                                                                             015315300000048733000520003533500035335000000000000000000000000000000000000027100000411000270320020000000000000000N
101987061101020399VALENCIA DE ALCANTARA                                                                               020320300000012728000140000971800009718000000000000000000000000000000000000004500000062000067680010000000000000000N
101987061014106099MARCHENA                                                                                            006006000000041462000420002891400028914000000000000000000000000000000000000021200000365000197060010000000000000000N
101987061071620399TARANCON                                                                                            020320300000049132000720003944500039445000000000000000000000000000000000000058500000624000306550060000000000000000N
101987061113201999CARBALLIÑO (O)                                                                                      001901900000039153000490003188000031880000000000000000000000000000000000000009400000109000186740020000000000000000N
101987061012908499RONDA                                                                                               008408400000056297000510004104300041043000000000000000000000000000000000000021500000479000267170020000000000000000N
101987061084718699VALLADOLID                                                                                          018618600000415903005180030833100308331000000000000000000000000000000000000343400003781002190220150000000000000000N
101987061092505899BORGES BLANQUES (LES)                                                                               005805800000021693000260001760600017606000000000000000000000000000000000000029200000195000118490010000000000000000N
101987061070200999ALMANSA                                                                                             000900900000041319000370003057400030574000000000000000000000000000000000000030500000267000229520030000000000000000N
101987061084708699MEDINA DE RIOSECO                                                                                   008608600000026195000710002164900021649000000000000000000000000000000000000051700000479000164120030000000000000000N
101987061101003799CACERES                                                                                             003703700000130567001390009829400098294000000000000000000000000000000000000082100001025000726160080000000000000000N
101987061112703199MONFORTE DE LEMOS                                                                                   003103100000055096000770004558200045582000000000000000000000000000000000000010600000193000274830030000000000000000N
101987061113602499LALIN                                                                                               002402400000051818000860004064000040640000000000000000000000000000000000000008700000157000258820020000000000000000N
101987061113605799VIGO                                                                                                005705700000327846003460023658500236585000000000000000000000000000000000000115800001203001518340100000000000000000N
101987061170300999ALCOY                                                                                               000900900000119783001290008813600088136000000000000000000000000000000000000082200000832000636620030000000000000000N
101987061171208099MORELLA                                                                                             008008000000009793000200000809900008099000000000000000000000000000000000000038000000233000049370010000000000000000N
101987061012302899CAZORLA                                                                                             002802800000039311000440002874300028743000000000000000000000000000000000000008100000179000202310020000000000000000N
101987061070200399ALBACETE                                                                                            000300300000171098001610011887800118878000000000000000000000000000000000000105200001085000820410120000000000000000N
101987061074517399TORRIJOS                                                                                            017317300000056830000610004373800043738000000000000000000000000000000000000032800000509000354220030000000000000000N
101987061011403899LUCENA                                                                                              003803800000056049000510004045600040456000000000000000000000000000000000000014800000218000296610020000000000000000N
101987061090810299IGUALADA                                                                                            010210200000080322000880005950000059500000000000000000000000000000000000000055900000526000435510010000000000000000N
101987061111503099A CRUÑA                                                                                             003003000000309430003510024194400241944000000000000000000000000000000000000162400001946001389330090000000000000000N
101987061025025199TARAZONA                                                                                            025125100000025389000490002063700020637000000000000000000000000000000000000035800000398000153570020000000000000000N
101987061091702299BISBAL D'EMPORDA (LA)                                                                               002202200000080896001060006033800060338000000000000000000000000000000000000081300000558000411000040000000000000000N
101987061113200999BARCO DE VALDEORRAS O                                                                               000900900000029610000320002292600022926000000000000000000000000000000000000009500000138000143360020000000000000000N
101987061080990399VILLARCAYO MERINDAD DE CV                                                                           090390300000027116000400002080200020802000000000000000000000000000000000000024000000304000146140020000000000000000N
101987061090827999TERRASSA                                                                                            027927900000269757003020019602400196024000000000000000000000000000000000000153800001128001269930030000000000000000N
101987061091707999GIRONA                                                                                              007907900000157493001820011534400115344000000000000000000000000000000000000149800001208000760490080000000000000000N
101987061113205499OURENSE                                                                                             005405400000228540002600018635600186356000000000000000000000000000000000000076200000945001019350130000000000000000N
101987061113208599VERIN                                                                                               008508500000046365000470003374600033746000000000000000000000000000000000000007100000101000197080030000000000000000N
101987061070206999RODA (LA)                                                                                           006906900000054332000510004028500040285000000000000000000000000000000000000028900000365000307640040000000000000000N
101987061080919499LERMA                                                                                               019419400000017084000540001456000014560000000000000000000000000000000000000055200000376000089260020000000000000000N
101987061113601799LA ESTRADA                                                                                          001701700000038476000570002839800028398000000000000000000000000000000000000011000000103000155220010000000000000000N
101987061174614799LLIRIA                                                                                              014714700000087556000980006654600066546000000000000000000000000000000000000086400000865000511990010000000000000000N
101987061090809699GRANOLLERS                                                                                          009609600000220699002310015953900159539000000000000000000000000000000000000189400001450001070650020000000000000000N
101987061112702899LUGO                                                                                                002802800000160210001710013201500132015000000000000000000000000000000000000058500000836000861310100000000000000000N
101987061113605599TUY                                                                                                 005505500000080752000870005707000057070000000000000000000000000000000000000022100000277000399390020000000000000000N
101987061071300599ALCAZAR DE SAN JUAN                                                                                 000500500000102555001280007643900076439000000000000000000000000000000000000050200000684000530990050000000000000000N
101987061010410099VERA                                                                                                010010000000039932000340002778900027789000000000000000000000000000000000000041000000203000194400030000000000000000N
101987061171200399ALBOCACER                                                                                           000300300000011354000190000959500009595000000000000000000000000000000000000026600000246000069820010000000000000000N
101987061024421699TERUEL                                                                                              021621600000062281001540005028000050280000000000000000000000000000000000000120200000759000334200100000000000000000N
101987061011808999GUADIX                                                                                              008908900000054902000540003948200039482000000000000000000000000000000000000016800000301000265390020000000000000000N
101987061171208299NULES                                                                                               008208200000106451001190007869000078690000000000000000000000000000000000000064200000926000623760060000000000000000N
101987061174613199GANDIA                                                                                              013113100000117162001130008706500087065000000000000000000000000000000000000071400000617000683250020000000000000000N
101987061024401399ALCAÑIZ                                                                                             001301300000059839000830004805400048054000000000000000000000000000000000000068900000455000330700100000000000000000N
101987061083710799CIUDAD RODRIGO                                                                                      010710700000041766000700003249400032494000000000000000000000000000000000000042700000465000230570030000000000000000N
101987061090830799VILANOVA I LA GELTRU                                                                                030730700000073209000730005533900055339000000000000000000000000000000000000031600000436000380470010000000000000000N
101987061071303499CIUDAD REAL                                                                                         003403400000128417001580009420300094203000000000000000000000000000000000000054100000881000661140070000000000000000N
101987061071303999DAIMIEL                                                                                             003903900000031353000360002336500023365000000000000000000000000000000000000019300000164000171110020000000000000000N
101987061082408999LEON                                                                                                008908900000242260003170018486900184869000000000000000000000000000000000000187500002443001284000120000000000000000N
101987061113603899PONTEVEDRA                                                                                          003803800000234056002470017021400170214000000000000000000000000000000000000076900001292001079840070000000000000000N
101987061012309599VILLACARRILLO                                                                                       009509500000069394000770005277900052779000000000000000000000000000000000000020400000298000376790030000000000000000N
101987061011404299MONTILLA                                                                                            004204200000054581000510003953900039539000000000000000000000000000000000000019400000302000315460020000000000000000N
101987061090810199L'HOSPITALET DE LLOBREGAT                                                                           010110100000617209005860044816000448160000000000000000000000000000000000000299000003034002835970070000000000000000N
101987061022204899BARBASTRO                                                                                           004804800000069290001110005576500055765000000000000000000000000000000000000092100001190000367140080000000000000000N
101987061083404799CARRION DE LOS CONDES                                                                               004704700000012494000320001033700010337000000000000000000000000000000000000001600000136000080650020000000000000000N
101987061011100699ARCOS DE LA FRONTERA                                                                                000600600000116228001170007860600078606000000000000000000000000000000000000036400000552000561130030000000000000000N
101987061011405399POSADAS                                                                                             005305300000056672000550004006700040067000000000000000000000000000000000000012100000275000296420020000000000000000N
101987061111500999BETANZOS                                                                                            000900900000077294001150006234000062340000000000000000000000000000000000000028800000397000424880020000000000000000N
101987061170306599ELCHE-ELX                                                                                           006506500000241949002250016680200166802000000000000000000000000000000000000084700000821001184400060000000000000000N
101987061170314099VILLENA                                                                                             014014000000058293000540004201800042018000000000000000000000000000000000000040300000297000319230020000000000000000N
101987061024405099CALAMOCHA                                                                                           005005000000027303000740002226500022265000000000000000000000000000000000000043200000366000143580050000000000000000N
101987061071607899CUENCA                                                                                              007807800000082245001660006534100065341000000000000000000000000000000000000078200000742000476290100000000000000000N
101987061092507299CERVERA                                                                                             007207200000037312000560002977400029774000000000000000000000000000000000000040900000243000204780030000000000000000N
101987061112701899FONSAGRADA                                                                                          001801800000015933000230001329600013296000000000000000000000000000000000000002700000038000083210010000000000000000N
101987061170306699ELDA                                                                                                006606600000147045001690010582600105826000000000000000000000000000000000000066600000914000773470040000000000000000N
101987061071307199PUERTOLLANO                                                                                         007107100000100604001300007650800076508000000000000000000000000000000000000057100000821000534040050000000000000000N
101987061090800699ARENYS DE MAR                                                                                       000600600000094332000980006906200069062000000000000000000000000000000000000096500000689000482550010000000000000000N
101987061091706699FIGUERES                                                                                            006606600000077584001190005780800057808000000000000000000000000000000000000074400000657000385590040000000000000000N
101987061092520999SORT                                                                                                020920900000005668000130000492000004920000000000000000000000000000000000000005100000025000035920010000000000000000N
101987061014109199SEVILLA                                                                                             009109100000989242011020070775400708725000000000000000000000000000000000000381200005083004497350190000000000000000N
101987061022206699BOLTAÑA                                                                                             006606600000010140000310000845600008456000000000000000000000000000000000000026600000152000058090020000000000000000N
101987061025009499DAROCA                                                                                              009409400000019613000600001669600016696000000000000000000000000000000000000037900000237000112880010000000000000000N
101987061074512499ORGAZ                                                                                               012412400000066407000530005029600050296000000000000000000000000000000000000049100000671000392970020000000000000000N
101987061082405699CISTIERNA                                                                                           005605600000019101000270001552000015520000000000000000000000000000000000000013300000286000102410010000000000000000N
101987061084708599MEDINA DEL CAMPO                                                                                    008508500000048995000760003787600037876000000000000000000000000000000000000050400000481000287370070000000000000000N
101987061070200899ALCARAZ                                                                                             000800800000021503000260001657600016576000000000000000000000000000000000000010000000204000129160020000000000000000N
101987061074514299QUINTANAR DE LA ORDEN                                                                               014214200000047329000400003625400036254000000000000000000000000000000000000023000000300000290740020000000000000000N
101987061012306099MARTOS                                                                                              006006000000052534000560003903200039032000000000000000000000000000000000000018100000232000310450020000000000000000N
101987061080501999AVILA                                                                                               001901900000088143001210006809700068097000000000000000000000000000000000000083200000953000495930120000000000000000N
101987061011103199SAN FERNANDO                                                                                        003103100000106141001170007130900071309000000000000000000000000000000000000032800000551000417550030000000000000000N
101987061011103399SAN ROQUE                                                                                           003303300000090898000920006203200062032000000000000000000000000000000000000043100000431000389870030000000000000000N
101987061170313999VILLAJOYOSA                                                                                         013913900000093775000760006039500060395000000000000000000000000000000000000037500000440000427990020000000000000000N
101987061082400899ASTORGA                                                                                             000800800000050311000660004072300040723000000000000000000000000000000000000049600000798000278860030000000000000000N
101987061092520799SOLSONA                                                                                             020720700000017649000260001418600014186000000000000000000000000000000000000037500000145000087520010000000000000000N
101987061101006799CORIA                                                                                               006706700000053742000670003986600039866000000000000000000000000000000000000025700000438000295310030000000000000000N
101987061012309299UBEDA                                                                                               009209200000060527000600004340400043404000000000000000000000000000000000000023900000257000324510030000000000000000N
101987061014103999ECIJA                                                                                               003903900000049431000560003514500035145000000000000000000000000000000000000009500000204000240970010000000000000000N
101987061084902199BENAVENTE                                                                                           002102100000043966000850003487900034879000000000000000000000000000000000000037700000556000265410050000000000000000N
101987061012300999BAEZA                                                                                               000900900000028369000310002095600020956000000000000000000000000000000000000008000000153000160920010000000000000000N
101987061082401099BAÑEZA (LA)                                                                                         001001000000046831000650003800700038007000000000000000000000000000000000000046000000661000265880020000000000000000N
101987061113206999RIBADAVIA                                                                                           006906900000028782000340002323600023236000000000000000000000000000000000000005900000152000136900020000000000000000N
101987061012906999MARBELLA                                                                                            006906900000196025001310011276600112766000000000000000000000000000000000000065200000817000713500050000000000000000N
101987061022211299FRAGA                                                                                               011211200000026978000320002130700021307000000000000000000000000000000000000022200000346000145190030000000000000000N
101987061092504099BALAGUER                                                                                            004004000000060572000750004798500047985000000000000000000000000000000000000061000000397000340840040000000000000000N
101987061101014899PLASENCIA                                                                                           014814800000110483001170008273100082731000000000000000000000000000000000000061200000693000603550070000000000000000N
101987061113200699BANDE                                                                                               000600600000029429000360002056900020569000000000000000000000000000000000000004000000055000110210020000000000000000N
101987061070203799HELLIN                                                                                              003703700000057965000690004429500044295000000000000000000000000000000000000025200000380000305440040000000000000000N
101987061083704699BEJAR                                                                                               004604600000040250000740003246900032469000000000000000000000000000000000000058100000577000224120030000000000000000N
101987061084921999TORO                                                                                                021921900000021841000390001741200017412000000000000000000000000000000000000028600000299000131890020000000000000000N
101987061025006799CALATAYUD                                                                                           006706700000051297001030004216300042163000000000000000000000000000000000000083500000548000289120040000000000000000N
101987061011812299LOJA                                                                                                012212200000076846000850005734400057344000000000000000000000000000000000000022600000479000401810030000000000000000N
101987061084019499SEGOVIA                                                                                             019419400000083027001040006358300063583000000000000000000000000000000000000148500001045000433080140000000000000000N
101987061111501999CARBALLO                                                                                            001901900000077360000890006113200061132000000000000000000000000000000000000019400000299000371420020000000000000000N
101987061113206399PUEBLA DE TRIVES                                                                                    006306300000027503000380002213100022131000000000000000000000000000000000000007900000085000137510010000000000000000N
101987061174618499ONTINYENT                                                                                           018418400000061241000610004472000044720000000000000000000000000000000000000101600000719000350990010000000000000000N
101987061012305099JAEN                                                                                                005005000000173653001670012493500124935000000000000000000000000000000000000051800000860000894850070000000000000000N
101987061071925799SIGUENZA                                                                                            025725700000014854000780001256200012562000000000000000000000000000000000000013300000171000084860060000000000000000N
101987061090830599VILAFRANCA DEL PENEDES                                                                              030530500000060840000650004646300046463000000000000000000000000000000000000054600000588000332420010000000000000000N
101987061174601799ALZIRA                                                                                              001701700000158809001610011698500116985000000000000000000000000000000000000073700000989000890980020000000000000000N
101987061012901599ANTEQUERA                                                                                           001501500000111886001000008253200082532000000000000000000000000000000000000040600000610000556100030000000000000000N
101987061083401799ASTUDILLO                                                                                           001701700000007699000210000635700006357000000000000000000000000000000000000002700000110000049620010000000000000000N
101987061012100799ARACENA                                                                                             000700700000045641000600003557700035577000000000000000000000000000000000000040700000424000227070030000000000000000N
101987061091711499OLOT                                                                                                011411400000045592000710003640000036400000000000000000000000000000000000000066800000452000235030020000000000000000N
101987061092520399SEU D'URGELL (LA)                                                                                   020320300000019688000330001643200016432000000000000000000000000000000000000018500000129000092150010000000000000000N
101987061100607099JEREZ DE LOS CABALLEROS                                                                             007007000000031643000340002401600024016000000000000000000000000000000000000015400000173000178720010000000000000000N
101987061170309999ORIHUELA                                                                                            009909900000132255001280009292400092924000000000000000000000000000000000000042200000424000729250030000000000000000N
101987061171210099SAN MATEO                                                                                           010010000000013387000150001095900010959000000000000000000000000000000000000004700000125000095170010000000000000000N
101987061084019599SEPULVEDA                                                                                           019519500000014911000530001243000012430000000000000000000000000000000000000033100000246000084240020000000000000000N
101987061092523499TREMP                                                                                               023423400000017239000280001422600014226000000000000000000000000000000000000017800000144000093360010000000000000000N
101987061100601199ALMENDRALEJO                                                                                        001101100000064869000710004686100046861000000000000000000000000000000000000027900000310000364530030000000000000000N
101987061071308799VALDEPEÑAS                                                                                          008708700000046021000530003521700035217000000000000000000000000000000000000028400000391000248710020000000000000000N
101987061010405399HUERCAL-OVERA                                                                                       005305300000075008000860005499900054999000000000000000000000000000000000000025400000359000390560040000000000000000N
101987061025007499CASPE                                                                                               007407400000020329000270001660600016606000000000000000000000000000000000000034600000397000110410010000000000000000N
101987061012104199HUELVA                                                                                              004104100000188862001690013297300132973000000000000000000000000000000000000077800000907000753410110000000000000000N
101987061100605099FREGENAL DE LA SIERRA                                                                               005005000000018600000220001454200014542000000000000000000000000000000000000010000000132000106040010000000000000000N
101987061014103299CAZALLA DE LA SIERRA                                                                                003203200000027788000330002124200021242000000000000000000000000000000000000030800000311000149200010000000000000000N
101987061084927599ZAMORA                                                                                              027527500000127960001990010195200101952000000000000000000000000000000000000109100001787000705440140000000000000000N
101987061090811399MANRESA                                                                                             011311300000143749001680011149600111496000000000000000000000000000000000000108600000912000793820010000000000000000N
101987061171214099VIVER                                                                                               014014000000008545000250000722000007220000000000000000000000000000000000000022500000182000051020010000000000000000N
101987061091718099SANTA COLOMA DE FARNERS                                                                             018018000000088864000930006495000064950000000000000000000000000000000000000082300000537000453190050000000000000000N
101987061012302499CAROLINA (LA)                                                                                       002402400000052124000560003678300036783000000000000000000000000000000000000013100000173000292110020000000000000000N
101987061082413999SAHAGUN                                                                                             013913900000013321000260001134000011340000000000000000000000000000000000000013700000162000082820010000000000000000N
101987061011101599CHICLANA DE LA FRONTERA                                                                             001501500000091055000850005957200059572000000000000000000000000000000000000020200000255000348310030000000000000000N
101987061084916699PUEBLA DE SANABRIA                                                                                  016616600000015254000320001280000012800000000000000000000000000000000000000006200000117000092680020000000000000000N
101987061014106899OSUNA                                                                                               006806800000077404000790005522400055224000000000000000000000000000000000000031700000536000428530020000000000000000N
101987061074516899TOLEDO                                                                                              016816800000146280001340010704200107042000000000000000000000000000000000000106200001157000799820090000000000000000N
101987061171207299LUCENA DEL CID                                                                                      007207200000019568000340001574100015741000000000000000000000000000000000000021500000249000116630010000000000000000N
101987061170306399DENIA                                                                                               006306300000101608000990006853800068538000000000000000000000000000000000000045700000597000537530030000000000000000N
101987061014105599LORA DEL RIO                                                                                        005505500000059289000620004251600042516000000000000000000000000000000000000014100000256000323840010000000000000000N
101987061014109599UTRERA                                                                                              009509500000180248001850011924700119247000000000000000000000000000000000000054500000677000806730040000000000000000N
101987061074512199OCAÑA                                                                                               012112100000038698000330002987700029877000000000000000000000000000000000000023800000320000248210020000000000000000N
101987061010402999BERJA                                                                                               002902900000071239000590004769500047695000000000000000000000000000000000000013400000246000298280040000000000000000N
101987061011814099MOTRIL                                                                                              014014000000084408000630005848100058481000000000000000000000000000000000000020200000298000391850030000000000000000N
101987061084202099ALMAZAN                                                                                             002002000000018439000560001520900015209000000000000000000000000000000000000028500000353000101800050000000000000000N
101987061171204099CASTELLON                                                                                           004004000000206635002250015288200152882000000000000000000000000000000000000126200001472001094920110000000000000000N
101987061171213899VINAROZ                                                                                             013813800000042894000500003246300032463000000000000000000000000000000000000022100000255000242180020000000000000000N
101987061011103299SANLUCAR DE BARRAMEDA                                                                               003203200000073265000760004852000048520000000000000000000000000000000000000014600000321000308790020000000000000000N
101987061011802399BAZA                                                                                                002302300000069222000680005173600051736000000000000000000000000000000000000016000000269000312880020000000000000000N
101987061011808799GRANADA                                                                                             008708700000443666003100032115800321158000000000000000000000000000000000000169400002986002138640150000000000000000N
101987061171210499SEGORBE                                                                                             010410400000017961000270001432500014325000000000000000000000000000000000000017500000246000120470010000000000000000N
101987061084204399BURGO DE OSMA-CIUDAD DE O                                                                           004304300000017835000420001472600014726000000000000000000000000000000000000028100000320000102240050000000000000000N
101987061100606399HERRERA DEL DUQUE                                                                                   006306300000028086000340002173400021734000000000000000000000000000000000000011700000190000167780010000000000000000N
101987061111502899CORCUBION                                                                                           002802800000058891000670004502000045020000000000000000000000000000000000000015000000283000279030020000000000000000N
101987061071913099GUADALAJARA                                                                                         013013000000119367002410009015700090157000000000000000000000000000000000000119700001215000670060150000000000000000N
101987061080905999BURGOS                                                                                              005905900000197941003260015168000151680000000000000000000000000000000000000122900001056001023030110000000000000000N
101987061111505799NOIA                                                                                                005705700000113042001170008435100084351000000000000000000000000000000000000037700000506000519570030000000000000000N
101987061112703099MONDOÑEDO                                                                                           003003000000092337001050007305600073056000000000000000000000000000000000000037900000760000463610060000000000000000N
101987061112706599VILLALBA                                                                                            006506500000040999000500003394700033947000000000000000000000000000000000000017300000217000213160030000000000000000N
101987061113604299PUENTEAREAS                                                                                         004204200000065100000910004836600048366000000000000000000000000000000000000016400000223000284100020000000000000000N
101987061014102499CARMONA                                                                                             002402400000057535000610004020400040204000000000000000000000000000000000000011200000202000298710010000000000000000N
101987061083737699VITIGUDINO                                                                                          037637600000028576000620002374700023747000000000000000000000000000000000000052000000873000167440030000000000000000N
101987061011102799PUERTO DE SANTA MARIA(EL)                                                                           002702700000108838001140007391900073919000000000000000000000000000000000000040600000538000404800030000000000000000N
101987061084018599SANTA MARIA DE NIEVA                                                                                018518500000017301000390001397700013977000000000000000000000000000000000000029900000350000103570030000000000000000N
101987061094315599TORTOSA                                                                                             015515500000130370001480010017100100171000000000000000000000000000000000000083000000848000721270070000000000000000N
101987061100603699CASTUERA                                                                                            003603600000040928000460003148400031484000000000000000000000000000000000000018100000171000232740020000000000000000N
101987061022213099JACA                                                                                                013013000000028326000540002246500022465000000000000000000000000000000000000039200000355000146310030000000000000000N
101987061071613499MOTILLA DEL PALANCAR                                                                                013413400000038166000530002945100029451000000000000000000000000000000000000039900000325000223930040000000000000000N
101987061080501699AREVALO                                                                                             001601600000028427000650002182900021829000000000000000000000000000000000000030400000323000167870040000000000000000N
101987061011100499ALGECIRAS                                                                                           000400400000123578001210008317500083175000000000000000000000000000000000000045600000630000491280040000000000000000N
101987061100601599BADAJOZ                                                                                             001501500000146819001750010592100105921000000000000000000000000000000000000069100001097000708080060000000000000000N
101987061170301499ALICANTE                                                                                            001401400000322571003490023194800231948000000000000000000000000000000000000148200002565001523740080000000000000000N
101987061012105099MOGUER                                                                                              005005000000028216000220001957800019578000000000000000000000000000000000000011200000106000139490010000000000000000N
101987061071309399VILLANUEVA D LOS INFANTES                                                                           009309300000031127000380002454000024540000000000000000000000000000000000000014800000239000191260020000000000000000N
101987061010401399ALMERIA                                                                                             001301300000256145002330017907700179077000000000000000000000000000000000000081400001380001143680140000000000000000N
101987061100604499DON BENITO                                                                                          004404400000047232000550003434000034340000000000000000000000000000000000000021100000271000257310020000000000000000N
101987061113600699CAMBADOS                                                                                            000600600000102366001090007371600073716000000000000000000000000000000000000037100000381000514390030000000000000000N
101987061071919099MOLINA                                                                                              019019000000012090000630001028200010282000000000000000000000000000000000000014000000158000070350040000000000000000N
101987061025029799ZARAGOZA                                                                                            029729700000671608008070051390900514239000000000000000000000000000000000000570000005111003415320160000000000000000N
101987061071619099SAN CLEMENTE                                                                                        019019000000043816000440003353400033534000000000000000000000000000000000000041200000400000247390050000000000000000N
101987061080933099SALAS DE LOS INFANTES                                                                               033033000000016483000540001389600013896000000000000000000000000000000000000046300000298000086820020000000000000000N
101987061083402299BALTANAS                                                                                            002202200000009558000270000800500008005000000000000000000000000000000000000002100000107000064110010000000000000000N
101987061083415799SALDAÑA                                                                                             015715700000017203000470001437600014376000000000000000000000000000000000000007800000161000105850020000000000000000N
101987061011405599PRIEGO DE CORDOBA                                                                                   005505500000027432000310002095000020950000000000000000000000000000000000000007000000123000140770010000000000000000N
101987061084217399SORIA                                                                                               017317300000061460001380004863000048630000000000000000000000000000000000000104000001128000314220150000000000000000N
101987061012906799MALAGA                                                                                              006706700000681887005760043786300438376000000000000000000000000000000000000173700003309002511670180000000000000000N
101987061080518699PIEDRAHITA                                                                                          018618600000028256000870002408000024080000000000000000000000000000000000000048300000436000165260040000000000000000N
101987061080921999MIRANDA DE EBRO                                                                                     021921900000039242000580003028100030281000000000000000000000000000000000000040500000461000191520030000000000000000N
101987061100609599OLIVENZA                                                                                            009509500000029044000270002091200020912000000000000000000000000000000000000010400000143000155450010000000000000000N
101987061012107299VALVERDE DEL CAMINO                                                                                 007207200000054181000580004197300041973000000000000000000000000000000000000047900000308000262020030000000000000000N
101987061083724699PEÑARANDA DE BRACAMONTE                                                                             024624600000027271000420002135700021357000000000000000000000000000000000000035900000235000167970030000000000000000N
101987061090821199SANT FELIU DE LLOBREGAT                                                                             021121100000235512002540016914400169144000000000000000000000000000000000000133500001096001163330030000000000000000N
101987061100607499LLERENA                                                                                             007407400000039267000380003024700030247000000000000000000000000000000000000019200000264000224130010000000000000000N
101987061011401399CABRA                                                                                               001301300000032165000300002348100023481000000000000000000000000000000000000013600000238000173480010000000000000000N
101987061094312399REUS                                                                                                012312300000155003001750011561200115612000000000000000000000000000000000000116900001139000749940080000000000000000N
101987061111507899SANTIAGO DE COMPOSTELA                                                                              007807800000261023002910019799900197999000000000000000000000000000000000000091900001131001206150070000000000000000N
101987061111503699FERROL                                                                                              003603600000212748002540016367500163675000000000000000000000000000000000000089200000884000968380060000000000000000N
101987061012305599LINARES                                                                                             005505500000057401000560004081400040814000000000000000000000000000000000000020500000223000274790020000000000000000N
101987061080501499ARENAS DE SAN PEDRO                                                                                 001401400000037091000370002916100029161000000000000000000000000000000000000024400000235000228990050000000000000000N
101987061084006399CUELLAR                                                                                             006306300000029667000530002397900023979000000000000000000000000000000000000054900000395000168490050000000000000000N
101987061025009599EJEA DE LOS CABALLEROS                                                                              009509500000036542000710002953800029538000000000000000000000000000000000000043400000345000209960030000000000000000N
101987061083412099PALENCIA                                                                                            012012000000096740000970007135000071350000000000000000000000000000000000000009000000945000513750130000000000000000N
101987061090801999BARCELONA                                                                                           001901900002096821028680162000201619982000000000000000000000000000000000000836100008675010838400230000000000000000N
101987061174623599SUECA                                                                                               023523500000074373000720005462100054621000000000000000000000000000000000000035100000424000409110010000000000000000N
101987061014106599MORON DE LA FRONTERA                                                                                006506500000058508000590004111500041115000000000000000000000000000000000000013000000252000290210010000000000000000N
101987061012101099AYAMONTE                                                                                            001001000000054941000480003750200037502000000000000000000000000000000000000018300000157000216800030000000000000000N
101987061084925099VILLALPANDO                                                                                         025025000000012985000310001082500010825000000000000000000000000000000000000019400000190000085270020000000000000000N
101987061012909499VELEZ-MALAGA                                                                                        009409400000104339000770006969500069695000000000000000000000000000000000000021500000356000488840030000000000000000N
101987061083727499SALAMANCA                                                                                           027427400000221422003300017076000170760000000000000000000000000000000000000251700002341001247650130000000000000000N
