0819870610719163LUZON                                                                                               1901900001180110910900000000000000000108205N
0819870610719175MAZARETE                                                                                            1901900001120110410400000000000000300105605N
0819870610719213PEDREGAL (EL)                                                                                       1901900001300110910900000000000000100508005N
0819870610719216PERALEJOS DE LAS TRUCHAS                                                                            1901900001910115715700000000000000500310905N
0819870610719223POVEDA DE LA SIERRA                                                                                 1901900001930116116100000000000000200114105N
0819870610716227VALDEMORO-SIERRA                                                                                    0780780002130119119100000000000000101613105N
0819870610719066CAÑIZAR                                                                                             1301300001310112212200000000000000000010705N
0919870610719254SELAS                                                                                               1901900000790107207200000000000000000003501N
0919870610716132MOTA DE ALTAREJOS                                                                                   0780780000870107507500000000000000000003401N
0919870610719008ALBENDIEGO                                                                                          2572570000740106506500000000000000000003301N
0919870610719050BARRIOPEDRO                                                                                         1301300000270102302300000000000000000001901N
0819870610716160PINEDA DE GIGUELA                                                                                   2032030002480121821800000000000001101310004N
0819870610716181ROZALEN DEL MONTE                                                                                   2032030001910117617600000000000000300013905N
0819870610716187SALINAS DEL MANZANO                                                                                 0780780001750116416400000000000000201308305N
0819870610719002ABLANQUE                                                                                            1301300001670115315300000000000000200510705N
0819870610719064CANREDONDO                                                                                          1301300001360112012000000000000000700908405N
0819870610719082CENTENERA                                                                                           1301300001030110110100000000000000200309005N
0819870610713095VILLAR DEL POZO                                                                                     0340340001010108108100000000000000000307305N
0819870610716012ALCONCHEL DE LA ESTRELLA                                                                            2032030002470121421400000000000000306710505N
0819870610716094GASCUEÑA                                                                                            0780780002360122222200000000000000002514605N
0919870610716013ALGARRA                                                                                             0780780000360103503500000000000000000002201N
0919870610716030BASCUÑANA DE SAN PEDRO                                                                              0780780000380102902900000000000000000001601N
0819870610716068CASTILLEJO DE INIESTA                                                                               1341340002040117117100000000000000100113605N
0819870610716083FRESNEDA DE ALTAREJOS                                                                               0780780001150110310300000000000000100107805N
0819870610716084FRESNEDA DE LA SIERRA                                                                               0780780001110109809800000000000003000004004N
0819870610719224POZO DE ALMOGUERA                                                                                   1301300002490120120100000000000000100119405N
0819870610719230QUER                                                                                                1301300001170109909900000000000000200006005N
0919870610719234RETIENDAS                                                                                           1301300000440104304300000000000000000001801N
0819870610719235RIBA DE SAELICES                                                                                    1301300001970117217200000000000002802701801N
0819870610719237RILLO DE GALLO                                                                                      1901900001030108708700000000000000200106505N
0819870610719227PRADOS REDONDOS                                                                                     1901900001320111111100000000000000100108305N
0919870610719231REBOLLOSA DE JADRAQUE                                                                               2572570000440104104100000000000000000002201N
0919870610719268TIERZO                                                                                              1901900000520104504500000000000000000003301N
0919870610719276TORRECILLA DEL DUCADO                                                                               2572570000110101101100000000000000000001001N
0919870610719279TORRE DEL BURGO                                                                                     1301300000580105305300000000000000000004401N
0919870610719281TORREMOCHA DE JADRAQUE                                                                              2572570000190101301300000000000000000001001N
0919870610719296UTANDE                                                                                              1301300000920108708700000000000000000004301N
0919870610719309VALHERMOSO                                                                                          1901900000600105705700000000000000000002101N
0919870610719321VILLARES DE JADRAQUE                                                                                2572570000480104204200000000000000000001301N
0919870610719134HERRERIA                                                                                            1901900000470104304300000000000000000002001N
0819870610719238RIOFRIO DEL LLANO                                                                                   2572570001140109309300000000000000000705305N
0819870610719269TOBA (LA)                                                                                           2572570001440114214200000000000000000210405N
0819870610719319VILLANUEVA DE LA TORRE                                                                              1301300001160109909900000000000000001106605N
0919870610719136HIJES                                                                                               2572570000310102802800000000000000000002001N
0819870610719154INVIERNAS (LAS)                                                                                     1301300001220110210200000000000000400206905N
0819870610719162LUZAGA                                                                                              2572570001540113613600000000000000101108005N
0819870610719214PEÑALEN                                                                                             1901900001940116016000000000000000000212905N
0819870610719220PIOZ                                                                                                1301300001750114814800000000000000400012805N
0919870610719229PUEBLA DE VALLES                                                                                    1301300000760106506500000000000000000004001N
0819870610719232RECUENCO (EL)                                                                                       1301300001610113213200000000000000100610605N
0919870610719259SOMOLINOS                                                                                           2572570000570104404400000000000000000002801N
0819870610719272TORDESILOS                                                                                          1901900001790116516500000000000000300314205N
0819870610719329YELAMOS DE ABAJO                                                                                    1301300001210110710700000000000000300009305N
0819870610805107HURTUMPASCUAL                                                                                       1861860001980118518500000000000000400809005N
0919870610719195MORENILLA                                                                                           1901900000740106906900000000000000000003901N
0919870610719198NEGREDO                                                                                             2572570000270102202200000000000000000001401N
0819870610745018BARCIENCE                                                                                           1731730001260109109100000000000000200208105N
0819870610745060ERUSTES                                                                                             1731730002200119819800000000000000804409605N
0819870610805040BULARROS                                                                                            0190190001590114414400000000000000000212005N
0819870610805056CASTELLANOS DE ZAPARDIEL                                                                            0160160002000116716700000000000000100411905N
0819870610805090GUTIERRE-MUÑOZ                                                                                      0160160001620113713700000000000000300411305N
0819870610805113LLANOS DE TORMES LOS                                                                                1861860002040118418400000000000001603507805N
0819870610805121MARTIHERRERO                                                                                        0190190002150118618600000000000000200813605N
0819870610805126MESEGAR DE CORNEJA                                                                                  1861860001610114614600000000000000000113005N
0819870610805052CASAS DEL PT DE VILLATORO                                                                           1861860001470113013000000000000000000310305N
0819870610805058CEPEDA DE LA MORA                                                                                   1861860002070117417400000000000000400310505N
0819870610805070DONVIDAS                                                                                            0160160001040108008000000000000000100007305N
0819870610805075FRESNEDILLA                                                                                         0140140001700114314300000000000001600807805N
0819870610805079GALLEGOS DE ALTAMIROS                                                                               0190190001530114914900000000000000000612005N
0819870610745068GARCIOTUM                                                                                           1731730001830115015000000000000001900408705N
0819870610745146RETAMOSO                                                                                            1651650001950117517500000000000000000615505N
0919870610805030BERROCALEJO DE ARAGONA                                                                              0190190000420104104100000000000000000002801N
0919870610805034BLASCONUÑO DE MATACABRAS                                                                            0160160000380103703700000000000000000002701N
0819870610805035BLASCOSANCHO                                                                                        0160160002070117317300000000000000100514505N
0819870610805086GIMIALCON                                                                                           0160160001650112612600000000000000400309405N
0819870610805155NAVAESCURIAL                                                                                        1861860001380112312300000000000000000108405N
0819870610805156NAVAHONDILLA                                                                                        0140140001450111811800000000000000000109805N
0819870610805171NEILA DE SAN MIGUEL                                                                                 1861860001800115515500000000000000600711705N
0819870610805177PAJARES DE ADAJA                                                                                    0160160002410120120100000000000000500715805N
0819870610805180PARRAL EL                                                                                           1861860002070117117100000000000000400611205N
0819870610805199SAN BARTOLOME DE BEJAR                                                                              1861860001400111711700000000000000000108305N
0919870610805206SAN ESTEBAN DE LOS PATOS                                                                            0190190000660106306300000000000000000003201N
0819870610805232SERRADA LA                                                                                          0190190001850116116100000000000001400811605N
0919870610809027ARRAYA DE OCA                                                                                       0590590000500104404400000000000000000001901N
0819870610809037BARBADILLO DE HERREROS                                                                              3303300001600113813800000000000001300407005N
0819870610805012AMAVIDA                                                                                             1861860002330120920900000000000000100118905N
0819870610805063COLLADO DEL MIRON                                                                                   1861860001390112412400000000000000700006905N
0819870610805072ESPINOSA DE LOS CABALLERO                                                                           0160160001430111311300000000000000500009105N
0819870610805085GILGARCIA                                                                                           1861860001080108808800000000000000300406305N
0819870610805164NAVAQUESERA                                                                                         0190190001290106706700000000000000200004804N
0819870610805185PEÑALBA DE AVILA                                                                                    0190190001870115515500000000000000000212905N
0819870610805210SAN JUAN DE LA ENCINILLA                                                                            0190190002000117617600000000000000400913405N
0819870610805217SAN MIGUEL DE CORNEJA                                                                               1861860001480113613600000000000000400910805N
0819870610104009ALCUDIA DE MONTEAGUD                                                                                0130130002180119019000000000000002700608805N
0819870610104015ALSODUX                                                                                             0130130001250110710700000000000000400306205N
0919870610222087CASTIGALEU                                                                                          0480480000960108208200000000000000000005401N
0819870610805256VILLAFLOR                                                                                           0190190002310120720700000000000000600015805N
0819870610809009ALBILLOS                                                                                            0590590001720113413400000000000001500805904N
0919870610809044BARRIOS DE COLINA                                                                                   0590590000830106706700000000000000000003201N
0819870610104023BEIRES                                                                                              0130130001710114914900000000000000300509105N
0819870610104026BENITAGLA                                                                                           0130130001250110810800000000000000100005605N
0819870610222058BIERGE                                                                                              0480480002220119919900000000000002401406705N
0819870610222223SOPEIRA                                                                                             0480480001570113413400000000000001100108105N
0819870610222242VALFARTA                                                                                            1121120001140110010000000000000000000007905N
0819870610222246VERACRUZ                                                                                            0480480001310112212200000000000000100108305N
0819870610244048CABRA DE MORA                                                                                       2162160001120109509500000000000000100507405N
0819870610222127IGRIES                                                                                              1251250001610114414400000000000001702206305N
0819870610222142LASCUARRE                                                                                           0480480001800114714700000000000001701308105N
0819870610222156MONFLORITE-LASCASAS                                                                                 1251250001930117017000000000000001900310505N
0819870610222250VILLANUA                                                                                            1301300001990121021000000000000000700315505N
0819870610244038BELMONTE DE SAN JOSE                                                                                0130130002050118218200000000000002600010205N
0819870610244067CASTELNOU                                                                                           0130130001330112212200000000000000000309805N
0819870610244085COSA                                                                                                0500500001370111811800000000000000000410105N
0919870610244110FUENFERRADA                                                                                         0500500000620105605600000000000000000002401N
0819870610222003ADAHUESCA                                                                                           0480480001910116816800000000000000501008805N
0819870610222004AGUERO                                                                                              1301300001910117117100000000000000900910405N
0819870610222012ALBERO BAJO                                                                                         1251250001450112612600000000000000300309505N
0819870610222029ANTILLON                                                                                            1251250001820115515500000000000001100608305N
0819870610222032ARAGUES DEL PUERTO                                                                                  1301300001260110710700000000000001500303405N
0819870610222045BALDELLOU                                                                                           0480480002140119319300000000000002000411105N
0819870610222079CAPDESASO                                                                                           1251250002170119719700000000000000700910405N
0819870610222086CASTIELLO DE JACA                                                                                   1301300001710114514500000000000000300509705N
0819870610222090COLUNGO                                                                                             0480480001610112912900000000000000001208605N
0919870610222107FANLO                                                                                               0660660000430104104100000000000000000002801N
0819870610222162NOVALES                                                                                             1251250002200123223200000000000000000000000N
0819870610222177PERARRUA                                                                                            0480480001700115015000000000000000500209705N
0819870610222181PIRACES                                                                                             1251250001140109709700000000000000000006105N
0819870610716149PALOMERA                                                                                            0780780001460113613600000000000000203408005N
0919870610716213TORRUBIA DEL CASTILLO                                                                               1901900000620105405400000000000000000003801N
0919870610719109EMBID                                                                                               1901900000840107907900000000000000000003701N
0819870610719110ESCAMILLA                                                                                           1301300001800115315300000000000000200110505N
0919870610719115ESTABLES                                                                                            1901900000770107107100000000000000000003101N
0819870610719121FUENTELENCINA                                                                                       1301300002250118518500000000000000100615605N
0919870610719139HOMBRADOS                                                                                           1901900000760106806800000000000000000005101N
0919870610719147HUERMECES DEL CERRO                                                                                 2572570000660105805800000000000000000003401N
0819870610719172MASEGOSO DE TAJUÑA                                                                                  1301300001400110410400000000000000400207105N
0919870610719185MIÑOSA (LA)                                                                                         2572570000790107707700000000000000000000701N
0819870610719196MUDUEX                                                                                              1301300001430112112100000000000000700009305N
0919870610719221PIQUERAS                                                                                            1901900000320102302300000000000000000001101N
0819870610719222POBO DE DUEÑAS (EL)                                                                                 1901900002090118018000000000000000301013505N
0919870610719226PRADENA DE ATIENZA                                                                                  2572570000570105205200000000000000000003301N
0919870610719233RENERA                                                                                              1301300000580104804800000000000000000003001N
0819870610719243RUEDA DE LA SIERRA                                                                                  1901900001020108508500000000000000300006405N
0819870610719244SACECORBO                                                                                           1301300001610113413400000000000000801105904N
0919870610244142MAICAS                                                                                              0500500000210102102100000000000000000001101N
0919870610244157MONTERDE DE ALBARRACIN                                                                              2162160000870108308300000000000000000003201N
0819870610244175ORRIOS                                                                                              2162160002210120720700000000000000501008905N
0819870610244090CUCALON                                                                                             0500500001200109709700000000000001600903105N
0819870610244103FORMICHE ALTO                                                                                       2162160002330120820800000000000000300017005N
0819870610244124HOZ DE LA VIEJA (LA)                                                                                0500500002070118218200000000000000000312905N
0819870610244180PERACENSE                                                                                           2162160001090109409400000000000000000008205N
0919870610244200RUBIELOS DE LA CERIDA                                                                               0500500000790106706700000000000000000003101N
0919870610244211SEGURA DE BAÑOS                                                                                     0500500000880107507500000000000000000003901N
0919870610244023ALLUEVA                                                                                             0500500000100101001000000000000000000000601N
0819870610244044BORDON                                                                                              0130130001610113113100000000000000100409305N
0919870610244082CORBALAN                                                                                            2162160000950108908900000000000000000005001N
0819870610244093CUEVAS DE ALMUDEN                                                                                   2162160001330110710700000000000000300008605N
0819870610244115GALVE                                                                                               2162160001670114214200000000000000100212705N
0819870610244119GRIEGOS                                                                                             2162160001850115215200000000000000000004605N
0819870610244128JARQUE DE LA VAL                                                                                    2162160001220110510500000000000000000306505N
0919870610244130JORCAS                                                                                              2162160000840107107100000000000000000003201N
0919870610244132LAGUERUELA                                                                                          0500500000900108008000000000000000000004401N
0819870610244149MIRAMBEL                                                                                            0130130001580112812800000000000001300007205N
0819870610244152MONFORTE DE MOYUELA                                                                                 0500500001240110810800000000000000100106105N
0819870610244181PERALEJOS                                                                                           2162160001240110510500000000000001600006605N
0819870610244185POBO (EL)                                                                                           2162160002000116916900000000000000000611405N
0819870610244189POZONDON                                                                                            2162160001160111211200000000000000000409405N
0819870610244198ROYUELA                                                                                             2162160002440121221200000000000001900809105N
0919870610244204SALDON                                                                                              2162160000630106206200000000000000000004101N
0819870610244215TERRIENTE                                                                                           2162160002210118118100000000000000100115005N
0819870610244213SINGRA                                                                                              2162160001400112812800000000000000500108405N
0819870610244222TORRECILLA DEL REBOLLAR                                                                             0500500002210118718700000000000000400812005N
0819870610244206SAN AGUSTIN                                                                                         2162160002180119719700000000000000300512405N
0919870610244218TORMON                                                                                              2162160000650105905900000000000000000003201N
0819870610244223TORRE DE ARCAS                                                                                      0130130001400112212200000000000000400008105N
0919870610244256VILLANUEVA DEL REBOLLAR                                                                             0500500000640105805800000000000000000003601N
0819870610244267VIVEL DEL RIOMARTIN                                                                                 0500500001760115115100000000000000200011705N
0919870610250042BALCONCHAN                                                                                          0940940000380103803800000000000000000002301N
0919870610250091CUERLAS (LAS)                                                                                       0940940000930108908900000000000000000005501N
0919870610250122GRISEL                                                                                              2512510000550105205200000000000000000002701N
0919870610250128ISUERRE                                                                                             0950950000670106106100000000000000000003401N
0819870610250140LITAGO                                                                                              2512510002180118618600000000000000000514605N
0819870610805136MUÑICO                                                                                              1861860002270119819800000000000000100014505N
0819870610805143MUÑOTELLO                                                                                           1861860001810116616600000000000000100612605N
0819870610805192PUERTO CASTILLA                                                                                     1861860002220119219200000000000001000709505N
0919870610805214SAN LORENZO DE TORMES                                                                               1861860000970109109100000000000000000004701N
0819870610250106FAYOS (LOS)                                                                                         2512510002120120020000000000000000300016905N
0819870610250237SANTA CRUZ DE MONCAYO                                                                               2512510001030109309300000000000001100606605N
0819870610250901BIEL-FUENCALDERAS                                                                                   0950950002500124324300000000000000000413805N
0919870610250047BERDEJO                                                                                             0670670000370103303300000000000000000001101N
0819870610250117GALLOCANTA                                                                                          0940940002000117317300000000000001500009105N
0819870610250133LAGATA                                                                                              2972970001710116716700000000000000500312905N
0919870610250149LUESMA                                                                                              0940940000280102302300000000000000000000801N
0819870610250154MAINAR                                                                                              0940940001990117217200000000000001200413605N
0819870610250173MONTERDE                                                                                            0670670002430121321300000000000000100414605N
0819870610250184MURERO                                                                                              0940940001830116916900000000000000100213905N
0919870610250188NOMBREVILLA                                                                                         0940940000380103403400000000000000000002301N
0819870610250197ORES                                                                                                0950950001540114414400000000000000200209705N
0819870610250213PLENAS                                                                                              2972970001890116916900000000000000100411305N
0819870610250229RUESCA                                                                                              0670670001060109509500000000000000300005105N
0919870610250224RETASCON                                                                                            0940940000860108208200000000000000000005901N
0919870610250250TALAMANTES                                                                                          2512510000560105605600000000000000000003401N
0919870610250273VALDEHORNA                                                                                          0940940000930108308300000000000000000002401N
0819870610250063BUSTE (EL)                                                                                          2512510001570112912900000000000001701807004N
0819870610250069CALCENA                                                                                             2972970001100110110100000000000000600005605N
0819870610250058BUBIERCA                                                                                            0670670001440112312300000000000000400608805N
0819870610250014ALCALA DE MONCAYO                                                                                   2512510001830115815800000000000000300411605N
0819870610250036ASIN                                                                                                0950950001160110710700000000000000000008505N
0819870610250050BIJUESCA                                                                                            0670670001380112812800000000000001600405005N
0919870610250258TORRALBILLA                                                                                         0940940000840107907900000000000000000005201N
0919870610250270URRIES                                                                                              0950950000890108708700000000000000000004101N
0819870610639051PESQUERA                                                                                            0000000001190110110100000000000000200607505N
0919870610716020ARANDILLA DEL ARROYO                                                                                0780780000660105605600000000000000000003201N
0819870610716024ARGUISUELAS                                                                                         0780780002490120720700000000000000000117805N
0819870610716029BARCHIN DEL HOYO                                                                                    1341340001840115615600000000000000401108305N
0819870610716043CAMPILLOS-PARAVIENTOS                                                                               0780780001780114714700000000000000000311705N
0919870610719288TORTUERO                                                                                            1301300000310102902900000000000000000002301N
0919870610719308VALFERMOSO DE TAJUÑA                                                                                1301300000880107607600000000000000000003801N
0919870610719323VILLASECA DE UCEDA                                                                                  1301300000630105605600000000000000000003101N
0919870610719326YEBES                                                                                               1301300000630105805800000000000000000004501N
0919870610719334ZARZUELA DE JADRAQUE                                                                                2572570000430104204200000000000000000002901N
0819870610716092GABALDON                                                                                            1341340002190118418400000000000000100214905N
0819870610716104HONTECILLAS                                                                                         1341340001170110610600000000000000000109505N
0819870610716163PORTILLA                                                                                            0780780001240111511500000000000000100210005N
0919870610716176RADA DE HARO                                                                                        2032030000760106506500000000000000000004801N
0819870610716225VALDEMORILLO DE LA SIERRA                                                                           0780780001050109809800000000000000200206405N
0919870610716231VALHERMOSO DE LA FUENTE                                                                             1341340000800107107100000000000000000004101N
0919870610716265VILLAREJO DE LA PEÑUELA                                                                             0780780000460104104100000000000000000000601N
0919870610716276YEMEDA                                                                                              0780780000610105805800000000000000000003101N
0819870610716278ZAFRILLA                                                                                            0780780001800116616600000000000000000411505N
0819870610719004ALAMINOS                                                                                            1301300001270111211200000000000000800007805N
0919870610719010ALCOLEA DE LAS PEÑAS                                                                                2572570000470103603600000000000000000002101N
0819870610719017ALGORA                                                                                              2572570001250110610600000000000000500006905N
0819870610719040ARMALLONES                                                                                          1301300001050108408400000000000000200206905N
0919870610719042ARROYO DE FRAGUAS                                                                                   2572570000210102102100000000000000000001201N
0819870610719051BERNINCHES                                                                                          1301300001310112612600000000000002300506905N
0919870610719060CAMPILLO DE RANAS                                                                                   1301300000900109109100000000000000000004501N
0919870610719073CASAS DE SAN GALINDO                                                                                1301300000390103503500000000000000000001601N
0919870610719078CASTILFORTE                                                                                         1301300000470103603600000000000000000001801N
0919870610719088CIRUELAS                                                                                            1301300000790107507500000000000000000003701N
0919870610719091COGOLLOR                                                                                            1301300000770106306300000000000000000004101N
0819870610719108DURON                                                                                               1301300001040109309300000000000000000108105N
0919870610719112ESCOPETE                                                                                            1301300000650106206200000000000000000002101N
0919870610719118FUEMBELLIDA                                                                                         1901900000260102302300000000000000000001501N
0819870610719119FUENCEMILLAN                                                                                        1301300001450111411400000000000000100310105N
0819870610719135HIENDELAENCINA                                                                                      2572570002050118118100000000000000300513405N
0919870610719155IRUESTE                                                                                             1301300000910110110100000000000000000005401N
0819870610719159LEDANCA                                                                                             1301300002180118718700000000000001400210105N
0919870610719178MEGINA                                                                                              1901900000920108508500000000000000000004801N
0819870610719184MILLANA                                                                                             1301300001140110710700000000000000100507905N
0819870610719187MIRALRIO                                                                                            1301300001320110710700000000000000300007805N
0919870610719191MONASTERIO                                                                                          1301300000180101801800000000000000000001601N
0819870610745164SOTILLO DE LAS PALOMAS                                                                              1651650002080119419400000000000000200216105N
0819870610805015AREVALILLO                                                                                          1861860002240119719700000000000000000115505N
0819870610805061COLILLA LA                                                                                          0190190002440121721700000000000000001913805N
0919870610805088GRANDES Y SAN MARTIN                                                                                1861860000910108408400000000000000000004201N
0819870610805096HIJA DE DIOS LA                                                                                     0190190001790115315300000000000000300411505N
0919870610805148NARROS DEL PUERTO                                                                                   0190190000680106606600000000000000000002201N
0819870610805162NAVALPERAL DE TORMES                                                                                1861860002140118218200000000000000000311805N
0919870610805173OJOS ALBOS                                                                                          0190190000420103503500000000000000000001701N
0819870610805191PRADOSEGAR                                                                                          1861860002290120320300000000000000200516805N
0919870610719246SAELICES DE LA SAL                                                                                  1301300000850106906900000000000000000004201N
0919870610719248SAN ANDRES DEL CONGOSTO                                                                             2572570000810107907900000000000000000002701N
0819870610719258SOLANILLOS DEL EXTREMO                                                                              1301300001300110110100000000000000100009405N
0919870610719260SOTILLO (EL)                                                                                        1301300000560105205200000000000000000002701N
0919870610719263TARAGUDO                                                                                            1301300000330103203200000000000000000001801N
0919870610719289TRAID                                                                                               1901900000580105505500000000000000000001201N
0919870610719298VALDEARENAS                                                                                         1301300000780107007000000000000000000003501N
0819870610719299VALDEAVELLANO                                                                                       1301300001010108708700000000000000100007005N
0919870610719303VALDELCUBO                                                                                          2572570000800107107100000000000000000002301N
0919870610719318VILLANUEVA DE ARGECILLA                                                                             1301300000550104504500000000000000000002601N
0819870610719322VILLASECA DE HENARES                                                                                2572570001030109409400000000000000000007505N
0919870610719901SEMILLAS                                                                                            2572570000350103303300000000000000000002201N
0819870610745008ALDEA EN CABO                                                                                       1731730002350121521500000000000000000119405N
0819870610407019ESCORCA                                                                                             0000000002330119019000000000000000400713805N
0919870610250142LOBERA DE ONSELLA                                                                                   0950950000830108308300000000000000000003601N
0919870610250144LONGAS                                                                                              0950950000220102502500000000000000000001501N
0819870610250155MALANQUILLA                                                                                         0670670001330111811800000000000000300010205N
0819870610250161MANCHONES                                                                                           0940940001770115215200000000000000000114205N
0919870610250171MONEVA                                                                                              2972970000910108708700000000000000000005901N
0919870610805219SAN PASCUAL                                                                                         0160160000860108408400000000000000000003701N
0919870610805234SIGERES                                                                                             0190190000960108208200000000000000000004101N
0819870610805258VILLANUEVA DE GOMEZ                                                                                 0160160002250119219200000000000000000015705N
0819870610809024ARENILLAS DE RIO PISUERGA                                                                           0590590002480121621600000000000000000000000N
0919870610809047BELBIMBRE                                                                                           0590590000910107707700000000000000000004101N
0819870610809058BUNIEL                                                                                              0590590001730114914900000000000000300412405N
0819870610809063CABIA                                                                                               0590590002380118918900000000000000200116405N
0919870610809071CARCEDO DE BUREBA                                                                                   0560560000510104604600000000000000000002901N
0819870610809072CARCEDO DE BURGOS                                                                                   0590590001140111211200000000000000200109105N
0819870610809082CASTILDELGADO                                                                                       0590590001020108908900000000000000100307705N
0819870610809112CORUÑA DEL CONDE                                                                                    0180180002070117617600000000000003200907805N
0819870610805170NAVATEJARES                                                                                         1861860002100119619600000000000000601010505N
0819870610805197SALOBRAL                                                                                            0190190001390111011000000000000000200009505N
0819870610805205SANCHORREJA                                                                                         0190190001700115115100000000000000000211105N
0819870610805224SANTA MARIA DEL ARROYO                                                                              0190190001780114814800000000000000500412205N
0819870610805243TOLBAÑOS                                                                                            0190190002020118818800000000000000400512705N
0819870610805246TORTOLES                                                                                            1861860001940118618600000000000000000316305N
0819870610805249UMBRIAS                                                                                             1861860002320121521500000000000000300015505N
0819870610805251VADILLO DE LA SIERRA                                                                                1861860002250121921900000000000000700816805N
0819870610809029ATAPUERCA                                                                                           0590590001860116716700000000000000300304205N
0819870610809039BARBADILLO DEL PEZ                                                                                  3303300001320111811800000000000000600207205N
0919870610809062CABEZON DE LA SIERRA                                                                                3303300000560105005000000000000000000002501N
0819870610809065CAMPILLO DE ARANDA                                                                                  0180180002290119319300000000000002801908805N
0919870610809076CARRIAS                                                                                             0590590000710105805800000000000000000003401N
0919870610809077CASCAJARES DE BUREBA                                                                                0560560000810107807800000000000000000003301N
0919870610809078CASCAJARES DE LA SIERRA                                                                             3303300000360103303300000000000000000002101N
0919870610809083CASTIL DE PEONES                                                                                    0560560000620106006000000000000000000002601N
0819870610809088CASTRILLO DE RIO PISUERGA                                                                           0590590001270111711700000000000001200103905N
0819870610809095CELADA DEL CAMINO                                                                                   0590590001040108608600000000000000000107605N
0819870610809197MADRIGALEJO DEL MONTE                                                                               1941940001750115615600000000000000000014405N
0819870610809228MORADILLO DE ROA                                                                                    0180180002450120320300000000000000100213305N
0819870610809231NEBREDA                                                                                             1941940001600114314300000000000001800606205N
0819870610809257PEDROSA DEL PARAMO                                                                                  0590590001240110410400000000000001000105505N
0819870610809266PINEDA DE LA SIERRA                                                                                 0590590001220112412400000000000000300507905N
0819870610809268PINILLA DE LOS BARRUECOS                                                                            3303300002220118918900000000000000300313505N
0919870610809292QUINTANAVIDES                                                                                       0560560000960109509500000000000000000005501N
0919870610809354SANTA OLALLA DE BUREBA                                                                              0560560000500104804800000000000000000002901N
0919870610809464VILLATUELDA                                                                                         0180180000970109209200000000000000000000000N
0919870610716011ALCOHUJATE                                                                                          0780780000930108408400000000000000000004701N
0819870610809135FUENTEBUREBA                                                                                        0560560001460111911900000000000001700106305N
0819870610809353SANTA MARIA RIBARREDONDA                                                                            2192190001810115615600000000000000600411605N
0819870610809314REVILLA DEL CAMPO                                                                                   0590590001600114114100000000000001601106805N
0919870610809365SEQUERA DE HAZA (LA)                                                                                0180180000850107507500000000000000000000000N
0919870610809375TAMARON                                                                                             0590590000600105405400000000000000000002701N
0919870610809424VILORIA DE RIOJA                                                                                    0590590000900107507500000000000000000003501N
0819870610809480ZAEL                                                                                                1941940001770116516500000000000001601008605N
0819870610639070SAN MIGUEL AGUAYO                                                                                   0000000001910116316300000000000001401109905N
0919870610639088TRESVISO                                                                                            0000000000910109309300000000000000000004401N
0819870610809110CONTRERAS                                                                                           3303300001090110310300000000000000100907505N
0819870610809127FONTIOSO                                                                                            1941940001220110310300000000000000000000000N
0919870610809128FRANDOVINEZ                                                                                         0590590000990109009000000000000000000003101N
0819870610809138FUENTELISENDO                                                                                       0180180001640114114100000000000001700906005N
0819870610809154HACINAS                                                                                             3303300002450121521500000000000000401613605N
0819870610809160HONTANGAS                                                                                           0180180001970117917900000000000000000206505N
0819870610809173HUERTA DE ARRIBA                                                                                    3303300002460121421400000000000003101409305N
0819870610809190JUNTA DE VILLALBA DE LOSA                                                                           9039030001070109509500000000000000500207105N
0919870610809202MANCILES                                                                                            0590590000530104404400000000000000000003101N
0819870610809242PADILLA DE ABAJO                                                                                    0590590001500114014000000000000000600109605N
0819870610809244PADRONES DE BUREBA                                                                                  0560560001140110410400000000000000300207305N
0819870610809298QUINTANILLA SAN GARCIA                                                                              0560560001770115715700000000000000800709805N
0919870610809310REINOSO                                                                                             0560560000350103203200000000000000000001501N
0819870610809326RUBENA                                                                                              0590590001770114614600000000000001500909105N
0819870610809345SANTA CRUZ DE LA SALCEDA                                                                            0180180002330121921900000000000000100615805N
0919870610809386TORRECILLA DEL MONTE                                                                                1941940000940108508500000000000000000002801N
0819870610809403VALDEANDE                                                                                           0180180002330120220200000000000002201603705N
0819870610809409VALLE DE MANZANEDO                                                                                  9039030001500113213200000000000000100508105N
0819870610809411VALLE DE OCA                                                                                        0590590002300119919900000000000000300713405N
0819870610809418VALLES DE PALENZUELA                                                                                0590590001230110910900000000000000500107105N
0819870610809428VILLAESCUSA DE ROA                                                                                  0180180002190118418400000000000001000013405N
0819870610809220MIRAVECHE                                                                                           2192190001620114514500000000000002100505604N
0819870610809225MONCALVILLO DE LA SIERRA                                                                            3303300001720114614600000000000000100206705N
0919870610809184JARAMILLO QUEMADO                                                                                   3303300000240102402400000000000000000001501N
0819870610809199MAMBRILLA DE CASTREJON                                                                              0180180001850116116100000000000004900507405N
0919870610809200MAMBRILLAS DE LARA                                                                                  3303300000910108408400000000000000000003601N
0819870610104041ENIX                                                                                                0130130002400120120100000000000000100218305N
0919870610809236OLMILLOS DE MUÑO                                                                                    1941940000610105505500000000000000000002601N
0819870610809243PADILLA DE ARRIBA                                                                                   0590590001650114614600000000000000300609205N
0819870610809253PARDILLA                                                                                            0180180001270110910900000000000000000308605N
0919870610809273PRADANOS DE BUREBA                                                                                  0560560000980108808800000000000000000004001N
0919870610809280QUINTANABUREBA                                                                                      0560560000710106306300000000000000000002601N
0819870610809288QUINTANAPALLA                                                                                       0590590001690113813800000000000000000111305N
0819870610809294QUINTANILLA DE LA MATA                                                                              1941940001940117517500000000000001700611305N
0819870610809304RABE DE LAS CALZADAS                                                                                0590590001630114614600000000000000200013305N
0819870610809306REBOLLEDO DE LA TORRE                                                                               0590590002240119519500000000000000100314605N
0819870610809323ROJAS                                                                                               0560560001030109409400000000000000701106105N
0919870610809335SAN ADRIAN DE JUARROS                                                                               0590590000430103903900000000000000000000901N
0819870610809340SAN MILLAN DE LARA                                                                                  3303300001230111211200000000000000500506705N
0819870610809343SANTA CECILIA                                                                                       1941940001410113113100000000000001400908105N
0819870610809347SANTA GADEA DEL CID                                                                                 2192190002140118818800000000000000300710005N
0819870610809355SANTIBAÑEZ DE ESGUEVA                                                                               1941940002210120120100000000000001300011005N
0919870610809407VALMALA                                                                                             0590590000450104404400000000000000000001001N
0819870610809431VILLAFRANCA MONTES DE OCA                                                                           0590590002470121721700000000000000700810505N
0919870610809433VILLAGALIJO                                                                                         0590590000840106406400000000000000000003101N
0819870610809473VILLEGAS                                                                                            0590590001550114014000000000000001001106505N
0919870610809476VILLORUEBO                                                                                          3303300000310102802800000000000000000001301N
0819870610222019ALERRE                                                                                              1251250001370111111100000000000000400009505N
0819870610222020ALFANTEGA                                                                                           0480480001390112412400000000000000800208405N
0919870610222037ARGUIS                                                                                              1251250000550105005000000000000000000003701N
0819870610222050BARBUÑALES                                                                                          0480480001240111411400000000000000000010705N
0919870610250138LECHON                                                                                              0940940000710106006000000000000000000003901N
0819870610129021ATAJATE                                                                                             0840840001510112812800000000000000000110705N
0819870610141028CASTILLEJA DE GUZMAN                                                                                0910910002160116416400000000000000000114305N
0819870610222064BLECUA Y TORRES                                                                                     1251250002320121121100000000000000000512305N
0819870610222094CHALAMERA                                                                                           1121120001820116416400000000000000600312705N
0819870610222155MONESMA Y CAJIGAR                                                                                   0480480001130110410400000000000000500308105N
0819870610222163NUENO                                                                                               1251250002170120820800000000000000300612805N
0919870610222168PALO                                                                                                0660660000410104504500000000000000000001201N
0819870610222189PUERTOLAS                                                                                           0660660002020116116100000000000000300013205N
0819870610222212SANTALIESTRA Y SAN QUILEZ                                                                           0480480001200110110100000000000000000008705N
0819870610222002ABIZANDA                                                                                            0660660001170109309300000000000000200105605N
0819870610222011ALBERO ALTO                                                                                         1251250001200110510500000000000001000005905N
0819870610222036ARGAVIESO                                                                                           1251250001290111511500000000000001000606705N
0819870610222041AZARA                                                                                               0480480002370120620600000000000000300317505N
0819870610222043BAELLS                                                                                              0480480002090118018000000000000000200409105N
0819870610222114GISTAIN                                                                                             0660660002240121121100000000000000000911105N
0819870610222141LASCELLAS-PONZANO                                                                                   0480480002100118518500000000000000100414105N
0819870610222176PERALTILLA                                                                                          0480480001800115415400000000000000200313505N
0819870610222202SALAS BAJAS                                                                                         0480480002350120920900000000000001200013105N
0819870610222233TORRE LA RIBERA                                                                                     0480480001250110710700000000000000000009105N
0919870610244020ALPEÑES                                                                                             0500500000350103103100000000000000000001801N
0819870610222042AZLOR                                                                                               0480480002140117117100000000000000100015505N
0819870610222047BANASTAS                                                                                            1251250001020107107100000000000000100106505N
0819870610222049BARBUES                                                                                             1251250001300111411400000000000000900207505N
0919870610222067BONANSA                                                                                             0480480000650105905900000000000000000004301N
0819870610222085CASTELFLORITE                                                                                       1251250001800114514500000000000000700508805N
0819870610222095CHIA                                                                                                0660660001390112512500000000000000000610505N
0819870610222102ESTADA                                                                                              0480480002360120820800000000000002801310004N
0819870610222131JASA                                                                                                1301300001180110310300000000000000000000000N
0819870610222178PERTUSA                                                                                             1251250001560112112100000000000000000210105N
0919870610719193MONTARRON                                                                                           1301300000900107207200000000000000000003901N
0919870610719209PARDOS                                                                                              1901900000660105905900000000000000000001801N
0919870610719210PAREDES DE SIGUENZA                                                                                 2572570000890108408400000000000000000004201N
0819870610719218PINILLA DE JADRAQUE                                                                                 2572570001000108508500000000000001300700001N
0819870610716205TEJADILLOS                                                                                          0780780002080118418400000000000000100015805N
0819870610716217TRIBALDOS                                                                                           2032030002020117217200000000000001500710005N
0819870610719001ABANADES                                                                                            1301300001330110910900000000000000800307605N
0919870610719003ADOBES                                                                                              1901900000330102402400000000000000000001401N
0819870610719015ALDEANUEVA DE GUADALAJARA                                                                           1301300001260112212200000000000000100609005N
0819870610719037ARBANCON                                                                                            1301300002360119219200000000000000000216505N
0919870610719049BAÑUELOS                                                                                            2572570000480104104100000000000000000001701N
0919870610250195ORCAJO                                                                                              0940940000500104504500000000000000000003301N
0919870610250210PINTANOS (LOS)                                                                                      0950950000790107407400000000000000000003601N
0919870610250215POZUEL DE ARIZA                                                                                     0670670000400103803800000000000000000001301N
0819870610244148MEZQUITA DE JARQUE                                                                                  2162160001940115915900000000000001000108405N
0819870610244173OLMOS (LOS)                                                                                         0130130001950116316300000000000001000009004N
0819870610244193PUERTOMINGALVO                                                                                      2162160002000118118100000000000000400708105N
0919870610244224TORRE DE LAS ARCAS                                                                                  0500500000450104604600000000000000000002001N
0819870610244236TRONCHON                                                                                            0130130001350112212200000000000000200308205N
0819870610244258VILLAR DEL SALZ                                                                                     2162160001650114914900000000000000400310105N
0919870610244268ZOMA (LA)                                                                                           2162160000440104004000000000000000000002301N
0919870610250028ANENTO                                                                                              0940940000290102302300000000000000000001401N
0919870610250033ARDISA                                                                                              0950950000920108608600000000000000000005001N
0819870610250065CABOLAFUENTE                                                                                        0670670001310112212200000000000000100007205N
0819870610250082CIMBALLA                                                                                            0670670001550113413400000000000000100211905N
0819870610244183PITARQUE                                                                                            2162160001310112712700000000000000600306505N
0819870610244190POZUEL DEL CAMPO                                                                                    0500500001600115315300000000000000600309505N
0919870610244208SANTA CRUZ DE NOGUERAS                                                                              0500500000360103503500000000000000100000901N
0919870610244217TORIL Y MASEGOSO                                                                                    2162160000510104504500000000000000000002501N
0919870610244231TORRIJAS                                                                                            2162160000880108008000000000000000000003901N
0919870610244243VALDECUENCA                                                                                         2162160000410103803800000000000000000001301N
0819870610244244VALDELINARES                                                                                        2162160001390112512500000000000000100106605N
0919870610244250VEGUILLAS DE LA SIERRA                                                                              2162160000380103603600000000000000000002001N
0819870610244262VILLARROYA DE LOS PINARES                                                                           2162160002270119019000000000000000401112105N
0919870610250021ALMOCHUEL                                                                                           2972970000680106106100000000000000000002501N
0819870610250071CAMPILLO DE ARAGON                                                                                  0670670002460122522500000000000000000117805N
0919870610250080CERVERUELA                                                                                          0940940000040100400400000000000000000000401N
0819870610244005AGUILAR DEL ALFAMBRA                                                                                2162160001160110210200000000000002000905303N
0919870610244011ALCAINE                                                                                             0500500000330102602600000000000000000001401N
0919870610244024ANADON                                                                                              0500500000360103103100000000000000000002501N
0919870610244036BEA                                                                                                 0500500000290102502500000000000000000001401N
0819870610244052CALOMARDE                                                                                           2162160001000109509500000000000000000206905N
0819870610244063CAÑIZAR DEL OLIVAR                                                                                  2162160001660113713700000000000000200211105N
0819870610244065CASTEJON DE TORNOS                                                                                  0500500001440113013000000000000000100210405N
0919870610244102FONFRIA                                                                                             0500500000400103603600000000000000000002101N
0919870610244133LANZUELA                                                                                            0500500000490104704700000000000000000001601N
0919870610222068BORAU                                                                                               1301300000760106906900000000000000000002601N
0819870610702036GOLOSALVO                                                                                           0030030001650113313300000000000000100011505N
0819870610719057BUSTARES                                                                                            2572570001660114814800000000000001101107405N
0819870610719065CANTALOJAS                                                                                          2572570001930117517500000000000000000814105N
0819870610719096CONDEMIOS DE ARRIBA                                                                                 2572570002320118918900000000000000101214205N
0919870610719097CONGOSTRINA                                                                                         2572570000480104304300000000000000000001801N
0919870610745080ILLAN DE VACAS                                                                                      1651650000100100900900000000000000000000801N
0819870610745093MARRUPE                                                                                             1651650001530114214200000000000000000612105N
0819870610745184VENTAS DE SAN JULIAN                                                                                1651650002480119319300000000000000000313005N
0819870610805007ALDEANUEVA DE SANTA CRUZ                                                                            1861860002370120220200000000000005700909005N
0819870610805017AVEINTE                                                                                             0190190001780114514500000000000000400109905N
0919870610719270TORDELRABANO                                                                                        2572570000250102402400000000000000000001301N
0919870610719294UJADOS                                                                                              2572570000570104304300000000000000000001601N
0919870610719297VALDARACHAS                                                                                         1301300000300102502500000000000000000002001N
0919870610719301VALDECONCHA                                                                                         1301300000580105705700000000000000000003301N
0819870610719304VALDENUÑO FERNANDEZ                                                                                 1301300001580113713700000000000000500211905N
0919870610719095CONDEMIOS DE ABAJO                                                                                  2572570000360103603600000000000000000001601N
0919870610719114ESPLEGARES                                                                                          1301300000870107207200000000000000000003101N
0819870610719122FUENTELSAZ                                                                                          1901900001790114414400000000000000000810205N
0919870610805046CANALES                                                                                             0160160000970106206200000000000000000003201N
0819870610805067CHAMARTIN                                                                                           0190190001410112712700000000000000100209905N
0819870610805069DONJIMENO                                                                                           0160160001550110810800000000000000500008505N
0819870610805080GALLEGOS DE SOBRINOS                                                                                1861860001480113213200000000000000300110405N
0819870610805081GARGANTA DEL VILLAR                                                                                 1861860001170110010000000000000000400606005N
0819870610805084GILBUENA                                                                                            1861860002280120920900000000000000500215805N
0919870610805104HOYOS DEL COLLADO                                                                                   1861860000670106206200000000000000000003101N
0919870610805106HOYOS DE MIGUEL MUÑOZ                                                                               1861860000830107307300000000000000000002901N
0819870610805112LOSAR EL                                                                                            1861860002280120920900000000000000800510105N
0819870610805123MEDIANA DE VOLTOYA                                                                                  0190190001280110910900000000000000000808505N
0819870610805133MONSALUPE                                                                                           0190190001530113213200000000000000000409905N
0819870610805140MUÑOMER DEL PECO                                                                                    0160160001340111111100000000000000100309305N
0819870610805141MUÑOPEPE                                                                                            0190190001250110210200000000000000000208805N
0819870610719242ROMANONES                                                                                           1301300001970116816800000000000000000015205N
0819870610719256SIENES                                                                                              2572570001110110310300000000000000000107605N
0919870610719277TORRECUADRADA DE MOLINA                                                                             1901900000250102602600000000000000000001301N
0919870610719284TORREMOCHUELA                                                                                       1901900000100101001000000000000000000000801N
0919870610719285TORRUBIA                                                                                            1901900000600106306300000000000000000003401N
0819870610745035CARDIEL DE LOS MONTES                                                                               1651650001520113113100000000000000000211805N
0819870610745052COBISA                                                                                              1681680001890114414400000000000000100112100N
0819870610745120NUÑO GOMEZ                                                                                          1731730001910116316300000000000000000014505N
0819870610745126OTERO                                                                                               1731730002300117717700000000000000000313405N
0819870610745129PAREDES DE ESCALONA                                                                                 1731730001070109009000000000000000000007405N
0819870610805045CABIZUELA                                                                                           0160160001650114214200000000000000300308905N
0819870610805064CONSTANZANA                                                                                         0160160002380118618600000000000000400213805N
0819870610805108JUNCIANA                                                                                            1861860001250111611600000000000002200107405N
0819870610805188POVEDA                                                                                              1861860001220111011000000000000000600408005N
0819870610745111NAVALMORALEJO                                                                                       1651650001450110310300000000000000500306705N
0819870610716031BEAMUD                                                                                              0780780001030109109100000000000000000206905N
0819870610716088FUENTELESPINO DE MOYA                                                                               0780780002020118918900000000000000100213705N
0819870610716093GARABALLA                                                                                           0780780002360120420400000000000000200316305N
0919870610702077VILLA DE VES                                                                                        0030030000490104804800000000000000000002901N
0819870610702050MONTALVOS                                                                                           0690690001740116516500000000000000100214705N
0819870610824042CASTILFALE                                                                                          0890890001460112312300000000000000300009705N
0819870610824050CASTROTIERRA                                                                                        1391390002010117717700000000000000000612805N
0819870610809444VILLAMAYOR DE TREVIÑO                                                                               0590590001360111811800000000000001200107305N
0819870610809458VILLARIEZO                                                                                          0590590001410110810800000000000000200205805N
0819870610809472VILLAZOPEQUE                                                                                        0590590001040108608600000000000000000000000N
0919870610809478VIZCAINOS                                                                                           3303300000690106406400000000000000000003501N
0819870610834015ARCONADA                                                                                            0470470001190110210200000000000000000107905N
0819870610834041CALAHORRA DE BOEDO                                                                                  1571570001780115715700000000000000000212705N
0819870610834082HERMEDES DE CERRATO                                                                                 0220220002040117417400000000000000000115105N
0819870610834099MANQUILLOS                                                                                          1201200001000107807800000000000000000007105N
0819870610834112NOGAL DE LAS HUERTAS                                                                                0470470001190110510500000000000000400207105N
0919870610834113OLEA DE BOEDO                                                                                       1571570000550105005000000000000000000002701N
0819870610834140PUEBLA DE VALDAVIA (LA)                                                                             1571570002470122622600000000000000500616105N
0919870610834168SANTA CRUZ DE BOEDO                                                                                 1571570000900107307300000000000000000004401N
0819870610834175SERNA (LA)                                                                                          1571570001550113713700000000000000000510305N
0819870610834210VILLAHAN                                                                                            0220220002020118118100000000000000400014705N
0819870610834234VILLASILA DE VALDAVIA                                                                               1571570001430112412400000000000000100509205N
0919870610837004AHIGAL DE VILLARINO                                                                                 3763760000630106006000000000000000000003501N
0819870610824129REYERO                                                                                              0560560002400119619600000000000000000416505N
0919870610121027CUMBRES DE ENMEDIO                                                                                  0070070000610105705700000000000000000003901N
0819870610121036GRANADA RIOTINTO (LA)                                                                               0070070002250117517500000000000000600212205N
0919870610222218SENES DE ALCUBIERRE                                                                                 1251250000740106606600000000000000000002501N
0919870610222221SESUE                                                                                               0660660000770106406400000000000000000003201N
0819870610222228TIERZ                                                                                               1251250002080117317300000000000002600111505N
0919870610222243VALLE DE BARDAJI                                                                                    0660660000730106306300000000000000000004301N
0919870610222253YESERO                                                                                              1301300000580104904900000000000000000003401N
0919870610244001ABABUJ                                                                                              2162160000970108208200000000000000000002101N
0819870610222126IBIECA                                                                                              1251250001300112412400000000000000100409205N
0819870610222188PUENTE DE MONTAÑANA                                                                                 0480480001650114714700000000000000200311505N
0819870610222235TORRES DE ALCANADRE                                                                                 1251250001580113813800000000000000100109305N
0919870610222244VALLE DE LIERP                                                                                      0660660000690106606600000000000000000003201N
0919870610244018ALMOHAJA                                                                                            2162160000340103303300000000000000000002501N
0819870610121059PUERTO MORAL                                                                                        0070070002390119819800000000000000100715405N
0819870610716003ALARCON                                                                                             1341340002500118918900000000000000400515305N
0919870610716025ARRANCACEPAS                                                                                        0780780000530104504500000000000000000001501N
0819870610716038BUCIEGAS                                                                                            0780780001190111011000000000000000500208305N
0819870610716063CASAS DE GUIJARRO                                                                                   1901900002200119919900000000000000100316305N
0919870610716071CASTILLO DE ALBARAÑEZ                                                                               0780780000410103203200000000000000000002501N
0919870610716081CHUMILLAS                                                                                           1341340000820106706700000000000000000002501N
0819870610716091FUERTESCUSA                                                                                         0780780001310112212200000000000000100209305N
0819870610713029CAÑADA DE CALATRAVA                                                                                 0340340001030109809800000000000000200007505N
0919870610244060CAÑADA DE BENATANDUZ                                                                                2162160000900108208200000000000000000003101N
0819870610244061CAÑADA DE VERICH (LA)                                                                               0130130001290111811800000000000002000605005N
0919870610244062CAÑADA VELLIDA                                                                                      2162160000880107707700000000000000000000901N
0819870610244064CASCANTE DEL RIO                                                                                    2162160001680115015000000000000001800403404N
0819870610244087CRIVILLEN                                                                                           2162160001690114114100000000000000200011905N
0819870610244116GARGALLO                                                                                            2162160001450111611600000000000000200608805N
0819870610244127JABALOYAS                                                                                           2162160001330112212200000000000000100010805N
0819870610244136LIDON                                                                                               0500500001210111011000000000000000200209405N
0919870610244150MIRAVETE DE LA SIERRA                                                                               2162160000560105405400000000000000000003501N
0819870610244026ARCOS DE LAS SALINAS                                                                                2162160001820115115100000000000001001310105N
0819870610244043BLESA                                                                                               0500500001930117417400000000000000000409905N
0819870610244053CAMAÑAS                                                                                             2162160001860116216200000000000000100711805N
0819870610244055CAMARILLAS                                                                                          2162160001480112912900000000000000400507705N
0919870610244089CUBLA                                                                                               2162160000810107707700000000000000000005601N
0819870610244109FRIAS DE ALBARRACIN                                                                                 2162160002200119119100000000000001500510405N
0819870610244111FUENTES-CALIENTES                                                                                   2162160001950115715700000000000000000000000N
0919870610244129JATIEL                                                                                              0130130000640106106100000000000000000003301N
0919870610244159MOSCARDON                                                                                           2162160000840107607600000000000000000004701N
0919870610244167OBON                                                                                                0500500000780106606600000000000000000004801N
0919870610244184PLOU                                                                                                0500500000650105905900000000000000000004001N
0819870610244195RILLO                                                                                               0500500002240119219200000000000001000711505N
0819870610244197RODENAS                                                                                             2162160001170110710700000000000001000003101N
0819870610244235TRAMACASTILLA                                                                                       2162160001620113713700000000000003000504005N
0919870610244249VALLECILLO (EL)                                                                                     2162160000180101901900000000000000000001001N
0819870610250011ALBETA                                                                                              2512510001480113513500000000000000700508605N
0819870610222105ESTOPIÑAN DEL CASTILLO                                                                              0480480002090120220200000000000000100915305N
0819870610222139LAPERDIGUERA                                                                                        0480480001090108808800000000000000000000000N
0919870610222164OLVENA                                                                                              0480480000620105605600000000000000000002601N
0919870610244041BEZAS                                                                                               2162160000720107107100000000000000000004801N
0819870610244046BUEÑA                                                                                               2162160001670114714700000000000000100507405N
0819870610244094CUEVAS LABRADAS                                                                                     2162160002330118918900000000000002600605103N
0819870610719123FUENTELVIEJO                                                                                        1301300001010107907900000000000000000004405N
0819870610719127GALVE DE SORBE                                                                                      2572570002030117517500000000000000200414305N
0819870610719142HONTOBA                                                                                             1301300001480113413400000000000000400608605N
0919870610719146HUERCE (LA)                                                                                         2572570000330103203200000000000000000002001N
0919870610719165MAJAELRAYO                                                                                          1301300000690106606600000000000000000004001N
0819870610719167MALAGUILLA                                                                                          1301300002190119519500000000000000400217205N
0919870610719173MATARRUBIA                                                                                          1301300000500105005000000000000000000003101N
0819870610719179MEMBRILLERA                                                                                         1301300001050109309300000000000000000507405N
0819870610719181MIEDES DE ATIENZA                                                                                   2572570001830116316300000000000001200408205N
0919870610719199OCENTEJO                                                                                            1301300000550105505500000000000000000001901N
0919870610719228PUEBLA DE BELEÑA                                                                                    1301300000400103703700000000000000000001801N
0819870610719239ROBLEDILLO DE MOHERNANDO                                                                            1301300001900117017000000000000000000412605N
0819870610719240ROBLEDO DE CORPES                                                                                   2572570001090108608600000000000000000306505N
0919870610719249SAN ANDRES DEL REY                                                                                  1301300000520104804800000000000000000003101N
0919870610719261SOTODOSOS                                                                                           1301300000890108308300000000000000000003801N
0819870610719262TAMAJON                                                                                             1301300002130116216200000000000000100313805N
0919870610719278TORRECUADRADILLA                                                                                    1301300000980108208200000000000000000004301N
0919870610244203SALCEDILLO                                                                                          0500500000080100800800000000000000000000801N
0919870610244212SENO                                                                                                0130130000710106506500000000000000000002201N
0919870610250007ALADREN                                                                                             0940940000530105205200000000000000000003001N
0819870610250010ALBERITE DE SAN JUAN                                                                                2512510001170110710700000000000000400308105N
0819870610244178PARRAS DE CASTELLOTE (LAS                                                                           0130130001270111711700000000000000000408405N
0919870610244199RUBIALES                                                                                            2162160000370102802800000000000000000001401N
0819870610244225TORRE DEL COMPTE                                                                                    0130130002380119419400000000000000001113605N
0819870610244227TORRE LOS NEGROS                                                                                    0500500001220109809800000000000000100506205N
0819870610244228TORREMOCHA DEL JILOCA                                                                               2162160002320121121100000000000003401211005N
0919870610244239VALACLOCHE                                                                                          2162160000390103803800000000000000000002001N
0919870610250048BERRUECO                                                                                            0940940000390103803800000000000000000002901N
0819870610250134LANGA DEL CASTILLO                                                                                  0940940002410120620600000000000001300811405N
0819870610250174MONTON                                                                                              0940940001830116516500000000000000200014705N
0819870610250180MOZOTA                                                                                              0940940001480113013000000000000000100209005N
0819870610244229TORRES DE ALBARRACIN                                                                                2162160002170119119100000000000000600810105N
0819870610244240VALBONA                                                                                             2162160002240118918900000000000000300912005N
0819870610244252VILLAHERMOSA DEL CAMPO                                                                              0500500001060109109100000000000000000003805N
0819870610250009ALARBA                                                                                              0670670001730115515500000000000000500305705N
0919870610250016ALDEHUELA DE LIESTOS                                                                                0940940000860108108100000000000000000004301N
0919870610250041BAGUES                                                                                              0950950000130101001000000000000000000000701N
0819870610250052BISIMBRE                                                                                            2512510001660113913900000000000001900610105N
0819870610250054BORDALBA                                                                                            0670670001290112212200000000000001600204505N
0819870610250075CASTEJON DE ALARBA                                                                                  0670670001610114714700000000000001300708005N
0819870610250076CASTEJON DE LAS ARMAS                                                                               0670670001790116216200000000000000100313905N
0819870610250084CLARES DE RIBOTA                                                                                    0670670001360111811800000000000001000605904N
