0819870610800200001008205VALENTI RIERA VILAPLANA                                                              000000000110S
0819870610800200001008205SALVADOR SERRA CARBONELL                                                             000000000052S
0819870610800200001008205RAMON FIGUERA JUNYENT                                                                000000000044S
0819870610800200001008205FRANCISCO PERRAMON ISANTA                                                            000000000070S
0819870610800200001008205FELIP BONVEHI ALBETS                                                                 000000000052S
0819870610800800001004405RAMON DAVINS SEGALA                                                                  000000000053S
0819870610800800001004405JUAN BALCELLS COLILLAS                                                               000000000024S
0819870610800800001004405JOSEP MARIA SOLER VIVES                                                              000000000029S
0819870610800800001004405JOSEP MARIA PUJO QUERALT                                                             000000000042S
0819870610800800001004405JOSE ALBAREDA QUERALT                                                                000000000030S
0819870613407700000304501JOSE PEREZ CALVO                                                                     000000000040N
0819870613407700000304501GREGORIO MOTA INFANTE                                                                000000000046N
0819870613407700000304501FELIPE SIMON ARAGON                                                                  000000000057S
0819870613407700000304501BERNARDO MOVELLAN MOVELLAN                                                           000000000040N
0819870613408100000206305TEODORO VEGA ALVAREZ                                                                 000000000051S
0819870613408100000206305JOSE MARIA GONZALEZ MARAÑA                                                           000000000055S
0819870613408100000206305JOSE MARIA DE CASTRO APARICIO                                                        000000000048S
0819870613408100000206305FRANCISCO J DE CASTRO ALVAREZ                                                        000000000049S
0819870613408100000206305EMILIO ALONSO DE LA ROSA                                                             000000000049S
0819870613408100000301900BONIFACIO DE LA IGLESIA ANTON                                                        000000000023N
0819870613408100000301900ANGEL DE LA IGLESIA ANTON                                                            000000000015N
0819870613408200000101100BENITA SEVILLA ALEJOS                                                                000000000015N
0819870613408200000101100AMALIA VILLAHOZ GONZALEZ                                                             000000000008N
0819870613408200000207001RAMON ROJO VILLAR                                                                    000000000072S
0819870613408200000207001QUINIDIO GONZALEZ NIEVES                                                             000000000060N
0819870613408200000207001CRISPULO NIETO NIETO                                                                 000000000065N
0819870613408200000207001CARLOS MARIA REDONDO MENDOZA                                                         000000000064N
0819870613408200000207001ANGELICO CARRASCAL GONZALEZ                                                          000000000020N
0819870613408200000307204MOISES PINEDO ALONSO                                                                 000000000077S
0819870613408200000307204JOSE MARIA NUÑEZ REDONDO                                                             000000000074S
0819870613408200000307204EUTIMIO REDONDO ENCINAS                                                              000000000070S
0819870613408200000307204DELFIN NIETO GONZALEZ                                                                000000000070S
0819870613408400000307303VICTOR ARROYO GARCIA                                                                 000000000072S
0819870613408400000307303UBALDO SENDINO ARROYO                                                                000000000072S
0819870613408400000307303MICAELA ZARZOSA GIL                                                                  000000000076S
0819870613408400000307303JESUS ARROYO GARCIA                                                                  000000000008N
0819870613408400000307303CECILIO ROMAN PRIETO                                                                 000000000064N
0819870613408434084107102MARIANO GONZALEZ ARROYO                                                              000000000078S
0819870613408434084107102JULIO PRIETO TAPIA                                                                   000000000042N
0819870613408434084107102FELIX ARROYO ANDRES                                                                  000000000051N
0819870613408434084107102ANGEL GUIJAS MOZOS                                                                   000000000037N
0819870613408434084107102AMADOR GONZALEZ ARROYO                                                               000000000079S
0819870613408600000210105                                                                                     000000000081S
0819870613408600000210105                                                                                     000000000081S
0819870613408600000210105                                                                                     000000000081S
0819870613408600000210105                                                                                     000000000081S
0819870613408600000210105                                                                                     000000000081S
0819870613408700000104301SANTIAGO VALDEOLMILLOS ANTOLIN                                                       000000000048N
0819870613408700000104301JESUS M ANDRES PICADO                                                                000000000050S
0819870613408700000104301JESUS FRIAS CARPINTERO                                                               000000000032N
0819870613408700000104301ANGEL PARRA CARAZO                                                                   000000000015N
0819870613408700000104301ALEJANDRO VALDERRAMA ROYUELA                                                         000000000028N
0819870613408700000211004M RESURRECCION MARCOS VALDEOLM                                                       000000000113S
0819870613408700000211004JULIO VALDEOLMILLOS AZPELETA                                                         000000000096S
0819870613408700000211004JOSE M MARCOS PALACIOS                                                               000000000113S
0819870613408700000211004BLAS J GUIJAS VALDEOLMILLOS                                                          000000000113S
0819870613408700000211004ARTURO RODRIGUEZ MANCHON                                                             000000000008N
0819870613408800000105401MARIA DOLORES GARCIA BARAS                                                           000000000056N
0819870613408800000105401LUIS FRECHILLA MARTIN                                                                000000000059S
0819870613408800000105401JUAN RAMON LOPEZ ODRIOZOLA                                                           000000000054N
0819870613408800000105401CAVETANO MARTINEZ PELAEZ                                                             000000000049N
0819870613408800000207704PEDRO LOPEZ GARCIA                                                                   000000000067S
0819870613408800000207704JESUS M GATON SALOMON                                                                000000000080S
0819870613408800000207704DESIDERIO ARAGON GUARDO                                                              000000000009N
0819870613408800000207704BALTASAR CASTRO CARRACEDO                                                            000000000069S
0819870613408800000207704ANGEL CABEZAS ROJO                                                                   000000000085S
0819870613408800000303300JUAN C LOPEZ SANTOS CASCALLAR                                                        000000000028N
0819870613408800000303300JOSE LUIS AGUADO ROJO                                                                000000000039N
0819870613409100000101700SALOMON ANTOLINEZ HERRERO                                                            000000000023N
0819870613409100000101700MARIA R CUESTA RODRIGUEZ                                                             000000000019N
0819870613409100000101700ETELVINA HERRERO PEREZ                                                               000000000009N
0819870610525200000203201ISAAC JIMENEZ SANCHEZ                                                                000000000027N
0819870610525200000203201FELIX CARMONA DIAZ                                                                   000000000039S
0819870610525200000203201ELEUTERIO MARTIN MARTIN                                                              000000000013N
0819870610525200000302801MARINO JIMENEZ MUÑOZ                                                                 000000000026N
0819870610525200000302801M SAGRARIO GOMEZ JIMENEZ                                                             000000000031N
0819870610525200000302801ISMAEL JIMENEZ GONZALEZ                                                              000000000016N
0819870610525200000302801ANGEL MARTIN JIMENEZ                                                                 000000000039S
0819870610525300000206604MODESTO JIMENEZ ARRIBAS                                                              000000000076S
0819870610525300000206604JOSE JIMENEZ ARRIBAS                                                                 000000000055S
0819870610525300000206604HORACIO GARCIA GONZALEZ                                                              000000000056S
0819870610525300000206604FRANCISCO GONZALEZ GALAN                                                             000000000054S
0819870610525300000206604EDELMIRA SAEZ RODRIGUEZ                                                              000000000024N
0819870610525300000302901M TRINIDAD HERNANDEZ HERNANDEZ                                                       000000000025N
0819870610525300000302901M ALEJANDRA GARCIA FERNANDEZ                                                         000000000037S
0819870610525300000302901JUAN ANTONIO MARTIN LOPEZ                                                            000000000025N
0819870610525600000208303OSMUNDO MARTIN HERNANDO                                                              000000000068N
0819870610525600000208303INOCENCIO L MARTIN ROMERO                                                            000000000018N
0819870610525600000208303FRANCISCO COELLO GONZALEZ                                                            000000000088S
0819870610525600000208303FABIO COELLO SANCHEZ                                                                 000000000073S
0819870610525600000208303EPIFANIO GUTIERREZ MUÑOZ                                                             000000000087S
0819870610525600000307502LUCIANO MARTIN JIMENEZ                                                               000000000060N
0819870610525600000307502JUAN MIGUEL MARTIN RAMOS                                                             000000000072S
0819870610525600000307502JUAN MANUEL MUÑOZ MUÑOZ                                                              000000000071S
0819870610525600000307502FRCP JAVIER RAMOS HERNANDEZ                                                          000000000048N
0819870610525600000307502ANTONIO ROMERO MARTIN                                                                000000000049N
0819870610525800000103601M NIEVES GUTIERREZ CUENCA                                                            000000000031N
0819870610525800000103601JESUS GONZALEZ AGUERO                                                                000000000028N
0819870610525800000103601FLORENCIO MARTIN GUTIERREZ                                                           000000000027N
0819870610525800000103601ANTONIO MIGUEL GARCIA                                                                000000000061S
0819870610525800000207004RAQUEL R BARCALA GARCIA                                                              000000000010N
0819870610525800000207004NICEFORO GARCIA DIAZ                                                                 000000000081S
0819870610525800000207004MARCOS MARAZUELA LOPEZ                                                               000000000057S
0819870610525800000207004FELIPE GUTIERREZ FERNANDEZ                                                           000000000063S
0819870610525800000207004CESAR GARCIA LOPEZ                                                                   000000000072S
0819870610525800000304600ROSA MARIA CUENCA CUENCA                                                             000000000041N
0819870610525800000304600M SONSOLES SANCHEZ GARCIA                                                            000000000019N
0819870610525800000304600JAVIER FERNANDEZ SAEZ                                                                000000000027N
0819870610525800000304600FRUTOS GARCIA GALAN                                                                  000000000055N
0819870610525800000304600ELICIO MARTIN GUTIERREZ                                                              000000000044N
0819870610526100000304805SATURNINO SANCHEZ CARRETERO                                                          000000000049S
0819870610526100000304805PAULINO DIAZ LOPEZ                                                                   000000000035S
0819870610526100000304805MANUEL HERNANDEZ HERNANDEZ                                                           000000000038S
0819870610526100000304805JUSTINO HERNANDEZ BLAZQUEZ                                                           000000000046S
0819870610526100000304805JUSTINIANO DOMINGUEZ HERNANDEZ                                                       000000000026S
0819870610526400000304004JUAN MARTIN GUTIERREZ                                                                000000000041S
0819870610526400000304004FELIPE SAEZ LOPEZ                                                                    000000000037S
0819870610526400000304004EMILIANO GONZALEZ LOPEZ                                                              000000000046S
0819870610526400000304004ANSELMO JIMENEZ LOPEZ                                                                000000000037S
0819870610526500000204401JOSE LUIS MARTIN GARCIA                                                              000000000032N
0819870610526500000204401EMIGDIO JIMENEZ DEL OJO                                                              000000000059S
0819870610526500000204401CREMENCIO MARTIN GARCIA                                                              000000000042N
0819870610526500000306204VICTOR MARTIN SAEZ                                                                   000000000068S
0819870610526500000306204PRUDENCIO GOMEZ MARTIN                                                               000000000056S
0819870610526500000306204JESUS HERNANDO MARTIN                                                                000000000056S
0819870610526500000306204FAUSTO ASTUDILLO ALONSO                                                              000000000049S
0819870610526500000306204ANICETO JIMENEZ JIMENEZ                                                              000000000019N
0819870610526700000103200MIGUEL ANGEL PRIETO NUÑEZ                                                            000000000039N
0819870610526700000103200FELIX PRIETO ESTEVEZ                                                                 000000000027N
0819870610526700000103200DELFIN PEREZ DEGANO                                                                  000000000038N
0819870610526700000103200ALBERTO PRIETO GARGANTILLA                                                           000000000026N
0819870613409100000204702ZOSIMO CUESTA RODRIGUEZ                                                              000000000051S
0819870613409100000204702IRENEO CUESTA MODINOS                                                                000000000063S
0819870613409100000204702FRANCISCO J SALAN SALAN                                                              000000000018N
0819870613409100000204702EUTIQUIO A GIL RUEDA                                                                 000000000027N
0819870613409100000204702ABILIO LERA GIL                                                                      000000000030N
0819870613409100000305803MIGUEL MODINOS BORGE                                                                 000000000024N
0819870613409100000305803JESUS PEREZ PEREZ                                                                    000000000043S
0819870613409100000305803EMILIO MERINO GARCIA                                                                 000000000049S
0819870613409100000305803AMADOR GUTIERREZ MISAS                                                               000000000075S
0819870613409100000305803ADOLFO CUESTA CUESTA                                                                 000000000043N
0819870613409300000204605VICTORIANO FUENTE FUENTE                                                             000000000025S
0819870613409300000204605JAVIER GARCIA FUENTE                                                                 000000000039S
0819870613409300000204605FERMIN FUENTE SAN MILLAN                                                             000000000033S
0819870613409300000204605ANTONIO FUENTE IZQUIERDO                                                             000000000037S
0819870613409300000204605AGUSTIN VEGA VEGA                                                                    000000000050S
0819870613409400000101700DEMETRIO FERNANDEZ VALBUENA                                                          000000000017N
0819870613409400000205003LAURO B GONZALO SALAN                                                                000000000051S
0819870613409400000205003JESUS EVELIO DUJO DUJO                                                               000000000054S
0819870613409400000205003FLORENTINO MERINO GARCIA                                                             000000000045S
0819870613409400000302802JESUS GONZALEZ ACERO                                                                 000000000029S
0819870613409400000302802DONACIANO DUJO CAMINERO                                                              000000000032S
0819870613409400000302802ALBERTO E BORJE CAMPOS                                                               000000000024N
0919870613409600000303401JESUS RAMIREZ SAN MARTIN                                                             000000000034S
0819870613409900000204004TEODORO GARCIA PEREZ                                                                 000000000035S
0819870613409900000204004MARIANO GARCIA PEREZ                                                                 000000000004N
0819870613409900000204004JOSE MARTINEZ GALLARDO                                                               000000000039S
0819870613409900000204004JOSE M BARRERA INFANTE                                                               000000000042S
0819870613409900000204004EUGENIO RETUERTO MERINO                                                              000000000040S
0819870613409900000302501SEVERIANO VALTIERRA FERNANDEZ                                                        000000000027S
0819870613409900000302501PAULINO MERINO VICENTE                                                               000000000025N
0819870613409900000302501MARIANO ALONSO HERRERO                                                               000000000025N
0819870613409900000302501JUAN CARLOS CABALLERO VALTIERR                                                       000000000025N
0819870613410100000205205ROSA M REVUELTA ROMERO                                                               000000000037S
0819870613410100000205205MARIA B ESTEBANEZ GIL                                                                000000000044S
0819870613410100000205205MARCIANA I ESTEBANEZ ALVAREZ                                                         000000000046S
0819870613410100000205205LUIS REVUELTA CLEMENTE                                                               000000000032S
0819870613410100000205205ESTEBAN DIEZ BURGOS                                                                  000000000052S
0819870613410300000208404MARIA J SANTOS DE LA ROSA                                                            000000000069S
0819870613410300000208404JOSE A CORREAS MUÑOZ                                                                 000000000083S
0819870613410300000208404INDALECIO APARICIO SANTOS                                                            000000000089S
0819870613410300000208404GLICERIO MELERO IBAÑEZ                                                               000000000030N
0819870613410300000208404FIDEL SANTOS BAJO                                                                    000000000066S
0819870613410300000303801VICTOR HERNANDEZ MARCOS                                                              000000000037N
0819870613410300000303801TEODULO ARMESTO GOMEZ                                                                000000000046S
0819870613410300000303801JOSE CALONGE POLO                                                                    000000000041N
0819870613410300000303801ANASTASIO JUARA GARCIA                                                               000000000029N
0819870613410600000104600MARIA J VILLA ROBLES                                                                 000000000012N
0819870613410600000104600LOPE BAZA DE CASO                                                                    000000000028N
0819870613410600000104600FRANCISCO MARTIN HERRERO                                                             000000000036N
0819870613410600000104600FELIPE CISNEROS GUTIERREZ                                                            000000000056N
0819870613410600000104600ADRIANO MATE GUTIERREZ                                                               000000000054N
0819870613410600000211605MODESTO FERNANDEZ FRONTELA                                                           000000000081S
0819870613410600000211605MIGUEL CAMINA GARCIA                                                                 000000000118S
0819870613410600000211605MARCIANO VILLA GARCIA                                                                000000000077S
0819870613410600000211605CESAR J CAMINA BARRIGA                                                               000000000110S
0819870613410600000211605ALBERTO J BLANCO SANCHEZ                                                             000000000080S
0819870613410700000205405SEVERINO CALVO MERINO                                                                000000000037S
0819870613410700000205405NILO BARBERO PEREZ                                                                   000000000047S
0819870613410700000205405GUILLERMO FUENTE GARCIA                                                              000000000039S
0819870613410700000205405FRANCISCO J FRAILE CUBILLO                                                           000000000052S
0819870610526700000203200LORENZO DE LA CALLE PRIETO                                                           000000000032N
0819870610526700000307905PEDRO MANUEL CASELLES PRIETO                                                         000000000075S
0819870610526700000307905PEDRO CASELLES DE LA PEÑA                                                            000000000076S
0819870610526700000307905ENRIQUE CAMPOBIN DE MATIAS                                                           000000000059S
0819870610526700000307905DARIA CAMPROBIN FRAILE                                                               000000000056S
0819870610526700000307905CAYETANO PRIETO JIMENEZ                                                              000000000052S
0919870610900100000102601MARCO ANTONIO GARCIA ALONSO                                                          000000000026S
0819870610900600000103401VICTORINO GARCIA SANZ                                                                000000000032N
0819870610900600000103401TARSICIO GARCIA BARCENA                                                              000000000038S
0819870610900600000103401GERONIMO BLANCO GUTIERREZ                                                            000000000000N
0819870610900600000103401COSME GOMEZ PEREZ                                                                    000000000036N
0819870610900600000103401CASIMIRO HINOJOSAPEREZ                                                               000000000030N
0819870610900600000205904URBANO FERNANDEZ MARTINEZ                                                            000000000059S
0819870610900600000205904MIGUEL FERNANDEZ MARTINEZ                                                            000000000052S
0819870610900600000205904LUIS GONZALEZ SAIZ                                                                   000000000063S
0819870610900600000205904ADOLFO BARCENA SAEZ                                                                  000000000012N
0819870610900600000205904ABELARDO MARTINEZ NUÑEZ                                                              000000000050S
0819870610900700000104105JOSE MARIA GONZALEZ MANZANEDO                                                        000000000017S
0819870610900700000104105JOSE LUIS MARTINEZ CALZADA                                                           000000000030S
0819870610900700000104105FRANCISCO GOMEZ ANDRES                                                               000000000027S
0819870610900700000104105FORTUNATO SAEZ CUESTA                                                                000000000042S
0819870610900700000104105ALEJANDRO GONZALEZ GONZALEZ                                                          000000000048S
0819870610900900000203404JESUS ARCE GONZALEZ                                                                  000000000030S
0819870610900900000203404EVELIO GONZALEZ BLANCO                                                               000000000037S
0819870610900900000203404ELENA ARLANZON PARDO                                                                 000000000028S
0819870610900900000203404ABEL REDONDO ARLANZON                                                                000000000041S
0919870610901000000203701                                                                                     000000000037S
0819870610901100000203703LUCIONIO GUTIERREZ SEDANO                                                            000000000021N
0819870610901100000203703LAUREANO CHOMON LOPEZ                                                                000000000036S
0819870610901100000203703JESUS PEÑA GUTIERREZ                                                                 000000000032S
0819870610901100000203703JESUS PEÑA GUTIERREZ                                                                 000000000028N
0819870610901100000203703CLEMENTINO LOPEZ SAIZ                                                                000000000032S
0819870610901100000303702PEDRO LUIS SEDANO GOMEZ                                                              000000000043S
0819870610901100000303702FILIBERTO LOPEZ FERNANDEZ                                                            000000000021N
0819870610901100000303702ENRIQUE LOPEZ SAIZ                                                                   000000000025N
0819870610901100000303702ANGEL VALLEJO SERNA                                                                  000000000027N
0819870610901100000303702ANGEL HERVOSA LOPEZ                                                                  000000000034S
0819870610901200000204504LUIS GUTIERREZ HERBOSA                                                               000000000035S
0819870610901200000204504LUIS GARCIA ARGUESO                                                                  000000000042S
0819870610901200000204504JAVIER FERNANDEZ RODRIGUEZ                                                           000000000052S
0819870610901200000204504HONORIO PUENTE PEREZ                                                                 000000000012N
0819870610901200000204504ABILIO RODRIGUEZ BUSTAMANTE                                                          000000000042S
0819870610901200000302901SEGUNDO DIEZ LUCIO                                                                   000000000024N
0819870610901200000302901RICARDO GARCIA GARCIA                                                                000000000028S
0819870610901200000302901ISAAC LOPEZ ISLA                                                                     000000000024N
0819870610901200000302901FEDERICO MARTINEZ DIAZ                                                               000000000022N
0819870610901200000302901ANGEL SAIZ RUIZ                                                                      000000000018N
0919870610901300000203501DEMETRIO MEDINA BARRASA                                                              000000000035S
0919870610901600000102701ABEL VAL ALAVA                                                                       000000000027S
0819870610901700000105405JOSE MARIA SANZ BALLESTEROS                                                          000000000044S
0819870610901700000105405JOSE BALLESTEROS MARTINEZ                                                            000000000052S
0819870610901700000105405GERARDO CUESTA ZAPATERO                                                              000000000060S
0819870610901700000105405EVENCIO OZORES FERNANDEZ                                                             000000000036S
0819870610901700000105405EMILIANO SIMON CANO                                                                  000000000027S
0819870610901900000107804PEDRO MARTINEZ SERRANO                                                               000000000062S
0819870610901900000107804JOSE JAVIER MARTINEZ HERRERO                                                         000000000080S
0819870610901900000107804ISIDRO GONZALO JUEZ                                                                  000000000077S
0819870610901900000107804AVELINO PASCUAL HERNANDO                                                             000000000054S
0819870610901900000107804ANGEL CARAZO MARTINEZ                                                                000000000042N
0819870610901900000304201ORENCIO JUEZ CAMARERO                                                                000000000045S
0819870610901900000304201MICOMEDES GONZALEZ MORENO                                                            000000000044N
0819870613410700000205405EXIQUIO MIER RUIZ                                                                    000000000044S
0819870613410900000202705PARMENIO CUESTA MERINO                                                               000000000024S
0819870613410900000202705MANUEL GONZALEZ PISONERO                                                             000000000020S
0819870613410900000202705JOSE LUIS SANTOS PEREZ                                                               000000000026S
0819870613410900000202705EUTIQUIO MIGUEL VELASCO                                                              000000000023S
0819870613410900000202705DOMICIANO VELASCO CABALLERO                                                          000000000016S
0819870613411000000106902MARIO REVILLA GARCIA                                                                 000000000051N
0819870613411000000106902MARIA A ESTALAYO BARRIUSO                                                            000000000056S
0819870613411000000106902JOSE M FERNANDEZ GUTIERREZ                                                           000000000046N
0819870613411000000106902FRANCISCO RUBIO SIERRA                                                               000000000052N
0819870613411000000106902FAUSTINO RIVERO FERNANDEZ                                                            000000000074S
0819870613411000000206403MIGUEL ANGEL REVILLA GOMEZ                                                           000000000054S
0819870613411000000206403MARIO ARTON ROLDAN                                                                   000000000054S
0819870613411000000206403LUIS GARCIA ABAD                                                                     000000000058S
0819870613411000000206403FERNANDO OLMO MELENDEZ                                                               000000000050N
0819870613411000000206403AUDELINO MERINO ESTALAYO                                                             000000000040N
0819870613411200000203505SANTIAGO TEJEDOR HERRERO                                                             000000000023S
0819870613411200000203505LUIS PEREZ CARANDE                                                                   000000000039S
0819870613411200000203505JOSE M MARTINEZ MAYORDOMO                                                            000000000019S
0819870613411200000203505CONSTANTINO MAYORDOMO ESCUDERO                                                       000000000033S
0819870613411200000203505ANGEL M PEREZ MARTINEZ                                                               000000000026S
0819870613411200000301500MARIA C CASADO FERRER                                                                000000000011N
0819870613411200000301500JOSE A MARTINEZ MAYORDOMO                                                            000000000016N
0819870613411200000301500FELIX PEREZ TEJEDOR                                                                  000000000019N
0919870613411300000202701PERFECTO MERINO ORTEGA                                                               000000000027S
0819870613411600000203505TEODORO ALBA CEBRIAN                                                                 000000000030S
0819870613411600000203505PORFIRIO REY RAMOS                                                                   000000000015S
0819870613411600000203505JESUS GUTIERREZ GIMON                                                                000000000035S
0819870613411600000203505IGNACIO REDONDO GARCIA                                                               000000000029S
0819870613411600000203505ELIAS MARTIN GUERRERO                                                                000000000032S
0819870610901900000304201JUAN ANSELMO GONZALEZ CREZO                                                          000000000037N
0919870610902709027101901SALVADOR MORQUILLAS MARINA                                                           000000000019S
0819870610902900000212105                                                                                     000000000097S
0819870610902900000212105                                                                                     000000000097S
0819870610902900000212105                                                                                     000000000097S
0819870610902900000212105                                                                                     000000000097S
0819870610902900000212105                                                                                     000000000097S
0819870610903000000106405TOMAS SANTAMARIA SANTOS                                                              000000000053S
0819870610903000000106405SILVESTRE ESPINOSA ESPINOSA                                                          000000000062S
0819870610903000000106405JESUS MORENO HERAS                                                                   000000000054S
0819870610903000000106405CIPRIANO SAIZ SAIZ                                                                   000000000052S
0819870610903000000106405CARLOS FRANCISCO ALVAREZ MAESO                                                       000000000038S
0819870610903200000107605SERVILIANO GARCIA ANDRES                                                             000000000064S
0819870610903200000107605MIGUEL ANGEL GARCIA SAIZ                                                             000000000054S
0819870610903200000107605ISMAEL GRANDE CABNES                                                                 000000000067S
0819870610903200000107605ENRIQUE SANCHO ELENA                                                                 000000000065S
0819870610903200000107605ANGEL ORTEGA ELENA                                                                   000000000057S
0819870610903300000206005MAXIMILIANO NUÑEZ LAZARO                                                             000000000029S
0819870610903300000206005MANUEL SANTIDRIAN NUÑEZ                                                              000000000049S
0819870610903300000206005INOCENCIO INFANTE ABAJO                                                              000000000046S
0819870610903300000206005ANDRES PICON LAZARO                                                                  000000000064S
0819870610903300000206005ALEJANDRO LAZARO AYALA                                                               000000000054S
0919870610903600000302401VALENTIN GARCIA GARCIA                                                               000000000024S
0819870610903709037104705SIMON GONZALEZ MARTINEZ                                                              000000000037S
0819870610903709037104705RICARDO GARACHANA GARACHANA                                                          000000000030S
0819870610903709037104705RAMON MARTINEZ GARCIA                                                                000000000057S
0819870610903709037104705MARCELINO MARTIN BENITO                                                              000000000029S
0819870610903709037104705AURELIO GARACHANA SALAS                                                              000000000038S
0819870610903800000209505MARIANO MIGUEL GONZALEZ                                                              000000000059S
0819870610903800000209505JOSE ANTONIO SANCHO HERAS                                                            000000000086S
0819870610903800000209505GUILLERMO HERAS SEBASTINA                                                            000000000051S
0819870610903800000209505GERMINIANO HERNANDO HURTADO                                                          000000000086S
0819870610903800000209505EMILIO GONZALEZ ALAMO                                                                000000000101S
0819870610903900000205205RICARDO CARDERO IZQUIERDO                                                            000000000036S
0819870610903900000205205JESUS OZARIN CARDERO                                                                 000000000044S
0819870610903900000205205FEDERICO ARREBA MORENO                                                               000000000048S
0819870610903900000205205CLAUDIO GOMEZ CARDERO                                                                000000000058S
0819870610903900000205205CELESTINO PERALTA CARDERO                                                            000000000025S
0919870610904100000202101PEDRO LONGINOS GOMEZ PEÑA                                                            000000000021S
0919870610904400000203201EMILIANO LUICAS GIL                                                                  000000000032S
0819870610904600000209305                                                                                     000000000074S
0819870610904600000209305                                                                                     000000000074S
0819870610904600000209305                                                                                     000000000074S
0819870610904600000209305                                                                                     000000000074S
0819870610904600000209305                                                                                     000000000074S
0919870610904700000204101CARLOS ROBERTO PEREZ RIO                                                             000000000041S
0819870610905000000203905LOURDES RAMIREZ ALAVA                                                                000000000038S
0819870610905000000203905JOSE RAMON ORIVE CORCUERA                                                            000000000028S
0819870610905000000203905JOSE MIGUEL ARBAZAGOITIAPEREZ                                                        000000000023S
0819870610905000000203905JESUS MARIA GUINEA RAMIREZ                                                           000000000035S
0819870610905000000203905CLEMENTE RAMIRO USAOLA GUINE                                                         000000000035S
0919870610905200000202501ALFONSO GARCIA GARCIA                                                                000000000025S
0919870610905400000203001FERNANDO RUIZ ANGULO QUINCOC                                                         000000000030S
0819870610905500000104704VICTORINO LOSADA HOZ                                                                 000000000044S
0819870610905500000104704RUFINO AGUILERA CARAZO                                                               000000000050S
0819870610905500000104704PEDRO ZAYAS GARCIA                                                                   000000000050S
0819870610905500000104704JOSE LOZANO SANTAMARIA                                                               000000000039S
0819870610905500000104704ENRIQUE ZAYAS MORAN                                                                  000000000005N
0819870610905500000303401SEBASTIAN ZAYAS LOZANO                                                               000000000033N
0819870610905500000303401JUAN GARCIA AGUILERA                                                                 000000000035S
0819870610905500000303401ISAAC MORENO SEBASTIAN                                                               000000000003N
0819870610905500000303401ANTONIO ORTIZ ORTIZ                                                                  000000000033N
0819870610905500000303401ANICETO CARAZO ZAYAS                                                                 000000000032N
0819870610905700000102304VICTORIANO FERNANDEZ VESGA                                                           000000000011S
0819870610905700000102304JOSE RAMON GOMEZ URBINA                                                              000000000029S
0819870610905700000102304CESAR VALDERRAMA URRUCHI                                                             000000000030S
0819870610905700000102304ALFONSO MARTINEZ FUENTE                                                              000000000022S
0819870610905700000401401JOSE ANTONIO MARTINEZ FUENTE                                                         000000000014S
0819870610905800000205903VICENTE MELGOSA ALBILLOS                                                             000000000062S
0819870610905800000205903TEODORO MELGOSA ALBILLOS                                                             000000000054N
0819870610905800000205903JOSE IGNACIO ARCOS ALONSO                                                            000000000057S
0819870610905800000205903FELIPE PUENTE RODRIGUEZ                                                              000000000004N
0819870610905800000205903CARLOS SALDAÑA ALONSO                                                                000000000061S
0819870610905800000305902SANTOS VALERIANO VAL ALBILLOS                                                        000000000054N
0819870610905800000305902MIGUEL DEL VAL MARTINEZ                                                              000000000049N
0819870610905800000305902MAXIMO TAJADURA ALBILLOS                                                             000000000064S
0819870610905800000305902FRANCISCO PUENTE BARRERA                                                             000000000056S
0819870610905800000305902ABRAHAN DEL VAL MELGOSA                                                              000000000015N
0919870610906200000202501MARIANO LACALLE ANDRES                                                               000000000025S
0819870610906300000207302RICARDO GONZALO MARTINEZ                                                             000000000035N
0819870610906300000207302MIGUEL MARIN PARDO                                                                   000000000071S
0819870610906300000207302ISIDRO VIVAR BEREZO                                                                  000000000047N
0819870610906300000207302FAUSTINO ARCEO MARTINEZ                                                              000000000050N
0819870610906300000207302CARLOS ROJOS MARTIN                                                                  000000000089S
0819870610948500000205305                                                                                     000000000040S
0819870610948500000205305                                                                                     000000000036S
0819870610948500000205305                                                                                     000000000038S
0819870610948500000205305                                                                                     000000000048S
0819870610948500000205305                                                                                     000000000050S
0819870612403200000106701VITALINO M.CARTUJO SERRANO                                                           000000000068N
0819870612403200000106701ISABEL MARTINEZ ALONSO                                                               000000000072N
0819870612403200000106701DELFIN F.MANSO GONZALEZ                                                              000000000072S
0819870612403200000106701DAMASO SERRANO HERRERO                                                               000000000056N
0819870612403200000209304VICTORINO RODRIGUEZ RODRIGUEZ                                                        000000000090S
0819870612403200000209304LUCIO E.GONZALEZ HERRERO                                                             000000000083S
0819870612403200000209304FERNANDO DOMINGUEZ GALLEGO                                                           000000000022N
0819870612403200000209304ESTEBAN GARCIA GONZALEZ                                                              000000000091S
0819870612403200000209304AVELINO E.GALLEGO MARTINEZ                                                           000000000087S
0819870612403200000300100ISABEL CASAS FERNANDEZ                                                               000000000002N
0819870612403200000300100FERNANDO J.AZNAR FERNANDEZ                                                           000000000001N
0819870612404200000105504MAXIMINO GARCIA GAITERO                                                              000000000053S
0819870612404200000105504JOSE MANUEL SANTOS MARTINEZ                                                          000000000004N
0819870612404200000105504JOSE LUIS RUANO PASTRANA                                                             000000000050S
0819870612404200000105504JESUS GARRIDO BARRIENTOS                                                             000000000060S
0819870612404200000105504ANTONIO PEREZ GARRIDO                                                                000000000055S
0819870612404200000203701JUAN F. FERNANDEZ RUANO                                                              000000000018N
0819870612404200000203701JAVIER RIOL MARTINEZ                                                                 000000000032N
0819870612404200000203701GREGORIO MERINO VALLE                                                                000000000039S
0819870612404200000203701ARSENIO FERNANDEZ RIOL                                                               000000000033N
0819870612404200000203701ANGEL J.BARRIENTOS PEREZ                                                             000000000028N
0819870610506900000203702AFRODISIO RODRIGUEZ RODRIGUEZ                                                        000000000028N
0819870610506900000303503MANUEL RODRIGUEZ SANZ                                                                000000000013N
0819870610506900000303503JUSTINO MARTIN GONZALEZ                                                              000000000038S
0819870610506900000303503HERMINIO S RODRIGUEZ SANTAMARI                                                       000000000031S
0819870610506900000303503DEMETRIO RODRIGUEZ SANTAMARIA                                                        000000000041S
0819870610506900000303503ANDRES DE JUAN GONZALEZ                                                              000000000020N
0819870610507000000203904VICTORIANO MAÑOSO LLORENTE                                                           000000000039S
0819870610507000000203904LEOCADIO TOMAS GIBAJA ALONSO                                                         000000000000N
0819870610507000000203904FABIO ESTEBAN PEREZ MARTIN                                                           000000000041S
0819870610507000000203904CARLOS SAINZ SENOVILLA                                                               000000000038S
0819870610507000000203904ANDRES LLORENTE MARTIN                                                               000000000038S
0819870610507000000303301VALENTIN MARTIN ALONSO                                                               000000000033S
0819870610507000000303301PEDRO ISMAEL MARTIN PIRAL                                                            000000000032N
0819870610507000000303301LUIS MIGUEL LLORENTE JIMENEZ                                                         000000000030N
0819870610507000000303301FRANCISCO LLORENTE ROMO                                                              000000000030N
0819870610507000000303301EMILIO CIPRIANO ALONSO LLORENT                                                       000000000007N
0819870610507200000104403JUAN MANUEL HERNANDEZ HERRERO                                                        000000000005N
0819870610507200000104403JOSE LUIS RUEDA GONZALEZ                                                             000000000047S
0819870610507200000104403FA>BIAN HERNANDEZ HIDALGO                                                            000000000045S
0819870610507200000104403EVELIO VALVERDE MERINERO                                                             000000000043S
0819870610507200000104403ANGEL BARTOLOME PEÑA                                                                 000000000036N
0819870610507200000303902RAQUEL CALLEJO LOPEZ                                                                 000000000030N
0819870610507200000303902MAURO RUBIO VALVERDE                                                                 000000000022N
0819870610507200000303902JOSE ANTONIO CALLEJO LOPEZ                                                           000000000037S
0819870610507200000303902ENRIQUE RUEDA SACRISTAN                                                              000000000032N
0819870610507200000303902DIODORO NIETO OLMEDO                                                                 000000000037S
0819870610507500000305005PABLO MAYORGA MANCEBO                                                                000000000026S
0819870610507500000305005MARTIN ROGELIO SANCHEZ ORTIZ                                                         000000000052S
0819870610507500000305005HIPOLITO GIRON PRIETO                                                                000000000032S
0819870610507500000305005FLORNCIO GONZALEZ SANCHEZ                                                            000000000057S
0819870610507500000305005ELOY GARCIA RODRIGUEZ                                                                000000000036S
0819870610507900000205804PORFIRIO RODRIGUEZ PEREZ                                                             000000000060S
0819870610507900000205804PABLO GONZALEZ HERNANDEZ                                                             000000000055S
0819870610507900000205804MAXIMO GONZALEZ SANTOS                                                               000000000010N
0819870610507900000205804JOSE GARCIA GOMEZ                                                                    000000000057S
0819870610507900000205804INOCENCIO JIMENEZ SAEZ                                                               000000000053S
0819870610507900000304601MARIANO GONZALEZ SAEZ                                                                000000000029N
0819870610507900000304601JESUS SANTOS HERRAEZ                                                                 000000000051N
0819870610507900000304601JESUS SANCHEZ JIMENEZ                                                                000000000053S
0819870610507900000304601BALDOMERO SANTOS SANTOS                                                              000000000051N
0819870610508000000202400DARIO DIAZ JIMENEZ                                                                   000000000024N
0819870610508000000303201JUSTO NIETO MUÑOZ                                                                    000000000035N
0819870610508000000303201JULIO JIMENEZ BARROSO                                                                000000000029N
0819870610508000000303201ELOY BARROSO PEREZ                                                                   000000000036S
0819870610508000000303201CECILIO DIAZ DIAZ                                                                    000000000029N
0819870610508005080105904RICARDO DIAZ SANCHEZ                                                                 000000000058S
0819870610508005080105904JOSE MIGUEL RODRIGUEZ GOMEZ                                                          000000000053S
0819870610508005080105904EMILIANO SANCHEZ BARROSO                                                             000000000065S
0819870610508005080105904BLAS BARROSO NIETO                                                                   000000000062S
0819870610508100000305105MIGUEL ELVIRA SANCHEZ                                                                000000000044S
0819870610508100000305105JUAN SANCHEZ GOMEZ                                                                   000000000041S
0819870610508100000305105JOSE SANTANA GOMEZ                                                                   000000000035S
0819870610508100000305105FELIX GONZALEZ SANTANA                                                               000000000039S
0819870610508100000305105FCO GARCIA HERNANDEZ                                                                 000000000046S
0819870610508400000108904JOSE LUIS GARCIA DIAZ                                                                000000000089S
0819870610508400000108904JOSE GARCIA BLAZQUEZ                                                                 000000000085S
0819870610906300000307603RAUL GONZALEZ PARDO                                                                  000000000074S
0819870610906300000307603JUAN MARIN MARIN                                                                     000000000057N
0819870610906300000307603JOSE MARIA RUIZ DELGADO                                                              000000000083S
0819870610906300000307603FELIPE CALVO SAIZ                                                                    000000000069S
0819870610906300000307603ANGEL CANTERO ROLDAN                                                                 000000000023N
0819870610906500000107205VICTORINO SEBASTIANDIEGO                                                             000000000064S
0819870610906500000107205GERMAN DIEGO DIEGO                                                                   000000000068S
0819870610906500000107205FELIX AYUSO GARCIA                                                                   000000000027S
0819870610906500000107205BENITO GONZALEZ VAL                                                                  000000000068S
0819870610906500000107205ANGEL BAJO GARCIA                                                                    000000000061S
0819870610906609066103105ROBERTO GUTIERREZ JARAMILLO                                                          000000000022S
0819870610906609066103105PEDRO CAMARA GUTIERREZ                                                               000000000022S
0819870610906609066103105LUIS ALONSO GIL                                                                      000000000021S
0819870610906609066103105LORENZO MANERO GIL                                                                   000000000031S
0819870610906609066103105JOSE MARIA MORENO GARCIA                                                             000000000030S
0919870610906800000204901RAFAEL GARCIA ALONSO                                                                 000000000049S
0919870610907000000203101MOISES PINILLA CEBRIAN                                                               000000000031S
0919870610907100000202901JESUS RODRIGUEZ CONDE                                                                000000000029S
0819870610907200000304102LUIS ANGEL PALACIOS PALACIOS                                                         000000000039N
0819870610907200000304102JUAN REVILLA ANTON                                                                   000000000043S
0819870610907200000304102JESUS SAIZ MIGUEL                                                                    000000000040N
0819870610907200000304102ELADIO SAIZ MORENO                                                                   000000000003N
0819870610907200000304102ALFREDO AUSIN GONZALEZ                                                               000000000041S
0819870610907209072104703TOMAS GONZALEZ MAESO                                                                 000000000047S
0819870610907209072104703JOSE ANTON PALACIOS                                                                  000000000050S
0819870610907209072104703HERMOGENES CUBILLO MARTINEZ                                                          000000000043S
0819870610907209072104703FELIX GONZALEZ PORRAS                                                                000000000009N
0819870610907209072104703DOMINGO SAIZ GARCIA                                                                  000000000040N
0919870610907500000303101MATIAS BRAVO BRAVO                                                                   000000000031S
0919870610907609076103401JACINTO ORTIZ VADILLO                                                                000000000034S
0919870610907700000303301RAFAEL CORNEJO QUINTANA                                                              000000000033S
0919870610907800000202101LUIS MARIANO PALACIOS LAZARO                                                         000000000021S
0919870610907909079103301SEFARIN PEÑA MATE                                                                    000000000033S
0819870610908200000204305RICARDO GOMEZ ALONSO                                                                 000000000014S
0819870610908200000204305RAMON ANTONIO GOMEZ CARCEDO                                                          000000000027S
0819870610908200000204305LADISLAO SUAZO PEREZ                                                                 000000000064S
0819870610908200000204305JUAN ANTONIO ERAÑA ALONSO                                                            000000000029S
0819870613412700000102901BERNARDO GARCIA MARTINEZ                                                             000000000010N
0819870613412700000205503M CARMEN MERINO RETUERTO                                                             000000000006N
0819870613412700000205503JUAN BLANCO ROJO                                                                     000000000065S
0819870613412700000205503JOSE L MARCOS PINTO                                                                  000000000077S
0819870613412700000205503ISIDRO ALVAREZ RETUERTO                                                              000000000050S
0819870613412700000205503CESAR REBOLLEDO RODRIGUEZ                                                            000000000024N
0819870613412700000304501LUIS A GOMEZ MALANDA                                                                 000000000052S
0819870613412700000304501JUAN C CARRANCIO ALVAREZ                                                             000000000044N
0819870613412700000304501GAUDENCIO ANTOLIN PISANO                                                             000000000049N
0819870613412700000304501CARLOS ROJO MONTERO                                                                  000000000038N
0819870613413100000204505ROSENDO LAMO ANTOLINEZ                                                               000000000054S
0819870613413100000204505PEDRO QUINTANILLA GARCIA                                                             000000000036S
0819870613413100000204505MARIANO G QUINTANILLA PEREZ                                                          000000000040S
0819870613413100000204505JULIAN GARCIA QUINTANILLA                                                            000000000034S
0819870613413100000204505JOSE L DURANTEZ OZAETA                                                               000000000019S
0819870613413300000205203RAFAEL SILVA MORAS                                                                   000000000039N
0819870613413300000205203GODOFREDO PALOMO RUIZ                                                                000000000048S
0819870613413300000205203CIPRIANO MARIN SARDON                                                                000000000051S
0819870613413300000205203AURELIO HERRERO TOME                                                                 000000000031N
0819870613413300000205203AMADO MORAL REVILLA                                                                  000000000040S
0819870613413334133104702PRIMITIVO VITORIA CAMAZON                                                            000000000039N
0819870613413334133104702MANUEL CURIEL VELASCO                                                                000000000026N
0819870613413334133104702JESUS MORATINOS OREJON                                                               000000000036N
0819870612404200000300000MANUEL A. FERNANDEZ FERNANDEZ                                                        000000000000N
0819870612405000000104601SILVIO FERNANDEZ BAÑOS                                                               000000000043N
0819870612405000000104601MIGUEL VAZQUEZ MANSILLA                                                              000000000040N
0819870612405000000104601CESAREO BAÑOS BAJO                                                                   000000000049N
0819870612405000000104601ARTURO PONGA RODRIGUEZ                                                               000000000052S
0819870612405000000207604TOMAS I.PANIAGUA SANTA MARTA                                                         000000000065S
0819870612405000000207604PEDRO PANIAGUA CALZADILLA                                                            000000000062S
0819870612405000000207604JESUS S. PASTRANA GONZALEZ                                                           000000000027N
0819870612405000000207604AGUSTIN PANIAGUA MARCOS                                                              000000000069S
0819870612405000000207604AGUSTIN PANIAGUA BAJO                                                                000000000082S
0819870612405000000300200FERNANDO LABRADOR RIO                                                                000000000002N
0819870612406900000203705MARIA M. DEL RIO MOLAGUERO                                                           000000000037S
0819870612406900000203705JOSE MARIA CID FERNANDEZ                                                             000000000025S
0819870612406900000203705EUGENIO RODRIGUEZ PEREZ                                                              000000000036S
0819870612406900000203705DIONISIO CUEVAS VALERO                                                               000000000028S
0819870612406900000203705CECILIO VEGA FERNANDEZ                                                               000000000022S
0819870612406900000301100JULIAN GARCIA SERRANO                                                                000000000011N
0819870612407400000107404MOISES CRESPO SERRANO                                                                000000000058S
0819870612407400000107404MELCHOR MORAN BARRIENTOS                                                             000000000070S
0819870612407400000107404MANUEL LUMBRERAS PEREZ                                                               000000000013N
0819870612407400000107404JOSE A. CRESPO ESCUDERO                                                              000000000074S
0819870612407400000107404DONACIANO RODRIGUEZ CRIADO                                                           000000000082S
0819870612407400000205501PIEDAD GALLEGO BARRIENTOS                                                            000000000012N
0819870612407400000205501MODESTO DIAZ_CANEJA FUENTE                                                           000000000050N
0819870612407400000205501LIDIO CERUELO FUENTE                                                                 000000000051N
0819870612407400000205501LAURENA RODRIGUEZ MORAN                                                              000000000058S
0819870612407400000205501DEMETRIO DE LEON ALONSO                                                              000000000050N
0819870612407400000300400MARCOS GONZALEZ IZQUIERDO                                                            000000000004N
0819870610511200000208105SEVERINO MORENO GARRIDO                                                              000000000073S
0819870610511200000208105MARIANO MARTIN HERNANDEZ                                                             000000000067S
0819870610511200000208105ANSELMO MARISCAL SANCHEZ                                                             000000000046S
0819870610511300000204105SANTOS HERNANDEZ MARTIN                                                              000000000023S
0819870610511300000204105PABLO TRUJILLANO CHAMORRO                                                            000000000032S
0819870610511300000204105JUSTO HERNANDEZ GARCIA                                                               000000000028S
0819870610511300000204105GERMAN JIMENEZ RUIZ                                                                  000000000018S
0819870610511300000204105FAUSTINO CAMAÑO GARCIA                                                               000000000063S
0819870610511800000105201TOMAS CARLOS GARCIA                                                                  000000000019N
0819870610511800000105201SIMON RODRIGUEZ RODRIGUEZ                                                            000000000053N
0819870610511800000105201SIMON GARCIA MANTECA                                                                 000000000051N
0819870610511800000105201JOSE ANDRES GONZALEZ                                                                 000000000056S
0819870610511800000105201EUSEBIO JIMENEZ ROBLEDO                                                              000000000031N
0819870610511800000209204SIMON SEBASTIAN RODRIGUEZ                                                            000000000086S
0819870610511800000209204MIGUEL ANGEL GARCIA ALONSO                                                           000000000078S
0819870610511800000209204JESUS GARCIA SANCHEZ                                                                 000000000088S
0819870610511800000209204FELICISIMO GARCIA GARCIA                                                             000000000022N
0819870610511800000209204ANTONIO DIAZ CORREDERA                                                               000000000094S
0819870610511800000301500LEOVIGILDO GARCIA MARTINEZ                                                           000000000033N
0819870610511800000301500JULIAN CORREDERA MARCOS                                                              000000000007N
0819870610511800000301500JESUS GARCIA MANCECA                                                                 000000000012N
0819870610511800000301500JESUS GARCIA HERNANDEZ                                                               000000000011N
0819870610511900000102601MARCIAL HERRAEZ HERNANDEZ                                                            000000000026N
0819870610508400000108904JOSE ANGEL OVEJERO GARCIA                                                            000000000014N
0819870610508400000108904CELSO DIAZ BLAZQUEZ                                                                  000000000079S
0819870610508400000108904ALVARO GARCIA BLAZQUEZ                                                               000000000089S
0819870610508400000206801PEDRO DEL RIO BARROSO                                                                000000000066N
0819870610508400000206801MANUEL FERNANDEZ DIAZ                                                                000000000065N
0819870610508400000206801JOSE LUIS DEL RIO GOMEZ                                                              000000000068S
0819870610508400000206801DOMICIANO GARCIA CHAPA                                                               000000000067N
0819870610508400000206801ANTONIO DIAZ BLAZQUEZ                                                                000000000008N
0819870610508500000203805SINESIO GONZALEZ GARCIA                                                              000000000031S
0819870610508500000203805MATEO DE LA CRUZ BERMEJO                                                             000000000055S
0819870610508500000203805JULIAN MARTIN BERMEJO                                                                000000000024S
0819870610508500000203805JACINTO BERMEJO GONZALEZ                                                             000000000025S
0819870610508500000203805HILARIO GONZALEZ GARCIA                                                              000000000020S
0819870610508600000204305JOSE SANCHEZ RODRIGUEZ                                                               000000000019S
0819870610508600000204305JOSE MUÑOZ PEREZ                                                                     000000000013S
0819870610508600000204305DOMINGO SANCHEZ GARCIA                                                               000000000073S
0819870610508600000204305AURELIO MARTINEZ PEREZ                                                               000000000033S
0819870610508600000204305ADRIAN SANCHEZ BLAZQUEZ                                                              000000000035S
0819870610508700000310704JOSE MARIA MARTIN LOPEZ                                                              000000000107S
0819870610508700000310704IGNACIO GONZALEZ GARCIA                                                              000000000099S
0819870610508700000310704FAUSTINO LOPEZ BERRON                                                                000000000123S
0819870610508700000310704DAVID DE JUAN DEL POZO                                                               000000000101S
0919870610508800000304201BERNALDO LOPEZ PEREZ                                                                 000000000042S
0819870610509000000102801JOSE MARIA MAÑOSO ARRIBAS                                                            000000000027N
0819870610509000000102801EUSTAQUIO JIMENEZ DEL ALBA                                                           000000000043S
0819870610509000000102801CLEMENTE SIERRA RUEDA                                                                000000000014N
0819870610509000000204202VICENTE GOMEZ SANZ                                                                   000000000020N
0819870610509000000204202ORENCIO SAEZ FEIJOO                                                                  000000000052S
0819870610509000000204202JULIAN DE ANDRES GONZALEZ                                                            000000000029N
0819870610509000000204202JOSE ANGEL ECHEVARRIA GONZALE                                                        000000000029N
0819870610509000000204202AGUSTIN LOPEZ SAIZ                                                                   000000000038S
0819870610509000000303502MARIANO MIGUEL FLANDEZ                                                               000000000024N
0819870610509000000303502MARIANO ALVAREZ RUEDA                                                                000000000037S
0819870610509000000303502JUAN BAUTISTA GONZALEZ GONZALE                                                       000000000025N
0819870610509000000303502FERNANDO GONZALEZ HERNANDEZ                                                          000000000023N
0819870610509000000303502EMILIO HERNANDEZ SAEZ                                                                000000000031S
0819870610509600000102300SAMUEL ESCORIAL MUÑOZ                                                                000000000023N
0819870610509600000205404JUVENCIO JIMENEZ MONTES                                                              000000000019N
0819870610509600000205404JOSE ANTONIO GONZALEZ DE CASTR                                                       000000000045S
0819870610509600000205404JESUS GARROSA GOMEZ                                                                  000000000045S
0819870610509600000205404ANGEL DOMINGUEZ CHAPARRO                                                             000000000049S
0819870610509600000205404ANGEL DE CASTRO FERRERO                                                              000000000060S
0819870610509600000304101MARIA ISABEL GARROSA GOMEZ                                                           000000000040N
0819870610509600000304101JULIO DE CASTRO GARCIA                                                               000000000037N
0819870610509600000304101JESUS FELIPE GALAN MARTIN                                                            000000000047S
0819870610509600000304101ANDRES GOMEZ GALAN                                                                   000000000040N
0819870610510300000309805LUPICINIO GONZALEZ DIAZ                                                              000000000079S
0819870610510300000309805LUCIO SANCHEZ GARCIA                                                                 000000000110S
0819870610510300000309805FRANCO GONZALEZ GONZALEZ                                                             000000000086S
0819870610510300000309805BIENVENIDO SANCHEZ DIAZ                                                              000000000078S
0819870610510300000309805ANTONIO DIAZ DIAZ                                                                    000000000042S
0919870610510400000203101TIMOTEO HERNANDEZ HERNANDEZ                                                          000000000031S
0919870610510600000202901JOSE SANCHEZ SANCHEZ                                                                 000000000029S
0819870610510700000206604LAUDELINO NIETO BARROSO                                                              000000000050S
0819870610510700000206604JULIAN GUZMAN GARCIA                                                                 000000000064S
0819870610510700000206604JAIME NIETO BARROSO                                                                  000000000068S
0819870610510700000206604DARIO HERRAEZ JIMENEZ                                                                000000000031N
0819870610510700000206604AFRODISIO DIAZ MARTIN                                                                000000000054S
0819870610510700000302801RAMON GARCIA JIMENEZ                                                                 000000000040S
0819870610510700000302801ALEJANDRO BLAZQUEZ RODRIGUEZ                                                         000000000026N
0819870613413334133104702FRANCISCO OREJON MORATINOS                                                           000000000042S
0819870613413334133104702CLEMENTE PALOMO PALOMO                                                               000000000046S
0819870613413400000204005PRIMITIVO IBAÑEZ SORDO                                                               000000000037S
0819870613413400000204005MARCELINO MARTIN CUEVAS                                                              000000000028S
0819870613413400000204005FRANCISCO LORES RUEDA                                                                000000000043S
0819870613413400000204005EUSEBIO SORDO MARTIN                                                                 000000000022S
0819870613413400000204005ALEJANDRO PEREZ LORES                                                                000000000033S
0919870613413700000103201RUFINO DIEZ FRECHOSO                                                                 000000000032S
0819870613414000000103000RICARDO PALACIOS VILLACORTA                                                          000000000038N
0819870613414000000103000MIGUEL A MARTIN VEGA                                                                 000000000014N
0819870613414000000103000MARIANO GUTIERREZ PALACIOS                                                           000000000040N
0819870613414000000103000LUIS PEÑA LANTARON                                                                   000000000021N
0819870613414000000103000FERNANDO LUIS DE VEGA                                                                000000000010N
0819870613414000000207804MIGUEL L FERNANDEZ MARTIN                                                            000000000059S
0819870613414000000207804FRANCISCO J BLANCO TRECEÑO                                                           000000000068S
0819870613414000000207804BASILIO MERINO VILLEGAS                                                              000000000110S
0819870613414000000207804AGUSTIN GOMEZ MERINO                                                                 000000000076S
0819870613414000000303601NICOLAS MERINO RODRIGUEZ                                                             000000000040N
0819870613414000000303601LUIS M MERINO MERINO                                                                 000000000030N
0819870613414000000303601JULIO MARTIN PALACIOS                                                                000000000047S
0819870613414000000303601JULIO C MARTIN HERRERO                                                               000000000030N
0819870613414600000201700M ISABEL MONTOYA SALAZAR                                                             000000000006N
0819870613414600000201700LUIS A ALONSO ORTIZ                                                                  000000000005N
0819870613414600000201700LUCIANO ALONSO ORTIZ                                                                 000000000018N
0819870613414600000201700JESUS AYUSO NIETO                                                                    000000000017N
0819870613414600000201700FRANCISCO J MONTOYA SALAZAR                                                          000000000022N
0819870613414634146104405MIGUEL A MONTOYA AYUSO                                                               000000000033S
0819870613414634146104405JULIAN RODRIGUEZ DIEZ                                                                000000000037S
0819870613414634146104405JOSE M RODRIGUEZ ROJO                                                                000000000050S
0819870613414634146104405JOSE L AYUSO GARCIA                                                                  000000000031S
0819870613414634146104405JOSE A BARRAGAN CALLEJA                                                              000000000025S
0919870613414900000204001LUCIDIA HERREROS HERREROS                                                            000000000040S
0819870613415200000105501PATRICIO GALA REVILLA                                                                000000000059N
0819870613415200000105501JOSE REDONDO PESCADOR                                                                000000000048N
0819870613415200000105501GERARDO GARRACHON MAESTRO                                                            000000000064S
0819870613415200000105501FRANCISCO J GARRACHON ALONSO                                                         000000000050N
0819870613415200000209904MAXIMO RODRIGUEZ ANTOLIN                                                             000000000030N
0819870613415200000209904LUIS M PEREZ GARRACHON                                                               000000000083S
0819870613415200000209904JOSE M PEREZ GARRACHON                                                               000000000095S
0819870610511900000102601LUIS AREVALO ENCINAR                                                                 000000000026S
0819870610511900000203403OLEGARIO MUÑOZ JIMENEZ                                                               000000000032S
0819870610511900000203403JUAN F SANCHEZ JIMENEZ                                                               000000000028S
0819870610511900000203403FLORENTINO J RODRIGUEZ HERNAND                                                       000000000024N
0819870610511900000203403CELESTINO LEON MONTERO                                                               000000000022N
0819870610511900000203403AGUSTIN TEOFILO JIMENEZ DIAZ                                                         000000000031S
0819870610511900000302401SERAFIN JIMENEZ MARTIN                                                               000000000021N
0819870610511900000302401EMILIO MARTIN HERNANDEZ                                                              000000000028S
0919870610512000000202001JUSTINIANO GONZALEZ MUÑOZ                                                            000000000020S
0819870610512100000102800MARIA SONSOLES HERRERO GONZALE                                                       000000000033N
0819870610512100000102800FRANCISCO BLAZQUEZ ENCINAR                                                           000000000008N
0819870610512100000102800ESTEBAN MUÑOZ HERRERO                                                                000000000020N
0819870610512100000102800ELIAS LOPEZ JIMENEZ                                                                  000000000024N
0819870610512100000102800DOMITILO MONTERO HERRAEZ                                                             000000000028N
0819870610512100000205903SANTOS CASILLAS SAEZ                                                                 000000000038N
0819870610512100000205903MARIANO SAEZ GOINZALEZ                                                               000000000061S
0819870610512100000205903JUAN JOSE SAEZ PRIETO                                                                000000000049S
0819870610512100000205903BAUTISTA CARDALLIAGUET QUIRANT                                                       000000000052S
0819870610512100000205903ANTOLIN HERNANDEZ GARZON                                                             000000000037N
0819870610512100000304302MARIA ESPERANZA MUÑOS BLAZQUEZ                                                       000000000024N
0819870610512100000304302JULIO CESAR MARTIN HERRERO                                                           000000000027N
0819870610512100000304302GODOFREDO MUÑOZ BLAZQUEZ                                                             000000000038S
0819870610512100000304302CARLOS BLANCO HERRERO                                                                000000000051S
0819870610512100000304302ALBERTO HERNAZ HERRERO                                                               000000000032N
0819870610512300000307105TEOFILO ESTEBAN BATALLA                                                              000000000075S
0819870610512300000307105RICARDO JAVIER GALAN AREVALO                                                         000000000057S
0819870610512300000307105FIDELIO DEL REAL MENDEZ                                                              000000000048S
0819870610512300000307105FELIX JIMENEZ MOÑIVAS                                                                000000000043S
0819870610512300000307105AURELIO GARCIA GARCIA                                                                000000000064S
0919870610512500000203701JUAN MANUEL GOMEZ JIMENEZ                                                            000000000037S
0819870610512600000104000CATALINO SANCHEZ SANCHEZ                                                             000000000040N
0819870610512600000203601TOMAS PEREZ SERRANOS                                                                 000000000030N
0819870610512600000203601MARIA FUENSANTA GARCIA PEREZ                                                         000000000038N
0819870610512600000203601FRANCISCO EUSTASIO GONZALEZ DI                                                       000000000042S
0819870610512600000307504RUBEN MARTIN ABEZUELA                                                                000000000086S
0819870610512600000307504ROSA MARIA NUÑEZ SANCHEZ                                                             000000000064S
0819870610512600000307504FRANCISCO BULLON HERNANDEZ                                                           000000000073S
0819870610512600000307504EMILIANO HERNANDEZ SANCHEZ                                                           000000000046S
0819870610512600000307504AGUSTIN GALVEZMONJE                                                                  000000000034N
0819870610513000000107805LUCIO VELAYOS COLLADO                                                                000000000069S
0819870610513000000107805LEANDRO MATE HERNANDEZ                                                               000000000042S
0819870610513000000107805ISABELO HERRAEZ MUÑOZ                                                                000000000067S
0819870610513000000107805FLORENCIO SANCHEZ GARCIA                                                             000000000068S
0819870610513000000107805EUTIQUIO PRIETO HERNANDEZ                                                            000000000067S
0819870610513000000302300JULIAN VALLEJO PRIETO                                                                000000000022N
0819870610513000000302300GREGORIO MARTIN GONZAGA                                                              000000000026N
0819870610513000000302300EUSEBIO DEL NOGAL GALINDO                                                            000000000024N
0819870610513000000302300DIONISIO HERNANDEZ MARTIN                                                            000000000020N
0819870610513300000204904RAFAEL BLAZQUEZ MARTIN                                                               000000000049S
0819870610513300000204904MODESTO ESPINOSA JIMENEZ                                                             000000000048S
0819870610513300000204904DOMICIANO ZARZA HERRAEZ                                                              000000000049S
0819870610513300000204904ANGEL R RODRIGUEZ TEJEDOR                                                            000000000051S
0819870610513300000304901JUSTO JIMENEZ JIMENEZ                                                                000000000036N
0819870610513300000304901HILARIO FERNANDEZ GOMEZ                                                              000000000052S
0819870610513300000304901EUTIQUIO GONZALEZ GIL                                                                000000000047N
0819870610513300000304901ESTEBAN LOPEZ RAMOS                                                                  000000000028N
0819870610513300000304901BERNARDINO RODRIGUEZ GONZALEZ                                                        000000000033N
0919870610513400000204101GREGORIO BLAS ORTEGA VELAZQUEZ                                                       000000000041S
0819870610513600000106601SANTIAGO MARTIN DIAZ                                                                 000000000057N
0819870610510700000302801ABEL HERRAEZ BARROSO                                                                 000000000019N
0819870610510800000206805PEDRO MARQUEZ MARTIN                                                                 000000000045S
0819870610510800000206805MARCELINO NIETO LOPEZ                                                                000000000074S
0819870610510800000206805JUAN SANCHEZ LOPEZ                                                                   000000000040S
0819870610510800000206805JOSE SANCHEZ GARCIA                                                                  000000000064S
0819870610510800000206805ESTEBAN SANCHEZ BLAZQUEZ                                                             000000000052S
0819870610511200000208105VICENTE HERNANDEZ MARISCAL                                                           000000000068S
0819870610511200000208105TEODORO MARTIN MORENO                                                                000000000073S
0819870614916800000103901MANUEL PEREZ ALONSO                                                                  000000000030N
0819870614916800000103901EULOGIO LERA BLANCO                                                                  000000000039N
0819870614916800000208104TIMOTEO VALDES MARTIN                                                                000000000086S
0819870614916800000208104RAFAEL FCO ESTRADA PUERTAS                                                           000000000076S
0819870614916800000208104JULIO MARTIN RODRIGUEZ                                                               000000000062S
0819870614916800000208104JUAN PASCASIO GARCIA FUENTE                                                          000000000034N
0819870614916800000208104ANTONIO ALEGRE MARTIN                                                                000000000069S
0919870614916900000203801ISAAC ALONSO PELAEZ                                                                  000000000038S
0819870614917000000103701VALENTIN ESTEBAN DOMINGUEZ                                                           000000000040N
0819870614917000000103701MIGUEL ANGEL PEREZ BARRIO                                                            000000000041S
0819870614917000000103701JOSE LUIS PANIZO FERNANDEZ                                                           000000000035N
0819870614917000000103701AVELINO FERNANDEZ FIDALGO                                                            000000000034N
0819870614917000000206004JOSE ALVAREZ CALVO                                                                   000000000065S
0819870614917000000206004ISIDORO GONZALEZ BARRERO                                                             000000000044S
0819870614917000000206004GUTILLERMO PEREZ FERRERAS                                                            000000000044S
0819870614917000000206004GABRIEL CERRON FERNANDEZ                                                             000000000062S
0819870614917000000206004FELICIANO MORAN MANJON                                                               000000000026N
0819870614918000000102600JULIO PORDOMINGO BENEITE                                                             000000000028N
0819870614918000000102600JOSE MANUEL CASADO MONTERO                                                           000000000022N
0819870614918000000102600JOSE LOPEZ GARCIA                                                                    000000000027N
0819870614918000000102600BERNARDINO MONTERO HERNANDEZ                                                         000000000027N
0819870614918000000209304MANUEL HERNANDEZ CASADO                                                              000000000097S
0819870614918000000209304JULIO PASCUAL GARCIA                                                                 000000000094S
0819870614918000000209304JUAN FRANCISCO CAMPO PASCUAL                                                         000000000103S
0819870614918000000209304ANDRES CASADO MORALEJO                                                               000000000080S
0819870614918000000303401PORFIRIO GALLEGO ALONSO                                                              000000000034S
0819870614918300000206004JOSE MANUEL GARCIA SANCHEZ                                                           000000000027N
0819870614918300000206004JESUS PEREZ ALONSO                                                                   000000000053S
0819870614918300000206004CEFERINO PEÑAS ESTEBAN                                                               000000000034S
0819870614918300000206004ANTONIO GONZALEZ FERNANDEZ                                                           000000000054S
0819870614918300000206004ANGEL HERRERO BERMUDEZ                                                               000000000073S
0819870614918300000305301HORACIO ARRIBAS MORLEJO                                                              000000000053S
0819870614918300006102300LUIS GARCIA ALVAREZ                                                                  000000000020N
0819870614918300006102300JOSE LUIS ALVAREZ GOMEZ                                                              000000000018N
0819870614918300006102300ISIDORO ESTEBAN PINTO                                                                000000000014N
0819870614918300006102300ATILANO MORALEJO PINTO                                                               000000000020N
0819870614918300006102300ALFONSO GOMEZ MORALEJO                                                               000000000022N
0819870614918500000104301SANTIAGO FLORENCIO GALENDE JUN                                                       000000000038N
0819870614918500000104301ORENCIO ALONSO SANCHEZ                                                               000000000007N
0819870614918500000104301MANUEL GALLEGO IGLESIAS                                                              000000000037N
0819870614918500000104301ERNESTO GONZALEZ DIEZ                                                                000000000043N
0819870614918500000104301BENITO CARBAJO RODRIGUEZ                                                             000000000047S
0819870614918500000210504VICENTE GERVASIO CALZADA MIRAN                                                       000000000110S
0819870614918500000210504TIBURCIO MAESTRO RODRIGUEZ                                                           000000000101S
0819870614918500000210504PEDRO MALALANA CENTENO                                                               000000000107S
0819870614918500000210504NICOLAS ARES BUENO                                                                   000000000102S
0819870614919000000105504LUIS ALFONSO DE LA RUA GAGO                                                          000000000061S
0819870614919000000105504JULIO MORO SANCHEZ                                                                   000000000052S
0819870614919000000105504JULIO HERRERO SAN JUAN                                                               000000000052S
0819870614919000000105504JOSE CARLOS SAN JUAN RODRIGUEZ                                                       000000000058S
0819870614919000000203801VALERIANO GAGO OSORIO                                                                000000000034N
0819870614919000000203801JOSE SAN JUAN GARCIA                                                                 000000000040N
0819870610513600000106601MARIA CANDELAS MARTIN BARROSO                                                        000000000065S
0819870610513600000106601JUAN A DIAZ JIMENEZ                                                                  000000000052N
0819870610513600000106601JOSE I RODRIGUEZ DIAZ                                                                000000000030N
0819870610513600000106601JOSE CARLOS HERRAEZ JIMENEZ                                                          000000000063N
0819870610513600000307204JULIAN DIAZ DIAZ                                                                     000000000069S
0819870610513600000307204CECILIO RAMOS GALAN                                                                  000000000069S
0819870610513600000307204ASTERIO DIAZ JIMENEZ                                                                 000000000081S
0819870610513600000307204ANACLETO DIAZ RAMOS                                                                  000000000072S
0819870610513900000205105MAXIMO LOPEZ AVILA                                                                   000000000057S
0819870610513900000205105JOSE LUIS LOPEZ GARCIA                                                               000000000045S
0819870610513900000205105DARIO JIMENEZ GARCIA                                                                 000000000045S
0819870610513900000205105BALTASAR JIMENEZ GARCIA                                                              000000000032S
0819870610513900000205105ATANASIO HERNANDEZ ALONSO                                                            000000000028S
0819870610514000000205704VICTOR GONZALEZ JIMENEZ                                                              000000000058S
0819870610514000000205704PEDRO CERRADA ESTEVEZ                                                                000000000027N
0819870610514000000205704JUAN JOSE MARTIN JIMENEZ                                                             000000000055S
0819870610514000000205704ISABEL SOTO MEDIERO                                                                  000000000040S
0819870610514000000205704FELIX JIMENEZ MORCILLO                                                               000000000051S
0819870610514000000303201TEOFILO MEDIERO BAÑEZ                                                                000000000033S
0819870610514000000303201JUSTO CAÑADA GONZALEZ                                                                000000000024N
0819870610514000000303201JOSE ANTONIO CERRADA FERNANDEZ                                                       000000000020N
0819870610514000000303201FRNCISCO MACARIO LOPEZ HERNAND                                                       000000000032N
0819870610514000000303201FORTUNATO CAÑADA GONZALEZ                                                            000000000019N
0819870610514100000104703VICTORIANO ARRIBAS ROMO                                                              000000000032N
0819870610514100000104703MAXIMILIANO HERNANDEZ JIMENEZ                                                        000000000026N
0819870610514100000104703FAUSTINO JIMENEZ NIETO                                                               000000000050S
0819870610514100000104703EUGENIO SAEZ MARTIN                                                                  000000000032S
0819870610514100000104703CELESTINO NIETO HERNANDEZ                                                            000000000051S
0819870610514100000303702JUSTO RIBERO DE SAN SEGUNDO                                                          000000000035S
