062003051351999000001001TJOSE MANUEL              SORIA                    LOPEZ                     000000000000000000S
062003051351999000001010TPEDRO LUIS               ROSALES                  PEDRERO                   000000000000000000S
062003051351999000001011TRAFAEL                   GUZMAN                   KHRABCHA LEMES            000000000000000000S
062003051351999000001012TMARIA DEL CARMEN         ROSARIO                  GODOY                     000000000000000000S
062003051351999000001013TCARLOS ALBERTO           SANCHEZ                  OJEDA                     000000000000000000S
062003051351999000001014TJOSE FRANCISCO           GONZALEZ                 GONZALEZ                  000000000000000000S
062003051351999000001015TERNESTO                  PEREZ                    REYES                     000000000000000000S
062003051351999000001016TJOSE MIGUEL              ALAMO                    MENDOZA                   000000000000000000N
062003051351999000001017TISIDRO SANTIAGO          GALVAN                   QUEVEDO                   000000000000000000N
062003051351999000001018TFERNANDO                 AMADOR                   RAMIREZ                   000000000000000000N
062003051351999000001019TJUAN MANUEL              RAMIREZ                  SANTIAGO                  000000000000000000N
062003051351999000001002TMIGUEL JESUS             JORGE                    BLANCO                    000000000000000000S
062003051351999000001020TCARLOS VALENTIN          SANCHEZ                  ALEMAN                    000000000000000000N
062003051351999000001021TILDEFONSO                UMPIERREZ                MUÑOZ                     000000000000000000N
062003051351999000001022TANTONIO                  MORENO                   HENRIQUEZ                 000000000000000000N
062003051351999000001023TJAIME                    DEL BUSTO                ARREGUI                   000000000000000000N
062003051351999000001024TANA MARIA                GUERRA                   GALVAN                    000000000000000000N
062003051351999000001025TGUILLERMO JESUS          MARISCAL                 REINOSO-JIMENEZ           000000000000000000N
062003051351999000001026TSEVERIANO                LUJAN                    CABRERA                   000000000000000000N
062003051351999000001027TANTONIO                  OJEDA                    HERRERA                   000000000000000000N
062003051351999000001028TJOSEFA                   VIERA                    DIAZ                      000000000000000000N
062003051351999000001029TE. ENCARNACION           DOMINGUEZ                AFONSO                    000000000000000000N
062003051351999000001003TJUAN JOSE                CARDONA                  GONZALEZ                  000000000000000000S
062003051351999000001004TLUIS LARRY               ALVAREZ                  CARDERO                   000000000000000000S
062003051351999000001005TMARIA DE LA SALUD        GIL                      ROMERO                    000000000000000000S
062003051351999000001006TROSA                     RODRIGUEZ                DIAZ                      000000000000000000S
062003051351999000001007TJOSE                     JIMENEZ                  SUAREZ                    000000000000000000S
062003051351999000001008TMARIA CRISTINA           REYES                    PADILLA                   000000000000000000S
062003051351999000001009TDOMINGO ANTONIO          BUENO                    MARRERO                   000000000000000000S
062003051351999000002001TJOSE MIGUEL              PEREZ                    GARCIA                    000000000000000000S
062003051351999000002010TRAFAEL                   MORALES                  PONCE                     000000000000000000N
062003051351999000002011TCONCEPCION               MARTINEZ                 PEREZ                     000000000000000000N
062003051351999000002012TMARIA DOLORES            BATISTA                  BETHENCOURT               000000000000000000N
062003051351999000002013TANTONIO                  MARTIN                   PEREZ                     000000000000000000N
062003051351999000002014TARA                      YOO                      HAN                       000000000000000000N
062003051351999000002015TANTONIO                  RICO                     REVUELTA                  000000000000000000N
062003051351999000002016TONELIA DEL PINO          GARCIA                   MARRERO                   000000000000000000N
062003051351999000002017TANTONIO                  MONZON                   BORGES                    000000000000000000N
062003051351999000002018TANGELA M. DEL CARMEN     MERINO                   DIAZ                      000000000000000000N
062003051351999000002019TANGEL HOHAWSSON          TRUJILLO                 GONZALEZ                  000000000000000000N
062003051351999000002002TFRANCISCA                LUENGO                   OROL                      000000000000000000S
062003051351999000002020TFRANCISCA                MARTIN                   HERNANDEZ                 000000000000000000N
062003051351999000002021TMANUEL                   CABRERA                  SUAREZ                    000000000000000000N
062003051351999000002022TRAFAEL                   PEREZ                    JIMENEZ                   000000000000000000N
062003051351999000002023TANGEL                    TRUJILLO                 JORGE                     000000000000000000N
062003051351999000002024TJUAN                     BETANCOR                 LEON                      000000000000000000N
062003051351999000002025TRAFAEL                   PEREZ                    JIMENEZ                   000000000000000000N
062003051351999000002026TMILAGROSA                MONZON                   SUAREZ                    000000000000000000N
062003051351999000002027TMIGUEL                   SUAREZ                   BOSA                      000000000000000000N
062003051351999000002028TJOSE                     REGIDOR                  GARCIA                    000000000000000000N
062003051351999000002029TANTONIA FERNANDA         CABRES                   CHIRIVELLA                000000000000000000N
062003051351999000002003TDEMETRIO                 SUAREZ                   DIAZ                      000000000000000000S
062003051351999000002004TLUZ MARINA               CABALLERO                RODRIGUEZ                 000000000000000000S
062003051351999000002005TROBERTO                  MORENO                   DIAZ                      000000000000000000S
062003051351999000002006TFRANCISCO                ORTEGA                   ANDRADE                   000000000000000000S
062003051351999000002007TMARIA ISABEL             GUERRA                   SANCHEZ                   000000000000000000S
062003051351999000002008TFRANCISCO JAVIER         GARCIA                   LA TORRE                  000000000000000000N
062003051351999000002009TASUNCION                 GONZALEZ                 PEREZ                     000000000000000000N
062003051351999000006001TCARMELO                  RAMIREZ                  MARRERO                   000000000000000000S
062003051351999000006010TRAFAEL VICTOR            RODRIGUEZ                SANCHEZ                   000000000000000000N
062003051351999000006011TBEATRIZ                  CALZADA                  OJEDA                     000000000000000000N
062003051351999000006012TJUAN MANUEL              CAMPOS                   CALDERO                   000000000000000000N
062003051351999000006013TMARIA BELEN              GARCIA                   BERMUDEZ                  000000000000000000N
062003051351999000006014TARCADIO                  DOMINGUEZ                RODRIGUEZ                 000000000000000000N
062003051351999000006015TCARMEN                   BAUTISTA                 SEGURA                    000000000000000000N
062003051351999000006016TAURELIO FRANCISCO        SANTIAGO                 CASTELLANO                000000000000000000N
062003051351999000006017TFROLIAN G.               RODRIGUEZ                DIAZ                      000000000000000000N
062003051351999000006018TANTONIO JESUS            ORTEGA                   RODRIGUEZ                 000000000000000000N
062003051351999000006019TANTONIO                  MORALES                  MENDEZ                    000000000000000000N
062003051351999000006002TROSARIO                  CHESA                    PADRON                    000000000000000000S
062003051351999000006020TCRISTINA                 VILLEGAS                 HENRIQUEZ                 000000000000000000N
062003051351999000006021TFERNANDO L.              BAÑOLAS                  BOLAÑOS                   000000000000000000N
062003051351999000006022TESTHER G.                GONZALEZ                 MORENO                    000000000000000000N
062003051351999000006023TSILVERIO                 MATOS                    PEREZ                     000000000000000000N
062003051351999000006024TJOSE                     PERDOMO                  NEGRIN                    000000000000000000N
062003051351999000006025TMIGUEL A.                HIDALGO                  SANCHEZ                   000000000000000000N
062003051351999000006026TARACELI                  DIAZ                     ORDOÑEZ                   000000000000000000N
062003051351999000006027TJOSE JUAN                SANTANA                  QUINTANA                  000000000000000000N
062003051351999000006028TANTONIO                  HERNANDEZ                SAAVEDRA                  000000000000000000N
062003051351999000006029TFRANCISCO RAMON          SANCHEZ                  ROBAINA                   000000000000000000N
062003051351999000006003TRAFAEL L.                PEDRERO                  MANCHADO                  000000000000000000S
062003051351999000006004TMARIA INES               JIMENEZ                  MARTIN                    000000000000000000S
062003051351999000006005TANDRES                   HERRERA                  TRUJILLO                  000000000000000000S
062003051351999000006006TAURORA I.                MORENO                   SANTANA                   000000000000000000S
062003051351999000006007TOSCAR R.                 HERNANDEZ                SUAREZ                    000000000000000000S
062003051351999000006008TINMACULADA               VEGA                     GARCIA                    000000000000000000N
062003051351999000006009TMARIO                    HERNANDEZ                SANGINES                  000000000000000000N
062003051351999000032001TMARIA ESPERANZA          OTERO                    LOJO                      000000000000000000N
062003051351999000032010TMARIA ERLINDA            RODRIGUEZ                COLOMER                   000000000000000000N
062003051351999000032011TMARIA YOLANDA            RODRIGUEZ                COLOMER                   000000000000000000N
062003051351999000032012TFRANCISCO MANUEL         GARCIA                   ALONSO                    000000000000000000N
062003051351999000032013TBENITO JOSE              HERNANDEZ                PEREZ                     000000000000000000N
062003051351999000032014TELVIRA CAYETANA          VAQUERO                  RODRIGUEZ                 000000000000000000N
062003051351999000032015TFEDERICO JOSE            VAQUERO                  RODRIGUEZ                 000000000000000000N
062003051351999000032016TJOSE JAVIER              DE SANCHO                RAVELO                    000000000000000000N
062003051351999000032017TDIMAS MANUEL             VAQUERO                  TORRES                    000000000000000000N
062003051351999000032018TMARIA MILAGROSA          TORRES                   CRUZ                      000000000000000000N
062003051351999000032019TGUNDELINA INMACULADA     SANTANA                  BOLAÑOS                   000000000000000000N
062003051351999000032002TALBERTO HORACIO          LEIVA                    GUEVARA                   000000000000000000N
062003051351999000032020TGONZALO RUBEN            VAQUERO                  RODRIGUEZ                 000000000000000000N
062003051351999000032021TDESIDERIO                SARMIENTO                GARCIA                    000000000000000000N
062003051351999000032022TAIDA VENERANDA           DIAZ                     MARRERO                   000000000000000000N
062003051351999000032023TMIGUEL ANGEL             MONTESDEOCA              FALCON                    000000000000000000N
062003051351999000032024TMARIA ANTONIA            MEDINA-ANAYA             JIMENEZ                   000000000000000000N
062003051351999000032025TDOMINGO                  VAZQUEZ                  GARRIDO                   000000000000000000N
062003051351999000032026TPEDRO                    LEON                     FERNANDEZ                 000000000000000000N
062003051351999000032027TELENA                    RODRIGUEZ                FEO                       000000000000000000N
062003051351999000032028TJUAN CARLOS              GARCIA                   ABAD                      000000000000000000N
062003051351999000032029TAGATA                    GARCIA                   GARCIA                    000000000000000000N
062003051351999000032003TMIRIAM ESTHER            MARTIN                   OTERO                     000000000000000000N
062003051351999000032004TFRANCISCO                VAQUERO                  RODRIGUEZ                 000000000000000000N
062003051351999000032005TMARIA LOURDES            BENITEZ                  LOPEZ                     000000000000000000N
062003051351999000032006TLUIS GONZALO             ALI                      BETANCOR                  000000000000000000N
062003051351999000032007TFERNANDO JUAN            CABRERA                  TARRAGO                   000000000000000000N
062003051351999000032008TJOSE FRANCISCO           RODRIGUEZ                COLOMER                   000000000000000000N
062003051351999000032009TSANDRA                   COLOMER                  MORENO                    000000000000000000N
062003051351999000039001TJUAN FRANCISCO           RODRIGUEZ                BAEZ                      000000000000000000N
062003051351999000039010TFRANCISCA ROSA           SANTANA                  ALEMAN                    000000000000000000N
062003051351999000039011TOCTAVIO                  TRUJILLO                 RAMIREZ                   000000000000000000N
062003051351999000039012TNELIDA DEL CARMEN        CABRERA                  SUAREZ                    000000000000000000N
062003051351999000039013TJOSE LUIS                HERNANDEZ                HERNANDEZ                 000000000000000000N
062003051351999000039014TISABEL                   REYES                    FUENTES                   000000000000000000N
062003051351999000039015TFRANCISCO AGUSTIN        OJEDA                    RAMIREZ                   000000000000000000N
062003051351999000039016TLETICIA MARIA            ALAMO                    GARCIA                    000000000000000000N
062003051351999000039017TANTONIO JUAN             SUAREZ                   MORALES                   000000000000000000N
062003051351999000039018TCANDIDA                  FALCON                   HERNANDEZ                 000000000000000000N
062003051351999000039019THERIBERTO                SANTANA                  OJEDA                     000000000000000000N
062003051351999000039002TAMALIA ENCARNACION       BOSCH                    BENITEZ                   000000000000000000N
062003051351999000039020TREGINA LUCIA             HERNANDEZ                BRITO                     000000000000000000N
062003051351999000039021THONORIO                  GALINDO                  ROCHA                     000000000000000000N
062003051351999000039022TMARIA LUISA ISABEL       MARTINEZ                 SEOANE                    000000000000000000N
062003051351999000039023TFERMIN VENANCIO          PEREZ                    QUINTANA                  000000000000000000N
062003051351999000039024TGENOVEVA ROSARIO         MARTIN                   NOBAUER                   000000000000000000N
062003051351999000039025TSAULO FERNANDO           OJEDA                    PERERA                    000000000000000000N
062003051351999000039026TMARIA JESUS              PEREZ                    DENIZ                     000000000000000000N
062003051351999000039027TMANUEL ANGEL             SANTANA                  TUREGANO                  000000000000000000N
062003051351999000039028TMARIA EULALIA            GONZALEZ                 HERNANDEZ                 000000000000000000N
062003051351999000039029TALVARO JUAN              MONZON                   SANTANA                   000000000000000000N
062003051351999000039003TDOMINGO                  AFONSO                   MARTIN                    000000000000000000N
062003051351999000039004TMARIA DEL PINO           QUINTANA                 MONTESDEOCA               000000000000000000N
062003051351999000039005TCARLOS                   SUAREZ                   RODRIGUEZ                 000000000000000000N
062003051351999000039006TJUANA MARIA              RUIZ                     SUAREZ                    000000000000000000N
062003051351999000039007TJOSE ANTONIO             ESTUPIÑAN                LOPEZ                     000000000000000000N
062003051351999000039008TMARGARITA M. INMAC.      PEREZ                    DEL TORO                  000000000000000000N
062003051351999000039009TPEDRO DIONISIO           GONZALEZ                 PERERA                    000000000000000000N
062003051351999000076001TMARIA ENCARNACION        HERNANDEZ                RODRIGUEZ                 000000000000000000N
062003051351999000076010TJOSE ENRIQUE             RODRIGUEZ                RODRIGUEZ                 000000000000000000N
062003051351999000076011TMARIA ELBA               MARTINEZ                 MEDINA                    000000000000000000N
062003051351999000076012TPEDRO                    PEREZ                    MARTEL                    000000000000000000N
062003051351999000076013TMARIA JOSE               GOMEZ                    SANTIAGO                  000000000000000000N
062003051351999000076014TTELESFORO JUAN           TRUJILLO                 RODRIGUEZ                 000000000000000000N
062003051351999000076015TMARGARITA                PEREZ                    MONTESDEOCA               000000000000000000N
062003051351999000076016TJOSE LUIS                LEON                     NAVARRO                   000000000000000000N
062003051351999000076017TMARIA DEL CARMEN         TAMARGO                  SOSA                      000000000000000000N
062003051351999000076018TFABIO                    ARMAS                    SANTANA                   000000000000000000N
062003051351999000076019TMARIA DE LA SOLEDAD      SANTANA                  LLARENA                   000000000000000000N
062003051351999000076002TJAVIER                   DORESTE                  ZAMORA                    000000000000000000N
062003051351999000076020TJUAN ANTONIO             BRITO                    CURBELO                   000000000000000000N
062003051351999000076021TSERGIO                   CATALA                   CARBALLO                  000000000000000000N
062003051351999000076022TLUZ DEL CARMEN           VALLEJO                  BETANCOR                  000000000000000000N
062003051351999000076023TBALTASAR                 RODRIGUEZ                MARTIN                    000000000000000000N
062003051351999000076024TMANUEL                   SUAREZ                   MELIAN                    000000000000000000N
062003051351999000076025TANA BELEN                DE LA FE                 OJEDA                     000000000000000000N
062003051351999000076026TFRANCISCO JOSE           BENITO                   ESTRADA                   000000000000000000N
062003051351999000076027TABRAHAM                  RUANO                    VENTURA                   000000000000000000N
062003051351999000076028TRITA NADINA              VEGA                     ROMERO                    000000000000000000N
062003051351999000076029TJUAN                     RODRIGUEZ                HERNANDEZ                 000000000000000000N
062003051351999000076003TALEXIS JESUS             OJEDA                    DENIZ                     000000000000000000N
062003051351999000076004TMARIA DEL PINO           TREJO                    SANCHEZ                   000000000000000000N
062003051351999000076005TGONZALO JOSE             QUINTANA                 GUERRA                    000000000000000000N
062003051351999000076006TMARIA DOLORES            MONTESDEOCA              GARCIA                    000000000000000000N
062003051351999000076007TJUAN DE LA MILAGROSA     RAMIREZ                  VERONA                    000000000000000000N
062003051351999000076008TMARIA ESTHER             TALAVERA                 QUEVEDO                   000000000000000000N
062003051351999000076009TVICTOR MIGUEL            RAMOS                    LOPEZ                     000000000000000000N
062003051351999001229001TANDRES                   ALVARADO                 JANINA                    000000000000000000N
062003051351999001229010TLUISA MARIA              PAZ                      HERNANDEZ                 000000000000000000N
062003051351999001229011TANTONIA                  HERNANDEZ                MENDOZA                   000000000000000000N
062003051351999001229012TMANUEL J.                SANCHEZ                  FLEITAS                   000000000000000000N
062003051351999001229013TANCOR                    FIGUERAS                 RAMOS                     000000000000000000N
062003051351999001229014TENRIQUE I.               MARGALEF                 CUBILLAS                  000000000000000000N
062003051351999001229015TJUAN                     RAMOS                    COLLADO                   000000000000000000N
062003051351999001229016TALEJANDRO                MARRERO                  RODRIGUEZ                 000000000000000000N
062003051351999001229017TPEDRO L.                 SUAREZ                   GARCIA                    000000000000000000N
062003051351999001229018TJOSE L.                  SOCORRO                  AGUIAR                    000000000000000000N
062003051351999001229019TTEODORO                  HENRIQUEZ                SANCHEZ                   000000000000000000N
062003051351999001229002TBARBARA                  VEGAS                    FLOR                      000000000000000000N
062003051351999001229020TJ. JAVIER                RODRIGUEZ                RAMIRE                    000000000000000000N
062003051351999001229021TROSALIA                  GUEDES                   DIAZ                      000000000000000000N
062003051351999001229022TMARIA DOLORES            GALIANO                  HERNANDEZ                 000000000000000000N
062003051351999001229023TALEXIS                   GARCIA                   GARCIA                    000000000000000000N
062003051351999001229024TJOSE C.                  MORA                     LOPEZ                     000000000000000000N
062003051351999001229025TJOSE L.                  CANO                     HERRERA                   000000000000000000N
062003051351999001229026TJUAN A.                  CORUJO                   MACHIN                    000000000000000000N
062003051351999001229027TJUAN                     OLIVARES                 PERERA                    000000000000000000N
062003051351999001229028TDOLORES                  MEDINA                   LOPEZ                     000000000000000000N
062003051351999001229029TANTONIO J.               LORENZO                  SANTANA                   000000000000000000N
062003051351999001229003TCARLOS J.                LORENZO                  FLOR                      000000000000000000N
062003051351999001229004TJOSE L.                  RAMOS                    MENDOZA                   000000000000000000N
062003051351999001229005TCARMEN BEATRIZ           TRUJILLO                 SANCHEZ                   000000000000000000N
062003051351999001229006TCARMELO A.               VALIDO                   OJEDA                     000000000000000000N
062003051351999001229007TMARIA CARMEN             TALAVERA                 QUEVEDO                   000000000000000000N
062003051351999001229008TOLEGARIO                 MARRERO                  TADEO                     000000000000000000N
062003051351999001229009TJUAN                     SAMPER                   PEREZ                     000000000000000000N
062003051351999001230001TGILBERTO J.              HERNANDEZ                MEDEROS                   000000000000000000N
062003051351999001230010TTANAUSU                  MORENO                   PEREZ                     000000000000000000N
062003051351999001230011TANTONIO J.               GARCIA                   ESPINO                    000000000000000000N
062003051351999001230012TNOELIA MAR               HERNANDEZ                GARCIA                    000000000000000000N
062003051351999001230013TFRANCISCO                LOPEZ                    AGRELO                    000000000000000000N
062003051351999001230014TJOSE J.                  ESPINO                   SANTANA                   000000000000000000N
062003051351999001230015TCARMEN O.                HERNANDEZ                MARTIN                    000000000000000000N
062003051351999001230016TANTONIO                  GARCIA                   PADRON                    000000000000000000N
062003051351999001230017THIURMA                   CASTEJON                 SUAREZ                    000000000000000000N
062003051351999001230018TJUAN A.                  HERNANDEZ                GARCIA                    000000000000000000N
062003051351999001230019TELISA                    SARMIENTO                CASTELLANO                000000000000000000N
062003051351999001230002TJUAN A.                  HERNANDEZ                SUAREZ                    000000000000000000N
062003051351999001230020TDOMINGO                  MACHIN                   ORTEGA                    000000000000000000N
062003051351999001230021TRUMEN                    SOSA                     MARTIN                    000000000000000000N
062003051351999001230022TINES                     MARTIN                   LORENZO                   000000000000000000N
062003051351999001230023TTOMAS E.                 DORESTE                  SANTANA                   000000000000000000N
062003051351999001230024TDANIEL                   MONTESDEOCA              RODRIGUEZ                 000000000000000000N
062003051351999001230025TPEDRO                    TAVIO                    GARCIA                    000000000000000000N
062003051351999001230026TRICARDO                  VALIDO                   VENTURA                   000000000000000000N
062003051351999001230027TTOMAS                    DORESTE                  CABALLERO                 000000000000000000N
062003051351999001230028TNATALIA J.               DELGADO                  SANCHEZ                   000000000000000000N
062003051351999001230029T-                        -                        -                         000000000000000000N
062003051351999001230003TJUAN LUIS                DENIZ                    GARCIA                    000000000000000000N
062003051351999001230004TJOSE A.                  HERRERA                  CIGALA                    000000000000000000N
062003051351999001230005TANA ISABEL               DORESTE                  CABALLERO                 000000000000000000N
062003051351999001230006TJEROEN                   SMITS                    -                         000000000000000000N
062003051351999001230007TALTAHAY                  SANTANA                  LOPEZ                     000000000000000000N
062003051351999001230008TROSALIA L.               DE LLANOS                SANCHEZ                   000000000000000000N
062003051351999001230009THUGO                     SAAVEDRA                 MEDINA                    000000000000000000N
062003051351999001233001TALVARO A.                PEREZ                    DOMINGUEZ                 000000000000000000N
062003051351999001233010TMARIA INES               TEJERA                   SEGURA                    000000000000000000N
062003051351999001233011TPATRICIA FRANCISCA       PEREZ                    APARICIO                  000000000000000000N
062003051351999001233012TLAURA                    RIVERO                   RIVERO                    000000000000000000N
062003051351999001233013TALFONSO                  SUAREZ                   DE LA FE (INDEP.)         000000000000000000N
062003051351999001233014TMANUEL                   GALINDO                  RAMOS                     000000000000000000N
062003051351999001233015TANTONIO                  BOLAÑOS                  GARCIA                    000000000000000000N
062003051351999001233016TDOMINGO                  GARCIA                   HERNANDEZ                 000000000000000000N
062003051351999001233017TRITA DE LA LUZ           RODRIGUEZ                SILVERA                   000000000000000000N
062003051351999001233018TMARIA DEL PILAR          VILLANUEVA               GUERRERO                  000000000000000000N
062003051351999001233019TIONE AHEDEY              AGUIAR                   SANTANA                   000000000000000000N
062003051351999001233002TFERNANDO                 FERNANDEZ                GABALDON                  000000000000000000N
062003051351999001233020TMANUEL                   CURBELO                  CABRERA                   000000000000000000N
062003051351999001233021TMARIA JESUS              DEL TOROI                BETANCOR                  000000000000000000N
062003051351999001233022TANA MARIA LUISA          PEREZ                    DORESTE                   000000000000000000N
062003051351999001233023TNEREIDA MARIA            MIRANDA                  RODRIGUEZ                 000000000000000000N
062003051351999001233024TMARIA ANTONIA            TRUJILLO                 ALVAREZ                   000000000000000000N
062003051351999001233025TANA BELEN                DIAZ                     ARMAS                     000000000000000000N
062003051351999001233026TPEDRO                    VEGA                     SANTANA                   000000000000000000N
062003051351999001233027TMARIA DEL CARMEN         FERNANDEZ                SOCORRO                   000000000000000000N
062003051351999001233028TALEXIS                   SUAREZ DE TANGIL         SUAREZ                    000000000000000000N
062003051351999001233029TESTEFANIA                HERNANDEZ                ARTILES                   000000000000000000N
062003051351999001233003TMARIA EUGENIA            VEGA                     HERNANDEZ                 000000000000000000N
062003051351999001233004TALFONSO                  ASCANIO                  POGGIO                    000000000000000000N
062003051351999001233005TCARMEN GLORIA            TORRES                   ESTUPIÑAN                 000000000000000000N
062003051351999001233006TLORENZO                  OLARTE                   LECUONA                   000000000000000000N
062003051351999001233007TMARIA DEL PINO           RODRIGUEZ                SOCORRO                   000000000000000000N
062003051351999001233008TJOSE MANUEL              MIRANDA                  HERNANDO                  000000000000000000N
062003051351999001233009TMIGUEL ANGEL             DIAZ                     MARRERO                   000000000000000000N
062003051351999001234001TJOSE LORENZO             LOPEZ                    HERRERA                   000000000000000000N
062003051351999001234010TJUAN SANTIAGO            SANTANA                  LOPEZ                     000000000000000000N
062003051351999001234011TAGUEDA                   OJEDA                    HIDALGO                   000000000000000000N
062003051351999001234012TALBERTO                  BETHENCOURT              ROMERO                    000000000000000000N
062003051351999001234013TVICENTE JOSE             GARCIA                   ROMAN                     000000000000000000N
062003051351999001234014TJUAN DAVID               NEGRIN                   SOUZA                     000000000000000000N
062003051351999001234015TJOSE RAMON               ROMEO                    GONZALEZ                  000000000000000000N
062003051351999001234016TYOLANDA                  GALVAN                   MARTIN                    000000000000000000N
062003051351999001234017TANGELES                  RIVERO                   RODRIGUEZ                 000000000000000000N
062003051351999001234018TWALIED                   JOJO                     KHOURY                    000000000000000000N
062003051351999001234019TJUAN ALBERTO             BETHENCOURT              MEDINA                    000000000000000000N
062003051351999001234002TMARCOS JAVIER            LOPEZ                    GONZALEZ                  000000000000000000N
062003051351999001234020TMANUEL JOSE              VAZQUEZ                  BARRIOS                   000000000000000000N
062003051351999001234021TALEJANDRO                DOBLADO                  HERNANDEZ                 000000000000000000N
062003051351999001234022TANTONIA MARIA            REYES                    NARANJO                   000000000000000000N
062003051351999001234023TSIGFRIDO                 VEGA                     AGUIAR                    000000000000000000N
062003051351999001234024TFLAMINA ZENAIDA          MEDINA                   BRITO                     000000000000000000N
062003051351999001234025TPINO ROSA                SANTANA                  SANABRIA                  000000000000000000N
062003051351999001234026TMANUEL CRISTOBAL         SANTOS                   MORAN                     000000000000000000N
062003051351999001234027TALBERTO                  CORREA                   SANTANA                   000000000000000000N
062003051351999001234028TCARLOS JAVIER            CARDONA                  MEDINA                    000000000000000000N
062003051351999001234029TROBERTO CARLOS           ESPINO                   ARROCHA                   000000000000000000N
062003051351999001234003TSANTIAGO                 HERNANDEZ                NUEZ                      000000000000000000N
062003051351999001234004TFERNANDO                 LOPEZ                    HERNANDEZ                 000000000000000000N
062003051351999001234005TMARIO ANTONIO            BALLESTER                PERERA                    000000000000000000N
062003051351999001234006TMARIA DOLORES            TEJERA                   CALDERIN                  000000000000000000N
062003051351999001234007TJUAN FRANCISCO           RUBIO                    GUERRA                    000000000000000000N
062003051351999001234008TJULIO CESAR              HERNANDEZ                GARCIA                    000000000000000000N
062003051351999001234009TPEDRO                    RAMOS                    SANCHEZ                   000000000000000000N
062003051351999001235001TJOSE LUIS                JIMENEZ                  JARERO                    000000000000000000N
062003051351999001235010TPEDRO                    LORO                     GONZALEZ                  000000000000000000N
062003051351999001235011TJULIO                    SUAREZ                   HERNANDEZ                 000000000000000000N
062003051351999001235012TMANUEL                   ALONSO                   GARCIA                    000000000000000000N
062003051351999001235013TNICOLAS                  DENIZ                    TORRES                    000000000000000000N
062003051351999001235014TLAURA ESTHER             FALCON                   SANCHEZ                   000000000000000000N
062003051351999001235015TJUAN CANDIDO             AGUIAR                   GONZALEZ                  000000000000000000N
062003051351999001235016TRAMON                    ACOSTA                   HERNANDEZ                 000000000000000000N
062003051351999001235017TMARIA DEL PILAR          SOSA                     HERNANDEZ                 000000000000000000N
062003051351999001235018TBEATRIZ                  LOPEZ                    GOYES                     000000000000000000N
062003051351999001235019TJUAN CANDIDO             AGUIAR                   GONZALEZ                  000000000000000000N
062003051351999001235002TJOSE MIGUEL              TACORONTE                ORTEGA                    000000000000000000N
062003051351999001235020TMARCELINO                RUIZ                     GONZALEZ                  000000000000000000N
062003051351999001235021TMANUEL                   ALAMO                    DIAZ                      000000000000000000N
062003051351999001235022TMARIA DEL ROSARIO        SANTANA                  PEREZ                     000000000000000000N
062003051351999001235023TMARIA LOURDES            DIAZ                     ALEMAN                    000000000000000000N
062003051351999001235024TCANDELARIA               ROQUE                    SANTANA                   000000000000000000N
062003051351999001235025TROSA ISABEL              PEREZ                    CALDERON                  000000000000000000N
062003051351999001235026TEVA MARIA                MEDINA                   SANTANA                   000000000000000000N
062003051351999001235027TLUZ MARINA               RAMIREZ                  CERVERA                   000000000000000000N
062003051351999001235028TNELIDA                   RUIZ                     SOCORRO                   000000000000000000N
062003051351999001235029TMARIA ENCARNACION        LOPEZ                    RODRIGUEZ                 000000000000000000N
062003051351999001235003TJOSE                     MONTESDEOCA              SUAREZ                    000000000000000000N
062003051351999001235004TMANUEL                   GIL                      MENDOZA                   000000000000000000N
062003051351999001235005TCRISTOBAL                MONTESDEOCA              GONZALEZ                  000000000000000000N
062003051351999001235006TPEDRO FELIX              GARCIA                   GARCIA                    000000000000000000N
062003051351999001235007TCECILIO                  GIL                      MONTESDEOCA               000000000000000000N
062003051351999001235008TLOURDES DESIRE           FALCON                   SANCHEZ                   000000000000000000N
062003051351999001235009TFACUNDO                  VALERON                  MONZON                    000000000000000000N
062003051351999002670001TJOSE ANTONIO             SANTOS                   MIÑON                     000000000000000000N
062003051351999002670010TAGUSTIN                  LOPEZ                    ACOSTA                    000000000000000000N
062003051351999002670011TRITA GLORIA              TRAVIESO                 DIAZ                      000000000000000000N
062003051351999002670012TMARIA ANGELES            LOPEZ                    CASTELLANO                000000000000000000N
062003051351999002670013TJUAN JOSE                ORTEGA                   SALGADO                   000000000000000000N
062003051351999002670014TFRANCISCO JESUS          MARRERO                  FAJARDO                   000000000000000000N
062003051351999002670015TJUAN GABRIEL             SANTOS                   COSSIO                    000000000000000000N
062003051351999002670016TYOLANDA                  HERNANDEZ                LUJAN                     000000000000000000N
062003051351999002670017TANA JESUS                RAMIREZ                  HERNANDEZ                 000000000000000000N
062003051351999002670018TMARIA SARA               GONZALEZ                 GARCIA                    000000000000000000N
062003051351999002670019TRICARDO ALBERTO          SILVA                    RODRIGUEZ                 000000000000000000N
062003051351999002670002TJUAN FRANCISCO           RAMIREZ                  VEGA                      000000000000000000N
062003051351999002670020TPAULA MARIA              CASTRO                   CALERO                    000000000000000000N
062003051351999002670021TFERNANDO                 ALVAREZ                  OJEDA                     000000000000000000N
062003051351999002670022TMARIA GUADALUPE          SANCHEZ                  MARTIN                    000000000000000000N
062003051351999002670023TALEJANDRO P.             DENIZ                    HERNANDEZ                 000000000000000000N
062003051351999002670024TYOLANDA                  RAMIREZ                  HERNANDEZ                 000000000000000000N
062003051351999002670025TSOLEDAD DEL PINO         HERNANDEZ                HERRERA                   000000000000000000N
062003051351999002670026TERASMA EULALIA           HERNANDEZ                SANTANA                   000000000000000000N
062003051351999002670027TJOSE DOMINGO             RUANO                    BRUNO                     000000000000000000N
062003051351999002670028TARACELI                  SERRANO                  SANTANA                   000000000000000000N
062003051351999002670029TFRANCISCA ROSA           SOTO                     CABRAL                    000000000000000000N
062003051351999002670003TMOHAMED ADIB             MOUHAFFEL                HONSI                     000000000000000000N
062003051351999002670004TPEDRO SALVADOR           CALLICO                  SOSA                      000000000000000000N
062003051351999002670005TAGUEDA                   SANCHEZ                  DABDUB                    000000000000000000N
062003051351999002670006TRUTH                     RIERA                    ANTUNEZ                   000000000000000000N
062003051351999002670007TMANUEL A.                HERNANDEZ                REYES                     000000000000000000N
062003051351999002670008TADRIAN                   OJEDA                    OJEDA                     000000000000000000N
062003051351999002670009TPEDRO BARTOLOME          CAZORLA                  LOPEZ                     000000000000000000N
062003051352999000001001TFRANCISCO                CABRERA                  GARCIA                    000000000000000000S
062003051352999000001010TANGELINA PAULA           CAMEJO                   TEXEIDA                   000000000000000000N
062003051352999000001011TANA ISABEL               HERNANDEZ                BATISTA                   000000000000000000N
062003051352999000001012TMARIA BEATRIZ            FERRER                   MEDINA                    000000000000000000N
062003051352999000001013TJESUS JUAN               CLAVIJO                  MEDINA                    000000000000000000N
062003051352999000001014TANTONIO JAVIER           MARTIN                   SOCAS                     000000000000000000N
062003051352999000001015TANA CRISTINA             MESA                     HERNANDEZ                 000000000000000000N
062003051352999000001016TLUIS MIGUEL JOSE         MIRANDA                  CABRERA                   000000000000000000N
062003051352999000001017TMARIA JOSE               COSTA                    ANTUNEZ                   000000000000000000N
062003051352999000001018TSEBASTIAN MANUEL         GARCIA                   BERRIEL                   000000000000000000N
062003051352999000001019TFELIPE SEVERINO          PERDOMO                  MEDINA                    000000000000000000N
062003051352999000001002TASTRID MARIA             PEREZ                    BATISTA                   000000000000000000S
062003051352999000001020TJOSE MARIA               BRA                      REY                       000000000000000000N
062003051352999000001021TPATRICIA                 ROJAS                    JIMENEZ                   000000000000000000N
062003051352999000001022TFERNANDO                 BERNAL                   REYES                     000000000000000000N
062003051352999000001023TCESAR AUGUSTO            MIRALLES                 CABRERA                   000000000000000000N
062003051352999000001003TMARIA DOLORES            LUZARDO                  DE LEON                   000000000000000000S
062003051352999000001004TJUAN FRANCISCO JOSE      PRATS                    MELERO                    000000000000000000N
062003051352999000001005TEMILIO                   BERMUDEZ                 HERNANDEZ                 000000000000000000N
062003051352999000001006TMARIANO MANUEL           TAVIO                    CABRERA                   000000000000000000N
062003051352999000001007TEVA MARIA                CIPRES                   VIDAL                     000000000000000000N
062003051352999000001008TVICTOR JOSE              FERNANDEZ                PEREZ                     000000000000000000N
062003051352999000001009TEUGENIO                  LORENZO                  RODRIGUEZ                 000000000000000000N
062003051352999000002001TFRANCISCO MANUEL         FAJARDO                  PALAREA                   000000000000000000S
062003051352999000002010TMARIA DEL CARMEN         SUAREZ                   ALEMAN                    000000000000000000N
062003051352999000002011TSANDRA DOLORES           BETANCORT                MARTIN                    000000000000000000N
062003051352999000002012TJUAN MANUEL              NUEZ                     CEDRES                    000000000000000000N
062003051352999000002013TANTONIO CARMELO          DE LEON                  BARRETO                   000000000000000000N
062003051352999000002014TMARGARITA ROSA           MARTIN                   BETANCORT                 000000000000000000N
062003051352999000002015TGUSTAVO                  FALERO                   LEMES                     000000000000000000N
062003051352999000002016TJESUS JOSE               GARCIA                   MARTIN                    000000000000000000N
062003051352999000002017TJOSE MARCIAL             CABRERA                  FIGUERAS                  000000000000000000N
062003051352999000002018TMARIA TEOFANIA           LEAL                     CEDRES                    000000000000000000N
062003051352999000002019TDELIA ISABEL             GONZALEZ                 MONTELONGO                000000000000000000N
062003051352999000002002TFRANCISCA M. CARMEN      TOLEDO                   HERNANDEZ                 000000000000000000S
062003051352999000002020TTENESIA IBALLA           CABRERA                  CURBELO                   000000000000000000N
062003051352999000002021TMARIA DEL CARMEN         VIERA                    CEDRES                    000000000000000000N
062003051352999000002022TPABLO                    EUGENIO                  REYES                     000000000000000000N
062003051352999000002023TANTONIO                  GONZALEZ                 MEDINA                    000000000000000000N
062003051352999000002003TMIGUEL                   LEAL                     CEDRES                    000000000000000000S
062003051352999000002004TMIGUEL                   GONZALEZ                 RODRIGUEZ                 000000000000000000S
062003051352999000002005TLOURDES MARIA            BERNAL                   GUILLEN                   000000000000000000S
062003051352999000002006TCARLOS                   ESPINO                   ANGULO                    000000000000000000S
062003051352999000002007TJOAQUIN                  CARABALLO                SANTANA                   000000000000000000N
062003051352999000002008TMARIA INODELVIA          TORRES                   SANTACRUZ                 000000000000000000N
062003051352999000002009TJOSE DOMINGO             MORERA                   APARICIO                  000000000000000000N
062003051352999000006001TMARIO                    PEREZ                    HERNANDEZ                 000000000000000000S
062003051352999000006010TFRANCISCO                GUZMAN                   RODRIGUEZ REYES           000000000000000000N
062003051352999000006011TANGEL PABLO              GIL                      TEJERA                    000000000000000000N
062003051352999000006012TINDALECIO                PAEZ                     QUINTERO                  000000000000000000N
062003051352999000006013TJOSE ANTONIO             RODRIGUEZ                GONZALEZ                  000000000000000000N
062003051352999000006014TMARIA DEL PILAR          GONZALEZ                 BETANCOR                  000000000000000000N
062003051352999000006015TANTONIA                  SOTO                     BETANCOR                  000000000000000000N
062003051352999000006016TNICOLAS                  RODRIGUEZ                FARRAY                    000000000000000000N
062003051352999000006017TVALENTINA DEL PILAR      CABRERA                  PADRON                    000000000000000000N
062003051352999000006018TABRAHAM MANUEL           PEREZ                    BARRIOS                   000000000000000000N
062003051352999000006019TCHAMAIDA AVENCHARA       RODRIGUEZ                PERDOMO                   000000000000000000N
062003051352999000006002TJOSE MARIA               ESPINO                   GONZALEZ                  000000000000000000S
062003051352999000006020TJOSE JUAN ISIDRO         HERNANDEZ                DUCHEMIN                  000000000000000000N
062003051352999000006021TNOELIA ISABEL            ALVAREZ                  TOLEDO                    000000000000000000N
062003051352999000006022TROBERTO                  CURBELO                  GONZALEZ                  000000000000000000N
062003051352999000006023TMARIA INMACULADA         MACHIN                   BETANCOR                  000000000000000000N
062003051352999000006003TMARIA ANGELES            GARCIA                   HERNANDEZ                 000000000000000000S
062003051352999000006004TJUAN JOSE                SANTANA                  DE LEON                   000000000000000000S
062003051352999000006005TPEDRO MANUEL             SANGINES                 GUTIERREZ                 000000000000000000S
062003051352999000006006TMANUEL ROSARIO           FAJARDO                  FEO                       000000000000000000N
062003051352999000006007TANTONIO ANDRES           LORENZO                  TEJERA                    000000000000000000N
062003051352999000006008TMARIA FELIX              TEJERA                   CARABALLO                 000000000000000000N
062003051352999000006009TTERESA MARIA             CURBELO                  CABRERA                   000000000000000000N
062003051352999000076001TANDRES                   JESUS                    GUTIERREZ                 000000000000000000N
062003051352999000076010TISIDRO                   UMPIERREZ                GARCIA                    000000000000000000N
062003051352999000076011TBENEDICTA                BATISTA                  MONTELONGO                000000000000000000N
062003051352999000076012TJUAN JOSE                BENITEZ                  IGLESIAS                  000000000000000000N
062003051352999000076013TROSA DELIA               PERERA                   CABRERA                   000000000000000000N
062003051352999000076014TFRANCISCA                MARTINEZ                 DEL RIO                   000000000000000000N
062003051352999000076015TLUIS MIGUEL              VALIENTE                 UMPIERREZ                 000000000000000000N
062003051352999000076016TEFIGENIA                 UMPIERREZ                GARCIA                    000000000000000000N
062003051352999000076017TJUAN FRANCISCO           SANTANA                  ARMAS                     000000000000000000N
062003051352999000076018TMARIDIAN                 UMPIERREZ                BATISTA                   000000000000000000N
062003051352999000076019TJOSE PABLO               CARRARA                  MARTIN                    000000000000000000N
062003051352999000076002TYURENA                   GUADALUPE                HERNANDEZ                 000000000000000000N
062003051352999000076020TROSA MARIA               DE LEON                  CORUJO                    000000000000000000N
062003051352999000076021TAYEISHA DEL PINO         MARTIN                   MORALE                    000000000000000000N
062003051352999000076022TISABEL                   UMPIERREZ                GARCIA                    000000000000000000N
062003051352999000076023TJUAN MANUEL              GONZALEZ                 RODRIGUEZ                 000000000000000000N
062003051352999000076003TRUIMAN                   UMPIERREZ                BATISTA                   000000000000000000N
062003051352999000076004TJONAS                    GONZALEZ                 CASTELLANO                000000000000000000N
062003051352999000076005TMANUELA                  MARTIN                   DE GANZO                  000000000000000000N
062003051352999000076006TEDUARDO                  PLASENCIA                HERNANDEZ                 000000000000000000N
062003051352999000076007TDOLORES                  UMPIERREZ                GARCIA                    000000000000000000N
062003051352999000076008TJOSUE                    GARCIA                   MARTIN                    000000000000000000N
062003051352999000076009TMARIA DEL CARMEN         MORENO                   GARCIA                    000000000000000000N
062003051352999000111001TDIMAS                    MARTIN                   MARTIN                    000000000000000000S
062003051352999000111010TEMILIA                   PERDOMO                  QUINTANA                  000000000000000000N
062003051352999000111011TROBERTO                  ACUÑA                    ARMAS                     000000000000000000N
062003051352999000111012TNOELIA                   LEMES                    RODRIGUEZ                 000000000000000000N
062003051352999000111013TCARMEN DELIA             DELGADO                  SEPULVEDA                 000000000000000000N
062003051352999000111014TVICENTE                  MARTIN                   GONZALEZ                  000000000000000000N
062003051352999000111015TRAMON                    BERMUDEZ                 BENASCO                   000000000000000000N
062003051352999000111016TJOSE                     SUAREZ                   RODRIGUEZ                 000000000000000000N
062003051352999000111017TMODESTO DIONISIO         MELGAREJO                HERNANDEZ                 000000000000000000N
062003051352999000111018TFRANCISCO JAVIER         CURBELO                  LUZARDO                   000000000000000000N
062003051352999000111019TJOSE ANTONIO             CASTELLANO               GARCIA                    000000000000000000N
062003051352999000111002TJUAN PEDRO               HERNANDEZ                RODRIGUEZ                 000000000000000000S
062003051352999000111020TJOSE DOMINGO             ABREUT                   CABRERA                   000000000000000000N
062003051352999000111021TFRANCISCO MATIAS         RODRIGUEZ                PEREZ                     000000000000000000N
062003051352999000111022TCARMEN ROSA              GONZALEZ                 RODRIGUEZ                 000000000000000000N
062003051352999000111023THUMBERTO CARLOS          MARTIN                   MEDINA                    000000000000000000N
062003051352999000111003TMARIA JOSE               DOCAL                    SERRANO                   000000000000000000S
062003051352999000111004TINES NIEVES              ROJAS                    DE LEON                   000000000000000000S
062003051352999000111005TLUIS CELESTINO           ARRAEZ                   GUADALUPE                 000000000000000000S
062003051352999000111006TPLACIDA                  GUERRA                   CABRERA                   000000000000000000S
062003051352999000111007THIGINIO                  HERNANDEZ                RODRIGUEZ                 000000000000000000S
062003051352999000111008TSERGIO                   MACHIN                   DE LEON                   000000000000000000S
062003051352999000111009TMARCOS                   PAEZ                     MORALES                   000000000000000000N
062003051352999001238001TPEDRO MELQUIADES         HERNANDEZ                CAMACHO                   000000000000000000S
062003051352999001238010TIGNACIO JAVIER           ROMERO                   PERERA                    000000000000000000N
062003051352999001238011TANTONIO MARCIAL          BONILLA                  TORRES                    000000000000000000N
062003051352999001238012TANTONIO                  PADRON                   BARRERA                   000000000000000000N
062003051352999001238013TJOSE ANTONIO             GONZALEZ                 HERNANDEZ                 000000000000000000N
062003051352999001238014TCRISTO DAVID             GARCIA                   GONZALEZ                  000000000000000000N
062003051352999001238015TMARIA DEL CARMEN         NIEVES                   CACERES                   000000000000000000N
062003051352999001238016TOFELIA HIADES            AVILES                   BARLETTA                  000000000000000000N
062003051352999001238017TMANUEL                   LOPEZ                    GONZALEZ                  000000000000000000N
062003051352999001238018TMARIA DEL CARMEN ANA     DE MICHELENA             MORALES                   000000000000000000N
062003051352999001238019TTIBIABIN                 HERNANDEZ                RODRIGUEZ                 000000000000000000N
062003051352999001238002TEMILIA MARIA             MORALES                  MARTIN                    000000000000000000N
062003051352999001238020TMARIA DEL CARMEN         RODRIGUEZ                MORALES                   000000000000000000N
062003051352999001238021TRICARDO JESUS            CABRERA                  LOPEZ                     000000000000000000N
062003051352999001238022TJOSE FRANCISCO           CURBELO                  GUADALUPE                 000000000000000000N
062003051352999001238023TFRANCISCO                MARTINEZ                 FERREIRA                  000000000000000000N
062003051352999001238003TMANUEL                   PLASENCIA                RODRIGUEZ                 000000000000000000N
062003051352999001238004TVICENTA GUADALUPE        TOLEDO                   HERNANDEZ                 000000000000000000N
062003051352999001238005TBERNABE                  GARCIA                   CORUJO                    000000000000000000N
062003051352999001238006TROSALIA DOLORES          DIAZ                     DE LEON                   000000000000000000N
062003051352999001238007TALFREDO                  DIAZ                     GUTIERREZ                 000000000000000000N
062003051352999001238008TPEDRO ANTONIO            SAEZ                     TRIVIÑO                   000000000000000000N
062003051352999001238009TMIGUEL ANGEL             FERNANDEZ                MORALES                   000000000000000000N
062003051352999002671001TJOSE LUIS                SANGINES                 NODA                      000000000000000000N
062003051352999002671010TANTONIO                  PERDOMO                  BERMUDEZ                  000000000000000000N
062003051352999002671011TISIDRO                   MARRERO                  HERNANDEZ                 000000000000000000N
062003051352999002671012TGINES MIGUEL             LEAL                     HERNANDEZ                 000000000000000000N
062003051352999002671013TJUAN PEDRO               MORALES                  CORUJO                    000000000000000000N
062003051352999002671014TNARCISO FELIPE           FUENTES                  CABRERA                   000000000000000000N
062003051352999002671015TRICARDO                  LEMES                    DIAZ                      000000000000000000N
062003051352999002671016TMANUEL                   DIAZ                     ALAYON                    000000000000000000N
062003051352999002671017TFRANCISCO                GONZALEZ                 FALERO                    000000000000000000N
062003051352999002671018TJOSE MANUEL              FUENTES                  CABRERA                   000000000000000000N
062003051352999002671019TFRANCISCO JAVIER         HERNANDEZ                ROCIO                     000000000000000000N
062003051352999002671002TANTONIO                  MONTELONGO               FRANQUIS                  000000000000000000N
062003051352999002671020TMANUEL                   NELLY                    GARCIA                    000000000000000000N
062003051352999002671021TRAMON                    HERNANDEZ                HERNANDEZ                 000000000000000000N
062003051352999002671022TCONCEPCION ISABEL        HERNANDEZ                SANCHEZ                   000000000000000000N
062003051352999002671023TVICENTE                  FEO                      CACERES                   000000000000000000N
062003051352999002671003TMARCIAL                  MEDINA                   MEDINA                    000000000000000000N
062003051352999002671004TANTONIO JORGE            TOLEDO                   HERNANDEZ                 000000000000000000N
062003051352999002671005TJOSE ANTONIO             VALIDO                   RAMIREZ                   000000000000000000N
062003051352999002671006TORLANDO                  BATISTA                  APARICIO                  000000000000000000N
062003051352999002671007TVICENTE                  FEO                      GONZALEZ                  000000000000000000N
062003051352999002671008TJEREMIAS                 CABRERA                  CABRERA                   000000000000000000N
062003051352999002671009TJUANA TERESA             NEGRIN                   SANGINES                  000000000000000000N
062003051352999002672001TJUAN                     RAMIREZ                  MONTERO                   000000000000000000N
062003051352999002672010TGINES                    RAMIREZ                  HERNANDEZ                 000000000000000000N
062003051352999002672011TJAVIER                   CIPRES                   VIDAL                     000000000000000000N
062003051352999002672012TMARIA JOSEFA             PERDOMO                  GARCIA                    000000000000000000N
062003051352999002672013TPEDRO EMILIANO           BRITO                    HERNANDEZ                 000000000000000000N
062003051352999002672014TGINES JULIAN             GONZALEZ                 GONZALEZ                  000000000000000000N
062003051352999002672015TSANDRA                   RENEE                    HOLDER                    000000000000000000N
062003051352999002672016TSIXTO RAFAEL             HERNANDEZ                PAEZ                      000000000000000000N
062003051352999002672017TELADIO                   CURBELO                  RODRIGUEZ                 000000000000000000N
062003051352999002672018TCARMEN ROSA              GONZALEZ                 ARBELO                    000000000000000000N
062003051352999002672019TANDRES DE LA CRUZ        MEDINA                   MEDINA                    000000000000000000N
062003051352999002672002TENRIQUE                  PLATA                    OCIO                      000000000000000000N
062003051352999002672020TEVA GREGORIA             DUQUE                    PEREZ                     000000000000000000N
062003051352999002672021TDANIEL                   TOLEDO                   ROMERO                    000000000000000000N
062003051352999002672022TRAFAELA                  BONILLA                  TORRES                    000000000000000000N
062003051352999002672023TVANESA                   CURBELO                  MORALES                   000000000000000000N
062003051352999002672003TMARIA DE LAS NIEVES      REGUERA                  RAMIREZ                   000000000000000000N
062003051352999002672004TJUAN                     RODRIGUEZ                DELGADO                   000000000000000000N
062003051352999002672005TANTONIO                  VALERO                   RUIZ                      000000000000000000N
062003051352999002672006TANTONIO                  NIZ                      HERNANDEZ                 000000000000000000N
062003051352999002672007TJOSE MARIA               MARTIN                   MIGUEZ                    000000000000000000N
062003051352999002672008TERNESTO                  PAREJA                   ARROYO                    000000000000000000N
062003051352999002672009TMARTA                    MINGUELA                 RODRIGUEZ                 000000000000000000N
062003051353999000001001TLUIS ALBERTO             VILA                     RODRIGUEZ                 000000000000000000S
062003051353999000001010TMARCELA MARIA            ARTERO                   BETANCOR                  000000000000000000N
062003051353999000001011TDANIEL                   NUEVO                    HIDALGO                   000000000000000000N
062003051353999000001012TPEDRO MANUEL             GONZALEZ                 SANCHEZ                   000000000000000000N
062003051353999000001013TEVELIN                   GOMEZ                    MORERA                    000000000000000000N
062003051353999000001014TSANDRA MARIA             GONZALEZ                 FRANQUIS                  000000000000000000N
062003051353999000001015TISABEL                   LUCAS                    CONEJO                    000000000000000000N
062003051353999000001016TMARIA DEL CARMEN         ALVAREZ                  CHORNA                    000000000000000000N
062003051353999000001017TANA DEL PILAR            PADILLA                  CAMEJO                    000000000000000000N
062003051353999000001018TGUSTAVO                  BERRIEL                  HERNANDEZ                 000000000000000000N
062003051353999000001019TANTONIO                  OLMEDO                   MANZANARES                000000000000000000N
062003051353999000001002TDOMINGO                  GONZALEZ                 ARROYO                    000000000000000000S
062003051353999000001020TFRANCISCO MIGUEL         ARTILES                  SANCHEZ                   000000000000000000N
062003051353999000001021TJUAN DE SAN GENARO       SANTANA                  REYES                     000000000000000000N
062003051353999000001003TCLAUDIO                  GUTIERREZ                VERA                      000000000000000000S
062003051353999000001004TIGNACIO DE SAN PRIM.     GORDILLO                 PADRON                    000000000000000000S
062003051353999000001005TPURIFICACION             RODRIGUEZ                CABRERA                   000000000000000000S
062003051353999000001006TMIGUEL ANGEL             GUERRA                   RODRIGUEZ                 000000000000000000S
062003051353999000001007TFRANCISCO JAVIER         MARTINEZ                 MARTIN                    000000000000000000N
062003051353999000001008TJOSE LUIS                CERDEÑA                  GONZALEZ                  000000000000000000N
062003051353999000001009TANGEL                    VERA                     MOSEGUEZ                  000000000000000000N
062003051353999000002001TDOMINGO FRANCISCO        FUENTES                  CURBELO                   000000000000000000S
062003051353999000002010TCARMEN ANA               DIAZ                     RODRIGUEZ                 000000000000000000N
062003051353999000002011TMARCOS                   DIAZ                     HORMIGA                   000000000000000000N
062003051353999000002012TMARIA JESUS              RODRIGUEZ                DE VERA                   000000000000000000N
062003051353999000002013TFRANCISCO JAVIER         MONTAÑES                 MONTAÑES                  000000000000000000N
062003051353999000002014TLUISA                    RODRIGUEZ                ROBAYNA                   000000000000000000N
062003051353999000002015TFARES ROQUE              SOSA                     RODRIGUEZ                 000000000000000000N
062003051353999000002016TPINO DEL CARMEN          GONZALEZ                 BRITO                     000000000000000000N
062003051353999000002017TJOSE JUAN PEDRO          MARRERO                  MEDINA                    000000000000000000N
062003051353999000002018TCARMEN                   DENIZ                    FRANCES                   000000000000000000N
062003051353999000002019TFE DEL JESUS             CABRERA                  FRAGIEL                   000000000000000000N
062003051353999000002002TOLIVIA                   ESTEVEZ                  SANTANA                   000000000000000000S
062003051353999000002020TANA PILAR                NOTARIO                  GUINDO                    000000000000000000N
062003051353999000002021TCRISTINA                 DOMINGUEZ                DOMINGUEZ                 000000000000000000N
062003051353999000002003TALEJANDRO JESUS          JORGE                    MORENO                    000000000000000000S
062003051353999000002004TMARIA DEL PILAR          RODRIGUEZ                AVILA                     000000000000000000S
062003051353999000002005TJUAN                     ESTARICO                 QUINTANA                  000000000000000000S
062003051353999000002006TANTONIO FELIPE           GARCIA                   RODRIGUEZ                 000000000000000000S
062003051353999000002007TDOMINGO JUAN             JIMENEZ                  GONZALEZ                  000000000000000000N
062003051353999000002008TANGEL                    SOTO                     HERNANDEZ                 000000000000000000N
062003051353999000002009TJOSE ALEXANDER           BRITO                    MESA                      000000000000000000N
062003051353999000006001TMARIO                    CABRERA                  GONZALEZ                  000000000000000000S
062003051353999000006010TCANDELARIA               UMPIERREZ                RAMOS                     000000000000000000N
062003051353999000006011THECTOR                   PEÑATE                   CILLERO                   000000000000000000N
062003051353999000006012TBEATRIZ M DEL CARMEN     FAJARDO                  FEO                       000000000000000000N
062003051353999000006013TPEDRO NICOLAS            NIEVES                   HORMIGA                   000000000000000000N
062003051353999000006014TJUANA M. DEL CARMEN      ALONSO                   MATOS                     000000000000000000N
062003051353999000006015TJUAN RICARDO             HERNANDEZ                UMPIERREZ                 000000000000000000N
062003051353999000006016TJUAN ALBERTO             JESUS                    SANTANA                   000000000000000000N
062003051353999000006017THORACIO                  UMPIERREZ                SANCHEZ                   000000000000000000N
062003051353999000006018TBLAS MANUEL              RODRIGUEZ                FUENTES                   000000000000000000N
062003051353999000006019TLUZ MARINA               FRANCES                  BATISTA                   000000000000000000N
062003051353999000006002TNATIVIDAD EMILIA         CANO                     PEREZ                     000000000000000000S
062003051353999000006020TMARIA DE LA PEÑA         AGUIAR                   PADILLA                   000000000000000000N
062003051353999000006021TAGUSTIN                  LEON                     LIMA                      000000000000000000N
062003051353999000006003TDOMINGO                  BERRIEL                  MARTINEZ                  000000000000000000S
062003051353999000006004TANDRES                   VALERON                  HERNANDEZ                 000000000000000000S
062003051353999000006005TLAZARO                   CABRERA                  RODRIGUEZ                 000000000000000000S
062003051353999000006006TMANUEL                   MIRANDA                  MEDINA                    000000000000000000S
062003051353999000006007TTOMAS                    SAAVEDRA                 DE LEON                   000000000000000000S
062003051353999000006008TEDILIA ROSA              PEREZ                    GUERRA                    000000000000000000N
062003051353999000006009TJESUS S.                 LEON                     LIMA                      000000000000000000N
062003051353999000039001TMONSERRAT                MARTIN                   REQUERA                   000000000000000000N
062003051353999000039010TBLAS                     DIAZ                     RODRIGUEZ                 000000000000000000N
062003051353999000039011TJUAN                     PEÑA                     PEÑATE                    000000000000000000N
062003051353999000039012THILDA                    GONZALEZ                 MOLINA                    000000000000000000N
062003051353999000039013TJUAN                     RAMOS                    LLARENA                   000000000000000000N
062003051353999000039014TDULCE MARIA              MORALES                  ROCHA                     000000000000000000N
062003051353999000039015TENRIQUE                  SOSA                     VERA                      000000000000000000N
062003051353999000039016TFERNANDO                 FERNANDEZ                CURBELO                   000000000000000000N
062003051353999000039017TMARIA ISABEL             BAUTISTA                 RAMIREZ                   000000000000000000N
062003051353999000039018TANGEL SALVADOR           DOMINICI                 CASTELLANO                000000000000000000N
062003051353999000039019TMARIA CANDELARIA         SANTANA                  FARRAY                    000000000000000000N
062003051353999000039002TMARIA DEL CARMEN         GONZALEZ                 SOTO                      000000000000000000N
062003051353999000039020TJUAN MANUEL              MACIAS                   LOPEZ                     000000000000000000N
062003051353999000039021TSAGRARIO                 MARTINEZ                 BERRIEL                   000000000000000000N
062003051353999000039003TDOMINGO                  MARTINEZ                 BERRIEL                   000000000000000000N
062003051353999000039004TAGUSTINA                 CABRERA                  ROBAYNA                   000000000000000000N
062003051353999000039005TLUIS MANUEL              HERNANDEZ                RODRIGUEZ                 000000000000000000N
062003051353999000039006TJOSEFA                   VALERON                  CAZORLA                   000000000000000000N
062003051353999000039007TJUAN ARMANDO             NAVARRO                  NAVARRO                   000000000000000000N
062003051353999000039008TFRANCISCO JAVIER         BENITEZ                  MARTIN                    000000000000000000N
062003051353999000039009TMAGNOLIA                 MONTELONGO               SANCHEZ                   000000000000000000N
062003051353999002666001TILDEFONSO                CHACON                   NEGRIN                    000000000000000000S
062003051353999002666010TGUSTAVO MANUEL           GONZALEZ                 QUESADA                   000000000000000000N
062003051353999002666011TMARIA MAGDALENA          BETANCOR                 MENDOZA                   000000000000000000N
062003051353999002666012TMOHAMED                  ACHARGUI                 AFQUIR                    000000000000000000N
062003051353999002666013TMARIA DEL CARMEN         NUÑEZ                    ARCO                      000000000000000000N
062003051353999002666014TCECILIO                  MIGUEL                   SANCHEZ                   000000000000000000N
062003051353999002666015TBEATRIZ                  PEREZ                    SANCHEZ                   000000000000000000N
062003051353999002666016TMIGUEL JUAN              SANCHEZ                  VELAZQUEZ                 000000000000000000N
062003051353999002666017TROSARIO ANGELES          BARRERA                  GARCIA                    000000000000000000N
062003051353999002666018TANASTASIO MIGUEL         MUÑOZ                    GARRIDO                   000000000000000000N
062003051353999002666019TAGUSTIN JESUS            ALBERTO                  GARCIA                    000000000000000000N
062003051353999002666002TALMUDENA                 MONSERRAT                DE LEON                   000000000000000000S
062003051353999002666020TDOMINGO                  LORENZO                  MATA                      000000000000000000N
062003051353999002666021TAYOZE ZEMIDAN            SOSA                     BRITO                     000000000000000000N
062003051353999002666003TCIRILO                   GONZALEZ                 SANTANA                   000000000000000000N
062003051353999002666004TJOSE                     JORGE                    MONSERRAT                 000000000000000000N
062003051353999002666005TLORENZO MARCOS           ALONSO                   AVILA                     000000000000000000N
062003051353999002666006TGUILLERMO                CONCEPCION               RODRIGUEZ                 000000000000000000N
062003051353999002666007TFRANCISCO                CALERO                   CARREÑO                   000000000000000000N
062003051353999002666008TJACOBO AURELIO           CAMINO                   PADILLA                   000000000000000000N
062003051353999002666009TMARIA FATIMA             DIAZ                     DIAZ                      000000000000000000N
062003051353999002667001TCARLOS JAVIER            FIGUEROA                 BENITEZ                   000000000000000000N
062003051353999002667010TMANUEL ISRAEL            NIEVES                   GONZALEZ                  000000000000000000N
062003051353999002667011TMARIA PILAR SOCORRO      MIRANDA                  RIVERO                    000000000000000000N
062003051353999002667012TMANUEL JESUS             MORALES                  MORALES                   000000000000000000N
062003051353999002667013TSANDRA                   PUMEDA                   DOBARRO                   000000000000000000N
062003051353999002667014TFRANCISCO JAVIER         REYES                    FARRIOL                   000000000000000000N
062003051353999002667015TRICARDO                  MACHIN                   LUQUE                     000000000000000000N
062003051353999002667016TALBERTO                  GONZALEZ                 GONZALEZ                  000000000000000000N
062003051353999002667017TMARCOS JESUS             CRUZ                     FELIPE                    000000000000000000N
062003051353999002667018TRAYCO JESUS              SOTO                     VERA                      000000000000000000N
062003051353999002667019TPASCUAL                  NOLASCO                  RODRIGUEZ                 000000000000000000N
062003051353999002667002TJOSE AGUSTIN             MEDINA                   GONZALEZ                  000000000000000000N
062003051353999002667020TJOSE BLAS                DE LEON                  SAAVEDRA                  000000000000000000N
062003051353999002667021TFRANCISCO MAXIMINO       CAMINO                   GONZALEZ                  000000000000000000N
062003051353999002667003TMARIA SOLEDAD            SANTANA                  GUERRA                    000000000000000000N
062003051353999002667004TTOMAS NORBERTO           SILVERA                  MENDEZ                    000000000000000000N
062003051353999002667005TDUNIA DEL CARMEN         GOMEZ                    GONZALEZ                  000000000000000000N
062003051353999002667006TDOMINGO ANSELMO          GONZALEZ                 FALCON                    000000000000000000N
062003051353999002667007TZAIDA                    MARTIN                   BETANCOR                  000000000000000000N
062003051353999002667008TJOSE ANTONIO             LOPEZ                    GORDILLO                  000000000000000000N
062003051353999002667009TJUANA MARIA              PEREZ                    GONZALEZ                  000000000000000000N
062003051384999000001001TBENITO                   CODINA                   CASALS                    000000000000000000S
062003051384999000001010TMARIA TERESA             ALBA                     HERNANDEZ                 000000000000000000N
062003051384999000001011TJOSE CARLOS              GARCIA                   DE LA CRUZ                000000000000000000N
062003051384999000001012TNURIA YOLANDA            CUGAT                    ACUÑA                     000000000000000000N
062003051384999000001013TJULIA                    DEBRIONES                BOTELLA                   000000000000000000N
062003051384999000001014TANDRES                   MONTIEL                  MOLINA                    000000000000000000N
062003051384999000001015TENRIQUE                  AGULLO                   MARTINEZ                  000000000000000000N
062003051384999000001016TANGEL ANTONIO            FUENTES                  GUERRERO                  000000000000000000N
062003051384999000001017TMARIA DEL MAR            ANTUNEZ                  GARCIA                    000000000000000000N
062003051384999000001018TJESUS MIGUEL SANTOS      ALONSO                   RODRIGUEZ                 000000000000000000N
062003051384999000001019TMILAGROS                 PEREZ                    LEON                      000000000000000000N
062003051384999000001002TVICENTA                  DIAZ                     SAEZ                      000000000000000000S
062003051384999000001020TCARMEN LUZ               HERNANDEZ                BORGES                    000000000000000000N
062003051384999000001021TMARIO                    MARRERO                  FUMERO                    000000000000000000N
062003051384999000001022TTERESA MARIA             BARROSO                  BARROSO                   000000000000000000N
062003051384999000001023TFRANCISCO JAVIER         VAQUERO                  PEREA                     000000000000000000N
062003051384999000001024TSOCORRO MARIA PILAR      CASAÑAS                  AFONSO                    000000000000000000N
062003051384999000001025TANA MARIA                PASTOR                   MANCHO                    000000000000000000N
062003051384999000001026TFERNANDO                 GUERRA                   DIAZ                      000000000000000000N
062003051384999000001027TRAFAEL ANGEL             BECERRA                  ANET                      000000000000000000N
062003051384999000001028TVICTOR EDUARDO           REVERON                  GOMEZ                     000000000000000000N
062003051384999000001029TJOSE LUIS                NGALE                    MASIGUI                   000000000000000000N
062003051384999000001003TFRANCISCO JAVIER         MORERA                   FUMERO                    000000000000000000S
062003051384999000001004TANGEL SALVADOR           LLANOS                   CASTRO                    000000000000000000S
062003051384999000001005TMARIA JOSE               GUTIERREZ                PAJARON                   000000000000000000N
062003051384999000001006TJOSE JAVIER              CURBELO                  ACOSTA                    000000000000000000N
062003051384999000001007TMARIA ISABEL             GARCIA                   LUIS                      000000000000000000N
062003051384999000001008TMARIA JESUS              ALVAREZ                  MELCHOR                   000000000000000000N
062003051384999000001009TANTONIO                  PASTOR                   ABREU                     000000000000000000N
062003051384999000002001TANTONIO                  MARTINON                 CEJAS                     000000000000000000S
062003051384999000002010TRICARDO LUIS             GUERRERO                 LEMUS                     000000000000000000S
062003051384999000002011TSERGIO                   ABREU                    GONZALEZ                  000000000000000000N
062003051384999000002012TGLORIA ELENA             RIVERO                   ALCOVER                   000000000000000000N
062003051384999000002013TJOSE LUIS                FIGUEROA                 DE LA PAZ                 000000000000000000N
062003051384999000002014TAGUSTINA MERCEDES        GUTIERREZ                HERNANDEZ                 000000000000000000N
062003051384999000002015TANGEL MANUEL             RIVERA                   RUZ                       000000000000000000N
062003051384999000002016TMARIA ISABEL             GARCIA                   HERNANDEZ                 000000000000000000N
062003051384999000002017TJOSE FRANCISCO           DAMAS                    HERNANDEZ                 000000000000000000N
062003051384999000002018TMARIA ISABEL             HERNANDEZ                LEON                      000000000000000000N
062003051384999000002019TANTONIO MIGUEL           GARCIA                   ABREU                     000000000000000000N
062003051384999000002002TJOSE VICENTE             GONZALEZ                 BETHENCOURT               000000000000000000S
062003051384999000002020TMARIA ELENA              ROSA                     PEÑA                      000000000000000000N
062003051384999000002021TJOSE ORIOL               GUERRA                   CABRERA                   000000000000000000N
062003051384999000002022TMARIA JOSE               PEREZ                    MENESES                   000000000000000000N
062003051384999000002023TMARCOS                   PASCUAL                  RODRIGUEZ                 000000000000000000N
062003051384999000002024TPLACIDO ENRIQUE          BAZO                     MARTINEZ                  000000000000000000N
062003051384999000002025TMARIA MERCEDES           PEREZ                    SCHWARTZ                  000000000000000000N
062003051384999000002026TCARMELO                  MENDEZ                   QUINTERO                  000000000000000000N
062003051384999000002027TGLORIA DEL PILAR         GUTIERREZ                ARTEAGA                   000000000000000000N
062003051384999000002028TMANUEL VICENTE           TORRES                   STINGA                    000000000000000000N
062003051384999000002029TMARIA DOLORES            PELAYO                   DUQUE                     000000000000000000N
062003051384999000002003TMARIA TERESA             CRUZ                     OVAL                      000000000000000000S
062003051384999000002004TMIGUEL ANGEL             SANTOS                   CRUZ                      000000000000000000S
062003051384999000002005TDOMINGO SERGIO           MEDINA                   MARTIN                    000000000000000000S
062003051384999000002006TMARIA CONCEPCION         GONZALEZ                 HERNANDEZ                 000000000000000000S
062003051384999000002007TRAFAEL JOSE              YANES                    MESA                      000000000000000000S
062003051384999000002008TMARIA MAGDALENA          DOMINGUEZ                SIERRA                    000000000000000000S
062003051384999000002009TFIDELA                   VELAZQUEZ                MANUEL                    000000000000000000S
062003051384999000006001TRICARDO                  MELCHOR                  NAVARRO                   000000000000000000S
062003051384999000006010TVICTOR                   PEREZ                    BORREGO                   000000000000000000S
062003051384999000006011TMARIA DEL PINO           DE LEON                  HERNANDEZ                 000000000000000000S
062003051384999000006012TJOSEFA                   GARCIA                   MORENO                    000000000000000000S
062003051384999000006013TDAMASO                   ARTEAGA                  SUAREZ                    000000000000000000S
062003051384999000006014TOSCAR                    DIAZ                     GONZALEZ                  000000000000000000S
062003051384999000006015TTOMAS                    MARTIN                   LORENZO-CACERES           000000000000000000S
062003051384999000006016TFELICITAS                DIAZ-FLORES              ESTEVEZ                   000000000000000000N
062003051384999000006017TMARIA DEL CRISTO         PEREZ                    ZAMORA                    000000000000000000N
062003051384999000006018TJAVIER                   GONZALEZ                 ORTIZ                     000000000000000000N
062003051384999000006019TVERONICA ISABEL          JORGE                    MESA                      000000000000000000N
062003051384999000006002TJOSE MANUEL              BERMUDEZ                 ESPARZA                   000000000000000000S
062003051384999000006020TJOSE ANTONIO             GARCIA                   FUENTES                   000000000000000000N
062003051384999000006021TJOSE FERNANDO            DIAZ                     MEDINA                    000000000000000000N
062003051384999000006022TEUSEBIO                  DORTA                    GONZALEZ                  000000000000000000N
062003051384999000006023TANTONIA DEL CARMEN       RODRIGUEZ                MARTIN                    000000000000000000N
062003051384999000006024TJOSE HAROLDO             MARTIN                   GONZALEZ                  000000000000000000N
062003051384999000006025TNATHALIE                 AFONSO                   ROJAS                     000000000000000000N
062003051384999000006026TMARIA DE LA CRUZ         TAVIO                    GONZALEZ                  000000000000000000N
062003051384999000006027TALEJANDRO                MOLOWNY                  LOPEZ-PEÑALVER            000000000000000000N
062003051384999000006028TCAROLINA                 DE TORRES                CAPEL                     000000000000000000N
062003051384999000006029TCARLOS                   GONZALEZ                 TOLEDO                    000000000000000000N
062003051384999000006003TMONICA                   MENDEZ                   ORAMAS                    000000000000000000S
062003051384999000006004TLORENZO                  DORTA                    GARCIA                    000000000000000000S
062003051384999000006005TWLADIMIRO                RODRIGUEZ                BRITO                     000000000000000000S
062003051384999000006006TCRISTINA                 VALIDO                   GARCIA                    000000000000000000S
062003051384999000006007TMIGUEL                   DELGADO                  DIAZ                      000000000000000000S
062003051384999000006008TFIDELIA                  IGLESIAS                 GONZALEZ                  000000000000000000S
062003051384999000006009TJOSE JOAQUIN             BETHENCOURT              PADRON                    000000000000000000S
062003051384999000032001TRAMON EZEQUIEL           ROJAS                    HERNANDEZ                 000000000000000000N
062003051384999000032010TLEONARDA                 GONZALEZ                 YANES                     000000000000000000N
062003051384999000032011TVICTOR MANUEL            GARCIA                   BRUNETTO                  000000000000000000N
062003051384999000032012TMARIA DE LAS NIEVES      HERNANDEZ                RODRIGUEZ                 000000000000000000N
062003051384999000032013TDOMINGO                  VALDIVIA                 RODRIGUEZ                 000000000000000000N
062003051384999000032014TMARIA SANDRA             ARTEAGA                  MARRERO                   000000000000000000N
062003051384999000032015TJORGE PABLO              OLANO                    MARTINEZ                  000000000000000000N
062003051384999000032016TMARIA DE LA LUZ          MARRERO                  MOLINA                    000000000000000000N
062003051384999000032017TJOSE TOMAS               GONZALEZ                 GONZALEZ                  000000000000000000N
062003051384999000032018TVENERANDA                HERNANDEZ                RODRIGUEZ                 000000000000000000N
062003051384999000032019TLUIS ROBERTO             DIAZ                     CAMACHO                   000000000000000000N
062003051384999000032002TABDONA MARIA             SANTANA                  ROJAS                     000000000000000000N
062003051384999000032020TMARIA MONTSERRAT         ROJAS                    ROJAS                     000000000000000000N
062003051384999000032021TALEJANDRO                ROJAS                    HERNANDEZ                 000000000000000000N
062003051384999000032022TMARIA NIEVES             PEREZ                    ESTRELLO                  000000000000000000N
062003051384999000032023TRAMON                    ROJAS                    ROJAS                     000000000000000000N
062003051384999000032024TFRANCISCO ENRIQUE        BAEZ                     ROJAS                     000000000000000000N
062003051384999000032025TPABLO                    ROJAS                    HERNANDEZ                 000000000000000000N
062003051384999000032026TFRANCISCO JAVIER         ROJAS                    HERNANDEZ                 000000000000000000N
062003051384999000032027TJOSE LUIS                HERAS                    MUÑOZ                     000000000000000000N
062003051384999000032028TJUAN CARLOS              PEREZ                    ESTRELLO                  000000000000000000N
062003051384999000032029TANUNCIACION              PEREZ                    RODRIGUEZ                 000000000000000000N
062003051384999000032003TFELIX ALVARO             MARRERO                  SANCHEZ                   000000000000000000N
062003051384999000032004TYOLANDA                  PEREZ                    SANFIEL                   000000000000000000N
062003051384999000032005TSANTIAGO                 DIAZ                     PEREZ                     000000000000000000N
062003051384999000032006TRAMONA NATIVIDAD         HERNANDEZ                JORGE                     000000000000000000N
062003051384999000032007TMIGUEL ANGEL             HERNANDEZ                ALBERTO                   000000000000000000N
062003051384999000032008TMARIA LUISA              CHICO                    CARLOS                    000000000000000000N
062003051384999000032009TJOSE OSCAR               PEREZ                    EXPOSITO                  000000000000000000N
062003051384999000039001TMIGUEL ANGEL             DIAZ                     HERNANDEZ                 000000000000000000N
062003051384999000039010TCARMEN DELIA             PEREZ                    HENRIQUEZ                 000000000000000000N
062003051384999000039011TJONAS                    PEREZ                    DE LEON                   000000000000000000N
062003051384999000039012TBRAULIO ANTONIO          JIMENEZ                  DE PAZ                    000000000000000000N
062003051384999000039013TLAURA                    DORIA                    ALBIÑANA                  000000000000000000N
062003051384999000039014TJUAN MANUEL              RAYA                     PEREZ                     000000000000000000N
062003051384999000039015TABRAHAM                  GONZALEZ                 GOMEZ                     000000000000000000N
062003051384999000039016TMARIA ARANZAZU           HERNANDEZ                CRUZ                      000000000000000000N
062003051384999000039017TJONAY JESUS              RIOS                     TORRES                    000000000000000000N
062003051384999000039018TCANDIDO VICTORIANO       PEREZ                    PRIETO                    000000000000000000N
062003051384999000039019TNATALIA LOURDES          ARROYO                   HERNANDEZ                 000000000000000000N
062003051384999000039002TJESUS                    GARCIA                   DELGADO                   000000000000000000N
062003051384999000039020TBENIGNO                  GUILLEN                  RODRIGUEZ                 000000000000000000N
062003051384999000039021TJUAN JOSE                MARIA                    GONZALEZ                  000000000000000000N
062003051384999000039022TMARIA ANGELES            SOLIS                    ESTEVEZ                   000000000000000000N
062003051384999000039023TRAFAEL                   FOLCH                    MACHADO                   000000000000000000N
062003051384999000039024TMARIA CANDELARIA         GUIJARRO                 DEL CASTILLO              000000000000000000N
062003051384999000039025TSAMUEL                   ESTEVEZ                  GONZALEZ                  000000000000000000N
062003051384999000039026TROGER MANUEL             GUTIERREZ                SANCHEZ                   000000000000000000N
062003051384999000039027TJUANA ANGELA             HERNANDEZ                EXPOSITO                  000000000000000000N
062003051384999000039028TJAIME                    ESTEVEZ                  GARCIA                    000000000000000000N
062003051384999000039029TJAVIER                   AMOS                     BARRIOS GARCIA            000000000000000000N
062003051384999000039003TMARIA ANA ZEYDI          GONZALEZ                 MARANTE                   000000000000000000N
062003051384999000039004TNICOLAS RAMON            BARRERA                  DIAZ                      000000000000000000N
062003051384999000039005TJOSE AGUSTIN             GARCIA                   GARCIA                    000000000000000000N
062003051384999000039006TM.DEL CARMEN JOSEFA      CRUZ                     ARVELO                    000000000000000000N
062003051384999000039007TJULIO                    CONCEPCION               PEREZ                     000000000000000000N
062003051384999000039008TM. JESUS MARINA ANG.     RODRIGUEZ                LUIS                      000000000000000000N
062003051384999000039009TANTONIO MANUEL           ESPINOSO                 HERNANDEZ                 000000000000000000N
062003051384999000076001TJULIA                    GIL                      LOPEZ                     000000000000000000N
062003051384999000076010TFRANCISCO MIGUEL         BAUTE                    ESCOBAR                   000000000000000000N
062003051384999000076011TMARIA ELENA              BETHENCOURT              LUIS                      000000000000000000N
062003051384999000076012TFRANCISCO JAVIER         BENITEZ                  VEGUERO                   000000000000000000N
062003051384999000076013TMARIA HORTENSIA          GARCIA                   ALVAREZ                   000000000000000000N
062003051384999000076014TESTEBAN                  DIAZ                     EXPOSITO                  000000000000000000N
062003051384999000076015TMARIA LOYDA              RAMOS                    CORDERO                   000000000000000000N
062003051384999000076016TFELICIANO                CACHON                   CASTRO                    000000000000000000N
062003051384999000076017TSERGIO                   GARCIA                   GOMEZ                     000000000000000000N
062003051384999000076018TAMPARO                   ANDRES                   ISIDRO                    000000000000000000N
062003051384999000076019TANTONIO JAVIER           GONZALEZ                 DIAZ                      000000000000000000N
062003051384999000076002TJUAN GERARDO             BORGES                   MORALES                   000000000000000000N
062003051384999000076020TMARIA DOLORES            EXPOSITO                 SANTOS                    000000000000000000N
062003051384999000076021TMOISES HILARIO           LUBARY                   RODRIGUEZ                 000000000000000000N
062003051384999000076022TJULIAN                   MENTRIDA                 RODRIGUEZ                 000000000000000000N
062003051384999000076023TDOMINGO ANGEL EVAR.      MENDEZ                   RODRIGUEZ                 000000000000000000N
062003051384999000076024TMARIA MONTSERRAT         SENTIS                   DE PAZ                    000000000000000000N
062003051384999000076025TJOSE MANUEL              GONZALEZ-CASANOVA        CAMACHO                   000000000000000000N
062003051384999000076026TRICARDO ALBERTO          GUERRA                   PALMERO                   000000000000000000N
062003051384999000076027TVICTOR MANUEL            CABEZA                   GUERRA                    000000000000000000N
062003051384999000076028TJOSE LUIS                ALFONSO                  MARTIN                    000000000000000000N
062003051384999000076029TJOSE MANUEL              NUÑEZ                    FARIÑA                    000000000000000000N
062003051384999000076003TMANUEL                   ALONSO                   MORALES                   000000000000000000N
