041995051320054000220021TMARIA JESUS VALEIRAS FREIRE                                                 00000000  00000000N
041995051320054000220022TLUIS SOUTO RODRIGUEZ                                                        00000000  00000000N
041995051320054000220023TJUAN IGNACIO VALEIRAS FREIRE                                                00000000  00000000N
041995051320054000220024TMARIA LUISA GARCIA VILA                                                     00000000  00000000N
041995051320054000220025TLUIS LOPEZ FERREIRO                                                         00000000  00000000N
041995051320054000220026TMARCIAL JAVIER VAZQUEZ FERREIRO                                             00000000  00000000N
041995051320054000220027TJOSE DOMINGO POSADA GONZALEZ                                                00000000  00000000N
041995051320054320541001TBALBINO ALVAREZ RODRIGUEZ                                                   00000000  00000000N
041995051320054320541002TMIGUEL TORRON SAAVEDRA                                                      00000000  00000000N
041995051320054320541003TMARIA REMEDIOS ALONSO FITERA                                                00000000  00000000N
041995051320054320541004TJOSE MANUEL DOMINGUEZ NOVOA                                                 00000000  00000000N
041995051320054320541005TRAFAEL TOMAS FERNANDEZ IGLESIAS                                             00000000  00000000N
041995051320054320541006TMARIA CONCEPCION BANDE RODRIGUEZ                                            00000000  00000000N
041995051320054320541007TMANUEL ABELEDO LOPEZ                                                        00000000  00000000N
041995051320054320541008TFRANCISCO GARCIA SANTAMARINA                                                00000000  00000000N
041995051320054320541009TJOSE FERNANDEZ FEIJOO                                                       00000000  00000000N
041995051320054320541010TFRANCISCO GALLEGO GONZALEZ                                                  00000000  00000000N
041995051320054320541011TROSA MARIA IGLESIAS RODRIGUEZ                                               00000000  00000000N
041995051320054320541012TMARIA DOLORES DIEGUEZ ALVAREZ                                               00000000  00000000N
041995051320054320541013TMARIA BELEN CRIADO RIVAS                                                    00000000  00000000N
041995051320054320541014TALBERTO QUINTAIROS RODRIGUEZ                                                00000000  00000000N
041995051320054320541015TMARIA DE LA CONCEPCION VIDAL GARCIA                                         00000000  00000000N
041995051320054320541016TM. CARMEN ALVAREZ OLLEROS                                                   00000000  00000000N
041995051320054320541017TNABOR RODRIGUEZ PEREZ                                                       00000000  00000000N
041995051320054320541018TMARIA TERESA BARBA CERMEÑO                                                  00000000  00000000N
041995051320054320541019TJOSE ALVAREZ SEARA                                                          00000000  00000000N
041995051320054320541020TDAVID LOPEZ GESTO                                                           00000000  00000000N
041995051320054320541021TCONCEPCION FEIJOO VAZQUEZ                                                   00000000  00000000N
041995051320054320541022TJOSE JORGE GONZALEZ PRIETO                                                  00000000  00000000N
041995051320054320541023TMARIA ELDA SOUSA GONZALEZ                                                   00000000  00000000N
041995051320054320541024TAUREA VIEITES JANEIRO                                                       00000000  00000000N
041995051320054320541025TMANUEL ALVAREZ PEREZ                                                        00000000  00000000N
041995051320054320541026TANTONIO RODRIGUEZ PEREZ                                                     00000000  00000000N
041995051320054320541027TMARIA LUZ MENDEZ CID                                                        00000000  00000000N
041995051360038000002001TJUAN LUIS PEDROSA FERNANDEZ                                                 00000000  00000000S
041995051360038000002002TJOSE RIVAS FONTAN                                                           00000000  00000000S
041995051360038000002003TMIGUEL DOMINGUEZ VAZ                                                        00000000  00000000S
041995051360038000002004TTOMAS IRIBARREN FERNANDEZ-ROGINA                                            00000000  00000000S
041995051360038000002005TGERMAN DE LA IGLESIA FAUSTINO                                               00000000  00000000S
041995051360038000002006TJOSE BENITO SUAREZ COSTA                                                    00000000  00000000S
041995051360038000002007TFERNANDO GAGO RUIBAL                                                        00000000  00000000S
041995051360038000002008TALEJANDRO AMOEDO RUIZ                                                       00000000  00000000S
041995051360038000002009TMARIA BLANCA RODRIGUEZ FERNANDEZ                                            00000000  00000000S
041995051360038000002010TJUAN ENRIQUE MAGDALENA CHAN                                                 00000000  00000000S
041995051360038000002011TFRANCISCO ARTURO PICHEL MARQUEZ                                             00000000  00000000S
041995051360038000002012TALFONSO RUEDA DE VALENZUELA                                                 00000000  00000000N
041995051360038000002013TCARLOS LOIS TOME                                                            00000000  00000000N
041995051360038000002014TFERNANDO MARIA LAFUENTE LESTON                                              00000000  00000000N
041995051360038000002015TCELESTINO LORES ROSAL                                                       00000000  00000000N
041995051360038000002016TSONIA REY BARROS                                                            00000000  00000000N
041995051360038000002017TJOSE ALEJANDRO BALEA ALONSO                                                 00000000  00000000N
041995051360038000002018TELISA VILLANUEVA LIÑO                                                       00000000  00000000N
041995051360038000002019TMARIA ANGELES BORRAJO QUINTANA                                              00000000  00000000N
041995051360038000002020TMANUEL ARAMBURU NUÑEZ                                                       00000000  00000000N
041995051360038000002021TJORGE DANIEL GARCIA-BORREGON MILLAN                                         00000000  00000000N
041995051360038000002022TANTONIO MIGUEL DE RON PEDREIRA                                              00000000  00000000N
041995051360038000002023TJOSE LUIS TORRADO CASAL                                                     00000000  00000000N
041995051360038000002024TFRANCISCO JAVIER COBIAN SALGADO                                             00000000  00000000N
041995051360038000002025TMARIANO RAJOY BREY                                                          00000000  00000000N
041995051490275000001001TANDRES LUIS CALVO                                                           00000000  00000000S
041995051490275000001002TMARIA JULIA ROMERO MARTIN                                                   00000000  00000000S
041995051490275000001003TLUIS VICENTE PASTOR                                                         00000000  00000000S
041995051490275000001004TANGEL DEL CARMEN ESCALERA                                                   00000000  00000000S
041995051490275000001005TLUIS RODRIGUEZ SAN LEON (IND.)                                              00000000  00000000S
041995051490275000001006TFELIX FRANCISCO RODRIGUEZ PEÑA                                              00000000  00000000S
041995051490275000001007TADOLFO MADRID MARTIN                                                        00000000  00000000S
041995051360038000104001TMIGUEL ANGEL MONTERO VAZ                                                    00000000  00000000S
041995051360038000104002TANTONIO LOURO GOYANES                                                       00000000  00000000S
041995051360038000104003TBALTASAR GARCIA GARCIA                                                      00000000  00000000S
041995051360038000104004TAGUSTIN FERNANDEZ GONZALEZ                                                  00000000  00000000S
041995051360038000104005TMARGARITA FEIJOO LINO                                                       00000000  00000000S
041995051360038000104006TFRANCISCO ROMERO FERNANDEZ (INDEPENDIENTE)                                  00000000  00000000N
041995051360038000104007TJOSE RAMON CASTRO SOTO                                                      00000000  00000000N
041995051360038000104008TANGEL GOMEZ CALLE                                                           00000000  00000000N
041995051360038000104009TMANUEL EULOGIO CORBACHO GARCIA                                              00000000  00000000N
041995051360038000104010TROGELIO PEREZ POZA                                                          00000000  00000000N
041995051360038000104011TLUISA FERNANDA GARCIA ALARCON (INDEPENDIENTE)                               00000000  00000000N
041995051360038000104012TANGELA GARCIA SALGADO                                                       00000000  00000000N
041995051360038000104013TJOSE CAL CONDE                                                              00000000  00000000N
041995051360038000104014TMARIA DEL CARMEN VAZQUEZ GONZALEZ                                           00000000  00000000N
041995051360038000104015TJOSE MIGUEL CARRIL LAMOSO                                                   00000000  00000000N
041995051360038000104016TIDELFONSO MARTINEZ FUENTES (INDEPENDIENTE)                                  00000000  00000000N
041995051360038000104017TMARISOL DIZ LORENZO                                                         00000000  00000000N
041995051360038000104018TJOSE GOMEZ NOVAS                                                            00000000  00000000N
041995051360038000104019TJOSE LUIS ALVAREZ VIJANDE Y PASTOR                                          00000000  00000000N
041995051360038000104020TMARIA JOSE DEL RIO CASTRO                                                   00000000  00000000N
041995051360038000104021TMARINA LAREDO VIDAL                                                         00000000  00000000N
041995051360038000104022TSANTOS MANUEL RODRIGUEZ LAGO                                                00000000  00000000N
041995051360038000104023TLUISA BLANCO RODRIGUEZ                                                      00000000  00000000N
041995051360038000104024TLUCIANO EUSEBIO SANTIAGO ESPERON (INDEPENDIENTE)                            00000000  00000000N
041995051360038000104025TJOSE LUIS COLADAS CALVO                                                     00000000  00000000N
041995051360038000110001TXOSE LUIS MORENO GARCIA                                                     00000000  00000000N
041995051360038000110002TEMILIO MIGUEL BELLAS JIMENEZ                                                00000000  00000000N
041995051360038000110003TBEGOÑA MARIÑO FERNANDEZ                                                     00000000  00000000N
041995051360038000110004TMARIA DEL CARMEN BECERRA SUAREZ                                             00000000  00000000N
041995051360038000110005TJUAN ALBERTO CAMPOS COUSO                                                   00000000  00000000N
041995051360038000110006TANTONIO VILLAMARIN OTERO                                                    00000000  00000000N
041995051360038000110007TGONZALO MIGUEL DE PEDRO QUIJANO                                             00000000  00000000N
041995051360038000110008TJOSE MANUEL ALVES PIÑEIRO                                                   00000000  00000000N
041995051360038000110009TSOCORRO ARAMBURU NUÑEZ                                                      00000000  00000000N
041995051360038000110010TAURELIO TORRES ORGE                                                         00000000  00000000N
041995051360038000110011TMARIA MAR CARMEN GARCIA FEIJOO                                              00000000  00000000N
041995051360038000110012TMANUELA NOVOA SIEIRO                                                        00000000  00000000N
041995051360038000110013TMARINA RUIBAL TORRES                                                        00000000  00000000N
041995051360038000110014TPABLO CONS PINTOS                                                           00000000  00000000N
041995051360038000110015TJOSE JAVIER VICENTE OTERO FURELOS                                           00000000  00000000N
041995051360038000110016TMANUEL RODRIGUEZ PEREYRA                                                    00000000  00000000N
041995051360038000110017TROSA MARIA GONZALEZ VIDAL                                                   00000000  00000000N
041995051360038000110018TRICARDO PIÑA PEREZ                                                          00000000  00000000N
041995051360038000110019TMARIA CARMEN ROMAN GARCIA                                                   00000000  00000000N
041995051360038000110020TDAVID VILLAR POZA                                                           00000000  00000000N
041995051360038000110021TJOSE LUIS PEREIRA CIMA                                                      00000000  00000000N
041995051360038000110022TRAMONA DOMINGUEZ FARIÑA                                                     00000000  00000000N
041995051360038000110023TMARIANO DE PEDRO QUIJANO                                                    00000000  00000000N
041995051360038000110024TMARIA CRISTINA VIDAL SOLIÑO                                                 00000000  00000000N
041995051360038000110025TCARLOS CRESPO ALFAYA                                                        00000000  00000000N
041995051360038000111001TMIGUEL ANXO FERNANDEZ LORES                                                 00000000  00000000S
041995051360038000111002TXOSE CESAREO MOSQUERA LORENZO                                               00000000  00000000S
041995051360038000111003TRAIMUNDO GONZALEZ CARBALLO                                                  00000000  00000000S
041995051360038000111004TMARIA SALOME ALVAREZ BLANCO                                                 00000000  00000000S
041995051360038000111005TGUILLERME VAZQUEZ VAZQUEZ                                                   00000000  00000000S
041995051360038000111006TMARIA CARMEN DE SILVA MENDEZ                                                00000000  00000000S
041995051360038000111007TXOSE LUIS BARA TORRES                                                       00000000  00000000S
041995051360038000111008TMIGUEL ANXO VAZQUEZ PLAZA                                                   00000000  00000000N
041995051360038000111009TXOSE DANIEL CUÑARRO PINTOS                                                  00000000  00000000N
041995051490275000001008TMANUEL COLINO MATEOS (IND.)                                                 00000000  00000000S
041995051490275000001009TGUIDO CONSTANCIO RODRIGUEZ DE LEMA BLANCO                                   00000000  00000000S
041995051490275000001010TJOSE ANTONIO MANUEL VILLARINO CONDE                                         00000000  00000000N
041995051490275000001011TANA ISABEL HERNANDEZ SANCHEZ                                                00000000  00000000N
041995051490275000001012TJULIA GOMEZ PRIETO                                                          00000000  00000000N
041995051490275000001013TJUAN JOSE CAPELLAS ALVAREZ                                                  00000000  00000000N
041995051490275000001014TJESUS FERNANDO MURIAS GRANELL                                               00000000  00000000N
041995051490275000001015TASTERIO DOMINGUEZ MOTA                                                      00000000  00000000N
041995051490275000001016TJUAN ANDRES VAQUERO PEÑA                                                    00000000  00000000N
041995051490275000001017TMIGUEL ANGEL VAQUERO PEREZ                                                  00000000  00000000N
041995051490275000001018TRAQUEL FERNANDO BARAJAS                                                     00000000  00000000N
041995051490275000001019TMARIA FELISA DELGADO CALVO                                                  00000000  00000000N
041995051490275000001020TANGEL GARCIA DURANTES                                                       00000000  00000000N
041995051490275000001021TMARIA DEL CARMEN GARCIA TERUELO                                             00000000  00000000N
041995051490275000001022TMARIA ARANZAZ  PERLINES GALLEGO                                             00000000  00000000N
041995051490275000001023TROSA MARIA ISABEL CHAMORRO GONZALEZ                                         00000000  00000000N
041995051490275000001024TJOSE MARIA ESCALANTE RIVAS                                                  00000000  00000000N
041995051490275000001025TCARLOS JOSE VEGA PEÑA                                                       00000000  00000000N
041995051490275000002001TANTONIO VAZQUEZ JIMENEZ                                                     00000000  00000000S
041995051490275000002002TJOSE ANTOLIN MARTIN MARTIN                                                  00000000  00000000S
041995051490275000002003TFERNANDO MANUEL CHACON ANTON                                                00000000  00000000S
041995051490275000002004TPEDRO ANTONIO RODA FORMARIZ                                                 00000000  00000000S
041995051490275000002005TJOSE FRANCISCO BAHAMONDE SALAZAR                                            00000000  00000000S
041995051490275000002006TPEDRO SAN MARTIN RAMOS                                                      00000000  00000000S
041995051490275000002007TM.. EUGENIA GONZALEZ BAQUERIN                                               00000000  00000000S
041995051490275000002008TJUAN CARLOS DE ANTA TOME                                                    00000000  00000000S
041995051490275000002009TROSA M.. FLORES BERNAL                                                      00000000  00000000S
041995051490275000002010TANGEL MACIAS SALVADOR                                                       00000000  00000000S
041995051490275000002011TALFONSO S. GONZALEZ DE LAS HERAS                                            00000000  00000000S
041995051490275000002012TJUAN JOSE ROMAN MANGAS                                                      00000000  00000000S
041995051490275000002013TJOSE MANUEL MIANO MARINO                                                    00000000  00000000S
041995051490275000002014TANDRES APARICIO OSORIO                                                      00000000  00000000S
041995051490275000002015TFERNANDO DOMINGUEZ VICENTE                                                  00000000  00000000N
041995051490275000002016TMAUDILIO DIAZ DE GERAS FERNANDEZ                                            00000000  00000000N
041995051490275000002017TM.. CARMEN SUTIL HERNANDEZ                                                  00000000  00000000N
041995051490275000002018TBIENVENIDO PEREZ DE ACOSTA                                                  00000000  00000000N
041995051490275000002019TANA NURIA SASTRE TEMPRANO                                                   00000000  00000000N
041995051490275000002020TNARCISO PRIETO MARTIN                                                       00000000  00000000N
041995051490275000002021TRAUL SALAS HERNANDEZ                                                        00000000  00000000N
041995051490275000002022TENRIQUE ALONSO REGUILON                                                     00000000  00000000N
041995051490275000002023TMONSERRAT VILCHES ZAPATA                                                    00000000  00000000N
041995051490275000002024TPEDRO RODRIGUEZ RODRIGUEZ CARRETERO                                         00000000  00000000N
041995051490275000002025TJUSTO GARCIA RODRIGUEZ                                                      00000000  00000000N
041995051490275000044001TBENEDICTO MEZQUITA MEZQUITA                                                 00000000  00000000N
041995051490275000044002TISAURO ALBERTO MARTIN SANTILLANA                                            00000000  00000000N
041995051490275000044003TFAUSTINO REY LORENZO                                                        00000000  00000000N
041995051490275000044004TJULIAN CALVO DOMINGUEZ                                                      00000000  00000000N
041995051490275000044005TJOSE LUIS DE MENA GAGO                                                      00000000  00000000N
041995051490275000044006TANA ISABEL IGLESIAS REMESAL                                                 00000000  00000000N
041995051490275000044007TJESUS MARIA ARROYO RODRIGO                                                  00000000  00000000N
041995051490275000044008TJOSE ANTONIO CASAS FINEZ                                                    00000000  00000000N
041995051490275000044009TADOLFO RAMAJO PASCUAL                                                       00000000  00000000N
041995051490275000044010TLUIS ANGEL TURIÑO SANCHEZ                                                   00000000  00000000N
041995051490275000044011TMIGUEL JOSE PINTADO SERRANO                                                 00000000  00000000N
041995051490275000044012TJOSE ANTONIO MONTES LOPEZ                                                   00000000  00000000N
041995051490275000044013TLUIS ALBERTO DE LA IGLESIA REMESAL                                          00000000  00000000N
041995051490275000044014TJORGE LOPEZ SILVO                                                           00000000  00000000N
041995051490275000044015TMARIA SOCORRO CARNERO CENTENO                                               00000000  00000000N
041995051360038000111010TMARIA ISABEL FERNANDEZ VARELA                                               00000000  00000000N
041995051360038000111011TANXO RAMIRO PAZ GARCIA, "CANO"                                              00000000  00000000N
041995051360038000111012TXOSE ABILLEIRA SOTO                                                         00000000  00000000N
041995051360038000111013TM. MANUELA PORTAS RODIÑO                                                    00000000  00000000N
041995051360038000111014THELADIO PIÑEIRO DIOS                                                        00000000  00000000N
041995051360038000111015TMARIA ANXOS RIVEIRO PORTELA                                                 00000000  00000000N
041995051360038000111016THENRIQUE ZAMORA LORENZO                                                     00000000  00000000N
041995051360038000111017TXAIME XOSE ARGIBAY RIBEIRO                                                  00000000  00000000N
041995051360038000111018TDEMETRIO GOMEZ JUNQUERA                                                     00000000  00000000N
041995051360038000111019TMARIA ISABEL OTERO GAGO                                                     00000000  00000000N
041995051360038000111020TXOSE PORTELA PINTOS                                                         00000000  00000000N
041995051360038000111021TSOLEDAD FERNANDEZ SILVA                                                     00000000  00000000N
041995051360038000111022TXOSE LUIS VEIGA LAGE                                                        00000000  00000000N
041995051360038000111023TANTOLINA FERNANDEZ GONZALEZ                                                 00000000  00000000N
041995051360038000111024TDOMINGOS ANTON GARCIA FERNANDEZ                                             00000000  00000000N
041995051360038000111025TVICENTE GARCIA LEGISIMA                                                     00000000  00000000N
041995051360038000121001TFERNANDO MARTINEZ SARANDESES (INDEPENDIENTE)                                00000000  00000000N
041995051360038000121002TLINO PEDREIRA CASTRO                                                        00000000  00000000N
041995051360038000121003TNIEVES GARCIA GONZALEZ                                                      00000000  00000000N
041995051360038000121004TCELSO BUGALLO AGUILAR (INDEPENDIENTE)                                       00000000  00000000N
041995051360038000121005TJULIA PASTOR MENDIETA                                                       00000000  00000000N
041995051360038000121006TADELA BLANCO JORGE                                                          00000000  00000000N
041995051360038000121007TMARGARITA BEATRIZ GOMEZ CABALLERO                                           00000000  00000000N
041995051360038000121008TANTONIO MANUEL COSTA ESTELA                                                 00000000  00000000N
041995051360038000121009TTERESA VIDAL DOVAL                                                          00000000  00000000N
041995051360038000121010TMARI CARMEN LAGO PEREZ                                                      00000000  00000000N
041995051360038000121011TALFREDO OMIL DIAZ                                                           00000000  00000000N
041995051360038000121012TMARIA DOLORES TRABAZO BUSTOS (INDEPENDIENTE)                                00000000  00000000N
041995051360038000121013TLUIS ALFREDO ESLAVA BLANCO                                                  00000000  00000000N
041995051360038000121014TALFONSO GARCIA SUEIRO                                                       00000000  00000000N
041995051360038000121015TJOSE LINO FRAGUAS URRABIETA                                                 00000000  00000000N
041995051360038000121016TDOMINGO ARIAS RUZA                                                          00000000  00000000N
041995051360038000121017TJOSE LUIS DIEGUEZ ROSADOS                                                   00000000  00000000N
041995051360038000121018TMANUEL BLANCO JORGE                                                         00000000  00000000N
041995051360038000121019TRAFAEL ANGEL PINTOS MENDEZ                                                  00000000  00000000N
041995051360038000121020TANTONIO JOSE GRANDIO FOUZ                                                   00000000  00000000N
041995051360038000121021TJESUS DOVAL CELA                                                            00000000  00000000N
041995051360038000121022TGUSTAVO MARCELO FERREIRO MARTINEZ                                           00000000  00000000N
041995051360038000121023TDOLORES CASTRO MAQUIEIRA                                                    00000000  00000000N
041995051360038000121024TSOLEDAD CARMEN BORRAGAN DANNEL                                              00000000  00000000N
041995051360038000121025TMARIE DE UÑA GONZALEZ                                                       00000000  00000000N
041995051360038360381001TELADIO PORTELA PAZ                                                          00000000  00000000S
041995051360038360381002TMIGUEL GALVEZ GOMEZ-LANDERO                                                 00000000  00000000S
041995051360038360381003TPEDRO ANTONIO RIVAS FONTENLA                                                00000000  00000000N
041995051360038360381004TERNESTO MANUEL FILGUEIRA TOURIÑO                                            00000000  00000000N
041995051360038360381005TPASTOR TORRES CARRO                                                         00000000  00000000N
041995051360038360381006TMARIA TERESA ACUÑA SOLLA                                                    00000000  00000000N
041995051360038360381007TCARLOS LORENZO MAGDALENA                                                    00000000  00000000N
041995051360038360381008TNURIA FONTAIÑA ONEGA                                                        00000000  00000000N
041995051360038360381009TCARMEN LEMOS PEREIRA                                                        00000000  00000000N
041995051360038360381010TVICENTE DOMINGUEZ MUÑAIZ                                                    00000000  00000000N
041995051360038360381011TCLEMENTINA IGLESIAS TREVIÑO                                                 00000000  00000000N
041995051360038360381012TCARLOS M. RODRIGUEZ RODRIGUEZ                                               00000000  00000000N
041995051360038360381013TMANUEL RAMOS MEDIALDEA                                                      00000000  00000000N
041995051360038360381014TMARIA GLORIA ORELLANO PEREIRA                                               00000000  00000000N
041995051360038360381015TMARIA TERESA VAZQUEZ BASCUAS                                                00000000  00000000N
041995051360038360381016TMAXIMINO VILLAVERDE RODRIGUEZ                                               00000000  00000000N
041995051360038360381017TFRANCISCO JAVIER PAZO OLMEDO                                                00000000  00000000N
041995051360038360381018TJOSE MANUEL AMEDO OTERO                                                     00000000  00000000N
041995051490275000044016TJOSE DOMINGO CALVO RODRIGUEZ                                                00000000  00000000N
041995051490275000044017TJOSE MANUEL MIRANDA FERNANDEZ                                               00000000  00000000N
041995051490275000044018TMIGUEL MERCHAN DE DIOS                                                      00000000  00000000N
041995051490275000044019TJOSE DE MIGUEL ISIDRO                                                       00000000  00000000N
041995051490275000044020TANGELA ARIAS AMORES                                                         00000000  00000000N
041995051490275000044021TMANUEL FUENTES PRAGA                                                        00000000  00000000N
041995051490275000044022TFRANCISCO CRESPO GONZALEZ                                                   00000000  00000000N
041995051490275000044023TBEGOÑA MATEOS MARTIN                                                        00000000  00000000N
041995051490275000044024TJOSE VICENTE SANDIN ALVAREZ                                                 00000000  00000000N
041995051490275000044025TANTONIO MARINO CALVO                                                        00000000  00000000N
041995051490275000045001TGABRIEL GIJOSA ALLOZA                                                       00000000  00000000S
041995051490275000045002TFRANCISCO MOLINA MARTINEZ                                                   00000000  00000000S
041995051490275000045003TLAURA RIVERA CARNICERO                                                      00000000  00000000N
041995051490275000045004TFRANCISCO ESTRAVIS FERNANDEZ                                                00000000  00000000N
041995051490275000045005TMARIA ROCIO RAMOS NIETO                                                     00000000  00000000N
041995051490275000045006TMARIA JESUS HIDALGO CASTAÑO                                                 00000000  00000000N
041995051490275000045007TMIGUEL A. VIÑAS GARCIA                                                      00000000  00000000N
041995051490275000045008TAMABLE GARCIA DOMINGUEZ                                                     00000000  00000000N
041995051490275000045009TMARIA NIEVES GARCIA GALAN                                                   00000000  00000000N
041995051490275000045010TALBERTO LLAMAS DIEZ                                                         00000000  00000000N
041995051490275000045011TM.. AUXILIADORA FERNANDEZ LOPEZ                                             00000000  00000000N
041995051490275000045012TFRANCISCO ROMERO ALONSO                                                     00000000  00000000N
041995051490275000045013TMARGARITA SALINAS HIDALGO                                                   00000000  00000000N
041995051490275000045014TM.. ANGELES DE LA IGLESIA HERNANDEZ                                         00000000  00000000N
041995051490275000045015TAQUILINO GARCIA DOMINGUEZ                                                   00000000  00000000N
041995051490275000045016TMARIA ANGELES GARCIA LERA                                                   00000000  00000000N
041995051490275000045017TANDRES GONZALEZ GATO                                                        00000000  00000000N
041995051490275000045018TJOSE ALMAGRO NISA                                                           00000000  00000000N
041995051490275000045019TMARIA ELENA RIOS CARRETERO                                                  00000000  00000000N
041995051490275000045020TLUCIA NIETO ZUÑIGA                                                          00000000  00000000N
041995051490275000045021TMARIA VICTORIA PELAEZ FERNANDEZ                                             00000000  00000000N
041995051490275000045022TMILAGROS FERNANDEZ CHAMORRO                                                 00000000  00000000N
041995051490275000045023TMARIA INMACULADA ENCINAS CARAZO                                             00000000  00000000N
041995051490275000045024TANTONIO SALVADOR CORPORALES                                                 00000000  00000000N
041995051490275000045025TJESUS DE LA IGLESIA MATOS                                                   00000000  00000000N
041995051490275000395001TFRANCISCO IGLESIAS CARREÑO                                                  00000000  00000000N
041995051490275000395002TJUAN MENDEZ JIMENO                                                          00000000  00000000N
041995051490275000395003TDAVID GARCIA LOPEZ                                                          00000000  00000000N
041995051490275000395004TNAZARIO LOZANO LOZANO                                                       00000000  00000000N
041995051490275000395005TJOSE ANGEL MADERO FRANCISCO                                                 00000000  00000000N
041995051490275000395006TPLACIDO DEL RIO MIELGO                                                      00000000  00000000N
041995051490275000395007TMIGUEL ANGEL SANTIAGO FAGUNDEZ                                              00000000  00000000N
041995051490275000395008TFERNANDO DELGADO MARTIN                                                     00000000  00000000N
041995051490275000395009TANGEL ECHAVARRIA RODRIGUEZ                                                  00000000  00000000N
041995051490275000395010TJOSE LUIS GIL GONZALEZ                                                      00000000  00000000N
041995051490275000395011TLIBORIO SEVILLA MUELLEDES                                                   00000000  00000000N
041995051490275000395012TCARLOS MIGUEL GUTIERREZ SALGADO                                             00000000  00000000N
041995051490275000395013TCIPRIANO MIGUEL MATEOS                                                      00000000  00000000N
041995051490275000395014TGONZALO ESCUDERO ALFONSO                                                    00000000  00000000N
041995051490275000395015TJOSE GONZALEZ LUENGO                                                        00000000  00000000N
041995051490275000395016TDANIEL AGUSTIN JAMBRINA DE LA PEÑA                                          00000000  00000000N
041995051490275000395017TANGEL RODRIGUEZ SIMON                                                       00000000  00000000N
041995051490275000395018TGREGORIO GAGO MIRANDA                                                       00000000  00000000N
041995051490275000395019TFERNANDO MATEO MENENDEZ                                                     00000000  00000000N
041995051490275000395020TMIGUEL JULIAN GUTIERREZ ESTEBAN                                             00000000  00000000N
041995051490275000395021TFRANCISCO FERNANDEZ VELASCO                                                 00000000  00000000N
041995051490275000395022TEDUARDO RAMOS HERNANDEZ                                                     00000000  00000000N
041995051490275000395023TCESAR GARCIA LOPEZ                                                          00000000  00000000N
041995051490275000395024TESTEBAN SALVADOR LOPEZ VEGA                                                 00000000  00000000N
041995051360038360381019TRICARDO BELOSO LIGERO                                                       00000000  00000000N
041995051360038360381020TEDMUNDO REY RODRIGUEZ                                                       00000000  00000000N
041995051360038360381021TJOSE PABLO GALVAN CARBALLO                                                  00000000  00000000N
041995051360038360381022TPAULINO MARTIN OTERO                                                        00000000  00000000N
041995051360038360381023TCARLOS A. GONZALEZ RODRIGUEZ                                                00000000  00000000N
041995051360038360381024TAVELINO LAGE CASAL                                                          00000000  00000000N
041995051360038360381025TMANUEL ANTONIO FONTOIRA SURIS                                               00000000  00000000N
041995051360057000002001TMANUEL PEREZ ALVAREZ                                                        00000000  00000000S
041995051360057000002002TJOSE ANTONIO GIL SOTRES                                                     00000000  00000000S
041995051360057000002003TJULIO PEDROSA VICENTE                                                       00000000  00000000S
041995051360057000002004TJOSE RAMON MONTERO ESCRIGAS                                                 00000000  00000000S
041995051360057000002005TMARIA TERESA FERNANDEZ PIÑEIRO                                              00000000  00000000S
041995051360057000002006TPABLO COMESAÑA RIAL                                                         00000000  00000000S
041995051360057000002007TMARIA CORINA PORRO MARTINEZ                                                 00000000  00000000S
041995051360057000002008TJOSE MANUEL FIGUEROA VILA                                                   00000000  00000000S
041995051360057000002009TRAMON CORTEGOSO FERNANDEZ                                                   00000000  00000000S
041995051360057000002010TMARTA GUTIERREZ MEDIERO                                                     00000000  00000000S
041995051360057000002011TJOSE ANTONIO RODRIGUEZ FEIJOO                                               00000000  00000000S
041995051360057000002012TMANUEL RODRIGUEZ LOPEZ                                                      00000000  00000000S
041995051360057000002013TPABLO VAZQUEZ CARIDE                                                        00000000  00000000S
041995051360057000002014TLINO FONTAN MARIÑO                                                          00000000  00000000S
041995051360057000002015TMARIA LUISA GONZALEZ OUTON                                                  00000000  00000000S
041995051360057000002016TCARLOS GONZALEZ DAVILA                                                      00000000  00000000N
041995051360057000002017TJOSE AVELINO FERNANDEZ FERNANDEZ                                            00000000  00000000N
041995051360057000002018TCARLOS MIGUEL RODRIGUEZ PEREZ                                               00000000  00000000N
041995051360057000002019TSALVADOR FERNANDEZ DE LA CIGOÑA FRAGA                                       00000000  00000000N
041995051360057000002020TMARIA LUZ BARCIELA BASTOS                                                   00000000  00000000N
041995051360057000002021TJOSE CARLOS PEREZ PEREZ                                                     00000000  00000000N
041995051360057000002022TMARIA PILAR GONZALEZ RODRIGUEZ                                              00000000  00000000N
041995051360057000002023TJULIO VAZQUEZ MARTINEZ                                                      00000000  00000000N
041995051360057000002024TANDREA LUCIA COSTAS COSTAS                                                  00000000  00000000N
041995051360057000002025TBENITO LOUZON SALGUEIRO                                                     00000000  00000000N
041995051360057000002026TROBERTO PEREZ ALVAREZ                                                       00000000  00000000N
041995051360057000002027TELOISA ALONSO GIL                                                           00000000  00000000N
041995051360057000006001TANTONIO PEREZ BERNARDEZ                                                     00000000  00000000N
041995051360057000006002TLAURA FERNANDEZ GONZALEZ                                                    00000000  00000000N
041995051360057000006003TJOSE MARIA MEDIERO REGA                                                     00000000  00000000N
041995051360057000006004TSEVERINO RODRIGUEZ BARRAL                                                   00000000  00000000N
041995051360057000006005TDOLORES POMBAL MENDEZ                                                       00000000  00000000N
041995051360057000006006TESTANISLAO FERNANDEZ BARGADOS                                               00000000  00000000N
041995051360057000006007TJOSE MANUEL CABANELAS ALVAREZ                                               00000000  00000000N
041995051360057000006008TRAMON MARTINEZ TABOADA                                                      00000000  00000000N
041995051360057000006009TMANUEL VILLAVERDE GIRALDEZ                                                  00000000  00000000N
041995051360057000006010TANGELA CUSTODIA CASADO MARTINS                                              00000000  00000000N
041995051360057000006011TJOAQUIN ANTONIO LORENZO AMOEDO                                              00000000  00000000N
041995051360057000006012TMARIA DEL CARMEN ARAUJO PEREZ                                               00000000  00000000N
041995051360057000006013TJOSE LUIS GONZALEZ ALVAREZ                                                  00000000  00000000N
041995051360057000006014TJAVIER OTERO SANTIAGO                                                       00000000  00000000N
041995051360057000006015TMARIA RAQUEL BARGADOS QUINTAS                                               00000000  00000000N
041995051360057000006016TJOSE LUIS OTERO CAMPOS                                                      00000000  00000000N
041995051360057000006017TJOSE ANTONIO DOMINGUEZ LORENZO                                              00000000  00000000N
041995051360057000006018TJESUS FERNANDEZ BARGADOS                                                    00000000  00000000N
041995051360057000006019TAURORA CHAMOSO GILSANZ                                                      00000000  00000000N
041995051360057000006020TPEDRO PORTELA OVALLE                                                        00000000  00000000N
041995051360057000006021TNORBERTO CARLOS GUERRERO OTERO                                              00000000  00000000N
041995051360057000006022TMANUEL CANEDA MASCATO                                                       00000000  00000000N
041995051360057000006023TVICTOR ALLER ANSEDE                                                         00000000  00000000N
041995051360057000006024TRAUL CASAL BEA                                                              00000000  00000000N
041995051360057000006025TRAMON ANTONIO GONZALEZ LOPEZ                                                00000000  00000000N
041995051490275000395025TGREGORIO MARTIN PICHEL                                                      00000000  00000000N
041995051080015000002001TXAVIER GARCIA ALBIOL                                                        00000000  00000000S
041995051080015000002002TRAMON RIERA MACIA                                                           00000000  00000000S
041995051080015000002003TJOSE MARIA RODRIGUEZ TORRES                                                 00000000  00000000S
041995051080015000002004TANTONIO HIDALGO VARGAS                                                      00000000  00000000S
041995051080015000002005TMARIA JESUS HERVAS MINGUEZ                                                  00000000  00000000N
041995051080015000002006TSILVIA CORDOVA FERNANDEZ                                                    00000000  00000000N
041995051080015000002007TGINES MARTINEZ ARANEGA                                                      00000000  00000000N
041995051080015000002008TJUAN GARCIA ENCINAS                                                         00000000  00000000N
041995051080015000002009TSALVADOR ROMERO TORRENTE                                                    00000000  00000000N
041995051080015000002010TSIXTO PALACIOS RAMIREZ                                                      00000000  00000000N
041995051080015000002011TANGEL VALVERDE CANITO                                                       00000000  00000000N
041995051080015000002012TALFONSO FERNANDEZ MORALES                                                   00000000  00000000N
041995051080015000002013TJUAN CARLOS SANCHEZ RUBIO                                                   00000000  00000000N
041995051080015000002014TJUAN ANTONIO CLOS BARAS                                                     00000000  00000000N
041995051080015000002015TSERGIO ROBLES BERDOY                                                        00000000  00000000N
041995051080015000002016TPEDRO JOSE NUÑEZ BALLESTA (INDEPENDENT)                                     00000000  00000000N
041995051080015000002017TFRANCISCO PARDO ALDEANO                                                     00000000  00000000N
041995051080015000002018TMARIA DEL CARMEN TORRES CASSANY                                             00000000  00000000N
041995051080015000002019TJORDI RAMON PEREZ (INDEPENDENT)                                             00000000  00000000N
041995051080015000002020TMANUEL CUETARA LASHERAS                                                     00000000  00000000N
041995051080015000002021TJOSE JONES VERGES                                                           00000000  00000000N
041995051080015000002022TAURELIO GUIJAS CALVO                                                        00000000  00000000N
041995051080015000002023TJESUS DOMINGUEZ NOGALEDO                                                    00000000  00000000N
041995051080015000002024TALEJANDRA MARTINEZ TORRENTE                                                 00000000  00000000N
041995051080015000002025TMANUEL MOLINA GARCIA                                                        00000000  00000000N
041995051080015000002026TJULIA SEREN PALOMAR                                                         00000000  00000000N
041995051080015000002027TSERAFIN BERMUDEZ TORRES                                                     00000000  00000000N
041995051080015000016001TMARCEL RIERA I BOU (CDC)                                                    00000000  00000000S
041995051080015000016002TJOSEP DE LUIS I CORTES LLUIS (UDC)                                          00000000  00000000S
041995051360057000006026TSEVERINO RODRIGUEZ LORES                                                    00000000  00000000N
041995051360057000006027TMARTIN CARRICARTE PAZ                                                       00000000  00000000N
041995051360057000036001TPABLO PADIN SANCHEZ                                                         00000000  00000000N
041995051360057000036002TMODESTO ROUCO FONSECA                                                       00000000  00000000N
041995051360057000036003TENRIQUE ROMASANTA RODRIGUEZ                                                 00000000  00000000N
041995051360057000036004TFLORA SACAU CASTRO                                                          00000000  00000000N
041995051360057000036005TALFONSO FERNANDEZ CONCHA                                                    00000000  00000000N
041995051360057000036006TJOSE BENITO PASTORIZA PAZ                                                   00000000  00000000N
041995051360057000036007TJOSE LUIS PIO PASTORIZA                                                     00000000  00000000N
041995051360057000036008TMARIA DEL CARMEN MOSQUERA SEOANE                                            00000000  00000000N
041995051360057000036009TMARIA ANGELES GOMEZ RODRIGUEZ                                               00000000  00000000N
041995051360057000036010TJAIME ALONSO VALVERDE                                                       00000000  00000000N
041995051360057000036011TANTONIO ALVAREZ BELLO                                                       00000000  00000000N
041995051360057000036012TMARIA MILAGROS FERNANDEZ SAMPEDRO                                           00000000  00000000N
041995051360057000036013TJOSE LUIS GONZALEZ BRINGAS                                                  00000000  00000000N
041995051360057000036014TIGNACIO CARRERA MONTERO                                                     00000000  00000000N
041995051360057000036015TXOSE UXIO LIS RIOBO                                                         00000000  00000000N
041995051360057000036016TALFONSO PEREZ LIMA                                                          00000000  00000000N
041995051360057000036017TEUSEBIO DE TELLITU SASIA                                                    00000000  00000000N
041995051360057000036018TUMBERTO REBOREDA SOUSA                                                      00000000  00000000N
041995051360057000036019TJULIO FERREIRA SACAU                                                        00000000  00000000N
041995051360057000036020TGERMAN VEIGA GUTIERREZ                                                      00000000  00000000N
041995051360057000036021TMARIA DEL CARMEN FABEIRO GARCIA                                             00000000  00000000N
041995051360057000036022TJOSE MANUEL MOREIRA GOMEZ                                                   00000000  00000000N
041995051360057000036023TJAVIER M.. GOMEZ GONZALEZ-PORRAS                                            00000000  00000000N
041995051360057000036024TGERARDO JUNCAL CURRAS                                                       00000000  00000000N
041995051360057000036025TALFREDO ALVAREZ LOPEZ                                                       00000000  00000000N
041995051360057000036026TAURELIO RODRIGUEZ BORRAJO                                                   00000000  00000000N
041995051360057000036027TCRISTINA VAZQUEZ SANTOS                                                     00000000  00000000N
041995051360057000082001TMARIA ANGELA GOZZA COLL                                                     00000000  00000000N
041995051360057000082002TMARIA MARGARITA MOLARES PEREZ                                               00000000  00000000N
041995051360057000082003TROSA MARIA ARAUJO MARCOS                                                    00000000  00000000N
041995051360057000082004TMARIA ASUNCION OLALLA RODRIGUEZ                                             00000000  00000000N
041995051360057000082005TJAVIER BARBERO ALVAREZ                                                      00000000  00000000N
041995051360057000082006TFERNANDO JOSE DOCIO FREIJOMIL                                               00000000  00000000N
041995051360057000082007TJUAN MANUEL DOMINGUEZ MARQUEZ                                               00000000  00000000N
041995051360057000082008TMIGUEL ANGEL MILLARA VEIGA                                                  00000000  00000000N
041995051360057000082009TALVARO MARTIN POTI                                                          00000000  00000000N
041995051360057000082010TMANUEL CONSTANTINO AYALA MENDEZ                                             00000000  00000000N
041995051360057000082011TROGELIO PEREIRA CONDE                                                       00000000  00000000N
041995051360057000082012TJOSE DIEZ COELLO                                                            00000000  00000000N
041995051360057000082013TMARIA ROSA GOMEZ LOMBA                                                      00000000  00000000N
041995051360057000082014TELIZABETH GOMEZ LOMBA                                                       00000000  00000000N
041995051360057000082015TMARIA JESUS SUAREZ NOGUEIRA                                                 00000000  00000000N
041995051360057000082016TMARIA ANTONIA PACHON MORENO                                                 00000000  00000000N
041995051360057000082017TMARCOS ANTONIO COSTAS ESTEVEZ                                               00000000  00000000N
041995051360057000082018TMARIA TERESA MARQUEZ LOPEZ                                                  00000000  00000000N
041995051360057000082019TMARIA CONDE COMESAÑA                                                        00000000  00000000N
041995051360057000082020TMARIA TERESA DOMINGUEZ MARQUEZ                                              00000000  00000000N
041995051360057000082021TSANTIAGO DOMINGUEZ RODRIGUEZ                                                00000000  00000000N
041995051360057000082022TEDUARDO AYALA MENDEZ                                                        00000000  00000000N
041995051360057000082023TRAFAEL MOLARES PEREZ                                                        00000000  00000000N
041995051360057000082024TRICARDO REIGADA LORENZO                                                     00000000  00000000N
041995051360057000082025TADOLFO MUÑOZ BARRERA                                                        00000000  00000000N
041995051360057000082026TMARIA DE LOS ANGELES MARTINEZ MARTINEZ                                      00000000  00000000N
041995051360057000082027TJOSE COSTA GARCIA                                                           00000000  00000000N
041995051360057000104001TCARLOS ALBERTO GONZALEZ PRINCIPE                                            00000000  00000000S
041995051360057000104002TMARIA DOLORES VILLARINO SANTIAGO                                            00000000  00000000S
041995051360057000104003TMARIA DEL CARMEN ABENDAÑO DE OTERO                                          00000000  00000000S
041995051080015000016003TPERE SIO I PUIG (CDC)                                                       00000000  00000000S
041995051080015000016004TJORDI BALLESTEROS I VENTURA (CDC)                                           00000000  00000000S
041995051080015000016005TALBERT IBAÑEZ I DOMENECH (CDC)                                              00000000  00000000S
041995051080015000016006TCRISTINA CARRERAS I BRUGADA (CDC)                                           00000000  00000000S
041995051080015000016007TENRIC GRAU I MARTIN (UDC)                                                   00000000  00000000N
041995051080015000016008TFERRAN FALCO I ISERN (CDC)                                                  00000000  00000000N
041995051080015000016009TMONTSERRAT SUÑOL I CUNI (CDC)                                               00000000  00000000N
041995051080015000016010TENRIC ORTIZ I MIÑANO (CDC)                                                  00000000  00000000N
041995051080015000016011TMANUEL JOAQUIN RUIZ I QUINTERO (CDC)                                        00000000  00000000N
041995051080015000016012TSALVADOR MIQUEL I MOLINA (UDC)                                              00000000  00000000N
041995051080015000016013TRICARD CARNEADO I ESTEBAN (CDC)                                             00000000  00000000N
041995051080015000016014TJOSEP FRADERA I CASAPONSA (CDC)                                             00000000  00000000N
041995051080015000016015TESTHER MELLADO I BARBERAN (CDC)                                             00000000  00000000N
041995051080015000016016TANGEL CARITG I BONAVIDA (UDC)                                               00000000  00000000N
041995051080015000016017TJOAQUIMA FARRES I MASIP (CDC)                                               00000000  00000000N
041995051080015000016018TANTONIO SANCHEZ I FERNANDEZ (CDC)                                           00000000  00000000N
041995051080015000016019TMANEL JESUS GONZALEZ I FERRER (CDC)                                         00000000  00000000N
041995051080015000016020TJOSEP SERRA I MARCO (UDC)                                                   00000000  00000000N
041995051080015000016021TMARTI SANCHEZ I PEDRA (CDC)                                                 00000000  00000000N
041995051080015000016022TMARIA MONTSERRAT ALSINA I MOYA (CDC)                                        00000000  00000000N
041995051080015000016023TLOURDES MASO I HOSTALLER (CDC)                                              00000000  00000000N
041995051080015000016024TM. JOSE ATIENZA I GUERRERO (UDC)                                            00000000  00000000N
041995051080015000016025TJOSEP MIQUEL PASTOR I SANZ (CDC)                                            00000000  00000000N
041995051080015000016026TMARTA TRAITE I PIBERNAT (CDC)                                               00000000  00000000N
041995051080015000016027TJOAN SUBIRANA I CODINA (CDC)                                                00000000  00000000N
041995051080015000017001TJOSEP MARIA ROVIRA I BOSCH                                                  00000000  00000000N
041995051080015000017002TJOSEP MARIA LLUCH I ROVIRA                                                  00000000  00000000N
041995051080015000017003TJAUME VIVES I SOBRINO                                                       00000000  00000000N
041995051080015000017004TRAMON JOSEP LLEIXA I BURRIEL                                                00000000  00000000N
041995051080015000017005TJOSEP ORIOL ARJONA I SERRAT                                                 00000000  00000000N
041995051080015000017006TMERITXELL PUIG I GISPERT                                                    00000000  00000000N
041995051080015000017007TFRANCESC SEVILLANO I VIVES                                                  00000000  00000000N
041995051080015000017008TMARIA DEL CARME PALOMERAS I CARBONELL                                       00000000  00000000N
041995051080015000017009TPERE BRUGADA I TEIXIDO                                                      00000000  00000000N
041995051080015000017010TMARC NIETO I FRADERA                                                        00000000  00000000N
041995051080015000017011TJAUME SELLARES I TRESSERRA                                                  00000000  00000000N
041995051080015000017012TMARIA DEL MAR VILA I CASAS                                                  00000000  00000000N
041995051080015000017013TJOSEFINA ANTUNEZ I BORRAS                                                   00000000  00000000N
041995051080015000017014TRAMON SOLAZ I GARCIA                                                        00000000  00000000N
041995051080015000017015TJAUME BARO I CUSSO                                                          00000000  00000000N
041995051080015000017016TURIEL BERTRAN I ARRUE                                                       00000000  00000000N
041995051080015000017017TDANIEL CANALS I AGUILA (INDEPENDENT)                                        00000000  00000000N
041995051080015000017018TBERENGUER TRIAS I PAREDES                                                   00000000  00000000N
041995051080015000017019TMARTA FERRAN I VILA (INDEPENDENT)                                           00000000  00000000N
041995051080015000017020TJOSE MIGUEL CUESTA I GOMEZ (INDEPENDENT)                                    00000000  00000000N
041995051080015000017021TMIQUEL ALSINA I CASELLAS                                                    00000000  00000000N
041995051080015000017022TROSA BELTRAN I PEDRERO (INDEPENDENT)                                        00000000  00000000N
041995051080015000017023TFRANCESC LLEAL I GALCERAN (INDEPENDENT)                                     00000000  00000000N
041995051080015000017024TGUIFRE GOL I TERRADELLAS                                                    00000000  00000000N
041995051080015000017025TURBA RODRIGUEZ I COSTA                                                      00000000  00000000N
041995051080015000017026TGERARD SALA I ROSELLO (INDEPENDENT)                                         00000000  00000000N
041995051080015000017027TJOSEP ARPI I SABATER                                                        00000000  00000000N
041995051080015000028001TRAFAEL HARO NAVARRETE                                                       00000000  00000000N
041995051080015000028002TMATEO SILES PARRILLA                                                        00000000  00000000N
041995051080015000028003TJUAN MANUEL RUIZ FERNANDEZ                                                  00000000  00000000N
041995051080015000028004TJOSE VEGA VEGA                                                              00000000  00000000N
041995051080015000028005TJOSE CABO BAYO                                                              00000000  00000000N
041995051080015000028006TANA MARIA ALVAREZ MUÑIZ                                                     00000000  00000000N
041995051360057000104004TJULIO CABRERA RIANDE                                                        00000000  00000000S
041995051360057000104005TALBERTO GONZALEZ-GARCES SANTISO                                             00000000  00000000S
041995051360057000104006TANTONIO NIETO FIGUEROA (LERI)                                               00000000  00000000S
041995051360057000104007TMARIA ISABEL AYUSO TORRES                                                   00000000  00000000S
041995051360057000104008TFERNANDO GONZALEZ GONZALEZ                                                  00000000  00000000S
041995051360057000104009TDAVID HORTAS SEGARRA                                                        00000000  00000000N
041995051360057000104010TANA MARIA BURILLO GOMEZ                                                     00000000  00000000N
041995051360057000104011TJESUS SUEIRO PENA                                                           00000000  00000000N
041995051360057000104012TMARIA TERESA FRAIZ BERMEJO                                                  00000000  00000000N
041995051360057000104013TJOSE MARIA DOCAMPO BARRUECO                                                 00000000  00000000N
041995051360057000104014TJORGE DURAN CASTELL                                                         00000000  00000000N
041995051360057000104015TAVELINO RAIMONDEZ REY                                                       00000000  00000000N
041995051360057000104016TFRANCISCO SANTIAGO DACOSTA                                                  00000000  00000000N
041995051360057000104017TTERESA BERTOLO VIEITEZ                                                      00000000  00000000N
041995051360057000104018TFRANCISCO ALVAREZ PINTOS                                                    00000000  00000000N
041995051360057000104019TMARIA TERESA CASTRO FERNANDEZ                                               00000000  00000000N
041995051360057000104020TMANUEL ACUÑA CAMESELLE                                                      00000000  00000000N
041995051360057000104021TJOSEFA GULIN GONZALEZ                                                       00000000  00000000N
041995051360057000104022TALFONSO PILLADO FERNANDEZ                                                   00000000  00000000N
041995051360057000104023TEVA PEREIRA MALPICA                                                         00000000  00000000N
041995051360057000104024TJOSE ISAAC GONZALEZ PAZ                                                     00000000  00000000N
041995051360057000104025TMARIA ESTHER CASTRO RIBEIRO                                                 00000000  00000000N
041995051360057000104026TMIGUEL CASTRO CASTRO                                                        00000000  00000000N
041995051360057000104027TPASTOR RODRIGUEZ IGLESIAS                                                   00000000  00000000N
041995051360057000110001TFRANCISCO V. GARCIA FERNANDEZ                                               00000000  00000000N
041995051360057000110002TDANIEL COSTAS FERNANDEZ                                                     00000000  00000000N
041995051360057000110003TMARCIAL A. MARTINEZ NUÑEZ                                                   00000000  00000000N
041995051360057000110004TMARIA LUISA FERNANDEZ RODRIGUEZ                                             00000000  00000000N
041995051360057000110005TCARMEN ARIZA CABRERA                                                        00000000  00000000N
041995051360057000110006TXESUS ARAUJO NORES                                                          00000000  00000000N
041995051360057000110007TEMILIO FERNANDEZ ZUNZUNEGUI                                                 00000000  00000000N
041995051360057000110008TLUIS FIGUERIDO GARCIA                                                       00000000  00000000N
041995051360057000110009TPAULA PENA LAGO                                                             00000000  00000000N
041995051360057000110010TPURIFICACION MOURE BARRIO                                                   00000000  00000000N
041995051360057000110011TCARLOS PRIETO CASTELO                                                       00000000  00000000N
041995051360057000110012TDANIEL A. LOPEZ RODRIGUEZ                                                   00000000  00000000N
041995051360057000110013TMARIA DEL MAR COSTAS OTERO                                                  00000000  00000000N
041995051360057000110014TXOAN CARLOS GARABATOS FERNANDEZ                                             00000000  00000000N
041995051360057000110015TMARIA GLORIA POUSA RODRIGUEZ                                                00000000  00000000N
041995051360057000110016TCANDIDO IGLESIAS ALFARO                                                     00000000  00000000N
041995051360057000110017TROSA MARIA SEGURA IGLESIAS                                                  00000000  00000000N
041995051360057000110018TXOSE PARAÑOS PARDO                                                          00000000  00000000N
041995051360057000110019TESTER PALACIO GARCIA                                                        00000000  00000000N
041995051360057000110020TWALDO REDONDO ALVAREZ                                                       00000000  00000000N
041995051360057000110021TMARIA ISABEL MOURIÑO ARMESTO                                                00000000  00000000N
041995051360057000110022TMANUEL CHOREN SOUTO                                                         00000000  00000000N
041995051360057000110023TF. JAVIER LEMOS GODOY                                                       00000000  00000000N
041995051360057000110024THENRIQUE TACON FERNANDEZ                                                    00000000  00000000N
041995051360057000110025TANTONIO FIGUEROA PEREZ                                                      00000000  00000000N
041995051360057000110026TROBERTO ALONSO UCHA                                                         00000000  00000000N
041995051360057000110027TCARLOS NUÑEZ RODRIGUEZ                                                      00000000  00000000N
041995051360057000111001TLOIS PEREZ CASTRILLO                                                        00000000  00000000S
041995051360057000111002TANA MARIA GANDON MENDUIÑA                                                   00000000  00000000S
041995051360057000111003TSANTIAGO XOSE DOMINGUEZ OLVEIRA                                             00000000  00000000S
041995051360057000111004TXAVIER MARIA TOBA GIRON                                                     00000000  00000000S
041995051360057000111005TFRANCISCO XAVIER ALONSO PEREZ                                               00000000  00000000N
041995051360057000111006TMARGARIDA ROSA MARTINEZ VILANOVA                                            00000000  00000000N
041995051360057000111007TBELEN GARCIA SUAREZ                                                         00000000  00000000N
041995051360057000111008TANXO GONZALEZ FERREIRA                                                      00000000  00000000N
041995051080015000028007TMANUEL VEGA VEGA                                                            00000000  00000000N
041995051080015000028008TALBERTO PAZ GUERRERO                                                        00000000  00000000N
041995051080015000028009TGASPAR GRIÑAN ROVIRA                                                        00000000  00000000N
041995051080015000028010TENRIC CAPSETA RIBAS                                                         00000000  00000000N
041995051080015000028011TPLACIDO CABO BAYO                                                           00000000  00000000N
041995051080015000028012TGERARDO VEGA VEGA                                                           00000000  00000000N
041995051080015000028013TJOSE LUIS RUIZ FERNANDEZ                                                    00000000  00000000N
041995051080015000028014TRAMON MONTON SERRANO                                                        00000000  00000000N
041995051080015000028015TMARIA PARRILLA PARRILLA                                                     00000000  00000000N
041995051080015000028016TANGEL CAMPABADAL SOLE                                                       00000000  00000000N
041995051080015000028017TFRANCISCO RODRIGUEZ MORCILLO                                                00000000  00000000N
041995051080015000028018TMANUEL ALONSO BURGOS                                                        00000000  00000000N
041995051080015000028019TJOSE MARIA GARCIA MARTIN                                                    00000000  00000000N
041995051080015000028020TANTONIO MARTIN PALOMARES                                                    00000000  00000000N
041995051080015000028021TAGUSTIN RUIZ GARCIA                                                         00000000  00000000N
041995051080015000028022TMARTIN LAZARO RAMOS                                                         00000000  00000000N
041995051080015000028023TMANUEL RUZAFA LA PLANA                                                      00000000  00000000N
041995051080015000028024TLUIS MAYMUS ALSINA                                                          00000000  00000000N
041995051080015000028025TJOSE OLEA COBO                                                              00000000  00000000N
041995051080015000028026TFRANCISCO JAVIER MARFA CATALA                                               00000000  00000000N
041995051080015000028027TCARLOS JUAN RUBIO NAVARRO                                                   00000000  00000000N
041995051080015000141001TMANUEL ARMENTERO MOLINA                                                     00000000  00000000S
041995051080015000141002TMONTSERRAT NISO HOLGADO                                                     00000000  00000000S
041995051080015000141003TMARIUS DIAZ BIELSA                                                          00000000  00000000S
041995051080015000141004TJOSEP GIRALT DOLS                                                           00000000  00000000S
041995051080015000141005TMARIA REYES BELLIDO JAIME                                                   00000000  00000000S
041995051080015000141006TANTONIO SALGUERO SOLANO                                                     00000000  00000000S
041995051080015000141007TGERARD REMENDO ORTEGA                                                       00000000  00000000S
041995051080015000141008TASUNCION GARCIA COTILLAS                                                    00000000  00000000N
041995051080015000141009TMARIA MONTSERRAT CLAVERO CIURANA                                            00000000  00000000N
041995051080015000141010TVIRGINIA MURE ABALOS                                                        00000000  00000000N
041995051080015000141011TJOSE ANTONIO FERNANDEZ EXPOSITO                                             00000000  00000000N
041995051080015000141012TPABLO DIAZ-FLORES GARCIA                                                    00000000  00000000N
041995051080015000141013TMARTA TORRES GENE                                                           00000000  00000000N
041995051080015000141014TJOSE ALFONSO RODRIGUEZ                                                      00000000  00000000N
041995051080015000141015TPABLO RUA MARIN                                                             00000000  00000000N
041995051080015000141016TMARIA JOSEFA FERNANDEZ EXPOSITO                                             00000000  00000000N
041995051080015000141017TCAYETANO GARCIA CELADA                                                      00000000  00000000N
041995051080015000141018TLLUIS SARABIA GEREBES                                                       00000000  00000000N
041995051080015000141019TCARLOS CERRO RIVERO                                                         00000000  00000000N
041995051080015000141020TNURIA FRANQUESA NIUBO                                                       00000000  00000000N
041995051080015000141021TMARIA DEL CARMEN GARCIA FRADEJAS                                            00000000  00000000N
041995051080015000141022TRICARD IBAÑEZ MONSECH                                                       00000000  00000000N
041995051080015000141023TCONCEPCION CASTELLANO REMESAL                                               00000000  00000000N
041995051080015000141024TPEDRO JESUS FERNANDEZ MARTINEZ                                              00000000  00000000N
041995051080015000141025TLUISA LONGAS BERNAT                                                         00000000  00000000N
041995051080015000141026TCARLES SAGUES BAIXERAS                                                      00000000  00000000N
041995051080015000141027TRAFAEL PINO RODRIGUEZ                                                       00000000  00000000N
041995051080015000146001TJUAN BLANCH RODRIGUEZ                                                       00000000  00000000S
041995051080015000146002TDESIDERIO LEON MARTINEZ                                                     00000000  00000000S
041995051080015000146003TCIPRIANO LOPEZ VIEGAS                                                       00000000  00000000S
041995051080015000146004TMARIA TERESA ARQUE FERRER (MAITE)                                           00000000  00000000S
041995051080015000146005TCATALINA MIERAS BARCELO                                                     00000000  00000000S
041995051080015000146006TPEDRO MUÑOZ NAVARRO (INDEPENDENT)                                           00000000  00000000S
041995051080015000146007TJULIAN GARCIA GOMEZ                                                         00000000  00000000S
041995051080015000146008TEDUARD TORTAJADA MOLINA                                                     00000000  00000000S
041995051080015000146009TFERRAN BELLO HERNAIZ                                                        00000000  00000000S
041995051080015000146010TFRANCISCO JOSE LOPEZ GUARDIOLA                                              00000000  00000000S
041995051080015000146011TMANUEL RODRIGUEZ MIRALLES                                                   00000000  00000000N
041995051080015000146012TROSER CASTILLO PEREZ                                                        00000000  00000000N
041995051360057000111009TANXO IGLESIAS COVELO                                                        00000000  00000000N
041995051360057000111010TAUREA GONZALEZ GONZALEZ                                                     00000000  00000000N
041995051360057000111011TXURXO RAUL GONZALEZ ALVAREZ                                                 00000000  00000000N
041995051360057000111012TCARLOS RODRIGUEZ ROCA                                                       00000000  00000000N
041995051360057000111013TAQUILINO CABEZAS COMESAÑA                                                   00000000  00000000N
041995051360057000111014TROBERTO MAQUIEIRA BALEA                                                     00000000  00000000N
041995051360057000111015TMIGUEL PEREZ GONZALEZ                                                       00000000  00000000N
041995051360057000111016TMARIA LUISA ANDRADE PEREZ                                                   00000000  00000000N
041995051360057000111017TMARINA PEREZ COSTAS                                                         00000000  00000000N
041995051360057000111018TRAMON CABANAS GOMEZ                                                         00000000  00000000N
041995051360057000111019TGRACIA PREGO CARRERA                                                        00000000  00000000N
041995051360057000111020TCRISTINA PIÑEIRO PEREZ                                                      00000000  00000000N
041995051360057000111021TESTHER CABANELAS FERRIN                                                     00000000  00000000N
041995051360057000111022TANTON GARCIA FERNANDEZ                                                      00000000  00000000N
041995051360057000111023TLOIS ENRIQUE MARTIN URIARTE                                                 00000000  00000000N
041995051360057000111024TEDUARDO GARCIA CRESPO                                                       00000000  00000000N
041995051360057000111025TROSA MARIA VILA CARDOSO                                                     00000000  00000000N
041995051360057000111026TANXO VEIRAS TORRADO                                                         00000000  00000000N
041995051360057000111027TXOAN ANTON BERNARDEZ VILAR                                                  00000000  00000000N
041995051360057000122001TISIDRO ROMAN LAGO                                                           00000000  00000000N
041995051360057000122002TRAFAEL MARTINEZ CASTRO                                                      00000000  00000000N
041995051360057000122003TXOSE MANUEL GARCIA GRECO                                                    00000000  00000000N
041995051360057000122004TIGNACIO FIL HESSELDAHL                                                      00000000  00000000N
041995051360057000122005TROSA MARIA LOPEZ FERNANDEZ                                                  00000000  00000000N
041995051360057000122006TXURXO XOAN GONZALEZ CONDE                                                   00000000  00000000N
041995051360057000122007TJOSE LUIS MENDEZ FERRIN                                                     00000000  00000000N
041995051360057000122008TENCARNACION MARTINEZ COLLAZO                                                00000000  00000000N
041995051360057000122009TALBERTO GONZALVEZ HERRERO                                                   00000000  00000000N
041995051360057000122010TOLGA MARIA SANCHEZ OUTEDA                                                   00000000  00000000N
041995051360057000122011TXOSE SANCHEZ SANCHEZ                                                        00000000  00000000N
041995051360057000122012TELADIO MANUEL FERREIRA DIAZ                                                 00000000  00000000N
041995051360057000122013TENRIQUE FERNANDEZ OLIVEIRA                                                  00000000  00000000N
041995051360057000122014TCONSTANTINO BARROS CARRERA                                                  00000000  00000000N
041995051360057000122015TCANDIDO GONZALVEZ HERRERO                                                   00000000  00000000N
041995051360057000122016TJUSTO MOREJON BALOIRA                                                       00000000  00000000N
041995051080019000028007TMANUELA MARTINEZ ZAYAS                                                      00000000  00000000N
041995051080019000028008TANTONIO PEROLET PEREZ                                                       00000000  00000000N
041995051080019000028009TOSCAR PARDELL CAZORLA                                                       00000000  00000000N
041995051080019000028010TOSCAR SANTOS SANCHEZ                                                        00000000  00000000N
041995051080019000028011TANGEL SEÑALADA AGUIAR                                                       00000000  00000000N
041995051080019000028012TMARIA TERESA SORIGUE SEGARRA                                                00000000  00000000N
041995051080019000028013TJOSEP MARIA ROBUSTE CARTAÑA                                                 00000000  00000000N
041995051080019000028014TROBERT FERRE GAMELL                                                         00000000  00000000N
041995051080019000028015TLIRIA JUST CALPE                                                            00000000  00000000N
041995051080019000028016TJESUS BERLANGA GARCIA                                                       00000000  00000000N
041995051080019000028017TJORGE LONGARON LLOPART                                                      00000000  00000000N
041995051080019000028018TANTONIO RAMON QUESADA HERRERA                                               00000000  00000000N
041995051080019000028019TLORENZO SEGURA VAZTAN                                                       00000000  00000000N
041995051080019000028020TMARCOS LONGARON SORIGUE                                                     00000000  00000000N
041995051080019000028021TJUAN JOSE VICHO EDERRA                                                      00000000  00000000N
041995051080019000028022TFELIPE GARCIA CAPPA                                                         00000000  00000000N
041995051080019000028023TMANUEL CRUZ BATALLA                                                         00000000  00000000N
041995051080019000028024TJUAN MANUEL VICHO LOPEZ                                                     00000000  00000000N
041995051080019000028025TCARLES MAYMUS MIRANDA                                                       00000000  00000000N
041995051080019000028026TCARLOS GARCIA LANDA                                                         00000000  00000000N
041995051080019000028027TALFREDO VILANOVA MURIAS                                                     00000000  00000000N
041995051080019000028028TJOSE MANUEL ENRIQUEZ BERNADO                                                00000000  00000000N
041995051080019000028029TMANUEL CASTILLO MOLEON                                                      00000000  00000000N
041995051080019000028030TANDRES VICHO EDERRA                                                         00000000  00000000N
041995051080019000028031TENRIQUE GIMENEZ PUERTOS                                                     00000000  00000000N
041995051080015000146013TJOAN BRIO CODERCH                                                           00000000  00000000N
041995051090059000021011TISMAEL AGUADO FERNANDEZ                                                     00000000  00000000N
041995051090059000021012TFERNANDO NEBREDA BLANCO                                                     00000000  00000000N
041995051090059000021013TLUIS SANTAMARIA BUJEDO                                                      00000000  00000000N
041995051090059000021014TJOSE VICENTE CUEVAS VICARIO                                                 00000000  00000000N
041995051090059000021015TANA BELEN ELENA GUEMES GUEMES                                               00000000  00000000N
041995051090059000021016TLORENZO ANTON GONZALEZ                                                      00000000  00000000N
041995051090059000021017TFELIX FERNANDEZ RODRIGUEZ                                                   00000000  00000000N
041995051090059000021018TDOLORES QUIJADA FERNANDEZ                                                   00000000  00000000N
041995051090059000021019TFELIX ROJO GONZALEZ (INDEPENDIENTE)                                         00000000  00000000N
041995051090059000021020TCESAR RIO BARRIO                                                            00000000  00000000N
041995051090059000021021TMIGUEL ANGEL MINGUEZ CUESTA                                                 00000000  00000000N
041995051090059000021022TFRANCISCO JAVIER RODRIGUEZ VIDAL                                            00000000  00000000N
041995051090059000021023TINMACULADA MARTINEZ ANTON                                                   00000000  00000000N
041995051090059000021024TENRIQUE ALONSO GARCIA                                                       00000000  00000000N
041995051090059000021025TROBERTO ANTEPARA ALVAREZ                                                    00000000  00000000N
041995051090059000021026TRAUL QUECEDO DEL MONTE                                                      00000000  00000000N
041995051090059000021027TJUAN PABLO MARTIN RODRIGUES                                                 00000000  00000000N
041995051090059000045001TJOSE MORAL JIMENEZ                                                          00000000  00000000S
041995051090059000045002TMANUEL ORTEGA CAÑAS                                                         00000000  00000000S
041995051090059000045003TLUIS CASTRO BERROJO                                                         00000000  00000000S
041995051090059000045004TROSA EVA MARTINEZ GOMEZ                                                     00000000  00000000S
041995051090059000045005TLOURDES MARTIN LOPEZ                                                        00000000  00000000S
041995051090059000045006TMARIA JESUS KLETT SARMENTERO                                                00000000  00000000N
041995051090059000045007TIGNACIO SANTIAGO PALMA BARCENILLA                                           00000000  00000000N
041995051090059000045008TELISEO JAVIER GONZALEZ CASADO                                               00000000  00000000N
041995051090059000045009TLEANDRO ALZAGA MARIJUAN                                                     00000000  00000000N
041995051090059000045010TMARIA VICTORIA ANDRES MARTINEZ                                              00000000  00000000N
041995051090059000045011TMARIA ROCIO FLORES TORRE                                                    00000000  00000000N
041995051090059000045012TISIDRO AVENDAÑO PEREZ                                                       00000000  00000000N
041995051090059000045013TMARTIN JOSE BERNAL CUÑA                                                     00000000  00000000N
041995051090059000045014TJUAN ANTONIO ANGULO SAINZ                                                   00000000  00000000N
041995051090059000045015TALBERTO PALACIN GUTIERREZ                                                   00000000  00000000N
041995051090059000045016TPEDRO PEREZ GONZALEZ                                                        00000000  00000000N
041995051090059000045017TJOSE JAVIER ALONSO GORDO                                                    00000000  00000000N
041995051090059000045018TMIGUEL ANGEL SOTO PEREZ                                                     00000000  00000000N
041995051090059000045019TLETICIA BOMBIN GONZALEZ                                                     00000000  00000000N
041995051090059000045020TRAQUEL SOMAVILLA DE LA FUENTE                                               00000000  00000000N
041995051090059000045021TMATIAS CALVO CARRASCO                                                       00000000  00000000N
041995051090059000045022TEUGENIO CALVO PEREZ                                                         00000000  00000000N
041995051090059000045023TFRANCISCO TORRES PELEGRIN                                                   00000000  00000000N
041995051090059000045024TPILAR BOMBIN GONZALEZ                                                       00000000  00000000N
041995051090059000045025TJESUS CARLOS HUMADA ORTEGA                                                  00000000  00000000N
041995051090059000045026TMARIA MARTA FERNANDEZ FERNANDEZ                                             00000000  00000000N
041995051090059000045027TCASILDA LABARGA CAVIA                                                       00000000  00000000N
041995051090059000170001TANTONIO MATEOS GARCIA                                                       00000000  00000000N
041995051090059000170002TCRISTINO DIEZ RUIZ                                                          00000000  00000000N
041995051090059000170003TJESUS CESAR NAVARRO LEIVA                                                   00000000  00000000N
041995051090059000170004THONORIO URBANO TERRON                                                       00000000  00000000N
041995051090059000170005TMIGUEL PEREZ SERRANO                                                        00000000  00000000N
041995051090059000170006TPABLO GUTIERREZ PEREZ                                                       00000000  00000000N
041995051090059000170007TMARIA CRISTINA HERRERO CARCEDO                                              00000000  00000000N
041995051090059000170008TLUIS PEDROSA ANGULO                                                         00000000  00000000N
041995051090059000170009TMIGUEL ANGEL GONZALEZ ORTEGA                                                00000000  00000000N
041995051090059000170010TSANTIAGO DEL POZO CASTRO                                                    00000000  00000000N
041995051090059000170011TMARIA TERESA SOLE FILGUEIRA                                                 00000000  00000000N
041995051090059000170012TJESUS JAVIER MORAL GONZALO                                                  00000000  00000000N
041995051090059000170013TALEJANDRO DE LA PEÑA MAGARZO                                                00000000  00000000N
041995051090059000170014TJOSE MANUEL SAN MARTIN VARONA                                               00000000  00000000N
041995051080019000028032TESTEBAN SANCHEZ GENOVES                                                     00000000  00000000N
041995051080019000028033TJOSE SEMIS RUZAFA                                                           00000000  00000000N
041995051080019000028034TJOSE MIGUEL MUÑOZ PEREZ                                                     00000000  00000000N
041995051080019000028035TANTONIO NAVARRO RIBO                                                        00000000  00000000N
041995051080019000028036TANGELA MARTIN PALOMARES                                                     00000000  00000000N
041995051080019000028037TJUAN CARLOS CHAMON IBAÑEZ                                                   00000000  00000000N
041995051080019000028038TJORDI SALOME NACHER                                                         00000000  00000000N
041995051080019000028039TFERNANDO JUAN LOPEZ OLMEDILLA                                               00000000  00000000N
041995051080019000028040TGABRIEL PEREZ GIMENEZ                                                       00000000  00000000N
041995051080019000028041TDIEGO CARRASCO NUÑEZ                                                        00000000  00000000N
041995051080019000036001TLUIS PICO ELFA                                                              00000000  00000000N
041995051080019000036002TFELISA LOPEZ TEIJEIRO                                                       00000000  00000000N
041995051080019000036003TMIGUEL ALBARRACIN TORRES                                                    00000000  00000000N
041995051080019000036004TJOSE LOPEZ TEIJEIRO                                                         00000000  00000000N
041995051080019000036005TGEORGIA BLANCA ELDUQUE VESGA                                                00000000  00000000N
041995051080019000036006TMARTA FERRER DEL BAÑO                                                       00000000  00000000N
041995051080019000036007TJUAN MIGUEL ALBARRACIN VARGAS                                               00000000  00000000N
041995051080019000036008TMARTA CALVO PONCE                                                           00000000  00000000N
041995051080019000036009TMARIA CANTERO PASCUAL                                                       00000000  00000000N
041995051080019000036010TISABEL CASES VERDAGUER                                                      00000000  00000000N
041995051080019000036011TGABRIELA MARIA BARRIOCANAL ESCOLAR                                          00000000  00000000N
041995051080019000036012TVIRTUDES OTERO FADRIQUE                                                     00000000  00000000N
041995051080019000036013TMARIA LUISA TENA ROCA                                                       00000000  00000000N
041995051080019000036014TMAGDALENA MAYA TENA                                                         00000000  00000000N
041995051080019000036015TMARIA DOLORES VESGA QUINTANA                                                00000000  00000000N
041995051080019000036016TANA MARIA CASES VERDAGUER                                                   00000000  00000000N
041995051080019000036017TGABRIEL TORRELLA VILA                                                       00000000  00000000N
041995051080019000036018TISMAEL MARTI RODRIGO                                                        00000000  00000000N
041995051080019000036019TJOAN VICTOR SAGRISTA GONZALEZ                                               00000000  00000000N
041995051080019000036020TMARIA JESUS CRISTOBAL MORENO                                                00000000  00000000N
041995051080019000036021TJOSE MAYA PALLAS                                                            00000000  00000000N
041995051080019000036022TSILVIA MONTOLIO RUAIX                                                       00000000  00000000N
041995051080019000036023TMIGUEL AMATE PUIGCERVER                                                     00000000  00000000N
041995051080019000036024TDANIEL AGUILAR RODRIGUEZ                                                    00000000  00000000N
041995051080019000036025TJOSE IGNACIO POU LUMERAS                                                    00000000  00000000N
041995051080019000036026TPEDRO ROMERO AGUILAR                                                        00000000  00000000N
041995051080019000036027TJESUS ANDREU FILLAT                                                         00000000  00000000N
041995051080019000036028TANGEL HUETE MARTOS                                                          00000000  00000000N
041995051150078000104001TXERARDO ESTEVEZ FERNANDEZ                                                   00000000  00000000S
041995051150078000104002TJOSE LUIS RIO BARRO                                                         00000000  00000000S
041995051150078000104003TXOSE SANCHEZ BUGALLO                                                        00000000  00000000S
041995051150078000104004TLUIS MARIA TOJO RAMALLO                                                     00000000  00000000S
041995051150078000104005TCLOTILDE RODRIGUEZ MARTUL                                                   00000000  00000000S
041995051150078000104006TPEDRO ANTONIO FERNANDEZ FERNANDEZ                                           00000000  00000000S
041995051150078000104007TJOSE MANUEL VILLANUEVA PRIETO                                               00000000  00000000S
041995051150078000104008TLUIS PASIN LIÑARES                                                          00000000  00000000S
041995051150078000104009TANTONIO CAMPOS BEIRO                                                        00000000  00000000S
041995051150078000104010TJOSE BAQUEIRO CANABAL                                                       00000000  00000000S
041995051150078000104011TJOAQUIN BUERGO DEL RIO                                                      00000000  00000000S
041995051150078000104012TMAR BERNAL RIVAS                                                            00000000  00000000S
041995051150078000111001TMARIA ENCARNACION OTERO CEPEDA                                              00000000  00000000S
041995051150078000111002TNESTOR REGO CANDAMIL                                                        00000000  00000000S
041995051270028000002001TJOAQUIN MARIA GARCIA DIEZ                                                   00000000  00000000S
041995051270028000002002TFRANCISCO CACHARRO PARDO                                                    00000000  00000000S
041995051270028000002003TSVEN JUAN GUNTHER CANDO                                                     00000000  00000000S
041995051270028000002004TMARIA PILAR ESTEVEZ LINARES                                                 00000000  00000000S
041995051270028000002005TJOSE SERAFIN PENA SOUTO                                                     00000000  00000000S
041995051270028000002006TJOSE MANUEL BARREIRO FERNANDEZ                                              00000000  00000000S
041995051270028000002007TRAMON JAIME ARIAS ROCA                                                      00000000  00000000S
041995051270028000002008TMARIA DEL PILAR IGLESIAS OSORIO                                             00000000  00000000S
041995051090059000170015TJOSE ANTONIO BARRIUSO SANTAMARIA                                            00000000  00000000N
041995051090059000170016TCANDIDA SAIZ GONZALEZ                                                       00000000  00000000N
041995051090059000170017TMARIANO PALACIOS SAEZ                                                       00000000  00000000N
041995051340120000001025TRUFINA MANRIQUE ARIJA                                                       00000000  00000000N
041995051340120000002001TMARCELO DE MANUEL MORTERA                                                   00000000  00000000S
041995051340120000002002TJESUS MAÑUECO ALONSO                                                        00000000  00000000S
041995051340120000002003TENRIQUE LUIS MARTIN RODRIGUEZ                                               00000000  00000000S
041995051340120000002004TISIDORO FERNANDEZ NAVAS (INDEPENDIENTE)                                     00000000  00000000S
041995051340120000002005TMANUEL HERNANDEZ ANTON (INDEPENDIENTE)                                      00000000  00000000S
041995051340120000002006TROSA ISABEL CUESTA COFRECES                                                 00000000  00000000S
041995051340120000002007TJOSE ANTONIO MATE MARTIN                                                    00000000  00000000S
041995051340120000002008TALBERTO PEREZ VILLAR                                                        00000000  00000000S
041995051340120000002009TJOSE ANTONIO RUBIO MIELGO                                                   00000000  00000000S
041995051340120000002010TCANDIDO ALBERTO ARIJA GUANTES                                               00000000  00000000S
041995051340120000002011TMANUEL CARBAJO MARTIN                                                       00000000  00000000S
041995051340120000002012THELIODORO GARCIA RAMOS                                                      00000000  00000000S
041995051340120000002013TMARIA CRISTINA TEJEDOR UTRILLA                                              00000000  00000000S
041995051340120000002014TFRANCISCO JAVIER SERNA GARCIA                                               00000000  00000000N
041995051340120000002015TJOSE ANTONIO CABRIA FERNANDEZ                                               00000000  00000000N
041995051340120000002016TRAFAEL ANGEL MARTINEZ GONZALEZ                                              00000000  00000000N
041995051340120000002017TMARIA BEGOÑA MINGUITO ARNAIZ                                                00000000  00000000N
