061995051384999000096007TJUAN ALFONSO TRILLO MARTORELL                                               000000000000000000N
061995051384999000096011TAMALIA LORENTE GARCIA                                                       000000000000000000N
061995051384999000096013TNIEVES ORTEGA BRUNO                                                         000000000000000000N
061995051384999000096015TMARINA MARTINEZ AMADOR                                                      000000000000000000N
061995051351999000096004TFRANCISCO JESUS RONDA MARTINEZ                                              000000000000000000N
061995051351999000096005TLUIS JAVIER BELTRAN MORALES                                                 000000000000000000N
061995051351999000096010TJUAN ROSALES ALVAREZ                                                        000000000000000000N
061995051351999000096013TALFONSO TREBIÑO SILVA                                                       000000000000000000N
061995051351999000096020TJ. ORLANDO CARDENES DENIZ                                                   000000000000000000N
061995051351999000096023TALEJANDRO VERGAZ GONZALEZ                                                   000000000000000000N
061995051351999000096024TFRANCISCO LADEIRO MARTIN                                                    000000000000000000N
061995051351999000096025TDOMINGO GARCIA RODRIGUEZ                                                    000000000000000000N
061995051351999000096029TMAURICIO JAVIER O'SHANAHAN ROCA               Don                           000000000000000000N
061995051387999000096008TLUIS ALFREDO ESPINOSA PADRON                                                000000000000000000N
061995051387999000096011TDOMINGO DELGADO ACOSTA                                                      000000000000000000N
061995051353999000096003TM. DEL PILAR JIMENEZ RODRIGUEZ DEL VALLE                                    000000000000000000N
061995051386999000002006TJUAN RAMON CASTILLA ARMAS                                                   000000000000000000N
061995051351999000002002TJUAN ANDRES MELIAN GARCIA                                                   000000000000000000S
061995051384999000002011TJUAN JOSE MENDEZ GONZALEZ                                                   000000000000000000N
061995051384999000002018TMARIA ANGELES CONTRERAS PALENZUELA                                          000000000000000000N
061995051384999000002020TLORENZO REVERON RODRIGUEZ                                                   000000000000000000N
061995051384999000002021TANA MARIA CASANOVA MACARIO                                                  000000000000000000N
061995051387999000002001TEULALIO ELVIRO REBOSO GUTIERREZ                                             000000000000000000S
061995051387999000002002TJUAN CIRO CASTAÑEDA PADRON                                                  000000000000000000S
061995051387999000002005TMIRELLA QUINTERO MACHIN                                                     000000000000000000N
061995051353999000002014TBLANCA MARIA PEÑA PADRON                                                    000000000000000000N
061995051385999000002002TVICENTE CAPOTE CABRERA                                                      000000000000000000S
061995051385999000002016TESTEBAN LAUDIS MARANTE DIAZ                                                 000000000000000000N
061995051385999000002017THONORIO CANDIDO CACERES RODRIGUEZ                                           000000000000000000N
061995051352999000002007TJUAN JORGE ROMERO TOLEDO                                                    000000000000000000N
061995051352999000002009TJOSE LUIS MARTINEZ GARCIA                                                   000000000000000000N
061995051352999000002010TJOSE JUAN LORENZO RODRIGUEZ                                                 000000000000000000N
061995051387999000002003TMIGUEL CELSO LIMA GONZALEZ                                                  000000000000000000N
061995051387999000002007TFRANCISCO CASTELLANOS CEJAS                                                 000000000000000000N
061995051385999000002001TJUAN DE LA BARREDA PEREZ                                                    000000000000000000S
061995051385999000002009TGABRIEL HERNANDEZ HERNANDEZ                                                 000000000000000000N
061995051385999000002013TPEDRO FELIPE CABRERA                                                        000000000000000000N
061995051385999000002015TANTONIO JOSE VALIDO PEREZ                                                   000000000000000000N
061995051385999000002019TMARIA EUGENIA DE FRUTOS MORLA                                               000000000000000000N
061995051385999000002021TJOSE CONCEPCION MACHADO                                                     000000000000000000N
061995051352999000002004TJULIAN VICENTE GALVAN GARCIA                                                000000000000000000N
061995051352999000002015TMATIAS GONZALEZ CAMACHO                                                     000000000000000000N
061995051351999000082004TJAVIER E. FALCON RUIZ                                                       000000000000000000N
061995051351999000082008TVICTOR M. CABRERA NAVARRO                                                   000000000000000000N
061995051351999000082014TJOSE A. NUEZ GARCIA                                                         000000000000000000N
061995051384999000082008TCARLOS SUAREZ QUINTANA                                                      000000000000000000N
061995051384999000082013TROGELIO GARCIA MARRERO                                                      000000000000000000N
061995051384999000082017TPEDRO MANUEL REYES QUESADA                                                  000000000000000000N
061995051386999000128012TGABRIEL RAMOS PLASENCIA                                                     000000000000000000N
061995051386999000128013TANA MARIA NEGRIN NAVARRO                                                    000000000000000000N
061995051351999000128005TGONZALO ANGULO GONZALEZ                                                     000000000000000000S
061995051351999000128006TRAFAEL LUIS PEDRERO MANCHADO                                                000000000000000000S
061995051351999000128016TSEBASTIAN CRUZ VIERA                                                        000000000000000000N
061995051351999000128019TANGEL RUIZ QUESADA                                                          000000000000000000N
061995051353999000128004TTOMAS SAAVEDRA DE LEON                                                      000000000000000000S
061995051353999000128005TRAMON CABRERA PEÑA                                                          000000000000000000S
061995051353999000128008TDOLORES ARMAS ARMAS                                                         000000000000000000N
061995051353999000128013TJUAN JOSE CABRERA LASSO                                                     000000000000000000N
061995051353999000128015TLIDIA E. PADILLA PERDOMO                                                    000000000000000000N
061995051385999000128003THIGINIO MAXIMO BRITO RODRIGUEZ                                              000000000000000000S
061995051385999000128015THABIBA EL-OUAZIZA GONZALEZ                                                  000000000000000000N
061995051385999000128017TPEDRO ORTEGA MACHIN                                                         000000000000000000N
061995051352999000128006TSEBASTIANA PERERA BRITO                                                     000000000000000000N
061995051352999000128009TELADIO RATERO CARPIO                                                        000000000000000000N
061995051351999000112007TMARIA DEL CARMEN TEJERA OJEDA                                               000000000000000000N
061995051351999000112014TMANUELA RAMIREZ GONZALEZ                                                    000000000000000000N
061995051351999000112028TACAYMO GARCIA SANTANA                                                       000000000000000000N
061995051384999000112006TSEVERO VICENTE DE LA FE HERNANDEZ                                           000000000000000000N
061995051384999000112017TFRANCISCA FUENTES MARTIN                                                    000000000000000000N
061995051387999000112007TFRANCISCO RAMIRO BENITEZ GARCIA                                             000000000000000000N
061995051387999000112009TJOSEFINA NOELIA PADRON QUINTERO                                             000000000000000000N
061995051353999000112003TSILVIA MARIA CARDONA ARMAS                                                  000000000000000000N
061995051385999000112002TSERGIO ELIAS ACOSTA HERNANDEZ                                               000000000000000000N
061995051385999000112012TESTHER MORERA MARTEL                                                        000000000000000000N
061995051385999000112014TMANUEL ROQUE CONCEPCION VIDAL                                               000000000000000000N
061995051385999000112017TALEJANDRO CEBALLOS BLANCO                                                   000000000000000000N
061995051385999000112021TARMANDO PEREZ PINO                                                          000000000000000000N
061995051352999000112004TGINES GUTIERREZ GUTIERREZ                                                   000000000000000000N
061995051352999000112005TBENJAMIN MANUEL LASSO TABARES                                               000000000000000000N
061995051352999000112008TCIPRIANO CABRERA HERNANDEZ                                                  000000000000000000N
061995051351999000187005TJUAN ALBERTO DIAZ BERTRANA MARRERO                                          000000000000000000N
061995051351999000187017TNOELIA LOPEZ TROYA                                                          000000000000000000N
061995051351999000187028TMIGUEL ANGEL GIL NAVARRO                                                    000000000000000000N
061995051384999000198001TADAN PABLO MARTIN MENIS                                                     000000000000000000S
061995051384999000198019TJOSE ANTONIO GARCIA FUERTES                                                 000000000000000000N
061995051352999000386014TCANDIDO ARMAS RODRIGUEZ                                                     000000000000000000N
061995051352999000386017TINES N. ROJAS DE LEON                                                       000000000000000000N
061995051352999000386019TFRANCISCO G. RODRIGUEZ REYES                                                000000000000000000N
061995051352999000386021TLUIS CELESTINO ARRAEZ GUADALUPE                                             000000000000000000N
061995051386999000001003TMANUEL LUIS MENDEZ MARTIN                                                   000000000000000000S
061995051386999000001011TLUZ MARINA GARCIA QUINTERO                                                  000000000000000000N
061995051384999000001009TMARIA DOLORES RODRIGUEZ FLORES                                              000000000000000000N
061995051384999000001026TSANTIAGO MELIAN VERA                                                        000000000000000000N
061995051351999000001014TBLAS ARTILES TOLEDO                                                         000000000000000000N
061995051351999000001015TRAQUEL MEDINA JIMENEZ                                                       000000000000000000N
061995051351999000001017TMARIA DEL PINO CASAÑA SOSA                                                  000000000000000000N
061995051385999000128013TLEONARDO FAJARDO MUÑOZ                                                      000000000000000000N
061995051385999000128018TMARIA NIEVES HERNANDEZ GOMEZ                                                000000000000000000N
061995051352999000128003TJUAN JOSE SANTANA DE LEON                                                   000000000000000000S
061995051352999000128005TSERGIO MACHIN DE LEON                                                       000000000000000000N
061995051352999000128020TANTONIA DELIA GUARDIA MACHIN                                                000000000000000000N
061995051387999000135002TJOSE JAVIER MORALES FEBLES                                                  000000000000000000S
061995051387999000135006TMARIA BELEN ALLENDE RIERA                                                   000000000000000000S
061995051387999000135009TMANUEL ANGEL PADRON PEREZ                                                   000000000000000000N
061995051387999000135010TMANUEL PEREZ HERNANDEZ                                                      000000000000000000N
061995051384999000138004TCARLOS GARCIA GACIO                                                         000000000000000000N
061995051384999000138005TCARMELO MANUEL LORENZO RODRIGUEZ                                            000000000000000000N
061995051384999000138006TJORGE MAXIMILIANO GALLART OLIVA                                             000000000000000000N
061995051384999000138007TJUAN SEBASTIAN CRUZ RODRIGUEZ                                               000000000000000000N
061995051384999000138008TMARIA ANTONIA PERDOMO HERNANDEZ                                             000000000000000000N
061995051352999000163007TBIENVENIDA GUZMAN SANTANA                                                   000000000000000000N
061995051352999000163015TMARIA DEL PINO HERNANDEZ MORALES                                            000000000000000000N
061995051351999000001019TJOSE ANTONIO RODRIGUEZ RODRIGUEZ                                            000000000000000000N
061995051351999000001026TJOSE DOMINGO RODRIGUEZ ACUÑA                                                000000000000000000N
061995051351999000001029TSERAFINA ANA M. PEÑATE SANTANA                                              000000000000000000N
061995051387999000001004TMARIA ESTHER PADRON MORALES                                                 000000000000000000N
061995051387999000001005TJUAN LUIS GONZALEZ PADRON                                                   000000000000000000N
061995051353999000001004TJUAN ALFONSO PEREZ                                                          000000000000000000N
061995051353999000001010TBLAS ACOSTA CABRERA                                                         000000000000000000N
061995051353999000001011TLUCAS HERNANDEZ GIL                                                         000000000000000000N
061995051385999000001005TCONCEPCION ALICIA LORENZO LORENZO                                           000000000000000000S
061995051384999000138016TMARIA ELIA HERNANDEZ DIAZ                                                   000000000000000000N
061995051384999000138025TJOSE JORDAN BRITO                                                           000000000000000000N
061995051352999000163011TJEREMIAS HERNANDEZ GONZALEZ                                                 000000000000000000N
061995051352999000163014TJOSE ALBERTO MESA FERRERA                                                   000000000000000000N
061995051352999000163020TNICASIO HERNANDEZ BARRETO                                                   000000000000000000N
061995051352999000168015TMERCEDES SEIJAS LOPEZ                                                       000000000000000000N
061995051384999000182027TELADIO HERNANDEZ PLASENCIA                                                  000000000000000000N
061995051351999000185004TCARMEN GLORIA BENITEZ OJEDA                                                 000000000000000000N
061995051351999000185018TANTONIO SANCHEZ ARTILES                                                     000000000000000000N
061995051351999000186002TJOSE LUIS ORTEGA SANABRIA                                                   000000000000000000N
061995051351999000186003TJOSE MANUEL HERNANDEZ SUAREZ                                                000000000000000000N
061995051352999000001021TJOSE FRANCISCO HERNANDEZ BETANCORT                                          000000000000000000N
061995051386999000002003TALEJANDRO ERNESTO SERAFIN HENRIQUEZ                                         000000000000000000N
061995051386999000002008TRICARDO RAMIREZ ROLDAN                                                      000000000000000000N
061995051384999000002006TMANUEL LUIS TORRES HERRERA                                                  000000000000000000S
061995051384999000002007TPEDRO JOSE SUAREZ LOPEZ DE VERGARA                                          000000000000000000N
061995051351999000002005TALEJANDRO CASTRO JIMENEZ                                                    000000000000000000S
061995051351999000002007TANTONIO ARTILES CABALLERO                                                   000000000000000000S
061995051351999000002008TENRIQUE MARTIN CABRERA                                                      000000000000000000S
061995051351999000002009TTOMAS VAN DE WALLE DE SOTOMAYOR                                             000000000000000000S
061995051351999000002021TJUAN JOSE MEJIAS BONILLA                                                    000000000000000000N
061995051351999000002029TENCARNACION DOMINGUEZ AFONSO                                                000000000000000000N
061995051384999000002009TVICENTE GONZALEZ PEREZ                                                      000000000000000000N
061995051387999000002006TRUBEN CARBALLO FEBLES                                                       000000000000000000N
061995051353999000002016TJUAN HERNANDEZ CABRERA                                                      000000000000000000N
061995051385999000002004TCLEMENTE ELIBERTO ALVAREZ FERNANDEZ                                         000000000000000000S
061995051385999000002005TROBERTO MANUEL RODRIGUEZ HERNANDEZ                                          000000000000000000N
061995051351999000186012TFERNANDO SILVA TRUJILLO                                                     000000000000000000N
061995051351999000186013TESTHER LIDIA SUAREZ SANTANA                                                 000000000000000000N
061995051351999000186017TVICTORIANO RODRIGUEZ MORALES                                                000000000000000000N
061995051351999000186018TALFREDO PEDRO NARANJO ORTEGA                                                000000000000000000N
061995051351999000186024TJUAN SAAVEDRA SANCHEZ                                                       000000000000000000N
061995051351999000186025TISIDRO MONTESDEOCA MORENO                                                   000000000000000000N
061995051351999000187006TJUAN ANTONIO PADRON ROSALES                                                 000000000000000000N
061995051351999000187008TSILVESTRE LOPEZ ANGULO                                                      000000000000000000N
061995051351999000187014TMARIA JESUS RAMOS FERRERO                                                   000000000000000000N
061995051351999000187019TCUSTODIO JIMENEZ SUAREZ                                                     000000000000000000N
061995051384999000198002TPAULINO RIVERO BAUTE                                                        000000000000000000S
061995051384999000198005TJOSE WLADIMIRO RODRIGUEZ BRITO                                              000000000000000000S
061995051384999000198009TJOSE MANUEL BERMUDEZ ESPARTA                                                000000000000000000S
061995051384999000198014TMANUEL CABALLERO RUANO                                                      000000000000000000N
061995051384999000198015TJAVIER GONZALEZ ORTIZ                                                       000000000000000000N
061995051384999000198027TMARIA JESUS PONCE GONZALEZ                                                  000000000000000000N
061995051353999000096009TANTONIO SANTOS SANTOS                                                       000000000000000000N
061995051353999000096013TMARIA OBDULIA BARRERA HERRERA                                               000000000000000000N
061995051353999000096014TJUAN CARLOS PEREZ MONTESDEOCA                                               000000000000000000N
061995051385999000096005TANTONIO VICENTE GONZALEZ SOSA                                               000000000000000000N
061995051385999000096007TRODOLFO ISIDRO GONZALEZ MARTIN                                              000000000000000000N
061995051385999000096016TJUAN ROBERTO LORENZO HERNANDEZ                                              000000000000000000N
061995051385999000096018TMOISES VALDIVIESO HONTAÑON                                                  000000000000000000N
061995051385999000096020TMIGUEL ABILIO GONZALEZ AFONSO                                               000000000000000000N
061995051352999000096015TFRANCISCA MACHIN MORALES                                                    000000000000000000N
061995051352999000096019TJOSE MANUEL JUNCAL LOPEZ                                                    000000000000000000N
061995051384999000107019TBERNARDO GIL RAMOS                                                          000000000000000000N
061995051384999000109006TGRACILIANO DIAZ PADILLA                                                     000000000000000000N
061995051384999000109017TLUCAS SABINA MOJICA                                                         000000000000000000N
061995051384999000109022TSANTIAGO EXPOSITO DIAZ                                                      000000000000000000N
061995051384999000109027TFELIPE ANTONIO QUESADA ORTEGA                                               000000000000000000N
061995051386999000112007TCANDELARIA DEL PINO ACOSTA CASANOVA                                         000000000000000000N
061995051352999000002017TEVA MARIA UMPIERREZ RODRIGUEZ                                               000000000000000000N
061995051353999000074013TMARIA AFRICA AVILA MELO                                                     000000000000000000N
061995051351999000082005TANA MARIA LERMO CASTELAR                                                    000000000000000000N
061995051351999000082021TROBERTO FUENTES MARTIN                                                      000000000000000000N
061995051351999000082023TM. CARMEN GIL ACOSTA                                                        000000000000000000N
061995051351999000082024TCARMEN MARTIN SOCAS                                                         000000000000000000N
061995051384999000082003TCARMEN MARIA NAGORE SUAREZ                                                  000000000000000000N
061995051384999000082007TCARLOS SUAREZ BETTS                                                         000000000000000000N
061995051384999000082012TMARIA SORAYA MATA VEGA                                                      000000000000000000N
061995051384999000082022TANTONIO MANUEL PRIETO AGUILAR                                               000000000000000000N
061995051384999000082023TANDREA ISABEL ALONSO MARTIN                                                 000000000000000000N
061995051384999000096014TSANTIAGO RUIZ MENENDEZ                                                      000000000000000000N
061995051351999000096002TJUAN ARROYO OJEDA                                                           000000000000000000N
061995051351999000096003TPEDRO RAMOS SANCHEZ                                                         000000000000000000N
061995051387999000096007TJOSE CARLOS HERNANDEZ CONCEPCION                                            000000000000000000N
061995051387999000096009TFERNANDO SILVA MENA                                                         000000000000000000N
061995051384999000082018TVICTOR MANUEL QUINTANA RODRIGUEZ                                            000000000000000000N
061995051384999000082024TAGUSTIN PRIETO RINQUEL                                                      000000000000000000N
061995051351999000082028TANTONIO VILLAPLANA DELGADO                                                  000000000000000000N
061995051351999000096001TJUAN CARLOS JIMENEZ SOCORRO                                                 000000000000000000N
061995051351999000096027TCRISTO DEL CARMELO LADEIRO GARCIA                                           000000000000000000N
061995051387999000096006TLAURA ELENA ESPINOSA PADRON                                                 000000000000000000N
061995051387999000096010TMARIA PILAR HERNANDEZ CONCEPCION                                            000000000000000000N
061995051353999000096001TMARIA DEL CARMEN CUBAS MORENO                                               000000000000000000N
061995051353999000096008TGENARO IZAL FUNES                                                           000000000000000000N
061995051385999000096002TJOSE CARLOS MATOS SAN BLAS                                                  000000000000000000N
061995051385999000096012TNIEVES LUZ SAN BLAS CEREZO                                                  000000000000000000N
061995051385999000096013TSANTIAGO MENDEZ PERERA )                                                    000000000000000000N
061995051352999000096003TCARMEN G. FIGUERA GONZALEZ (INDEPENDIENTE)                                  000000000000000000N
061995051352999000096012TBIENVENIDO PEREZ TEJERA                                                     000000000000000000N
061995051352999000096016TCASIMIRO HERNANDEZ CAMACHO                                                  000000000000000000N
061995051384999000107003TFRANCISCO JOSE RODRIGUEZ PULIDO                                             000000000000000000N
061995051352999000128017TJUAN ANTONIO DE LA HOZ GONZALEZ                                             000000000000000000N
061995051387999000135008TVENANCIO ACOSTA PADRON                                                      000000000000000000N
061995051384999000138003TMARIA DE LOS ANGELES ALVAREZ RAMOS                                          000000000000000000N
061995051384999000138021TMARIA GONZALEZ GONZALEZ                                                     000000000000000000N
061995051352999000163004TJOSE JUAN SANCHEZ BAEZ                                                      000000000000000000N
061995051352999000163009TMANUEL GUILLEN GUERRA                                                       000000000000000000N
061995051352999000168003TESTEBAN RODRIGUEZ MEDINA                                                    000000000000000000N
061995051352999000168008TGONZALO CURBELO GONZALEZ                                                    000000000000000000N
061995051352999000168009TJORGE CRESPO HERRERA                                                        000000000000000000N
061995051384999000182010TMIGUEL ANGEL BELLO RODRIGUEZ                                                000000000000000000N
061995051384999000182012TMANUEL NEGRIN CHINEA                                                        000000000000000000N
061995051384999000182016TROBERTO O. MENDEZ RODRIGUEZ                                                 000000000000000000N
061995051384999000182019TANTONIO PADRON JORGE                                                        000000000000000000N
061995051384999000182020TLUIS BARROSO DARIAS                                                         000000000000000000N
061995051384999000182022TMERCEDES GUTIERREZ DE GANZO                                                 000000000000000000N
061995051384999000182025TPEDRO MANUEL GONZALEZ CANOVAS                                               000000000000000000N
061995051351999000185002TJAIME SAINZ PEÑATE                                                          000000000000000000N
061995051387999000116002TDIONISIO PADRON PADRON                                                      000000000000000000N
061995051387999000116008TMANUEL VICENTE MACHIN QUINTERO                                              000000000000000000N
061995051387999000116010TCIRILO ENRIQUE PADRON NEGRIN                                                000000000000000000N
061995051384999000118003TB. EMILIO DE FEZ MARRERO                                                    000000000000000000N
061995051384999000118024TANATOLIO SUAREZ GONZALEZ                                                    000000000000000000N
061995051386999000128004TJUAN EUSTAQUIO DORTA CORREA                                                 000000000000000000S
061995051351999000128012TGREGORIA GONZALEZ VALERON                                                   000000000000000000N
061995051351999000128023TJOSE LUIS PEÑATE SUAREZ                                                     000000000000000000N
061995051351999000128028TANTONIO BENITEZ SANABRIA                                                    000000000000000000N
061995051385999000128006TGUILLERMO MANUEL JIMENEZ GARCIA                                             000000000000000000S
061995051352999000128004TJOSE CARMELO GONZALEZ CLAVIJO                                               000000000000000000N
061995051352999000128015TFRANCISCO JAVIER SILVA LUZARDO                                              000000000000000000N
061995051385999000001013TVICTOR MANUEL SICILIA PEREZ                                                 000000000000000000N
061995051352999000001007TJUAN ALEJANDRO DELGADO CEJUDO                                               000000000000000000S
061995051386999000002002TMIGUEL ANGEL BENTO BRAVO                                                    000000000000000000N
061995051386999000002012TISABEL MARIA TRUJILLO PLASENCIA                                             000000000000000000N
061995051384999000002002TALFREDO LUIS GONZALEZ GARCIA                                                000000000000000000S
061995051351999000002018TANTONIO MORENO HENRIQUEZ                                                    000000000000000000N
061995051384999000002016TMARGARITA AMELIA TABOADA GARCIA                                             000000000000000000N
061995051384999000109021TJOSE FRANCISCO VALENZUELA GONZALEZ                                          000000000000000000N
061995051351999000112002TJOSE RAMON CABANA HERNANDEZ                                                 000000000000000000N
061995051351999000112003TANTONIA TERESA AFONSO LOPEZ                                                 000000000000000000N
061995051351999000112005TCARLOS MATIAS RUIZ MORENO                                                   000000000000000000N
061995051351999000112010TPEREGRINO VICTOR ALEMAN ARMAS                                               000000000000000000N
061995051351999000112027TSAMANTHA CARRASCO PIQUER                                                    000000000000000000N
061995051384999000112009TRAFAEL PERAZA CABRERA                                                       000000000000000000N
061995051384999000112014TDULCE MARIA BETHENCOURT AFONSO                                              000000000000000000N
061995051353999000112012TANTONIO MANUEL VELAZQUEZ SANTANA                                            000000000000000000N
061995051353999000112013TAGUSTIN ESTEVAN SANCHEZ MONTESDEOCA                                         000000000000000000N
061995051385999000112005TJOSE ANTONIO MIGUEL MARTIN CASTILLO                                         000000000000000000N
061995051352999000112015TJOSE SANCHEZ DE LEON                                                        000000000000000000N
061995051384999000118005TBLANCA GUERRA FRIAS                                                         000000000000000000N
061995051384999000118006TFRANCISCO RUIZ PEREZ RODRIGUEZ                                              000000000000000000N
061995051384999000118010TMILAGROS HERNANDEZ MEDINA                                                   000000000000000000N
061995051386999000001007TALBERTO DAVID HERRERA MARICHAL                                              000000000000000000S
061995051384999000001003TDOMINGO PERERA HERNANDEZ                                                    000000000000000000S
061995051384999000001008TRAFAEL JOSE YANES MESA                                                      000000000000000000S
061995051384999000001010TFERNANDO SANCHEZ MANZANO SUAREZ                                             000000000000000000N
061995051384999000001024TMARIA INMACULADA GARCIA VERA                                                000000000000000000N
061995051384999000001027TANA MARIA ROSALES CAMPOS                                                    000000000000000000N
061995051351999000001022TJOSEFA INMACULADA JIMENEZ AMADOR                                            000000000000000000N
061995051351999000001023TFRANCISCO BAEZ MARRERO                                                      000000000000000000N
061995051351999000001027TMARIA DE LOS ANGELES RAMIREZ NOVAL                                          000000000000000000N
061995051351999000001028TMANUEL FRANCISCO CABRERA SUAREZ                                             000000000000000000N
061995051387999000001007TJOSE FRANCISCO CEJAS ARMAS                                                  000000000000000000N
061995051387999000001008TSERGIO CABRERA FLEITAS                                                      000000000000000000N
061995051387999000001009TMANUEL REYES HERNANDEZ LEON                                                 000000000000000000N
061995051387999000001010TJUAN JESUS PEREZ CASTAÑEDA                                                  000000000000000000N
061995051353999000001006TSALVADOR GONZALEZ TOLEDO                                                    000000000000000000N
061995051353999000001017TMARIA DEL CARMEN HERNANDEZ HIERRO                                           000000000000000000N
061995051384999000107016TWENCESLAO MANUEL GONZALEZ ALBERTOS                                          000000000000000000N
061995051384999000109007TSANTIAGO BRITO ALVAREZ                                                      000000000000000000N
061995051384999000109023TCRISTOBAL GONZALEZ ESPINOSA                                                 000000000000000000N
061995051386999000112006TJUAN JOSE CASTILLA SANTOS                                                   000000000000000000N
061995051386999000112008TJUAN JAVIER GARCIA MARTIN                                                   000000000000000000N
061995051386999000112011TPEDRO DAMIAN NODA ACOSTA                                                    000000000000000000N
061995051351999000112009TEUGENIO SANTOS PARADINAS                                                    000000000000000000N
061995051351999000112017TFRANCISCO ANTONIO JUAN MARTIN BUENO                                         000000000000000000N
061995051351999000112022TLUIS CIRIACO SANTANA GONZALEZ                                               000000000000000000N
061995051351999000112023TJUAN PEDRO LUZARDO ARMAS                                                    000000000000000000N
061995051351999000112029TLORENZO LUIS GARZON SUAREZ                                                  000000000000000000N
061995051384999000112015TRAMON JOSE PEREIRA CASTRO                                                   000000000000000000N
061995051384999000112022TJOSE MANUEL MENDEZ RODRIGUEZ                                                000000000000000000N
061995051384999000112023TJESUS ESCOLASTICO MORENO ZALVE                                              000000000000000000N
061995051387999000112006TANDRES MARTIN PADRON QUINTERO                                               000000000000000000N
061995051353999000112002TJOSE GUTIERREZ SANTANA                                                      000000000000000000N
061995051385999000128007TJOSE MANUEL GONZALEZ SUAREZ                                                 000000000000000000S
061995051385999000128008TUBALDO MIGUEL BARRETO HERNANDEZ                                             000000000000000000S
061995051385999000128011TMARIA NINFA GARCIA DIAZ                                                     000000000000000000N
061995051387999000135005TJUAN RAMON ABREU GUTIERREZ                                                  000000000000000000S
061995051384999000138012TBLANCA MARIA GALARZA TRUJILLO                                               000000000000000000N
061995051385999000128009THILARIO MANUEL BATISTA LOPEZ                                                000000000000000000N
061995051385999000128010TJOSE LUIS LORENZO BARRETO                                                   000000000000000000N
061995051385999000128012TJOSE RODRIGUEZ RODRIGUEZ                                                    000000000000000000N
061995051352999000128001TJUAN RAMIREZ MONTERO                                                        000000000000000000S
061995051352999000128007TMARIANO MANUEL TAVIO CABRERA                                                000000000000000000N
061995051352999000128008TMARCIAL CALERO MEDINA                                                       000000000000000000N
061995051352999000128012TANTONIO ANDRES LORENZO TEJERA                                               000000000000000000N
061995051352999000128016TANGEL FIGUEROA HERNANDEZ                                                    000000000000000000N
061995051352999000128018TJOSE TABARES SAAVEDRA                                                       000000000000000000N
061995051384999000138014TMARIA SALUD GARCIA EUGENIO                                                  000000000000000000N
061995051384999000138019TJOSE MANUEL HERRERA VAZQUEZ                                                 000000000000000000N
061995051386999000001010TJOSE MIGUEL CRUZ LEON                                                       000000000000000000N
061995051386999000001013TMARIA ISABEL VENTURA LEON                                                   000000000000000000N
061995051384999000001018TMANUEL ANGEL HERNANDEZ CRUZ                                                 000000000000000000N
061995051351999000001004TLUIS HIPOLITO HERNANDEZ AFONSO                                              000000000000000000S
061995051351999000001013TNICOLAS SANCHEZ GRIMON                                                      000000000000000000N
061995051351999000001016TDAVID DELGADO SANTANA                                                       000000000000000000N
061995051387999000001001TINOCENCIO HERNANDEZ GONZALEZ                                                000000000000000000S
061995051353999000001003TJUAN NICOLAS CABRERA SAAVEDRA                                               000000000000000000S
061995051385999000001001TFELIPE HERNANDEZ RODRIGUEZ                                                  000000000000000000S
061995051385999000001017TDOLORES MIRIAM ALAMO SANTANA                                                000000000000000000N
061995051352999000001017TBENITO PADRON RIJO                                                          000000000000000000N
061995051352999000001020TBLAS JESUS CABRERA ARRAIZ                                                   000000000000000000N
061995051386999000002001TMIGUEL ANGEL MORCUENDE HURTADO                                              000000000000000000S
061995051386999000002007TJOSE ANTONIO MEDINA CABRERA                                                 000000000000000000N
061995051384999000002001TVICENTE MIGUEL ALVAREZ GIL                                                  000000000000000000S
061995051384999000002004TCARMEN ROSA GARCIA MONTENEGRO                                               000000000000000000S
061995051387999000096003TMARCOS JESUS HERNANDEZ SANCHEZ                                              000000000000000000N
061995051353999000096015TELHASSANIA CHERKAOUI LAARBI                                                 000000000000000000N
061995051353999000096017TSALVADOR CRIADO DE LA MONTAÑA                                               000000000000000000N
061995051385999000096003TCRISTOBAL GOMEZ CABRERA                                                     000000000000000000N
061995051385999000096009TJOSE LUIS PEREZ ALAYON                                                      000000000000000000N
061995051385999000096014TLUZ INMACULADA CACERES MARTIN                                               000000000000000000N
061995051385999000096015TANTONIO HERNANDEZ VIDAL                                                     000000000000000000N
061995051352999000096001TLORENZO LEMAUR SANTANA                                                      000000000000000000N
061995051352999000096004TTERESITA DE LEON LUZARDO (INDEPENDIENTE)                                    000000000000000000N
061995051384999000107007TMARCO ANTONIO ALVARADO RIVERO                                               000000000000000000N
061995051384999000107012TJOSE VICTOR YANES GARCIA                                                    000000000000000000N
061995051384999000107023TANTONIO JAVIER RODRIGUEZ PULIDO                                             000000000000000000N
061995051384999000109004TJUAN JOSE BARROSO DIAZ                                                      000000000000000000N
061995051386999000112013TJOSE JUAN ACOSTA HERNANDEZ                                                  000000000000000000N
061995051351999000112004TMANUEL DE LOS REYES HERRERA QUINTANA                                        000000000000000000N
061995051351999000112006TDULCE MARIA ALEMAN BATISTA                                                  000000000000000000N
061995051352999000386001TJUAN CARLOS BECERRA ROBAYNA                                                 000000000000000000S
061995051352999000386003TMARIA JOSE DOCAL SERRANO                                                    000000000000000000S
061995051352999000386009TEMILIO MACHIN DE LEON                                                       000000000000000000N
061995051352999000386016TRAMON BERMUDEZ BENASCO                                                      000000000000000000N
061995051387999000116004TMARIA TESEIDA PADRON REYES                                                  000000000000000000N
061995051384999000118019TJUAN MANUEL GARCIA RODRIGUEZ                                                000000000000000000N
061995051384999000118020TFRANCISCO PACHECO GONZALEZ                                                  000000000000000000N
061995051386999000128005TEVARISTO ARMAS ARTEAGA                                                      000000000000000000N
061995051386999000128006TANACOR GARCIA RODRIGUEZ                                                     000000000000000000N
061995051386999000128010TFRANCISCO MANUEL CABELLO HERNANDEZ                                          000000000000000000N
061995051351999000128018TARACELI MARIA DEL MAR MORENO NAVARRO                                        000000000000000000N
061995051351999000128029TJUAN JOSE MEDINA HERNANDEZ                                                  000000000000000000N
061995051353999000128010TVICENTE MELIAN GONZALEZ                                                     000000000000000000N
061995051353999000128014TANTONIO DELGADO PEÑA                                                        000000000000000000N
061995051353999000128017TPEDRO SANCHEZ CABRERA                                                       000000000000000000N
061995051385999000128021TJUAN RAMON RODRIGUEZ MARIN                                                  000000000000000000N
061995051352999000128002TMARIO PEREZ HERNANDEZ                                                       000000000000000000S
061995051352999000128010TMARCOS BERMUDEZ MORALES                                                     000000000000000000N
061995051352999000128011TISIDRO CEDRES CAMACHO                                                       000000000000000000N
061995051384999000138002TENRIQUE SALVADOR ESPI SANCHIS                                               000000000000000000N
061995051386999000112003TMANUEL ADOLFO HERRERA DARIAS                                                000000000000000000N
061995051386999000112004TARSENIO HERNANDEZ CRUZ                                                      000000000000000000N
061995051351999000112021TJOSE MANUEL DOMINGUEZ GRIMON                                                000000000000000000N
061995051351999000112025TLOURDES MEDINA ALEMAN                                                       000000000000000000N
061995051384999000112002TCONCEPCION MORENO GARCIA                                                    000000000000000000N
061995051384999000112007TMARIA ARACELI VELAZQUEZ CONTRERAS                                           000000000000000000N
061995051384999000112013TMANUEL ALONSO MORALES                                                       000000000000000000N
061995051384999000112025TBONIFACIO OSCAR PEREZ MARTIN                                                000000000000000000N
061995051387999000112008TLEONARDO ARMAS BENITEZ                                                      000000000000000000N
061995051387999000112011TMARIA DE LA PAZ ALVAREZ MARTIN                                              000000000000000000N
061995051353999000112005TNICOLAS GUTIERREZ ORAMAS                                                    000000000000000000N
061995051353999000112007TJUAN PEDRO LOPEZ ALONSO                                                     000000000000000000N
061995051353999000112009THILDA E. GONZALEZ MOLINA                                                    000000000000000000N
061995051353999000112011TMARIO IGNACIO LLAMAS ROMERO                                                 000000000000000000N
061995051353999000112014TLUCAS GONZALEZ CABRERA                                                      000000000000000000N
061995051353999000112015TPAULINO DE S. ALEJANDRO JIMENEZ SOSA                                        000000000000000000N
061995051353999000112017TMARIA JESUS SANTANA FERNANDEZ                                               000000000000000000N
061995051385999000112010TJUAN MANUEL FELIPE PEREZ                                                    000000000000000000N
061995051385999000112015TANTONIO ARTEAGA RODRIGUEZ                                                   000000000000000000N
061995051352999000112020TFRANCISCO CARLOS MELIAN FAJARDO                                             000000000000000000N
061995051384999000118001TROBERTO DORTA HERNANDEZ                                                     000000000000000000N
061995051384999000118002TFERNANDO BETHENCOURT RODRIGUEZ                                              000000000000000000N
061995051384999000118014TGREGORIO DOMINGUEZ RODRIGUEZ                                                000000000000000000N
061995051351999000128010TMARIA DE LA CONCEPCION DE ARMAS FARIÑA                                      000000000000000000N
061995051351999000128024TMANUEL ROMERO MORENTE                                                       000000000000000000N
061995051351999000128026THERMINIA PIMENTEL TEJERA                                                    000000000000000000N
061995051385999000128001TJOSE ERNESTO LUIS GONZALEZ AFONSO                                           000000000000000000S
061995051385999000128004TROSA MARIA REMEDIOS DIAZ RAMOS                                              000000000000000000S
061995051385999000128016TAQUILINO MANUEL ACOSTA PEREZ                                                000000000000000000N
061995051352999000128014TALFREDO MORALES ARMAS                                                       000000000000000000N
061995051387999000135007TAMADEO MIGUEL AYALA ALAMO                                                   000000000000000000N
061995051384999000138011TJOSE LUCIO GARCIA EUGENIO                                                   000000000000000000N
061995051352999000386004TCELSO BETANCOR DELGADO                                                      000000000000000000S
061995051352999000386005THIGINIO HERNANDEZ RODRIGUEZ                                                 000000000000000000S
061995051352999000386013TDOMINGO DELGADO MORIN                                                       000000000000000000N
061995051384999000001001TMELCHOR SANTIAGO NUÑEZ PEREZ                                                000000000000000000S
061995051384999000001004TVICTOR ALAMO SOSA                                                           000000000000000000S
061995051384999000001005TMARIA MERCEDES PEREZ SCHWARTZ                                               000000000000000000S
061995051384999000001007TCARMELO MENDEZ QUINTERO                                                     000000000000000000S
061995051384999000001014TMARIA DEL PILAR PEREZ VILLARROYA                                            000000000000000000N
061995051384999000001016TNICOLAS RODRIGUEZ MUNZENMAIER                                               000000000000000000N
061995051384999000001021TSANDRA MARIA DELGADO MELO                                                   000000000000000000N
061995051384999000001023TFRANCISCO AGUAZA GOMEZ                                                      000000000000000000N
061995051351999000001006TDEMETRIO SUAREZ DIAZ                                                        000000000000000000S
061995051351999000001007TMARCIAL FRANCO VEGA                                                         000000000000000000N
061995051351999000001009TANTONIO LUIS ALBA VILCHES                                                   000000000000000000N
061995051351999000001011TSEBASTIANA GONZALEZ NARANJO                                                 000000000000000000N
061995051351999000001012TANA ISABEL PEÑA MARTIN                                                      000000000000000000N
061995051351999000186010TCAYO YAÑEZ RODRIGUEZ                                                        000000000000000000N
061995051351999000186021TMARIA RUFINA QUINTANA LEON                                                  000000000000000000N
061995051351999000186029TMANUEL NARANJO CAZORLA                                                      000000000000000000N
061995051351999000187010TFRANCISCO JACINTO FLORIDO PEREZ                                             000000000000000000N
061995051351999000187015TARACELI OLIVA SOSA                                                          000000000000000000N
061995051351999000187018TALFONSO SAMPER CROISSIER                                                    000000000000000000N
061995051351999000187022TANTONIO PADRON CABRERA                                                      000000000000000000N
061995051351999000187026TOCTAVIO GUERRA FARRAY                                                       000000000000000000N
061995051384999000198022THERMOGENES PEREZ ACOSTA                                                     000000000000000000N
061995051384999000198023TMANUEL JOSE BORGES RIPOLL                                                   000000000000000000N
061995051352999000386006TLEOPOLDO CABRERA LASSO                                                      000000000000000000S
061995051352999000386007TMARCOS PAEZ MORALES                                                         000000000000000000S
061995051352999000386011TMARGARITA PAEZ GUADALUPE                                                    000000000000000000N
061995051352999000386020TMARGARITA D. MACHIN GONZALEZ                                                000000000000000000N
061995051386999000001001TCASIMIRO CURBELO CURBELO                                                    000000000000000000S
061995051386999000001005TMARIA NIEVES ADELA GONZALEZ CAMPORA                                         000000000000000000S
061995051353999000074010TJOSE ROGELIO PEREZ GARCIA-TALAVERA                                          000000000000000000N
061995051353999000074012TCELEDONIO SOTO MARRERO                                                      000000000000000000N
061995051353999000074014TBENITO GONZALEZ HERNANDEZ                                                   000000000000000000N
061995051351999000082009TFRANCISCO VAQUERO RODRIGUEZ                                                 000000000000000000N
061995051351999000082011TM. DOLORES GARCIA ALONSO                                                    000000000000000000N
061995051351999000082012TBENITO FERNANDEZ ALVAREZ                                                    000000000000000000N
061995051384999000082001TVICTOR MANUEL GARCIA BRUNETTO                                               000000000000000000N
061995051384999000082004TAGUSTINA FANTELA IÑIGO                                                      000000000000000000N
061995051384999000082009TNAIRA RODRIGUEZ PAZ                                                         000000000000000000N
061995051384999000082015TFERNANDO JUAN CABRERA TARRAGO                                               000000000000000000N
061995051384999000082019TFRANCISCO JOSE ALEMAN LOPEZ                                                 000000000000000000N
061995051384999000082026TJOSE ALBERTO GARCIA ALONSO                                                  000000000000000000N
061995051384999000082027TCARMEN AGUILAR DE LA GUARDIA                                                000000000000000000N
061995051351999000082029TM. SOLEDAD PARDO MILLAN                                                     000000000000000000N
061995051351999000096006TINES MARIA ANGULO SUAREZ                                                    000000000000000000N
061995051351999000096007TJUAN REYES GONZALEZ                                                         000000000000000000N
061995051386999000002010TGEORGIO RAMON MENDOZA RODRIGUEZ                                             000000000000000000N
061995051351999000002003TMIGUEL JORGE BLANCO                                                         000000000000000000S
061995051351999000002004TMARIA DEL PUY MARTIN AGREDA                                                 000000000000000000S
061995051351999000002006TVICTOR JORDAN GONZALEZ DE CHAVES                                            000000000000000000S
061995051351999000002011TJUAN SANTANA GONZALEZ                                                       000000000000000000S
061995051351999000002014TANDRES SILVESTRE RODRIGUEZ GONZALEZ                                         000000000000000000S
061995051351999000002015TARMANDO ALVAREZ ESTUPIÑAN                                                   000000000000000000N
061995051351999000002028TAURORA BARBUZANO HERNANDEZ                                                  000000000000000000N
061995051384999000002008TFRANCISCO JAVIER ARCAS LANTIGUA                                             000000000000000000N
061995051384999000002025TFRANCISCA DE LA ROSA SOSA                                                   000000000000000000N
061995051387999000002008TJOSE PEREZ ORTEGA                                                           000000000000000000N
061995051387999000002009TVIDAL PADRON HERNANDEZ                                                      000000000000000000N
061995051387999000002010TJOSE FRANCISCO ARTEAGA PADRON                                               000000000000000000N
061995051385999000002008TJOSE JUAN GARCIA RODRIGUEZ                                                  000000000000000000N
061995051352999000002003TSIMON JAVIER CIPRES ESPARZA                                                 000000000000000000S
061995051352999000002012TSEGUNDO RODRIGUEZ CAMACHO                                                   000000000000000000N
061995051384999000107024TRICARDO ALBERTO GUERRA PALMERO                                              000000000000000000N
061995051384999000109001TORLANDO PEREZ RODRIGUEZ                                                     000000000000000000N
061995051384999000109012TFERMIN PEREZ GONZALEZ                                                       000000000000000000N
061995051384999000109014TTEOFILO RODRIGUEZ MARTIN                                                    000000000000000000N
061995051384999000109026TCAMILO MORIN TORRES                                                         000000000000000000N
061995051386999000112001TMANUEL BENITO HERRERA MESA                                                  000000000000000000S
061995051386999000112005TLUZ MARINA HERRERA HERNANDEZ                                                000000000000000000N
061995051386999000112009TRIGOBERTO NIEBLA GARCIA                                                     000000000000000000N
061995051351999000112012TDIEGO ALEXIS ORIHUELA SUAREZ                                                000000000000000000N
061995051351999000112018TDOINA DEL CARMEN FONTE CHACON                                               000000000000000000N
061995051351999000112024TFRANCISCO RODRIGUEZ MANCEÑIDO                                               000000000000000000N
061995051384999000112011TMANUEL HERNANDEZ GONZALEZ                                                   000000000000000000N
061995051384999000112016TMARIA VANESA NEGRIN RAMOS                                                   000000000000000000N
061995051384999000112018TELINA BENCOMO ASCAÑO                                                        000000000000000000N
061995051384999000112021TCARMEN ROSA GARCIA MESEGUER                                                 000000000000000000N
061995051384999000112026TFELIX ALBERTO IBAÑEZ ALONSO                                                 000000000000000000N
061995051384999000182017TRODOLFO PIMIENTA MARTIN                                                     000000000000000000N
061995051351999000185003TIGNACIO HILARIO GUERRA DEL ROSARIO                                          000000000000000000N
061995051351999000185007TJOSE SANTANA PEREZ                                                          000000000000000000N
061995051351999000185016TOMAR FRANQUELO ROBLES                                                       000000000000000000N
061995051351999000185017TOSCAR LEOPOLDO SUAREZ ESPINO                                                000000000000000000N
061995051352999000128021TRAFAEL SILVA BETANCOR                                                       000000000000000000N
061995051387999000135001TTOMAS PADRON HERNANDEZ                                                      000000000000000000S
061995051387999000135003TPILAR I. MORA GONZALEZ                                                      000000000000000000S
061995051384999000138022TJOSE ANGEL GONZALEZ PEREZ                                                   000000000000000000N
061995051353999000001002TOLIVIA ESTEVEZ SANTANA                                                      000000000000000000S
061995051353999000001012TCAMILO MESA GONZALEZ                                                        000000000000000000N
061995051353999000001014TMIGUEL S. GONZALEZ MONTAÑES                                                 000000000000000000N
061995051353999000001016TMARIA MONSERRAT CABRERA PERDOMO                                             000000000000000000N
061995051385999000001003TVICTOR MIGUEL NAZCO HERNANDEZ                                               000000000000000000S
061995051352999000001002TCARMELO GARCIA DENIZ                                                        000000000000000000S
061995051352999000001003TFLORENCIO SUAREZ RODRIGUEZ                                                  000000000000000000S
061995051352999000001004TJUANA HERNANDEZ BRITO                                                       000000000000000000S
061995051352999000001011TAGUSTIN JOSE CABERA PERDOMO                                                 000000000000000000N
061995051352999000001013TPALMIRA MARIA ROMERO PEREZ                                                  000000000000000000N
061995051352999000001018TDOMINGO GIL PADRON                                                          000000000000000000N
061995051386999000002005TMIGUEL ANTONIO ALCON ASCANIO                                                000000000000000000N
061995051386999000002011TSEBASTIAN GARCIA MEDINA                                                     000000000000000000N
061995051351999000002012TRAFAEL VICTOR RODRIGUEZ SANCHEZ                                             000000000000000000S
061995051351999000002017TJUAN MANUEL RAMIREZ SANTIAGO                                                000000000000000000N
061995051351999000002022TESTANISLAO SUAREZ SANCHEZ                                                   000000000000000000N
061995051352999000168004TGERVASIO BONEL SANZ                                                         000000000000000000N
061995051384999000182008TMARIA JESUS MARRERO MEDEROS                                                 000000000000000000N
061995051384999000182015TEUSEBIO F. PEREZ SANCHEZ                                                    000000000000000000N
061995051351999000185006TFRANCISCO SARMIENTO SUAREZ                                                  000000000000000000N
061995051351999000185015TLEONARDO J. QUINTANA CHOCHO                                                 000000000000000000N
061995051351999000185024TROSENDO JOSE MEDINA VEGA                                                    000000000000000000N
061995051351999000187016TSANTIAGO TADEO GONZALEZ                                                     000000000000000000N
061995051351999000187020TJOSE TOMAS GUERRA SUAREZ                                                    000000000000000000N
061995051351999000187021TMANUEL MARTINEZ MARTINEZ                                                    000000000000000000N
061995051384999000198003TRICARDO MELCHOR NAVARRO                                                     000000000000000000S
061995051384999000198004TRAFAEL GUILLERMO DE SAJA SAEZ                                               000000000000000000S
061995051352999000386002TPEDRO M. DE ARMAS SANGINES                                                  000000000000000000S
061995051352999000386010TJOSE DOMINGO PEREZ NUÑEZ                                                    000000000000000000N
061995051352999000386012TSERAPIO M. ROJAS DE LEON                                                    000000000000000000N
061995051352999000386018TJUAN FRANCISCO BETANCOR BARRETO                                             000000000000000000N
061995051386999000001004TPEDRO LUIS GARCIA CORREA                                                    000000000000000000S
061995051384999000002024TMARIA PATRICIA HODGSON RAVINA                                               000000000000000000N
061995051353999000002001TMIGUEL SANCHEZ VELAZQUEZ                                                    000000000000000000S
061995051353999000002009THERMENEGILDO MARTIN RODRIGUEZ                                               000000000000000000N
061995051353999000002012TMARIA DOLORES GIL CARBALLO                                                  000000000000000000N
061995051353999000002017TESTHER DEL MAR SUAREZ MARTIN                                                000000000000000000N
061995051385999000002010TANTONIO RODRIGUEZ FERNANDEZ                                                 000000000000000000N
061995051385999000002011TROSALIA PEREZ HERNANDEZ                                                     000000000000000000N
061995051352999000002008TELIZABETH ANDREA DE LEON EXPOSITO                                           000000000000000000N
061995051352999000002013TALICIA MARIA MESA HERNANDEZ                                                 000000000000000000N
061995051352999000002016TLUIS SOCAS HERNANDEZ                                                        000000000000000000N
061995051352999000002018TPABLO BEDOYA GONZALEZ                                                       000000000000000000N
061995051351999000082027TM. NIEVES DELGADO SANCHEZ                                                   000000000000000000N
061995051384999000082005TMARIA DEL MAR MARTIN VIERA                                                  000000000000000000N
061995051384999000082020TFERMIN ALBERTO GALLEGO SANTANA                                              000000000000000000N
061995051384999000082025TMARIA SOLEDAD ARMAS RODRIGUEZ                                               000000000000000000N
061995051384999000096002TNARDO ALBERTO RAMOS CHINEA                                                  000000000000000000N
061995051384999000118018TLUIS ENRIQUE RODRIGUEZ GARCIA                                               000000000000000000N
061995051384999000118021TJOAQUIN ANTONIO HERNANDEZ GARCIA                                            000000000000000000N
061995051384999000118025TNARCISA SUAREZ GONZALEZ                                                     000000000000000000N
061995051384999000118026TMILAGROS ALONSO SUAREZ                                                      000000000000000000N
061995051386999000128007TANTONIO CONCEPCION CACERES                                                  000000000000000000N
061995051351999000128001TCARMELO RAMIREZ MARRERO                                                     000000000000000000S
061995051351999000128011TANTONIO OJEDA HERRERA                                                       000000000000000000N
061995051351999000128014TNORBERTO PEDRO PEREZ MONTESDEOCA                                            000000000000000000N
061995051351999000128021TFRANCISCO AFONSO CABRERA                                                    000000000000000000N
061995051351999000128022TJUAN UMPIERREZ CABRERA                                                      000000000000000000N
061995051351999000128025TSANTIAGO CORREDERA SUAREZ                                                   000000000000000000N
061995051353999000128011TGONZALO GONZALEZ SANTANA                                                    000000000000000000N
061995051353999000128012TMANUEL J. FLEITAS PERDOMO                                                   000000000000000000N
061995051385999000128002TJOSE LUIS PERESTELO RODRIGUEZ                                               000000000000000000S
061995051385999000128014TEMILIO LORENZO BRITO                                                        000000000000000000N
061995051385999000128019TJUAN ROBERTO MARTIN LEON                                                    000000000000000000N
061995051385999000128020TGELASIO MARANTE PEREZ                                                       000000000000000000N
061995051385999000001004TALVARO ANTONIO CARBALLO HERNANDEZ                                           000000000000000000S
061995051385999000001008TARTEMIO ABREU GARCIA                                                        000000000000000000S
061995051385999000001009TJUAN ANTONIO DIAZ MARTIN                                                    000000000000000000S
061995051385999000001018TJULIO LEAL PEREZ                                                            000000000000000000N
061995051385999000001021TEDUARDO DELFIN ANGLES SANTOS                                                000000000000000000N
061995051352999000001010TEMILIO CARLOS SAENZ MELERO                                                  000000000000000000N
061995051352999000001019TSANTIAGO HERNANDEZ MARTIN                                                   000000000000000000N
061995051386999000002009TROSA ANGELICA FEBLES MARICHAL                                               000000000000000000N
061995051351999000002001TJOSE MACIAS SANTANA                                                         000000000000000000S
061995051351999000002013TMARIA JULIA GODOY GONZALEZ                                                  000000000000000000S
061995051351999000002016TFRANCISCO CARRERAS IRIMIA                                                   000000000000000000N
061995051351999000002023TMARIA DEL CARMEN CASTELLANO RODRIGUEZ                                       000000000000000000N
061995051351999000002026TCARMEN DELIA MARTIN MEDEROS                                                 000000000000000000N
061995051351999000002027TBENJAMIN PEDRO MARTIN SAAVEDRA                                              000000000000000000N
061995051384999000002010TMARIA LUZ GOYA PEREZ                                                        000000000000000000N
061995051384999000002022TCELIA LOURDES FUMERO TORRES                                                 000000000000000000N
061995051385999000112006TVICENTE RODRIGUEZ LORENZO                                                   000000000000000000N
061995051385999000112007TGREGORIO GARCIA PEREZ                                                       000000000000000000N
061995051385999000112008TALFREDO PEREZ DIEZ                                                          000000000000000000N
061995051385999000112011TCARMELO PEREZ MARTIN                                                        000000000000000000N
061995051352999000112006TPEDRO JAVIER LEAL CEDRES                                                    000000000000000000N
061995051352999000112013TJUAN BLASI SUGRAÑES                                                         000000000000000000N
061995051352999000112014TRAMON JOSE RODRIGUEZ MORALES                                                000000000000000000N
061995051352999000112017TJOSE BERNARDO QUEVEDO ARROCHA                                               000000000000000000N
061995051387999000116005TJUAN CARLOS HERNANDEZ MORALES                                               000000000000000000N
061995051384999000118012TFERNANDO BATISTA RODRIGUEZ                                                  000000000000000000N
061995051384999000118013TBLANCA DORTA GUERRA                                                         000000000000000000N
061995051384999000118016TFRANCISCO HILARIO PACHECO LUIS                                              000000000000000000N
061995051384999000118017TJOSE ANTONIO FERNANDEZ FERNANDEZ                                            000000000000000000N
061995051386999000128002TDOMINGO GERARDO HERRERA RODRIGUEZ                                           000000000000000000S
061995051386999000128003TPEDRO ANICETO MEDINA CALERO                                                 000000000000000000S
061995051351999000128017TPEDRO PABLO SANCHEZ RAMOS                                                   000000000000000000N
061995051351999000186004TJOSEFA CORTIJOS MORALES                                                     000000000000000000N
061995051351999000186006TFRANCISCO JESUS CABRERA PERERA                                              000000000000000000N
061995051351999000186019TJUAN MANUEL LOPEZ ALAMO                                                     000000000000000000N
061995051351999000187001TANTONIO ZAMORA MARTINEZ                                                     000000000000000000N
061995051351999000187002TNICOLAS DIAZ SAAVEDRA DE MORALES                                            000000000000000000N
061995051351999000187004TCARLOS JORGE QUINTANA GUERRA                                                000000000000000000N
061995051351999000187012TRAFAEL GUERRA ALEMAN                                                        000000000000000000N
061995051351999000187025TJUAN MANUEL MUJICA SUAREZ                                                   000000000000000000N
061995051384999000198018TGUMERCINDO URQUIZA RIEU                                                     000000000000000000N
061995051384999000198021TJOSE LORENZO CHIYAH SUAREZ                                                  000000000000000000N
061995051384999000198024TSALVADOR GARCIA DIAZ                                                        000000000000000000N
061995051352999000386008TPLACIDA GUERRA CABRERA                                                      000000000000000000S
061995051352999000386015TJUAN PEDRO HERNANDEZ RODRIGUEZ                                              000000000000000000N
061995051386999000001002TJUAN ALONSO HERRERA CASTILLA                                                000000000000000000S
061995051386999000001006TSILVIA INMACULADA PIÑERO HERRERA                                            000000000000000000S
061995051386999000001008TMANUEL RAMON PLASENCIA BARROSO                                              000000000000000000N
061995051385999000002006TCARMEN ROSA RODRIGUEZ FERNANDEZ                                             000000000000000000N
061995051352999000002006TGABRIELA MARIA CABRERA TABARES                                              000000000000000000N
061995051351999000082006TLILIAN R. CABRERA LERMO                                                     000000000000000000N
061995051351999000082022TMARCOS FUENTES ESTEVEZ                                                      000000000000000000N
061995051351999000082025TIGNACIO J. HERNANDEZ PEREZ                                                  000000000000000000N
061995051384999000082006TSANTOS LOPEZ CRUZ                                                           000000000000000000N
061995051384999000096003TINOCENCIO HERNANDEZ VAYES                                                   000000000000000000N
061995051384999000096008TMARIA ESTHER GONZALEZ MARTIN                                                000000000000000000N
061995051384999000096009TVICENTE MANUEL DORTA ALVARO                                                 000000000000000000N
061995051351999000096009TFRANCISCO JAVIER GARCIA MARTEL                                              000000000000000000N
061995051351999000096012TMARIA LUZ LLANEZ MENENDEZ                                                   000000000000000000N
061995051351999000096018TGUILLERMO ALFONSO ESQUIVEL YEEBACH                                          000000000000000000N
061995051351999000096021TMANUEL VALLADARES POUSADA                                                   000000000000000000N
061995051351999000096022TJUAN RAMON GARCIA MARTEL                                                    000000000000000000N
061995051351999000096028TTOMAS ROS ALMIRON                                                           000000000000000000N
061995051387999000096001TMANUEL LUIS ESPINOSA KRAWANY                                                000000000000000000N
061995051351999000112001TJUSTO JULIO SOTO SUAREZ                                                     000000000000000000N
061995051351999000112008TMARIA JESUS ROMERO QUINTANA                                                 000000000000000000N
061995051351999000112011TMARIA DE LOS REYES PONCE CABRERA                                            000000000000000000N
061995051351999000112013TANA MARIA SANCHEZ SUAREZ                                                    000000000000000000N
061995051351999000112015TANTONIO PERALES DASI                                                        000000000000000000N
061995051351999000112016TVALERIANO CABRERA HERNANDEZ                                                 000000000000000000N
061995051384999000112008TTOMAS JUAN RODRIGUEZ RODRIGUEZ                                              000000000000000000N
061995051384999000112010TPABLO PEDRO GONZALEZ LOPEZ                                                  000000000000000000N
061995051384999000112024TLIDIA ESTHER ADAN CANINO                                                    000000000000000000N
061995051387999000112002TJOSE MANUEL PADRON QUINTERO                                                 000000000000000000N
061995051353999000112004TNEMESIO FAJARDO PERDOMO                                                     000000000000000000N
061995051353999000112008TMARIA DEL CARMEN SOSA GARCIA                                                000000000000000000N
061995051353999000112010TMARIA GUADALUPE ESPINO RODRIGUEZ                                            000000000000000000N
061995051353999000112016TOLIMPIA CARDONA ARMAS                                                       000000000000000000N
061995051352999000112019TENCARNACION LUIS GONZALEZ                                                   000000000000000000N
061995051387999000116001TAURELIO AYALA FONTE                                                         000000000000000000N
061995051353999000096005TINMACULADA JIMENEZ RODRIGUEZ DEL VALLE                                      000000000000000000N
061995051385999000096011TMARIA MONSERRAT CAMACHO LORENZO                                             000000000000000000N
061995051352999000096009TOSCAR LUIS DE LEON DELGADO                                                  000000000000000000N
061995051352999000096010TTEODORA HERNANDEZ CABRERA (INDEPENDIENTE)                                   000000000000000000N
061995051352999000096013TJESUS ANTONIO HERNANDEZ ROMERO                                              000000000000000000N
061995051352999000096021TFRANCISCA DE LEON ROBAINA                                                   000000000000000000N
061995051384999000107008TMARIA BEGOÑA FLEITAS MORALES                                                000000000000000000N
061995051384999000107010TELIAS GREGORIO GERARDO CONCEPCION GONZALEZ INDEPEN                          000000000000000000N
061995051384999000107022TJOSE ANGEL HERNANDEZ DUARTE                                                 000000000000000000N
061995051384999000107025TRODRIGO ALVARO MORELL GONZALEZ                                              000000000000000000N
061995051384999000109005THIPOLITO ALONSO GUTIERREZ                                                   000000000000000000N
061995051384999000109008TFERMIN MARRERO GARCIA                                                       000000000000000000N
061995051384999000109010TJOSE MIGUEL HERNANDEZ PEREZ                                                 000000000000000000N
061995051384999000109015TMARIA DEL PILAR ALVAREZ GALVEZ                                              000000000000000000N
061995051384999000109020TBARCINO HERNANDEZ MARTIN                                                    000000000000000000N
061995051384999000109025TMARIA JESUS GARCIA DE ARMAS                                                 000000000000000000N
061995051384999000107004TPEDRO ANIBAL DE ARMAS EXPOSITO                                              000000000000000000N
061995051384999000107009TALBERTO MARTIN MEDINA                                                       000000000000000000N
061995051384999000107021TCELIA NIEVES RAMOS CORDERO                                                  000000000000000000N
061995051384999000107026TJULIO CEDRES PEREZ                                                          000000000000000000N
061995051384999000109009TJUAN SARIOL RIERA                                                           000000000000000000N
061995051386999000112002TJOSE LUIS HERNANDEZ HERNANDEZ                                               000000000000000000N
061995051386999000112010TSEBASTIAN SANCHEZ SIVERIO                                                   000000000000000000N
061995051386999000112012TMANUEL TOMAS MENDOZA BENCOMO                                                000000000000000000N
061995051351999000112020TMARIA DE LA LUZ PEREZ TORRES                                                000000000000000000N
061995051384999000112001TJOSE MANUEL CORRALES AZNAR                                                  000000000000000000S
061995051384999000112003TRAFAEL NAZARIO MEDINA SANTOS                                                000000000000000000N
061995051384999000112004TJUAN LUIS RODRIGUEZ LUENGO                                                  000000000000000000N
061995051384999000112005TISORA MARTIN BARROSO                                                        000000000000000000N
061995051384999000112019TJOSE FIERROS SIERRA                                                         000000000000000000N
061995051387999000112003TJUAN AMADEO GONZALEZ PADRON                                                 000000000000000000N
061995051385999000112003TMARIA LOURDES MARTIN HERRERA                                                000000000000000000N
061995051351999000185005TANTONIO BASILIO ORDOÑEZ SANCHEZ                                             000000000000000000N
061995051351999000185010TSANTIAGO EULOGIO QUINTANA GARCIA                                            000000000000000000N
061995051351999000185019TFRANCISCO RAMIREZ RODRIGUEZ                                                 000000000000000000N
061995051351999000185023THERIBERTO GARCIA QUINTANA                                                   000000000000000000N
061995051351999000186026TEUGENIO A. ALEMAN RAMIREZ                                                   000000000000000000N
061995051351999000186027TBLAS AGUSTIN GARCIA ORTEGA                                                  000000000000000000N
061995051351999000186028TFRANCISCO SANTANA SANTANA                                                   000000000000000000N
061995051351999000187027TJESUS GONZALEZ PEREZ                                                        000000000000000000N
061995051384999000198008TFRANCISCO JAVIER BELLO ESQUIVEL                                             000000000000000000S
061995051384999000198010TALBERTO GENOVA GALVAN                                                       000000000000000000S
061995051384999000198011TDULCE XERACH PEREZ LOPEZ                                                    000000000000000000S
061995051384999000198012TDOMINGO CALZADILLA FERRERA                                                  000000000000000000S
061995051384999000198013TLORENZO DORTA GARCIA                                                        000000000000000000N
061995051384999000198016TFERNAN BRAVO LOPEZ                                                          000000000000000000N
061995051384999000198017TJOSE CARLOS FRANCISCO DIAZ                                                  000000000000000000N
061995051384999000198026TZOILO MANUEL SAAVEDRA RAMOS                                                 000000000000000000N
061995051384999000138027TANTONIO GOMEZ LEON                                                          000000000000000000N
061995051352999000163001TJUAN RAFAEL ARROCHA ARROCHA                                                 000000000000000000N
061995051352999000163003TORLANDO LEON BARRIOS                                                        000000000000000000N
061995051352999000163013TJUAN JOSE BETANCORT HERNANDEZ                                               000000000000000000N
061995051352999000168001TPEDRO MARCIAL VIERA ESPINOSA                                                000000000000000000N
061995051352999000168002TFRANCISCO SILVA LOPEZ                                                       000000000000000000N
061995051352999000168013TJUAN OJEDA QUINTANA                                                         000000000000000000N
061995051352999000168016TPETRA MARIA BATISTA APARICIO                                                000000000000000000N
061995051352999000168018TMARIA INMACULADA VEGA SAIZ                                                  000000000000000000N
061995051384999000182002TANTONIO L. CUBILLO FERREIRA                                                 000000000000000000N
061995051384999000182003TJOSE ANTONIO EXPOSITO NODA                                                  000000000000000000N
061995051384999000182004TMARIA JESUS L. HERNANDEZ GONZALEZ                                           000000000000000000N
061995051384999000182014TJOSE ANTONIO GUADARRAMA SAN LUIS                                            000000000000000000N
061995051384999000182018TFEDERICO NODA GARCIA                                                        000000000000000000N
061995051351999000185025TANDREA DE LAS MARIAS CACERES ARTILES                                        000000000000000000N
061995051351999000186009TSEBASTIAN HENRIQUEZ VALIDO                                                  000000000000000000N
061995051384999000002026TGUILLERMO CASTILLA PADILLA                                                  000000000000000000N
061995051387999000002004TCARMEN ISABEL AVILA PADRON                                                  000000000000000000N
061995051387999000002011TCARMEN DOLORES PADRON CASTAÑEDA                                             000000000000000000N
061995051353999000002002TJUAN ESTARICO QUINTANA                                                      000000000000000000S
061995051353999000002003TSILVESTRE DE LEON CABRERA                                                   000000000000000000S
061995051353999000002004TDOMINGO GONZALEZ ARROYO                                                     000000000000000000S
061995051353999000002005TANTONIO RODRIGUEZ CABRERA                                                   000000000000000000N
061995051353999000002006TFRANCISCO BATISTA DIAZ                                                      000000000000000000N
061995051385999000002003TJOSE MARIA ESCUDER MARTIN                                                   000000000000000000S
061995051385999000002012TPEDRO MIGUEL MARTIN MARTIN                                                  000000000000000000N
061995051385999000002014TVICENTE FRANCISCO ALVAREZ PADRON                                            000000000000000000N
061995051385999000002020TANA MARIA MARTIN MARTIN                                                     000000000000000000N
061995051352999000002011TFRANCISCA MARIA SOTO GARRIDO                                                000000000000000000N
061995051352999000002019TALFONSO ANTONIO MARTIN SOCAS                                                000000000000000000N
061995051353999000074002TJOSE JORGE MONSERRAT                                                        000000000000000000S
061995051353999000074007TMIGUEL BRITO PADILLA                                                        000000000000000000N
061995051353999000074008TVICENTE CABRERA HERNANDEZ                                                   000000000000000000N
061995051386999000001012TJOSE GARCIA PLASENCIA                                                       000000000000000000N
061995051351999000001001TCARMELO ARTILES BOLAÑOS                                                     000000000000000000S
061995051351999000001003TDOMINICA FERNANDEZ FERNANDEZ                                                000000000000000000S
061995051384999000001002TJOSE MIGUEL RODRIGUEZ FRAGA                                                 000000000000000000S
061995051384999000001013TMANUEL MORENO BARRIONUEVO                                                   000000000000000000N
061995051351999000001010TJOSE LUIS BATISTA COSTA                                                     000000000000000000N
061995051351999000001025TFERNANDO MARRERO TRUJILLO                                                   000000000000000000N
061995051353999000001007TJUAN ANGEL GUTIERREZ HERNANDEZ                                              000000000000000000N
061995051353999000001008TMARIA JESUS PERDOMO PERDOMO                                                 000000000000000000N
061995051353999000001013TJOSE LUIS GONZALEZ DUMPIERREZ                                               000000000000000000N
061995051353999000001015TANTONIO JUAN NUEVO HIDALGO                                                  000000000000000000N
061995051385999000001011TAURELIO PEREZ MACHIN                                                        000000000000000000N
061995051385999000001015TLUZ MARIA BRITO BRITO                                                       000000000000000000N
061995051385999000001016TNIEVES MARIA CABRERA GONZALEZ                                               000000000000000000N
061995051385999000001020TCONCEPCION ARMENIA LOPEZ RODRIGUEZ                                          000000000000000000N
061995051352999000001006TSEGUNDO RODRIGUEZ GONZALEZ                                                  000000000000000000S
061995051384999000096016TFRANCISCO ALEJANDRO RUIZ MENENDEZ                                           000000000000000000N
061995051384999000096018TANA ROSA MENA DE DIOS                                                       000000000000000000N
061995051384999000096019TMARIA CRISTINA ESPINOSA SANTANA                                             000000000000000000N
061995051384999000096023TMARIA BENCOMO PIÑEIRO                                                       000000000000000000N
061995051384999000096024TFRANCISCO RAFAEL VAZQUEZ FRESNEDA                                           000000000000000000N
061995051384999000096026TMARIA CORALIA QUINTERO CASANOVA                                             000000000000000000N
061995051351999000096015TCARLOS LEON PEÑATE                                                          000000000000000000N
061995051351999000096017TBELEN GONZALEZ TACORONTE                                                    000000000000000000N
061995051353999000096002TPABLO RODRIGUEZ RODRIGUEZ                                                   000000000000000000N
061995051353999000096006TRAFAEL JOSE MORALES CEDRES                                                  000000000000000000N
061995051353999000096012TTOMAS ENRIQUE RODRIGUEZ TRUJILLO                                            000000000000000000N
061995051385999000096001TROSENDO RODRIGUEZ GONZALEZ                                                  000000000000000000N
061995051385999000096017TFRANCISCO ORESTES PEREZ ROCHA                                               000000000000000000N
061995051352999000096002TRUPERTO MORALES LUGO                                                        000000000000000000N
061995051384999000107011TRUBENS ASCANIO GOMEZ                                                        000000000000000000N
061995051384999000107020TJOSE SANTIAGO RAMALLO PIÑA                                                  000000000000000000N
061995051352999000128013TRAFAEL SASTRE MERINERO                                                      000000000000000000N
061995051352999000128019TEDUARDO FUENTES LUIS                                                        000000000000000000N
061995051387999000135004TCAYO FRANCISCO ARMAS BENITEZ                                                000000000000000000S
061995051387999000135011TCARMELO ELADIO PADRON QUINTERO                                              000000000000000000N
061995051384999000138001TANGEL SANTIAGO ALVAREZ CEJAS                                                000000000000000000N
061995051384999000138010TJULIO OSUNA SANCHEZ                                                         000000000000000000N
061995051384999000138013TJUAN VIDAL GARCIA SANCHEZ                                                   000000000000000000N
061995051384999000138015TANTONIO LUIS RAMOS BERMUDEZ                                                 000000000000000000N
061995051384999000138026TPEDRO HERNANDEZ CARRILLO                                                    000000000000000000N
061995051352999000163002TESTEBAN BETANCORT BONILLA                                                   000000000000000000N
061995051352999000163010TMANUEL MONTELONGO ESPINOSA                                                  000000000000000000N
061995051352999000163019TMARIA TERESA BARRETO PERAZA                                                 000000000000000000N
061995051352999000168007TJUAN ADELTO RODRIGUEZ ESPINO                                                000000000000000000N
061995051352999000168021TANTONIO MANUEL REYES ROBAINA                                                000000000000000000N
061995051384999000182009TJOSE GARCIA GONZALEZ                                                        000000000000000000N
061995051384999000182011TJOSE BARRETO ALVAREZ                                                        000000000000000000N
061995051384999000002023TMONTSERRAT ABRANTE RODRIGUEZ                                                000000000000000000N
061995051353999000002007TMANUEL LLAN MATOS                                                           000000000000000000N
061995051353999000002008TCANDIDO SANTANA JIMENEZ                                                     000000000000000000N
061995051353999000002010TJAVIER MONTALVO FERNANDEZ                                                   000000000000000000N
061995051353999000002011TTOMAS BRITO GONZALEZ                                                        000000000000000000N
061995051353999000002013TMARIA DEL CARMEN ARTERO NAVARRO                                             000000000000000000N
061995051385999000002007TBLAS FELIPE VAN DE WALLE HERNANDEZ                                          000000000000000000N
061995051385999000002018TMONTSERRAT ZAMORA MORALES                                                   000000000000000000N
061995051352999000002001TJULIO PEDRO ROMERO ORTEGA                                                   000000000000000000S
061995051353999000074003TGONZALO BAEZ ALTABA                                                         000000000000000000S
061995051353999000074004TMARCELINO FIGUEROA UMPIERREZ                                                000000000000000000S
061995051353999000074005TLUIS DEL POZO BESTARD                                                       000000000000000000N
061995051353999000074009TJOSE RAMON VERA PEÑA                                                        000000000000000000N
061995051353999000074017TCIRILO JOSE PEÑA RODRIGUEZ                                                  000000000000000000N
061995051351999000082003TCONCEPCION PAZ GIL                                                          000000000000000000N
061995051351999000082017TSANTIAGO SANCHEZ DEVORA                                                     000000000000000000N
061995051351999000082018TJOSEFINA SUAREZ DIAZ                                                        000000000000000000N
061995051351999000128027TCARLOS JUAN YAÑEZ OJEDA                                                     000000000000000000N
061995051353999000128003TPEDRO MANUEL GONZALEZ SANCHEZ                                               000000000000000000S
061995051353999000128006TMARIO CABRERA GONZALEZ                                                      000000000000000000S
061995051353999000128016TBONIFACIO S. RAMON TORRES MARTIN                                            000000000000000000N
061995051385999000128005TGERARDO FRANCISCO HERNANDEZ RODRIGUEZ                                       000000000000000000S
061995051351999000186001TTOMAS PULIDO CASTRO                                                         000000000000000000N
061995051387999000001002TJUAN RAFAEL ZAMORA PADRON                                                   000000000000000000S
061995051353999000001005TCARLOS JAVIER FIGUEROA BENITEZ                                              000000000000000000N
061995051385999000001007TJUAN FERNANDO TABARES BRAVO                                                 000000000000000000S
061995051385999000001012TISABEL PEREZ TORRES                                                         000000000000000000N
061995051352999000001014TJUAN PEREZ RODRIGUEZ                                                        000000000000000000N
061995051352999000001015TFELIPE HERNANDEZ FUENTES                                                    000000000000000000N
061995051386999000002004TDOMINGO FELIPE CORREA                                                       000000000000000000N
061995051386999000002013TJUAN NICOLAS BARRERA ARMAS                                                  000000000000000000N
061995051384999000002003TEDUARDO PINTADO MASCAREÑO                                                   000000000000000000S
061995051351999000002010TMARIO HERNANDEZ SAN GINES                                                   000000000000000000S
061995051351999000002020TMARCOS ARTIGAS CARRAU                                                       000000000000000000N
061995051384999000002013TMANUEL CRIADO ORTEGA                                                        000000000000000000N
061995051384999000002014TISIDRO DORTA GONZALEZ                                                       000000000000000000N
061995051384999000002015TVICENTA DIAZ SAEZ                                                           000000000000000000N
061995051384999000002017TFRANCISCO MANUEL VARGAS BORGES                                              000000000000000000N
061995051384999000002019TMARIA DEL CARMEN LEYES TRUJILLO                                             000000000000000000N
061995051351999000001002TFRANCISCO RAMOS CAMEJO                                                      000000000000000000S
061995051384999000001012TCARMEN ESPERANZA GUTIERREZ DORTA                                            000000000000000000N
061995051384999000001019TJOSE MIGUEL MATOS DEL PINO                                                  000000000000000000N
061995051384999000001022TDIEGO DE ALCALA FERNANDEZ MARTIN                                            000000000000000000N
061995051351999000001005TJUAN JOSE ESPINO DEL TORO                                                   000000000000000000S
061995051351999000001018TTERESA MARIA MARRERO ALAMO                                                  000000000000000000N
061995051351999000001020TTOMAS PEREZ JIMENEZ                                                         000000000000000000N
061995051351999000001021TANTONIO ARTILES RAMOS                                                       000000000000000000N
061995051387999000001003TJUAN CASTAÑEDA ACOSTA                                                       000000000000000000S
061995051387999000001011TMARIA SOLEDAD ROSARIO ALVAREZ                                               000000000000000000N
061995051353999000001009TJOSE ANTONIO BETANCOR CANO                                                  000000000000000000N
061995051385999000001010TALBERTO ANTONIO TAÑO MARTIN                                                 000000000000000000N
061995051352999000001005TMIGUEL LEAL CEDRES                                                          000000000000000000S
061995051352999000001009TROSA DELIA MACHADO CAÑADA                                                   000000000000000000N
061995051352999000001016TESMERALDA FRANCO MORALES                                                    000000000000000000N
061995051351999000096011TFRANCISCO CABRERA RAMIREZ                                                   000000000000000000N
061995051351999000096014TJOSE JUAN ARENCIBIA ALEMAN                                                  000000000000000000N
061995051351999000096016TJOSE JUAN GONZALEZ SUAREZ                                                   000000000000000000N
061995051387999000096002TRAMON QUINTERO GUTIERREZ                                                    000000000000000000N
061995051387999000096004TMARIA CARMEN SANCHEZ HERNANDEZ                                              000000000000000000N
061995051353999000096004TEUGENIO PEÑA MARICHAL                                                       000000000000000000N
061995051352999000096005TM. MERCEDES MARTIN HERNANDEZ (INDEPENDIENTE) Do^a                           000000000000000000N
061995051352999000096006TLUISA E. FIGUERA LLAMAS                                                     000000000000000000N
061995051352999000096007TJOSE DOMINGO PERERA PEREZ                                                   000000000000000000N
061995051352999000096008TGREGORIO L. FERNANDEZ MOSEGUE                                               000000000000000000N
061995051352999000096018TMARIA FERMINA REGUERA DIAZ                                                  000000000000000000N
061995051384999000107001TJUAN MANUEL RAYA PEREZ                                                      000000000000000000N
061995051384999000109003TJOSE IGNACIO GONZALEZ ESPINOSA                                              000000000000000000N
061995051384999000109011TCARLOS JAVIER MARTIN MEDINA                                                 000000000000000000N
