071989061999999000020025TMARIA JOSEFA DEL PILAR GONZALEZ                                             000000000000000000N
071989061999999000020026TFRANCISCO RODRIGUEZ DE HINOJOSA                                             000000000000000000N
071989061999999000020027TJESUS MARTINEZ TRILLO FIGUEROA                                              000000000000000000N
071989061999999000020028TJOSE A. REY SERRANO                                                         000000000000000000N
071989061999999000020029TCONSUELO MARTINEZ GALLEGO                                                   000000000000000000N
071989061999999000020030TJUAN CONFORTO GARCIA                                                        000000000000000000N
071989061999999000020031TANTONIO MOLERO ALFAGEME                                                     000000000000000000N
071989061999999000020032TMARIA VICTORIA CHAIN RUIZ                                                   000000000000000000N
071989061999999000020033TJESUS DE PAREDES TERUEL                                                     000000000000000000N
071989061999999000020034TVENTURA ABELLAN RUFETE                                                      000000000000000000N
071989061999999000020035TMANUEL MARTINEZ GONZALEZ                                                    000000000000000000N
071989061999999000020036TANTOLIN FUENTEFRIA GOMEZ                                                    000000000000000000N
071989061999999000020037TCARLOS ROMAN BRETON                                                         000000000000000000N
071989061999999000020038TPATROCINIO CASTAÑEDA MARTIN                                                 000000000000000000N
071989061999999000020039TMANUEL PEREIRA DE LA GUARDIA                                                000000000000000000N
071989061999999000020040TMANUEL CARO GABUCIO                                                         000000000000000000N
071989061999999000020041TJESUS SAN FELIPE RAMIREZ DE ARELLANO                                        000000000000000000N
071989061999999000020042TIGNACIO JIMENEZ PRIETO                                                      000000000000000000N
071989061999999000020043TFERNANDO ALONSO MORAN                                                       000000000000000000N
071989061999999000020044TJULIO PEDRAZA PEDRAZA                                                       000000000000000000N
071989061999999000020045TALMUDENA JURADO ROBLES                                                      000000000000000000N
071989061999999000020046TPABLO DOMINGUEZ MONTEGRIFO                                                  000000000000000000N
071989061999999000020047TJULIO FRIAS SANCHEZ                                                         000000000000000000N
071989061999999000020048TJOAQUIN VAREA GONZALEZ                                                      000000000000000000N
071989061999999000020049TFELIPE FELIX GIMENO GONZALEZ DE SEVILLA                                     000000000000000000N
071989061999999000020050TJOSE MATA DIEZ                                                              000000000000000000N
071989061999999000020051TCARLOS BATRES ARNANZ                                                        000000000000000000N
071989061999999000020052TAMPARO VICENT CORTINA                                                       000000000000000000N
071989061999999000020053TJOSE SAN ANTONIO SAORNIL                                                    000000000000000000N
071989061999999000020054TMARIA DEL CARMEN APARICIO PERIQUET                                          000000000000000000N
071989061999999000020055TFLORENCIO GARCIA CUENCA                                                     000000000000000000N
071989061999999000020056TRAFAEL BIOSCA PRIETO                                                        000000000000000000N
071989061999999000020057TANTONIO AMADO DEL RIO                                                       000000000000000000N
071989061999999000020058TROSARIO VIÑARAS GARCIA                                                      000000000000000000N
071989061999999000020059TCELESTINO JIMENEZ PRIETO                                                    000000000000000000N
071989061999999000020060TLIBORIO RUIZ LOPEZ                                                          000000000000000000N
071989061999999000021001TRAMON VIÑALS I SOLER (CSD)                                                  000000000000000000N
071989061999999000021002TRAFAEL CASANOVAS I RABASSA (CSD)                                            000000000000000000N
071989061999999000021003TJAUME BERNADES I FUMADO (CSD)                                               000000000000000000N
071989061999999000021004TALBERTO VALLEJO I BARBA (CSD)                                               000000000000000000N
071989061999999000021005TXAVIER VIÑALS I CAPDEPON (CSD)                                              000000000000000000N
071989061999999000021006TJUAN VILALTA I PARDO (CSD)                                                  000000000000000000N
071989061999999000021007TMARIA DEL MAR BERNADES I BARRIONUEVO (CSD)                                  000000000000000000N
071989061999999000021008TENRIQUE JOSE MARTINEZ I CONILL (CSD)                                        000000000000000000N
071989061999999000021009TJUAN JOSE GRANELL I FALGUERAS (CSD)                                         000000000000000000N
071989061999999000021010TJOSE LUIS GARCIA I PERXES (CSD)                                             000000000000000000N
071989061999999000021011TGINETTE CASANOVAS I PALLARES (CSD)                                          000000000000000000N
071989061999999000021012TJOAQUIN ALONSO I MARTINEZ (CSD)                                             000000000000000000N
071989061999999000021013TDAVID SANCHO I CATALA (CSD)                                                 000000000000000000N
071989061999999000021014TROSA MARIA TOMAS I CASALS (CSD)                                             000000000000000000N
071989061999999000021015TESTHER MONTERO I SERVERA (CSD)                                              000000000000000000N
071989061999999000021016TALVARO LOPEZ I PEREIRA (CSD)                                                000000000000000000N
071989061999999000021017TESTHER ALSINA I BORRAS (CSD)                                                000000000000000000N
071989061999999000021018TJUAN COLOMINAS I LOPEZ (CSD)                                                000000000000000000N
071989061999999000021019TROMUALDO ALONSO I COUSO (CSD)                                               000000000000000000N
071989061999999000021020TNURIA ORDUÑA I CANALS (CSD)                                                 000000000000000000N
071989061999999000021021TFRANCISCO SORO I ORFILA (CSD)                                               000000000000000000N
071989061999999000021022TMERCE ANTON I ALVAREZ (CSD)                                                 000000000000000000N
071989061999999000021023TMONTSERRAT SOLER I FERRANDIS (INDEPENDIENTE)                                000000000000000000N
071989061999999000021024TFRANCISCO JAVIER RAMOS I MENDEZ (CSD)                                       000000000000000000N
071989061999999000021025TMARCOS SALOMO I COMES (CSD)                                                 000000000000000000N
071989061999999000021026TREGINA PEREIRA I RODRIGUEZ (CSD)                                            000000000000000000N
071989061999999000021027TMARC VIÑALS I CAPDEPON (CSD)                                                000000000000000000N
071989061999999000021028TELOY DIEZ I SERRA (CSD)                                                     000000000000000000N
071989061999999000021029TGINETTE PALLARES I JORDA (CSD)                                              000000000000000000N
071989061999999000021030TRAUL MALLAFRE I CONESA (CSD)                                                000000000000000000N
071989061999999000021031TESTRELLA MARTINEZ I FRAIZ (CSD)                                             000000000000000000N
071989061999999000021032TMARIA DEL PILAR SEGON I FIGUERA (CSD)                                       000000000000000000N
071989061999999000021033TMARTA BARAHONA I ORPINELL (CSD)                                             000000000000000000N
071989061999999000021034TVICTOR ARRESE I CASTAÑE (CSD)                                               000000000000000000N
071989061999999000021035TMONTSERRAT SANCHEZ I DE CUBAS (CSD)                                         000000000000000000N
071989061999999000021036TANSELMO JAVIER MALDONADO I PEREZ                                            000000000000000000N
071989061999999000021037TJUAN CARLOS MASSO I ESTRADE (CSD)                                           000000000000000000N
071989061999999000021038TPURIFICACION ANTOLIN I GIL (CSD)                                            000000000000000000N
071989061999999000021039TSUSANNA COLL I PARRA (CSD)                                                  000000000000000000N
071989061999999000021040TAGUEDA PARDO I TORRES (CSD)                                                 000000000000000000N
071989061999999000021041TOLGA SABATE I RAMON (CSD)                                                   000000000000000000N
071989061999999000021042TJAVIER DIEZ I SERRA (CSD)                                                   000000000000000000N
071989061999999000021043TFERNANDO DE LA PINTA I ESPAÑA (CSD)                                         000000000000000000N
071989061999999000021044TJOSE TRESCENTS I POUS (CSD)                                                 000000000000000000N
071989061999999000021045TEMILIO LOPEZ I FERNANDEZ (CSD)                                              000000000000000000N
071989061999999000021046TCAROLINA PORTADELLAS I PUJOL (CSD)                                          000000000000000000N
071989061999999000021047TANTONIO RODRIGUEZ I MUÑOZ (CSD)                                             000000000000000000N
071989061999999000021048TMARIA DEL PILAR CAPDEPON Y SEGON (CSD)                                      000000000000000000N
071989061999999000021049TJORGE LOPEZ-PINTO I FONT (CSD)                                              000000000000000000N
071989061999999000021050TMARIA JESUS LOPEZ I PEREIRA (CSD)                                           000000000000000000N
071989061999999000021051TALFREDO SITJES I BORDAS (CSD)                                               000000000000000000N
071989061999999000021052TMARGARITA RAMON I DE LA TORRE (CSD)                                         000000000000000000N
071989061999999000021053TIGNACIO PUNCERNAU I FOLCH (CSD)                                             000000000000000000N
071989061999999000021054TJOSEP MANUEL GALAN I GIMISIO (CSD)                                          000000000000000000N
071989061999999000021055TNURIA ADELAIDA BENAZET I WILKENS (CSD)                                      000000000000000000N
071989061999999000021056TCRISTINA URRUTIA I CARRATALA (CSD)                                          000000000000000000N
071989061999999000021057TJUAN ALTADILL I LLORT (CSD)                                                 000000000000000000N
071989061999999000021058TVIRGINIA RAMOS I MENDEZ (CSD)                                               000000000000000000N
071989061999999000021059TMARTA BADIA I MARIN (CSD)                                                   000000000000000000N
071989061999999000021060TPRESENTACION BARRIONUEVO I RUIZ (CSD)                                       000000000000000000N
071989061999999000022001TMONTSERRAT BASCOMPTE I CARBONELL                                            000000000000000000N
071989061999999000022002TPERE ROS I DEOLA                                                            000000000000000000N
071989061999999000022003TJOSEP GUIA I MARIN                                                          000000000000000000N
071989061999999000022004TROBERT SURROCA I TALLAFERRO                                                 000000000000000000N
071989061999999000022005TJAUME RADO I ROCA                                                           000000000000000000N
071989061999999000022006TJOSEP AIXALA I JANSANA                                                      000000000000000000N
071989061999999000022007TJESUS BOLINSEX I ZANON                                                      000000000000000000N
071989061999999000022008TPERE MARTI I COLOM                                                          000000000000000000N
071989061999999000022009TXAVIER ALCALDE I PENA                                                       000000000000000000N
071989061999999000022010TJOSEFA DOMENECH I PONSODA                                                   000000000000000000N
071989061999999000022011TGUSTAU NAVARRO I BARBA                                                      000000000000000000N
071989061999999000022012TALBERT SANS I PUIG                                                          000000000000000000N
071989061999999000022013TCARLES SERRET I BERNUS                                                      000000000000000000N
071989061999999000022014TJOSEP SORT I JANE                                                           000000000000000000N
071989061999999000022015TSALVADOR SOUTULLO I CAROLO                                                  000000000000000000N
071989061999999000022016TPERE VIDAL I COLOMER                                                        000000000000000000N
071989061999999000022017TALBERT VILA I AMOROS                                                        000000000000000000N
071989061999999000022018TANTONI TURRO I MARTINEZ                                                     000000000000000000N
071989061999999000022019TISMAEL DURA I GUIMERA                                                       000000000000000000N
071989061999999000022020TPERE VICENS I COLOM                                                         000000000000000000N
071989061999999000022021TRAMON PONS I CARBO                                                          000000000000000000N
071989061999999000022022TLLUIS BORDES I CASTELLA                                                     000000000000000000N
071989061999999000022023TFRANCESC CANDELA I ESCRIVA                                                  000000000000000000N
071989061999999000022024TDANIEL CABASES I COLL                                                       000000000000000000N
071989061999999000022025TJOAN DAUNIS I PIJOAN                                                        000000000000000000N
071989061999999000022026TVICENT FONT I BERNAUS                                                       000000000000000000N
071989061999999000022027TFERRAN FERRERES I CODORNIU                                                  000000000000000000N
071989061999999000022028TANTONIA JUAN I SANTANDREU                                                   000000000000000000N
071989061999999000022029TANGELS MONERA I VALCARCEL                                                   000000000000000000N
071989061999999000022030TCRISTOFER MIRET I MUSSONS                                                   000000000000000000N
071989061999999000022031TJAUME AMATLLER I SERRA                                                      000000000000000000N
071989061999999000022032TAGUSTI ROCAMORA I DURA                                                      000000000000000000N
071989061999999000022033TPERE ZARAGOZA I GALVANY                                                     000000000000000000N
071989061999999000022034TLLUIS LOPEZ I FAGES                                                         000000000000000000N
071989061999999000022035TBENETALAMON I ALAMON                                                        000000000000000000N
071989061999999000022036TPASQUAL CABEDO I FERRIOLS                                                   000000000000000000N
071989061999999000022037TPERE GILI I MAÑOSAS                                                         000000000000000000N
071989061999999000022038TJOAN JUBANY I LORENTE                                                       000000000000000000N
071989061999999000022039TDAVID RICART I MIRO                                                         000000000000000000N
071989061999999000022040TFRANCESCA ISABEL SERVER I PEREZ                                             000000000000000000N
071989061999999000022041TJORDI ARNAL I ROURA                                                         000000000000000000N
071989061999999000022042TSALVADOR LLINARES I QUILES                                                  000000000000000000N
071989061999999000022043TDAVID GARRIDO I VALLS                                                       000000000000000000N
071989061999999000022044TDOLORS BOLANCE I DUGO                                                       000000000000000000N
071989061999999000022045TJOSEP LLUIS TUDELA I LOPEZ                                                  000000000000000000N
071989061999999000022046TJOAN LLITERAS I BERNAD                                                      000000000000000000N
071989061999999000022047TVICENT PONS I FORNES                                                        000000000000000000N
071989061999999000022048TJOSEP ANDRES I ALANDI                                                       000000000000000000N
071989061999999000022049TJOAN CABOT I CALSAPEU                                                       000000000000000000N
071989061999999000022050TJOAN MARCA I TRISTAN                                                        000000000000000000N
071989061999999000022051TJORDI MONERS I SINYOL                                                       000000000000000000N
071989061999999000022052TPERE MUÑOZ I FEMENIA                                                        000000000000000000N
071989061999999000022053TJOAN FERRE I QUINTANA                                                       000000000000000000N
071989061999999000022054TSALVADOR BALCELLS I VILA                                                    000000000000000000N
071989061999999000022055TMANUEL JUAN I ARIÑO                                                         000000000000000000N
071989061999999000022056TAGUSTI BARRERA I PUIGVI                                                     000000000000000000N
071989061999999000022057TNURIA SERAS I LLEONART                                                      000000000000000000N
071989061999999000022058TJOSEP GUILLEM I VALLRIBERA                                                  000000000000000000N
071989061999999000022059TENRIC BORRAS I CALVO                                                        000000000000000000N
071989061999999000022060TMERCE MARCO I BARDELLA                                                      000000000000000000N
071989061999999000023001TANGEL LUIS PARRAS SEN (PST)                                                 000000000000000000N
071989061999999000023002TALFONSO BECH PEIRO (PORE)                                                   000000000000000000N
071989061999999000023003TSIXTO CASADO ALDANA (PST)                                                   000000000000000000N
071989061999999000023004TFRANCISCO JAVIER ZULAICA CUADRA (PST)                                       000000000000000000N
071989061999999000023005TVICTOR GARCIA GONZALEZ (PORE)                                               000000000000000000N
071989061999999000023006TABBAS LACHMI DRIS (PST)                                                     000000000000000000N
071989061999999000023007TLUCIA CASTELLANOS MARCOS (PST)                                              000000000000000000N
071989061999999000023008TMARIA DEL CARMEN BAUTISTA PALOMARES (PORE)                                  000000000000000000N
071989061999999000023009TMIGUEL ANGEL CIHUELO CARASOL (PST)                                          000000000000000000N
071989061999999000023010TJOSE MANUEL RUBIO PEREZ (PST)                                               000000000000000000N
071989061999999000023011TMARTIN PRETEL GARRIDO (PORE)                                                000000000000000000N
071989061999999000023012TENRIQUE MARIA MOSQUERA DURAN (PST)                                          000000000000000000N
071989061999999000023013TCONSUELO MARTINEZ LOPEZ (PST)                                               000000000000000000N
071989061999999000023014TFIDEL PUENTE SOTILLOS (PORE)                                                000000000000000000N
071989061999999000023015TSALVADOR DIAZ BLASCO (PST)                                                  000000000000000000N
071989061999999000023016TDOMINGO GONZALEZ DE HERRERO DOMINGO (PST)                                   000000000000000000N
071989061999999000023017TFRANCISCO JOSE DIAZ PATIÑO (PORE)                                           000000000000000000N
071989061999999000023018TPEDRO MONJE RUIZ (PST)                                                      000000000000000000N
071989061999999000023019TGERMAN DE SAN FELICIANO PEREZ PEÑA (PST)                                    000000000000000000N
071989061999999000023020TISABEL DELGADO HERNANDEZ (PORE)                                             000000000000000000N
071989061999999000023021TRAFAEL VAZQUEZ GONZALEZ (PST)                                               000000000000000000N
071989061999999000023022TFERNANDO MONTAÑO GARCIA (PST)                                               000000000000000000N
071989061999999000023023TMIGUEL SALAS YEBRA (PORE)                                                   000000000000000000N
071989061999999000023024TJULIA MIRON GARCIA (PST)                                                    000000000000000000N
071989061999999000023025TFERNANDO ANDUJAR DOMINGUEZ (PST)                                            000000000000000000N
071989061999999000023026TANTONIA NAVARRO ROBLES (PORE)                                               000000000000000000N
071989061999999000023027TMANUEL CALER CALER (PST)                                                    000000000000000000N
071989061999999000023028TMARIA DE LAS MERCEDES ALCOBENDAS RIVAS (PST)                                000000000000000000N
071989061999999000023029TJAVIER VIVANCOS ZARAGOZA (PORE)                                             000000000000000000N
071989061999999000023030TMARIA ADRIANA BEIDENAGI DOMANDZIC (PST)                                     000000000000000000N
071989061999999000023031TBEATRIZ SUSANA GIUDICI FERNANDEZ (PST)                                      000000000000000000N
071989061999999000023032TALBERTO MARTI SALTO (PORE)                                                  000000000000000000N
071989061999999000023033TPEDRO MANUEL VIGIL GUTIERREZ (PST)                                          000000000000000000N
071989061999999000023034TMIGUEL PEREZ FUENTES (INDEPENDIENTE)                                        000000000000000000N
071989061999999000023035TLUIS LARA HURTADO (INDEPENDIENTE)                                           000000000000000000N
071989061999999000023036TJULIO GOMEZ FERNANDEZ (PST)                                                 000000000000000000N
071989061999999000023037TALFREDO MACIAS VAZQUEZ (PST)                                                000000000000000000N
071989061999999000023038TFRANCISCO JAVIER CABALLE VILLANUEVA (PORE)                                  000000000000000000N
071989061999999000023039TJOSEFA PICAS MARTINEZ (PST)                                                 000000000000000000N
071989061999999000023040TJOSE LUIS VAZQUEZ MURIENDAS (PST)                                           000000000000000000N
071989061999999000023041TMARIA ISABEL MARTINEZ SORIANO (PORE)                                        000000000000000000N
071989061999999000023042TFRANCISCO ESLAVA CORDOBA (PST)                                              000000000000000000N
071989061999999000023043TMIGUEL GIL GARCIA (PST)                                                     000000000000000000N
071989061999999000023044TAMADOR RUIZ MEDINA (PORE)                                                   000000000000000000N
071989061999999000023045TVICTOR ANGEL RODRIGUEZ FERNANDEZ (PST)                                      000000000000000000N
071989061999999000023046TBLAS MARQUEZ PINTADO (PST)                                                  000000000000000000N
071989061999999000023047TMARIA ANGELES TOMAS GONZALO (PORE)                                          000000000000000000N
071989061999999000023048TANGEL SANVICENTE VALONERO (PST)                                             000000000000000000N
071989061999999000023049TFRANCISCO REDONDO GRANDA (PST)                                              000000000000000000N
071989061999999000023050TANTONIO JESUS RUIZ MEDINA (PORE)                                            000000000000000000N
071989061999999000023051TMANUEL GIMENEZ LAFUENTE (PST)                                               000000000000000000N
071989061999999000023052TJOSE MARIA BRUN GONZALEZ (PST)                                              000000000000000000N
071989061999999000023053TFERMIN ROMAN ALAMIN (PORE)                                                  000000000000000000N
071989061999999000023054TOSCAR ANTONIO VILCHES MARTIN (PST)                                          000000000000000000N
071989061999999000023055TMARIA DEL MAR MATILDE NOGUEROL ALVAREZ (PST)                                000000000000000000N
071989061999999000023056TRAMON GONZALEZ LOPEZ (PORE)                                                 000000000000000000N
071989061999999000023057TMIGUEL ANGEL MARTINEZ RAMOS (PST)                                           000000000000000000N
071989061999999000023058TIGNACIO LARRAÑAGA CORTES (PST)                                              000000000000000000N
071989061999999000023059TPRIMITIVO JOSE BELTRAN REBOLLO (PORE)                                       000000000000000000N
071989061999999000023060TGRACIANO MANUEL DE LA ROSA HERNANDEZ (PST)                                  000000000000000000N
071989061999999000024001TCARLES ALFRED GASOLIBA I BOHM (CDC)                                         000000000000000000S
071989061999999000024002TCONCEPCIO FERRER I CASALS (UDC)                                             000000000000000000S
071989061999999000024003TJOAQUIM MUNS I ALBUIXECH (IND.)                                             000000000000000000N
071989061999999000024004TJOSEP-ORIOL PI DE CABANYES (CDC)                                            000000000000000000N
071989061999999000024005TRAMON BAGO I AGULLO (CDC)                                                   000000000000000000N
071989061999999000024006TFRANCESC VIDAL I CODINA (CDC)                                               000000000000000000N
071989061999999000024007TORIOL BADIA I TOBELLA (UDC)                                                 000000000000000000N
071989061999999000024008TJOAN MARIA PUJALS I VALLVE (CDC)                                            000000000000000000N
071989061999999000024009TANTONI CASANOVAS I BRUGAL (CDC)                                             000000000000000000N
071989061999999000024010TEDUARD SAGARRA I TRIAS (CDC)                                                000000000000000000N
071989061999999000024011TCARLES CAMPUZANO I CANADES (CDC)                                            000000000000000000N
071989061999999000024012TJOSEP MARIA FUSTE I ESPASA (UDC)                                            000000000000000000N
071989061999999000024013TPERE ESTEVE I ABAD (CDC)                                                    000000000000000000N
071989061999999000024014TANTONI PLASENCIA I MONLEON (IND.)                                           000000000000000000N
071989061999999000024015TALEGRIE BORRAS I RODRIGUEZ (IND.)                                           000000000000000000N
071989061999999000024016TGLORIA PALLE I TORRES (UDC)                                                 000000000000000000N
071989061999999000024017TPERE NUENO I INIESTA (IND.)                                                 000000000000000000N
071989061999999000024018TJOSEP ARNAU I FIGUEROLA (CDC)                                               000000000000000000N
071989061999999000024019TJOSEP GRAU I SERIS (CDC)                                                    000000000000000000N
071989061999999000024020TJAUME BOFILL I SOLIGUER (UDC)                                               000000000000000000N
071989061999999000024021TJOAN RAVENTOS I PUJADO (CDC)                                                000000000000000000N
071989061999999000024022TMONTSERRAT MAS I SALVADO (IND.)                                             000000000000000000N
071989061999999000024023TANTONI BIARNES I MAS (CDC)                                                  000000000000000000N
071989061999999000024024TANTONI JOSEP BAYES I DE LUNA (UDC)                                          000000000000000000N
071989061999999000024025TJOSEP AZUARA I GONZALEZ (CDC)                                               000000000000000000N
071989061999999000024026TJOAN MARIA ROIG I GRAU (CDC)                                                000000000000000000N
071989061999999000024027TJOSEP LLUIS ARGEMI I VALLE (CDC)                                            000000000000000000N
071989061999999000024028TMERCE PANIKER I ALEMANY (UDC)                                               000000000000000000N
071989061999999000024029TESTANIS FELIP I MONSONIS (CDC)                                              000000000000000000N
071989061999999000024030TMARIA LORCA I BARD (CDC)                                                    000000000000000000N
071989061999999000024031TTOMAS GILABERT I BOYER (CDC)                                                000000000000000000N
071989061999999000024032TFRANCESC ALABART I SEDO (UDC)                                               000000000000000000N
071989061999999000024033TEMILI CUENCA I SALA (CDC)                                                   000000000000000000N
071989061999999000024034TMARIA PILAR BUSQUET I MEDAN (CDC)                                           000000000000000000N
071989061999999000024035TISABEL BRUSSOSA I PLANAS (CDC)                                              000000000000000000N
071989061999999000024036TMARIA CARMEN TORRES I GRAELL (UDC)                                          000000000000000000N
071989061999999000024037TJOSEP MARIA OLLER I BERENGUER (CDC)                                         000000000000000000N
071989061999999000024038TFREDERIC SUÑER I CASADEVALL (CDC)                                           000000000000000000N
071989061999999000024039TJOAN MARIA TRIADO I JUAN (CDC)                                              000000000000000000N
071989061999999000024040TJORDI MASGRAU I BOSCHMONAR (UDC)                                            000000000000000000N
071989061999999000024041TJOAN SALAT I TARRATS (CDC)                                                  000000000000000000N
071989061999999000024042TJOSEP MARIA PUIG I VENDRELL (CDC)                                           000000000000000000N
071989061999999000024043TFRANCESC IGLESIAS I SALA (CDC)                                              000000000000000000N
071989061999999000028051T                                                                            000000000000000000N
071989061999999000028052T                                                                            000000000000000000N
071989061999999000028053T                                                                            000000000000000000N
071989061999999000028054T                                                                            000000000000000000N
071989061999999000028055T                                                                            000000000000000000N
071989061999999000028056T                                                                            000000000000000000N
071989061999999000028057T                                                                            000000000000000000N
071989061999999000028058T                                                                            000000000000000000N
071989061999999000028059T                                                                            000000000000000000N
071989061999999000028060T                                                                            000000000000000000N
071989061999999000029001TJOSE ANGEL PEREZ-NIEVAS ABASCAL                                             000000000000000000N
071989061999999000029002TJUAN FRANCISCO MARTIN DE AGUILERA ARENALES                                  000000000000000000N
071989061999999000029003TMANUEL REGO NIETO                                                           000000000000000000N
071989061999999000029004TJOSE MARIA JACINTO ANGULO SAINZ DE VARANDA                                  000000000000000000N
071989061999999000029005TLUIS AMANTE DUARTE                                                          000000000000000000N
071989061999999000029006TJOSE FIDEL PEREZ PUERTO                                                     000000000000000000N
071989061999999000029007TMARIA GLORIA MORO CORRAL                                                    000000000000000000N
071989061999999000029008TFELICIANO VELEZ MEDRANO                                                     000000000000000000N
071989061999999000029009TMANUEL ZABALA SEVILLA                                                       000000000000000000N
071989061999999000029010TCRISTINA CARCELLER ALONSO                                                   000000000000000000N
071989061999999000029011TJUAN MANUEL ECHEVERRIA CHASCO                                               000000000000000000N
071989061999999000029012TFELIPE VILLALONGA MORELL                                                    000000000000000000N
071989061999999000029013TFELIX QUINTANA CALVO                                                        000000000000000000N
071989061999999000029014TMARIO ALFONSO CARLOS GALLEGO REY                                            000000000000000000N
071989061999999000029015TMARIA DE LOS ANGELES FERNANDEZ-CEBALLOS CARRANZA                            000000000000000000N
071989061999999000029016TJOSE MARIA TERCERO PEREZ                                                    000000000000000000N
071989061999999000029017TFRANCISCO LODEIRO RODRIGUEZ                                                 000000000000000000N
071989061999999000029018TEVA MARIA LEZA SAINZ DE VICUÑA                                              000000000000000000N
071989061999999000029019TCONSTANZA MARGARITA MORALES DIAZ                                            000000000000000000N
071989061999999000029020TFERNANDO LUIS GRACIA FEDERIO                                                000000000000000000N
071989061999999000029021TJOSE ANTONIO ERDOZAIN DOMINGUEZ DE VIDAURRETA                               000000000000000000N
071989061999999000029022TJOSE LAZARO IBAÑEZ COMPAINS                                                 000000000000000000N
071989061999999000029023TMARIANO MARCELINO ALQUEZAR PEREZ                                            000000000000000000N
071989061999999000029024TMARIA ISABEL ALZORRIZ IZU                                                   000000000000000000N
071989061999999000029025TSERVULO RAFAEL HUARTE CALLEJAS                                              000000000000000000N
071989061999999000029026TJOSE ANTONIO LAMAS GONZALEZ                                                 000000000000000000N
071989061999999000029027TTOMAS BRAVO SERRANO                                                         000000000000000000N
071989061999999000029028TRAMON ABREGO PEREZ                                                          000000000000000000N
071989061999999000029029TGERMAN BARANDALLA HUICI                                                     000000000000000000N
071989061999999000029030TLUIS MARTIN BENDICHO                                                        000000000000000000N
071989061999999000029031TJOSEFA PEREZ CALVO                                                          000000000000000000N
071989061999999000029032TLUIS ANGEL ACEDO SAINZ                                                      000000000000000000N
071989061999999000029033TJESUS ANTONIO ZUFIAURRE SANMIGUEL                                           000000000000000000N
071989061999999000029034TJULIO MAZO AYATS                                                            000000000000000000N
071989061999999000029035TMARIA DEL CARMEN BORDERAS GAZTAMBIDE                                        000000000000000000N
071989061999999000029036TAMALIA LOPEZ OLARTE                                                         000000000000000000N
071989061999999000029037TALFREDO PEREZ VAZQUEZ                                                       000000000000000000N
071989061999999000029038TCONSTANTINO MANUEL NOVOA LOPEZ                                              000000000000000000N
071989061999999000029039TJOSE JOAQUIN URRA HUARTE                                                    000000000000000000N
071989061999999000029040TCARMELO PEDRO FORCEN GRACIA                                                 000000000000000000N
071989061999999000029041TANTONIO RUIZ MARTINEZ                                                       000000000000000000N
071989061999999000029042TJESUS MARIA ARAGON SAMANES                                                  000000000000000000N
071989061999999000029043TGREGORIO ALDAYA ERVITI                                                      000000000000000000N
071989061999999000029044TCARLOS IGNACIO MARTIN ESTEBAN                                               000000000000000000N
071989061999999000029045TFRANCISCO RIOL SANTAEUFEMIA                                                 000000000000000000N
071989061999999000029046TISIDRO ANTONIO EZQUERRO GARCIA                                              000000000000000000N
071989061999999000029047TOLEGARIO ASTRAIN ERDOZAIN                                                   000000000000000000N
071989061999999000029048TANTONIO ALQUEZAR GARCIA                                                     000000000000000000N
071989061999999000029049TANGEL RAMOS MARTINEZ                                                        000000000000000000N
071989061999999000029050TANTONIO ULI BALLAZ                                                          000000000000000000N
071989061999999000029051TJUAN PEDRO ARAMENDIA GARCIA                                                 000000000000000000N
071989061999999000029052TESTRELLA FERNANDEZ ROMAGUERA                                                000000000000000000N
071989061999999000029053TJOSE LUIS LOPEZ BALLESTEROS                                                 000000000000000000N
071989061999999000029054TIGNACIO SALSAMENDI ANSOLA                                                   000000000000000000N
071989061999999000029055TRICARDO CABALLERO IRIGOYEN                                                  000000000000000000N
071989061999999000029056TROBERTO JESUS FLAMARIQUE URDIN                                              000000000000000000N
071989061999999000029057TJESUS MIGUEL BELLE LOSTES                                                   000000000000000000N
071989061999999000029058TFRANCISCO GARZO PEREZ                                                       000000000000000000N
071989061999999000029059TNATALIA CORMENZANA LOPEZ                                                    000000000000000000N
071989061999999000029060TJOSE MIGUEL GOMEZ TUTOR                                                     000000000000000000N
071989061999999000030001TMARIA DEL CARMEN JIMENEZ SILES                                              000000000000000000N
071989061999999000030002TFELISA MERCADO CORTES                                                       000000000000000000N
071989061999999000030003TMARIA DEL CARMEN VICENTE MIGUEL                                             000000000000000000N
071989061999999000030004TJUANA MARIA ALUMA TRULLAS                                                   000000000000000000N
071989061999999000030005TMARIA FERNANDA SANCHEZ CORRAL                                               000000000000000000N
071989061999999000030006TMARIA EULOGIA PRIETO MARTINEZ                                               000000000000000000N
071989061999999000030007TESTHER GRANDA CACERES                                                       000000000000000000N
071989061999999000030008TROSA MARIA ARAUJO MARCOS                                                    000000000000000000N
071989061999999000030009TBEATRIZ VELAZQUEZ GARCIA                                                    000000000000000000N
071989061999999000030010TCARMEN ALVAREZ GARCIA                                                       000000000000000000N
071989061999999000030011TLUCIA ESTHER RUANO HERNANDEZ                                                000000000000000000N
071989061999999000030012TSANTIAGO GASCON SANTOS                                                      000000000000000000N
071989061999999000030013TSANTIAGO SALAZAR ARROYO                                                     000000000000000000N
071989061999999000030014TIGNACIO NOGUER MARTINEZ                                                     000000000000000000N
071989061999999000030015TINMACULADA ZARAUZA SALVADOR                                                 000000000000000000N
071989061999999000030016TALFONSO HERNANDEZ ALONSO                                                    000000000000000000N
071989061999999000030017TELSA SANTAMARTA VEGA                                                        000000000000000000N
071989061999999000030018TROSA MARIA GORGOJO JIMENO                                                   000000000000000000N
071989061999999000030019TMARIA DEL CARMEN SANCHEZ COBOS                                              000000000000000000N
071989061999999000030020TLUIS SILVA GARCIA                                                           000000000000000000N
071989061999999000030021TFRANCISCO JAVIER ALEGRIA SAINZ                                              000000000000000000N
071989061999999000030022TMARIA ISABEL MUÑOZ LAGUNA                                                   000000000000000000N
071989061999999000030023TPEDRO MANUEL RAMALLO FOLLA                                                  000000000000000000N
071989061999999000030024TJUAN FRANCISCO MARTINEZ BERNAL                                              000000000000000000N
071989061999999000030025TMARIA JESUS URBANO URBANO                                                   000000000000000000N
071989061999999000030026TJAVIER OVIDIO CAMPOY GONZALEZ                                               000000000000000000N
071989061999999000030027TMANUELA RIBEIRO PARADA                                                      000000000000000000N
071989061999999000030028TMARIA JOSE SERRATOSA BELLES                                                 000000000000000000N
071989061999999000030029TFRANCISCO BARROSO PEREZ                                                     000000000000000000N
071989061999999000030030TLUIS VICENTE NISA BUESO                                                     000000000000000000N
071989061999999000030031TMANUELA BERROCAL ZABALLOS                                                   000000000000000000N
071989061999999000030032TMARIA DEL MAR CALLE POMAR                                                   000000000000000000N
071989061999999000030033TOSCAR ELEGIDO GONZALEZ-QUEVEDO                                              000000000000000000N
071989061999999000030034TJUAN CARLOS COZAS RAMOS                                                     000000000000000000N
071989061999999000030035TMARIA LUISA GARCIA DE LA RIVA VALLIER                                       000000000000000000N
071989061999999000030036TELOY ALVAREZ DE LA TORRE                                                    000000000000000000N
071989061999999000030037TMARIA ISABEL PERALTA RUBIO                                                  000000000000000000N
071989061999999000030038TJOSE IGNACIO MARTINEZ GARCIA                                                000000000000000000N
071989061999999000030039TAURELIO MARTINEZ TERUEL                                                     000000000000000000N
071989061999999000030040TROSA MARIA CASAS HERRERA                                                    000000000000000000N
071989061999999000030041TLEOPOLDO DEL PRADO MEDINA                                                   000000000000000000N
071989061999999000030042TPABLO SERRA MAJADA                                                          000000000000000000N
071989061999999000030043TJOSE IGNACIO BLASCO TORREJON                                                000000000000000000N
071989061999999000030044TMARIA ISABEL LLOP LLUCH                                                     000000000000000000N
071989061999999000030045TMARIA EVA EIRAS MAZAILLE                                                    000000000000000000N
071989061999999000030046TMARIO QUINTERO TOLEDO                                                       000000000000000000N
071989061999999000030047TSIRO PEREZ MONASOR                                                          000000000000000000N
071989061999999000030048TMARIA ANGELES CAMPOS DEL RIO                                                000000000000000000N
071989061999999000030049TFLORA LUCAS GARCIA                                                          000000000000000000N
071989061999999000030050TJOSE LUIS TOVAR NAVARRO                                                     000000000000000000N
071989061999999000030051TGUSTAVO ORLANDO SANCHEZ SUAREZ                                              000000000000000000N
071989061999999000030052TPATRICIA GESTO LOPEZ                                                        000000000000000000N
071989061999999000030053TALBERTO SUDON HERNANDEZ                                                     000000000000000000N
071989061999999000030054TJOSE MIRA PENEDO                                                            000000000000000000N
071989061999999000030055TMARIA AMPARO REQUENA BUCH                                                   000000000000000000N
071989061999999000030056TJOSE CARO MOLINA                                                            000000000000000000N
071989061999999000030057TMARIA MERCEDES DUCH MELIZ                                                   000000000000000000N
071989061999999000030058TJOSE LORENZO FERNANDEZ ALONSO                                               000000000000000000N
071989061999999000030059TMARIA ALICIA ALEJANDRE LORENZO                                              000000000000000000N
071989061999999000030060TANTONIO ELEGIDO GONZALEZ-QUEVEDO                                            000000000000000000N
071989061999999000031001TPURIFICACION GONZALEZ DE LA BLANCA (LV)                                     000000000000000000N
071989061999999000031002TJORGE DE VIVERO PEREZ (AEG)                                                 000000000000000000N
071989061999999000031003TJOSE MERLO LILLO (LV)                                                       000000000000000000N
071989061999999000031004TRAFAEL GUARDO POLO (LVAM)                                                   000000000000000000N
071989061999999000031005TISIDORO MARCELINO MARTIN SANCHEZ (LV)                                       000000000000000000N
071989061999999000031006TJOSEP LLUIS FREIJO LIZAN (IND.)                                             000000000000000000N
071989061999999000031007TABELARDO LLORET LOPEZ (LV)                                                  000000000000000000N
071989061999999000031008TFERNANDO LUIS ORTIZ DE URBINA (PEE)                                         000000000000000000N
071989061999999000031009TFRANCISCO MARIA DEL RIO SANCHEZ (LV)                                        000000000000000000N
071989061999999000031010TSONSOLES IZQUIERDO ALVAREZ-BUYLLA (AEG)                                     000000000000000000N
071989061999999000031011TMARIA ADORACION MARTINEZ FERRERO (LV)                                       000000000000000000N
071989061999999000031012TRAMON LUENGO RUIZ (INDEP.)                                                  000000000000000000N
071989061999999000031013TFRANCISCO NAVARRO MAESTRE (LV)                                              000000000000000000N
071989061999999000031014TJOSE LUIS DIAZ SEGOVIA (INDEP.)                                             000000000000000000N
071989061999999000031015TEVA MARIA MEDINA CAMACHO (LV)                                               000000000000000000N
071989061999999000031016TRAFAEL CAMPOS CATALAN (INDEP.)                                              000000000000000000N
071989061999999000031017TESTER MORA MASCARO (LV)                                                     000000000000000000N
071989061999999000031018THECTOR BELLO RIVAS (AEG)                                                    000000000000000000N
071989061999999000031019TJOSE LIGERO BARQUIN (LV)                                                    000000000000000000N
071989061999999000031020TMANUEL RAMOS SANCHEZ (LVAM)                                                 000000000000000000N
071989061999999000031021TPEDRO JOSE LOPEZ POZO (LV)                                                  000000000000000000N
071989061999999000031022TJONE URIARTE GIL (PEE)                                                      000000000000000000N
071989061999999000031023TEDUARDO CAMPOMANES CALLEJA (LV)                                             000000000000000000N
071989061999999000031024TANGELES LLAURADO POVEDA (INDEP.)                                            000000000000000000N
071989061999999000031025TPEDRO ANIBAL DE ARMAS EXPOSITO (LV)                                         000000000000000000N
071989061999999000031026TANASTASIO LLERENA SERRANO (INDEP.)                                          000000000000000000N
071989061999999000031027TMARIA DEL CARMEN ROIG MARTINEZ (LV)                                         000000000000000000N
071989061999999000031028TJOAQUIN ANTUÑA LEON (INDEP.)                                                000000000000000000N
071989061999999000031029TELENA MARIA IBAÑEZ MARTINEZ (LV)                                            000000000000000000N
071989061999999000031030TFERNANDO ARRIBAS ARIAS (AEG)                                                000000000000000000N
071989061999999000031031TMARIA DEL CARMEN RAMIREZ FERNANDEZ (LV)                                     000000000000000000N
071989061999999000031032TNATIVIDAD MOYA MARTINEZ (LAM)                                               000000000000000000N
071989061999999000031033TANTONIO AVIO VAZQUEZ (LV)                                                   000000000000000000N
071989061999999000031034TMARIA CRISTINA ELGUEA RAMIREZ (PEE)                                         000000000000000000N
071989061999999000031035TJUAN BESES MIGUEL (LV)                                                      000000000000000000N
071989061999999000031036TRAFAEL GONZALEZ BUENO (INDEP.)                                              000000000000000000N
071989061999999000031037TMARIO MARTINEZ ARENAS (LV)                                                  000000000000000000N
071989061999999000031038TMARTIN ROSELL PETIT (INDEP.)                                                000000000000000000N
071989061999999000031039TANA DELGADO CRISTOBAL (LV)                                                  000000000000000000N
071989061999999000031040TMARIA JOSE FONTELA RODRIGUEZ-ARANGO (INDEP.)                                000000000000000000N
071989061999999000031041TMARIA LUISA SANCHEZ MARTINEZ (LV)                                           000000000000000000N
071989061999999000031042TLITA OTERO FERNANDEZ (AEG)                                                  000000000000000000N
071989061999999000031043TMANUEL LUIS GONZALEZ DE MOLINA NAVARRO (LV)                                 000000000000000000N
071989061999999000031044TANTONIO CRIADO NAVARRO (LVAM)                                               000000000000000000N
071989061999999000031045TDOLORES RIVERA LOPEZ (LV)                                                   000000000000000000N
071989061999999000031046TMARIA ASUNCION CUETOS CERECEDO (PEE)                                        000000000000000000N
071989061999999000031047TJOSE CARLOS A. CARBALLO HERNANDEZ (LV)                                      000000000000000000N
071989061999999000031048TJUAN VIDAL NIETO (AEG)                                                      000000000000000000N
071989061999999000031049TFERNANDO MARTINEZ CALVELO (LV)                                              000000000000000000N
071989061999999000031050TMAGDALENA VENTURA IBAÑEZ (INDEP.)                                           000000000000000000N
071989061999999000031051TMARC VIADER PERICAS (LV)                                                    000000000000000000N
071989061999999000031052TRICARDO VILLAMOR LOPEZ (PEE)                                                000000000000000000N
071989061999999000031053TLUIS EDUARDO DORNAK PROGREBIMSKY (LV)                                       000000000000000000N
071989061999999000031054TMANUEL DIAZ ARES (AEG)                                                      000000000000000000N
071989061999999000031055TJAIME RIFA SOLE (LV)                                                        000000000000000000N
071989061999999000031056TVICTORIANO ALFREDO QUEROL CAÑAS (LVAM)                                      000000000000000000N
071989061999999000031057TROSA ISABEL JAIME NAVARRETE (LV)                                            000000000000000000N
071989061999999000031058TSILVESTRE FANEGAS CANALES (PEE)                                             000000000000000000N
071989061999999000031059TJOSE MANUEL SANCHEZ RIVAS (LV)                                              000000000000000000N
071989061999999000031060TMANUEL VALERO YAÑEZ (LVAM)                                                  000000000000000000N
071989061999999000032001TJOSE SUAREZ ARIAS-CACHERO                                                   000000000000000000N
071989061999999000032002TFRANCISCO ALONSO MORI                                                       000000000000000000N
071989061999999000032003TBENJAMIN ORDOÑEZ LAVIADA                                                    000000000000000000N
071989061999999000032004TCARLOS GONZALO LASTRA LOPEZ                                                 000000000000000000N
071989061999999000032005TMARIA TERESA GONZALEZ FERNANDEZ                                             000000000000000000N
071989061999999000032006TALVARO RUIZ DE LA PEÑA SOLAR                                                000000000000000000N
071989061999999000032007TROSA MANZANO GONZALEZ                                                       000000000000000000N
071989061999999000032008TFRANCISCO JAVIER DIAZ YEPES                                                 000000000000000000N
071989061999999000032009TPABLO GARCIA LOPEZ                                                          000000000000000000N
071989061999999000032010TMIGUEL ANGEL LAGO SANTILLAN                                                 000000000000000000N
071989061999999000032011TXOSE NEL FRIERA POO                                                         000000000000000000N
071989061999999000032012TJUAN ANGEL DE CON REDONDO                                                   000000000000000000N
071989061999999000032013TJOSE MANUEL RIESGO FERNANDEZ                                                000000000000000000N
071989061999999000032014TERNESTO CARLOS AMOR HERRERO                                                 000000000000000000N
071989061999999000032015TJUAN CARLOS FERNANDEZ CASTAÑON                                              000000000000000000N
071989061999999000032016TXULIO CESAR VIGIL PARAJON                                                   000000000000000000N
071989061999999000032017TJESUS ALVAREZ GONZALEZ                                                      000000000000000000N
071989061999999000032018TMARIA PILAR FIDALGO PRAVIA                                                  000000000000000000N
071989061999999000032019TMANUEL ALFONSO MARTINEZ MUÑOZ                                               000000000000000000N
071989061999999000032020TAQUILINO FERNANDEZ ABULEZ                                                   000000000000000000N
071989061999999000032021TJOSE RAMON GARCIA FERNANDEZ                                                 000000000000000000N
071989061999999000032022TDUBARDU PUENTE FERNANDEZ                                                    000000000000000000N
071989061999999000032023TFRANCISCO SAEZ PAEZ                                                         000000000000000000N
071989061999999000032024TJAVIER GONZALEZ SANTOS                                                      000000000000000000N
071989061999999000032025TMANUEL PEREZ IGLESIAS                                                       000000000000000000N
071989061999999000032026TRAMON FRANCISCO VELASCO FERNANDEZ                                           000000000000000000N
071989061999999000032027TLUIS ALBERTO FERNANDEZ PEREIRA                                              000000000000000000N
071989061999999000032028TJOSE ANGEL RODRIGUEZ PAREDES                                                000000000000000000N
071989061999999000032029TJOSE ANTONIO FERNANDEZ ALONSO                                               000000000000000000N
071989061999999000032030TEMILIO RODRIGUEZ LOPEZ                                                      000000000000000000N
071989061999999000032031TMANUEL GARCIA MENENDEZ                                                      000000000000000000N
071989061999999000032032TADOLFO CAMILO DIAZ LOPEZ                                                    000000000000000000N
071989061999999000032033TXOSE RAMON DIAZ GARCIA                                                      000000000000000000N
071989061999999000032034TFRANCISCO JAVIER FERNANDEZ ROMERO                                           000000000000000000N
071989061999999000032035TRICARDO ALVAREZ GARCIA                                                      000000000000000000N
071989061999999000032036TVICTORIA DIAZ FERNANDEZ                                                     000000000000000000N
071989061999999000032037TANA MARIA MENENDEZ ESTRADA                                                  000000000000000000N
071989061999999000032038TAMADEO BENAVENTE RODRIGUEZ                                                  000000000000000000N
071989061999999000032039TROBERTO GARCIA GONZALEZ                                                     000000000000000000N
071989061999999000032040TFERNANDO GARCIA FERNANDEZ                                                   000000000000000000N
071989061999999000032041TALBERTO GARCIA FERNANDEZ                                                    000000000000000000N
071989061999999000032042TMARIA JOSEFA GONZALEZ FERNANDEZ                                             000000000000000000N
071989061999999000032043TLUIS GONZALEZ HELGUERA                                                      000000000000000000N
071989061999999000032044TFERNANDO CUETO MIRANDA                                                      000000000000000000N
071989061999999000032045TFRANCISCO JOSE IGLESIAS BARROS                                              000000000000000000N
071989061999999000032046TALBERTO ALFONSO MEGIDO                                                      000000000000000000N
071989061999999000032047TIGNACIO LOPEZ FERNANDEZ                                                     000000000000000000N
071989061999999000032048TMARIA ANGELES FERNANDEZ LOPEZ                                               000000000000000000N
071989061999999000032049TMARIA DEL CARMEN COSTALES FERNANDEZ                                         000000000000000000N
071989061999999000032050TJUAN NAVEIRAS NAVEIRAS                                                      000000000000000000N
071989061999999000032051TIGNACIO IGLESIAS FERNANDEZ                                                  000000000000000000N
071989061999999000032052TJUAN LUIS BERNARDO SUAREZ                                                   000000000000000000N
071989061999999000032053TPELAYO FERNANDEZ COALLA                                                     000000000000000000N
071989061999999000032054TFRANCISCO JAVIER RODRIGUEZ MONTESERIN                                       000000000000000000N
071989061999999000032055TFLORENTINA GARCIA LAVIADA                                                   000000000000000000N
071989061999999000032056TMARIA CONSOLACION PILAR ARROSPIDE MUÑIZ                                     000000000000000000N
071989061999999000032057TGLORIA GARCIA PAREDES                                                       000000000000000000N
071989061999999000032058TEDUARDO SOLIS TAMARGO                                                       000000000000000000N
071989061999999000032059TJOSE MANUEL GARCIA SOLIS                                                    000000000000000000N
071989061999999000032060TJOSE LUIS CARMONA GARCIA                                                    000000000000000000N
071989061999999000033001TJOSE JORQUERA AMORES                                                        000000000000000000N
071989061999999000033002TASCENSION PARIAS LAHOZ                                                      000000000000000000N
071989061999999000033003TMARIA DEL MAR PASTOR MARTIN                                                 000000000000000000N
071989061999999000033004TMANUEL MIGUEL MONSELL LOBO                                                  000000000000000000N
071989061999999000033005TCONCEPCION HERMOSIN ZAMBRANO                                                000000000000000000N
071989061999999000033006TMARIA DEL CARMEN PARIAS LAHOZ                                               000000000000000000N
071989061999999000033007TMARIA TERESA PARKINSON SOLER                                                000000000000000000N
071989061999999000033008TMARIA DOLORES MORENO GUILLEN                                                000000000000000000N
071989061999999000033009TANA MARIA CALLEJON MARTIN                                                   000000000000000000N
071989061999999000033010TANA MARIA PEÑA MARIN                                                        000000000000000000N
071989061999999000033011TANA MARIA SANCHEZ PINEDA                                                    000000000000000000N
071989061999999000033012TMANUEL RODRIGUEZ CARMONA                                                    000000000000000000N
071989061999999000033013TMANUEL REYES VAZQUEZ                                                        000000000000000000N
071989061999999000033014TCARMEN RAPOSO SANCHEZ                                                       000000000000000000N
071989061999999000033015TFRANCISCO GAMBOA VERA                                                       000000000000000000N
071989061999999000033016TJUAN PEDRO SARASUA HELICES                                                  000000000000000000N
071989061999999000033017TPABLO PARRILLA BARRERA                                                      000000000000000000N
071989061999999000033018TJOSE ANTONIO LIZARRALDE PLAZA                                               000000000000000000N
071989061999999000033019TJUAN FRANCO BELTRAN                                                         000000000000000000N
071989061999999000033020TJOSE LUIS GARCIA APARICIO                                                   000000000000000000N
071989061999999000033021TRAFAEL DE CALA PERUSO                                                       000000000000000000N
071989061999999000033022TJUAN JOSE BONILLA ALVAREZ                                                   000000000000000000N
071989061999999000033023TFRANCISCO ARQUERO CASTELLANO                                                000000000000000000N
071989061999999000033024TJULIAN MORALES GARCIA                                                       000000000000000000N
071989061999999000033025TANTONIO ORELLANA VALLE                                                      000000000000000000N
071989061999999000033026TJUAN LUIS HERRERA PAULANO                                                   000000000000000000N
071989061999999000033027TFRANCISCO LEON ALONSO                                                       000000000000000000N
071989061999999000033028TTOMAS JORQUERA AMORES                                                       000000000000000000N
071989061999999000033029TRICARDO TRASCASTRO RICO                                                     000000000000000000N
071989061999999000033030TEDUARDO DE VILLEGAS SILES                                                   000000000000000000N
071989061999999000033031TEMILIO PEÑA MARIN                                                           000000000000000000N
071989061999999000033032TALFONSO ESCOBAR POZUELO                                                     000000000000000000N
071989061999999000033033TFERNANDO DE VILLEGAS SILES                                                  000000000000000000N
071989061999999000033034TJUAN JUAREZ MARTINEZ                                                        000000000000000000N
071989061999999000033035TANTONIO MEDINA MOLERA                                                       000000000000000000N
071989061999999000033036TJOSE LUIS ALCAZAR LOPEZ                                                     000000000000000000N
071989061999999000033037TMANUEL A. RODRIGUEZ GONZALEZ                                                000000000000000000N
071989061999999000033038TFERNANDO MORENO SANCHEZ                                                     000000000000000000N
071989061999999000033039TINES VERA GONZALEZ                                                          000000000000000000N
071989061999999000033040TFRANCISCO DAVID DIAZ GONZALEZ                                               000000000000000000N
071989061999999000033041TMARIA DEL CARMEN TRASCASTRO RICO                                            000000000000000000N
071989061999999000033042TJOSEFA RICO SANCHEZ                                                         000000000000000000N
071989061999999000033043TMARIA DEL CARMEN MONTAÑEZ CALDERON                                          000000000000000000N
071989061999999000033044TSIXTO MIGUEL BUENDIA RODRIGUEZ                                              000000000000000000N
071989061999999000033045TANTONIO CRUZ RODRIGUEZ                                                      000000000000000000N
071989061999999000033046TJUAN JOSE RUBIO LOPEZ                                                       000000000000000000N
071989061999999000033047TRAFAEL RUBIO LOPEZ                                                          000000000000000000N
071989061999999000033048TGREGORIO GUTIERREZ CHICA                                                    000000000000000000N
071989061999999000033049TANGEL JURADO ARAGON                                                         000000000000000000N
071989061999999000033050TJUAN MANUEL RODRIGUEZ GOMEZ                                                 000000000000000000N
071989061999999000033051TISABEL PALACIOS NUÑEZ                                                       000000000000000000N
071989061999999000033052TANGEL MIGUEL GONZALEZ GARCIA                                                000000000000000000N
071989061999999000033053TINMACULADA GUTIERREZ IBAÑEZ                                                 000000000000000000N
071989061999999000033054TFERNANDO HERMOSIN ZAMBRANO                                                  000000000000000000N
071989061999999000033055TRAFAEL REINA LEDESMA                                                        000000000000000000N
071989061999999000033056TJOSE LUIS BARRAGAN LOZANO                                                   000000000000000000N
071989061999999000033057TROSARIO CASTELLANOS CORCUERA                                                000000000000000000N
071989061999999000033058TRAFAEL SANCHEZ CASTELLANOS                                                  000000000000000000N
071989061999999000033059TJOSE EUGENIO MONTES GOMEZ                                                   000000000000000000N
071989061999999000033060TANTONIO FERNANDEZ DEL FRESNO                                                000000000000000000N
071989061999999000027020TJOSE LUIS BARCELO MEZQUITA                                                  000000000000000000N
071989061999999000027021TMARIA CRISTINA RODRIGUEZ PEREZ                                              000000000000000000N
071989061999999000027022TMARIA D. CARRILLO DE CISNEROS MOLIN                                         000000000000000000N
071989061999999000027023TISABEL CLARK MOLINA                                                         000000000000000000N
071989061999999000027024T                                                                            000000000000000000N
071989061999999000027025T                                                                            000000000000000000N
071989061999999000027026T                                                                            000000000000000000N
071989061999999000027027T                                                                            000000000000000000N
071989061999999000027028T                                                                            000000000000000000N
071989061999999000027029T                                                                            000000000000000000N
071989061999999000027030T                                                                            000000000000000000N
071989061999999000027031T                                                                            000000000000000000N
071989061999999000027032T                                                                            000000000000000000N
071989061999999000027033T                                                                            000000000000000000N
071989061999999000027034T                                                                            000000000000000000N
071989061999999000027035T                                                                            000000000000000000N
071989061999999000027036T                                                                            000000000000000000N
071989061999999000027037T                                                                            000000000000000000N
071989061999999000027038T                                                                            000000000000000000N
071989061999999000027039T                                                                            000000000000000000N
071989061999999000027040T                                                                            000000000000000000N
071989061999999000027041T                                                                            000000000000000000N
071989061999999000027042T                                                                            000000000000000000N
071989061999999000027043T                                                                            000000000000000000N
071989061999999000027044T                                                                            000000000000000000N
071989061999999000027045T                                                                            000000000000000000N
071989061999999000027046T                                                                            000000000000000000N
071989061999999000027047T                                                                            000000000000000000N
071989061999999000027048T                                                                            000000000000000000N
071989061999999000027049T                                                                            000000000000000000N
071989061999999000027050T                                                                            000000000000000000N
071989061999999000027051T                                                                            000000000000000000N
071989061999999000027052T                                                                            000000000000000000N
071989061999999000027053T                                                                            000000000000000000N
071989061999999000027054T                                                                            000000000000000000N
071989061999999000027055T                                                                            000000000000000000N
071989061999999000027056T                                                                            000000000000000000N
071989061999999000027057T                                                                            000000000000000000N
071989061999999000027058T                                                                            000000000000000000N
071989061999999000027059T                                                                            000000000000000000N
071989061999999000027060T                                                                            000000000000000000N
071989061999999000028001TJOSE MARIA COMPANY MORALES                                                  000000000000000000N
071989061999999000028002TMARIA CARMELA BARCIA BUSTELO                                                000000000000000000N
071989061999999000028003TJULIO ALONSO ALCAIDE                                                        000000000000000000N
071989061999999000028004TEDUARDO GAMERO CASADO                                                       000000000000000000N
071989061999999000028005TJOAN VALBUENA I CADAFALCH                                                   000000000000000000N
071989061999999000028006TANA BLANCA GALLO ALVAREZ                                                    000000000000000000N
071989061999999000028007TJAVIER TAFUR LOPEZ                                                          000000000000000000N
071989061999999000028008TANA MARIA ARRUFAT I CIURO                                                   000000000000000000N
071989061999999000028009TMARTA TERESA GARCIA DE CASASOLA GOMEZ                                       000000000000000000N
071989061999999000028010TMATILDE ALVAREZ GONZALEZ                                                    000000000000000000N
071989061999999000028011TRICARDO LOPEZ-ARANDA JAGU                                                   000000000000000000N
071989061999999000028012TJOSE MARIA RESA RODRIGUEZ                                                   000000000000000000N
071989061999999000028013TFRANCISCO JAVIER CADAFALCH I MUÑOZ                                          000000000000000000N
071989061999999000028014TCLAUDIA BENITO Y PEREIRA                                                    000000000000000000N
071989061999999000028015TENRIQUE FUENTES RUIZ                                                        000000000000000000N
071989061999999000028016TFRICDIANO ALVARO DURANTEZ PRADOS                                            000000000000000000N
071989061999999000028017TMARTA ESPACHS I CIURO                                                       000000000000000000N
071989061999999000028018TJAVIER EDUARDO GUERRERO CONTRERAS                                           000000000000000000N
071989061999999000028019TLUIS RUFINO CHARCO                                                          000000000000000000N
071989061999999000028020TROCIO RIVERO FOLGADO                                                        000000000000000000N
071989061999999000028021TJORGE FORTUÑO I SOUTO                                                       000000000000000000N
071989061999999000028022TFRANCISCO JAVIER GUTIERREZ CARACUEL                                         000000000000000000N
071989061999999000028023TCARLOS ARTAL DE LARA                                                        000000000000000000N
071989061999999000028024TJORGE HORTAL I LOPEZ                                                        000000000000000000N
071989061999999000028025TLUIS JAVIER DE SOSA MARTIN                                                  000000000000000000N
071989061999999000028026TRAQUEL DE VICENTE CARNICER                                                  000000000000000000N
071989061999999000028027TMARIO CANIVELL RODRIGUEZ                                                    000000000000000000N
071989061999999000028028TMARIA TERESA RIERA I FONTANEDA                                              000000000000000000N
071989061999999000028029TMARIA CONCEPCION BARCIA BUSTELO                                             000000000000000000N
071989061999999000028030TROSA MARIA RODRIGUEZ GOMEZ                                                  000000000000000000N
071989061999999000028031TMANUEL RIVERO I ROSSI                                                       000000000000000000N
071989061999999000028032TEVA MARIA BARTOLOME AUTO                                                    000000000000000000N
071989061999999000028033TMANUEL MERIDA ORDOÑEZ                                                       000000000000000000N
071989061999999000028034TMARIA DOLORES SANCHEZ ROPERO                                                000000000000000000N
071989061999999000028035TFRANCISCO BENITO ARMERO                                                     000000000000000000N
071989061999999000028036TENCARNACION ARENAS CRIADO                                                   000000000000000000N
071989061999999000028037TBEATRIZ VILLAR COLINA                                                       000000000000000000N
071989061999999000028038TJOAQUIN TORRES GONZALEZ-BARBA                                               000000000000000000N
071989061999999000028039TBENJAMIN SERRANO MU^OZ                                                      000000000000000000N
071989061999999000028040TMIGUEL ANGEL AVILA PUYANA                                                   000000000000000000N
071989061999999000028041TJAVIER IGNACIO PEREZ GOMEZ                                                  000000000000000000N
071989061999999000028042TFERNANDO SANCHEZ-ARJONA CAVANILLES                                          000000000000000000N
071989061999999000028043TPEDRO UBEDA RODRIGUEZ                                                       000000000000000000N
071989061999999000028044TFRANCISCO JAVIER MOYA GARCIA                                                000000000000000000N
071989061999999000028045TCRISTINA SANCRISTOVAL ZURITA                                                000000000000000000N
071989061999999000028046TMARIA JOSE UTGES BLESA                                                      000000000000000000N
071989061999999000028047TJORGE ERICE CALVO-SOTELO                                                    000000000000000000N
071989061999999000028048TANTONIO ALVAREZ-SALA SANJUAN                                                000000000000000000N
071989061999999000028049T                                                                            000000000000000000N
071989061999999000028050T                                                                            000000000000000000N
071989061999999000012006TANDRES GIMENEZ MORENO                                                       000000000000000000N
071989061999999000012007TAURORA BERANGUERAS ALVAREZ                                                  000000000000000000N
071989061999999000012008TJUAN DOMENECH MATESANZ                                                      000000000000000000N
071989061999999000012009TMARIA MILAGROS CASANOVA TEJERO                                              000000000000000000N
071989061999999000012010TJOSE LUIS MORENO VALLE                                                      000000000000000000N
071989061999999000012011TAURORA PAREDES BERANGUERAS                                                  000000000000000000N
071989061999999000012012TJAIME MORENO LORCA                                                          000000000000000000N
071989061999999000012013TMARIA ORTIN GRACIA                                                          000000000000000000N
071989061999999000012014TJAIME MORENO OLIVA                                                          000000000000000000N
071989061999999000012015TOLGA CATALA RICO                                                            000000000000000000N
071989061999999000012016TJOSE ZAMORA MONTES                                                          000000000000000000N
071989061999999000012017TEUFEMIA MATESANZ BERZAL                                                     000000000000000000N
071989061999999000012018TJOSE ANTONIO PEREZ ALVAREZ                                                  000000000000000000N
071989061999999000012019TMARTA PEREZ LOPEZ                                                           000000000000000000N
071989061999999000012020TANTONIO MANUELGARCIA SOMOZA                                                 000000000000000000N
071989061999999000012021TCECILIA SAZ MONGIL                                                          000000000000000000N
071989061999999000012022TVALENTIN FELIPE GONZALEZ                                                    000000000000000000N
071989061999999000012023TMARIA DEL CARMEN PUERTAS TORTOSA                                            000000000000000000N
071989061999999000012024TMANUEL GONZALEZ GARCIA                                                      000000000000000000N
071989061999999000012025TCARMEN RICO HERNANDEZ                                                       000000000000000000N
071989061999999000012026TFRANCISCO SAAVEDRA PONCE                                                    000000000000000000N
071989061999999000012027TPILAR ROMERO MARTINEZ                                                       000000000000000000N
071989061999999000012028TJOSE ZAMORA SANCHEZ (JOSE MARIA)                                            000000000000000000N
071989061999999000012029TSONIA RODRIGUEZ CARREIRA                                                    000000000000000000N
071989061999999000012030TPEDRO FERRUS PALACIOS                                                       000000000000000000N
071989061999999000012031TCATALINA ROMERO MARTINEZ                                                    000000000000000000N
071989061999999000012032TJULIO REMEDIO MENDO                                                         000000000000000000N
071989061999999000012033TMARIA ELENA DE LA ROJA UTRILLA                                              000000000000000000N
071989061999999000012034TFRANCISCA OLIVA JUVE                                                        000000000000000000N
071989061999999000012035TJULIO VILLANUEVA GARCIA                                                     000000000000000000N
071989061999999000012036TSILVIA MAYO BENAVENTE                                                       000000000000000000N
071989061999999000012037TMARIA DOLORES BALLESTE                                                      000000000000000000N
071989061999999000012038TMONICA RODRIGUEZ CASANOVA                                                   000000000000000000N
071989061999999000012039TDOLORES DE PACO SANT                                                        000000000000000000N
071989061999999000012040TFRANCISCO SAAVEDRA GARCIA                                                   000000000000000000N
071989061999999000012041TMARIA ANTONIA DOMENECH MATESANZ                                             000000000000000000N
071989061999999000012042TMARIA ALVAREZ MONTERO                                                       000000000000000000N
071989061999999000012043TMARIA DEL CARMEN BESA LEMOS                                                 000000000000000000N
071989061999999000012044TFRANCISCO MARTIN PEREZ                                                      000000000000000000N
071989061999999000012045TPILAR FRANCO BUIL                                                           000000000000000000N
071989061999999000012046TROSA MALET ENGROÑAT                                                         000000000000000000N
071989061999999000012047TMARGARITA PEREZ LOPEZ                                                       000000000000000000N
071989061999999000012048TLUISA VELASCO MORALES                                                       000000000000000000N
071989061999999000012049TLUCIA GOMARIZ GARCIA                                                        000000000000000000N
071989061999999000012050TJOSE ANTONIO RODRIGUEZ MARTINEZ                                             000000000000000000N
071989061999999000012051TMARIA TRINIDAD GRACIA MOLINA                                                000000000000000000N
071989061999999000012052TLAURA BARCELO PEREZ                                                         000000000000000000N
071989061999999000012053TJOAQUINA DE LA PEÑASAAVEDRA PONCE                                           000000000000000000N
071989061999999000012054TANGELA VELASCO MORALES                                                      000000000000000000N
071989061999999000012055TJULIA LOPEZ MARTI                                                           000000000000000000N
071989061999999000012056TYOLANDA CRUGEIRA BARRIONUEVO                                                000000000000000000N
071989061999999000012057TGREGORIA MARTINEZ BARCOJO                                                   000000000000000000N
071989061999999000012058TMARIA ANGELES GOMEZ DE ORGAL LOPEZ AGUADO                                   000000000000000000N
071989061999999000012059TMARIA CATALAN GIMENEZ                                                       000000000000000000N
071989061999999000012060TFRANCISCA PONCE CARRASCO                                                    000000000000000000N
071989061999999000013001TJUAN RAMOS CAMARERO (PCPE)                                                  000000000000000000N
071989061999999000013002TJOAN TAFALLA MONFERRER (PCC)                                                000000000000000000N
071989061999999000013003TJAIME BALLESTEROS PULIDO (PCPE)                                             000000000000000000N
071989061999999000013004TMARIA DEL CARMEN MORENTE MUÑOZ (PCPE)                                       000000000000000000N
071989061999999000013005TFERNANDO SAGASETA CABRERA (PCPE)                                            000000000000000000N
071989061999999000013006TANTONIO ESTEVE RODENAS (ANTONIO GADES) (PCPE)                               000000000000000000N
071989061999999000013007TJOSE MIGUEL CESPEDES ALOS (PCPE)                                            000000000000000000N
071989061999999000013008TFRANCISCO MUÑOZ PELAEZ (PCC)                                                000000000000000000N
071989061999999000013009TLEOPOLDO ALCARAZ REDONDO (PCPE)                                             000000000000000000N
071989061999999000013010TFRANCISCO CAMPOS BLANCO (TARZAN) (PCPE)                                     000000000000000000N
071989061999999000013011TRAMON BADA SANCHEZ (PCPE)                                                   000000000000000000N
071989061999999000013012TMIGUEL CAMPILLO ROS (PCPE)                                                  000000000000000000N
071989061999999000013013TMANUEL POZO CABALLERO (PCPE)                                                000000000000000000N
071989061999999000013014TVICTOR DEL BUSTO DIAZ (PCPE)                                                000000000000000000N
071989061999999000013015TJORDI MIRALLES CONTE (PCC)                                                  000000000000000000N
071989061999999000013016TGUILLERMO GIL VAZQUEZ (PCPE)                                                000000000000000000N
071989061999999000013017TCARLOS ALBERTO GUTIERREZ GARCIA-ALIX (PCPE)                                 000000000000000000N
071989061999999000013018TFELIPE REVUELTA GONZALEZ (PCPE)                                             000000000000000000N
071989061999999000013019TPEDRO CHAVES GIRALDOS (PCPE)                                                000000000000000000N
071989061999999000013020TCORPUS CARLOS GONZALEZ ASTIZ (PCPE)                                         000000000000000000N
071989061999999000013021TMANUELA RODRIGUEZ LAZARO (PCC)                                              000000000000000000N
071989061999999000013022TJOSE VALERO GONZALEZ (PCPE)                                                 000000000000000000N
071989061999999000013023TMARIA GLORIA FERNANDEZ RUIZ (PCPE)                                          000000000000000000N
071989061999999000013024TMANUEL GONZALEZ GARRIDO (PCPE)                                              000000000000000000N
071989061999999000013025TPEDRO BOLIVAR REVERTE (PCPE)                                                000000000000000000N
071989061999999000013026TJOAN PLANAS SERRA (PCC)                                                     000000000000000000N
071989061999999000013027TBENITO CEA ZARZOSA (PCPE)                                                   000000000000000000N
071989061999999000013028TSOLEDAD REAL LOPEZ (PCPE)                                                   000000000000000000N
071989061999999000013029TMAURICIO VALIENTE OTS (PCPE)                                                000000000000000000N
071989061999999000013030TJUAN PALLISE CLOFENT (PCC)                                                  000000000000000000N
071989061999999000013031TJUAN ROMERO PAZO (PCPE)                                                     000000000000000000N
071989061999999000013032TSANTIAGO RAMON GARCIA RUBIO (PCPE)                                          000000000000000000N
071989061999999000013033TFRANCISCO JOSE TENDERO EGEA (PCPE)                                          000000000000000000N
071989061999999000013034TJORGE RIBO FLOS (PCC)                                                       000000000000000000N
071989061999999000013035TMANUEL ESTEVEZ JIMENEZ (PCPE)                                               000000000000000000N
071989061999999000013036TNOEMI DE LA CONSOLACION JIMENEZ SAHAGUN (PCPE)                              000000000000000000N
071989061999999000013037TNICASIO SANCHO GONZALEZ (PCPE)                                              000000000000000000N
071989061999999000013038TJUAN MANUEL PATON BARNES (PCC)                                              000000000000000000N
071989061999999000013039TSILVESTRE RAMIREZ DELGADO (PCPE)                                            000000000000000000N
071989061999999000013040TEVENCIO HERAS SILLERAS (PCPE)                                               000000000000000000N
071989061999999000013041TASTERIO LEAL UTIEL (PCPE)                                                   000000000000000000N
071989061999999000013042TMARTIN ROMAN CORDERO (PCPE)                                                 000000000000000000N
071989061999999000013043TAMADEU SERCH MESTRE (PCC)                                                   000000000000000000N
071989061999999000013044TJULIO DIAZ DIAZ (PCPE)                                                      000000000000000000N
071989061999999000013045TJUAN PUCHE GOMEZ (PCPE)                                                     000000000000000000N
071989061999999000013046TJOSE LUIS ANGULO NAVARRO (PCPE)                                             000000000000000000N
071989061999999000013047TJOSE DEL TORO AUGUSTO (PCPE)                                                000000000000000000N
071989061999999000013048TMARIA TERESA FORTUNY SOLA (PCC)                                             000000000000000000N
071989061999999000013049TMIGUEL ANGEL VILLALON RIVERA (PCPE)                                         000000000000000000N
071989061999999000013050TSERVANDO POZO LOPEZ (PCPE)                                                  000000000000000000N
071989061999999000013051TLUIS GALLEGO PEÑA (PCPE)                                                    000000000000000000N
071989061999999000013052TALBERTO HERBERA LOPEZ (PCPE)                                                000000000000000000N
071989061999999000013053TRODRIGO MORENO PLANISOLIS (PCC)                                             000000000000000000N
071989061999999000013054TJESUS BACHILLER ANDRES (PCPE)                                               000000000000000000N
071989061999999000013055TMANUEL COSANO MOLINA (PCPE)                                                 000000000000000000N
071989061999999000013056TMIGUEL ANGEL HIDALGO TEJERINA (PCPE)                                        000000000000000000N
071989061999999000013057TMIGUEL TOMAS ROMERO (PCC)                                                   000000000000000000N
071989061999999000013058TANTONIO MORAN BARRADO (PCPE)                                                000000000000000000N
071989061999999000013059TFRANCISCO DE ASIS MOROTE VIDAL (PCPE)                                       000000000000000000N
071989061999999000013060TMARIA ANGELES MARTINEZ CASTELLS (PCC)                                       000000000000000000N
071989061999999000014001TCARLOS GARAIKOETXEA URRIZA (EA)                                             000000000000000000S
071989061999999000014002THERIBERT BARRERA I COSTA (ERC)                                              000000000000000000N
071989061999999000014003TANTONIO OLIVES QUINTAS (PNG-PG)                                             000000000000000000N
071989061999999000014004TJOSEBA AZCARRAGA RODERO (EA)                                                000000000000000000N
071989061999999000014005TPACA SEVILA I GARCIA (IND.)                                                 000000000000000000N
071989061999999000014006TJOAN BAPTISTA FONOLLOSA I GUARDIET (ERC)                                    000000000000000000N
071989061999999000014007TJESUS MANUEL SUAREZ GARCIA (PNG-PG)                                         000000000000000000N
071989061999999000014008TGREGORIO JAVIER MONREAL ZIA (EA)                                            000000000000000000N
071989061999999000014009TJOAN MIR I OBRADOR (ERC)                                                    000000000000000000N
071989061999999000014010TOLEGARIO SOTELO BLANCO (PNG-PG)                                             000000000000000000N
071989061999999000014011TM. ROSARIO AJURIAGUERRA OCHANDIANO (EA)                                     000000000000000000N
071989061999999000014012TRAMON GARRIGA I MARQUES (ERC)                                               000000000000000000N
071989061999999000014013TMARIA TERESA CASAL GARCIA (PNG-PG)                                          000000000000000000N
071989061999999000014014TNESTOR BASTERRECHEA AZADUN (EA)                                             000000000000000000N
071989061999999000014015TJOSEP RAHOLA I D'ESPONA (ERC)                                               000000000000000000N
071989061999999000014016TMANUEL ELIAS PEREZ ALVAREZ (PNG-PG)                                         000000000000000000N
071989061999999000014017TMARTIN UGALDE ORRADRE (EA)                                                  000000000000000000N
071989061999999000014018TOCTAVI MIARNAU I ROCA (ERC)                                                 000000000000000000N
071989061999999000014019TJOSE LUIS TEIJEIRO ALONSO (PNG-PG)                                          000000000000000000N
071989061999999000014020TROSA MARIA AGUDO HUICI (EA)                                                 000000000000000000N
071989061999999000014021TERNEST BENACH I PASCUAL (ERC)                                               000000000000000000N
071989061999999000014022TJOSE SUAREZ GARCIA (PNG-PG)                                                 000000000000000000N
071989061999999000014023TXABIER QUINTANA URTIAGA (EA)                                                000000000000000000N
071989061999999000014024TCARLES FURRIOLS I SOLA (ERC)                                                000000000000000000N
071989061999999000014025TJOSE PEDRO RIOL LOPEZ (PNG-PG)                                              000000000000000000N
071989061999999000014026TJUAN IGNACIO RETEGUI PETRICORENA (EA)                                       000000000000000000N
071989061999999000014027TJORDI MARTI I OLLER (ERC)                                                   000000000000000000N
071989061999999000014028TMANUEL JOSE GARCIA MONTEAGUDO (PNG-PG)                                      000000000000000000N
071989061999999000014029TNIEVES ORMAOLEA LAUZIRIKA (EA)                                              000000000000000000N
071989061999999000014030TFRANCESC CASES I MIANES (ERC)                                               000000000000000000N
071989061999999000014031TANDRES RODRIGUEZ PEREIRA (PNG-PG)                                           000000000000000000N
071989061999999000014032TJUAN IGNACIO LORENTE ZUGAZA (EA)                                            000000000000000000N
071989061999999000014033TFRANCESC XAVIER SIMO I ESPARRICH (ERC)                                      000000000000000000N
071989061999999000014034TJOSE SOTELO BARROS (PNG-PG)                                                 000000000000000000N
071989061999999000014035TMARIA DOLORES IRUJO ELIZALDE (EA)                                           000000000000000000N
071989061999999000014036TJAUME ALFONSO I BARCELO (ERC)                                               000000000000000000N
071989061999999000014037TEMILIO ALONSO FERNANDEZ (PNG-PG)                                            000000000000000000N
071989061999999000014038TJORGE KNORR BORRAS (EA)                                                     000000000000000000N
071989061999999000014039TBERNARDINA FITO I BESORA (ERC)                                              000000000000000000N
071989061999999000014040TJOSE FRANCISCO EIRAS LEIS (PNG-PG)                                          000000000000000000N
071989061999999000014041TMARIA ESTHER LARRAÑAGA GALDOS (EA)                                          000000000000000000N
071989061999999000014042TJOSEP ROSEILL I VIÑAS (ERC)                                                 000000000000000000N
071989061999999000014043TFERNANDO BARRO SAVIN (PNG-PG)                                               000000000000000000N
071989061999999000014044TJUAN DANIEL BARANDIARAN JACA (EA)                                           000000000000000000N
071989061999999000014045TJAUME OLIVER I ADROVER (ERC)                                                000000000000000000N
071989061999999000014046TMARIA GORETTI SOBRINO MAROÑAS (PNG-PG)                                      000000000000000000N
071989061999999000014047TJOSE LARREA ORMAZABAL (EA)                                                  000000000000000000N
071989061999999000014048TMARCELLI MARONES I FERRERA (ERC)                                            000000000000000000N
071989061999999000014049TJOSE MANUEL PORTELA PAZOS (PNG-PG)                                          000000000000000000N
071989061999999000014050TMARIA PETRA OYARZABAL IRIGOYEN (EA)                                         000000000000000000N
071989061999999000014051TJOSEP BOLADERAS I FONT (ERC)                                                000000000000000000N
