072019051999999000001001TConsuelo                 Mira                     Tornadijo                F00000000          N
072019051999999000001010TBlas                     Caballero                Martínez                 M00000000          N
072019051999999000001011TMarina                   Esteban                  Sastre                   F00000000          N
072019051999999000001012TMaría Victoria           Ramírez                  Ruíz                     F00000000          N
072019051999999000001013TMaría Rosa               Cervera                  Salinas                  F00000000          N
072019051999999000001014TJesús                    Pedrós                   Cholvi                   M00000000          N
072019051999999000001015TCarlos Manuel            Gómez                    García                   M00000000          N
072019051999999000001016TIsabel                   Mira                     Tornadijo                F00000000          N
072019051999999000001017TGeorgina                 Belenguer                Ribera                   F00000000          N
072019051999999000001018TClara Inia               Herrando                 Andrés                   F00000000          N
072019051999999000001019TGerard                   Gonzálvez                Mira                     M00000000          N
072019051999999000001002TMaría Jesús              Rodríguez                Cuevas                   F00000000          N
072019051999999000001020TRaúl                     Molina                   Martos                   M00000000          N
072019051999999000001021TNuria                    Castillo                 Monzoncillo              F00000000          N
072019051999999000001022TEmilia                   Baena                    Capilla                  F00000000          N
072019051999999000001023TAna María                Miguel                   Minguez                  F00000000          N
072019051999999000001024TGuillem                  Beltrán                  Bonastre                 M00000000          N
072019051999999000001025TJuan                     Atienza                  Blesa                    M00000000          N
072019051999999000001026TMaría Carmen             González                 Lago                     F00000000          N
072019051999999000001027TMireia Neus              Renau                    Claramonte               F00000000          N
072019051999999000001028TMaría Pilar              Pallás                   López                    F00000000          N
072019051999999000001029TAlfonso                  Miguel                   Mínguez                  M00000000          N
072019051999999000001003TInés                     Ausín                    Molina                   F00000000          N
072019051999999000001030TManuel                   Naharro                  Tobarra                  M00000000          N
072019051999999000001031TClaudia                  Torregrosa               Reyes                    F00000000          N
072019051999999000001032TMaría Elva               Tenorio                  López                    F00000000          N
072019051999999000001033TMaría del Mar            Molpeceres               Molpeceres               F00000000          N
072019051999999000001034TFrancisco Javier         Ramírez                  García                   M00000000          N
072019051999999000001035TDionisio                 Solana                   Checa                    M00000000          N
072019051999999000001036TMaría Dolores            Moya                     Pérez                    F00000000          N
072019051999999000001037TMaría Gloria             Folch                    Blanca                   F00000000          N
072019051999999000001038TTibisay                  Pérez                    Cervera                  F00000000          N
072019051999999000001039TJulio                    Molina                   Llorens                  M00000000          N
072019051999999000001004TJavier                   Gonzálvez                Avellana                 M00000000          N
072019051999999000001040TVíctor                   Martínez                 Martínez                 M00000000          N
072019051999999000001041TNathalia                 Solarte                  Clavijo                  F00000000          N
072019051999999000001042TBlanca María             Donald                   Buil                     F00000000          N
072019051999999000001043TAna María                Cicero                   Miguel                   F00000000          N
072019051999999000001044TJesús                    Juan                     García                   M00000000          N
072019051999999000001045TAndreu                   Beltrán                  Bonastre                 M00000000          N
072019051999999000001046TAntonia                  Caballero                Rubio                    F00000000          N
072019051999999000001047TMaría Luisa              Salvador                 Vicente                  F00000000          N
072019051999999000001048TLiliana                  Renau                    Claramonte               F00000000          N
072019051999999000001049TFelix                    Ausín                    Molina                   M00000000          N
072019051999999000001005TJaime Alfonso            Beneyto                  Gasset                   M00000000          N
072019051999999000001050TJosé Antonio             Tamayo                   Arana                    M00000000          N
072019051999999000001051TPaloma                   Ausín                    Molina                   F00000000          N
072019051999999000001052TMaría del Carmen         Garcerá                  Marco                    F00000000          N
072019051999999000001053TJosé Javier              Satorres                 Martínez                 M00000000          N
072019051999999000001054TÁngel                    Lamo                     Cantero                  M00000000          N
072019051999999000001006TMaría Antonia            Moreno                   Llaneza                  F00000000          N
072019051999999000001007TMaría Asunción           Nortes                   Hernández                F00000000          N
072019051999999000001008TCristina                 Gonzálvez                Mira                     F00000000          N
072019051999999000001009THéctor                   Conde                    Rodríguez                M00000000          N
072019051999999000002001TIzaskun                  Bilbao                   Barandica                F00000000          S
072019051999999000002010TJuana                    García                   Santamaría               F00000000          N
072019051999999000002011TDaniel                   Lago                     Leiros                   M00000000          N
072019051999999000002012TIñaki                    Aguirre                  Arizmendi                M00000000          N
072019051999999000002013TJuan                     Dóniz                    Dóniz                    M00000000          N
072019051999999000002014TAinhoa                   Arrese                   Arratibel                F00000000          N
072019051999999000002015TMiren Amaia              Aguirre                  López                    F00000000          N
072019051999999000002016TKoldo                    Atxutegi                 Ajuria                   M00000000          N
072019051999999000002017TTatiana                  Brito                    Gutiérrez                F00000000          N
072019051999999000002018TAntonio                  Mir                      Llabrés                  M00000000          N
072019051999999000002019TImanol                   Lasa                     Zeberio                  M00000000          N
072019051999999000002002TLuís Guillermo           Padilla                  Macabeo                  M00000000          N
072019051999999000002020TMilagros                 Corral                   Surribas                 F00000000          N
072019051999999000002021TDomingo Isidro           Hernández                Guerra                   M00000000          N
072019051999999000002022TXabier                   Ezeizabarrena            Sáenz                    M00000000          N
072019051999999000002023TFernando                 de la Hucha              Celador                  M00000000          N
072019051999999000002024TMaría Lluisa             Puertas                  Vallés                   F00000000          N
072019051999999000002025TIdoia                    Barandika                López                    F00000000          N
072019051999999000002026TJosé Juan                Otero                    Lozano                   M00000000          N
072019051999999000002027TIdaira                   Martín                   Rodríguez                F00000000          N
072019051999999000002028TIrune                    Berasaluze               Lazkano                  F00000000          N
072019051999999000002029TMartín                   Arbilla                  Jiménez                  M00000000          N
072019051999999000002003TJuan Carlos              Piñeiro                  Docampo                  M00000000          N
072019051999999000002030TAitor                    Olaizola                 Zubillaga                M00000000          N
072019051999999000002031TMiguel Ángel             Medela                   Dobarro                  M00000000          N
072019051999999000002032TJaime Damián             Peña                     Martín                   M00000000          N
072019051999999000002033TTichla                   Ahmed                    López                    F00000000          N
072019051999999000002034TJosep Ignasi             Gelabert                 Vea                      M00000000          N
072019051999999000002035TArantzazu                Rojo                     Gómez                    F00000000          N
072019051999999000002036TElizabeth                Betancort                Melian                   F00000000          N
072019051999999000002037TAlvaro                   Castillo                 Cordero                  M00000000          N
072019051999999000002038TAlba                     Sanjurjo                 Penabad                  F00000000          N
072019051999999000002039TIker                     Goiria                   Echebarria               M00000000          N
072019051999999000002004TDaniel                   Innerarity               Grau                     M00000000          N
072019051999999000002040TEva María                Cueco                    Cantín                   F00000000          N
072019051999999000002041TAlmudena                 Ruiz De Angulo           Del Campo                F00000000          N
072019051999999000002042TJuan Salvador            Cerdeña                  Martín                   M00000000          N
072019051999999000002043TAmaia                    Txapartegi               Crespo                   F00000000          N
072019051999999000002044TJavier                   Pintos                   Pena                     M00000000          N
072019051999999000002045TJane Eyre                Urkieta                  Zuzaeta                  F00000000          N
072019051999999000002046TAmaia                    Arrizabalaga             Idiakez                  F00000000          N
072019051999999000002047TVictoriano               Gallastegi               Altube                   M00000000          N
072019051999999000002048TMaría Azucena            Duque                    Guadalupe                F00000000          N
072019051999999000002049TAne Miren                Ruiz                     De Viñaspre              F00000000          N
072019051999999000002005TMaría Del Mar            Llaneras                 Pascual                  F00000000          N
072019051999999000002050TJuan Alonso              Rodríguez                Nuñez                    M00000000          N
072019051999999000002051TKarmele                  Uribarri                 Urresti                  F00000000          N
072019051999999000002052TAntso                    Fernández                Oregi                    M00000000          N
072019051999999000002053TJon Andoni               Urdangarin               Urrutia                  M00000000          N
072019051999999000002054TAna Rosa                 Suárez                   Feijoo                   F00000000          N
072019051999999000002006TAndoni                   Aldekoa                  De La Torre              M00000000          N
072019051999999000002007TMaría Belén              González                 Rodríguez                F00000000          N
072019051999999000002008TLluís Vicent             Bertomeu                 Torner                   M00000000          N
072019051999999000002009TJoan                     Torres                   Costa                    M00000000          N
072019051999999000003001TJosep                    Borrell                  Fontelles                M00000000          S
072019051999999000003010TCésar                    Luena                    López                    M00000000          S
072019051999999000003011TClara Eugenia            Aguilera                 García                   F00000000          S
072019051999999000003012TIgnacio                  Sánchez                  Amor                     M00000000          S
072019051999999000003013TMónica Silvana           González                 González                 F00000000          S
072019051999999000003014TJuan Fernando            López                    Aguilar                  M00000000          S
072019051999999000003015TAdriana                  Maldonado                López                    F00000000          S
072019051999999000003016TJonás                    Fernández                Álvarez                  M00000000          S
072019051999999000003017TAlicia                   Homs                     Ginel                    F00000000          S
072019051999999000003018TJavier                   Moreno                   Sánchez                  M00000000          S
072019051999999000003019TIsabel                   García                   Muñoz                    F00000000          S
072019051999999000003002TIratxe                   García                   Pérez                    F00000000          S
072019051999999000003020TDomènec Miguel           Ruiz                     Devesa                   M00000000          S
072019051999999000003021TEstrella                 Dura                     Ferrandis                F00000000          N
072019051999999000003022TMarcos                   Ros                      Sempere                  M00000000          N
072019051999999000003023TLaura                    Ballarín                 Cereza                   F00000000          N
072019051999999000003024TRaúl                     Pesquera                 Cabezas                  M00000000          N
072019051999999000003025TMaría del Carmen         Heras                    Yuste                    F00000000          N
072019051999999000003026TYeray                    Díaz                     Zbida                    M00000000          N
072019051999999000003027TMaría Isabel             Ayuso                    Torres                   F00000000          N
072019051999999000003028TAlejandro                Colldefors               Bergnes de las Casas     M00000000          N
072019051999999000003029TLeonor                   Martínez                 Pereda Soto              F00000000          N
072019051999999000003003TLina                     Gálvez                   Muñoz                    F00000000          S
072019051999999000003030TÁlvaro                   Nava                     Aparicio                 M00000000          N
072019051999999000003031TMaría Belén              Flores                   Sánchez                  F00000000          N
072019051999999000003032TJosé Ignacio             Asensio                  Bazterra                 M00000000          N
072019051999999000003033TIsabel                   Báez                     Lechuga                  F00000000          N
072019051999999000003034TAlberto                  González                 Cabello                  M00000000          N
072019051999999000003035TGuadalupe                Rodríguez                Silva                    F00000000          N
072019051999999000003036TOmar                     Villegas                 Picazo                   M00000000          N
072019051999999000003037TSabrin                   Yermak                   Moumen                   F00000000          N
072019051999999000003038TSamuel                   de León                  Paez                     M00000000          N
072019051999999000003039TLaura                    de la Torre              Silvan                   F00000000          N
072019051999999000003004TFrancisco Javier         López                    Fernández                M00000000          S
072019051999999000003040TAnselmo José             Borobia                  Vizmanos                 M00000000          N
072019051999999000003041TMarta                    López                    Expósito                 F00000000          N
072019051999999000003042TJordi                    Santandreu               Jorda                    M00000000          N
072019051999999000003043TSarah                    Ben El Haj Soulami       Correa                   F00000000          N
072019051999999000003044TLuis                     Planas                   Herrera                  M00000000          N
072019051999999000003045TJudith                   Riera                    Román                    F00000000          N
072019051999999000003046TAlberto                  Guerrero                 Blanco                   M00000000          N
072019051999999000003047TAroa                     Jilete                   González                 F00000000          N
072019051999999000003048TIsmael                   Gutiérrez                Fernández                M00000000          N
072019051999999000003049TAna Lenochka             Yaquimenko               Delascio                 F00000000          N
072019051999999000003005TInmaculada               Rodríguez-Piñero         Fernández                F00000000          S
072019051999999000003050TJosé María               Gómez                    Santamaría               M00000000          N
072019051999999000003051TConchi                   Martín                   Gualda                   F00000000          N
072019051999999000003052TVíctor Manuel            Royo                     Jaime                    M00000000          N
072019051999999000003053TInés                     Gutiérrez                Salazar                  F00000000          N
072019051999999000003054TPedro                    Ródenas                  Santacreu                M00000000          N
072019051999999000003006TIban                     García                   del Blanco               M00000000          S
072019051999999000003007TEider                    Gardiazabal              Rubial                   F00000000          S
072019051999999000003008TNicolás                  González                 Casares                  M00000000          S
072019051999999000003009TCristina                 Maestre                  Martín de Almagro        F00000000          S
072019051999999000004001TPedro Alberto            García                   Bilbao                   M00000000          N
072019051999999000004010TRamón                    García                   Hernández                M00000000          N
072019051999999000004011TAlba                     Alonso                   Abadía                   F00000000          N
072019051999999000004012TJuan Miguel              Acejo                    Millán                   M00000000          N
072019051999999000004013TMargarita                García                   Sánchez                  F00000000          N
072019051999999000004014TGabriel                  Salguero                 Lafuente                 M00000000          N
072019051999999000004015TNatalia                  Blanco                   Rodríguez                F00000000          N
072019051999999000004016TCarlos                   Medina                   Casado                   M00000000          N
072019051999999000004017TAndrea                   de la Parra              Hernández                F00000000          N
072019051999999000004018TJosé Miguel              Bernardo                 Rodríguez                M00000000          N
072019051999999000004019TMarina                   López                    Domínguez                F00000000          N
072019051999999000004002TInmaculada               Molero                   Trujillo                 F00000000          N
072019051999999000004020TRafael                   Sánchez                  Molina                   M00000000          N
072019051999999000004021TMaria Coronación         López                    Moreno                   F00000000          N
072019051999999000004022TManuel Ángel             Benito                   Sánchez                  M00000000          N
072019051999999000004023TEva María                Duran                    Blanco                   F00000000          N
072019051999999000004024TFrancisco Javier         Gordo                    Rufes                    M00000000          N
072019051999999000004025TAmparo                   Prieto                   Fuentes                  F00000000          N
072019051999999000004026TJuan José                Martínez                 Embid                    M00000000          N
072019051999999000004027TMiriam Desamparados      Rodrigo                  Moreno                   F00000000          N
072019051999999000004028TJosu                     Zafra                    Caamaño                  M00000000          N
072019051999999000004029TAroa                     Muñoz                    Ruiz                     F00000000          N
072019051999999000004003TRamiro Manuel            Gil                      Morel                    M00000000          N
072019051999999000004030TAdrían                   Rodríguez                Salvago                  M00000000          N
072019051999999000004031TMaria Dolores            Romero                   Reyes                    F00000000          N
072019051999999000004032TJavier                   Prieto                   Blázquez                 M00000000          N
072019051999999000004033TBeatriz                  González                 Felipe                   F00000000          N
072019051999999000004034TMarcos                   Alonso                   Artieda                  M00000000          N
072019051999999000004035TRaquel                   Sagarra                  Garces                   F00000000          N
072019051999999000004036TManuel                   Báez                     Pérez                    M00000000          N
072019051999999000004037TIrene                    Fernández                Aznar                    F00000000          N
072019051999999000004038TFlorencio Jesús          Escartín                 Claver                   M00000000          N
072019051999999000004039TSonia                    García                   Figueredo                F00000000          N
072019051999999000004004TPaula                    Bueno                    Muñoz                    F00000000          N
072019051999999000004040TIván                     Úbeda                    Peña                     M00000000          N
072019051999999000004041TCarmen                   Tarin                    Espinosa                 F00000000          N
072019051999999000004042TAser                     Hernández                Toral                    M00000000          N
072019051999999000004043TMaria de los Ángeles     Fernández                Moro                     F00000000          N
072019051999999000004044TJose Ángel               Plaza                    González                 M00000000          N
072019051999999000004045TTerera Olga              Mayo                     Rustarazo                F00000000          N
072019051999999000004046TJavier                   Baltrán                  Terrones                 M00000000          N
072019051999999000004047TCarolina                 Tolosa                   Ferrer                   F00000000          N
072019051999999000004048TGabriel Antonio          Martínez                 Contamina                M00000000          N
072019051999999000004049TFlora                    Rico                     Rico                     F00000000          N
072019051999999000004005TDiego                    Cameno                   Mayo                     M00000000          N
072019051999999000004050TJuan Miguel              Bedmar                   Jiménez                  M00000000          N
072019051999999000004051TSonia Inmaculada         Laca                     García                   F00000000          N
072019051999999000004052TLuis Miguel              Mira                     Rico                     M00000000          N
072019051999999000004053TJosefina                 Aranda                   Escolano                 F00000000          N
072019051999999000004054TAntonio Francisco        Fernández                Lima                     M00000000          N
072019051999999000004006TMiguel                   Aso                      Solans                   M00000000          N
072019051999999000004007TOlga                     Alonso                   Gens                     F00000000          N
072019051999999000004008TJosé Luis                Valcarce                 Rodríguez                M00000000          N
072019051999999000004009TJanira                   Susaño                   Tolosa                   F00000000          N
072019051999999000005001TFrancisco Jesus          Martin                   Vargas                   M00000000          N
072019051999999000005010TEduardo                  Berbis                   Seriñan                  M00000000          N
072019051999999000005011TJose Luis                Mendez                   Otero                    M00000000          N
072019051999999000005012TIsidoro                  Ibañez                   Muñoz                    M00000000          N
072019051999999000005013TMarta                    Ortega                   Taña                     F00000000          N
072019051999999000005014TAntonio                  San Jose                 Perez                    M00000000          N
072019051999999000005015TMaria Victoria           Rubio                    Llorente                 F00000000          N
072019051999999000005016TSantiago                 Martinez                 Ruiz                     M00000000          N
072019051999999000005017TCarmen                   Marti                    Pol                      F00000000          N
072019051999999000005018TPablo                    Yepes                    Del Cerro                M00000000          N
072019051999999000005019TMary Sol                 Lorenzo                  Otero                    F00000000          N
072019051999999000005002TMaria De Los Milagros    Hernan                   Alvarez                  F00000000          N
072019051999999000005020TJordi                    Montanya                 Mias                     M00000000          N
072019051999999000005021TMaria Francisca          Ripoll                   Ripoll                   F00000000          N
072019051999999000005022TAlejandro                Cuellar                  De La Rosa               M00000000          N
072019051999999000005023TFausta                   Gonzalez                 Sanchez                  F00000000          N
072019051999999000005024TJose Antonio             Bibian                   Somoza                   M00000000          N
072019051999999000005025TPedro                    Gotanegra                Julia                    M00000000          N
072019051999999000005026TJavier                   Bueno                    Gil                      M00000000          N
072019051999999000005027TAna                      De La Torre              Busnadiego               F00000000          N
072019051999999000005028TOscar                    Galindo                  Rafecas                  M00000000          N
072019051999999000005029TMaria Trinidad           Docampo                  Alonso                   F00000000          N
072019051999999000005003TFernando                 Brea                     Vide                     M00000000          N
072019051999999000005030TEnrique                  Martin                   Palomares                M00000000          N
072019051999999000005031TMaría del Pilar          Ramírez                  Gutiérrez                F00000000          N
072019051999999000005032TDiana                    Merenciano               De Pedro                 F00000000          N
072019051999999000005033TJavier                   Lopez                    Alvarez                  M00000000          N
072019051999999000005034TRosa                     Gonzalez                 Casal                    F00000000          N
072019051999999000005035TCarlos                   Rios                     Calavia                  M00000000          N
072019051999999000005036TSalvador                 Ciscar                   Bolfan                   M00000000          N
072019051999999000005037TAlmudena                 Moreno                   Sanchez                  F00000000          N
072019051999999000005038TFelix                    Losada                   Rodriguez                M00000000          N
072019051999999000005039TMaria Lidon              Gil                      Vargas                   F00000000          N
072019051999999000005004TCristina                 Hernandez                Montanari                F00000000          N
072019051999999000005040THector                   Alvarez                  Cervello                 M00000000          N
072019051999999000005041TMaria Aranzazu           Aguado                   Nuñez                    F00000000          N
072019051999999000005042TAleix                    Latorre                  Luna                     M00000000          N
072019051999999000005043TLuis                     Melchor                  Sanahuja                 M00000000          N
072019051999999000005044TIsabel                   Gonzalez                 Payan                    F00000000          N
072019051999999000005045TFrancisco Jesus          Trinidad                 Lorenzo                  M00000000          N
072019051999999000005046TAlberto                  Vigil                    Garcia                   M00000000          N
072019051999999000005047TMaria Del Carmen         Collado                  Adell                    F00000000          N
072019051999999000005048TPablo                    Hurtado                  Rodriguez                M00000000          N
072019051999999000005049TRebeca                   Reberter                 Fontclara                F00000000          N
072019051999999000005005TFrancisco                Perez                    Garcia                   M00000000          N
072019051999999000005050TAsier                    Martinez                 Ferrandiz                M00000000          N
072019051999999000005051TMaria De La Concepcion   Pedros                   Villamore                F00000000          N
072019051999999000005052TCarlos                   Morato                   Roig                     M00000000          N
072019051999999000005053TConcepcion               Oya                      Recatala                 F00000000          N
072019051999999000005054TDavid                    Garcia                   Perez                    M00000000          N
072019051999999000005006TEva                      Cumbreño                 Barreales                F00000000          N
072019051999999000005007TJose Luis                Vazquez                  Sanchez                  M00000000          N
072019051999999000005008TEsther                   Bermejo                  Bravo                    F00000000          N
072019051999999000005009TRamiro                   Solanes                  Calatayud                M00000000          N
072019051999999000006001TOriol                    Junqueras                Vies                     M00000000          S
072019051999999000006010TGorka                    Elejabarrieta            Diaz                     M00000000          N
072019051999999000006011TElisabet                 Nebreda                  Vila                     F00000000          N
072019051999999000006012TAlfredo                  Suárez                   Canal                    M00000000          N
072019051999999000006013TLorena                   López de Lacalle         Arizti                   F00000000          N
072019051999999000006014TGuillem                  Agulló                   Lázaro                   M00000000          N
072019051999999000006015TLuz Carmen               Rodríguez                Gangura                  F00000000          N
072019051999999000006016TAlfonso                  Mouzo                    Trillo                   M00000000          N
072019051999999000006017THelle                    Kettner                  Hoeberg                  F00000000          N
072019051999999000006018TAsun                     Fernandez de Garaialde   Lazkano Sala             F00000000          N
072019051999999000006019TMateu                    Matas                    Ordinas                  M00000000          N
072019051999999000006002TPernando                 Barrena                  Arza                     M00000000          S
072019051999999000006020TDiana                    Urrea                    Herrera                  F00000000          N
072019051999999000006021TAitor                    Bezares                  Vargas                   M00000000          N
072019051999999000006022TGeorgina                 Corina                   Ciupag                   F00000000          N
072019051999999000006023TLuisa                    Baños                    González                 F00000000          N
072019051999999000006024TMarc                     Casanova                 Roca                     M00000000          N
072019051999999000006025TLlucía                   Fernández                Marqués                  F00000000          N
072019051999999000006026TGarazi                   Hach Embarek             Irizar                   F00000000          N
072019051999999000006027TAnder                    Larunbe                  Anderson                 M00000000          N
072019051999999000006028TOlga                     Palahí                   Jordi                    F00000000          N
072019051999999000006029TMiquel                   Serra                    Gòdia                    M00000000          N
072019051999999000006003TDiana                    Riba                     Giner                    F00000000          S
072019051999999000006030TAsun                     Gulina                   del Pueyo                F00000000          N
072019051999999000006031TOlaia                    Fernández                Dávila                   F00000000          N
072019051999999000006032TEraitz                   Saez de Egilaz           Ramos                    F00000000          N
072019051999999000006033TVicente                  Quintana                 Pérez                    M00000000          N
072019051999999000006034TMargalida                Seguí                    Albertí                  F00000000          N
072019051999999000006035TJosep                    Subirana                 Jové                     M00000000          N
072019051999999000006036TAdrian                   Fuentes                  Arevalo                  M00000000          N
072019051999999000006037TCeline                   Borràs                   Fortuna                  F00000000          N
072019051999999000006038TMario                    Arbesú                   Iglesias                 M00000000          N
072019051999999000006039TKizkitza                 Gil                      de San Vicente           F00000000          N
072019051999999000006004TJordi                    Solé                     Ferrando                 M00000000          N
072019051999999000006040TSergi                    Marcen                   López                    M00000000          N
072019051999999000006041TErmitas                  Rodríguez                Gomez                    M00000000          N
072019051999999000006042TJon                      Altolagirre              Askasibar                M00000000          N
072019051999999000006043TMaria                    Pérez                    Company                  F00000000          N
072019051999999000006044TEnric                    Adell                    Moragrega                M00000000          N
072019051999999000006045TDiego                    Marin                    Roig                     M00000000          N
072019051999999000006046TMaite                    Sabalza                  Baztán                   F00000000          N
072019051999999000006047TJon                      Azkune                   Torres                   M00000000          N
072019051999999000006048TAna Maria                Balsera                  Marín                    F00000000          N
072019051999999000006049TCarlos                   Babío                    Urkidi                   M00000000          N
072019051999999000006005TAna                      Miranda                  Paz                      F00000000          N
072019051999999000006050TBegotxu                  Olaizola                 Elordi                   F00000000          N
072019051999999000006051TLídia                    Carrillo                 Alza                     F00000000          N
072019051999999000006052TIria                     Epalza                   Markoartu                F00000000          N
072019051999999000006053TCamilo                   Nogueira                 Román                    M00000000          N
072019051999999000006054TJosep Maria              Terricabres              Nogueras                 M00000000          N
072019051999999000006006TRaquel                   Correa                   Domènech                 F00000000          N
072019051999999000006007TJordi                    Bacardit                 Reguant                  M00000000          N
072019051999999000006008TOihana                   Etxebarrieta             Legrand                  F00000000          N
072019051999999000006009TAna                      Bringas                  López                    F00000000          N
072019051999999000007001TDomingo                  Rojo                     Sánchez                  M00000000          N
072019051999999000007010TJuan                     Egea                     Rosique                  M00000000          N
072019051999999000007011TIgnacio                  Gisbert                  Colomina                 M00000000          N
072019051999999000007012TJaime                    Ruix                     Serra                    M00000000          N
072019051999999000007013TMaría Dolores            de la Dueña              Sánchez                  F00000000          N
072019051999999000007014TAntonio                  Real                     Martínez                 M00000000          N
072019051999999000007015TBegoña María             Vázquez                  Algara                   F00000000          N
072019051999999000007016TFrancisca                Rodríguez                García                   F00000000          N
072019051999999000007017TMaría Asunción           Vicente                  Ripoll                   F00000000          N
072019051999999000007018TJuan José                Díaz                     García                   M00000000          N
072019051999999000007019TCésar Ricardo            Vera                     Ayala                    M00000000          N
072019051999999000007002TRamón Luis               Molinary                 Malo                     M00000000          N
072019051999999000007020TYolanda                  Sion                     Pantiga                  F00000000          N
072019051999999000007021TSilvia María             Álvarez de Eulate        Villalón                 F00000000          N
072019051999999000007022TMontserrat               Arroyo                   Basolas                  F00000000          N
072019051999999000007023TYolanda                  Ramírez                  Juárez                   F00000000          N
072019051999999000007024TMiguel                   Pardo                    Castillo                 M00000000          N
072019051999999000007025TSantiago                 Raboso                   García                   M00000000          N
072019051999999000007026TYasmina                  Terki                    Vaello                   F00000000          N
072019051999999000007027TFelisa                   Santos                   Méndez                   F00000000          N
072019051999999000007028TJorge Javier             Pérez                    Hernández                M00000000          N
072019051999999000007029TIsabel                   Morán                    Ramos                    F00000000          N
072019051999999000007003TMuriel                   Bujalance                Leal                     F00000000          N
072019051999999000007030TJosé Carlos              Rúa                      Perandones               M00000000          N
072019051999999000007031TAntonia                  Bastida                  García                   F00000000          N
072019051999999000007032TNatalia                  Moreno                   Barragán                 F00000000          N
072019051999999000007033TJuan Manuel              Marín                    Muñoz                    M00000000          N
072019051999999000007034TLuis Vicente             Cervera                  Utrillas                 M00000000          N
072019051999999000007035TChadia                   Souweileh                Arencibia                F00000000          N
072019051999999000007036TAdrián                   Esteve                   Aguilar                  M00000000          N
072019051999999000007037TPilar Diana              López                    Morera                   F00000000          N
072019051999999000007038TGisela                   Ortiz                    Gallardo                 F00000000          N
072019051999999000007039TMaría Teresa             de las Nieves            Alberola                 F00000000          N
072019051999999000007004TLidia                    Laso                     Ramos                    F00000000          N
072019051999999000007040TFrancisco José           Perelló                  Faura                    M00000000          N
072019051999999000007041TEsperanza                Escribano                Sánchez                  F00000000          N
072019051999999000007042TJosé Luis                Ruiz                     Pérez                    M00000000          N
072019051999999000007043TJosé Manuel              Odriozola                Terán                    M00000000          N
072019051999999000007044TAna Sofía                Lopera                   Santamaría               F00000000          N
072019051999999000007045TRosario                  Molina                   Cayuela                  F00000000          N
072019051999999000007046TInmaculada               Esparcía                 Sánchez                  F00000000          N
072019051999999000007047TPedro                    Taborda                  Martín                   M00000000          N
072019051999999000007048TRocío                    Esteve                   Sierra                   F00000000          N
072019051999999000007049TJosé Antonio             Martínez                 Lucas                    M00000000          N
072019051999999000007005TJosé Vicente             Giménez                  Alonso                   M00000000          N
072019051999999000007050TMaría Victoria           Céspedes                 González                 F00000000          N
072019051999999000007051TMaría Dolores            Navarro                  Borcha                   F00000000          N
072019051999999000007052TJuan Antonio             Castillo                 Pedrajas                 M00000000          N
072019051999999000007053TTeobaldo                 Agenjo                   Rodrigo                  M00000000          N
072019051999999000007054TAlmudena                 Herraiz                  Agraz                    F00000000          N
072019051999999000007006TBeatriz                  Olmedo                   Rodríguez                F00000000          N
072019051999999000007007TSantiago                 Herreros                 Catalán                  M00000000          N
072019051999999000007008TJuan José                Jurado                   Rodríguez                M00000000          N
072019051999999000007009TMaría Lourdes            Solano                   Jarit                    F00000000          N
072019051999999000008001TMartín Ricardo           Sáenz de Ynestrillas     Pérez                    M00000000          N
072019051999999000008010TJorge                    Garrido                  San Román                M00000000          N
072019051999999000008011TMaría Ana                Fernández de Prada       Alfin                    F00000000          N
072019051999999000008012TGonzalo                  Martín                   García                   M00000000          N
072019051999999000008013TMaría Elena              Pérez                    Vieco                    F00000000          N
072019051999999000008014TAlberto Julio            Pascual                  Martínez                 M00000000          N
072019051999999000008015TMaría                    Díez                     de las Heras             F00000000          N
072019051999999000008016TJesús                    Muñoz                    Martínez                 M00000000          N
072019051999999000008017TLaura                    Gallardo                 Marinero                 F00000000          N
072019051999999000008018TJosé Ramón               Franco                   Abad                     M00000000          N
072019051999999000008019TMaría Fernanda           Piñar                    Gutiérrez                F00000000          N
072019051999999000008002TNorberto Pedro           Pico                     Sanabria                 M00000000          N
072019051999999000008020TLuis                     Mateos                   de Vega                  M00000000          N
072019051999999000008021TBegoña                   Del Arco                 Herrero                  F00000000          N
072019051999999000008022TJosé María               Carreras                 Figueras                 M00000000          N
072019051999999000008023TMaría del Carmen         Navarro                  Martínez                 F00000000          N
072019051999999000008024TJosé Alejandro           García                   Sancho                   M00000000          N
072019051999999000008025TEva María                Arnal                    Minguez                  F00000000          N
072019051999999000008026TIván                     García                   Vázquez                  M00000000          N
072019051999999000008027TMaría Jerusalén          Divasson                 del Fraile               F00000000          N
072019051999999000008028TIgnacio                  Casado                   López                    M00000000          N
072019051999999000008029TMaría Belén              de Espona                Delgado                  F00000000          N
072019051999999000008003TPedro                    Chaparro                 Velacoracho              M00000000          N
072019051999999000008030TJosé María               de la Mata               Pérez                    M00000000          N
072019051999999000008031TEva María                Medina                   Ruíz                     F00000000          N
072019051999999000008032TSegundo Ernesto          Gómez                    Sánchez                  M00000000          N
072019051999999000008033TNoelia Rosa              Sánchez                  Cediel                   F00000000          N
072019051999999000008034TIván                     González                 Sánchez                  M00000000          N
072019051999999000008035TMaría del Mar            Hurtado                  Sánchez                  F00000000          N
072019051999999000008036TMiguel                   Blasco                   del Álamo                M00000000          N
072019051999999000008037TNoelia                   Castillejo               Calderón                 F00000000          N
072019051999999000008038TDionisio                 Rodríguez                Rodríguez                M00000000          N
072019051999999000008039TMaría Teresa             Caridad                  Moragón                  F00000000          N
072019051999999000008004TMaría del Valle          Piñar                    Gutiérrez                F00000000          N
072019051999999000008040TFélix                    Salmerón                 González Bergas          M00000000          N
072019051999999000008041TGuadalupe                Hernández                Dueñas                   F00000000          N
072019051999999000008042TPablo Manuel             Alcaide                  Quintana                 M00000000          N
072019051999999000008043TNatalia                  Fortes                   Baez                     F00000000          N
072019051999999000008044TFrancisco Javier         Sanz                     Méndez                   M00000000          N
072019051999999000008045TSusana María del Carmen  Pascual                  Martín                   F00000000          N
072019051999999000008046TSergio                   Reguilón                 Fumero                   M00000000          N
072019051999999000008047TAna Cristina             Villarroya               Pérez                    F00000000          N
072019051999999000008048TJosé                     Corbacho                 Liedo                    M00000000          N
072019051999999000008049TFlorentina               Mata                     Hernández                F00000000          N
072019051999999000008005TMaría del Camino         Carrillo                 Iglesias                 F00000000          N
072019051999999000008050TOmar Manuel              Pardo                    Cortina                  M00000000          N
072019051999999000008051TMaría Teresa             Landaluce                Viadas                   F00000000          N
072019051999999000008052TJavier                   Juárez                   del Amo                  M00000000          N
072019051999999000008053TMaría del Carmen         San Juan                 Fuster                   F00000000          N
072019051999999000008054TRafael                   López-Diéguez            Gamoneda                 M00000000          N
072019051999999000008006TManuel                   Andrino                  Lobo                     M00000000          N
072019051999999000008007TAlba                     Sánchez                  Fernández                F00000000          N
072019051999999000008008TFrancisco                Torres                   García                   M00000000          N
072019051999999000008009TMaria Luisa              López                    Alonso                   F00000000          N
072019051999999000009001TSilvia                   Barquero                 Nogales                  F00000000          N
072019051999999000009010TIgnacio                  Pascual                  Sánchez                  M00000000          N
072019051999999000009011TIris Cristina            Sánchez                  Padrón                   F00000000          N
072019051999999000009012TFrancisco Javier         Sanabria                 Moya                     M00000000          N
072019051999999000009013TAndrés                   Cardenete                Montiel                  M00000000          N
072019051999999000009014TEva                      Ramos                    Taillefer                F00000000          N
072019051999999000009015TMargarita                Morales                  Sarabia                  F00000000          N
072019051999999000009016THugo                     García                   Sáez                     M00000000          N
072019051999999000009017TCristina                 García                   Salazar                  F00000000          N
072019051999999000009018TAna María                Cuevas                   Ángeles                  F00000000          N
072019051999999000009019TRaquel Sagrario          Iglesias                 Martínez                 F00000000          N
072019051999999000009002TRaquel                   Aguilar                  Povill                   F00000000          N
072019051999999000009020TJavier                   Muñoz                    Aranda                   M00000000          N
072019051999999000009021TPaloma                   Jerez                    Cabello                  F00000000          N
072019051999999000009022TMaría Luisa De Ceano     Vivas                    Hernández                F00000000          N
072019051999999000009023TEduardo Antonio          Araño                    Hidalgo                  M00000000          N
072019051999999000009024TIria                     Montenegro               García                   F00000000          N
072019051999999000009025TCarlos                   Naranjo                  González                 M00000000          N
072019051999999000009026TElisabet                 Rodrigo                  Barreda                  F00000000          N
072019051999999000009027TAsunción                 Estévez                  Chacón                   F00000000          N
072019051999999000009028TJaime                    Fernández                Garrido                  M00000000          N
072019051999999000009029TEugenio Jesús            González                 Navarrete                M00000000          N
072019051999999000009003TCarolina Ana             Bayle                    García                   F00000000          N
072019051999999000009030TManuel                   De Toro                  Costa                    M00000000          N
072019051999999000009031TMaría Del Milagro        Llopis                   Pérez                    F00000000          N
072019051999999000009032TMaría Amalia             Sopeña                   Balordi                  F00000000          N
072019051999999000009033TAlba                     García                   Roldán                   F00000000          N
072019051999999000009034TJuan Manuel              Guerrero                 Casero                   M00000000          N
072019051999999000009035TGonzalo                  González                 Valencia                 M00000000          N
072019051999999000009036TClara Isabel             Márquez                  Martínez                 F00000000          N
072019051999999000009037TRaquel                   Moreno                   Talavera                 F00000000          N
072019051999999000009038TEduardo Jesús            Rovira                   Del Río                  M00000000          N
072019051999999000009039TIgnacio Javier           De Guzmán                Muñoz                    M00000000          N
072019051999999000009004TAlfonso                  Senovilla                Labrador                 M00000000          N
072019051999999000009040TFrancisco Javier         Martí                    Vallés                   M00000000          N
072019051999999000009041TÁngela                   Casillas                 Fort                     F00000000          N
072019051999999000009042TMaría                    Cutiño                   Zamora                   F00000000          N
072019051999999000009043TBeatriz                  Touriñán                 Ramos                    F00000000          N
072019051999999000009044TAlfonso Javier           Puertas                  Cerdeño                  M00000000          N
072019051999999000009045TAlejandro                Cuesta                   Hidalgo                  M00000000          N
072019051999999000009046TNuria                    Alcántara                Fernández                F00000000          N
072019051999999000009047TLaura                    Díaz                     Barreto                  F00000000          N
072019051999999000009048TEsther                   Casas                    González                 F00000000          N
072019051999999000009049TValeri                   Esteban                  San Julián               M00000000          N
072019051999999000009005TLuis Alberto             Bermejo                  Sanjuan                  M00000000          N
072019051999999000009050TPedro                    Espino                   Calvo                    M00000000          N
072019051999999000009051TCarmen                   Jachán                   Sánchez                  F00000000          N
072019051999999000009052TJaime                    Hermida                  Villaseñor               M00000000          N
072019051999999000009053TAgustín Amadeo           González                 Ferreiros                M00000000          N
072019051999999000009054TCarmen Aurora            Manzano                  Rodríguez                F00000000          N
072019051999999000009006TAmanda María             Luis                     Alemán                   F00000000          N
072019051999999000009007TJavier                   Luna                     Sánchez                  M00000000          N
072019051999999000009008TYolanda                  Morales                  Pérez                    F00000000          N
072019051999999000009009TBerta                    Soria                    Bordera                  F00000000          N
072019051999999000010001TDiego                    Velicia                  Miranda                  M00000000          N
072019051999999000010010TMaría Dolores            Hernández                Castro                   F00000000          N
072019051999999000010011TMiguel Angel             Fernández                Taboada                  M00000000          N
072019051999999000010012TJudith Grasole           Campos                   Encinoso                 F00000000          N
072019051999999000010013TJulio                    Pérez                    Álvarez                  M00000000          N
072019051999999000010014TMaría Belén              Romón                    Labrador                 F00000000          N
072019051999999000010015TPablo                    Muñoz                    Cifuentes                M00000000          N
072019051999999000010016TEva María                Grijalvo                 Diego                    F00000000          N
072019051999999000010017TEsther                   Mateo                    Gañán                    F00000000          N
072019051999999000010018TJose Manuel              Cidre                    Mascato                  M00000000          N
072019051999999000010019TSamuel                   Valderrey                Pérez                    M00000000          N
072019051999999000010002TCristina                 Bandín                   Potel                    F00000000          N
072019051999999000010020TCarmen María             Durantez                 Areños                   F00000000          N
072019051999999000010021TPedro                    Perez                    Salamanca                M00000000          N
072019051999999000010022TMaría Soraya             Caballero                Gañán                    F00000000          N
072019051999999000010023TJesus                    Rivero                   Marrero                  M00000000          N
072019051999999000010024TMarta                    Prieto                   Vidal                    F00000000          N
072019051999999000010025TJorge                    Bueno                    Gil                      M00000000          N
072019051999999000010026TMarta María              Sanz                     Buezo                    F00000000          N
072019051999999000010027TAntonio Jesús            Sánchez                  Reina                    M00000000          N
072019051999999000010028TAlicia                   Nortes                   Martinez                 F00000000          N
072019051999999000010029TJorge                    Bandín                   Potel                    M00000000          N
072019051999999000010003TJose María               Santos                   Rodríguez                M00000000          N
072019051999999000010030TManuela                  Contreras                García                   F00000000          N
072019051999999000010031TJavier                   Marijuan                 Izquierdo                M00000000          N
072019051999999000010032TMaría Teresa             De Vallejo               Sancho de Sopranis       F00000000          N
072019051999999000010033TDavid                    Marcilla                 Garcia                   M00000000          N
072019051999999000010034TPaloma                   Gil                      Sánchez                  F00000000          N
072019051999999000010035TOscar                    Quintela                 Jorge                    M00000000          N
072019051999999000010036TAraceli                  Salamanca                Muñoz                    F00000000          N
072019051999999000010037TNuria                    Sánchez                  Díaz de Isla             F00000000          N
072019051999999000010038TJose de la Ascensión     Marin                    Zamora                   M00000000          N
072019051999999000010039THilda                    Cantarín                 Díaz                     F00000000          N
072019051999999000010004TMaría Elena              García                   San Segundo              F00000000          N
072019051999999000010040TJuan Antonio             Tapia                    Sanz                     M00000000          N
072019051999999000010041TGemma                    Olmos                    Centenera                F00000000          N
072019051999999000010042TLuis Fernando            Prieto                   Pradas                   M00000000          N
072019051999999000010043TAraceli                  González                 Jiménez                  F00000000          N
072019051999999000010044TCarlos                   Urueña                   Izquierdo                M00000000          N
072019051999999000010045TMaría Jesús              Herrero                  García                   F00000000          N
072019051999999000010046TJuan Daniel              Sabín                    Fernández                M00000000          N
072019051999999000010047TMaría del Carmen         Salvador                 Vega                     F00000000          N
072019051999999000010048TMaria del Carmen         García                   Prieto                   F00000000          N
072019051999999000010049TJuan Luis                Sánchez                  Reina                    M00000000          N
072019051999999000010005TJose                     González                 Ruiz                     M00000000          N
072019051999999000010050TYolanda                  Ramos                    Clap                     F00000000          N
072019051999999000010051TFrancisco Javier         Arranz                   Ballesteros              M00000000          N
072019051999999000010052TMaría                    Bandín                   Potel                    F00000000          N
072019051999999000010053TTomas                    Medina                   Rodriguez                M00000000          N
072019051999999000010054TMiriam Almudena          Miguelez                 Medina                   F00000000          N
072019051999999000010006TPilar Amelia             Gómez-Ulla               Astray                   F00000000          N
072019051999999000010007TFrancisco                Gómez del Castillo       Segurado                 M00000000          N
072019051999999000010008TMaría del Carmen         Caballero                Sánchez                  F00000000          N
072019051999999000010009TEnrique María            Prieto                   Gómez                    M00000000          N
072019051999999000011001TÁstor                    García                   Suárez                   M00000000          N
072019051999999000011010TJavier                   Martínez                 Rodríguez                M00000000          N
072019051999999000011011TAlvaro                   Luque                    Sánchez                  M00000000          N
072019051999999000011012TEduardo                  Corrales                 Moreno                   M00000000          N
072019051999999000011013TRoberto                  Guijarro                 López                    M00000000          N
072019051999999000011014TCristina                 González                 Vitores                  F00000000          N
072019051999999000011015TLaura                    Quintillán               Núñez                    F00000000          N
072019051999999000011016TArmiche                  Carrillo                 Delgado                  M00000000          N
072019051999999000011017TSócrates                 Fernández                López                    M00000000          N
072019051999999000011018TAlberto                  Sánchez                  Colomo                   M00000000          N
072019051999999000011019TLorena                   García                   Tabares                  F00000000          N
072019051999999000011002TMarina                   Gómez                    Gutiérrez                F00000000          N
072019051999999000011020TAida                     Muel                     González                 F00000000          N
072019051999999000011021TFrancisco Eugenio        Sebio                    Peña                     M00000000          N
072019051999999000011022TVerónica                 Santos                   Repiso                   F00000000          N
072019051999999000011023TSaúl                     Fernández                Garrote                  M00000000          N
072019051999999000011024TCasandra                 Hernández                Polo                     F00000000          N
072019051999999000011025TAntonio                  Jiménez                  Martínez de Ubago        M00000000          N
072019051999999000011026TEmma                     Esplá                    Oliver                   F00000000          N
072019051999999000011027TSergio                   Saenz                    Álvarez                  M00000000          N
072019051999999000011028TAna                      Turrero                  Orrio                    F00000000          N
072019051999999000011029TEzequiel                 Blanco                   López                    M00000000          N
072019051999999000011003TRaúl                     Martínez                 Turrero                  M00000000          N
072019051999999000011030TJose Luis                Delpón                   Sediles                  M00000000          N
072019051999999000011031TYuri                     Domenech                 González                 M00000000          N
072019051999999000011032TFederico Jose            Saiz                     Sandoval                 M00000000          N
072019051999999000011033TAida                     Maguregui                Tomey                    F00000000          N
072019051999999000011034TMarina                   Lapuente                 Rey                      F00000000          N
072019051999999000011035TCarles                   Alfonso                  Comos                    M00000000          N
072019051999999000011036TJose Angel               Sáenz                    Diaz                     M00000000          N
072019051999999000011037TFernando                 Castro                   García                   M00000000          N
072019051999999000011038TMaria Luisa              De la Torre              Acosta                   F00000000          N
072019051999999000011039TMarina                   Puente                   Matas                    F00000000          N
072019051999999000011004TMarina                   Quintillán               Núñez                    F00000000          N
072019051999999000011040TTrever Aritz             Hill                     Ubillos                  M00000000          N
072019051999999000011041TLiher                    Calleja                  Montero                  M00000000          N
072019051999999000011042TMaria Mercedes           Roldán                   Lucero                   F00000000          N
072019051999999000011043TRocío                    Montilla                 Moya                     F00000000          N
072019051999999000011044TJose Ramón               Tejón                    González                 M00000000          N
072019051999999000011045TFerrán                   Peris                    Serrano                  M00000000          N
072019051999999000011046TAlejandra                Gutiérrez                García                   F00000000          N
072019051999999000011047TEric Miguel              Rodríguez                Rodríguez                M00000000          N
072019051999999000011048THugo                     Carrasco                 González                 M00000000          N
072019051999999000011049TVíctor Gabriel           Llanos                   Rodríguez                M00000000          N
072019051999999000011005TAlbert                   Camarasa                 Escubedo                 M00000000          N
072019051999999000011050TRaquel                   Serrano                  Cano                     F00000000          N
072019051999999000011051TAlberto                  Sopeña                   Borroy                   M00000000          N
072019051999999000011052TLaura                    Vázquez                  Martínez-Jáñez           F00000000          N
072019051999999000011053TMarta                    Marruedo                 Arranza                  F00000000          N
072019051999999000011054TAlejandro                Fernández                Suárez                   M00000000          N
072019051999999000011006TEstrella                 Alonso                   Almazán                  F00000000          N
072019051999999000011007TCarlos                   Arribas                  Velarde                  M00000000          N
072019051999999000011008TMaria Iluminada          Ordóñez                  Casado                   F00000000          N
072019051999999000011009TSeverino                 Menéndez                 Minas                    M00000000          N
072019051999999000012001TJusto Marco              Grana                    Escolar                  M00000000          N
072019051999999000012010TJose Luis                Lopez                    Cueto                    M00000000          N
072019051999999000012011TMaria Paloma             Ibañez                   Lopez                    F00000000          N
072019051999999000012012TCayetano                 Perez-Cubillas           Ruiz                     M00000000          N
072019051999999000012013TMaria Teresa             Juan                     Fuente                   F00000000          N
072019051999999000012014TAlfonso                  Alvarez-Cascos           Ruiz                     M00000000          N
072019051999999000012015TMaria Concepcion         Artime                   Velarde                  F00000000          N
072019051999999000012016TJose Felix               Fernandez                Fernandez                M00000000          N
072019051999999000012017TLuisa Maria              Pozueco                  Cachero                  F00000000          N
072019051999999000012018TGenaro                   Rodriguez                Ordoñez                  M00000000          N
072019051999999000012019TAlvaro                   Muñiz                    Suarez                   M00000000          N
072019051999999000012002TCarlos                   Martinez                 Guardado                 M00000000          N
072019051999999000012020TMaria del Carmen         Rodriguez                Fernandez                F00000000          N
072019051999999000012021TFernando                 Tejada                   Barrigon                 M00000000          N
072019051999999000012022TEva Maria                Illan                    Mendez                   F00000000          N
072019051999999000012023TAna                      Mendez de Andes          Rodriguez                F00000000          N
072019051999999000012024TJesus                    Martinez                 Salvador                 M00000000          N
072019051999999000012025TPedro                    Garcia                   Rama                     M00000000          N
072019051999999000012026TAna María                Braña                    Rodriguez-Abello         F00000000          N
072019051999999000012027TJose Manuel              Tamargo                  Fernandez                M00000000          N
072019051999999000012028TAlejandra                Martinez                 Alvarez                  F00000000          N
072019051999999000012029TJaime                    Calderon                 Carpintero               M00000000          N
072019051999999000012003TPelayo                   Barcia                   Castañon                 M00000000          N
072019051999999000012030TPablo                    Gonzalez                 Gonzalez                 M00000000          N
072019051999999000012031TMaria Jose               Bode                     Eguen                    F00000000          N
072019051999999000012032TMiguel Angel             Fernandez                Rodriguez                M00000000          N
072019051999999000012033TJose Luis                Magro                    Esteban                  M00000000          N
072019051999999000012034TMaria Violeta            Fernandez                Aller                    F00000000          N
072019051999999000012035TManuel                   Fano                     Alonso                   M00000000          N
072019051999999000012036TMaria del Mar            Garcia                   Diaz                     F00000000          N
072019051999999000012037TIgnacio                  Onis                     Peral                    M00000000          N
072019051999999000012038TCristina                 Duran                    Diaz                     F00000000          N
072019051999999000012039TJorge                    Fernandez                Alvarez                  M00000000          N
072019051999999000012004TAna Isabel               Martinez                 Castañon                 F00000000          N
072019051999999000012040TCarolina                 Morilla                  Cernuda                  F00000000          N
072019051999999000012041TFernando                 Couto                    Garciablanco             M00000000          N
072019051999999000012042TBlanca Ines              Martinez                 Castañon                 F00000000          N
072019051999999000012043TVictor Antonio           Fernandez                Sampedro                 M00000000          N
072019051999999000012044TCamino                   Gutierrez                Gutierrez                F00000000          N
072019051999999000012045TEnrique                  Lanza                    Moran                    M00000000          N
072019051999999000012046TMaria Jose               Rey                      Canteli                  F00000000          N
072019051999999000012047TRuben                    Gonzalez                 Hidalgo                  M00000000          N
072019051999999000012048TDavid                    Fernandez                Riera                    M00000000          N
072019051999999000012049TPedro                    Leal                     Llaneza                  M00000000          N
072019051999999000012005TPaloma                   Noriega                  Alvarez                  F00000000          N
072019051999999000012050TPatricia                 Garcia                   Villanueva               F00000000          N
072019051999999000012051TAdrian                   Pumares                  Suarez                   M00000000          N
072019051999999000012052TCarmen                   Fernández                Gómez                    F00000000          N
072019051999999000012053TFrancisco                Alvarez-Cascos           Fernandez                M00000000          N
072019051999999000012054TMaria del Carmen         Moriyon                  Entrialgo                F00000000          N
072019051999999000012006TAndres                   Calvo-Sotelo             Piera                    M00000000          N
072019051999999000012007TLaura                    Flores                   Fernandez                F00000000          N
072019051999999000012008TGuzman                   Fernandez                Lopez                    M00000000          N
072019051999999000012009TSusana                   Sanchez                  Benito                   F00000000          N
072019051999999000013001TEva María                Ubago                    Castro                   F00000000          N
072019051999999000013010TJesús Ángel              Tutor                    del Hoyo                 M00000000          N
072019051999999000013011TMaría Rosa               Mera                     Bande                    F00000000          N
072019051999999000013012TJosé Antonio             López                    Gómez                    M00000000          N
072019051999999000013013TFlorisabel               Yarce                    Barrientos               F00000000          N
072019051999999000013014TXan                      Rodríguez                Canabal                  F00000000          N
072019051999999000013015TMaría Luisa              González                 Galeano                  F00000000          N
072019051999999000013016TJuan Francisco           Cerrada                  Cerrada                  M00000000          N
072019051999999000013017TMaría del Sagrario       Tejedor                  Tejedor                  F00000000          N
072019051999999000013018TJoaquín Pablo            Segado                   Bixquert                 M00000000          N
072019051999999000013019TConcepción               Martínez                 Miguel                   F00000000          N
072019051999999000013002TArturo                   Viloria                  Fuentes                  M00000000          N
072019051999999000013020TPablo Alberto de         Pedro                    Martín                   M00000000          N
072019051999999000013021TMaría del Carmen         Suárez                   Bendicho                 F00000000          N
072019051999999000013022TIsrael                   Guadalix                 García                   M00000000          N
072019051999999000013023TTamara Rosa              Bueno                    Doral                    F00000000          N
072019051999999000013024TSantiago                 Galletero                Galletero                M00000000          N
072019051999999000013025TBeatriz                  García                   Hernández                F00000000          N
072019051999999000013026TJordi                    Álvarez                  Caules                   M00000000          N
072019051999999000013027TMaría Teresa             Ruso                     Bernadó                  F00000000          N
072019051999999000013028TAntonio Javier           Pangua                   de la Varga              M00000000          N
072019051999999000013029TMaría Carmen             Jiménez                  Siles                    F00000000          N
072019051999999000013003TGloria                   López                    López                    F00000000          N
072019051999999000013030TAlfonso                  Bueno                    López                    M00000000          N
072019051999999000013031TDolores María            Aguilera                 Ramos                    F00000000          N
072019051999999000013032TJusto Javier             Sancho                   Vega                     M00000000          N
072019051999999000013033TMaría Teresa             Cuevas                   Pardo                    F00000000          N
072019051999999000013034TJoaquín                  Salvador                 Rodríguez                M00000000          N
072019051999999000013035TMaría Alicia             Alejandre                Lorenzo                  F00000000          N
072019051999999000013036TPedro                    Fernaud                  Quintana                 M00000000          N
072019051999999000013037TMaría Isabel             Pinel                    Olmeda                   F00000000          N
072019051999999000013038TJorge Eduardo            Salinas                  Vélez                    M00000000          N
072019051999999000013039TMaría Montserrat         Sanz                     Peinado                  F00000000          N
072019051999999000013004TPedro Pablo              Martín                   Hernández                M00000000          N
072019051999999000013040TVictorino Antonio        Rodríguez                Franco                   M00000000          N
072019051999999000013041TMaría Paz                García                   Gallego                  F00000000          N
072019051999999000013042TJosé Luis                Gómez                    Plácito Carrero          M00000000          N
072019051999999000013043TVirginia                 López                    López                    F00000000          N
072019051999999000013044TPedro                    Muradas                  Montesinos               M00000000          N
072019051999999000013045TMarina Matilde           Martínez                 Serrano                  F00000000          N
072019051999999000013046TJesús Fernando           Rodríguez                Roiz                     M00000000          N
072019051999999000013047TRosa                     Cuevas                   Pardo                    F00000000          N
072019051999999000013048TFrancisco Javier         Batres                   Sánchez                  M00000000          N
072019051999999000013049TMaría de las Mercedes    Rodríguez                Tenaguillo               F00000000          N
072019051999999000013005TMaría Jesús              García                   Fernández                F00000000          N
072019051999999000013050TManuel                   Hidalgo                  González                 M00000000          N
072019051999999000013051TMaría del Carmen         Barroso                  Caballo                  F00000000          N
072019051999999000013052TJuan Vicente             Aceña                    Moreno                   M00000000          N
072019051999999000013053TAurora                   Espada                   Triguero                 F00000000          N
072019051999999000013054TJosé Luis                González                 del Valle Forteza        M00000000          N
072019051999999000013006TJosé Luis                Álvarez                  Cedena                   M00000000          N
072019051999999000013007TMaría Rosa               Cimas                    Cuevas                   F00000000          N
072019051999999000013008TJosé Manuel              Vázquez                  Ríos                     M00000000          N
072019051999999000013009TMaría Luisa              Gabaldón                 Maroto                   F00000000          N
072019051999999000014001TJuan Ramón               Flores                   Campos                   M00000000          N
072019051999999000014010TOlga                     de Navas                 Díaz                     F00000000          N
072019051999999000014011TJusto                    Aliseda                  Miranda                  M00000000          N
072019051999999000014012TMaría José               Jiménez                  Izquierdo                F00000000          N
072019051999999000014013TGermán                   Chacón                   Archidona                M00000000          N
072019051999999000014014TMaría                    González                 Ríos                     F00000000          N
072019051999999000014015TFrancisco                Payán                    Gómez                    M00000000          N
072019051999999000014016TMaría del Sagrario       Martín                   Pino                     F00000000          N
072019051999999000014017TFrancisco                Alejo                    Soriano                  M00000000          N
072019051999999000014018TAntonia                  Magallanes               Gutierrez                F00000000          N
072019051999999000014019TManuel                   Sánchez                  Díaz                     M00000000          N
072019051999999000014002TSara María               Dominguez                Galvez                   F00000000          N
072019051999999000014020TMaría Fernanda           Valdez                   García                   F00000000          N
072019051999999000014021TSalvador Gabriel         González                 Agüera                   M00000000          N
072019051999999000014022TFátima María             Utrera                   González                 F00000000          N
072019051999999000014023TFrancisco Manuel         Moyano                   Rodríguez                M00000000          N
072019051999999000014024TLeonor                   Romero                   Linares                  F00000000          N
072019051999999000014025TÓscar                    Rebollo                  Velázquez                M00000000          N
072019051999999000014026TÁgueda                   Pozo                     Petrel                   F00000000          N
072019051999999000014027TVicente Jesús            Jarillo                  Guerra                   M00000000          N
072019051999999000014028TMaría Leonor             Alberto                  Estévez                  F00000000          N
072019051999999000014029TJuan Antonio             Fernández                González                 M00000000          N
072019051999999000014003TAntonio Jesús            Rodríguez                Martínez                 M00000000          N
072019051999999000014030TÁguila                   Jiménez                  Romero                   F00000000          N
072019051999999000014031TJonatan                  Benítez                  Lago                     M00000000          N
072019051999999000014032TSalud                    Dominguez                Perez                    F00000000          N
072019051999999000014033TDavid                    Galván                   Oliva                    M00000000          N
072019051999999000014034TVictoria                 Ríos                     Cortés                   F00000000          N
072019051999999000014035TAntonio                  Tejero                   Cabello                  M00000000          N
072019051999999000014036TCarmen María             Gómez                    Galán                    F00000000          N
072019051999999000014037TJosé Antonio             Ayuso                    Marente                  M00000000          N
072019051999999000014038TEsther Carmina           Velázquez                Castro                   F00000000          N
072019051999999000014039TJosé Antonio             Saborido                 Garrido                  M00000000          N
072019051999999000014004TPatricia                 Millán                   Pérez                    F00000000          N
072019051999999000014040TMaría Gloria             Molina                   Ramos                    F00000000          N
072019051999999000014041TJosé Luis                Morano                   Martín                   M00000000          N
072019051999999000014042TMaría del Mar            Pineda                   Chaves                   F00000000          N
072019051999999000014043TJosé Antonio             Arjona                   Luna                     M00000000          N
072019051999999000014044TIsabel María             Gómez                    Villalba                 F00000000          N
072019051999999000014045TJoaquín                  Sales                    Morales                  M00000000          N
072019051999999000014046TInmaculada               Marquez                  Galvín                   F00000000          N
072019051999999000014047TJoaquín                  Bellido                  Vélez                    M00000000          N
072019051999999000014048TIsabel María             González                 Moscoso                  F00000000          N
072019051999999000014049TMiguel Ángel             Martín                   Rodríguez                M00000000          N
072019051999999000014005TJosé Ángel               Brizo                    Álvarez                  M00000000          N
072019051999999000014050TCatalina                 Sánchez                  Calvente                 F00000000          N
072019051999999000014051TJosé Manuel              López                    Oliva                    M00000000          N
072019051999999000014052TEngracia                 Nuñez                    Muñoz                    F00000000          N
072019051999999000014053TRamón                    Bejarano                 Gómez                    M00000000          N
072019051999999000014054TVirginia                 Villalón                 Domínguez                F00000000          N
072019051999999000014006TMaría Isabel             Hidalgo                  Castilla                 F00000000          N
072019051999999000014007TSebastián                Camacho                  Llano                    M00000000          N
072019051999999000014008TAdelaida Isabel          Casanova                 García                   F00000000          N
072019051999999000014009TDaniel                   Martínez                 Barrero                  M00000000          N
072019051999999000015001TMaría                    Garzón                   Molina                   F00000000          N
072019051999999000015010TAndrés Silvano           Bernstein                Darder                   M00000000          N
072019051999999000015011TAranzazu Azmara          Rodríguez                Calleja                  F00000000          N
072019051999999000015012TJosé Alberto             Novoa                    Nieto                    M00000000          N
072019051999999000015013TEva                      Jiménez                  Rodríguez                F00000000          N
072019051999999000015014TJoaquín Antonio          Paredes                  Diéguez                  M00000000          N
072019051999999000015015TLaura                    Mateo                    Ruiz                     F00000000          N
072019051999999000015016TEduardo Bute             Sánchez                  Hoyos                    M00000000          N
072019051999999000015017TMaría Luisa              Bergaz                   Conesa                   F00000000          N
072019051999999000015018TMarcos                   Sanz                     Salas                    M00000000          N
072019051999999000015019TShyrley Bolivia          Siles                    Vargas                   F00000000          N
072019051999999000015002TAnastasio                Oliver                   Palomo                   M00000000          N
072019051999999000015020TAlejandro                Romeo                    Pueyo                    M00000000          N
072019051999999000015021TMaria Del Valle          Meneses                  Poncio                   F00000000          N
072019051999999000015022TCarlos Emilio            Navares                  Iglesias                 M00000000          N
072019051999999000015023TAntonia                  Camacho                  Crespo                   F00000000          N
072019051999999000015024TDario                    Sánchez                  Andrés                   M00000000          N
072019051999999000015025TMaría Montserrat         Seijas                   Patiño                   F00000000          N
072019051999999000015026TRafael                   Rodríguez                Gómez                    M00000000          N
072019051999999000015027TMaría Gema               González                 López                    F00000000          N
072019051999999000015028TRafael                   Muñoz                    Criado                   M00000000          N
072019051999999000015029TBegoña María             Martínez                 Baquero                  F00000000          N
072019051999999000015003TNuria                    González                 López                    F00000000          N
072019051999999000015030TAlejandro                Louro                    Esperón                  M00000000          N
072019051999999000015031TIsabel                   Casillas                 Marcos                   F00000000          N
072019051999999000015032TJosé Manuel              González                 Vázquez                  M00000000          N
072019051999999000015033TMarta                    Martínez                 Parra                    F00000000          N
072019051999999000015034TAndrés                   Gabella                  Arredondas               M00000000          N
072019051999999000015035TAlexandra                Cristina                 Bucur                    F00000000          N
072019051999999000015036TAnibal                   Martín                   Borrego                  M00000000          N
072019051999999000015037TInmaculada               Rodríguez                Suárez                   F00000000          N
072019051999999000015038TLuís José                Andrés                   Menéndez                 M00000000          N
072019051999999000015039TMaría Belén              Ochoa                    Gonzalo                  F00000000          N
072019051999999000015004TPedro                    Chaves                   Giraldo                  M00000000          N
072019051999999000015040TAntón                    Bello                    Barcón                   M00000000          N
072019051999999000015041TMaría Del Carmen         Ramos                    Martín                   F00000000          N
072019051999999000015042TSantiago                 Ordóñez                  González                 M00000000          N
072019051999999000015043TAna Isabel               Gallardo                 Llames                   F00000000          N
072019051999999000015044TMarco Gonzalo            Gómez                    Pérez                    M00000000          N
072019051999999000015045TAlfreda Ana              Rodríguez                García                   F00000000          N
072019051999999000015046TDavid                    Lloveras                 Mir                      M00000000          N
072019051999999000015047TMaría                    López                    Casillas                 F00000000          N
072019051999999000015048TLuís Javier              Vázquez                  López                    M00000000          N
072019051999999000015049TMaría Cristina           Gutiérrez                Santos                   F00000000          N
072019051999999000015005TMaría Teresa             Aranguren                Amezola                  F00000000          N
072019051999999000015050TJosé Ignacio             Martín                   Hidalgo                  M00000000          N
072019051999999000015051TAdelina                  Rodríguez                Pacios                   F00000000          N
072019051999999000015052TAlejandro                Ruiz                     Rodríguez                M00000000          N
072019051999999000015053TNatalia                  Moreno                   Díaz                     F00000000          N
072019051999999000015054TGaspar                   Llamazares               Trigo                    M00000000          N
072019051999999000015006TBaltasar                 Garzón                   Real                     M00000000          N
072019051999999000015007TMaría Montserrat         Muñoz                    De Diego                 F00000000          N
072019051999999000015008TÁngel José               López                    Díaz                     M00000000          N
072019051999999000015009TLaura                    Márquez                  Requejo                  F00000000          N
072019051999999000016001TJordi                    Sebastià                 Talavera                 M00000000          N
072019051999999000016010TJosé Antonio             Jiménez                  Ramos                    M00000000          N
072019051999999000016011TMaría Pilar              Távora                   Sánchez                  F00000000          N
072019051999999000016012TJesús                    Hernández                Francés                  M00000000          N
072019051999999000016013TMyriam                   Fernández                Herrero                  F00000000          N
072019051999999000016014TSandra María             Pesqueira                Pérez                    F00000000          N
072019051999999000016015TMiguel Ángel             Rodríguez                Sosa                     M00000000          N
072019051999999000016016TLaura                    Morant                   Peiró                    F00000000          N
072019051999999000016017TLars Krister             Paul                     Soederberg               M00000000          N
072019051999999000016018TJosé Miguel              Martínez                 Tomey                    M00000000          N
072019051999999000016019TMaría Isabel             Martínez                 González                 F00000000          N
072019051999999000016002TMaria Lidia              Senra                    Rodríguez                F00000000          N
072019051999999000016020TMustafa                  Mohamed                  Mustafa                  M00000000          N
072019051999999000016021TSofía                    Abdel-Lah                El-Rharib                F00000000          N
072019051999999000016022TMaría Antonia            Enríquez                 Vidal                    F00000000          N
072019051999999000016023TAndreu                   Soler                    Salvador                 M00000000          N
