011986031010400199ABLA                                                                                                000000000000001731000010000134300001343000000000000000000000483000006610000005200000010000007700000000049100000279N
011986031010400299ABRUCENA                                                                                            000000000000001594000010000126200001262000000000000000000000438000006420000004100000013000007480000000050800000240N
011986031010400399ADRA                                                                                                000000000000019358000170001260600012606000000000000000000002658000048900000038600000042000060870000000402300002064N
011986031010400499ALBANCHEZ                                                                                           000000000000000865000010000075500000755000000000000000000000241000003460000002800000006000003640000000032400000040N
011986031010400599ALBOLODUY                                                                                           000000000000001033000010000082200000822000000000000000000000300000004500000003600000026000004640000000034400000120N
011986031010400699ALBOX                                                                                               000000000000010321000090000677800006778000000000000000000001359000027800000034400000018000033020000000238900000913N
011986031010400799ALCOLEA                                                                                             000000000000000871000010000070700000707000000000000000000000274000003990000002000000000000004660000000035400000112N
011986031010400899ALCONTAR                                                                                            000000000000000698000010000057500000575000000000000000000000120000002050000003000000001000002310000000017700000054N
011986031010400999ALCUDIA DE MONTEAGUD                                                                                000000000000000218000010000018800000188000000000000000000000056000000660000001200000002000000640000000003800000026N
011986031010401099ALHABIA                                                                                             000000000000000885000010000066000000660000000000000000000000266000004160000003100000011000004420000000031000000132N
011986031010401199ALHAMA DE ALMERIA                                                                                   000000000000003068000030000220200002202000000000000000000000697000013850000005500000015000015930000000096500000628N
011986031010401299ALICUN                                                                                              000000000000000243000010000019000000190000000000000000000000097000001410000001700000004000001440000000007600000068N
011986031010401399ALMERIA                                                                                             000000000000153592001190010430100104301000000000000000000026489000494840000366700000419000563710000003657100019800N
011986031010401499ALMOCITA                                                                                            000000000000000217000010000019200000192000000000000000000000057000001040000000700000003000001180000000005900000059N
011986031010401599ALSODUX                                                                                             000000000000000125000010000011700000117000000000000000000000051000000630000000800000000000000690000000004700000022N
011986031010401699ANTAS                                                                                               000000000000002541000030000179800001798000000000000000000000337000006960000009900000005000009700000000068300000287N
011986031010401799ARBOLEAS                                                                                            000000000000001513000020000110400001104000000000000000000000337000005800000004500000004000006210000000044000000181N
011986031010401899ARMUÑA DE ALMANZORA                                                                                 000000000000000343000010000029000000290000000000000000000000091000001400000001500000001000001640000000013400000030N
011986031010401999BACARES                                                                                             000000000000000342000010000031200000312000000000000000000000145000001820000000500000003000001840000000013200000052N
011986031010402099BAYARCAL                                                                                            000000000000000447000010000036400000364000000000000000000000068000001200000000200000000000001510000000006500000086N
011986031010402199BAYARQUE                                                                                            000000000000000254000010000022400000224000000000000000000000075000001040000000600000001000001270000000010000000027N
011986031010402299BEDAR                                                                                               000000000000000587000010000043100000431000000000000000000000152000002330000000700000001000002800000000016600000114N
011986031010402399BEIRES                                                                                              000000000000000171000010000016500000165000000000000000000000052000000620000001100000000000000620000000005500000007N
011986031010402499BENAHADUX                                                                                           000000000000002016000020000137500001375000000000000000000000448000008370000002300000005000010550000000063300000422N
011986031010402699BENITAGLA                                                                                           000000000000000125000010000010700000107000000000000000000000003000000050000000000000000000000070000000000500000002N
011986031010402799BENIZALON                                                                                           000000000000000448000010000036100000361000000000000000000000073000000920000001200000001000001010000000007200000029N
011986031010402899BENTARIQUE                                                                                          000000000000000348000010000027500000275000000000000000000000130000001610000001900000000000001750000000013600000039N
011986031010402999BERJA                                                                                               000000000000011533000120000864600008646000000000000000000001953000036300000027600000066000047650000000334000001425N
011986031010403099CANJAYAR                                                                                            000000000000002205000030000175500001755000000000000000000000626000008420000005400000014000009810000000058000000401N
011986031010403199CANTORIA                                                                                            000000000000003406000030000270000002700000000000000000000000864000013140000013200000027000014670000000109100000376N
011986031010403299CARBONERAS                                                                                          000000000000005602000040000330100003301000000000000000000000885000016620000005800000004000020200000000131000000710N
011986031010403399CASTRO DE FILABRES                                                                                  000000000000000160000010000018900000189000000000000000000000038000000620000000200000000000000700000000006100000009N
011986031010403499COBDAR                                                                                              000000000000000305000010000030900000309000000000000000000000079000001320000001000000000000001470000000011900000028N
011986031010403599CUEVAS DEL ALMANZORA                                                                                000000000000009070000070000630500006305000000000000000000001483000030750000021500000014000038490000000259200001257N
011986031010403699CHERCOS                                                                                             000000000000000369000010000027500000275000000000000000000000070000001560000000300000001000001740000000013600000038N
011986031010403799CHIRIVEL                                                                                            000000000000002056000020000172400001724000000000000000000000578000007990000009900000011000009100000000058700000323N
011986031010403899DALIAS                                                                                              000000000000003625000050000271500002715000000000000000000000726000013090000008200000014000016270000000079700000830N
011986031010403999DARRICAL                                                                                            000000000000000388000010000045000000450000000000000000000000058000000830000000200000001000000980000000006400000034N
011986031010404199ENIX                                                                                                000000000000000240000010000022400000224000000000000000000000070000001460000000700000000000001500000000009900000051N
011986031010404399FELIX                                                                                               000000000000000685000010000056700000567000000000000000000000220000003570000002600000006000003700000000024800000122N
011986031010404499FINES                                                                                               000000000000001549000010000106700001067000000000000000000000328000006220000001900000003000007400000000049000000250N
011986031010404599FIÑANA                                                                                              000000000000002792000030000210500002105000000000000000000000699000010360000010400000035000011600000000094000000220N
011986031010404699FONDON                                                                                              000000000000001031000020000087200000872000000000000000000000211000003580000003500000007000004250000000029600000129N
011986031010404799GADOR                                                                                               000000000000002531000030000191000001910000000000000000000000656000010580000011300000007000011830000000093200000251N
011986031010404899GALLARDOS (LOS)                                                                                     000000000000001663000020000116400001164000000000000000000000380000006400000006600000008000007350000000044800000287N
011986031010404999GARRUCHA                                                                                            000000000000003756000020000244100002441000000000000000000000679000011910000011300000009000015630000000095300000610N
011986031010405099GERGAL                                                                                              000000000000001257000010000105400001054000000000000000000000350000004870000001900000008000005520000000036000000192N
011986031010405199HUECIJA                                                                                             000000000000000601000010000044400000444000000000000000000000188000002710000004200000005000002970000000014500000152N
011986031010405299HUERCAL DE ALMERIA                                                                                  000000000000003686000030000236400002364000000000000000000000615000012920000007000000007000015840000000099000000594N
011986031010405399HUERCAL-OVERA                                                                                       000000000000012745000140000914800009148000000000000000000002034000039070000046000000054000047870000000320200001585N
011986031010405499ILLAR                                                                                               000000000000000554000010000047200000472000000000000000000000208000002850000002100000014000003030000000021900000084N
011986031010405599INSTINCION                                                                                          000000000000000676000010000055300000553000000000000000000000217000003020000002300000006000003860000000023400000152N
011986031010405699LAROYA                                                                                              000000000000000172000010000013300000133000000000000000000000040000000680000000000000003000000880000000006500000023N
011986031010405799LAUJAR DE ANDARAX                                                                                   000000000000001892000020000144800001448000000000000000000000404000006980000003900000010000008380000000060600000232N
011986031010405899LIJAR                                                                                               000000000000000560000010000042600000426000000000000000000000156000002520000000500000001000002740000000020500000069N
011986031010405999LUBRIN                                                                                              000000000000002199000030000189600001896000000000000000000000557000008030000003000000010000008910000000070400000187N
011986031010406099LUCAINENA DE LAS TORRES                                                                             000000000000000702000010000057000000570000000000000000000000175000002400000002200000001000002700000000019700000073N
011986031010406199LUCAR                                                                                               000000000000000802000010000062100000621000000000000000000000225000003070000001300000006000003620000000031800000044N
011986031010406299MACAEL                                                                                              000000000000005554000050000367200003672000000000000000000001280000022290000012500000015000022530000000159600000657N
011986031010406399MARIA                                                                                               000000000000001903000030000152000001520000000000000000000000470000007300000006600000006000009040000000044200000462N
011986031010406499MOJACAR                                                                                             000000000000002839000010000129400001294000000000000000000000318000005820000004000000002000007410000000048000000261N
011986031010406599NACIMIENTO                                                                                          000000000000000603000010000056900000569000000000000000000000178000002510000001600000008000002710000000016800000103N
011986031010406699NIJAR                                                                                               000000000000012102000140000812400008124000000000000000000001391000030180000022600000031000038760000000273100001145N
011986031010406799OHANES                                                                                              000000000000000995000010000085300000853000000000000000000000258000003560000000700000008000004530000000030400000149N
011986031010406899OLULA DE CASTRO                                                                                     000000000000000250000010000024900000249000000000000000000000087000001300000000900000002000001280000000010100000027N
011986031010406999OLULA DEL RIO                                                                                       000000000000005212000040000361100003611000000000000000000000912000017340000012500000017000021300000000145200000678N
011986031010407099ORIA                                                                                                000000000000002651000040000216600002166000000000000000000000570000009040000010700000023000011070000000087300000234N
011986031010407199PADULES                                                                                             000000000000000614000010000049000000490000000000000000000000154000002200000001600000005000002860000000023700000049N
011986031010407299PARTALOA                                                                                            000000000000000490000010000042400000424000000000000000000000102000002040000000800000005000002500000000013500000115N
011986031010407399PATERNA DEL RIO                                                                                     000000000000000457000010000041400000414000000000000000000000103000001460000003300000002000001540000000008800000066N
011986031010407499PECHINA                                                                                             000000000000002090000020000146800001468000000000000000000000463000008570000007200000008000009450000000065700000288N
011986031010407599PULPI                                                                                               000000000000004161000030000286500002865000000000000000000000719000014300000010400000006000018390000000127500000564N
011986031010407699PURCHENA                                                                                            000000000000001857000030000136700001367000000000000000000000381000006680000007000000004000008310000000058100000250N
011986031010407799RAGOL                                                                                               000000000000000498000010000042000000420000000000000000000000137000002180000003200000008000002270000000016700000060N
011986031010407899RIOJA                                                                                               000000000000001172000010000094600000946000000000000000000000309000005530000002400000006000006730000000043600000237N
011986031010407999ROQUETAS DE MAR                                                                                     000000000000022122000150001397700013977000000000000000000002590000052860000041600000048000067060000000370200003004N
011986031010408099SANTA CRUZ                                                                                          000000000000000273000010000023700000237000000000000000000000060000000920000000900000003000001020000000006000000042N
011986031010408199SANTA FE DE MONDUJAR                                                                                000000000000000454000010000041300000413000000000000000000000126000002380000001700000010000002650000000020300000062N
011986031010408299SENES                                                                                               000000000000000528000010000050400000504000000000000000000000058000000970000001000000001000001050000000007700000028N
011986031010408399SERON                                                                                               000000000000003217000050000274600002746000000000000000000000760000011720000008000000011000013330000000093200000401N
011986031010408499SIERRO                                                                                              000000000000000724000010000044100000441000000000000000000000148000001820000001300000000000002270000000016300000064N
011986031010408599SOMONTIN                                                                                            000000000000000566000010000044500000445000000000000000000000124000001880000001300000004000002180000000016400000054N
011986031010408699SORBAS                                                                                              000000000000002829000060000309600003096000000000000000000000571000010400000009600000013000012620000000090800000354N
011986031010408799SUFLI                                                                                               000000000000000256000010000021600000216000000000000000000000061000001060000003600000001000000960000000007200000024N
011986031010408899TABERNAS                                                                                            000000000000003274000050000296700002967000000000000000000000698000012460000011400000016000014540000000101600000438N
011986031010408999TABERNO                                                                                             000000000000001034000010000072800000728000000000000000000000212000003420000003600000001000003910000000030000000091N
011986031010409099TAHAL                                                                                               000000000000000627000010000048500000485000000000000000000000170000002170000001600000003000002260000000018400000042N
011986031010409199TERQUE                                                                                              000000000000000526000010000040800000408000000000000000000000218000002800000001500000007000003020000000024300000059N
011986031010409299TIJOLA                                                                                              000000000000003722000040000269300002693000000000000000000000755000011640000010600000017000014360000000098100000455N
011986031010409399TURRE                                                                                               000000000000002072000010000142500001425000000000000000000000347000007020000001000000009000009500000000054400000406N
011986031010409499TURRILLAS                                                                                           000000000000000298000010000024000000240000000000000000000000012000000300000000800000000000000440000000003300000011N
011986031010409599ULEILA DEL CAMPO                                                                                    000000000000001095000010000085800000858000000000000000000000158000002910000002300000010000003640000000016700000197N
011986031010409699URRACAL                                                                                             000000000000000397000010000031600000316000000000000000000000076000001250000002000000003000001520000000010900000043N
011986031010409799VELEFIQUE                                                                                           000000000000000428000010000039000000390000000000000000000000091000001550000000700000004000001820000000012700000055N
011986031010409899VELEZ BLANCO                                                                                        000000000000002612000040000244000002440000000000000000000000767000011840000010300000018000012920000000095100000341N
011986031010409999VELEZ RUBIO                                                                                         000000000000006594000110000511100005111000000000000000000001440000023740000028000000037000026440000000183100000813N
011986031010410099VERA                                                                                                000000000000005442000060000387000003870000000000000000000001064000019050000017400000037000022400000000155700000683N
011986031010410199VIATOR                                                                                              000000000000002647000020000172900001729000000000000000000000565000012850000006800000009000012790000000073500000544N
011986031010410299VICAR                                                                                               000000000000010006000070000566000005660000000000000000000000680000016550000014700000017000024360000000148000000956N
011986031010410399ZURGENA                                                                                             000000000000002224000020000164100001641000000000000000000000403000007570000006500000012000009030000000065600000247N
011986031010490199TRES VILLA (LAS)                                                                                    000000000000000751000020000061800000618000000000000000000000193000002870000001000000003000003520000000021700000135N
011986031010490299EJIDO                                                                                               000000000000036335000260002284900022849000000000000000000003989000080550000055200000060000103720000000648300003889N
011986031010490399MOJONERA (LA)                                                                                       000000000000005057000030000288300002883000000000000000000000510000009920000008500000011000012920000000086500000427N
011986031011100199ALCALA DE LOS GAZULES                                                                               000000000000005632000080000464500004645000000000000000000000948000016900000016200000013000022050000000166700000538N
011986031011100299ALCALA DEL VALLE                                                                                    000000000000005250000040000355000003550000000000000000000001270000021230000002500000022000025000000000117000001330N
011986031011100399ALGAR                                                                                               000000000000002145000020000152000001520000000000000000000000276000005010000003100000010000007590000000056300000196N
011986031011100499ALGECIRAS                                                                                           000000000000096882000680006256900062569000000000000000000015787000297620000139700000210000370630000002768900009374N
011986031011100599ALGODONALES                                                                                         000000000000005975000060000426600004266000000000000000000001337000022010000013900000036000026530000000182200000831N
011986031011100699ARCOS DE LA FRONTERA                                                                                000000000000026781000240001653600016536000000000000000000004654000076200000034000000044000108170000000917400001643N
011986031011100799BARBATE DE FRANCO                                                                                   000000000000022047000230001482600014826000000000000000000004391000070890000028600000047000075190000000581700001702N
011986031011100899BARRIOS (LOS)                                                                                       000000000000012148000100000791200007912000000000000000000002562000042970000011500000035000055600000000425300001307N
011986031011100999BENAOCAZ                                                                                            000000000000000503000010000035700000357000000000000000000000095000001610000001900000005000001980000000014100000057N
011986031011101099BORNOS                                                                                              000000000000007848000070000531800005318000000000000000000001700000026960000015300000028000036350000000269700000938N
011986031011101199BOSQUE (EL)                                                                                         000000000000001795000020000117000001170000000000000000000000295000005890000003200000006000007660000000052000000246N
011986031011101299CADIZ                                                                                               000000000000155299001040011610100116101000000000000000000031994000528710000390800000609000599160000004126000018656N
011986031011101399CASTELLAR DE LA FRONTERA                                                                            000000000000002121000020000150500001505000000000000000000000550000010210000002100000010000011800000000096300000217N
011986031011101499CONIL DE LA FRONTERA                                                                                000000000000014362000120000925500009255000000000000000000001793000032850000012500000022000044090000000315400001255N
011986031011101599CHICLANA DE LA FRONTERA                                                                             000000000000041677000360002566500025665000000000000000000006343000117780000044800000048000140120000001076600003246N
011986031011101699CHIPIONA                                                                                            000000000000013474000130000863100008631000000000000000000001736000039390000029500000026000051570000000376600001391N
011986031011101799ESPERA                                                                                              000000000000004195000040000276300002763000000000000000000000851000013230000006600000037000017750000000126600000509N
011986031011101899GASTOR (EL)                                                                                         000000000000002292000030000156500001565000000000000000000000484000007440000007900000004000008750000000055400000321N
011986031011101999GRAZALEMA                                                                                           000000000000002288000040000167500001675000000000000000000000375000007580000008200000004000009850000000061100000374N
011986031011102099JEREZ DE LA FRONTERA                                                                                000000000000179191001730012464200124639000000000000000000030742000566120000308500000503000724700000005444000018030N
011986031011102199JIMENA DE LA FRONTERA                                                                               000000000000008539000100000615700006157000000000000000000001967000034590000011300000046000043390000000346800000871N
011986031011102299LINEA DE LA CONCEPCION (L                                                                           000000000000058779000560004024100040241000000000000000000011133000206000000085000000116000250870000002031100004776N
011986031011102399MEDINA-SIDONIA                                                                                      000000000000015786000160001031900010319000000000000000000003211000056220000021300000065000072390000000645200000787N
011986031011102499OLVERA                                                                                              000000000000009229000100000676900006769000000000000000000002036000033400000016200000061000039670000000293800001029N
011986031011102599PATERNA DE RIVERA                                                                                   000000000000004666000040000296300002963000000000000000000000924000016110000003700000005000020910000000177000000321N
011986031011102699PRADO DEL REY                                                                                       000000000000005383000040000360800003608000000000000000000001124000018070000017900000037000023120000000180700000505N
011986031011102799PUERTO DE SANTA MARIA(EL)                                                                           000000000000060638000590004016400040164000000000000000000009042000162890000089600000130000199370000001289100007046N
011986031011102899PUERTO REAL                                                                                         000000000000026915000240001739600017396000000000000000000005797000090160000036800000057000102600000000698100003279N
011986031011102999PUERTO SERRANO                                                                                      000000000000006156000070000370600003706000000000000000000001207000017820000011600000014000022820000000133400000948N
011986031011103099ROTA                                                                                                000000000000021285000220001471100014711000000000000000000002990000059800000053400000128000071350000000485800002277N
011986031011103199SAN FERNANDO                                                                                        000000000000080057000730005175300051753000000000000000000014530000237550000149800000177000270600000002043800006622N
011986031011103299SANLUCAR DE BARRAMEDA                                                                               000000000000053017000560003548000035480000000000000000000007853000154290000079600000113000202620000001308200007180N
011986031011103399SAN ROQUE                                                                                           000000000000021459000210001401300014013000000000000000000004177000074020000031400000059000088170000000669400002123N
011986031011103499SETENIL                                                                                             000000000000003338000040000258100002581000000000000000000000692000011230000005200000005000013640000000108100000283N
011986031011103599TARIFA                                                                                              000000000000014548000180001003800010038000000000000000000002463000046190000027000000044000059600000000472200001238N
011986031011103699TORRE-ALHAQUIME                                                                                     000000000000001058000010000079500000795000000000000000000000070000001250000000700000001000002240000000011300000111N
011986031011103799TREBUJENA                                                                                           000000000000006774000070000467200004672000000000000000000002116000031530000007100000019000035450000000095600002589N
011986031011103899UBRIQUE                                                                                             000000000000017747000130001166800011668000000000000000000003880000073230000044500000083000084390000000666900001770N
011986031011103999VEJER DE LA FRONTERA                                                                                000000000000012969000130000912200009122000000000000000000001236000022900000016400000028000035100000000277600000734N
011986031011104099VILLALUENGA DEL ROSARIO                                                                             000000000000000507000010000037200000372000000000000000000000079000001330000000700000004000001850000000013500000050N
011986031011104199VILLAMARTIN                                                                                         000000000000012050000100000828800008288000000000000000000002266000038880000034400000056000051410000000382400001317N
011986031011104299ZAHARA                                                                                              000000000000001688000030000147600001476000000000000000000000310000005480000006000000007000006430000000048500000158N
011986031011400199ADAMUZ                                                                                              000000000000004580000040000325300003253000000000000000000001095000018510000012500000026000023650000000132700001038N
011986031011400299AGUILAR                                                                                             000000000000012743000120000947600009476000000000000000000003468000058010000025500000075000068640000000387700002987N
011986031011400399ALCARACEJOS                                                                                         000000000000001518000010000114800001148000000000000000000000446000006750000004800000017000007460000000056500000181N
011986031011400499ALMEDINILLA                                                                                         000000000000002812000030000222300002223000000000000000000000494000007640000010400000008000009810000000071200000269N
011986031011400599ALMODOVAR DEL RIO                                                                                   000000000000006837000060000469600004696000000000000000000001383000029490000011500000027000034790000000195000001529N
011986031011400699AÑORA                                                                                               000000000000001834000020000147800001478000000000000000000000435000006760000009000000022000006700000000041700000253N
011986031011400799BAENA                                                                                               000000000000018701000160001304100013041000000000000000000003457000066340000040500000100000080770000000588400002193N
011986031011400899BELALCAZAR                                                                                          000000000000004138000040000346300003463000000000000000000001023000016700000013200000011000018590000000127900000580N
011986031011400999BELMEZ                                                                                              000000000000004647000060000364300003643000000000000000000001534000021610000009900000030000024340000000164700000787N
011986031011401099BENAMEJI                                                                                            000000000000004614000040000346500003465000000000000000000000796000015740000009200000062000021110000000147000000641N
011986031011401199BLAZQUEZ                                                                                            000000000000000805000010000064300000643000000000000000000000227000003630000003900000004000003810000000024400000137N
011986031011401299BUJALANCE                                                                                           000000000000008864000090000653700006537000000000000000000002312000039170000021000000065000047330000000302000001713N
011986031011401399CABRA                                                                                               000000000000020134000210001501500015015000000000000000000003983000075680000078800000114000092180000000585600003362N
011986031011401499CAÑETE DE LAS TORRES                                                                                000000000000003472000020000265200002652000000000000000000000870000015100000010200000006000018970000000146600000431N
011986031011401599CARCABUEY                                                                                           000000000000003070000030000244500002445000000000000000000000778000012080000006000000050000016560000000117900000477N
011986031011401699CARDEÑA                                                                                             000000000000002210000030000168800001688000000000000000000000376000007160000006200000008000009530000000070400000249N
011986031011401799CARLOTA (LA)                                                                                        000000000000008775000120000615400006154000000000000000000001917000033430000023400000028000043000000000301100001289N
011986031011401899CARPIO (EL)                                                                                         000000000000004847000040000357700003577000000000000000000001414000021700000016400000021000025880000000168100000907N
011986031011401999CASTRO DEL RIO                                                                                      000000000000007858000090000598800005988000000000000000000001956000036170000023300000083000043000000000275500001545N
011986031011402099CONQUISTA                                                                                           000000000000000588000010000050200000502000000000000000000000125000001900000001300000005000002370000000016400000073N
011986031011402199CORDOBA                                                                                             000000000000295290002530020928500209285000000000000000000062853001140100000759800000925001256900000007372700051963N
011986031011402299DOÑA MENCIA                                                                                         000000000000005162000040000381100003811000000000000000000001473000022740000007800000029000026460000000120100001445N
011986031011402399DOS-TORRES                                                                                          000000000000002496000030000199300001993000000000000000000000617000010190000009200000028000011320000000091100000221N
011986031011402499ENCINAS REALES                                                                                      000000000000002209000020000169800001698000000000000000000000617000010450000006100000012000011870000000069100000496N
011986031011402599ESPEJO                                                                                              000000000000005173000060000342800003428000000000000000000001535000025280000009800000023000028100000000115500001655N
011986031011402699ESPIEL                                                                                              000000000000002873000030000219300002193000000000000000000000787000012410000007500000015000013890000000105800000331N
011986031011402799FERNAN NUÑEZ                                                                                        000000000000009123000090000658000006580000000000000000000002750000044090000022600000062000049290000000188900003040N
011986031011402899FUENTE LA LANCHA                                                                                    000000000000000528000010000040500000405000000000000000000000130000002200000001900000007000002520000000018900000063N
011986031011402999FUENTE OBEJUNA                                                                                      000000000000007018000100000543700005437000000000000000000001721000028910000023200000023000034200000000274200000678N
011986031011403099FUENTE PALMERA                                                                                      000000000000008964000110000606800006068000000000000000000001998000035010000024900000022000043630000000274000001623N
011986031011403199FUENTE-TOJAR                                                                                        000000000000000926000010000085200000852000000000000000000000285000004400000004000000001000005170000000037600000141N
011986031011403299GRANJUELA (LA)                                                                                      000000000000000560000010000049400000494000000000000000000000162000002390000001400000005000002780000000022600000052N
011986031011403399GUADALCAZAR                                                                                         000000000000001236000010000100000001000000000000000000000000249000004990000005600000007000006070000000045200000155N
011986031011403499GUIJO                                                                                               000000000000000527000010000047000000470000000000000000000000128000002010000001100000002000002520000000015900000093N
011986031011403599HINOJOSA DEL DUQUE                                                                                  000000000000008227000080000655400006554000000000000000000002050000033200000030700000107000037450000000271200001033N
011986031011403699HORNACHUELOS                                                                                        000000000000005258000040000364700003647000000000000000000001248000020610000007600000026000024060000000165000000756N
011986031011403799IZNAJAR                                                                                             000000000000006282000070000527200005272000000000000000000001225000017630000016200000052000024790000000208000000399N
011986031011403899LUCENA                                                                                              000000000000031035000260002138300021383000000000000000000005737000109370000063900000164000131680000001015800003010N
011986031011403999LUQUE                                                                                               000000000000003443000030000280900002809000000000000000000000843000014550000012100000054000017320000000118200000550N
011986031011404099MONTALBAN DE CORDOBA                                                                                000000000000004371000040000315000003150000000000000000000000992000016360000010000000017000023490000000055300001796N
011986031011404199MONTEMAYOR                                                                                          000000000000003686000040000265700002657000000000000000000001146000017690000005800000024000020890000000057200001517N
011986031011404299MONTILLA                                                                                            000000000000022069000200001666600016666000000000000000000005632000099360000066700000131000120530000000652800005525N
011986031011404399MONTORO                                                                                             000000000000010020000080000743800007438000000000000000000002429000042400000023800000077000050290000000349700001532N
011986031011404499MONTURQUE                                                                                           000000000000002003000020000149900001499000000000000000000000515000007890000010200000019000010200000000075500000265N
011986031011404599MORILES                                                                                             000000000000003665000030000265700002657000000000000000000000882000015640000006900000017000019750000000172100000254N
011986031011404699NUEVA-CARTEYA                                                                                       000000000000005808000050000398800003988000000000000000000001283000024710000009700000015000030800000000132400001756N
011986031011404799OBEJO                                                                                               000000000000001505000020000118600001186000000000000000000000358000005790000003900000002000007170000000059500000122N
011986031011404899PALENCIANA                                                                                          000000000000001764000020000142200001422000000000000000000000362000006740000003300000000000007830000000054200000241N
011986031011404999PALMA DEL RIO                                                                                       000000000000018561000160001323400013234000000000000000000004259000074780000064800000092000087210000000467000004051N
011986031011405099PEDRO ABAD                                                                                          000000000000003032000030000229200002292000000000000000000000817000012570000009500000024000015420000000075800000784N
011986031011405199PEDROCHE                                                                                            000000000000001942000020000166900001669000000000000000000000472000007060000007700000025000007750000000053600000239N
011986031011405299PEÑARROYA-PUEBLONUEVO                                                                               000000000000013779000140001068500010685000000000000000000003849000059120000030300000064000065430000000446500002078N
011986031011405399POSADAS                                                                                             000000000000007041000060000506300005063000000000000000000001804000030620000016300000021000035450000000227400001271N
011986031011405499POZOBLANCO                                                                                          000000000000014513000110001060500010605000000000000000000004141000066320000078900000106000068920000000474900002143N
011986031011405599PRIEGO DE CORDOBA                                                                                   000000000000020624000230001573200015732000000000000000000004371000079670000061400000132000097660000000748200002284N
011986031011405699PUENTE-GENIL                                                                                        000000000000026588000220001994200019942000000000000000000005749000101000000054000000139000124910000000954400002947N
011986031011405799RAMBLA (LA)                                                                                         000000000000007056000060000492000004920000000000000000000001715000029770000019700000028000035930000000159500001998N
011986031011405899RUTE                                                                                                000000000000010145000090000778000007780000000000000000000002490000043880000024800000053000052630000000408400001179N
011986031011405999SAN SEBASTIAN DE LOS BALL                                                                           000000000000000816000010000061000000610000000000000000000000153000002330000003700000003000003390000000025500000084N
011986031011406099SANTAELLA                                                                                           000000000000005728000050000388600003886000000000000000000001201000019510000009800000023000028040000000211600000688N
011986031011406199SANTA EUFEMIA                                                                                       000000000000001389000010000109700001097000000000000000000000362000005230000004500000005000005810000000037900000202N
011986031011406299TORRECAMPO                                                                                          000000000000001686000020000140400001404000000000000000000000304000005050000006200000039000006190000000037800000241N
011986031011406399VALENZUELA                                                                                          000000000000001695000020000136600001366000000000000000000000379000007520000007600000028000007620000000047200000290N
011986031011406499VALSEQUILLO                                                                                         000000000000000648000010000052700000527000000000000000000000228000002810000002400000002000003040000000025200000052N
011986031011406599VICTORIA (LA)                                                                                       000000000000001732000020000133800001338000000000000000000000402000007690000009700000023000008940000000056400000330N
011986031011406699VILLA DEL RIO                                                                                       000000000000007092000060000504500005045000000000000000000001606000028850000017400000030000036780000000139300002285N
011986031011406799VILLAFRANCA DE CORDOBA                                                                              000000000000003540000030000261800002618000000000000000000000758000014100000009900000007000018080000000089500000913N
011986031011406899VILLAHARTA                                                                                          000000000000000675000010000054900000549000000000000000000000216000003250000003100000008000003260000000025500000071N
011986031011406999VILLANUEVA DE CORDOBA                                                                               000000000000010443000120000833800008338000000000000000000002807000042690000038800000075000052350000000317900002056N
011986031011407099VILLANUEVA DEL DUQUE                                                                                000000000000002177000020000173000001730000000000000000000000529000008170000006800000036000009140000000069500000219N
011986031011407199VILLANUEVA DEL REY                                                                                  000000000000001415000020000133200001332000000000000000000000457000005930000002900000009000006900000000049400000196N
011986031011407299VILLARALTO                                                                                          000000000000001887000020000157000001570000000000000000000000794000010350000003900000006000011140000000054200000572N
011986031011407399VILLAVICIOSA DE CORDOBA                                                                             000000000000004319000040000330900003309000000000000000000001020000016850000010500000024000020180000000155000000468N
011986031011407499VISO (EL)                                                                                           000000000000003653000040000280000002800000000000000000000001110000015910000013800000037000016820000000127000000412N
011986031011407599ZUHEROS                                                                                             000000000000001061000010000083300000833000000000000000000000221000003700000002200000009000005210000000029900000222N
011986031011800199AGRON                                                                                               000000000000000484000010000039800000398000000000000000000000086000001720000001000000002000002610000000020500000056N
011986031011800299ALAMEDILLA                                                                                          000000000000001143000020000091000000910000000000000000000000252000004260000004200000004000004480000000035400000094N
011986031011800399ALBOLOTE                                                                                            000000000000008087000050000521900005219000000000000000000001399000029170000013000000016000036670000000197600001691N
011986031011800499ALBONDON                                                                                            000000000000001478000020000127500001275000000000000000000000234000003010000004900000010000003170000000024800000069N
011986031011800599ALBUÑAN                                                                                             000000000000000547000010000044600000446000000000000000000000129000002190000000300000000000002570000000019400000063N
011986031011800699ALBUÑOL                                                                                             000000000000005529000060000416100004161000000000000000000000853000014130000015100000004000016980000000117000000528N
011986031011800799ALBUÑUELAS                                                                                          000000000000001421000010000117500001175000000000000000000000222000003500000003100000005000004790000000034300000136N
011986031011801099ALDEIRE                                                                                             000000000000000987000010000079400000794000000000000000000000190000003950000002000000011000005000000000031400000186N
011986031011801199ALFACAR                                                                                             000000000000003056000020000232300002323000000000000000000000565000010770000011200000010000013590000000096900000390N
011986031011801299ALGARINEJO                                                                                          000000000000005188000070000446000004460000000000000000000000864000013680000017300000012000017420000000112100000621N
011986031011801399ALHAMA DE GRANADA                                                                                   000000000000006141000060000469400004694000000000000000000001523000024210000012700000054000029580000000183500001123N
011986031011801499ALHENDIN                                                                                            000000000000003361000020000236200002362000000000000000000000419000010100000009600000028000014090000000104700000362N
011986031011801599ALICUN DE ORTEGA                                                                                    000000000000000806000010000050700000507000000000000000000000154000002720000003100000000000002990000000019600000103N
011986031011801699ALMEGIJAR                                                                                           000000000000000552000010000049800000498000000000000000000000087000001380000003000000005000001710000000012200000049N
011986031011801799ALMUÑECAR                                                                                           000000000000017149000130001170600011706000000000000000000002867000054680000034400000057000065790000000404000002539N
011986031011801899ALQUIFE                                                                                             000000000000001390000010000112300001123000000000000000000000410000006300000004300000021000007010000000046000000241N
011986031011802099ARENAS DEL REY                                                                                      000000000000002167000030000175600001756000000000000000000000376000006060000004800000004000009020000000069500000207N
011986031011802199ARMILLA                                                                                             000000000000011743000050000790700007907000000000000000000001986000040780000018800000025000044700000000300900001461N
011986031011802299ATARFE                                                                                              000000000000009713000080000675500006756000000000000000000002430000042220000021100000018000047820000000237100002411N
011986031011802399BAZA                                                                                                000000000000020768000180001547600015476000000000000000000003310000061860000036400000107000071040000000516600001938N
011986031011802499BEAS DE GRANADA                                                                                     000000000000000834000010000064300000643000000000000000000000149000002820000003700000001000003660000000028100000085N
011986031011802599BEAS DE GUADIX                                                                                      000000000000000481000010000039500000395000000000000000000000092000001740000001400000002000002030000000018400000019N
011986031011802799BENALUA DE GUADIX                                                                                   000000000000003586000020000245000002450000000000000000000000676000012900000007000000016000016150000000089500000720N
011986031011802899BENALUA DE LAS VILLAS                                                                               000000000000001383000010000105800001058000000000000000000000229000004010000007100000007000005880000000049000000098N
011986031011802999BENAMAUREL                                                                                          000000000000002741000040000227900002279000000000000000000000710000010770000004200000009000011970000000090300000294N
011986031011803099BERCHULES                                                                                           000000000000001014000020000124600001246000000000000000000000241000003040000002300000004000003850000000027700000108N
011986031011803299BUBION                                                                                              000000000000000327000010000028800000288000000000000000000000036000000660000001200000001000000970000000007300000024N
011986031011803399BUSQUISTAR                                                                                          000000000000000434000010000045800000458000000000000000000000082000001290000001000000000000001670000000013600000031N
011986031011803499CACIN                                                                                               000000000000000965000020000076400000764000000000000000000000273000004030000001400000006000004880000000025000000238N
011986031011803599CADIAR                                                                                              000000000000002159000040000178700001787000000000000000000000392000006150000005900000004000008010000000043400000367N
011986031011803699CAJAR                                                                                               000000000000001623000010000111800001118000000000000000000000238000005380000008300000007000006400000000036900000271N
011986031011803799CALICASAS                                                                                           000000000000000589000010000040200000402000000000000000000000073000001780000002700000005000002550000000015900000096N
011986031011803899CAMPOTEJAR                                                                                          000000000000001461000010000107800001078000000000000000000000261000006870000001700000002000007130000000041300000300N
011986031011803999CANILES                                                                                             000000000000006109000080000539400005394000000000000000000001109000021220000016700000029000025660000000211500000451N
011986031011804099CAÑAR                                                                                               000000000000000398000010000045500000455000000000000000000000048000001060000000400000000000001360000000007400000062N
011986031011804299CAPILEIRA                                                                                           000000000000000598000010000049800000498000000000000000000000091000001300000001000000002000001940000000008500000109N
011986031011804399CARATAUNAS                                                                                          000000000000000175000010000015000000150000000000000000000000032000000510000000400000000000000830000000005400000029N
011986031011804499CASTARAS                                                                                            000000000000000366000010000036500000365000000000000000000000057000001110000001000000001000001210000000007900000042N
011986031011804599CASTILLEJAR                                                                                         000000000000002431000030000197400001974000000000000000000000550000008460000008500000018000009730000000074000000233N
011986031011804699CASTRIL                                                                                             000000000000003645000070000301400003014000000000000000000000428000008950000003700000004000012900000000102700000263N
011986031011804799CENES DE LA VEGA                                                                                    000000000000001398000010000086400000864000000000000000000000230000004940000002400000005000006020000000041900000183N
011986031011804899CIJUELA                                                                                             000000000000001177000010000083400000834000000000000000000000359000005280000001900000016000005720000000032100000251N
011986031011804999COGOLLOS DE GUADIX                                                                                  000000000000000858000010000072600000726000000000000000000000196000003420000003100000000000003580000000024700000111N
011986031011805099COGOLLOS VEGA                                                                                       000000000000001852000020000146900001469000000000000000000000453000007580000005900000006000009470000000054800000399N
011986031011805199COLOMERA                                                                                            000000000000002030000030000160900001609000000000000000000000449000006990000006500000016000009030000000064900000254N
011986031011805399CORTES DE BAZA                                                                                      000000000000003320000050000256500002565000000000000000000000662000011010000007600000015000013590000000109700000262N
011986031011805499CORTES Y GRAENA                                                                                     000000000000001009000010000083000000830000000000000000000000129000003500000001100000006000004520000000032800000124N
011986031011805699CULLAR-BAZA                                                                                         000000000000005859000070000472500004725000000000000000000001512000024790000023300000092000026790000000167200001007N
011986031011805799CULLAR-VEGA                                                                                         000000000000001420000010000105300001053000000000000000000000307000005840000005500000004000007180000000050800000210N
011986031011805999CHAUCHINA                                                                                           000000000000004009000030000281800002818000000000000000000000983000016920000007400000038000019160000000114500000771N
011986031011806199CHIMENEAS                                                                                           000000000000001633000020000133100001331000000000000000000000325000005550000003800000005000006970000000046900000228N
011986031011806299CHURRIANA DE LA VEGA                                                                                000000000000004749000020000312400003124000000000000000000000761000015200000019800000020000018810000000123100000650N
011986031011806399DARRO                                                                                               000000000000001625000010000122900001229000000000000000000000266000004500000004500000011000005250000000043000000095N
011986031011806499DEHESAS DE GUADIX                                                                                   000000000000001013000010000052700000527000000000000000000000115000002400000001000000004000002500000000019500000055N
011986031011806699DEIFONTES                                                                                           000000000000002452000020000175500001755000000000000000000000397000007910000004700000006000011870000000050700000680N
011986031011806799DIEZMA                                                                                              000000000000001125000010000083000000830000000000000000000000177000003180000003300000003000003890000000033400000055N
011986031011806899DILAR                                                                                               000000000000001299000010000103900001039000000000000000000000254000005000000002100000005000006400000000041200000228N
011986031011806999DOLAR                                                                                               000000000000000779000010000066000000660000000000000000000000292000004060000002900000001000004240000000035100000073N
011986031011807099DUDAR                                                                                               000000000000000279000010000019900000199000000000000000000000022000000760000000300000001000001330000000011000000023N
011986031011807199DURCAL                                                                                              000000000000005485000050000396100003961000000000000000000001130000019540000011100000027000026980000000181400000884N
011986031011807299ESCUZAR                                                                                             000000000000001143000010000085900000859000000000000000000000283000004010000002900000006000004420000000034600000096N
011986031011807499FERREIRA                                                                                            000000000000000453000010000039900000399000000000000000000000073000001180000004700000003000001450000000008600000059N
011986031011807699FONELAS                                                                                             000000000000001601000020000115600001156000000000000000000000193000004120000004200000003000005440000000033800000206N
011986031011807899FREILA                                                                                              000000000000001424000010000100900001009000000000000000000000168000003850000002300000002000004980000000039000000108N
011986031011807999FUENTE VAQUEROS                                                                                     000000000000003715000030000264900002649000000000000000000001202000019290000006100000071000020150000000104700000968N
011986031011808299GALERA                                                                                              000000000000001937000030000181200001812000000000000000000000470000006470000005400000011000007360000000053700000199N
011986031011808399GOBERNADOR                                                                                          000000000000000446000010000035900000359000000000000000000000100000001620000001600000001000001670000000014100000026N
011986031011808499GOJAR                                                                                               000000000000001969000010000136400001364000000000000000000000399000007600000004500000020000009110000000053000000381N
011986031011808599GOR                                                                                                 000000000000001572000020000133000001330000000000000000000000300000004910000003000000008000005810000000041800000163N
011986031011808699GORAFE                                                                                              000000000000000761000010000066700000667000000000000000000000220000002930000000400000002000003290000000031300000016N
011986031011808799GRANADA                                                                                             000000000000256073001680018426600184266000000000000000000052403000940370000832300001123001010670000006052500040542N
011986031011808899GUADAHORTUNA                                                                                        000000000000002530000030000180900001809000000000000000000000414000007760000003500000007000011130000000048700000626N
011986031011808999GUADIX                                                                                              000000000000020155000180001530600015306000000000000000000003158000060200000032400001083000063180000000462500001693N
011986031011809399GUALCHOS                                                                                            000000000000002962000020000206300002063000000000000000000000456000008530000010400000022000009800000000071500000265N
011986031011809499GUEJAR-SIERRA                                                                                       000000000000002576000030000236200002362000000000000000000000478000008380000007300000011000010500000000070400000346N
011986031011809599GUEVEJAR                                                                                            000000000000001124000010000080300000803000000000000000000000188000004600000001300000012000005600000000043600000124N
011986031011809699HUELAGO                                                                                             000000000000000764000010000065200000652000000000000000000000216000003310000003100000010000003350000000026900000066N
011986031011809799HUENEJA                                                                                             000000000000001631000030000149200001492000000000000000000000405000005510000006200000032000006430000000041800000225N
011986031011809899HUESCAR                                                                                             000000000000010333000100000753000007530000000000000000000001860000029500000027500000053000035030000000274600000757N
011986031011809999HUETOR-SANTILLAN                                                                                    000000000000001359000010000102800001028000000000000000000000276000005070000003000000008000006890000000043200000257N
011986031011810099HUETOR-TAJAR                                                                                        000000000000007469000040000527000005270000000000000000000001640000027830000012000000059000035580000000169800001860N
011986031011810199HUETOR-VEGA                                                                                         000000000000005675000040000351400003514000000000000000000000734000016350000010200000010000022600000000132600000934N
011986031011810299ILLORA                                                                                              000000000000010278000090000784600007846000000000000000000002460000041820000033100000081000052400000000336100001879N
011986031011810399ITRABO                                                                                              000000000000001200000010000100600001006000000000000000000000273000004100000004300000008000004970000000042800000069N
011986031011810599IZNALLOZ                                                                                            000000000000006912000060000492700004927000000000000000000001635000024200000010200000030000030810000000172000001361N
011986031011810799JAYENA                                                                                              000000000000001506000010000115600001156000000000000000000000222000003080000001300000004000005120000000040500000107N
011986031011810899JEREZ DEL MARQUESADO                                                                                000000000000001329000010000121800001218000000000000000000000430000006010000005600000023000006450000000045000000195N
011986031011810999JETE                                                                                                000000000000000721000010000053800000538000000000000000000000001000002510000001500000004000003160000000022700000089N
011986031011811199JUN                                                                                                 000000000000000846000010000063600000636000000000000000000000172000003080000002100000007000004180000000035800000060N
011986031011811299JUVILES                                                                                             000000000000000203000010000019400000194000000000000000000000016000000280000000100000000000000370000000001900000018N
011986031011811499LACALAHORRA                                                                                         000000000000001084000010000087300000873000000000000000000000224000003930000002000000005000005060000000032000000186N
011986031011811599LACHAR                                                                                              000000000000002100000020000146700001467000000000000000000000483000008210000004600000032000010480000000063500000413N
011986031011811699LANJARON                                                                                            000000000000004231000040000313600003136000000000000000000001020000016000000008400000024000018970000000144300000454N
011986031011811799LANTEIRA                                                                                            000000000000000787000010000066600000666000000000000000000000265000004050000003200000002000004130000000017400000239N
011986031011811999LECRIN                                                                                              000000000000002616000060000230500002306000000000000000000000731000011570000011300000029000013500000000106500000285N
011986031011812099LENTEJI                                                                                             000000000000000373000010000028800000288000000000000000000000113000001750000000300000002000002180000000018500000033N
011986031011812199LOBRAS                                                                                              000000000000000257000010000023700000237000000000000000000000063000000930000001200000002000000920000000006900000023N
011986031011812299LOJA                                                                                                000000000000020279000200001430500014305000000000000000000003351000061110000062400000131000082540000000556400002690N
011986031011812399LUGROS                                                                                              000000000000000623000010000046300000463000000000000000000000110000001940000000600000001000002520000000022600000026N
011986031011812499LUJAR                                                                                               000000000000000695000010000051800000518000000000000000000000090000001880000001700000002000002420000000019500000047N
011986031011812699MALA                                                                                                000000000000001654000010000116400001164000000000000000000000403000007130000004200000013000008190000000040700000412N
011986031011812799MARACENA                                                                                            000000000000011095000080000730700007307000000000000000000002631000047000000019200000030000053980000000246400002934N
011986031011812899MARCHAL                                                                                             000000000000000534000010000044800000448000000000000000000000039000000880000001500000002000001400000000009200000048N
011986031011813299MOCLIN                                                                                              000000000000005037000060000392900003929000000000000000000001212000020260000007200000028000027540000000161700001137N
011986031011813399MOLVIZAR                                                                                            000000000000002427000020000189400001894000000000000000000000407000006380000005200000016000008650000000063200000233N
011986031011813499MONACHIL                                                                                            000000000000003725000020000262600002626000000000000000000000635000012430000007400000011000016290000000081100000818N
011986031011813599MONTEFRIO                                                                                           000000000000008359000090000633800006338000000000000000000001769000026160000019500000023000033920000000203900001353N
011986031011813699MONTEJICAR                                                                                          000000000000003005000020000216300002163000000000000000000000715000012210000007700000022000013670000000094400000423N
011986031011813799MONTILLANA                                                                                          000000000000001415000020000112700001127000000000000000000000232000003450000005700000005000005340000000043800000096N
011986031011813899MORALEDA DE ZAFAYONA                                                                                000000000000002547000020000179700001797000000000000000000000519000009420000002500000014000012070000000055900000648N
011986031011814099MOTRIL                                                                                              000000000000044482000300002943600029436000000000000000000007303000140560000070100000315000170190000001048100006538N
011986031011814199MURTAS                                                                                              000000000000001225000020000109600001096000000000000000000000161000002450000003600000008000002880000000015400000134N
011986031011814399NIGUELAS                                                                                            000000000000001217000010000106000001060000000000000000000000372000005580000001900000013000006820000000049800000184N
011986031011814499NIVAR                                                                                               000000000000000487000010000034900000349000000000000000000000090000001700000003900000001000002070000000016000000047N
011986031011814599OGIJARES                                                                                            000000000000002921000020000179600001796000000000000000000000528000009970000009200000007000012140000000076000000454N
011986031011814699ORCE                                                                                                000000000000001626000030000151200001512000000000000000000000529000006820000006700000017000007660000000058800000178N
011986031011814799ORGIVA                                                                                              000000000000005155000050000391500003915000000000000000000001146000016530000008700000022000019800000000124600000734N
011986031011814899OTIVAR                                                                                              000000000000001213000010000093300000933000000000000000000000199000003510000001600000003000005420000000042100000121N
011986031011814999OTURA                                                                                               000000000000002209000010000159100001591000000000000000000000398000008020000009600000007000010040000000068100000323N
011986031011815099PADUL                                                                                               000000000000006056000040000448900004489000000000000000000001208000021340000020900000045000026970000000189500000802N
011986031011815199PAMPANEIRA                                                                                          000000000000000358000010000040600000406000000000000000000000060000000930000000300000000000001220000000007500000047N
011986031011815299PEDRO-MARTINEZ                                                                                      000000000000002017000030000171200001712000000000000000000000556000008220000002500000003000009430000000081600000127N
011986031011815399PELIGROS                                                                                            000000000000005275000040000347300003473000000000000000000001191000020990000011900000022000024500000000126700001183N
011986031011815499PEZA (LA)                                                                                           000000000000001740000030000133700001337000000000000000000000290000004180000003600000005000004920000000040100000091N
011986031011815799PINOS-GENIL                                                                                         000000000000000910000010000061900000619000000000000000000000197000003450000002100000002000004400000000028600000154N
011986031011815899PINOS-PUENTE                                                                                        000000000000013370000100000956100009561000000000000000000003735000056490000029200000085000066490000000389800002751N
011986031011815999PIÑAR                                                                                               000000000000001549000020000114500001145000000000000000000000280000005570000002800000010000007680000000042300000345N
011986031011816199POLICAR                                                                                             000000000000000274000010000022700000227000000000000000000000063000001090000000900000003000001270000000010600000021N
011986031011816299POLOPOS                                                                                             000000000000001387000030000104800001048000000000000000000000271000005490000005500000005000006430000000054900000094N
011986031011816399PORTUGOS                                                                                            000000000000000438000010000042100000421000000000000000000000121000001960000000700000001000002390000000015600000083N
011986031011816499PUEBLA DE DON FADRIQUE                                                                              000000000000002894000050000231000002310000000000000000000000513000009640000012500000020000011270000000075000000377N
011986031011816599PULIANAS                                                                                            000000000000002291000010000152600001526000000000000000000000416000007960000006300000013000010540000000072300000331N
011986031011816799PURULLENA                                                                                           000000000000002757000020000192800001928000000000000000000000356000006430000003900000008000009790000000064800000331N
011986031011816899QUENTAR                                                                                             000000000000001253000020000089000000890000000000000000000000176000003480000003100000006000004670000000028000000187N
011986031011817099RUBITE                                                                                              000000000000000554000010000047100000471000000000000000000000125000001560000001200000001000001790000000012000000059N
011986031011817199SALAR                                                                                               000000000000002867000030000211600002116000000000000000000000695000011580000004800000032000015300000000067300000857N
011986031011817399SALOBREÑA                                                                                           000000000000008926000060000616000006160000000000000000000001574000030170000015000000023000038620000000243200001430N
011986031011817499SANTA CRUZ DEL COMERCIO                                                                             000000000000000627000010000045700000457000000000000000000000127000001830000000900000007000002570000000020400000053N
011986031011817599SANTA FE                                                                                            000000000000011695000090000817600008176000000000000000000002450000047000000028000000072000054280000000410100001327N
011986031011817699SOPORTUJAR                                                                                          000000000000000274000010000025400000254000000000000000000000057000001070000000400000002000001280000000007800000050N
011986031011817799SORVILAN                                                                                            000000000000001025000020000076800000768000000000000000000000140000002270000002600000011000003220000000027000000052N
011986031011817899TORRE-CARDELA                                                                                       000000000000001500000010000117700001177000000000000000000000214000003850000004300000005000004680000000038400000084N
011986031011817999TORVIZCON                                                                                           000000000000001309000020000108100001081000000000000000000000224000002960000003000000015000003660000000021800000148N
011986031011818099TREVELEZ                                                                                            000000000000000877000010000071800000718000000000000000000000167000002400000001200000001000003510000000018900000162N
011986031011818199TURON                                                                                               000000000000000515000010000059000000590000000000000000000000025000000540000000100000000000000760000000004900000027N
011986031011818299UGIJAR                                                                                              000000000000003149000050000234500002345000000000000000000000682000011390000007500000009000012760000000096300000313N
011986031011818399VALOR                                                                                               000000000000001202000030000100000001000000000000000000000000287000004800000006200000028000005220000000041000000112N
011986031011818499VELEZ DE BENAUDALLA                                                                                 000000000000002630000030000199600001996000000000000000000000701000010970000005400000033000012240000000048200000742N
011986031011818599VENTAS DE HUELMA                                                                                    000000000000000777000010000060100000601000000000000000000000147000002670000002600000004000003220000000023200000090N
011986031011818799VILLANUEVA DE LAS TORRES                                                                            000000000000001118000010000078500000785000000000000000000000323000004620000001800000013000004970000000043200000065N
011986031011818899VILLANUEVA MESIA                                                                                    000000000000001814000010000131600001316000000000000000000000294000005380000005100000015000007140000000049700000217N
011986031011818999VIZNAR                                                                                              000000000000000683000010000054300000543000000000000000000000117000002810000001400000006000003330000000020700000126N
011986031011819299ZAFARRAYA                                                                                           000000000000002244000030000165900001659000000000000000000000690000011030000000600000017000013240000000057500000749N
011986031011819399ZUBIA (LA)                                                                                          000000000000007120000040000477000004770000000000000000000001256000025960000014200000029000032230000000208200001141N
011986031011819499ZUJAR                                                                                               000000000000003547000050000271100002711000000000000000000000815000013140000006300000011000016520000000141700000235N
011986031011890199TAHA (LA)                                                                                           000000000000000920000030000087800000878000000000000000000000148000002240000001600000004000003040000000017800000126N
011986031011890299VALLE (EL)                                                                                          000000000000001644000030000127600001276000000000000000000000515000006780000004100000005000007900000000067200000118N
011986031011890399NEVADA                                                                                              000000000000001599000030000134000001340000000000000000000000492000006890000004400000016000008640000000048000000384N
011986031011890499ALPUJARRA DE LA SIERRA                                                                              000000000000001484000020000126200001262000000000000000000000364000005450000003800000013000006420000000045500000187N
011986031011890599GABIAS (LAS)                                                                                        000000000000005373000050000373600003736000000000000000000001163000021850000007600000006000025750000000206900000506N
011986031011890699GUAJARES (LOS)                                                                                      000000000000001630000030000128300001283000000000000000000000315000004840000006400000010000006250000000046300000162N
011986031011890799VALLE DEL ZALABI                                                                                    000000000000002657000030000199600001996000000000000000000000449000008580000008700000032000010170000000073700000280N
011986031011890899VILLAMENA                                                                                           000000000000001168000020000087700000877000000000000000000000220000003800000001300000011000005630000000045100000112N
011986031011890999MORELABOR                                                                                           000000000000001161000020000092200000922000000000000000000000266000004190000003100000014000004420000000036400000078N
011986031011891099PINAR (EL)                                                                                          000000000000001478000020000119900001199000000000000000000000305000004740000004100000016000006150000000050000000115N
011986031011891199VEGAS DEL GENIL                                                                                     000000000000002595000030000202500002025000000000000000000000471000009760000008200000003000011530000000073900000414N
011986031011891299CUEVAS DEL CAMPO                                                                                    000000000000002588000030000194000001940000000000000000000000459000008060000003000000006000011070000000091400000193N
011986031011891399ZAGRA                                                                                               000000000000001501000020000126400001264000000000000000000000218000003590000008300000004000005040000000034800000156N
011986031012100199ALAJAR                                                                                              000000000000000908000020000073600000736000000000000000000000178000002730000002500000001000003640000000029700000067N
011986031012100299ALJARAQUE                                                                                           000000000000005390000040000326800003268000000000000000000000826000015780000012900000009000019020000000137300000529N
011986031012100399ALMENDRO (EL)                                                                                       000000000000000889000010000064900000649000000000000000000000162000002930000001500000000000003960000000018800000208N
011986031012100499ALMONASTER LA REAL                                                                                  000000000000002377000050000190900001909000000000000000000000502000008900000004800000004000010870000000088800000199N
011986031012100599ALMONTE                                                                                             000000000000014604000140000998100009981000000000000000000002820000054650000036100000054000067370000000512100001616N
011986031012100699ALOSNO                                                                                              000000000000005045000050000389900003899000000000000000000001786000024560000008300000036000025300000000205600000474N
011986031012100799ARACENA                                                                                             000000000000006331000060000475300004753000000000000000000001241000019490000018400000026000024190000000145500000964N
011986031012100899AROCHE                                                                                              000000000000003845000040000308600003086000000000000000000000910000013220000012300000030000015370000000095500000582N
011986031012100999ARROYOMOLINOS DE LEON                                                                               000000000000001320000020000104100001041000000000000000000000333000005040000009000000007000005620000000032900000233N
011986031012101099AYAMONTE                                                                                            000000000000016745000140001086300010863000000000000000000002051000042310000025600000025000050910000000350800001583N
011986031012101199BEAS                                                                                                000000000000004010000030000309600003096000000000000000000000950000017320000013800000021000021300000000179000000340N
011986031012101299BERROCAL                                                                                            000000000000000446000010000040100000401000000000000000000000091000001560000002200000002000001700000000010600000064N
011986031012101399BOLLULLOS PAR DEL CONDADO                                                                           000000000000012304000120000919500009195000000000000000000002419000040610000023400000024000054570000000342100002036N
011986031012101499BONARES                                                                                             000000000000004872000030000348600003486000000000000000000001442000021680000017700000018000024380000000190700000531N
011986031012101599CABEZAS RUBIAS                                                                                      000000000000000960000010000076200000762000000000000000000000176000002960000001100000001000003450000000027100000074N
011986031012101699CALA                                                                                                000000000000001558000020000116200001162000000000000000000000452000006620000004300000024000007200000000060000000120N
011986031012101799CALAÑAS                                                                                             000000000000005371000070000448000004480000000000000000000001807000026230000006100000034000028890000000222700000662N
011986031012101899CAMPILLO (EL)                                                                                       000000000000002912000030000221400002214000000000000000000000880000013780000003100000006000015580000000111900000439N
011986031012101999CAMPOFRIO                                                                                           000000000000000923000010000068900000689000000000000000000000240000003900000002700000008000004080000000025500000153N
011986031012102099CAÑAVERAL DE LEON                                                                                   000000000000000603000010000051300000513000000000000000000000125000001750000001000000000000002100000000015400000056N
011986031012102199CARTAYA                                                                                             000000000000009867000090000670400006704000000000000000000001379000025530000022700000052000033820000000257100000811N
011986031012102299CASTAÑO DEL ROBLEDO                                                                                 000000000000000211000010000020000000200000000000000000000000050000001020000001000000002000001290000000011400000015N
011986031012102399CERRO DE ANDEVALO (EL)                                                                              000000000000003082000050000262400002624000000000000000000000842000012420000010600000032000012890000000091200000377N
011986031012102499CORTECONCEPCION                                                                                     000000000000000724000010000059900000599000000000000000000000166000002550000000700000000000003110000000021800000093N
011986031012102599CORTEGANA                                                                                           000000000000005474000080000427500004275000000000000000000001219000017990000016100000013000021170000000153400000583N
011986031012102699CORTELAZOR                                                                                          000000000000000378000010000034400000344000000000000000000000083000001580000001400000000000001730000000012000000053N
011986031012102799CUMBRES DE EN MEDIO                                                                                 000000000000000061000010000006100000061000000000000000000000029000000380000000500000000000000370000000003600000001N
011986031012102899CUMBRES DE SAN BARTOLOME                                                                            000000000000000763000010000066100000661000000000000000000000253000003980000003600000000000004280000000039200000036N
011986031012102999CUMBRES MAYORES                                                                                     000000000000002491000040000197000001970000000000000000000000705000010800000014300000009000011390000000071700000422N
011986031012103099CHUCENA                                                                                             000000000000001914000020000149200001492000000000000000000000359000006790000010900000010000008370000000070600000131N
011986031012103199ENCINASOLA                                                                                          000000000000002431000050000218900002189000000000000000000000638000009290000007200000024000011900000000082400000366N
011986031012103299ESCACENA DEL CAMPO                                                                                  000000000000002229000020000161200001612000000000000000000000459000007860000005700000004000009060000000043000000476N
011986031012103399FUENTEHERIDOS                                                                                       000000000000000645000010000053100000531000000000000000000000161000002210000001600000002000002960000000018000000116N
011986031012103499GALAROZA                                                                                            000000000000001694000020000141600001416000000000000000000000440000006500000007000000000000007370000000047300000264N
011986031012103599GIBRALEON                                                                                           000000000000009733000100000664000006640000000000000000000001628000030430000019700000040000039430000000320800000735N
011986031012103699GRANADA DE RIO-TINTO (LA)                                                                           000000000000000225000010000018300000183000000000000000000000055000001030000000900000001000001200000000007600000044N
011986031012103799GRANADO (EL)                                                                                        000000000000000717000010000054000000540000000000000000000000121000002570000000800000000000003310000000026200000069N
011986031012103899HIGUERA DE LA SIERRA                                                                                000000000000001439000020000117800001178000000000000000000000303000004210000007000000013000004750000000033900000136N
011986031012103999HINOJALES                                                                                           000000000000000499000010000040200000402000000000000000000000092000001290000001500000000000001710000000011400000057N
