032019041529008000077002TJosé                     Ouviña                   Mantel                   M00000000          N
032019041529009000104001TFrancisco Jesús          Vázquez                  Pérez                    M00000000          N
032019041529010000100001TFrancisco                Jordano                  Luna                     M00000000          N
032019041529011000117001TJosé Miguel              Tasende                  Souto                    M00000000          N
032019041529012000117002TAna María                Trujillo                 Díaz                     F00000000          N
032019041529013000021001TDunia                    Al-Mansouri              Umpierrez                F00000000          N
032019041529014000021002TEmilio                   Guerra                   Muñoz                    M00000000          N
032019041039021000117003TCarolina                 Vigara                   García                   F00000000          N
032019041039022000010001TFrancisco                Marco                    Juan                     M00000000          N
032019041039023000104001TAdrián                   Martínez                 Ramos                    M00000000          N
032019041039024000104002TRosa Isabel              Payá                     Giménez                  F00000000          N
032019041039025000104003TRafael                   Adrián                   Serrano                  M00000000          N
032019041039026000063001TManuel                   Serna                    Oltra                    M00000000          N
032019041039027000073001TJosé María               García                   Cabrera                  M00000000          N
032019041039028000038001TAlbert Jesús             Amorós                   Alted                    M00000000          N
032019041049001000083001TRafael Antonio           Hernando                 Fraile                   M00000000          S
032019041049002000083002TLuis Rogelio             Rodríguez Comendador     Pérez                    M00000000          N
032019041049003000083003TMaría Rosario            Soto                     Rico                     F00000000          N
032019041049004000096001TFernando                 Martínez                 López                    M00000000          S
032019041049005000096002TInés María               Plaza                    García                   F00000000          S
032019041049006000096003TJuan Carlos              Pérez                    Navas                    M00000000          S
032019041209027000029003TLuis María               Ormaetxea                Santsiñena               M00000000          N
032019041209028000100001TMaría Rosario            Elcuaz                   Viscarret                F00000000          N
032019041219001000096001TAmaro                    Huelva                   Betanzos                 M00000000          S
032019041219002000096002TJosefa Inmaculada        González                 Bayo                     F00000000          S
032019041219003000096003TJesús                    González                 Márquez                  M00000000          S
032019041219004000083001TCarmelo                  Romero                   Hernández                M00000000          S
032019041219005000083002TFrancisco Javier         González                 Pérez                    M00000000          N
032019041219006000083003TMaría Dolores            Vázquez                  Muñoz                    F00000000          N
032019041219007000081001TLuis Alberto             Zambrano                 Arenas                   M00000000          N
032019041219008000081002TMaría del Carmen         Valera                   Mora                     F00000000          N
032019041219009000081003TJosé                     Gómez                    Galván                   M00000000          N
032019041219010000022001TMaría                    Ponce                    Gallardo                 F00000000          N
032019041219011000022002TJuan de Dios             Martín                   Tocino                   M00000000          N
032019041219012000022003TTamara                   Vargas                   Jiménez                  F00000000          N
032019041219013000054001TJuan Sebastián           Gómez                    Mejía                    M00000000          N
032019041219014000054002TRosa María               Jiménez                  Toledo                   F00000000          N
032019041219015000054003TAdelina                  Gago                     Casal                    F00000000          N
032019041219016000117001TCarlos                   Bermejo                  Martíns                  M00000000          N
032019041219017000117002TMaría del Carmen         Córdoba                  Pallarés                 F00000000          N
032019041219018000117003TRosario                  Toro                     Faustino                 F00000000          N
032019041219019000104001TMario Alberto            Delgado                  Jiménez                  M00000000          N
032019041219020000058001TGregorio                 Bermejo                  Sánchez                  M00000000          N
032019041219021000011001TJosé Ángel               Brizo                    Álvarez                  M00000000          N
032019041219022000011002TMaría Dolores            Márquez                  Jaramillo                F00000000          N
032019041219023000011003TDemetrio                 Luna                     Cordero                  M00000000          N
032019041229001000083001TAna Isabel               Alós                     López                    F00000000          S
032019041229002000083002TMaría Blanca             Puyuelo                  del Val                  F00000000          N
032019041229003000083003TAntonio                  Comps                    Encuentra                M00000000          N
032019041229004000096001TAntonio José             Cosculluela              Bergua                   M00000000          S
032019041229005000096002TRosa María               Serrano                  Sierra                   F00000000          S
032019041229006000096003TGonzalo                  Palacín                  Guarné                   M00000000          S
032019041229007000078001TChorche                  Paniello                 Puig                     M00000000          N
032019041229008000078002TAlceste                  Pedrocchi                Betrán                   F00000000          N
032019041229009000078003TDaniel                   Isábal                   Rami                     M00000000          N
032019041229010000022001TJosé Miguel              Burillo                  Julián                   M00000000          N
032019041229011000022002TPaula                    Martínez-Guisasola       Cornago                  F00000000          N
032019041229012000022003TDavid Jorge              Betrián                  Villas                   M00000000          N
032019041229013000054001TMaría Pilar              Magén                    Gracia                   F00000000          N
032019041229014000054002TIgnacio                  Barreras                 Bernad                   M00000000          N
032019041229015000054003TLara Pilar               Valero                   Ondiviela                F00000000          N
032019041229016000028001TRubén                    Andrés                   Gil                      M00000000          N
032019041229017000028002TRosa María               Martín                   Bartolomé                F00000000          N
032019041229018000028003TPablo                    Herranz                  Burillo                  M00000000          N
032019041229019000117001TFermín                   Civiac                   LLop                     M00000000          N
032019041229020000104001TFrancisco Javier         Guiu                     Benito                   M00000000          N
032019041229021000063001TLuis Ladislao            Izquierdo                Pradilla                 M00000000          N
032019041229022000100001TFrancisca                Payero                   Soto                     F00000000          N
032019041229023000103001TAlejandro                Nasarre                  Piqué                    M00000000          N
032019041229024000041001TJosé María               Abad                     Torres                   M00000000          N
032019041229025000041002TSilvia Susana            Lozano                   Renieblas                F00000000          N
032019041229026000041003TCarlos Luis              Peropadre                Torres                   M00000000          N
032019041239001000096001TMicaela                  Navarro                  Garzón                   F00000000          S
032019041239002000096002TJosé                     Latorre                  Ruiz                     M00000000          S
032019041239003000096003TManuel Ángel             Fernández                Palomino                 M00000000          S
032019041239004000083001TFrancisco Javier         Márquez                  Sánchez                  M00000000          S
032019041239005000083002TÁngeles                  Isac                     García                   F00000000          N
032019041239006000083003TJuan                     Morillo                  García                   M00000000          N
032019041239007000081001TAntonio                  Machado                  Villacañas               M00000000          N
032019041239008000081002TFrancisco David          Anguita                  Arance                   M00000000          N
032019041239009000081003TCarmen                   Lechuga                  Viedma                   F00000000          N
032019041239010000022001TFernando                 Casado                   Martínez                 M00000000          N
032019041239011000022002TRosel                    Jiménez                  Ruiz                     F00000000          N
032019041239012000022003TMiguel Ángel             Carmona                  Carmona                  M00000000          N
032019041239013000054001TSonia                    Collado                  Oropesa                  F00000000          N
032019041239014000054002TManuel                   Poblete                  Tamara                   M00000000          N
032019041239015000054003TRosa                     Garrido                  Serrano                  F00000000          N
032019041239016000117001TAlfonso Jesús            Bayona                   Gómez                    M00000000          N
032019041239017000104001TTeresa                   Recena                   González                 F00000000          N
032019041239018000106001TAntonio                  Navas                    Molina (Tonini)          M00000000          N
032019041239019000106002TRita María Dolores       Santaella                Ruiz                     F00000000          N
032019041239020000106003TAntonio Ángel            Pérez                    Rodríguez                M00000000          N
032019041239021000100001TMontserrat               Malo de Molina           Fernández de Cordova     F00000000          N
032019041239022000018001TLuis                     Ortiz                    Fernández                M00000000          N
032019041239023000018002TMarta                    Chinchilla               García                   F00000000          N
032019041239024000011001TJuan de Dios             Ortega                   López                    M00000000          N
032019041239025000011002TAna María                Ramos                    Martínez                 F00000000          N
032019041239026000011003TTomás Francisco          Portero                  Pérez                    M00000000          N
032019041239027000011004TAlma María               Valero                   Almagro                  F00000000          N
032019041249001000083001TJavier                   Santiago                 Vélez                    M00000000          S
032019041249002000083002TEster                    Múñoz                    de la Iglesia            F00000000          N
032019041249003000083003TAlfonso                  Arias                    Balboa                   M00000000          N
032019041249004000096001TSalvador                 Vidal                    Varela                   M00000000          S
032019041249005000096002TMaría del Carmen         Morán                    Franco                   F00000000          S
032019041249006000096003TConstantino              Marcos                   Álvarez                  M00000000          S
032019041249007000077001TPabel Enrique            Albán                    Ramírez                  M00000000          N
032019041249008000077002TJavier                   Arias                    Blanco                   M00000000          N
032019041249009000077003TTamara                   Sánchez                  Carrera                  F00000000          N
032019041249010000022001TMaría del Mar            Ordóñez                  Álvarez                  F00000000          N
032019041249011000022002TLuis Carlos              Fernández                Tejerina                 M00000000          N
032019041249012000022003TFrancisco Javier         Panizo                   García                   M00000000          N
032019041249013000054001TMaría Natividad          Franco                   Natal                    F00000000          N
032019041249014000054002TFernando                 Rodrigo                  López                    M00000000          N
032019041249015000054003TRosa Ana                 Escudero                 Martínez                 F00000000          N
032019041249016000091001TCatalina                 Antúnez                  García                   F00000000          N
032019041249017000091002TJesús                    Fernández                Villar                   M00000000          N
032019041249018000091003TManuel                   Matilla                  Pérez                    M00000000          N
032019041249019000117001TJaime                    Martínez                 Cadórniga                M00000000          N
032019041249020000117002TMaría Virginia           Saénz de Miera           Jaén                     F00000000          N
032019041249021000117003TElena                    Merino                   Urbón                    F00000000          N
032019041249022000105001TAlberto                  Sánchez                  Oveja                    M00000000          N
032019041249023000100001TPaloma María             Ortiz                    del Río                  F00000000          N
032019041249024000111001TTomás Franciso           Arconada                 Villar                   M00000000          N
032019041259001000037001TSara                     Bailac                   i Ardanuy                F00000000          S
032019041259002000037002TMiquel                   Caminal                  i Cerdà                  M00000000          S
032019041259003000037003TXavier                   Castellana               i Gamisans               M00000000          S
032019041259004000049001TMaria Teresa             Rivero                   Segalàs                  F00000000          S
032019041259005000049002TCristina                 Simó                     Andreu                   F00000000          N
032019041259006000049003TJordi                    Murgó                    Ambou                    M00000000          N
032019041259007000085001TMiguel Angel             Balao                    García                   M00000000          N
032019041259008000085002TGemma                    Batalla                  Casanovas                F00000000          N
032019041259009000085003TJosé                     Reñé                     Porté                    M00000000          N
032019041259010000032001TMercè                    Agustí                   Parareda                 F00000000          N
032019041259011000032002TBlanca                   Rubio                    Aner                     F00000000          N
032019041259012000032003TLluc                     Capacete                 Gallardo                 M00000000          N
032019041259013000092001TVictor                   Orrit                    Ambrosio                 M00000000          N
032019041259014000092002TMontserrat               Parra                    Albà                     F00000000          N
032019041259015000092003TPasión Gador             Romero                   Garcia                   F00000000          N
032019041259016000023001TCristina                 Daza                     Requena                  F00000000          N
032019041259017000023002TFrancisco                de Urquia                Comas                    M00000000          N
032019041259018000023003TJuan Felipe              Córdoba                  Ortega                   M00000000          N
032019041259019000054001TFrancisco Javier         Martí                    Vallés                   M00000000          N
032019041259020000054002TMaria Rosa               Blasco                   Prim                     F00000000          N
032019041259021000054003TIker                     García                   Alonso                   M00000000          N
032019041259022000061001TFrancesc Xavier          García                   i Llop                   M00000000          N
032019041259023000104001TJosé Fernando            Hernández                Marín                    M00000000          N
032019041259024000117001TAntonio Ramon            Lopez                    Gomez                    M00000000          N
032019041259025000117002TRamón                    Monfá                    Herreros                 M00000000          N
032019041259026000117003TJudith                   Sarrablo                 Roure                    F00000000          N
032019041259027000045001TYolanda                  Gran                     Peruga                   F00000000          N
032019041259028000098001TEmiliano                 Rapaport                 Escardo                  M00000000          N
032019041259029000042001TCarlos                   González                 Iglesias                 M00000000          N
032019041269001000083001TAna Lourdes              González                 García                   F00000000          S
032019041269002000083002TJavier                   Merino                   Martínez                 M00000000          N
032019041269003000083003TRosa                     Ortega                   Martínez                 F00000000          N
032019041269004000096001TMaría Victoria           de Pablo                 Dávila                   F00000000          S
032019041269005000096002TPedro Antonio            Montalvo                 Íñigo                    M00000000          S
032019041269006000096003TMaría del Carmen         Arana                    Álvarez                  F00000000          S
032019041269007000077001TDiego                    Mendiola                 García                   M00000000          N
032019041269008000077002TMiriam                   González                 Blanco                   F00000000          N
032019041269009000077003TRaúl                     Pérez                    Núñez                    M00000000          N
032019041269010000022001TIrene                    de Juan                  González                 F00000000          N
032019041269011000022002TCristina                 Moreno                   Martínez                 F00000000          N
032019041269012000022003TJosé Javier              Garijo                   Sánchez                  M00000000          N
032019041269013000054001TIsabel                   Martínez                 Torres                   F00000000          N
032019041269014000054002TJoseba                   Astarloa                 Aguirrebeitia            M00000000          N
032019041269015000054003TRosa María               Pérez                    Álvarez-Cedrón           F00000000          N
032019041269016000028001TMaría del Carmen         Andrés                   Domínguez                F00000000          N
032019041269017000028002TJosé Carlos              Palacios                 Miguel                   M00000000          N
032019041269018000028003TSonia                    Silvestrini              García                   F00000000          N
032019041269019000117001TSilvia                   Garrido                  Rivas                    F00000000          N
032019041269020000117002TCarmelo José             Borondo                  Munera                   M00000000          N
032019041269021000117003TEric Fernando            Alonso                   Somovilla                M00000000          N
032019041269022000104001TSantiago                 Olalla                   Moreno                   M00000000          N
032019041269023000100001TAgurtzane                Iraeta                   Zabala                   F00000000          N
032019041269024000089001TSofía                    Montenegro               Leza                     F00000000          N
032019041269025000089002TMontserrat               Mallen                   Peregrina                F00000000          N
032019041269026000089003TFrancisco Javier         Rodríguez                Carazo                   M00000000          N
032019041279001000083001TJosé Manuel              Barreiro                 Fernández                M00000000          S
032019041279002000083002TRosa María               Arza                     Rodríguez                F00000000          S
032019041279003000083003TManuel Lorenzo           Varela                   Rodríguez                M00000000          S
032019041279004000093001TCésar Alejandro          Mogo                     Zaro                     M00000000          S
032019041279005000093002TMaría del Pilar          García                   Porto                    F00000000          N
032019041279006000093003TJosé Luis                Raposo                   Magdalena                M00000000          N
032019041279007000075001TNery                     Díaz                     Prieto                   F00000000          N
032019041279008000075002TCarmen María             Fernández                Alarcón                  F00000000          N
032019041279009000075003TLuis Manuel              Daporta                  Rodríguez                M00000000          N
032019041279010000022001TVíctor                   González                 García                   M00000000          N
032019041279011000022002TJosé Ramón               Fernández                Yáñez                    M00000000          N
032019041279012000022003TMercedes                 Marcos                   Fernández                F00000000          N
032019041279013000012001TMaría Pilar              Prieto                   Pita                     F00000000          N
032019041279014000012002TCosme Eladio             Pombo                    Rodríguez                M00000000          N
032019041279015000012003TCecilia                  Diéguez                  Fociños                  M00000000          N
032019041279016000054001TAlberto José             Franco                   Barrera                  M00000000          N
032019041279017000054002TCecilia                  Medina                   López-Lucendo            F00000000          N
032019041279018000054003TJuan Antonio             Sánchez                  Conesa                   M00000000          N
032019041279019000104001TJesús                    Puga                     Fraga                    M00000000          N
032019041279020000068001TDaniel                   López                    García                   M00000000          N
032019041279021000013001TFlorentino               Piñeiro                  Vázquez                  M00000000          N
032019041279022000036001TMaría Victoria           Esteban                  Riesco                   F00000000          N
032019041279023000036002TManuel                   Germade                  Mayo                     M00000000          N
032019041279024000036003TMaría Emma               Rodríguez                Blanco                   F00000000          N
032019041279025000024001TSaúl                     Sánchez                  Freire                   M00000000          N
032019041279026000117001TAntonio Miguel           Gálvez                   García                   M00000000          N
032019041279027000117002TVíctor Miguel            López                    Quiñoá                   M00000000          N
032019041279028000117003TNoelia                   Rabanal                  González                 F00000000          N
032019041289001000083001TPío                      García-Escudero          Márquez                  M00000000          S
032019041289002000083002TJuan Carlos              Vera                     Pró                      M00000000          N
032019041289003000083003TÁngeles                  Pedraza                  Portero                  F00000000          N
032019041289004000096001TCristina                 Narbona                  Ruiz                     F00000000          S
032019041289005000096002TAntonio Armando          Ferrer                   Sais                     M00000000          S
032019041289006000096003TSilvia                   Buabent                  Vallejo                  F00000000          N
032019041289007000077001TAna María                Martínez Arenaza         Muñoz                    F00000000          N
032019041289008000077002TMaria Carmen             Barrios                  Corredera                F00000000          N
032019041289009000077003TJosé                     Blanco                   Martos                   M00000000          N
032019041289010000022001TCarlos                   Cuadrado                 Arroyo                   M00000000          S
032019041289011000022002TJuan Luis                Cano                     Perucha                  M00000000          N
032019041289012000022003TMaría del Carmen         Gutiérrez                Moreno                   F00000000          N
032019041289013000054001TAna Belén                Martín                   Rojo                     F00000000          N
032019041289014000054002TJaime                    Fernández                Garrido                  M00000000          N
032019041289015000054003TMargarita                Morales                  Sarabia                  F00000000          N
032019041289016000117001TJosé María               Marco                    Tobarra                  M00000000          N
032019041289017000117002TCarlos                   Bustelo                  García del Real          M00000000          N
032019041289018000117003TMargarita                de la Pisa               Carrión                  F00000000          N
032019041289019000105001TFernando                 Colomo                   Gómez                    M00000000          N
032019041289020000105002TVioleta                  Cabal                    Rodríguez                F00000000          N
032019041289021000105003TJosé Ramón               Lobo                     Rico                     M00000000          N
032019041289022000072001TGloria                   López                    López                    F00000000          N
032019041289023000072002TArturo                   Viloria                  Fuentes                  M00000000          N
032019041289024000072003TMaría Luisa              Gabaldón                 Maroto                   F00000000          N
032019041289025000072004TJuan Francisco           Cerrada                  Cerrada                  M00000000          N
032019041289026000100001TJorge                    Serrano                  Paradinas                M00000000          N
032019041299001000083001TMaría Ángeles            Muñoz                    Uriol                    F00000000          S
032019041299002000083002TJoaquín Luis             Ramírez                  Rodríguez                M00000000          N
032019041299003000083003TManuel                   Marmolejo                Setién                   M00000000          N
032019041299004000096001TMiguel Ángel             Heredia                  Díaz                     M00000000          S
032019041299005000096002TEstefanía                Martín                   Palop                    F00000000          S
032019041299006000096003TJosé Aurelio             Aguilar                  Román                    M00000000          S
032019041299007000081001TAydé                     Salomón                  Ganado                   F00000000          N
032019041299008000081002TErnesto                  Alba                     Aragón                   M00000000          N
032019041299009000081003TFrancisco                López                    Baena                    M00000000          N
032019041299010000022001TAndrés                   Ruiz                     León                     M00000000          N
032019041299011000022002TLaura                    Moreno                   Incio                    M00000000          N
032019041299012000022003TJosé Luis                Bernabé                  López de Cózar           M00000000          N
032019041299013000054001TCristina                 García                   Salazar                  F00000000          N
032019041299014000054002TVicente Manuel           Corrales                 Rosado                   M00000000          N
032019041299015000054003TCristina                 Falkenberg               Ambrosio                 F00000000          N
032019041299016000104001TFrancisco José           Rodríguez                Marín                    M00000000          N
032019041299017000104002TSusana                   Llamas                   González                 F00000000          N
032019041299018000104003TRafael                   Núñez                    Ruiz                     M00000000          N
032019041299019000117001TPablo Fernando           Sáenz de Tejada          Ariza                    M00000000          N
032019041299020000117002TJosé Carlos              Pallarés                 Muñoz                    M00000000          N
032019041299021000117003TMaría                    Sánchez                  Jiménez                  F00000000          N
032019041299022000058001TMaría Gloria             Fernández                Ruiz                     F00000000          N
032019041299023000011001TJosé Manuel              Moreno                   Rodríguez                M00000000          N
032019041299024000100001TNicolás                  Gemio                    Ruiz                     M00000000          N
032019041309001000083001TViolante                 Tomás                    Olivares                 F00000000          S
032019041309002000083002TDomingo José             Segado                   Martínez                 M00000000          S
032019041309003000083003TMaría Consolación        Vicente                  Sandoval                 F00000000          N
032019041309004000096001TJoaquín                  López                    Pagán                    M00000000          S
032019041309005000096002TSusana                   Hernández                Ruiz                     F00000000          S
032019041309006000096003TEmilio                   Martínez                 Martínez                 F00000000          N
032019041309007000022001TPablo                    Ruiz                     Palacios                 M00000000          N
032019041309008000022002TMaría Raquel             Cancela                  Fernández                F00000000          N
032019041309009000022003TFrancisco José           Caparrós                 Fernández                M00000000          N
032019041309010000077001TMaría Belén              Fernández                Palazón                  F00000000          N
032019041309011000077002TMaría Trinidad           Espinosa                 Mira                     F00000000          N
032019041309012000077003TJosé                     Ibarra                   Bastida                  M00000000          N
032019041309013000054001TEva                      García                   Pinar                    F00000000          N
032019041309014000054002TEduardo Konrad           López                    Orenes                   M00000000          N
032019041309015000054003TGloria Cristina          Morales                  Conde                    F00000000          N
032019041309016000104001TCarlos Enrique           Marín                    Bernal                   M00000000          N
032019041309017000117001TJosé Manuel              Marín                    Gascón                   M00000000          N
032019041309018000117002TMaría Isabel             García                   Lorenzo                  F00000000          N
032019041309019000117003TFrancisco                Martínez                 Ortega                   M00000000          N
032019041309020000063001TMaría Isabel             Requena                  Ruiz                     F00000000          N
032019041309021000045001TGuillermo                García                   Botía                    M00000000          N
032019041309022000108001TMaría Pilar              García                   Santos                   F00000000          N
032019041309023000108002TJesús                    Macanás                  Sánchez                  M00000000          N
032019041309024000108003TJesús                    Rodríguez                Madrid                   M00000000          N
032019041309025000026001TJosé                     García                   Gil                      M00000000          N
032019041309026000026002TDiana                    Muñoz                    Pérez                    F00000000          N
032019041309027000026003TSegundo Humberto         Álvarez                  Pillaga                  M00000000          N
032019041319001000052001TRuth                     Goñi                     Sarries                  F00000000          S
032019041319002000052002TAmelia                   Salanueva                Murguialday              F00000000          S
032019041319003000052003TAlberto                  Catalán                  Higueras                 M00000000          S
032019041319004000096001TAntonio                  Magdaleno                Alegría                  M00000000          S
032019041319005000096002TSusana                   Castanera                Gómez                    F00000000          N
032019041319006000096003TEmilio                   Cigudosa                 García                   M00000000          N
032019041319007000054001TYobana María             Martínez                 Cunchillos               F00000000          N
032019041319008000054002TJuan Carlos              Villar                   Moreno                   M00000000          N
032019041319009000054003TMaría Paulina            del Moral                Ancho                    F00000000          N
032019041319010000104001TAdrián                   Latorre                  Mozota                   M00000000          N
032019041319011000014001TRicardo                  Feliu                    Martínez                 M00000000          N
032019041319012000014002TArturo                   Goldaracena              Asa                      M00000000          N
032019041319013000014003TAna                      Luján                    Martínez                 F00000000          N
032019041319014000100001TJosu                     Lasanta                  Izaguirre                M00000000          N
032019041319015000117001TLuis María               Pezonaga                 Pérez                    M00000000          N
032019041319016000117002THelena                   Garrués                  Iñigo                    F00000000          N
032019041319017000117003TFermín Carlos            Rosas                    Vilar                    M00000000          N
032019041329001000083001TMiguel Ángel             Viso                     Diéguez                  M00000000          S
032019041329002000083002TMaría del Carmen         Leyte                    Coello                   F00000000          S
032019041329003000083003TFrancisco José           Fernández                Pérez                    M00000000          S
032019041329004000093001TJuan Carlos              Francisco                Rivera                   M00000000          S
032019041329005000093002TMarina                   Tallón                   Núñez                    F00000000          N
032019041329006000093003TJosé Antonio             Pérez                    Domínguez                M00000000          N
032019041329007000075001TA. Víctor                Ferreiro                 Outomuro                 M00000000          N
032019041329008000075002TCelsa                    Ferreiro                 Varela                   F00000000          N
032019041329009000075003TManuel                   Nogueira                 Pérez                    M00000000          N
032019041329010000022001TMontserrat               Lama                     Novoa                    F00000000          N
032019041329011000022002TLuis                     Garayzabal               Pedrosa                  M00000000          N
032019041329012000022003TIgnacio Juan             Martín                   Amaro                    M00000000          N
032019041329013000012001TGloria María             Viana                    Rivera                   F00000000          N
032019041329014000012002TXosé Lois                González                 Vázquez "O Carrabouxo"   M00000000          N
032019041329015000012003TRoberto                  Quiroga                  López                    M00000000          N
032019041329016000054001TRubén                    Bermejo                  Cañas                    M00000000          N
032019041329017000054002TRaquel                   García                   Cortezón                 F00000000          N
032019041329018000054003TBorja                    Samper                   Alonso                   M00000000          N
032019041329019000104001TCelia                    Rodríguez                Rodríguez                F00000000          N
032019041329020000024001TAntonio Manuel           Iglesias                 Fernández                M00000000          N
032019041329021000117001TMaría Cristina           Bravo                    Bosch                    F00000000          N
032019041329022000117002TAmador                   Rego                     Villar Amor              M00000000          N
032019041329023000117003TJulio                    Rodríguez                Garrido                  M00000000          N
032019041329024000036001TMillán                   Brea                     Castro                   M00000000          N
032019041329025000036002TAna                      García                   Earley                   F00000000          N
032019041329026000036003TJorge                    Lorenzo                  Vila                     M00000000          N
032019041329027000068001TJosé Jesús               Ramos                    Martínez                 M00000000          N
032019041329028000100001TEnrique                  Rodríguez                Portabales               M00000000          N
032019041339001000086001TJosé Ramón               García                   Cañal                    M00000000          S
032019041339002000086002TJosé Manuel              Rodríguez                González                 M00000000          N
032019041339003000086003TMaría del Camino         Gutiérrez                Gutiérrez                F00000000          N
032019041339004000096001TFrancisco Antonio        Blanco                   Ángel                    M00000000          S
032019041339005000096002TMaría                    Fernández                Álvarez                  F00000000          S
032019041339006000096003TFernando                 Lastra                   Valdés                   M00000000          S
032019041339007000082001TMar                      García                   González                 F00000000          N
032019041339008000082002TJuan Carlos              Hevia                    Lozano                   M00000000          N
032019041339009000082003TJosé Ovidio              Álvarez                  Rozada                   M00000000          N
032019041339010000022001TNicanor                  García                   Fernández                M00000000          N
032019041339011000022002TMaría Victoria           Rubio                    Prieto                   F00000000          N
032019041339012000022003TJoaquín                  Merediz                  Vidal                    M00000000          N
032019041339013000054001TWalter                   Sánchez                  Suárez                   M00000000          N
032019041339014000054002TSandra María             Serrano                  García                   F00000000          N
032019041339015000054003TDavid                    Cienfuegos               Cereijo                  M00000000          N
032019041339016000117001TJuan                     Fernández                Baños                    M00000000          N
032019041339017000117002TCarlota                  Cueto-Felgueroso         Landeira                 F00000000          N
032019041339018000117003TLuis Andrés Cleominio    Sánchez                  Caveda                   M00000000          N
032019041339019000104001TEduardo                  Madroñal                 Pedraza                  M00000000          N
032019041339020000104002TRosa María               Navarrete                Sehnert                  F00000000          N
032019041339021000104003TMaría Beatriz            Rivero                   Infiesta                 F00000000          N
032019041339022000072001TJesús Fernando           Rodríguez                Roiz                     M00000000          N
032019041339023000004001TArturu Xosé              Bermeyu                  García                   M00000000          N
032019041339024000004002TAna                      Fernández                Marqués                  F00000000          N
032019041339025000004003TMario                    Arbesú                   Iglesias                 M00000000          N
032019041339026000100001TAgustín                  Garrido                  Acera                    M00000000          N
032019041339027000066001TSaúl                     Fernández                Garrote                  M00000000          N
032019041349001000083001TRodrigo                  Mediavilla               Pérez                    M00000000          S
032019041349002000083002TJorge Domingo            Martínez                 Antolín                  M00000000          S
032019041349003000083003TMaría del Carmen         Fernández                Caballero                F00000000          N
032019041349004000096001TRosa María               Aldea                    Gómez                    F00000000          S
032019041349005000096002TEduardo                  Santiago                 Calleja                  M00000000          S
032019041349006000096003TGema                     Sanfélix                 Boubeta                  F00000000          N
032019041349007000077001TLuis Álvaro              Villoldo                 Pelayo                   M00000000          N
032019041349008000077002TRosa María               Rebolledo                Manuel                   F00000000          N
032019041349009000077003TEduardo                  Velázquez                Martín                   M00000000          N
032019041349010000022001TElena                    León                     Hernández                F00000000          N
032019041349011000022002TJuan José                Espegel                  Morte                    M00000000          N
032019041349012000022003TManuel Vicente           Gómez                    Sanz                     M00000000          N
032019041349013000054001TMiriam                   Serrano                  Vilches                  F00000000          N
032019041349014000054002TAgustín                  Hernández                Araújo                   M00000000          N
032019041349015000105001TMaría Raquel             Ochoa                    Torres                   F00000000          N
032019041349016000040001TJulio César              de Alaiz                 Martínez                 M00000000          N
032019041349017000117001TJosé María               Nieto                    Vigil                    M00000000          N
032019041349018000117002TLuis Javier              Zurro                    Hernández                M00000000          N
032019041349019000117003TSandra                   Valverde                 García                   F00000000          N
032019041349020000100001TManuel                   Ontañón                  Carrera                  M00000000          N
032019041351001000015001TFrancisco Gaspar         Candil                   González                 M00000000          N
032019041351002000015002TMaría Ángeles            Batista                  Perdomo                  F00000000          N
032019041351003000022001TJoaquín Alberto          Cáceres                  Moreno                   M00000000          N
032019041351004000022002TAlicia Esther            Díaz                     Álamo                    F00000000          N
032019041351005000053001TMaría José               López                    Santana                  F00000000          N
032019041351006000053002THeriberto José           Dávila                   Ojeda                    M00000000          N
032019041351007000096001TRamón                    Morales                  Quesada                  M00000000          S
032019041351008000096002TSaturnina                Santana                  Dumpierrez               F00000000          S
032019041351009000003001TLuz Carmen               Rodríguez                Gangura                  F00000000          N
032019041351010000003002TJuan Tomás               Perdomo                  Moreno                   M00000000          N
032019041351011000060001TJavier                   Delgado                  Pérez                    M00000000          N
032019041351012000060002TJudit                    Duque                    Suárez                   F00000000          N
032019041351013000054001TRaquel                   Díaz                     Santana                  F00000000          N
032019041351014000054002TDaniel                   Romero                   Vecino                   M00000000          N
032019041351015000100001TLaura                    Rodríguez                Álvarez                  F00000000          N
032019041351016000083001TSergio                   Ramos                    Acosta                   M00000000          S
032019041351017000083002TRosa Faustina            Viera                    Fernández                F00000000          N
032019041351018000077001TYlenia                   Pulido                   González                 F00000000          N
032019041351019000077002TLaura                    Saz                      Almazan                  F00000000          N
032019041351020000077003TCarlos Carmelo           Reyes                    Lima                     M00000000          N
032019041351021000072001TLuis                     Bodoque                  Gómez                    M00000000          N
032019041351022000072002TMaría de los Dolores     Blanco                   López                    F00000000          N
032019041351023000104001TAbisai                   Melián                   Ramírez                  M00000000          N
032019041351024000104002TPaula                    Arguedas                 Gaspar                   F00000000          N
032019041351025000117001TNicasio Jesús            Galván                   Sasia                    M00000000          N
032019041351026000117002TMaría                    Vázquez                  González                 F00000000          N
032019041352001000113001TLaureano                 Álvarez                  Delgado                  M00000000          N
032019041352002000015001TLuis Celestino           Arráez                   Guadalupe                M00000000          N
032019041352003000053001TYone Xarach              Caraballo                Medina                   M00000000          N
032019041352004000022001TNoemí del Pino           Ramírez                  Rodríguez                F00000000          N
032019041352005000096001TFrancisco Manuel         Fajardo                  Palarea                  M00000000          S
032019041352006000003001TNuria Esther             Cedrés                   Perdomo                  F00000000          N
032019041352007000054001TBárbara                  Fernández                Granda                   F00000000          N
032019041352008000083001TRemigio Joel             Delgado                  Cáceres                  M00000000          N
032019041352009000077001TJorge Miguel             Peñas                    Lozano                   M00000000          N
032019041352010000104001TConcepción               Jiménez                  Rodríguez                F00000000          N
032019041352011000117001TFernando                 Bermejo                  Reales                   M00000000          N
032019041352012000059001TFrancisca Carmen         Sánchez                  Mácias                   F00000000          N
032019041353001000095001TAlberto                  Dolcet                   Pérez                    M00000000          N
032019041353002000015001TEdilia Rosa              Pérez                    Guerra                   F00000000          N
032019041353003000053001TDavid Manuel             Perdomo                  Guerra                   M00000000          N
032019041353004000022001TÓscar                    Cancela                  Romero                   M00000000          N
032019041353005000096001TPaloma                   Hernández                Cerezo                   F00000000          S
032019041353006000003001TJosé Manuel              Vázquez                  Rodríguez                M00000000          N
032019041353007000060001TMaría del Carmen         Talavera                 Quevedo                  F00000000          N
032019041353008000054001TMaría de los Ángeles     Encabo                   López                    F00000000          N
032019041353009000083001TJessica                  de León                  Verdugo                  F00000000          N
032019041353010000087001TDomingo                  González                 Arroyo                   M00000000          N
032019041353011000077001TMaría                    Rodríguez                Figueroa                 F00000000          N
032019041353012000104001TElena Nasima             Santana                  Salsouli                 F00000000          N
032019041353013000117001TFrancisco                Sánchez                  Fernández                M00000000          N
032019041369001000083001TMiguel                   Fidalgo                  Iglesias                 M00000000          S
032019041369002000083002TPilar                    Rojo                     Noguera                  F00000000          N
032019041369003000083003TSalvador                 González                 Solla                    M00000000          N
032019041369004000075001TMaría Vanessa            Angustía                 Gómez                    F00000000          N
032019041369005000075002TMarta                    Díaz                     Marcos                   F00000000          N
032019041369006000075003TOscar                    González                 Álvarez                  M00000000          N
032019041369007000093001TModesto                  Pose                     Mesura                   M00000000          S
032019041369008000093002TMaría Margarita PeregrinaAdrio                    Taracido                 F00000000          S
032019041369009000093003TDaniel                   Chenlo                   Padín                    M00000000          S
032019041369010000022001TMaría Elena              Posada                   Gutiérrez                F00000000          N
032019041369011000022002TGregorio                 Revenga                  Portela                  M00000000          N
032019041369012000022003TLuis Miguel              Pérez                    Lamas                    M00000000          N
032019041369013000012001TAndré                    Vidal                    Capón                    M00000000          N
032019041369014000012002TCecilia                  Pérez                    Orge                     F00000000          N
032019041369015000012003TSegundo                  González                 González                 M00000000          N
032019041369016000054001TAlberto Ivo              de Salazar               Viñas                    M00000000          N
032019041369017000054002TIria                     Montenegro               García                   F00000000          N
032019041369018000054003TFrancisco Antonio        González-Moro            Rodríguez                M00000000          N
032019041369019000030001TDavid                    Troncoso                 Casal                    M00000000          N
032019041369020000104001TJosé Carlos              Vázquez                  González                 M00000000          N
032019041369021000117001TMaria de los Angeles     Romero                   Tirado                   F00000000          N
032019041369022000117002TCarlos                   Rodríguez                Luis                     M00000000          N
032019041369023000117003TJavier                   Figalgo                  Iglesias                 M00000000          N
032019041369024000024001TDaniel                   Lago                     Leirós                   M00000000          N
032019041369025000036001TMaría del Carmen         Camiña                   Vázquez "Mari"           F00000000          N
032019041369026000036002TSilvia                   Díaz                     Iglesias                 F00000000          N
032019041369027000036003TXulio                    Villanueva               González                 M00000000          N
032019041369028000068001TJosé Feliciano           Gallego                  López                    M00000000          N
032019041379001000083001TBienvenido               de Arriba                Sánchez                  M00000000          S
032019041379002000083002TGonzalo                  Robles                   Orozco                   M00000000          S
032019041379003000083003TEsther Basilia           del Brío                 González                 F00000000          S
032019041379004000096001TElena                    Diego                    Castellanos              F00000000          S
032019041379005000096002TFrancisco                Díaz                     Muñoz                    M00000000          N
032019041379006000096003TMaría Rosa               Hernández                Rubio                    F00000000          N
032019041379007000022001TManuel                   Morán                    González                 M00000000          N
032019041379008000022002TMaría Natalia            del Arco                 Pozas                    F00000000          N
032019041379009000022003TJerónimo                 Gamallo                  de Cabo                  M00000000          N
032019041379010000077001TGenaro Luis              García                   López                    M00000000          N
032019041379011000077002TMaría Isabel             López                    Blázquez                 F00000000          N
032019041379012000077003TJosé                     Vicente                  Delgado                  M00000000          N
032019041379013000054001TJudit                    Rodá                     Panadés                  F00000000          N
032019041379014000054002TRafael de la Cruz        Ruiz                     Martín                   M00000000          N
032019041379015000105001TJosé Ramón               Luna                     de María                 M00000000          N
032019041379016000091001TJuan Manuel              Andrés                   López                    M00000000          N
032019041379017000091002TMiguel Ángel             Diego                    Núñez                    M00000000          N
032019041379018000091003TManuela                  Iglesias                 Carreño                  F00000000          N
032019041379019000100001TMar Huilén               Vial                     Chubarovsky              F00000000          N
032019041379020000117001TGermán                   Torres                   Varas                    M00000000          N
032019041379021000117002TRosa                     de Tavira                Olias                    F00000000          N
032019041384001000083001TAntonio                  Alarcó                   Hernández                M00000000          S
032019041384002000083002TMaría Isabel             García                   Luis                     F00000000          N
032019041384003000096001TOlivia María             Delgado                  Oval                     F00000000          S
032019041384004000096002TJosé Antonio             Valbuena                 Alonso                   M00000000          S
032019041384005000077001TDaniele Alekai           Hernández                Izquierdo                M00000000          N
032019041384006000077002TEliana                   Acosta                   Rodríguez                F00000000          N
032019041384007000015001TJosé Manuel              Pitti                    González                 M00000000          N
032019041384008000015002TMª Coromoto              Yanes                    González                 F00000000          N
032019041384009000022001TMaría Aranzazu           Artal                    Díez                     F00000000          N
032019041384010000022002TCiro                     Machado                  Ucelay                   M00000000          N
032019041384011000054001TJavier                   Hernández                García                   M00000000          N
032019041384012000054002TMaría Candelaria         Oval                     Afonso                   F00000000          N
032019041384013000104001TJosé Ramón               Carrillo                 Rodríguez                M00000000          N
032019041384014000104002TAndrea                   Concepción               Rodríguez                F00000000          N
032019041384015000062001TManuel                   Gómez                    Díaz                     M00000000          N
032019041384016000062002TAriadna                  Delgado                  Delgado                  F00000000          N
032019041384017000100001TJuan Manuel              Batista                  Sánchez                  M00000000          N
032019041384018000117001TRaquel                   Atienza                  Santana                  F00000000          N
032019041384019000117002TJosé Manuel              Muñoz                    García                   M00000000          N
032019041384020000039001TAndoni                   Arcos                    Prado                    M00000000          N
032019041384021000039002TMaría de la Trinidad     Cabrera                  García                   F00000000          N
032019041384022000003001TEduardo                  Nacimiento               García                   M00000000          N
032019041384023000003002TYasmyn Lucrecia          Bouzaoui                 Acosta                   F00000000          N
032019041385001000083001TBorja                    Pérez                    Sicilia                  M00000000          N
032019041385002000096001TSergio                   Matos                    Castro                   M00000000          S
032019041385003000015001TOnán                     Cruz                     Díaz                     M00000000          N
032019041385004000077001TJosé Luis                Cabrera                  Sánchez                  M00000000          N
032019041385005000022001TNoelia                   Rodríguez                Martín                   F00000000          N
032019041385006000054001TMaría José               Martín                   Fagundo                  F00000000          N
032019041385007000104001TRayco                    Pérez                    Rodríguez                M00000000          N
032019041385008000117001TJorge                    de la Rosa               del Toro                 M00000000          N
032019041386001000007001TYaiza                    Castilla                 Herrera                  F00000000          S
032019041386002000083001THéctor Armando           Bencomo                  Bayoll                   M00000000          N
032019041386003000096001TFernando Manuel          Méndez                   Borges                   M00000000          N
032019041386004000077001TJesús Eder               Arteaga                  Jeréz                    M00000000          N
032019041386005000015001TMª Consuelo              Rivero                   Guerrero                 F00000000          N
032019041386006000022001TLaura Serafina           Vega                     Casanova                 F00000000          N
032019041386007000054001TMaría Elba               Martín                   Brito                    F00000000          N
032019041386008000104001TSalvador                 Morales                  Coello                   M00000000          N
032019041386009000003001TIván                     Medina                   Verheyen                 M00000000          N
032019041387001000002001TDaniel                   Morales                  Barrera                  M00000000          N
032019041387002000083001TJosé Miguel              Sánchez                  Padrón                   M00000000          N
032019041387003000096001TEsther                   Carmona                  Delgado                  F00000000          S
032019041387004000077001TTeresa de las Nieves     Ruiz                     González                 F00000000          N
032019041049007000081001TBegoña                   Rojas                    Gutiérrez                F00000000          N
032019041049008000081002TJosé Enrique             Martínez                 García                   M00000000          N
032019041049009000081003TAna Isabel               Expósito                 Fernández                F00000000          N
032019041049010000022001TFrancisco José           Ramos                    Martínez                 M00000000          N
032019041049011000022002TLourdes                  García                   Garzón                   F00000000          N
032019041049012000022003TAgustín                  Cánovas                  Sáez                     M00000000          N
032019041049013000054001TEduardo José             Milla                    Juan                     M00000000          N
032019041049014000054002TSusana                   Conejero                 Calvo-Flores             F00000000          N
032019041049015000054003TLuis Javier              Gabarro                  Campos                   M00000000          N
032019041049016000117001TAntonio Francisco        Barrionuevo              Osorio                   M00000000          N
032019041049017000117002TMiguel Angel             Benavides                Vilchez                  M00000000          N
032019041049018000117003TCristina                 García                   Plaza                    F00000000          N
032019041049019000028001TMaría del Pilar          del Moral                Arroyo                   F00000000          N
032019041049020000028002TMaría Carmen             Rodríguez                Nieto                    F00000000          N
032019041049021000028003TMiguel Ángel             Navarro                  Belmonte                 M00000000          N
032019041049022000104001TJulio                    Rodríguez                Ruiz                     M00000000          N
032019041049023000100001TMario Pablo              Sánchez                  Barrón                   M00000000          N
032019041049024000058001TJuan José                Sánchez                  López                    M00000000          N
032019041059001000083001TJuan Pablo               Martín                   Martín                   M00000000          S
032019041059002000083002TSebastian                González                 Vázquez                  M00000000          S
032019041059003000083003TPatricia                 Rodríguez                Calleja                  F00000000          S
032019041059004000096001TJesús                    Caro                     Adanero                  M00000000          S
032019041059005000096002TMaría Virginia           Parra                    Garrosa                  F00000000          N
032019041059006000096003TEnrique                  Rodríguez                Álvarez                  M00000000          N
032019041059007000022001TJuan                     Martitegui               González                 M00000000          N
032019041059008000022002TJesús Ignacio            Sopelana                 Rodríguez                M00000000          N
032019041059009000022003TFrancisca                Polonio                  Pérez                    F00000000          N
032019041059010000077001TMaría Teresa Gloria      López                    Alija                    F00000000          N
032019041059011000077002TJavier                   Jara                     García                   M00000000          N
032019041059012000077003TVíctor Manuel            García                   Muñoz                    M00000000          N
032019041059013000054001TMaría Yolanda            Gallego                  Gómez                    F00000000          N
032019041059014000054002TJosé Manuel              Cotrina                  Secas                    M00000000          N
032019041059015000040001TAnastasio                Rodríguez                Martín                   M00000000          N
032019041059016000105001TBeatriz                  Gómez                    Fernández                F00000000          N
032019041059017000100001TMaría del Carmen         Paradinas                Riestra                  F00000000          N
032019041059018000117001TEloísa Cristina Vicenta  Sánchez                  Rodríguez-Morcón         F00000000          N
032019041059019000117002TDiego                    Arderius                 González                 M00000000          N
032019041059020000117003TMaría Esther             Rodríguez                Martínez                 F00000000          N
032019041069001000083001TPedro                    Acedo                    Penco                    M00000000          S
032019041069002000083002TMaría Teresa             Tortonda                 Gordillo                 F00000000          N
032019041069003000083003TMaría Auxiliadora        Correa                   Zamora                   F00000000          N
032019041069004000096001TMaría Teresa             Macías                   Mateos                   F00000000          S
032019041069005000096002TBaldomero                Espinosa                 Moreno                   M00000000          S
032019041069006000096003TMaría Ascensión          Godoy                    Tena                     F00000000          S
032019041069007000077001TSalud Ángel              Ramos                    Vergeles                 F00000000          N
032019041069008000077002TJuan                     Valor                    Murillo                  M00000000          N
032019041069009000077003TJosé María               Morales                  González                 M00000000          N
032019041069010000022001TIsidro                   Fernández                Fernández                M00000000          N
032019041069011000022002TMaría del Carmen         Matos                    Muñoz                    F00000000          N
032019041069012000022003TAntonia                  Fernández                Blanco                   F00000000          N
032019041069013000054001TRocío                    Carrasco                 Carrasco                 F00000000          N
032019041069014000054002TAntonio                  Cortés                   Benítez                  M00000000          N
032019041069015000054003TAna Belén                Souto                    Doval                    F00000000          N
032019041069016000104001TÁngel                    Álvarez                  Rodríguez                M00000000          N
032019041069017000117001TPablo Manuel             Tena                     Guerra                   M00000000          N
032019041069018000117002TAlicia                   Plaza                    Velasco                  F00000000          N
032019041387005000022001TLisardo Gaspar           Cejas                    Padrón                   M00000000          N
032019041387006000054001TSilvana                  Ferreira                 Pérez                    F00000000          N
032019041387007000104001TNeido                    González                 Alvarez                  M00000000          N
032019041399001000083001TJavier                   Puente                   Redondo                  M00000000          S
032019041399002000083002TAna María                Madrazo                  Díaz                     F00000000          N
032019041399003000083003TRafael                   Gutiérrez                Suárez                   M00000000          N
032019041399004000096001TMaría Isabel             Fernández                Gutiérrez                F00000000          S
032019041399005000096002TGustavo                  García                   García                   M00000000          S
032019041399006000096003TMaría Rocío              Rábago                   Gómez                    F00000000          S
032019041399007000077001TRodrigo                  Romero                   Jiménez                  M00000000          N
032019041399008000077002TPablo Ángel              González                 de la Riva               M00000000          N
032019041399009000077003TMaría Rosario            Quintana                 Pantaleón                F00000000          N
032019041399010000022001TRuth                     Pérez                    Higuera                  F00000000          N
032019041399011000022002TAgustín Alberto          Prieto                   Espuñes                  M00000000          N
032019041399012000022003TBlanca Rosa              Saro                     Arce                     F00000000          N
032019041399013000054001TElena Esperanza          Bonhome                  Herreros                 F00000000          N
032019041399014000054002TJesús                    Fernández                Escobar                  M00000000          N
032019041399015000054003TRaquel                   López                    Carrasco                 F00000000          N
032019041399016000028001TArturo                   Limón                    Fernández                M00000000          N
032019041399017000028002TMaría Pilar              Artigas                  Manero                   F00000000          N
032019041399018000117001TJosé Joaquín             Bengochea                Seco                     M00000000          N
032019041399019000117002TEufronio                 de los Ríos              Sarabia                  M00000000          N
032019041399020000117003TEulalia                  García                   Barbero                  F00000000          N
032019041399021000063001TMaría                    López                    Revuelta                 F00000000          N
032019041399022000104001TJosé Jaime               Gómez                    García                   M00000000          N
032019041399023000073001TAlejandro                Ruiz                     Benito                   M00000000          N
032019041399024000100001TMontserrat               Barrio                   López                    F00000000          N
032019041399025000090001TMaría Rosa               Valdés                   Huidobro                 F00000000          N
032019041399026000090002TFrancisco Javier         Gómez                    Blanco                   M00000000          N
032019041399027000090003TMaría Teresa             Noceda                   Llano                    F00000000          N
032019041409001000083001TPaloma Inés              Sanz                     Jerónimo                 F00000000          S
032019041409002000083002TJuan José                Sanz                     Vitorio                  M00000000          S
032019041409003000083003TJosé Luis                Sanz                     Merino                   M00000000          N
032019041409004000096001TAna María                Agudíez                  Calvo                    F00000000          S
032019041409005000096002TJesús Javier             Lucía                    Marugán                  M00000000          S
032019041409006000096003TYolanda                  Benito                   Muñoz                    F00000000          N
032019041409007000077001TMaría Mercedes           Marinero                 Pilar                    F00000000          N
032019041409008000077002TLuis                     Luque                    Alonso                   M00000000          N
032019041409009000077003TAna                      Peñalosa                 Llorente                 F00000000          N
032019041409010000022001TOlga                     de Pablos                Salgado                  F00000000          N
032019041409011000022002TVíctor Manuel            Alvarado                 Gómez                    M00000000          N
032019041409012000022003TLuis Mariano             Ortiz                    Esteban                  M00000000          N
032019041409013000054001TIrene                    Sacido                   Martín                   F00000000          N
032019041409014000054002TGoran                    Carrillo                 Delgado                  M00000000          N
032019041409015000054003TAna María                Garcimartín              Herranz                  F00000000          N
032019041409016000105001TMariano                  Fuente                   Blanco                   M00000000          N
032019041409017000105002TMontserrat               Ortega                   Gascón                   F00000000          N
032019041409018000117001TRodrigo                  Jiménez                  Revuelta                 M00000000          N
032019041409019000117002TEsther                   Núñez                    Martínez                 F00000000          N
032019041409020000016001TDavid                    de Santos                Gómez                    M00000000          N
032019041409021000100001TPilar                    Barral                   Heredero                 F00000000          N
032019041419001000096001TAntonio                  Gutiérrez                Limones                  M00000000          S
032019041419002000096002TMaría Nieves             Hernández                Espinal                  F00000000          S
032019041419003000096003TJuan Antonio             Gilabert                 Sánchez                  M00000000          S
032019041419004000083001TJosé Luis                Sanz                     Ruiz                     M00000000          N
032019041419005000083002TRicardo                  Villena                  Machuca                  M00000000          N
032019041419006000083003TIsabel del Pilar         Fernández de Liencres    Rodríguez                F00000000          N
032019041069019000117003TAntonio                  Pozo                     Pitel                    M00000000          N
032019041069020000100001TMario                    Cano                     Paredes                  M00000000          N
032019041069021000017001TJosé María               Beltrán de Heredia       Alonso                   M00000000          N
032019041069022000017002TManuela                  Cornejo                  Flores                   F00000000          N
032019041069023000017003TInmaculada               Martínez                 Calaco                   F00000000          N
032019041069024000025001TCarmen                   Pedrero                  Ruiz                     F00000000          N
032019041069025000025002TPedro                    Morales                  Fernández                M00000000          N
032019041071001000083001TMaría                    Salom                    Coll                     F00000000          S
032019041071002000083002TMiguel Ángel             Ramis                    Socías                   M00000000          N
032019041071003000114001TPep                      Malagrava                Rigo                     M00000000          N
032019041071004000114002TRosa                     Cursach                  Salas                    F00000000          N
032019041071005000097001TCosme                    Bonet                    Bonet                    M00000000          S
032019041071006000097002TSusanna                  Moll                     Kammerich                F00000000          S
032019041071007000022001TPedro Luis               Ribas                    Dietrich                 M00000000          N
032019041071008000022002TBeatriz                  Medina                   Muñoz-Torrero            F00000000          N
032019041071009000054001TMarina                   Mir                      García                   F00000000          N
032019041071010000054002TJosé Manuel              Miñano                   Linde                    M00000000          N
032019041071011000104001TIrina                    Martínez                 Valero                   F00000000          N
032019041071012000035001TRafel Alexandre          Ballester                Riutort                  M00000000          N
032019041071013000035002TJuana                    Xamena                   Terrasa                  F00000000          N
032019041071014000117001TAntonio                  Salvá                    Verd                     M00000000          N
032019041071015000117002TManuela                  Cañadas                  Pinilla                  F00000000          N
032019041071016000115001TJaume                    Bonet                    Moll                     M00000000          N
032019041071017000100001TMaria del Carmen         Rodriguez                Nieto                    F00000000          N
032019041072001000083001TAurora                   Herráiz                  Águila                   F00000000          N
032019041072002000074001TMae                      de la Concha             Garcia-Mauriño           F00000000          N
032019041072003000051001TEduard                   Riudavets                Florit                   M00000000          N
032019041072004000097001TMaria del Carme          Garcia                   Querol                   F00000000          S
032019041072005000022001TJosé Manuel              Morales                  Bosch                    M00000000          N
032019041072006000054001TMaría Elena              Pérez de Gracia          Jabardo                  F00000000          N
032019041072007000117001TGuillermo Juan           Jusué                    de Olives                M00000000          N
032019041072008000104001TAntonio                  Triay                    Castro                   M00000000          N
032019041072009000035001TJoaquin                  Ferrer                   Lorenzo                  M00000000          N
032019041073001000083001TSantiago                 Marí                     Torres                   M00000000          N
032019041073002000074001TMario                    Devis                    Luján                    M00000000          N
032019041073003000097001TPatricia                 Abascal                  Jiménez                  F00000000          S
032019041073004000022001TDavid                    Ortega                   Ribas                    M00000000          N
032019041073005000054001TMaría de la Paloma       Marqueta                 Tous                     F00000000          N
032019041073006000117001TJosé Luis                Sánchez                  Saliquet                 M00000000          N
032019041073007000102001TVicente Juan             Torres                   Ribas                    M00000000          N
032019041073008000104001TTania                    González                 Ambrós                   F00000000          N
032019041073009000005001TJosep Antoni             Prats                    Serra                    M00000000          N
032019041089001000092001TManuel                   Cruz                     Rodríguez                M00000000          S
032019041089002000092002TElia                     Tortolero                Orejuela                 F00000000          S
032019041089003000092003TCarles                   Martí                    Jufresa                  M00000000          N
032019041089004000037001TRaul                     Romeva                   i Rueda                  M00000000          S
032019041089005000037002TAna                      Surra                    Spadea                   F00000000          S
032019041089006000037003TRobert                   Masih                    Nahar                    M00000000          N
032019041089007000022001TMartín Eusebio           Barra                    López                    M00000000          N
032019041089008000022002TCarmen                   de Rivera                Pla                      F00000000          N
032019041089009000022003TJuan (Nito)              Foncuberta               Riba                     M00000000          N
032019041089010000055001TAlejandro                Cuesta                   Hidalgo                  M00000000          N
032019041089011000055002TOlga                     Eyre                     Estrada                  F00000000          N
032019041089012000055003TIvan                     Guijarro                 Vila                     M00000000          N
032019041089013000084001TManuel                   Buenaño                  García                   M00000000          N
032019041089014000084002TElisabet                 Ortega                   Robles                   F00000000          N
032019041089015000084003TÁlvaro                   Benejam                  Peretó                   M00000000          N
032019041089016000065001TFerran                   Peris                    Serrano                  M00000000          N
032019041419007000081001TIsmael                   Sánchez                  Castillo                 M00000000          N
032019041419008000081002TAsunción                 Cid                      Pagador                  F00000000          N
032019041419009000081003TMaría Ángeles            García                   Ramírez                  F00000000          N
032019041419010000022001TÁngel                    Mayo                     Llanos                   M00000000          S
032019041419011000022002TAmelia                   Velázquez                Guevara                  F00000000          N
032019041419012000022003TGuillermo                Prieto                   Perea                    M00000000          N
032019041419013000054001TMaría                    Cutiño                   Zamora                   F00000000          N
032019041419014000054002TGonzalo                  González                 Valencia                 M00000000          N
032019041419015000054003TRosario                  Carmona                  Rodríguez                F00000000          N
032019041419016000117001TMacario                  Valpuesta                Bermúdez                 M00000000          N
032019041419017000117002TÁngela                   Jiménez                  Vico                     F00000000          N
032019041419018000117003TJosé Alfredo             Muñoz                    Martínez                 M00000000          N
032019041419019000104001TSixto Manuel             Blanco                   Núñez                    M00000000          N
032019041419020000011001TAntonio Jesús            Acevedo                  Blanco                   M00000000          N
032019041419021000011002TMaría Gloria             Molina                   Ramos                    F00000000          N
032019041419022000011003TManuel                   Vera                     Silvestre                M00000000          N
032019041419023000100001TRaquel                   Fernández                Gómez                    F00000000          N
032019041429001000083001TLaura Concepción         Prieto                   Arribas                  F00000000          S
032019041429002000083002TGerardo                  Martínez                 Martínez                 M00000000          S
032019041179020000055002TIsabel                   Ramos                    Sierpes                  F00000000          N
032019041179021000055003TLuis                     Pradas                   Amat                     M00000000          N
032019041179022000104001TFrancesc Sergio          Ibáñez                   Laffort                  M00000000          N
032019041179023000061001TEsteve                   Huguet                   Pardo                    M00000000          N
032019041179024000045001TJesús                    Osorio                   Hernández                M00000000          N
032019041179025000117001TJosé Luis                Rodríguez                Ruíz                     M00000000          N
032019041179026000098001TDolores                  Masarre                  de Goicoechea            F00000000          N
032019041179027000042001TPaulino                  Gracia                   Montañez                 M00000000          N
032019041179028000019001TJordi                    Domènech                 Llaneza                  M00000000          N
032019041189001000083001TVicente                  Azpitarte                Pérez                    M00000000          S
032019041189002000083002TMariano                  García                   Castillo                 M00000000          N
032019041189003000083003TCelia                    Santiago                 Buendía                  F00000000          N
032019041189004000096001TAlejandro José           Zubeldia                 Santoyo                  M00000000          S
032019041189005000096002TMaría Sandra             García                   Martín                   F00000000          S
032019041189006000096003TFrancisco Javier         Aragón                   Ariza                    M00000000          S
032019041189007000081001TManuel                   Morales                  García                   M00000000          N
032019041189008000081002TJosé Ismael              Criado                   Aguilera                 M00000000          N
032019041189009000081003TFrancisca                Sánchez                  Alias                    F00000000          N
032019041189010000022001TFernando                 Serrano                  González                 M00000000          N
032019041189011000022002TMaría Amparo             Siles                    Martín                   F00000000          N
032019041189012000022003TLuis Eugenio             Pertíñez                 Martín                   M00000000          N
032019041189013000054001TElena María              Mayorga                  Pérez                    F00000000          N
032019041189014000054002TRubén                    Cañadas                  Salas                    M00000000          N
032019041189015000054003TMaría Elena              Gutiérrez                Cortacero                F00000000          N
032019041189016000104001TJuan Antonio             Ortiz                    López                    M00000000          N
032019041189017000104002TKim Joaquina             Pérez                    Fernández-Fígares        F00000000          N
032019041189018000117001TJosé                     Gómez                    García                   M00000000          N
032019041189019000117002TPaloma                   Gómez                    Enríquez                 F00000000          N
032019041189020000117003TRafael                   Morenate                 Sánchez                  M00000000          N
032019041189021000047001TMaría Paz                Cobo                     González                 F00000000          N
032019041189022000047002TMaría Nieves             Mesa                     Rodríguez                F00000000          N
032019041189023000047003TAntonio Francisco        Buendía                  López                    M00000000          N
032019041189024000100001TLuis Antonio             Rodríguez                Huertas                  M00000000          N
032019041189025000011001TCelia                    Principal                López                    F00000000          N
032019041189026000011002TEsteban                  Leyva                    Cortés                   M00000000          N
032019041189027000011003TCarmen                   López                    Díaz                     F00000000          N
032019041199001000083001TAntonio                  Román                    Jasanada                 M00000000          S
032019041199002000083002TJuan Pablo               Sánchez                  Sánchez-Seco             M00000000          N
032019041089017000042001TPau                      Font                     Martínez                 M00000000          N
032019041089018000045001TMiguel                   Candel                   Sanmartín                M00000000          N
032019041089019000061001TQuim                     Boix                     Lluch                    M00000000          N
032019041089020000049001TLluís                    Puig                     Gordi                    M00000000          N
032019041089021000049002TMeritxell                Lluís                    Vall                     F00000000          N
032019041089022000049003TIgnasi                   Roda                     Fàbregas                 M00000000          N
032019041089023000032001TNoelia                   Bail                     García                   F00000000          N
032019041089024000032002TJoan                     Comorera                 Estarellas               M00000000          N
032019041089025000032003TVanessa                  Maxé                     Navarro                  F00000000          N
032019041089026000019001TRemedios                 Gomez                    Perez                    F00000000          N
032019041089027000104001TAntonina                 Rodrigo                  García                   F00000000          N
032019041089028000104002TManuel                   Camuñas                  Gómez                    M00000000          N
032019041089029000104003TAgustín                  Tella                    Barrachina               M00000000          N
032019041089030000117001TJuan Carlos              Segura                   Just                     M00000000          N
032019041089031000117002TRaquel                   Casviner                 Cañellas                 F00000000          N
032019041089032000117003TJosé Antonio             Martínez                 Tortosa                  M00000000          N
032019041099001000083001TFrancisco Javier         Lacalle                  Lacalle                  M00000000          S
032019041099002000083002TCristina                 Ayala                    Santamaría               F00000000          N
032019041099003000083003TSalvador                 de Foronda               Vaquero                  M00000000          N
032019041099004000096001TAnder                    Gil                      García                   M00000000          S
032019041099005000096002TMaría del Mar            Arnáiz                   García                   F00000000          S
032019041099006000096003TJosé Salvador            Sierra                   García                   M00000000          S
032019041099007000077001TLaura                    del Pozo                 Abejón                   F00000000          N
032019041099008000077002TGuillermo                Ubieto                   López                    M00000000          N
032019041099009000077003TMirta Stella             Cajamarca                Páez                     F00000000          N
032019041099010000022001TJulián                   Ruiz                     Navazo                   M00000000          N
032019041099011000022002TJesús                    Moreno                   Revilla                  M00000000          N
032019041099012000022003TCristina                 Hermosilla               Álvarez                  F00000000          N
032019041099013000054001TNoemi Pilar              Cámara                   Felipe                   F00000000          N
032019041099014000054002TJosé Luis                Dolz                     Fernández                M00000000          N
032019041099015000054003TAna Beatriz              Asensio                  Hidalgo                  F00000000          N
032019041099016000117001TBeatriz                  Delgado                  Sainz                    F00000000          N
032019041099017000117002TChristian                Santiago                 Orduña                   M00000000          N
032019041099018000105001TDomingo                  Hernández                Araico                   M00000000          N
032019041099019000100001TAlejandro                Represa                  Martín                   M00000000          N
032019041109001000083001TCarlos Javier            Floriano                 Corrales                 M00000000          S
032019041109002000083002TDiego                    Sánchez                  Duque                    M00000000          N
032019041109003000083003TMaría Felisa             Cepeda                   Bravo                    F00000000          N
032019041109004000096001TMiguel Ángel             Nacarino                 Muriel                   M00000000          S
032019041109005000096002TMaría Isabel             Moreno                   Duque                    F00000000          S
032019041109006000096003TJavier                   Garcinuño                Rama                     M00000000          S
032019041109007000077001TMaría del Carmen         Muñoz                    Donoso                   F00000000          N
032019041109008000077002TMaría Victoria           Mata                     Moreno                   F00000000          N
032019041109009000077003TGonzalo                  Ramos                    Mateos                   M00000000          N
032019041109010000022001TJosé Antonio             Villa                    Cortés                   M00000000          N
032019041109011000022002TMaría Francisca          García                   Díaz                     F00000000          N
032019041109012000022003TDavid                    Redondo                  Iglesias                 M00000000          N
032019041109013000054001TAna                      Chaves                   Martínez                 F00000000          N
032019041109014000054002TIgnacio José             Bermúdez de Castro       Navarro                  M00000000          N
032019041109015000054003TAna María de la AscensiónSánchez                  López                    F00000000          N
032019041109016000104001TRicardo                  Hurtado                  Piris                    M00000000          N
032019041109017000117001TEncarnación              Solís                    Trejo                    F00000000          N
032019041109018000117002TJosé Manuel              Menéndez-Manjón          Cueto                    M00000000          N
032019041109019000117003TÁlvaro Luis              Sánchez-Ocaña            Vara                     M00000000          N
032019041109020000017001TJosé Julio               Tiemblo                  Pérez                    M00000000          N
032019041119001000083001TJosé Ignacio             Landaluce                Calleja                  M00000000          N
032019041119002000083002TMaría José               de Alba                  Castiñeira               F00000000          N
032019041199003000083003TAna María                González                 García                   F00000000          N
032019041199004000096001TRafael                   Esteban                  Santamaría               M00000000          S
032019041199005000096002TRiansares                Serrano                  Morales                  F00000000          S
032019041199006000096003TJulio                    García                   Moreno                   M00000000          S
032019041199007000077001TMilagros                 Ruiz-Roso                Martín-Moyano            F00000000          N
032019041199008000077002TMaría Genoveva           Bueno                    Bagase                   F00000000          N
032019041199009000077003TNicolás                  Santamaría               Gómez                    M00000000          N
032019041199010000022001TFelipe                   Oliva                    Encabo                   M00000000          N
032019041199011000022002TLidia Diana              Rodríguez                Morán                    F00000000          N
032019041199012000022003TDaniel                   de la Orden              Alcocer                  M00000000          N
032019041199013000054001TAinhoa                   Pérez                    López                    F00000000          N
032019041199014000054002TManuel                   Carnero                  Chamón                   M00000000          N
032019041199015000054003TLaura                    Liñán                    Gómez                    F00000000          N
032019041199016000117001TGustavo                  Aguado                   Alonso                   M00000000          N
032019041199017000117002TJuan                     González-Perabá          Miralles                 M00000000          N
032019041199018000117003TMaría José               Agudo                    Calvo                    F00000000          N
032019041199019000105001TJulio                    Peco                     Sigüenza                 M00000000          N
032019041199020000100001TMaría Pilar              Nasarre                  de Goicoechea            F00000000          N
032019041209001000033001TGorka                    Elejabarrieta            Diaz                     M00000000          S
032019041209002000033002TOlaia                    Duarte                   López                    F00000000          N
032019041209003000033003TAitor                    IBERO                    URBIETA                  M00000000          N
032019041209004000027001TMaría Isabel             Vaquero                  Montero                  F00000000          S
