0820030511207312000112604OCTAVIO SOLSONA NEGRE                                                                 00000000124S
0920030511210312000105701AGUSTIN BELTRAN MONFORT                                                               00000000057S
0920030511210312000200200LAURENTINO BORT PITARCH                                                               00000000002N
0820030511207312000112604NEMESIO ABARGUES CHIVA                                                                00000000127S
0820030511207312000112604JESUS ABEL IBAÑEZ ROCHER                                                              00000000125S
0820030511207312000112604CESAR CHIVA NEGRE                                                                     00000000128S
0820030511207312000204601RAMON MONFORT GUTIERREZ                                                               00000000038N
0820030511207312000204601NICANOR GIL SANZ                                                                      00000000047N
0820030511207312000204601GUILLERMO MANUEL LLORENS SANZ                                                         00000000054S
0820030511207312000204601FRANCESC XAVIER SERRA ROCA                                                            00000000043N
0820030511207512000106504PEDRO BELTRAN CASANOVA                                                                00000000064S
0820030511207512000106504MATEO ROYO PLANA                                                                      00000000069S
0820030511207512000106504JOSEFINA PIQUER FABREGAT                                                              00000000057S
0820030511207512000106504JOSE MIGUEL NAGER PIQUER                                                              00000000069S
0820030511207512000204601PEDRO JOSE CALVO CASTEL (INDEP.)                                                      00000000048S
0820030511207512000204601JOSEP MARIA ZAPATER MESTRE (INDEP.)                                                   00000000045N
0820030511207512000204601IVAN PIQUER QUEROL (INDEP.)                                                           00000000046N
0820030511207512000204601CARMEN PIQUER CASANOVA (INDEP.)                                                       00000000045N
0820030511207612000106805VICTORINO MONLEON ZARAGOZA                                                            00000000052S
0820030511207612000106805RAFAEL MOLINER CASTILLO                                                               00000000043S
0820030511207612000106805JESUS VICENTE MOLINER GARCIA (INDEP.)                                                 00000000060S
0820030511207612000106805FRANCISCO GARCIA SOLSONA                                                              00000000047S
0820030511207612000106805BENIGNO GARCIA CALVO                                                                  00000000069S
0820030511207612000202600MANUEL MORRO HERNANDEZ                                                                00000000027N
0820030511207612000202600JOSE FRANCISCO MILLA RAMIREZ                                                          00000000024N
0920030511211812000200000JOSE MARTI ORTELLS                                                                    00000000000N
0820030511211912000106404JUAN MIGUEL QUEROL VIDAL (INDEP.)                                                     00000000066S
0820030511211912000106404JOSE MANUEL VIDAL GARCIA (INDEP.)                                                     00000000063S
0820030511211912000106404JOSE BELLES BELTRAN (INDEP.)                                                          00000000061S
0820030511211912000106404DAVID VICENTE SEGARRA (INDEP.)                                                        00000000066S
0820030511211912000205801VICENTE BELLES COLOMER (INDEP.)                                                       00000000045N
0820030511211912000205801PEDRO ESCRICH GARCIA (INDEP.)                                                         00000000042N
0820030511211912000205801MIGUEL ANGEL CLIMENT PORCAR (INDEP.)                                                  00000000051S
0820030511211912000205801MANUEL COLOMER COLOMER                                                                00000000045N
0820030511211912000205801FRANCISCO BORRAS DEALBERT (INDEP.                                                     00000000049N
0820030511212012000114605VICENTE FERNANDO BELTRAN                                                              00000000123S
0820030511212012000114605RAUL PRATS BARREDA                                                                    00000000121S
0820030511212012000114605JAIME MANUEL MARTINEZ ANDRES                                                          00000000135S
0820030511212012000114605DANIEL PASTOR PASTOR                                                                  00000000088S
0820030511212012000114605BEATRIZ CALDUCH SAURA                                                                 00000000118S
0820030511212012000202200VICENTE VILLALONGA ZARAGOZA                                                           00000000018N
0820030511212012000202200MIGUEL BELTRAN PASTOR                                                                 00000000021N
0820030511212012000202200JOSE VILLALONGA MARTINEZ                                                              00000000031N
0820030511212012000202200JOSE ANDREU VALLS                                                                     00000000018N
0920030511212312000102701MIGUEL SAEZ LOPEZ                                                                     00000000027S
0920030511212312000202400EMILIO MORTE MARTINEZ                                                                 00000000024N
0820030511201312000112005MIGUEL OROZCO LORENZO                                                                 00000000072S
0820030511201312000112005MARCOS TEOFILO GRANELL PERIZ                                                          00000000056S
0820030511201312000112005JUSTO PALOMARES MORTE                                                                 00000000128S
0820030511201312000112005ANTONIO JOSE SANTAGUEDA SOLSONA                                                       00000000110S
0820030511201312000112005AMADEO MONTOLIO GARCES                                                                00000000112S
0820030511201312000200500ELVIRA AGUILELLA CULLA                                                                00000000005N
0820030511201312000200500CARLOS ALBERTO LOPEZ GARCIA                                                           00000000007N
0820030511201312000200500ANGEL RUIZ MARTINEZ                                                                   00000000004N
0820030511201412000109504PABLO ALBERTO PITARCH ESTEVE                                                          00000000096S
0820030511201412000109504JULIO BAYOT GARCIA                                                                    00000000098S
0820030511201412000109504FRANCISCO JOSE FUENTES GARCIA                                                         00000000096S
0820030511201412000109504ELISEO PITARCH GARCIA                                                                 00000000088S
0820030511201412000206901SANTIAGO SEBASTIA ROIG                                                                00000000069N
0820030511201412000206901MANUEL GARCIA GARCIA                                                                  00000000062N
0820030511201412000206901JOSE MIGUEL GASULLA PRATS                                                             00000000073S
0820030511201412000206901ELISEO PUIG MONFORT                                                                   00000000071N
0820030511201512000102901VICENTE FRANCISCO GIMENO SORIANO                                                      00000000029N
0820030511201512000102901PASCUAL IBAÑEZ MIRAVET                                                                00000000029N
0820030511201512000102901AVELINA CHIVA TOMAS                                                                   00000000030S
0820030511201512000206204PATRICIA APARICI BARRIEL                                                              00000000062S
0820030511201512000206204JOSE FRANCISCO IBAÑEZ EDO                                                             00000000063S
0820030511201512000206204FRANCISCO BACHERO JULIAN                                                              00000000062S
0820030511201512000206204DANIEL GALLEN BATALLA                                                                 00000000062S
0820030511201512000206204AMADEO LLACH FURIO                                                                    00000000000N
0820030511209012000106302SERAFIN IZQUIERDO SALVADOR                                                            00000000043N
0820030511209012000106302MIGUEL VICEDO VERDU                                                                   00000000042N
0820030511209012000106302LUIS SABAYES HERRERO                                                                  00000000065S
0820030511209012000106302JOSE FRANCISCO NAVARRO CORTES                                                         00000000041N
0820030511209012000106302BENJAMIN IBAÑEZ CLEMENTE                                                              00000000059S
0820030511209012000206003SERGIO ALCODORI HERRERO (INDEP.)                                                      00000000064S
0820030511209012000206003JUAN RAMON HERRERO AVILA (INDEP.)                                                     00000000035N
0820030511209012000206003GUILLERMO CLEMENTE IZQUIERDO (INDEP.)                                                 00000000053S
0820030511209012000206003GLORIA CLEMENTE IZQUIERDO                                                             00000000029N
0820030511209012000206003ANTONIO CHAVES SANCHEZ (INDEP.)                                                       00000000057S
0820030511209212000106602VICENTE REIG MIRA (INDEP.)                                                            00000000058S
0820030511209212000106602MANUEL FUERTES PEDRO                                                                  00000000046N
0820030511209212000106602JOSE SANCHEZ NAVIO                                                                    00000000037N
0820030511209212000106602JOSE MUÑOZ AZNAR                                                                      00000000052N
0820030511209212000106602JAIME ANDRES PEREZ                                                                    00000000072S
0820030511209212000207103JUAN MIGUEL COLLADO SALVADOR                                                          00000000078S
0820030511209212000207103JUAN CARLOS MONTE HERRANDO                                                            00000000066S
0820030511209212000207103JOSE NAVARRO VILLANUEVA                                                               00000000057S
0820030511209212000207103EUGENIO CATALAN MONFERRER                                                             00000000025N
0820030511209212000207103CARLOS GARGALLO ZAPATA                                                                00000000057N
0820030511209312000110304VICTOR GARGALLO BEL                                                                   00000000098S
0820030511209312000110304RAMON BEL GINER                                                                       00000000104S
0820030511209312000110304MANUELA MIRO PALLARES                                                                 00000000103S
0820030511209312000110304JOSE GARCIA DIANA                                                                     00000000106S
0820030511209312000207001VICENTE MIRO LLERONA (INDEP.)                                                         00000000073N
0820030511209312000207001VICENTE ADAL ALBIOL (INDEP.)                                                          00000000067N
0820030511209312000207001JOSE RAMON ROYO GINER (INDEP.)                                                        00000000074S
0820030511205512000106803VISITACION MIRAVET MONFORT                                                            00000000066S
0820030511205512000106803RAMON GONELL PORCAR                                                                   00000000063S
0820030511205512000106803JUAN GASCH APARICI                                                                    00000000074S
0820030511205512000203401JAVIER GONELL NAVARRO                                                                 00000000034S
0820030511205512083302501MANUEL MONFERRER SEGUER                                                               00000000025S
0820030511214112000106705MANUEL MILIAN MARTI                                                                   00000000053S
0820030511214112000106705JUAN RAMON BARBERAN MARTI                                                             00000000057S
0820030511214112000106705JOSE RAMON GUARCH GARCIA                                                              00000000048S
0820030511214112000106705JOSE BARBERAN HERNANDEZ                                                               00000000055S
0820030511214112000106705FRANCISCO BLASCO DOMINGO                                                              00000000054S
0820030511214112000201700OVIDIO ADELL AMELA                                                                    00000000014N
0820030511214112000201700FRANCISCO JAVIER YESTE ROYO                                                           00000000014N
0820030511200612000104501MANUEL ROCA PEÑALVER                                                                  00000000045N
0820030511200612000104501EMMA MIR GARCIA                                                                       00000000046S
0820030511200612000104501EMILIO MARTIN VILLANUEVA                                                              00000000044N
0820030511200612000104501ANTONIO MIGUEL PEREZ                                                                  00000000045N
0820030511200612000210504ROGELIO BALLESTER PALLARES                                                            00000000107S
0820030511200612000210504MARIA CARMEN ALOS HERRERA                                                             00000000109S
0820030511200612000210504ENRIQUE NIUBO EDO                                                                     00000000101S
0820030511200612000210504ALEJANDRO CALVO CALVO                                                                 00000000103S
0820030511204112000106405VICTORIANO GRANEL IBAÑEZ                                                              00000000048S
0820030511204112000106405SEBASTIAN GIMENO GIMENO                                                               00000000058S
0820030511204112000106405NICANOR GALLEN IBAÑEZ                                                                 00000000042S
0820030511204112000106405IVAN GALLEN NEBOT                                                                     00000000054S
0820030511204112000106405DIEGO GALLEN BOU                                                                      00000000053S
0820030511204112000202900MARIA ANGELES SALAX PERIS                                                             00000000029N
0820030511204112000202900JESUS ADELANTADO GIMENO                                                               00000000033N
0820030511204112000202900ASUNCION DIAZ DIAZ                                                                    00000000024N
0820030511209312000207001ANTONIO NAVARRETE PLA (INDEP.)                                                        00000000066N
0820030511201712000114105RAMON BALAGUER MELLADO (INDEP.)                                                       00000000112S
0820030511201712000114105JAVIER GIMENO PEREZ (INDEP.)                                                          00000000115S
0820030511201712000114105DAVID CALVO CERVERA (INDEP.)                                                          00000000108S
0820030511201712000114105ANTONIO VENTURA PERIS (INDEP.)                                                        00000000116S
0820030511201712000114105ANTONIO LUIS HERNANDEZ MONZONIS (INDEP.)                                              00000000113S
0820030511201712000201300PILAR LLOPICO FORNAS                                                                  00000000013N
0820030511201712000201300MARIA AMPARO RAMOS PEREZ                                                              00000000012N
0820030511201712000201300CARMEN ASUNCION GONZALEZ SAURA                                                        00000000015N
0820030511202012000108304MARIANO IBAÑEZ BOLOS                                                                  00000000087S
0820030511202012000108304LUIS ORERO SELVI                                                                      00000000076S
0820030511202012000108304JUAN CARLOS COLLADO MOLINER                                                           00000000079S
0820030511202012000108304ANTONIO SALVADOR CORELL                                                               00000000089S
0820030511202012000203101MARIA PIEDAD GARCIA MORON                                                             00000000031S
0820030511202012000203101JUAN JOSE PEIRO CORTES                                                                00000000030N
0920030511209712000112401MIGUEL GAMIZ GAMIZ                                                                    00000000124S
0920030511209712000204100ANTONIO TOMAS MORIEL FERNANDEZ                                                        00000000041N
0820030511214112000201700ARGIMIRO GUARDIOLA FERRER                                                             00000000023N
0820030511214112000201700ANTONIO ORTI BOIX                                                                     00000000017N
0820030511214212000108103MANUEL CATALAN ISERTE                                                                 00000000074S
0820030511214212000108103JOAQUIN PERIZ OLARIA (INDEP.)                                                         00000000083S
0820030511214212000108103ANDRES JULIAN FLOR                                                                    00000000072N
0820030511214212000108103ALFREDO VIDAL NEBOT                                                                   00000000094S
0920030511205812000104301VICENTE DOMINGO SILVESTRE ORTELLS                                                     00000000043S
0920030511205812000200700JUANA LOPEZ MARIN DE ROBLES                                                           00000000007N
0820030511205912000112904TERESA PRADAS GIL                                                                     00000000129S
0820030511205912000112904SALVADOR ARTURO BORRAS NAVARRO                                                        00000000128S
0820030511205912000112904MERCEDES GAS GUSTEMS                                                                  00000000128S
0820030511205912000112904JOSE CENTELLES GUSTEMS                                                                00000000130S
0820030511205912000209101ROBERTO DOMINGO SALISA CASTILLO                                                       00000000092S
0820030511205912000209101RICARDO GIL GIL                                                                       00000000089N
0820030511205912000209101MARIA JOSE VILA SERRANO                                                               00000000092N
0820030511214212000207602JOSE NAVARRO TRUJILLO                                                                 00000000031N
0820030511214212000207602JOSE BENAGES PERIZ                                                                    00000000080S
0820030511214212000207602JACINTO SANZ IBAÑEZ                                                                   00000000081S
0820030511214212000207602ERNESTO VICENTE RODRIGO GUILLEN                                                       00000000073N
0820030511214212000207602ELENA ASUNCION IBAÑEZ ARNAU                                                           00000000040N
0920030511206312000101701VICENTE BALAGUER VILLALBA                                                             00000000017S
0920030511206312000200000ALBERTO SANCHEZ GINES                                                                 00000000000N
0820030511206412000105405RAMON ANASTASIO PASTOR BOU                                                            00000000047S
0820030511206412000105405JUAN MANUEL VALER CORDOVA                                                             00000000045S
0820030511206412000105405JORGE LUCENA LUCAS                                                                    00000000055S
0820030511206412000105405EDUARDO PEREZ VES                                                                     00000000036S
0820030511206412000105405ALBA BELTRAN MIR                                                                      00000000034S
0820030511206412000201000MARIA DOLORES LLOPICO CERDA                                                           00000000009N
0820030511206412000201000MARIA CARMEN CASTELLO EIXEA                                                           00000000011N
0820030511206412000201000EMILIO URBANO BARRAGANES BALLESTER                                                    00000000010N
0820030511206512000114305VICENTE PELAYO CALVETE                                                                00000000130S
0820030511206512000114305MIGUEL LAZARO TOMAS PEREZ                                                             00000000090S
0820030511206512000114305MANUEL PEREZ MONTEAGUDO                                                               00000000116S
0820030511206512000114305GREGORIO PEREZ TENAS                                                                  00000000116S
0820030511206512000114305CLEMENTE JOLI CASTILLO                                                                00000000121S
0820030511206512000202700RAUL PASTOR PEREZ                                                                     00000000030N
0820030511206512000202700LEANDRO PASTOR IZQUIERDO                                                              00000000027N
0820030511206512000202700ALBERTO PEREZ PALLARES                                                                00000000025N
0820030511211212000105504JUAN SIMON QUEROL QUEROL                                                              00000000058S
0820030511211212000105504JESUS RAMON GUARDIOLA MEMBRADO                                                        00000000051S
0820030511211212000105504ELISEO MEMBRADO MESTRE                                                                00000000051S
0820030511211212000105504ALFREDO PEDRO QUEROL PLANA                                                            00000000059S
0820030511211212000204601LOLA ARMENGOT MIRALLES (INDEP.)                                                       00000000047N
0820030511211212000204601JOSE MANUEL GUARDIOLA RIPOLLES (INDEP.)                                               00000000045N
0820030511211212000204601ARTURO FERRER GASCON (INDEP.)                                                         00000000049S
0820030511211212000204601ALFONSO VIVES MAMPEL (INDEP.)                                                         00000000044N
0920030511211312000105601ELIAS BARBERAN GUILLAMON                                                              00000000056S
0920030511211312000200400MARIA DOLORES EDO VICENT                                                              00000000004N
0920030511203712000100400MARIA DE LOS AN TURCH MARTI                                                           00000000004N
0920030511203712000200701JOSE RAMON SEGURA GINER                                                               00000000007S
0820030511203812000113504ROSA ADELA SEGURA TOSCA                                                               00000000137S
0820030511203812000113504JOSEFINA ADELL CASANOVA                                                               00000000132S
0820030511203812000113504EUGENIO ROCA CRUZ                                                                     00000000131S
0820030511203812000113504ANGEL DE PAZ COLLANTES                                                                00000000140S
0820030511203812000203001JUAN LUIS ALVAREZ LARREA (INDEP.)                                                     00000000030S
0920030511208712000101701JUAN MANUEL MARTI ROYO                                                                00000000017S
0920030511208812000102801MARIA CARMEN VIVES PEREZ                                                              00000000028S
0920030511208812000201000IVAN BOLOS PRADAS                                                                     00000000010N
0920030511213712000100500DANIEL FABREGAT MONTOLIU                                                              00000000005N
0920030511213712000203801JOAQUIN GIL MAMPEL                                                                    00000000038S
0820030511202412000105301TRINIDAD PILAR JUAN CALPE (INDEP.)                                                    00000000047N
0820030511202412000105301MARIA JOSEFA OLIVER MONLEON                                                           00000000041N
0820030511202412000105301MARIA DOLORES SORIANO PASCUAL                                                         00000000045N
0820030511202412000105301JOSE IBAÑEZ SANJUAN                                                                   00000000058S
0820030511202412000105301FILIBERTO GENES LIZONDO                                                               00000000020N
0820030511202412092907404PEREGRIN MARCO MARTINEZ                                                               00000000069S
0820030511202412092907404MARIA DEL PILAR RENART ARAGONES                                                       00000000070S
0820030511202412092907404MARIA CARMEN FORES IZQUIERDO                                                          00000000078S
0820030511202412092907404CARLOS VILLANUEVA HERRERO                                                             00000000078S
0820030511202512000104100VICTOR DOMINGO AGUT                                                                   00000000038N
0820030511202512000104100MARIA MERCEDES CORTES LAZARO                                                          00000000044N
0820030511202512000104100JOSEFA MARIA VIVES MARIN                                                              00000000042N
0820030511202512000104100JOSE ANTONIO MONFERRER PITARCH                                                        00000000040N
0820030511202512000211005MIGUEL ANGEL MARTI TOMAS                                                              00000000092S
0820030511202512000211005MARIA TERESA ESCALA VIDAL                                                             00000000072S
0820030511202512000211005MARIA PALMIRA VIDAL SEGARRA                                                           00000000092S
0820030511202512000211005JOSE GUAL VIVES                                                                       00000000083S
0820030511202512000211005JEREMIAS SAFONT PONS                                                                  00000000100S
0920030511206812000104901JOSE PALLARRES GINER (INDEP.)                                                         00000000049S
0920030511206912000107601FRANCISCO GIMENO TORREGROSA                                                           00000000076S
0920030511206912000203200JOSE RAMOS DONATO                                                                     00000000032N
0920030511211612000105201JOSE PACHES GOMEZ                                                                     00000000052S
0920030511211612000200000FRANCISCA PEREA REGATERO                                                              00000000000N
0920030511211812000105801ESTEBAN SALAS GUILLAMON                                                               00000000058S
0820030512903729000111303JOSE JUAN DEL RIO PARRA                                                               00000000004N
0820030512903729000111303FELIX PEREZ RODRIGUEZ                                                                 00000000114S
0820030512903729000111303FCO. JAVIER MARTIN LAGOS                                                              00000000112S
0820030512903729000111303ANTONIO BENITEZ BENITEZ                                                               00000000108N
0820030512903729000111303ALFREDO CORBACHO BENITEZ                                                              00000000113S
0820030512903729001311002SILVIA CRUZ GARCIA BULLON                                                             00000000109N
0820030512903729001311002JUAN ANTONIO BENITEZ CALVENTE                                                         00000000109N
0820030512903729001311002JOSE ANTONIO MONTESINOS TIRADO                                                        00000000111S
0820030512903729001311002FELIX ROMAN GARCIA                                                                    00000000000N
0820030512903729001311002FCO. JAVIER BENITEZ TIRADO                                                            00000000111S
0820030512903729006100000YOLANDA GALVAN GARCIA                                                                 00000000000N
0820030512903729006100000ROSA GEMMA FLORES RODRIGUEZ                                                           00000000000N
0820030512903729006100000FCO. JAVIER GAMERO QUIJANA                                                            00000000000N
0820030512903729006100000CATALINA ASC. GARCIA MARISCAL                                                         00000000000N
0820030512903729006100000ANA ARANDA ROJAS                                                                      00000000000N
0820030514619646000108804ROSA MARIA MALAVES MAHIQUES                                                           00000000088S
0820030514619646000108804JUAN RAMON CHISMOL MAHIQUES                                                           00000000087S
0820030514619646000108804FCO. JOSE MAHIQUES JUEZ                                                               00000000088S
0820030514619646000108804ARTURO MAHIQUES HUGUET                                                                00000000087S
0820030514619646000207301MARIA ISABEL SANCHIS PASTOR                                                           00000000073N
0820030514619646000207301M. MILAGROS MAHIQUES MAHIQUES                                                         00000000001N
0820030514619646000207301LAURA HUGUET CANET                                                                    00000000074S
0820030514619646000207301DAVID MAHIQUES MAHIQUES                                                               00000000072N
0820030514619646000207301ANA MARIA BIXQUERT HUGUET                                                             00000000071N
0820030514619646009200000JOAN FAUSTI BATALLER BURGUERA                                                         00000000000N
0820030514615246000103001MANUEL GIMENO RUIZ                                                                    00000000032S
0820030514615246000103001JOSEFA ALAPONT LLOPIS                                                                 00000000030N
0820030514615246000103001JOSE FRANCISCO COSTA BRESO                                                            00000000029N
0820030514615246000103001FILIBERTO RODRIGO GRADOLI                                                             00000000030N
0820030514615246000204204M. DEL CARMEN LLUNA CUENCA                                                            00000000041S
0820030514615246000204204M. ANGELES SORIANO MORENO                                                             00000000010N
0820030514615246000204204JUAN JOSE GINER VILLANUEVA                                                            00000000032S
0820030514615246000204204JOSE SORIANO OROZCO                                                                   00000000042S
0820030514615246000204204AMADEO GIMENO ROMEU                                                                   00000000041S
0820030514615246009200200SEBASTIAN SANCHEZ ALONSO                                                              00000000002N
0820030514621946000102600RAFAEL VILLANOVA CARRETERO                                                            00000000019N
0820030514621946000102600M. MERCEDES ORTEGA LOPEZ                                                              00000000029N
0820030514621946000102600M. AMPARO ANGELES ALEMANY                                                             00000000025N
0820030514621946000102600FELIPE SOTOS VILANA                                                                   00000000031N
0820030514621946000210204RAUL MARTINEZ FUSTER                                                                  00000000109S
0820030514621946000210204JUAN IGNACIO GOMAR LORENTE                                                            00000000104S
0820030514621946000210204IVAN JUAN ESCRIVA                                                                     00000000100S
0820030514621946000210204FCO. MIGUEL ALBORCH ESCRIVA                                                           00000000096S
0820030514621946009204201PASCUAL SANJUAN SAINZ                                                                 00000000042S
0920030511212712000102500MANUEL TRAIGUEROS DESPONS                                                             00000000025N
0920030511212712000203401WENCESLAO FONOLLOSA MESEGUER                                                          00000000034S
0820030511208312000104202FERMIN EJARQUE FERRER                                                                 00000000041S
0820030511208312000104202ERNESTO CARCELLER DALMAU                                                              00000000042S
0820030511208312000205703RICARDO JULIAN SALVADOR (INDEP.)                                                      00000000061S
0820030511208312000205703ISIDRO ROYO ESPADA (INDEP.)                                                           00000000061S
0820030511208312000205703GUILLERMO GAZULLA GRAU (INDEP.)                                                       00000000050S
0920030514620146005103601LUIS MARIA ALCUSA BELSUE                                                              00000000036S
0820030511213112000108005LORENZO GIMENO ALEGRE                                                                 00000000061S
0820030511213112000108005JOSE MARIA FORNAS PASTOR                                                              00000000061S
0820030511213112000108005HELIODORO GIMENO ALEGRE                                                               00000000078S
0820030511213112000108005AMADEO MOLINER BLAY                                                                   00000000061S
0820030511213112000108005ALEJANDRO JOSE PEREZ SANCHO                                                           00000000059S
0820030511213112000201600MARIO EDO GIL                                                                         00000000016N
0820030514622446000108204VICENTE MARTINEZ CASTILLA                                                             00000000080S
0820030514622446000108204MARIA AMPARO IGUALADA CASES                                                           00000000076S
0820030514622446000108204JULIO MINGARRO BESE                                                                   00000000084S
0820030514622446000108204JOSE GARCIA ANDRES                                                                    00000000081S
0820030514622446000108204ANTONIO FAULI MERLI                                                                   00000000007N
0820030514622446000206101MARIA JOSE CARRERA GARRIGA                                                            00000000065S
0820030514622446000206101JOSE VICENTE HERNANDEZ GIMENO                                                         00000000064N
0820030514622446000206101JOSE RIPOLL MUÑOZ                                                                     00000000062N
0820030514622446000206101CATALINA PEREZ LOPEZ                                                                  00000000054N
0820030514622446009201400ENRIC CAPILLA MONZONIS                                                                00000000014N
0920030514622646000202501MIGUEL JUAN VIDAL                                                                     00000000025S
0920030514622646000700900ATILANO GIMENEZ ADALID                                                                00000000009N
0920030511213312000105901AGUSTIN SORIANO VILLALBA                                                              00000000059S
0920030511213312000200200ARTURO MACIAN PASTOR                                                                  00000000002N
0820030511213412000107504MARIA SOLEDAD GARCIA MIRALLES                                                         00000000076S
0820030511213412000107504JOSE MANUEL GARCIA PEREZ                                                              00000000070S
0820030511213412000107504FRANCISCO ROCA BELTRAN                                                                00000000077S
0820030511213412000107504ALEJANDRO VIDAL ESCRIG                                                                00000000078S
0820030511213412000204901TOMAS MIRALLES MIRALLES                                                               00000000043N
0820030511213412000204901RAFAEL GARCIA GARCIA                                                                  00000000054S
0820030511213412000204901HIGINIO SEGARRA ROCA                                                                  00000000045N
0820030511213412000204901AURELIO PITARCH ESCRIG                                                                00000000053N
0820030512906529006102501JESUS FERNANDEZ BAUTISTA                                                              00000000046S
0820030512906529006102501FERNANDO FERNANDEZ MARTINEZ                                                           00000000024N
0820030512906529006102501BARTOLOME FERNANDEZ BLANCO                                                            00000000010N
0820030512906529006102501ANGEL DEL RIO CORBACHO                                                                00000000000N
0820030512906529014701300MIGUEL ANGEL BAUTISTA MARTINEZ                                                        00000000004N
0820030512906529014701300FRANCISCA FERNANDEZ BLANCO                                                            00000000010N
0820030512906529014701300FCO. JAVIER GARCIA PACHECO                                                            00000000004N
0820030512906529014701300DANIEL ALONSO RIO GONZALEZ                                                            00000000029N
0820030512906529014701300ANDRES C. SOPESEN CALDERON                                                            00000000003N
0820030512907729000108701SALVADOR GUERRERO GUTIERREZ                                                           00000000087S
0820030512907729000108701JOSE GONGORA CASTRO                                                                   00000000012N
0820030512907729000108701JOSE ANTONIO GUTIERREZ SANCHEZ                                                        00000000079N
0820030512907729000108701JOSE ANTONIO FERNANDEZ BLANCO                                                         00000000087N
0820030512907729000108701DIEGO HARO JIMENEZ                                                                    00000000081N
0820030512907729001300100RAFAEL CORDON GONZALEZ                                                                00000000001N
0820030512907729001300100M. DOLORES AUX. SORIANO BARRONES                                                      00000000002N
0820030512907729001300100LUIS PASCUAL PECINO MARTIN                                                            00000000000N
0820030512907729001300100JESUS ORDOÑEZ BENITEZ                                                                 00000000000N
0820030512907729001300100ALEJANDRO E. RODRIGUEZ GARCIA                                                         00000000000N
0820030512907729006112804MARIA ISABEL PEÑA MARQUEZ                                                             00000000114S
0820030512907729006112804M. CARMEN GUTIERREZ JIMENEZ                                                           00000000124S
0820030512907729006112804JUAN ORTEGA PARRA                                                                     00000000028N
0820030512907729006112804ANTONIO S. SANCHEZ GIL                                                                00000000125S
0820030512907729006112804ANTONIO MARTIN GUTIERREZ                                                              00000000119S
0820030512906529000110104MIGUEL ANGEL RAMIREZ CORBACHO                                                         00000000080S
0820030512906529000110104JUAN ANTONIO RODRIGUEZ RAMIREZ                                                        00000000085S
0820030512906529000110104FRANCISCO CORBACHO CORBACHO                                                           00000000092S
0820030512906529000110104EDUARDO CASTILLO DEL RIO                                                              00000000040N
0820030512906529000110104DIEGO FERNANDEZ FERNANDEZ                                                             00000000106S
0820030512906529006102501JOSE FERNANDEZ CALVENTE                                                               00000000020N
0820030512902129000102201JOSEFA SANCHEZ DIAZ                                                                   00000000016N
0820030512902129000102201JOSE GOMEZ DOMINGUEZ                                                                  00000000015N
0820030512902129000102201IDALIA CASTILLO FARIAS                                                                00000000009N
0820030512902129000102201ELIAS BENZADON CARRASCO                                                               00000000025S
0820030512902129000102201ANA M. DL PILAR BENZADON MELERO                                                       00000000023N
0820030512902129006107704PATRICIA ANNE BROOKS                                                                  00000000006N
0820030512902129006107704M. AUXILIADORA SANCHEZ GONZALEZ                                                       00000000076S
0820030512902129006107704FRANCIS PECINO -                                                                      00000000073S
0820030512902129006107704FCO. JAVIER CARRASCO MEDINA                                                           00000000075S
0820030512902129006107704DOMINGO SANCHEZ TELLEZ                                                                00000000077S
0820030512102221000100300MIGUEL ANGEL LOPEZ ROMERO                                                             00000000006N
0820030512102221000100300MARIA ROCIO PEREZ DOMINGUEZ                                                           00000000000N
0820030512102221000100300MARIA JOSE LOPEZ ROMERO                                                               00000000005N
0820030512102221000100300DOMINGO MANUEL GOMEZ CARRO                                                            00000000000N
0820030512102221000100300ANGEL VAZQUEZ CENTENO                                                                 00000000001N
0820030512102221000203401NARCISO LOPEZ GARCIA                                                                  00000000031N
0820030512102221000203401MANUEL GOMEZ LOPEZ                                                                    00000000046S
0820030512102221000203401JOSE VAZQUEZ CENTENO                                                                  00000000004N
0820030512102221000203401JOSE ANTONIO GONZALEZ GONZALEZ                                                        00000000025N
0820030512102221000203401FRANCISCO GOMEZ LOPEZ                                                                 00000000030N
0820030512102221001306104RAFAEL ANTUNEZ HIDALGO                                                                00000000018N
0820030512102221001306104MANUEL ESTEBAN SANCHEZ                                                                00000000071S
0820030512102221001306104JOSE ISIDRO ESTEBAN GONZALEZ                                                          00000000060S
0820030512102221001306104ANGELA MARTIN CALVO                                                                   00000000042S
0820030512102221001306104ANGEL LOPEZ GARCIA                                                                    00000000052S
0820030512102221007101900VICTOR GONZALEZ BARBANCHO                                                             00000000015N
0820030512102221007101900ROLANDO ADRIAN WAHL BARRIS                                                            00000000019N
0820030512102221007101900JODER ILLY _                                                                          00000000022N
0920030512102721000100200FRANCISCO LUIS PEREZ GUERRERO                                                         00000000002N
0920030512102721000204201EULOGIO PAEZ PAEZ                                                                     00000000042S
0820030510307503000109005SOFIA ALONSO BALAGUER                                                                 00000000076S
0820030510307503000109005RAFAEL PONT PONSODA                                                                   00000000063S
0820030510307503000109005MARIA CARMEN BALAGUER GIMENEZ                                                         00000000076S
0820030510307503000109005JUAN COLLANTES PACHECO                                                                00000000062S
0820030510307503000109005BAUTISTA BALAGUER VIDAL                                                               00000000083S
0820030510307503000201400SANTIAGO D. RONDA PEREZ                                                               00000000013N
0820030510307503000201400MARIA VICTORIA MARCO BILBAO                                                           00000000014N
0820030510307503000201400JOSEFA LLORCA LLINARES                                                                00000000013N
0820030510307503000201400JOSE SANTACREU ESTEVE                                                                 00000000015N
0820030510308603000102000VICENTE IÑIGUEZ HERNANDEZ                                                             00000000017N
0820030510308603000102000TOMAS ARDILA GRAGERA                                                                  00000000018N
0820030510308603000102000ROBERTO JUAN GISBERT                                                                  00000000023N
0820030510308603000102000RAFAEL BENAVENT VASCO                                                                 00000000019N
0820030510308603000102000ANTONIO PEÑA DE LA TORRE                                                              00000000002N
0820030510308603000210205JOSEP MIQUEL FERRANDO GUARDIOLA                                                       00000000070S
0820030510308603000210205JOSE BLANES MIRA                                                                      00000000085S
0820030510308603000210205JOSE ANTONIO ALOS MIRA                                                                00000000087S
0820030510308603000210205ERNESTO LOPEZ FERRANDIZ                                                               00000000073S
0820030510308603000210205CESAR FRANCISCO GARCIA BONET                                                          00000000091S
0820030510308603009200100JOSEP LLUIS RICO VERDU                                                                00000000001N
0820030510306003000104601VICENTE GARCIA PEREZ                                                                  00000000054S
0820030510306003000104601RAFAEL GANDIA IBAÑEZ                                                                  00000000039N
0820030510306003000104601JAIME VAQUER PEREZ                                                                    00000000047N
0820030510306003000104601ISMAEL GARCIA ROMEU                                                                   00000000042N
0820030510306003000207004MARIA MAGDALENA CHIQUILLO PEREZ                                                       00000000066S
0820030510306003000207004JUAN SOLER BARDISA                                                                    00000000070S
0820030510306003000207004FRANCISCO PICAZO PEREZ                                                                00000000070S
0820030510306003000207004ALVARO RAMON VERCHER PEREZ                                                            00000000074S
0820030510306003009200900MARIA DEL ROSER BLANES I VALERO                                                       00000000009N
0820030510306203000110004RAFAEL VIVES PERTUSA                                                                  00000000104S
0820030510306203000110004MANUEL ANTONIO CONESA GIMENEZ                                                         00000000000N
0820030510306203000110004JOSE GIMENEZ RODRIGUEZ                                                                00000000097S
0820030510306203000110004JOSE ANGEL LORENZO SANZ                                                               00000000099S
0820030510306203000110004ESTEBAN MARTINEZ RODES                                                                00000000098S
0820030510306203092507501MARIO MARTINEZ MONTESINOS                                                             00000000026N
0820030510306203092507501MARIA SOLEDAD RICO ILLAN                                                              00000000065N
0820030510306203092507501MARIA DOLORES RODRIGUEZ PEREZ                                                         00000000062N
0820030510306203092507501MANUEL ANTONIO ALBEROLA CHAZARRA                                                      00000000069N
0820030510306203092507501JOSE GASPAR MORA MARROQUI                                                             00000000076S
0820030510306703000105604MARCOS CARBONELL ALEMANY                                                              00000000054S
0820030510306703000105604M. CARMEN DEVESA GENARO                                                               00000000063S
0820030510306703000105604JOSEFA GARCIA CARBONELL                                                               00000000046S
0820030510306703000105604ANICETO SEGURA GUIMERA                                                                00000000062S
0820030510306703000201901ROSARIO SEGUI PILAR MOLTO                                                             00000000016N
0820030510306703000201901MARIA VICENTA CRESPO DOMINGUEZ                                                        00000000022S
0820030510306703000201901JOSE LUIS MATARREDONA LLORENS                                                         00000000021N
0820030510306703000201901DIEGO CARRASCO LOPEZ                                                                  00000000016N
0820030510306703009200500LAURA SEMPERE RODRIGUEZ                                                               00000000005N
0920030510306803000104701TOMAS ORTIZ BAEZA                                                                     00000000047S
0920030510306803000200700JOSE LUIS CABALLERO GARCIA                                                            00000000007N
0920030510306803009200000JOSE LUIS BERNABEU RICO                                                               00000000000N
0820030511804318000106704SALVADOR RODRIGUEZ MARTIN                                                             00000000069S
0820030511804318000106704MATEO RODRIGUEZ ROMERO                                                                00000000065S
0820030511804318000106704JOSE LUIS RODRIGUEZ GALLARDO                                                          00000000003N
0820030511804318000106704JOSE ANTONIO LOPEZ LOPEZ                                                              00000000064S
0820030511804318000106704GUILLERMO M. NAVARRETE GUTIERREZ                                                      00000000065S
0820030511804318006104801MARIA ISABEL CORREA PORRAS                                                            00000000017N
0820030511804318006104801JULIA GALLARDO PORRAS                                                                 00000000000N
0820030511804318006104801JOSE MANUEL ORTIZ RODRIGUEZ                                                           00000000050N
0820030511804318006104801JOSE DANIEL VIGIL GONZALEZ                                                            00000000068S
0820030511804318006104801JOSE ANTONIO LOPEZ MONTERO                                                            00000000057N
0820030511804318007102400JULIO LUIS DONAT MARTIN                                                               00000000020N
0820030511804318007102400FIONA ELISABETH HICKS -                                                               00000000005N
0820030511804318007102400FEDERICO DANIEL PACHECO FRIAS                                                         00000000052N
0820030511804318007102400FCO. JAVIER YEPES RODRIGUEZ                                                           00000000003N
0820030511804318007102400EVARIA AGUILO CAMINAL                                                                 00000000014N
0820030511812118000107204JOSE MANUEL RODRIGUEZ ROMERA                                                          00000000004N
0820030511812118000107204FRANCISCO LARA REINOSO                                                                00000000071S
0820030511812118000107204FEDERICO MORON OCAÑA                                                                  00000000069S
0820030511812118000107204EMILIO MARTIN SANTIAGO                                                                00000000072S
0820030511812118000107204CARMEN MARTIN MORON                                                                   00000000070S
0820030511812118006105301SERAFIN FCO. MARTIN LARA                                                              00000000052N
0820030511812118006105301OLGA SANCHEZ MARTIN                                                                   00000000027N
0820030511812118006105301M. JOSE GONZALEZ ORTEGA                                                               00000000024N
0820030511812118006105301M. ANGELES RODELAS MARTIN                                                             00000000054N
0820030511812118006105301ANA RODRIGUEZ GUALDA                                                                  00000000056S
0820030512202922000106801CRISTINA BENITO LAYUNTA                                                               00000000068S
0820030512202922000205502ROBERTO CASTRO IBOR                                                                   00000000056S
0820030512202922000205502ABEL LATAPIA RALUY                                                                    00000000053S
0820030512201222000105101RAUL ROQUE LAIRLA OLIVAN                                                              00000000051S
0820030512201222000204304VICTOR MANUEL GIMENEZ VAL                                                             00000000048S
0820030512201222000204304JOSE MARIA MONTES LLES                                                                00000000047S
0820030512201222000204304JAVIER MIGUEL LOPEZ CIRIA                                                             00000000048S
0820030512201222000204304EDUARDO JUAN A. GIMENEZ SANTOLARIA                                                    00000000027S
0820030512201222001200700IRENE GABARRE BALLARIN                                                                00000000007N
0820030512202922001204202LORENZO CIRIA ACEBILLO                                                                00000000040S
0820030512202922001204202ALFREDO FERRANDO PLAYAN                                                               00000000043S
0820030512203222000103500JOSE RAMON BELIO LAIN                                                                 00000000035N
0820030512203222000103500ANDRES LARRAZ LOPEZ                                                                   00000000034N
0820030512203222000205804ROSARIO TERREN IPAS                                                                   00000000052S
0820030512203222000205804MIGUEL CALVO PETRIZ                                                                   00000000057S
0820030512203222000205804MIGUEL ARTO IPAS                                                                      00000000058S
0820030512203222000205804MARIA TERESA IPAS ARIGUEL                                                             00000000064S
0820030512203222001203201MARIE CHRISTINE CARAYON SABATER                                                       00000000046S
0820030512203222001203201MANUEL MAYNAR FERRER                                                                  00000000018N
0820030512203222001203201ANGEL CASAJUS GIL                                                                     00000000033N
0820030512203622000106805VICENTE JAVIER MAVILLA MONESMA                                                        00000000043S
0820030512203622000106805ROBERTO ESCAR GALVE                                                                   00000000055S
0820030512203622000106805MARIA JOSE NAVARRO MIRANDA                                                            00000000055S
0820030512203622000106805JOSE LUIS SATUE AUDINA                                                                00000000061S
0820030512203622000106805ANTONIO LAMARCA MAÑAS                                                                 00000000059S
0820030512203622000201600JOSE NOGAROL CALLEN                                                                   00000000016N
0820030512203622001200200MARIA BLANCA CALVO LOPEZ                                                              00000000002N
0920030512203722000100200BEATRIZ ORTAS ORDUNA                                                                  00000000002N
0920030512203722000202000CARMEN PEREZ PERIZ                                                                    00000000020N
0920030512203722001202201MARIANO CLAVER LANASPA                                                                00000000022S
0820030512204022000101800RAMON MIGUEL QUINTILLA SALAMERO                                                       00000000018N
0820030512204022000204101MARGARITA PORTELLA CASTRO                                                             00000000044N
0820030512204022000204101JOSE MARIA CALASANZ GODOY                                                             00000000031N
0820030512204022000204101JAVIER MONTER DOMEC                                                                   00000000048S
0820030512204022001206804RAMON BLANC PUEO                                                                      00000000070S
0820030512204022001206804JOAQUIN AVELLANA LASIERRA                                                             00000000071S
0820030512204022001206804ENRIQUE ENCUENTRA FONTANELLA                                                          00000000058S
0820030512204022001206804CARLOS FIGUERA VIDAL                                                                  00000000072S
0820030512204122000105701ROMAN RAMON TORNIL MATA                                                               00000000064S
0820030512204122000105701RAMON CARPI ARNAL                                                                     00000000044N
0820030512204122000105701ALFREDO NOVALES MUR                                                                   00000000063N
0820030512204122000207504VICENTE LAILLA CUELLO                                                                 00000000074S
0820030512204122000207504MIGUEL ANGEL ARASANZ MIGUEL                                                           00000000067S
0820030512204122000207504JERONIMO SANTOS LARROYA DOMPER                                                        00000000084S
0820030512204122000207504FELIX ARNAL CAMPODARVE                                                                00000000075S
0820030512204122010305600MANUEL BARRAS RAMOS                                                                   00000000056N
0820030512204222000105101RAUL JORDAN PARDO                                                                     00000000060S
0820030512204222000105101NURIA EMILIA ALBAJAR BARON                                                            00000000051N
0820030512204222000105101LEONARDO SOLANO ESCOBAR                                                               00000000046N
0820030512204222000105101EMILIA CANCER CLAVER                                                                  00000000046N
0820030512204222000207104M. ISABEL PABLO MELERO                                                                00000000074S
0820030512204222000207104JUAN CARLOS ABADIAS CUELLO                                                            00000000070S
0820030512204222000207104JOSE LUIS AYERBE ABADIAS                                                              00000000071S
0820030512204222000207104JOAQUIN RODRIGO GUILLAMON                                                             00000000067S
0820030512204322000103502RAMON ISIDRO ESPUÑA SALA                                                              00000000036S
0820030512204322000103502ANDRES MIGUEL COSIALLS UBACH                                                          00000000034S
0820030512204322000203001MARIA MERCE CANADELL SELLART                                                          00000000031N
0820030512204322000203001JUAN SOPENA TERES                                                                     00000000019N
0820030512204322000203001JOSE MARIA ABILIA ESPUÑA                                                              00000000040S
0820030512204322001203102JOSE JUAN MONSONET FERRER                                                             00000000033N
0820030512204322001203102JOSE DOZ COLOMINA                                                                     00000000024N
0820030512204322001203102JOAQUIN QUINTILLA QUINTILLA                                                           00000000035S
0820030512204322001203102ANTONIO SOLANO SALAS                                                                  00000000033S
0820030514402644000106604RAFAEL PINAZO GAMIR                                                                   00000000070S
0820030514402644000106604JOSE LUIS ALVIR MARTINEZ                                                              00000000068S
0920030512206722000100200ANGEL MALO GIMENEZ                                                                    00000000002N
0920030512206722000205301ALBERTO F. MONER NAVARRI                                                              00000000053S
0920030512206822000100000ABEL AZON TORRES                                                                      00000000000N
0920030512206822000204101JOSE MARIA JARNE CAMPO                                                                00000000041S
0920030512206822001201500MARIA ELENA GRACIA LACASTA                                                            00000000015N
0920030512206822010300400MARIA JESUS MATEO DE MIGUEL                                                           00000000004N
0820030512207222000104201PRIMITIVO GRASA CEBOLLERO                                                             00000000043N
0820030512207222000104201JUAN CARLOS REY ALLUE                                                                 00000000058S
0820030512207222000104201JOSE IGNACIO UBIETO ASO                                                               00000000026N
0820030512207222000208704RAFAEL CASTAN GIMENEZ                                                                 00000000105S
0820030512207222000208704NATALIA FORTIC FENERO                                                                 00000000077S
0820030512207222000208704JOSE MANUEL SATURQUE OTIN                                                             00000000086S
0820030512207222000208704JOSE LUIS LOPEZ OTIN                                                                  00000000080S
0820030512207222010305300ANGEL RAMON VISUS MAINER                                                              00000000053N
0820030512201922000106401MARIA ANGELES OCHE LOZANO                                                             00000000059N
0820030512201922000106401FRANCISCO JOSE SANTOLARIA ALASTRUE                                                    00000000070S
0820030512201922000106401EDUARDO DIAZ NUÑEZ                                                                    00000000063N
0820030512201922000207604VICENTE CARLOS FERRER BASOLS                                                          00000000086S
0820030512201922000207604PRESENTACION M. HERNANDEZ PARDINA                                                     00000000077S
0820030512201922000207604PEDRO LUIS OLIVEROS SOLE                                                              00000000076S
0820030512201922000207604ANDRES PEREZ -                                                                        00000000065S
0820030512201922001200300MARIA SOL SALCEDO ESCARTIN                                                            00000000003N
0820030512202022000105205LUIS FUMANAL ESPIER                                                                   00000000049S
0820030512908529000108504MARIO CABELLO FERNANDEZ                                                               00000000081S
0820030512908529000108504JOSE FERNANDEZ LOPEZ                                                                  00000000088S
0820030512908529000108504JORGE LUIS FERNANDEZ GARCIA                                                           00000000089S
0820030512908529000108504FRANCISCO JESUS RUIZ FERNANDEZ                                                        00000000001N
0820030512908529000108504BRAULIO FERNANDEZ GARCIA                                                              00000000079S
0820030512908529006106601MANUEL GARCIA RAMOS                                                                   00000000001N
0820030512908529006106601JOSE LUIS PUERTAS FERNANDEZ                                                           00000000060N
0820030512908529006106601ISABEL PUERTAS AZUAR                                                                  00000000069N
0820030512908529006106601FRANCISCO JESUS OCAÑA MARTIN                                                          00000000061N
0820030512908529006106601ANGEL FERNANDEZ GARCIA                                                                00000000072S
0820030512908529007100000SALVADOR GONZALEZ PEREZ                                                               00000000000N
0820030512908529007100000SALVADOR ARIJO ANDRADE                                                                00000000000N
0820030512908529007100000JOSE MANUEL PINEDA MARIN                                                              00000000000N
0820030512908529007100000JESUS MANUEL CANTOS GONZALEZ                                                          00000000000N
0820030512908529007100000ANTONIO SERRANO CUETO                                                                 00000000000N
0820030512205822000104201M. ROSA VIÑUALES FERRANDO                                                             00000000037N
0820030512205822000104201JOSE FRANCISCO NASARRE NASARRE                                                        00000000046S
0820030512205822000206103SERGIO FERRER CORREAS                                                                 00000000080S
0820030512205822000206103OLGA CAMPO SANAGUSTIN                                                                 00000000041N
0820030512205822000206103M. JOSE OLIVAN CORTINA                                                                00000000062S
0820030512205822000206103ANA TORNIL FONCILLAS                                                                  00000000060S
0820030512205822001207701JOSEFINA IRENE CORTES LOPEZ                                                           00000000077S
0820030512202022000105205JOSE MARIA CIVIAC MORENO                                                              00000000043S
0820030512202022000105205JOAQUIN SAGARRA OBEA                                                                  00000000030S
0820030512202022000105205ANTONIO MARCOS ALVIRA FORNIES                                                         00000000037S
0820030512202022000105205ANTONIO FUMANAL ESPIER                                                                00000000049S
0820030512202022000201100MARIA MAR LARROYA DOMPER                                                              00000000011N
0820030512200222000102800JOAQUIN LALUEZA BUIL                                                                  00000000028N
0820030512200222000208105RAMON GUATAS PUY                                                                      00000000077S
0820030512200222000208105PEDRO SANTORROMAN LACAMBRA                                                            00000000090S
0820030512200222000208105JOSE JOAQUIN PEREZ PERIZ                                                              00000000048S
0820030512200222000208105FERNANDO TORRES LACAMBRA                                                              00000000056S
0820030512200222000208105FERNANDO FELIX CARDIEL LALUEZA                                                        00000000052S
0820030512200322000103000JOSE MARIA NASARRE AGUILAR                                                            00000000030N
0820030512200322000103000JOSE ANTONIO FRANCO GISTAU                                                            00000000029N
0820030512200322000204102SANTIAGO TORNES VIDAL                                                                 00000000048S
0820030512200322000204102M. PILAR VIDAL CORTES                                                                 00000000052S
0820030512200322000204102JOSE MARIA LARROSA ALBAJAR                                                            00000000024N
0820030512200322001203802MIGUEL ZAMORA VALLES                                                                  00000000017N
0820030512200322001203802GUSTAVO BARA MORET                                                                    00000000050S
0820030512200322001203802ANSELMO LABATA MOSTOLAC                                                               00000000016N
0820030512200322001203802ALFREDO SUAREZ SUAREZ                                                                 00000000068S
0820030512200322010304001JOSE OLIVERA GUILLAMON                                                                00000000040S
0820030512200422000107604M.INMACULADA JORDAN BRETOS                                                            00000000076S
0820030512200422000107604LOURDES NASARRE MORLANS                                                               00000000081S
0820030512200422000107604ANTONIO CASTILLO PEREZ                                                                00000000075S
0820030512200422000107604ADELA ANTONI CASTAN                                                                   00000000072S
0820030512200422000203301REYES PALACIO ORDUNA                                                                  00000000032N
0820030512200422000203301FCO.JAVIER SANCHEZ OTERO                                                              00000000027N
0820030512200422000203301ELEUTERIO BORAU MARCUELLO                                                             00000000040S
0820030512200422001201500JOSE MARIA NIVELA ALBA                                                                00000000012N
0820030512200422001201500JOSE ANTONIO LOPEZ MAMILO                                                             00000000018N
0820030512205022000104603MANUEL COLUNGO HERRAN                                                                 00000000049S
0820030512205022000104603JOSE ANTONIO ORAN RODRIGUEZ                                                           00000000052S
0820030512205022000104603JOSE ANTONIO LONCAN LACOMA                                                            00000000040N
0820030512205022000104603CANDIDO NOVALES MUR                                                                   00000000041S
0820030512205022000203902RICARDO LEON CALVO RUBIELLA                                                           00000000040S
0820030512205022000203902LUIS ANTONIO MOLINA DOMPER                                                            00000000036N
0820030512205022000203902JAVIER CAMPO GABARRON                                                                 00000000034N
0820030512205022000203902ANTONIO BRAVO CANDELA                                                                 00000000046S
0820030512205122000104103M.PILAR BARFALUY BUIL                                                                 00000000044S
0820030512205122000104103JOSE LUIS BARDANOJ OLIVERA                                                            00000000041S
0820030512205122000104103JESUS BUIL SANTORROMAN                                                                00000000034N
0820030512205122000104103ABEL CARMELO GIRAL ARCAS                                                              00000000043S
0820030512205122000203802MIGUEL ANGEL BLASCO FRANCO                                                            00000000044S
0820030512205122000203802JESUS VITALLA MAZA DE LIZANA                                                          00000000029N
0820030512205122000203802CARMEN LALUEZA GIRAL                                                                  00000000038N
0820030512205122000203802ALEJANDRO LALUEZA GIRAL                                                               00000000039S
0820030512204522000102301ANTONIO MATAMALA DIAZ                                                                 00000000023S
0820030512204522000203504JOSE TOMAS GABA                                                                       00000000020S
0820030512204522000203504JOSE BITRIA TERES                                                                     00000000029S
0820030512201122000103002RAFAEL LERA OTAL                                                                      00000000027S
0820030512201122000103002FCO.JAVIER GALLEGO MENDOZA                                                            00000000032S
0820030512201122000204103VICTOR ESCARIO FENESTRA                                                               00000000036S
0820030512201122000204103RAMON LORENZO FERRANDO ORUS                                                           00000000044S
0820030512201122000204103JUAN CARLOS MENDOZA FERRER                                                            00000000043S
0820030512201122001200300NURIA GANUZA URRIES                                                                   00000000003N
0820030512204922000105104LUIS ARNAL FERNANDEZ                                                                  00000000038S
0820030512204922000105104JOSE SINESIO BAILO CASTRO                                                             00000000065S
0820030512204922000105104JOSE MARIA ARNAL ALBERO                                                               00000000052S
0820030512204922000105104JOSE ARILLA BARREU                                                                    00000000047S
0820030512204922000203901JOSE MARIA ORUS ZAMORA                                                                00000000039S
0820030512204522000203504JOSE BENABARRE GRAU                                                                   00000000042S
0820030512204522000203504JESUS ENRIQUE LUMBIARRES PUSO                                                         00000000030S
0820030512204522000203504CARLOS LLENA BOIXADERA                                                                00000000019N
0820030512204722000109405MARIA MUNNE ESTURGO                                                                   00000000076S
0820030512204722000109405JOSE MAS BANZO                                                                        00000000076S
0820030512204722000109405JOAQUIN GRACIA BANZO                                                                  00000000058S
0820030512204722000109405ANTONIO BONE GARASA                                                                   00000000072S
0820030512204722000109405ANGEL GRACIA BANZO                                                                    00000000093S
0820030512204722000204600MARIA LUISA ZARIQUIEGUI ALDAVE                                                        00000000043N
0820030512204722000204600LUCIA BRUNED VILA                                                                     00000000044N
0820030512204722000204600JOSE MARIA FACIL CARMEN                                                               00000000051N
0820030512204722010303400M. DEL CARMEN PARAISO SANTOLARIA                                                      00000000034N
0820030514624046000122805JOSEFA TARRASO CAMARENA                                                               00000000177S
0820030514624046000122805JOSE MARIA GOZALBO MARGARITA                                                          00000000179S
0820030514624046000122805JESUS MARIA BENAVENT MAHIQUES                                                         00000000185S
0820030514624046000122805FRANCISCO FERRER MOSCARDO                                                             00000000178S
0820030514624046000122805CONSUELO FENOLLAR BATALLER                                                            00000000193S
0820030514624046000211300VICENTE FERRER ALEMANY                                                                00000000110N
0820030514624046000211300VICENTE BOSCA SOLER                                                                   00000000111N
0820030514624046000211300PILAR PEREZ BLANCH                                                                    00000000012N
0820030514624046000211300MANUEL MONTAGUD ANDRES                                                                00000000109N
0820030514624046000211300JUAN LUIS MONTANER MASCARELL                                                          00000000109N
0820030514624046009200400FUENSANTA BATALLER BURGUERA                                                           00000000004N
0820030514624346000206203FRANCISCO MORENO GAYA                                                                 00000000072S
0820030514624346000206203ESTEBAN PERUCHO SANZ                                                                  00000000056S
0820030514624346000206203BEATRIZ MANZANO SANZ                                                                  00000000058S
0820030514624346001100200VICTORIA CARRION GAITAN                                                               00000000001N
0820030514624346001100200N. DEL CARMEN MARTINEZ PEREZ                                                          00000000004N
0820030514624346001100200LUIS MARTIN RAMIREZ RODRIGUEZ                                                         00000000001N
0820030514624346001100200JUAN JOAQUIN MARTI GOZALBO                                                            00000000001N
0820030514624346001100200JUAN FRANCISCO PALOMAR LACRUZ                                                         00000000001N
0820030514624346005106102VICENTE MARTINEZ CLIMENT                                                              00000000059S
0820030514624346005106102VICENTE FCO. BOLUDA ALBIÑANA                                                          00000000048N
0820030514624346005106102RAFAEL MARTINEZ PLA                                                                   00000000038N
0820030514624346005106102RAFAEL CAPILLA MARTINEZ                                                               00000000054S
0820030514624346005106102JUAN JOSE ALVENTOSA BELLVER                                                           00000000043N
0820030514624346009200700ERNEST ANYO SANZ                                                                      00000000007N
0920030510303603000105601JESUS MARTINEZ GARRIDO                                                                00000000056S
0920030510303603000200300FRANCISCO RUBIO GONZALEZ                                                              00000000003N
0920030510303603009200100RAUL MONTAVA PEREZ                                                                    00000000001N
0820030510303903000104201SAMUEL PIERA CORTELL                                                                  00000000041N
0820030510303903000104201JUAN PEREZ GILABERT                                                                   00000000042S
0820030510303903000104201JUAN FRANCISCO CANET BALLESTER                                                        00000000035N
0820030510303903000104201ENRIQUE CORTON FERRANDIZ                                                              00000000040N
0820030510303903000104201ENRIQUE CANTO SOLER                                                                   00000000011N
0820030510303903000207704ROBERTO FRAU PASTOR                                                                   00000000075S
0820030510303903000207704RAFAEL CANO DOMENECH                                                                  00000000078S
0820030510303903000207704MONTSERRAT BALLESTER FRAU                                                             00000000080S
0820030510303903000207704JOSE CANO FERRANDIZ                                                                   00000000075S
0820030510303903009200000MARIA ASUNCION PEREZ GOMEZ                                                            00000000000N
0820030510406804000108004MANUEL MARTINEZ GARRIDO                                                               00000000045N
0820030510406804000108004JUAN BARON MIRALLES                                                                   00000000072S
0820030510406804000108004JOSE GIL SALVADOR                                                                     00000000051S
0820030510406804000108004GUILLERMO MESAS MESAS                                                                 00000000082S
0820030510406804000108004ANTONIO CEREZO NIETO                                                                  00000000068S
0820030510406804000204801M. MAR ESTEBAN LORITA                                                                 00000000043N
0820030510406804000204801JUAN FCO PEREZ ESCAMEZ                                                                00000000049N
0820030510406804000204801JOAQUIN LEITON ADRIAN                                                                 00000000049N
0820030510406804000204801DOLORES GARCIA ANGUITA                                                                00000000050S
0820030510406804000204801CARMEN ALBARRACIN GARCIA                                                              00000000002N
0820030510409404000113605MANUEL ALIAS CANTON                                                                   00000000109S
0820030510409404000113605JUAN MANUEL MOLINA LOPEZ                                                              00000000096S
0820030510409404000113605JUAN ANTONIO VERDEJO PADILLA                                                          00000000137S
0820030510409404000113605JUAN ANTONIO SEGURA FELICES                                                           00000000124S
0820030510409404000113605JOSE LOPEZ NIETO                                                                      00000000079S
0820030510409404000203700MANUEL NIETO MARQUEZ                                                                  00000000037N
0820030510409404000203700M. ANGELES GONZALEZ DE ROJAS                                                          00000000037N
0820030510409404000203700JOSE CARLOS LARA JIMENEZ                                                              00000000037N
0820030510409404000203700JOSE AURELIO FERNANDEZ ARRIETA                                                        00000000038N
0820030510409404000203700ALFONSO RAUL FERNANDEZ AMIEVA                                                         00000000000N
0820030510403304000101600RAMON MARTINEZ MARTINEZ                                                               00000000012N
0820030510403304000101600RAFAEL ANTONIO SOLA USERO                                                             00000000012N
0820030510403304000101600MIGUEL FERRER CARMONA                                                                 00000000011N
0820030510403304000101600MANUEL GUZMAN DE LA ROZA                                                              00000000023N
0820030510403304000101600JOSE HERNANDEZ PAREJA                                                                 00000000004N
0820030510403304000210105JOSE M. MIRANDA CARRIZO                                                               00000000075S
0820030510403304000210105JOSE ANTONIO MARTINEZ RODRIGEZ                                                        00000000073S
0820030510403304000210105JOSE ANTONIO CARBALLO ORTEGA                                                          00000000076S
0820030510403304000210105FANCISCO MARTINEZ SOLA                                                                00000000102S
0820030510403304000210105CELIA M. ORTEGA SALVADOR                                                              00000000076S
0820030510403404000107701MIGUEL GRANERO CARMONA                                                                00000000078S
0820030510403404000107701MARIA SEÑOR PADILLA ALMANSA                                                           00000000076N
0820030510403404000107701FRANCISCA PADILLA ALMANSA                                                             00000000017N
0820030510403404000107701FEDERICO CASTILLEJO SANCHEZ                                                           00000000064N
0820030510403404000107701CRISTOBAL FLORES SAEZ                                                                 00000000071N
0820030510403404000210004RAMON PEINADO MARQUEZ                                                                 00000000100S
0820030510403404000210004LIBERTO RAMOS CAPEL                                                                   00000000099S
0820030510403404000210004JOSE FUENTES FERNANDEZ                                                                00000000100S
0820030510403404000210004JOSE ANTONIO SORROCHE HERNANDEZ                                                       00000000001N
0820030510403404000210004BERNADINO CAPEL YEPES                                                                 00000000099S
0820030514625246000209201RAFAEL SANCHEZ SANCHEZ                                                                00000000089N
0820030514625246000209201MANUEL SAIZ DURBAN                                                                    00000000092N
0820030514625246000209201JOSE MILLAN ESLAVA                                                                    00000000089N
0820030514625246000209201AMADOR SANCHEZ SANCHEZ                                                                00000000098S
0820030514625246005110404NURIA MILLAN ESLAVA                                                                   00000000107S
0820030514625246005110404JULIO CESAR FERRIZ CAÑETE                                                             00000000102S
0820030514625246005110404JOSE SANCHEZ MONLEON                                                                  00000000104S
0820030514625246005110404JOSE ANTONIO MORALES ARNALTE                                                          00000000103S
0820030514625346001103302LEOPOLDO GARCIA AYORA                                                                 00000000032N
0820030514625346001103302JUAN JESUS UBEDA FERRERO                                                              00000000001N
0820030514625346001103302JOSE GRAMAGE PERALES                                                                  00000000031N
0820030514625346001103302JOSE CARMELO MARTINEZ VILA                                                            00000000034S
0820030514625346001103302ENCARNACION GARCIA MORALES                                                            00000000033S
0820030514625346005104403ROBERTO MOMPO BELTRAN                                                                 00000000042S
0820030514625346005104403RICARDO JOSE MARTINEZ AGUSTI                                                          00000000046S
0820030514625346005104403RAFAEL TORREGROSA TORRALBA                                                            00000000022N
0820030514625346005104403PEDRO ALMARAZ FERNANDEZ                                                               00000000023N
0820030514625346005104403JOSE LUIS HERRERO POSTIGO                                                             00000000042S
0820030514625346009200500RAFAEL SUÑER TORMO                                                                    00000000005N
0820030512210522000107602LUIS TEIXIDO PUYAL                                                                    00000000069S
0820030512210522000107602ANTONIO LLOAN FUSTE                                                                   00000000083S
0820030512210522000201900PEDRO GRAU FILLAT                                                                     00000000019N
0820030512210522000201900CESAR JOSEP TOLEDANO BENABARRE                                                        00000000014N
0820030512210522000201900BENJAMI FRANCES VALLMANYA SUBIRADA                                                    00000000024N
0820030512210522001202700JORGE ONDOÑO PUBILL                                                                   00000000018N
0820030512210522001202700DAVID SOLANO CASTARLENAS                                                              00000000037N
0820030512210522001202700BENJAMIN QUINTILLA AVILLA                                                             00000000023N
0820030512210522001202700AGUSTIN BARDAJI PLANA                                                                 00000000028N
0820030512210522010303701MARIANO JOSE DORNOY FORROLL                                                           00000000025N
0820030512210522010303701M. MONTSERRAT TERES TERES                                                             00000000032N
0820030512210522010303701JAIME LAZARO TERES GRAU                                                               00000000040N
0820030512210522010303701AGUSTIN JOSE LARREGOLA FERRER                                                         00000000050S
0820030512210522254907202VICENTE QUINTILLA LARREGOLA                                                           00000000079S
0820030512210522254907202PEDRO FORT LLENA                                                                      00000000064S
0920030512210622000101701MIGUEL JOSE GRIMA MASIA                                                               00000000017S
0920030512210622000200500SANTIAGO MAINAR SAURAS                                                                00000000005N
0820030512210722000100100JUAN ANTONIO CASTAN CARRERA                                                           00000000001N
0820030512210722000205201LUIS ANTONIO GRIMA LAUSIN                                                             00000000050N
0820030512210722000205201JOSE RAMON TORRES VIÑOLA                                                              00000000056S
0820030512210722000205201FRANCISCO BUESA GIRALTE                                                               00000000049N
0820030512210722000205201ANA MARIA ACIN SAMPIETRO                                                              00000000054N
0820030512210722001210704ROBERTO PALACIOS SANZ                                                                 00000000107S
0820030512210722001210704JUAN LEANDRO TORRICO MONTENEGRO                                                       00000000105S
0820030512210722001210704HORACIO PALACIO SESE                                                                  00000000116S
0820030512210722001210704ANTONIO JOAQUIN NERIN VIÑUALES                                                        00000000100S
0820030512210922000108201SILVINO ORUS ALLUE                                                                    00000000106S
0820030512210922000108201MIGUEL ANGEL LACASTA LOBEZ                                                            00000000084N
0820030512210922000108201JOSE MARIA RASO MURO                                                                  00000000062N
0820030512210922000108201GABRIEL CARLOS ALLUE RAMON                                                            00000000075N
0820030512210922000209802MANUEL LARROSA ESCARTIN                                                               00000000093S
0820030512210922000209802JOAQUIN PUYUELO GIAS                                                                  00000000102S
0820030512210922001212902MIGUEL BELLOSTA LARDIES                                                               00000000125S
0820030512210922001212902JAVIER PUYUELO BELLOSTA                                                               00000000132S
0820030514407744000205705MONSERRAT T. SERRANO BALLESTERO                                                       00000000039S
0820030514407744000205705MIGUEL ANGEL BOSQUE ANGLES                                                            00000000050S
0820030514407744000205705FRANCISCO SERRANO BALLESTERO                                                          00000000046S
0820030514407744000205705CARLOS ARRUFAT CELMA                                                                  00000000046S
0820030514407744000205705ANTONIO ERNESTO ARRUFAT GASCON                                                        00000000047S
0920030514408244000104801VICENTE FELIPE GONZALEZ CASAS                                                         00000000048S
0920030514408244000200400TRINIDAD NEGRO MARCO                                                                  00000000004N
0920030514408244001200000ELOY JOSE ROMERO MIGUEL                                                               00000000000N
0820030514408444000102401RAMON VENDRELL SALVADOR                                                               00000000022N
0820030514408444000102401JESUS PRADAS GRACIA                                                                   00000000023N
0820030514408444000102401FERNANDO C. FLETA PLOU                                                                00000000028S
0820030514408444000205604SIMON EZPELETA YUS                                                                    00000000054S
0820030514408444000205604MIGUEL ROYO GRACIA                                                                    00000000059S
0820030514408444000205604FRANCISCO CABAÑERO GRACIA                                                             00000000055S
0820030514408444000205604FERNANDO ALLUEVA VAL                                                                  00000000056S
0820030514408444001200400RICARDO RUIZ ANTEQUERA                                                                00000000004N
0920030514408544000103701MARCOS GARZON SANCHEZ                                                                 00000000037S
0820030514410944000103401VICENTE DOMINGO RODILLA                                                               00000000022N
0820030514410944000103401RAUL NOVELLA MORALES                                                                  00000000035N
0820030514410944000103401JAIME GRANEL LARREA                                                                   00000000040S
0820030514410944000103401FELICIANO MORALES GARCIA                                                              00000000040N
0820030514410944000205904JUAN DOMINGO LOZANO GARCIA                                                            00000000057S
0820030514410944000205904BENITO LACASA FRIAS                                                                   00000000064S
0820030514410944000205904ANGEL GIL LARREA                                                                      00000000054S
0820030514410944000205904ANDRES BARRERA JORDAN                                                                 00000000060S
0820030514410944001203200SUSANA GOMEZ PONZ                                                                     00000000032N
0920030514411044000102501MARIA ORTEGA LACASA                                                                   00000000025S
0920030514411044000200100ISIDORO CRISTOBAL ROCHE                                                               00000000001N
0920030514411044001200800ANGEL ANADON ANADON                                                                   00000000008N
0820030514411144000102500MARIANO CLAVERIA PASCUAL                                                              00000000023N
0820030514411144000102500JULIAN CIRUGEDA ANDRES                                                                00000000031N
0820030514411144000102500JOSE NAVARRO BALFAGON                                                                 00000000024N
0820030514411144000102500FAUSTINO V. CIRUGEDA SALVADOR                                                         00000000022N
0820030514411144000203302JOSE LUIS FERRER ARANDIA                                                              00000000034S
0820030514411144000203302JAVIER ESCRICHE ARANDIA                                                               00000000032S
0820030514411144000301500JOSE LUIS IRISARRI IBAÑEZ                                                             00000000015N
0820030514411144001203802VALENTINA M. FERRER ARANDIA                                                           00000000043S
0820030514411144001203802JUAN ANTONIO FERRER ARANDIA                                                           00000000032S
0820030514411144010303401TOMAS ESCRICHE ARANDIA                                                                00000000034S
0820030514411344000203304PEDRO VILLANUEVA SALVADOR                                                             00000000033S
0820030514411344000203304MIGUEL VILLANUEVA MOR                                                                 00000000033S
0820030514411344000203304FERNANDO VILLANUEVA FORTEA                                                            00000000031S
0820030514411344000203304FCO.JAVIER GARCIA FLORIS                                                              00000000033S
0820030514411344001201201NURIA MARIA OTERO FERNANDEZ                                                           00000000012N
0820030514411344001201201LIDIA GARCIA REMON                                                                    00000000011N
0920030512216822000202301M. ANTONIA ARNAL ESPINOSA                                                             00000000023S
0920030512212222000100100MARIA JOSEFA GAVIN CLAVER                                                             00000000001N
0920030512212222000204301MIGUEL DEL RIO LABORDA                                                                00000000043S
0820030512219022000102401JOSE ANTONIO CASTILLO LANAU                                                           00000000022N
0820030512219022000102401JOAQUIN SOLANO LAFUERZA                                                               00000000020N
0820030512219022000102401JOAQUIN CORONAS FUMANAL                                                               00000000023N
