031986061049002000009002TANDRES GARCIA LORCA                                                         000000000000000000N
031986061049019000009019TJUAN-PEDRO GEA GUERRERO                                                     000000000000000000N
031986061049021000009021TMANUEL ARQUEROS OROZCO                                                      000000000000000000S
031986061049001000015001TAMOS JURADO ALBACETE                                                        000000000000000000N
031986061049010000015010TCRISTOBAL GARCIA RAMIREZ                                                    000000000000000000N
031986061049022000015022TMARIA-DOLORES GONZALEZ GONZALEZ                                             000000000000000000N
031986061049012000027012TELEUTERIO VILCHEZ PARDO                                                     000000000000000000N
031986061049014000027014TENRIQUE PEREZ FERNANDEZ                                                     000000000000000000N
031986061049027000027027TPASCUAL GAZQUEZ MILAN                                                       000000000000000000N
031986061049003000030003TANTONIO FERNANDEZ SAEZ                                                      000000000000000000N
031986061049004000035004TANTONIO MAQUEDA DIAZ                                                        000000000000000000N
031986061049007000035007TANTONIO NIETO MARQUEZ                                                       000000000000000000N
031986061049024000035024TMARIANO SANCHEZ HERNANDEZ                                                   000000000000000000N
031986061049015000036015TFERNANDO MOLERO GARZON                                                      000000000000000000N
031986061049023000036023TMARIA-LORETO FERNANDEZ-NIETO FERNANDEZ                                      000000000000000000N
031986061049025000036025TMIGUEL-FERNANDO GARCES TERCERO                                              000000000000000000N
031986061049020000048020TLIDIA SANCHEZ ROJAS                                                         000000000000000000N
031986061049017000050017TGERONIMO PARRILLA VILLEGAS                                                  000000000000000000N
031986061049018000050018TGINES FERNANDEZ SANCHEZ                                                     000000000000000000N
031986061049026000050026TNICOLAS LOPEZ ALEMAN                                                        000000000000000000N
031986061049005000060005TANTONIO MARESCA GARCIA-ESTELLER                                             000000000000000000S
031986061049008000060008TBLAS DIAZ BONILLO                                                           000000000000000000S
031986061049013000060013TELOY-JESUS LOPEZ MIRALLES                                                   000000000000000000S
031986061049006000061006TANTONIO MORENO COBOS                                                        000000000000000000N
031986061049011000061011TDIEGO SANCHEZ LOPEZ                                                         000000000000000000N
031986061049016000061016TFRANCISCO FRANCO PUERTA                                                     000000000000000000N
031986061049009000064009TCIRO BALLESTER ALARTE                                                       000000000000000000N
031986061119009000009009TENRIQUE GONZALEZ VAELLO                                                     000000000000000000N
031986061119013000009013TJAVIER CAMARA EGUINOA                                                       000000000000000000S
031986061119025000009025TMANUEL DURIO SILONIZ                                                        000000000000000000N
031986061119022000015022TJOSE VAZQUEZ BENITEZ                                                        000000000000000000N
031986061119023000015023TJOSEFA PEÑUELAS DUCH                                                        000000000000000000N
031986061119031000015031TRAMON COZAR PEREZ                                                           000000000000000000N
031986061119008000027008TDIEGO LUCENA FRANCO                                                         000000000000000000N
031986061119019000027019TJOSE NIETO FERNANDEZ                                                        000000000000000000N
031986061119020000027020TJOSE PUENTE GARCIA                                                          000000000000000000N
031986061119018000030018TJOSE MENA ORTEGA                                                            000000000000000000N
031986061119026000030026TMANUEL ESPINAR GALAN                                                        000000000000000000N
031986061119029000030029TRAFAEL RIVERO GUTIERREZ                                                     000000000000000000N
031986061119007000035007TCARMEN DURAN OÑA                                                            000000000000000000N
031986061119014000035014TJESUS SANBERNARDINO NOLASCO                                                 000000000000000000N
031986061119017000035017TJOSE LUIS PEÑA POCES                                                        000000000000000000N
031986061119021000036021TJOSE SAEZ BALAGUE                                                           000000000000000000N
031986061119027000036027TMANUEL GALLEGO RONCERO                                                      000000000000000000N
031986061119032000036032TSEBASTIAN ROMERO GONZALEZ                                                   000000000000000000N
031986061119028000048028TMARIA BELEN GIMENEZ BERMEJO                                                 000000000000000000N
031986061119006000050006TBALTASAR ORTEGA MOLINA                                                      000000000000000000N
031986061119011000050011TFRANCISCO MACIAS JARILLO                                                    000000000000000000N
031986061119016000050016TJOSE BLAZQUEZ SANCHEZ                                                       000000000000000000N
031986061119010000060010TFRANCISCO ARIAS SOLIS                                                       000000000000000000S
031986061119012000060012TJAIME PEREZ-LLORCA RODRIGO                                                  000000000000000000S
031986061119030000060030TRAFAEL ROMAN GUERRERO                                                       000000000000000000S
031986061119001000061001TANA MARIA RODRIGUEZ FUNES                                                   000000000000000000N
031986061119003000061003TANTONIO LOPEZ LOPEZ                                                         000000000000000000N
031986061119005000061005TARMANDO APARICIO CASTILLO                                                   000000000000000000N
031986061119002000064002TANDRES SANCHEZ DE MEDINA                                                    000000000000000000N
031986061119004000069004TANTONIO SANCHEZ DIAZ                                                        000000000000000000N
031986061119015000069015TJOSE ANTONIO MALLOU DIAZ                                                    000000000000000000N
031986061119024000069024TLUIS VILLANEGO FERNANDEZ                                                    000000000000000000N
031986061149001000009001TANTONIO AGUILAR CRUZ                                                        000000000000000000S
031986061149007000009007TFERNANDO DE CASTRO Y GONZALEZ DE CANALES                                    000000000000000000N
031986061149008000009008TFRANCISCO DE ASIS CHACON VILLAFRANCA                                        000000000000000000N
031986061149017000015017TJOSE MOYANO GUZMAN                                                          000000000000000000N
031986061149023000015023TRAFAEL CARRASCO CAAMAÑO                                                     000000000000000000N
031986061149024000015024TRAFAEL CASTEJON MARTINEZ                                                    000000000000000000N
031986061149019000027019TJUAN GIMENO BOLASELL                                                        000000000000000000N
031986061149002000030002TANTONIO JIMENEZ COSTILLA                                                    000000000000000000N
031986061149021000030021TLEONARDO RODRIGUEZ GARCIA                                                   000000000000000000N
031986061149026000030026TRAFAEL GARCIA CONTRERAS                                                     000000000000000000N
031986061149018000035018TJOSE SERRANO NAVARRO                                                        000000000000000000N
031986061149022000035022TMARIA DEL CARMEN LOPEZ MARTINEZ                                             000000000000000000N
031986061149025000035025TRAFAEL DIAZ LUCENA                                                          000000000000000000N
031986061149011000036011TJESUS ABELARDO BAREA GRANADOS                                               000000000000000000N
031986061149015000036015TJOSE LORENZO AIRES REY                                                      000000000000000000N
031986061149027000036027TRAFAEL PEREZ MOLINA                                                         000000000000000000N
031986061149006000048006TFELICIDAD HERNANDEZ GONZALEZ                                                000000000000000000N
031986061149004000050004TCARLOS VALVERDE CASTILLA                                                    000000000000000000N
031986061149010000050010TISABEL FERNANDEZ CARBALLO                                                   000000000000000000N
031986061149016000050016TJOSE MARIA LUCENA AGUILAR-TABLADA                                           000000000000000000N
031986061149005000060005TDIEGO ALONSO COLACIOS                                                       000000000000000000S
031986061149013000060013TJOAQUIN MARTINEZ BJORKMAN                                                   000000000000000000S
031986061149020000060020TJULIAN SANTIAGO BUJALANCE                                                   000000000000000000S
031986061149003000061003TBRUNO GALINDO GUEVARA                                                       000000000000000000N
031986061149009000061009TFRANCISCO IBAÑEZ MANZANO                                                    000000000000000000N
031986061149012000061012TJESUS ANTONIO SERRANO GARIJO                                                000000000000000000N
031986061149014000064014TJOSE ANTONIO SORIANO TOMAS                                                  000000000000000000N
031986061189009000009009TFRANCISCO ANGEL JIMENEZ CARMONA                                             000000000000000000N
031986061189019000009019TJOSE TORRES HURTADO                                                         000000000000000000S
031986061189028000009028TPEDRO MONTAÑES ESCOBAR                                                      000000000000000000N
031986061189006000015006TENRIQUE OVIEDO MARTIN                                                       000000000000000000N
031986061189008000015008TEVARISTO ROBLES VIZCAINO                                                    000000000000000000N
031986061189010000015010TFRANCISCO CABALLERO LORITE                                                  000000000000000000N
031986061189011000020011TFRANCISCO DANIEL OLVERA HODAR                                               000000000000000000N
031986061189015000020015TJOSE GARCIA HISPAN                                                          000000000000000000N
031986061189020000020020TJUAN ANTONIO MALDONADO DEL CASTILLO                                         000000000000000000N
031986061189002000027002TANTONIO MARTINEZ HITA                                                       000000000000000000N
031986061189005000027005TEDUARDO CASTILLO RUIZ                                                       000000000000000000N
031986061189025000027025TMANUEL CONTRERAS BOLIVAR                                                    000000000000000000N
031986061189023000030023TJULIO MINGUEZ GONZALEZ                                                      000000000000000000N
031986061189027000030027TMARIA LUISA MONTES HURTADO                                                  000000000000000000N
031986061189031000030031TRAFAEL HUESO CARRION                                                        000000000000000000N
031986061189017000035017TJOSE LUIS ALBERTO LOPEZ                                                     000000000000000000N
031986061189021000035021TJUAN ANTONIO MORENO VILCHEZ                                                 000000000000000000N
031986061189026000035026TMANUEL LOPEZ MARTIN                                                         000000000000000000N
031986061189007000036007TEUGENIO MIGUEL AGUILAR PEREZ                                                000000000000000000N
031986061189013000036013TFRANCISCO SANCHEZ LOPEZ                                                     000000000000000000N
031986061189014000036014TJOSE ALVAREZ PAYAN                                                          000000000000000000N
031986061189018000050018TJOSE SALAZAR GARCIA                                                         000000000000000000N
031986061189024000050024TLUIS GONZALEZ AFAN DE RIVERA                                                000000000000000000N
031986061189029000050029TRAFAEL DIAZ MEDINA                                                          000000000000000000N
031986061189016000060016TJOSE GARCIA LADRON DE GUEVARA                                               000000000000000000S
031986061189022000060022TJUAN CUENCA DOBLADO                                                         000000000000000000S
031986061189030000060030TRAFAEL ESTRELLA PEDROLA                                                     000000000000000000S
031986061189001000061001TANTONIO MARTIN OLID                                                         000000000000000000N
031986061189004000061004TCONCEPCION BAENA MUÑOZ                                                      000000000000000000N
031986061189012000061012TFRANCISCO MORENO HIDALGO                                                    000000000000000000N
031986061189003000064003TANTONIO MIRAGAYA RAFALES                                                    000000000000000000N
031986061219009000009009TEMILIANO SANZ ESCALERA                                                      000000000000000000S
031986061219010000009010TFELIPE MARTINEZ DE ACUÑA                                                    000000000000000000N
031986061219012000009012TFRANCISCO CAMPOS CORDON                                                     000000000000000000N
031986061219001000015001TALFONSO CARLOS FERNANDEZ ABDESELAM                                          000000000000000000N
031986061219005000015005TANTONIO DIAZ GOMEZ                                                          000000000000000000N
031986061219020000015020TJUAN CARLOS LAGARES FLORES                                                  000000000000000000N
031986061219015000027015TJOSE A. SUTIL MARIN                                                         000000000000000000N
031986061219022000027022TJUAN-JOSE MARTIN GOMEZ                                                      000000000000000000N
031986061219003000030003TANDRES ARROYO FERNANDEZ                                                     000000000000000000N
031986061219011000030011TFERNANDO SORIANO RODRIGUEZ                                                  000000000000000000N
031986061219027000030027TVICENTE CHAPARRO GONZALEZ                                                   000000000000000000N
031986061219004000035004TANTONIO BORRERO ESCUDERO                                                    000000000000000000N
031986061219008000035008TELIPIO ALFARO DIAZ                                                          000000000000000000N
031986061219021000035021TJUAN-FRANCISCO CALVO GOMEZ                                                  000000000000000000N
031986061219007000036007TDOMINGO FERNANDEZ SABIDO                                                    000000000000000000N
031986061219017000036017TJOSE CARRASCO GONZALEZ                                                      000000000000000000N
031986061219024000036024TMARIANO CORREA GONZALEZ                                                     000000000000000000N
031986061219002000050002TANA MARIA RINO ESPIN                                                        000000000000000000N
031986061219018000050018TJOSE FRANCISCO RODRIGUEZ NUÑEZ                                              000000000000000000N
031986061219025000050025TMARTIN RODRIGUEZ GAMERO                                                     000000000000000000N
031986061219006000060006TANTONIO GARCIA CORREA                                                       000000000000000000S
031986061219019000060019TJOSE GONZALEZ CASTAÑAGA                                                     000000000000000000S
031986061219026000060026TTOMAS SEISDEDOS MARTIN                                                      000000000000000000S
031986061219013000061013TISMAEL GARCIA MORILLA                                                       000000000000000000N
031986061219014000061014TJORGE SILVERIO RUIZ PERALTA                                                 000000000000000000N
031986061219016000061016TJOSE CARBONELL SANCHEZ                                                      000000000000000000N
031986061219023000064023TMARIA ANGELES DUARTE VAZQUEZ                                                000000000000000000N
031986061239008000009008TEDUARDO CRIADO GARCIA                                                       000000000000000000N
031986061239019000009019TLUIS DE TORRES GOMEZ                                                        000000000000000000S
031986061239020000009020TMARIA DE LA VILLA VALERO CARRASCO                                           000000000000000000N
031986061239013000015013TJOSE LATORRE GARCIA                                                         000000000000000000N
031986061239015000015015TJOSE MARTINEZ RAMIREZ                                                       000000000000000000N
031986061239023000015023TRAFAEL MARTIN PARRA                                                         000000000000000000N
031986061239017000030017TJUAN CARMONA INFANTES                                                       000000000000000000N
031986061239001000035001TALEJANDRINA VAQUERO MORENO                                                  000000000000000000N
031986061239005000035005TANTONIO LEGAZA ZARCOS                                                       000000000000000000N
031986061239016000035016TJOSE ZAMORA RUIZ                                                            000000000000000000N
031986061239006000036006TBARTOLOME ANTERO JIMENEZ ANTONIO                                            000000000000000000N
031986061239009000036009TEDUARDO GALLARDO PEREZ                                                      000000000000000000N
031986061239022000036022TRAFAEL LOPEZ MORENO                                                         000000000000000000N
031986061239003000048003TANGELES MARTINEZ DEL MORAL                                                  000000000000000000N
031986061239004000050004TANTONIO AGUDO RODRIGUEZ                                                     000000000000000000N
031986061239007000050007TCRISTOBAL FIGUERAS GARCIA                                                   000000000000000000N
031986061239014000050014TJOSE LOPEZ LOPEZ                                                            000000000000000000N
031986061239010000060010TEMILIO ARROYO LOPEZ                                                         000000000000000000S
031986061239011000060011TFRANCISCO GARCIA VICO                                                       000000000000000000S
031986061239018000060018TJUAN ZARRIAS JAREÑO                                                         000000000000000000S
031986061239002000061002TANGEL MARTINEZ CALVENTE                                                     000000000000000000N
031986061239012000061012TFRANCISCO GERMAN MOLINA LINARES                                             000000000000000000N
031986061239021000061021TMARIA DEL ROSARIO GONZALEZ HERNANDEZ                                        000000000000000000N
031986061239024000064024TROSARIO ANA RAMIREZ RAMIREZ                                                 000000000000000000N
031986061299009000009009TENRIQUE BOLIN PEREZ-ARGEMI                                                  000000000000000000S
031986061299012000009012TILDEFONSO ARENAS PALOMO                                                     000000000000000000N
031986061299014000009014TJOSE CESPEDES CARBALLO                                                      000000000000000000N
031986061299002000015002TANA MARIA RIAÑO LOPEZ                                                       000000000000000000N
031986061299007000015007TDIEGO SALINAS ESPINAR                                                       000000000000000000N
031986061299026000015026TRAFAEL M. DE LA CRUZ MARTIN                                                 000000000000000000N
031986061299017000027017TJUAN ANTONIO HERRERA MARIN                                                  000000000000000000N
031986061299018000027018TJUAN DE LA SERNA MATEOS                                                     000000000000000000N
031986061299023000027023TMARGARITA AVILA MORENO                                                      000000000000000000N
031986061299013000030013TJOSE ANTONIO CARDENAS PEINADO                                               000000000000000000N
031986061299016000030016TJOSE PEREZ GARCIA                                                           000000000000000000N
031986061299019000030019TJUAN SANCHEZ GARCIA                                                         000000000000000000N
031986061299001000035001TALFONSO LUIS HEVIA-AZA FERNANDEZ                                            000000000000000000N
031986061299024000035024TMERCEDES MALDONADO TONDA                                                    000000000000000000N
031986061299025000035025TRAFAEL JIMENEZ MARIN                                                        000000000000000000N
031986061299003000036003TANTONIO CARLOS CHECA FAJARDO                                                000000000000000000N
031986061299011000036011TIGNACIO PEREZ DE VARGAS LOPEZ                                               000000000000000000N
031986061299021000036021TMANUEL CALVO IGLESIAS                                                       000000000000000000N
031986061299006000050006TBLAS LOPEZ RUEDA                                                            000000000000000000N
031986061299015000050015TJOSE GARCIA CASTILLO                                                        000000000000000000N
031986061299022000050022TMANUEL NUÑEZ DE CASTRO MALDONADO                                            000000000000000000N
031986061299004000060004TANTONIO GARCIA DUARTE                                                       000000000000000000S
031986061299020000060020TLUCIANO ALONSO ALONSO                                                       000000000000000000S
031986061299027000060027TRAMON GERMINAL BERNAL SOTO                                                  000000000000000000S
031986061299005000061005TANTONIO MONTES FERNANDEZ                                                    000000000000000000N
031986061299008000061008TELOISA MARTIN GONZALEZ                                                      000000000000000000N
031986061299010000064010TFRANCISCO SERRANO MARTIN                                                    000000000000000000N
031986061419012000009012TISACIO SIGUERO ZURDO                                                        000000000000000000N
031986061419016000009016TJOSE GUILLERMO GARCIA TRENADO                                               000000000000000000S
031986061419025000009025TLUIS FERNANDEZ FERNANDEZ MADRID                                             000000000000000000N
031986061419030000012030TMANUEL NAVARRO LARA                                                         000000000000000000N
031986061419034000012034TMIGUEL ANGEL MANCHON VAQUERA                                                000000000000000000N
031986061419035000012035TSANTIAGO GOMEZ SEGUI                                                        000000000000000000N
031986061419021000015021TJOSE PEREZ CRESPO                                                           000000000000000000N
031986061419024000015024TLORENZO FERNANDEZ MARTIN                                                    000000000000000000N
031986061419031000015031TMANUEL PONCE OLIAS                                                          000000000000000000N
031986061419001000020001TAGUSTIN FERNANDEZ SANTANA                                                   000000000000000000N
031986061419007000020007TENRIQUE MANUEL VALLS GIROL                                                  000000000000000000N
031986061419019000020019TJOSE MIGUEL FURRIEL BRIEVA                                                  000000000000000000N
031986061419004000027004TANTONIO DAVID LOPEZ PABLOS                                                  000000000000000000N
031986061419011000027011TFRANCISCO PACHECO VAZQUEZ                                                   000000000000000000N
031986061419014000027014TJOSE BUSTOS JIMENEZ                                                         000000000000000000N
031986061419006000030006TAURORA LEON GONZALEZ                                                        000000000000000000N
031986061419009000030009TFERNANDO VILLAMIL FERNANDEZ                                                 000000000000000000N
031986061419032000030032TMARGARITA MARIA LAVIANA CUETOS                                              000000000000000000N
031986061419005000035005TANTONIO GARCIA CANO                                                         000000000000000000N
031986061419028000035028TMANUEL GOMEZ LOBO                                                           000000000000000000N
031986061419033000035033TMIGUEL ALVAREZ NOGALES                                                      000000000000000000N
031986061419017000036017TJOSE JULIO RUIZ MORENO                                                      000000000000000000N
031986061419018000036018TJOSE MARIA DE LOS SANTOS LOPEZ                                              000000000000000000N
031986061419022000036022TJUAN CARLOS AGUILAR MORENO                                                  000000000000000000N
031986061419020000048020TJOSE NARVAEZ PEDRERA                                                        000000000000000000N
031986061419003000050003TANDRES LIMON JIMENEZ                                                        000000000000000000N
031986061419015000050015TJOSE FELIX MARTIN MACHUCA                                                   000000000000000000N
031986061419027000050027TMANUEL ANSELMO FRANCO LEON                                                  000000000000000000N
031986061419002000060002TANA MARIA RUIZ-TAGLE MORALES                                                000000000000000000S
031986061419010000060010TFRANCISCO MORENO FRANCO                                                     000000000000000000S
031986061419026000060026TM.AMPARO RUBIALES TORREJON                                                  000000000000000000S
031986061419013000061013TJOSE ALONSO FERNANDEZ                                                       000000000000000000N
031986061419023000061023TJULIO MARTIN PEREZ                                                          000000000000000000N
031986061419029000061029TMANUEL IZQUIERDO RUIZ                                                       000000000000000000N
031986061419008000064008TENRIQUE MUÑOZ SANCHIS                                                       000000000000000000N
031986061229002000009002TANTONIO FAJARNES MONTANER                                                   000000000000000000S
031986061229006000009006TFERNANDO GARCIA MONGAY                                                      000000000000000000N
031986061229010000009010TJOSE ANTONIO ORTIZ OLALLA                                                   000000000000000000N
031986061229013000015013TJOSE MARIA LABORDA POLO                                                     000000000000000000N
031986061229017000015017TMANUEL BORRUEL NUÑEZ                                                        000000000000000000N
031986061229023000015023TVICENTE BALDELLOU MARTINEZ                                                  000000000000000000N
031986061229009000030009TJAVIER SAEZ BARRAO                                                          000000000000000000N
031986061229022000030022TSIXTO-LUIS AGUDO GONZALEZ                                                   000000000000000000N
031986061229024000030024TVICTOR RINCON PIZARRO                                                       000000000000000000N
031986061229003000035003TANTONIO TOMAS JIMENO MARCO                                                  000000000000000000N
031986061229019000035019TMIGUEL-ANGEL BASARTE OSCARI                                                 000000000000000000N
031986061229021000035021TPEDRO ABADIA RUBIO                                                          000000000000000000N
031986061229007000039007TFLORENCIO NADAL ESCALONA                                                    000000000000000000N
031986061229014000039014TJOSE MARIA MORERA ARGERICH                                                  000000000000000000N
031986061229016000039016TLUIS GIMENEZ BUESA                                                          000000000000000000N
031986061229001000048001TANGEL LOPEZ BUENO RAMIREZ DE ARELLANO                                       000000000000000000N
031986061229020000048020TNICOLAS-JORGE ECHEVARRIA ALTO                                               000000000000000000N
031986061229012000050012TJOSE LUIS RUBIO GRACIA                                                      000000000000000000N
031986061229015000050015TLUIS GALICIA BERGES                                                         000000000000000000N
031986061229018000050018TMANUEL LOZANO MARTINEZ                                                      000000000000000000N
031986061229004000060004TERNESTO BARINGO JORDAN                                                      000000000000000000S
031986061229005000060005TFERNANDO ELBOJ BROTO                                                        000000000000000000S
031986061229008000060008TFRANCISCO JORDAN DE URRIES SENANTE                                          000000000000000000S
031986061229011000064011TJOSE FERNANDO BENITEZ MARTIN                                                000000000000000000N
031986061449007000009007TFERNANDO JOAQUIN IBAÑEZ GIMENO                                              000000000000000000N
031986061449013000009013TJOSE MARIA PASCUAL FERNANDEZ LAYOS                                          000000000000000000N
031986061449015000009015TLEOCADIO BUESO ZAERA                                                        000000000000000000S
031986061449005000015005TELOY BARRABINO TOMAS                                                        000000000000000000N
031986061449006000015006TENRIQUE MIGUEL BAYONA RICO                                                  000000000000000000N
031986061449016000015016TMARCOS NARRO LAHUERTA                                                       000000000000000000N
031986061449018000027018TPASCUAL JOSE MONTAÑES CONTE                                                 000000000000000000N
031986061449021000030021TVICENTA SOLERA MARTINEZ                                                     000000000000000000N
031986061449003000035003TCECILIO LOPEZ JIMENEZ                                                       000000000000000000N
031986061449004000035004TDIONISIO DE LA FUENTE GONZALEZ                                              000000000000000000N
031986061449008000035008TFRANCISCO FERNANDEZ RODRIGUEZ                                               000000000000000000N
031986061449014000039014TJUAN JOSE SANZ JARQUE                                                       000000000000000000N
031986061449017000039017TPABLO ANTONIO CRESPO LOPEZ                                                  000000000000000000N
031986061449020000039020TVALENTIN CALVO LOU                                                          000000000000000000N
031986061449009000050009TFRANCISCO JAVIER TENA NAVARRO                                               000000000000000000N
031986061449010000050010TJOSE LUIS LAHOZ GONZALEZ                                                    000000000000000000N
031986061449011000050011TJOSE MANUEL RAMON FALCON                                                    000000000000000000N
031986061449001000060001TALVARO DE DIEGO CRIADO                                                      000000000000000000S
031986061449012000060012TJOSE MARIA ESPONERA PASCUAL                                                 000000000000000000S
031986061449019000060019TRUFINO FOZ DEL CACHO                                                        000000000000000000S
031986061449002000064002TCASILDA LUZ APARICIO                                                        000000000000000000N
031986061509011000009011TFERNANDO HERREIZ MURUZABAL                                                  000000000000000000N
031986061509023000009023TMANUEL NIVELA VICENTE                                                       000000000000000000N
031986061509026000009026TMARIANO ALIERTA IZUEL                                                       000000000000000000S
031986061509003000015003TARMANDO GALLEGO MELENDO                                                     000000000000000000N
031986061509009000015009TFELIX PEREZ ALLOZA                                                          000000000000000000N
031986061509018000015018TJOSE LUIS DE TORRES AURED                                                   000000000000000000N
031986061509001000027001TANTONIO MIGUEL JULIAN TUREGANO                                              000000000000000000N
031986061509024000027024TMARIA ANGELES ARBIZU LESTAU                                                 000000000000000000N
031986061509028000027028TMIGUEL RIVILLA AZCUNE                                                       000000000000000000N
031986061509008000030008TEMILIO EUGENIO LACAMBRA MANZANO                                             000000000000000000N
031986061509013000030013TFRANCISCO JAVIER DELGADO ECHEVERRIA                                         000000000000000000N
031986061509019000030019TJOSE MANUEL FALCON MARTIN                                                   000000000000000000N
031986061509006000035006TELADIO MORAN GONZALEZ                                                       000000000000000000N
031986061509012000035012TFIDEL IBAÑEZ ROZAS                                                          000000000000000000N
031986061509027000035027TMIGUEL ANGEL ZAMORA ANTON                                                   000000000000000000N
031986061509007000039007TEMILIO EIROA GARCIA                                                         000000000000000000N
031986061509016000039016TJAVIER ALVO AGUADO                                                          000000000000000000N
031986061509022000039022TLUIS MARIA GARRIGA ORTIZ                                                    000000000000000000N
031986061509020000048020TLUIS ALFREDO CORREAS FORNIES                                                000000000000000000N
031986061509002000050002TANTONIO MOLINOS BUISAN                                                      000000000000000000N
031986061509005000050005TBERTA BLACHE LAVALL                                                         000000000000000000N
031986061509017000050017TJOSE LUIS ANSON MANSO                                                       000000000000000000N
031986061509004000060004TBERNARDO BAYONA AZNAR                                                       000000000000000000S
031986061509014000060014TGONZALO ARGUILE LAGUARTA                                                    000000000000000000S
031986061509021000060021TLUIS CARLOS PIQUER JIMENEZ                                                  000000000000000000S
031986061509025000064025TMARIA JESUS COLLADO BLASCO                                                  000000000000000000N
031986061509010000069010TFERNANDO DIAZ LAHOZ                                                         000000000000000000N
031986061509015000069015TGREGORIO ECHEVERRIA LITE                                                    000000000000000000N
031986061339014000009014TJOSE MARIA CASIELLES AGUADE                                                 000000000000000000S
031986061339018000009018TMANUEL VEGA-ARANGO ALVARE                                                   000000000000000000N
031986061339022000009022TOVIDIO SANCHEZ DIAZ                                                         000000000000000000N
031986061339002000015002TADOLFO CASERO ALONSO                                                        000000000000000000N
031986061339003000015003TANTONIO MANUEL GARCIA BARETTINO                                             000000000000000000N
031986061339020000015020TMARIA LUISA GARCIA ROMERO                                                   000000000000000000N
031986061339007000027007TFERNANDO ALVAREZ VILLABELLA                                                 000000000000000000N
031986061339011000027011TIGNACIO BELDERRAIN FERNANDEZ                                                000000000000000000N
031986061339013000027013TJOSE ANTONIO CALVO MIJANGOS                                                 000000000000000000N
031986061339004000030004TCARMEN ALVAREZ GARCIA                                                       000000000000000000N
031986061339005000030005TDAVID RUIZ GONZALEZ                                                         000000000000000000N
031986061339008000030008TFRANCISCO JAVIER SUAREZ SUAREZ                                              000000000000000000N
031986061339006000035006TENEDINA ALVAREZ GAYOL                                                       000000000000000000N
031986061339009000035009TFRANCISCO PRIETO MENENDEZ                                                   000000000000000000N
031986061339016000035016TJUAN CARLOS ANDRADE MUIÑA                                                   000000000000000000N
031986061339017000048017TMANUEL JIMENEZ SERRANO                                                      000000000000000000N
031986061339012000050012TINDALECIO ESTRADA LOZANO                                                    000000000000000000N
031986061339024000050024TRAMIRO FERNANDEZ ALONSO                                                     000000000000000000N
031986061339025000050025TRICARDO HUESO DE BORDEJE                                                    000000000000000000N
031986061339015000060015TJOSE RAMON HERRERO MEREDIZ                                                  000000000000000000S
031986061339021000060021TMARIA NELLY FERNANDEZ ARIAS                                                 000000000000000000S
031986061339023000060023TRAFAEL LUIS FERNANDEZ ALVAREZ                                               000000000000000000S
031986061339001000062001TADELA ELSA FERNANDEZ DIAZ                                                   000000000000000000N
031986061339010000062010THERMINIA CABAS ALVAREZ                                                      000000000000000000N
031986061339019000062019TMARIA DE LAS NIEVES GARCIA VALDES                                           000000000000000000N
031986061071003000009003TANTONIO BUADES FIOL                                                         000000000000000000S
031986061071024000009024TJOAQUIN RIBAS DE REINA                                                      000000000000000000N
031986061071005000015005TANTONIO OBRADOR SIQUIER                                                     000000000000000000N
031986061071011000015011TBARTOMEU PONT ESTERLICH                                                     000000000000000000N
031986061071015000020015TEDUARDO JAIME CONNOLLY DE PERNAS                                            000000000000000000N
031986061071035000020035TSERGIO RODRIGUEZ FARRE                                                      000000000000000000N
031986061071006000027006TANTONIO ORDINAS LLADO                                                       000000000000000000N
031986061071010000027010TBARTOLOME PIÑA FONTANET                                                     000000000000000000N
031986061071019000030019TFRANCISCO RAMON GARCIA OLIVARES                                             000000000000000000N
031986061071021000030021TGINES DIEZ GONZALEZ                                                         000000000000000000N
031986061071020000035020TFRANCOISE ESPINOSA VAUDELIN                                                 000000000000000000N
031986061071036000035036TVICENTE GASCA AGUILAR                                                       000000000000000000N
031986061071026000047026TJOSEPA REYES I SANCHEZ                                                      000000000000000000N
031986061071031000047031TNURIA MARTI I SATO                                                          000000000000000000N
031986061071032000047032TSALVADOR ARIAS I AGUIRRE                                                    000000000000000000N
031986061071029000048029TMARIA DEL CARMEN LOPEZ MENDEZ                                               000000000000000000N
031986061071008000050008TANTONIO PONS SASTRE                                                         000000000000000000N
031986061071033000050033TSANTIAGO COLL LLOMPART                                                      000000000000000000N
031986061071014000059014TDAMIA PONS PONS                                                             000000000000000000N
031986061071034000059034TSEBASTIA SERRA BUSQUETS                                                     000000000000000000N
031986061071004000060004TANTONIO GARCIAS COLL                                                        000000000000000000S
031986061071017000060017TEMILIO ALONSO SARMIENTO                                                     000000000000000000S
031986061072023000005023TJOAN LOPEZ CASASNOVAS                                                       000000000000000000N
031986061072027000009027TJUAN HUGUET ROTGER                                                          000000000000000000N
031986061072012000015012TCARLOS RICCI FABRE                                                          000000000000000000N
031986061072030000035030TMAURICIO SANTE PATON                                                        000000000000000000N
031986061072013000050013TCRISTOBAL TRIAY HUMBERT                                                     000000000000000000N
031986061072009000060009TANTONIO VILLALONGA RIUDAVETS                                                000000000000000000S
031986061073001000009001TALONSO MARI CALBET                                                          000000000000000000S
031986061073002000015002TANDRES TUELLS JUAN                                                          000000000000000000N
031986061073007000030007TANTONIO PLANELLS TUR                                                        000000000000000000N
031986061073018000035018TFIDEL ARCOS GARCIA                                                          000000000000000000N
031986061073028000050028TJUAN PANTALEONI ROSELLO                                                     000000000000000000N
031986061073022000060022TJAIME RIBAS PRATS                                                           000000000000000000N
031986061073025000064025TJOSE FRANCISCO CRESPO ALBIACH                                               000000000000000000N
031986061073016000069016TELSA GLUCK ROGG                                                             000000000000000000N
031986061351001000001001TCAMILO GUILLERMO SANCHEZ BENITEZ                                            000000000000000000N
031986061351002000007002TCARLOS BOSCH MILLARES                                                       000000000000000000N
031986061351017000007017TJOSE LUIS ALVAREZ BERMUDEZ                                                  000000000000000000N
031986061351013000009013TFRANCISCO MONZON BLANCO                                                     000000000000000000N
031986061351018000009018TJOSE MACIAS SANTANA                                                         000000000000000000S
031986061351006000015006TDIEGO JUAN SUAREZ MARRERO                                                   000000000000000000N
031986061351007000015007TDOMINGO GUILLEN REYES                                                       000000000000000000N
031986061351011000029011TFERNANDO SAGASETA CABRERA                                                   000000000000000000N
031986061351024000033024TMANUEL SUAREZ MACIAS                                                        000000000000000000N
031986061351026000033026TMARTIN PERESTELO SAN-GIL                                                    000000000000000000N
031986061351004000048004TCARMEN GONZALEZ CORTEZON                                                    000000000000000000N
031986061351005000050005TCAYETANO GONZALEZ-ROCAESPINO                                                000000000000000000N
031986061351023000050023TLUIS HERNANDEZ PEREZ                                                        000000000000000000N
031986061351003000060003TCARMELO ARTILES BOLAÑOS                                                     000000000000000000S
031986061351022000060022TJUAN RODRIGUEZ DORESTE                                                      000000000000000000S
031986061351025000064025TMARIA ROSA CUESTA SOROLLA                                                   000000000000000000N
031986061352008000001008TEDUARDO BARRETO BETANCOR                                                    000000000000000000N
031986061352028000006028TRAFAEL STINGA GONZALEZ                                                      000000000000000000N
031986061352016000029016TJOSE HERNANDEZ ALVAREZ                                                      000000000000000000N
031986061352010000050010TFERNANDO CABRERA DIAZ                                                       000000000000000000N
031986061352020000060020TJUAN RAMIREZ MONTERO                                                        000000000000000000S
031986061352027000064027TMONSERRAT CASALE SALAS                                                      000000000000000000N
031986061353015000007015TILDEFONSO CHACON NEGRIN                                                     000000000000000000N
031986061353014000008014TGERARDO MESA NODA                                                           000000000000000000S
031986061353012000009012TFRANCISCO JOSE ALONSO VALERON                                               000000000000000000N
031986061353019000050019TJOSE RAMON CASTAÑEIRA PERDOMO                                               000000000000000000N
031986061353021000060021TJUAN RAMON SOTO MORALES                                                     000000000000000000N
031986061353009000064009TESTHER CAPAFONS ROS                                                         000000000000000000N
031986061384017000001017TFELIX PEDRO GONZALEZ MARTIN                                                 000000000000000000N
031986061384031000001031TJUAN MANUEL CASTAÑEDA CONTRERAS                                             000000000000000000N
031986061384014000007014TENRIQUE FERNANDEZ CALDAS                                                    000000000000000000N
031986061384029000007029TJOSE MIGUEL GALVAN BELLO                                                    000000000000000000S
031986061384005000009005TANGEL ISIDRO GUIMERA GIL                                                    000000000000000000N
031986061384024000009024TJOSE ISMAEL RODRIGUEZ ALVAREZ                                               000000000000000000N
031986061384004000015004TANDRES OROZCO MAFFIOTTE                                                     000000000000000000N
031986061384032000015032TLEOCADIO TOLEDO TEJERA                                                      000000000000000000N
031986061384023000027023TJOSE GARCIA GONZALEZ                                                        000000000000000000N
031986061384026000027026TJOSE LUIS DE LA FUENTE GARCIA                                               000000000000000000N
031986061384003000029003TANDRES BERNARDOS CORREA                                                     000000000000000000N
031986061384042000029042TVALENTIN HERNANDEZ VAQUERO                                                  000000000000000000N
031986061384008000033008TANGELA BUENO DIAZ                                                           000000000000000000N
031986061384025000033025TJOSE LEON DIAZ RIZO                                                         000000000000000000N
031986061384020000048020TJESUS OROPESA MARTINEZ                                                      000000000000000000N
031986061384019000050019TIGNACIO GARCIA-TALAVERA LEON                                                000000000000000000N
031986061384038000050038TNICOMEDES GOMEZ PIMENTEL                                                    000000000000000000N
031986061384001000060001TALBERTO DE ARMAS GARCIA                                                     000000000000000000S
031986061384039000060039TPEDRO GUERRA CABRERA                                                        000000000000000000S
031986061384033000064033TMARIA GLORIA ATAR FEBRERO                                                   000000000000000000N
031986061384002000069002TALEJANDRO GONZALEZ RODRIGUEZ                                                000000000000000000N
031986061384035000069035TMARIA SONIA DARIAS BEAUTELL                                                 000000000000000000N
031986061385009000007009TANTONIO ANGEL CASTRO CORDOBEZ                                               000000000000000000N
031986061385021000009021TJOSE ERNESTO LUIS GONZALEZ AFONSO                                           000000000000000000S
031986061385034000015034TMARIA NIEVES MARTIN RODRIGUEZ                                               000000000000000000N
031986061385027000027027TJOSE MANUEL GONZALEZ CABEZOLA                                               000000000000000000N
031986061385037000029037TMIGUEL ANGEL PULIDO RODRIGUEZ                                               000000000000000000N
031986061385012000050012TCARLOS ANTERO SIMON MARTIN                                                  000000000000000000N
031986061385016000060016TFELIPE HERNANDEZ RODRIGUEZ                                                  000000000000000000N
031986061385041000064041TRICARD ADAN MILANES                                                         000000000000000000N
031986061386010000007010TANTONIO PLASENCIA TRUJILLO                                                  000000000000000000N
031986061386007000009007TANGEL TOME GARCIA                                                           000000000000000000N
031986061386006000029006TANGEL RAMON SUAREZ PADILLA                                                  000000000000000000N
031986061386028000050028TJOSE MANUEL MEDINA MESA                                                     000000000000000000N
031986061386040000060040TRAMON JEREZ HERRERA                                                         000000000000000000S
031986061386036000064036TMARTA BARBA CORDOMI                                                         000000000000000000N
031986061387015000009015TFEDERICO PADRON PADRON                                                      000000000000000000N
031986061387013000015013TCAYO FRANCISCO ARMAS BENITEZ                                                000000000000000000N
031986061387011000029011TAURELIO AYALA FONTE                                                         000000000000000000N
031986061387018000050018TFLORAN AVELINO EULALIO FERNANDEZ DARIAS                                     000000000000000000N
031986061387022000060022TJOSE FRANCISCO ARMAS PEREZ                                                  000000000000000000S
031986061387030000064030TJUAN BAUTISTA CORREAS                                                       000000000000000000N
031986061399002000009002TAMBROSIO CALZADA HERNANDEZ                                                  000000000000000000N
031986061399009000009009TJESUS DIAZ FERNANDEZ                                                        000000000000000000S
031986061399013000009013TJOSE ANTONIO ARCE BEZANILLA                                                 000000000000000000N
031986061399008000015008TFRANCISCO CORTES CORTES                                                     000000000000000000N
031986061399010000015010TJESUS REBOLLO ALVAREZ-AMANDI                                                000000000000000000N
031986061399025000015025TROBERTO ZATARAIN IGLESIAS                                                   000000000000000000N
031986061399011000027011TJOAQUIN ACOSTA GARCIA                                                       000000000000000000N
031986061399021000027021TPEDRO VALLES GOMEZ                                                          000000000000000000N
031986061399023000027023TPIO SANCHEZ DE COS Y SERDIO                                                 000000000000000000N
031986061399007000030007TEMILIO MARIA DE MIER PEREZ                                                  000000000000000000N
031986061399017000030017TLUIS CAMPOS SANTOS                                                          000000000000000000N
031986061399026000030026TVENANCIO DIEGO ALONSO                                                       000000000000000000N
031986061399019000034019TMARIO GUTIERREZ BARBERO                                                     000000000000000000N
031986061399012000035012TJORGE BLANCO PUENTE                                                         000000000000000000N
031986061399014000035014TJOSE LOPEZ COTERILLO                                                        000000000000000000N
031986061399022000035022TPILAR CAAMAÑO GARCIA                                                        000000000000000000N
031986061399003000048003TANA MARIA REVUELTA GONZALEZ                                                 000000000000000000N
031986061399018000048018TM. TERESA ARNAIZ SOLANA                                                     000000000000000000N
031986061399005000050005TCLARA CAMARGO GARCIA                                                        000000000000000000N
031986061399006000050006TDOMINGO FERNANDEZ GONZALEZ                                                  000000000000000000N
031986061399024000050024TRAMON MATEO MERINO                                                          000000000000000000N
031986061399001000060001TALBERTO LOPEZ FERNANDEZ                                                     000000000000000000S
031986061399015000060015TJUAN GONZALEZ BEDOYA                                                        000000000000000000S
031986061399020000060020TMAXIMINO VALLE GARMENDIA                                                    000000000000000000S
031986061399004000062004TANTONIO JAVIER SANCHEZ CASTRO                                               000000000000000000N
031986061399016000064016TJUANA AMOROS SEGURA                                                         000000000000000000N
031986061029005000009005TANTONIO GARCIA GOMEZ                                                        000000000000000000N
031986061029013000009013TJOSE ALARCON MOLINA                                                         000000000000000000S
031986061029024000009024TMARIA JOSEFA ANDUJAR TOMAS                                                  000000000000000000N
031986061029001000015001TADOLFINO PALACIOS DIAZ                                                      000000000000000000N
031986061029008000015008TFRANCISCO ANTONIO MARTINEZ CORREOSO                                         000000000000000000N
031986061029022000015022TM. DOLORES ANDUJAR TOMAS                                                    000000000000000000N
031986061029016000027016TJOSE JESUS SOTOS PEREZ                                                      000000000000000000N
031986061029014000030014TJOSE EDUARDO MARTINEZ VALERO                                                000000000000000000N
031986061029018000030018TJOSE VICENTE GIMENEZ BENITEZ                                                000000000000000000N
031986061029019000030019TJUAN ANTONIO MATA MARFIL                                                    000000000000000000N
031986061029010000035010TFRANCISCO LOPEZ ALMANSA                                                     000000000000000000N
031986061029017000035017TJOSE LOPEZ LOPEZ                                                            000000000000000000N
031986061029020000035020TJUAN MIGUEL CUENCA LOPEZ                                                    000000000000000000N
031986061029002000048002TANGEL HERNANDEZ FUENTES                                                     000000000000000000N
031986061029006000050006TANTONIO LOPEZ CANTOS                                                        000000000000000000N
031986061029007000050007TCARMEN E. IBAÑEZ MARTINEZ                                                   000000000000000000N
031986061029009000050009TFRANCISCO BENAVENTE ORCAJADA                                                000000000000000000N
031986061029003000060003TANGEL OROZCO GOMEZ                                                          000000000000000000S
031986061029004000060004TANGEL SAMUEL GALAN CANO                                                     000000000000000000S
031986061029023000060023TMANUEL ANGEL AGUILAR BELDA                                                  000000000000000000S
031986061029021000064021TJUANA VILLENA PATERNA                                                       000000000000000000N
031986061029025000066025TMIGUEL ILLAN TEOFILO                                                        000000000000000000N
031986061029011000069011TFRANCISCO NIETO MARIN                                                       000000000000000000N
031986061029012000069012TJOAQUIN RUANO GOMEZ                                                         000000000000000000N
031986061029015000069015TJOSE GARCIA MARTINEZ                                                        000000000000000000N
031986061139004000009004TAPOLONIO DIAZ DE MERA SANCHEZ DE LA NIETA                                   000000000000000000N
031986061139012000009012TJOSE-LUIS AGUILERA BERMUDEZ                                                 000000000000000000S
031986061139018000009018TPEDRO MENCHERO MARQUEZ                                                      000000000000000000N
031986061139003000015003TANTONIO CABALLERO NARANJO                                                   000000000000000000N
031986061139010000015010TJOSE ANGEL YAGUE GUILLEN                                                    000000000000000000N
031986061139023000015023TVICENTE GALLEGO ASENSIO                                                     000000000000000000N
031986061139001000027001TANDRES MARTIN SANCHEZ                                                       000000000000000000N
031986061139002000027002TANGEL-GREGORIO UBEDA CAMACHO                                                000000000000000000N
031986061139022000027022TSALVADOR SANCHEZ-HERRERA ABARCA                                             000000000000000000N
031986061139006000030006TEMILIO FERNANDEZ AGRAZ                                                      000000000000000000N
031986061139008000030008TFLORENTINO LOPEZ MONTERO                                                    000000000000000000N
031986061139011000030011TJOSE-JULIO-VICENTE-AUGUSTO SERRANO OLMEDO                                   000000000000000000N
031986061139009000035009TISABEL HUERTA PARREÑO                                                       000000000000000000N
031986061139017000035017TNICOLASA ZAMORA MARCILLA                                                    000000000000000000N
031986061139020000035020TPEDRO-PABLO JIMENEZ GARCIA                                                  000000000000000000N
031986061139019000048019TPEDRO-JUAN ROMERO SANTOFIMIA                                                000000000000000000N
031986061139014000050014TJUAN-VICENTE CABALLERO CABALLERO                                            000000000000000000N
031986061139015000050015TMANUEL BAEZA RODRIGUEZ-CARO                                                 000000000000000000N
031986061139016000050016TMARIA DEL CARMEN QUINTANILLA BARBA                                          000000000000000000N
031986061139005000060005TEMILIO CASTRO PALOMARES                                                     000000000000000000S
031986061139007000060007TFERNANDO SANZ ALONSO                                                        000000000000000000S
031986061139021000060021TROGELIO BORRAS SERRA                                                        000000000000000000S
031986061139013000064013TJOSE-LUIS RESA DELGADO                                                      000000000000000000N
031986061169004000009004TBENJAMIN DOMINGUEZ LOPEZ                                                    000000000000000000N
031986061169005000009005TGERVASIO MARTINEZ-VILLASEÑOR GARCIA                                         000000000000000000S
031986061169018000009018TPEDRO SAUGAR MUÑOZ                                                          000000000000000000N
031986061169010000015010TJOSE PUIG LOPEZ                                                             000000000000000000N
031986061169015000015015TMARIA RIANSARES GUIJARRO DOMINGUEZ                                          000000000000000000N
031986061169016000015016TNICOLAS MATEO SAHUQUILLO                                                    000000000000000000N
031986061169014000030014TMARIA LUISA GABALDON MOROTO                                                 000000000000000000N
031986061169017000030017TPABLO DIAZ HERNANDO                                                         000000000000000000N
031986061169019000030019TRAFAEL JIMENEZ CRESPO                                                       000000000000000000N
031986061169001000035001TALBERTO IBERO PAREDES                                                       000000000000000000N
031986061169008000035008TJOSE MARIA VELASCO MUÑOZ                                                    000000000000000000N
031986061169020000035020TVICENTE SOTODOSOS RUIZ                                                      000000000000000000N
031986061169002000048002TANGEL CEREZO DIAZ                                                           000000000000000000N
031986061169003000050003TARTURO BALLESTEROS OCHOA                                                    000000000000000000N
031986061169007000050007TJOAQUIN SOTOCA CASAS                                                        000000000000000000N
031986061169011000050011TJUAN JOSE GOMEZ BRIHUEGA                                                    000000000000000000N
031986061169006000060006TJAIME JIMENEZ SAIZ                                                          000000000000000000S
031986061169009000060009TJOSE MARTINEZ GUIJARRO                                                      000000000000000000S
031986061169012000060012TJULIAN CORDOBA HUERTA                                                       000000000000000000S
031986061169013000064013TJULIO CAMPOS PEYRO                                                          000000000000000000N
031986061199008000009008TFRANCISCO TOMEY GOMEZ                                                       000000000000000000S
031986061199014000009014TJOSE MARIA BRIS GALLEGO                                                     000000000000000000S
031986061199016000009016TJUAN ANTONIO DE LUNA AGUADO                                                 000000000000000000S
031986061199011000015011TIGNACIO-JOSE ANDARIAS MORIÑIGO                                              000000000000000000N
031986061199021000015021TROSA ENCARNACION VILANOVA GIL                                               000000000000000000N
031986061199023000015023TVICENTE BALDOMINOS FLORES                                                   000000000000000000N
031986061199001000027001TALBERTO MORENO MANSO                                                        000000000000000000N
031986061199009000027009TGREGORIO FERNANDEZ-GETINO GARCIA                                            000000000000000000N
031986061199010000027010TGUILLERMO REDONDO SAIZ                                                      000000000000000000N
031986061199005000030005TFERNANDO MUÑOZ LOPEZ                                                        000000000000000000N
031986061199015000030015TJOSE MARIA FERNANDEZ RODRIGUEZ                                              000000000000000000N
031986061199022000030022TSEGUNDO MARTIN CARBALLIDO                                                   000000000000000000N
031986061199003000035003TANGEL ISLA PUENTE                                                           000000000000000000N
031986061199004000035004TARSENIO VIYUELA ALONSO                                                      000000000000000000N
031986061199018000035018TMARGARITA CLAVO MARTIN                                                      000000000000000000N
031986061199006000048006TFRANCISCO GARCIA VENTURA                                                    000000000000000000N
031986061199012000050012TJOSE LUIS GARCIA SANCHO                                                     000000000000000000N
031986061199017000050017TM. MONSERRAT MADRID MARTINEZ                                                000000000000000000N
031986061199020000050020TRICARDO-JOSE GINESTAL GOMEZ                                                 000000000000000000N
031986061199002000060002TALFONSO TRILLO HERNANDO                                                     000000000000000000N
031986061199007000060007TFRANCISCO JAVIER SOLANO RODRIGUEZ                                           000000000000000000N
031986061199013000060013TJOSE LUIS ROS MAORAD                                                        000000000000000000S
031986061199019000064019TMARIA MAGDALENA PEREZ MELGAR                                                000000000000000000N
031986061459005000009005TENRIQUE PRIETO CARRASCO                                                     000000000000000000N
031986061459008000009008TFERNANDO CHUECA AGUINAGA                                                    000000000000000000S
031986061459009000009009TISIDRO DEL RIO MARTIN                                                       000000000000000000N
031986061459010000015010TJESUS AGUSTIN TERRON CANTON                                                 000000000000000000N
031986061459015000015015TJUSTINO JUAREZ DEL CERRO                                                    000000000000000000N
031986061459017000015017TMARIA DOLORES CALVO CIRUJANO                                                000000000000000000N
031986061459007000030007TFEDERICO RUFINO DE LA FUENTE DE LOS HEROS                                   000000000000000000N
031986061459014000030014TJULIO HERRERA SANZ                                                          000000000000000000N
031986061459016000030016TLUIS ALFREDO BEJAR SACRISTAN                                                000000000000000000N
031986061459004000035004TELENA GARCIA VEGA                                                           000000000000000000N
031986061459006000035006TEVELIO SELLES FERNANDEZ                                                     000000000000000000N
031986061459011000035011TJESUS VELA DE RODRIGO                                                       000000000000000000N
031986061459020000048020TRAFAEL RODRIGUEZ HERNANDEZ                                                  000000000000000000N
031986061459001000050001TADELAIDA PEREZ MORAN                                                        000000000000000000N
031986061459013000050013TJULIO GALIANO RUBIO                                                         000000000000000000N
031986061459019000050019TPAULINO ESTRADA FERNANDEZ                                                   000000000000000000N
031986061459002000060002TALFREDO ARIJA HERNANDEZ                                                     000000000000000000S
031986061459003000060003TELADIO LUJAN AGUDO                                                          000000000000000000S
031986061459018000060018TPABLO TELLO DIAZ                                                            000000000000000000S
031986061459012000064012TJUAN PUERTAS ESCUDERO                                                       000000000000000000N
031986061059007000009007TFELICIANO BLAZQUEZ SANCHEZ                                                  000000000000000000S
031986061059008000009008TFIDEL GALLINAS GONZALEZ                                                     000000000000000000N
031986061059013000009013TMARIA DEL CARMEN QUINTERO LUMBRERAS                                         000000000000000000N
031986061059001000015001TALBERTO MANUEL DORREGO GONZALEZ                                             000000000000000000S
031986061059003000015003TCELSO RODRIGUEZ LEGIDO                                                      000000000000000000S
031986061059020000015020TTIRSO TOMAS GONZALEZ                                                        000000000000000000S
031986061059002000027002TCARLOS JAVIER GALAN GUTIERREZ                                               000000000000000000N
031986061059015000030015TMAURICIO VELAYOS FRAILE                                                     000000000000000000N
031986061059016000030016TMICAELA CALLE CUSTODIA                                                      000000000000000000N
031986061059019000030019TSANTIAGO MARTIN SANCHEZ                                                     000000000000000000N
031986061059010000035010TISIDORO DE LA HOZ GONZALEZ                                                  000000000000000000N
031986061059012000035012TMARCIANO SANZ TOJERO                                                        000000000000000000N
031986061059014000035014TMARIANO PEREZ GONZALEZ                                                      000000000000000000N
031986061059004000048004TDIEGO DIAZ HERRERO                                                          000000000000000000N
031986061059005000050005TELIAS SEGUR MARTIN                                                          000000000000000000N
031986061059006000050006TEVELIO JIMENEZ JIMENEZ                                                      000000000000000000N
031986061059009000050009TIRENE J.GONZALEZ SANCHEZ                                                    000000000000000000N
031986061059011000060011TJOSE MARIA DE LA GUIA CRUZ                                                  000000000000000000N
031986061059017000060017TNICOLAS ALVAREZ ALVAREZ                                                     000000000000000000N
031986061059018000060018TRAFAEL OTERO FERNANDEZ                                                      000000000000000000N
031986061099003000009003TANTONIO VALVERDE ORTEGA                                                     000000000000000000S
031986061099017000009017TMARIANO VILLANUEVA CIRAC                                                    000000000000000000S
031986061099019000009019TVICENTE MATEOS OTERO                                                        000000000000000000S
031986061099006000015006TEVARISTO CAMARERO ARLANZON                                                  000000000000000000N
031986061099008000015008TFRANCISCO HERNANDEZ ORTEGA                                                  000000000000000000N
031986061099015000015015TMARIA PURIFICACION BUSTO SAIZ                                               000000000000000000N
031986061099001000027001TALFONSO PEREZ ENEDAGUILA                                                    000000000000000000N
031986061099002000030002TALVARO FAJARDO AUSUCUA                                                      000000000000000000N
031986061099004000030004TBERNARDO MARTINEZ MARCOS                                                    000000000000000000N
031986061099014000030014TLUIS BUSTO SALAZAR                                                          000000000000000000N
031986061099007000035007TFAUSTINO CANO SIERRA                                                        000000000000000000N
031986061099010000035010TJESUS RAMIRO NOVILLO                                                        000000000000000000N
031986061099016000035016TMARIA ROSARIO DE BLAS SANCHEZ                                               000000000000000000N
031986061099005000050005TEMILIO BLANCO NIÑO                                                          000000000000000000N
031986061099009000050009TFRANCISCO JAVIER GARCIA-ORMAECHEA Y QUERO                                   000000000000000000N
031986061099018000050018TPEDRO IGNACIO AVELLANOSA ARNAIZ                                             000000000000000000N
031986061099011000060011TJUAN JOSE LABORDA MARTIN                                                    000000000000000000S
031986061099012000060012TJULIAN SIMON ROMANILLOS                                                     000000000000000000N
031986061099013000060013TLEONISA ULL LAITA                                                           000000000000000000N
031986061249001000009001TALFONSO PRIETO PRIETO                                                       000000000000000000N
031986061249023000009023TMARIA DOLORES OTERO RODRIGUEZ DE LAS HERAS                                  000000000000000000S
031986061249027000009027TSANTIAGO TRAVIESO GIL                                                       000000000000000000N
031986061249006000015006TEMILIANO GONZALEZ FERNANDEZ                                                 000000000000000000N
031986061249011000015011TGUILLERMO TEJERINA FERNANDEZ                                                000000000000000000N
031986061249028000015028TVICENTE SIMO FERNANDEZ                                                      000000000000000000N
031986061249013000018013TJAVIER AGUAYO BLANCO                                                        000000000000000000N
031986061249025000018025TMIGUEL-ANGEL ROBLES FERNANDEZ                                               000000000000000000N
031986061249026000018026TOSCAR GARCIA PRIETO                                                         000000000000000000N
031986061249008000027008TFRANCISCO JOSE MORAN RODRIGUEZ                                              000000000000000000N
031986061249012000027012TJACINTO LAZARO GONZALEZ                                                     000000000000000000N
031986061249010000030010TGONZALO DIAZ GOMEZ                                                          000000000000000000N
031986061249014000030014TJOSE ANTONIO BALBOA DE PAZ                                                  000000000000000000N
031986061249019000030019TLAUDINO GARCIA GARCIA                                                       000000000000000000N
031986061249004000035004TCLAUDIA AUREA MARCOS ALONSO                                                 000000000000000000N
031986061249009000035009TFRANCISCO JOSE TORRES FUENTES                                               000000000000000000N
031986061249017000035017TJOSE CHICHES LOSADA                                                         000000000000000000N
031986061249022000048022TMARCELINO MOLANO HURTADO                                                    000000000000000000N
031986061249002000050002TAMABLE ALVAREZ ALVAREZ                                                      000000000000000000N
031986061249016000050016TJOSE ANTONIO LEMONCHE MARIN                                                 000000000000000000N
031986061249020000050020TMANUEL MARTINEZ CALVO                                                       000000000000000000N
031986061249003000051003TCARLOS CABAÑAS VAZQUEZ                                                      000000000000000000N
031986061249018000051018TJOSE MARIA GARCIA-OSUNA RODRIGUEZ                                           000000000000000000N
031986061249021000051021TMANUEL MATILLA PEREZ                                                        000000000000000000N
031986061249005000060005TELADIO CASTRO URIA                                                          000000000000000000S
031986061249007000060007TFERMIN CARNERO GONZALEZ                                                     000000000000000000S
031986061249024000060024TMAXIMINO BARTHE ARIAS                                                       000000000000000000S
031986061249015000062015TJOSE ANTONIO CHAPARRO PEREZ                                                 000000000000000000N
031986061349001000009001TALBERTO RUIZ-GALLARDON JIMENEZ                                              000000000000000000N
031986061349005000009005TFELIPE CALVO CALVO                                                          000000000000000000S
031986061349011000009011TJOSE LUIS LOPEZ HENARES                                                     000000000000000000S
031986061349013000015013TLEANDRO CORNEJO IBAÑEZ                                                      000000000000000000N
031986061349021000015021TMODESTO PEREZ CRESPO                                                        000000000000000000N
031986061349022000015022TPEDRO PABLO ABAD HERNAN                                                     000000000000000000N
031986061349003000027003TCARLOS FERNANDEZ ABAD                                                       000000000000000000N
031986061349019000027019TMIGUEL ANGEL GARCIA DE LA HOZ                                               000000000000000000N
031986061349009000030009TJAVIER HERNANDEZ GARCIA                                                     000000000000000000N
031986061349012000030012TJULIO RASCON QUIRCE                                                         000000000000000000N
031986061349018000030018TMARIANO SAN MARTIN MENA                                                     000000000000000000N
031986061349002000035002TANTONIO PEREZ SALDAÑA                                                       000000000000000000N
031986061349007000035007TGERMAN ROMO ALVAREZ                                                         000000000000000000N
031986061349014000035014TLUIS MARTINEZ VEGANZONES                                                    000000000000000000N
031986061349023000048023TROSA MARIA RUIZ DUÑABEITIA                                                  000000000000000000N
031986061349006000050006TFRANCISCO JAVIER SERNA GARCIA                                               000000000000000000N
031986061349010000050010TJESUS MARIA CASTRO ASENSIO                                                  000000000000000000N
031986061349015000050015TLUISA FERNANDA MARTINEZ CUADRADO                                            000000000000000000N
031986061349004000060004TEUSEBIO SANTOS DE LA MOTA                                                   000000000000000000S
031986061349008000060008THELIODORO GALLEGO CUESTA                                                    000000000000000000S
031986061349020000060020TMIGUEL RAMON VALCUENDE GONZALEZ                                             000000000000000000N
031986061349016000062016TMARIA ANGELES SANCHEZ DEL PALACIO                                           000000000000000000N
031986061349017000062017TMARIA BELEN CARMEN QUIROGA CHOCARRO                                         000000000000000000N
031986061379003000009003TCASIMIRO HERNANDEZ CALVO                                                    000000000000000000S
031986061379008000009008TEMILIO ACOSTA PIRIZ                                                         000000000000000000N
031986061379014000009014TJOSE DAVILA RODRIGUEZ                                                       000000000000000000N
031986061379002000012002TBENITO ALBERTO GUTIERREZ ALONSO                                             000000000000000000N
031986061379012000012012TFRANCISCO-JAVIER HERNANDEZ DE VEGA                                          000000000000000000N
031986061379022000012022TMANUEL-JESUS PEREZ PEREZ                                                    000000000000000000N
031986061379017000015017TJOSE-MARIA MORENO VALMISA                                                   000000000000000000N
031986061379021000015021TMANUEL-JESUS DOMINGUEZ SANCHEZ                                              000000000000000000N
031986061379024000015024TMARIA DEL ROSARIO DIEGO DIAZ SANTOS                                         000000000000000000N
031986061379010000018010TEUGENIO-JOSE GONZALEZ ALONSO                                                000000000000000000N
031986061379001000027001TARISTIDES ARIAS MANIEGA                                                     000000000000000000N
031986061379004000027004TCECILIO HERREROS UCEDA                                                      000000000000000000N
031986061379013000030013TINOCENCIO GARCIA VELASCO                                                    000000000000000000N
031986061379016000030016TJOSE NUÑEZ LARRAZ                                                           000000000000000000N
031986061379020000030020TMAGDALENA ROMO HERRERO                                                      000000000000000000N
031986061379007000035007TELOY MIGUEZ DEL CAMPO                                                       000000000000000000N
031986061379025000035025TMARIA-JOSEFA MENA MARTIN                                                    000000000000000000N
031986061379028000035028TSOFIA GAMAZO DOMINGUEZ                                                      000000000000000000N
031986061379005000048005TCRISTINA CANALI PRUNETA                                                     000000000000000000N
031986061379009000050009TEMILIO TOME ARGUESO                                                         000000000000000000N
031986061379011000050011TFERNANDO GIL NIETO                                                          000000000000000000N
031986061379019000050019TLUIS PRIETO PEDRO                                                           000000000000000000N
031986061379006000051006TELEUTERIO FERREIRA CARRETERO                                                000000000000000000N
031986061379023000051023TMARIA DEL CARMEN ESCUDERO FERNANDEZ                                         000000000000000000N
031986061379027000051027TRAFAEL DE DIEGO NUÑEZ                                                       000000000000000000N
031986061379015000060015TJOSE LUIS GONZALEZ MARCOS                                                   000000000000000000S
031986061379018000060018TJUAN JOSE REAL OLIVA                                                        000000000000000000S
031986061379026000060026TMIGUEL ANGEL QUINTANILLA FISAC                                              000000000000000000S
031986061409009000009009TJOSE CARLOS MONSALVE RODRIGUEZ                                              000000000000000000S
031986061409011000009011TJOSE MARIA HERRERO GONZALEZ                                                 000000000000000000S
031986061409015000009015TLOYOLA DE PALACIO DEL VALLE LERSUNDI                                        000000000000000000S
031986061409005000015005TFERNANDO DE PABLOS LUMBRERAS                                                000000000000000000N
031986061409014000015014TJULIO ANTONIO PEREZ ESCOBAR                                                 000000000000000000N
031986061409021000015021TTEODORO ANTONIO MARTIN MALAGON                                              000000000000000000N
031986061409008000027008TJOSE ALFONSO RUIZ JEREZ                                                     000000000000000000N
031986061409002000030002TANGEL ANTONIO IGLESIAS BERNARDO                                             000000000000000000N
031986061409003000030003TDIEGO PEÑALOSA IZUZQUIZA                                                    000000000000000000N
031986061409017000030017TMARIA TERESA HARO HERNANDEZ                                                 000000000000000000N
031986061409004000035004TDIONISIO ARROYO NUÑEZ                                                       000000000000000000N
031986061409010000035010TJOSE ESCALERA SANCHEZ                                                       000000000000000000N
031986061409019000035019TMARIANO PEREZ RODRIGUEZ                                                     000000000000000000N
031986061409001000037001TAMALIO SALVADOR ARRIBAS                                                     000000000000000000N
031986061409012000048012TJUAN ANTONIO BLASCO CARRETERO                                               000000000000000000N
031986061409007000050007TJOAQUIN DE ALBA CARMONA                                                     000000000000000000N
031986061409013000050013TJULIO ANTONIO IZQUIERDO DE PABLOS                                           000000000000000000N
031986061409018000050018TMARIA TERESA JIMENEZ HERNANDEZ                                              000000000000000000N
031986061409006000060006TJESUS BRAVO SOLANA                                                          000000000000000000N
031986061409016000060016TMANUEL AGUDIEZ CALVO                                                        000000000000000000S
031986061409020000060020TMIGUEL ANGEL TRAPERO GARCIA                                                 000000000000000000N
031986061429011000002011TFIDEL CARAZO HERNANDEZ                                                      000000000000000000N
031986061429014000002014TJOSE LUIS GARCIA ROMERO                                                     000000000000000000N
031986061429019000002019TPABLO LUIS VELILLA ALCUBILLA                                                000000000000000000N
031986061429012000009012TJAVIER GOMEZ GOMEZ                                                          000000000000000000S
031986061429015000009015TJOSE LUIS LISO MARIN                                                        000000000000000000S
031986061429017000009017TJOSE MARIA GARCIA ROYO                                                      000000000000000000S
031986061429005000015005TANDRES JORGE RUIZ AROZ                                                      000000000000000000N
031986061429008000015008TCARLOS LACARCEL LOPEZ                                                       000000000000000000N
031986061429022000015022TSANTIAGO ESCRIBANO ABAD                                                     000000000000000000N
031986061429013000027013TJESUS MARTINEZ TRILLO-FIGUEROA                                              000000000000000000N
031986061429002000030002TALEJANDRO ABAD GIL                                                          000000000000000000N
031986061429020000030020TRAFAEL CARMELO AYLAGAS MARTIN                                               000000000000000000N
031986061429023000030023TVICENTE MARTINEZ GUTIERREZ                                                  000000000000000000N
031986061429001000035001TACACIO MARTINEZ DIEZ                                                        000000000000000000N
031986061429010000035010TENRIQUE RODRIGUEZ MARGARETO                                                 000000000000000000N
031986061429016000035016TJOSE MANCHA PEREZ                                                           000000000000000000N
031986061429003000050003TALFREDO VALLEJO DE MIGUEL                                                   000000000000000000N
031986061429007000050007TANGEL ROMERO AYLAGAS                                                        000000000000000000N
031986061429018000050018TMARIA ASUNCION HERAS URIEL                                                  000000000000000000N
031986061429006000060006TANGEL MARTIN VIZCAINO                                                       000000000000000000N
031986061429009000060009TCARMELO IRIGOYEN AMO                                                        000000000000000000N
031986061429021000060021TRAMIRO CERCOS PEREZ                                                         000000000000000000S
031986061429004000064004TANA LUISA BLASCO PECO                                                       000000000000000000N
031986061479007000009007TFEDERICO SAEZ DE VERA                                                       000000000000000000N
031986061479011000009011TJOSE LUIS DE LOS MOZOS DE LOS MOZOS                                         000000000000000000S
031986061479012000009012TJOSE LUIS SAINZ GARCIA                                                      000000000000000000N
031986061479008000015008TJORGE VLADIMIRO POLIZ LAGUNA                                                000000000000000000N
031986061479015000015015TJUAN ANTONIO LOPEZ SASTRE                                                   000000000000000000N
031986061479016000015016TJUAN BARTOLOME DURAN SUAREZ                                                 000000000000000000N
031986061479017000027017TLEOPOLDO JUAN GARCIA                                                        000000000000000000N
031986061479020000027020TMARIA DE LA PALOMA GUTIERREZ MANUEL                                         000000000000000000N
031986061479021000027021TMARIANO BABON VELASCO                                                       000000000000000000N
031986061479001000030001TABEL MANUEL GARCIA GUTIERREZ                                                000000000000000000N
031986061479018000030018TLUIS VICENTE GARCIA MERINO                                                  000000000000000000N
031986061479022000030022TMARIO PEREZ ANTOLIN                                                         000000000000000000N
031986061479003000035003TALFREDO ALLUE BUIZA                                                         000000000000000000N
031986061479004000035004TANGEL NIETO RODERO                                                          000000000000000000N
031986061479006000035006TCARMEN VILLAFAÑE PEDROSA                                                    000000000000000000N
031986061479019000038019TMARIA BEGOÑA ABUJA VALLES                                                   000000000000000000N
031986061479023000048023TROSA HERNANDEZ GARCIA                                                       000000000000000000N
031986061479005000050005TBEATRIZ HERNANDEZ DANCAUSA                                                  000000000000000000N
031986061479010000050010TJOSE IGNACIO PERAL MARTINEZ                                                 000000000000000000N
031986061479013000050013TJOSE MARIA CALVO DE COCA                                                    000000000000000000N
031986061479002000060002TALFONSO MAROTO SAN SEBASTIAN                                                000000000000000000S
031986061479009000060009TJOSE CONSTANTINO NALDA GARCIA                                               000000000000000000S
031986061479014000060014TJUAN ANTONIO AREVALO SANTIAGO                                               000000000000000000S
031986061499003000009003TANGEL HERNANDEZ BENITO                                                      000000000000000000S
031986061499005000009005TCARLOS PINILLA TURIÑO                                                       000000000000000000S
031986061499014000009014TJOSE ANTONIO ABAD LOPEZ-BREA                                                000000000000000000S
031986061499001000015001TALFONSO RAMOS DE CASTRO                                                     000000000000000000N
031986061499013000015013TJESUS PEREZ LOPEZ                                                           000000000000000000N
031986061499021000015021TTOMAS VECILLA MARTIN                                                        000000000000000000N
031986061499020000018020TROMAN CASAS CABALLERO                                                       000000000000000000N
031986061499011000030011TFRANCISCO JOSE MOLINA MARTINEZ                                              000000000000000000N
031986061499012000030012TGABRIEL GUIJOSA ALLOZA                                                      000000000000000000N
031986061499017000030017TMANUEL ALONSO NOVO                                                          000000000000000000N
031986061499015000035015TJOSE ANTONIO CASTRO DE CASTRO                                               000000000000000000N
031986061499018000035018TMANUEL RODRIGUEZ CASADO                                                     000000000000000000N
031986061499022000035022TVICTORINA CAMARZANA MARTINEZ                                                000000000000000000N
031986061499006000050006TDAVID MORILLO NIETO                                                         000000000000000000N
031986061499016000050016TJUAN IGNACIO GUTIERREZ NIETO                                                000000000000000000N
031986061499019000050019TMARIA LUISA FERNANDEZ GIGANTO                                               000000000000000000N
031986061499004000051004TARCADIO LORENZO TORRES                                                      000000000000000000N
031986061499008000051008TFERNANDO DELGADO MARTIN                                                     000000000000000000N
031986061499010000051010TFRANCISCO IGLESIAS CARREÑO                                                  000000000000000000N
031986061499002000060002TANDRES LUIS CALVO                                                           000000000000000000S
031986061499007000060007TDOMINGO MAÑANES MARQUES                                                     000000000000000000N
031986061499009000060009TFRANCISCO CHICHARRO PEREZ                                                   000000000000000000N
031986061089021000009021TJOSE VALET OLLER                                                            000000000000000000N
031986061089026000009026TJUAN JOSE ISERN ARANDA                                                      000000000000000000N
031986061089028000009028TMANUEL SOLER MATEU                                                          000000000000000000N
031986061089024000012024TJOSEP PUIG I BOIX                                                           000000000000000000N
031986061089005000015005TAUGUSTO MAS BISQUERRA                                                       000000000000000000N
031986061089034000015034TPABLO LUIS VILA JIMENEZ                                                     000000000000000000N
031986061089035000015035TRAMIRO LOPEZ LOPEZ                                                          000000000000000000N
031986061089010000017010TENRIC JARDI I CASANY                                                        000000000000000000N
031986061089015000017015TJOAN CARRERAS I MARTI                                                       000000000000000000N
031986061089036000017036TRAMON TRIAS I FARGAS                                                        000000000000000000S
031986061089023000025023TJOSEP MARIA MERINO I COLL                                                   000000000000000000N
031986061089031000025031TMIQUEL PORTER I MOIX                                                        000000000000000000N
031986061089032000025032TMIQUEL RENIU I TRESSERRAS                                                   000000000000000000N
031986061089013000027013TFRANCISCO JAVIER CAMON SEGU                                                 000000000000000000N
031986061089025000027025TJUAN BALSACH AUBIACH                                                        000000000000000000N
031986061089037000027037TRICARDO VICARIO SASTRE                                                      000000000000000000N
031986061089007000035007TCARLOS JAVIER CAPDEVILA SANCHEZ                                             000000000000000000N
031986061089014000035014TFRANCISCO MARTIN DOMINGUEZ                                                  000000000000000000N
031986061089030000035030TMARIA DOLORES CHACON REINA                                                  000000000000000000N
031986061089001000040001TANTONIO ALVAREZ MENDEZ (ALVAREZ-SOLIS)                                      000000000000000000N
031986061089008000040008TCARMEN ALCALDE GARRIGA                                                      000000000000000000N
031986061089027000040027TLUIS ROMERO HUERTAS                                                         000000000000000000N
031986061089002000042002TANTONIO JIMENEZ GARCIA                                                      000000000000000000N
031986061089003000042003TANTONIO RIBERA JORDA                                                        000000000000000000N
031986061089012000042012TFRANCISCO DE A. ROBATTI HEREDIA                                             000000000000000000N
031986061089029000047029TMARIA DEL CARME SANSA I ALBERT                                              000000000000000000N
031986061089033000047033TMIQUEL SALAS I YEBRA                                                        000000000000000000N
031986061089039000047039TVICENC BALLESTER I PALLARD                                                  000000000000000000N
031986061089038000048038TSEBASTIAN GARCIA MILLAN                                                     000000000000000000N
031986061089022000049022TJOSEFA PLANES FALIP                                                         000000000000000000N
031986061089009000054009TCESAREO RODRIGUEZ-AGUILERA CONDE                                            000000000000000000S
031986061089017000054017TJOAN RAVENTOS CARNER                                                        000000000000000000S
031986061089019000054019TJORDI MARAGALL NOBLE                                                        000000000000000000S
031986061089004000055004TARTURO ALVARO VILA                                                          000000000000000000N
031986061089006000063006TCARLES RIBA ROMEVA                                                          000000000000000000N
031986061089011000063011TFELIP SOLE SABARIS                                                          000000000000000000N
031986061089018000063018TJORDI LOPEZ CAMPS                                                           000000000000000000N
031986061089020000064020TJORDINA AYATS ATAR                                                          000000000000000000N
031986061089016000066016TJOAN COMALAT AROMI                                                          000000000000000000N
031986061179015000009015TJOAQUIN DE TRINCHERIA POLO                                                  000000000000000000N
031986061179018000009018TJUSTO SANTANA RODRIGUEZ                                                     000000000000000000N
031986061179024000009024TMIGUEL VERGES SALLES                                                        000000000000000000N
031986061179027000012027TPEDRO CARBONELL MITJANS                                                     000000000000000000N
031986061179010000015010TGLORIA BARNADAS BOADA                                                       000000000000000000N
031986061179011000015011TJACINTO SAIZ GARCIA                                                         000000000000000000N
031986061179017000015017TJORDI VILA CARRERAS                                                         000000000000000000N
031986061179012000017012TJAUME CASADEMONT PERAFITA                                                   000000000000000000S
031986061179026000017026TNARCIS OLIVERAS I TERRADAS                                                  000000000000000000S
