031986061010400199ABLA                                                                                                001301300000001731000010000134900001349000000000000000000000491000007550000001200000024000009700000000000000000000N
031986061010400299ABRUCENA                                                                                            001301300000001594000010000127000001270000000000000000000000434000007250000001000000062000008940000000000000000000N
031986061010400399ADRA                                                                                                002902900000019358000170001270300012703000000000000000000003629000058170000012200000228000080000000000000000000000N
031986061010400499ALBANCHEZ                                                                                           005205200000000865000010000076400000764000000000000000000000294000003590000000200000005000004980000000000000000000N
031986061010400599ALBOLODUY                                                                                           001301300000001033000010000082700000827000000000000000000000417000005930000000300000011000006910000000000000000000N
031986061010400699ALBOX                                                                                               005205200000010321000090000682800006828000000000000000000001991000030590000003800000129000041620000000000000000000N
031986061010400799ALCOLEA                                                                                             001301300000000871000010000071200000712000000000000000000000328000004550000000500000009000005490000000000000000000N
031986061010400899ALCONTAR                                                                                            005205200000000698000010000057900000579000000000000000000000145000002850000000400000012000003830000000000000000000N
031986061010400999ALCUDIA DE MONTEAGUD                                                                                001301300000000218000010000019000000190000000000000000000000083000001000000000200000002000001260000000000000000000N
031986061010401099ALHABIA                                                                                             001301300000000885000010000066500000665000000000000000000000352000004820000000400000012000005490000000000000000000N
031986061010401199ALHAMA DE ALMERIA                                                                                   001301300000003068000030000221900002219000000000000000000000955000013890000001600000064000017210000000000000000000N
031986061010401299ALICUN                                                                                              001301300000000243000010000019000000190000000000000000000000079000001430000000200000000000001680000000000000000000N
031986061010401399ALMERIA                                                                                             001301300000153592001190010513600105136000000000000000000041529000560280000090700002654000682820000000000000000000N
031986061010401499ALMOCITA                                                                                            001301300000000217000010000019400000194000000000000000000000048000000930000000100000010000001340000000000000000000N
031986061010401599ALSODUX                                                                                             001301300000000125000010000011800000118000000000000000000000061000000760000000200000003000000820000000000000000000N
031986061010401699ANTAS                                                                                               010010000000002541000030000180900001809000000000000000000000398000006840000002200000045000011550000000000000000000N
031986061010401799ARBOLEAS                                                                                            005205200000001513000020000111300001113000000000000000000000360000005480000000000000008000007500000000000000000000N
031986061010401899ARMUÑA DE ALMANZORA                                                                                 005205200000000343000010000029000000290000000000000000000000132000001760000000200000001000002190000000000000000000N
031986061010401999BACARES                                                                                             005205200000000342000010000031400000314000000000000000000000106000001760000000500000008000002030000000000000000000N
031986061010402099BAYARCAL                                                                                            001301300000000447000010000037000000370000000000000000000000059000001450000000200000009000002030000000000000000000N
031986061010402199BAYARQUE                                                                                            005205200000000254000010000022400000224000000000000000000000057000001140000000400000004000001530000000000000000000N
031986061010402299BEDAR                                                                                               010010000000000587000010000043200000432000000000000000000000166000002300000000900000008000002980000000000000000000N
031986061010402399BEIRES                                                                                              001301300000000171000010000016700000167000000000000000000000066000000960000000000000000000001260000000000000000000N
031986061010402499BENAHADUX                                                                                           001301300000002016000020000138200001382000000000000000000000609000008750000000400000020000011540000000000000000000N
031986061010402699BENITAGLA                                                                                           001301300000000125000010000010800000108000000000000000000000050000000580000000000000001000000640000000000000000000N
031986061010402799BENIZALON                                                                                           001301300000000448000010000036100000361000000000000000000000095000001500000000400000006000001940000000000000000000N
031986061010402899BENTARIQUE                                                                                          001301300000000348000010000027900000279000000000000000000000147000001960000000100000007000002210000000000000000000N
031986061010402999BERJA                                                                                               002902900000011533000120000870200008702000000000000000000003119000046770000004400000195000059630000000000000000000N
031986061010403099CANJAYAR                                                                                            001301300000002205000030000176300001763000000000000000000000784000010170000000800000025000012270000000000000000000N
031986061010403199CANTORIA                                                                                            005205200000003406000030000272200002722000000000000000000000993000015170000001100000062000018390000000000000000000N
031986061010403299CARBONERAS                                                                                          010010000000005602000040000331800003318000000000000000000000938000016040000001900000032000022210000000000000000000N
031986061010403399CASTRO DE FILABRES                                                                                  001301300000000160000010000019000000190000000000000000000000051000000740000000000000000000001090000000000000000000N
031986061010403499COBDAR                                                                                              001301300000000305000010000031100000311000000000000000000000101000001750000000300000007000002000000000000000000000N
031986061010403599CUEVAS DEL ALMANZORA                                                                                010010000000009070000070000635600006356000000000000000000002199000033480000003500000165000043890000000000000000000N
031986061010403699CHERCOS                                                                                             005205200000000369000010000027800000278000000000000000000000115000001710000000000000004000002200000000000000000000N
031986061010403799CHIRIVEL                                                                                            005205200000002056000020000173700001737000000000000000000000486000008560000002200000049000010380000000000000000000N
031986061010403899DALIAS                                                                                              002902900000003625000050000273700002737000000000000000000001023000014640000002400000061000019050000000000000000000N
031986061010403999DARRICAL                                                                                            002902900000000388000010000045200000452000000000000000000000108000001580000000000000010000001890000000000000000000N
031986061010404199ENIX                                                                                                001301300000000240000010000022700000227000000000000000000000120000001590000000000000016000001670000000000000000000N
031986061010404399FELIX                                                                                               005205200000000685000010000057300000573000000000000000000000324000004020000000900000009000004390000000000000000000N
031986061010404499FINES                                                                                               001301300000001549000010000107300001073000000000000000000000400000005550000000400000017000008180000000000000000000N
031986061010404599FIÑANA                                                                                              001301300000002792000030000212000002120000000000000000000000821000012170000002900000046000015020000000000000000000N
031986061010404699FONDON                                                                                              001301300000001031000020000088200000882000000000000000000000322000004870000000500000023000005920000000000000000000N
031986061010404799GADOR                                                                                               010010000000002531000030000193400001934000000000000000000000919000012560000000400000039000015250000000000000000000N
031986061010404899GALLARDOS (LOS)                                                                                     010010000000001663000020000116700001167000000000000000000000434000006040000001200000023000008360000000000000000000N
031986061010404999GARRUCHA                                                                                            001301300000003756000020000246500002465000000000000000000000967000014110000002600000060000018690000000000000000000N
031986061010405099GERGAL                                                                                              001301300000001257000010000106900001069000000000000000000000409000005750000001000000030000007040000000000000000000N
031986061010405199HUECIJA                                                                                             001301300000000601000010000044700000447000000000000000000000208000003000000000500000021000003420000000000000000000N
031986061010405299HUERCAL DE ALMERIA                                                                                  005205200000003686000030000238100002381000000000000000000001018000014620000001700000057000018000000000000000000000N
031986061010405399HUERCAL-OVERA                                                                                       001301300000012745000140000924100009241000000000000000000003006000044910000006900000194000060980000000000000000000N
031986061010405499ILLAR                                                                                               001301300000000554000010000047300000473000000000000000000000277000003460000000000000007000003960000000000000000000N
031986061010405599INSTINCION                                                                                          005205200000000676000010000055400000554000000000000000000000221000003360000000200000020000004580000000000000000000N
031986061010405699LAROYA                                                                                              001301300000000172000010000013400000134000000000000000000000022000000710000000000000000000000990000000000000000000N
031986061010405799LAUJAR DE ANDARAX                                                                                   001301300000001892000020000146100001461000000000000000000000517000008600000000400000028000010740000000000000000000N
031986061010405899LIJAR                                                                                               005205200000000560000010000043100000431000000000000000000000154000002330000000300000004000003140000000000000000000N
031986061010405999LUBRIN                                                                                              010010000000002199000030000190700001907000000000000000000000708000010220000001700000035000011850000000000000000000N
031986061010406099LUCAINENA DE LAS TORRES                                                                             001301300000000702000010000057300000573000000000000000000000175000002740000000400000018000003580000000000000000000N
031986061010406199LUCAR                                                                                               005205200000000802000010000062400000624000000000000000000000197000002960000000400000016000004010000000000000000000N
031986061010406299MACAEL                                                                                              005205200000005554000050000370600003706000000000000000000001609000021240000001800000070000025750000000000000000000N
031986061010406399MARIA                                                                                               005205200000001903000030000153200001532000000000000000000000426000007870000001600000038000009280000000000000000000N
031986061010406499MOJACAR                                                                                             010010000000002839000010000130900001309000000000000000000000318000005780000000900000027000008580000000000000000000N
031986061010406599NACIMIENTO                                                                                          001301300000000603000010000057300000573000000000000000000000257000003540000000300000005000004070000000000000000000N
031986061010406699NIJAR                                                                                               001301300000012102000140000818500008185000000000000000000001823000033220000007400000164000047560000000000000000000N
031986061010406799OHANES                                                                                              001301300000000995000010000085600000856000000000000000000000311000004920000000300000023000006040000000000000000000N
031986061010406899OLULA DE CASTRO                                                                                     001301300000000250000010000025200000252000000000000000000000100000001450000000000000001000001720000000000000000000N
031986061010406999OLULA DEL RIO                                                                                       005205200000005212000040000363400003634000000000000000000001256000018710000001400000050000025790000000000000000000N
031986061010407099ORIA                                                                                                005205200000002651000040000217700002177000000000000000000000593000010720000002400000026000014160000000000000000000N
031986061010407199PADULES                                                                                             001301300000000614000010000049400000494000000000000000000000197000002750000000400000005000003750000000000000000000N
031986061010407299PARTALOA                                                                                            005205200000000490000010000042700000427000000000000000000000144000002380000000000000008000003190000000000000000000N
031986061010407399PATERNA DEL RIO                                                                                     001301300000000457000010000041400000414000000000000000000000192000002380000000000000000000002860000000000000000000N
031986061010407499PECHINA                                                                                             001301300000002090000020000148100001481000000000000000000000674000009400000001000000022000011190000000000000000000N
031986061010407599PULPI                                                                                               010010000000004161000030000288800002888000000000000000000000929000015540000002400000096000019610000000000000000000N
031986061010407699PURCHENA                                                                                            005205200000001857000030000138300001383000000000000000000000418000006920000000500000022000010180000000000000000000N
031986061010407799RAGOL                                                                                               001301300000000498000010000042000000420000000000000000000000206000002800000000200000015000003260000000000000000000N
031986061010407899RIOJA                                                                                               001301300000001172000010000095200000952000000000000000000000427000006140000000200000013000007280000000000000000000N
031986061010407999ROQUETAS DE MAR                                                                                     001301300000022122000150001407600014076000000000000000000004175000067290000016800000437000089260000000000000000000N
031986061010408099SANTA CRUZ                                                                                          001301300000000273000010000023700000237000000000000000000000106000001360000000200000004000001630000000000000000000N
031986061010408199SANTA FE DE MONDUJAR                                                                                001301300000000454000010000042000000420000000000000000000000181000002580000000100000007000003220000000000000000000N
031986061010408299SENES                                                                                               001301300000000528000010000050600000506000000000000000000000105000001780000000000000003000002140000000000000000000N
031986061010408399SERON                                                                                               005205200000003217000050000276200002762000000000000000000000858000012540000001600000057000016550000000000000000000N
031986061010408499SIERRO                                                                                              005205200000000724000010000044600000446000000000000000000000130000001900000000400000016000002460000000000000000000N
031986061010408599SOMONTIN                                                                                            005205200000000566000010000044500000445000000000000000000000197000002660000000000000006000003090000000000000000000N
031986061010408699SORBAS                                                                                              001301300000002829000060000310800003108000000000000000000000695000012290000000900000046000015980000000000000000000N
031986061010408799SUFLI                                                                                               005205200000000256000010000021700000217000000000000000000000065000001080000000100000002000001450000000000000000000N
031986061010408899TABERNAS                                                                                            001301300000003274000050000299000002990000000000000000000000983000014160000001700000034000018680000000000000000000N
031986061010408999TABERNO                                                                                             005205200000001034000010000073000000730000000000000000000000240000003550000000600000024000004390000000000000000000N
031986061010409099TAHAL                                                                                               001301300000000627000010000048800000488000000000000000000000178000002770000000000000011000003310000000000000000000N
031986061010409199TERQUE                                                                                              001301300000000526000010000041100000411000000000000000000000235000002970000000500000016000003300000000000000000000N
031986061010409299TIJOLA                                                                                              005205200000003722000040000271100002711000000000000000000000864000013840000001100000103000018120000000000000000000N
031986061010409399TURRE                                                                                               010010000000002072000010000143800001438000000000000000000000432000007150000000400000028000010320000000000000000000N
031986061010409499TURRILLAS                                                                                           001301300000000298000010000024000000240000000000000000000000051000001300000000200000004000001630000000000000000000N
031986061010409599ULEILA DEL CAMPO                                                                                    001301300000001095000010000086500000865000000000000000000000229000003650000000400000027000004750000000000000000000N
031986061010409699URRACAL                                                                                             005205200000000397000010000031700000317000000000000000000000100000001580000000200000007000002030000000000000000000N
031986061010409799VELEFIQUE                                                                                           001301300000000428000010000039700000397000000000000000000000091000001610000000100000000000002360000000000000000000N
031986061010409899VELEZ BLANCO                                                                                        005205200000002612000040000244700002447000000000000000000000780000011450000002000000113000013970000000000000000000N
031986061010409999VELEZ RUBIO                                                                                         005205200000006594000110000514300005143000000000000000000001572000025280000008000000161000032060000000000000000000N
031986061010410099VERA                                                                                                010010000000005442000060000390000003900000000000000000000001347000018260000003000000056000027230000000000000000000N
031986061010410199VIATOR                                                                                              001301300000002647000020000173500001735000000000000000000000826000010900000001200000032000014000000000000000000000N
031986061010410299VICAR                                                                                               001301300000010006000070000569900005699000000000000000000001350000025910000006600000099000035590000000000000000000N
031986061010410399ZURGENA                                                                                             005205200000002224000020000164800001648000000000000000000000517000008020000000400000037000011130000000000000000000N
031986061010490199TRES VILLA (LAS)                                                                                    000000000000000751000020000062000000620000000000000000000000263000003990000000000000005000004730000000000000000000N
031986061010490299EJIDO(EL)                                                                                           000000000000036335000260002303400023034000000000000000000006062000098390000020100000458000141350000000000000000000N
031986061010490399MOJONERA (LA)                                                                                       000000000000005057000030000290500002905000000000000000000000643000012500000003100000074000016970000000000000000000N
031986061011100199ALCALA DE LOS GAZULES                                                                               003103100000005632000080000464300004643000000000000000000001633000022600000006200000103000027880000000000000000000N
031986061011100299ALCALA DEL VALLE                                                                                    000600600000005250000040000359000003590000000000000000000001495000021880000001000000033000025050000000000000000000N
031986061011100399ALGAR                                                                                               000600600000002145000020000153700001537000000000000000000000493000006860000001700000045000008240000000000000000000N
031986061011100499ALGECIRAS                                                                                           000400400000096882000680006308200063082000000000000000000024799000349600000071200001201000397590000000000000000000N
031986061011100599ALGODONALES                                                                                         000600600000005975000060000430400004304000000000000000000001777000025350000003000000141000029260000000000000000000N
031986061011100699ARCOS DE LA FRONTERA                                                                                000600600000026781000240001673700016737000000000000000000006785000096540000017800000379000116020000000000000000000N
031986061011100799BARBATE DE FRANCO                                                                                   001501500000022047000230001508900015089000000000000000000005675000080480000013800000478000089350000000000000000000N
031986061011100899BARRIOS (LOS)                                                                                       000400400000012148000100000794000007940000000000000000000003545000048120000008700000193000056330000000000000000000N
031986061011100999BENAOC                                                                                              000600600000000503000010000036300000363000000000000000000000135000002250000002100000015000002160000000000000000000N
031986061011101099BORNOS                                                                                              000600600000007848000070000537300005373000000000000000000002321000033630000007100000118000039000000000000000000000N
031986061011101199BOSQUE (EL)                                                                                         000600600000001795000020000118000001180000000000000000000000499000006560000000900000027000008210000000000000000000N
031986061011101299CADIZ                                                                                               001201200000155299001040011706800117068000000000000000000042612000610780000170000002613000674440000000000000000000N
031986061011101399CASTELLAR DE LA FRONTERA                                                                            003303300000002121000020000151800001518000000000000000000000713000010450000000700000033000012090000000000000000000N
031986061011101499CONIL DE LA FRONTERA                                                                                001501500000014362000120000932100009321000000000000000000003163000047140000017200000213000055450000000000000000000N
031986061011101599CHICLANA DE LA FRONTERA                                                                             001501500000041677000360002598600025986000000000000000000010425000142730000035200000722000159650000000000000000000N
031986061011101699CHIPIONA                                                                                            003203200000013474000130000872600008726000000000000000000002957000046960000012000000244000059180000000000000000000N
031986061011101799ESPERA                                                                                              000600600000004195000040000278500002785000000000000000000001048000016220000002100000100000018800000000000000000000N
031986061011101899GASTOR (EL)                                                                                         000600600000002292000030000157600001576000000000000000000000697000009500000002800000035000010620000000000000000000N
031986061011101999GRAZALEMA                                                                                           000600600000002288000040000169000001690000000000000000000000601000009650000001800000045000011390000000000000000000N
031986061011102099JEREZ DE LA FRONTERA                                                                                002002000000179191001730012581200125812000000000000000000048687000711560000139100002166000804870000000000000000000N
031986061011102199JIMENA DE LA FRONTERA                                                                               003303300000008539000100000617100006171000000000000000000002842000039630000005900000104000045960000000000000000000N
031986061011102299LINEA DE LA CONCEPCION (L                                                                           003303300000058779000570004127300041273000000000000000000018396000245830000121500000817000244500000000000000000000N
031986061011102399MEDINA-SIDONIA                                                                                      003103100000015786000160001043700010437000000000000000000004730000066640000013900000153000079350000000000000000000N
031986061011102499OLVERA                                                                                              000600600000009229000100000682400006824000000000000000000002755000037990000005300000124000046610000000000000000000N
031986061011102599PATERNA DE RIVERA                                                                                   003103100000004666000040000299300002993000000000000000000001122000018140000004600000043000022020000000000000000000N
031986061011102699PRADO DEL REY                                                                                       000600600000005383000040000364600003646000000000000000000001652000022950000005300000141000026680000000000000000000N
031986061011102799PUERTO DE SANTA MARIA(EL)                                                                           002702700000060638000590004052700040527000000000000000000014954000204870000042200001176000227120000000000000000000N
031986061011102899PUERTO REAL                                                                                         002702700000026915000240001757200017572000000000000000000007623000098150000023200000408000108740000000000000000000N
031986061011102999PUERTO SERRANO                                                                                      000600600000006156000070000375500003755000000000000000000001684000023320000001700000073000027620000000000000000000N
031986061011103099ROTA                                                                                                002702700000021285000220001485800014858000000000000000000005366000076080000019900000475000084870000000000000000000N
031986061011103199SAN FERNANDO                                                                                        003103100000080057000730005223300052233000000000000000000023161000287660000074500001346000295450000000000000000000N
031986061011103299SANLUCAR DE BARRAMEDA                                                                               003203200000053017000560003577000035770000000000000000000012015000177420000048700001540000213080000000000000000000N
031986061011103399SAN ROQUE                                                                                           003303300000021459000210001410900014109000000000000000000006485000085810000014400000326000093620000000000000000000N
031986061011103499SETENIL                                                                                             000600600000003338000040000260200002602000000000000000000000908000012360000001700000031000014840000000000000000000N
031986061011103599TARIFA                                                                                              000400400000014548000180001013200010132000000000000000000003827000056800000010500000243000065150000000000000000000N
031986061011103699TORRE-ALHAQUIME                                                                                     000600600000001058000010000080100000801000000000000000000000228000003610000000600000009000004130000000000000000000N
031986061011103799TREBUJENA                                                                                           003203200000006774000070000475000004750000000000000000000002448000032890000004900000071000037110000000000000000000N
031986061011103899UBRIQUE                                                                                             000600600000017747000130001177700011777000000000000000000006107000082380000011900000257000091780000000000000000000N
031986061011103999VEJER DE LA FRONTERA                                                                                001501500000012969000130000922700009227000000000000000000002925000039960000012600000195000044380000000000000000000N
031986061011104099VILLALUENGA DEL ROSARIO                                                                             000600600000000507000010000037400000374000000000000000000000103000001720000000100000004000002220000000000000000000N
031986061011104199VILLAMARTIN                                                                                         000600600000012050000100000836700008367000000000000000000003490000049440000007800000168000059260000000000000000000N
031986061011104299ZAHARA                                                                                              000600600000001688000030000149200001492000000000000000000000508000006850000001400000027000008150000000000000000000N
031986061011400199ADAMUZ                                                                                              002102100000004580000040000327300003273000000000000000000001649000021260000001100000059000027680000000000000000000N
031986061011400299AGUILAR                                                                                             000200200000012743000120000956400009564000000000000000000004448000064010000006000000336000074570000000000000000000N
031986061011400399ALCARACEJOS                                                                                         005405400000001518000010000116500001165000000000000000000000324000006860000000800000037000008770000000000000000000N
031986061011400499ALMEDINILLA                                                                                         005505500000002812000030000221200002212000000000000000000000806000011770000002200000043000014830000000000000000000N
031986061011400599ALMODOVAR DEL RIO                                                                                   005305300000006837000060000472500004725000000000000000000002229000028690000002500000075000037160000000000000000000N
031986061011400699AÑORA                                                                                               005405400000001834000020000150400001504000000000000000000000602000009330000000000000018000010930000000000000000000N
031986061011400799BAENA                                                                                               000700700000018701000160001312400013124000000000000000000005324000077380000013000000401000091410000000000000000000N
031986061011400899BELALCAZAR                                                                                          005205200000004138000040000352600003486000000000000000000001558000020210000002100000061000023980000000000000000000N
031986061011400999BELMEZ                                                                                              005205200000004647000060000364600003646000000000000000000001661000023290000004000000117000025720000000000000000000N
031986061011401099BENAMEJI                                                                                            003803800000004614000040000349200003492000000000000000000001325000019820000002300000097000025500000000000000000000N
031986061011401199BLAZQUEZ                                                                                            005205200000000805000010000065100000651000000000000000000000271000004080000000800000022000004750000000000000000000N
031986061011401299BUJALANCE                                                                                           002102100000008864000090000659300006593000000000000000000003215000044170000005200000215000051870000000000000000000N
031986061011401399CABRA                                                                                               001301300000020134000210001512800015128000000000000000000005757000083770000025900000490000105410000000000000000000N
031986061011401499CAÑETE DE LAS TORRES                                                                                002102100000003472000020000267700002677000000000000000000001274000017490000003300000093000021010000000000000000000N
031986061011401599CARCABUEY                                                                                           005505500000003070000030000245200002452000000000000000000000986000013700000001000000075000018310000000000000000000N
031986061011401699CARDEÑA                                                                                             002102100000002210000030000169700001697000000000000000000000732000010160000000900000063000012440000000000000000000N
031986061011401799CARLOTA (LA)                                                                                        005305300000008775000120000619300006193000000000000000000002636000035520000005900000157000046790000000000000000000N
031986061011401899CARPIO (EL)                                                                                         002102100000004847000040000359900003599000000000000000000001644000023670000003500000115000028480000000000000000000N
031986061011401999CASTRO DEL RIO                                                                                      002102100000007858000090000601900006019000000000000000000002921000039890000005300000158000048120000000000000000000N
031986061011402099CONQUISTA                                                                                           005405400000000588000010000050600000506000000000000000000000193000002480000000800000004000003080000000000000000000N
031986061011402199CORDOBA                                                                                             002102100000295290002530021075500210752000000000000000000093654001291830000257000005089001472250000000000000000000N
031986061011402299DOÑA MENCIA                                                                                         001301300000005162000040000383300003833000000000000000000001766000024620000001700000070000029090000000000000000000N
031986061011402399DOS-TORRES                                                                                          005405400000002496000030000200500002005000000000000000000000866000012520000002500000060000014450000000000000000000N
031986061011402499ENCINAS REALES                                                                                      003803800000002209000020000171000001710000000000000000000000690000010950000002000000047000012870000000000000000000N
031986061011402599ESPEJO                                                                                              002102100000005173000060000344200003442000000000000000000001982000025400000001400000038000030170000000000000000000N
031986061011402699ESPIEL                                                                                              005205200000002873000030000220600002206000000000000000000001088000013090000001500000051000015560000000000000000000N
031986061011402799FERNAN NUÑEZ                                                                                        004204200000009123000090000662800006628000000000000000000003477000045040000005400000236000050890000000000000000000N
031986061011402899FUENTE LA LANCHA                                                                                    005205200000000528000010000040500000405000000000000000000000205000002600000000100000005000003150000000000000000000N
031986061011402999FUENTE OBEJUNA                                                                                      005205200000007018000100000546000005459000000000000000000002460000032940000004500000115000040060000000000000000000N
031986061011403099FUENTE PALMERA                                                                                      005305300000008964000110000605300006098000000000000000000002635000037530000004700000143000048110000000000000000000N
031986061011403199FUENTE-TOJAR                                                                                        005505500000000926000010000085600000856000000000000000000000328000004540000000200000021000005720000000000000000000N
031986061011403299GRANJUELA (LA)                                                                                      005205200000000560000010000049900000499000000000000000000000212000002760000000400000009000003220000000000000000000N
031986061011403399GUADALCAZAR                                                                                         005305300000001236000010000100400001004000000000000000000000360000005540000000600000019000007040000000000000000000N
031986061011403499GUIJO                                                                                               005405400000000527000010000047300000473000000000000000000000204000002960000000300000014000003410000000000000000000N
031986061011403599HINOJOSA DEL DUQUE                                                                                  005205200000008227000080000658700006587000000000000000000002946000041540000004800000144000043290000000000000000000N
031986061011403699HORNACHUELOS                                                                                        005305300000005258000040000368300003683000000000000000000001754000023300000001200000104000027650000000000000000000N
031986061011403799IZNAJAR                                                                                             003803800000006282000080000531000005310000000000000000000001574000022040000008500000119000030210000000000000000000N
031986061011403899LUCENA                                                                                              003803800000031035000260002156200021562000000000000000000008732000123480000026500000724000150680000000000000000000N
031986061011403999LUQUE                                                                                               000700700000003443000030000283000002830000000000000000000000828000014670000004800000084000019510000000000000000000N
031986061011404099MONTALBAN DE CORDOBA                                                                                004204200000004371000040000317200003172000000000000000000001414000021350000002100000071000025560000000000000000000N
031986061011404199MONTEMAYOR                                                                                          004204200000003686000040000269200002692000000000000000000001228000020460000001200000103000021130000000000000000000N
031986061011404299MONTILLA                                                                                            004204200000022069000200001678200016782000000000000000000007731000108050000018900000467000131980000000000000000000N
031986061011404399MONTORO                                                                                             002102100000010020000080000748700007487000000000000000000003618000046440000002900000150000056270000000000000000000N
031986061011404499MONTURQUE                                                                                           000200200000002003000020000151200001512000000000000000000000596000008280000001700000076000010430000000000000000000N
031986061011404599MORILES                                                                                             000200200000003665000030000268800002688000000000000000000001223000016070000000500000024000020450000000000000000000N
031986061011404699NUEVA-CARTEYA                                                                                       001301300000005808000050000401700004017000000000000000000001930000026970000002300000088000033040000000000000000000N
031986061011404799OBEJO                                                                                               002102100000001505000020000119500001195000000000000000000000513000006150000002200000063000007630000000000000000000N
031986061011404899PALENCIANA                                                                                          003803800000001764000020000143300001433000000000000000000000557000006900000001000000035000008700000000000000000000N
031986061011404999PALMA DEL RIO                                                                                       005305300000018561000160001334000013340000000000000000000006385000085400000007900000401000094150000000000000000000N
031986061011405099PEDRO ABAD                                                                                          002102100000003032000030000231200002312000000000000000000001098000016280000000800000024000019270000000000000000000N
031986061011405199PEDROCHE                                                                                            005405400000001942000020000167800001678000000000000000000000692000009240000001300000031000011030000000000000000000N
031986061011405299PEÑARROYA-PUEBLONUEVO                                                                               005205200000013779000140001075100010751000000000000000000004549000061670000009700000241000072820000000000000000000N
031986061011405399POSADAS                                                                                             005305300000007041000060000511500005115000000000000000000002483000033350000004900000125000038030000000000000000000N
031986061011405499POZOBLANCO                                                                                          005405400000014513000110001068300010683000000000000000000005167000075010000010500000171000086460000000000000000000N
031986061011405599PRIEGO DE CORDOBA                                                                                   005505500000020624000230001584100015870000000000000000000006123000087550000014800000402000111000000000000000000000N
031986061011405699PUENTE-GENIL                                                                                        000200200000026588000220002012100020111000000000000000000008925000123610000020100000512000145240000000000000000000N
031986061011405799RAMBLA (LA)                                                                                         004204200000007056000060000494500004945000000000000000000002579000033750000002500000202000038770000000000000000000N
031986061011405899RUTE                                                                                                003803800000010145000090000783000007830000000000000000000003052000047300000005000000266000056870000000000000000000N
031986061011405999SAN SEBASTIAN DE LOS BALL                                                                           004204200000000816000010000061700000617000000000000000000000292000003790000000900000020000004360000000000000000000N
031986061011406099SANTAELLA                                                                                           004204200000005728000050000391600003916000000000000000000001777000023590000002600000094000030530000000000000000000N
031986061011406199SANTA EUFEMIA                                                                                       005405400000001389000010000110400001104000000000000000000000490000007450000000500000013000008580000000000000000000N
031986061011406299TORRECAMPO                                                                                          005405400000001686000020000140900001409000000000000000000000556000007550000001600000037000009290000000000000000000N
031986061011406399VALENZUELA                                                                                          000700700000001695000020000137300001373000000000000000000000555000008580000003300000050000010080000000000000000000N
031986061011406499VALSEQUILLO                                                                                         005205200000000648000010000052900000529000000000000000000000234000003200000000200000009000003540000000000000000000N
031986061011406599VICTORIA (LA)                                                                                       004204200000001732000020000134900001349000000000000000000000735000009530000000900000034000011000000000000000000000N
031986061011406699VILLA DEL RIO                                                                                       002102100000007092000060000508700005087000000000000000000002408000033230000004700000185000039040000000000000000000N
031986061011406799VILLAFRANCA DE CORDOBA                                                                              002102100000003540000030000263900002639000000000000000000001183000016490000000400000040000021070000000000000000000N
031986061011406899VILLAHARTA                                                                                          005205200000000675000010000055100000551000000000000000000000292000003370000000600000010000004030000000000000000000N
031986061011406999VILLANUEVA DE CORDOBA                                                                               005405400000010443000120000855800008382000000000000000000004087000051880000006800000218000068050000000000000000000N
031986061011407099VILLANUEVA DEL DUQUE                                                                                005405400000002177000020000173700001737000000000000000000000716000010280000003100000074000011250000000000000000000N
031986061011407199VILLANUEVA DEL REY                                                                                  005205200000001415000020000134300001343000000000000000000000585000007070000000900000048000008070000000000000000000N
031986061011407299VILLARALTO                                                                                          005405400000001887000020000157800001578000000000000000000000985000011740000000300000027000012710000000000000000000N
031986061011407399VILLAVICIOSA DE CORDOBA                                                                             002102100000004319000040000333400003334000000000000000000001494000020660000003700000032000025060000000000000000000N
031986061011407499VISO (EL)                                                                                           005405400000003653000040000282300002823000000000000000000001491000019020000001000000061000021150000000000000000000N
031986061011407599ZUHEROS                                                                                             001301300000001061000010000084100000841000000000000000000000353000005370000000400000028000005940000000000000000000N
031986061011800199AGRON                                                                                               012212200000000484000010000040100000401000000000000000000000143000002070000000000000006000002480000000000000000000N
031986061011800299ALAMEDILLA                                                                                          008908900000001143000020000091900000919000000000000000000000293000003950000000300000015000005190000000000000000000N
031986061011800399ALBOLOTE                                                                                            008708700000008087000050000526200005262000000000000000000002032000030760000004000000178000038750000000000000000000N
031986061011800499ALBONDON                                                                                            014714700000001478000020000128800001288000000000000000000000419000005600000001200000025000008710000000000000000000N
031986061011800599ALBUÑAN                                                                                             008908900000000547000010000044900000449000000000000000000000124000002290000000100000012000002770000000000000000000N
031986061011800699ALBUÑOL                                                                                             014714700000005529000060000419700004197000000000000000000001284000019480000001000000064000026300000000000000000000N
031986061011800799ALBUÑUELAS                                                                                          014714700000001421000010000118400001184000000000000000000000201000004300000000300000018000006550000000000000000000N
031986061011801099ALDEIRE                                                                                             008908900000000987000010000080500000805000000000000000000000233000003600000001200000021000005060000000000000000000N
031986061011801199ALFACAR                                                                                             008708700000003056000020000235100002351000000000000000000000897000013970000001200000009000017320000000000000000000N
031986061011801299ALGARINEJO                                                                                          012212200000005188000070000450800004508000000000000000000000958000015530000004000000068000020710000000000000000000N
031986061011801399ALHAMA DE GRANADA                                                                                   012212200000006141000060000472500004725000000000000000000001735000026820000004800000210000032570000000000000000000N
031986061011801499ALHENDIN                                                                                            008708700000003361000020000238000002380000000000000000000000853000012840000002500000057000016670000000000000000000N
031986061011801599ALICUN DE ORTEGA                                                                                    008908900000000806000010000051300000513000000000000000000000229000002730000000000000000000003410000000000000000000N
031986061011801699ALMEGIJAR                                                                                           014714700000000552000010000050100000501000000000000000000000119000001980000000100000011000002820000000000000000000N
031986061011801799ALMUÑECAR                                                                                           014014000000017149000130001179200011792000000000000000000004041000064300000006600000210000077140000000000000000000N
031986061011801899ALQUIFE                                                                                             008908900000001390000010000113600001136000000000000000000000363000005950000000400000026000008150000000000000000000N
031986061011802099ARENAS DEL REY                                                                                      012212200000002167000030000177100001771000000000000000000000470000008030000000500000025000011470000000000000000000N
031986061011802199ARMILLA                                                                                             008708700000011743000050000796400007964000000000000000000002115000038760000006500000190000046720000000000000000000N
031986061011802299ATARFE                                                                                              008708700000009713000080000681600006816000000000000000000002839000041980000005300000169000038700000000000000000000N
031986061011802399BAZA                                                                                                002302300000020768000180001557800015578000000000000000000004091000062630000009300000401000075900000000000000000000N
031986061011802499BEAS DE GRANADA                                                                                     008708700000000834000010000064500000645000000000000000000000165000003240000000500000020000004310000000000000000000N
031986061011802599BEAS DE GUADIX                                                                                      008908900000000481000010000039700000397000000000000000000000101000001450000000200000006000001900000000000000000000N
031986061011802799BENALUA DE GUADIX                                                                                   008908900000003586000020000246700002467000000000000000000000795000014800000001700000052000017060000000000000000000N
031986061011802899BENALUA DE LAS VILLAS                                                                               008708700000001383000010000106800001068000000000000000000000371000006370000000400000038000007840000000000000000000N
031986061011802999BENAMAUREL                                                                                          002302300000002741000040000229100002291000000000000000000000609000009270000001400000045000013140000000000000000000N
031986061011803099BERCHULES                                                                                           014714700000001014000020000125700001257000000000000000000000370000004060000000100000021000004710000000000000000000N
031986061011803299BUBION                                                                                              014714700000000327000010000028800000288000000000000000000000062000001160000000000000001000001680000000000000000000N
031986061011803399BUSQUISTAR                                                                                          014714700000000434000010000046100000461000000000000000000000065000001300000000200000011000001810000000000000000000N
031986061011803499CACIN                                                                                               012212200000000965000020000077400000774000000000000000000000299000003970000000500000027000005280000000000000000000N
031986061011803599CADIAR                                                                                              014714700000002159000040000180300001803000000000000000000000528000008420000000500000009000010870000000000000000000N
031986061011803699CAJAR                                                                                               008708700000001623000010000112900001129000000000000000000000434000006790000000300000025000008380000000000000000000N
031986061011803799CALICASAS                                                                                           008708700000000589000010000040600000406000000000000000000000214000002740000000000000014000003350000000000000000000N
031986061011803899CAMPOTEJAR                                                                                          008708700000001461000010000109500001095000000000000000000000371000006670000000100000018000008670000000000000000000N
031986061011803999CANILES                                                                                             002302300000006109000080000543700005437000000000000000000000969000017080000004600000090000023630000000000000000000N
031986061011804099CAÑAR                                                                                               014714700000000398000010000045600000456000000000000000000000055000001050000000000000004000001450000000000000000000N
031986061011804299CAPILEIRA                                                                                           014714700000000598000010000050100000501000000000000000000000108000001800000000300000004000007410000000000000000000N
031986061011804399CARATAUNAS                                                                                          014714700000000175000010000015100000151000000000000000000000052000000700000000200000007000000810000000000000000000N
031986061011804499CASTARAS                                                                                            014714700000000366000010000036600000366000000000000000000000051000000970000000300000004000001470000000000000000000N
031986061011804599CASTILLEJAR                                                                                         002302300000002431000030000198500001985000000000000000000000485000007580000001000000036000011020000000000000000000N
031986061011804699CASTRIL                                                                                             002302300000003645000070000304300003043000000000000000000000388000008830000002800000119000012730000000000000000000N
031986061011804799CENES DE LA VEGA                                                                                    008708700000001398000010000087400000874000000000000000000000335000005070000000800000046000006330000000000000000000N
031986061011804899CIJUELA                                                                                             008708700000001177000010000083800000838000000000000000000000335000005400000000500000020000006500000000000000000000N
031986061011804999COGOLLOS DE GUADIX                                                                                  008908900000000858000010000073200000732000000000000000000000201000003350000000300000029000003990000000000000000000N
031986061011805099COGOLLOS VEGA                                                                                       008708700000001852000020000147400001474000000000000000000000585000008280000000400000065000010700000000000000000000N
031986061011805199COLOMERA                                                                                            008708700000002030000030000162200001622000000000000000000000668000009280000000500000023000012040000000000000000000N
031986061011805399CORTES DE BAZA                                                                                      002302300000003320000050000257900002579000000000000000000000692000010750000001300000033000014770000000000000000000N
031986061011805499CORTES Y GRAENA                                                                                     008908900000001009000010000083500000835000000000000000000000140000003200000000300000012000005360000000000000000000N
031986061011805699CULLAR-BAZA                                                                                         002302300000005859000070000475100004751000000000000000000001561000024460000002600000099000031410000000000000000000N
031986061011805799CULLAR-VEGA                                                                                         008708700000001420000010000105800001058000000000000000000000343000005820000001100000028000008090000000000000000000N
031986061011805999CHAUCHINA                                                                                           008708700000004009000030000286100002861000000000000000000001127000017170000000400000088000021550000000000000000000N
031986061011806199CHIMENEAS                                                                                           012212200000001633000020000134800001348000000000000000000000518000007240000000500000039000009490000000000000000000N
031986061011806299CHURRIANA DE LA VEGA                                                                                008708700000004749000020000315300003153000000000000000000001071000017370000004000000129000020590000000000000000000N
031986061011806399DARRO                                                                                               008708700000001625000010000124100001241000000000000000000000380000005710000000200000010000007690000000000000000000N
031986061011806499DEHESAS DE GUADIX                                                                                   008908900000001013000010000053100000531000000000000000000000110000002160000000600000007000002900000000000000000000N
031986061011806699DEIFONTES                                                                                           008708700000002452000020000176000001760000000000000000000000752000010110000001100000050000012300000000000000000000N
031986061011806799DIEZMA                                                                                              008708700000001125000010000083600000836000000000000000000000267000004640000000200000013000006150000000000000000000N
031986061011806899DILAR                                                                                               008708700000001299000010000102800001028000000000000000000000390000005920000000300000032000007110000000000000000000N
031986061011806999DOLAR                                                                                               008908900000000779000010000066400000664000000000000000000000322000003950000000300000024000004500000000000000000000N
031986061011807099DUDAR                                                                                               008708700000000279000010000020100000201000000000000000000000031000000600000000000000002000001390000000000000000000N
031986061011807199DURCAL                                                                                              014714700000005485000050000400500004005000000000000000000001536000023050000002700000133000028290000000000000000000N
031986061011807299ESCUZAR                                                                                             008708700000001143000010000086400000864000000000000000000000343000004500000000000000015000005180000000000000000000N
031986061011807499FERREIRA                                                                                            008908900000000453000010000040100000401000000000000000000000091000002350000000300000011000002570000000000000000000N
031986061011807699FONELAS                                                                                             008908900000001601000020000117200001172000000000000000000000274000004280000001000000021000006340000000000000000000N
031986061011807899FREILA                                                                                              002302300000001424000010000101900001019000000000000000000000282000003820000000200000011000005720000000000000000000N
031986061011807999FUENTE VAQUEROS                                                                                     008708700000003715000030000267300002673000000000000000000001169000016810000000800000032000022070000000000000000000N
031986061011808299GALERA                                                                                              002302300000001937000030000182000001820000000000000000000000489000007190000001500000054000009110000000000000000000N
031986061011808399GOBERNADOR                                                                                          008908900000000446000010000036000000360000000000000000000000139000002110000000000000006000002660000000000000000000N
031986061011808499GOJAR                                                                                               008708700000001969000010000136700001367000000000000000000000522000008560000000600000011000010660000000000000000000N
031986061011808599GOR                                                                                                 008908900000001572000020000134000001340000000000000000000000318000005660000002700000009000007530000000000000000000N
031986061011808699GORAFE                                                                                              008908900000000761000010000068100000681000000000000000000000222000003080000000200000001000003870000000000000000000N
031986061011808799GRANADA                                                                                             008708700000256073001680018561200185612000000000000000000071354001073210000268000004661001203860000000000000000000N
031986061011808899GUADAHORTUNA                                                                                        008708700000002530000030000182900001829000000000000000000000621000009680000000400000011000012970000000000000000000N
031986061011808999GUADIX                                                                                              008908900000020155000180001543100015431000000000000000000004714000071660000007100000249000090210000000000000000000N
031986061011809399GUALCHOS                                                                                            014014000000002962000020000208200002082000000000000000000000683000011320000001900000042000014510000000000000000000N
031986061011809499GUEJAR-SIERRA                                                                                       008708700000002576000030000238700002387000000000000000000000641000009680000004000000059000011780000000000000000000N
031986061011809599GUEVEJAR                                                                                            008708700000001124000010000080900000809000000000000000000000390000005610000000700000004000006640000000000000000000N
031986061011809699HUELAGO                                                                                             008908900000000764000010000066200000662000000000000000000000242000003550000000200000005000004200000000000000000000N
031986061011809799HUENEJA                                                                                             008908900000001631000030000149900001499000000000000000000000350000005610000002000000063000007660000000000000000000N
031986061011809899HUESCAR                                                                                             002302300000010333000100000758300007583000000000000000000002366000034610000004600000221000041770000000000000000000N
031986061011809999HUETOR-SANTILLAN                                                                                    008708700000001359000010000104300001043000000000000000000000430000006360000000700000040000007580000000000000000000N
031986061011810099HUETOR-TAJAR                                                                                        012212200000007469000040000530200005302000000000000000000001568000029110000007700000186000034800000000000000000000N
031986061011810199HUETOR-VEGA                                                                                         008708700000005675000040000356700003567000000000000000000001455000019830000004500000091000024090000000000000000000N
031986061011810299ILLORA                                                                                              012212200000010278000090000793100007931000000000000000000002850000043150000006600000188000053720000000000000000000N
031986061011810399ITRABO                                                                                              014014000000001200000010000101400001014000000000000000000000458000006620000000400000006000007720000000000000000000N
031986061011810599IZNALLOZ                                                                                            008708700000006912000060000498400004984000000000000000000001726000027070000001900000104000036310000000000000000000N
031986061011810799JAYENA                                                                                              012212200000001506000010000116500001165000000000000000000000400000005770000000300000010000007180000000000000000000N
031986061011810899JEREZ DEL MARQUESADO                                                                                008908900000001329000010000122900001229000000000000000000000427000006900000000400000004000008300000000000000000000N
031986061011810999JETE                                                                                                014014000000000721000010000054200000542000000000000000000000225000003200000000500000013000004260000000000000000000N
031986061011811199JUN                                                                                                 008708700000000846000010000064000000640000000000000000000000259000003970000000100000032000004540000000000000000000N
031986061011811299JUVILES                                                                                             014714700000000203000010000019500000195000000000000000000000042000000680000000100000001000000820000000000000000000N
031986061011811499LACALAHORRA                                                                                         008908900000001084000010000087300000873000000000000000000000264000004810000001600000020000005540000000000000000000N
031986061011811599LACHAR                                                                                              008708700000002100000020000148100001481000000000000000000000546000007680000000500000022000011070000000000000000000N
031986061011811699LANJARON                                                                                            014714700000004231000040000316300003163000000000000000000001177000018120000003700000119000021480000000000000000000N
031986061011811799LANTEIRA                                                                                            008908900000000787000010000066800000668000000000000000000000287000003800000000300000007000004640000000000000000000N
031986061011811999LECRIN                                                                                              014714700000002616000060000210900002109000000000000000000000841000012710000001000000041000016370000000000000000000N
031986061011812099LENTEJI                                                                                             014014000000000373000010000028900000289000000000000000000000120000001680000000100000003000002310000000000000000000N
031986061011812199LOBRAS                                                                                              014714700000000257000010000023900000239000000000000000000000041000000850000000600000002000001170000000000000000000N
031986061011812299LOJA                                                                                                012212200000020279000200001442900014432000000000000000000005946000082410000019900000607000092990000000000000000000N
031986061011812399LUGROS                                                                                              008908900000000623000010000046500000465000000000000000000000154000002240000000000000006000002690000000000000000000N
031986061011812499LUJAR                                                                                               014014000000000695000010000052000000520000000000000000000000151000002260000000000000009000003700000000000000000000N
031986061011812699MALA                                                                                                008708700000001654000010000117300001173000000000000000000000570000007180000000500000033000008040000000000000000000N
031986061011812799MARACENA                                                                                            008708700000011095000080000739800007398000000000000000000003564000048250000012200000389000052530000000000000000000N
031986061011812899MARCHAL                                                                                             008908900000000534000010000045200000452000000000000000000000135000002000000000000000003000002660000000000000000000N
031986061011813299MOCLIN                                                                                              008708700000005037000060000396200003962000000000000000000001416000021780000002700000077000028980000000000000000000N
031986061011813399MOLVIZAR                                                                                            014014000000002427000020000190500001905000000000000000000000873000012390000001300000021000014550000000000000000000N
031986061011813499MONACHIL                                                                                            008708700000003725000020000265000002650000000000000000000000884000013360000002000000112000017080000000000000000000N
031986061011813599MONTEFRIO                                                                                           012212200000008359000090000638100006381000000000000000000002164000033350000008400000218000040140000000000000000000N
031986061011813699MONTEJICAR                                                                                          008708700000003005000020000218600002186000000000000000000000878000013970000000800000032000016800000000000000000000N
031986061011813799MONTILLANA                                                                                          008708700000001415000020000113600001136000000000000000000000314000005490000000800000035000007330000000000000000000N
031986061011813899MORALEDA DE ZAFAYONA                                                                                012212200000002547000020000181200001812000000000000000000000754000010540000000400000060000012680000000000000000000N
031986061011814099MOTRIL                                                                                              014014000000044482000300002974500029745000000000000000000009671000157540000019800000643000188650000000000000000000N
031986061011814199MURTAS                                                                                              014714700000001225000020000110200001102000000000000000000000267000004500000000700000016000005540000000000000000000N
031986061011814399NIGUELAS                                                                                            014714700000001217000010000106500001065000000000000000000000448000006640000000600000040000007270000000000000000000N
031986061011814499NIVAR                                                                                               008708700000000487000010000035200000352000000000000000000000137000001870000000200000007000002740000000000000000000N
031986061011814599OGIJARES                                                                                            008708700000002921000020000181800001818000000000000000000000762000010500000001200000054000013850000000000000000000N
031986061011814699ORCE                                                                                                002302300000001626000030000152000001520000000000000000000000548000007600000002300000048000008440000000000000000000N
031986061011814799ORGIVA                                                                                              014714700000005155000050000394700003947000000000000000000001353000019360000004600000088000024200000000000000000000N
031986061011814899OTIVAR                                                                                              014014000000001213000010000094300000943000000000000000000000295000004080000000400000022000006420000000000000000000N
031986061011814999OTURA                                                                                               008708700000002209000010000160700001607000000000000000000000444000008960000001200000050000011160000000000000000000N
031986061011815099PADUL                                                                                               008708700000006056000040000452700004527000000000000000000001675000026170000000800000074000033130000000000000000000N
031986061011815199PAMPANEIRA                                                                                          014714700000000358000010000040800000408000000000000000000000082000001190000000200000005000001590000000000000000000N
031986061011815299PEDRO-MARTINEZ                                                                                      008908900000002017000030000173200001732000000000000000000000591000008540000000300000018000010380000000000000000000N
031986061011815399PELIGROS                                                                                            008708700000005275000040000350700003507000000000000000000001698000023320000001700000092000027120000000000000000000N
031986061011815499PEZA (LA)                                                                                           008908900000001740000030000134500001345000000000000000000000393000006280000000400000021000007130000000000000000000N
031986061011815799PINOS-GENIL                                                                                         008708700000000910000010000062100000621000000000000000000000285000003920000001100000024000004530000000000000000000N
031986061011815899PINOS-PUENTE                                                                                        008708700000013370000100000964100009641000000000000000000003439000055680000006300000211000072410000000000000000000N
031986061011815999PIÑAR                                                                                               008708700000001549000020000116200001162000000000000000000000411000006540000000400000024000008980000000000000000000N
031986061011816199POLICAR                                                                                             008908900000000274000010000022900000229000000000000000000000077000001250000000100000001000001510000000000000000000N
031986061011816299POLOPOS                                                                                             014714700000001387000030000106000001060000000000000000000000358000006150000001100000014000007560000000000000000000N
031986061011816399PORTUGOS                                                                                            014714700000000438000010000042200000422000000000000000000000112000001910000000600000006000002420000000000000000000N
031986061011816499PUEBLA DE DON FADRIQUE                                                                              002302300000002894000050000232500002325000000000000000000000693000011780000001700000122000014100000000000000000000N
031986061011816599PULIANAS                                                                                            008708700000002291000010000154200001542000000000000000000000414000007590000001000000038000010710000000000000000000N
031986061011816799PURULLENA                                                                                           008908900000002757000020000194100001941000000000000000000000436000008380000000300000020000012720000000000000000000N
031986061011816899QUENTAR                                                                                             008708700000001253000020000089500000895000000000000000000000246000004020000001300000052000005500000000000000000000N
031986061011817099RUBITE                                                                                              014714700000000554000010000047400000474000000000000000000000180000002270000000100000004000002780000000000000000000N
031986061011817199SALAR                                                                                               012212200000002867000030000214700002147000000000000000000000912000013520000001000000027000017220000000000000000000N
031986061011817399SALOBREÑA                                                                                           014014000000008926000060000621200006212000000000000000000002099000033700000005800000122000042490000000000000000000N
031986061011817499SANTA CRUZ DEL COMERCIO                                                                             012212200000000627000010000046400000464000000000000000000000170000002420000000000000008000003380000000000000000000N
031986061011817599SANTA FE                                                                                            008708700000011695000090000825200008252000000000000000000003254000050710000007100000156000059570000000000000000000N
031986061011817699SOPORTUJAR                                                                                          014714700000000274000010000025400000254000000000000000000000054000000750000000400000004000001170000000000000000000N
031986061011817799SORVILAN                                                                                            014714700000001025000020000077000000770000000000000000000000210000003280000000500000033000004330000000000000000000N
031986061011817899TORRE-CARDELA                                                                                       008708700000001500000010000118800001188000000000000000000000280000005970000000000000015000008340000000000000000000N
031986061011817999TORVIZCON                                                                                           014714700000001309000020000108800001088000000000000000000000304000004180000000900000031000005610000000000000000000N
031986061011818099TREVELEZ                                                                                            014714700000000877000010000072400000724000000000000000000000258000003610000000800000019000004310000000000000000000N
031986061011818199TURON                                                                                               014714700000000515000010000059700000597000000000000000000000117000001690000000000000007000002680000000000000000000N
031986061011818299UGIJAR                                                                                              014714700000003149000050000235400002354000000000000000000000706000011820000002600000053000015090000000000000000000N
031986061011818399VALOR                                                                                               014714700000001202000030000100800001008000000000000000000000275000004900000000400000044000006130000000000000000000N
031986061011818499VELEZ DE BENAUDALLA                                                                                 014014000000002630000030000200900002009000000000000000000000768000011760000000900000047000014890000000000000000000N
031986061011818599VENTAS DE HUELMA                                                                                    012212200000000777000010000060500000605000000000000000000000256000003300000000600000012000004050000000000000000000N
031986061011818799VILLANUEVA DE LAS TORRES                                                                            008908900000001118000010000079100000791000000000000000000000290000004370000000000000005000005410000000000000000000N
031986061011818899VILLANUEVA MESIA                                                                                    012212200000001814000010000132900001329000000000000000000000457000007180000001500000068000008610000000000000000000N
031986061011818999VIZNAR                                                                                              008708700000000683000010000055200000552000000000000000000000199000003040000000000000011000003810000000000000000000N
031986061011819299ZAFARRAYA                                                                                           012212200000002244000030000166800001668000000000000000000000566000010880000000100000034000013610000000000000000000N
031986061011819399ZUBIA (LA)                                                                                          008708700000007120000040000480600004806000000000000000000001811000027810000004200000120000034750000000000000000000N
031986061011819499ZUJAR                                                                                               002302300000003547000050000273500002735000000000000000000000903000013220000001300000038000017670000000000000000000N
031986061011890199TAHA (LA)                                                                                           014714700000000920000030000088800000888000000000000000000000168000002490000000700000001000004090000000000000000000N
031986061011890299VALLE (EL)                                                                                          014714700000001644000030000129100001291000000000000000000000528000007480000000200000015000008820000000000000000000N
031986061011890399NEVADA                                                                                              014714700000001599000030000135400001354000000000000000000000461000007620000001100000043000008760000000000000000000N
031986061011890499ALPUJARRA DE LA SIERRA                                                                              014714700000001484000020000127100001271000000000000000000000379000005740000001400000028000006940000000000000000000N
031986061011890599GABIAS (LAS)                                                                                        008708700000005373000050000376400003764000000000000000000001811000024060000006200000000000027910000000000000000000N
031986061011890699GUAJARES (LOS)                                                                                      014014000000001630000030000129200001292000000000000000000000505000006980000001000000016000008960000000000000000000N
031986061011890799VALLE DEL ZALABI                                                                                    008908900000002657000030000202800002028000000000000000000000687000010350000000200000142000011420000000000000000000N
031986061011890899VILLAMENA                                                                                           014714700000001168000020000088800000888000000000000000000000356000005030000000400000014000006680000000000000000000N
031986061011890999MORELABOR                                                                                           008708700000001161000020000092600000926000000000000000000000401000005700000000400000006000006860000000000000000000N
031986061011891099PINAR (EL)                                                                                          014714700000001478000020000121300001213000000000000000000000405000006350000000200000023000008110000000000000000000N
031986061011891199VEGAS DEL GENIL                                                                                     008708700000002595000030000204100002041000000000000000000000680000010150000002500000046000013680000000000000000000N
031986061011891299CUEVAS DEL CAMPO                                                                                    002302300000002588000030000196000001960000000000000000000000585000008640000002800000044000011710000000000000000000N
031986061011891399ZAGRA                                                                                               012212200000001501000020000126400001264000000000000000000000379000005300000000800000042000007630000000000000000000N
031986061012100199ALAJAR                                                                                              000700700000000908000020000074000000740000000000000000000000290000003820000000700000011000004770000000000000000000N
031986061012100299ALJARAQUE                                                                                           004104100000005390000040000329400003293000000000000000000001117000017930000004500000056000022890000000000000000000N
031986061012100399ALMENDRO (EL)                                                                                       001001000000000889000010000065500000655000000000000000000000262000003610000001100000008000004360000000000000000000N
031986061012100499ALMONASTER LA REAL                                                                                  000700700000002377000050000192600001926000000000000000000000744000009950000001100000013000012630000000000000000000N
031986061012100599ALMONTE                                                                                             005405400000014604000140001005400010037000000000000000000004124000056570000014100000268000070550000000000000000000N
031986061012100699ALOSNO                                                                                              007207200000005045000050000394900003949000000000000000000001969000024750000005000000073000027820000000000000000000N
031986061012100799ARACENA                                                                                             000700700000006331000060000480300004827000000000000000000001759000025080000007700000099000030670000000000000000000N
031986061012100899AROCHE                                                                                              000700700000003845000040000310100003101000000000000000000001115000016130000001900000095000019410000000000000000000N
031986061012100999ARROYOMOLINOS DE LEON                                                                               000700700000001320000020000104300001043000000000000000000000546000006750000001800000032000007370000000000000000000N
031986061012101099AYAMONTE                                                                                            001001000000016745000140001090300010903000000000000000000003303000048400000016100000161000059440000000000000000000N
031986061012101199BEAS                                                                                                004104100000004010000030000311500003115000000000000000000001161000019880000002400000028000025240000000000000000000N
031986061012101299BERROCAL                                                                                            007207200000000446000010000040900000409000000000000000000000184000002590000000300000007000003080000000000000000000N
031986061012101399BOLLULLOS PAR DEL CONDADO                                                                           005405400000012304000120000913100009131000000000000000000003806000055560000007700000298000063680000000000000000000N
031986061012101499BONARES                                                                                             005005000000004872000030000347600003476000000000000000000001415000022650000003700000075000028280000000000000000000N
031986061012101599CABEZAS RUBIAS                                                                                      007207200000000960000010000077100000771000000000000000000000289000003490000000800000016000003990000000000000000000N
031986061012101699CALA                                                                                                000700700000001558000020000117000001170000000000000000000000601000007620000000600000018000009070000000000000000000N
031986061012101799CALAÑAS                                                                                             007207200000005371000070000449900004499000000000000000000002163000026960000002700000090000030880000000000000000000N
031986061012101899CAMPILLO (EL)                                                                                       007207200000002912000030000223100002231000000000000000000000885000013350000003900000041000015260000000000000000000N
031986061012101999CAMPOFRIO                                                                                           000700700000000923000010000069100000691000000000000000000000226000003620000001600000018000004560000000000000000000N
031986061012102099CAÑAVERAL DE LEON                                                                                   000700700000000603000010000050800000508000000000000000000000202000002570000000100000004000002970000000000000000000N
031986061012102199CARTAYA                                                                                             004104100000009867000090000672700006727000000000000000000002409000033850000004600000110000043700000000000000000000N
031986061012102299CASTAÑO DEL ROBLEDO                                                                                 000700700000000211000010000020400000204000000000000000000000058000000970000000000000003000001430000000000000000000N
031986061012102399CERRO DE ANDEVALO (EL)                                                                              007207200000003082000050000264200002642000000000000000000001088000013690000001900000061000015720000000000000000000N
031986061012102499CORTECONCEPCION                                                                                     000700700000000724000010000060400000604000000000000000000000243000003060000001300000003000003540000000000000000000N
031986061012102599CORTEGANA                                                                                           000700700000005474000080000428600004286000000000000000000001558000020560000004500000118000025330000000000000000000N
031986061012102699CORTELAZOR                                                                                          000700700000000378000010000034600000346000000000000000000000120000001690000001000000006000001850000000000000000000N
031986061012102799CUMBRES DE EN MEDIO                                                                                 000700700000000061000010000006100000061000000000000000000000025000000380000000000000000000000510000000000000000000N
031986061012102899CUMBRES DE SAN BARTOLOME                                                                            000700700000000763000010000066500000665000000000000000000000324000004220000001100000006000004650000000000000000000N
031986061012102999CUMBRES MAYORES                                                                                     000700700000002491000040000198200001982000000000000000000000983000012510000003300000044000014350000000000000000000N
031986061012103099CHUCENA                                                                                             005405400000001914000020000149800001498000000000000000000000713000010190000002400000023000011630000000000000000000N
031986061012103199ENCINASOLA                                                                                          000700700000002431000050000220600002206000000000000000000000905000011880000001300000049000014470000000000000000000N
031986061012103299ESCACENA DEL CAMPO                                                                                  005405400000002229000020000162600001626000000000000000000000595000009760000000800000009000011990000000000000000000N
031986061012103399FUENTEHERIDOS                                                                                       000700700000000645000010000053300000533000000000000000000000257000003290000000200000001000003840000000000000000000N
031986061012103499GALAROZA                                                                                            000700700000001694000020000142300001423000000000000000000000580000007640000003700000029000006690000000000000000000N
031986061012103599GIBRALEON                                                                                           004104100000009733000100000665300006650000000000000000000002935000039130000006000000161000047240000000000000000000N
031986061012103699GRANADA DE RIO-TINTO (LA)                                                                           000700700000000225000010000018300000183000000000000000000000066000000950000000000000007000001160000000000000000000N
031986061012103799GRANADO (EL)                                                                                        001001000000000717000010000054600000546000000000000000000000183000002930000001000000006000003650000000000000000000N
031986061012103899HIGUERA DE LA SIERRA                                                                                000700700000001439000020000118300001183000000000000000000000473000006270000002200000048000007190000000000000000000N
031986061012103999HINOJALES                                                                                           000700700000000499000010000040700000407000000000000000000000136000001880000000800000007000002320000000000000000000N
