071989061010400199ABLA                                                                                                001301300000001731000010000132400001324000000000000000000000416000005560000000100000002000007860000000000000000000N
071989061010400299ABRUCENA                                                                                            001301300000001594000010000119700001197000000000000000000000309000004600000000600000001000006840000000000000000000N
071989061010400399ADRA                                                                                                002902900000019358000170001330000013300000000000000000000002069000030390000001700000031000052160000000000000000000N
071989061010400499ALBANCHEZ                                                                                           005305300000000865000010000071700000717000000000000000000000238000002760000000000000001000003970000000000000000000N
071989061010400599ALBOLODUY                                                                                           001301300000001033000010000077800000778000000000000000000000274000003790000000100000002000004970000000000000000000N
071989061010400699ALBOX                                                                                               005305300000010321000080000622300006223000000000000000000001195000018020000001100000024000031920000000000000000000N
071989061010400799ALCOLEA                                                                                             001301300000000871000010000067700000677000000000000000000000193000002860000000200000003000004300000000000000000000N
071989061010400899ALCONTAR                                                                                            005305300000000698000020000055200000552000000000000000000000137000002030000000200000001000003550000000000000000000N
071989061010400999ALCUDIA DE MONTEAGUD                                                                                001301300000000218000010000017300000173000000000000000000000056000000720000000000000000000001050000000000000000000N
071989061010401099ALHABIA                                                                                             001301300000000885000010000062800000628000000000000000000000245000003180000000000000007000004320000000000000000000N
071989061010401199ALHAMA DE ALMERIA                                                                                   001301300000003068000030000220800002208000000000000000000000578000008820000000100000008000014980000000000000000000N
071989061010401299ALICUN                                                                                              001301300000000243000010000019100000191000000000000000000000075000001150000000000000003000001540000000000000000000N
071989061010401399ALMERIA                                                                                             001301300000153592001180011066000110660000000000000000000023143000342530000040900000486000536760000000000000000000N
071989061010401499ALMOCITA                                                                                            001301300000000217000010000018500000185000000000000000000000041000000660000000200000004000001070000000000000000000N
071989061010401599ALSODUX                                                                                             001301300000000125000010000011200000112000000000000000000000029000000440000000000000001000000790000000000000000000N
071989061010401699ANTAS                                                                                               010010000000002541000030000187600001876000000000000000000000293000004610000000500000016000009730000000000000000000N
071989061010401799ARBOLEAS                                                                                            005305300000001513000010000117800001178000000000000000000000279000004100000000100000002000006380000000000000000000N
071989061010401899ARMUÑA DE ALMANZORA                                                                                 005305300000000343000010000028000000280000000000000000000000071000001220000000000000000000001870000000000000000000N
071989061010401999BACARES                                                                                             005305300000000342000010000027900000279000000000000000000000094000001390000000100000001000001930000000000000000000N
071989061010402099BAYARCAL                                                                                            001301300000000447000010000031800000318000000000000000000000043000000860000000100000000000001570000000000000000000N
071989061010402199BAYARQUE                                                                                            005305300000000254000010000021300000213000000000000000000000045000000680000000000000000000001290000000000000000000N
071989061010402299BEDAR                                                                                               010010000000000587000010000042600000426000000000000000000000105000001460000000000000000000002180000000000000000000N
071989061010402399BEIRES                                                                                              001301300000000171000010000013800000138000000000000000000000032000000470000000000000000000000790000000000000000000N
071989061010402499BENAHADUX                                                                                           001301300000002016000020000147600001476000000000000000000000382000005510000000300000008000009220000000000000000000N
071989061010402699BENITAGLA                                                                                           001301300000000125000010000010100000101000000000000000000000019000000220000000000000000000000380000000000000000000N
071989061010402799BENIZALON                                                                                           001301300000000448000010000031800000318000000000000000000000042000000640000000000000002000001120000000000000000000N
071989061010402899BENTARIQUE                                                                                          001301300000000348000010000027600000276000000000000000000000131000001540000000000000000000002070000000000000000000N
071989061010402999BERJA                                                                                               002902900000011533000120000839400008394000000000000000000001739000026340000001400000031000048340000000000000000000N
071989061010403099CANJAYAR                                                                                            001301300000002205000030000163700001637000000000000000000000546000006550000000200000003000008860000000000000000000N
071989061010403199CANTORIA                                                                                            005305300000003406000030000258600002586000000000000000000000660000009270000000000000008000015010000000000000000000N
071989061010403299CARBONERAS                                                                                          010010000000005602000050000365000003650000000000000000000000803000010530000000800000011000020180000000000000000000N
071989061010403399CASTRO FILABRES                                                                                     001301300000000160000010000013500000135000000000000000000000018000000330000000000000000000000510000000000000000000N
071989061010403499COBDAR                                                                                              001301300000000305000010000025000000250000000000000000000000082000001000000000000000000000001640000000000000000000N
071989061010403599CUEVAS DEL ALMANZORA                                                                                010010000000009070000070000644100006441000000000000000000001438000022870000001400000022000037590000000000000000000N
071989061010403699CHERCOS                                                                                             005305300000000369000010000027900000279000000000000000000000093000001290000000000000000000001950000000000000000000N
071989061010403799CHIRIVEL                                                                                            005305300000002056000020000164000001640000000000000000000000445000006430000000500000005000008380000000000000000000N
071989061010403899DALIAS                                                                                              002902900000003625000050000266800002668000000000000000000000661000009710000001000000019000015210000000000000000000N
071989061010403999DARRICAL                                                                                            002902900000000388000010000034000000340000000000000000000000059000000730000000100000000000001120000000000000000000N
071989061010404199ENIX                                                                                                001301300000000240000010000018700000187000000000000000000000068000000850000000000000000000001230000000000000000000N
071989061010404399FELIX                                                                                               001301300000000685000010000052500000525000000000000000000000214000002720000000300000002000003620000000000000000000N
071989061010404499FINES                                                                                               005305300000001549000010000112800001128000000000000000000000302000004400000000200000003000007170000000000000000000N
071989061010404599FIÑANA                                                                                              001301300000002792000030000210300002103000000000000000000000613000008210000000700000015000011970000000000000000000N
071989061010404699FONDON                                                                                              001301300000001031000010000081100000811000000000000000000000226000002660000000000000000000004350000000000000000000N
071989061010404799GADOR                                                                                               001301300000002531000020000188200001882000000000000000000000636000009210000000600000010000013460000000000000000000N
071989061010404899GALLARDOS (LOS)                                                                                     010010000000001663000020000121700001217000000000000000000000318000004250000000100000003000007520000000000000000000N
071989061010404999GARRUCHA                                                                                            010010000000003756000020000272000002720000000000000000000000581000008450000000400000009000014860000000000000000000N
071989061010405099GERGAL                                                                                              001301300000001257000010000096200000962000000000000000000000250000003190000000000000011000004830000000000000000000N
071989061010405199HUECIJA                                                                                             001301300000000601000010000046900000469000000000000000000000158000002490000000100000003000003200000000000000000000N
071989061010405299HUERCAL DE ALMERIA                                                                                  001301300000003686000030000256100002561000000000000000000000572000009230000000400000010000015610000000000000000000N
071989061010405399HUERCAL-OVERA                                                                                       005305300000012745000140000950700009507000000000000000000001949000028170000001900000023000051110000000000000000000N
071989061010405499ILLAR                                                                                               001301300000000554000010000045500000455000000000000000000000220000002770000000100000000000003730000000000000000000N
071989061010405599INSTINCION                                                                                          001301300000000676000010000052700000527000000000000000000000237000003010000000000000000000004020000000000000000000N
071989061010405699LAROYA                                                                                              005305300000000172000010000011700000117000000000000000000000031000000430000000000000000000000760000000000000000000N
071989061010405799LAUJAR DE ANDARAX                                                                                   001301300000001892000020000139200001392000000000000000000000321000005280000000600000010000008730000000000000000000N
071989061010405899LIJAR                                                                                               005305300000000560000010000043000000430000000000000000000000104000001640000000000000001000002800000000000000000000N
071989061010405999LUBRIN                                                                                              010010000000002199000030000177900001779000000000000000000000442000005850000000300000009000008090000000000000000000N
071989061010406099LUCAINENA DE LAS TORRES                                                                             001301300000000702000010000052000000520000000000000000000000127000001960000000000000004000002710000000000000000000N
071989061010406199LUCAR                                                                                               005305300000000802000010000062600000626000000000000000000000156000002300000000000000002000003780000000000000000000N
071989061010406299MACAEL                                                                                              005305300000005554000050000389200003892000000000000000000001243000016500000000700000008000023520000000000000000000N
071989061010406399MARIA                                                                                               005305300000001903000030000144000001440000000000000000000000300000004570000000100000012000007250000000000000000000N
071989061010406499MOJACAR                                                                                             010010000000002839000020000153300001533000000000000000000000363000005640000000900000005000008960000000000000000000N
071989061010406599NACIMIENTO                                                                                          001301300000000603000010000047400000474000000000000000000000141000002160000000000000000000003020000000000000000000N
071989061010406699NIJAR                                                                                               001301300000012102000160000863100008631000000000000000000001297000020350000002100000019000036730000000000000000000N
071989061010406799OHANES                                                                                              001301300000000995000010000075600000756000000000000000000000268000003440000000100000003000004800000000000000000000N
071989061010406899OLULA DE CASTRO                                                                                     001301300000000250000010000019800000198000000000000000000000068000000980000000000000004000001230000000000000000000N
071989061010406999OLULA DEL RIO                                                                                       005305300000005212000040000374500003745000000000000000000000728000010330000000400000010000019330000000000000000000N
071989061010407099ORIA                                                                                                005305300000002651000040000208000002080000000000000000000000442000007420000000600000005000011000000000000000000000N
071989061010407199PADULES                                                                                             001301300000000614000010000047600000476000000000000000000000188000002300000000000000002000003170000000000000000000N
071989061010407299PARTALOA                                                                                            005305300000000490000010000039200000392000000000000000000000094000001700000000000000000000002460000000000000000000N
071989061010407399PATERNA DEL RIO                                                                                     001301300000000457000010000035700000357000000000000000000000113000001360000000200000000000002070000000000000000000N
071989061010407499PECHINA                                                                                             001301300000002090000020000146700001467000000000000000000000374000005420000000700000003000009100000000000000000000N
071989061010407599PULPI                                                                                               010010000000004161000030000304600003046000000000000000000000609000010180000000400000013000017350000000000000000000N
071989061010407699PURCHENA                                                                                            005305300000001857000020000134700001347000000000000000000000334000005340000000200000002000008200000000000000000000N
071989061010407799RAGOL                                                                                               001301300000000498000010000037200000372000000000000000000000182000002170000000000000000000002650000000000000000000N
071989061010407899RIOJA                                                                                               001301300000001172000010000087500000875000000000000000000000269000004030000000000000000000006250000000000000000000N
071989061010407999ROQUETAS DE MAR                                                                                     001301300000022122000150001601600016016000000000000000000002329000037550000002600000030000066240000000000000000000N
071989061010408099SANTA CRUZ                                                                                          001301300000000273000010000021000000210000000000000000000000031000000480000000000000002000001060000000000000000000N
071989061010408199SANTA FE DE MONDUJAR                                                                                001301300000000454000010000036600000366000000000000000000000083000001330000000300000013000002550000000000000000000N
071989061010408299SENES                                                                                               001301300000000528000010000040500000405000000000000000000000086000001220000000000000001000001570000000000000000000N
071989061010408399SERON                                                                                               005305300000003217000040000247300002473000000000000000000000701000009910000000400000005000013890000000000000000000N
071989061010408499SIERRO                                                                                              005305300000000724000010000043300000433000000000000000000000098000001420000000000000000000002160000000000000000000N
071989061010408599SOMONTIN                                                                                            005305300000000566000010000042700000427000000000000000000000151000001970000000000000000000002870000000000000000000N
071989061010408699SORBAS                                                                                              001301300000002829000050000217300002173000000000000000000000448000006740000000200000008000011510000000000000000000N
071989061010408799SUFLI                                                                                               005305300000000256000010000020500000205000000000000000000000087000001020000000000000000000001320000000000000000000N
071989061010408899TABERNAS                                                                                            001301300000003274000050000239700002397000000000000000000000504000007480000000200000024000013770000000000000000000N
071989061010408999TABERNO                                                                                             005305300000001034000010000080500000805000000000000000000000150000002160000000300000006000003790000000000000000000N
071989061010409099TAHAL                                                                                               001301300000000627000010000045000000450000000000000000000000120000001870000000000000002000002840000000000000000000N
071989061010409199TERQUE                                                                                              001301300000000526000010000041300000413000000000000000000000181000002430000000200000008000002900000000000000000000N
071989061010409299TIJOLA                                                                                              005305300000003722000040000266400002664000000000000000000000653000009730000000400000006000015900000000000000000000N
071989061010409399TURRE                                                                                               010010000000002072000020000145900001459000000000000000000000312000005300000000600000002000008820000000000000000000N
071989061010409499TURRILLAS                                                                                           001301300000000298000010000022200000222000000000000000000000043000000920000000000000000000001410000000000000000000N
071989061010409599ULEILA DEL CAMPO                                                                                    001301300000001095000010000080700000807000000000000000000000096000001770000000100000004000003230000000000000000000N
071989061010409699URRACAL                                                                                             005305300000000397000010000030600000306000000000000000000000070000001010000000100000001000001520000000000000000000N
071989061010409799VELEFIQUE                                                                                           001301300000000428000010000033300000333000000000000000000000066000000880000000000000000000001430000000000000000000N
071989061010409899VELEZ-BLANCO                                                                                        005305300000002612000040000205800002058000000000000000000000503000007790000000700000010000012080000000000000000000N
071989061010409999VELEZ-RUBIO                                                                                         005305300000006594000090000518200005182000000000000000000001198000021790000001600000028000030150000000000000000000N
071989061010410099VERA                                                                                                010010000000005442000060000388000003880000000000000000000000819000011260000001500000010000019880000000000000000000N
071989061010410199VIATOR                                                                                              001301300000002647000020000184900001849000000000000000000000590000007110000000900000005000012400000000000000000000N
071989061010410299VICAR                                                                                               001301300000010006000080000673600006736000000000000000000000951000015320000001000000024000028370000000000000000000N
071989061010410399ZURGENA                                                                                             005305300000002224000020000157100001571000000000000000000000351000005000000000300000006000009080000000000000000000N
071989061010490199TRES VILLAS (LAS)                                                                                   001301300000000751000010000060500000605000000000000000000000199000002600000000200000005000003330000000000000000000N
071989061010490299EJIDO(EL)                                                                                           002902900000036335000250002550200025502000000000000000000003525000054940000003600000070000094620000000000000000000N
071989061010490399MOJONERA (LA)                                                                                       001301300000005057000040000340600003406000000000000000000000472000007830000000700000012000012190000000000000000000N
071989061011100199ALCALA DE LOS GAZULES                                                                               003103100000005632000060000428800004288000000000000000000000778000012110000002200000005000020720000000000000000000N
071989061011100299ALCALA DEL VALLE                                                                                    000600600000005250000040000355400003554000000000000000000000906000012370000000700000010000020420000000000000000000N
071989061011100399ALGAR                                                                                               000600600000002145000020000155300001555000000000000000000000211000003050000000600000006000006220000000000000000000N
071989061011100499ALGECIRAS                                                                                           000400400000096882000940006731500067360000000000000000000010718000186010000020900000260000294090000000000000000000N
071989061011100599ALGODONALES                                                                                         000600600000005975000080000435400004359000000000000000000001222000014670000000400000029000022590000000000000000000N
071989061011100699ARCOS DE LA FRONTERA                                                                                000600600000026781000270001834300018343000000000000000000004182000058350000003900000071000101880000000000000000000N
071989061011100799BARBATE DE FRANCO                                                                                   001501500000022047000190001535400015354000000000000000000002512000035190000001900000062000054060000000000000000000N
071989061011100899BARRIOS (LOS)                                                                                       000400400000012148000100000845300008453000000000000000000001895000028900000002300000056000048170000000000000000000N
071989061011100999BENAOCAZ                                                                                            000600600000000503000010000035200000352000000000000000000000072000001260000000200000001000002200000000000000000000N
071989061011101099BORNOS                                                                                              000600600000007848000080000550600005512000000000000000000001145000015140000000600000022000029090000000000000000000N
071989061011101199BOSQUE (EL)                                                                                         000600600000001795000020000122600001226000000000000000000000254000003850000000200000001000007000000000000000000000N
071989061011101299CADIZ                                                                                               001201200000155299001050011361500113969000000000000000000024194000347380000058700000752000505130000000000000000000N
071989061011101399CASTELLAR DE LA FRONTERA                                                                            003303300000002121000020000158600001586000000000000000000000443000006520000000900000008000010430000000000000000000N
071989061011101499CONIL DE LA FRONTERA                                                                                001501500000014362000170000984500009849000000000000000000001444000021390000001400000030000038010000000000000000000N
071989061011101599CHICLANA DE LA FRONTERA                                                                             001501500000041677000390002827900028304000000000000000000004067000063200000006200000044000110520000000000000000000N
071989061011101699CHIPIONA                                                                                            003203200000013474000130000926600009275000000000000000000001463000023510000001600000030000045900000000000000000000N
071989061011101799ESPERA                                                                                              000600600000004195000040000286300002873000000000000000000000655000008220000000600000009000013860000000000000000000N
071989061011101899GASTOR (EL)                                                                                         000600600000002292000030000166300001663000000000000000000000514000006350000000900000004000009000000000000000000000N
071989061011101999GRAZALEMA                                                                                           000600600000002288000040000170100001703000000000000000000000401000005760000000900000010000009310000000000000000000N
071989061011102099JEREZ DE LA FRONTERA                                                                                002002000000179191001730012767300127936000000000000000000027366000403220000037200000500000644070000000000000000000N
071989061011102199JIMENA DE LA FRONTERA                                                                               003303300000008539000090000632700006327000000000000000000001575000023320000002600000061000039570000000000000000000N
071989061011102299LA LINEA DE LA CONCEPCION                                                                           003303300000058779000580004213000042154000000000000000000007643000126330000015000000163000202230000000000000000000N
071989061011102399MEDINA SIDONIA                                                                                      003103100000015786000150001093600010936000000000000000000002636000039030000002700000027000068700000000000000000000N
071989061011102499OLVERA                                                                                              000600600000009229000080000686600006866000000000000000000001727000023990000002900000026000035830000000000000000000N
071989061011102599PATERNA DE RIBERA                                                                                   003103100000004666000050000312400003126000000000000000000000743000011390000001200000011000017550000000000000000000N
071989061011102699PRADO DEL REY                                                                                       000600600000005383000040000377300003773000000000000000000001152000016270000001400000016000024320000000000000000000N
071989061011102799PUERTO DE SANTA MARIA(EL)                                                                           002702700000060638000670004322200043384000000000000000000006580000095390000015500000206000161080000000000000000000N
071989061011102899PUERTO REAL                                                                                         002702700000026915000250001900400019008000000000000000000003671000049500000005900000099000074760000000000000000000N
071989061011102999PUERTO SERRANO                                                                                      000600600000006156000100000405800004058000000000000000000001200000015100000000600000011000022440000000000000000000N
071989061011103099ROTA                                                                                                002702700000021285000230001507700015077000000000000000000002358000039280000002100000035000065400000000000000000000N
071989061011103199SAN FERNANDO                                                                                        003103100000080057000890005577100055834000000000000000000011049000149110000021700000298000226280000000000000000000N
071989061011103299SANLUCAR DE BARRAMEDA                                                                               003203200000053017000550003715800037248000000000000000000005604000089740000007700000117000158480000000000000000000N
071989061011103399SAN ROQUE                                                                                           003303300000021459000230001446800014468000000000000000000002812000042580000003700000049000067240000000000000000000N
071989061011103499SETENIL                                                                                             000600600000003338000030000238300002383000000000000000000000516000006950000000300000006000011500000000000000000000N
071989061011103599TARIFA                                                                                              000400400000014548000170001028100010281000000000000000000002051000031720000002700000035000054990000000000000000000N
071989061011103699TORRE-ALHAQUIME                                                                                     000600600000001058000010000078700000787000000000000000000000095000001630000000000000003000002600000000000000000000N
071989061011103799TREBUJENA                                                                                           003203200000006774000080000484900004849000000000000000000001901000024820000002500000011000034510000000000000000000N
071989061011103899UBRIQUE                                                                                             000600600000017747000180001236100012363000000000000000000003763000058830000004800000061000083420000000000000000000N
071989061011103999VEJER DE LA FRONTERA                                                                                001501500000012969000130000926500009265000000000000000000001072000015610000001600000015000030120000000000000000000N
071989061011104099VILLALUENGA DEL ROSARIO                                                                             000600600000000507000010000038100000381000000000000000000000046000000840000000000000002000001480000000000000000000N
071989061011104199VILLAMARTIN                                                                                         000600600000012050000110000832900008334000000000000000000001769000024010000001600000039000042070000000000000000000N
071989061011104299ZAHARA                                                                                              000600600000001688000020000126800001268000000000000000000000296000003770000000000000006000006360000000000000000000N
071989061011400199ADAMUZ                                                                                              002102100000004580000040000329300003293000000000000000000001219000014640000000500000018000023100000000000000000000N
071989061011400299AGUILAR                                                                                             000200200000012743000110000941000009410000000000000000000003120000042680000002000000035000062590000000000000000000N
071989061011400399ALCARACEJOS                                                                                         005405400000001518000010000117500001175000000000000000000000496000006280000000300000002000008200000000000000000000N
071989061011400499ALMEDINILLA                                                                                         005505500000002812000030000216600002166000000000000000000000588000008040000000700000002000012740000000000000000000N
071989061011400599ALMODOVAR DEL RIO                                                                                   005305300000006837000060000496400004964000000000000000000001238000015150000000700000020000028620000000000000000000N
071989061011400699AÑORA                                                                                               005405400000001834000020000140100001401000000000000000000000522000007320000000500000004000009320000000000000000000N
071989061011400799BAENA                                                                                               000700700000018701000150001326100013261000000000000000000003373000046720000002700000059000077450000000000000000000N
071989061011400899BELALCAZAR                                                                                          005205200000004138000040000325600003256000000000000000000000992000012600000001000000017000017090000000000000000000N
071989061011400999BELMEZ                                                                                              005205200000004647000060000363000003630000000000000000000001239000014720000001000000023000020320000000000000000000N
071989061011401099BENAMEJI                                                                                            003803800000004614000040000351900003519000000000000000000000787000012390000000200000007000021060000000000000000000N
071989061011401199BLAZQUEZ (LOS)                                                                                      005205200000000805000010000063000000630000000000000000000000223000002920000000200000001000004230000000000000000000N
071989061011401299BUJALANCE                                                                                           002102100000008864000090000651000006510000000000000000000002551000030940000002200000022000045260000000000000000000N
071989061011401399CABRA                                                                                               001301300000020134000190001518700015187000000000000000000003704000052060000005500000082000090380000000000000000000N
071989061011401499CAÑETE DE LAS TORRES                                                                                002102100000003472000020000265600002656000000000000000000000951000012310000000600000014000018510000000000000000000N
071989061011401599CARCABUEY                                                                                           005505500000003070000030000244800002448000000000000000000000832000010520000000400000020000016250000000000000000000N
071989061011401699CARDEÑA                                                                                             002102100000002210000030000171000001710000000000000000000000512000006340000000300000010000010480000000000000000000N
071989061011401799CARLOTA (LA)                                                                                        005305300000008775000120000645800006458000000000000000000001510000018650000001300000019000037130000000000000000000N
071989061011401899CARPIO (EL)                                                                                         002102100000004847000060000357200003572000000000000000000001323000016340000000800000022000023910000000000000000000N
071989061011401999CASTRO DEL RIO                                                                                      002102100000007858000090000602800006028000000000000000000001933000026690000002500000040000041860000000000000000000N
071989061011402099CONQUISTA                                                                                           005405400000000588000010000049500000495000000000000000000000172000001950000000000000002000002760000000000000000000N
071989061011402199CORDOBA                                                                                             002102100000295290003050021892500218959000000000000000000058342000800960000101500001086001107810000000000000000000N
071989061011402299DOÑA MENCIA                                                                                         001301300000005162000040000384100003841000000000000000000001346000016920000000400000013000024990000000000000000000N
071989061011402399DOS TORRES                                                                                          005405400000002496000030000195200001952000000000000000000000692000009660000000400000017000012440000000000000000000N
071989061011402499ENCINAS REALES                                                                                      003803800000002209000020000170400001704000000000000000000000610000007730000000200000012000011780000000000000000000N
071989061011402599ESPEJO                                                                                              002102100000005173000040000335700003357000000000000000000001500000019510000001500000019000027420000000000000000000N
071989061011402699ESPIEL                                                                                              005205200000002873000030000209400002094000000000000000000000735000008410000000700000008000012480000000000000000000N
071989061011402799FERNAN NUÑEZ                                                                                        004204200000009123000090000682200006822000000000000000000002027000026850000002300000024000042500000000000000000000N
071989061011402899FUENTE LA LANCHA                                                                                    005205200000000528000010000041000000410000000000000000000000152000002200000000000000000000002900000000000000000000N
071989061011402999FUENTE OBEJUNA                                                                                      005205200000007018000100000536000005360000000000000000000001809000021330000001300000014000032690000000000000000000N
071989061011403099FUENTE PALMERA                                                                                      005305300000008964000110000648900006489000000000000000000001586000021460000000300000012000042680000000000000000000N
071989061011403199FUENTE TOJAR                                                                                        005505500000000926000010000076700000767000000000000000000000306000003650000000000000009000005040000000000000000000N
071989061011403299GRANJUELA (LA)                                                                                      005205200000000560000010000044900000449000000000000000000000175000001910000000100000004000002640000000000000000000N
071989061011403399GUADALCAZAR                                                                                         005305300000001236000010000089700000897000000000000000000000280000003590000000200000009000005790000000000000000000N
071989061011403499GUIJO (EL)                                                                                          005405400000000527000010000041400000414000000000000000000000170000002130000000100000007000002760000000000000000000N
071989061011403599HINOJOSA DEL DUQUE                                                                                  005205200000008227000080000645000006450000000000000000000002016000026600000001900000023000037010000000000000000000N
071989061011403699HORNACHUELOS                                                                                        005305300000005258000040000379100003791000000000000000000001080000013790000001800000019000022380000000000000000000N
071989061011403799IZNAJAR                                                                                             003803800000006282000080000482100004821000000000000000000001170000014870000001700000011000024140000000000000000000N
071989061011403899LUCENA                                                                                              003803800000031035000260002217300022173000000000000000000004768000073930000006800000119000118630000000000000000000N
071989061011403999LUQUE                                                                                               000700700000003443000030000275200002752000000000000000000000727000010210000000800000007000016830000000000000000000N
071989061011404099MONTALBAN                                                                                           004204200000004371000040000323700003237000000000000000000000973000014890000000300000011000022090000000000000000000N
071989061011404199MONTEMAYOR                                                                                          004204200000003686000040000272000002720000000000000000000000910000012030000000500000010000018350000000000000000000N
071989061011404299MONTILLA                                                                                            004204200000022069000200001693100016931000000000000000000004771000068620000008200000105000112930000000000000000000N
071989061011404399MONTORO                                                                                             002102100000010020000080000712200007122000000000000000000002296000029130000000800000007000049070000000000000000000N
071989061011404499MONTURQUE                                                                                           000200200000002003000020000143900001439000000000000000000000467000005680000000300000005000009630000000000000000000N
071989061011404599MORILES                                                                                             000200200000003665000030000267400002674000000000000000000000871000011180000000900000005000017530000000000000000000N
071989061011404699NUEVA-CARTEYA                                                                                       001301300000005808000060000412700004127000000000000000000001404000018330000000800000017000028300000000000000000000N
071989061011404799OBEJO                                                                                               002102100000001505000020000113500001135000000000000000000000318000003820000000200000001000005570000000000000000000N
071989061011404899PALENCIANA                                                                                          003803800000001764000020000131200001312000000000000000000000355000004260000000300000010000007250000000000000000000N
071989061011404999PALMA DEL RIO                                                                                       005305300000018561000150001348200013482000000000000000000003965000051590000003900000056000080850000000000000000000N
071989061011405099PEDRO ABAD                                                                                          002102100000003032000040000228100002281000000000000000000000871000010700000000400000012000015910000000000000000000N
071989061011405199PEDROCHE                                                                                            005405400000001942000020000153500001535000000000000000000000509000006350000000600000009000008890000000000000000000N
071989061011405299PEÑARROYA-PUEBLONUEVO                                                                               005205200000013779000140001054200010542000000000000000000003240000040780000003100000033000054950000000000000000000N
071989061011405399POSADAS                                                                                             005305300000007041000060000517600005176000000000000000000001568000020260000001200000017000030770000000000000000000N
071989061011405499POZOBLANCO                                                                                          005405400000014513000110001110500011105000000000000000000004127000056300000006700000043000073210000000000000000000N
071989061011405599PRIEGO DE CORDOBA                                                                                   005505500000020624000240001612000016120000000000000000000004019000058210000004800000039000096670000000000000000000N
071989061011405699PUENTE-GENIL                                                                                        000200200000026588000230001988400019884000000000000000000004949000069840000004600000055000112260000000000000000000N
071989061011405799RAMBLA (LA)                                                                                         004204200000007056000060000494000004940000000000000000000001601000023260000001400000030000034450000000000000000000N
071989061011405899RUTE                                                                                                003803800000010145000090000777300007773000000000000000000002347000031490000002100000030000048760000000000000000000N
071989061011405999S SBT.DE LOS BALLESTEROS                                                                            004204200000000816000010000064400000644000000000000000000000201000002300000000200000003000003310000000000000000000N
071989061011406099SANTAELLA                                                                                           004204200000005728000050000403300004033000000000000000000001023000012880000001200000486000019410000000000000000000N
071989061011406199SANTA EUFEMIA                                                                                       005405400000001389000010000110200001102000000000000000000000418000005420000000200000002000007060000000000000000000N
071989061011406299TORRECAMPO                                                                                          005405400000001686000020000133600001336000000000000000000000352000004440000000200000006000006920000000000000000000N
071989061011406399VALENZUELA                                                                                          000700700000001695000020000135000001350000000000000000000000519000006210000001600000009000008970000000000000000000N
071989061011406499VALSEQUILLO                                                                                         005205200000000648000010000050200000502000000000000000000000169000002160000000300000003000002910000000000000000000N
071989061011406599VICTORIA (LA)                                                                                       004204200000001732000020000132000001320000000000000000000000499000005770000000500000008000009570000000000000000000N
071989061011406699VILLA DEL RIO                                                                                       002102100000007092000060000517300005173000000000000000000001536000019950000002400000018000032810000000000000000000N
071989061011406799VILLAFRANCA DE CORDOBA                                                                              002102100000003540000030000264700002647000000000000000000000831000010670000001300000014000017810000000000000000000N
071989061011406899VILLAHARTA                                                                                          005205200000000675000010000053000000530000000000000000000000217000002500000000300000005000003240000000000000000000N
071989061011406999VILLANUEVA DE CORDOBA                                                                               005405400000010443000120000819600008196000000000000000000002665000034080000001900000024000051730000000000000000000N
071989061011407099VILLANUEVA DEL DUQUE                                                                                005405400000002177000020000173000001730000000000000000000000551000007130000000500000008000009520000000000000000000N
071989061011407199VILLANUEVA DEL REY                                                                                  005205200000001415000020000114700001147000000000000000000000417000004860000001100000008000006360000000000000000000N
071989061011407299VILLARALTO                                                                                          005405400000001887000020000151900001519000000000000000000000778000009060000000200000003000011050000000000000000000N
071989061011407399VILLAVICIOSA DE CORDOBA                                                                             002102100000004319000040000327600003276000000000000000000001032000013100000000200000009000019830000000000000000000N
071989061011407499VISO (EL)                                                                                           005405400000003653000040000285800002858000000000000000000001035000014000000000800000012000018110000000000000000000N
071989061011407599ZUHEROS                                                                                             001301300000001061000010000081600000816000000000000000000000325000003740000000100000015000004810000000000000000000N
071989061011800199AGRON                                                                                               012212200000000484000010000037800000378000000000000000000000076000000960000000000000000000001670000000000000000000N
071989061011800299ALAMEDILLA                                                                                          008908900000001143000010000081300000813000000000000000000000226000002720000000200000000000004160000000000000000000N
071989061011800399ALBOLOTE                                                                                            008708700000008087000070000580200005802000000000000000000001258000019410000002500000017000034210000000000000000000N
071989061011800499ALBONDON                                                                                            014714700000001478000020000111800001118000000000000000000000265000003410000000300000002000005190000000000000000000N
071989061011800599ALBUÑAN                                                                                             008908900000000547000010000041800000418000000000000000000000084000001070000000000000000000001840000000000000000000N
071989061011800699ALBUÑOL                                                                                             014714700000005529000060000399800003998000000000000000000000828000010820000001100000014000018150000000000000000000N
071989061011800799ALBUÑUELAS                                                                                          014714700000001421000020000111200001112000000000000000000000321000004040000000600000008000005830000000000000000000N
071989061011801099ALDEIRE                                                                                             008908900000000987000010000076500000765000000000000000000000166000002260000000000000003000004260000000000000000000N
071989061011801199ALFACAR                                                                                             008708700000003056000020000236900002369000000000000000000000524000007760000000000000004000014330000000000000000000N
071989061011801299ALGARINEJO                                                                                          012212200000005188000070000395800003964000000000000000000000719000010050000000800000007000017500000000000000000000N
071989061011801399ALHAMA DE GRANADA                                                                                   012212200000006141000050000467700004681000000000000000000001244000017440000000200000024000026700000000000000000000N
071989061011801499ALHENDIN                                                                                            008708700000003361000020000244200002442000000000000000000000450000007260000000600000003000013740000000000000000000N
071989061011801599ALICUN DE ORTEGA                                                                                    008908900000000806000010000058200000582000000000000000000000159000002060000000000000000000003170000000000000000000N
071989061011801699ALMEGIJAR                                                                                           014714700000000552000010000045900000459000000000000000000000073000001060000000100000004000001990000000000000000000N
071989061011801799ALMUÑECAR                                                                                           014014000000017149000110001211800012154000000000000000000002359000037570000002300000037000064830000000000000000000N
071989061011801899ALQUIFE                                                                                             008908900000001390000010000106000001060000000000000000000000338000004070000000400000003000005970000000000000000000N
071989061011802099ARENAS DEL REY                                                                                      012212200000002167000030000171600001716000000000000000000000294000004640000000200000003000008090000000000000000000N
071989061011802199ARMILLA                                                                                             008708700000011743000050000706300007063000000000000000000001297000019740000002800000014000030740000000000000000000N
071989061011802299ATARFE                                                                                              008708700000009713000070000702100007044000000000000000000001837000025680000001800000026000039770000000000000000000N
071989061011802399BAZA                                                                                                002302300000020768000140001519000015190000000000000000000002874000043380000004300000067000064390000000000000000000N
071989061011802499BEAS DE GRANADA                                                                                     008708700000000834000010000067800000678000000000000000000000111000001840000000600000008000003640000000000000000000N
071989061011802599BEAS DE GUADIX                                                                                      008908900000000481000010000032900000329000000000000000000000066000000840000000400000000000001580000000000000000000N
071989061011802799BENALUA DE GUADIX                                                                                   008908900000003586000020000254800002548000000000000000000000528000007680000000300000002000013670000000000000000000N
071989061011802899BENALUA DE LAS VILLAS                                                                               008708700000001383000010000108000001080000000000000000000000303000004400000000100000002000006970000000000000000000N
071989061011802999BENAMAUREL                                                                                          002302300000002741000020000208200002082000000000000000000000501000006950000000700000008000010440000000000000000000N
071989061011803099BERCHULES                                                                                           014714700000001014000020000077900000779000000000000000000000257000003030000000000000000000004000000000000000000000N
071989061011803299BUBION                                                                                              014714700000000327000010000024600000246000000000000000000000056000000720000000000000000000001320000000000000000000N
071989061011803399BUSQUISTAR                                                                                          014714700000000434000010000033000000330000000000000000000000057000000810000000100000000000001400000000000000000000N
071989061011803499CACIN                                                                                               012212200000000965000020000077200000772000000000000000000000181000002470000000000000000000003930000000000000000000N
071989061011803599CADIAR                                                                                              014714700000002159000030000167100001671000000000000000000000368000005240000000300000004000008430000000000000000000N
071989061011803699CAJAR                                                                                               008708700000001623000020000127300001273000000000000000000000300000004800000000300000005000007480000000000000000000N
071989061011803799CALICASAS                                                                                           008708700000000589000010000043800000438000000000000000000000099000001470000000000000004000003020000000000000000000N
071989061011803899CAMPOTEJAR                                                                                          008708700000001461000010000113300001133000000000000000000000303000004410000000500000000000007810000000000000000000N
071989061011803999CANILES                                                                                             002302300000006109000070000438000004380000000000000000000000615000010180000000600000004000018290000000000000000000N
071989061011804099CAÑAR                                                                                               014714700000000398000010000031700000317000000000000000000000068000000910000000100000000000001230000000000000000000N
071989061011804299CAPILEIRA                                                                                           014714700000000598000010000043400000434000000000000000000000104000001370000000200000002000002130000000000000000000N
071989061011804399CARATAUNAS                                                                                          014714700000000175000010000014200000142000000000000000000000029000000460000000000000000000000710000000000000000000N
071989061011804499CASTARAS                                                                                            014714700000000366000010000032300000323000000000000000000000025000000330000000000000001000000660000000000000000000N
071989061011804599CASTILLEJAR                                                                                         002302300000002431000030000194200001943000000000000000000000417000005710000000000000006000009450000000000000000000N
071989061011804699CASTRIL                                                                                             002302300000003645000060000275500002755000000000000000000000288000004710000000300000003000009620000000000000000000N
071989061011804799CENES DE LA VEGA                                                                                    008708700000001398000010000110000001100000000000000000000000228000003530000000200000005000007030000000000000000000N
071989061011804899CIJUELA                                                                                             008708700000001177000010000090700000907000000000000000000000326000004190000000400000002000005920000000000000000000N
071989061011804999COGOLLOS DE GUADIX                                                                                  008908900000000858000010000067400000674000000000000000000000185000002420000000100000000000003430000000000000000000N
071989061011805099COGOLLOS VEGA                                                                                       008708700000001852000020000144200001442000000000000000000000337000004520000000600000008000008730000000000000000000N
071989061011805199COLOMERA                                                                                            008708700000002030000020000155200001552000000000000000000000334000004770000000200000005000008580000000000000000000N
071989061011805399CORTES DE BAZA                                                                                      002302300000003320000050000249400002494000000000000000000000442000006290000000100000000000011040000000000000000000N
071989061011805499CORTES Y GRAENA                                                                                     008908900000001009000010000082200000822000000000000000000000175000002730000000200000000000004960000000000000000000N
071989061011805699CULLAR                                                                                              002302300000005859000070000452500004525000000000000000000001245000017900000000500000004000025880000000000000000000N
071989061011805799CULLAR VEGA                                                                                         008708700000001420000010000108800001088000000000000000000000246000003400000000300000002000007020000000000000000000N
071989061011805999CHAUCHINA                                                                                           008708700000004009000030000293100002931000000000000000000000722000010150000000400000006000017450000000000000000000N
071989061011806199CHIMENEAS                                                                                           012212200000001633000020000126500001265000000000000000000000317000004150000000100000004000006720000000000000000000N
071989061011806299CHURRIANA DE LA VEGA                                                                                008708700000004749000020000347500003478000000000000000000000695000010970000001500000016000019170000000000000000000N
071989061011806399DARRO                                                                                               008708700000001625000010000112500001141000000000000000000000292000003530000000200000000000006020000000000000000000N
071989061011806499DEHESAS DE GUADIX                                                                                   008908900000001013000010000057300000573000000000000000000000075000001160000000000000000000002460000000000000000000N
071989061011806699DEIFONTES                                                                                           008708700000002452000020000185600001856000000000000000000000584000007350000000300000000000011700000000000000000000N
071989061011806799DIEZMA                                                                                              008708700000001125000010000085900000859000000000000000000000139000002350000000100000002000005010000000000000000000N
071989061011806899DILAR                                                                                               008708700000001299000010000104400001044000000000000000000000224000003170000000000000003000005670000000000000000000N
071989061011806999DOLAR                                                                                               008908900000000779000010000060800000608000000000000000000000237000002730000000300000002000003520000000000000000000N
071989061011807099DUDAR                                                                                               008708700000000279000010000020700000207000000000000000000000015000000380000000000000000000001140000000000000000000N
071989061011807199DURCAL                                                                                              014714700000005485000030000423500004235000000000000000000000997000013870000001400000024000023490000000000000000000N
071989061011807299ESCUZAR                                                                                             008708700000001143000010000087600000876000000000000000000000262000003160000000100000003000004230000000000000000000N
071989061011807499FERREIRA                                                                                            008908900000000453000010000036100000365000000000000000000000087000001370000000000000002000002220000000000000000000N
071989061011807699FONELAS                                                                                             008908900000001601000010000109000001090000000000000000000000191000002820000000000000008000005140000000000000000000N
071989061011807899FREILA                                                                                              002302300000001424000010000100900001009000000000000000000000188000002410000000300000000000004750000000000000000000N
071989061011807999FUENTEVAQUEROS                                                                                      008708700000003715000030000275000002752000000000000000000000740000012730000000700000016000019840000000000000000000N
071989061011808299GALERA                                                                                              002302300000001937000020000148900001489000000000000000000000336000004740000000200000004000006840000000000000000000N
071989061011808399GOBERNADOR                                                                                          008908900000000446000010000036100000361000000000000000000000046000001630000000000000001000002130000000000000000000N
071989061011808499GOJAR                                                                                               008708700000001969000020000149700001497000000000000000000000331000004700000000600000008000008500000000000000000000N
071989061011808599GOR                                                                                                 008908900000001572000010000124300001243000000000000000000000228000003310000000000000005000005130000000000000000000N
071989061011808699GORAFE                                                                                              008908900000000761000010000054800000548000000000000000000000170000002330000000000000000000002950000000000000000000N
071989061011808799GRANADA                                                                                             008708700000256073001660019390000194422000000000000000000048947000705220000094300000808001011460000000000000000000N
071989061011808899GUADAHORTUNA                                                                                        008708700000002530000020000180400001804000000000000000000000507000006660000000400000002000011070000000000000000000N
071989061011808999GUADIX                                                                                              008908900000020155000170001387900013881000000000000000000002847000043880000004500000034000070980000000000000000000N
071989061011809399GUALCHOS                                                                                            014014000000002962000030000213100002131000000000000000000000487000007710000000100000003000012830000000000000000000N
071989061011809499GUEJAR SIERRA                                                                                       008708700000002576000030000202200002022000000000000000000000380000005850000000300000003000010980000000000000000000N
071989061011809599GUEVEJAR                                                                                            008708700000001124000010000084900000849000000000000000000000190000003300000000300000004000006040000000000000000000N
071989061011809699HUELAGO                                                                                             008908900000000764000010000055000000550000000000000000000000186000002270000000000000001000003120000000000000000000N
071989061011809799HUENEJA                                                                                             008908900000001631000030000126900001269000000000000000000000172000002800000000500000007000005390000000000000000000N
071989061011809899HUESCAR                                                                                             002302300000010333000100000762500007635000000000000000000001573000021410000001800000028000032980000000000000000000N
071989061011809999HUETOR SANTILLAN                                                                                    008708700000001359000010000104800001048000000000000000000000276000004020000000300000011000006560000000000000000000N
071989061011810099HUETOR TAJAR                                                                                        012212200000007469000060000577000005773000000000000000000001096000015470000001900000016000024220000000000000000000N
071989061011810199HUETOR VEGA                                                                                         008708700000005675000040000410800004140000000000000000000000651000009780000000700000014000019450000000000000000000N
071989061011810299ILLORA                                                                                              012212200000010278000090000792500007925000000000000000000002246000028970000001500000029000048760000000000000000000N
071989061011810399ITRABO                                                                                              014014000000001200000010000092800000928000000000000000000000298000004140000000000000000000005860000000000000000000N
071989061011810599IZNALLOZ                                                                                            008708700000006912000060000498400004984000000000000000000001330000018220000000800000013000029140000000000000000000N
071989061011810799JAYENA                                                                                              012212200000001506000010000114200001142000000000000000000000302000003620000000200000003000005590000000000000000000N
071989061011810899JEREZ DEL MARQUESADO                                                                                008908900000001329000010000108200001082000000000000000000000345000004520000000300000004000006190000000000000000000N
071989061011810999JETE                                                                                                014014000000000721000010000056000000560000000000000000000000157000002250000000100000000000003920000000000000000000N
071989061011811199JUN                                                                                                 008708700000000846000010000061900000619000000000000000000000135000002170000000000000000000003890000000000000000000N
071989061011811299JUVILES                                                                                             014714700000000203000010000014800000148000000000000000000000030000000480000000000000000000000620000000000000000000N
071989061011811499LA CALAHORRA                                                                                        008908900000001084000010000083100000831000000000000000000000168000002450000000000000002000003960000000000000000000N
071989061011811599LACHAR                                                                                              008708700000002100000020000156900001572000000000000000000000354000005060000001400000012000009110000000000000000000N
071989061011811699LANJARON                                                                                            014714700000004231000040000319800003198000000000000000000000828000011190000001100000014000017470000000000000000000N
071989061011811799LANTEIRA                                                                                            008908900000000787000010000064700000647000000000000000000000249000004150000000100000003000003960000000000000000000N
071989061011811999LECRIN                                                                                              014714700000002616000050000208800002088000000000000000000000556000007660000000300000009000013250000000000000000000N
071989061011812099LENTEGI                                                                                             014014000000000373000010000028500000285000000000000000000000065000000860000000000000000000001760000000000000000000N
071989061011812199LOBRAS                                                                                              014714700000000257000010000020700000207000000000000000000000027000000530000000000000001000000840000000000000000000N
071989061011812299LOJA                                                                                                012212200000020279000310001521700015250000000000000000000002823000039800000003900000058000073620000000000000000000N
071989061011812399LUGROS                                                                                              008908900000000623000010000046300000463000000000000000000000152000001840000000000000001000002410000000000000000000N
071989061011812499LUJAR                                                                                               014014000000000695000010000050700000507000000000000000000000081000001160000000000000002000002510000000000000000000N
071989061011812699MALAHA                                                                                              008708700000001654000010000117500001175000000000000000000000321000004130000000200000001000007520000000000000000000N
071989061011812799MARACENA                                                                                            008708700000011095000080000804500008045000000000000000000001938000030090000002500000053000047200000000000000000000N
071989061011812899MARCHAL                                                                                             008908900000000534000010000043400000434000000000000000000000057000001220000000000000000000002120000000000000000000N
071989061011813299MOCLIN                                                                                              008708700000005037000060000380500003816000000000000000000001146000015270000000500000009000024650000000000000000000N
071989061011813399MOLVIZAR                                                                                            014014000000002427000020000196800001968000000000000000000000594000008270000000000000001000012520000000000000000000N
071989061011813499MONACHIL                                                                                            008708700000003725000020000294100002941000000000000000000000371000006550000000900000003000012750000000000000000000N
071989061011813599MONTEFRIO                                                                                           012212200000008359000070000629400006294000000000000000000001744000022570000002100000027000031590000000000000000000N
071989061011813699MONTEJICAR                                                                                          008708700000003005000020000219300002193000000000000000000000833000010510000000300000001000014230000000000000000000N
071989061011813799MONTILLANA                                                                                          008708700000001415000010000112400001124000000000000000000000300000004150000000100000000000006200000000000000000000N
071989061011813899MORALEDA DE ZAFAYONA                                                                                012212200000002547000020000186600001866000000000000000000000385000005220000000300000001000009110000000000000000000N
071989061011814099MOTRIL                                                                                              014014000000044482000310003167000031769000000000000000000006129000099080000007000000113000151450000000000000000000N
071989061011814199MURTAS                                                                                              014714700000001225000010000096300000963000000000000000000000105000001750000000200000000000003070000000000000000000N
071989061011814399NIGUELAS                                                                                            014714700000001217000010000098900000989000000000000000000000267000004150000000000000004000006040000000000000000000N
071989061011814499NIVAR                                                                                               008708700000000487000010000038200000382000000000000000000000107000001420000000100000000000002510000000000000000000N
071989061011814599OGIJARES                                                                                            008708700000002921000020000228800002288000000000000000000000453000007610000000400000012000013720000000000000000000N
071989061011814699ORCE                                                                                                002302300000001626000020000130100001301000000000000000000000421000005130000000000000011000007180000000000000000000N
071989061011814799ORGIVA                                                                                              014714700000005155000030000398200003982000000000000000000001097000013550000000600000010000019130000000000000000000N
071989061011814899OTIVAR                                                                                              014014000000001213000010000089900000899000000000000000000000196000002440000000000000003000005340000000000000000000N
071989061011814999OTURA                                                                                               008708700000002209000020000157900001579000000000000000000000369000005840000000800000011000010410000000000000000000N
071989061011815099PADUL                                                                                               008708700000006056000040000449800004498000000000000000000001113000016750000000800000012000026040000000000000000000N
071989061011815199PAMPANEIRA                                                                                          014714700000000358000010000027300000273000000000000000000000082000001050000000000000000000001500000000000000000000N
071989061011815299PEDRO MARTINEZ                                                                                      008908900000002017000020000150800001508000000000000000000000451000005660000000200000005000007770000000000000000000N
071989061011815399PELIGROS                                                                                            008708700000005275000040000379200003792000000000000000000000907000016230000000800000015000022400000000000000000000N
071989061011815499PEZA (LA)                                                                                           008908900000001740000010000126500001265000000000000000000000297000003750000000100000000000005370000000000000000000N
071989061011815799PINOS GENIL                                                                                         008708700000000910000010000069000000690000000000000000000000180000002820000000000000006000004440000000000000000000N
071989061011815899PINOS PUENTE                                                                                        008708700000013370000090001015000010150000000000000000000002838000037770000002900000031000060740000000000000000000N
071989061011815999PIÑAR                                                                                               008708700000001549000020000121200001211000000000000000000000289000004000000000000000000000007750000000000000000000N
071989061011816199POLICAR                                                                                             008908900000000274000010000022200000222000000000000000000000056000000880000000000000000000001230000000000000000000N
071989061011816299POLOPOS                                                                                             014714700000001387000030000104800001049000000000000000000000242000003280000000000000001000006330000000000000000000N
071989061011816399PORTUGOS                                                                                            014714700000000438000010000035800000358000000000000000000000067000001100000000000000001000002020000000000000000000N
071989061011816499PUEBLA DE DON FADRIQUE                                                                              002302300000002894000030000222500002225000000000000000000000421000006140000000600000005000010640000000000000000000N
071989061011816599PULIANAS                                                                                            008708700000002291000020000166600001666000000000000000000000427000007020000000300000009000010620000000000000000000N
071989061011816799PURULLENA                                                                                           008908900000002757000030000190300001905000000000000000000000318000004880000000400000000000009640000000000000000000N
071989061011816899QUENTAR                                                                                             008708700000001253000010000093000000930000000000000000000000154000002330000000200000001000004910000000000000000000N
071989061011817099RUBITE                                                                                              014714700000000554000010000044400000444000000000000000000000089000001120000000000000000000001760000000000000000000N
071989061011817199SALAR                                                                                               012212200000002867000030000217000002170000000000000000000000659000008180000000800000005000013240000000000000000000N
071989061011817399SALOBREÑA                                                                                           014014000000008926000060000648900006489000000000000000000001307000019730000001400000009000032400000000000000000000N
071989061011817499SANTA CRUZ DEL COMERCIO                                                                             012212200000000627000010000047900000479000000000000000000000113000001550000000100000001000002680000000000000000000N
071989061011817599SANTA FE                                                                                            008708700000011695000090000849200008492000000000000000000002091000030590000001700000022000050010000000000000000000N
071989061011817699SOPORTUJAR                                                                                          014714700000000274000010000023300000233000000000000000000000051000000710000000000000000000001220000000000000000000N
071989061011817799SORVILAN                                                                                            014714700000001025000020000074800000748000000000000000000000162000001990000000500000002000003320000000000000000000N
071989061011817899TORRE CARDELA                                                                                       008708700000001500000010000113500001135000000000000000000000296000004270000000100000000000005970000000000000000000N
071989061011817999TORVIZCON                                                                                           014714700000001309000010000099400000994000000000000000000000220000002670000000000000000000004500000000000000000000N
071989061011818099TREVELEZ                                                                                            014714700000000877000010000067300000673000000000000000000000146000002040000000100000000000003240000000000000000000N
071989061011818199TURON                                                                                               014714700000000515000010000038500000385000000000000000000000083000001080000000000000000000002030000000000000000000N
071989061011818299UGIJAR                                                                                              014714700000003149000040000232500002325000000000000000000000476000007000000000200000001000011670000000000000000000N
071989061011818399VALOR                                                                                               014714700000001202000010000096300000964000000000000000000000163000002930000000100000001000004970000000000000000000N
071989061011818499VELEZ BENAUDALLA                                                                                    014014000000002630000020000200200002002000000000000000000000604000007530000000300000002000012020000000000000000000N
071989061011818599VENTAS DE HUELMA                                                                                    012212200000000777000010000059300000593000000000000000000000154000002040000000000000000000003320000000000000000000N
071989061011818799VILLANUEVA DE LAS TORRES                                                                            008908900000001118000010000077100000771000000000000000000000205000002660000000000000000000004530000000000000000000N
071989061011818899VILLANUEVA MESIA                                                                                    012212200000001814000010000136600001366000000000000000000000359000005170000000500000010000007520000000000000000000N
071989061011818999VIZNAR                                                                                              008708700000000683000010000055100000551000000000000000000000151000001720000000200000002000002970000000000000000000N
071989061011819299ZAFARRAYA                                                                                           012212200000002244000030000172900001729000000000000000000000560000009300000000400000008000012460000000000000000000N
071989061011819399ZUBIA                                                                                               008708700000007120000040000523700005237000000000000000000001023000016560000001600000006000029030000000000000000000N
071989061011819499ZUJAR                                                                                               002302300000003547000030000261300002613000000000000000000000627000008240000000400000011000013320000000000000000000N
071989061011890199TAHA (LA)                                                                                           014714700000000920000010000071800000718000000000000000000000113000001550000000100000000000002630000000000000000000N
071989061011890299VALLE (EL)                                                                                          014714700000001644000030000126800001278000000000000000000000358000004930000000000000005000007350000000000000000000N
071989061011890399NEVADA                                                                                              014714700000001599000030000123200001232000000000000000000000317000004820000000300000000000007350000000000000000000N
071989061011890499ALPUJARRA DE LA SIERRA                                                                              014714700000001484000020000114600001148000000000000000000000343000004350000000100000002000006350000000000000000000N
071989061011890599GABIAS (LAS)                                                                                        008708700000005373000050000400400004004000000000000000000001059000015520000001800000003000025000000000000000000000N
071989061011890699GUAJARES (LOS)                                                                                      014014000000001630000030000126600001266000000000000000000000331000004200000000100000001000006990000000000000000000N
071989061011890799VALLE DEL ZABALI                                                                                    008908900000002657000030000208800002089000000000000000000000536000008510000000800000002000012890000000000000000000N
071989061011890899VILLAMENA                                                                                           014714700000001168000020000091100000911000000000000000000000202000002790000000200000000000005310000000000000000000N
071989061011890999MORELABOR                                                                                           008708700000001161000010000087400000874000000000000000000000307000003860000000200000003000005500000000000000000000N
071989061011891099PINAR (EL)                                                                                          014714700000001478000020000110900001109000000000000000000000242000003190000000000000004000005590000000000000000000N
071989061011891199VEGAS DEL GENIL                                                                                     008708700000002595000030000202600002036000000000000000000000416000005390000000600000007000009810000000000000000000N
071989061011891299CUEVAS DEL CAMPO                                                                                    002302300000002588000030000195700001957000000000000000000000388000004720000000100000003000008480000000000000000000N
071989061011891399ZAGRA                                                                                               012212200000001501000020000111500001115000000000000000000000217000003250000000400000001000006190000000000000000000N
071989061012100199ALAJAR                                                                                              000700700000000908000010000067800000678000000000000000000000187000002300000000300000000000003530000000000000000000N
071989061012100299ALJARAQUE                                                                                           004104100000005390000050000381300003818000000000000000000000652000009850000000800000010000016380000000000000000000N
071989061012100399ALMENDRO (EL)                                                                                       001001000000000889000010000062600000626000000000000000000000144000002060000000100000002000003610000000000000000000N
071989061012100499ALMONASTER LA REAL                                                                                  000700700000002377000040000186000001860000000000000000000000540000006050000000100000011000010280000000000000000000N
071989061012100599ALMONTE                                                                                             005405400000014604000140001057600010622000000000000000000002248000033000000003000000018000053450000000000000000000N
071989061012100699ALOSNO                                                                                              007207200000005045000060000394200003942000000000000000000001521000017760000001500000009000023370000000000000000000N
071989061012100799ARACENA                                                                                             000700700000006331000060000483400004834000000000000000000001050000014390000001700000026000023560000000000000000000N
071989061012100899AROCHE                                                                                              000700700000003845000040000293200002933000000000000000000000904000010950000001700000005000015400000000000000000000N
071989061012100999ARROYOMOLINOS DE LEON                                                                               000700700000001320000020000103100001031000000000000000000000327000003800000000300000000000005410000000000000000000N
071989061012101099AYAMONTE                                                                                            001001000000016745000160001130100011326000000000000000000001342000022640000003100000032000039250000000000000000000N
071989061012101199BEAS                                                                                                004104100000004010000040000302100003021000000000000000000000962000012890000001500000004000021150000000000000000000N
071989061012101299BERROCAL                                                                                            007207200000000446000010000038100000381000000000000000000000107000001650000000100000002000002480000000000000000000N
071989061012101399BOLLULLOS DEL CONDADO                                                                               005405400000012304000110000931300009322000000000000000000001835000028300000001200000006000046360000000000000000000N
071989061012101499BONARES                                                                                             005005000000004872000030000353600003536000000000000000000001123000016680000001600000010000025550000000000000000000N
071989061012101599CABEZAS RUBIAS                                                                                      007207200000000960000010000074800000748000000000000000000000171000001950000000100000001000002540000000000000000000N
071989061012101699CALA                                                                                                000700700000001558000020000115600001156000000000000000000000453000005760000000400000004000007910000000000000000000N
071989061012101799CALAÑAS                                                                                             007207200000005371000050000423800004251000000000000000000001495000018690000001400000009000024900000000000000000000N
071989061012101899CAMPILLO (EL)                                                                                       007207200000002912000030000213800002138000000000000000000000598000008010000001000000017000011400000000000000000000N
071989061012101999CAMPOFRIO                                                                                           000700700000000923000010000070100000701000000000000000000000196000002580000000400000007000004420000000000000000000N
071989061012102099CAÑAVERAL DE LEON                                                                                   000700700000000603000010000048900000489000000000000000000000131000001540000000000000002000002000000000000000000000N
071989061012102199CARTAYA                                                                                             004104100000009867000090000709400007094000000000000000000001031000014980000002800000030000028830000000000000000000N
071989061012102299CASTAÑO DEL ROBLEDO                                                                                 000700700000000211000010000018000000180000000000000000000000058000000810000000100000000000001250000000000000000000N
071989061012102399CERRO DE ANDEVALO (EL)                                                                              007207200000003082000030000247100002471000000000000000000000783000009850000001700000008000012170000000000000000000N
071989061012102499CORTECONCEPCION                                                                                     000700700000000724000010000054800000548000000000000000000000157000001760000000100000000000002750000000000000000000N
071989061012102599CORTEGANA                                                                                           000700700000005474000070000411900004119000000000000000000000927000011460000001000000009000016520000000000000000000N
071989061012102699CORTELAZOR                                                                                          000700700000000378000010000029900000299000000000000000000000049000000590000000100000000000001220000000000000000000N
071989061012102799CUMBRES DE ENMEDIO                                                                                  000700700000000061000010000005500000055000000000000000000000020000000290000000200000000000000360000000000000000000N
071989061012102899CUMBRES DE SAN BARTOLOME                                                                            000700700000000763000010000061800000618000000000000000000000238000002930000000000000010000004070000000000000000000N
071989061012102999CUMBRES MAYORES                                                                                     000700700000002491000020000192500001927000000000000000000000721000009270000000900000009000012180000000000000000000N
071989061012103099CHUCENA                                                                                             005405400000001914000020000146100001461000000000000000000000433000006560000000300000010000010350000000000000000000N
071989061012103199ENCINASOLA                                                                                          000700700000002431000030000193700001937000000000000000000000624000007860000001500000026000010940000000000000000000N
071989061012103299ESCACENA DEL CAMPO                                                                                  005405400000002229000020000164400001644000000000000000000000503000006450000000200000000000008970000000000000000000N
071989061012103399FUENTEHERIDOS                                                                                       000700700000000645000010000048500000485000000000000000000000126000001640000000200000001000002490000000000000000000N
071989061012103499GALAROZA                                                                                            000700700000001694000020000129300001293000000000000000000000354000004630000000700000000000006780000000000000000000N
071989061012103599GIBRALEON                                                                                           004104100000009733000090000691400006914000000000000000000001952000026680000002200000020000045230000000000000000000N
071989061012103699GRANADA RIOTINTO (LA)                                                                               000700700000000225000010000018200000179000000000000000000000049000000620000000400000000000001090000000000000000000N
071989061012103799GRANADO (EL)                                                                                        001001000000000717000010000053400000534000000000000000000000132000001630000000000000000000003210000000000000000000N
071989061012103899HIGUERA DE LA SIERRA                                                                                000700700000001439000010000108600001086000000000000000000000190000002280000000200000009000003990000000000000000000N
071989061012103999HINOJALES                                                                                           000700700000000499000010000040000000400000000000000000000000090000001100000000000000001000001640000000000000000000N
