061991051384999000113006TJUAN FRANCISCO DELGADO GOMEZ                                                000000000000000000N
061991051384999000113009TOSCAR BELLO GARCIA                                                          000000000000000000N
061991051384999000113022TANGEL MARTIN FALCON DOMINGUEZ                                               000000000000000000N
061991051384999000113023TJUAN REBOSO ACOSTA                                                          000000000000000000N
061991051351999000121003TJOSE FRANCISCO FALERO RODRIGUEZ (CNC)                                       000000000000000000N
061991051384999000121015TJOSE LUIS FARIÑA MIRANDA(FREPIC AWAÑAK)                                     000000000000000000N
061991051384999000121024TANTONIO PIMIENTA MARTIN(CNC)                                                000000000000000000N
061991051352999000121004TMATEO MARTIN MARTIN(INDEPENDIENTE)                                          000000000000000000N
061991051352999000121007TMARIA DEL ROSARIO PEREZ ROCIO(CNC)                                          000000000000000000N
061991051352999000121013TCIPRIANO SUAREZ GRAFFIGNA(CNC)                                              000000000000000000N
061991051352999000121014TCLOTILDO JUAN MARTIN DUARTE(CNC)                                            000000000000000000N
061991051353999000163007TMARCELINO FIGUEROA UMPIERREZ                                                000000000000000000N
061991051386999000198009TLUIS FERNANDO AMAYA CORDOVEZ                                                000000000000000000N
061991051384999000245005TMIGUEL ZEROLO AGUILAR                                                       000000000000000000S
061991051384999000245024TJERONIMO JESUS FREGEL PEREZ                                                 000000000000000000N
061991051386999000246013TMANUEL RAMON DARIAS PADRON                                                  000000000000000000N
061991051385999000247003TJOSE LUIS PERESTELO RODRIGUEZ                                               000000000000000000S
061991051385999000247004TANA ISABEL LEON ROCHA                                                       000000000000000000S
061991051385999000247008TFRANCISCO JAVIER GONZALEZ PEREZ                                             000000000000000000N
061991051387999000002005TMOISES CABRERA ACOSTA                                                       000000000000000000N
061991051353999000002001TANTONIO VICENTE HORMIGA ALONSO                                              000000000000000000N
061991051353999000002014TFRANCISCO JAVIER AMADOR BRITO                                               000000000000000000N
061991051385999000002003TVICENTE CAPOTE CABRERA                                                      000000000000000000S
061991051385999000002012TLUCIANO GARCIA MARTIN                                                       000000000000000000N
061991051352999000002003TLUIS C. ARRAEZ GUADALUPE                                                    000000000000000000N
061991051352999000002021TBERNABE LEMES FUENTES                                                       000000000000000000N
061991051351999000003008TMATEO SANTANA SANCHEZ                                                       000000000000000000N
061991051351999000003016TJOSE DEL PINO PEREZ RAMIREZ                                                 000000000000000000N
061991051351999000003018TAGUSTIN NARANJO NARANJO                                                     000000000000000000N
061991051351999000003023TJOSE ORTEGA SANTANA                                                         000000000000000000N
061991051351999000003025TOSCAR BRUNO FALCON RODRIGUEZ                                                000000000000000000N
061991051384999000003006TESTEBAN HERNANDEZ GARCIA                                                    000000000000000000N
061991051384999000003015TJESUS VICENTE FALCON GONZALEZ                                               000000000000000000N
061991051384999000003017THILARIO DE LA CRUZ JACINTO DEL CASTILLO                                     000000000000000000N
061991051384999000003020TFRANCISCO GATO GATO                                                         000000000000000000N
061991051352999000113021TGREGORIO NICOLAS SANCHEZ                                                    000000000000000000N
061991051351999000115011TGENARO CABRERA DIAZ                                                         000000000000000000N
061991051351999000115014TALFONSO DAVILA QUINTANA                                                     000000000000000000N
061991051351999000115024TM. CONCEPCION RAMIREZ LOPEZ                                                 000000000000000000N
061991051351999000115025TSANTIAGO ORTEGA SANTANA                                                     000000000000000000N
061991051351999000116003TMOHAMED ADIB MOUHAFFEL HOMSI                                                000000000000000000N
061991051351999000116011TSANTIAGO PABLO GUERRA DOMINGUEZ                                             000000000000000000N
061991051351999000116018TCARMELO SANCHEZ GONZALEZ                                                    000000000000000000N
061991051351999000116019TALEJANDRO CANO LOPEZ                                                        000000000000000000N
061991051351999000116023TM. LETICIA RODRIGUEZ MANZANO                                                000000000000000000N
061991051351999000117011TJORGE RAMOS MARRERO                                                         000000000000000000N
061991051351999000117012TANDRES BENIGNO CABRERA BARRAMEDA                                            000000000000000000N
061991051351999000117019TCARLOTA DEL PINO VELEZ QUINTANA                                             000000000000000000N
061991051351999000117021TARMANDO HERNANDEZ REYES                                                     000000000000000000N
061991051351999000117025TANTONIO RODRIGUEZ JUAN                                                      000000000000000000N
061991051384999000117005TMANUELA ROSA HERNANDEZ FELIPE                                               000000000000000000N
061991051352999000001011TJOSE LUIS APARICIO MORALES                                                  000000000000000000N
061991051352999000001013TJOSE MANUEL DE LEON VILLALBA                                                000000000000000000N
061991051352999000001016TPABLO NICOLAS GONZALEZ MARTIN                                               000000000000000000N
061991051352999000001018TTOMAS JOSE HERNANDEZ DOMINGUEZ                                              000000000000000000N
061991051351999000002002TNICOLAS VILLALOBOS DE PAIZ                                                  000000000000000000S
061991051351999000002004TMARIA DEL CARMEN CHAVANEL GONZALEZ                                          000000000000000000S
061991051351999000002016TBENITO RAMOS MONZON                                                         000000000000000000N
061991051384999000002002TALFREDO LUIS GONZALEZ GARCIA                                                000000000000000000S
061991051384999000002003TJOSE MIGUEL ACEVEDO GONZALEZ                                                000000000000000000N
061991051384999000002004TJOSE MORERA SANTANA                                                         000000000000000000N
061991051386999000002001TTOMAS CERDEÑA BRITO                                                         000000000000000000N
061991051386999000002002TALEJANDRO RAMOS HERNANDEZ                                                   000000000000000000N
061991051386999000002004TMIGUEL ANGEL ALCON ASCANIO                                                  000000000000000000N
061991051384999000002008TJOSE HILARIO DELGADO GARZON                                                 000000000000000000N
061991051384999000002009TMARIA DE LOS ANGELES HERNANDEZ RODRIGUEZ                                    000000000000000000N
061991051384999000002010TJOSE JUAN PEREZ CAPOTE                                                      000000000000000000N
061991051385999000001013TALFREDO CONCEPCION MARTIN                                                   000000000000000000N
061991051352999000001003TLEOPOLDO LORENZO CABRERA LASSO                                              000000000000000000S
061991051352999000001006TSERGIO MACHIN LEON                                                          000000000000000000S
061991051351999000002014TLEONCIO JOSE MARTIN QUESADA                                                 000000000000000000N
061991051351999000002021TCLARA DIAZ JIMENEZ                                                          000000000000000000N
061991051351999000002025TMARIA TERESA VEGA CURBELO                                                   000000000000000000N
061991051386999000002011TMIGUEL ANGEL PLASENCIA ARTEAGA                                              000000000000000000N
061991051386999000002012TFRANCISCO IRIBARNE RAMOS                                                    000000000000000000N
061991051384999000002021TJACINTO MOLINA GOMEZ                                                        000000000000000000N
061991051384999000002026TJOSE TOMAS DIAZ ABREU                                                       000000000000000000N
061991051387999000002007TCARMEN DOLORES PADRON CASTAÑEDA                                             000000000000000000N
061991051353999000002004TJOSE LUIS DE ST. TOMAS ARMAS FRANQUIZ                                       000000000000000000N
061991051353999000002005TBLAS FRANQUIZ HIERRO                                                        000000000000000000N
061991051385999000002016TARQUIMEDES GARCIA PEREZ                                                     000000000000000000N
061991051352999000002015TDIONISIO VERA MORERA                                                        000000000000000000N
061991051351999000003014TANSELMO MARTIN MEDINA                                                       000000000000000000N
061991051384999000003011TJOSE PERAL RODRIGUEZ                                                        000000000000000000N
061991051353999000003003TRAMON PANIAGUA PERDOMO                                                      000000000000000000S
061991051385999000003011TRODOLFO GONZALEZ MARTIN                                                     000000000000000000N
061991051385999000003017TESTHER DOLORES GONZALEZ HERNANDEZ                                           000000000000000000N
061991051352999000003002TJOSE MANUEL FIESTAS COLL                                                    000000000000000000S
061991051352999000003013TELEUTERIO FCO. GONZALEZ RODRIGUEZ                                           000000000000000000N
061991051352999000003018TMANUEL PEREZ RODRIGUEZ                                                      000000000000000000N
061991051384999000013012TMARIA CANDELARIA MARTIN GONZALEZ                                            000000000000000000N
061991051384999000013017TJUAN PEDRO PEREZ PEÑA                                                       000000000000000000N
061991051384999000013019TRAMON MARTIN CANO                                                           000000000000000000N
061991051351999000040014TDARIO RUBEN ALVAREZ ALMEIDA                                                 000000000000000000N
061991051351999000040018TRITA BEATRIZ PADES ALAMO                                                    000000000000000000N
061991051351999000040023TCECILIO GIL MONTESDEOCA                                                     000000000000000000N
061991051351999000040027TESTHER LIDIA GOMEZGIL                                                       000000000000000000N
061991051351999000044021TFELIPE MARTIN SANTANA                                                       000000000000000000N
061991051351999000044027TOSCAR MOTA TERSEÑO                                                          000000000000000000N
061991051385999000113005TANTONIO CONCEPCION CACERES                                                  000000000000000000N
061991051385999000113016TMARIA PILAR DACUÑA BERMEJO                                                  000000000000000000N
061991051385999000113019TNIEVES MARIA RODRIGUEZ BRITO                                                000000000000000000N
061991051352999000113002TJOSE MANUEL PAEZ ALVAREZ                                                    000000000000000000N
061991051352999000113012TM. ANTONIA COELLO MIRANDA                                                   000000000000000000N
061991051352999000113019TM. REYES TARAJANO TABARES                                                   000000000000000000N
061991051352999000113020TFLORA M. LUIS CABRERA                                                       000000000000000000N
061991051351999000115009THECTOR A. CABRERA GARCIA                                                    000000000000000000N
061991051351999000115029TMARGARITA GONZALEZ FALCON                                                   000000000000000000N
061991051351999000116020TCARMEN DELIA RODRIGUEZ SANCHEZ                                              000000000000000000N
061991051351999000116025TJOSE LUIS MORENO HERNANDEZ                                                  000000000000000000N
061991051351999000117014TGREGORIO CASTELLANO BATISTA                                                 000000000000000000N
061991051351999000117022TJUAN LUIS SOUSA PULIDO                                                      000000000000000000N
061991051384999000117001TANTONIO ANGEL PEREZ PEREZ                                                   000000000000000000N
061991051384999000117018TALFREDO HERNANDEZ VERA (INDEPENDIENTE)                                      000000000000000000N
061991051384999000117021TMIGUEL ANGEL LORENZO DIAZ                                                   000000000000000000N
061991051351999000001006TJUAN JOSE ESPINO DEL TORO                                                   000000000000000000S
061991051351999000001010TJOSE LUIS BATISTA COSTA                                                     000000000000000000S
061991051351999000001012TSEBASTIANA GONZALEZ NARANJO                                                 000000000000000000S
061991051351999000001026TEMILIA JOSEFINA SANCHEZ PALACIOS                                            000000000000000000N
061991051351999000001028TMANUEL FRANCISCO CABRERA SUAREZ                                             000000000000000000N
061991051384999000120024TMARIA ANGELES CASTAÑARES RODRIGUEZ                                          000000000000000000N
061991051351999000120002TJOSE MANUEL VELAZQUEZ MARRERO                                               000000000000000000N
061991051351999000120003TJUAN LEON PERERA                                                            000000000000000000N
061991051351999000120010TMANUEL JAVIER BETANCOR SOSA                                                 000000000000000000N
061991051351999000120015TROSENDO FELIPE MENDOZA MIRANDA                                              000000000000000000N
061991051351999000120019TANGEL LOPEZ FRANCO                                                          000000000000000000N
061991051351999000120025TTOMAS ROS ALMIRON                                                           000000000000000000N
061991051351999000120027TJUAN ANTONIO DOS REIS RUIZ HERRERA                                          000000000000000000N
061991051351999000120029TM. CONCEPCION LASO LLOPIS                                                   000000000000000000N
061991051384999000121006TJOSE MANUEL MARTIN ACOSTA(FREPIC AWAÑAK)                                    000000000000000000N
061991051351999000121001TIGNACIO HILARIO GUERRA DEL ROSARIO (FREPIC-AWAÑAK)                          000000000000000000N
061991051351999000121010TJOSE MELIAN FALCON (FREPIC-AWAÑAK)                                          000000000000000000N
061991051351999000121024TANTONIO JOSE PEREZ REDONDO (INDEPENDIENTE)                                  000000000000000000N
061991051352999000002007TEMILIO BERMUDEZ HERNANDEZ                                                   000000000000000000N
061991051352999000002016TJUAN JESUS HERNANDEZ MORALES                                                000000000000000000N
061991051351999000003002TALFONSO ARMAS AYALA                                                         000000000000000000S
061991051351999000003009TFRANCISCO AFONSO CABRERA                                                    000000000000000000N
061991051384999000003012TMARIA DE LAS MERCEDES GUTIERREZ HERNANDEZ                                   000000000000000000N
061991051384999000003021TJOSE CABEZA ESPINEL                                                         000000000000000000N
061991051353999000003009TCARMEN G. GONZALEZ MONTELONGO                                               000000000000000000N
061991051353999000003015TALBERTO RODRIGUEZ BATISTA                                                   000000000000000000N
061991051385999000003001TLUIS GARCIA MARTIN                                                          000000000000000000S
061991051385999000003009TRODRIGO PAIS CAPOTE                                                         000000000000000000N
061991051385999000003014TANGEL HERNANDEZ DIAZ                                                        000000000000000000N
061991051385999000003018TMIGUEL RUBENS PEREZ MARTIN                                                  000000000000000000N
061991051352999000003003TCANDIDO REGUERA DIAZ                                                        000000000000000000S
061991051352999000003017TTOMAS JOSE BORGES GARCIA                                                    000000000000000000N
061991051352999000003021TRAFAEL SILVA BETANCORT                                                      000000000000000000N
061991051384999000013005TBENITO PEDRO AYALA BERMUDEZ                                                 000000000000000000N
061991051384999000013014TCARMEN LEONOR PEREZ PEREZ                                                   000000000000000000N
061991051385999000113004TANDRENIO GONZALEZ MARTIN                                                    000000000000000000N
061991051385999000113006TJOSE VICENTE AYUT PEREZ                                                     000000000000000000N
061991051385999000113009TCARMEN NIEVES SANJUAN DUQUE                                                 000000000000000000N
061991051385999000113011TALFREDO PEREZ DIEZ                                                          000000000000000000N
061991051352999000113018TAGUSTIN ALEMAN PEREZ                                                        000000000000000000N
061991051351999000115002TFRANCISCA SANCHEZ MACIAS                                                    000000000000000000N
061991051351999000115008TLEOCADIA MONTESDEOCA RIVERO                                                 000000000000000000N
061991051351999000115013TDAMIAN ACOSTA NOBLE                                                         000000000000000000N
061991051351999000116001TLUIS FCO. PULIDO PEREZ                                                      000000000000000000N
061991051351999000116005TDOLORES RIVERO ROMERO                                                       000000000000000000N
061991051351999000116007TMANUEL ARTILES MONZON                                                       000000000000000000N
061991051351999000116012TAGUSTIN RODRIGUEZ QUEVEDO                                                   000000000000000000N
061991051351999000116014TPEDRO JUAN SANTANA PEREZ                                                    000000000000000000N
061991051351999000116027TANTONIO GALLARDO CARMONA                                                    000000000000000000N
061991051351999000117001TARTEMI SUAREZ ZOGHBI                                                        000000000000000000N
061991051351999000117002TEZEQUIEL ANTUNEZ CABRERA                                                    000000000000000000N
061991051385999000247015TJAVIER FRANCISCO PEREZ PEREZ                                                000000000000000000N
061991051385999000247020TEVA COVADONGA VARGAS REMEDIOS                                               000000000000000000N
061991051351999000001008TJOSE ANTONIO RUIZ CABALLERO                                                 000000000000000000S
061991051351999000001014TVICENTE MARIA QUINTANA PEREZ                                                000000000000000000N
061991051351999000001017TTOMAS PEREZ JIMENEZ                                                         000000000000000000N
061991051351999000001029TJOSE MANUEL CARDENES RIVERO                                                 000000000000000000N
061991051384999000001001TSANTIAGO PEREZ GARCIA                                                       000000000000000000S
061991051384999000001027TJOSE VICENTE HERRERA PEREZ                                                  000000000000000000N
061991051386999000001004TPEDRO LUIS GARCIA CORREA                                                    000000000000000000S
061991051385999000001001TFELIPE HERNANDEZ RODRIGUEZ                                                  000000000000000000S
061991051385999000001018TLUIS ALBERTO ORTEGA MARTIN                                                  000000000000000000N
061991051352999000001004TCARMELO GARCIA DENIZ                                                        000000000000000000S
061991051352999000001007TJUANA CONCEPCION SANTACRUZ SOCAS                                            000000000000000000N
061991051352999000001017TANTONIO GONZALEZ MEDINA                                                     000000000000000000N
061991051384999000001007TLUIS ALEJANDRO SANEN GONZALEZ CLAVIJO                                       000000000000000000S
061991051386999000001005TJOSE MIGUEL CRUZ LEON                                                       000000000000000000S
061991051387999000001007TJUAN RAFAEL ZAMORA PADRON                                                   000000000000000000N
061991051387999000001011TBASILIO ALBERTO FEBLES ARMAS                                                000000000000000000N
061991051385999000001003TJUAN ANTONIO MARTIN GOMEZ                                                   000000000000000000S
061991051353999000001002TRAFAEL PERDOMO BETANCOR                                                     000000000000000000S
061991051353999000001008TVICENTE RODRIGUEZ GONZALEZ                                                  000000000000000000N
061991051353999000001010TFELIX GONZALEZ GUERRA                                                       000000000000000000N
061991051353999000001016TBERNARDO DE S. IGNACIO PEREZ FRANCES                                        000000000000000000N
061991051385999000001019TMARIA ANGELES TABARES RODRIGUEZ                                             000000000000000000N
061991051352999000001005TSEGUNDO RODRIGUEZ GONZALEZ                                                  000000000000000000S
061991051351999000048002TJOAQUIN ALBERTO CACERES MORENO                                              000000000000000000N
061991051351999000048016TMARIA ANGELES GALVAN MARTIN                                                 000000000000000000N
061991051387999000107006TJUAN LUIS QUINTERO QUINTERO                                                 000000000000000000N
061991051386999000113001TPEDRO ANICETO MEDINA CALERO                                                 000000000000000000N
061991051351999000113001TPEDRO LEZCANO MONTALVO                                                      000000000000000000S
061991051351999000113011TJOSE JUAN MENDOZA VEGA                                                      000000000000000000N
061991051351999000113014TMANUEL ROMERO MORENTE                                                       000000000000000000N
061991051351999000113019TFERNANDO ARTILES GUERRA                                                     000000000000000000N
061991051384999000113001TJOSE WLADIMIRO RODRIGUEZ BRITO                                              000000000000000000S
061991051384999000113007TAGUSTIN MAXIMO PADILLA FUENTES                                              000000000000000000N
061991051384999000113008TMARIA JESUS PONCE GONZALEZ                                                  000000000000000000N
061991051387999000113006TCELESTINO HERNANDEZ HERNANDEZ                                               000000000000000000N
061991051387999000113007TJOSE MIGUEL PADRON PADRON                                                   000000000000000000N
061991051352999000113005TRAMON PEREZ FARRAY                                                          000000000000000000N
061991051352999000113006TMARTIN ESTEVEZ SANTANA                                                      000000000000000000N
061991051351999000115016TARMANDO LORENZO MEDINA                                                      000000000000000000N
061991051386999000198001TCANDIDO ELOY HERNANDEZ MARTIN                                               000000000000000000S
061991051384999000245002TJOSE CARLOS FRANCISCO DIAZ                                                  000000000000000000S
061991051384999000245017TDOMINGO CALZADILLA FERRERA                                                  000000000000000000N
061991051384999000245025TALFREDO MIGUEL BELDA QUINTANA                                               000000000000000000N
061991051386999000246003TMARIA GUADALUPE DARIAS PADRON                                               000000000000000000N
061991051386999000246010TROBERTO LEON PADILLA PADRON                                                 000000000000000000N
061991051385999000247006THIGINIO MAXIMO BRITO RODRIGUEZ                                              000000000000000000S
061991051385999000247021TMARIA DEL PILAR TOLEDO HERNANDEZ                                            000000000000000000N
061991051351999000001016TPEDRO VILLAR BUENO                                                          000000000000000000N
061991051351999000001022TISMAEL RODRIGUEZ HERNANDEZ                                                  000000000000000000N
061991051351999000001027TJOSE ANTONIO RODRIGUEZ RODRIGUEZ                                            000000000000000000N
061991051384999000001002TJUAN CARLOS ALEMAN SANTANA                                                  000000000000000000S
061991051384999000001015TROSA MARIA CRUZ HERNANDEZ                                                   000000000000000000N
061991051384999000001025TESPERANZA MARTIN DELGADO                                                    000000000000000000N
061991051386999000001001TCASIMIRO CURBELO CURBELO                                                    000000000000000000S
061991051386999000001012TFERNANDO MANUEL HERNANDEZ FERRER                                            000000000000000000N
061991051351999000121008TANGEL CUENCA SANABRIA (FREPIC-AWAÑAK)                                       000000000000000000N
061991051384999000121007TJOSE ANTONIO GUADARRAMA SAN LUIS(CNC)                                       000000000000000000N
061991051384999000121018TELADIO DUQUE RIVERO(CNC)                                                    000000000000000000N
061991051384999000121022TPEDRO MANUEL GONZALEZ CANOVAS(CNC)                                          000000000000000000N
061991051384999000121027TJUAN MANUEL PADRON MARQUEZ(CNC)                                             000000000000000000N
061991051352999000121003TJOSE GARCIA CORUJO(CNC)                                                     000000000000000000N
061991051352999000121005TFRANCISCO BERRIEL GARCIA(CNC)                                               000000000000000000N
061991051352999000121008TAGUSTIN GUTIERREZ DE LEON(CNC)                                              000000000000000000N
061991051352999000121012TJOSE DOMINGO GUADALUPE MARTIN(CNC)                                          000000000000000000N
061991051352999000121019TMARIA DEL CARMEN MONTELONGO BERRIEL(CNC)                                    000000000000000000N
061991051353999000163008TMANUEL GONZALEZ HERNANDEZ                                                   000000000000000000N
061991051384999000245001TADAN PABLO MARTIN MENIS                                                     000000000000000000S
061991051384999000245003TRICARDO MELCHOR NAVARRO                                                     000000000000000000S
061991051384999000245007TADOLFO HOYOS-LIMON GIL                                                      000000000000000000S
061991051384999000245018TDULCE MARIA PEREZ LOPEZ                                                     000000000000000000N
061991051384999000120013TFRANCISCA PERERA RAMOS                                                      000000000000000000N
061991051384999000120016TPILAR CRUZ CRISOSTOMO                                                       000000000000000000N
061991051384999000117012TJOSE MIGUEL RAMOS MEGOLLA                                                   000000000000000000N
061991051384999000117015TFERMIN CASTILLO DELGADO                                                     000000000000000000N
061991051352999000117001TMARIANO MANUEL TAVIO CABRERA                                                000000000000000000N
061991051352999000117015TJUAN JESUS GONZALEZ TAVIO                                                   000000000000000000N
061991051351999000118018TJOSEFINA SUAREZ DIAZ                                                        000000000000000000N
061991051351999000118021TANA M. RAMIREZ BAILY                                                        000000000000000000N
061991051351999000118023TFCO. JOSE FUENTES MARTIN                                                    000000000000000000N
061991051351999000118024TM. ELENA QUESADA PEREZ                                                      000000000000000000N
061991051384999000120008TMARIA TERESA JOSEFA FERNANDEZ VELAZQUEZ                                     000000000000000000N
061991051384999000120020TBLAS MARTIN MARRERO                                                         000000000000000000N
061991051351999000120009TANTONIA GLORIA DAVILA MARRERO                                               000000000000000000N
061991051351999000120014TLAURENCIA GENEROSA GUERRA PEREZ                                             000000000000000000N
061991051351999000120024TDELFINA AJENJO BONAFE                                                       000000000000000000N
061991051351999000120028TMARIA DE LOS ANGELES LOPEZ SANCHEZ                                          000000000000000000N
061991051351999000121004TNORBERTO ANGULO RODRIGUEZ (INDEPENDIENTE)                                   000000000000000000N
061991051351999000121005TJESUS MEDINA ALONSO (CNC)                                                   000000000000000000N
061991051351999000117018TDOMINGA ARTILES HERNANDEZ                                                   000000000000000000N
061991051351999000117028TJUAN LUIS BARRAGAN UMPIERREZ                                                000000000000000000N
061991051384999000117008TMARIA ISABEL FIGUEROA BARROSO                                               000000000000000000N
061991051384999000117025TFRANCISCO CHAVEZ MESA                                                       000000000000000000N
061991051352999000117002TMANUEL MARQUEZ SOCAS                                                        000000000000000000N
061991051352999000117009TALBERTO MARTIN CORUJO                                                       000000000000000000N
061991051352999000117010TJUAN MANUEL GUERRA ZERPA                                                    000000000000000000N
061991051352999000117011TANDRES CABRERA GARCIA                                                       000000000000000000N
061991051352999000117016TMARIA DULCENOMBRE VIZCAINO FONTES                                           000000000000000000N
061991051352999000117018TJOSE LUIS PEREZ HERNANDEZ                                                   000000000000000000N
061991051351999000118004TLUIS FIDEL QUINTANA SUAREZ                                                  000000000000000000N
061991051351999000118013TVICTOR MANUEL QUINTANA RGUEZ.                                               000000000000000000N
061991051351999000118017TAGUSTIN PRIETO RINQUEL                                                      000000000000000000N
061991051351999000118019TSANTIAGO SANCHEZ DEVORA                                                     000000000000000000N
061991051351999000118028TANA ESTHER CURBERO NORDELO                                                  000000000000000000N
061991051384999000120003TCORONA ALONSO SANTOS                                                        000000000000000000N
061991051353999000001007TJOSE CERDEÑA RODRIGUEZ                                                      000000000000000000N
061991051353999000001013THORTENSIA PEREZ PEREZ                                                       000000000000000000N
061991051385999000001015TMARIA LUISA BRITO HERNANDEZ                                                 000000000000000000N
061991051385999000001017TVICTOR MANUEL SICILIA PEREZ                                                 000000000000000000N
061991051352999000001010TDELIA HERNANDEZ ROSA                                                        000000000000000000N
061991051352999000001012TLUCIA OLGA TEJERA RODRIGUEZ                                                 000000000000000000N
061991051351999000002001TJOSE MACIAS SANTANA                                                         000000000000000000S
061991051351999000002008TANTONIO MORENO HENRIQUEZ                                                    000000000000000000N
061991051351999000002013TJOSE MANUEL MIRANDA HERNANDO                                                000000000000000000N
061991051351999000002017TPEDRO ZURITA SANTANA                                                        000000000000000000N
061991051386999000002005TANA LUISA RODRIGUEZ SANCHEZ                                                 000000000000000000N
061991051386999000002007TTOMAS HERRERA PADILLA                                                       000000000000000000N
061991051384999000002013TALBERTO LUIS LOPEZ GARCIA                                                   000000000000000000N
061991051384999000002019TFRANCISCO BERMUDEZ GONZALEZ                                                 000000000000000000N
061991051384999000002022TJOSE MIGUEL DIAZ TORRES                                                     000000000000000000N
061991051352999000002005TMARIA CONCEP. PEREZ GONZALEZ                                                000000000000000000N
061991051351999000048010TGEORGINA ALONSO CABALLERO                                                   000000000000000000N
061991051351999000048011TROSARIO LORENZO HERNANDEZ                                                   000000000000000000N
061991051351999000048014TMARIANA LORETO LOPEZ GOMEZ                                                  000000000000000000N
061991051351999000048023TALFREDO ESTUPIÑAN GONZALEZ                                                  000000000000000000N
061991051387999000107004TJUAN RAMON ABREU GUTIERREZ                                                  000000000000000000S
061991051387999000107008TJUAN ANTONIO PADRON ARMAS                                                   000000000000000000N
061991051386999000113004TMARIANO PEREZ SANCHEZ                                                       000000000000000000N
061991051386999000113009TZENAIDA NEGRIN ESTEVEZ                                                      000000000000000000N
061991051386999000113010TRIGOBERTO NIEBLA GARCIA                                                     000000000000000000N
061991051351999000113009TFERNANDO TEOFILO ROMERO ROMERO                                              000000000000000000N
061991051351999000113023TM. GORETTI DEL PILAR LLEBRI HENRIQUEZ                                       000000000000000000N
061991051384999000113002TMELCHOR NUÑEZ PEREZ                                                         000000000000000000S
061991051386999000246001TFRANCISCO VERA ARMAS                                                        000000000000000000N
061991051386999000246004TPABLO HERRERA ARTEAGA                                                       000000000000000000N
061991051386999000246011TFRANCISCO RAMON DARIAS DARIAS                                               000000000000000000N
061991051385999000247005TRAFAEL DARANAS HERNANDEZ                                                    000000000000000000S
061991051385999000247007TELENA NEMESIA DIAZ MORERA                                                   000000000000000000S
061991051386999000198010TGLADYS ESTHER GONZALEZ VERA                                                 000000000000000000N
061991051386999000198012TJORGE LEON SUAREZ COELLO                                                    000000000000000000N
061991051384999000245006TMARIA LUISA ZAMORA RODRIGUEZ                                                000000000000000000S
061991051384999000245012TFROILAN HERNANDEZ GONZALEZ                                                  000000000000000000S
061991051384999000245015TMARIA PILAR PAREJO BELLO                                                    000000000000000000N
061991051384999000245022TJOSE ANTONIO GARCIA FUERTES                                                 000000000000000000N
061991051384999000245026TLUIS ARTURO BELLO RAMIREZ                                                   000000000000000000N
061991051386999000246008TLUZ MARINA MENDOZA DARIAS                                                   000000000000000000N
061991051385999000247009TJULIA ROSARIO DOMINGUEZ LORENZO                                             000000000000000000N
061991051385999000247018TARISTIDES LORENZO RODRIGUEZ                                                 000000000000000000N
061991051351999000001002TLUIS HIPOLITO HERNANDEZ AFONSO                                              000000000000000000S
061991051351999000001003TFRANCISCO RAMOS CAMEJO                                                      000000000000000000S
061991051351999000001004TDOMINICA FERNANDEZ FERNANDEZ                                                000000000000000000S
061991051351999000001005TFRANCISCO JIMENEZ SUAREZ                                                    000000000000000000S
061991051351999000001007TDEMETRIO SUAREZ DIAZ                                                        000000000000000000S
061991051351999000001019TBLAS SIMON ARTILES TOLEDO                                                   000000000000000000N
061991051351999000048006TAGUSTIN GIL MARTEL                                                          000000000000000000N
061991051351999000048009TJUAN FRANCISCO SANTANA ALONSO                                               000000000000000000N
061991051351999000048019TCARMEN DELIA MONTESDEOCA VILLEGAS                                           000000000000000000N
061991051351999000048025TJOSE MARRERO SUAREZ                                                         000000000000000000N
061991051387999000107001TVENANCIO ACOSTA PADRON                                                      000000000000000000S
061991051387999000107005TMARIA DEL CARMEN HERNANDEZ DORTA                                            000000000000000000N
061991051387999000107007TMAXIMILIANO CEJAS MERIDA                                                    000000000000000000N
061991051386999000113005TMANUEL JESUS SANTOS BRITO                                                   000000000000000000N
061991051351999000113020TANTONIO JOSE SANTANA PERDOMO                                                000000000000000000N
061991051351999000113025TJOSE ANTONIO DOMINGUEZ RAMIREZ                                              000000000000000000N
061991051384999000113010TVALENTIN HERNANDEZ VAQUERO                                                  000000000000000000N
061991051384999000113018TJUSTO MANUEL CARIDAD PULIDO                                                 000000000000000000N
061991051384999000113019TMANUEL ANGEL AFONSO GARCIA                                                  000000000000000000N
061991051387999000113001TAURELIO AYALA FONTE                                                         000000000000000000S
061991051385999000113003TANA ISABEL LEON ACOSTA                                                      000000000000000000N
061991051385999000113010TFRANCISCO JAVIER NERIS PAZ                                                  000000000000000000N
061991051351999000121015TAMELIA BRITO MONZON (FREPIC-AWAÑAK)                                         000000000000000000N
061991051351999000121017TRAFAEL FRANQUELO MORILLAS (FREPIC-AWAÑAK)                                   000000000000000000N
061991051384999000121009TJOSE JAIME AFONSO DIAZ(CNC)                                                 000000000000000000N
061991051384999000121019TJOSE LUIS GARCIA QUINTERO(FREPIC AWAÑAK)                                    000000000000000000N
061991051352999000121016TMARIA ROSA ACOSTA ROSA(INDEPENDIENTE)                                       000000000000000000N
061991051353999000163002TALFREDO ALBERTO HERNANDEZ                                                   000000000000000000S
061991051353999000163006TCARLOS SANCHEZ RAMOS                                                        000000000000000000N
061991051353999000163009TJOSE CASTAÑEYRA GONGORA                                                     000000000000000000N
061991051353999000163014TRAMON SANCHEZ RAMOS                                                         000000000000000000N
061991051353999000163015TABRAHAN RODRIGUEZ RODRIGUEZ                                                 000000000000000000N
061991051353999000163017TCARMELO SILVERA RODRIGUEZ                                                   000000000000000000N
061991051384999000245009TRAFAEL GUILLERMO DE SAJA SAEZ                                               000000000000000000S
061991051384999000245016TJOSE ANDRES RODRIGUEZ DE LA SIERRA CABRERA                                  000000000000000000N
061991051386999000246005TFRANCISCO ISIDRO VERA SANTOS                                                000000000000000000N
061991051386999000246006TCORNELIO DARIAS PADRON                                                      000000000000000000N
061991051386999000246012TSALVADOR PADILLA PADILLA                                                    000000000000000000N
061991051351999000003004TDOMINGO CABALLERO PERDOMO                                                   000000000000000000S
061991051351999000003010TFRANCISCO SARMIENTO CABRERA                                                 000000000000000000N
061991051351999000003012TCAYETANO V. J. GONZALEZ PADRON                                              000000000000000000N
061991051351999000003020TSALVADOR JESUS VILLANUEVA RUANO                                             000000000000000000N
061991051384999000003002TANTONIO FELIX DAROCA SICILIA                                                000000000000000000N
061991051384999000003005TSALVADOR GONZALEZ DE LA CRUZ                                                000000000000000000N
061991051384999000003016TANTONIO CRUZ GARCIA                                                         000000000000000000N
061991051384999000003018TLUIS GONZALO ULE GONZALEZ                                                   000000000000000000N
061991051384999000003019TJAVIER ESCUDERO PASCUAL                                                     000000000000000000N
061991051353999000003006TMARCIAL AROCHA RODRIGUEZ                                                    000000000000000000N
061991051353999000003011TJUAN UMPIERREZ UMPIERREZ                                                    000000000000000000N
061991051353999000003014TJUAN MARTIN MARTIN                                                          000000000000000000N
061991051385999000003007TJOSE LUIS DIAZ PEREZ                                                        000000000000000000N
061991051352999000003007TDOMINGO PERERA PEREZ                                                        000000000000000000N
061991051352999000003008TMARGARITA CUYAS GOMEZ                                                       000000000000000000N
061991051384999000013006TMARIA BELEN HERNANDEZ CANO                                                  000000000000000000N
061991051351999000113008TM. ENCARNACION MORIN DE LEON                                                000000000000000000N
061991051384999000113016TANTONIO CABRERA EXPOSITO                                                    000000000000000000N
061991051384999000113017TJOSE ISIDORO HERNANDEZ MORIN                                                000000000000000000N
061991051384999000113021TFLORISEL MENDOZA SANTOS                                                     000000000000000000N
061991051387999000113005TMAXIMO PADRON QUINTERO                                                      000000000000000000N
061991051385999000113017TFRANCISCO ANGEL MARTINEZ PAREDES                                            000000000000000000N
061991051352999000113004TSOLEDAD CARABALLO PEREZ                                                     000000000000000000N
061991051351999000115006TAGUSTIN PEREZ QUINTANA                                                      000000000000000000N
061991051351999000115015TM. ELVIRA GALIANO HERNANDEZ                                                 000000000000000000N
061991051351999000115018TLIDIA ESTHER PEREZ QUINTANA                                                 000000000000000000N
061991051351999000115026TDONATO GONZALEZ ROSALES                                                     000000000000000000N
061991051351999000116009TSANTIAGO MENDOZA TRUJILLO                                                   000000000000000000N
061991051351999000116010TM. CANDELARIA FREGEL RODRIGUEZ                                              000000000000000000N
061991051351999000116021TMARIA LOURDES CASANOVA LOPEZ                                                000000000000000000N
061991051351999000117004TJOSE LUIS GUERRA MARRERO                                                    000000000000000000N
061991051351999000117005TM. DEL CARMEN JIMENEZ DORESTE                                               000000000000000000N
061991051384999000245010TJOSE MANUEL BERMUDEZ ESPARZA                                                000000000000000000S
061991051384999000245021TPEDRO REYES TRUJILLO                                                        000000000000000000N
061991051384999000245023TJOSE SARABIA MEDEL                                                          000000000000000000N
061991051385999000247001TANTONIO ANGEL CASTRO CORDOBEZ                                               000000000000000000S
061991051385999000247011TANTONIO HERNANDEZ GOMEZ                                                     000000000000000000N
061991051385999000247013TJOSE ALFREDO PEREZ PIÑERO                                                   000000000000000000N
061991051385999000247014TJUAN CRISPO PERDOMO CASTRO                                                  000000000000000000N
061991051385999000247017TJORGE JULIO DE PAZ PEREZ                                                    000000000000000000N
061991051351999000001023TJOSE SANTIAGO GIL RIVERO                                                    000000000000000000N
061991051351999000001024TANTONIO ARTILES RAMOS                                                       000000000000000000N
061991051351999000001025TMARIA OFELIA TADEO ALEMAN                                                   000000000000000000N
061991051384999000001012TJOSE LUIS FIGUEROA DE LA PAZ                                                000000000000000000N
061991051384999000001018TPEDRO MANUEL SUAREZ MARTIN                                                  000000000000000000N
061991051384999000001022TRICARDO MENDEZ RAMOS                                                        000000000000000000N
061991051386999000001011TISABEL AGUILAR VERA                                                         000000000000000000N
061991051385999000001004TFRANCISCO LORENZO CONCEPCION                                                000000000000000000S
061991051385999000001007TJOSE IMELDO CONCEPCION ACOSTA                                               000000000000000000S
061991051384999000013015TCRISTOBAL MIGUEL CANO DELGADO                                               000000000000000000N
061991051384999000013022TJESUS VALENTIN PADRON FEBLES                                                000000000000000000N
061991051351999000040001TFRANCISCO BELTRAN FERNANDEZ                                                 000000000000000000N
061991051351999000040013TFRANCISCO IGNACIO GUERRA CASAÑAS                                            000000000000000000N
061991051351999000040025TSANTIAGO GIL MONTESDEOCA                                                    000000000000000000N
061991051351999000044001TDOMINGO GUILLEN REYES                                                       000000000000000000N
061991051351999000044007TANTONIO CALCINES MOLINA                                                     000000000000000000N
061991051351999000044009TJUAN MANUEL MUJICA SUAREZ                                                   000000000000000000N
061991051351999000044010TRITA M. DOMINGUEZ RODRIGUEZ                                                 000000000000000000N
061991051353999000045015TPEDRO ARMAS ROMERO                                                          000000000000000000N
061991051352999000046006TFRANCISCO SAN GINES BARRETO(PIL)                                            000000000000000000S
061991051351999000048008TJUAN CARLOS CABRERA GUZMAN                                                  000000000000000000N
061991051351999000048015TANA AGUSTINA MEDINA PERERA                                                  000000000000000000N
061991051351999000048020TCARMELO GUTIERREZ RAMOS                                                     000000000000000000N
061991051351999000048024TMARTA AGUSTINA SANCHEZ GUTIERREZ                                            000000000000000000N
061991051351999000048027TCEFERINO PERERA CARDENES                                                    000000000000000000N
061991051351999000113010TISAAC CRISTOBAL GODOY DELGADO                                               000000000000000000N
061991051351999000113016TJUAN DIAZ ALMEIDA                                                           000000000000000000N
061991051351999000113017TM. VICTORIA GONZALEZ ARES                                                   000000000000000000N
061991051352999000001019TISABEL VELEZ GOMEZ                                                          000000000000000000N
061991051351999000002010TARMANDO VICTORINO ALVAREZ ESTUPIÑAN                                         000000000000000000N
061991051384999000003027TVILEHALDO GONZALEZ ABREU                                                    000000000000000000N
061991051353999000003001TDOMINGO GONZALEZ ARROYO                                                     000000000000000000S
061991051353999000003007TNICANOR LOPEZ MELIAN                                                        000000000000000000N
061991051353999000003016TJOSEFA GRANGEL REDONDO                                                      000000000000000000N
061991051385999000003013TMAURO FORTUNATO RODRIGUEZ ACOSTA                                            000000000000000000N
061991051385999000003015TSALVADOR VILLALBA SIMON                                                     000000000000000000N
061991051352999000003012TMARCIAL H. GUERRA MESA                                                      000000000000000000N
061991051352999000003014TJOSE MANUEL GUTIERREZ DORTA                                                 000000000000000000N
061991051352999000003020TF. JAVIER GONZALEZ GARCIA                                                   000000000000000000N
061991051384999000013002TPEDRO MARTIN SOSA                                                           000000000000000000N
061991051384999000013004TMARCO ANTONIO ALVARADO RIVERO                                               000000000000000000N
061991051384999000013007TRICARDO JAVIER ABREU PEREZ                                                  000000000000000000N
061991051384999000013009TEUSTAQUIO SOLER ARMAS                                                       000000000000000000N
061991051351999000040007TJOSE ROMAN MEDINA SUAREZ                                                    000000000000000000N
061991051351999000040016TSALVADOR JOSE PEREZ VELEZ                                                   000000000000000000N
061991051351999000040020TMARIA DOLORES SANTANA SAAVEDRA                                              000000000000000000N
061991051351999000044005TANTONIO GIL ALAMO                                                           000000000000000000N
061991051384999000117006TFRANCISCO ARMAS RAMOS                                                       000000000000000000N
061991051384999000117007TJOSE MANUEL DE VILLENA QUINTERO                                             000000000000000000N
061991051384999000117023TMAXIMO ALBERTO DIAZ MARCELINO                                               000000000000000000N
061991051352999000117003TCANDIDO ARMAS RODRIGUEZ                                                     000000000000000000N
061991051352999000117005TVICENTE ANTONIO MARTIN EUGENIO                                              000000000000000000N
061991051352999000117020TCRISTIN ADOLFO BETHENCOURT JIMENEZ                                          000000000000000000N
061991051351999000118014TCONCEPCION PAZ GIL                                                          000000000000000000N
061991051351999000118015TJOSE RAMON FALCON TRUJILLO                                                  000000000000000000N
061991051351999000118020TOSCAR GUTIERREZ HERNANDEZ                                                   000000000000000000N
061991051351999000118029TJUAN NICOLAS MANZANO SANTANA                                                000000000000000000N
061991051384999000120002TBUENAVENTURA EMILIO FEZ MARRERO                                             000000000000000000N
061991051384999000120017TMARIA DOLORES MORENO BLANCO                                                 000000000000000000N
061991051384999000120018TWILFREDO GARCIA HERRERA                                                     000000000000000000N
061991051384999000120027TMARIANO MORALES TOLEDO                                                      000000000000000000N
061991051384999000121004TMIGUEL ANGEL BELLO RODRIGUEZ(CNC)                                           000000000000000000N
061991051351999000121002TROQUE MONTESDEOCA MARTIN (FREPIC-AWAÑAK)                                    000000000000000000N
061991051384999000002011TEMILIO ARMAS HERNANDEZ                                                      000000000000000000N
061991051384999000002015TALFONSO RAMOS BACALLADO                                                     000000000000000000N
061991051384999000002023TMANUEL MACIAS GOMEZ                                                         000000000000000000N
061991051384999000002024TJOAQUIN JOSE FERNANDEZ HERNANDEZ                                            000000000000000000N
061991051384999000002025TEMILIA ACOSTA DARIAS                                                        000000000000000000N
061991051387999000002009TANDRES CASTAÑEDA ACOSTA                                                     000000000000000000N
061991051387999000002011TDOMINGO QUINTERO PEREZ                                                      000000000000000000N
061991051353999000002002TESTEBAN ACOSTA GUTIERREZ                                                    000000000000000000N
061991051353999000002007TFRANCISCO CABRERA TRUJILLO                                                  000000000000000000N
061991051353999000002013TBERNARDINO BENITEZ FAJARDO                                                  000000000000000000N
061991051385999000002005TROSA MARIA REMEDIOS DIAZ RAMOS                                              000000000000000000N
061991051385999000002009TSATURNINO SICILIA PEREZ                                                     000000000000000000N
061991051385999000002013TJUAN ANTONIO LOPEZ NEGRIN                                                   000000000000000000N
061991051385999000002015TJUAN MIGUEL AFONSO PEREZ                                                    000000000000000000N
061991051352999000002001TJOSE M. C. HENRIQUEZ ESQUIROZ                                               000000000000000000N
061991051352999000002006TFRANCISCO RAMOS DE PAIZ                                                     000000000000000000N
061991051351999000003015TANA MARIA MARTIN MARTIN                                                     000000000000000000N
061991051351999000003021TJOSE LUIS PEÑA SANTANA                                                      000000000000000000N
061991051351999000003022TJOSE LUIS PEÑATE SUAREZ                                                     000000000000000000N
061991051351999000003027TMANUEL MENDOZA VEGA                                                         000000000000000000N
061991051384999000003007TELEUTERIO MANUEL LORENZO SOSA                                               000000000000000000N
061991051384999000003008TDIEGO MANUEL RAMOS FALCON                                                   000000000000000000N
061991051384999000003014TMARIA AFRICA HARDISSON RUMEU                                                000000000000000000N
061991051353999000003013TSANTIAGO A. CALLERO PEREZ                                                   000000000000000000N
061991051385999000003004TABEL PEREZ RODRIGUEZ                                                        000000000000000000N
061991051385999000003008TPEDRO GOMEZ CABRERA                                                         000000000000000000N
061991051385999000003012TALEJANDRO JESUS DIAZ RODRIGUEZ                                              000000000000000000N
061991051385999000003016TMIGUEL ANGEL PEREZ RODRIGUEZ                                                000000000000000000N
061991051385999000003020TMIGUEL HERNANDEZ GONZALEZ                                                   000000000000000000N
061991051352999000003001TNICOLAS DE PAIZ PEREYRA                                                     000000000000000000S
061991051352999000003009TFERNANDO ARCAS LANTIGUA                                                     000000000000000000N
061991051352999000003015TJUAN GABRIEL HERNANDEZ DIAZ                                                 000000000000000000N
061991051384999000013016TMARIA DEL CARMEN DORTA ARMAS                                                000000000000000000N
061991051353999000045006TCASTO MARTINEZ GARCIA                                                       000000000000000000S
061991051353999000045011TMARIA AUXILIADORA MORALES CEDRES                                            000000000000000000N
061991051352999000046004TJUAN CARLOS BECERRA ROBAYNA(PIL)                                            000000000000000000S
061991051352999000046007TMANUEL PERDOMO HERNANDEZ(PIL)                                               000000000000000000S
061991051352999000046013TJOSE FRANCISCO PEREZ DUQUE(PIL)                                             000000000000000000N
061991051352999000046018TAQUILINO ROMERO DUARTE(PIL)                                                 000000000000000000N
061991051351999000048007TANTONIO SALVADOR RODRIGUEZ SUAREZ                                           000000000000000000N
061991051351999000048017TSALVADOR GOMEZ VEGA                                                         000000000000000000N
061991051351999000048018TJOSE MARCOS MARTINEZ HERRERA                                                000000000000000000N
061991051351999000048021TANGEL VALIDO RODRIGUEZ                                                      000000000000000000N
061991051351999000048026TCARLOS DOMINGO MARTELL HERNANDEZ                                            000000000000000000N
061991051387999000107003TMIGUEL ANGEL MACHIN FERNANDEZ                                               000000000000000000S
061991051386999000113006TMARIO RODRIGUEZ HERRERA                                                     000000000000000000N
061991051351999000113022TBEGOÑA MENA LOPEZ                                                           000000000000000000N
061991051351999000113026THORTENSIA PEREZ CABRERA                                                     000000000000000000N
061991051351999000113027TESTEBAN RAMON FUMERO CABRERA                                                000000000000000000N
061991051384999000117024TGUILLERMO ACOSTA RODRIGUEZ (INDEPENDIENTE)                                  000000000000000000N
061991051352999000117004TFLORIAN CORUJO TEJERA                                                       000000000000000000N
061991051352999000117008TFRANCISCO CABRERA GARCIA                                                    000000000000000000N
061991051352999000117019TFELIPE BRITO CAÑADA                                                         000000000000000000N
061991051351999000118009TCELESTE QUINTANA SUAREZ                                                     000000000000000000N
061991051351999000118026TJOSEFA ELISA SANCHEZ SUAREZ                                                 000000000000000000N
061991051384999000120001TPABLO PERERA PEREZ                                                          000000000000000000N
061991051384999000120004TJOAQUIN FRANCISCO APARICIO GARCIA                                           000000000000000000N
061991051384999000120005TAGUSTIN VELAZQUEZ MARRERO                                                   000000000000000000N
061991051384999000120012TMANUEL ARTURO RIVERO GARCIA-TALAVERA                                        000000000000000000N
061991051351999000120004TMANUEL GIMENEZ SOSA                                                         000000000000000000N
061991051351999000120020TAMPARO CRISTINA GRANDE AZCUETA                                              000000000000000000N
061991051351999000121007TCARMEN LUISA LABAO MORALES (FREPIC-AWAÑAK)                                  000000000000000000N
061991051351999000121026TJUAN ANTONIO VALIENTE ARROCHA (INDEPENDIENTE)                               000000000000000000N
061991051384999000121008TMELITON SANTANA RAMOS(FREPIC AWAÑAK)                                        000000000000000000N
061991051352999000001008TSANTIAGO GUADALUPE CABRERA                                                  000000000000000000N
061991051352999000001015TFRANCISCA RODRIGUEZ LEMES                                                   000000000000000000N
061991051351999000002007TALEJANDRO CASTRO JIMENEZ                                                    000000000000000000N
061991051351999000002020TPEDRO RICARDO DIAZ VEGA                                                     000000000000000000N
061991051384999000002001TFRANCISCO MARCOS HERNANDEZ                                                  000000000000000000S
061991051387999000002001TMANUEL FERNANDEZ GONZALEZ                                                   000000000000000000S
061991051387999000002003TMANUEL LUIS CACERES                                                         000000000000000000N
061991051387999000002004TURBANO PADRON CASTAÑEDA                                                     000000000000000000N
061991051387999000002008TNORBERTO BETANCOR BENITEZ                                                   000000000000000000N
061991051353999000002006TGUILLERMO MARTIN MARTIN                                                     000000000000000000N
061991051353999000002009TANTONIO ROBAYNA PERERA                                                      000000000000000000N
061991051353999000002010TFRANCISCO MANUEL MARTIN MARTIN                                              000000000000000000N
061991051353999000002012TJESUS NODA CURBELO                                                          000000000000000000N
061991051385999000002002TANTONIO RODRIGUEZ FERNANDEZ                                                 000000000000000000S
061991051385999000002007TEUTIMIO PEREZ CAMACHO                                                       000000000000000000N
061991051385999000002021TSEBASTIAN MAURO ALVAREZ RODRIGUEZ                                           000000000000000000N
061991051351999000116002TRAFAEL M. BROTONS DE LA NUEZ                                                000000000000000000N
061991051351999000116008TPINO MARGARITA BOLAÑOS DIAZ                                                 000000000000000000N
061991051351999000116016TCARMEN ROSA CALCINES BOLAÑOS                                                000000000000000000N
061991051351999000116017TMANUEL ASCENSION HERNANDEZ REYES                                            000000000000000000N
061991051351999000117007TJOSE LUIS BRITO CEBRIAN                                                     000000000000000000N
061991051351999000117010TJOBITA MARIA OJEDA MEDINA                                                   000000000000000000N
061991051351999000117017TM. TERESA DOMINGUEZ DE LANUZA                                               000000000000000000N
061991051351999000117020TJESUS ISMAEL BETANCOR BETANCOR                                              000000000000000000N
061991051351999000117024TANTONIO CAMACHO BUENO                                                       000000000000000000N
061991051384999000117014TMANUEL CABRERA RODRIGUEZ                                                    000000000000000000N
061991051384999000117016TCANDELARIA CARMELINA ROSA PEREZ                                             000000000000000000N
061991051384999000117022TJOSE GONZALEZ DELGADO                                                       000000000000000000N
061991051384999000117026TOLGA MARIA PLASENCIA NUÑEZ                                                  000000000000000000N
061991051352999000117006TJOSE ANTONIO DE LEON LUZARDO                                                000000000000000000N
061991051352999000117012TJOSEFA CARMEN SAMPER BATISTA                                                000000000000000000N
061991051351999000118002TLUCIA ESTHER RUANO HDEZ.                                                    000000000000000000N
061991051386999000001013TJOAQUINA NAVARRO GARCIA                                                     000000000000000000N
061991051387999000001008TJUAN CASTAÑEDA ACOSTA                                                       000000000000000000N
061991051385999000001005TJUAN ANTONIO DIAZ MARTIN                                                    000000000000000000S
061991051353999000001005TJAIME ESTEVEZ SANTANA                                                       000000000000000000N
061991051353999000001014TMARIA JESUS GABARI IRIARTE                                                  000000000000000000N
061991051385999000001020THERMES NICOLAS HENRIQUEZ PIÑERO                                             000000000000000000N
061991051385999000001021TMARIA DEL PINO LEMES MARRERO                                                000000000000000000N
061991051352999000001020TJOAQUIN GARCIA RODRIGUEZ                                                    000000000000000000N
061991051351999000002011TJOSE FEO GARCIA                                                             000000000000000000N
061991051351999000002015TVICENTE BENITEZ MARRERO                                                     000000000000000000N
061991051351999000002019TCUSTODIO VICTOR JIMENEZ SUAREZ                                              000000000000000000N
061991051351999000002027TMANUEL JUAN FRANCISCO ALONSO OJEDA                                          000000000000000000N
061991051351999000002028TMARIA ITZIAR LANGARA GONZALEZ                                               000000000000000000N
061991051386999000002010TANGEL ISRAEL IRIBARNE RAMOS                                                 000000000000000000N
061991051384999000002014TPEDRO MANUEL CONCEPCION LORENZO                                             000000000000000000N
061991051384999000002017TFAUSTINO ALVAREZ DELGADO                                                    000000000000000000N
061991051351999000121027TAMPARO MARTIN PEÑA (INDEPENDIENTE)                                          000000000000000000N
061991051384999000121010TSEBASTIAN RAMON PADILLA GARCIA(FREPIC AWAÑAK)                               000000000000000000N
061991051384999000121011TMARIA DE LOS REYES GUADARRAMA MOLINA(CNC)                                   000000000000000000N
061991051384999000121014TISABEL JUANA PADRON RODRIGUEZ(CNC)                                          000000000000000000N
061991051384999000121021TMARIA VERA MONTESINOS(FREPIC AWAÑAK)                                        000000000000000000N
061991051384999000121026TJUAN RAFAEL BAUZA CASTRO(FREPIC AWAÑAK)                                     000000000000000000N
061991051352999000121001TSALVADOR HERNANDEZ LOPEZ(CNC)                                               000000000000000000N
061991051352999000121010TRAMON ALFONSO HERNANDEZ(CNC)                                                000000000000000000N
061991051352999000121011TJUANA ISABEL FABREGAS CANCIO(CNC)                                           000000000000000000N
061991051352999000121020TGUILLERMO BENITO CEDRES DE LA CRUZ(INDEPENDIENTE)                           000000000000000000N
061991051353999000163012TCIRILO GONZALEZ SANTANA                                                     000000000000000000N
061991051353999000163016TJOSE MANUEL PEREZ MOSEGUEZ                                                  000000000000000000N
061991051386999000198002TDOMINGO GERARDO HERRERA RODRIGUEZ                                           000000000000000000S
061991051386999000198004TEVARISTO ARMAS ARTEAGA                                                      000000000000000000S
061991051386999000198005TJUAN EUSTAQUIO DORTA CORREA                                                 000000000000000000S
061991051386999000198008TJOSE GIL PLASENCIA HERNANDEZ                                                000000000000000000N
061991051384999000013018TCEFERINO DIONISIO HERNANDEZ GARCIA                                          000000000000000000N
061991051384999000013023TMANUEL ANTIMO PERDOMO PERDOMO                                               000000000000000000N
061991051384999000013026TAGUSTIN TIRSO BLANCO RODRIGUEZ                                              000000000000000000N
061991051351999000040009TFRANCISCO A. PEREZ QUINTANA                                                 000000000000000000N
061991051351999000040017TJOSE ANTONIO GARCIA RIVERO                                                  000000000000000000N
061991051351999000040024TMANUEL ALONSO GARCIA                                                        000000000000000000N
061991051351999000040029TPRUDENCIO OJEDA SANTANA                                                     000000000000000000N
061991051351999000044002TOSCAR BAUTISTA AFONSO                                                       000000000000000000N
061991051351999000044008TMANUEL ALAMO ABRANTE                                                        000000000000000000N
061991051351999000044018TFERNANDO MORALES PEREZ                                                      000000000000000000N
061991051351999000044025TJUAN FCO. SUAREZ SANTANA                                                    000000000000000000N
061991051353999000045005TANTONIO RODRIGUEZ MARICHAL                                                  000000000000000000S
061991051352999000046020TOLGA CARABALLO MARTIN(PIL)                                                  000000000000000000N
061991051352999000046021TJOSE SUAREZ RODRIGUEZ(PIL)                                                  000000000000000000N
061991051351999000048001TMARTIN MACARIO PERESTELO SANGIL                                             000000000000000000N
061991051351999000048004TMARIA SOLEDAD RIVERO PEREZ                                                  000000000000000000N
061991051351999000117023TROQUE DOMINGO BETANCOR MARTINEZ                                             000000000000000000N
061991051384999000117004TSANTIAGO FRANCISCO MANUEL TOLEDO MARTIN                                     000000000000000000N
061991051352999000117013TMIGUEL ANGEL CALERO RODRIGUEZ                                               000000000000000000N
061991051352999000117017TJOSE DOMINGO MACHIN MACHIN                                                  000000000000000000N
061991051352999000117021TJUAN SANTANA ESPINO                                                         000000000000000000N
061991051351999000118005TM. LOURDES BENITEZ LOPEZ                                                    000000000000000000N
061991051351999000118006TISABEL M. GARCIA PERDOMO                                                    000000000000000000N
061991051351999000118022TASUNCION ACOSTA GALINDO                                                     000000000000000000N
061991051384999000120011TMANUEL ANGEL LOPEZ MARCOS                                                   000000000000000000N
061991051384999000120021TALEJANDRA LUJAN SANTANA                                                     000000000000000000N
061991051351999000120011TJOAQUIN NESTOR HEREDIA GERONA                                               000000000000000000N
061991051351999000120013TJUAN FRAILE YUGERO                                                          000000000000000000N
061991051384999000121002TJAIME MANUEL BETHENCOURT RODRIGUEZ(FREPIC AWAÑAK)                           000000000000000000N
061991051384999000121005TINMACULADA CONCEPCION GARCIA GARCIA(FREPIC AWAÑAK                           000000000000000000N
061991051351999000121006TJUAN GONZALEZ SANTANA (CNC)                                                 000000000000000000N
061991051351999000121013TJUAN MENDOZA SANCHEZ (CNC)                                                  000000000000000000N
061991051351999000002018TILUMINADA ROSA PERDOMO ESTUPIÑAN                                            000000000000000000N
061991051351999000002023TANTONIO BORDON ALEMAN                                                       000000000000000000N
061991051351999000002029TPEDRO HILARIO SOCORRO BENITEZ                                               000000000000000000N
061991051386999000002006TRICARDO RAFAEL RAMIREZ ROLDAN                                               000000000000000000N
061991051386999000002013TMARIA DEL MAR CASTILLA HERNANDEZ                                            000000000000000000N
061991051384999000002006TBLAS AVELINO AFONSO BENITEZ                                                 000000000000000000N
061991051384999000002007TCARMEN ROSA GARCIA MONTENEGRO                                               000000000000000000N
061991051384999000002012TMARIA CANDELARIA DIAZ FUMERO                                                000000000000000000N
061991051384999000002020TEMILIANO OSCAR MIRANDA GONZALEZ                                             000000000000000000N
061991051384999000002027TDOMINGO FEBLES RODRIGUEZ                                                    000000000000000000N
061991051387999000002010TISIDRO ARMAS QUINTERO                                                       000000000000000000N
061991051353999000002003TALBERTO JAIME VEGA                                                          000000000000000000N
061991051353999000002016TJUAN BAUTISTA CALERO MORENO                                                 000000000000000000N
061991051385999000002014TRAMON EVARISTO PEREZ AFONSO                                                 000000000000000000N
061991051385999000002018TESTEBAN CABRERA ZAPATA                                                      000000000000000000N
061991051352999000002002TJESUS G. DE LEON EXPOSITO                                                   000000000000000000N
061991051352999000002018TFELIX MONTELONGO DIAZ                                                       000000000000000000N
061991051351999000044015TJOSE L. SANCHEZ ALEMAN                                                      000000000000000000N
061991051351999000044020TANTONIO ARTEAGA CRUZ                                                        000000000000000000N
061991051353999000045004TRAMON CABRERA PEÑA                                                          000000000000000000S
061991051353999000045013TLIBORIO J. LEON LIMA                                                        000000000000000000N
061991051352999000046008TMARCIAL CALERO MEDINA(PIL)                                                  000000000000000000S
061991051352999000046014TMARGARITA PAEZ GUADALUPE(PIL)                                               000000000000000000N
061991051352999000046017TJOSE GONZALEZ CLAVIJO(PIL)                                                  000000000000000000N
061991051352999000046019TJOSE GUTIERREZ CACERES(PIL)                                                 000000000000000000N
061991051351999000048013TCARMEN MEDINA REYES                                                         000000000000000000N
061991051351999000048028TFELIX ROGER RIVERO                                                          000000000000000000N
061991051387999000107010TCARMEN SOL QUINTERO MACHIN                                                  000000000000000000N
061991051386999000113002TLIBERATO ALVAREZ PADRON                                                     000000000000000000N
061991051386999000113008TFRANCISCO JAVIER BARRERA BRITO                                              000000000000000000N
061991051351999000113002TGONZALO ANGULO GONZALEZ                                                     000000000000000000S
061991051351999000113006TGONZALO RODRIGUEZ RODRIGUEZ                                                 000000000000000000N
061991051351999000113007TCAMILO GUILLERMO SANCHEZ BENITEZ                                            000000000000000000N
061991051351999000121012TRAMON MARRERO GARCIA (INDEPENDIENTE)                                        000000000000000000N
061991051351999000121014TCARMEN ALAMO ROJAS (INDEPENDIENTE)                                          000000000000000000N
061991051351999000121018TAGUSTIN MANUEL SOCORRO SANTANA (CNC)                                        000000000000000000N
061991051351999000121022TCARLOS MANUEL RAMIREZ MARRERO (INDEPENDIENTE)                               000000000000000000N
061991051351999000121023TMARIO NAVARRO SAAVEDRA (INDEPENDIENTE)                                      000000000000000000N
061991051351999000121025TDOLORES GARCIA SANCHEZ (CNC)                                                000000000000000000N
061991051352999000121015TCARMELO DENIZ ARROCHA(CNC)                                                  000000000000000000N
061991051352999000121017TANTONIO SUAREZ GRAFFIGNA(CNC)                                               000000000000000000N
061991051353999000163010TMANUEL LORA CANDELA                                                         000000000000000000N
061991051353999000163011TRAMON RODRIGUEZ CABRERA                                                     000000000000000000N
061991051353999000163013TCARMEN LLORENTE MAQUEDA                                                     000000000000000000N
061991051386999000198003TDOMINGO JAVIER NEGRIN PLASENCIA                                             000000000000000000S
061991051386999000198011TJESUS MANUEL CHINEA BELLO                                                   000000000000000000N
061991051386999000198013TGONZALO CHINEA ABREU                                                        000000000000000000N
061991051384999000245004TPAULINO RIVERO BAUTE                                                        000000000000000000S
061991051352999000002008TSALVADOR SANTANA MORALES                                                    000000000000000000N
061991051352999000002010TJOSE BRITO MARTIN                                                           000000000000000000N
061991051352999000002011TRAMON UMPIERREZ RODRIGUEZ                                                   000000000000000000N
061991051352999000002019TJUAN PEREZ RODRIGUEZ                                                        000000000000000000N
061991051351999000003003TANTONIO SANCHEZ BAEZ                                                        000000000000000000S
061991051351999000003007TPEDRO JOSE PEÑATE SANTANA                                                   000000000000000000N
061991051351999000003011TMIGUEL GORDILLO DIAZ                                                        000000000000000000N
061991051351999000003029TROSARIO JULIA GONZALEZ SANTANA                                              000000000000000000N
061991051384999000003010TESTER ASENSIO ALVAREZ                                                       000000000000000000N
061991051384999000003013TANDRES JOSE ARVELO ACOSTA                                                   000000000000000000N
061991051384999000003022TJOSE PARRADO PUEBLA                                                         000000000000000000N
061991051353999000003008TJOSE A. CABRERA BETANCOR                                                    000000000000000000N
061991051353999000003010TFELIPE GIL SANCHEZ                                                          000000000000000000N
061991051353999000003012TSEBASTIAN CABRERA GARCIA                                                    000000000000000000N
061991051385999000003002TVICTOR MIGUEL NAZCO HERNANDEZ                                               000000000000000000N
061991051385999000003006TGINES MANUEL MARTIN RODRIGUEZ                                               000000000000000000N
061991051352999000003005TJUAN JOSE GARCIA HERNANDEZ                                                  000000000000000000N
061991051351999000040003TSALVADOR ANGEL BETANCOR ALEMAN                                              000000000000000000N
061991051351999000040005TCRISTOBAL GARCIA ESTEVEZ                                                    000000000000000000N
061991051351999000040011TJUAN RAMON GUEDES HERRERA                                                   000000000000000000N
061991051351999000040026TJUAN CARMELO SUAREZ IZQUIERDO                                               000000000000000000N
061991051351999000044028TDIEGO OJEDA ENSELL                                                          000000000000000000N
061991051353999000045010TMARIA ENCARNACION FERNANDEZ GARCIA                                          000000000000000000N
061991051353999000045014TGABRIEL MONZON HERNANDEZ                                                    000000000000000000N
061991051353999000045016TFERMIN SILVERA PERERA                                                       000000000000000000N
061991051352999000046002TJULIO ROMERO ORTEGA(INDEPENDIENTE)                                          000000000000000000S
061991051352999000046003TSEBASTIANA PERERA BRITO(PIL)                                                000000000000000000S
061991051352999000046012TJUAN LUIS BRITO RODRIGUEZ(PIL)                                              000000000000000000S
061991051352999000046015TMARCOS PAEZ MORALES(PIL)                                                    000000000000000000N
061991051351999000048005TREYES BOLAÑOS AFONSO                                                        000000000000000000N
061991051351999000048012TMARIA CARMEN HERNANDEZ LEAL                                                 000000000000000000N
061991051386999000113013TBERNARDO DUQUE SERRANO                                                      000000000000000000N
061991051351999000113005TFERNANDO JOSE GONZALEZ SANTANA                                              000000000000000000S
061991051384999000113014TJUAN MANUEL CASTAÑEDA CONTRERAS                                             000000000000000000N
061991051384999000113015TFIDEL CAMPO SANCHEZ                                                         000000000000000000N
061991051387999000113002TDIONISIO PADRON PADRON                                                      000000000000000000N
061991051387999000113010TFRANCISCO LEONARDO QUINTERO MORALES                                         000000000000000000N
061991051387999000113011TJOSE PERAZA CHINEA                                                          000000000000000000N
061991051385999000113001TMIGUEL ANGEL PULIDO RODRIGUEZ                                               000000000000000000S
061991051385999000113008TJOSE ROMERO AFONSO                                                          000000000000000000N
061991051385999000113013TEULOGIO OTERO VIDEIRA                                                       000000000000000000N
061991051385999000113015TJORGE RUBENS PEREZ GONZALEZ                                                 000000000000000000N
061991051385999000113020TALEJANDRO CEBALLOS BLANCO                                                   000000000000000000N
061991051352999000113003TBASILIO GONZALEZ TEJERA                                                     000000000000000000N
061991051352999000113008TCLARA OLALLA MORALES BETANCORT                                              000000000000000000N
061991051351999000115003TFRANCISCO TARAJANO GONZALEZ                                                 000000000000000000N
061991051351999000115005TRICARDO ACOSTA NOBLE                                                        000000000000000000N
061991051351999000115017TOSCAR DAVILA QUINTANA                                                       000000000000000000N
061991051351999000115019TENCARNACION LOPEZ LOPEZ                                                     000000000000000000N
061991051351999000115021TOLGA GONZALEZ FALCON                                                        000000000000000000N
061991051384999000121012TGUILLERMO PAULO BORGES ABRANTE(FREPIC AWAÑAK)                               000000000000000000N
061991051384999000121013TJUAN ANTONIO CAYETANO MARTIN ESQUIVEL(FREPIC AWAÑ                           000000000000000000N
061991051384999000121016TELVIRA ISABEL FLEITAS MORALES(FREPIC AWAÑAK)                                000000000000000000N
061991051384999000121017TJOSEFINA FUENTES TABARES(FREPIC AWAÑAK)                                     000000000000000000N
061991051384999000121023TFRANCISCO DOMINGUEZ BAEZ(FREPIC AWAÑAK)                                     000000000000000000N
061991051352999000121018TVICTOR MANUEL GUADALUPE MARTIN(INDEPENDIENTE)                               000000000000000000N
061991051353999000163001TILDEFONSO CHACON NEGRIN                                                     000000000000000000S
061991051353999000163005TMIGUEL BRITO PADILLA                                                        000000000000000000N
061991051386999000198006TJOSE LORENZO NEGRIN PLASENCIA                                               000000000000000000N
061991051384999000245008TLORENZO DORTA GARCIA                                                        000000000000000000S
061991051384999000245013TANTONIO LOPEZ BONILLO                                                       000000000000000000S
061991051384999000245020TFEDERICO PEREZ HERNANDEZ                                                    000000000000000000N
061991051384999000245027TMIGUEL RAMIREZ SORIANO                                                      000000000000000000N
061991051386999000246002TFARA MARIA VERA ARMAS                                                       000000000000000000N
061991051386999000246009THORACIO CIRIACO CASTILLA ALVAREZ                                            000000000000000000N
061991051385999000247002TGREGORIO GUADALUPE RODRIGUEZ                                                000000000000000000S
061991051352999000002009TANTONIO BETANCOR BATISTA                                                    000000000000000000N
061991051351999000003001TJESUS GOMEZ RODRIGUEZ                                                       000000000000000000S
061991051351999000003005TANDRES HERRERA TRUJILLO                                                     000000000000000000S
061991051351999000003006TEZEQUIEL RAMIREZ OLIVA                                                      000000000000000000S
061991051351999000003013TGREGORIO ARTILES HERNANDEZ                                                  000000000000000000N
061991051351999000003019TMARIA ROSARIO D. ALEMAN AIZPUN                                              000000000000000000N
061991051351999000003024TCASTOR LUJAN CUBAS                                                          000000000000000000N
061991051384999000003001TPEDRO ELEJABEITIA ACEVEDO                                                   000000000000000000N
061991051384999000003003TLEOCADIO TOLEDO TEJERA                                                      000000000000000000N
061991051384999000003024TMARIA DEL PILAR FRADE GIMENEZ                                               000000000000000000N
061991051353999000003002TEUGENIO CABRERA MONTELONGO                                                  000000000000000000S
061991051353999000003005TJUAN F. CARBALLO DEL TORO                                                   000000000000000000N
061991051385999000003003TUBALDO BARRETO HERNANDEZ                                                    000000000000000000N
061991051385999000003021TELOY LORENZO GUILLEN                                                        000000000000000000N
061991051352999000003004TLORENZO LEMAUR SANTANA                                                      000000000000000000N
061991051352999000003006TRUPERTO MORALES LUGO                                                        000000000000000000N
061991051352999000003010TJUAN DIAZ GONZALEZ                                                          000000000000000000N
061991051351999000118003TJOSE FCO. RGUEZ. COLOMER                                                    000000000000000000N
061991051351999000118010TFCO. MANUEL ALONSO                                                          000000000000000000N
061991051351999000118011TANA M. LERMO CASTELAR                                                       000000000000000000N
061991051351999000118025TANA CELIA QUESADA PEREZ                                                     000000000000000000N
061991051351999000118027TALBERTO LORENZO SANCHEZ SUAREZ                                              000000000000000000N
061991051384999000120010TMIGUEL GARCIA GOMEZ                                                         000000000000000000N
061991051384999000120019TALICIA MARTIN RODRIGUEZ                                                     000000000000000000N
061991051384999000120026TJUANA MARIA FERRER MIRANDA                                                  000000000000000000N
061991051351999000120006TFEDERICO ARTILES PLFLUGER                                                   000000000000000000N
061991051351999000120012TDOMINGO MANUEL SANTANA PEREZ                                                000000000000000000N
061991051351999000120017TJUAN AGUSTIN GONZALEZ VALERON                                               000000000000000000N
061991051351999000120021TRAFAEL DE LEON GARCIA                                                       000000000000000000N
061991051351999000121009TMANUEL CARDONA RODRIGUEZ (CNC)                                              000000000000000000N
061991051351999000121011TJUAN GARCIA CURBELO (FREPIC-AWAÑAK)                                         000000000000000000N
061991051351999000121019TSANTIAGO QUINTANA GARCIA (FREPIC-AWAÑAK)                                    000000000000000000N
061991051351999000121020TSERGIO SANCHEZ QUINTANA (INDEPENDIENTE)                                     000000000000000000N
061991051353999000002011TSEBASTIAN DE S. PEDRO MARTIN CABRERA                                        000000000000000000N
061991051353999000002017TROSARIO ISABEL MONTAÑEZ DOMINGUEZ                                           000000000000000000N
061991051385999000002001TJOSE ERNESTO LUIS GONZALEZ AFONSO                                           000000000000000000S
061991051385999000002004TJUAN DE LA BARREDA PEREZ                                                    000000000000000000S
061991051385999000002006TDOMINGO GONZALEZ DEL PINO                                                   000000000000000000N
061991051385999000002011TRAUL FRANCISCO QUINTANA TORRES                                              000000000000000000N
061991051385999000002017TVICENTE FRANCISCO ALVAREZ PADRON                                            000000000000000000N
061991051385999000002019TPEDRO SALVADOR CACERES LORENZO                                              000000000000000000N
061991051385999000002020TFRANCISCO LOPEZ RODRIGUEZ                                                   000000000000000000N
061991051352999000002013TJOSE MARCIAL CABRERA MARTIN                                                 000000000000000000N
061991051352999000002017TANGEL MAROTE BARRADO                                                        000000000000000000N
061991051352999000002020TJUAN D. RODRIGUEZ LEMES                                                     000000000000000000N
061991051384999000003004TPEDRO RAFAEL PEREZ GALVAN                                                   000000000000000000N
061991051384999000003009TJORGE DARIAS TOLEDO                                                         000000000000000000N
061991051384999000003023TFRANCISCO RODRIGUEZ SANES                                                   000000000000000000N
061991051384999000003025TDOMINGO BAEZ ARMAS                                                          000000000000000000N
061991051384999000245019TANA MARIA ORAMAS GONZALEZ-MORO                                              000000000000000000N
061991051386999000002003TFRANCISCO PEÑA MONTAÑES                                                     000000000000000000N
061991051386999000002008TMARIA JESUS PADILLA CASTILLA                                                000000000000000000N
061991051386999000002009TAVELINO HERRERA PADILLA                                                     000000000000000000N
061991051387999000107002TDACIO ARMAS GONZALEZ                                                        000000000000000000S
061991051387999000107009TCIRO PADRON RODRIGUEZ                                                       000000000000000000N
061991051386999000113011TCONCEPCION MARIA DE LOS DOLORES MARRERO HERRERA                             000000000000000000N
061991051351999000113004TAURELIANO FRANCISCO SANTIAGO CASTELLANO                                     000000000000000000S
061991051351999000113012TBLANCA TAMES MIGUEL                                                         000000000000000000N
061991051351999000113028TJOSE ANTONIO RAMIREZ MARRERO                                                000000000000000000N
061991051384999000113005TJOSE TRUJILLO SOSA                                                          000000000000000000N
061991051384999000113012TJOSE FERNANDO GALVAN DE LA CRUZ                                             000000000000000000N
061991051384999000113024TJOSE ALBERTO DIAZ DOMINGUEZ                                                 000000000000000000N
061991051387999000113009TVIRGILIO FERNANDEZ FERNANDEZ                                                000000000000000000N
061991051352999000113001TEDUARDO BARRETO BETANCOR                                                    000000000000000000N
061991051352999000113007TSALVADOR TEJERA DE LEON                                                     000000000000000000N
061991051352999000113009TM. DOLORES VILLALBA PEREZ                                                   000000000000000000N
061991051352999000113014TJOSE MANUEL DIAZ PALLARES                                                   000000000000000000N
061991051352999000113017TENRIQUE MARTIN GONZALEZ                                                     000000000000000000N
061991051352999000113015TFRANCISCO CARLOS MELIAN FAJARDO                                             000000000000000000N
061991051351999000115001TFRANCISCO SAAVEDRA RODRIGUEZ                                                000000000000000000N
061991051351999000115007TJOSE R. MORENO GONZALEZ                                                     000000000000000000N
061991051351999000115020TFAUSTINO HERNANDEZ ALEMAN                                                   000000000000000000N
061991051351999000115022TJOSE SAAVEDRA RODRIGUEZ                                                     000000000000000000N
061991051351999000115028TM. DULCE N. CALERO MARRERO                                                  000000000000000000N
061991051351999000116013TFRANCISCO GARCIA LOPEZ                                                      000000000000000000N
061991051351999000116015TFEDERICO JULIOS REYES                                                       000000000000000000N
061991051351999000116024TJUAN FLEITAS SANTANA                                                        000000000000000000N
061991051351999000117016TJUAN MIGUEL FIGUEROA PEREZ                                                  000000000000000000N
061991051351999000117026TARMANDO RIOS MARTIN                                                         000000000000000000N
061991051351999000117027TJUAN SUAREZ RAMIREZ                                                         000000000000000000N
061991051384999000117003TPEDRO MORA DIAZ                                                             000000000000000000N
061991051384999000117009TARGIMIRA GONZALEZ MARTIN                                                    000000000000000000N
061991051384999000117011TGEMA MARIA CAMPOS GARCIA                                                    000000000000000000N
061991051384999000120022TFRANCISCO GALVAN GALVAN                                                     000000000000000000N
061991051384999000120023TVICENTE RODRIGUEZ SARMIENTO                                                 000000000000000000N
061991051351999000120001TBUENAVENTURA ARISTIDES DE FEZ MARRERO                                       000000000000000000N
061991051351999000120005TJUAN ANTONIO CHAPARRO ALONSO                                                000000000000000000N
061991051351999000120007TISIDORO JOSE GOMEZ PEÑALVER                                                 000000000000000000N
061991051351999000120016TRAFAEL GONZALEZ GARCIA                                                      000000000000000000N
061991051351999000120022TMANUEL MARCELINO POSADA NAYA                                                000000000000000000N
061991051351999000120023TROSA B. MARRERO ALONSO                                                      000000000000000000N
061991051384999000121001THERMOGENES AFONSO DE LA CRUZ(FREPIC AWAÑAK)                                 000000000000000000N
061991051351999000121016TTOMAS QUINTANA NAVARRO (FREPIC-AWAÑAK)                                      000000000000000000N
061991051384999000121020TROBERTO ORLANDO MENDEZ RODRIGUEZ(CNC)                                       000000000000000000N
061991051352999000121002TJULIO BLANCAS SUAREZ(FREPIC-AWAÑAK)                                         000000000000000000N
061991051352999000121009TCARLOS JAVIER SUAREZ MONTELONGO(CNC)                                        000000000000000000N
