041991051010400199ABLA                                                                                                001301300000001706000010000133100001331000000000000000000000584000008720000001300000007000010390090000000000000000N
041991051010400299ABRUCENA                                                                                            001301300000001557000010000120300001203000000000000000000000467000007440000000300000003000009490090000000000000000N
041991051010400399ADRA                                                                                                002902900000020308000180001380500013805000000000000000000003882000062690000003000000032000083120210000000000000000N
041991051010400499ALBANCHEZ                                                                                           005305300000000803000010000067000000670000000000000000000000297000003780000000000000003000004740070000000000000000N
041991051010400599ALBOLODUY                                                                                           001301300000000954000010000074600000746000000000000000000000324000005300000000500000017000005880070000000000000000N
041991051010400699ALBOX                                                                                               005305300000010651000090000660800006608000000000000000000002346000037300000001900000024000048720170000000000000000N
041991051010400799ALCOLEA                                                                                             001301300000000858000010000067900000679000000000000000000000270000004110000000300000004000005060070000000000000000N
041991051010400899ALCONTAR                                                                                            005305300000000678000020000056300000563000000000000000000000206000003540000000100000000000005000070000000000000000N
041991051010401099ALHABIA                                                                                             001301300000000849000010000061800000618000000000000000000000305000004570000000200000008000005120070000000000000000N
041991051010401199ALHAMA DE ALMERIA                                                                                   001301300000003088000030000223900002239000000000000000000000809000013050000001200000006000018260110000000000000000N
041991051010401399ALMERIA                                                                                             001301300000161566001180011677900116779000000000000000000034216000463450000042300000167000609140270000000000000000N
041991051010401699ANTAS                                                                                               010010000000002580000030000194500001945000000000000000000000728000011830000000800000002000015510110000000000000000N
041991051010401799ARBOLEAS                                                                                            005305300000001527000010000121100001211000000000000000000000438000007010000000400000002000009770090000000000000000N
041991051010401899ARMUÑA DE ALMANZORA                                                                                 005305300000000375000010000029400000294000000000000000000000127000002020000000300000001000002440070000000000000000N
041991051010401999BACARES                                                                                             005305300000000334000010000029500000295000000000000000000000106000001720000000200000001000002120070000000000000000N
041991051010402099BAYARCAL                                                                                            001301300000000435000010000036400000364000000000000000000000134000002540000000000000000000003000070000000000000000N
041991051010402199BAYARQUE                                                                                            005305300000000258000010000022000000220000000000000000000000114000001640000000000000000000001940070000000000000000N
041991051010402299BEDAR                                                                                               010010000000000533000010000040900000409000000000000000000000194000002530000000200000000000003000070000000000000000N
041991051010402499BENAHADUX                                                                                           001301300000002171000020000154700001547000000000000000000000763000010820000000100000003000013160110000000000000000N
041991051010402799BENIZALON                                                                                           001301300000000399000010000029700000297000000000000000000000067000001420000000100000004000002100070000000000000000N
041991051010402899BENTARIQUE                                                                                          001301300000000376000010000028600000286000000000000000000000197000002330000000200000001000002630070000000000000000N
041991051010402999BERJA                                                                                               002902900000012107000120000867800008678000000000000000000002774000043940000002500000031000058890170000000000000000N
041991051010403099CANJAYAR                                                                                            001301300000002029000030000159500001595000000000000000000000689000009720000000600000003000012130110000000000000000N
041991051010403199CANTORIA                                                                                            005305300000003374000030000269300002693000000000000000000001052000017340000000900000002000021110110000000000000000N
041991051010403299CARBONERAS                                                                                          010010000000006190000050000389000003890000000000000000000001296000026500000000800000004000032440130000000000000000N
041991051010403499COBDAR                                                                                              001301300000000284000010000022900000229000000000000000000000091000001540000000000000001000002010070000000000000000N
041991051010403599CUEVAS DEL ALMANZORA                                                                                010010000000009204000070000673700006737000000000000000000002536000040590000003200000030000050240130000000000000000N
041991051010403699CHERCOS                                                                                             005305300000000335000010000027800000278000000000000000000000131000002220000000000000001000002380070000000000000000N
041991051010403799CHIRIVEL                                                                                            005305300000002062000020000168000001680000000000000000000000510000008820000002000000006000011180110000000000000000N
041991051010403899DALIAS                                                                                              002902900000003616000050000274100002741000000000000000000001028000016220000001500000010000020260110000000000000000N
041991051010403999DARRICAL                                                                                            002902900000000398000010000032400000324000000000000000000000158000001920000000000000000000002420070000000000000000N
041991051010404399FELIX                                                                                               001301300000000665000010000053100000531000000000000000000000305000004020000000000000001000004450070000000000000000N
041991051010404499FINES                                                                                               005305300000001596000010000116800001168000000000000000000000435000007730000000200000003000009790090000000000000000N
041991051010404599FIÑANA                                                                                              001301300000002710000030000213500002135000000000000000000000764000011680000000800000005000015370110000000000000000N
041991051010404699FONDON                                                                                              001301300000001007000020000081700000817000000000000000000000324000004830000000600000010000005710090000000000000000N
041991051010404799GADOR                                                                                               001301300000002564000020000192900001929000000000000000000000992000014040000000500000011000016870110000000000000000N
041991051010404899GALLARDOS (LOS)                                                                                     010010000000001705000020000128900001289000000000000000000000500000008050000000100000002000010350090000000000000000N
041991051010404999GARRUCHA                                                                                            010010000000004149000020000292500002925000000000000000000001395000020330000001100000009000023940110000000000000000N
041991051010405099GERGAL                                                                                              001301300000001190000010000094900000949000000000000000000000475000005870000000300000001000007130090000000000000000N
041991051010405199HUECIJA                                                                                             001301300000000583000010000047400000474000000000000000000000207000003380000000500000006000003990070000000000000000N
041991051010405299HUERCAL DE ALMERIA                                                                                  001301300000003961000030000271900002719000000000000000000000937000014280000000400000011000018500110000000000000000N
041991051010405399HUERCAL-OVERA                                                                                       005305300000013277000140000997100009971000000000000000000003384000054840000003700000002000075240170000000000000000N
041991051010405499ILLAR                                                                                               001301300000000525000010000046200000462000000000000000000000226000003070000000000000002000004030070000000000000000N
041991051010405599INSTINCION                                                                                          001301300000000648000010000053300000533000000000000000000000203000003580000000200000002000004620070000000000000000N
041991051010405799LAUJAR DE ANDARAX                                                                                   001301300000001848000020000143200001432000000000000000000000499000008630000001000000004000010770090000000000000000N
041991051010405899LIJAR                                                                                               005305300000000567000010000043300000433000000000000000000000056000002710000000100000000000003670070000000000000000N
041991051010405999LUBRIN                                                                                              010010000000002179000030000179000001790000000000000000000000689000010730000000600000004000012580110000000000000000N
041991051010406099LUCAINENA DE LAS TORRES                                                                             001301300000000635000010000054300000543000000000000000000000211000003160000000100000002000004020070000000000000000N
041991051010406199LUCAR                                                                                               005305300000000804000010000062800000628000000000000000000000252000004130000000200000003000005480070000000000000000N
041991051010406299MACAEL                                                                                              005305300000005830000050000406100004061000000000000000000001585000023560000001700000004000029210130000000000000000N
041991051010406399MARIA                                                                                               005305300000001852000030000143600001436000000000000000000000401000007840000000200000002000010620090000000000000000N
041991051010406499MOJACAR                                                                                             010010000000003982000020000189400001894000000000000000000000691000010790000000900000008000015050110000000000000000N
041991051010406599NACIMIENTO                                                                                          001301300000000540000010000045600000456000000000000000000000242000003160000000000000003000004000070000000000000000N
041991051010406699NIJAR                                                                                               001301300000013093000160000934100009341000000000000000000002144000037120000002200000005000053060170000000000000000N
041991051010406799OHANES                                                                                              001301300000000905000010000074900000749000000000000000000000320000004580000000400000000000005690070000000000000000N
041991051010406999OLULA DEL RIO                                                                                       005305300000005371000040000394000003940000000000000000000001516000023090000001200000009000030470130000000000000000N
041991051010407099ORIA                                                                                                005305300000002617000040000211100002111000000000000000000000608000011980000000500000012000014790110000000000000000N
041991051010407199PADULES                                                                                             001301300000000562000010000047700000477000000000000000000000212000003010000000200000007000003550070000000000000000N
041991051010407299PARTALOA                                                                                            005305300000000453000010000038600000386000000000000000000000170000002660000000300000001000003510070000000000000000N
041991051010407399PATERNA DEL RIO                                                                                     001301300000000402000010000034400000344000000000000000000000122000001890000000200000006000002280070000000000000000N
041991051010407499PECHINA                                                                                             001301300000002175000020000154600001546000000000000000000000787000010880000000500000006000012350110000000000000000N
041991051010407599PULPI                                                                                               010010000000004650000040000328700003287000000000000000000001311000021500000000400000003000026710110000000000000000N
041991051010407699PURCHENA                                                                                            005305300000001829000020000137800001378000000000000000000000451000007960000000500000002000010960090000000000000000N
041991051010407799RAGOL                                                                                               001301300000000466000010000037300000373000000000000000000000212000002900000000100000002000003340070000000000000000N
041991051010407899RIOJA                                                                                               001301300000001174000010000088700000887000000000000000000000410000006230000000300000002000007680090000000000000000N
041991051010407999ROQUETAS DE MAR                                                                                     001301300000028129000170001860300018603000000000000000000004951000083440000006600000022000112390210000000000000000N
041991051010408099SANTA CRUZ                                                                                          001301300000000253000010000020300000203000000000000000000000094000001190000000100000002000001570070000000000000000N
041991051010408199SANTA FE DE MONDUJAR                                                                                001301300000000425000010000037100000371000000000000000000000159000002520000000100000001000003180070000000000000000N
041991051010408299SENES                                                                                               001301300000000472000010000039000000390000000000000000000000094000001870000000000000000000002600070000000000000000N
041991051010408399SERON                                                                                               005305300000003160000040000249500002495000000000000000000000924000013820000000400000004000017470110000000000000000N
041991051010408499SIERRO                                                                                              005305300000000694000010000040900000409000000000000000000000120000002160000000300000001000002640070000000000000000N
041991051010408599SOMONTIN                                                                                            005305300000000553000010000042600000426000000000000000000000203000002830000000000000000000003860070000000000000000N
041991051010408699SORBAS                                                                                              001301300000003074000050000226300002263000000000000000000000683000012660000000300000002000016310110000000000000000N
041991051010408799SUFLI                                                                                               005305300000000265000010000020700000207000000000000000000000061000001110000000100000000000001520070000000000000000N
041991051010408899TABERNAS                                                                                            001301300000003171000050000244100002441000000000000000000000847000013280000000600000004000018120110000000000000000N
041991051010408999TABERNO                                                                                             005305300000001016000010000081000000810000000000000000000000280000004660000000500000001000006000090000000000000000N
041991051010409099TAHAL                                                                                               001301300000000561000010000051400000514000000000000000000000187000002660000000000000006000003510070000000000000000N
041991051010409199TERQUE                                                                                              001301300000000499000010000042600000426000000000000000000000237000003250000000100000005000003530070000000000000000N
041991051010409299TIJOLA                                                                                              005305300000003527000050000267500002675000000000000000000001028000015030000001900000005000020870110000000000000000N
041991051010409399TURRE                                                                                               010010000000002181000020000160000001600000000000000000000000612000009800000000800000004000012410110000000000000000N
041991051010409499TURRILLAS                                                                                           001301300000000280000010000021500000215000000000000000000000075000001430000000000000001000001760070000000000000000N
041991051010409599ULEILA DEL CAMPO                                                                                    001301300000001033000010000083000000830000000000000000000000253000004690000000000000005000006140090000000000000000N
041991051010409699URRACAL                                                                                             005305300000000379000010000029500000295000000000000000000000101000001530000000000000000000002150070000000000000000N
041991051010409799VELEFIQUE                                                                                           001301300000000428000010000032500000325000000000000000000000091000001690000000000000002000002090070000000000000000N
041991051010409899VELEZ BLANCO                                                                                        005305300000002479000040000207000002070000000000000000000000628000011940000000800000012000014500110000000000000000N
041991051010409999VELEZ-RUBIO                                                                                         005305300000006717000090000533800005338000000000000000000001531000028600000003500000023000038090130000000000000000N
041991051010410099VERA                                                                                                010010000000006052000060000426500004265000000000000000000001458000022690000002500000013000030850130000000000000000N
041991051010410199VIATOR                                                                                              001301300000002743000020000193500001935000000000000000000000753000011290000001000000022000013520110000000000000000N
041991051010410299VICAR                                                                                               001301300000011326000080000737000007370000000000000000000001963000036810000000300000015000048970170000000000000000N
041991051010410399ZURGENA                                                                                             005305300000002164000020000164800001648000000000000000000000597000010290000000600000004000013240110000000000000000N
041991051010490199TRES VILLAS (LAS)                                                                                   001301300000000735000010000062300000623000000000000000000000250000004150000000400000000000005580070000000000000000N
041991051010490299EJIDO(EL)                                                                                           002902900000041080000260002737800027378000000000000000000006212000105040000010300000036000143160210000000000000000N
041991051010490399MOJONERA (LA)                                                                                       001301300000005595000040000364800003648000000000000000000000955000016850000000300000005000023170130000000000000000N
041991051011100199ALCALA DE LOS GAZULES                                                                               003103100000005840000060000438100004381000000000000000000001337000020690000004800000013000027150130000000000000000N
041991051011100299ALCALA DEL VALLE                                                                                    000600600000005400000040000377500003775000000000000000000000924000017210000001300000009000028030130000000000000000N
041991051011100399ALGAR                                                                                               000600600000002131000020000147700001477000000000000000000000431000006750000000200000008000008740110000000000000000N
041991051011100499ALGECIRAS                                                                                           000400400000102079000970007090200070902000000000000000000017096000250010000012400000232000324170270000000000000000N
041991051011100599ALGODONALES                                                                                         000600600000006035000080000443400004434000000000000000000001686000023720000000700000005000030160130000000000000000N
041991051011100699ARCOS DE LA FRONTERA                                                                                000600600000027722000270001919800019198000000000000000000006339000097830000006200000015000125420210000000000000000N
041991051011100799BARBATE DE FRANCO                                                                                   001501500000022706000190001589400015894000000000000000000004011000061330000006700000044000080570210000000000000000N
041991051011100899BARRIOS (LOS)                                                                                       000400400000013693000100000909400009094000000000000000000002872000043520000002700000022000056650170000000000000000N
041991051011100999BENAOCAZ                                                                                            000600600000000519000010000037900000379000000000000000000000172000002270000000000000001000003340070000000000000000N
041991051011101099BORNOS                                                                                              000600600000008189000080000568700005687000000000000000000001895000028720000001600000009000037560130000000000000000N
041991051011101199BOSQUE (EL)                                                                                         000600600000001812000020000129700001297000000000000000000000562000007570000000600000001000009180090000000000000000N
041991051011101299CADIZ                                                                                               001201200000156903001040011682400116824000000000000000000027508000416130000078300000407000518020270000000000000000N
041991051011101399CASTELLAR DE LA FRONTERA                                                                            003303300000002330000020000166600001666000000000000000000000632000010610000000400000011000013520110000000000000000N
041991051011101499CONIL DE LA FRONTERA                                                                                001501500000015396000170001040900010409000000000000000000003374000055800000002000000011000070330170000000000000000N
041991051011101599CHICLANA DE LA FRONTERA                                                                             001501500000044998000380003031600030316000000000000000000006670000101870000008500000067000136000210000000000000000N
041991051011101699CHIPIONA                                                                                            003203200000014607000130000986600009866000000000000000000002570000045450000003000000020000065780170000000000000000N
041991051011101799ESPERA                                                                                              000600600000004194000040000297400002974000000000000000000001198000016510000000600000012000020530110000000000000000N
041991051011101899GASTOR (EL)                                                                                         000600600000002295000030000167000001670000000000000000000000674000009680000001700000004000011540110000000000000000N
041991051011101999GRAZALEMA                                                                                           000600600000002302000040000173200001732000000000000000000000516000008970000001000000013000012020110000000000000000N
041991051011102099JEREZ DE LA FRONTERA                                                                                002002000000186812001750013361700133617000000000000000000035893000498370000046600000196000666790270000000000000000N
041991051011102199JIMENA DE LA FRONTERA                                                                               003303300000008936000090000666200006662000000000000000000002442000036390000002600000015000045800130000000000000000N
041991051011102299LA LINEA DE LA CONCEPCION                                                                           003303300000061597000580004423700044237000000000000000000010861000167360000014700000180000212980250000000000000000N
041991051011102399MEDINA-SIDONIA                                                                                      003103100000011105000110000772600007726000000000000000000002486000039860000003100000015000051980170000000000000000N
041991051011102499OLVERA                                                                                              000600600000009293000080000702900007029000000000000000000002103000033110000003300000021000045700130000000000000000N
041991051011102599PATERNA DE RIVERA                                                                                   003103100000004974000060000328900003289000000000000000000001309000021200000001600000005000025140110000000000000000N
041991051011102699PRADO DEL REY                                                                                       000600600000005522000040000387400003874000000000000000000001664000023700000001300000013000029480130000000000000000N
041991051011102799PUERTO DE SANTA MARIA(EL)                                                                           002702700000064849000640004558800045588000000000000000000009628000149780000022300000107000203100250000000000000000N
041991051011102899PUERTO REAL                                                                                         002702700000029070000220002002700020027000000000000000000005661000079650000006500000023000101870210000000000000000N
041991051011102999PUERTO SERRANO                                                                                      000600600000006337000100000428500004285000000000000000000001381000018460000001300000021000028210130000000000000000N
041991051011103099ROTA                                                                                                002702700000022677000230001597800015978000000000000000000004384000076170000002100000041000102240210000000000000000N
041991051011103199SAN FERNANDO                                                                                        003103100000083923000920005816600058166000000000000000000013543000199610000021700000116000264890250000000000000000N
041991051011103299SANLUCAR DE BARRAMEDA                                                                               003203200000056375000630003882000038820000000000000000000008838000140780000011400000056000206760250000000000000000N
041991051011103399SAN ROQUE                                                                                           003303300000022231000230001528200015282000000000000000000005376000076540000004000000047000096110210000000000000000N
041991051011103499SETENIL                                                                                             000600600000003287000030000244100002441000000000000000000000805000012020000001300000005000014370110000000000000000N
041991051011103599TARIFA                                                                                              000400400000014860000170001065900010659000000000000000000002990000051820000004900000033000069740170000000000000000N
041991051011103699TORRE-ALHAQUIME                                                                                     000600600000001049000010000080300000803000000000000000000000260000004380000000000000000000005700090000000000000000N
041991051011103799TREBUJENA                                                                                           003203200000007060000090000511100005111000000000000000000002354000035020000002000000008000044500130000000000000000N
041991051011103899UBRIQUE                                                                                             000600600000018171000180001285900012859000000000000000000005548000074580000007900000057000090850170000000000000000N
041991051011103999VEJER DE LA FRONTERA                                                                                001501500000013285000130000949700009497000000000000000000002321000037810000001200000005000054170170000000000000000N
041991051011104099VILLALUENGA DEL ROSARIO                                                                             000600600000000482000010000036100000361000000000000000000000086000001770000000000000000000002390070000000000000000N
041991051011104199VILLAMARTIN                                                                                         000600600000012331000110000863600008636000000000000000000002862000038910000002600000018000054790170000000000000000N
041991051011104299ZAHARA                                                                                              000600600000001696000020000127200001272000000000000000000000487000006830000000100000002000008860090000000000000000N
041991051011190199BENALUP                                                                                             003103100000005555000070000375400003754000000000000000000001370000021520000001000000014000027830130000000000000000N
041991051011400199ADAMUZ                                                                                              002102100000004623000040000332800003328000000000000000000001699000021810000000800000016000028780110000000000000000N
041991051011400299AGUILAR                                                                                             000200200000013304000110000973900009739000000000000000000004371000062050000004800000037000080430170000000000000000N
041991051011400399ALCARACEJOS                                                                                         005405400000001511000010000134500001345000000000000000000000515000008280000000400000007000010230090000000000000000N
041991051011400499ALMEDINILLA                                                                                         005505500000002739000020000214000002140000000000000000000000813000012610000000500000004000017220110000000000000000N
041991051011400599ALMODOVAR DEL RIO                                                                                   005305300000007116000060000516600005166000000000000000000001868000024680000001800000004000034380130000000000000000N
041991051011400699AÑORA                                                                                               005405400000001814000020000139500001395000000000000000000000691000009650000000300000012000011580090000000000000000N
041991051011400799BAENA                                                                                               000700700000019322000160001346800013468000000000000000000004861000067180000004300000046000091460170000000000000000N
041991051011400899BELALCAZAR                                                                                          005205200000004206000040000331100003311000000000000000000001486000020060000001000000008000024370110000000000000000N
041991051011400999BELMEZ                                                                                              005205200000004653000060000368400003684000000000000000000001601000020070000000500000008000025090110000000000000000N
041991051011401099BENAMEJI                                                                                            003803800000004782000040000359300003593000000000000000000001394000021380000001100000015000028480110000000000000000N
041991051011401199BLAZQUEZ                                                                                            005205200000000810000010000063900000639000000000000000000000291000003890000000900000005000004860070000000000000000N
041991051011401299BUJALANCE                                                                                           002102100000008896000090000651200006512000000000000000000003004000039310000002000000022000049310130000000000000000N
041991051011401399CABRA                                                                                               001301300000020532000180001547100015471000000000000000000005709000079710000004900000024000109100210000000000000000N
041991051011401499CAÑETE DE LAS TORRES                                                                                002102100000003541000020000272100002721000000000000000000001229000016330000001700000009000021520110000000000000000N
041991051011401599CARCABUEY                                                                                           005505500000003010000040000239300002393000000000000000000000944000013350000000200000006000017940110000000000000000N
041991051011401699CARDEÑA                                                                                             002102100000002163000030000170900001709000000000000000000000795000010650000000200000010000013910110000000000000000N
041991051011401799CARLOTA (LA)                                                                                        005305300000009300000120000680900006809000000000000000000002358000033440000002000000020000048120130000000000000000N
041991051011401899CARPIO (EL)                                                                                         002102100000004838000060000360600003606000000000000000000001651000021670000000500000022000028690110000000000000000N
041991051011401999CASTRO DEL RIO                                                                                      002102100000007974000090000611500006115000000000000000000002965000040050000003400000015000049960130000000000000000N
041991051011402099CONQUISTA                                                                                           005405400000000584000010000048700000487000000000000000000000231000002810000000700000002000003100070000000000000000N
041991051011402199CORDOBA                                                                                             002102100000307275003070022631800226318000000000000000000067274000924090000100700000518001194830290000000000000000N
041991051011402299DOÑA MENCIA                                                                                         001301300000005160000040000385100003851000000000000000000001564000022560000000400000007000029510130000000000000000N
041991051011402399DOS-TORRES                                                                                          005405400000002497000030000201500002015000000000000000000000925000012870000000400000011000015440110000000000000000N
041991051011402499ENCINAS REALES                                                                                      003803800000002317000020000180700001807000000000000000000000850000012770000002400000006000015410110000000000000000N
041991051011402599ESPEJO                                                                                              002102100000005157000040000347000003470000000000000000000001918000025130000001700000015000030670130000000000000000N
041991051011402699ESPIEL                                                                                              005205200000002833000030000213000002130000000000000000000000912000011160000000500000002000014710110000000000000000N
041991051011402799FERNAN NUÑEZ                                                                                        004204200000009402000090000685900006859000000000000000000002687000037030000005200000046000047330130000000000000000N
041991051011402899FUENTE LA LANCHA                                                                                    005205200000000500000010000039700000397000000000000000000000185000002610000000300000005000003430070000000000000000N
041991051011402999FUENTE OBEJUNA                                                                                      005205200000006833000100000529600005296000000000000000000002292000029150000001300000009000037920130000000000000000N
041991051011403099FUENTE PALMERA                                                                                      005305300000009473000110000669400006694000000000000000000002157000034040000001600000010000048860130000000000000000N
041991051011403199FUENTE-TOJAR                                                                                        005505500000000920000010000076700000767000000000000000000000320000004400000000300000005000005500070000000000000000N
041991051011403299GRANJUELA (LA)                                                                                      005205200000000551000010000042100000421000000000000000000000229000002840000000500000010000003150070000000000000000N
041991051011403399GUADALCAZAR                                                                                         005305300000001313000010000091900000919000000000000000000000414000006420000000100000000000007660090000000000000000N
041991051011403499GUIJO                                                                                               005405400000000512000010000041600000416000000000000000000000234000002810000000300000004000003240070000000000000000N
041991051011403599HINOJOSA DEL DUQUE                                                                                  005205200000008234000080000651200006512000000000000000000003054000040260000001500000024000049570130000000000000000N
041991051011403699HORNACHUELOS                                                                                        005305300000005439000040000381700003817000000000000000000001515000020480000001000000002000026560130000000000000000N
041991051011403799IZNAJAR                                                                                             003803800000006057000080000469200004692000000000000000000001393000020180000001900000025000031810130000000000000000N
041991051011403899LUCENA                                                                                              003803800000033093000290002323600023236000000000000000000008044000113100000010100000049000152870210000000000000000N
041991051011403999LUQUE                                                                                               000700700000003509000030000277900002779000000000000000000001066000016240000001000000019000021420110000000000000000N
041991051011404099MONTALBANDE CORDOBA                                                                                 004204200000004528000040000239500002395000000000000000000001373000023560000003000000008000027740110000000000000000N
041991051011404199MONTEMAYOR                                                                                          004204200000003821000040000280400002804000000000000000000001192000017060000001200000029000021010110000000000000000N
041991051011404299MONTILLA                                                                                            004204200000022699000210001737000017370000000000000000000006403000091790000013000000098000123300210000000000000000N
041991051011404399MONTORO                                                                                             002102100000009959000080000722600007226000000000000000000003060000039980000001500000007000052940130000000000000000N
041991051011404499MONTURQUE                                                                                           000200200000002005000020000145600001456000000000000000000000627000008540000000200000020000011300110000000000000000N
041991051011404599MORILES                                                                                             000200200000003714000030000274200002742000000000000000000001175000016150000002200000011000021600110000000000000000N
041991051011404699NUEVA-CARTEYA                                                                                       001301300000005848000060000418700004187000000000000000000001757000026710000000500000009000034120130000000000000000N
041991051011404799OBEJO                                                                                               002102100000001497000020000115000001150000000000000000000000440000005540000000500000004000007950090000000000000000N
041991051011404899PALENCIANA                                                                                          003803800000001754000020000129200001292000000000000000000000546000007960000000100000001000010000090000000000000000N
041991051011404999PALMA DEL RIO                                                                                       005305300000018966000150001382300013823000000000000000000004966000069460000005200000034000096670170000000000000000N
041991051011405099PEDRO ABAD                                                                                          002102100000003036000040000230100002301000000000000000000001084000014030000001100000005000018390110000000000000000N
041991051011405199PEDROCHE                                                                                            005405400000001872000020000152100001521000000000000000000000750000009890000001100000009000012560090000000000000000N
041991051011405299PEÑARROYA-PUEBLONUEVO                                                                               005205200000014246000140001061800010618000000000000000000000000000000000000004400000087000065930170000000000000000N
041991051011405399POSADAS                                                                                             005305300000007135000060000533700005337000000000000000000002341000031660000003000000011000039450130000000000000000N
041991051011405499POZOBLANCO                                                                                          005405400000015014000130001138200011382000000000000000000005278000066890000009600000044000083070170000000000000000N
041991051011405599PRIEGO DE CORDOBA                                                                                   005505500000021762000240001656700016567000000000000000000005290000083650000005500000069000113370210000000000000000N
041991051011405699PUENTE-GENIL                                                                                        000200200000027739000240002028600020286000000000000000000007231000098410000007200000052000130320210000000000000000N
041991051011405799RAMBLA (LA)                                                                                         004204200000007166000060000503800005038000000000000000000002503000034900000001800000010000042710130000000000000000N
041991051011405899RUTE                                                                                                003803800000009909000090000770900007709000000000000000000002988000042020000003400000011000056570130000000000000000N
041991051011405999S SBT.DE LOS BALLESTEROS                                                                            004204200000000838000010000067000000670000000000000000000000477000005400000000000000000000005990070000000000000000N
041991051011406099SANTAELLA                                                                                           004204200000005867000050000408300004083000000000000000000001752000024870000001600000019000031920130000000000000000N
041991051011406199SANTA EUFEMIA                                                                                       005405400000001354000010000110300001103000000000000000000000546000006910000000200000006000008680090000000000000000N
041991051011406299TORRECAMPO                                                                                          005405400000001643000020000131700001317000000000000000000000521000007550000001100000006000009290090000000000000000N
041991051011406399VALENZUELA                                                                                          000700700000001668000020000134900001349000000000000000000000683000008470000000900000010000011410090000000000000000N
041991051011406499VALSEQUILLO                                                                                         005205200000000627000010000048200000482000000000000000000000220000003030000000200000001000003790070000000000000000N
041991051011406599VICTORIA (LA)                                                                                       004204200000001752000020000132000001320000000000000000000000703000009190000000500000008000011430090000000000000000N
041991051011406699VILLA DEL RIO                                                                                       002102100000007158000070000524100005241000000000000000000002117000028350000002600000025000037350130000000000000000N
041991051011406799VILLAFRANCA DE CORDOBA                                                                              002102100000003668000030000274400002744000000000000000000000731000015800000001300000006000021410110000000000000000N
041991051011406899VILLAHARTA                                                                                          005205200000000668000010000053200000532000000000000000000000247000002960000000100000002000003770070000000000000000N
041991051011406999VILLANUEVA DE CORDOBA                                                                               005405400000010548000120000831500008315000000000000000000003419000045180000003300000029000062040170000000000000000N
041991051011407099VILLANUEVA DEL DUQUE                                                                                005405400000002133000020000171600001716000000000000000000000789000010630000000500000010000012810110000000000000000N
041991051011407199VILLANUEVA DEL REY                                                                                  005205200000001395000020000113900001139000000000000000000000558000006910000000800000008000008130090000000000000000N
041991051011407299VILLARALTO                                                                                          005405400000001849000020000163500001635000000000000000000000768000011280000000200000006000013140090000000000000000N
041991051011407399VILLAVICIOSA DE CORDOBA                                                                             002102100000004319000040000333600003336000000000000000000001356000017270000001000000007000025020110000000000000000N
041991051011407499VISO (EL)                                                                                           005405400000003572000050000282200002822000000000000000000001510000019140000000700000007000023590110000000000000000N
041991051011407599ZUHEROS                                                                                             001301300000001023000010000082100000821000000000000000000000387000004980000000400000017000006040090000000000000000N
041991051011800199AGRON                                                                                               012212200000000461000010000037000000370000000000000000000000122000002030000000000000005000002650070000000000000000N
041991051011800299ALAMEDILLA                                                                                          008908900000001111000010000083200000832000000000000000000000272000004310000000000000002000005460090000000000000000N
041991051011800399ALBOLOTE                                                                                            008708700000009365000100000650400006504000000000000000000002235000031690000003100000028000042760130000000000000000N
041991051011800499ALBONDON                                                                                            014714700000001378000020000108400001084000000000000000000000305000005060000001900000004000008510090000000000000000N
041991051011800599ALBUÑAN                                                                                             008908900000000531000010000041700000417000000000000000000000165000002540000000300000000000003330070000000000000000N
041991051011800699ALBUÑOL                                                                                             014714700000005729000060000417200004172000000000000000000001423000022970000000800000012000031120130000000000000000N
041991051011800799ALBUÑUELAS                                                                                          014714700000001426000020000110100001101000000000000000000000401000005860000000100000010000007840090000000000000000N
041991051011801099ALDEIRE                                                                                             008908900000000903000010000074900000749000000000000000000000227000003680000000500000003000005290070000000000000000N
041991051011801199ALFACAR                                                                                             008708700000003593000030000250900002509000000000000000000000816000015930000002200000010000018990110000000000000000N
041991051011801299ALGARINEJO                                                                                          012212200000005013000070000377100003771000000000000000000001045000016720000000900000012000024720130000000000000000N
041991051011801399ALHAMA DE GRANADA                                                                                   012212200000006124000050000475800004758000000000000000000002016000028160000001800000009000034830130000000000000000N
041991051011801499ALHENDIN                                                                                            008708700000003594000020000260400002604000000000000000000001014000015600000000700000004000020050110000000000000000N
041991051011801599ALICUN DE ORTEGA                                                                                    008908900000000776000010000055500000555000000000000000000000226000003000000000300000000000003490070000000000000000N
041991051011801699ALMEGIJAR                                                                                           014714700000000540000010000044700000447000000000000000000000102000001980000000200000000000002830070000000000000000N
041991051011801799ALMUÑECAR                                                                                           014014000000020108000130001343800013438000000000000000000005621000081570000003600000025000101860210000000000000000N
041991051011801899ALQUIFE                                                                                             008908900000001304000010000102900001029000000000000000000000374000006500000000500000007000008080090000000000000000N
041991051011802099ARENAS DEL REY                                                                                      012212200000002181000030000175000001750000000000000000000000543000009040000000300000013000011800110000000000000000N
041991051011802199ARMILLA                                                                                             008708700000011279000070000767200007672000000000000000000002567000033800000003300000013000044110170000000000000000N
041991051011802299ATARFE                                                                                              008708700000010062000070000728100007281000000000000000000002795000039180000005000000025000047560170000000000000000N
041991051011802399BAZA                                                                                                002302300000021123000140001547100015471000000000000000000004091000060180000005100000039000079960210000000000000000N
041991051011802499BEAS DE GRANADA                                                                                     008708700000000879000010000069000000690000000000000000000000326000004700000000200000000000005440070000000000000000N
041991051011802599BEAS DE GUADIX                                                                                      008908900000000468000010000033500000335000000000000000000000168000002030000000100000001000002420070000000000000000N
041991051011802799BENALUA DE GUADIX                                                                                   008908900000003520000020000255100002551000000000000000000000915000013700000000700000014000017690110000000000000000N
041991051011802899BENALUA DE LAS VILLAS                                                                               008708700000001436000010000107400001074000000000000000000000395000006950000000400000001000008530090000000000000000N
041991051011802999BENAMAUREL                                                                                          002302300000002677000020000205600002056000000000000000000000681000010160000001400000011000012520110000000000000000N
041991051011803099BERCHULES                                                                                           014714700000000976000020000076800000768000000000000000000000275000003940000000100000006000004760090000000000000000N
041991051011803299BUBION                                                                                              014714700000000334000010000023900000239000000000000000000000072000001030000000200000002000001650070000000000000000N
041991051011803399BUSQUISTAR                                                                                          014714700000000425000010000033000000330000000000000000000000070000001290000000600000000000001600070000000000000000N
041991051011803499CACIN                                                                                               012212200000000947000020000079400000794000000000000000000000357000004830000000600000005000006150070000000000000000N
041991051011803599CADIAR                                                                                              014714700000002045000030000166300001663000000000000000000000552000008550000000400000005000012430110000000000000000N
041991051011803699CAJAR                                                                                               008708700000001948000020000143900001439000000000000000000000324000008480000002000000011000010020090000000000000000N
041991051011803799CALICASAS                                                                                           008708700000000594000010000044800000448000000000000000000000225000003120000000000000001000003990070000000000000000N
041991051011803899CAMPOTEJAR                                                                                          008708700000001510000010000117300001173000000000000000000000418000007120000000100000004000008850090000000000000000N
041991051011803999CANILES                                                                                             002302300000005970000070000435100004351000000000000000000001205000020300000001100000013000030610130000000000000000N
041991051011804099CAÑAR                                                                                               014714700000000366000010000031300000313000000000000000000000122000001720000000000000000000002570070000000000000000N
041991051011804299CAPILEIRA                                                                                           014714700000000615000010000044800000448000000000000000000000196000003010000000000000000000003670070000000000000000N
041991051011804499CASTARAS                                                                                            014714700000000367000010000030800000308000000000000000000000082000001350000000400000002000001930070000000000000000N
041991051011804599CASTILLEJAR                                                                                         002302300000002362000030000191500001915000000000000000000000667000009530000000100000009000011670110000000000000000N
041991051011804699CASTRIL                                                                                             002302300000003516000060000272200002722000000000000000000000679000013260000000500000003000017630110000000000000000N
041991051011804799CENES DE LA VEGA                                                                                    008708700000001983000010000136500001365000000000000000000000462000007240000000500000002000009240090000000000000000N
041991051011804899CIJUELA                                                                                             008708700000001243000010000097400000974000000000000000000000445000005830000000300000005000007170090000000000000000N
041991051011804999COGOLLOS DE GUADIX                                                                                  008908900000000811000010000068100000681000000000000000000000304000004250000000300000004000004790070000000000000000N
041991051011805099COGOLLOS VEGA                                                                                       008708700000001960000020000150600001506000000000000000000000520000008620000001800000006000011350090000000000000000N
041991051011805199COLOMERA                                                                                            008708700000002029000020000156700001567000000000000000000000620000008610000000300000002000011340110000000000000000N
041991051011805399CORTES DE BAZA                                                                                      002302300000003166000050000246000002460000000000000000000000646000011640000000700000001000015800110000000000000000N
041991051011805499CORTES Y GRAENA                                                                                     008908900000001003000010000082300000823000000000000000000000285000005520000000400000000000007030090000000000000000N
041991051011805699CULLAR                                                                                              002302300000005864000070000445900004459000000000000000000001792000025720000002500000013000032410130000000000000000N
041991051011805799CULLAR VEGA                                                                                         008708700000001599000010000119200001192000000000000000000000448000007430000000500000003000009580090000000000000000N
041991051011805999CHAUCHINA                                                                                           008708700000004007000030000306100003061000000000000000000001156000016940000000800000038000021410110000000000000000N
041991051011806199CHIMENEAS                                                                                           012212200000001629000020000129800001298000000000000000000000624000008780000000400000030000010600090000000000000000N
041991051011806299CHURRIANA DE LA VEGA                                                                                008708700000005270000040000378600003786000000000000000000001340000021650000000900000015000027680130000000000000000N
041991051011806399DARRO                                                                                               008708700000001670000010000115700001157000000000000000000000378000006310000000300000006000008020090000000000000000N
041991051011806499DEHESAS DE GUADIX                                                                                   008908900000000965000010000055100000551000000000000000000000115000002290000000100000000000003370070000000000000000N
041991051011806699DEIFONTES                                                                                           008708700000002530000020000192600001926000000000000000000000697000009710000000600000005000013320110000000000000000N
041991051011806799DIEZMA                                                                                              008708700000001151000010000088400000884000000000000000000000289000005210000000100000002000007310090000000000000000N
041991051011806899DILAR                                                                                               008708700000001372000010000109000001090000000000000000000000511000006990000000500000009000008250090000000000000000N
041991051011806999DOLAR                                                                                               008908900000000718000010000058500000585000000000000000000000305000003950000000400000004000004420070000000000000000N
041991051011807099DUDAR                                                                                               008708700000000279000010000022200000222000000000000000000000057000001040000000000000000000001490070000000000000000N
041991051011807199DURCAL                                                                                              014714700000005796000040000452700004527000000000000000000001690000025170000002900000024000032170130000000000000000N
041991051011807299ESCUZAR                                                                                             008708700000001184000010000087900000879000000000000000000000322000004560000000400000002000005780090000000000000000N
041991051011807499FERREIRA                                                                                            008908900000000447000010000036000000360000000000000000000000146000002110000000100000004000002830070000000000000000N
041991051011807699FONELAS                                                                                             008908900000001552000010000111100001111000000000000000000000287000004350000000200000001000006240090000000000000000N
041991051011807899FREILA                                                                                              002302300000001354000010000099600000996000000000000000000000285000004630000000500000002000007080090000000000000000N
041991051011807999FUENTEVAQUEROS                                                                                      008708700000003856000030000285600002856000000000000000000001094000015550000002600000034000020350110000000000000000N
041991051011808299GALERA                                                                                              002302300000001829000020000145500001455000000000000000000000474000006500000000400000007000008340090000000000000000N
041991051011808399GOBERNADOR                                                                                          008908900000000439000010000039400000394000000000000000000000150000002270000000200000001000002880070000000000000000N
041991051011808499GOJAR                                                                                               008708700000002219000020000165400001654000000000000000000000600000009540000002900000014000011030110000000000000000N
041991051011808599GOR                                                                                                 008908900000001439000010000118800001188000000000000000000000341000005430000000600000001000006760090000000000000000N
041991051011808699GORAFE                                                                                              008908900000000721000010000053800000538000000000000000000000210000002750000000300000000000003430070000000000000000N
041991051011808799GRANADA                                                                                             008708700000268674001770020170300201703000000000000000000062013000864290000087700000426001092270270000000000000000N
041991051011808899GUADAHORTUNA                                                                                        008708700000002594000020000187000001870000000000000000000000568000010090000000400000009000013580110000000000000000N
041991051011808999GUADIX                                                                                              008908900000020975000150001439400014394000000000000000000004032000062240000004800000067000080150210000000000000000N
041991051011809399GUALCHOS                                                                                            014014000000003028000030000217700002177000000000000000000000839000013880000000300000006000016850110000000000000000N
041991051011809499GUEJAR SIERRA                                                                                       008708700000002752000030000217200002172000000000000000000000903000012880000000600000001000016870110000000000000000N
041991051011809599GUEVEJAR                                                                                            008708700000001228000010000089600000896000000000000000000000360000005810000000600000012000007190090000000000000000N
041991051011809699HUELAGO                                                                                             008908900000000740000010000055800000558000000000000000000000224000003230000000200000000000004590070000000000000000N
041991051011809799HUENEJA                                                                                             008908900000001526000020000121800001218000000000000000000000074000003890000000600000001000009360090000000000000000N
041991051011809899HUESCAR                                                                                             002302300000010283000100000775800007758000000000000000000002360000034900000001600000013000046370170000000000000000N
041991051011809999HUETOR SANTILLAN                                                                                    008708700000001488000010000113200001132000000000000000000000494000007200000000300000006000009040090000000000000000N
041991051011810099HUETOR TAJAR                                                                                        012212200000007999000060000598400005984000000000000000000002345000036310000001600000017000045010130000000000000000N
041991051011810199HUETOR VEGA                                                                                         008708700000006531000040000456200004562000000000000000000001461000022410000001900000019000030450130000000000000000N
041991051011810299ILLORA                                                                                              012212200000010869000090000823800008238000000000000000000003229000045660000003600000028000060730170000000000000000N
041991051011810399ITRABO                                                                                              014014000000001176000010000093000000930000000000000000000000430000006350000000000000000000007750090000000000000000N
041991051011810599IZNALLOZ                                                                                            008708700000007024000060000516900005169000000000000000000001687000025870000003400000020000033970130000000000000000N
041991051011810799JAYENA                                                                                              012212200000001543000010000115200001152000000000000000000000462000006660000000200000002000008660090000000000000000N
041991051011810899JEREZ DEL MARQUESADO                                                                                008908900000001320000010000106500001065000000000000000000000510000007050000000800000003000008440090000000000000000N
041991051011810999JETE                                                                                                014014000000000751000010000058000000580000000000000000000000261000004050000000100000002000005280070000000000000000N
041991051011811199JUN                                                                                                 008708700000000892000010000066400000664000000000000000000000342000004680000000700000006000005480070000000000000000N
041991051011811499LA CALAHORRA                                                                                        008908900000001093000010000084100000841000000000000000000000277000004110000000800000000000005310090000000000000000N
041991051011811599LACHAR                                                                                              008708700000002318000020000166600001666000000000000000000000716000010180000001200000013000012860110000000000000000N
041991051011811699LANJARON                                                                                            014714700000004178000040000322300003223000000000000000000001501000020360000002100000008000024570110000000000000000N
041991051011811799LANTEIRA                                                                                            008908900000000754000010000065100000651000000000000000000000336000004410000000500000002000005160070000000000000000N
041991051011811999LECRIN                                                                                              014714700000002606000050000209000002090000000000000000000000864000012800000001500000012000015740110000000000000000N
041991051011812099LENTEGI                                                                                             014014000000000370000010000028700000287000000000000000000000096000001700000000200000001000002110070000000000000000N
041991051011812199LOBRAS                                                                                              014714700000000261000010000021600000216000000000000000000000065000001190000000100000000000001510070000000000000000N
041991051011812299LOJA                                                                                                012212200000021273000310001576400015764000000000000000000004267000064470000007000000099000091530210000000000000000N
041991051011812399LUGROS                                                                                              008908900000000568000010000045800000458000000000000000000000110000001570000001800000000000001810070000000000000000N
041991051011812499LUJAR                                                                                               014014000000000690000010000050200000502000000000000000000000152000002590000000000000000000003710070000000000000000N
041991051011812699MALAHA (LA)                                                                                         008708700000001708000010000122900001229000000000000000000000566000008270000000200000001000009440090000000000000000N
041991051011812799MARACENA                                                                                            008708700000012273000080000889000008890000000000000000000003080000042060000007800000048000051580170000000000000000N
041991051011812899MARCHAL                                                                                             008908900000000526000010000042400000424000000000000000000000157000002290000000100000000000003000070000000000000000N
041991051011813299MOCLIN                                                                                              008708700000005179000060000392200003922000000000000000000001405000020910000001800000018000027420130000000000000000N
041991051011813399MOLVIZAR                                                                                            014014000000002531000020000202200002022000000000000000000001055000015800000000000000002000018730110000000000000000N
041991051011813499MONACHIL                                                                                            008708700000004147000030000317200003172000000000000000000000995000015180000000400000005000020260110000000000000000N
041991051011813599MONTEFRIO                                                                                           012212200000008293000070000631500006315000000000000000000001908000029920000002100000025000040570130000000000000000N
041991051011813699MONTEJICAR                                                                                          008708700000003006000030000220700002207000000000000000000000878000012810000000600000009000015940110000000000000000N
041991051011813799MONTILLANA                                                                                          008708700000001422000010000114400001144000000000000000000000360000006300000000400000001000009560090000000000000000N
041991051011813899MORALEDA DE ZAFAYONA                                                                                012212200000002591000020000193500001935000000000000000000000637000008850000000100000009000012700110000000000000000N
041991051011814099MOTRIL                                                                                              014014000000047267000310003341800033418000000000000000000009652000142790000012700000099000183820210000000000000000N
041991051011814199MURTAS                                                                                              014714700000001217000010000098700000987000000000000000000000415000005900000000100000005000007350090000000000000000N
041991051011814399NIGUELAS                                                                                            014714700000001215000010000110700001107000000000000000000000380000005360000001100000026000006510090000000000000000N
041991051011814499NIVAR                                                                                               008708700000000484000010000039100000391000000000000000000000188000002440000000200000000000003360070000000000000000N
041991051011814599OGIJARES                                                                                            008708700000004355000020000298900002989000000000000000000000837000014070000001800000006000019720110000000000000000N
041991051011814699ORCE                                                                                                002302300000001596000020000132100001321000000000000000000000637000008050000000200000004000009520090000000000000000N
041991051011814799ORGIVA                                                                                              014714700000005260000040000400600004006000000000000000000001613000021660000001700000015000026220130000000000000000N
041991051011814899OTIVAR                                                                                              014014000000001212000010000094500000945000000000000000000000288000004220000001600000005000006520090000000000000000N
041991051011814999OTURA                                                                                               008708700000002401000020000172200001722000000000000000000000744000011300000001000000011000013150110000000000000000N
041991051011815099PADUL                                                                                               008708700000006481000040000468200004682000000000000000000001950000027580000001700000025000033320130000000000000000N
041991051011815199PAMPANEIRA                                                                                          014714700000000368000010000028000000280000000000000000000000140000001580000000100000002000002090070000000000000000N
041991051011815299PEDRO MARTINEZ                                                                                      008908900000001852000020000147000001470000000000000000000000585000007670000000100000002000009190090000000000000000N
041991051011815399PELIGROS                                                                                            008708700000005945000040000414100004141000000000000000000001771000023670000002600000011000028480130000000000000000N
041991051011815499PEZA (LA)                                                                                           008908900000001679000010000129400001294000000000000000000000486000007160000000200000005000008690090000000000000000N
041991051011815799PINOS GENIL                                                                                         008708700000001018000010000074800000748000000000000000000000372000005130000000300000002000006160090000000000000000N
041991051011815899PINOS PUENTE                                                                                        008708700000014320000100001052900010529000000000000000000004050000056670000007300000088000069690170000000000000000N
041991051011815999PIÑAR                                                                                               008708700000001539000020000122200001222000000000000000000000409000006710000000100000004000009220090000000000000000N
041991051011816199POLICAR                                                                                             008908900000000274000010000022600000226000000000000000000000105000001660000000000000000000001910070000000000000000N
041991051011816299POLOPOS                                                                                             014714700000001322000030000106400001064000000000000000000000351000005470000000300000003000007390090000000000000000N
041991051011816399PORTUGOS                                                                                            014714700000000478000010000038500000385000000000000000000000144000002510000000000000002000003260070000000000000000N
041991051011816499PUEBLA DE DON FADRIQUE                                                                              002302300000002950000030000223900002239000000000000000000000749000013180000001500000008000016820110000000000000000N
041991051011816599PULIANAS                                                                                            008708700000002419000020000173300001733000000000000000000000876000011160000000400000008000012890110000000000000000N
041991051011816799PURULLENA                                                                                           008908900000002792000030000196700001967000000000000000000000593000009930000000400000001000014580110000000000000000N
041991051011816899QUENTAR                                                                                             008708700000001283000010000094000000940000000000000000000000357000005430000000400000006000007070090000000000000000N
041991051011817099RUBITE                                                                                              014714700000000498000010000041400000414000000000000000000000138000001940000000200000002000002340070000000000000000N
041991051011817199SALAR                                                                                               012212200000002864000030000219200002192000000000000000000000870000012870000000600000006000018490110000000000000000N
041991051011817399SALOBREÑA                                                                                           014014000000009479000060000681500006815000000000000000000002385000037110000002200000004000047240130000000000000000N
041991051011817499SANTA CRUZ DEL COMERCIO                                                                             012212200000000612000010000047700000477000000000000000000000235000003380000000300000003000004000070000000000000000N
041991051011817599SANTA FE                                                                                            008708700000012089000090000883600008836000000000000000000002868000045050000004500000026000057080170000000000000000N
041991051011817699SOPORTUJAR                                                                                          014714700000000271000010000024200000242000000000000000000000085000001390000000100000000000001890070000000000000000N
041991051011817799SORVILAN                                                                                            014714700000000960000020000072000000720000000000000000000000237000003700000000200000002000004880070000000000000000N
041991051011817899TORRE CARDELA                                                                                       008708700000001431000010000117500001175000000000000000000000378000007130000000700000004000008590090000000000000000N
041991051011817999TORVIZCON                                                                                           014714700000001253000010000096600000966000000000000000000000002000005120000000300000006000006780090000000000000000N
041991051011818099TREVELEZ                                                                                            014714700000000853000010000066200000662000000000000000000000250000003510000000000000000000004850070000000000000000N
041991051011818199TURON                                                                                               014714700000000476000010000037600000376000000000000000000000153000002200000000200000000000003050070000000000000000N
041991051011818299UGIJAR                                                                                              014714700000003119000040000234800002348000000000000000000000812000013170000001200000016000016450110000000000000000N
041991051011818399VALOR                                                                                               014714700000001156000010000095900000959000000000000000000000297000005260000000500000001000006500090000000000000000N
041991051011818499VELEZ DE BENAUDALLA                                                                                 014014000000002584000020000200700002007000000000000000000000897000013450000000600000005000016120110000000000000000N
041991051011818599VENTAS DE HUELMA                                                                                    012212200000000757000010000057400000574000000000000000000000240000003700000000100000005000004390070000000000000000N
041991051011818799VILLANUEVA DE LAS TORRES                                                                            008908900000001097000010000076900000769000000000000000000000303000004540000000500000000000005440090000000000000000N
041991051011818899VILLANUEVA DE MESIA                                                                                 012212200000001898000010000140500001405000000000000000000000504000008640000000100000006000011250090000000000000000N
041991051011818999VIZNAR                                                                                              008708700000000688000010000055600000556000000000000000000000218000002940000000700000001000004380070000000000000000N
041991051011819299ZAFARRAYA                                                                                           012212200000002290000030000171800001718000000000000000000000535000010270000001900000034000012850110000000000000000N
041991051011819399ZUBIA (LA)                                                                                          008708700000008064000040000568000005680000000000000000000002090000029950000001900000011000038150130000000000000000N
041991051011819499ZUJAR                                                                                               002302300000003279000030000259100002591000000000000000000000998000013590000000700000010000017800110000000000000000N
041991051011890199TAHA (LA)                                                                                           014714700000000930000010000073300000733000000000000000000000252000003940000000000000001000005160070000000000000000N
041991051011890299VALLE (EL)                                                                                          014714700000001601000030000125600001256000000000000000000000553000007980000000400000000000009640090000000000000000N
041991051011890399NEVADA                                                                                              014714700000001580000030000126500001265000000000000000000000335000006450000000900000019000007700090000000000000000N
041991051011890499ALPUJARRA DE LA SIERRA                                                                              014714700000001414000020000122400001224000000000000000000000418000005810000000000000005000007590090000000000000000N
041991051011890599GABIAS (LAS)                                                                                        008708700000005837000040000429700004297000000000000000000001292000023650000003800000003000029100130000000000000000N
041991051011890699GUAJARES (LOS)                                                                                      014014000000001580000030000126200001262000000000000000000000560000007880000000100000005000010280090000000000000000N
041991051011890799VALLE DEL ZALABI                                                                                    008908900000002662000030000211100002111000000000000000000000806000012970000000100000006000017290110000000000000000N
041991051011890899VILLAMENA                                                                                           014714700000001148000020000092300000923000000000000000000000311000005270000001200000003000006680090000000000000000N
041991051011890999MORELABOR                                                                                           008708700000001115000010000086000000860000000000000000000000315000004880000000700000007000007810090000000000000000N
041991051011891099PINAR (EL)                                                                                          014714700000001447000020000108900001089000000000000000000000364000005440000000700000005000006960090000000000000000N
041991051011891199VEGAS DEL GENIL                                                                                     008708700000002692000040000207700002077000000000000000000000663000011060000000800000006000015250110000000000000000N
041991051011891299CUEVAS DEL CAMPO                                                                                    002302300000002588000030000159600001596000000000000000000000706000009510000000500000006000012520110000000000000000N
041991051011891399ZAGRA                                                                                               012212200000001424000020000109000001090000000000000000000000353000005330000000600000016000007460090000000000000000N
041991051012100199ALAJAR                                                                                              000700700000000904000010000066700000667000000000000000000000275000003550000000800000000000004500070000000000000000N
041991051012100299ALJARAQUE                                                                                           004104100000006050000050000415700004157000000000000000000001190000017180000003400000016000023830130000000000000000N
041991051012100399ALMENDRO (EL)                                                                                       001001000000000905000010000064800000648000000000000000000000250000003720000000200000001000004840070000000000000000N
041991051012100499ALMONASTER LA REAL                                                                                  000700700000002291000040000181600001816000000000000000000000513000007000000003400000005000009310110000000000000000N
041991051012100599ALMONTE                                                                                             005405400000016484000150001156000011560000000000000000000003198000047020000003700000021000067490170000000000000000N
041991051012100699ALOSNO                                                                                              007207200000004962000060000393000003930000000000000000000001753000023300000002300000024000028750110000000000000000N
041991051012100799ARACENA                                                                                             000700700000006600000060000494200004942000000000000000000001863000024980000001900000016000032760130000000000000000N
041991051012100899AROCHE                                                                                              000700700000003862000040000293700002937000000000000000000001098000014090000000200000006000019150110000000000000000N
041991051012100999ARROYOMOLINOS DE LEON                                                                               000700700000001300000020000101000001010000000000000000000000444000005910000000500000015000007000090000000000000000N
041991051012101099AYAMONTE                                                                                            001001000000017490000160001171500011715000000000000000000003520000052390000001500000016000069030170000000000000000N
041991051012101199BEAS                                                                                                004104100000004101000040000311900003119000000000000000000001295000018180000003100000008000023700110000000000000000N
041991051012101299BERROCAL                                                                                            007207200000000417000010000037000000370000000000000000000000169000002540000000200000004000003030070000000000000000N
041991051012101399BOLLULLOS DEL CONDADO                                                                               005405400000012683000110000962700009627000000000000000000004003000058230000002000000030000069390170000000000000000N
041991051012101499BONARES                                                                                             005005000000004940000030000367700003677000000000000000000001325000021430000003100000012000027140110000000000000000N
041991051012101599CABEZAS RUBIAS                                                                                      007207200000000967000010000074100000741000000000000000000000280000002800000001200000000000003180070000000000000000N
041991051012101699CALA                                                                                                000700700000001530000020000114600001146000000000000000000000499000007250000003000000001000008520090000000000000000N
041991051012101799CALAÑAS                                                                                             007207200000005301000050000424200004242000000000000000000001798000024130000001600000005000030320130000000000000000N
041991051012101899CAMPILLO (EL)                                                                                       007207200000002817000030000211200002112000000000000000000000770000010700000001000000007000013910110000000000000000N
041991051012101999CAMPOFRIO                                                                                           000700700000000897000010000073300000733000000000000000000000295000004150000000900000006000005380070000000000000000N
041991051012102099CAÑAVERAL DE LEON                                                                                   000700700000000604000010000047800000478000000000000000000000150000001920000001500000000000002150070000000000000000N
041991051012102199CARTAYA                                                                                             004104100000010504000090000748500007485000000000000000000002602000037980000001000000010000051660170000000000000000N
041991051012102399CERRO DE ANDEVALO (EL)                                                                              007207200000003093000030000243900002439000000000000000000000896000012040000000800000002000015750110000000000000000N
041991051012102499CORTECONCEPCION                                                                                     000700700000000732000010000055800000558000000000000000000000259000003200000000900000004000003710070000000000000000N
041991051012102599CORTEGANA                                                                                           000700700000005477000070000411500004115000000000000000000001406000018380000001300000007000023950130000000000000000N
041991051012102699CORTELAZOR                                                                                          000700700000000378000010000030100000301000000000000000000000151000002050000000100000002000002220070000000000000000N
041991051012102899CUMBRES DE SAN BARTOLOME                                                                            000700700000000711000010000060200000602000000000000000000000248000003160000002600000012000003480070000000000000000N
041991051012102999CUMBRES MAYORES                                                                                     000700700000002453000020000188400001884000000000000000000000740000010890000000900000009000013530110000000000000000N
041991051012103099CHUCENA                                                                                             005405400000001970000020000152000001520000000000000000000000779000011650000000900000006000014100090000000000000000N
041991051012103199ENCINASOLA                                                                                          000700700000002365000030000189600001896000000000000000000000680000009470000002600000014000012090110000000000000000N
041991051012103299ESCACENA DEL CAMPO                                                                                  005405400000002229000020000166600001666000000000000000000000718000010320000001000000011000013490110000000000000000N
041991051012103399FUENTEHERIDOS                                                                                       000700700000000665000010000048900000489000000000000000000000154000001980000000800000005000002530070000000000000000N
041991051012103499GALAROZA                                                                                            000700700000001660000020000130000001300000000000000000000000551000007170000001000000001000008800090000000000000000N
041991051012103599GIBRALEON                                                                                           004104100000009890000090000714400007144000000000000000000003197000044300000002200000010000058990130000000000000000N
041991051012103799GRANADO (EL)                                                                                        001001000000000732000010000053800000538000000000000000000000250000003650000000200000001000004430070000000000000000N
041991051012103899HIGUERA DE LA SIERRA                                                                                000700700000001404000010000109100001091000000000000000000000462000006160000000000000016000007410090000000000000000N
041991051012103999HINOJALES                                                                                           000700700000000491000010000028200000282000000000000000000000137000001790000000700000000000002140070000000000000000N
041991051012104099HINOJOS                                                                                             005405400000003539000040000259200002592000000000000000000001292000017710000003100000005000020870110000000000000000N
041991051012104199HUELVA                                                                                              004104100000141002001190010179500101795000000000000000000025022000327990000031000000169000449620270000000000000000N
041991051012104299ISLA CRISTINA                                                                                       001001000000018521000140001161900011619000000000000000000003266000050910000002300000034000070710170000000000000000N
041991051012104399JABUGO                                                                                              000700700000002643000030000195400001954000000000000000000000640000009730000001200000019000011630110000000000000000N
041991051012104499LEPE                                                                                                001001000000016524000120001128800011288000000000000000000003078000044660000002300000007000064430170000000000000000N
041991051012104599LINARES DE LA SIERRA                                                                                000700700000000282000010000022200000222000000000000000000000131000001680000000000000000000001970070000000000000000N
041991051012104699LUCENA DEL PUERTO                                                                                   005005000000002068000020000147700001477000000000000000000000792000010290000001000000007000011050110000000000000000N
041991051012104799MANZANILLA                                                                                          005405400000002525000020000195600001956000000000000000000000704000013440000001200000004000016730110000000000000000N
041991051012104899MARINES (LOS)                                                                                       000700700000000357000010000028700000287000000000000000000000119000001280000000500000000000001430070000000000000000N
041991051012104999MINAS DE RIOTINTO                                                                                   007207200000005934000070000446300004463000000000000000000001277000017360000007100000047000021050130000000000000000N
041991051012105099MOGUER                                                                                              005005000000011853000090000815400008154000000000000000000002349000035160000003200000003000049020170000000000000000N
041991051012105199NAVA (LA)                                                                                           000700700000000377000010000028000000280000000000000000000000099000001320000000400000007000001610070000000000000000N
041991051012105299NERVA                                                                                               007207200000007194000080000570700005707000000000000000000002311000028670000002800000029000033890130000000000000000N
041991051012105399NIEBLA                                                                                              005005000000004044000030000298900002989000000000000000000000757000011680000007900000094000013520110000000000000000N
