0819910510834165SAN ROMAN DE LA CUBA                                                                                0720720001610114114100000006408201700208005N
0919910510834179TABANERA DE VALDAVIA                                                                                1571570000740106506500000002303900700803401N
0819910510834180TAMARA DE CAMPOS                                                                                    0170170001040109609600000003805200600206705N
0919910510834202VILLABASTA                                                                                          1571570000500104104100000001602300400002601N
0919910510834046CARDEÑOSA DE VOLPEJERA                                                                              0720720000760106406400000002804500200006001N
0919910510834068DEHESA DE ROMANOS                                                                                   1571570000780106506500000001203500000005001N
0819910510834131POBLACION DE ARROYO                                                                                 0470470001150209509500000003106400300108305N
0819910510837019ALDEARRODRIGO                                                                                       2742740002440119619600000008711600400913805N
0819910510837033ARCEDIANO                                                                                           2742740001340111811800000003206500400009405N
0819910510837079CANILLAS DE ABAJO                                                                                   2742740001710113813800000006209800400011405N
0819910510834122PARAMO DE BOEDO                                                                                     1571570001350312112100000007709000000110605N
0819910510834015ARCONADA                                                                                            0470470001150110410400000004805600400107205N
0819910510824074FUENTES DE CARBAJAL                                                                                 0890890001800117817800000008913000100014305N
0819910510834039BUSTILLO DEL P.DE CARRION                                                                           0470470001180110810800000002506400100110605N
0819910510834084HERRERA DE VALDECAÑAS                                                                               0220220002230117617600000008110701300910105N
0819910510834081GUAZA DE CAMPOS                                                                                     0720720001150109409400000005606600200307605N
0819910510834103MAZUECOS DE VALDEGINATE                                                                             0720720001700114414400000007510700300012405N
0819910510834134POLENTINOS                                                                                          0560560001660111611600000002707000000207705N
0919910510834149REQUENA DE CAMPOS                                                                                   0470470000650105705700000002903801200002801N
0819910510834073FRESNO DEL RIO                                                                                      1571570002330119419400000008014800100417105N
0919910510837150GEJUELO DEL BARRO                                                                                   2742740000550104904900000002003100400103101N
0819910510837159HERGUIJUELA DEL CAMPO                                                                               2742740001690115215200000007711000100012305N
0819910510837180MANZANO (EL)                                                                                        2742740001250111011000000006908500000009505N
0819910510837182MARTINAMOR                                                                                          2742740001150109709700000004306100000107705N
0819910510837192MIRANDA DE AZAN                                                                                     2742740001240109509500000002105200800105905N
0819910510837217NAVALMORAL DE BEJAR                                                                                 0460460001000108808800000001804800400205605N
0819910510837229PALENCIA DE NEGRILLA                                                                                2742740002490122122100000007415401101514205N
0919910510837233PASTORES                                                                                            1071070000880107807800000003305100000305501N
0919910510837277SALVATIERRA DE TORMES                                                                               2742740000900108308300000004304800400605001N
0819910510837314TABERA DE ABAJO                                                                                     2742740001420111511500000004906500100208005N
0819910510837334VALDELAGEVE                                                                                         0460460001660113913900000007009300200010805N
0819910510837356VILLAR DE ARGAÑAN                                                                                   1071070001550114714700000004208800500210005N
0819910510837363VILLARES DE YELTES                                                                                  3763760001990117017000000010512000300013905N
0919910510834184TORREMORMOJON                                                                                       1201200000970107407400000003604300200105701N
0819910510834190VALDERRABANO                                                                                        1571570001260211511500000004507700100209505N
0819910510834204VILLACIDALER                                                                                        0720720001160110310300000004507100100109405N
0819910510834222VILLAMERIEL                                                                                         1571570002140518918900000008210400200112805N
0919910510834241VILLODRE                                                                                            0170170000550105305300000001903000300004301N
0819910510104009ALCUDIA DE MONTEAGUD                                                                                0130130002130119519500000009412200200314605N
0819910510104056LAROYA                                                                                              0530530001530111611600000004907200100408705N
0819910510104023BEIRES                                                                                              0130130001670114214200000006409800000010405N
0819910510104041ENIX                                                                                                0130130002440119919900000009513400200415205N
0819910510837379ZAMAYON                                                                                             2742740002140117717700000006511100300112905N
0919910510840006ALDEALCORVO                                                                                         1951950000420104104100000002502900000003501N
0919910510840009ALDEANUEVA DE SERREZUELA                                                                            1701700000560105305300000003403600100303901N
0819910510840054CEREZO DE ARRIBA                                                                                    1951950002110117817800000008711000000613005N
0819910510834107MICIECES DE OJEDA                                                                                   0560560001420213213200000004606500200207405N
0819910510837242PELAYOS                                                                                             2742740001010108908900000004205700201005105N
0819910510837255PIZARRAL                                                                                            2742740001140109709700000004507200100208105N
0819910510837241PELARRODRIGUEZ                                                                                      2742740002340118218200000007211802100711305N
0819910510837266REDONDA (LA)                                                                                        3763760001280111611600000006108400000009805N
0819910510840013ALDEASOÑA                                                                                           0630630001730115015000000005007500200008605N
0819910510840018AÑE                                                                                                 1941940001350112412400000005408700700508705N
0819910510840028BERCIAL                                                                                             1851850001800115115100000007711000000213005N
0919910510840029BERCIMUEL                                                                                           1951950000960108408400000006407000000107501N
0819910510840047CASTRO DE FUENTIDUEÑA                                                                               0630630001300110110100000004607100000508505N
0919910510840068DOMINGO GARCIA                                                                                      1851850000360103203200000001601700200302101N
0819910510840126MELQUE DE CERCOS                                                                                    1851850001740115115100000008810400900609605N
0819910510840159PINAREJOS                                                                                           0630630002490121721700000007712701301712905N
0819910510840165REBOLLO                                                                                             1951950001600114914900000007510800301310805N
0919910510840190SANTO DOMINGO DE PIRON                                                                              1941940000560104904900000001703100400003701N
0819910510840108LAGUNA DE CONTRERAS                                                                                 0630630002420221521500000006810500301212705N
0819910510840111LASTRAS DEL POZO                                                                                    1851850001070109709700000003806000300008005N
0819910510840122MARUGAN                                                                                             1851850002490122422400000012517300101118505N
0919910510840144NAVARES DE LAS CUEVAS                                                                               1951950000330102902900000001201300000001801N
0819910510840173RODA DE ERESMA                                                                                      1941940001060108808800000003405300300106805N
0819910510840202TORREADRADA                                                                                         0630630001870116916900000011113600100414205N
0919910510840212VALDEVACAS DE MONTEJO                                                                               1701700000460104404400000002703000300202801N
0919910510840220VALLERUELA DE PEDRAZA                                                                               1951950000690106306300000002604200300005101N
0819910510250245SIGUES                                                                                              0950950001910116716700000007110800300113705N
0819910510250246SISAMON                                                                                             0670670001230111411400000004507200000009005N
0819910510250259TORREHERMOSA                                                                                        0670670001390111711700000002803900700004205N
0819910510121022CASTAÑO DEL ROBLEDO                                                                                 0070070002070117617600000005211600300114705N
0919910510745080ILLAN DE VACAS                                                                                      1651650000110100800800000000200200000000801N
0819910510745184VENTAS DE SAN JULIAN (LAS                                                                           1651650002240114514500000007310100400012405N
0819910510250901BIEL-FUENCALDERAS                                                                                   0950950002460122422400000010512200100215105N
0819910510639051PESQUERA                                                                                            0000000001200110110100000004106800300607305N
0919910510250265TRASMOZ                                                                                             2512510000840107507500000002205300000305801N
0919910510250142LOBERA DE ONSELLA                                                                                   0950950000740107007000000004104400200005401N
0819910510745194VILLAREJO DE MONTALBAN                                                                              1651650001110109409400000006006900000207905N
0819910510805036BOHODON EL                                                                                          0160160002360120120100000010314100200416005N
0819910510805056CASTELLANOS DE ZAPARDIEL                                                                            0160160001920115915900000005608001100409205N
0819910510805058CEPEDA DE LA MORA                                                                                   1861860001920115615600000008310000400211505N
0819910510745164SOTILLO DE LAS PALOMAS                                                                              1651650002170120120100000014716500000018805N
0919910510805018AVELLANEDA                                                                                          1861860000700106006000000003103600200003901N
0919910510805039BRABOS                                                                                              0190190000880107907900000003305100000006801N
0819910510805123MEDIANA DE VOLTOYA                                                                                  0190190001200110110100000005606900900207205N
0919910510805034BLASCONUÑO DE MATACABRAS                                                                            0160160000330103203200000001802100200002401N
0819910510805040BULARROS                                                                                            0190190001590113813800000007410500400011305N
0819910510805119MANJABALAGO                                                                                         1861860001220110510500000004808000000008905N
0919910510805125MENGAMUÑOZ                                                                                          1861860000850107107100000003004900100005601N
0819910510805177PAJARES DE ADAJA                                                                                    0160160002410119719700000011313200600614905N
0819910510805210SAN JUAN DE LA ENCINILLA                                                                            0190190001780116216200000008510400200512605N
0819910510745060ERUSTES                                                                                             1731730002080117817800000010412900400713905N
0819910510805145NARRILLOS DEL REBOLLAR                                                                              0190190001090109809800000004305900300006605N
0819910510805151NAVACEPEDILLA DE CORNEJA                                                                            1861860001790115215200000008210800000112305N
0819910510805156NAVAHONDILLA                                                                                        0140140001700119519500000006608400000411805N
0819910510805170NAVATEJARES                                                                                         1861860001960117617600000009010100000011205N
0819910510805265VITA                                                                                                1861860001390111511500000004107100400208105N
0819910510809024ARENILLAS DE RIO PISUERGA                                                                           0590590002450121021000000007412600300013905N
0819910510809030AUSINES (LOS)                                                                                       0590590001330212212200000006207900800308505N
0819910510809054BOZOO                                                                                               2192190001040108108100000002405400000006405N
0819910510809117CUEVA DE ROA (LA)                                                                                   0180180001560114314300000005708900000413205N
0819910510809101CIADONCHA                                                                                           1941940001500113813800000003508101400008605N
0819910510809105CIRUELOS DE CERVERA                                                                                 1941940002130217417400000005711501600910604N
0819910510809110CONTRERAS                                                                                           3303300001000109909900000002705302100005305N
0919910510716081CHUMILLAS                                                                                           1341340000660105405400000003003700100004401N
0819910510716091FUERTESCUSA                                                                                         0780780001360112112100000005606500600309005N
0819910510716111HUERTA DEL MARQUESADO                                                                               0780780001830115315300000005710500000012605N
0919910510716115LAGUNA DEL MARQUESADO                                                                               0780780000850107607600000002505100400105501N
0819910510716128MONREAL DEL LLANO                                                                                   2032030001030109009000000005106300100007805N
0819910510716146PAJARON                                                                                             0780780001640114514500000006210600200211605N
0819910510716149PALOMERA                                                                                            0780780001390112612600000005009000200211205N
0819910510716156PERALEJA (LA)                                                                                       2032030002440121321300000010812600800313205N
0819910510716163PORTILLA                                                                                            0780780001220111211200000006708400000010305N
0919910510809143GALBARROS                                                                                           0560560000330103003000000000901600000102201N
0919910510809183JARAMILLO DE LA FUENTE                                                                              3303300000380103503500000001601900000002501N
0919910510809184JARAMILLO QUEMADO                                                                                   3303300000250102302300000000901500500101301N
0919910510809192JURISDIC.DE SAN ZADORNIL                                                                            9039030000910208508500000004304800000405801N
0819910510809201MAMOLAR                                                                                             3303300001110109109100000003105700500205805N
0819910510809221MODUBAR DE LA EMPAREDADA                                                                            0590590002070116916900000006009501201209005N
0819910510809226MONTERRUBIO DE LA DEMANDA                                                                           3303300001070110510500000001807200800206705N
0819910510837018ALDEANUEVA DE LA SIERRA                                                                             2742740001190110610600000004707300000009605N
0819910510837050BERROCAL DE HUEBRA                                                                                  2742740001590115115100000007810600000012705N
0819910510837089CASAFRANCA                                                                                          2742740001020109809800000006507700100009005N
0819910510834045CAPILLAS                                                                                            0720720001650113213200000001408104100506904N
0919910510834099MANQUILLOS                                                                                          1201200000990108008000000003004401000404701N
0819910510834125PEDRAZA DE CAMPOS                                                                                   1201200001850115315300000002507601901006804N
0819910510834146REINOSO DE CERRATO                                                                                  0220220001120109109100000003104800200106905N
0819910510834156RIBEROS DE LA CUEZA                                                                                 0470470001130110210200000003806500100108905N
0819910510834242VILLODRIGO                                                                                          0170170001570112812800000005909100100210905N
0919910510837004AHIGAL DE VILLARINO                                                                                 3763760000570105605600000002403900200204601N
0819910510837005ALAMEDA DE GARDON (LA)                                                                              1071070002450122722700000012414200100115805N
0819910510837024ALDEAVIEJA DE TORMES                                                                                2742740001670113113100000007910600100111305N
0819910510837034ARCO (EL)                                                                                           2742740001090108708700000002706100000008105N
0819910510809398URBEL DEL CASTILLO                                                                                  0590590001500110110100000003105800201005505N
0819910510809406VALDORROS                                                                                           1941940001130110010000000004407200100108905N
0819910510809431VILLAFRANCA MONTES DE OCA                                                                           0590590002360221221200000010213201600813205N
0919910510809446VILLAMEDIANILLA                                                                                     0590590000390103403400000001301500100001901N
0819910510716094GASCUEÑA                                                                                            0780780001980119319300000009511500200312605N
0919910510716152PARRA DE LAS VEGAS (LA)                                                                             0780780000790106906900000000803700400104901N
0919910510809386TORRECILLA DEL MONTE                                                                                1941940000960108208200000004405600900404301N
0919910510809407VALMALA                                                                                             0590590000400104004000000002303000500002601N
0919910510809433VILLAGALIJO                                                                                         0590590000830204304300000000000001000001401N
0819910510809449VILLANUEVA DE ARGAÑO                                                                                0590590001220110510500000004506702100305405N
0819910510824042CASTILFALE                                                                                          0890890001450112012000000007309100100110005N
0819910510824050CASTROTIERRA                                                                                        1391390001840116916900000009012900100114705N
0819910510834196VALLE DE CERRATO                                                                                    0220220001710114214200000008309801401109605N
0919910510834213VILLALACO                                                                                           0170170000940108008000000004006600300007201N
0819910510834216VILLALCON                                                                                           0720720001210109409400000003706100100207505N
0819910510837003AHIGAL DE LOS ACEITEROS                                                                             3763760002480122622600000014015000201815105N
0819910510837114CHAGARCIA MEDIANERO                                                                                 2742740001990115915900000006411401201310605N
0819910510837161HORCAJO DE MONTEMAYOR                                                                               0460460002310120220200000011415100100016905N
0919910510837165IRUELOS                                                                                             3763760000890108508500000004605600400905301N
0819910510837205MORILLE                                                                                             2742740002290119819800000010013000100115605N
0819910510837207MORISCOS                                                                                            2742740001510112212200000006708601300507205N
0819910510837218NAVAMORALES                                                                                         0460460002440122322300000009711600600611705N
0819910510837243PEÑA (LA)                                                                                           3763760002300116916900000008110600000412005N
0819910510837037ATALAYA (LA)                                                                                        1071070002350117017000000007411400100112405N
0819910510837051BERROCAL DE SALVATIERRA                                                                             2742740001870115715700000008110800600111605N
0819910510837059BUENAMADRE                                                                                          2742740002290119119100000006413100000416805N
0819910510837062CABEZABELLOSA DE LA CALZA                                                                           2742740001700113813800000007611000100211405N
0819910510837063CABEZA DE BEJAR(LA)                                                                                 0460460001560113113100000006607700000310205N
0819910510837086CARPIO DE AZABA                                                                                     1071070001260110410400000005606900100307905N
0819910510837090CASAS DEL CONDE (LAS)                                                                               0460460001510113913900000005007800000008505N
0819910510837120ENCINA DE SAN SILVESTRE                                                                             2742740001300111411400000004807400200009105N
0819910510837030AÑOVER DE TORMES                                                                                    2742740001330111111100000003606600300108505N
0919910510837045BASTIDA (LA)                                                                                        0460460000550104704700000003303800000004101N
0819910510837047BELEÑA                                                                                              2742740001310111511500000005107200100408105N
0919910510837104CILLEROS DE LA BASTIDA                                                                              0460460000650105705700000001902300200003501N
0819910510837116DOÑINOS DE LEDESMA                                                                                  2742740001150110510500000003505500400107205N
0819910510104012ALICUN                                                                                              0130130002470119219200000009914200500715905N
0819910510837157HERGUIJUELA DE CIUDAD ROD                                                                           1071070002090217517500000007810100000312905N
0919910510837163HOYA (LA)                                                                                           0460460000340102402400000000200600000001001N
0819910510837189MEMBRIBE                                                                                            2742740001270210910900000004306600000010305N
0919910510837336VALDEMIERQUE                                                                                        2742740000750106106100000003404000000005401N
0819910510837337VALDERRODRIGO                                                                                       3763760002310119519500000006611100200613505N
0819910510837338VALDUNCIEL                                                                                          2742740001440111111100000006607600100009605N
0819910510837372VILLAVERDE DE GUAREÑA                                                                               2742740002430121721700000008617400200519205N
0819910510840026BASARDILLA                                                                                          1941940001130108608600000004505800400406105N
0819910510840035CABAÑAS DE POLENDOS                                                                                 1941940001250110710700000004306100000008505N
0919910510840072ENCINILLAS                                                                                          1941940000780106706700000002404500000006101N
0819910510840091FUENTESOTO                                                                                          0630630002120120620600000008912600200115005N
0819910510840092FUENTIDUEÑA                                                                                         0630630002480120520500000008915100100117405N
0819910510840099HONRUBIA DE LA CUESTA                                                                               1701700001070109109100000005806700100407105N
0919910510840104ITUERO Y LAMA                                                                                       1851850000610104904900000002503200000002301N
0819910510840107LABAJOS                                                                                             1851850001790114714700000006210500200112005N
0819910510840109LANGUILLA                                                                                           1701700001780115815800000010912400200013905N
0819910510840127MEMBIBRE DE LA HOZ                                                                                  0630630001040108908900000003404900000705405N
0819910510840128MIGUELAÑEZ                                                                                          1851850002130119619600000010513502300412805N
0819910510840130MONTEJO LA VEGA LA SERR                                                                             1701700002250120620600000009613200301113405N
0919910510840142NAVARES DE AYUSO                                                                                    1951950000880107207200000004205200100105801N
0819910510837332VALDEHIJADEROS                                                                                      0460460001570114414400000005407900100609305N
0919910510837343VALLEJERA DE RIOFRIO                                                                                0460460000640105105100000001903200000104101N
0819910510837353VILLALBA DE LOS LLANOS                                                                              2742740002400119119100000006711800100514405N
0919910510837368VILLASDARDO                                                                                         2742740000380103003000000001702100200002301N
0819910510837378ZAMARRA                                                                                             1071070002180218318300000006209100101109005N
0819910510250184MURERO                                                                                              0940940001770116616600000005910100300012405N
0919910510250186NAVARDUN                                                                                            0950950000930108908900000004305400200107101N
0819910510250187NIGUELLA                                                                                            0670670001420112512500000003503800400207205N
0919910510250198OSEJA                                                                                               0670670000200101801800000001001400000001401N
0919910510250214POMER                                                                                               0670670000250102502500000000400700000001101N
0819910510250218PUEBLA DE ALBORTON (LA)                                                                             2972970001800115915900000005809400000011005N
0919910510250224RETASCON                                                                                            0940940000850107807800000004305600000006201N
0919910510250250TALAMANTES                                                                                          2512510000570105405400000003203400100003801N
0819910510250279VELILLA DE JILOCA                                                                                   0670670001610115515500000007211500200711605N
0819910510250281VIERLAS                                                                                             2512510001150110610600000003905300000107105N
0919910510250295VISTABELLA                                                                                          0940940000380103503500000002102500100002801N
0919910510250258TORRALBILLA                                                                                         0940940000850107807800000005306100000106901N
0919910510121027CUMBRES DE ENMEDIO                                                                                  0070070000580105005000000002603300000004101N
0819910510121059PUERTO MORAL                                                                                        0070070002450120520500000004609200900010105N
0919910510716213TORRUBIA DEL CASTILLO                                                                               1901900000600105605600000002503000000703701N
0919910510716231VALHERMOSO DE LA FUENTE                                                                             1341340000780107107100000004005400100006701N
0919910510716234VALSALOBRE                                                                                          0780780000770106606600000003303800100105001N
0919910510716071CASTILLO DE ALBARAÑEZ                                                                               0780780000380102702700000000801000000001801N
0819910510716095GRAJA DE CAMPALBO                                                                                   0780780001530113113100000004109900000011505N
0919910510716108HUELVES                                                                                             2032030000860107707700000003905200000006501N
0819910510716131MONTEAGUDO DE LAS SALINAS                                                                           1341340001340111611600000006107900100209205N
0819910510716165POYATOS                                                                                             0780780001340112512500000004008500000010405N
0819910510716227VALDEMORO DE LA SIERRA                                                                              0780780002040117617600000009712100000313405N
0919910510716259VILLAR DEL INFANTADO                                                                                0780780000740106106100000002304200000005201N
0819910510719001ABANADES                                                                                            1301300001300110610600000006908500800009105N
0919910510719008ALBENDIEGO                                                                                          2572570000690106306300000003404200300005101N
0819910510837042BARCEO                                                                                              3763760001110110510500000002804100400005205N
0819910510837100CEREZAL DE PEÑAHORCADA                                                                              3763760001940116616600000010011700000613205N
0819910510837133FRESNEDOSO                                                                                          0460460001920116316300000006910400000112605N
0819910510837155GUIJO DE AVILA                                                                                      0460460001220110810800000005607700100107905N
0819910510837197MONLEON                                                                                             2742740001640113713700000004606700100707405N
0819910510837222NEGRILLA DE PALENCIA                                                                                2742740001380112012000000005608600100010405N
0819910510837251PEROMINGO                                                                                           0460460001580113213200000003506000000306705N
0819910510837257POZOS DE HINOJO                                                                                     3763760001240110910900000004406800000008705N
0819910510837262PUERTAS                                                                                             3763760001490111511500000005106701300306205N
0819910510837273SAGRADA (LA)                                                                                        2742740002400121321300000009012200300615205N
0919910510837281SANCHON DE LA SAGRADA                                                                               2742740000690105805800000002003000400403701N
0819910510837292SAN PELAYO DE GUAREÑA                                                                               2742740001440111511500000003906100100209205N
0819910510837315TALA (LA)                                                                                           2742740002150117917900000010612301400412905N
0819910510834094LEDIGOS                                                                                             0470470001410112212200000003507500200409205N
0819910510834101MARCILLA DE CAMPOS                                                                                  0470470001190108808800000004405700700205805N
0819910510834133POBLACION DE CERRATO                                                                                0220220001600114314300000006310600100212305N
0819910510834154REVILLA DE COLLAZOS                                                                                 1571570001170110610600000005506800500507105N
0919910510834161SAN CRISTOBAL DE BOEDO                                                                              1571570000610105605600000001402801500202401N
0819910510834178TABANERA DE CERRATO                                                                                 0220220002230119119100000008811802402009904N
0919910510834186VALBUENA DE PISUERGA                                                                                0170170000910107707700000002003400200004801N
0819910510834210VILLAHAN                                                                                            0220220001850117317300000008811300300314405N
0819910510834220VILLAMARTIN DE CAMPOS                                                                               1201200001840116416400000009212900000213405N
0919910510834230VILLARMENTERO DE CAMPOS                                                                             0470470000250101901900000001301300100001601N
0819910510849170QUINTANILLA DE URZ                                                                                  0210210001650114314300000007510300200011005N
0819910510849079FUENTE ENCALADA                                                                                     0210210002180118618600000008413500000215705N
0819910510849114MATILLA LA SECA                                                                                     2192190001020109009000000002505400000107805N
0819910510849099LOSACIO                                                                                             2752750001840116916900000009412400100313305N
0819910510849180ROELOS                                                                                              2752750002040117517500000009212100100313905N
0819910510849120MOLEZUELAS DE CARBALLEDA                                                                            1661660002000118018000000007208800000012205N
0819910510849148PELEAS DE ABAJO                                                                                     2752750002300119419400000010814301000016305N
0919910510849244VILLAGERIZ                                                                                          0210210000850107407400000001103801100104101N
0819910510849233VEGALATRAVE                                                                                         2752750002040117617600000006410100200311905N
0819910510849263VILLARDEFALLAVES                                                                                    2502500001480111011000000004707300000009305N
0819910510849272VILLAVEZA DE VALVERDE                                                                               0210210001850116016000000006508700400112005N
0819910510849086GALLEGOS DEL PAN                                                                                    2192190002220118918900000007511800800913405N
0819910510847172TORRESCARCELA                                                                                       1861860002100214814800000007810703102305703N
0819910510847191VELLIZA                                                                                             1861860001950117917900000006810000300312705N
0819910510847200VILLACO                                                                                             1861860001790116216200000006410800100612205N
0819910510847224VILLARMENTERO DE ESGUEVA                                                                            1861860001380111511500000006508601000208605N
0819910510847190VELILLA                                                                                             1861860001620114614600000006509401300110303N
0919910510250273VALDEHORNA                                                                                          0940940000860107807800000003005500000006801N
0819910510250291VILLAR DE LOS NAVARROS                                                                              2972970002190120120100000009411100800112305N
0819910510837058BRINCONES                                                                                           3763760001500113613600000006608300100409705N
0819910510834082HERMEDES DE CERRATO                                                                                 0220220001830116116100000005810704901605803N
0819910510834086HONTORIA DE CERRATO                                                                                 0220220001330110210200000005506500600108105N
0819910510834088HUSILLOS                                                                                            1201200002200120220200000006714500300216805N
0919910510834096LOMAS                                                                                               0470470000780106906900000002704200800103401N
0819910510834110MUDA                                                                                                0560560002040116816800000008210800100413305N
0819910510834116OSORNILLO                                                                                           0470470001250111911900000004308500400109305N
0819910510118043CARATAUNAS                                                                                          1471470001820114614600000006010600100112105N
0819910510250012ALBORGE                                                                                             2972970001310110910900000006309201000908005N
0919910510250021ALMOCHUEL                                                                                           2972970000540105005000000002202300000002801N
0819910510250040BADULES                                                                                             0940940001260111611600000004807300300007705N
0819910510250054BORDALBA                                                                                            0670670001120112112100000003305900500407605N
0819910510250069CALCENA                                                                                             2972970001000109309300000006707900200008005N
0819910510250070CALMARZA                                                                                            0670670001460112012000000002504100400205505N
0819910510250082CIMBALLA                                                                                            0670670001490112612600000000000000100009405N
0819910510250133LAGATA                                                                                              2972970001580115115100000007711000300112005N
0819910510250135LAYANA                                                                                              0950950001950116616600000003908600000011205N
0919910510250138LECHON                                                                                              0940940000660105505500000001602800000004301N
0919910510250149LUESMA                                                                                              0940940000290102602600000001602100200002301N
0919910510250168MIANOS                                                                                              0950950000440104204200000001902600000003501N
0819910510250171MONEVA                                                                                              2972970001010109709700000006707400200407405N
0919910510250195ORCAJO                                                                                              0940940000550104804800000002002900500002801N
0819910510250196ORERA DE CALATAYUD                                                                                  0670670001700115815800000006711200100313505N
0819910510250237SANTA CRUZ DE MONCAYO                                                                               2512510001040109109100000005407500200108005N
0819910510250242SEDILES                                                                                             0670670001100109809800000005008300300308105N
0819910510244149MIRAMBEL                                                                                            0130130001630112612600000005407300200108505N
0919910510244250VEGUILLAS DE LA SIERRA                                                                              2162160000320103003000000000101300000002001N
0819910510244258VILLAR DEL SALZ                                                                                     2162160001520113413400000005908700300309505N
0819910510250036ASIN                                                                                                0950950001180110510500000005106300000008205N
0819910510250050BIJUESCA                                                                                            0670670001420112512500000006807800000109905N
0819910510250063BUSTE (EL)                                                                                          2512510001530113413400000003408400000410805N
0819910510250084CLARES DE RIBOTA                                                                                    0670670001300110910900000003807700000109505N
0819910510244267VIVEL DEL RIOMARTIN                                                                                 0500500001590114014000000003805700600505503N
0819910510250009ALARBA                                                                                              0670670001770115115100000003806100300006805N
0819910510250035ARTIEDA                                                                                             0950950001100109009000000003305200200106005N
0819910510250058BUBIERCA                                                                                            0670670001340111811800000006808000400508805N
0819910510250071CAMPILLO DE ARAGON                                                                                  0670670002450121921900000007512700200114105N
0819910510250076CASTEJON DE LAS ARMAS                                                                               0670670001850114914900000010011300000113705N
0819910510719272TORDESILOS                                                                                          1901900001780116216200000006609600400909305N
0919910510719283TORREMOCHA DEL PINAR                                                                                1901900000970109509500000003505200300505801N
0919910510719294UJADOS                                                                                              2572570000530104204200000000601900100003101N
0819910510118112JUVILES                                                                                             1471470001760114114100000005108100000408905N
0819910510333078YERNES Y TAMEZA                                                                                     0000000002250120820800000012614500000316105N
0819910510713029CAÑADA DE CALATRAVA                                                                                 0340340001110109609600000004506000100506705N
0819910510745008ALDEA EN CABO                                                                                       1731730002190119719700000012315300000017205N
0819910510745035CARDIEL DE LOS MONTES                                                                               1651650001480113113100000006509900000411205N
0819910510745093MARRUPE                                                                                             1651650001470110810800000007109500200210405N
0819910510745111NAVALMORALEJO                                                                                       1651650001400110010000000003805400400205805N
0919910510805030BERROCALEJO DE ARAGONA                                                                              0190190000370103203200000001902300000002701N
0819910510805064CONSTANZANA                                                                                         0160160002310118518500000006710300300612905N
0819910510805080GALLEGOS DE SOBRINOS                                                                                1861860001330112012000000004606400800007003N
0819910510805090GUTIERRE-MUÑOZ                                                                                      0160160001520112512500000004108700500009805N
0819910510805096HIJA DE DIOS LA                                                                                     0190190001730113913900000005708300100608705N
0819910510805139MUÑOGRANDE                                                                                          0190190001200110210200000005005200900106705N
0819910510805164NAVAQUESERA                                                                                         0190190001280107907900000001602800000005805N
0819910510805174ORBITA                                                                                              0160160001180110310300000004807700300608305N
0819910510805194RIOCABADO                                                                                           0190190002410121221200000010015000000416805N
0819910510805200SAN BARTOLOME DE CORNEJA                                                                            1861860001730115115100000006409200400508705N
0919910510805214SAN LORENZO DE TORMES                                                                               1861860000930108808800000003704900100204901N
0819910510805224SANTA MARIA DEL ARROYO                                                                              0190190001660113513500000005909300400009805N
0819910510805252VALDECASA                                                                                           0190190001560112612600000005307900000110305N
0819910510805253VEGA DE SANTA MARIA                                                                                 0190190001660114614600000004508800100810805N
0819910510809007AGUILAR DE BUREBA                                                                                   0560560001230111311300000005209200100010305N
0819910510809029ATAPUERCA                                                                                           0590590001780215715700000006608700501009305N
0819910510809050BERBERANA                                                                                           9039030001140109609600000004305400400205105N
0819910510809066CAMPOLARA                                                                                           3303300001070109409400000003705301800304105N
0919910510809078CASCAJARES DE LA SIERRA                                                                             3303300000340103103100000000801500000001701N
0919910510809090CASTRILLO MATAJUDIOS                                                                                0590590000860108208200000005206500200107001N
0819910510809112CORUÑA DEL CONDE                                                                                    0180180002030117817800000005209700900210605N
0819910510809017ANGUIX                                                                                              0180180001990117717700000011612400400112905N
0919910510809044BARRIOS DE COLINA                                                                                   0590590000770106106100000002803900100005001N
0919910510244131JOSA                                                                                                0500500000550105005000000001602200000202501N
0819910510244173OLMOS (LOS)                                                                                         0130130001950117517500000006711200000014105N
0819910510244175ORRIOS                                                                                              2162160002310120220200000000000003300305104N
0819910510244180PERACENSE                                                                                           2162160001020108808800000005107800100108205N
0919910510719249SAN ANDRES DEL REY                                                                                  1301300000490104404400000003003000000003301N
0919910510719310VALTABLADO DEL RIO                                                                                  1301300000190101701700000000800900000001701N
0919910510809052BERZOSA DE BUREBA                                                                                   0560560000590105505500000000000000300002401N
0919910510809068CANTABRANA                                                                                          0560560000750106806800000003003500400003701N
0819910510719262TAMAJON                                                                                             1301300002070115515500000006109900100112105N
0919910510809070CARAZO                                                                                              3303300000550105005000000002103400601102201N
0819910510809072CARCEDO DE BURGOS                                                                                   0590590001030209909900000004306000000208305N
0919910510809102CILLAPERLATA                                                                                        0560560000980108908900000003605900702404301N
0919910510809119CUEVAS DE SAN CLEMENTE                                                                              1941940000990109009000000004304501400403901N
0919910510809120ENCIO                                                                                               2192190000570104904900000001902400000003801N
0819910510809139FUENTEMOLINOS                                                                                       0180180001560114214200000007109700200111605N
0819910510834035BOADILLA DE RIOSECO                                                                                 0720720002300120020000000009014000200316905N
0819910510809197MADRIGALEJO DEL MONTE                                                                               1941940001680215015000000007109400600410405N
0819910510809198MAHAMUD                                                                                             1941940001970117017000000007509703300207205N
0819910510716003ALARCON                                                                                             1341340002330118818800000009513500200216005N
0919910510716030BASCUÑANA DE SAN PEDRO                                                                              0780780000360103203200000000701600400002001N
0819910510716009ALCANTUD                                                                                            0780780001690115115100000007109700200112205N
0919910510716011ALCOHUJATE                                                                                          0780780000810107307300000004005500000006301N
0819910510716029BARCHIN DEL HOYO                                                                                    1341340001860114314300000005507900300608205N
0819910510809199MAMBRILLA DE CASTREJON                                                                              0180180001870116016000000008810700000312405N
0919910510809200MAMBRILLAS DE LARA                                                                                  3303300000860108308300000000000000000202101N
0819910510809220MIRAVECHE                                                                                           2192190001540113513500000004506101600606205N
0919910510809236OLMILLOS DE MUÑO                                                                                    1941940000580105405400000001602300000003701N
0819910510809266PINEDA DE LA SIERRA                                                                                 0590590001200112012000000005608500100009905N
0819910510809281QUINTANA DEL PIDIO                                                                                  0180180002240120220200000008012900500415305N
0819910510809298QUINTANILLA SAN GARCIA                                                                              0560560001630115115100000005109701300309305N
0919910510809303RABANOS                                                                                             0590590000650106306300000000000000000001501N
0819910510809304RABE DE LAS CALZADAS                                                                                0590590001570113713700000007409700300410605N
0919910510809311RETUERTA                                                                                            1941940000820107807800000003504600200404601N
0819910510809316REVILLA VALLEJERA                                                                                   0590590001810216116100000006709701000210401N
0919910510809334SALINILLAS DE BUREBA                                                                                0560560000810106706700000003104300100103501N
0819910510809340SAN MILLAN DE LARA                                                                                  3303300001170110510500000000000000000006305N
0819910510809353SANTA MARIA RIVARREDONDA                                                                            2192190001770115415400000008210200200411705N
0919910510809374SUSINOS DEL PARAMO                                                                                  0590590000830107207200000003604702100702001N
0919910510834032BERZOSILLA                                                                                          0560560000960408608600000003205000300304601N
0919910510834033BOADA DE CAMPOS                                                                                     0720720000290102802800000000600800000002401N
0819910510834048CASTIL DE VELA                                                                                      0720720001370111711700000004207701700506405N
0819910510834063CORDOVILLA LA REAL                                                                                  0170170001780114214200000004808400300312205N
0819910510834093LAVID DE OJEDA                                                                                      0560560001850116416400000003710100200213005N
0819910510834106MENESES DE CAMPOS                                                                                   0720720002100117817800000007310400400113605N
0819910510834109MORATINOS                                                                                           1571570001250209809800000003605100200106405N
0819910510834140PUEBLA DE VALDAVIA (LA)                                                                             1571570002330120220200000005009500500911305N
0819910510834167SANTA CECILIA DEL ALCOR                                                                             1201200001970116016000000006210800100113805N
0819910510834175SERNA (LA)                                                                                          1571570001430113213200000005008700400010305N
0819910510834003ABIA DE LAS TORRES                                                                                  0470470002450121021000000011415200400616705N
0919910510834024BAQUERIN DE CAMPOS                                                                                  0720720000450104004000000001702200200203501N
0919910510834025BARCENA DE CAMPOS                                                                                   1571570000740107407400000004104800200205001N
0919910510834031BELMONTE DE CAMPOS                                                                                  0720720000750105005000000002404100100103401N
0819910510834061COLLAZOS DE BOEDO                                                                                   1571570001940216816800000006310700400613205N
0819910510834066CUBILLAS DE CERRATO                                                                                 0220220001320112212200000006207901001007805N
0819910510834124PAYO DE OJEDA                                                                                       0560560001110110210200000003205600100006905N
0819910510834163SAN MAMES DE CAMPOS                                                                                 0470470001580113713700000006510800800210905N
0919910510834168SANTA CRUZ DE BOEDO                                                                                 1571570000940207707700000003605600300007201N
0819910510834205VILLACONANCIO                                                                                       0220220001160110910900000003706500800607405N
0819910510834240VILLERIAS DE CAMPOS                                                                                 0720720001530112712700000004109400300111705N
0819910510834246VILLOVIECO                                                                                          0470470001590114814800000008010300300315005N
0819910510834100MANTINOS                                                                                            1571570002440120520500000011714500201016405N
0819910510834112NOGAL DE LAS HUERTAS                                                                                0470470001110209409400000005706600000107605N
0819910510104014ALMOCITA                                                                                            0130130002140117917900000006009200000214405N
0919910510834137POZO DE URAMA                                                                                       0720720000580105205200000002904000400304301N
0819910510834170SANTIBAÑEZ DE ECLA                                                                                  0560560001310312012000000003307100300308505N
0819910510834185TRIOLLO                                                                                             0560560001560311211200000002904700300605505N
0819910510834192VALDE-UCIEZA                                                                                        0470470001760115915900000008010700400112205N
0819910510834208VILLAELES DE VALDAVIA                                                                               1571570001200110610600000005007800000009005N
0819910510834224VILLAMUERA DE LA CUEZA                                                                              0470470001030109509500000004506600000507705N
0819910510834229VILLAPROVEDO                                                                                        1571570001210111911900000006207600500609505N
0819910510837021ALDEASECA DE ALBA                                                                                   2742740001900116116100000006110900000912405N
0819910510837115DIOS LE GUARDE                                                                                      1071070002000116616600000007410600100312205N
0919910510837126ESPADAÑA                                                                                            3763760000690106506500000003505300000006001N
0819910510837176MADROÑAL                                                                                            0460460001710115615600000009213000100014005N
0919910510837195MOLINILLO                                                                                           0460460000870108408400000005405700000007001N
0819910510837293SANTA MARIA DE SANDO                                                                                2742740002490120720700000009413600600216305N
0819910510837310SIETEIGLESIAS DE TORMES                                                                             2742740002150115515500000004808700700012905N
0819910510837060BUENAVISTA                                                                                          2742740001270109809800000003605800200207805N
0819910510837097CASTRAZ                                                                                             1071070001120110010000000004006400100007205N
0819910510837099CERECEDA DE LA SIERRA                                                                               0460460001370112412400000006508800200209205N
0819910510837137FUENTELIANTE                                                                                        3763760001670114114100000006609800000011705N
0819910510837142GALINDO Y PERAHUY                                                                                   2742740002080118118100000008813700600315205N
0819910510837191MILANO(EL)                                                                                          3763760002130119519500000012513100102113805N
0819910510837202MONTERRUBIO DE ARMUÑA                                                                               2742740001310110110100000006408600000009705N
0819910510837206MORIÑIGO                                                                                            2462460001880113913900000005610300000012305N
0819910510837223OLMEDO DE CAMACES                                                                                   3763760002090119519500000012014400300015505N
0819910510104033CASTRO DE FILABRES                                                                                  0130130001470113913900000005808500000110405N
0819910510104068OLULA DE CASTRO                                                                                     0130130002340120620600000007113700000315905N
0819910510104015ALSODUX                                                                                             0130130001260111311300000006008700100509105N
0819910510104026BENITAGLA                                                                                           0130130001170110110100000003404600000106805N
0819910510824203VILLABRAZ                                                                                           0890890002290121021000000004807300200008805N
0919910510250188NOMBREVILLA                                                                                         0940940000470103803800000001602200000002501N
0819910510250205PEDROSAS (LAS)                                                                                      0950950001010109309300000005707000000007905N
0919910510250212PLEITAS                                                                                             2972970000840107607600000005105600400205801N
0919910510250215POZUEL DE ARIZA                                                                                     0670670000360103703700000001101700000002901N
0919910510250220PUENDELUNA                                                                                          0950950000660105605600000002203501200003401N
0819910510250154MAINAR                                                                                              0940940001890116816800000008213000000414605N
0819910510250180MOZOTA                                                                                              0940940001370111811800000004606800200207405N
0819910510250233SAMPER DEL SALZ                                                                                     2972970001100109509500000005406900200106905N
0819910510250238SANTA EULALIA DE GALLEGO                                                                            0950950001330111811800000004807900000010405N
0919910510250239SANTED                                                                                              0940940000910107107100000002903300300004101N
0919910510250268UNDUES DE LERDA                                                                                     0950950000460104704700000001802300000002801N
0919910510250274VAL DE SAN MARTIN                                                                                   0940940000860106706700000003104300400005001N
0819910510250276VALPALMAS                                                                                           0950950002500121421400000010315300600019305N
0819910510250083CINCO OLIVAS                                                                                        0740740001620113513500000005607500600108305N
0819910510250173MONTERDE                                                                                            0670670002290119719700000005610200500811905N
0819910510250194OLVES                                                                                               0670670002110118218200000011013300300414005N
0819910510250213PLENAS                                                                                              2972970001730115415400000008310800400411105N
0819910510250282VILUEÑA (LA)                                                                                        0670670001410112312300000001704200000106605N
0819910510250283VILLADOZ                                                                                            0940940001100109709700000005006900000009205N
0819910510250256TORRALBA DE LOS FRAILES                                                                             0940940001320111711700000000000000100408105N
0919910510250260TORRELAPAJA                                                                                         0670670000730106706700000001802700100003601N
0919910510250270URRIES                                                                                              0950950000850107507500000003704600100205301N
0919910510250275VALMADRID                                                                                           2972970000810107507500000004505700100305801N
0819910510250277VALTORRES                                                                                           0670670001390113013000000006610300100112105N
0819910510250292VILLARREAL DE HUERVA                                                                                0940940001970116016000000005811200100113405N
0819910510121036GRANADA RIOTINTO (LA)                                                                               0070070002340118018000000008111400000214105N
0819910510716040BUENACHE DE LA SIERRA                                                                               0780780001150110110100000006207800000009005N
0819910510702036GOLOSALVO                                                                                           0030030001460112112100000004806900100110405N
0919910510250294VILLARROYA DEL CAMPO                                                                                0940940000820107307300000001803300300005601N
0819910510809189JUNTA DE TRASLALOMA                                                                                 9039030002420121521500000005309700900910705N
0819910510809173HUERTA DE ARRIBA                                                                                    3303300002380120620600000010114100300515505N
0819910510809160HONTANGAS                                                                                           0180180001920117217200000004106300400207005N
0819910510809169HORTIGUELA                                                                                          3303300001220110210200000003305400300106005N
0819910510809231NEBREDA                                                                                             1941940001540113313300000002606402300105305N
0819910510809243PADILLA DE ARRIBA                                                                                   0590590001540114114100000004406100200608205N
0819910510805112LOSAR EL                                                                                            1861860002230118918900000010611200400512205N
0819910510805142MUÑOSANCHO                                                                                          0160160002210118218200000007012900300115005N
0819910510745120NUÑO GOMEZ                                                                                          1731730001830116216200000008811200300113005N
0819910510745146RETAMOSO                                                                                            1651650002020117917900000013115300000216705N
0819910510805007ALDEANUEVA DE SANTA CRUZ                                                                            1861860002410119919900000011012500602710904N
0819910510805012AMAVIDA                                                                                             1861860002250119619600000010115900500317005N
0819910510805015AREVALILLO                                                                                          1861860002050118618600000010911400800210905N
0819910510805017AVEINTE                                                                                             0190190001720114214200000006809500100210505N
0819910510805053CASASOLA                                                                                            0190190002400121421400000010113200000814505N
0819910510805061COLILLA LA                                                                                          0190190002370120020000000007411900301712005N
0819910510805072ESPINOSA DE LOS CABALLERO                                                                           0160160001360110910900000003306500000109905N
0819910510805081GARGANTA DEL VILLAR                                                                                 1861860001140110010000000003705902000504505N
0819910510805084GILBUENA                                                                                            1861860002240119919900000009111900000014205N
0819910510805086GIMIALCON                                                                                           0160160001630113813800000005709700400111405N
0819910510805113LLANOS DE TORMES LOS                                                                                1861860001930117317300000009611200703208005N
0919910510805120MARLIN                                                                                              0190190000480103903900000001402500000002601N
0819910510805130MIRONCILLO                                                                                          0190190001490113313300000005609800700409704N
0819910510805143MUÑOTELLO                                                                                           1861860001730115715700000009112002502007504N
0819910510805180PARRAL EL                                                                                           1861860001920114714700000002407800200009405N
0819910510805205SANCHORREJA                                                                                         0190190001560114314300000006809900100111305N
0819910510805217SAN MIGUEL DE CORNEJA                                                                               1861860001390113213200000007909600600010704N
0819910510639070SAN MIGUEL DE AGUAYO                                                                                0000000001850315515500000007310300000113005N
0919910510719251SAUCA                                                                                               2572570000670105705700000003304600100105001N
0919910510719260SOTILLO (EL)                                                                                        1301300000600105705700000001002800100302901N
0919910510719270TOLDELRABANO                                                                                        2572570000210101901900000001001000000101201N
0919910510719278TORRECUADRADILLA                                                                                    1301300000850107807800000002504700100004401N
0919910510719298VALDEARENAS                                                                                         1301300000720106206200000003504600000003301N
0819910510719299VALDEAVELLANO                                                                                       1301300001010108908900000002505500000007805N
0819910510719335ZORITA DE LOS CANES                                                                                 1301300001090107307300000003105700100006705N
0819910510824096MARAÑA                                                                                              0560560002380121121100000008510500200412205N
0819910510824129REYERO                                                                                              0560560002400120120100000005913500300114505N
0819910510824191VALLECILLO                                                                                          1391390002470221621600000010815000100817005N
0819910510824178VALDEMORA                                                                                           0890890001620114214200000006908200200110705N
0819910510834019AUTILLO DE CAMPOS                                                                                   0720720002200118518500000009215000400415805N
0819910510834028BASCONES DE OJEDA                                                                                   1571570002500120320300000007212600200514805N
0819910510834034BOADILLA DEL CAMINO                                                                                 0170170002500120520500000011014400000417405N
0819910510834041CALAHORRA DE BOEDO                                                                                  1571570001710114814800000007311000000514305N
0819910510834051CASTRILLO DE ONIELO                                                                                 0220220002200118418400000007709800900110605N
0819910511010161RUANES                                                                                              1951950001050109109100000005505900000307405N
0919910511626004AJAMIL                                                                                              0000000000740108808800000001603400300103801N
0819910511626040CAÑAS                                                                                               0000000001240111311300000005507300900107504N
0919910511626044CASTROVIEJO                                                                                         0000000000490104604600000001401700200002201N
0919910511626045CELLORIGO                                                                                           0000000000220102202200000000901200000002001N
0819910511626050CIRUEÑA                                                                                             0000000001400113213200000005307701600407405N
0819910511626051CLAVIJO                                                                                             0000000001870115115100000004710700200313105N
0819910511626073HERRAMELLURI                                                                                        0000000002040118718700000008312000400713505N
0819910511626074HERVIAS                                                                                             0000000002500122622600000009615101401315005N
0819910511626098MUNILLA                                                                                             0000000001380114614600000007309300100212605N
0919910511626113PAZUENGOS                                                                                           0000000000440103903900000001502200000003001N
0819910511626118PRADILLO                                                                                            0000000001050109509500000003806200000108105N
0819910511626119PREJANO                                                                                             0000000002470123423400000013017200200419705N
0819910511626122RASILLO (EL)                                                                                        0000000001150110510500000005807300200009005N
0919910511712116TORRALBA DEL PINAR                                                                                  1401400000720106406400000004705600000006201N
0919910511626126ROBRES DEL CASTILLO                                                                                 0000000000290102702700000001401700000102101N
0819910511712092PUEBLA DE ARENOSO                                                                                   1401400002250120620600000010310702300508805N
0919910511712118TORRECHIVA                                                                                          0720720000620105305300000002503900200203701N
0819910511746043AYELO DE RUGAT                                                                                      1311310002130116016000000008211100000413505N
0819910511228063GARGANTILLA DE LOZOYA                                                                               0000000002140118718700000006309101900110305N
0819910511228101OLMEDA DE LAS FUENTES                                                                               0000000001360110310300000006807800000408905N
0819910511228122RIBATEJADA                                                                                          0000000002500123323300000008614000500117505N
0819910511228143SOMOSIERRA                                                                                          0000000001070110210200000003807100200407405N
0819910510809022ARAUZO DE TORRE                                                                                     3303300001290111811800000000000000500403305N
0919910510809047BELBIMBRE                                                                                           0590590000870107307300000003504700300005401N
0819910510809055BRAZACORTA                                                                                          0180180001020109009000000005306500100007905N
0919910510809083CASTIL DE PEONES                                                                                    0560560000580105405400000002904100300002901N
0819910510809088CASTRILLO DE RIO PISUERGA                                                                           0590590001150210910900000005707000200307205N
0919910510809133FRESNO DE RODILLA                                                                                   0590590000360103003000000001201500000102501N
0819910510805063COLLADO DEL MIRON                                                                                   1861860001320111411400000007308200100009305N
0819910510805067CHAMARTIN                                                                                           0190190001360112512500000006009000100210405N
0919910510805106HOYOS DE MIGUEL MUÑOZ                                                                               1861860000850106906900000002903300100004101N
0819910510805144NARRILLOS DEL ALAMO                                                                                 1861860001950118618600000008411800500712905N
0919910510805190POZANCO                                                                                             0190190000810106106100000002903600500403201N
0819910510805198SALVADIOS                                                                                           0160160001550112412400000006608200400209005N
0919910510805219SAN PASCUAL                                                                                         0160160000760107007000000000000000500503901N
0819910510805246TORTOLES                                                                                            1861860001820117117100000011112400000712605N
0819910510805232SERRADA LA                                                                                          0190190001560114014000000007411000800011505N
0819910510805243TOLBAÑOS                                                                                            0190190002020117817800000007109300000110905N
0819910510805249UMBRIAS                                                                                             1861860002240120020000000007011600400612605N
0919910510809001ABAJAS                                                                                              0560560000530104704700000000701100400201401N
0819910510809006AGUAS CANDIDAS                                                                                      0560560001230111111100000005206500100208505N
0919910510809010ALCOCERO DE MOLA                                                                                    0590590000660106406400000004305500200105801N
0819910510809011ALFOZ DE BRICIA                                                                                     9039030001620214314300000006007900200009605N
0819910510809033BAHABON DE ESGUEVA                                                                                  1941940001860117317300000008411200100112505N
0819910510809039BARBADILLO DEL PEZ                                                                                  3303300001360111811800000004506000100007605N
0819910510809057BUGEDO                                                                                              2192190001110110310300000000000000200005505N
0819910510809065CAMPILLO DE ARANDA                                                                                  0180180002100118918900000008112800000714605N
0919910510809075CARDEÑUELA-RIOPICO                                                                                  0590590000590106106100000002804000100304701N
0919910510809077CASCAJARES DE BUREBA                                                                                0560560000710106106100000002404400000103201N
0919910510809100CERRATON DE JUARROS                                                                                 0590590000730206206200000002805100200304701N
0819910510809104CILLERUELO DE ARRIBA                                                                                1941940001050109209200000002803900200503705N
0819910510809115CUBO DE BUREBA                                                                                      0560560001550113813800000005106701700805205N
0819910510809140FUENTENEBRO                                                                                         0180180002350120320300000009513200300314905N
0819910510809172HUERMECES                                                                                           0590590001710214814800000002108600400510205N
0819910510809180IGLESIAS                                                                                            0590590002240119719700000008514200201214105N
0819910510805126MESEGAR DE CORNEJA                                                                                  1861860001520113913900000008310600000112105N
0819910510805141MUÑOPEPE                                                                                            0190190001160109909900000002907604200104001N
0819910510805155NAVAESCURIAL                                                                                        1861860001330112312300000003605500300307305N
0819910510840120MARTIN MUÑOZ DE LA DEHESA                                                                           1851850001740114914900000005909002101107604N
0919910510840186SANTA MARTA DEL CERRO                                                                               1951950000610105905900000002504100000205001N
0919910510840229VILLAVERDE DE MONTEJO                                                                               1701700000990108808800000003705900300106401N
0819910510840904NAVAS DE RIOFRIO                                                                                    1941940002310117917900000008013000000814705N
0819910510842003ADRADAS                                                                                             0200200001300211311300000003305501100105505N
0819910510842006ALCONABA                                                                                            1731730001620413113100000006408600000210405N
0819910510834087HORNILLOS DE CERRATO                                                                                0220220002040117717700000007309800200413005N
0819910510834091LAGARTOS                                                                                            1571570002290320720700000009112700702016105N
0819910510809347SANTA GADEA DEL CID                                                                                 2192190002110118018000000006711000400210705N
0919910510809375TAMARON                                                                                             0590590000570105105100000001802400700901401N
0919910510809378TEJADA                                                                                              1941940000610105805800000002603100200003201N
0919910510809388TORRELARA                                                                                           3303300000210101901900000000701000100001401N
0919910510809424VILORIA DE RIOJA                                                                                    0590590000850107807800000000000001300602801N
0819910510809458VILLARIEZO                                                                                          0590590001420110610600000001702805200601604N
0919910510809476VILLORUEBO                                                                                          3303300000390103703700000000601600000002101N
0919910510847168TORRECILLA DE LA TORRE                                                                              1861860000480104404400000001102500400003701N
0819910510847177URONES DE CASTROPONCE                                                                               0860860002240118418400000007308800500910505N
0819910510847180VALDEARCOS                                                                                          1861860001710115815800000006409600800010205N
0819910510847189VELASCALVARO                                                                                        0850850002090115515500000006309700400311705N
0919910510847219VILLANUEVA DE LA CONDESA                                                                            0860860000580104204200000001001000100003301N
0819910510847221VILLANUEVA DE LOS INFANTE                                                                           1861860001640115015000000005410001200011505N
0819910510847222VILLANUEVA DE SAN MANCIO                                                                            0860860001060108508500000002406102000104605N
0819910510849012ARGAÑIN                                                                                             2752750001400112812800000006909000000210005N
0819910510849014ARQUILLINOS                                                                                         2752750002270119919900000009712300100814905N
0819910510849030BUSTILLO DEL ORO                                                                                    2192190002180118318300000007510802401508105N
0819910510849047CERECINOS DEL CARRIZAL                                                                              2752750002130118118100000008712400100415605N
0819910510849088GAMONES                                                                                             2752750001360111611600000007008200000109305N
0819910510842182TARODA                                                                                              0200200001110109709700000004004500000006105N
0819910510842200VELAMAZAN                                                                                           0200200001820116616600000003206600300208005N
0819910510842209VILLAR DEL RIO                                                                                      1731730002150119619600000008810001500509905N
0819910510842211VILLARES DE SORIA (LOS)                                                                             1731730001140309609600000003705300300307505N
0819910510847073HERRIN DE LOS CAMPOS                                                                                0860860002430121421400000008515300400217705N
0819910510847092MONTEALEGRE                                                                                         0860860001830115715700000008211200200213005N
0819910510847132RAMIRO                                                                                              0850850001210109509500000002405100400007305N
0919910510847149SAN PELAYO                                                                                          1861860000490104504500000001802200300003101N
0819910510847154SANTIBAÑEZ DE VALCORBA                                                                              1861860002170116816800000006109700001012805N
0819910510847162TAMARIZ DE CAMPOS                                                                                   0860860001070107507500000003404100000106305N
0819910510847185VALVERDE DE CAMPOS                                                                                  0860860001330111411400000005006700000009905N
0919910510847196VILLABARUZ DE CAMPOS                                                                                0860860000590105505500000001202900900402601N
0819910510842187TORRUBIA DE SORIA                                                                                   1731730001390110110100000002705000200206405N
0819910510842189UCERO                                                                                               0430430001090110310300000004306100000206705N
0819910510842191VALDEAVELLANO DE TERA                                                                               1731730002480121221200000008516400800216905N
0819910510842195VALDENEBRO                                                                                          0430430002090119019000000010414000000215905N
0819910510842204VIANA DE DUERO                                                                                      0200200001110409209200000003804900800105205N
0919910510842216VIZMANOS                                                                                            1731730000480104304300000001601800000002401N
0919910510847080MANZANILLO                                                                                          1861860000630105205200000002503500300003901N
0919910510847083MATILLA DE LOS CAÑOS                                                                                1861860000920108408400000002704700400205601N
0919910510842196VALDEPRADO                                                                                          1731730000250102602600000000901200600300701N
0919910510847001ADALIA                                                                                              1861860000940108008000000002204800100306901N
0819910510847021BOCIGAS                                                                                             0850850001270111111100000005108100000009905N
0819910510847026BUSTILLO DE CHAVES                                                                                  0860860001300209009000000000000000300806005N
0819910510847046CASTROPONCE                                                                                         0860860002420122022000000010315100300118605N
0819910510847056CORRALES DE DUERO                                                                                   1861860001770115815800000005009401000609205N
0919910510847064FONTIHOYUELO                                                                                        0860860000550105105100000001802700200003701N
0819910511746121ESTUBENY                                                                                            1451450001610112812800000006309200300011805N
0919910511746140GUARDAMAR                                                                                           1311310000630106106100000003904900000105301N
0819910511746152LUGAR NUEVO DE LA CORONA                                                                            2502500001220109909900000005807200200307905N
0819910511746253VALLES                                                                                              1451450001170109609600000003005300700006705N
0819910510842008ALCUBILLA DE LAS PEÑAS                                                                              0200200001170110710700000005606900200007805N
0919910510842012ALDEALSEÑOR                                                                                         1731730000590105905900000001802900600003901N
0819910510842023ALPANSEQUE                                                                                          0200200001580114314300000005506200300006505N
0919910510842036BLACOS                                                                                              0430430000880108408400000002605400200003001N
