021977061010400199ABLA                                                                                                001301300000001755000010000113300001133000000000000000000000000000000000000000000000004000009390000000000000000000N
021977061010400299ABRUCENA                                                                                            001301300000001828000010000113500001135000000000000000000000000000000000000000100000009000009200000000000000000000N
021977061010400399ADRA                                                                                                002902900000015602000180000919000009190000000000000000000000000000000000000001200000052000071640000000000000000000N
021977061010400499ALBANCHEZ                                                                                           005305300000001058000010000077700000777000000000000000000000000000000000000000300000003000005830000000000000000000N
021977061010400599ALBOLODUY                                                                                           001301300000001082000010000073900000739000000000000000000000000000000000000000000000001000006510000000000000000000N
021977061010400699ALBOX                                                                                               005305300000010407000090000691800006918000000000000000000000000000000000000000600000038000043560000000000000000000N
021977061010400799ALCOLEA                                                                                             001301300000001267000010000078900000789000000000000000000000000000000000000000000000004000005240000000000000000000N
021977061010400899ALCONTAR                                                                                            005305300000000935000020000062600000626000000000000000000000000000000000000000000000001000004420000000000000000000N
021977061010400999ALCUDIA MONTEAGUD                                                                                   001301300000000281000010000021400000214000000000000000000000000000000000000000000000001000001530000000000000000000N
021977061010401099ALHABIA                                                                                             001301300000001173000010000072300000723000000000000000000000000000000000000000200000000000005240000000000000000000N
021977061010401199ALHAMA ALMERIA                                                                                      001301300000002877000030000177900001779000000000000000000000000000000000000000000000005000015770000000000000000000N
021977061010401299ALICUN                                                                                              001301300000000248000010000016500000165000000000000000000000000000000000000000000000000000001520000000000000000000N
021977061010401399ALMERIA                                                                                             001301300000120072001180007365000073650000000000000000000000000000000000000013800000444000585110000000000000000000N
021977061010401499ALMOCITA                                                                                            001301300000000284000010000019300000193000000000000000000000000000000000000000000000000000001640000000000000000000N
021977061010401599ALSODUX                                                                                             001301300000000172000010000012100000121000000000000000000000000000000000000000000000000000001000000000000000000000N
021977061010401699ANTAS                                                                                               010010000000002426000030000151000001510000000000000000000000000000000000000000900000006000011620000000000000000000N
021977061010401799ARBOLEAS                                                                                            005305300000001695000010000123500001235000000000000000000000000000000000000000200000005000008760000000000000000000N
021977061010401899ARMUNA ALMANZORA                                                                                    005305300000000403000010000027800000278000000000000000000000000000000000000000000000001000002180000000000000000000N
021977061010401999BACARES                                                                                             005305300000000459000010000032100000321000000000000000000000000000000000000000000000000000002270000000000000000000N
021977061010402099BAYARCAL                                                                                            001301300000000582000010000034600000346000000000000000000000000000000000000000300000000000002640000000000000000000N
021977061010402199BAYARQUE                                                                                            005305300000000335000010000022800000228000000000000000000000000000000000000000000000002000001630000000000000000000N
021977061010402299BEDAR                                                                                               010010000000000717000010000047400000474000000000000000000000000000000000000000000000002000003430000000000000000000N
021977061010402399BEIRES                                                                                              001301300000000243000010000017900000179000000000000000000000000000000000000000000000001000001520000000000000000000N
021977061010402499BENAHADUX                                                                                           001301300000001666000020000106600001066000000000000000000000000000000000000000000000006000009320000000000000000000N
021977061010402599BENINAR                                                                                             000000000000000423000000000033000000330000000000000000000000000000000000000000000000000000002390000000000000000000N
021977061010402699BENITAGLA                                                                                           001301300000000126000010000010100000101000000000000000000000000000000000000000000000000000000830000000000000000000N
021977061010402799BENIZALON                                                                                           001301300000000506000010000036300000363000000000000000000000000000000000000000000000000000002630000000000000000000N
021977061010402899BENTARIQUE                                                                                          001301300000000381000010000027400000274000000000000000000000000000000000000000100000000000002300000000000000000000N
021977061010402999BERJA                                                                                               002902900000012006000120000722000007220000000000000000000000000000000000000001000000045000055880000000000000000000N
021977061010403099CANJAYAR                                                                                            001301300000002508000030000164600001646000000000000000000000000000000000000000200000006000013840000000000000000000N
021977061010403199CANTORIA                                                                                            005305300000003754000030000249200002492000000000000000000000000000000000000000200000007000019140000000000000000000N
021977061010403299CARBONERAS                                                                                          010010000000003183000050000183000001830000000000000000000000000000000000000000100000005000014160000000000000000000N
021977061010403399CASTRO DE FILABRES                                                                                  001301300000000255000010000017800000178000000000000000000000000000000000000000000000000000001290000000000000000000N
021977061010403499COBDAR                                                                                              001301300000000600000010000042400000424000000000000000000000000000000000000000000000000000002570000000000000000000N
021977061010403599CUEVAS DEL ALMANZORA                                                                                010010000000007777000070000502100005021000000000000000000000000000000000000000600000018000039590000000000000000000N
021977061010403699CHERCOS                                                                                             005305300000000532000010000031000000310000000000000000000000000000000000000000000000002000002590000000000000000000N
021977061010403799CHIRIVEL                                                                                            005305300000002340000020000162400001624000000000000000000000000000000000000000100000003000011950000000000000000000N
021977061010403899DALIAS                                                                                              002902900000025586000050001451600014516000000000000000000000000000000000000002200000076000106850000000000000000000N
021977061010403999DARRICAL                                                                                            002902900000000687000010000048100000481000000000000000000000000000000000000000600000002000002690000000000000000000N
021977061010404099DONA MARIA OCANA                                                                                    000000000000000649000000000040300000403000000000000000000000000000000000000000000000000000003180000000000000000000N
021977061010404199ENIX                                                                                                001301300000000509000010000029100000291000000000000000000000000000000000000000000000000000002200000000000000000000N
021977061010404299ESCULLAR                                                                                            000000000000000323000000000020800000208000000000000000000000000000000000000000000000000000001680000000000000000000N
021977061010404399FELIX                                                                                               001301300000003631000010000211500002115000000000000000000000000000000000000000000000014000017480000000000000000000N
021977061010404499FINES                                                                                               005305300000001538000010000086900000869000000000000000000000000000000000000000100000002000007170000000000000000000N
021977061010404599FINANA                                                                                              001301300000003263000030000199400001994000000000000000000000000000000000000000800000003000015420000000000000000000N
021977061010404699FONDON                                                                                              001301300000001424000020000086200000862000000000000000000000000000000000000000000000002000006350000000000000000000N
021977061010404799GADOR                                                                                               001301300000002717000020000169300001693000000000000000000000000000000000000000100000010000013910000000000000000000N
021977061010404899GALLARDOS(LOS)                                                                                      010010000000001519000020000103900001039000000000000000000000000000000000000000000000010000007450000000000000000000N
021977061010404999GARRUCHA                                                                                            010010000000003081000020000191600001916000000000000000000000000000000000000000600000004000015620000000000000000000N
021977061010405099GERGAL                                                                                              001301300000001591000010000104100001041000000000000000000000000000000000000000100000004000008140000000000000000000N
021977061010405199HUECIJA                                                                                             001301300000000598000010000038400000384000000000000000000000000000000000000000200000001000003330000000000000000000N
021977061010405299HUERCAL DE ALMERIA                                                                                  001301300000003150000030000180800001808000000000000000000000000000000000000000100000010000014970000000000000000000N
021977061010405399HUERCAL-OVERA                                                                                       005305300000012458000140000803000008030000000000000000000000000000000000000001500000043000063550000000000000000000N
021977061010405499ILLAR                                                                                               001301300000000606000010000040800000408000000000000000000000000000000000000000000000001000003450000000000000000000N
021977061010405599INSTINCION                                                                                          001301300000000774000010000052700000527000000000000000000000000000000000000000000000000000004610000000000000000000N
021977061010405699LAROYA                                                                                              005305300000000292000010000018500000185000000000000000000000000000000000000000000000000000001390000000000000000000N
021977061010405799LAUJAR DE ANDARAX                                                                                   001301300000002094000020000125600001256000000000000000000000000000000000000000500000003000010000000000000000000000N
021977061010405899LIJAR                                                                                               005305300000000625000010000038000000380000000000000000000000000000000000000000000000000000003260000000000000000000N
021977061010405999LUBRIN                                                                                              010010000000002923000030000209600002096000000000000000000000000000000000000000500000015000015830000000000000000000N
021977061010406099LUCAINENA DE LAS TORRES                                                                             001301300000000923000010000060800000608000000000000000000000000000000000000000000000001000005000000000000000000000N
021977061010406199LUCAR                                                                                               005305300000000878000010000061600000616000000000000000000000000000000000000000000000001000004120000000000000000000N
021977061010406299MACAEL                                                                                              005305300000005538000050000302200003022000000000000000000000000000000000000000400000010000021750000000000000000000N
021977061010406399MARIA                                                                                               005305300000002002000030000131600001316000000000000000000000000000000000000000600000005000010040000000000000000000N
021977061010406499MOJACAR                                                                                             010010000000001673000020000103000001030000000000000000000000000000000000000000300000005000007570000000000000000000N
021977061010406599NACIMIENTO                                                                                          001301300000000831000010000054900000549000000000000000000000000000000000000000300000000000004560000000000000000000N
021977061010406699NIJAR                                                                                               001301300000012390000160000721900007219000000000000000000000000000000000000001400000029000053350000000000000000000N
021977061010406799OHANES                                                                                              001301300000001212000010000076700000767000000000000000000000000000000000000000100000004000006260000000000000000000N
021977061010406899OLULA DE CASTRO                                                                                     001301300000000445000010000028900000289000000000000000000000000000000000000000100000001000002150000000000000000000N
021977061010406999OLULA DEL RIO                                                                                       005305300000004845000040000288300002883000000000000000000000000000000000000000200000004000013170000000000000000000N
021977061010407099ORIA                                                                                                005305300000003302000040000236000002360000000000000000000000000000000000000000100000004000016390000000000000000000N
021977061010407199PADULES                                                                                             001301300000000774000010000052900000529000000000000000000000000000000000000000000000002000004280000000000000000000N
021977061010407299PARTALOA                                                                                            005305300000000616000010000042000000420000000000000000000000000000000000000000000000001000003260000000000000000000N
021977061010407399PATERNA DEL RIO                                                                                     001301300000000821000010000052100000521000000000000000000000000000000000000000100000001000003450000000000000000000N
021977061010407499PECHINA                                                                                             001301300000002049000020000128100001281000000000000000000000000000000000000000000000001000010440000000000000000000N
021977061010407599PULPI                                                                                               010010000000003689000040000219700002197000000000000000000000000000000000000000200000028000018560000000000000000000N
021977061010407699PURCHENA                                                                                            005305300000002066000020000131700001317000000000000000000000000000000000000000000000002000009880000000000000000000N
021977061010407799RAGOL                                                                                               001301300000000568000010000041500000415000000000000000000000000000000000000000000000001000003830000000000000000000N
021977061010407899RIOJA                                                                                               001301300000001280000010000079800000798000000000000000000000000000000000000000300000004000006530000000000000000000N
021977061010407999ROQUETAS DE MAR                                                                                     001301300000015137000170000839600008396000000000000000000000000000000000000000500000094000068040000000000000000000N
021977061010408099SANTA CRUZ                                                                                          001301300000000289000010000020800000208000000000000000000000000000000000000000000000000000001740000000000000000000N
021977061010408199SANTA FE DE MONDUJAR                                                                                001301300000000578000010000040600000406000000000000000000000000000000000000000000000001000003290000000000000000000N
021977061010408299SENES                                                                                               001301300000000772000010000053700000537000000000000000000000000000000000000000000000000000002080000000000000000000N
021977061010408399SERON                                                                                               005305300000004523000040000294400002944000000000000000000000000000000000000001000000003000017920000000000000000000N
021977061010408499SIERRO                                                                                              005305300000000680000010000036700000367000000000000000000000000000000000000000000000000000003060000000000000000000N
021977061010408599SOMONTIN                                                                                            005305300000000699000010000046100000461000000000000000000000000000000000000000000000000000003380000000000000000000N
021977061010408699SORBAS                                                                                              001301300000004613000050000307100003071000000000000000000000000000000000000000300000004000017510000000000000000000N
021977061010408799SUFLI                                                                                               005305300000000357000010000023600000236000000000000000000000000000000000000000100000000000001470000000000000000000N
021977061010408899TABERNAS                                                                                            001301300000004098000050000266500002665000000000000000000000000000000000000000300000003000017680000000000000000000N
021977061010408999TABERNO                                                                                             005305300000001003000010000074500000745000000000000000000000000000000000000000000000003000005150000000000000000000N
021977061010409099TAHAL                                                                                               001301300000000893000010000057000000570000000000000000000000000000000000000000000000002000003470000000000000000000N
021977061010409199TERQUE                                                                                              001301300000000562000010000036000000360000000000000000000000000000000000000000000000000000002880000000000000000000N
021977061010409299TIJOLA                                                                                              005305300000004025000050000246400002464000000000000000000000000000000000000000300000013000017980000000000000000000N
021977061010409399TURRE                                                                                               010010000000002015000020000131300001313000000000000000000000000000000000000000100000000000009900000000000000000000N
021977061010409499TURRILLAS                                                                                           001301300000000408000010000029800000298000000000000000000000000000000000000000000000000000002550000000000000000000N
021977061010409599ULEILA DEL CAMPO                                                                                    001301300000001165000010000078700000787000000000000000000000000000000000000000200000002000005690000000000000000000N
021977061010409699URRACAL                                                                                             005305300000000466000010000033100000331000000000000000000000000000000000000000000000000000002630000000000000000000N
021977061010409799VELEFIQUE                                                                                           001301300000000532000010000036500000365000000000000000000000000000000000000000000000000000002620000000000000000000N
021977061010409899VELEZ BLANCO                                                                                        005305300000003873000040000275200002752000000000000000000000000000000000000000500000007000017310000000000000000000N
021977061010409999VELEZ RUBIO                                                                                         005305300000008349000090000547800005478000000000000000000000000000000000000000800000012000035500000000000000000000N
021977061010410099VERA                                                                                                010010000000005132000060000301200003012000000000000000000000000000000000000000400000016000024560000000000000000000N
021977061010410199VIATOR                                                                                              001301300000002258000020000137300001373000000000000000000000000000000000000000500000002000012030000000000000000000N
021977061010410299VICAR                                                                                               001301300000006032000080000315600003156000000000000000000000000000000000000000300000009000023930000000000000000000N
021977061010410399ZURGENA                                                                                             005305300000002080000020000139900001399000000000000000000000000000000000000000300000003000010680000000000000000000N
021977061011100199ALCALA DE LOS GAZULES                                                                               003103100000006455000060000392600003926000000000000000000000000000000000000001800000009000027970000000000000000000N
021977061011100299ALCALA DEL VALLE                                                                                    000600600000004908000040000272600002726000000000000000000000000000000000000000300000026000019140000000000000000000N
021977061011100399ALGAR                                                                                               000600600000002058000020000128100001281000000000000000000000000000000000000000000000008000008180000000000000000000N
021977061011100499ALGECIRAS                                                                                           000400400000088006000970005439800054398000000000000000000000000000000000000014200000680000362740000000000000000000N
021977061011100599ALGODONALES                                                                                         000600600000006550000080000415900004159000000000000000000000000000000000000000800000047000026280000000000000000000N
021977061011100699ARCOS DE LA FRONTERA                                                                                000600600000024867000270001419600014196000000000000000000000000000000000000004500000068000107300000000000000000000N
021977061011100799BARBATE DE FRANCO                                                                                   001501500000020092000190001157900011579000000000000000000000000000000000000003900000192000076350000000000000000000N
021977061011100899BARRIOS LOS                                                                                         000400400000009755000100000555900005559000000000000000000000000000000000000000400000026000046310000000000000000000N
021977061011100999BENAOCAZ                                                                                            000600600000000604000010000043500000435000000000000000000000000000000000000000100000001000002470000000000000000000N
021977061011101099BORNOS                                                                                              000600600000007357000080000420600004206000000000000000000000000000000000000001800000045000033680000000000000000000N
021977061011101199BOSQUE EL                                                                                           000600600000002041000020000118500001185000000000000000000000000000000000000000200000009000007580000000000000000000N
021977061011101299CADIZ                                                                                               001201200000142242001040009012800090128000000000000000000000000000000000000017100001833000674740000000000000000000N
021977061011101399CASTELLAR DE LA FRONTERA                                                                            003303300000002017000020000123600001236000000000000000000000000000000000000000000000017000010110000000000000000000N
021977061011101499CONIL DE LA FRONTERA                                                                                001501500000011926000170000709800007098000000000000000000000000000000000000001700000115000054270000000000000000000N
021977061011101599CHICLANA DE FRONTERA                                                                                001501500000031711000380001744000017440000000000000000000000000000000000000004200000199000140550000000000000000000N
021977061011101699CHIPIONA                                                                                            003203200000011196000130000592400005924000000000000000000000000000000000000001400000089000048610000000000000000000N
021977061011101799ESPERA                                                                                              000600600000004742000040000259100002591000000000000000000000000000000000000000200000010000018260000000000000000000N
021977061011101899GASTOR EL                                                                                           000600600000002468000030000154300001543000000000000000000000000000000000000001000000041000010190000000000000000000N
021977061011101999GRAZALEMA                                                                                           000600600000002169000040000154300001543000000000000000000000000000000000000001100000012000011230000000000000000000N
021977061011102099JEREZ DE LA FRONTERA                                                                                002002000000167720001750009972100099721000000000000000000000000000000000000020400001545000744840000000000000000000N
021977061011102199JIMENA DE FRONTERA                                                                                  003303300000008283000090000548700005487000000000000000000000000000000000000001500000059000042260000000000000000000N
021977061011102299LINEA DE LA CONCEPCION (L                                                                           003303300000054158000580003307200033072000000000000000000000000000000000000009800000238000255470000000000000000000N
021977061011102399MEDINA SIDONIA                                                                                      003103100000014618000110000808700008087000000000000000000000000000000000000001500000058000067800000000000000000000N
021977061011102499OLVERA                                                                                              000600600000010923000080000701100007011000000000000000000000000000000000000000300000023000042420000000000000000000N
021977061011102599PATERNA DE RIVERA                                                                                   003103100000003691000060000205600002056000000000000000000000000000000000000001500000028000016770000000000000000000N
021977061011102699PRADO DEL REY                                                                                       000600600000004569000040000287200002872000000000000000000000000000000000000001400000018000024200000000000000000000N
021977061011102799PUERTO DE SANTA MARIA (EL                                                                           002702700000051600000640002713800027138000000000000000000000000000000000000002600000469000202900000000000000000000N
021977061011102899PUERTO REAL                                                                                         002702700000021465000220001229900012299000000000000000000000000000000000000002300000196000104190000000000000000000N
021977061011102999PUERTO SERRANO                                                                                      000600600000005519000100000302100003021000000000000000000000000000000000000001700000029000023710000000000000000000N
021977061011103099ROTA                                                                                                002702700000025702000230001144300011443000000000000000000000000000000000000003700000211000081420000000000000000000N
021977061011103199SAN FERNANDO                                                                                        003103100000068051000920003772400037724000000000000000000000000000000000000012500000746000293120000000000000000000N
021977061011103299SANLUCAR DE BARRAMEDA                                                                               003203200000043867000630002482600024826000000000000000000000000000000000000007900000273000200150000000000000000000N
021977061011103399SAN ROQUE                                                                                           003303300000021198000230001192300011923000000000000000000000000000000000000003300000100000087680000000000000000000N
021977061011103499SETENIL                                                                                             000600600000003632000030000250500002505000000000000000000000000000000000000003000000024000015050000000000000000000N
021977061011103599TARIFA                                                                                              000400400000015006000170000852100008521000000000000000000000000000000000000004000000116000065310000000000000000000N
021977061011103699TORRE-ALHAQUIME                                                                                     000600600000001078000010000062800000628000000000000000000000000000000000000000100000001000004510000000000000000000N
021977061011103799TREBUJENA                                                                                           003203200000006113000090000357700003577000000000000000000000000000000000000000200000010000030420000000000000000000N
021977061011103899UBRIQUE                                                                                             000600600000014751000180000891700008917000000000000000000000000000000000000001400000062000078940000000000000000000N
021977061011103999VEJER DE LA FRONTERA                                                                                001501500000013301000130000834400008344000000000000000000000000000000000000001700000268000047980000000000000000000N
021977061011104099VILLALUENGA DEL ROSARIO                                                                             000600600000000645000010000044000000440000000000000000000000000000000000000000000000000000002320000000000000000000N
021977061011104199VILLAMARTIN                                                                                         000600600000012466000110000699500006995000000000000000000000000000000000000002900000077000048850000000000000000000N
021977061011104299ZAHARA                                                                                              000600600000002808000020000183000001830000000000000000000000000000000000000000300000015000008150000000000000000000N
021977061011400199ADAMUZ                                                                                              002102100000004271000040000294700002947000000000000000000000000000000000000000500000007000025470000000000000000000N
021977061011400299AGUILAR DE LA FRONTERA                                                                              000200200000014619000110000790400007904000000000000000000000000000000000000000700000021000068890000000000000000000N
021977061011400399ALCARACEJOS                                                                                         005405400000001993000010000136300001363000000000000000000000000000000000000000000000003000008480000000000000000000N
021977061011400499ALMEDINILLA                                                                                         005505500000003077000020000213000002130000000000000000000000000000000000000001700000015000014480000000000000000000N
021977061011400599ALMODOVAR DEL RIO                                                                                   005305300000006299000060000376900003769000000000000000000000000000000000000000400000030000030930000000000000000000N
021977061011400699ANORA                                                                                               005405400000002126000020000148000001480000000000000000000000000000000000000000000000002000010160000000000000000000N
021977061011400799BAENA                                                                                               000700700000020138000160001188400011884000000000000000000000000000000000000001200000078000083600000000000000000000N
021977061011400899BELALCAZAR                                                                                          005205200000004669000040000331600003316000000000000000000000000000000000000000200000008000025300000000000000000000N
021977061011400999BELMEZ                                                                                              005205200000004649000060000340000003400000000000000000000000000000000000000001000000034000026500000000000000000000N
021977061011401099BENAMEJI                                                                                            003803800000004422000040000268100002681000000000000000000000000000000000000000000000008000021430000000000000000000N
021977061011401199BLAZQUEZ LOS                                                                                        005205200000000842000010000062100000621000000000000000000000000000000000000000100000004000004900000000000000000000N
021977061011401299BUJALANCE                                                                                           002102100000009316000090000594300005943000000000000000000000000000000000000000000000027000048910000000000000000000N
021977061011401399CABRA                                                                                               001301300000020140000180001309300013093000000000000000000000000000000000000000000000138000096770000000000000000000N
021977061011401499CANETE DE LAS TORRES                                                                                002102100000003531000020000241200002412000000000000000000000000000000000000000900000017000020000000000000000000000N
021977061011401599CARCABUEY                                                                                           005505500000003149000040000215000002150000000000000000000000000000000000000000300000020000016850000000000000000000N
021977061011401699CARDENA                                                                                             002102100000002792000030000177900001779000000000000000000000000000000000000000100000017000012560000000000000000000N
021977061011401799CARLOTA LA                                                                                          005305300000007776000120000492000004920000000000000000000000000000000000000000200000017000040430000000000000000000N
021977061011401899CARPIO EL                                                                                           002102100000004928000060000323800003238000000000000000000000000000000000000000100000019000026640000000000000000000N
021977061011401999CASTRO DEL RIO                                                                                      002102100000010287000090000666600006666000000000000000000000000000000000000000200000044000045340000000000000000000N
021977061011402099CONQUISTA                                                                                           005405400000000686000010000048800000488000000000000000000000000000000000000000000000000000003540000000000000000000N
021977061011402199CORDOBA                                                                                             002102100000255250003070015705400157054000000000000000000000000000000000000021100001680001286330000000000000000000N
021977061011402299DONA MENCIA                                                                                         001301300000005271000040000325600003256000000000000000000000000000000000000000000000004000024980000000000000000000N
021977061011402399DOS TORRES                                                                                          005405400000002548000030000175800001758000000000000000000000000000000000000000100000004000014650000000000000000000N
021977061011402499ENCINAS REALES                                                                                      003803800000002288000020000140400001404000000000000000000000000000000000000000100000014000011210000000000000000000N
021977061011402599ESPEJO                                                                                              002102100000005589000040000330600003306000000000000000000000000000000000000000000000027000028290000000000000000000N
021977061011402699ESPIEL                                                                                              005205200000003308000030000234200002342000000000000000000000000000000000000000400000021000015720000000000000000000N
021977061011402799FERNAN-NUNEZ                                                                                        004204200000008629000090000544300005443000000000000000000000000000000000000000200000026000048090000000000000000000N
021977061011402899FUENTE LA LANCHA                                                                                    005205200000000439000010000041900000419000000000000000000000000000000000000000000000000000003130000000000000000000N
021977061011402999FUENTE-OVEJUNA                                                                                      005205200000007180000100000491600004916000000000000000000000000000000000000000700000037000039480000000000000000000N
021977061011403099FUENTE PALMERA                                                                                      005305300000008040000110000466800004668000000000000000000000000000000000000000200000034000038030000000000000000000N
021977061011403199FUENTE TOJAR                                                                                        005505500000001161000010000083500000835000000000000000000000000000000000000000200000000000006130000000000000000000N
021977061011403299GRANJUELA LA                                                                                        005205200000000655000010000048400000484000000000000000000000000000000000000000100000003000003250000000000000000000N
021977061011403399GUADALCAZAR                                                                                         005305300000002015000010000109300001093000000000000000000000000000000000000000000000013000006180000000000000000000N
021977061011403499GUIJO EL                                                                                            005405400000000717000010000046700000467000000000000000000000000000000000000000000000000000003150000000000000000000N
021977061011403599HINOJOSA DEL DUQUE                                                                                  005205200000008803000080000639600006396000000000000000000000000000000000000001500000050000049850000000000000000000N
021977061011403699HORNACHUELOS                                                                                        005305300000006012000040000322400003224000000000000000000000000000000000000000000000031000023610000000000000000000N
021977061011403799IZNAJAR                                                                                             003803800000007462000080000478700004787000000000000000000000000000000000000000900000054000031730000000000000000000N
021977061011403899LUCENA                                                                                              003803800000029373000290001752700017527000000000000000000000000000000000000000900000132000136290000000000000000000N
021977061011403999LUQUE                                                                                               000700700000005002000030000321000003210000000000000000000000000000000000000000300000009000020900000000000000000000N
021977061011404099MONTALBAN DE CORDOBA                                                                                004204200000004050000040000256500002565000000000000000000000000000000000000000000000021000022440000000000000000000N
021977061011404199MONTEMAYOR                                                                                          004204200000004023000040000244300002443000000000000000000000000000000000000000000000007000020280000000000000000000N
021977061011404299MONTILLA                                                                                            004204200000021768000210001316300013163000000000000000000000000000000000000000500000063000115360000000000000000000N
021977061011404399MONTORO                                                                                             002102100000011247000080000739000007390000000000000000000000000000000000000000000000036000054470000000000000000000N
021977061011404499MONTURQUE                                                                                           000200200000002210000020000129700001297000000000000000000000000000000000000001900000002000010300000000000000000000N
021977061011404599MORILES                                                                                             000200200000003661000030000209100002091000000000000000000000000000000000000000300000006000017440000000000000000000N
021977061011404699NUEVA CARTEYA                                                                                       001301300000005616000060000319700003197000000000000000000000000000000000000000300000013000027600000000000000000000N
021977061011404799OBEJO                                                                                               002102100000001900000020000099000000990000000000000000000000000000000000000000100000013000008440000000000000000000N
021977061011404899PALENCIANA                                                                                          003803800000002023000020000127600001276000000000000000000000000000000000000000000000000000008220000000000000000000N
021977061011404999PALMA DEL RIO                                                                                       005305300000017274000150001076200010762000000000000000000000000000000000000000500000049000085020000000000000000000N
021977061011405099PEDRO ABAD                                                                                          002102100000003023000040000198400001984000000000000000000000000000000000000000100000007000017020000000000000000000N
021977061011405199PEDROCHE                                                                                            005405400000002115000020000155000001550000000000000000000000000000000000000000400000001000011930000000000000000000N
021977061011405299PANARROYA-PUERBLONUEVO                                                                              005205200000013579000140000985000009850000000000000000000000000000000000000000800000088000077060000000000000000000N
021977061011405399POSADAS                                                                                             005305300000007183000060000443400004434000000000000000000000000000000000000000500000081000031590000000000000000000N
021977061011405499POZOBLANCO                                                                                          005405400000013529000130000891300008913000000000000000000000000000000000000000600000044000076810000000000000000000N
021977061011405599PRIEGO DE CORDOBA                                                                                   005505500000020560000240001346700013467000000000000000000000000000000000000000900000100000103190000000000000000000N
021977061011405699PUENTE GENIL                                                                                        000200200000025277000240001563700015637000000000000000000000000000000000000000700000153000124600000000000000000000N
021977061011405799RAMBLA LA                                                                                           004204200000007046000060000398900003989000000000000000000000000000000000000000200000014000033250000000000000000000N
021977061011405899RUTE                                                                                                003803800000009588000090000647900006479000000000000000000000000000000000000000300000036000053370000000000000000000N
021977061011405999SAN SEBASTIAN DE LOS BALL                                                                           004204200000000767000010000051800000518000000000000000000000000000000000000000000000004000004380000000000000000000N
021977061011406099SANTAELLA                                                                                           004204200000005290000050000314000003140000000000000000000000000000000000000000100000043000026180000000000000000000N
021977061011406199SANTA EUFEMIA                                                                                       005405400000001587000010000107000001070000000000000000000000000000000000000000100000004000007180000000000000000000N
021977061011406299TORRECAMPO                                                                                          005405400000001825000020000125200001252000000000000000000000000000000000000000500000003000010440000000000000000000N
021977061011406399VALENZUELA                                                                                          000700700000001760000020000120600001206000000000000000000000000000000000000000000000007000010590000000000000000000N
021977061011406499VALSEQUILLO                                                                                         005205200000000824000010000061900000619000000000000000000000000000000000000000200000001000004410000000000000000000N
021977061011406599VICTORIA LA                                                                                         004204200000001703000020000107300001073000000000000000000000000000000000000000300000003000009470000000000000000000N
021977061011406699VILLA DEL RIO                                                                                       002102100000006599000070000406400004064000000000000000000000000000000000000000300000016000034710000000000000000000N
021977061011406799VILLAFRANCA DE CORDOBA                                                                              002102100000003574000030000224600002246000000000000000000000000000000000000000000000015000019260000000000000000000N
021977061011406899VILLAHARTA                                                                                          005205200000000829000010000056400000564000000000000000000000000000000000000000000000000000004170000000000000000000N
021977061011406999VILLANUEVA DE CORDOBA                                                                               005405400000010842000120000767800007678000000000000000000000000000000000000000400000057000064440000000000000000000N
021977061011407099VILLANUEVA DEL DUQUE                                                                                005405400000002281000020000172300001723000000000000000000000000000000000000000000000007000013850000000000000000000N
021977061011407199VILLANUEVA DEL REY                                                                                  005205200000001976000020000141800001418000000000000000000000000000000000000000100000002000009400000000000000000000N
021977061011407299VILLARALTO                                                                                          005405400000002117000020000166600001666000000000000000000000000000000000000000000000003000012540000000000000000000N
021977061011407399VILLAVICIOSA DE CORDOBA                                                                             002102100000004548000040000292500002925000000000000000000000000000000000000000300000011000022600000000000000000000N
021977061011407499VISO EL                                                                                             005405400000003861000050000270600002706000000000000000000000000000000000000000000000000000019350000000000000000000N
021977061011407599ZUHEROS                                                                                             001301300000001498000010000090300000903000000000000000000000000000000000000000000000008000006290000000000000000000N
021977061011800199AGRON                                                                                               012212200000000541000010000035500000355000000000000000000000000000000000000000000000000000002770000000000000000000N
021977061011800299ALAMEDILLA                                                                                          008908900000001517000010000081600000816000000000000000000000000000000000000000000000010000004650000000000000000000N
021977061011800399ALBOLOTE                                                                                            008708700000006047000100000357700003577000000000000000000000000000000000000000400000003000030560000000000000000000N
021977061011800499ALBONDON                                                                                            014714700000001980000020000136500001365000000000000000000000000000000000000000100000001000009010000000000000000000N
021977061011800599ALBUNAN                                                                                             008908900000000642000010000040400000404000000000000000000000000000000000000000100000000000003220000000000000000000N
021977061011800699ALBUNOL                                                                                             014714700000005551000060000353800003538000000000000000000000000000000000000000200000005000025660000000000000000000N
021977061011800799ALBUNUELAS                                                                                          014714700000001664000020000104200001042000000000000000000000000000000000000000000000002000008270000000000000000000N
021977061011801099ALDEIRE                                                                                             008908900000001088000010000078200000782000000000000000000000000000000000000000000000000000005680000000000000000000N
021977061011801199ALFACAR                                                                                             008708700000003013000030000170000001700000000000000000000000000000000000000000000000009000014050000000000000000000N
021977061011801299ALGARINEJO                                                                                          012212200000006765000070000459900004599000000000000000000000000000000000000001600000009000022280000000000000000000N
021977061011801399ALHAMA DE GRANADA                                                                                   012212200000007093000050000454600004546000000000000000000000000000000000000000200000020000034250000000000000000000N
021977061011801499ALHENDIN                                                                                            008708700000003315000020000186200001862000000000000000000000000000000000000000100000072000014720000000000000000000N
021977061011801599ALICUN DE ORTEGA                                                                                    008908900000001132000010000063300000633000000000000000000000000000000000000000000000001000002990000000000000000000N
021977061011801699ALMEGIJAR                                                                                           014714700000000705000010000048200000482000000000000000000000000000000000000000000000005000003260000000000000000000N
021977061011801799ALMUNECAR                                                                                           014014000000015419000130000913100009131000000000000000000000000000000000000003800000063000073490000000000000000000N
021977061011801899ALQUIFE                                                                                             008908900000001883000010000101900001019000000000000000000000000000000000000000000000011000007970000000000000000000N
021977061011801999AMBROZ                                                                                              000000000000000552000000000036000000360000000000000000000000000000000000000000000000000000003030000000000000000000N
021977061011802099ARENAS DE REY                                                                                       012212200000002719000030000166000001660000000000000000000000000000000000000000200000097000009300000000000000000000N
021977061011802199ARMILLA                                                                                             008708700000008932000070000486800004868000000000000000000000000000000000000000300000020000038330000000000000000000N
021977061011802299ATARFE                                                                                              008708700000009771000070000580100005801000000000000000000000000000000000000000400000056000040950000000000000000000N
021977061011802399BAZA                                                                                                002302300000020113000140001244600012446000000000000000000000000000000000000001000000065000072050000000000000000000N
021977061011802499BEAS DE GRANADA                                                                                     008708700000000893000010000053100000531000000000000000000000000000000000000000000000005000004320000000000000000000N
021977061011802599BEAS DE GUADIX                                                                                      008908900000000592000010000035000000350000000000000000000000000000000000000000000000000000002110000000000000000000N
021977061011802699BELICENA                                                                                            000000000000000746000000000049800000498000000000000000000000000000000000000000000000000000004400000000000000000000N
021977061011802799BENALUA DE GUADIX                                                                                   008908900000003401000020000193200001932000000000000000000000000000000000000000400000014000007170000000000000000000N
021977061011802899BENALUA DE LAS VILLAS                                                                               008708700000001467000010000089900000899000000000000000000000000000000000000000300000000000007480000000000000000000N
021977061011802999BENAMAUREL                                                                                          002302300000003176000020000219300002193000000000000000000000000000000000000000200000001000014170000000000000000000N
021977061011803099BERCHULES                                                                                           014714700000001922000020000116100001161000000000000000000000000000000000000000000000015000005750000000000000000000N
021977061011803299BUBION                                                                                              014714700000000516000010000035500000355000000000000000000000000000000000000000000000002000001620000000000000000000N
021977061011803399BUSQUISTAR                                                                                          014714700000000701000010000039500000395000000000000000000000000000000000000000200000000000002640000000000000000000N
021977061011803499CACIN                                                                                               012212200000000816000020000062800000628000000000000000000000000000000000000000000000002000005260000000000000000000N
021977061011803599CADIAR                                                                                              014714700000002530000030000163800001638000000000000000000000000000000000000000000000010000012140000000000000000000N
021977061011803699CAJAR                                                                                               008708700000001351000020000080700000807000000000000000000000000000000000000000100000000000006720000000000000000000N
021977061011803799CALICASAS                                                                                           008708700000000531000010000031600000316000000000000000000000000000000000000000000000000000002870000000000000000000N
021977061011803899CAMPOTEJAR                                                                                          008708700000001468000010000087300000873000000000000000000000000000000000000000000000006000007410000000000000000000N
021977061011803999CANILES                                                                                             002302300000008265000070000513800005138000000000000000000000000000000000000000600000027000025360000000000000000000N
021977061011804099CANAR                                                                                               014714700000000605000010000041200000412000000000000000000000000000000000000000000000000000002150000000000000000000N
021977061011804299CAPILEIRA                                                                                           014714700000000797000010000050300000503000000000000000000000000000000000000000000000002000003520000000000000000000N
021977061011804399CARATAUNAS                                                                                          014714700000000220000010000014000000140000000000000000000000000000000000000000000000000000001180000000000000000000N
021977061011804499CASTARAS                                                                                            014714700000000589000010000038400000384000000000000000000000000000000000000000500000000000002820000000000000000000N
021977061011804599CASTILLEJAR                                                                                         002302300000002733000030000181400001814000000000000000000000000000000000000000300000019000012090000000000000000000N
021977061011804699CASTRIL                                                                                             002302300000004499000060000277700002777000000000000000000000000000000000000001200000010000018160000000000000000000N
021977061011804799CENES DE LA VEGA                                                                                    008708700000001135000010000064900000649000000000000000000000000000000000000000000000008000005490000000000000000000N
021977061011804899CIJUELA                                                                                             008708700000001066000010000068200000682000000000000000000000000000000000000000000000002000005750000000000000000000N
021977061011804999COGOLLOS DE GUADIX                                                                                  008908900000000961000010000061700000617000000000000000000000000000000000000000000000004000004420000000000000000000N
021977061011805099COGOLLOS VEGA                                                                                       008708700000002017000020000132400001324000000000000000000000000000000000000000400000015000010500000000000000000000N
021977061011805199COLOMERA                                                                                            008708700000002323000020000150400001504000000000000000000000000000000000000000500000006000012280000000000000000000N
021977061011805399CORTES DE BAZA                                                                                      002302300000003586000050000224300002243000000000000000000000000000000000000000500000009000015410000000000000000000N
021977061011805499CORTES Y GRAENA                                                                                     008908900000001131000010000066800000668000000000000000000000000000000000000000100000002000004900000000000000000000N
021977061011805699CULLAR BAZA                                                                                         002302300000006199000070000412400004124000000000000000000000000000000000000000400000028000031420000000000000000000N
021977061011805799CULLAR VEGA                                                                                         008708700000001276000010000081900000819000000000000000000000000000000000000000700000000000007260000000000000000000N
021977061011805999CHAUCHINA                                                                                           008708700000003635000030000235500002355000000000000000000000000000000000000000100000001000018310000000000000000000N
021977061011806199CHIMENEAS                                                                                           012212200000001899000020000134300001343000000000000000000000000000000000000000400000001000009420000000000000000000N
021977061011806299CHURRIANA DE LA VEGA                                                                                008708700000003515000040000211100002111000000000000000000000000000000000000000100000082000017500000000000000000000N
021977061011806399DARRO                                                                                               008708700000001646000010000094000000940000000000000000000000000000000000000000300000017000007290000000000000000000N
021977061011806499DEHESAS DE GUADIX                                                                                   008908900000001097000010000057400000574000000000000000000000000000000000000000200000000000003010000000000000000000N
021977061011806699DEIFONTES                                                                                           008708700000002170000020000135900001359000000000000000000000000000000000000000000000001000010970000000000000000000N
021977061011806799DIEZMA                                                                                              008708700000001191000010000069800000698000000000000000000000000000000000000000000000008000005470000000000000000000N
021977061011806899DILAR                                                                                               008708700000001282000010000086800000868000000000000000000000000000000000000000400000000000006880000000000000000000N
021977061011806999DOLAR                                                                                               008908900000000859000010000061800000618000000000000000000000000000000000000000000000000000004660000000000000000000N
021977061011807099DUDAR                                                                                               008708700000000265000010000017300000173000000000000000000000000000000000000000000000002000001360000000000000000000N
021977061011807199DURCAL                                                                                              014714700000004641000040000307900003079000000000000000000000000000000000000000900000022000023550000000000000000000N
021977061011807299ESCUZAR                                                                                             008708700000002286000010000084000000840000000000000000000000000000000000000000000000000000005100000000000000000000N
021977061011807499FERREIRA                                                                                            008908900000000629000010000044900000449000000000000000000000000000000000000000000000001000003490000000000000000000N
021977061011807699FONELAS                                                                                             008908900000002230000010000121100001211000000000000000000000000000000000000000100000005000006590000000000000000000N
021977061011807899FREILA                                                                                              002302300000001454000010000092500000925000000000000000000000000000000000000000000000009000006000000000000000000000N
021977061011807999FUENTE VAQUEROS                                                                                     008708700000003529000030000224500002245000000000000000000000000000000000000001000000010000019090000000000000000000N
021977061011808299GALERA                                                                                              002302300000003566000020000229300002293000000000000000000000000000000000000020300000015000013920000000000000000000N
021977061011808399GOBERNADOR                                                                                          008908900000000396000010000029800000298000000000000000000000000000000000000000000000000000002170000000000000000000N
021977061011808499GOJAR                                                                                               008708700000001554000020000094500000945000000000000000000000000000000000000000000000003000008510000000000000000000N
021977061011808599GOR                                                                                                 008908900000002061000010000129700001297000000000000000000000000000000000000000200000025000009050000000000000000000N
021977061011808699GORAFE                                                                                              008908900000000965000010000058900000589000000000000000000000000000000000000000000000001000003430000000000000000000N
021977061011808799GRANADA                                                                                             008708700000214091001770013607300136073000000000000000000000000000000000000021800000931001099160000000000000000000N
021977061011808899GUADAHORTUNA                                                                                        008708700000002336000020000143900001439000000000000000000000000000000000000000800000005000010850000000000000000000N
021977061011808999GUADIX                                                                                              008908900000019234000150001175800011758000000000000000000000000000000000000001400000064000090660000000000000000000N
021977061011809399GUALCHOS                                                                                            014014000000002826000030000169700001697000000000000000000000000000000000000000000000002000013180000000000000000000N
021977061011809499GUEJAR SIERRA                                                                                       008708700000003333000030000208800002088000000000000000000000000000000000000000000000012000012460000000000000000000N
021977061011809599GUEVEJAR                                                                                            008708700000000991000010000061400000614000000000000000000000000000000000000000000000001000005540000000000000000000N
021977061011809699HUELAGO                                                                                             008908900000000871000010000048500000485000000000000000000000000000000000000000000000002000003560000000000000000000N
021977061011809799HUENEJA                                                                                             008908900000002070000020000133800001338000000000000000000000000000000000000000200000020000009120000000000000000000N
021977061011809899HUESCAR                                                                                             002302300000010097000100000579200005792000000000000000000000000000000000000001200000015000042270000000000000000000N
021977061011809999HUETOR SANTILLAN                                                                                    008708700000001383000010000081800000818000000000000000000000000000000000000000200000009000006700000000000000000000N
021977061011810099HUETOR TAJAR                                                                                        012212200000006715000060000401200004012000000000000000000000000000000000000000200000288000030310000000000000000000N
021977061011810199HUETOR VEGA                                                                                         008708700000004088000040000239900002399000000000000000000000000000000000000000000000012000018560000000000000000000N
021977061011810299ILLORA                                                                                              012212200000009556000090000612500006125000000000000000000000000000000000000000300000024000049930000000000000000000N
021977061011810399ITRABO                                                                                              014014000000001368000010000091700000917000000000000000000000000000000000000000000000000000007340000000000000000000N
021977061011810599IZNALLOZ                                                                                            008708700000006881000060000418200004182000000000000000000000000000000000000000800000004000030610000000000000000000N
021977061011810799JAYENA                                                                                              012212200000002002000010000114600001146000000000000000000000000000000000000000000000009000006590000000000000000000N
021977061011810899JEREZ DEL MARQUESADO                                                                                008908900000001721000010000110700001107000000000000000000000000000000000000000200000008000008270000000000000000000N
021977061011810999JETE                                                                                                014014000000000746000010000048500000485000000000000000000000000000000000000000000000000000004010000000000000000000N
021977061011811199JUN                                                                                                 008708700000000858000010000054000000540000000000000000000000000000000000000000100000013000004110000000000000000000N
021977061011811299JUVILES                                                                                             014714700000000258000010000016600000166000000000000000000000000000000000000000100000000000001280000000000000000000N
021977061011811499LACALAHORRA                                                                                         008908900000001218000010000076600000766000000000000000000000000000000000000000000000001000005760000000000000000000N
021977061011811599LACHAR                                                                                              008708700000001775000020000108300001083000000000000000000000000000000000000000000000010000009100000000000000000000N
021977061011811699LANJARON                                                                                            014714700000004053000040000279300002793000000000000000000000000000000000000000000000028000022740000000000000000000N
021977061011811799LANTEIRA                                                                                            008908900000000882000010000059000000590000000000000000000000000000000000000000300000000000004530000000000000000000N
021977061011811999LECRIN                                                                                              014714700000002807000050000194600001946000000000000000000000000000000000000000100000006000016140000000000000000000N
021977061011812099LENTEGI                                                                                             014014000000000401000010000027400000274000000000000000000000000000000000000000000000002000002400000000000000000000N
021977061011812199LOBRAS                                                                                              014714700000000402000010000023900000239000000000000000000000000000000000000000000000000000002140000000000000000000N
021977061011812299LOJA                                                                                                012212200000022001000310001358700013587000000000000000000000000000000000000002100000109000101610000000000000000000N
021977061011812399LUGROS                                                                                              008908900000000669000010000040700000407000000000000000000000000000000000000000200000004000002880000000000000000000N
021977061011812499LUJAR                                                                                               014014000000000827000010000051400000514000000000000000000000000000000000000000100000000000003760000000000000000000N
021977061011812699LA MALA                                                                                             008708700000001468000010000088200000882000000000000000000000000000000000000000000000004000007150000000000000000000N
021977061011812799MARACENA                                                                                            008708700000009039000080000534300005343000000000000000000000000000000000000000300000045000045840000000000000000000N
021977061011812899MARCHAL                                                                                             008908900000000555000010000034900000349000000000000000000000000000000000000000000000004000002720000000000000000000N
021977061011813299MOCLIN                                                                                              008708700000005158000060000336300003363000000000000000000000000000000000000000400000014000024890000000000000000000N
021977061011813399MOLVIZAR                                                                                            014014000000002426000020000155100001551000000000000000000000000000000000000000000000027000013240000000000000000000N
021977061011813499MONACHIL                                                                                            008708700000003081000030000185200001852000000000000000000000000000000000000000000000018000015100000000000000000000N
021977061011813599MONTEFRIO                                                                                           012212200000010203000070000654400006544000000000000000000000000000000000000001700000049000042840000000000000000000N
021977061011813699MONTEJICAR                                                                                          008708700000003049000030000178000001780000000000000000000000000000000000000000400000003000014750000000000000000000N
021977061011813799MONTILLANA                                                                                          008708700000001583000010000095300000953000000000000000000000000000000000000000000000000000007350000000000000000000N
021977061011813899MORALEDA DE ZAFAYONA                                                                                012212200000002215000020000131500001315000000000000000000000000000000000000000200000005000010880000000000000000000N
021977061011814099MOTRIL                                                                                              014014000000035471000310002088300020883000000000000000000000000000000000000002300000086000175140000000000000000000N
021977061011814199MURTAS                                                                                              014714700000001765000010000113000001130000000000000000000000000000000000000000300000002000007800000000000000000000N
021977061011814399NIGUELAS                                                                                            014714700000001572000010000104600001046000000000000000000000000000000000000000000000013000007210000000000000000000N
021977061011814499NIVAR                                                                                               008708700000000379000010000024400000244000000000000000000000000000000000000000000000006000002130000000000000000000N
021977061011814599OGIJARES                                                                                            008708700000002290000020000115800001158000000000000000000000000000000000000000000000004000009880000000000000000000N
021977061011814699ORCE                                                                                                002302300000002423000020000160600001606000000000000000000000000000000000000000000000006000009630000000000000000000N
021977061011814799ORJIVA                                                                                              014714700000005368000040000343000003430000000000000000000000000000000000000000900000035000024730000000000000000000N
021977061011814899OTIVAR                                                                                              014014000000001188000010000074500000745000000000000000000000000000000000000000000000000000006300000000000000000000N
021977061011814999OTURA                                                                                               008708700000002240000020000133500001335000000000000000000000000000000000000001300000000000009110000000000000000000N
021977061011815099PADUL                                                                                               008708700000006109000040000374800003748000000000000000000000000000000000000000500000019000027710000000000000000000N
021977061011815199PAMPANEIRA                                                                                          014714700000000660000010000042400000424000000000000000000000000000000000000000000000000000001940000000000000000000N
021977061011815299PEDRO MARTINEZ                                                                                      008908900000002271000020000153300001533000000000000000000000000000000000000000200000017000009710000000000000000000N
021977061011815399PELIGROS                                                                                            008708700000003755000040000211500002115000000000000000000000000000000000000000000000012000018330000000000000000000N
021977061011815499PEZA (LA)                                                                                           008908900000001802000010000107500001075000000000000000000000000000000000000000100000009000007830000000000000000000N
021977061011815699PINOS DEL VALLE                                                                                     000000000000001086000000000067400000674000000000000000000000000000000000000000100000002000005690000000000000000000N
021977061011815799PINOS GENIL                                                                                         008708700000000863000010000053600000536000000000000000000000000000000000000000000000001000004690000000000000000000N
021977061011815899PINOS PUENTE                                                                                        008708700000012292000100000771300007713000000000000000000000000000000000000000500000056000063290000000000000000000N
021977061011815999PINAR                                                                                               008708700000001880000020000104300001043000000000000000000000000000000000000000000000003000007650000000000000000000N
021977061011816199POLICAR                                                                                             008908900000000300000010000019700000197000000000000000000000000000000000000000100000000000001260000000000000000000N
021977061011816299POLOPOS                                                                                             014714700000001562000030000095500000955000000000000000000000000000000000000000000000002000007670000000000000000000N
021977061011816399PORTUGOS                                                                                            014714700000000502000010000034100000341000000000000000000000000000000000000000000000001000002480000000000000000000N
021977061011816499PUEBLA DE DON FABRIQUE                                                                              002302300000004236000030000265400002654000000000000000000000000000000000000000400000019000018050000000000000000000N
021977061011816599PULIANAS                                                                                            008708700000001890000020000112800001128000000000000000000000000000000000000000200000039000009130000000000000000000N
021977061011816699PUTCHIL                                                                                             000000000000001217000000000080500000805000000000000000000000000000000000000000200000007000006810000000000000000000N
021977061011816799PURULLENA                                                                                           008908900000002410000030000133100001331000000000000000000000000000000000000000200000014000019960000000000000000000N
021977061011816899QUENTAR                                                                                             008708700000001313000010000084000000840000000000000000000000000000000000000000600000006000005580000000000000000000N
021977061011817099RUBITE                                                                                              014714700000000828000010000051200000512000000000000000000000000000000000000000000000005000003560000000000000000000N
021977061011817199SALAR                                                                                               012212200000002956000030000188700001887000000000000000000000000000000000000000100000075000015460000000000000000000N
021977061011817399SALOBRENA                                                                                           014014000000008077000060000473500004735000000000000000000000000000000000000000400000018000039540000000000000000000N
021977061011817499SANTA CRUZ DEL COMERCIO                                                                             012212200000000694000010000058100000581000000000000000000000000000000000000000000000000000003390000000000000000000N
021977061011817599SANTA FE                                                                                            008708700000010304000090000641000006410000000000000000000000000000000000000001200000035000049770000000000000000000N
021977061011817699SOPORTUJAR                                                                                          014714700000000346000010000024100000241000000000000000000000000000000000000000000000004000001660000000000000000000N
021977061011817799SORVILAN                                                                                            014714700000001108000020000079300000793000000000000000000000000000000000000000000000000000004520000000000000000000N
021977061011817899TORRE CARDELA                                                                                       008708700000001579000010000102000001020000000000000000000000000000000000000000000000000000007550000000000000000000N
021977061011817999TORVIZCON                                                                                           014714700000002023000010000134900001349000000000000000000000000000000000000000100000004000008560000000000000000000N
021977061011818099TREVELEZ                                                                                            014714700000001303000010000079000000790000000000000000000000000000000000000000000000003000004400000000000000000000N
021977061011818199TURON                                                                                               014714700000000902000010000057200000572000000000000000000000000000000000000000000000000000004040000000000000000000N
021977061011818299UGIJAR                                                                                              014714700000003211000040000207900002079000000000000000000000000000000000000000500000011000015640000000000000000000N
021977061011818399VALOR                                                                                               014714700000002034000010000123500001235000000000000000000000000000000000000000000000003000007200000000000000000000N
021977061011818499VELEZ BENAUDALLA                                                                                    014014000000002826000020000172100001721000000000000000000000000000000000000001600000006000013500000000000000000000N
021977061011818599VENTAS DE HUELMA                                                                                    012212200000000783000010000055600000556000000000000000000000000000000000000000200000005000004140000000000000000000N
021977061011818799VILLANUE A DE LAS TORRES                                                                            008908900000001106000010000058600000586000000000000000000000000000000000000000000000001000004340000000000000000000N
021977061011818899VILLANUEVA MESIA                                                                                    012212200000001768000010000105500001055000000000000000000000000000000000000000000000001000008250000000000000000000N
021977061011818999VIZNAR                                                                                              008708700000000648000010000042700000427000000000000000000000000000000000000000000000004000003680000000000000000000N
021977061011819299ZAFARRAYA                                                                                           012212200000002368000030000167000001670000000000000000000000000000000000000000000000008000011620000000000000000000N
021977061011819399ZUBIA (LA)                                                                                          008708700000005600000040000344800003448000000000000000000000000000000000000000300000022000029210000000000000000000N
021977061011819499ZUJAR                                                                                               002302300000006134000030000361100003611000000000000000000000000000000000000000600000017000026080000000000000000000N
021977061011890199LA TEHA                                                                                             014714700000001308000010000090400000904000000000000000000000000000000000000000000000001000004960000000000000000000N
021977061011890299EL VALLE (RESTABAL)                                                                                 014714700000002017000030000129100001291000000000000000000000000000000000000000100000001000009690000000000000000000N
021977061011890399NEVADA (LAROLES)                                                                                    014714700000002008000030000132600001326000000000000000000000000000000000000000800000018000009800000000000000000000N
021977061011890499ALPUJARRA DE LA SIERRA                                                                              014714700000001708000020000108200001082000000000000000000000000000000000000000500000002000007420000000000000000000N
021977061011890599GABIAS.GABIA GRANDE                                                                                 008708700000004848000040000294000002940000000000000000000000000000000000000000600000013000024380000000000000000000N
021977061011890699GUAJARES.G.FARAGUIT                                                                                 014014000000001621000030000116300001163000000000000000000000000000000000000000000000005000009470000000000000000000N
021977061011890799VALLE DE ZALABI (ALCUDIA                                                                            008908900000002918000030000178400001784000000000000000000000000000000000000000600000005000012840000000000000000000N
021977061011890899VILLAMENA (COZVIJAR)                                                                                014714700000001140000020000071300000713000000000000000000000000000000000000000100000003000005210000000000000000000N
021977061011890999MORELABOR (MOREDA)                                                                                  008708700000001291000010000083400000834000000000000000000000000000000000000000200000000000006490000000000000000000N
021977061011891099IZBOR                                                                                               014714700000000683000020000039700000397000000000000000000000000000000000000000000000000000002630000000000000000000N
021977061012100199ALAJAR                                                                                              000700700000001035000010000075300000753000000000000000000000000000000000000000000000001000005590000000000000000000N
021977061012100299ALJARAQUE                                                                                           004104100000003776000050000232500002325000000000000000000000000000000000000000100000020000019570000000000000000000N
021977061012100399ALMENDRO EL                                                                                         001001000000000985000010000059700000597000000000000000000000000000000000000000000000002000004530000000000000000000N
021977061012100499ALMONASTER LA REAL                                                                                  000700700000003026000040000212200002122000000000000000000000000000000000000000200000011000014350000000000000000000N
021977061012100599ALMONTE                                                                                             005405400000012509000150000767600007676000000000000000000000000000000000000001400000204000062010000000000000000000N
021977061012100699ALOSNO                                                                                              007207200000005566000060000377200003772000000000000000000000000000000000000000300000250000027120000000000000000000N
021977061012100799ARACENA                                                                                             000700700000006475000060000403200004032000000000000000000000000000000000000000800000037000031390000000000000000000N
021977061012100899AROCHE                                                                                              000700700000004490000040000305500003055000000000000000000000000000000000000000300000011000022530000000000000000000N
021977061012100999ARROYOMOLINOS DE LEON                                                                               000700700000001346000020000102800001028000000000000000000000000000000000000000000000001000008070000000000000000000N
021977061012101099AYAMONTE                                                                                            001001000000013883000160000789000007890000000000000000000000000000000000000002500000074000054240000000000000000000N
021977061012101199BEAS                                                                                                004104100000004012000040000284600002846000000000000000000000000000000000000000400000014000024120000000000000000000N
021977061012101299BERROCAL                                                                                            007207200000000621000010000046200000462000000000000000000000000000000000000000100000008000003460000000000000000000N
021977061012101399BOLLULLOS PAR DEL CONDADO                                                                           005405400000011785000110000775600007756000000000000000000000000000000000000000500000135000064040000000000000000000N
021977061012101499BONARES                                                                                             005005000000004729000030000303200003032000000000000000000000000000000000000000200000012000026890000000000000000000N
021977061012101599CABEZAS RUBIAS                                                                                      007207200000001073000010000073500000735000000000000000000000000000000000000000000000003000005240000000000000000000N
021977061012101699CALA                                                                                                000700700000001680000020000099000000990000000000000000000000000000000000000000000000002000008530000000000000000000N
021977061012101799CALANAS                                                                                             007207200000006010000050000434500004345000000000000000000000000000000000000000600000043000033600000000000000000000N
021977061012101899CAMPILLO EL                                                                                         007207200000002890000030000193900001939000000000000000000000000000000000000000000000031000014760000000000000000000N
021977061012101999CAMPOFRIO                                                                                           000700700000000881000010000058900000589000000000000000000000000000000000000000000000008000004980000000000000000000N
021977061012102099CANAVERAL DE LEON                                                                                   000700700000000624000010000045700000457000000000000000000000000000000000000000000000001000003670000000000000000000N
021977061012102199CARTAYA                                                                                             004104100000008910000090000520000005200000000000000000000000000000000000000000300000033000040290000000000000000000N
021977061012102299CASTANO DEL ROBLEDO                                                                                 000700700000000244000010000016700000167000000000000000000000000000000000000000000000000000001340000000000000000000N
021977061012102399CERRO DE ANDEVALO EL                                                                                007207200000004025000030000288400002884000000000000000000000000000000000000000500000197000017580000000000000000000N
021977061012102499CORTECONCEPCION                                                                                     000700700000000788000010000057200000572000000000000000000000000000000000000000100000002000004110000000000000000000N
021977061012102599CORTEGANA                                                                                           000700700000007428000070000518400005184000000000000000000000000000000000000000200000029000030140000000000000000000N
021977061012102699CORTELAZOR                                                                                          000700700000000512000010000034600000346000000000000000000000000000000000000000000000002000002180000000000000000000N
021977061012102799CUMBRES DE ENMEDIO                                                                                  000700700000000135000010000010300000103000000000000000000000000000000000000000000000000000000760000000000000000000N
021977061012102899CUMBRES DE SAN BARTOLOME                                                                            000700700000001017000010000075200000752000000000000000000000000000000000000000100000000000005000000000000000000000N
021977061012102999CUMBRES MAYORES                                                                                     000700700000003457000020000230300002303000000000000000000000000000000000000000000000009000013900000000000000000000N
021977061012103099CHUCENA                                                                                             005405400000001958000020000131100001311000000000000000000000000000000000000000000000016000011510000000000000000000N
021977061012103199ENCINASOLA                                                                                          000700700000003361000030000252400002524000000000000000000000000000000000000000000000007000017120000000000000000000N
021977061012103299ESCACENA DEL CAMPO                                                                                  005405400000002141000020000145600001456000000000000000000000000000000000000000000000007000012870000000000000000000N
021977061012103399FUENTEHERIDOS                                                                                       000700700000000762000010000051200000512000000000000000000000000000000000000000100000001000003680000000000000000000N
021977061012103499GALAROZA                                                                                            000700700000002020000020000133100001331000000000000000000000000000000000000000100000004000010220000000000000000000N
021977061012103599GIBRALEON                                                                                           004104100000008654000090000567500005675000000000000000000000000000000000000001000000055000042630000000000000000000N
021977061012103699GRANADA DE RIO TINTO                                                                                000700700000000295000010000019800000198000000000000000000000000000000000000000100000001000001310000000000000000000N
021977061012103799GRANADO EL                                                                                          001001000000000725000010000047800000478000000000000000000000000000000000000000000000003000003480000000000000000000N
021977061012103899HIGUERA DE LA SIERRA                                                                                000700700000001563000010000105300001053000000000000000000000000000000000000000000000006000008070000000000000000000N
