041979041010400199ABLA                                                                                                000000000000001775000020000129200001292000000000000000000000000000000000000000000000010000008370090000000000000000S
041979041010400299ABRUCENA                                                                                            000000000000001825000020000127900001279000000000000000000000000000000000000000000000018000008520090000000000000000S
041979041010400399ADRA                                                                                                000000000000016993000180001081500010815000000000000000000000000000000000000000000000048000062430170000000000000000S
041979041010400499ALBANCHEZ                                                                                           000000000000001078000010000085600000856000000000000000000000000000000000000000000000004000005450090000000000000000S
041979041010400599ALBOLODUY                                                                                           000000000000001121000010000085100000851000000000000000000000000000000000000000000000008000006690090000000000000000S
041979041010400699ALBOX                                                                                               000000000000010702000090000775000007750000000000000000000000000000000000000000000000042000036390170000000000000000S
041979041010400799ALCOLEA                                                                                             000000000000001269000010000092400000924000000000000000000000000000000000000000000000007000004120090000000000000000S
041979041010400899ALCONTAR                                                                                            000000000000000944000010000069700000697000000000000000000000000000000000000000000000006000003440070000000000000000S
041979041010400999ALCUDIA DE MONTEAGUD                                                                                000000000000000286000010000024900000249000000000000000000000000000000000000000000000001000001510070000000000000000S
041979041010401099ALHABIA                                                                                             000000000000001192000010000082100000821000000000000000000000000000000000000000000000001000006000090000000000000000S
041979041010401199ALHAMA DE ALMERIA                                                                                   000000000000002985000030000204900002049000000000000000000000000000000000000000000000009000017220110000000000000000S
041979041010401399ALMERIA                                                                                             000000000000133844001130008813500088135000000000000000000000000000000000000000000000580000490680270000000000000000S
041979041010401499ALMOCITA                                                                                            000000000000000284000010000022200000222000000000000000000000000000000000000000000000002000001220070000000000000000S
041979041010401699ANTAS                                                                                               000000000000002464000030000170900001709000000000000000000000000000000000000000000000013000011980110000000000000000S
041979041010401799ARBOLEAS                                                                                            000000000000001712000030000136600001366000000000000000000000000000000000000000000000000000007260090000000000000000S
041979041010401899ARMUÑA DE ALMANZORA                                                                                 000000000000000395000010000030000000300000000000000000000000000000000000000000000000001000002050070000000000000000S
041979041010401999BACARES                                                                                             000000000000000458000020000036800000368000000000000000000000000000000000000000000000006000001830070000000000000000S
041979041010402099BAYARCAL                                                                                            000000000000000597000010000040000000400000000000000000000000000000000000000000000000000000002540070000000000000000S
041979041010402199BAYARQUE                                                                                            000000000000000333000010000025600000256000000000000000000000000000000000000000000000000000001680070000000000000000S
041979041010402299BEDAR                                                                                               000000000000000700000010000054500000545000000000000000000000000000000000000000000000000000003460070000000000000000S
041979041010402499BENAHADUX                                                                                           000000000000001763000020000122200001222000000000000000000000000000000000000000000000008000009840090000000000000000S
041979041010402599BENINAR                                                                                             000000000000000422000010000035600000356000000000000000000000000000000000000000000000003000001930070000000000000000S
041979041010402799BENIZALON                                                                                           000000000000000537000010000041500000415000000000000000000000000000000000000000000000004000002190070000000000000000S
041979041010402899BENTARIQUE                                                                                          000000000000000376000010000029400000294000000000000000000000000000000000000000000000002000002310070000000000000000S
041979041010402999BERJA                                                                                               000000000000012339000140000821900008219000000000000000000000000000000000000000000000047000050750170000000000000000S
041979041010403099CANJAYAR                                                                                            000000000000002533000040000182800001828000000000000000000000000000000000000000000000005000012740110000000000000000S
041979041010403199CANTORIA                                                                                            000000000000003889000030000286600002866000000000000000000000000000000000000000000000041000018360110000000000000000S
041979041010403299CARBONERAS                                                                                          000000000000003270000040000214000002140000000000000000000000000000000000000000000000014000014180110000000000000000S
041979041010403399CASTRO DE FILABRES                                                                                  000000000000000254000010000019800000198000000000000000000000000000000000000000000000000000001330070000000000000000S
041979041010403499COBDAR                                                                                              000000000000000595000010000046000000460000000000000000000000000000000000000000000000006000002580070000000000000000S
041979041010403599CUEVAS DEL ALMANZORA                                                                                000000000000007982000070000581600005816000000000000000000000000000000000000000000000027000035860130000000000000000S
041979041010403699CHERCOS                                                                                             000000000000000505000010000032700000327000000000000000000000000000000000000000000000003000002310070000000000000000S
041979041010403799CHIRIVEL                                                                                            000000000000002351000030000181700001817000000000000000000000000000000000000000000000014000011090110000000000000000S
041979041010403899DALIAS                                                                                              000000000000028419000260001722900017229000000000000000000000000000000000000000000000104000078250210000000000000000S
041979041010404199ENIX                                                                                                000000000000000490000010000033000000330000000000000000000000000000000000000000000000017000002130070000000000000000S
041979041010404399FELIX                                                                                               000000000000004006000030000253200002532000000000000000000000000000000000000000000000018000017260110000000000000000S
041979041010404499FINES                                                                                               000000000000001584000010000099500000995000000000000000000000000000000000000000000000004000006840090000000000000000S
041979041010404599FIÑANA                                                                                              000000000000003309000040000231700002317000000000000000000000000000000000000000000000018000014590110000000000000000S
041979041010404699FONDON                                                                                              000000000000001424000020000098600000986000000000000000000000000000000000000000000000006000005590090000000000000000S
041979041010404799GADOR                                                                                               000000000000002850000030000190700001907000000000000000000000000000000000000000000000011000013670110000000000000000S
041979041010404899GALLARDOS (LOS)                                                                                     000000000000001576000020000119100001191000000000000000000000000000000000000000000000012000008040090000000000000000S
041979041010404999GARRUCHA                                                                                            000000000000003144000020000214200002142000000000000000000000000000000000000000200000004000016030110000000000000000S
041979041010405099GERGAL                                                                                              000000000000001572000010000115000001150000000000000000000000000000000000000000000000019000007080090000000000000000S
041979041010405199HUECIJA                                                                                             000000000000000594000010000041900000419000000000000000000000000000000000000000000000006000003190070000000000000000S
041979041010405299HUERCAL DE ALMERIA                                                                                  000000000000003236000020000207000002070000000000000000000000000000000000000000000000013000014820110000000000000000S
041979041010405399HUERCAL-OVERA                                                                                       000000000000012882000150000896400008964000000000000000000000000000000000000000000000036000054030170000000000000000S
041979041010405499ILLAR                                                                                               000000000000000577000010000043800000438000000000000000000000000000000000000000000000005000003830070000000000000000S
041979041010405599INSTINCION                                                                                          000000000000000767000010000058600000586000000000000000000000000000000000000000000000004000004690070000000000000000S
041979041010405699LAROYA                                                                                              000000000000000303000010000020800000208000000000000000000000000000000000000000000000003000001200070000000000000000S
041979041010405799LAUJAR DE ANDARAX                                                                                   000000000000002111000020000145200001452000000000000000000000000000000000000000000000020000008730110000000000000000S
041979041010405899LIJAR                                                                                               000000000000000590000010000041000000410000000000000000000000000000000000000000000000001000003080070000000000000000S
041979041010405999LUBRIN                                                                                              000000000000002979000040000231600002316000000000000000000000000000000000000000000000008000013290110000000000000000S
041979041010406099LUCAINENA DE LAS TORRES                                                                             000000000000000916000020000068500000685000000000000000000000000000000000000000000000034000003380070000000000000000S
041979041010406199LUCAR                                                                                               000000000000000889000010000066500000665000000000000000000000000000000000000000000000011000004740070000000000000000S
041979041010406299MACAEL                                                                                              000000000000005524000040000334700003347000000000000000000000000000000000000000000000006000020870130000000000000000S
041979041010406399MARIA                                                                                               000000000000002012000030000148900001489000000000000000000000000000000000000000000000007000010130110000000000000000S
041979041010406499MOJACAR                                                                                             000000000000001716000010000118800001188000000000000000000000000000000000000000000000006000007230090000000000000000S
041979041010406599NACIMIENTO                                                                                          000000000000000858000020000062800000628000000000000000000000000000000000000000000000004000003870070000000000000000S
041979041010406699NIJAR                                                                                               000000000000012606000130000836700008367000000000000000000000000000000000000000000000052000042620170000000000000000S
041979041010406799OHANES                                                                                              000000000000001190000020000086200000862000000000000000000000000000000000000000000000008000005760090000000000000000S
041979041010406899OLULA DE CASTRO                                                                                     000000000000000463000010000030500000305000000000000000000000000000000000000000000000006000001930070000000000000000S
041979041010406999OLULA DEL RIO                                                                                       000000000000004913000040000333200003332000000000000000000000000000000000000000000000012000021890110000000000000000S
041979041010407099ORIA                                                                                                000000000000003297000060000253400002534000000000000000000000000000000000000000000000009000015110110000000000000000S
041979041010407199PADULES                                                                                             000000000000000757000010000057400000574000000000000000000000000000000000000000000000006000003410070000000000000000S
041979041010407299PARTALOA                                                                                            000000000000000630000010000047800000478000000000000000000000000000000000000000000000000000003810070000000000000000S
041979041010407399PATERNA DEL RIO                                                                                     000000000000000808000010000059600000596000000000000000000000000000000000000000000000002000002750070000000000000000S
041979041010407499PECHINA                                                                                             000000000000002083000040000145200001452000000000000000000000000000000000000000000000009000010690110000000000000000S
041979041010407599PULPI                                                                                               000000000000003766000060000251200002512000000000000000000000000000000000000000000000013000017340110000000000000000S
041979041010407699PURCHENA                                                                                            000000000000002096000030000149600001496000000000000000000000000000000000000000000000001000010240110000000000000000S
041979041010407799RAGOL                                                                                               000000000000000563000010000044800000448000000000000000000000000000000000000000000000004000003540070000000000000000S
041979041010407899RIOJA                                                                                               000000000000001274000010000089200000892000000000000000000000000000000000000000000000005000007300090000000000000000S
041979041010407999ROQUETAS DE MAR                                                                                     000000000000016622000150001034500010345000000000000000000000000000000000000001000000128000059840170000000000000000S
041979041010408099SANTA CRUZ DE MARCHENA                                                                              000000000000000288000010000023200000232000000000000000000000000000000000000000000000001000001820070000000000000000S
041979041010408199SANTA FE DE MONDUJAR                                                                                000000000000000595000010000044600000446000000000000000000000000000000000000000000000002000003690070000000000000000S
041979041010408299SENES                                                                                               000000000000000763000010000058300000583000000000000000000000000000000000000000200000002000003760070000000000000000S
041979041010408399SERON                                                                                               000000000000004502000060000330300003303000000000000000000000000000000000000000000000022000016950110000000000000000S
041979041010408499SIERRO                                                                                              000000000000000680000010000042600000426000000000000000000000000000000000000000000000004000002440070000000000000000S
041979041010408599SOMONTIN                                                                                            000000000000000650000010000048400000484000000000000000000000000000000000000000000000001000003340070000000000000000S
041979041010408699SORBAS                                                                                              000000000000004467000060000344600003446000000000000000000000000000000000000000000000021000015840110000000000000000S
041979041010408799SUFLI                                                                                               000000000000000351000010000025400000254000000000000000000000000000000000000000000000001000001370070000000000000000S
041979041010408899TABERNAS                                                                                            000000000000004044000060000293900002939000000000000000000000000000000000000000000000021000016380110000000000000000S
041979041010408999TABERNO                                                                                             000000000000001019000010000081700000817000000000000000000000000000000000000000000000005000002560090000000000000000S
041979041010409099TAHAL                                                                                               000000000000000865000010000064000000640000000000000000000000000000000000000000000000014000003180070000000000000000S
041979041010409199TERQUE                                                                                              000000000000000564000010000040100000401000000000000000000000000000000000000000000000006000003050070000000000000000S
041979041010409299TIJOLA                                                                                              000000000000004076000040000280400002804000000000000000000000000000000000000000000000008000017370110000000000000000S
041979041010409399TURRE                                                                                               000000000000002083000020000148800001488000000000000000000000000000000000000000000000002000010320110000000000000000S
041979041010409499TURRILLAS                                                                                           000000000000000408000010000032900000329000000000000000000000000000000000000000000000004000002510070000000000000000S
041979041010409599ULEILA DEL CAMPO                                                                                    000000000000001169000010000089100000891000000000000000000000000000000000000000000000011000004750090000000000000000S
041979041010409699URRACAL                                                                                             000000000000000450000010000035000000350000000000000000000000000000000000000000000000000000002630070000000000000000S
041979041010409799VELEFIQUE                                                                                           000000000000000541000010000040300000403000000000000000000000000000000000000000200000003000003030070000000000000000S
041979041010409899VELEZ-BLANCO                                                                                        000000000000003868000070000307100003071000000000000000000000000000000000000000000000006000015700110000000000000000S
041979041010409999VELEZ-RUBIO                                                                                         000000000000008577000110000624000006240000000000000000000000000000000000000000000000032000031310130000000000000000S
041979041010410099VERA                                                                                                000000000000005269000050000351200003512000000000000000000000000000000000000000000000013000025180130000000000000000S
041979041010410199VIATOR                                                                                              000000000000002324000020000154300001543000000000000000000000000000000000000000000000004000012790110000000000000000S
041979041010410299VICAR                                                                                               000000000000006327000040000371900003719000000000000000000000000000000000000000000000029000018140130000000000000000S
041979041010410399ZURGENA                                                                                             000000000000002161000040000152400001524000000000000000000000000000000000000000000000007000012460110000000000000000S
041979041010490199TRES VILLAS (LAS)                                                                                   000000000000000979000020000068600000686000000000000000000000000000000000000000000000001000004500070000000000000000S
041979041011100199ALCALÁ DE LOS GAZULES                                                                               000000000000006867000080000450600004506000000000000000000000000000000000000000000000008000026040130000000000000000S
041979041011100299ALCALÁ DEL VALLE                                                                                    000000000000005136000040000322700003227000000000000000000000000000000000000000000000009000021520130000000000000000S
041979041011100399ALGAR                                                                                               000000000000002169000020000144200001442000000000000000000000000000000000000000000000018000006400110000000000000000S
041979041011100499ALGECIRAS                                                                                           000000000000092273000830006187900061879000000000000000000000000000000000000000000000265000303730250000000000000000S
041979041011100599ALGODONALES                                                                                         000000000000006752000060000470900004709000000000000000000000000000000000000000000000016000026630130000000000000000S
041979041011100699ARCOS DE LA FRONTERA                                                                                000000000000026425000240001677800016778000000000000000000000000000000000000000000000061000106740210000000000000000S
041979041011100799BARBATE                                                                                             000000000000021656000210001348500013485000000000000000000000000000000000000000000000054000081150210000000000000000S
041979041011100899BARRIOS, LOS                                                                                        000000000000010190000090000646900006469000000000000000000000000000000000000000000000029000044260170000000000000000S
041979041011100999BENAOCAZ                                                                                            000000000000000646000010000049300000493000000000000000000000000000000000000000000000005000002420070000000000000000S
041979041011101099BORNOS                                                                                              000000000000007752000070000493100004931000000000000000000000000000000000000000000000019000036440130000000000000000S
041979041011101199BOSQUE, EL                                                                                          000000000000002071000020000136400001364000000000000000000000000000000000000000000000005000007560110000000000000000S
041979041011101299CÁDIZ                                                                                               000000000000153327000910010418800104188000000000000000000000000000000000000000000000936000516110270000000000000000S
041979041011101399CASTELLAR DE LA FRONTERA                                                                            000000000000002140000020000137500001375000000000000000000000000000000000000000000000009000009600110000000000000000S
041979041011101499CONIL DE LA FRONTERA                                                                                000000000000012671000120000817300008173000000000000000000000000000000000000000000000026000047110170000000000000000S
041979041011101599CHICLANA DE LA FRONTERA                                                                             000000000000035289000300002137800021378000000000000000000000000000000000000000000000047000126930210000000000000000S
041979041011101699CHIPIONA                                                                                            000000000000011461000110000696900006969000000000000000000000000000000000000000000000099000045950170000000000000000S
041979041011101799ESPERA                                                                                              000000000000004809000040000294800002948000000000000000000000000000000000000000000000006000019200110000000000000000S
041979041011101899GASTOR, EL                                                                                          000000000000002580000020000177200001772000000000000000000000000000000000000000000000012000009460110000000000000000S
041979041011101999GRAZALEMA                                                                                           000000000000002547000040000173800001738000000000000000000000000000000000000000000000034000012360110000000000000000S
041979041011102099JEREZ DE LA FRONTERA                                                                                000000000000180098001570011387800113878000000000000000000000000000000000000000000000495000624710270000000000000000S
041979041011102199JIMENA DE LA FRONTERA                                                                               000000000000008857000090000604200006042000000000000000000000000000000000000000000000013000038450130000000000000000S
041979041011102299LÍNEA DE LA CONCEPCIÓN, LA                                                                          000000000000057255000530003769000037690000000000000000000000000000000000000000000000188000220120250000000000000000S
041979041011102399MEDINA SIDONIA                                                                                      000000000000015179000140000919400009194000000000000000000000000000000000000000000000043000065810170000000000000000S
041979041011102499OLVERA                                                                                              000000000000011960000110000797900007979000000000000000000000000000000000000000000000023000042630170000000000000000S
041979041011102599PATERNA DE RIVERA                                                                                   000000000000004015000040000242100002421000000000000000000000000000000000000000000000016000016870110000000000000000S
041979041011102699PRADO DEL REY                                                                                       000000000000004934000040000324900003249000000000000000000000000000000000000000000000020000023580110000000000000000S
041979041011102799PUERTO DE SANTA MARÍA, EL                                                                           000000000000051007000420003133000031330000000000000000000000000000000000000000000000083000162060250000000000000000S
041979041011102899PUERTO REAL                                                                                         000000000000022775000200001454100014541000000000000000000000000000000000000000000000074000093110210000000000000000S
041979041011102999PUERTO SERRANO                                                                                      000000000000005974000050000341900003419000000000000000000000000000000000000000000000015000023620130000000000000000S
041979041011103099ROTA                                                                                                000000000000020691000190001282200012822000000000000000000000000000000000000000000000086000075970210000000000000000S
041979041011103199SAN FERNANDO                                                                                        000000000000067614000620004340600043406000000000000000000000000000000000000000000000193000237920250000000000000000S
041979041011103299SANLÚCAR DE BARRAMEDA                                                                               000000000000047558000550002906500029065000000000000000000000000000000000000000000000126000174650210000000000000000S
041979041011103399SAN ROQUE                                                                                           000000000000021118000180001353500013535000000000000000000000000000000000000000000000047000079070210000000000000000S
041979041011103499SETENIL DE LAS BODEGAS                                                                              000000000000004018000040000276200002762000000000000000000000000000000000000000000000017000012110110000000000000000S
041979041011103599TARIFA                                                                                              000000000000014621000160000959300009593000000000000000000000000000000000000000000000034000063270170000000000000000S
041979041011103699TORRE ALHAQUIME                                                                                     000000000000001088000010000069000000690000000000000000000000000000000000000000000000002000003870090000000000000000S
041979041011103799TREBUJENA                                                                                           000000000000006365000070000412200004122000000000000000000000000000000000000000000000027000031430130000000000000000S
041979041011103899UBRIQUE                                                                                             000000000000015891000130001009900010099000000000000000000000000000000000000000000000065000077640170000000000000000S
041979041011103999VEJER DE LA FRONTERA                                                                                000000000000015039000140000954800009548000000000000000000000000000000000000000000000024000045560170000000000000000S
041979041011104099VILLALUENGA DEL ROSARIO                                                                             000000000000000638000010000052100000521000000000000000000000000000000000000000000000000000002200070000000000000000S
041979041011104199VILLAMARTÍN                                                                                         000000000000013166000100000824800008248000000000000000000000000000000000000000000000036000050700170000000000000000S
041979041011104299ZAHARA                                                                                              000000000000002507000030000177300001773000000000000000000000000000000000000000000000008000008390110000000000000000S
041979041011400199ADAMUZ                                                                                              000000000000001878000040000326200003262000000000000000000000000000000000000000000000011000026240110000000000000000S
041979041011400299AGUILAR DE LA FRONTERA                                                                              000000000000014940000100000921000009210000000000000000000000000000000000000000000000045000072670170000000000000000S
041979041011400399ALCARACEJOS                                                                                         000000000000001991000010000146200001462000000000000000000000000000000000000000000000008000008390090000000000000000S
041979041011400499ALMEDINILLA                                                                                         000000000000003182000030000232700002327000000000000000000000000000000000000000000000013000013380110000000000000000S
041979041011400599ALMODOVAR DEL RÍO                                                                                   000000000000006649000060000428600004286000000000000000000000000000000000000000000000024000032560130000000000000000S
041979041011400699AÑORA                                                                                               000000000000002157000020000164400001644000000000000000000000000000000000000000000000004000010890110000000000000000S
041979041011400799BAENA                                                                                               000000000000020261000160001379000013790000000000000000000000000000000000000000000000056000081150210000000000000000S
041979041011400899BELALCÁZAR                                                                                          000000000000004853000050000361700003617000000000000000000000000000000000000000000000017000023730110000000000000000S
041979041011400999BELMEZ                                                                                              000000000000004977000070000371600003716000000000000000000000000000000000000000000000021000024570110000000000000000S
041979041011401099BENAMEJÍ                                                                                            000000000000004625000050000308900003089000000000000000000000000000000000000000000000027000018180110000000000000000S
041979041011401199BLÁZQUEZ, LOS                                                                                       000000000000000884000010000068100000681000000000000000000000000000000000000000000000022000004900070000000000000000S
041979041011401299BUJALANCE                                                                                           000000000000009458000100000666300006663000000000000000000000000000000000000000000000055000049250130000000000000000S
041979041011401399CABRA                                                                                               000000000000020147000160001399500013995000000000000000000000000000000000000000000000112000093840210000000000000000S
041979041011401499CAÑETE DE LAS TORRES                                                                                000000000000003653000020000264200002642000000000000000000000000000000000000000000000034000020470110000000000000000S
041979041011401599CARCABUEY                                                                                           000000000000003258000030000244900002449000000000000000000000000000000000000000000000027000017430110000000000000000S
041979041011401699CARDEÑA                                                                                             000000000000002813000060000196100001961000000000000000000000000000000000000000000000012000013540110000000000000000S
041979041011401799CARLOTA, LA                                                                                         000000000000008186000080000556500005565000000000000000000000000000000000000000000000024000038770130000000000000000S
041979041011401899CARPIO, EL                                                                                          000000000000005126000030000367700003677000000000000000000000000000000000000000000000034000027440130000000000000000S
041979041011401999CASTRO DEL RÍO                                                                                      000000000000008405000090000604500006045000000000000000000000000000000000000000000000081000045470130000000000000000S
041979041011402099CONQUISTA                                                                                           000000000000000665000010000053900000539000000000000000000000000000000000000000000000002000003660070000000000000000S
041979041011402199CÓRDOBA                                                                                             000000000000269998002460018118400181184000000000000000000000000000000000000000000000000001169990270000000000000000S
041979041011402299DOÑA MENCIA                                                                                         000000000000005270000040000372600003726000000000000000000000000000000000000000000000029000027230130000000000000000S
041979041011402399DOS TORRES                                                                                          000000000000002684000030000199600001996000000000000000000000000000000000000000000000013000014110110000000000000000S
041979041011402499ENCINAS REALES                                                                                      000000000000002346000020000161500001615000000000000000000000000000000000000000000000012000009880110000000000000000S
041979041011402599ESPEJO                                                                                              000000000000004665000060000368300003683000000000000000000000000000000000000000000000007000029870110000000000000000S
041979041011402699ESPIEL                                                                                              000000000000003561000060000262100002621000000000000000000000000000000000000000000000015000013720110000000000000000S
041979041011402799FERNÁN-NÚÑEZ                                                                                        000000000000009086000060000619400006194000000000000000000000000000000000000000000000065000050870130000000000000000S
041979041011402899FUENTE LA LANCHA                                                                                    000000000000000581000010000044400000444000000000000000000000000000000000000000000000002000003330070000000000000000S
041979041011402999FUENTE OBEJUNA                                                                                      000000000000007386000120000549000005490000000000000000000000000000000000000000000000088000036470130000000000000000S
041979041011403099FUENTE PALMERA                                                                                      000000000000008458000080000541700005417000000000000000000000000000000000000000000000011000038270130000000000000000S
041979041011403199FUENTE-TOJAR                                                                                        000000000000001159000020000090000000900000000000000000000000000000000000000000000000007000006450090000000000000000S
041979041011403299GRANJUELA, LA                                                                                       000000000000000718000010000054300000543000000000000000000000000000000000000000000000003000003400070000000000000000S
041979041011403399GUADALCÁZAR                                                                                         000000000000002006000020000119800001198000000000000000000000000000000000000000000000004000007180110000000000000000S
041979041011403499GUIJO, EL                                                                                           000000000000000702000010000051300000513000000000000000000000000000000000000000000000008000002930070000000000000000S
041979041011403599HINOJOSA DEL DUQUE                                                                                  000000000000009135000070000708800007088000000000000000000000000000000000000000000000599000040680130000000000000000S
041979041011403699HORNACHUELOS                                                                                        000000000000005717000060000353200003532000000000000000000000000000000000000000000000007000023690130000000000000000S
041979041011403799IZNAJAR                                                                                             000000000000007565000070000531800005318000000000000000000000000000000000000000000000040000030720130000000000000000S
041979041011403899LUCENA                                                                                              000000000000030734000270002000600020006000000000000000000000000000000000000000000000080000124600210000000000000000S
041979041011403999LUQUE                                                                                               000000000000004857000050000359000003590000000000000000000000000000000000000000000000027000017950110000000000000000S
041979041011404099MONTALBÁN DE CÓRDOBA                                                                                000000000000004086000040000287900002879000000000000000000000000000000000000000000000014000024600110000000000000000S
041979041011404199MONTEMAYOR                                                                                          000000000000004011000030000280600002806000000000000000000000000000000000000000000000022000020370110000000000000000S
041979041011404299MONTILLA                                                                                            000000000000022277000180001503600015036000000000000000000000000000000000000000000000131000118430210000000000000000S
041979041011404399MONTORO                                                                                             000000000000012051000090000835000008350000000000000000000000000000000000000000000000046000053770170000000000000000S
041979041011404499MONTURQUE                                                                                           000000000000001930000020000130300001303000000000000000000000000000000000000000000000010000010430090000000000000000S
041979041011404599MORILES                                                                                             000000000000003617000040000237000002370000000000000000000000000000000000000000000000012000018190110000000000000000S
041979041011404699NUEVA CARTEYA                                                                                       000000000000005706000040000369000003690000000000000000000000000000000000000000000000027000029600130000000000000000S
041979041011404799OBEJO                                                                                               000000000000001565000020000109400001094000000000000000000000000000000000000000000000014000007640090000000000000000S
041979041011404899PALENCIANA                                                                                          000000000000001988000020000139300001393000000000000000000000000000000000000000000000006000008460090000000000000000S
041979041011404999PALMA DEL RÍO                                                                                       000000000000018720000130001266700012667000000000000000000000000000000000000000000000045000091070170000000000000000S
041979041011405099PEDRO ABAD                                                                                          000000000000003037000020000223900002239000000000000000000000000000000000000000000000023000018650110000000000000000S
041979041011405199PEDROCHE                                                                                            000000000000002170000020000170300001703000000000000000000000000000000000000000000000011000011700110000000000000000S
041979041011405299PEÑARROYA-PUEBLONUEVO                                                                               000000000000014566000170001135400011354000000000000000000000000000000000000000000000111000070360170000000000000000S
041979041011405399POSADAS                                                                                             000000000000007604000070000538200005382000000000000000000000000000000000000000000000014000033260130000000000000000S
041979041011405499POZOBLANCO                                                                                          000000000000013898000080000997100009971000000000000000000000000000000000000000000000044000078400170000000000000000S
041979041011405599PRIEGO DE CÓRDOBA                                                                                   000000000000021597000240001510500015105000000000000000000000000000000000000000000000094000095600210000000000000000S
041979041011405699PUENTE GENIL                                                                                        000000000000027291000210001831700018317000000000000000000000000000000000000000000000096000127310210000000000000000S
041979041011405799RAMBLA, LA                                                                                          000000000000007217000050000485500004855000000000000000000000000000000000000000000000038000036550130000000000000000S
041979041011405899RUTE                                                                                                000000000000010305000100000723100007231000000000000000000000000000000000000000000000043000054220170000000000000000S
041979041011405999SAN SEBASTIÁN DE LOS BALLESTEROS                                                                    000000000000000773000010000056100000561000000000000000000000000000000000000000000000007000003560070000000000000000S
041979041011406099SANTAELLA                                                                                           000000000000005312000040000352900003529000000000000000000000000000000000000000000000035000025350130000000000000000S
041979041011406199SANTA EUFEMIA                                                                                       000000000000001609000020000120000001200000000000000000000000000000000000000000000000006000008280090000000000000000S
041979041011406299TORRECAMPO                                                                                          000000000000001853000020000139800001398000000000000000000000000000000000000000000000015000009270090000000000000000S
041979041011406399VALENZUELA                                                                                          000000000000001776000020000133900001339000000000000000000000000000000000000000000000011000010570090000000000000000S
041979041011406499VALSEQUILLO                                                                                         000000000000000832000020000065400000654000000000000000000000000000000000000000000000011000003940070000000000000000S
041979041011406599VÍCTORIA, LA                                                                                        000000000000001734000020000133500001335000000000000000000000000000000000000000000000010000009940090000000000000000S
041979041011406699VILLA DEL RÍO                                                                                       000000000000006865000060000458400004584000000000000000000000000000000000000000000000028000035970130000000000000000S
041979041011406799VILLAFRANCA DE CÓRDOBA                                                                              000000000000003748000030000254300002543000000000000000000000000000000000000000000000008000021770110000000000000000S
041979041011406899VILLAHARTA                                                                                          000000000000000831000010000061100000611000000000000000000000000000000000000000000000003000003650070000000000000000S
041979041011406999VILLANUEVA DE CÓRDOBA                                                                               000000000000011274000110000851400008514000000000000000000000000000000000000000000000081000063240170000000000000000S
041979041011407099VILLANUEVA DEL DUQUE                                                                                000000000000002410000020000205800002058000000000000000000000000000000000000000000000010000012290110000000000000000S
041979041011407199VILLANUEVA DEL REY                                                                                  000000000000002041000020000154700001547000000000000000000000000000000000000000000000023000007850110000000000000000S
041979041011407299VILLARALTO                                                                                          000000000000002208000020000177800001778000000000000000000000000000000000000000000000009000011670110000000000000000S
041979041011407399VILLAVICIOSA DE CÓRDOBA                                                                             000000000000004604000040000344100003441000000000000000000000000000000000000000000000040000022070110000000000000000S
041979041011407499VISO, EL                                                                                            000000000000003984000040000302600003026000000000000000000000000000000000000000000000009000020600110000000000000000S
041979041011407599ZUHEROS                                                                                             000000000000001469000020000099200000992000000000000000000000000000000000000000000000007000007030090000000000000000S
041979041011800199AGRÓN                                                                                               000000000000000606000010000041000000410000000000000000000000000000000000000000000000001000002520070000000000000000S
041979041011800299ALAMEDILLA                                                                                          000000000000001410000020000091000000910000000000000000000000000000000000000000000000009000006420090000000000000000S
041979041011800399ALBOLOTE                                                                                            000000000000006555000050000424400004244000000000000000000000000000000000000000000000041000031230130000000000000000S
041979041011800499ALBONDÓN                                                                                            000000000000002105000020000154200001542000000000000000000000000000000000000000000000011000005960110000000000000000S
041979041011800599ALBUÑÁN                                                                                             000000000000000639000010000047300000473000000000000000000000000000000000000000000000002000003410070000000000000000S
041979041011800699ALBUÑOL                                                                                             000000000000005982000060000418500004185000000000000000000000000000000000000000000000014000021500130000000000000000S
041979041011800799ALBUÑUELAS                                                                                          000000000000001672000010000113800001138000000000000000000000000000000000000000000000010000006650090000000000000000S
041979041011801099ALDEIRE                                                                                             000000000000001174000010000087700000877000000000000000000000000000000000000000000000013000004900090000000000000000S
041979041011801199ALFACAR                                                                                             000000000000003166000020000201600002016000000000000000000000000000000000000000000000011000015420110000000000000000S
041979041011801299ALGARINEJO                                                                                          000000000000006969000070000507400005074000000000000000000000000000000000000000000000018000023760130000000000000000S
041979041011801399ALHAMA DE GRANADA                                                                                   000000000000007212000130000510400005104000000000000000000000000000000000000000000000030000032040130000000000000000S
041979041011801499ALHENDÍN                                                                                            000000000000003151000020000213900002139000000000000000000000000000000000000000000000012000015480110000000000000000S
041979041011801599ALICÚN DE ORTEGA                                                                                    000000000000001159000010000070600000706000000000000000000000000000000000000000000000010000004340090000000000000000S
041979041011801699ALMEGIJAR                                                                                           000000000000000738000010000053600000536000000000000000000000000000000000000000000000010000002170070000000000000000S
041979041011801799ALMUÑÉCAR                                                                                           000000000000016194000120001019500010195000000000000000000000000000000000000000000000046000065730170000000000000000S
041979041011801899ALQUIFE                                                                                             000000000000002046000010000118400001184000000000000000000000000000000000000000000000003000008530110000000000000000S
041979041011802099ARENAS DEL REY                                                                                      000000000000002790000030000193200001932000000000000000000000000000000000000000000000008000009470110000000000000000S
041979041011802199ARMILLA                                                                                             000000000000009227000050000597000005970000000000000000000000000000000000000000000000134000036800130000000000000000S
041979041011802299ATARFE                                                                                              000000000000009684000080000663500006635000000000000000000000000000000000000000000000040000042050130000000000000000S
041979041011802399BAZA                                                                                                000000000000021288000160001444000014440000000000000000000000000000000000000000000000038000075420210000000000000000S
041979041011802499BEAS DE GRANADA                                                                                     000000000000000888000010000060700000607000000000000000000000000000000000000000000000004000003530070000000000000000S
041979041011802599BEAS DE GUADIX                                                                                      000000000000000611000010000039600000396000000000000000000000000000000000000000000000000000002140070000000000000000S
041979041011802799BENALÚA                                                                                             000000000000003602000030000229600002296000000000000000000000000000000000000000000000008000017250110000000000000000S
041979041011802899BENALÚA DE LAS VILLAS                                                                               000000000000001477000010000100100001001000000000000000000000000000000000000000000000004000006990090000000000000000S
041979041011802999BENAMAUREL                                                                                          000000000000003400000040000248100002481000000000000000000000000000000000000000000000019000014270110000000000000000S
041979041011803099BÉRCHULES                                                                                           000000000000001889000020000145900001459000000000000000000000000000000000000000000000012000005000090000000000000000S
041979041011803299BUBIÓN                                                                                              000000000000000490000010000038800000388000000000000000000000000000000000000000000000006000001810070000000000000000S
041979041011803399BUSQUÍSTAR                                                                                          000000000000000699000010000047700000477000000000000000000000000000000000000000000000011000001820070000000000000000S
041979041011803499CACÍN                                                                                               000000000000000989000020000071100000711000000000000000000000000000000000000000000000001000005620070000000000000000S
041979041011803599CÁDIAR                                                                                              000000000000002488000040000175900001759000000000000000000000000000000000000000000000010000011140110000000000000000S
041979041011803699CÁJAR                                                                                               000000000000001353000010000093000000930000000000000000000000000000000000000000000000017000006500090000000000000000S
041979041011803799CALICASAS                                                                                           000000000000000549000010000034500000345000000000000000000000000000000000000000000000002000002970070000000000000000S
041979041011803899CAMPOTÉJAR                                                                                          000000000000001549000010000100500001005000000000000000000000000000000000000000000000006000008070090000000000000000S
041979041011803999CANILES                                                                                             000000000000008584000080000596600005966000000000000000000000000000000000000000000000017000027630130000000000000000S
041979041011804099CÁÑAR                                                                                               000000000000000639000010000047800000478000000000000000000000000000000000000000000000008000002220070000000000000000S
041979041011804299CAPILEIRA                                                                                           000000000000000759000010000053300000533000000000000000000000000000000000000000000000002000003360070000000000000000S
041979041011804499CÁSTARAS                                                                                            000000000000000605000010000043600000436000000000000000000000000000000000000000000000004000000150070000000000000000S
041979041011804599CASTILLÉJAR                                                                                         000000000000002776000020000204400002044000000000000000000000000000000000000000000000004000010600110000000000000000S
041979041011804699CASTRIL                                                                                             000000000000004483000070000310200003102000000000000000000000000000000000000000000000018000017370110000000000000000S
041979041011804799CENES DE LA VEGA                                                                                    000000000000001181000010000075100000751000000000000000000000000000000000000000000000010000005320090000000000000000S
041979041011804899CIJUELA                                                                                             000000000000001060000010000080200000802000000000000000000000000000000000000000000000017000006220090000000000000000S
041979041011804999COGOLLOS DE GUADIX                                                                                  000000000000001007000010000069700000697000000000000000000000000000000000000000000000008000004360090000000000000000S
041979041011805099COGOLLOS DE LA VEGA                                                                                 000000000000002082000020000147200001472000000000000000000000000000000000000000000000017000010150110000000000000000S
041979041011805199COLOMERA                                                                                            000000000000002430000030000165000001650000000000000000000000000000000000000000000000014000011290110000000000000000S
041979041011805399CORTES DE BAZA                                                                                      000000000000003648000050000249400002494000000000000000000000000000000000000000000000010000017010110000000000000000S
041979041011805499CORTES Y GRAENA                                                                                     000000000000001169000010000077600000776000000000000000000000000000000000000000000000004000005430090000000000000000S
041979041011805699CÚLLAR                                                                                              000000000000006361000060000460800004608000000000000000000000000000000000000000000000013000033320130000000000000000S
041979041011805799CÚLLAR VEGA                                                                                         000000000000001348000010000094100000941000000000000000000000000000000000000000000000026000007250090000000000000000S
041979041011805999CHAUCHINA                                                                                           000000000000003884000030000270700002707000000000000000000000000000000000000000000000031000019410110000000000000000S
041979041011806199CHIMENEAS                                                                                           000000000000002056000020000149900001499000000000000000000000000000000000000000000000006000010240110000000000000000S
041979041011806299CHURRIANA DE LA VEGA                                                                                000000000000003634000020000246900002469000000000000000000000000000000000000000000000021000019120110000000000000000S
041979041011806399DARRO                                                                                               000000000000001675000010000106300001063000000000000000000000000000000000000000000000002000007070090000000000000000S
041979041011806499DEHESAS DE GUADIX                                                                                   000000000000001144000010000067200000672000000000000000000000000000000000000000000000004000003310090000000000000000S
041979041011806699DEIFONTES                                                                                           000000000000002283000020000158300001583000000000000000000000000000000000000000000000016000012190110000000000000000S
041979041011806799DIEZMA                                                                                              000000000000001235000010000078800000788000000000000000000000000000000000000000000000003000005620090000000000000000S
041979041011806899DÍLAR                                                                                               000000000000001295000010000096000000960000000000000000000000000000000000000000000000005000007170090000000000000000S
041979041011806999DÓLAR                                                                                               000000000000000876000010000069400000694000000000000000000000000000000000000000000000005000004960070000000000000000S
041979041011807099DÚDAR                                                                                               000000000000000274000010000019200000192000000000000000000000000000000000000000000000002000000890070000000000000000S
041979041011807199DÚRCAL                                                                                              000000000000005081000050000359100003591000000000000000000000000000000000000000000000056000022510130000000000000000S
041979041011807299ESCÚZAR                                                                                             000000000000001319000010000097000000970000000000000000000000000000000000000000000000018000005850090000000000000000S
041979041011807499FERREIRA                                                                                            000000000000000630000010000048400000484000000000000000000000000000000000000000000000004000002870070000000000000000S
041979041011807699FONELAS                                                                                             000000000000002396000020000144900001449000000000000000000000000000000000000000000000011000005960110000000000000000S
041979041011807899FREILA                                                                                              000000000000001516000010000101800001018000000000000000000000000000000000000000000000002000006210090000000000000000S
041979041011807999FUENTE VAQUEROS                                                                                     000000000000003676000030000253400002534000000000000000000000000000000000000000000000021000019770110000000000000000S
041979041011808299GALERA                                                                                              000000000000003559000050000248300002483000000000000000000000000000000000000000000000005000010150110000000000000000S
041979041011808399GOBERNADOR                                                                                          000000000000000469000010000035000000350000000000000000000000000000000000000000000000002000002420070000000000000000S
041979041011808499GOJAR                                                                                               000000000000001656000010000110600001106000000000000000000000000000000000000000000000009000008710090000000000000000S
041979041011808599GOR                                                                                                 000000000000002061000040000143800001438000000000000000000000000000000000000000000000005000006940110000000000000000S
041979041011808699GORAFE                                                                                              000000000000001018000010000068600000686000000000000000000000000000000000000000000000007000004470090000000000000000S
041979041011808799GRANADA                                                                                             000000000000225034001570015458700154587000000000000000000000000000000000000000000000841000933460270000000000000000S
041979041011808899GUADAHORTUNA                                                                                        000000000000002594000030000165900001659000000000000000000000000000000000000000000000027000011700110000000000000000S
041979041011808999GUADIX                                                                                              000000000000020826000220001370100013701000000000000000000000000000000000000000000000064000078580210000000000000000S
041979041011809399GUALCHOS                                                                                            000000000000002966000020000194300001943000000000000000000000000000000000000000000000009000013230110000000000000000S
041979041011809499GÜÉJAR SIERRA                                                                                       000000000000003425000030000238500002385000000000000000000000000000000000000000000000014000011320110000000000000000S
041979041011809599GÜEVEJAR                                                                                            000000000000001035000010000070900000709000000000000000000000000000000000000000000000007000006090090000000000000000S
041979041011809699HUÉLAGO                                                                                             000000000000000893000010000057300000573000000000000000000000000000000000000000000000008000004000070000000000000000S
041979041011809799HUÉNEJA                                                                                             000000000000002100000030000150000001500000000000000000000000000000000000000000000000011000008430110000000000000000S
041979041011809899HUÉSCAR                                                                                             000000000000010219000100000658500006585000000000000000000000000000000000000000000000028000041240170000000000000000S
041979041011809999HUÉTOR DE SANTILLÁN                                                                                 000000000000001421000010000045500000455000000000000000000000000000000000000006800000034000006550090000000000000000S
041979041011810099HUÉTOR TÁJAR                                                                                        000000000000006894000040000449700004497000000000000000000000000000000000000000000000033000034280130000000000000000S
041979041011810199HUÉTOR VEGA                                                                                         000000000000004296000020000281100002811000000000000000000000000000000000000000000000011000019570110000000000000000S
041979041011810299ÍLLORA                                                                                              000000000000009989000100000687100006871000000000000000000000000000000000000000000000028000050630130000000000000000S
041979041011810399ÍTRABO                                                                                              000000000000001441000010000105300001053000000000000000000000000000000000000000000000003000006530090000000000000000S
041979041011810599IZNALLOZ                                                                                            000000000000007362000050000486800004868000000000000000000000000000000000000000000000089000032280130000000000000000S
041979041011810799JAYENA                                                                                              000000000000002020000010000127500001275000000000000000000000000000000000000000000000005000006780110000000000000000S
041979041011810899JÉREZ DEL MARQUESADO                                                                                000000000000001727000010000128500001285000000000000000000000000000000000000000000000002000008240090000000000000000S
041979041011810999JETE                                                                                                000000000000000786000010000051500000515000000000000000000000000000000000000000000000000000004180070000000000000000S
041979041011811199JUN                                                                                                 000000000000000917000010000062000000620000000000000000000000000000000000000000000000017000004610070000000000000000S
041979041011811299JUVILES                                                                                             000000000000000259000010000018400000184000000000000000000000000000000000000000000000000000001230070000000000000000S
041979041011811499CALAHORRA, LA                                                                                       000000000000001249000010000084400000844000000000000000000000000000000000000000000000009000005580090000000000000000S
041979041011811599LÁCHAR                                                                                              000000000000001915000020000129200001292000000000000000000000000000000000000000000000021000009980090000000000000000S
041979041011811699LANJARÓN                                                                                            000000000000004195000040000305800003058000000000000000000000000000000000000000000000042000020720110000000000000000S
041979041011811799LANTEIRA                                                                                            000000000000000884000010000067700000677000000000000000000000000000000000000000000000008000003940070000000000000000S
041979041011811999LECRÍN                                                                                              000000000000002966000060000213200002132000000000000000000000000000000000000000000000015000015440110000000000000000S
041979041011812099LENTEGÍ                                                                                             000000000000000412000010000030100000301000000000000000000000000000000000000000000000001000002130070000000000000000S
041979041011812199LOBRAS                                                                                              000000000000000393000010000027300000273000000000000000000000000000000000000000000000005000000240070000000000000000S
041979041011812299LOJA                                                                                                000000000000023182000210001576600015766000000000000000000000000000000000000000000000044000096440210000000000000000S
041979041011812399LUGROS                                                                                              000000000000000699000010000046800000468000000000000000000000000000000000000000000000006000002780070000000000000000S
041979041011812499LÚJAR                                                                                               000000000000000848000010000058700000587000000000000000000000000000000000000000000000003000003730070000000000000000S
041979041011812699MALAHA, LA                                                                                          000000000000001544000010000100800001008000000000000000000000000000000000000000000000004000007900090000000000000000S
041979041011812799MARACENA                                                                                            000000000000009391000040000602000006020000000000000000000000000000000000000000000000081000045950130000000000000000S
041979041011812899MARCHAL                                                                                             000000000000000569000010000039700000397000000000000000000000000000000000000000000000000000002800070000000000000000S
041979041011813299MOCLÍN                                                                                              000000000000005558000060000390200003902000000000000000000000000000000000000000000000034000024950130000000000000000S
041979041011813399MOLVÍZAR                                                                                            000000000000002519000020000175700001757000000000000000000000000000000000000000000000004000013410110000000000000000S
041979041011813499MONACHIL                                                                                            000000000000003167000020000215500002155000000000000000000000000000000000000000000000020000015600110000000000000000S
041979041011813599MONTEFRÍO                                                                                           000000000000010626000090000752400007524000000000000000000000000000000000000000000000038000042180170000000000000000S
041979041011813699MONTEJÍCAR                                                                                          000000000000003149000020000206600002066000000000000000000000000000000000000000000000005000015150110000000000000000S
041979041011813799MONTILLANA                                                                                          000000000000001625000020000110500001105000000000000000000000000000000000000000000000011000006710090000000000000000S
041979041011813899MORALEDA DE ZAFAYONA                                                                                000000000000002389000020000156000001560000000000000000000000000000000000000000000000007000011890110000000000000000S
041979041011814099MOTRIL                                                                                              000000000000038617000280002469400024694000000000000000000000000000000000000000000000124000158060210000000000000000S
041979041011814199MURTAS                                                                                              000000000000001788000020000125100001251000000000000000000000000000000000000000000000012000006220090000000000000000S
041979041011814399NIGÜELAS                                                                                            000000000000001641000010000121100001211000000000000000000000000000000000000000000000031000005870090000000000000000S
041979041011814499NÍVAR                                                                                               000000000000000399000010000027400000274000000000000000000000000000000000000000000000000000002240070000000000000000S
041979041011814599OGÍJARES                                                                                            000000000000002476000010000140600001406000000000000000000000000000000000000000000000011000011000110000000000000000S
041979041011814699ORCE                                                                                                000000000000002461000020000175000001750000000000000000000000000000000000000000000000004000008920110000000000000000S
041979041011814799ÓRGIVA                                                                                              000000000000005437000050000397600003976000000000000000000000000000000000000000000000024000021410130000000000000000S
041979041011814899OTÍVAR                                                                                              000000000000001309000010000088500000885000000000000000000000000000000000000000000000003000005810090000000000000000S
041979041011814999OTURA                                                                                               000000000000002274000010000150400001504000000000000000000000000000000000000000000000008000009400110000000000000000S
041979041011815099PADUL                                                                                               000000000000006530000040000439800004398000000000000000000000000000000000000000000000024000025400130000000000000000S
041979041011815199PAMPANEIRA                                                                                          000000000000000689000010000047100000471000000000000000000000000000000000000000000000002000002470070000000000000000S
041979041011815299PEDRO MARTÍNEZ                                                                                      000000000000002680000030000183100001831000000000000000000000000000000000000000000000005000011080110000000000000000S
041979041011815399PELIGROS                                                                                            000000000000004030000020000257600002576000000000000000000000000000000000000000000000008000020550110000000000000000S
041979041011815499PEZA, LA                                                                                            000000000000001833000030000121800001218000000000000000000000000000000000000000000000001000006920090000000000000000S
041979041011815799PINOS GENIL                                                                                         000000000000000884000010000059700000597000000000000000000000000000000000000000000000055000002500070000000000000000S
041979041011815899PINOS PUENTE                                                                                        000000000000008973000100000667900006679000000000000000000000000000000000000000000000000000065860170000000000000000S
041979041011815999PIÑAR                                                                                               000000000000001925000020000129500001295000000000000000000000000000000000000000000000058000007990090000000000000000S
041979041011816199POLÍCAR                                                                                             000000000000000298000010000042000000420000000000000000000000000000000000000000000000009000001590070000000000000000S
041979041011816299POLOPOS                                                                                             000000000000001548000030000107400001074000000000000000000000000000000000000000000000003000007800090000000000000000S
041979041011816399PÓRTUGOS                                                                                            000000000000000516000010000038700000387000000000000000000000000000000000000000000000001000001890070000000000000000S
041979041011816499PUEBLA DE DON FADRIQUE                                                                              000000000000004173000060000296000002960000000000000000000000000000000000000000000000011000016000110000000000000000S
041979041011816599PULIANAS                                                                                            000000000000001957000010000129700001297000000000000000000000000000000000000000000000016000009770090000000000000000S
041979041011816799PURULLENA                                                                                           000000000000002481000020000181300001813000000000000000000000000000000000000000000000010000010050110000000000000000S
041979041011816899QUÉNTAR                                                                                             000000000000001361000020000093500000935000000000000000000000000000000000000000000000008000005830090000000000000000S
041979041011817099RUBITE                                                                                              000000000000000804000010000057100000571000000000000000000000000000000000000000000000003000002520070000000000000000S
041979041011817199SALAR                                                                                               000000000000003011000030000207500002075000000000000000000000000000000000000000000000007000017180110000000000000000S
041979041011817399SALOBREÑA                                                                                           000000000000008472000060000550600005506000000000000000000000000000000000000000000000033000036170130000000000000000S
041979041011817499SANTA CRUZ DEL COMERCIO                                                                             000000000000000868000010000063700000637000000000000000000000000000000000000000000000004000003170070000000000000000S
041979041011817599SANTA FÉ                                                                                            000000000000011052000090000728800007288000000000000000000000000000000000000000000000025000050970170000000000000000S
041979041011817699SOPORTÚJAR                                                                                          000000000000000372000010000027600000276000000000000000000000000000000000000000000000006000001480070000000000000000S
041979041011817799SORVILÁN                                                                                            000000000000001159000010000090500000905000000000000000000000000000000000000000000000006000004240090000000000000000S
041979041011817899TORRE-CARDELA                                                                                       000000000000001797000010000119500001195000000000000000000000000000000000000000000000034000007690090000000000000000S
041979041011817999TORVIZCÓN                                                                                           000000000000002047000020000146100001461000000000000000000000000000000000000000000000013000005580110000000000000000S
041979041011818099TREVÉLEZ                                                                                            000000000000001322000010000091800000918000000000000000000000000000000000000000000000000000004640090000000000000000S
041979041011818199TURÓN                                                                                               000000000000000896000010000063700000637000000000000000000000000000000000000000000000003000002990070000000000000000S
041979041011818299UGÍJAR                                                                                              000000000000003247000050000245600002456000000000000000000000000000000000000000000000018000012940110000000000000000S
041979041011818399VALOR                                                                                               000000000000002083000030000139200001392000000000000000000000000000000000000000000000003000006670110000000000000000S
041979041011818499VÉLEZ DE BENAUDALLA                                                                                 000000000000002959000030000197700001977000000000000000000000000000000000000000000000008000014770110000000000000000S
041979041011818599VENTAS DE HUELMA                                                                                    000000000000000816000010000063200000632000000000000000000000000000000000000000000000011000004330070000000000000000S
041979041011818799VILLANUEVA DE LAS TORRES                                                                            000000000000001073000010000066400000664000000000000000000000000000000000000000000000002000004790090000000000000000S
041979041011818899VILLANUEVA MESÍA                                                                                    000000000000001843000010000121900001219000000000000000000000000000000000000000000000008000008590090000000000000000S
041979041011818999VÍZNAR                                                                                              000000000000000669000010000051500000515000000000000000000000000000000000000000000000004000003790070000000000000000S
041979041011819299ZAFARRAYA                                                                                           000000000000002511000020000190800001908000000000000000000000000000000000000000000000001000013660110000000000000000S
041979041011819399ZUBIA, LA                                                                                           000000000000006118000040000404100004041000000000000000000000000000000000000000000000034000029740130000000000000000S
041979041011819499ZÚJAR                                                                                               000000000000006366000050000422200004222000000000000000000000000000000000000000000000011000024900130000000000000000S
041979041011890199TAHA, LA                                                                                            000000000000001406000030000101900001019000000000000000000000000000000000000000000000007000004500090000000000000000S
041979041011890299VALLE, EL                                                                                           000000000000002073000030000141500001415000000000000000000000000000000000000000000000027000004440110000000000000000S
041979041011890399NEVADA                                                                                              000000000000002085000030000148500001485000000000000000000000000000000000000000000000009000008450110000000000000000S
041979041011890499ALPUJARRA DE LA SIERRA                                                                              000000000000001824000020000128200001282000000000000000000000000000000000000000000000006000008220090000000000000000S
041979041011890599GABIAS, LAS                                                                                         000000000000005158000040000338500003385000000000000000000000000000000000000000000000033000023460130000000000000000S
041979041011890699GUÁJARES, LOS                                                                                       000000000000001690000030000129200001292000000000000000000000000000000000000000000000003000008880090000000000000000S
041979041011890799VALLE DEL ZALABÍ                                                                                    000000000000002942000030000201100002011000000000000000000000000000000000000000000000003000013040110000000000000000S
041979041011890899VILLAMENA                                                                                           000000000000001144000020000081900000819000000000000000000000000000000000000000000000013000004840090000000000000000S
041979041011890999MORELÁBOR                                                                                           000000000000001282000020000092300000923000000000000000000000000000000000000000000000005000007760090000000000000000S
041979041011891099PINAR, EL                                                                                           000000000000001790000020000121100001211000000000000000000000000000000000000000000000005000006830090000000000000000S
041979041011891199VEGAS DEL GENIL                                                                                     000000000000002645000030000184800001848000000000000000000000000000000000000000000000012000013410110000000000000000S
041979041012100199ALAJAR                                                                                              000000000000001046000020000081800000818000000000000000000000000000000000000078400000392000004360090000000000000000S
041979041012100299ALJARAQUE                                                                                           000000000000003895000030000262000002620000000000000000000000000000000000000000000000011000016720110000000000000000S
041979041012100399ALMENDRO, EL                                                                                        000000000000000943000010000061700000617000000000000000000000000000000000000000000000001000003780070000000000000000S
041979041012100499ALMONASTER LA REAL                                                                                  000000000000003044000050000216000002160000000000000000000000000000000000000000000000015000011350110000000000000000S
041979041012100599ALMONTE                                                                                             000000000000012935000130000847700008477000000000000000000000000000000000000000000000023000059470170000000000000000S
041979041012100699ALOSNO                                                                                              000000000000005504000050000419600004196000000000000000000000000000000000000000000000055000023890130000000000000000S
041979041012100799ARACENA                                                                                             000000000000006522000060000459300004593000000000000000000000000000000000000000000000024000026840130000000000000000S
041979041012100899AROCHE                                                                                              000000000000004460000040000323400003234000000000000000000000000000000000000000000000036000017360110000000000000000S
041979041012100999ARROYOMOLINOS DE LEÓN                                                                               000000000000001341000020000111100001111000000000000000000000000000000000000000000000009000007620090000000000000000S
041979041012101099AYAMONTE                                                                                            000000000000015022000100000881300008813000000000000000000000000000000000000000000000059000044460170000000000000000S
041979041012101199BEAS                                                                                                000000000000004073000030000323900003239000000000000000000000000000000000000000000000022000024070110000000000000000S
041979041012101299BERROCAL                                                                                            000000000000000561000010000046500000465000000000000000000000000000000000000000000000003000003310070000000000000000S
041979041012101399BOLLULLOS PAR DEL CONDADO                                                                           000000000000011935000120000906200009062000000000000000000000000000000000000000000000027000060940170000000000000000S
041979041012101499BONARES                                                                                             000000000000004811000030000303400003034000000000000000000000000000000000000000000000015000027290110000000000000000S
041979041012101599CABEZAS RUBIAS                                                                                      000000000000001047000010000079200000792000000000000000000000000000000000000000000000007000003130090000000000000000S
041979041012101699CALA                                                                                                000000000000001657000020000120200001202000000000000000000000000000000000000000000000001000008050090000000000000000S
041979041012101799CALAÑAS                                                                                             000000000000006235000060000526500005265000000000000000000000000000000000000000000000040000029260130000000000000000S
041979041012101899CAMPILLO, EL                                                                                        000000000000002975000020000214500002145000000000000000000000000000000000000000000000013000014400110000000000000000S
041979041012101999CAMPOFRÍO                                                                                           000000000000000901000010000065400000654000000000000000000000000000000000000000000000022000004210070000000000000000S
041979041012102099CAÑAVERAL DE LEÓN                                                                                   000000000000000615000010000049000000490000000000000000000000000000000000000000000000002000002660070000000000000000S
041979041012102199CARTAYA                                                                                             000000000000009093000080000594500005945000000000000000000000000000000000000000000000027000040080130000000000000000S
041979041012102399CERRO DE ANDEVALO, EL                                                                               000000000000004083000050000315400003154000000000000000000000000000000000000000000000022000013770110000000000000000S
041979041012102499CORTECONCEPCIÓN                                                                                     000000000000000786000010000060800000608000000000000000000000000000000000000000000000000000003320070000000000000000S
041979041012102599CORTEGANA                                                                                           000000000000007381000080000554200005542000000000000000000000000000000000000000000001032000024890130000000000000000S
041979041012102699CORTELAZOR                                                                                          000000000000000509000010000037900000379000000000000000000000000000000000000000000000021000000870070000000000000000S
041979041012102899CUMBRES DE SAN BARTOLOMÉ                                                                            000000000000001000000010000083800000838000000000000000000000000000000000000000000000013000003860070000000000000000S
041979041012102999CUMBRES MAYORES                                                                                     000000000000003426000040000251100002511000000000000000000000000000000000000000000000025000012720110000000000000000S
041979041012103099CHUCENA                                                                                             000000000000001990000020000144900001449000000000000000000000000000000000000000000000008000011920090000000000000000S
041979041012103199ENCINASOLA                                                                                          000000000000003348000050000279200002792000000000000000000000000000000000000000000000020000012810110000000000000000S
041979041012103299ESCACENA DEL CAMPO                                                                                  000000000000002168000020000156600001566000000000000000000000000000000000000000000000007000012080110000000000000000S
041979041012103399FUENTEHERIDOS                                                                                       000000000000000779000010000058500000585000000000000000000000000000000000000000000000013000001600070000000000000000S
041979041012103499GALAROZA                                                                                            000000000000002004000020000142400001424000000000000000000000000000000000000000000000004000008860110000000000000000S
041979041012103599GIBRALEÓN                                                                                           000000000000009354000060000628400006284000000000000000000000000000000000000000000000041000043770130000000000000000S
041979041012103799GRANADO, EL                                                                                         000000000000000712000010000051800000518000000000000000000000000000000000000000000000008000003580070000000000000000S
041979041012103899HIGUERA DE LA SIERRA                                                                                000000000000001553000020000114700001147000000000000000000000000000000000000000000000017000006040090000000000000000S
041979041012103999HINOJALES                                                                                           000000000000000550000010000037700000377000000000000000000000000000000000000000000000004000002650070000000000000000S
041979041012104099HINOJOS                                                                                             000000000000003133000040000237700002377000000000000000000000000000000000000000000000027000018160110000000000000000S
041979041012104199HUELVA                                                                                              000000000000122494000780008026800080268000000000000000000000000000000000000000000000731000408830270000000000000000S
041979041012104299ISLA CRISTINA                                                                                       000000000000016319000080000941500009415000000000000000000000000000000000000000000000029000043120170000000000000000S
041979041012104399JABUGO                                                                                              000000000000002623000040000194400001944000000000000000000000000000000000000000000000021000012420110000000000000000S
041979041012104499LEPE                                                                                                000000000000013103000070000793800007938000000000000000000000000000000000000000000000029000031370170000000000000000S
041979041012104599LINARES DE LA SIERRA                                                                                000000000000000401000010000032600000326000000000000000000000000000000000000000000000002000002120070000000000000000S
041979041012104699LUCENA DEL PUERTO                                                                                   000000000000001870000020000136400001364000000000000000000000000000000000000000000000004000010600090000000000000000S
041979041012104799MANZANILLA                                                                                          000000000000002911000030000214800002148000000000000000000000000000000000000000000000007000017770110000000000000000S
041979041012104899MARINES, LOS                                                                                        000000000000000417000010000033300000333000000000000000000000000000000000000000000000002000001760070000000000000000S
041979041012104999MINAS DE RIOTINTO                                                                                   000000000000006341000050000481300004813000000000000000000000000000000000000000000000062000027670130000000000000000S
041979041012105099MOGUER                                                                                              000000000000009441000100000608900006089000000000000000000000000000000000000000000000044000037950130000000000000000S
041979041012105199NAVA, LA                                                                                            000000000000000496000010000039500000395000000000000000000000000000000000000000000000001000002140070000000000000000S
