0819790410847040CASTROBOL                                                                                           0000000002050116316300000000000000001414305S
0819790410847042CASTROMEMBIBRE                                                                                      0000000001490111511500000000000000000405905S
0819790410847049CERVILLEGO DE LA CRUZ                                                                               0000000002300116316300000000000000000808505S
0819790410847053COGECES DE ISCAR                                                                                    0000000001980115715700000000000000000909305S
0819790410847056CORRALES DE DUERO                                                                                   0000000002380118118100000000000000001009205S
0819790410847063FOMPEDRAZA                                                                                          0000000001880113613600000000000000004309305S
0919790410847064FONTIHOYUELO                                                                                        0000000000990109309300000000000000000205605S
0819790410847068FUENTE OLMEDO                                                                                       0000000001140109109100000000000000000304805S
0819790410847069GALLEGOS DE HORNIJA                                                                                 0000000001760113713700000000000000000112605S
0819790410847070GATÓN DE CAMPOS                                                                                     0000000001110109709700000000000000000000005S
0819790410847074HORNILLOS DE ERESMA                                                                                 0000000002450118618600000000000000000109505S
0819790410847079LLANO DE OLMEDO                                                                                     0000000001590112712700000000000000000208505S
0819790410847080MANZANILLO                                                                                          0000000001000108608600000000000000000305705S
0919790410847081MARZALES                                                                                            0000000000970107207200000000000000000105905S
0819790410847083MATILLA DE LOS CAÑOS                                                                                0000000001230109909900000000000000001205705S
0819790410847091MONASTERIO DE VEGA                                                                                  0000000002030116216200000000000000000513205S
0819790410847092MONTEALEGRE DE CAMPOS                                                                               0000000002270120320300000000000000000513705S
0919790410847095MORALEJA DE LAS PANADERAS                                                                           0000000000390103403400000000000000000102705S
0819790410847106OLMOS DE PEÑAFIEL                                                                                   0000000001310110010000000000000000000108305S
0819790410842092FUENTES DE MAGAÑA                                                                                   0000000002280120220200000000000000000012805S
0919790410842082ESTEPA DE SAN JUAN                                                                                  0000000000330103003000000000000000000001905S
0919790410842083FRECHILLA DE ALMAZÁN                                                                                0000000000870106606600000000000000000106205S
0919790410842084FRESNO DE CARACENA                                                                                  0000000000850107907900000000000000000305105S
0919790410842087FUENTECANTOS                                                                                        0000000000680105105100000000000000000303805S
0819790410842086FUENTECAMBRÓN                                                                                       0000000001290109509500000000000000000003805S
0819790410842089FUENTELSAZ DE SORIA                                                                                 0000000001100109409400000000000000000203805S
0819790410842093FUENTESTRUN                                                                                         0000000001600114114100000000000000003604805S
0919790410842097GORMAZ                                                                                              0000000000730106006000000000000000000103505S
0919790410842098HERRERA DE SORIA                                                                                    0000000000660106506500000000000000000004605S
0919790410842100HINOJOSA DEL CAMPO                                                                                  0000000000900107307300000000000000000604205S
0819790410842105LICERAS                                                                                             0000000001110107907900000000000000000505205S
0819790410842107MAGAÑA                                                                                              0000000002230117517500000000000000000310105S
0919790410842108MAJÁN                                                                                               0000000000560104304300000000000000000002805S
0819790410842110MATALEBRERAS                                                                                        0000000002230118418400000000000000000113305S
0819790410842115MIÑO DE MEDINACELI                                                                                  0000000002410120920900000000000000003205805S
0819790410842116MIÑO DE SAN ESTEBAN                                                                                 0000000002100116116100000000000000000209805S
0819790410842117MOLINOS DE DUERO                                                                                    0000000002280117817800000000000000000113705S
0919790410842118MOMBLONA                                                                                            0000000000580104804800000000000000000503205S
0819790410842121MONTENEGRO DE CAMEROS                                                                               0000000001470112012000000000000000000606505S
0819790410842124MURIEL DE LA FUENTE                                                                                 0000000001270111211200000000000000000207305S
0819790410842125MURIEL VIEJO                                                                                        0000000001690114014000000000000000000010405S
0819790410842127NAFRÍA DE UCERO                                                                                     0000000001650114314300000000000000000307005S
0919790410842128NARROS                                                                                              0000000000670105805800000000000000000004605S
0819790410842131NOLAY                                                                                               0000000001420111811800000000000000000903805S
0819790410842135ONCALA                                                                                              0000000001880115315300000000000000000808905S
0919790410842139PINILLA DEL CAMPO                                                                                   0000000000400102902900000000000000000002605S
0919790410842140PORTILLO DE SORIA                                                                                   0000000000360103003000000000000000000101505S
0819790410842142POZALMURO                                                                                           0000000001600112912900000000000000000708505S
0919790410842148QUIÑONERÍA, LA                                                                                      0000000000390103403400000000000000000002605S
0919790410842151REBOLLAR                                                                                            0000000000590105205200000000000000000504505S
0919790410842153RELLO                                                                                               0000000000970107407400000000000000000405605S
0819790410842154RENIEBLAS                                                                                           0000000001750113413400000000000000000306605S
0919790410842156REZNOS                                                                                              0000000000880106906900000000000000000502805S
0919790410842157RIBA DE ESCALOTE, LA                                                                                0000000000750106906900000000000000000203605S
0919790410842159ROLLAMIENTA                                                                                         0000000000690106606600000000000000001803205S
0919790410842166SANTA CRUZ DE YANGUAS                                                                               0000000000780107507500000000000000000103905S
0919790410842172SOLIEDRA                                                                                            0000000000640105005000000000000000000003205S
0919790410842175SUELLACABRAS                                                                                        0000000000820107307300000000000000000203505S
0919790410842176TAJAHUERCE                                                                                          0000000000670105305300000000000000000203405S
0819790410842177TAJUECO                                                                                             0000000002330119519500000000000000001212805S
0819790410842158RIOSECO DE SORIA                                                                                    0000000002330120020000000000000000001410405S
0819790410842163SAN FELICES                                                                                         0000000001720114914900000000000000000408005S
0819790410842168SANTA MARÍA DE LAS HOYAS                                                                            0000000002420119119100000000000000000513905S
0819790410842182TARODA                                                                                              0000000001430111111100000000000000000007005S
0819790410842184TORLENGUA                                                                                           0000000001860115315300000000000000000308505S
0919790410842185TORREBLACOS                                                                                         0000000000930107907900000000000000000005205S
0819790410842187TORRUBIA DE SORIA                                                                                   0000000001850114514500000000000000000506605S
0819790410842188TREVAGO                                                                                             0000000001360111011000000000000000001005705S
0819790410842189UCERO                                                                                               0000000001340111411400000000000000000206405S
0919790410842192VALDEGEÑA                                                                                           0000000000920106706700000000000000000303605S
0919790410842193VALDELAGUA DEL CERRO                                                                                0000000000880107107100000000000000000004505S
0919790410842196VALDEPRADO                                                                                          0000000000680107007000000000000000000004405S
0919790410842198VALTAJEROS                                                                                          0000000000620105405400000000000000000002805S
0919790410842201VELILLA DE LA SIERRA                                                                                0000000000290102702700000000000000000101605S
0919790410842202VELILLA DE LOS AJOS                                                                                 0000000000860107707700000000000000000305805S
0819790410842204VIANA DE DUERO                                                                                      0000000001690114414400000000000000000407705S
0819790410842205VILLACIERVOS                                                                                        0000000001570112012000000000000000000007705S
0919790410842206VILLANUEVA DE GORMAZ                                                                                0000000000340102902900000000000000000002205S
0919790410842207VILLAR DEL ALA                                                                                      0000000000850108008000000000000000000203805S
0919790410842208VILLAR DEL CAMPO                                                                                    0000000000920107807800000000000000000504805S
0819790410842211VILLARES DE SORIA, LOS                                                                              0000000001270110210200000000000000000106805S
0819790410842212VILLASAYAS                                                                                          0000000001710114914900000000000000000412005S
0919790410842213VILLASECA DE ARCIEL                                                                                 0000000000940107807800000000000000000303705S
0919790410842216VIZMANOS                                                                                            0000000000780106406400000000000000000002705S
0919790410842217VOZMEDIANO                                                                                          0000000000960108208200000000000000000004505S
0819790410842218YANGUAS                                                                                             0000000001180112312300000000000000000006705S
0819790410842219YELO                                                                                                0000000001360111411400000000000000001206005S
0819790410847001ADALIA                                                                                              0000000001210108308300000000000000000006505S
0919790410847002AGUASAL                                                                                             0000000000330103103100000000000000000002505S
0919790410847008ALMENARA DE ADAJA                                                                                   0000000000700105805800000000000000000003005S
0819790410847013BARCIAL DE LA LOMA                                                                                  0000000002380121421400000000000000000808105S
0819790410847014BARRUELO DEL VALLE                                                                                  0000000001010107007000000000000000000204305S
0819790410847016BENAFARCES                                                                                          0000000001370112012000000000000000000000005S
0919790410847018BERCERUELO                                                                                          0000000000390103803800000000000000000102205S
0819790410847021BOCIGAS                                                                                             0000000001380110610600000000000000000008905S
0819790410847022BOCOS DE DUERO                                                                                      0000000001360111411400000000000000000507205S
0819790410847025BRAHOJOS DE MEDINA                                                                                  0000000002460117517500000000000000000413405S
0819790410847026BUSTILLO DE CHAVES                                                                                  0000000001420110610600000000000000000308305S
0919790410847028CABEZÓN DE VALDERADUEY                                                                              0000000000810106006000000000000000000404805S
0819790410847029CABREROS DEL MONTE                                                                                  0000000002090115015000000000000000002107505S
0819790410847034CANILLAS DE ESGUEVA                                                                                 0000000002500121621600000000000000001611205S
0819790410847019BERRUECES                                                                                           0000000002060117417400000000000000000514905S
0819790410842190VADILLO                                                                                             0000000002420118818800000000000000000210805S
0819790410842197VALDERRODILLA                                                                                       0000000002060116616600000000000000000209905S
0819790411010083GARVÍN                                                                                              0000000002100117717700000000000000000209005S
0819790411626055CORPORALES                                                                                          0000000001050108808800000000000000000108105S
0819790411626049CIHURI                                                                                              0000000002380118218200000000000000000214805S
0819790411626050CIRUEÑA                                                                                             0000000001970115615600000000000000000313505S
0819790411626051CLAVIJO                                                                                             0000000002070115315300000000000000000211805S
0919790411626045CELLORIGO                                                                                           0000000000390103603600000000000000000102105S
0919790411626048CIDAMÓN                                                                                             0000000000940105905900000000000000001403405S
0919790411626057DAROCA DE RIOJA                                                                                     0000000000650105105100000000000000000003905S
0819790411626058ENCISO                                                                                              0000000002310120720700000000000000000518105S
0819790411626060ESTOLLO                                                                                             0000000002500119619600000000000000001508105S
0819790411626062FONCEA                                                                                              0000000002020115415400000000000000001009805S
0819790411626063FONZALECHE                                                                                          0000000002390119819800000000000000000008005S
0919790411626065GALBÁRRULI                                                                                          0000000000660105005000000000000000000502405S
0919790411626068GIMILEO                                                                                             0000000000890107307300000000000000000006205S
0919790411626077HORNILLOS DE CAMEROS                                                                                0000000000380102802800000000000000000002105S
0819790411626078HORNOS DE MONCALVILLO                                                                               0000000001170109909900000000000000000205605S
0919790411626081JALÓN DE CAMEROS                                                                                    0000000000380103303300000000000000000102805S
0819790411626082LAGUNA DE CAMEROS                                                                                   0000000002140116016000000000000000000113605S
0919790411626086LEDESMA DE LA COGOLLA                                                                               0000000000350103203200000000000000000102605S
0919790411626088LEZA DE RÍO LEZA                                                                                    0000000000260102302300000000000000000201505S
0819790411626091LUMBRERAS                                                                                           0000000001770116016000000000000000000112805S
0819790411626092MANJARRÉS                                                                                           0000000001850114014000000000000000000011505S
0919790411626093MANSILLA DE LA SIERRA                                                                               0000000000810106206200000000000000000404705S
0819790411626094MANZANARES DE RIOJA                                                                                 0000000002490119919900000000000000001510405S
0819790411626098MUNILLA                                                                                             0000000001400111511500000000000000000408805S
0819790411712113TOGA                                                                                                0000000001420111211200000000000000000703705S
0919790411712087PALANQUES                                                                                           0000000000420103703700000000000000000002405S
0919790411712088PAVIAS                                                                                              0000000000900107507500000000000000000003905S
0919790411712097SACAÑET                                                                                             0000000000430104004000000000000000000002505S
0819790411712103SARRATELLA                                                                                          0000000001980115215200000000000000002308205S
0819790411712112TODOLELLA                                                                                           0000000002240119919900000000000000000504905S
0919790411712116TORRALBA DEL PINAR                                                                                  0000000000880108608600000000000000000005505S
0919790411712118TORRECHIVA                                                                                          0000000000850107407400000000000000000204605S
0819790411712131VILLAMALUR                                                                                          0000000002440120020000000000000000000310505S
0919790411626100MURO DE AGUAS                                                                                       0000000000460104304300000000000000000002305S
0919790411626101MURO EN CAMEROS                                                                                     0000000000600105605600000000000000000004005S
0919790411626104NAVAJUN                                                                                             0000000000260102102100000000000000000002105S
0919790411626106NESTARES                                                                                            0000000000300102602600000000000000000001905S
0819790411626107NIEVA DE CAMEROS                                                                                    0000000001490112712700000000000000000410605S
0819790411626109OCHÁNDURI                                                                                           0000000001830115715700000000000000000208905S
0919790411626113PAZUENGOS                                                                                           0000000000540103703700000000000000000001705S
0819790411626114PEDROSO                                                                                             0000000001480112412400000000000000001205605S
0919790411626115PINILLOS                                                                                            0000000000330102402400000000000000000401305S
0919790411626118PRADILLO                                                                                            0000000000950106406400000000000000000106305S
0919790411626121RABANERA                                                                                            0000000000260102302300000000000000000101705S
0819790411626122RASILLO DE CAMEROS, EL                                                                              0000000001030108108100000000000000000407105S
0919790411626126ROBRES DEL CASTILLO                                                                                 0000000000490104504500000000000000000103105S
0819790411626128SAJAZARRA                                                                                           0000000002350120020000000000000000000412705S
0819790411626131SAN MILLÁN DE YÉCORA                                                                                0000000001200109609600000000000000000406705S
0819790411626132SAN ROMÁN DE CAMEROS                                                                                0000000001870115615600000000000000000308705S
0819790411626134SANTA COLOMA                                                                                        0000000002030116216200000000000000000908805S
0819790411626136SANTA EULALIA BAJERA                                                                                0000000001560113613600000000000000000007605S
0819790411712133VILLANUEVA DE VIVER                                                                                 0000000001840115515500000000000000000007205S
0819790411712137VILLORES                                                                                            0000000001400111711700000000000000000605105S
0819790411712141ZORITA DEL MAESTRAZGO                                                                               0000000001840115215200000000000000001208705S
0819790410847125POZUELO DE LA ORDEN                                                                                 0000000001530112412400000000000000001107105S
0919790410847126PURAS                                                                                               0000000000880106106100000000000000000104405S
0819790410847128QUINTANILLA DEL MOLAR                                                                               0000000001260109909900000000000000000000005S
0819790410847130QUINTANILLA DE TRIGUEROS                                                                            0000000001120109009000000000000000000207905S
0819790410847132RAMIRO                                                                                              0000000001470109309300000000000000000207905S
0819790410847135ROBLADILLO                                                                                          0000000001150108008000000000000000000505505S
0919790410847137ROTURAS                                                                                             0000000000600105205200000000000000000000005S
0819790410847144SAN MARTÍN DE VALVENI                                                                               0000000001390111511500000000000000000108505S
0819790410847146SAN MIGUEL DEL PINO                                                                                 0000000002470117117100000000000000000512905S
0819790410847147SAN PABLO DE LA MORALEJA                                                                            0000000002430120220200000000000000000216505S
0919790410847149SAN PELAYO                                                                                          0000000000500104204200000000000000000203505S
0919790410847151SAN SALVADOR                                                                                        0000000000490104204200000000000000000002705S
0819790410847152SANTA EUFEMIA DEL ARROYO                                                                            0000000001640115315300000000000000000011105S
0819790410847154SANTIBÁÑEZ DE VALCORBA                                                                              0000000002220117417400000000000000000114105S
0819790410847162TAMARIZ DE CAMPOS                                                                                   0000000001470112312300000000000000000407605S
0919790410847168TORRECILLA DE LA TORRE                                                                              0000000000530104304300000000000000000402805S
0819790410847169TORRE DE ESGUEVA                                                                                    0000000001850114814800000000000000000206105S
0819790410847170TORRE DE PEÑAFIEL                                                                                   0000000001430111111100000000000000000009305S
0819790410847177URONES DE CASTROPONCE                                                                               0000000002360116116100000000000000000000005S
0819790410847180VALDEARCOS DE LA VEGA                                                                               0000000002020117117100000000000000001010005S
0819790410847185VALVERDE DE CAMPOS                                                                                  0000000001630112512500000000000000000108005S
0819790410847188VEGA DE VALDETRONCO                                                                                 0000000002020115915900000000000000000213705S
0819790410847189VELASCALVARO                                                                                        0000000002280115615600000000000000001011005S
0819790410847190VELILLA                                                                                             0000000001940114314300000000000000002906705S
0819790411010097HIGUERA                                                                                             0000000002060115615600000000000000000211005S
0819790411010156ROBLEDILLO DE GATA                                                                                  0000000002380118618600000000000000000810205S
0819790411010161RUANES                                                                                              0000000001730112412400000000000000000110205S
0819790411010174SEGURA DE TORO                                                                                      0000000002190117117100000000000000001004905S
0819790411626143SOJUELA                                                                                             0000000001270110710700000000000000000906905S
0819790411626146SOTO EN CAMEROS                                                                                     0000000001490112112100000000000000000108005S
0919790411626147TERROBA                                                                                             0000000000260102502500000000000000000002205S
0919790411626149TOBIA                                                                                               0000000000830107607600000000000000000206005S
0819790411626152TORRECILLA SOBRE ALESANCO                                                                           0000000001380110810800000000000000000108105S
0919790411626154TORREMONTALBO                                                                                       0000000000250101801800000000000000000201105S
0919790411626161VALDEMADERA                                                                                         0000000000430103603600000000000000000001405S
0819790411626162VALGAÑÓN                                                                                            0000000002150117617600000000000000001111305S
0819790411626163VENTOSA                                                                                             0000000002150117417400000000000000000311905S
0919790411626164VENTROSA                                                                                            0000000000970109309300000000000000000407005S
0819790411626166VILLALBA DE RIOJA                                                                                   0000000002240117717700000000000000000212705S
0819790411626167VILLALOBAR DE RIOJA                                                                                 0000000002270120620600000000000000000613705S
0819790411626169VILLANUEVA DE CAMEROS                                                                               0000000001620112012000000000000000000408505S
0919790411626172VILLAREJO                                                                                           0000000000940107607600000000000000000104005S
0919790411626175VILLAVELAYO                                                                                         0000000000750106106100000000000000000204605S
0819790411626176VILLAVERDE DE RIOJA                                                                                 0000000001320110710700000000000000001006205S
0819790411626178VINIEGRA DE ABAJO                                                                                   0000000001440112412400000000000000000706505S
0919790411626179VINIEGRA DE ARRIBA                                                                                  0000000000510104204200000000000000000402505S
0919790411626183ZORRAQUÍN                                                                                           0000000000580105005000000000000000000503405S
0819790411703007ALCOCER DE PLANES                                                                                   0000000001660114114100000000000000000710405S
0819790411746038ANDILLA                                                                                             0000000001980118818800000000000000000004305S
0819790411746043AIELO DE RUGAT                                                                                      0000000002210118218200000000000000000711805S
0819790411703016ALMUDAINA                                                                                           0000000001760115215200000000000000000509305S
0819790411703020BALONES                                                                                             0000000002180117717700000000000000004116105S
0819790411703032BENIFALLIM                                                                                          0000000001720114314300000000000000000211205S
0819790411703033BENIFATO                                                                                            0000000001510113213200000000000000000009105S
0919790411703036BENILLUP                                                                                            0000000000660104504500000000000000000003305S
0819790411703039BENIMASSOT                                                                                          0000000001190109609600000000000000000106705S
0919790411746086CARRÍCOLA                                                                                           0000000000830106506500000000000000000105505S
0919790411746091CASTELLONET DE LA CONQUES                                                                           0000000000940107707700000000000000000104805S
0919790410847196VILLABARUZ DE CAMPOS                                                                                0000000000790106506500000000000000000604105S
0819790410847198VILLACARRALÓN                                                                                       0000000002150118118100000000000000000000005S
0819790410847199VILLACID DE CAMPOS                                                                                  0000000001820116816800000000000000000310805S
0819790410847200VILLACO                                                                                             0000000002280117117100000000000000000509405S
0819790410847206VILLAFUERTE                                                                                         0000000002430120120100000000000000000215805S
0819790410847208VILLAGÓMEZ LA NUEVA                                                                                 0000000001850115515500000000000000000708105S
0819790410847213VILLALBARBA                                                                                         0000000002200118018000000000000000000913005S
0819790410847215VILLAMURIEL DE CAMPOS                                                                               0000000001050108608600000000000000000000005S
0819790410847216VILLÁN DE TORDESILLAS                                                                               0000000001750113713700000000000000000000005S
0919790410847219VILLANUEVA DE LA CONDESA                                                                            0000000000580104504500000000000000000203305S
0819790411746050BENAGEBER                                                                                           0000000001940112512500000000000000000005105S
0819790411746061BENIFLÁ                                                                                             0000000001700112512500000000000000000307805S
0819790411746069BENISUERA                                                                                           0000000002260117717700000000000000000715405S
0919790410847209VILLALÁN DE CAMPOS                                                                                  0000000000730105405400000000000000000203105S
0919790410847211VILLALBA DE LA LOMA                                                                                 0000000000940108308300000000000000000000005S
0819790410847221VILLANUEVA DE LOS INFANTES                                                                          0000000001810112212200000000000000001308305S
0819790410847222VILLANUEVA DE SAN MANCIO                                                                            0000000001210109009000000000000000000008205S
0819790410847224VILLARMENTERO DE ESGUEVA                                                                            0000000001340110210200000000000000005407805S
0819790410847225VILLASEXMIR                                                                                         0000000001600112612600000000000000000109905S
0819790410847227VILLAVELLID                                                                                         0000000001500111811800000000000000000109205S
0819790410847232ZARZA, LA                                                                                           0000000001920114414400000000000000000211205S
0819790410849002ABEZAMES                                                                                            0000000001870116916900000000000000000611105S
0819790410849012ARGAÑÍN                                                                                             00000000017601000000000000000000000000000   
S                                                                                                                                                               
                                                                                                                                                                
0819790411010199VALDEHÚNCAR                                                                                         0000000002060116416400000000000000002108305S
0819790411703067FACHECA                                                                                             0000000001900115915900000000000000000710005S
0819790411703068FAMORCA                                                                                             0000000001520113213200000000000000000108505S
0819790411703075GUADALEST                                                                                           0000000001580113313300000000000000000308805S
0819790411703086MILLENA                                                                                             0000000001310110610600000000000000000008805S
0919790411703130TOLLOS                                                                                              0000000000630106006000000000000000000002905S
0819790411703134VALL D'ALCALA, LA                                                                                   0000000002230117917900000000000000000213705S
0819790411712002AÍN                                                                                                 0000000001870116116100000000000000000111305S
0819790411712013ARAÑUEL                                                                                             0000000001620115615600000000000000001309005S
0819790411712015ARGELITA                                                                                            0000000001410111111100000000000000000207005S
0819790411712017AYODAR                                                                                              0000000002320120820800000000000000000712705S
0819790411712020BARRACAS                                                                                            0000000002290117817800000000000000002009705S
0819790411712024BENAFER                                                                                             0000000001480112312300000000000000001907305S
0919790411712037CASTELL DE CABRES                                                                                   0000000000390102102100000000000000000000005S
0919790411626012ALMARZA DE CAMEROS                                                                                  0000000000420103303300000000000000000402405S
0919790411626016ARENZANA DE ARRIBA                                                                                  0000000000630105705700000000000000000002305S
0919790411626029BERGASILLAS BAJERA                                                                                  0000000000400102702700000000000000000002305S
0919790411626030BEZARES                                                                                             0000000000370102602600000000000000000002205S
0819790411626031BOBADILLA                                                                                           0000000002420119119100000000000000000914305S
0919790411626032BRIEVA DE CAMEROS                                                                                   0000000000960108408400000000000000000006005S
0819790411626033BRIÑAS                                                                                              0000000002410119619600000000000000000216105S
0919790411626035CABEZÓN DE CAMEROS                                                                                  0000000000310102702700000000000000000102205S
0819790411626038CANALES DE LA SIERRA                                                                                0000000001140108908900000000000000000008405S
0819790411626039CANILLAS DE RÍO TUERTO                                                                              0000000001060108208200000000000000000005405S
0819790411626040CAÑAS                                                                                               0000000001520111811800000000000000000210205S
0919790411626044CASTROVIEJO                                                                                         0000000000410102802800000000000000000002205S
0819790411712055CHODOS / XODOS                                                                                      0000000002160117617600000000000000000107905S
0919790411712058ESPADILLA                                                                                           0000000000610105905900000000000000000204505S
0919790411712063FUENTE LA REINA                                                                                     0000000000520104904900000000000000000002405S
0919790411712064FUENTES DE AYODAR                                                                                   0000000000920107007000000000000000000305305S
0819790411712068HERBES                                                                                              0000000001720116616600000000000000000010105S
0919790411712069HIGUERAS                                                                                            0000000000570105105100000000000000000003405S
0819790411712076MATET                                                                                               0000000002140118618600000000000000000914305S
0819790411712083OLOCAU DEL REY                                                                                      0000000002050117117100000000000000000210705S
0819790411010028BERROCALEJO                                                                                         0000000001960116516500000000000000001209405S
0819790411010038CACHORRILLA                                                                                         0000000002070117717700000000000000000107905S
0919790410943061FORES                                                                                               0000000000770106606600000000000000000205005S
0819790410943089MONTFERRI                                                                                           0000000001640115815800000000000000000410105S
0819790410849028BRIME DE URZ                                                                                        0000000002190117117100000000000000001008205S
0919790411626004AJAMIL                                                                                              0000000000780106506500000000000000001804405S
0819790411626010ALESÓN                                                                                              0000000001870115115100000000000000000512105S
0819790411010027BENQUERENCIA                                                                                        0000000001310112012000000000000000000208905S
0819790410943066GARIDELLS, ELS                                                                                      0000000001600111011000000000000000000009905S
0819790410943072LLOAR, EL                                                                                           0000000002100116016000000000000000000412405S
0819790410943073LLORAC                                                                                              0000000001130109009000000000000000000005905S
0819790410943075MARGALEF                                                                                            0000000002060118118100000000000000000008805S
0819790410943083MILA, EL                                                                                            0000000001550111911900000000000000000109705S
0819790410943090MONTMELL, EL                                                                                        0000000001620113413400000000000000000009005S
0919790410943091MONT-RAL                                                                                            0000000000960107207200000000000000000105605S
0819790410943096MORERA DE MONTSANT, LA                                                                              0000000001520110610600000000000000000108105S
0819790410943105PILES, LES                                                                                          0000000001300111811800000000000000000006305S
0819790411331244URROTZ                                                                                              0000000002490119119100000000000000000014705S
0819790411331237UNCITI                                                                                              0000000001890117517500000000000000000712305S
0819790411331238UNZUE                                                                                               0000000001320111011000000000000000000508505S
0819790411331241URRAÚL ALTO                                                                                         0000000001780114014000000000000000000507105S
0819790411331245URZAINQUI                                                                                           0000000001650113613600000000000000000009605S
0819790411331246UTERGA                                                                                              0000000001390111911900000000000000000409005S
0819790411331252VIDANGOZ/BIDANKOZE                                                                                  0000000001440111911900000000000000000207005S
0819790411331253BIDAURRETA                                                                                          0000000001340111811800000000000000000009405S
0819790411331255VILLAMAYOR DE MONJARDÍN                                                                             0000000001230109609600000000000000000007805S
0819790411331256HIRIBERRI/VILLANUEVA DE AEZCOA                                                                      0000000002210118418400000000000000000512605S
0819790411331262ZABALZA                                                                                             0000000001590111911900000000000000000908005S
0919790411228124ROBLEDILLO DE LA JARA                                                                               0000000000940107907900000000000000000000005S
0919790411228138SERNA DEL MONTE, LA                                                                                 0000000000830105805800000000000000001304005S
0819790411228143SOMOSIERRA                                                                                          0000000001230111011000000000000000003502905S
0819790411228153TORREMOCHA DE JARAMA                                                                                0000000001480112312300000000000000000010405S
0819790411401021ELBURGO/BURGELU                                                                                     0000000002200118618600000000000000007910705S
0819790411331265ZUÑIGA                                                                                              0000000001470112012000000000000000000000005S
0819790411401006ARMIÑON                                                                                             0000000001840114714700000000000000000509505S
0819790411401019KRIPAN                                                                                              0000000002350117817800000000000000000211205S
0819790411401034LEZA                                                                                                0000000001960117017000000000000000001909505S
0819790411401041NAVARIDAS                                                                                           0000000002350118818800000000000000000912805S
0819790411401061ZALDUONDO                                                                                           0000000001280112112100000000000000000110705S
0819790410849228VALDEFINJAS                                                                                         0000000001560111611600000000000000000309605S
0819790410849236VIDAYANES                                                                                           0000000001760112212200000000000000000908905S
0819790410849244VILLAGERIZ                                                                                          0000000001090108108100000000000000000306005S
0819790410849249VILLALONSO                                                                                          0000000002460120720700000000000000001810305S
0819790410849263VILLAR DE FALLAVES                                                                                  0000000001460111911900000000000000000107605S
0819790410849266VILLARDIGA                                                                                          0000000001730115415400000000000000000510605S
0819790410849267VILLARDONDIEGO                                                                                      0000000002190116616600000000000000000311105S
0819790410908297VECIANA                                                                                             0000000002500120120100000000000000000210905S
0819790410908306VILALBA SASSERRA                                                                                    0000000001810117017000000000000000000411605S
0819790410917003ALBANYA                                                                                             0000000001480112312300000000000000000006405S
0919790410917014VAJOL, LA                                                                                           0000000000680106406400000000000000000005005S
0819790410849272VILLAVEZA DE VALVERDE                                                                               0000000002030115715700000000000000000507005S
0819790410908002AGUILAR DE SEGARRA                                                                                  0000000002270119619600000000000000000015205S
0819790410908008ARGENÇOLA                                                                                           0000000001980115715700000000000000000206805S
0819790410908021BELLPRAT                                                                                            0000000001110109109100000000000000000104705S
0819790410908026BRULL, EL                                                                                           0000000001830114814800000000000000000311105S
0819790410908028CABRERA D'ANOIA                                                                                     0000000001270109009000000000000000000007705S
0819790410908036CALONGE DE SEGARRA                                                                                  0000000002080117517500000000000000000008505S
0919790410925031ARRES                                                                                               0000000000620105405400000000000000000004705S
0919790410925032ARSEGUEL                                                                                            0000000000830108008000000000000000000007105S
0819790410917021BEUDA                                                                                               0000000001350111311300000000000000000209205S
0819790410917024BOLVIR                                                                                              0000000002210117117100000000000000000811205S
0819790410917043QUERALBS                                                                                            0000000002330117017000000000000000000015105S
0819790410917055COLOMERS                                                                                            0000000002350119419400000000000000000416005S
0819790410925001ABELLA DE LA CONCA                                                                                  0000000002010116316300000000000000000410805S
0819790410925022ALOS DE BALAGUER                                                                                    0000000001630113013000000000000000000007905S
0819790410925030PONT DE BAR, EL                                                                                     0000000002160120420400000000000000000611205S
0819790410917051CISTELLA                                                                                            0000000002420118718700000000000000001010505S
0819790410917052SIURANA                                                                                             0000000001840114614600000000000000000004905S
0819790410917058CRESPIÁ                                                                                             0000000002330119719700000000000000000515105S
0819790410917061DAS                                                                                                 0000000001450110310300000000000000000207205S
0819790410943120QUEROL                                                                                              0000000001150110410400000000000000000206605S
0819790410943141PONTILS                                                                                             0000000001050108408400000000000000000007305S
0919790410943143SAVALLA DEL COMTAT                                                                                  0000000000690106406400000000000000000003405S
0919790410925045BAUSEN                                                                                              0000000000730107707700000000000000005900005S
0819790410925049BELLMUNT D'URGELL                                                                                   0000000002400120320300000000000000000012105S
0819790410925057BORDES, ES                                                                                          0000000001780115115100000000000000000012405S
0819790410925060CABANABONA                                                                                          0000000001500112412400000000000000000206005S
0819790410925061CABO                                                                                                0000000001790116316300000000000000000308305S
0819790410925063CANEJÁN                                                                                             0000000001520113313300000000000000000109805S
0819790410925064CASTELLAR DE LA RIBERA                                                                              0000000002000115515500000000000000000306305S
0919790410925071CAVA                                                                                                0000000000650106506500000000000000000005305S
0819790410925075CLARIANA DE CARDENER                                                                                0000000002400117717700000000000000000214505S
0819790410925082ESPOT                                                                                               0000000002440119419400000000000000000312705S
0819790410925085ESTARAS                                                                                             0000000002270117917900000000000000000105705S
0919790410925087ESTERRI DE CARDOS                                                                                   0000000000610105505500000000000000000004305S
0819790410925088ESTAMARIU                                                                                           0000000001440112012000000000000000000007505S
0819790410925092FLORESTA, LA                                                                                        0000000002100118218200000000000000000212605S
0819790410925094FORADADA                                                                                            0000000001820115415400000000000000000011205S
0819790411228166VALVERDE DE ALCALÁ                                                                                  0000000002240118218200000000000000000312605S
0819790411228169VENTURADA                                                                                           0000000001280110210200000000000000003206105S
0819790411228182VILLAVIEJA DEL LOZOYA                                                                               0000000001920114714700000000000000003207605S
0819790411228913ROBREGORDO                                                                                          0000000001500112712700000000000000000608105S
0819790411331001ABAIGAR                                                                                             0000000001050109209200000000000000000207105S
0819790411331003ABAURREGAINA/ABAURREA ALT                                                                           0000000002320118618600000000000000000111705S
0919790411331004ABAURREPEA/ABAURREA BAJA                                                                            0000000000590105605600000000000000000004605S
0919790410943146SENAN                                                                                               0000000000280102602600000000000000000001605S
0919790410943151TORRE DE FONTAUBELLA, LA                                                                            0000000000920106706700000000000000000103905S
0819790410943154TORROJA DEL PRIORAT                                                                                 0000000001930114414400000000000000000008005S
0919790410943158VALLCLARA                                                                                           0000000000960108108100000000000000000106805S
0819790410943159VALLFOGONA DE RIUCORB                                                                               0000000001480112112100000000000000000206005S
0919790410943164VESPELLA DE GAIA                                                                                    0000000000800105005000000000000000000004405S
0819790410943168VILANOVA DE PRADES                                                                                  0000000001870115515500000000000000000310705S
0819790410943173VILELLA ALTA, LA                                                                                    0000000001730113613600000000000000000109905S
0819790411420012ARAMA                                                                                               0000000001960114714700000000000000000211305S
0819790411420020BEIZAMA                                                                                             0000000001950115115100000000000000000113605S
0819790411420037GAINTZA                                                                                             0000000001700114214200000000000000000011305S
0819790411331024ARANO                                                                                               00000000000001000000000000000000000000000   
S                                                                                                                                                               
                                                                                                                                                                
0819790411331007ADIOS                                                                                               00000000000001000000000000000000000000000   
S                                                                                                                                                               
                                                                                                                                                                
0819790411331008AGUILAR DE CODES                                                                                    0000000002340118218200000000000000000414605S
0819790411331021ARANARACHE                                                                                          0000000001200109809800000000000000000406905S
0819790411331028ARCE/ARTZI                                                                                          0000000002430120820800000000000000000314305S
0919790411331033ARIA                                                                                                0000000000830107507500000000000000000104405S
0819790411331034ARIVE                                                                                               0000000001000107207200000000000000000105705S
0819790411331035ARMAÑANZAS                                                                                          00000000000001000000000000000000000000000   
S                                                                                                                                                               
                                                                                                                                                                
0819790411331037ARRUAZU                                                                                             0000000001530111411400000000000000000607405S
0819790411331039ARTAZU                                                                                              0000000001380110210200000000000000000108105S
0819790411331040ATEZ                                                                                                0000000002420120520500000000000000001509405S
0819790411331043AZUELO                                                                                              0000000001100108408400000000000000000105605S
0819790411331046BARBARÍN                                                                                            0000000001550111011000000000000000000209205S
0819790411331048BARILLAS                                                                                            0000000001990114714700000000000000000113205S
0919790411331052BELASCOÁIN                                                                                          0000000000940106206200000000000000000105005S
0819790411331056BIURRUN-OLCOZ                                                                                       0000000002220117817800000000000000000214205S
0919790411331061BUSTO, EL                                                                                           0000000001530111811800000000000000000608705S
0819790411420048LARRAUL                                                                                             0000000002030115915900000000000000000309205S
0819790411420060OREXA                                                                                               0000000001090108908900000000000000000007205S
0819790411420068LEINTZ-GATZAGA                                                                                      0000000002430118818800000000000000000313405S
0819790411448005ARAKALDO                                                                                            0000000001530112712700000000000000000709305S
0819790410908039CAMPINS                                                                                             0000000001580113213200000000000000002709305S
0819790410908045CAPOLAT                                                                                             0000000001800107607600000000000000000004205S
0819790410908050CASTELLAR DEL RIU                                                                                   0000000001790105105100000000000000000002405S
0819790410908052CASTELLAR DE N'HUG                                                                                  0000000001470112712700000000000000000605505S
0819790410908055CASTELLCIR                                                                                          0000000002280116016000000000000000000509705S
0919790410908057CASTELL DE L'ARENY                                                                                  0000000000480103803800000000000000000001705S
0919790410908062CASTELLNOU DE BAGES                                                                                 0000000000840106106100000000000000000103605S
0819790410908070COLLSUSPINA                                                                                         0000000001980113813800000000000000000306605S
0819790410917070FONTANILLES                                                                                         0000000001530111411400000000000000000109905S
0819790410917076GARRIGOLES                                                                                          0000000001640113313300000000000000000108105S
0819790410917082GUILS DE CERDANYA                                                                                   0000000002210118118100000000000000000315605S
0819790410917084ISOVOL                                                                                              0000000002270118918900000000000000000113205S
0819790410917097MADREMANYA                                                                                          0000000002110117617600000000000000000212805S
0919790410917099MERANGES                                                                                            0000000000700106406400000000000000000004205S
0819790410917106MOLLET DE PERALADA                                                                                  0000000002120118218200000000000000000310605S
0919790410908080FÍGOLS                                                                                              0000000000570104004000000000000000000002505S
0919790410908087GALLIFA                                                                                             0000000000760105905900000000000000000004005S
0819790410908090GAIA                                                                                                0000000002200114914900000000000000000308805S
0919790410908095GRANERA                                                                                             0000000000530104104100000000000000000002705S
0819790410925097FULLEDA                                                                                             0000000001160109909900000000000000000407605S
0819790410925100GOSOL                                                                                               0000000002210119419400000000000000000311505S
0819790410925103GRANYANELLA                                                                                         0000000001680113413400000000000000000006205S
0819790410925104GRANYENA DE SEGARRA                                                                                 0000000002290119919900000000000000000512505S
0919790410925106FARRERA                                                                                             0000000000730109709700000000000000000003205S
0819790410925111GUIXERS                                                                                             0000000002020115915900000000000000000008805S
0819790410925114IVORRA                                                                                              0000000002150117617600000000000000000011305S
0819790410925123LLADORRE                                                                                            0000000002040117917900000000000000000612005S
0819790410925128LLIMIANA                                                                                            0000000001910116416400000000000000000011105S
0819790410925132MASSOTERES                                                                                          0000000002430120320300000000000000000512505S
0819790410925136MOLSOSA, LA                                                                                         0000000001580112612600000000000000000408805S
0819790410925141MONTOLIÚ DE SEGARRA                                                                                 0000000002190119619600000000000000000309505S
0919790410917119PALAU DE SANTA EULALIA                                                                              0000000000950107207200000000000000000004305S
0919790410917122PALMEROLA                                                                                           0000000000330103703700000000000000000002405S
0819790410917125PARDINES                                                                                            0000000001550111511500000000000000000007405S
0819790410917129PEDRET I MARZA                                                                                      0000000001340110010000000000000000000108705S
0819790410917143RABOS                                                                                               0000000001630115415400000000000000000706505S
0819790410917151RIUMORS                                                                                             0000000002260119119100000000000000000511105S
0819790410917153RUPIA                                                                                               0000000002440120320300000000000000000216805S
0919790410917154SALES DE LLIERCA                                                                                    0000000000560104204200000000000000000002105S
0819790410917157SANT ANDREU SALOU                                                                                   0000000002030115215200000000000000000510405S
0919790411006032CARRASCALEJO, EL                                                                                    0000000000960107907900000000000000000003205S
0819790411746121ESTUBENY                                                                                            0000000001740112612600000000000000000011405S
0919790411746140GUARDAMAR DE LA SAFOR                                                                               0000000000670105705700000000000000000003205S
0819790411746152LUGAR NUEVO DE LA CORONA                                                                            0000000001100108708700000000000000000304305S
0819790410925143MONTORNES DE SEGARRA                                                                                0000000001600113413400000000000000000406905S
0819790410925145NALEC                                                                                               0000000001150109309300000000000000000505105S
0819790410925154OMELLS DE NA GAIA, ELS                                                                              0000000001780114814800000000000000000112005S
0819790410925175PRATS I SANSOR                                                                                      0000000001260109409400000000000000000107405S
0819790410925179PRULLANS                                                                                            0000000002050117617600000000000000000410805S
0819790411331063CABREDO                                                                                             0000000001900116216200000000000000000811805S
0919790411331071CASTILLONUEVO                                                                                       0000000000200101901900000000000000000000005S
0919790411331075CIRIZA                                                                                              0000000000610102302300000000000000000102105S
0819790411331079DESOJO                                                                                              0000000002380120520500000000000000000313205S
0919790411331083ECHARRI                                                                                             0000000000330102302300000000000000000102105S
0819790411331087ELGORRIAGA                                                                                          0000000002090114914900000000000000001508005S
0819790411331089ENÉRIZ                                                                                              0000000002180115115100000000000000000611905S
0819790411331095ESPARZA DE SALAZAR                                                                                  0000000001950115915900000000000000000710405S
0819790411331099ETAYO                                                                                               0000000001330110510500000000000000000308205S
0919790411331103EZPROGUI                                                                                            0000000000850106406400000000000000000204605S
0819790411448039GARAY                                                                                               0000000002260118918900000000000000000313105S
0819790411448047GUIZABURUAGA                                                                                        0000000001600113313300000000000000000108105S
0819790410849044CAZURRA                                                                                             0000000001290100000000000000000000000000005S
0819790410849059CUELGAMURES                                                                                         0000000001760114814800000000000000000212305S
0819790410849061ENTRALA                                                                                             0000000002050116516500000000000000000910905S
0819790410849083FUENTESECAS                                                                                         0000000001590112912900000000000000000309505S
0819790410849086GALLEGOS DEL PAN                                                                                    0000000002410118818800000000000000001910705S
0819790410849088GAMONES                                                                                             0000000001890117617600000000000000000110605S
0819790411331110GALLIPIENZO                                                                                         0000000001780115315300000000000000003406405S
0819790411331111GALLUES/GAZOLE                                                                                      0000000001470112812800000000000000000208005S
0819790411331112GARAIOA                                                                                             0000000001750114214200000000000000000111605S
0819790411331113GARDE                                                                                               0000000002430119219200000000000000000115505S
0819790411331116GENEVILLA                                                                                           0000000001750113913900000000000000000709605S
0819790411331118GOÑI                                                                                                0000000002440118818800000000000000002410605S
0819790411331119GÜESA/GORZA                                                                                         0000000001260111111100000000000000000406505S
0919790411331121GUIRGUILLANO                                                                                        0000000000930107207200000000000000000105705S
0819790411331124IBARGOITI                                                                                           0000000001850115415400000000000000000809805S
0819790411331127IRAÑETA                                                                                             0000000001570112612600000000000000000408605S
0819790411331132IZAGAONDOA                                                                                          0000000001930115015000000000000000000409205S
0919790411331133IZALZU/ITZALTZU                                                                                     0000000000840106906900000000000000000504005S
0819790411331135JAVIER                                                                                              0000000002050117517500000000000000000510705S
0819790411331140LANTZ                                                                                               0000000001570113413400000000000000000000005S
0819790411331141LAPOBLACIÓN                                                                                         0000000002220117117100000000000000000411005S
0819790411331143LARRAONA                                                                                            0000000002320117517500000000000000002609805S
0919790411331146LEACHE                                                                                              0000000000900107607600000000000000000504905S
0819790411331147LEGARDA                                                                                             0000000001080109409400000000000000000106005S
0819790411331148LEGARIA                                                                                             0000000001920114714700000000000000000212105S
0819790411448076SUKARRIETA                                                                                          0000000002480121621600000000000000001114405S
0819790411448088UBIDE                                                                                               0000000001700113913900000000000000000013205S
0819790410849114MATILLA LA SECA                                                                                     0000000001480111511500000000000000000507205S
0819790410908129MUNTANYOLA                                                                                          0000000001920114714700000000000000000305405S
0819790410908139MURA                                                                                                0000000001780114414400000000000000000110305S
0819790410908142NOU DE BERGUEDÀ, LA                                                                                 0000000001660113613600000000000000000207005S
0919790410908148OLIVELLA                                                                                            0000000000770106106100000000000000000003505S
0819790410908152ORPÍ                                                                                                0000000001450112712700000000000000000010405S
0819790410908153ORRIUS                                                                                              0000000002280118318300000000000000000216405S
0819790411228001ACEBEDA, LA                                                                                         0000000001100110410400000000000000003702305S
0819790411228003ALAMEDA DEL VALLE                                                                                   0000000001630114114100000000000000000508005S
0819790411228015ARROYOMOLINOS                                                                                       0000000001860114114100000000000000001808405S
0919790411228016ATAZAR, EL                                                                                          0000000000800106606600000000000000000204705S
0819790411228017BATRES                                                                                              0000000001880113213200000000000000002008405S
0919790411228020BERZOSA DEL LOZOYA                                                                                  0000000000690105905900000000000000000203205S
0819790411228024BRAOJOS                                                                                             0000000001640111611600000000000000003404605S
0819790411228029CABANILLAS DE LA SIERRA                                                                             0000000002420118618600000000000000000815105S
0819790410908168PONTONS                                                                                             0000000002080117117100000000000000000213005S
0819790410908176PUJALT                                                                                              0000000001940118818800000000000000000106405S
0919790410908177QUAR, LA                                                                                            0000000000630105605600000000000000000002305S
0819790410908179RELLINARS                                                                                           0000000001540112712700000000000000000407905S
0819790410908185RUBIO                                                                                               0000000001450111611600000000000000000004505S
0819790410908189SANT PERE SALLAVINERA                                                                               0000000001970114814800000000000000000012605S
0819790410908195SANT AGUSTÍ DE LLUÇANÈS                                                                             0000000001420110310300000000000000000205505S
0819790410925196SANT ESTEVE DE LA SARGA                                                                             0000000002070118918900000000000000000307405S
0819790410925197SANT GUIM DE LA PLANA                                                                               0000000002140117117100000000000000000107705S
0819790410925201SARROCA DE BELLERA                                                                                  0000000001750116716700000000000000000111805S
0819790410925202SENTERADA                                                                                           0000000001690115315300000000000000000211205S
0819790410925218TARRES                                                                                              0000000001070109609600000000000000001005605S
0819790410925219TARROJA DE SEGARRA                                                                                  0000000002480121421400000000000000000610805S
0819790410925221TIRVIA                                                                                              0000000001250112012000000000000000000404905S
0819790410925224TORMS, ELS                                                                                          0000000002340119219200000000000000001711705S
0819790410925229TIURANA                                                                                             0000000002160117217200000000000000001711305S
0819790411228039CERVERA DE BUITRAGO                                                                                 0000000001300109409400000000000000001704605S
0919790411228057FRESNO DE TOROTE                                                                                    0000000000940106006000000000000000000603005S
0919790411228064GASCONES                                                                                            0000000000950101801800000000000000000001805S
0919790411228069HIRUELA, LA                                                                                         0000000000450104504500000000000000000602305S
0819790411228070HORCAJO DE LA SIERRA                                                                                0000000002070117617600000000000000002705505S
0919790411228071HORCAJUELO DE LA SIERRA                                                                             0000000000690106506500000000000000000000005S
0919790411746201PUEBLA DE SAN MIGUEL                                                                                0000000000550104604600000000000000000002505S
0919790411746226SEMPERE                                                                                             0000000000670105805800000000000000000103705S
0819790411746243TORRELLA                                                                                            0000000002050116016000000000000000000709405S
0919790410925247VILAMÓS                                                                                             0000000000700105705700000000000000000005205S
0819790410925253VILOSELL, EL                                                                                        0000000002490122322300000000000000001913505S
0819790410925904CASTELL DE MUR                                                                                      0000000002240119019000000000000000000409905S
0819790410925909VANSA I FORNOLS, LA                                                                                 0000000001490115215200000000000000000013305S
0819790410925910JOSA I TUIXEN                                                                                       0000000001510113313300000000000000000807605S
0919790410943003ALBIOL, L'                                                                                          0000000000700104704700000000000000000002705S
0819790410943015ARBOLI                                                                                              0000000001040107807800000000000000000204705S
0819790410943017ARGENTERA, L'                                                                                       0000000001690112212200000000000000000509205S
0819790411331150LEOZ                                                                                                0000000001530112012000000000000000000111005S
0819790411331151LERGA                                                                                               0000000001940117217200000000000000000315205S
0819790411331156LIZOÁIN                                                                                             0000000002410118118100000000000000000313105S
0819790411331160LUQUIN                                                                                              0000000001890115015000000000000000000211705S
0819790411331162MARAÑON                                                                                             0000000001200109809800000000000000000307905S
0919790411331170MIRAFUENTES                                                                                         0000000000800107107100000000000000000005305S
0819790411331174MORENTIN                                                                                            0000000001420112712700000000000000000210905S
0819790411331175MUES                                                                                                0000000001970117117100000000000000000213705S
0819790411331177MURIETA                                                                                             0000000002400119719700000000000000000217105S
0819790411331180MURUZÁBAL                                                                                           0000000002170119719700000000000000000217105S
0919790411331182NAZAR                                                                                               0000000000710106106100000000000000000304505S
0919790411331184OCO                                                                                                 0000000000990106906900000000000000000006205S
0819790411331187OIZ                                                                                                 0000000001760112512500000000000000001305905S
0819790411331188OLAIBAR                                                                                             0000000001560110610600000000000000000009705S
0919790411331190OLEJUA                                                                                              0000000000950108508500000000000000000206505S
0819790411746253VALLES                                                                                              0000000001680112612600000000000000000209005S
0819790410849148PELEAS DE ABAJO                                                                                     0000000002310118218200000000000000005707505S
0819790410849155PIEDRAHITA DE CASTRO                                                                                0000000002500120820800000000000000000415405S
0819790410849160POBLADURA DE VALDERADUEY                                                                            0000000001430111111100000000000000000009805S
0819790410849165PRADO                                                                                               0000000001560113813800000000000000000307905S
0819790410849168QUINTANILLA DEL MONTE                                                                               0000000002480119019000000000000000000318705S
0819790410849169QUINTANILLA DEL OLMO                                                                                0000000001020106906900000000000000000304205S
0819790410849170QUINTANILLA DE URZ                                                                                  0000000002180117417400000000000000000212005S
0819790411331192OLORIZ                                                                                              0000000001560111711700000000000000000008805S
0919790411331196ORBARA                                                                                              0000000000800107007000000000000000000005705S
0919790411331197ORISOAIN                                                                                            0000000000790106406400000000000000001902605S
0919790411331198ORONZ                                                                                               0000000000650105705700000000000000000004805S
0919790411331203PETILLA DE ARAGÓN                                                                                   0000000000860106806800000000000000000603605S
0819790411331204PIEDRAMILLERA                                                                                       0000000001590112912900000000000000000309505S
0819790411331209ROMANZADO                                                                                           0000000002120117817800000000000000002807405S
0919790411331211ORREAGA/RONCESVALLES                                                                                0000000000510104304300000000000000000003105S
0819790411331213SALDIAS                                                                                             0000000001900115515500000000000000000108505S
0819790411331214SALINAS DE ORO                                                                                      0000000001400109709700000000000000000206905S
0819790411331219SANSOL                                                                                              0000000001980116316300000000000000000712705S
0819790411331222SARRIES/SARTZE                                                                                      0000000001160109609600000000000000000006405S
0919790411331225SORLADA                                                                                             0000000000980108408400000000000000000306405S
0919790411331229TIRAPU                                                                                              0000000000700105405400000000000000000004605S
0819790411331230TORRALBA DEL RÍO                                                                                    0000000002070117417400000000000000000313505S
0819790411331233TULEBRAS                                                                                            0000000001350111911900000000000000002907005S
0819790411331234UCAR                                                                                                0000000001200110210200000000000000000208005S
0819790410849183SALCE                                                                                               0000000002240117917900000000000000000404705S
0819790410849190SAN MARTIN DE VALDERADUEY                                                                           0000000001840115215200000000000000001306305S
0819790410849204SANTA MARIA DE VALVERDE                                                                             0000000001720100000000000000000000000000005S
0819790410917171SANT LLORENÇ DE LA MUGA                                                                             0000000001580113113100000000000000002909505S
0819790410917173SANT MARTÍ VELL                                                                                     0000000001900115215200000000000000000013705S
0819790410917176SANT MORI                                                                                           0000000001360111711700000000000000000108805S
0819790410917188SELVA DE MAR, LA                                                                                    0000000001720114314300000000000000000811905S
0819790410908225SANT MARTÍ D'ALBARS                                                                                 0000000001810113313300000000000000000004805S
0919790410908241SANT SADURNÍ D'OSORMORT                                                                             0000000000900106806800000000000000000004605S
0819790410908242MARGANELL                                                                                           0000000002470122222200000000000000000113805S
0819790410908243SANTA CECÍLIA DE VOLTREGÀ                                                                           0000000002030115615600000000000000000107305S
0819790410917191SERRA DE DARO                                                                                       0000000002380119319300000000000000000215505S
0819790410917192SETCASES                                                                                            0000000001460112412400000000000000000307305S
0819790410917196TERRADES                                                                                            0000000002000116916900000000000000000613505S
0819790410917197TORRENT                                                                                             0000000002070117417400000000000000001109005S
0819790410917201TOSES                                                                                               0000000001720115815800000000000000000109205S
0819790410917203ULTRAMORT                                                                                           0000000002340119819800000000000000000110905S
0819790410917206URUS                                                                                                0000000001120108708700000000000000000105205S
0819790410917209VALL-LLOBREGA                                                                                       0000000001990113813800000000000000000111905S
0819790410917212VIDRÁ                                                                                               0000000002020114714700000000000000000209505S
0819790410917216VILADASENS                                                                                          0000000002130116716700000000000000000308805S
0919790410917227VILAMANISCLE                                                                                        0000000000950108508500000000000000000204305S
0819790410917232VILOPRIU                                                                                            0000000002060118318300000000000000000606905S
0919790411228078MADARCOS                                                                                            0000000000500104004000000000000000000002805S
0819790411228088MONTEJO DE LA SIERRA                                                                                0000000001920115715700000000000000000000005S
0819790411228094NAVALAFUENTE                                                                                        0000000002220118118100000000000000001309605S
0819790411228097NAVARREDONDA Y SAN MAMÉS                                                                            0000000001480112212200000000000000000506405S
0819790411228101OLMEDA DE LAS FUENTES                                                                               0000000001290111011000000000000000000208705S
0819790411228112PINILLA DEL VALLE                                                                                   0000000001520113113100000000000000003105505S
0819790411228114PIÑÚECAR - GANDULLAS                                                                                0000000001750113413400000000000000003107405S
0819790411228117PRÁDENA DEL RINCÓN                                                                                  0000000001140109509500000000000000001105205S
0919790411228118PUEBLA DE LA SIERRA                                                                                 0000000000760106306300000000000000000105505S
0919790411228121REDUEÑA                                                                                             0000000000970107907900000000000000000007205S
0819790411228122RIBATEJADA                                                                                          0000000002430118618600000000000000000018505S
0819790410908249SANTA FE DEL PENEDÈS                                                                                0000000001980115415400000000000000000810705S
0819790410908253SANTA MARIA DE BESORA                                                                               0000000002190118418400000000000000000108705S
