021982101010400199ABLA                                                                                                001301300000001723000010000122600001226000000000000000000000000000000000000000300000004000009830000000000000000000N
021982101010400299ABRUCENA                                                                                            001301300000001649000010000121100001211000000000000000000000000000000000000000200000015000009090000000000000000000N
021982101010400399ADRA                                                                                                002902900000017415000170001109900011099000000000000000000000000000000000000001200000075000080150000000000000000000N
021982101010400499ALBANCHEZ                                                                                           005305300000001003000010000079700000797000000000000000000000000000000000000000000000006000005320000000000000000000N
021982101010400599ALBOLODUY                                                                                           001301300000001060000010000077000000770000000000000000000000000000000000000000000000005000006210000000000000000000N
021982101010400699ALBOX                                                                                               005305300000010113000080000570700005707000000000000000000000000000000000000000900000034000040570000000000000000000N
021982101010400799ALCOLEA                                                                                             001301300000000893000010000065000000650000000000000000000000000000000000000000000000012000004960000000000000000000N
021982101010400899ALCONTAR                                                                                            005305300000000774000010000049100000491000000000000000000000000000000000000000100000004000003450000000000000000000N
021982101010400999ALCUDIA MONTEAGUD                                                                                   001301300000000257000010000019200000192000000000000000000000000000000000000000000000000000001280000000000000000000N
021982101010401099ALHABIA                                                                                             001301300000000909000010000061700000617000000000000000000000000000000000000000100000008000005250000000000000000000N
021982101010401199ALHAMA ALMERIA                                                                                      001301300000003023000030000205700002057000000000000000000000000000000000000000200000023000017050000000000000000000N
021982101010401299ALICUN                                                                                              001301300000000244000010000017800000178000000000000000000000000000000000000000000000001000001620000000000000000000N
021982101010401399ALMERIA                                                                                             001301300000140745001210009567100095671000000000000000000000000000000000000019500000941000738350000000000000000000N
021982101010401499ALMOCITA                                                                                            001301300000000248000010000018900000189000000000000000000000000000000000000000000000001000001330000000000000000000N
021982101010401599ALSODUX                                                                                             001301300000000140000010000011100000111000000000000000000000000000000000000000000000001000000800000000000000000000N
021982101010401699ANTAS                                                                                               010010000000002408000030000140800001408000000000000000000000000000000000000000200000008000010370000000000000000000N
021982101010401799ARBOLEAS                                                                                            005305300000001430000010000101700001017000000000000000000000000000000000000000000000009000007570000000000000000000N
021982101010401899ARMUNA ALMANZORA                                                                                    005305300000000368000010000026400000264000000000000000000000000000000000000000100000004000002030000000000000000000N
021982101010401999BACARES                                                                                             005305300000000395000010000033000000330000000000000000000000000000000000000000000000004000002180000000000000000000N
021982101010402099BAYARCAL                                                                                            001301300000000526000010000034100000341000000000000000000000000000000000000000100000000000002600000000000000000000N
021982101010402199BAYARQUE                                                                                            005305300000000283000010000021700000217000000000000000000000000000000000000000100000001000001680000000000000000000N
021982101010402299BEDAR                                                                                               010010000000000569000010000041300000413000000000000000000000000000000000000000100000000000003160000000000000000000N
021982101010402399BEIRES                                                                                              001301300000000207000010000016400000164000000000000000000000000000000000000000000000001000001180000000000000000000N
021982101010402499BENAHADUX                                                                                           001301300000001781000020000123700001237000000000000000000000000000000000000000000000007000010990000000000000000000N
021982101010402599BENINAR                                                                                             000000000000000360000010000026900000269000000000000000000000000000000000000000000000001000001240000000000000000000N
021982101010402699BENITAGLA                                                                                           001301300000000129000010000010100000101000000000000000000000000000000000000000000000000000000680000000000000000000N
021982101010402799BENIZALON                                                                                           001301300000000569000010000039300000393000000000000000000000000000000000000000000000001000002170000000000000000000N
021982101010402899BENTARIQUE                                                                                          001301300000000339000010000025900000259000000000000000000000000000000000000000000000004000002260000000000000000000N
021982101010402999BERJA                                                                                               002902900000011169000110000651500006515000000000000000000000000000000000000001400000057000050060000000000000000000N
021982101010403099CANJAYAR                                                                                            001301300000002375000030000159900001599000000000000000000000000000000000000000100000005000012780000000000000000000N
021982101010403199CANTORIA                                                                                            005305300000003530000030000266600002666000000000000000000000000000000000000000500000011000018600000000000000000000N
021982101010403299CARBONERAS                                                                                          010010000000004102000040000258600002586000000000000000000000000000000000000000200000023000019780000000000000000000N
021982101010403399CASTRO DE FILABRES                                                                                  001301300000000251000010000021000000210000000000000000000000000000000000000000000000000000000870000000000000000000N
021982101010403599CUEVAS DEL ALMANZORA                                                                                010010000000008450000070000604200006042000000000000000000000000000000000000000400000034000043930000000000000000000N
021982101010403699CHERCOS                                                                                             005305300000000371000010000027000000270000000000000000000000000000000000000000000000000000002070000000000000000000N
021982101010403799CHIRIVEL                                                                                            005305300000002162000020000165000001650000000000000000000000000000000000000000300000012000011710000000000000000000N
021982101010403899DALIAS                                                                                              002902900000032999000310002064300020643000000000000000000000000000000000000002100000162000147960000000000000000000N
021982101010403999DARRICAL                                                                                            002902900000000618000020000047100000471000000000000000000000000000000000000000000000003000001630000000000000000000N
021982101010404199ENIX                                                                                                001301300000000268000010000022100000221000000000000000000000000000000000000000000000001000001890000000000000000000N
021982101010404399FELIX                                                                                               001301300000004440000040000281500002815000000000000000000000000000000000000000400000033000020080000000000000000000N
021982101010404499FINES                                                                                               005305300000001448000010000099400000994000000000000000000000000000000000000000100000005000008360000000000000000000N
021982101010404599FINANA                                                                                              001301300000002820000030000193100001931000000000000000000000000000000000000000200000011000015170000000000000000000N
021982101010404699FONDON                                                                                              001301300000001124000020000074900000749000000000000000000000000000000000000000000000009000005850000000000000000000N
021982101010404799GADOR                                                                                               001301300000002557000030000178800001788000000000000000000000000000000000000000200000011000014920000000000000000000N
021982101010404899GALLARDOS(LOS)                                                                                      010010000000001438000020000105400001054000000000000000000000000000000000000000300000008000005230000000000000000000N
021982101010404999GARRUCHA                                                                                            010010000000003265000020000218800002188000000000000000000000000000000000000000300000017000018290000000000000000000N
021982101010405099GERGAL                                                                                              001301300000001368000010000099300000993000000000000000000000000000000000000000100000016000007050000000000000000000N
021982101010405199HUECIJA                                                                                             001301300000000586000010000043200000432000000000000000000000000000000000000000100000004000003450000000000000000000N
021982101010405299HUERCAL DE ALMERIA                                                                                  001301300000003330000030000212500002125000000000000000000000000000000000000000500000023000016630000000000000000000N
021982101010405399HUERCAL-OVERA                                                                                       005305300000012289000140000851400008514000000000000000000000000000000000000002700000059000063100000000000000000000N
021982101010405499ILLAR                                                                                               001301300000000571000010000045000000450000000000000000000000000000000000000000000000002000003890000000000000000000N
021982101010405599INSTINCION                                                                                          001301300000000705000010000053000000530000000000000000000000000000000000000000000000005000004790000000000000000000N
021982101010405699LAROYA                                                                                              005305300000000200000010000014100000141000000000000000000000000000000000000000000000000000001050000000000000000000N
021982101010405799LAUJAR DE ANDARAX                                                                                   001301300000001935000020000133100001331000000000000000000000000000000000000000000000010000011170000000000000000000N
021982101010405899LIJAR                                                                                               005305300000000572000010000041800000418000000000000000000000000000000000000000000000002000003100000000000000000000N
021982101010405999LUBRIN                                                                                              010010000000002478000030000193500001935000000000000000000000000000000000000000300000020000012050000000000000000000N
021982101010406099LUCAINENA DE LAS TORRES                                                                             001301300000000740000010000057100000571000000000000000000000000000000000000000000000008000003790000000000000000000N
021982101010406199LUCAR                                                                                               005305300000000729000010000050000000500000000000000000000000000000000000000000100000000000004210000000000000000000N
021982101010406299MACAEL                                                                                              005305300000005018000050000313800003138000000000000000000000000000000000000000300000022000024880000000000000000000N
021982101010406399MARIA                                                                                               005305300000001986000030000146000001460000000000000000000000000000000000000000000000015000009990000000000000000000N
021982101010406499MOJACAR                                                                                             010010000000001576000010000114700001147000000000000000000000000000000000000000000000011000007930000000000000000000N
021982101010406599NACIMIENTO                                                                                          001301300000000700000010000055600000556000000000000000000000000000000000000000100000001000004280000000000000000000N
021982101010406699NIJAR                                                                                               001301300000011023000150000799900007999000000000000000000000000000000000000001400000067000054170000000000000000000N
021982101010406799OHANES                                                                                              001301300000001042000010000076800000768000000000000000000000000000000000000000000000009000005550000000000000000000N
021982101010406899OLULA DE CASTRO                                                                                     001301300000000322000010000025300000253000000000000000000000000000000000000000000000006000001910000000000000000000N
021982101010406999OLULA DEL RIO                                                                                       005305300000004837000040000314700003147000000000000000000000000000000000000000100000030000025900000000000000000000N
021982101010407099ORIA                                                                                                005305300000002767000040000215800002158000000000000000000000000000000000000000000000018000014420000000000000000000N
021982101010407199PADULES                                                                                             001301300000000630000010000043100000431000000000000000000000000000000000000000100000000000003680000000000000000000N
021982101010407299PARTALOA                                                                                            005305300000000505000010000038600000386000000000000000000000000000000000000000400000000000003100000000000000000000N
021982101010407399PATERNA DEL RIO                                                                                     001301300000000522000010000038300000383000000000000000000000000000000000000000300000002000002910000000000000000000N
021982101010407499PECHINA                                                                                             001301300000001855000020000145600001456000000000000000000000000000000000000000100000015000011050000000000000000000N
021982101010407599PULPI                                                                                               010010000000003836000030000360400003604000000000000000000000000000000000000000600000036000028680000000000000000000N
021982101010407699PURCHENA                                                                                            005305300000001865000030000126400001264000000000000000000000000000000000000000100000010000010040000000000000000000N
021982101010407799RAGOL                                                                                               001301300000000537000010000041800000418000000000000000000000000000000000000000000000002000003680000000000000000000N
021982101010407899RIOJA                                                                                               001301300000001247000010000089000000890000000000000000000000000000000000000000100000009000007490000000000000000000N
021982101010407999ROQUETAS DE MAR                                                                                     001301300000018891000150001122800011228000000000000000000000000000000000000001800000154000084930000000000000000000N
021982101010408099SANTA CRUZ                                                                                          001301300000000288000010000023400000234000000000000000000000000000000000000000000000000000001690000000000000000000N
021982101010408199SANTA FE DE MONDUJAR                                                                                001301300000000520000010000039900000399000000000000000000000000000000000000000000000001000003430000000000000000000N
021982101010408299SENES                                                                                               001301300000000780000010000054200000542000000000000000000000000000000000000000100000002000002690000000000000000000N
021982101010408399SERON                                                                                               005305300000003655000050000273400002734000000000000000000000000000000000000000000000006000017360000000000000000000N
021982101010408499SIERRO                                                                                              005305300000000707000010000047900000479000000000000000000000000000000000000000300000001000002900000000000000000000N
021982101010408599SOMONTIN                                                                                            005305300000000609000010000042900000429000000000000000000000000000000000000000000000001000003400000000000000000000N
021982101010408699SORBAS                                                                                              001301300000003852000060000282500002825000000000000000000000000000000000000000100000019000015540000000000000000000N
021982101010408799SUFLI                                                                                               005305300000000246000010000015000000150000000000000000000000000000000000000000100000001000001440000000000000000000N
021982101010408899TABERNAS                                                                                            001301300000004103000050000292800002928000000000000000000000000000000000000000400000019000017470000000000000000000N
021982101010408999TABERNO                                                                                             005305300000000850000010000067900000679000000000000000000000000000000000000000200000006000004660000000000000000000N
021982101010409099TAHAL                                                                                               001301300000000662000010000047300000473000000000000000000000000000000000000000000000001000002980000000000000000000N
021982101010409199TERQUE                                                                                              001301300000000519000010000035100000351000000000000000000000000000000000000000100000002000003090000000000000000000N
021982101010409299TIJOLA                                                                                              005305300000003761000040000258100002581000000000000000000000000000000000000000300000013000019730000000000000000000N
021982101010409399TURRE                                                                                               010010000000001890000010000124400001244000000000000000000000000000000000000000000000020000010190000000000000000000N
021982101010409499TURRILLAS                                                                                           001301300000000320000010000024900000249000000000000000000000000000000000000000000000002000001870000000000000000000N
021982101010409599ULEILA DEL CAMPO                                                                                    001301300000001122000010000079900000799000000000000000000000000000000000000000000000003000005420000000000000000000N
021982101010409699URRACAL                                                                                             005305300000000402000010000030900000309000000000000000000000000000000000000000000000002000002610000000000000000000N
021982101010409799VELEFIQUE                                                                                           001301300000000512000010000030800000308000000000000000000000000000000000000000000000003000002340000000000000000000N
021982101010409899VELEZ BLANCO                                                                                        005305300000003019000040000225500002255000000000000000000000000000000000000000200000021000014850000000000000000000N
021982101010409999VELEZ RUBIO                                                                                         005305300000006624000110000484600004846000000000000000000000000000000000000000900000045000033570000000000000000000N
021982101010410099VERA                                                                                                010010000000005341000060000338500003385000000000000000000000000000000000000000200000005000028370000000000000000000N
021982101010410199VIATOR                                                                                              001301300000002400000020000155900001559000000000000000000000000000000000000000200000017000013560000000000000000000N
021982101010410299VICAR                                                                                               001301300000007640000070000473400004734000000000000000000000000000000000000000700000064000032260000000000000000000N
021982101010410399ZURGENA                                                                                             005305300000002140000020000145200001452000000000000000000000000000000000000000100000006000011160000000000000000000N
021982101010490199TRES VILLAS (LAS)                                                                                   001301300000000824000020000059200000592000000000000000000000000000000000000000200000000000004530000000000000000000N
021982101011100199ALCALA DE LOS GAZULES                                                                               003103100000005913000080000410700004107000000000000000000000000000000000000000300000039000025160000000000000000000N
021982101011100299ALCALA DEL VALLE                                                                                    000600600000005055000040000331000003310000000000000000000000000000000000000000100000018000023010000000000000000000N
021982101011100399ALGAR                                                                                               000600600000002033000020000140000001400000000000000000000000000000000000000000200000018000007990000000000000000000N
021982101011100499ALGECIRAS                                                                                           000400400000085390000660005668800056688000000000000000000000000000000000000011800000478000434840000000000000000000N
021982101011100599ALGODONALES                                                                                         000600600000005713000060000394500003945000000000000000000000000000000000000000300000029000030130000000000000000000N
021982101011100699ARCOS DE LA FRONTERA                                                                                000600600000025168000250001554700015547000000000000000000000000000000000000002200000091000121840000000000000000000N
021982101011100799BARBATE DE FRANCO                                                                                   001501500000020806000220001348100013481000000000000000000000000000000000000003000000121000093690000000000000000000N
021982101011100899BARRIOS LOS                                                                                         000400400000010593000100000671000006710000000000000000000000000000000000000000900000027000053640000000000000000000N
021982101011100999BENAOCAZ                                                                                            000600600000000624000010000034900000349000000000000000000000000000000000000000100000001000002480000000000000000000N
021982101011101099BORNOS                                                                                              000600600000007649000060000430300004303000000000000000000000000000000000000000200000035000031520000000000000000000N
021982101011101199BOSQUE EL                                                                                           000600600000001730000020000112400001124000000000000000000000000000000000000000300000013000007900000000000000000000N
021982101011101299CADIZ                                                                                               001201200000156711000940010953100109531000000000000000000000000000000000000075800002125000752670000000000000000000N
021982101011101399CASTELLAR DE LA FRONTERA                                                                            003303300000001984000020000132900001329000000000000000000000000000000000000000300000007000011090000000000000000000N
021982101011101499CONIL DE LA FRONTERA                                                                                001501500000013406000120000844500008445000000000000000000000000000000000000001600000069000056570000000000000000000N
021982101011101599CHICLANA DE FRONTERA                                                                                001501500000036492000310002153700021537000000000000000000000000000000000000004100000172000160220000000000000000000N
021982101011101699CHIPIONA                                                                                            003203200000012484000140000830300008303000000000000000000000000000000000000001200000127000062620000000000000000000N
021982101011101799ESPERA                                                                                              000600600000004027000040000250900002509000000000000000000000000000000000000000100000028000019570000000000000000000N
021982101011101899GASTOR EL                                                                                           000600600000002112000020000147200001472000000000000000000000000000000000000000100000000000010380000000000000000000N
021982101011101999GRAZALEMA                                                                                           000600600000002236000040000158100001581000000000000000000000000000000000000000300000021000011990000000000000000000N
021982101011102099JEREZ DE LA FRONTERA                                                                                002002000000175653001720011382800113828000000000000000000000000000000000000025300001586000874570000000000000000000N
021982101011102199JIMENA DE FRONTERA                                                                                  003303300000008386000090000597100005971000000000000000000000000000000000000000700000032000047110000000000000000000N
021982101011102299LINEA DE LA CONCEPCION (L                                                                           003303300000056609000530003824000038240000000000000000000000000000000000000006600000383000282270000000000000000000N
021982101011102399MEDINA SIDONIA                                                                                      003103100000014857000140000932600009326000000000000000000000000000000000000000900000068000073050000000000000000000N
021982101011102499OLVERA                                                                                              000600600000009525000100000663200006632000000000000000000000000000000000000000500000038000048150000000000000000000N
021982101011102599PATERNA DE RIVERA                                                                                   003103100000004342000040000270200002702000000000000000000000000000000000000001100000027000020620000000000000000000N
021982101011102699PRADO DEL REY                                                                                       000600600000005106000040000342400003424000000000000000000000000000000000000000700000032000027440000000000000000000N
021982101011102799PUERTO DE SANTA MARIA (EL                                                                           002702700000055748000600003640900036409000000000000000000000000000000000000009400000545000249010000000000000000000N
021982101011102899PUERTO REAL                                                                                         002702700000023890000240001558700015587000000000000000000000000000000000000004300000270000112840000000000000000000N
021982101011102999PUERTO SERRANO                                                                                      000600600000005285000050000314000003140000000000000000000000000000000000000000000000022000024820000000000000000000N
021982101011103099ROTA                                                                                                002702700000020559000220001335200013352000000000000000000000000000000000000002400000199000094460000000000000000000N
021982101011103199SAN FERNANDO                                                                                        003103100000072103000710004711400047114000000000000000000000000000000000000012300000880000344350000000000000000000N
021982101011103299SANLUCAR DE BARRAMEDA                                                                               003203200000048390000610003133100031331000000000000000000000000000000000000004200000426000226610000000000000000000N
021982101011103399SAN ROQUE                                                                                           003303300000019072000180001260200012602000000000000000000000000000000000000001300000113000097270000000000000000000N
021982101011103499SETENIL                                                                                             000600600000003508000020000169200001692000000000000000000000000000000000000000300000008000010580000000000000000000N
021982101011103599TARIFA                                                                                              000400400000014173000170000954900009549000000000000000000000000000000000000000800000067000070920000000000000000000N
021982101011103699TORRE-ALHAQUIME                                                                                     000600600000001077000010000074100000741000000000000000000000000000000000000000000000002000004730000000000000000000N
021982101011103899UBRIQUE                                                                                             000600600000016763000130001091800010918000000000000000000000000000000000000003000000159000090940000000000000000000N
021982101011103999VEJER DE LA FRONTERA                                                                                001501500000012114000140000797600007976000000000000000000000000000000000000001100000084000049180000000000000000000N
021982101011104099VILLALUENGA DEL ROSARIO                                                                             000600600000000569000010000030500000305000000000000000000000000000000000000000000000001000001980000000000000000000N
021982101011104199VILLAMARTIN                                                                                         000600600000012236000100000780900007809000000000000000000000000000000000000000600000047000057610000000000000000000N
021982101011104299ZAHARA                                                                                              000600600000002047000030000146300001463000000000000000000000000000000000000000500000007000008370000000000000000000N
021982101011400199ADAMUZ                                                                                              002102100000004380000040000316900003169000000000000000000000000000000000000000200000008000028660000000000000000000N
021982101011400299AGUILAR DE LA FRONTERA                                                                              000200200000012605000120000882900008829000000000000000000000000000000000000000900000038000075540000000000000000000N
021982101011400399ALCARACEJOS                                                                                         005405400000001462000010000109700001097000000000000000000000000000000000000000000000009000009100000000000000000000N
021982101011400499ALMEDINILLA                                                                                         005505500000002554000020000129700001297000000000000000000000000000000000000000100000006000008650000000000000000000N
021982101011400599ALMODOVAR DEL RIO                                                                                   005305300000006416000060000421200004212000000000000000000000000000000000000000400000014000035000000000000000000000N
021982101011400699ANORA                                                                                               005405400000001908000010000061500000615000000000000000000000000000000000000000200000000000004630000000000000000000N
021982101011400799BAENA                                                                                               000700700000017010000160001199900011999000000000000000000000000000000000000002000000075000093680000000000000000000N
021982101011400899BELALCAZAR                                                                                          005205200000004372000050000333600003336000000000000000000000000000000000000000300000013000024350000000000000000000N
021982101011400999BELMEZ                                                                                              005205200000004505000070000354400003544000000000000000000000000000000000000000300000021000028250000000000000000000N
021982101011401099BENAMEJI                                                                                            003803800000004590000050000327000003270000000000000000000000000000000000000000300000014000024300000000000000000000N
021982101011401199BLAZQUEZ LOS                                                                                        005205200000000842000010000065100000651000000000000000000000000000000000000000000000001000005410000000000000000000N
021982101011401299BUJALANCE                                                                                           002102100000008741000100000633700006337000000000000000000000000000000000000000300000028000054090000000000000000000N
021982101011401399CABRA                                                                                               001301300000020073000180001416900014169000000000000000000000000000000000000004200000133000110520000000000000000000N
021982101011401499CANETE DE LAS TORRES                                                                                002102100000003457000020000257500002575000000000000000000000000000000000000000300000020000021930000000000000000000N
021982101011401599CARCABUEY                                                                                           005505500000003007000010000106600001066000000000000000000000000000000000000000000000017000008550000000000000000000N
021982101011401699CARDENA                                                                                             002102100000002235000050000163700001637000000000000000000000000000000000000000400000001000013230000000000000000000N
021982101011401899CARPIO EL                                                                                           002102100000004722000040000347300003473000000000000000000000000000000000000000200000013000029860000000000000000000N
021982101011401999CASTRO DEL RIO                                                                                      002102100000007524000090000562500005625000000000000000000000000000000000000001000000036000048480000000000000000000N
021982101011402099CONQUISTA                                                                                           005405400000000630000010000052000000520000000000000000000000000000000000000000200000003000003320000000000000000000N
021982101011402199CORDOBA                                                                                             002102100000279386002400019284700192847000000000000000000000000000000000000045300001280001606200000000000000000000N
021982101011402299DONA MENCIA                                                                                         001301300000005063000040000368800003688000000000000000000000000000000000000000500000011000028080000000000000000000N
021982101011402499ENCINAS REALES                                                                                      003803800000002179000020000159000001590000000000000000000000000000000000000000300000012000012610000000000000000000N
021982101011402599ESPEJO                                                                                              002102100000005084000060000343600003436000000000000000000000000000000000000000100000007000031250000000000000000000N
021982101011402699ESPIEL                                                                                              005205200000002816000050000211200002112000000000000000000000000000000000000000000000009000016860000000000000000000N
021982101011402799FERNAN-NUNEZ                                                                                        004204200000008885000080000630500006305000000000000000000000000000000000000000900000033000055140000000000000000000N
021982101011402899FUENTE LA LANCHA                                                                                    005205200000000479000010000036700000367000000000000000000000000000000000000000200000000000003140000000000000000000N
021982101011402999FUENTE-OVEJUNA                                                                                      005205200000006818000130000518100005181000000000000000000000000000000000000000400000032000043320000000000000000000N
021982101011403099FUENTE PALMERA                                                                                      005305300000008076000080000529600005296000000000000000000000000000000000000000700000016000046680000000000000000000N
021982101011403199FUENTE TOJAR                                                                                        005505500000001048000020000086500000865000000000000000000000000000000000000000000000000000006290000000000000000000N
021982101011403299GRANJUELA LA                                                                                        005205200000000644000010000049400000494000000000000000000000000000000000000000000000002000003500000000000000000000N
021982101011403399GUADALCAZAR                                                                                         005305300000001366000020000097200000972000000000000000000000000000000000000000000000002000007430000000000000000000N
021982101011403499GUIJO EL                                                                                            005405400000000563000010000047000000470000000000000000000000000000000000000000000000001000003330000000000000000000N
021982101011403599HINOJOSA DEL DUQUE                                                                                  005205200000008159000070000640600006406000000000000000000000000000000000000000500000050000052640000000000000000000N
021982101011403699HORNACHUELOS                                                                                        005305300000005019000060000347000003470000000000000000000000000000000000000000300000022000027970000000000000000000N
021982101011403799IZNAJAR                                                                                             003803800000007078000070000520500005205000000000000000000000000000000000000000700000050000030400000000000000000000N
021982101011403899LUCENA                                                                                              003803800000030105000270002017300020173000000000000000000000000000000000000004100000167000155860000000000000000000N
021982101011403999LUQUE                                                                                               000700700000003551000050000274300002743000000000000000000000000000000000000000200000024000021800000000000000000000N
021982101011404099MONTALBAN DE CORDOBA                                                                                004204200000004150000040000295800002958000000000000000000000000000000000000000200000012000026740000000000000000000N
021982101011404199MONTEMAYOR                                                                                          004204200000003366000040000246100002461000000000000000000000000000000000000000100000005000022520000000000000000000N
021982101011404299MONTILLA                                                                                            004204200000021779000190001563200015632000000000000000000000000000000000000001600000077000136810000000000000000000N
021982101011404399MONTORO                                                                                             002102100000010115000090000729100007291000000000000000000000000000000000000000800000044000058010000000000000000000N
021982101011404499MONTURQUE                                                                                           000200200000002017000020000141600001416000000000000000000000000000000000000000100000025000011310000000000000000000N
021982101011404599MORILES                                                                                             000200200000003648000030000252800002528000000000000000000000000000000000000000200000021000020740000000000000000000N
021982101011404699NUEVA CARTEYA                                                                                       001301300000005373000050000369700003697000000000000000000000000000000000000000100000013000031940000000000000000000N
021982101011404799OBEJO                                                                                               002102100000001521000020000109000001090000000000000000000000000000000000000000200000009000008690000000000000000000N
021982101011404899PALENCIANA                                                                                          003803800000001844000020000135200001352000000000000000000000000000000000000000800000013000009190000000000000000000N
021982101011404999PALMA DEL RIO                                                                                       005305300000017359000160001195700011957000000000000000000000000000000000000001200000085000100620000000000000000000N
021982101011405099PEDRO ABAD                                                                                          002102100000003051000020000222800002228000000000000000000000000000000000000000000000007000019350000000000000000000N
021982101011405199PEDROCHE                                                                                            005405400000002072000020000152400001524000000000000000000000000000000000000000600000012000011830000000000000000000N
021982101011405299PANARROYA-PUERBLONUEVO                                                                              005205200000013580000180001091000010910000000000000000000000000000000000000005800000068000085160000000000000000000N
021982101011405399POSADAS                                                                                             005305300000006490000070000454500004545000000000000000000000000000000000000000900000010000038210000000000000000000N
021982101011405499POZOBLANCO                                                                                          005405400000013906000110001031600010316000000000000000000000000000000000000003400000049000088940000000000000000000N
021982101011405599PRIEGO DE CORDOBA                                                                                   005505500000020101000270001558200015582000000000000000000000000000000000000002400000078000125530000000000000000000N
021982101011405699PUENTE GENIL                                                                                        000200200000026215000200001743900017439000000000000000000000000000000000000002600000093000142040000000000000000000N
021982101011405799RAMBLA LA                                                                                           004204200000006566000060000459700004597000000000000000000000000000000000000000400000019000039890000000000000000000N
021982101011405899RUTE                                                                                                003803800000010162000090000676500006765000000000000000000000000000000000000001100000046000051980000000000000000000N
021982101011405999SAN SEBASTIAN DE LOS BALL                                                                           004204200000000794000010000059100000591000000000000000000000000000000000000000200000002000004760000000000000000000N
021982101011406099SANTAELLA                                                                                           004204200000005225000050000358600003586000000000000000000000000000000000000000200000031000030110000000000000000000N
021982101011406199SANTA EUFEMIA                                                                                       005405400000001353000020000105300001053000000000000000000000000000000000000000000000003000008700000000000000000000N
021982101011406299TORRECAMPO                                                                                          005405400000001782000020000138500001385000000000000000000000000000000000000000000000016000010750000000000000000000N
021982101011406399VALENZUELA                                                                                          000700700000001686000020000131800001318000000000000000000000000000000000000000100000008000011520000000000000000000N
021982101011406499VALSEQUILLO                                                                                         005205200000000692000010000024900000249000000000000000000000000000000000000000000000003000002180000000000000000000N
021982101011406599VICTORIA LA                                                                                         004204200000001726000020000126400001264000000000000000000000000000000000000000100000004000011010000000000000000000N
021982101011406699VILLA DEL RIO                                                                                       002102100000006785000060000460300004603000000000000000000000000000000000000000500000026000040500000000000000000000N
021982101011406799VILLAFRANCA DE CORDOBA                                                                              002102100000003553000030000252800002528000000000000000000000000000000000000000400000008000021930000000000000000000N
021982101011406899VILLAHARTA                                                                                          005205200000000731000010000054900000549000000000000000000000000000000000000000100000000000004300000000000000000000N
021982101011406999VILLANUEVA DE CORDOBA                                                                               005405400000010558000110000815300008153000000000000000000000000000000000000001500000031000068690000000000000000000N
021982101011407099VILLANUEVA DEL DUQUE                                                                                005405400000002194000020000172600001726000000000000000000000000000000000000000300000008000013710000000000000000000N
021982101011407199VILLANUEVA DEL REY                                                                                  005205200000001637000020000135100001351000000000000000000000000000000000000000100000012000008790000000000000000000N
021982101011407299VILLARALTO                                                                                          005405400000001880000020000157300001573000000000000000000000000000000000000000000000001000013620000000000000000000N
021982101011407399VILLAVICIOSA DE CORDOBA                                                                             002102100000004336000040000324000003240000000000000000000000000000000000000000200000018000026330000000000000000000N
021982101011407499VISO EL                                                                                             005405400000003515000040000277400002774000000000000000000000000000000000000000100000008000020790000000000000000000N
021982101011407599ZUHEROS                                                                                             001301300000001079000010000034000000340000000000000000000000000000000000000000000000001000002590000000000000000000N
021982101011800199AGRON                                                                                               012212200000000516000010000037200000372000000000000000000000000000000000000000000000001000002860000000000000000000N
021982101011800299ALAMEDILLA                                                                                          008908900000001329000020000087800000878000000000000000000000000000000000000000000000001000005860000000000000000000N
021982101011800399ALBOLOTE                                                                                            008708700000007157000050000476100004761000000000000000000000000000000000000000600000024000040050000000000000000000N
021982101011800499ALBONDON                                                                                            014714700000001745000020000127500001275000000000000000000000000000000000000000300000007000007380000000000000000000N
021982101011800599ALBUNAN                                                                                             008908900000000566000010000044000000440000000000000000000000000000000000000000000000004000002820000000000000000000N
021982101011800699ALBUNOL                                                                                             014714700000005530000060000383100003831000000000000000000000000000000000000000100000026000026240000000000000000000N
021982101011800799ALBUNUELAS                                                                                          014714700000001595000010000113700001137000000000000000000000000000000000000000100000005000006650000000000000000000N
021982101011801099ALDEIRE                                                                                             008908900000000954000010000076400000764000000000000000000000000000000000000000200000007000005550000000000000000000N
021982101011801199ALFACAR                                                                                             008708700000002992000020000189100001891000000000000000000000000000000000000000100000017000016070000000000000000000N
021982101011801299ALGARINEJO                                                                                          012212200000005791000070000452100004521000000000000000000000000000000000000000900000021000021550000000000000000000N
021982101011801399ALHAMA DE GRANADA                                                                                   012212200000006069000060000445900004459000000000000000000000000000000000000000700000052000034510000000000000000000N
021982101011801499ALHENDIN                                                                                            008708700000003124000020000216500002165000000000000000000000000000000000000001000000014000017090000000000000000000N
021982101011801599ALICUN DE ORTEGA                                                                                    008908900000000674000010000047200000472000000000000000000000000000000000000000000000000000003510000000000000000000N
021982101011801699ALMEGIJAR                                                                                           014714700000000625000010000048600000486000000000000000000000000000000000000000000000009000002920000000000000000000N
021982101011801799ALMUNECAR                                                                                           014014000000016390000110001052300010523000000000000000000000000000000000000001100000054000079620000000000000000000N
021982101011801899ALQUIFE                                                                                             008908900000001420000010000106200001062000000000000000000000000000000000000000100000002000008410000000000000000000N
021982101011802099ARENAS DE REY                                                                                       012212200000002174000030000161900001619000000000000000000000000000000000000000000000017000011750000000000000000000N
021982101011802199ARMILLA                                                                                             008708700000010278000050000684600006846000000000000000000000000000000000000001400000085000049590000000000000000000N
021982101011802299ATARFE                                                                                              008708700000008993000080000619300006193000000000000000000000000000000000000002900000044000051940000000000000000000N
021982101011802399BAZA                                                                                                002302300000020896000200001455300014553000000000000000000000000000000000000001900000103000088930000000000000000000N
021982101011802499BEAS DE GRANADA                                                                                     008708700000000791000010000057400000574000000000000000000000000000000000000000100000002000004290000000000000000000N
021982101011802599BEAS DE GUADIX                                                                                      008908900000000512000010000035100000351000000000000000000000000000000000000000000000000000002170000000000000000000N
021982101011802799BENALUA DE GUADIX                                                                                   008908900000003250000020000208300002083000000000000000000000000000000000000000500000011000017490000000000000000000N
021982101011802899BENALUA DE LAS VILLAS                                                                               008708700000001357000010000095400000954000000000000000000000000000000000000000000000003000007650000000000000000000N
021982101011802999BENAMAUREL                                                                                          002302300000002809000040000221500002215000000000000000000000000000000000000000000000011000012870000000000000000000N
021982101011803099BERCHULES                                                                                           014714700000001625000020000127900001279000000000000000000000000000000000000000100000001000005010000000000000000000N
021982101011803299BUBION                                                                                              014714700000000353000010000028100000281000000000000000000000000000000000000000000000001000001810000000000000000000N
021982101011803399BUSQUISTAR                                                                                          014714700000000596000010000044800000448000000000000000000000000000000000000000000000002000001950000000000000000000N
021982101011803499CACIN                                                                                               012212200000000927000020000070300000703000000000000000000000000000000000000000000000001000005370000000000000000000N
021982101011803599CADIAR                                                                                              014714700000002336000040000170700001707000000000000000000000000000000000000000000000007000011430000000000000000000N
021982101011803699CAJAR                                                                                               008708700000001390000010000101100001011000000000000000000000000000000000000000000000011000008160000000000000000000N
021982101011803799CALICASAS                                                                                           008708700000000543000010000033700000337000000000000000000000000000000000000000000000000000003120000000000000000000N
021982101011803899CAMPOTEJAR                                                                                          008708700000001411000010000099100000991000000000000000000000000000000000000000100000007000008290000000000000000000N
021982101011803999CANILES                                                                                             002302300000006472000080000507900005079000000000000000000000000000000000000000600000032000028830000000000000000000N
021982101011804099CANAR                                                                                               014714700000000574000010000048000000480000000000000000000000000000000000000000000000002000001670000000000000000000N
021982101011804299CAPILEIRA                                                                                           014714700000000712000010000052900000529000000000000000000000000000000000000000100000003000003310000000000000000000N
021982101011804399CARATAUNAS                                                                                          014714700000000164000010000013800000138000000000000000000000000000000000000000000000000000000930000000000000000000N
021982101011804499CASTARAS                                                                                            014714700000000455000010000034500000345000000000000000000000000000000000000000000000002000001430000000000000000000N
021982101011804599CASTILLEJAR                                                                                         002302300000002466000020000187300001873000000000000000000000000000000000000000000000010000012650000000000000000000N
021982101011804699CASTRIL                                                                                             002302300000004124000070000296300002963000000000000000000000000000000000000000700000034000013560000000000000000000N
021982101011804799CENES DE LA VEGA                                                                                    008708700000001198000010000076500000765000000000000000000000000000000000000000200000012000006060000000000000000000N
021982101011804899CIJUELA                                                                                             008708700000001018000010000077300000773000000000000000000000000000000000000000000000006000006620000000000000000000N
021982101011804999COGOLLOS DE GUADIX                                                                                  008908900000000905000010000068200000682000000000000000000000000000000000000000100000004000004260000000000000000000N
021982101011805099COGOLLOS VEGA                                                                                       008708700000001848000020000138500001385000000000000000000000000000000000000000600000013000011150000000000000000000N
021982101011805199COLOMERA                                                                                            008708700000002142000030000151800001518000000000000000000000000000000000000000400000002000012080000000000000000000N
021982101011805399CORTES DE BAZA                                                                                      002302300000003339000050000235100002351000000000000000000000000000000000000000000000005000016160000000000000000000N
021982101011805499CORTES Y GRAENA                                                                                     008908900000001005000010000072000000720000000000000000000000000000000000000000000000007000005240000000000000000000N
021982101011805699CULLAR BAZA                                                                                         002302300000006010000060000457800004578000000000000000000000000000000000000000600000022000034760000000000000000000N
021982101011805799CULLAR VEGA                                                                                         008708700000001340000010000098700000987000000000000000000000000000000000000000100000007000008130000000000000000000N
021982101011805999CHAUCHINA                                                                                           008708700000003643000030000261400002614000000000000000000000000000000000000000100000049000021730000000000000000000N
021982101011806199CHIMENEAS                                                                                           012212200000001733000020000130200001302000000000000000000000000000000000000000000000004000010340000000000000000000N
021982101011806299CHURRIANA DE LA VEGA                                                                                008708700000003884000020000262100002621000000000000000000000000000000000000000500000028000021300000000000000000000N
021982101011806399DARRO                                                                                               008708700000001730000010000117400001174000000000000000000000000000000000000000000000007000007570000000000000000000N
021982101011806499DEHESAS DE GUADIX                                                                                   008908900000001015000010000049400000494000000000000000000000000000000000000000100000001000003030000000000000000000N
021982101011806699DEIFONTES                                                                                           008708700000002223000020000161000001610000000000000000000000000000000000000000000000003000013580000000000000000000N
021982101011806799DIEZMA                                                                                              008708700000001086000010000073600000736000000000000000000000000000000000000000000000002000005650000000000000000000N
021982101011806899DILAR                                                                                               008708700000001280000010000100300001003000000000000000000000000000000000000000500000002000007210000000000000000000N
021982101011806999DOLAR                                                                                               008908900000000800000010000064800000648000000000000000000000000000000000000000000000006000005120000000000000000000N
021982101011807099DUDAR                                                                                               008708700000000249000010000019000000190000000000000000000000000000000000000000000000000000001500000000000000000000N
021982101011807199DURCAL                                                                                              014714700000005074000050000365700003657000000000000000000000000000000000000000500000029000027920000000000000000000N
021982101011807299ESCUZAR                                                                                             008708700000001122000010000083400000834000000000000000000000000000000000000000000000004000005890000000000000000000N
021982101011807499FERREIRA                                                                                            008908900000000506000010000040000000400000000000000000000000000000000000000000200000008000002640000000000000000000N
021982101011807699FONELAS                                                                                             008908900000001644000020000101500001015000000000000000000000000000000000000000000000005000006620000000000000000000N
021982101011807899FREILA                                                                                              002302300000001404000010000099800000998000000000000000000000000000000000000000000000003000006370000000000000000000N
021982101011807999FUENTE VAQUEROS                                                                                     008708700000003591000030000250300002503000000000000000000000000000000000000000400000019000021570000000000000000000N
021982101011808299GALERA                                                                                              002302300000002374000030000183100001831000000000000000000000000000000000000000500000017000010690000000000000000000N
021982101011808399GOBERNADOR                                                                                          008908900000000423000010000038800000388000000000000000000000000000000000000000000000002000002610000000000000000000N
021982101011808499GOJAR                                                                                               008708700000001714000010000121000001210000000000000000000000000000000000000000100000014000010110000000000000000000N
021982101011808599GOR                                                                                                 008908900000001650000020000123100001231000000000000000000000000000000000000000100000010000007840000000000000000000N
021982101011808699GORAFE                                                                                              008908900000000879000010000062600000626000000000000000000000000000000000000000000000002000003920000000000000000000N
021982101011808799GRANADA                                                                                             008708700000246642001710017356000173560000000000000000000000000000000000000051300001462001377630000000000000000000N
021982101011808899GUADAHORTUNA                                                                                        008708700000002510000030000171500001715000000000000000000000000000000000000000100000010000012990000000000000000000N
021982101011808999GUADIX                                                                                              008908900000020218000180001394100013941000000000000000000000000000000000000000900000077000093630000000000000000000N
021982101011809399GUALCHOS                                                                                            014014000000002912000020000188500001885000000000000000000000000000000000000000300000011000015210000000000000000000N
021982101011809499GUEJAR SIERRA                                                                                       008708700000003073000030000221100002211000000000000000000000000000000000000000700000023000012810000000000000000000N
021982101011809599GUEVEJAR                                                                                            008708700000001038000010000072200000722000000000000000000000000000000000000000100000004000006400000000000000000000N
021982101011809699HUELAGO                                                                                             008908900000000820000010000058100000581000000000000000000000000000000000000000000000006000003910000000000000000000N
021982101011809799HUENEJA                                                                                             008908900000001964000030000147200001472000000000000000000000000000000000000000400000010000008900000000000000000000N
021982101011809899HUESCAR                                                                                             002302300000010176000090000700800007008000000000000000000000000000000000000003200000040000042420000000000000000000N
021982101011809999HUETOR SANTILLAN                                                                                    008708700000001328000010000093400000934000000000000000000000000000000000000000000000008000007470000000000000000000N
021982101011810099HUETOR TAJAR                                                                                        012212200000006933000040000459300004593000000000000000000000000000000000000000800000034000040470000000000000000000N
021982101011810199HUETOR VEGA                                                                                         008708700000004566000030000434600004346000000000000000000000000000000000000000300000038000034740000000000000000000N
021982101011810299ILLORA                                                                                              012212200000009797000090000706400007064000000000000000000000000000000000000000600000056000055970000000000000000000N
021982101011810399ITRABO                                                                                              014014000000001280000010000097400000974000000000000000000000000000000000000000000000002000007530000000000000000000N
021982101011810599IZNALLOZ                                                                                            008708700000006676000050000463100004631000000000000000000000000000000000000001200000009000036410000000000000000000N
021982101011810799JAYENA                                                                                              012212200000001574000010000111900001119000000000000000000000000000000000000000200000006000007170000000000000000000N
021982101011810899JEREZ DEL MARQUESADO                                                                                008908900000001395000010000120000001200000000000000000000000000000000000000000300000004000008470000000000000000000N
021982101011810999JETE                                                                                                014014000000000687000010000049900000499000000000000000000000000000000000000000000000004000004130000000000000000000N
021982101011811199JUN                                                                                                 008708700000000863000010000058600000586000000000000000000000000000000000000000000000007000004790000000000000000000N
021982101011811299JUVILES                                                                                             014714700000000234000010000018000000180000000000000000000000000000000000000000000000001000000800000000000000000000N
021982101011811499LACALAHORRA                                                                                         008908900000001096000010000081400000814000000000000000000000000000000000000000100000007000005830000000000000000000N
021982101011811599LACHAR                                                                                              008708700000001955000020000133800001338000000000000000000000000000000000000000300000005000011280000000000000000000N
021982101011811699LANJARON                                                                                            014714700000004048000040000294400002944000000000000000000000000000000000000000300000034000022970000000000000000000N
021982101011811799LANTEIRA                                                                                            008908900000000817000010000064500000645000000000000000000000000000000000000000000000003000005020000000000000000000N
021982101011811999LECRIN                                                                                              014714700000002699000060000203300002033000000000000000000000000000000000000000400000008000016600000000000000000000N
021982101011812099LENTEGI                                                                                             014014000000000367000010000027700000277000000000000000000000000000000000000000000000001000002210000000000000000000N
021982101011812199LOBRAS                                                                                              014714700000000297000010000022900000229000000000000000000000000000000000000000000000000000001490000000000000000000N
021982101011812299LOJA                                                                                                012212200000020007000220001398300013983000000000000000000000000000000000000002700000111000109010000000000000000000N
021982101011812399LUGROS                                                                                              008908900000000662000010000044700000447000000000000000000000000000000000000000000000002000002890000000000000000000N
021982101011812499LUJAR                                                                                               014014000000000684000010000051000000510000000000000000000000000000000000000000000000005000003870000000000000000000N
021982101011812699LA MALA                                                                                             008708700000001515000010000106000001060000000000000000000000000000000000000000300000005000008660000000000000000000N
021982101011812799MARACENA                                                                                            008708700000009837000080000658900006589000000000000000000000000000000000000001600000045000056950000000000000000000N
021982101011812899MARCHAL                                                                                             008908900000000538000010000040600000406000000000000000000000000000000000000000000000001000002800000000000000000000N
021982101011813299MOCLIN                                                                                              008708700000005074000060000375400003754000000000000000000000000000000000000000300000018000028250000000000000000000N
021982101011813399MOLVIZAR                                                                                            014014000000002309000020000160200001602000000000000000000000000000000000000000100000007000013640000000000000000000N
021982101011813499MONACHIL                                                                                            008708700000003523000020000239900002399000000000000000000000000000000000000000000000023000018400000000000000000000N
021982101011813599MONTEFRIO                                                                                           012212200000008457000080000597000005970000000000000000000000000000000000000002000000039000042930000000000000000000N
021982101011813699MONTEJICAR                                                                                          008708700000003063000020000206800002068000000000000000000000000000000000000000000000003000016420000000000000000000N
021982101011813799MONTILLANA                                                                                          008708700000001440000020000101900001019000000000000000000000000000000000000000000000008000007140000000000000000000N
021982101011813899MORALEDA DE ZAFAYONA                                                                                012212200000002442000020000164800001648000000000000000000000000000000000000000000000009000013640000000000000000000N
021982101011814099MOTRIL                                                                                              014014000000040506000290002665200026652000000000000000000000000000000000000002600000153000212530000000000000000000N
021982101011814199MURTAS                                                                                              014714700000001412000010000066700000667000000000000000000000000000000000000000000000003000004580000000000000000000N
021982101011814399NIGUELAS                                                                                            014714700000001313000010000102800001028000000000000000000000000000000000000000000000007000007470000000000000000000N
021982101011814499NIVAR                                                                                               008708700000000398000010000028800000288000000000000000000000000000000000000000000000000000002460000000000000000000N
021982101011814599OGIJARES                                                                                            008708700000002354000010000161500001615000000000000000000000000000000000000000200000019000013640000000000000000000N
021982101011814699ORCE                                                                                                002302300000001995000020000150700001507000000000000000000000000000000000000000300000013000009630000000000000000000N
021982101011814799ORJIVA                                                                                              014714700000005017000050000368600003686000000000000000000000000000000000000000400000020000025930000000000000000000N
021982101011814899OTIVAR                                                                                              014014000000001281000010000089000000890000000000000000000000000000000000000000000000004000006690000000000000000000N
021982101011814999OTURA                                                                                               008708700000002074000010000121400001214000000000000000000000000000000000000000800000010000010960000000000000000000N
021982101011815099PADUL                                                                                               008708700000005909000040000421800004218000000000000000000000000000000000000000300000029000031620000000000000000000N
021982101011815199PAMPANEIRA                                                                                          014714700000000645000010000042000000420000000000000000000000000000000000000000000000002000002020000000000000000000N
021982101011815299PEDRO MARTINEZ                                                                                      008908900000002220000030000162900001629000000000000000000000000000000000000000000000006000011330000000000000000000N
021982101011815399PELIGROS                                                                                            008708700000004677000020000302500003025000000000000000000000000000000000000000000000030000025790000000000000000000N
021982101011815499PEZA (LA)                                                                                           008908900000001741000030000125600001256000000000000000000000000000000000000000000000009000008520000000000000000000N
021982101011815799PINOS GENIL                                                                                         008708700000000799000010000055100000551000000000000000000000000000000000000000000000010000004710000000000000000000N
021982101011815899PINOS PUENTE                                                                                        008708700000012529000100000867800008678000000000000000000000000000000000000000200000051000073350000000000000000000N
021982101011815999PINAR                                                                                               008708700000001437000020000115000001150000000000000000000000000000000000000000000000006000009160000000000000000000N
021982101011816199POLICAR                                                                                             008908900000000254000010000019400000194000000000000000000000000000000000000000000000001000001410000000000000000000N
021982101011816299POLOPOS                                                                                             014714700000001466000030000102000001020000000000000000000000000000000000000000000000005000007590000000000000000000N
021982101011816399PORTUGOS                                                                                            014714700000000522000010000038100000381000000000000000000000000000000000000000100000003000002610000000000000000000N
021982101011816499PUEBLA DE DON FABRIQUE                                                                              002302300000002981000060000220900002209000000000000000000000000000000000000000600000010000016470000000000000000000N
021982101011816599PULIANAS                                                                                            008708700000002146000010000140800001408000000000000000000000000000000000000000200000018000012070000000000000000000N
021982101011816799PURULLENA                                                                                           008908900000002685000020000176200001762000000000000000000000000000000000000000200000012000012630000000000000000000N
021982101011816899QUENTAR                                                                                             008708700000001168000020000081700000817000000000000000000000000000000000000000200000007000006150000000000000000000N
021982101011817099RUBITE                                                                                              014714700000000617000010000043700000437000000000000000000000000000000000000000100000002000002960000000000000000000N
021982101011817199SALAR                                                                                               012212200000002859000030000202900002029000000000000000000000000000000000000000400000003000017410000000000000000000N
021982101011817399SALOBRENA                                                                                           014014000000008363000060000523800005238000000000000000000000000000000000000000300000034000044650000000000000000000N
021982101011817499SANTA CRUZ DEL COMERCIO                                                                             012212200000000603000010000044300000443000000000000000000000000000000000000000100000005000003180000000000000000000N
021982101011817599SANTA FE                                                                                            008708700000011291000090000763200007632000000000000000000000000000000000000001700000062000059970000000000000000000N
021982101011817699SOPORTUJAR                                                                                          014714700000000293000010000024900000249000000000000000000000000000000000000000100000000000001660000000000000000000N
021982101011817799SORVILAN                                                                                            014714700000000970000010000074700000747000000000000000000000000000000000000000000000001000004250000000000000000000N
021982101011817899TORRE CARDELA                                                                                       008708700000001612000010000118200001182000000000000000000000000000000000000000100000012000008240000000000000000000N
021982101011817999TORVIZCON                                                                                           014714700000001426000020000107400001074000000000000000000000000000000000000000000000006000006140000000000000000000N
021982101011818099TREVELEZ                                                                                            014714700000000894000010000065900000659000000000000000000000000000000000000000000000005000004610000000000000000000N
021982101011818199TURON                                                                                               014714700000000668000010000053000000530000000000000000000000000000000000000000000000003000002670000000000000000000N
021982101011818299UGIJAR                                                                                              014714700000003052000050000218800002188000000000000000000000000000000000000000100000011000016500000000000000000000N
021982101011818399VALOR                                                                                               014714700000001255000030000095100000951000000000000000000000000000000000000000400000007000006990000000000000000000N
021982101011818499VELEZ BENAUDALLA                                                                                    014014000000002616000030000187300001873000000000000000000000000000000000000000000000007000015580000000000000000000N
021982101011818599VENTAS DE HUELMA                                                                                    012212200000000736000010000059000000590000000000000000000000000000000000000000000000003000004320000000000000000000N
021982101011818799VILLANUE A DE LAS TORRES                                                                            008908900000001063000010000068300000683000000000000000000000000000000000000000000000003000005220000000000000000000N
021982101011818899VILLANUEVA MESIA                                                                                    012212200000001725000010000122000001220000000000000000000000000000000000000000000000012000009750000000000000000000N
021982101011818999VIZNAR                                                                                              008708700000000666000010000051500000515000000000000000000000000000000000000000200000005000003780000000000000000000N
021982101011819299ZAFARRAYA                                                                                           012212200000002059000020000158900001589000000000000000000000000000000000000000100000003000013680000000000000000000N
021982101011819399ZUBIA (LA)                                                                                          008708700000006429000040000430500004305000000000000000000000000000000000000000700000021000035120000000000000000000N
021982101011819499ZUJAR                                                                                               002302300000006078000060000418800004188000000000000000000000000000000000000000600000037000029150000000000000000000N
021982101011890299EL VALLE (RESTABAL)                                                                                 014714700000001712000030000123700001237000000000000000000000000000000000000000000000004000009080000000000000000000N
021982101011890399NEVADA (LAROLES)                                                                                    014714700000001803000030000132700001327000000000000000000000000000000000000000000000006000009820000000000000000000N
021982101011890499ALPUJARRA DE LA SIERRA                                                                              014714700000001606000020000119000001190000000000000000000000000000000000000000100000006000007850000000000000000000N
021982101011890599GABIAS.GABIA GRANDE                                                                                 008708700000005049000050000346400003464000000000000000000000000000000000000001400000003000028160000000000000000000N
021982101011890699GUAJARES.G.FARAGUIT                                                                                 014014000000001612000030000115300001153000000000000000000000000000000000000000000000008000009080000000000000000000N
021982101011890799VALLE DE ZALABI (ALCUDIA                                                                            008908900000002477000030000180700001807000000000000000000000000000000000000000000000007000013450000000000000000000N
021982101011890899VILLAMENA (COZVIJAR)                                                                                014714700000001092000020000081200000812000000000000000000000000000000000000000400000000000005600000000000000000000N
021982101011890999MORELABOR (MOREDA)                                                                                  008708700000001172000020000087100000871000000000000000000000000000000000000000000000002000007200000000000000000000N
021982101011891099PINAR (EL) (IZBOR)                                                                                  014714700000001596000020000113800001138000000000000000000000000000000000000000100000014000007910000000000000000000N
021982101011891199VEGAS DEL GENIL (PURCHIL)                                                                           008708700000002583000030000186500001865000000000000000000000000000000000000000200000022000014820000000000000000000N
021982101012100199ALAJAR                                                                                              000700700000000933000020000071500000715000000000000000000000000000000000000000000000006000005190000000000000000000N
021982101012100299ALJARAQUE                                                                                           004104100000004497000050000300800003008000000000000000000000000000000000000001000000016000023740000000000000000000N
021982101012100399ALMENDRO EL                                                                                         001001000000000930000010000063700000637000000000000000000000000000000000000000000000003000004900000000000000000000N
021982101012100499ALMONASTER LA REAL                                                                                  000700700000002418000050000181400001814000000000000000000000000000000000000000100000014000012500000000000000000000N
021982101012100599ALMONTE                                                                                             005405400000012970000140000872300008723000000000000000000000000000000000000001000000069000072660000000000000000000N
021982101012100699ALOSNO                                                                                              007207200000004820000050000370300003703000000000000000000000000000000000000000600000011000029210000000000000000000N
021982101012100799ARACENA                                                                                             000700700000006155000060000454300004543000000000000000000000000000000000000001300000046000032570000000000000000000N
021982101012100899AROCHE                                                                                              000700700000004048000040000306400003064000000000000000000000000000000000000000200000035000021020000000000000000000N
021982101012100999ARROYOMOLINOS DE LEON                                                                               000700700000001263000020000099600000996000000000000000000000000000000000000000200000006000008330000000000000000000N
021982101012101099AYAMONTE                                                                                            001001000000016098000140000958900009589000000000000000000000000000000000000001400000094000063750000000000000000000N
021982101012101199BEAS                                                                                                004104100000003857000050000290500002905000000000000000000000000000000000000000400000013000025460000000000000000000N
021982101012101299BERROCAL                                                                                            007207200000000466000010000038800000388000000000000000000000000000000000000000000000002000003230000000000000000000N
021982101012101399BOLLULLOS PAR DEL CONDADO                                                                           005405400000011924000110000823700008237000000000000000000000000000000000000000500000043000072420000000000000000000N
021982101012101499BONARES                                                                                             005005000000004822000030000329500003295000000000000000000000000000000000000001300000020000029170000000000000000000N
021982101012101599CABEZAS RUBIAS                                                                                      007207200000000987000010000073600000736000000000000000000000000000000000000000100000002000004750000000000000000000N
021982101012101699CALA                                                                                                000700700000001502000020000110200001102000000000000000000000000000000000000000700000000000009030000000000000000000N
021982101012101799CALANAS                                                                                             007207200000005446000070000421100004211000000000000000000000000000000000000000400000032000033120000000000000000000N
021982101012101899CAMPILLO EL                                                                                         007207200000002890000030000214900002149000000000000000000000000000000000000000100000030000017090000000000000000000N
021982101012101999CAMPOFRIO                                                                                           000700700000000882000010000067600000676000000000000000000000000000000000000000100000006000005330000000000000000000N
021982101012102099CANAVERAL DE LEON                                                                                   000700700000000624000010000048100000481000000000000000000000000000000000000000000000003000003230000000000000000000N
021982101012102199CARTAYA                                                                                             004104100000009098000090000595400005954000000000000000000000000000000000000000700000059000044410000000000000000000N
021982101012102299CASTANO DEL ROBLEDO                                                                                 000700700000000226000010000019800000198000000000000000000000000000000000000000000000000000001580000000000000000000N
021982101012102399CERRO DE ANDEVALO EL                                                                                007207200000003268000060000253600002536000000000000000000000000000000000000000400000010000017770000000000000000000N
021982101012102499CORTECONCEPCION                                                                                     000700700000000774000010000057800000578000000000000000000000000000000000000000100000001000003910000000000000000000N
021982101012102599CORTEGANA                                                                                           000700700000005588000080000415400004154000000000000000000000000000000000000000800000022000028750000000000000000000N
021982101012102699CORTELAZOR                                                                                          000700700000000423000010000032100000321000000000000000000000000000000000000000500000002000001880000000000000000000N
021982101012102799CUMBRES DE ENMEDIO                                                                                  000700700000000073000010000007200000072000000000000000000000000000000000000000000000000000000480000000000000000000N
021982101012102899CUMBRES DE SAN BARTOLOME                                                                            000700700000000805000010000065900000659000000000000000000000000000000000000000100000006000004610000000000000000000N
021982101012102999CUMBRES MAYORES                                                                                     000700700000002543000040000191200001912000000000000000000000000000000000000000400000014000014510000000000000000000N
021982101012103099CHUCENA                                                                                             005405400000001931000020000145200001452000000000000000000000000000000000000000000000013000012110000000000000000000N
021982101012103199ENCINASOLA                                                                                          000700700000002654000050000219700002197000000000000000000000000000000000000000300000014000016070000000000000000000N
021982101012103299ESCACENA DEL CAMPO                                                                                  005405400000002150000020000153900001539000000000000000000000000000000000000000100000009000012640000000000000000000N
021982101012103399FUENTEHERIDOS                                                                                       000700700000000674000010000051000000510000000000000000000000000000000000000000200000005000003460000000000000000000N
021982101012103499GALAROZA                                                                                            000700700000001844000020000139800001398000000000000000000000000000000000000000200000004000009730000000000000000000N
021982101012103599GIBRALEON                                                                                           004104100000009102000090000630400006304000000000000000000000000000000000000000900000052000049210000000000000000000N
021982101012103699GRANADA DE RIO TINTO                                                                                000700700000000210000010000016500000165000000000000000000000000000000000000000100000000000001340000000000000000000N
021982101012103799GRANADO EL                                                                                          001001000000000783000010000048400000484000000000000000000000000000000000000000000000001000003460000000000000000000N
021982101012103899HIGUERA DE LA SIERRA                                                                                000700700000001460000020000109700001097000000000000000000000000000000000000000100000020000008000000000000000000000N
021982101012103999HINOJALES                                                                                           000700700000000518000010000037700000377000000000000000000000000000000000000000000000001000002840000000000000000000N
021982101012104099HINOJOS                                                                                             005405400000003215000030000175300001753000000000000000000000000000000000000000400000023000014020000000000000000000N
021982101012104199HUELVA                                                                                              004104100000127822001060008602700086027000000000000000000000000000000000000023100001375000671180000000000000000000N
021982101012104299ISLA CRISTINA                                                                                       001001000000016347000140001051000010510000000000000000000000000000000000000001000000055000060900000000000000000000N
021982101012104399JABUGO                                                                                              000700700000002492000040000184000001840000000000000000000000000000000000000000200000020000014070000000000000000000N
021982101012104499LEPE                                                                                                001001000000014053000090000875600008756000000000000000000000000000000000000001400000048000057760000000000000000000N
021982101012104599LINARES DE LA SIERRA                                                                                000700700000000314000010000026500000265000000000000000000000000000000000000000000000000000001450000000000000000000N
021982101012104699LUCENA DEL PUERTO                                                                                   005005000000001907000020000130100001301000000000000000000000000000000000000000300000011000011030000000000000000000N
021982101012104799MANZANILLA                                                                                          005405400000002533000020000181100001811000000000000000000000000000000000000000300000011000014830000000000000000000N
