041983051010400199ABLA                                                                                                000000000000001723000010000131400001314000000000000000000000000000000000000000000000000000009530090000000000000000S
041983051010400299ABRUCENA                                                                                            000000000000001649000010000121100001211000000000000000000000000000000000000000000000000000009270090000000000000000S
041983051010400399ADRA                                                                                                000000000000017415000170001162100011621000000000000000000000000000000000000000000000000000063950170000000000000000S
041983051010400499ALBÁNCHEZ                                                                                           000000000000001003000010000081400000814000000000000000000000000000000000000000000000000000005080090000000000000000S
041983051010400599ALBOLODUY                                                                                           000000000000001060000010000079200000792000000000000000000000000000000000000000000000000000006600090000000000000000S
041983051010400699ALBOX                                                                                               000000000000010113000090000660400006604000000000000000000000000000000000000000000000000000042980170000000000000000S
041983051010400799ALCOLEA                                                                                             000000000000000893000010000068800000688000000000000000000000000000000000000000000000000000004830070000000000000000S
041983051010400899ALCONTAR                                                                                            000000000000000774000010000056500000565000000000000000000000000000000000000000000000000000004040070000000000000000S
041983051010400999ALCUDIA DE MONTEAGUD                                                                                000000000000000257000010000020600000206000000000000000000000000000000000000000000000000000001470070000000000000000S
041983051010401099ALHABIA                                                                                             000000000000000909000010000063200000632000000000000000000000000000000000000000000000000000005370070000000000000000S
041983051010401199ALHAMA DE ALMERÍA                                                                                   000000000000003023000030000212100002121000000000000000000000000000000000000000000000000000016830110000000000000000S
041983051010401399ALMERÍA                                                                                             000000000000140745001200009761200097612000000000000000000000000000000000000000000000000000558260270000000000000000S
041983051010401699ANTAS                                                                                               000000000000002408000030000176000001760000000000000000000000000000000000000000000000000000012540110000000000000000S
041983051010401799ARBOLEAS                                                                                            000000000000001430000020000108100001081000000000000000000000000000000000000000000000000000007820090000000000000000S
041983051010401899ARMUÑA DE ALMANZORA                                                                                 000000000000000368000010000027200000272000000000000000000000000000000000000000000000000000002170070000000000000000S
041983051010401999BACARES                                                                                             000000000000000395000010000033600000336000000000000000000000000000000000000000000000000000002190070000000000000000S
041983051010402099BAYARCAL                                                                                            000000000000000526000010000037100000371000000000000000000000000000000000000000000000000000002590070000000000000000S
041983051010402199BAYARQUE                                                                                            000000000000000283000010000022400000224000000000000000000000000000000000000000000000000000001690070000000000000000S
041983051010402299BÉDAR                                                                                               000000000000000569000010000046000000460000000000000000000000000000000000000000000000000000003250070000000000000000S
041983051010402499BENAHADUX                                                                                           000000000000001781000020000129600001296000000000000000000000000000000000000000000000000000011180090000000000000000S
041983051010402799BENIZALÓN                                                                                           000000000000000569000010000039900000399000000000000000000000000000000000000000000000000000002430070000000000000000S
041983051010402899BENTARIQUE                                                                                          000000000000000339000010000025800000258000000000000000000000000000000000000000000000000000002280070000000000000000S
041983051010402999BERJA                                                                                               000000000000011169000120000826400008264000000000000000000000000000000000000000000000000000053000170000000000000000S
041983051010403099CANJÁYAR                                                                                            000000000000002375000030000168300001683000000000000000000000000000000000000000000000000000011550110000000000000000S
041983051010403199CANTORIA                                                                                            000000000000003530000030000273200002732000000000000000000000000000000000000000000000000000019110110000000000000000S
041983051010403299CARBONERAS                                                                                          000000000000004102000040000270700002707000000000000000000000000000000000000000000000000000020600110000000000000000S
041983051010403399CASTRO DE FILABRES                                                                                  000000000000000251000010000021100000211000000000000000000000000000000000000000000000000000001230070000000000000000S
041983051010403499COBDAR                                                                                              000000000000000283000010000032700000327000000000000000000000000000000000000000000000000000002470070000000000000000S
041983051010403599CUEVAS DEL ALMANZORA                                                                                000000000000008450000070000625400006254000000000000000000000000000000000000000000000000000041920130000000000000000S
041983051010403699CHERCOS                                                                                             000000000000000371000010000028000000280000000000000000000000000000000000000000000000000000002280070000000000000000S
041983051010403799CHIRIVEL                                                                                            000000000000002162000020000171500001715000000000000000000000000000000000000000000000000000010810110000000000000000S
041983051010403899DALIAS                                                                                              000000000000003439000050000262700002627000000000000000000000000000000000000000000000000000020550110000000000000000S
041983051010403999DARRICAL                                                                                            000000000000000618000020000047300000473000000000000000000000000000000000000000000000000000002300070000000000000000S
041983051010404199ENIX                                                                                                000000000000000268000010000022300000223000000000000000000000000000000000000000000000000000001870070000000000000000S
041983051010404399FELIX                                                                                               000000000000004440000040000299400002994000000000000000000000000000000000000000000000000000018080110000000000000000S
041983051010404499FINES                                                                                               000000000000001448000010000101400001014000000000000000000000000000000000000000000000000000007780090000000000000000S
041983051010404599FIÑANA                                                                                              000000000000002820000030000204200002042000000000000000000000000000000000000000000000000000014390110000000000000000S
041983051010404699FONDÓN                                                                                              000000000000001124000020000082100000821000000000000000000000000000000000000000000000000000005720090000000000000000S
041983051010404799GÁDOR                                                                                               000000000000002557000030000188600001886000000000000000000000000000000000000000000000000000014660110000000000000000S
041983051010404899LOS GALLARDOS                                                                                       000000000000001438000020000112000001120000000000000000000000000000000000000000000000000000007640090000000000000000S
041983051010404999GARRUCHA                                                                                            000000000000003265000020000226300002263000000000000000000000000000000000000000000000000000018500110000000000000000S
041983051010405099GÉRGAL                                                                                              000000000000001368000010000104400001044000000000000000000000000000000000000000000000000000007790090000000000000000S
041983051010405199HUÉCIJA                                                                                             000000000000000586000010000043100000431000000000000000000000000000000000000000000000000000003400070000000000000000S
041983051010405299HUERCAL DE ALMERÍA                                                                                  000000000000003330000030000215500002155000000000000000000000000000000000000000000000000000015430110000000000000000S
041983051010405399HUERCAL-OVERA                                                                                       000000000000012289000140000884700008847000000000000000000000000000000000000000000000000000058250170000000000000000S
041983051010405499ILLAR                                                                                               000000000000000571000010000046100000461000000000000000000000000000000000000000000000000000004140070000000000000000S
041983051010405599INSTINCIÓN                                                                                          000000000000000705000010000055000000550000000000000000000000000000000000000000000000000000004760070000000000000000S
041983051010405799LAUJAR DE ANDARAX                                                                                   000000000000001935000020000142000001420000000000000000000000000000000000000000000000000000009510090000000000000000S
041983051010405899LÍJAR                                                                                               000000000000000572000010000042000000420000000000000000000000000000000000000000000000000000003440070000000000000000S
041983051010405999LUBRÍN                                                                                              000000000000002478000030000203200002032000000000000000000000000000000000000000000000000000013010110000000000000000S
041983051010406099LUCAINENA DE LAS TORRES                                                                             000000000000000740000010000060700000607000000000000000000000000000000000000000000000000000003900070000000000000000S
041983051010406199LÚCAR                                                                                               000000000000000729000010000056600000566000000000000000000000000000000000000000000000000000004460070000000000000000S
041983051010406299MACAEL                                                                                              000000000000005018000050000341600003416000000000000000000000000000000000000000000000000000025010130000000000000000S
041983051010406399MARÍA                                                                                               000000000000001986000030000152000001520000000000000000000000000000000000000000000000000000010420090000000000000000S
041983051010406499MOJÁCAR                                                                                             000000000000001576000010000122300001223000000000000000000000000000000000000000000000000000009340090000000000000000S
041983051010406599NACIMIENTO                                                                                          000000000000000700000010000057100000571000000000000000000000000000000000000000000000000000004300070000000000000000S
041983051010406699NÍJAR                                                                                               000000000000011023000140000763500007635000000000000000000000000000000000000000000000000000038220170000000000000000S
041983051010406799OHANES                                                                                              000000000000001042000010000084100000841000000000000000000000000000000000000000000000000000005420090000000000000000S
041983051010406899OLULA DE CASTRO                                                                                     000000000000000322000010000026000000260000000000000000000000000000000000000000000000000000001790070000000000000000S
041983051010406999OLULA DEL RÍO                                                                                       000000000000004837000040000338200003382000000000000000000000000000000000000000000000000000023570110000000000000000S
041983051010407099ORIA                                                                                                000000000000002767000040000219300002193000000000000000000000000000000000000000000000000000015430110000000000000000S
041983051010407199PADULES                                                                                             000000000000000630000010000046200000462000000000000000000000000000000000000000000000000000003430070000000000000000S
041983051010407299PARTALOA                                                                                            000000000000000505000010000041500000415000000000000000000000000000000000000000000000000000003400070000000000000000S
041983051010407399PATERNA DEL RÍO                                                                                     000000000000000522000010000041200000412000000000000000000000000000000000000000000000000000002950070000000000000000S
041983051010407499PECHINA                                                                                             000000000000001855000020000145900001459000000000000000000000000000000000000000000000000000010300090000000000000000S
041983051010407599PULPÍ                                                                                               000000000000003836000030000265900002659000000000000000000000000000000000000000000000000000020640110000000000000000S
041983051010407699PURCHENA                                                                                            000000000000001865000030000134800001348000000000000000000000000000000000000000000000000000010460090000000000000000S
041983051010407799RÁGOL                                                                                               000000000000000537000010000043000000430000000000000000000000000000000000000000000000000000003640070000000000000000S
041983051010407899RIOJA                                                                                               000000000000001247000010000092200000922000000000000000000000000000000000000000000000000000007350090000000000000000S
041983051010407999ROQUETAS DE MAR                                                                                     000000000000018891000150001221400012214000000000000000000000000000000000000000000000000000073820170000000000000000S
041983051010408099SANTA CRUZ                                                                                          000000000000000288000010000024100000241000000000000000000000000000000000000000000000000000001980070000000000000000S
041983051010408199SANTA FE DE MONDÚJAR                                                                                000000000000000520000010000041300000413000000000000000000000000000000000000000000000000000003420070000000000000000S
041983051010408299SENÉS                                                                                               000000000000000780000010000054700000547000000000000000000000000000000000000000000000000000003460070000000000000000S
041983051010408399SERÓN                                                                                               000000000000003655000050000281600002816000000000000000000000000000000000000000000000000000016330110000000000000000S
041983051010408499SIERRO                                                                                              000000000000000707000010000048000000480000000000000000000000000000000000000000000000000000002490070000000000000000S
041983051010408599SOMONTÍN                                                                                            000000000000000609000010000043000000430000000000000000000000000000000000000000000000000000003380070000000000000000S
041983051010408699SORBAS                                                                                              000000000000003852000060000308800003088000000000000000000000000000000000000000000000000000015000110000000000000000S
041983051010408899TABERNAS                                                                                            000000000000004103000050000302300003023000000000000000000000000000000000000000000000000000017450110000000000000000S
041983051010408999TABERNO                                                                                             000000000000000850000010000074100000741000000000000000000000000000000000000000000000000000004950070000000000000000S
041983051010409099TAHAL                                                                                               000000000000000662000010000051900000519000000000000000000000000000000000000000000000000000003780070000000000000000S
041983051010409199TERQUE                                                                                              000000000000000519000010000039600000396000000000000000000000000000000000000000000000000000003210070000000000000000S
041983051010409299TÍJOLA                                                                                              000000000000003761000040000266000002660000000000000000000000000000000000000000000000000000018930110000000000000000S
041983051010409399TURRE                                                                                               000000000000001890000010000148600001486000000000000000000000000000000000000000000000000000010460090000000000000000S
041983051010409499TURRILLAS                                                                                           000000000000000320000010000025800000258000000000000000000000000000000000000000000000000000001960070000000000000000S
041983051010409599ULEILA DEL CAMPO                                                                                    000000000000001122000010000089000000890000000000000000000000000000000000000000000000000000005600090000000000000000S
041983051010409699URRACAL                                                                                             000000000000000402000010000031300000313000000000000000000000000000000000000000000000000000002570070000000000000000S
041983051010409799VELEFIQUE                                                                                           000000000000000512000010000039500000395000000000000000000000000000000000000000000000000000002770070000000000000000S
041983051010409899VÉLEZ BLANCO                                                                                        000000000000003019000040000233400002334000000000000000000000000000000000000000000000000000014810110000000000000000S
041983051010409999VÉLEZ RUBIO                                                                                         000000000000006624000110000500300005003000000000000000000000000000000000000000000000000000033490130000000000000000S
041983051010410099VERA                                                                                                000000000000005341000060000374400003744000000000000000000000000000000000000000000000000000026800130000000000000000S
041983051010410199VIATOR                                                                                              000000000000002400000020000164700001647000000000000000000000000000000000000000000000000000012760110000000000000000S
041983051010410299VÍCAR                                                                                               000000000000007640000070000492200004922000000000000000000000000000000000000000000000000000028320130000000000000000S
041983051010410399ZURGENA                                                                                             000000000000002140000020000158400001584000000000000000000000000000000000000000000000000000013060110000000000000000S
041983051010490199LAS TRES VILLAS                                                                                     000000000000000824000020000062200000622000000000000000000000000000000000000000000000000000005180070000000000000000S
041983051010490299EL EJIDO                                                                                            000000000000029560000260001886400018864000000000000000000000000000000000000000000000000000086640210000000000000000S
041983051011100199ALCALÁ DE LOS GAZULES                                                                               000000000000005913000080000444200004442000000000000000000000000000000000000000000000000000023090130000000000000000S
041983051011100299ALCALÁ DEL VALLE                                                                                    000000000000005055000040000339200003392000000000000000000000000000000000000000000000000000024390130000000000000000S
041983051011100399ALGAR                                                                                               000000000000002033000020000144800001448000000000000000000000000000000000000000000000000000008680110000000000000000S
041983051011100499ALGECIRAS                                                                                           000000000000085390000670005828800058288000000000000000000000000000000000000000000000000000338170250000000000000000S
041983051011100599ALGODONALES                                                                                         000000000000005713000060000402900004029000000000000000000000000000000000000000000000000000022660130000000000000000S
041983051011100699ARCOS DE LA FRONTERA                                                                                000000000000025168000250001606900016069000000000000000000000000000000000000000000000000000109100210000000000000000S
041983051011100799BARBATE DE FRANCO                                                                                   000000000000020806000220001398100013981000000000000000000000000000000000000000000000000000079340210000000000000000S
041983051011100899LOS BARRIOS                                                                                         000000000000010593000100000116300001163000000000000000000000000000000000000000000000000000051910170000000000000000S
041983051011100999BENAOCAZ                                                                                            000000000000000624000010000035100000351000000000000000000000000000000000000000000000000000002420070000000000000000S
041983051011101099BORNOS                                                                                              000000000000007649000070000509800005098000000000000000000000000000000000000000000000000000038150130000000000000000S
041983051011101199EL BOSQUE                                                                                           000000000000001730000020000115200001152000000000000000000000000000000000000000000000000000008020090000000000000000S
041983051011101299CÁDIZ                                                                                               000000000000156711001030011322800113228000000000000000000000000000000000000000000000000000573630270000000000000000S
041983051011101399CASTELLAR DE LA FRONTERA                                                                            000000000000001984000020000137500001375000000000000000000000000000000000000000000000000000011680090000000000000000S
041983051011101499CONIL DE LA FRONTERA                                                                                000000000000013406000120000874900008749000000000000000000000000000000000000000000000000000056180170000000000000000S
041983051011101599CHICLANA DE FRONTERA                                                                                000000000000036492000320002334200023342000000000000000000000000000000000000000000000000000132870210000000000000000S
041983051011101699CHIPIONA                                                                                            000000000000012484000130000791500007915000000000000000000000000000000000000000000000000000055910170000000000000000S
041983051011101799ESPERA                                                                                              000000000000004027000040002547900025479000000000000000000000000000000000000000000000000000019550110000000000000000S
041983051011101899EL GASTOR                                                                                           000000000000002112000020000151200001512000000000000000000000000000000000000000000000000000010160110000000000000000S
041983051011101999GRAZALEMA                                                                                           000000000000002236000040000162600001626000000000000000000000000000000000000000000000000000011980110000000000000000S
041983051011102099JEREZ DE LA FRONTERA                                                                                000000000000175653001730011123000111230000000000000000000000000000000000000000000000000000718750270000000000000000S
041983051011102199JIMENA DE LA FRONTERA                                                                               000000000000008386000090000602600006026000000000000000000000000000000000000000000000000000042820130000000000000000S
041983051011102299LA LÍNEA DE LA CONCEPCIÓN                                                                           000000000000056609000530003967100039671000000000000000000000000000000000000000000000000000233370250000000000000000S
041983051011102399MEDINA SIDONIA                                                                                      000000000000014857000140000964000009640000000000000000000000000000000000000000000000000000065640170000000000000000S
041983051011102499OLVERA                                                                                              000000000000009525000090000690700006907000000000000000000000000000000000000000000000000000044700130000000000000000S
041983051011102599PATERNA DE RIVERA                                                                                   000000000000004342000040000278600002786000000000000000000000000000000000000000000000000000021300110000000000000000S
041983051011102699PRADO DEL REY                                                                                       000000000000005106000040000349700003497000000000000000000000000000000000000000000000000000025460130000000000000000S
041983051011102799EL PUERTO DE SANTA MARÍA                                                                            000000000000055748000590003680700036807000000000000000000000000000000000000000000000000000184610250000000000000000S
041983051011102899PUERTO REAL                                                                                         000000000000023890000240001597300015973000000000000000000000000000000000000000000000000000095830210000000000000000S
041983051011102999PUERTO SERRANO                                                                                      000000000000005285000050000340700003407000000000000000000000000000000000000000000000000000024880130000000000000000S
041983051011103099ROTA                                                                                                000000000000020559000220001379900013799000000000000000000000000000000000000000000000000000081880210000000000000000S
041983051011103199SAN FERNANDO                                                                                        000000000000072103000710004848200048482000000000000000000000000000000000000000000000000000252260250000000000000000S
041983051011103299SANLUCAR DE BARRAMEDA                                                                               000000000000048390000610003253500032535000000000000000000000000000000000000000000000000000181530210000000000000000S
041983051011103399SAN ROQUE                                                                                           000000000000019072000180001344200013442000000000000000000000000000000000000000000000000000082850170000000000000000S
041983051011103499SETENIL                                                                                             000000000000003508000030000260400002604000000000000000000000000000000000000000000000000000014060110000000000000000S
041983051011103599TARIFA                                                                                              000000000000014173000170001000200010002000000000000000000000000000000000000000000000000000058740170000000000000000S
041983051011103699TORRE-ALHAQUIME                                                                                     000000000000001077000010000075400000754000000000000000000000000000000000000000000000000000005630090000000000000000S
041983051011103799TREBUJENA                                                                                           000000000000006250000070000435700004357000000000000000000000000000000000000000000000000000036150130000000000000000S
041983051011103899UBRIQUE                                                                                             000000000000016763000130001112000011120000000000000000000000000000000000000000000000000000083920170000000000000000S
041983051011103999VEJER DE LA FRONTERA                                                                                000000000000012114000140000858100008581000000000000000000000000000000000000000000000000000049740170000000000000000S
041983051011104099VILLALUENGA DEL ROSARIO                                                                             000000000000000569000010000035300000353000000000000000000000000000000000000000000000000000002540070000000000000000S
041983051011104199VILLAMARTÍN                                                                                         000000000000012236000100000795600007956000000000000000000000000000000000000000000000000000054980170000000000000000S
041983051011104299ZAHARA                                                                                              000000000000002047000030000149700001497000000000000000000000000000000000000000000000000000008750110000000000000000S
041983051011400199ADAMUZ                                                                                              000000000000004380000040000320200003202000000000000000000000000000000000000000000000000000029100110000000000000000S
041983051011400299AGUILAR DE LA FRONTERA                                                                              000000000000012605000120000901000009010000000000000000000000000000000000000000000000000000073140170000000000000000S
041983051011400399ALCARACEJOS                                                                                         000000000000001462000010000113000001130000000000000000000000000000000000000000000000000000008540090000000000000000S
041983051011400499ALMEDINILLA                                                                                         000000000000002554000030000211700002117000000000000000000000000000000000000000000000000000014690110000000000000000S
041983051011400599ALMODOVAR DEL RÍO                                                                                   000000000000006416000060000437200004372000000000000000000000000000000000000000000000000000032760130000000000000000S
041983051011400699AÑORA                                                                                               000000000000001908000020000150300001503000000000000000000000000000000000000000000000000000011280090000000000000000S
041983051011400799BAENA                                                                                               000000000000017010000160001227200012272000000000000000000000000000000000000000000000000000088920170000000000000000S
041983051011400899BELALCÁZAR                                                                                          000000000000004372000050000335700003357000000000000000000000000000000000000000000000000000023510110000000000000000S
041983051011400999BÉLMEZ                                                                                              000000000000004505000070000364100003641000000000000000000000000000000000000000000000000000025460110000000000000000S
041983051011401099BENAMEJÍ                                                                                            000000000000004590000050000331300003313000000000000000000000000000000000000000000000000000025490110000000000000000S
041983051011401199LOS BLÁZQUEZ                                                                                        000000000000000842000010000065500000655000000000000000000000000000000000000000000000000000004740070000000000000000S
041983051011401299BUJALANCE                                                                                           000000000000008741000100000637300006373000000000000000000000000000000000000000000000000000052800130000000000000000S
041983051011401399CABRA                                                                                               000000000000020073000200001443100014431000000000000000000000000000000000000000000000000000101420210000000000000000S
041983051011401499CAÑETE DE LAS TORRES                                                                                000000000000003457000020000260000002600000000000000000000000000000000000000000000000000000021820110000000000000000S
041983051011401599CARCABUEY                                                                                           000000000000003007000020000241000002410000000000000000000000000000000000000000000000000000016860110000000000000000S
041983051011401699CARDEÑA                                                                                             000000000000002235000050000165100001651000000000000000000000000000000000000000000000000000013170110000000000000000S
041983051011401799LA CARLOTA                                                                                          000000000000008131000080000577300005773000000000000000000000000000000000000000000000000000045620130000000000000000S
041983051011401899EL CARPIO                                                                                           000000000000004722000040000347300003473000000000000000000000000000000000000000000000000000028670110000000000000000S
041983051011401999CASTRO DEL RIO                                                                                      000000000000007524000090000575900005759000000000000000000000000000000000000000000000000000046620130000000000000000S
041983051011402099CONQUISTA                                                                                           000000000000000630000010000051500000515000000000000000000000000000000000000000000000000000003300070000000000000000S
041983051011402199CÓRDOBA                                                                                             000000000000279386002410019837300198373000000000000000000000000000000000000000000000000001374620270000000000000000S
041983051011402299DOÑA MENCÍA                                                                                         000000000000005063000040000374300003743000000000000000000000000000000000000000000000000000028090130000000000000000S
041983051011402399DOS TORRES                                                                                          000000000000002499000030000194700001947000000000000000000000000000000000000000000000000000014140110000000000000000S
041983051011402499ENCINAS REALES                                                                                      000000000000002179000020000161900001619000000000000000000000000000000000000000000000000000012800110000000000000000S
041983051011402599ESPEJO                                                                                              000000000000005084000060000344400003444000000000000000000000000000000000000000000000000000030340130000000000000000S
041983051011402699ESPIEL                                                                                              000000000000002816000050000213500002135000000000000000000000000000000000000000000000000000015740110000000000000000S
041983051011402799FERNÁN-NUÑEZ                                                                                        000000000000008885000080000637400006374000000000000000000000000000000000000000000000000000052410130000000000000000S
041983051011402899FUENTE LA LANCHA                                                                                    000000000000000479000010000037800000378000000000000000000000000000000000000000000000000000003480070000000000000000S
041983051011402999FUENTE OBEJUNA                                                                                      000000000000006818000130000527800005278000000000000000000000000000000000000000000000000000038810130000000000000000S
041983051011403099FUENTE PALMERA                                                                                      000000000000008076000010000550500005505000000000000000000000000000000000000000000000000000044650130000000000000000S
041983051011403199FUENTE-TÓJAR                                                                                        000000000000001048000020000088300000883000000000000000000000000000000000000000000000000000005850090000000000000000S
041983051011403299LA GRANJUELA                                                                                        000000000000000644000010000050100000501000000000000000000000000000000000000000000000000000003570070000000000000000S
041983051011403399GUADALCÁZAR                                                                                         000000000000001366000020000098800000988000000000000000000000000000000000000000000000000000007630090000000000000000S
041983051011403499EL GUIJO                                                                                            000000000000000563000010000047200000472000000000000000000000000000000000000000000000000000003380070000000000000000S
041983051011403599HINOJOSA DEL DUQUE                                                                                  000000000000008159000070000649500006495000000000000000000000000000000000000000000000000000048090130000000000000000S
041983051011403699HORNACHUELOS                                                                                        000000000000005019000060000358800003588000000000000000000000000000000000000000000000000000026080130000000000000000S
041983051011403799IZNÁJAR                                                                                             000000000000007078000070000521600005216000000000000000000000000000000000000000000000000000029740130000000000000000S
041983051011403899LUCENA                                                                                              000000000000030105000270002027600020276000000000000000000000000000000000000000000000000000141400210000000000000000S
041983051011403999LUQUE                                                                                               000000000000003551000050000276000002760000000000000000000000000000000000000000000000000000020580110000000000000000S
041983051011404099MONTALBÁN DE CÓRDOBA                                                                                000000000000004150000040000301800003018000000000000000000000000000000000000000000000000000025930110000000000000000S
041983051011404199MONTEMAYOR                                                                                          000000000000003366000040000254500002545000000000000000000000000000000000000000000000000000022530110000000000000000S
041983051011404299MONTILLA                                                                                            000000000000021779000190001589400015894000000000000000000000000000000000000000000000000000129610210000000000000000S
041983051011404399MONTORO                                                                                             000000000000010115000090000737000007370000000000000000000000000000000000000000000000000000054670170000000000000000S
041983051011404499MONTURQUE                                                                                           000000000000002017000020000142600001426000000000000000000000000000000000000000000000000000008120110000000000000000S
041983051011404599MORILES                                                                                             000000000000003648000030000255100002551000000000000000000000000000000000000000000000000000020480110000000000000000S
041983051011404699NUEVA CARTEYA                                                                                       000000000000005373000050000372800003728000000000000000000000000000000000000000000000000000030780130000000000000000S
041983051011404799OBEJO                                                                                               000000000000001521000020000109300001093000000000000000000000000000000000000000000000000000007820090000000000000000S
041983051011404899PALENCIANA                                                                                          000000000000001844000020000135700001357000000000000000000000000000000000000000000000000000009010090000000000000000S
041983051011404999PALMA DEL RÍO                                                                                       000000000000017359000160001246500012465000000000000000000000000000000000000000000000000000096990170000000000000000S
041983051011405099PEDRO ABAD                                                                                          000000000000003051000020000224500002245000000000000000000000000000000000000000000000000000018880110000000000000000S
041983051011405199PEDROCHE                                                                                            000000000000002072000020000168100001681000000000000000000000000000000000000000000000000000012870110000000000000000S
041983051011405299PEÑARROYA-PUEBLONUEVO                                                                               000000000000013580000180001109000011090000000000000000000000000000000000000000000000000000070110170000000000000000S
041983051011405399POSADAS                                                                                             000000000000006490000070000478500004785000000000000000000000000000000000000000000000000000038860130000000000000000S
041983051011405499POZOBLANCO                                                                                          000000000000013906000110001039700010397000000000000000000000000000000000000000000000000000082790170000000000000000S
041983051011405599PRIEGO DE CÓRDOBA                                                                                   000000000000020101000260001488000014880000000000000000000000000000000000000000000000000000108040210000000000000000S
041983051011405699PUENTE GENIL                                                                                        000000000000026215000220001890100018901000000000000000000000000000000000000000000000000000136750210000000000000000S
041983051011405799LA RAMBLA                                                                                           000000000000006566000060000471200004712000000000000000000000000000000000000000000000000000037710130000000000000000S
041983051011405899RUTE                                                                                                000000000000010162000100000761600007616000000000000000000000000000000000000000000000000000054580170000000000000000S
041983051011405999SAN SEBASTIÁN DE LOS BALLESTEROS                                                                    000000000000000794000010000059700000597000000000000000000000000000000000000000000000000000004750070000000000000000S
041983051011406099SANTAELLA                                                                                           000000000000005225000050000364800003648000000000000000000000000000000000000000000000000000029510130000000000000000S
041983051011406199SANTA EUFEMIA                                                                                       000000000000001353000020000107200001072000000000000000000000000000000000000000000000000000009260090000000000000000S
041983051011406299TORRECAMPO                                                                                          000000000000001782000020000138500001385000000000000000000000000000000000000000000000000000009970090000000000000000S
041983051011406399VALENZUELA                                                                                          000000000000001686000020000131900001319000000000000000000000000000000000000000000000000000011350090000000000000000S
041983051011406499VALSEQUILLO                                                                                         000000000000000692000010000057900000579000000000000000000000000000000000000000000000000000003860070000000000000000S
041983051011406599LA VICTORIA                                                                                         000000000000001726000020000127100001271000000000000000000000000000000000000000000000000000010790090000000000000000S
041983051011406699VILLA DEL RÍO                                                                                       000000000000006785000060000476500004765000000000000000000000000000000000000000000000000000038340130000000000000000S
041983051011406799VILLAFRANCA DE CÓRDOBA                                                                              000000000000003553000030000255900002559000000000000000000000000000000000000000000000000000021120110000000000000000S
041983051011406899VILLAHARTA                                                                                          000000000000000731000010000055900000559000000000000000000000000000000000000000000000000000003400070000000000000000S
041983051011406999VILLANUEVA DE CÓRDOBA                                                                               000000000000010558000110000822600008226000000000000000000000000000000000000000000000000000066630170000000000000000S
041983051011407099VILLANUEVA DEL DUQUE                                                                                000000000000002194000020000173800001738000000000000000000000000000000000000000000000000000012390110000000000000000S
041983051011407199VILLANUEVA DEL REY                                                                                  000000000000001637000020000138200001382000000000000000000000000000000000000000000000000000007090090000000000000000S
041983051011407299VILLARALTO                                                                                          000000000000001880000020000158400001584000000000000000000000000000000000000000000000000000013100090000000000000000S
041983051011407399VILLAVICIOSA DE CÓRDOBA                                                                             000000000000004336000040000328900003289000000000000000000000000000000000000000000000000000024270110000000000000000S
041983051011407499EL VISO                                                                                             000000000000003515000040000284000002840000000000000000000000000000000000000000000000000000020430110000000000000000S
041983051011407599ZUHEROS                                                                                             000000000000001079000020000081800000818000000000000000000000000000000000000000000000000000006200090000000000000000S
041983051011800199AGRÓN                                                                                               000000000000000516000010000038100000381000000000000000000000000000000000000000000000000000002790070000000000000000S
041983051011800299ALAMEDILLA                                                                                          000000000000001329000020000089900000899000000000000000000000000000000000000000000000000000005830090000000000000000S
041983051011800399ALBOLOTE                                                                                            000000000000007157000050000485700004857000000000000000000000000000000000000000000000000000037580130000000000000000S
041983051011800499ALBONDÓN                                                                                            000000000000001745000020000127700001277000000000000000000000000000000000000000000000000000007850090000000000000000S
041983051011800599ALBUÑAN                                                                                             000000000000000566000010000044900000449000000000000000000000000000000000000000000000000000003520070000000000000000S
041983051011800699ALBUÑOL                                                                                             000000000000005530000060000391700003917000000000000000000000000000000000000000000000000000026540130000000000000000S
041983051011800799ALBUÑUELAS                                                                                          000000000000001595000010000115600001156000000000000000000000000000000000000000000000000000007610090000000000000000S
041983051011801099ALDEIRE                                                                                             000000000000000954000010000077800000778000000000000000000000000000000000000000000000000000004820070000000000000000S
041983051011801199ALFACAR                                                                                             000000000000002992000020000209100002091000000000000000000000000000000000000000000000000000015580110000000000000000S
041983051011801299ALGARINEJO                                                                                          000000000000005791000070000459200004592000000000000000000000000000000000000000000000000000024330130000000000000000S
041983051011801399ALHAMA DE GRANADA                                                                                   000000000000006069000060000449100004491000000000000000000000000000000000000000000000000000033580130000000000000000S
041983051011801499ALHENDÍN                                                                                            000000000000003124000020000219000002190000000000000000000000000000000000000000000000000000015830110000000000000000S
041983051011801599ALICÚN DE ORTEGA                                                                                    000000000000000674000010000047300000473000000000000000000000000000000000000000000000000000003750070000000000000000S
041983051011801699ALMEGÍJAR                                                                                           000000000000000625000010000048900000489000000000000000000000000000000000000000000000000000003110070000000000000000S
041983051011801799ALMUÑÉCAR                                                                                           000000000000016390000110001084700010847000000000000000000000000000000000000000000000000000072250170000000000000000S
041983051011801899ALQUIFE                                                                                             000000000000001420000010000110100001101000000000000000000000000000000000000000000000000000008930090000000000000000S
041983051011802099ARENAS DE REY                                                                                       000000000000002174000030000164000001640000000000000000000000000000000000000000000000000000012320110000000000000000S
041983051011802199ARMILLA                                                                                             000000000000010278000050000708800007088000000000000000000000000000000000000000000000000000043250170000000000000000S
041983051011802299ATARFE                                                                                              000000000000008993000080000636700006367000000000000000000000000000000000000000000000000000047900130000000000000000S
041983051011802399BAZA                                                                                                000000000000020896000230001517900015179000000000000000000000000000000000000000000000000000077230210000000000000000S
041983051011802499BEAS DE GRANADA                                                                                     000000000000000791000010000057500000575000000000000000000000000000000000000000000000000000004000070000000000000000S
041983051011802599BEAS DE GUADIX                                                                                      000000000000000512000010000036900000369000000000000000000000000000000000000000000000000000002370070000000000000000S
041983051011802799BENALÚA DE GUADIX                                                                                   000000000000003250000020000226900002269000000000000000000000000000000000000000000000000000016190110000000000000000S
041983051011802899BENALÚA DE LAS VILLAS                                                                               000000000000001357000010000100700001007000000000000000000000000000000000000000000000000000007590090000000000000000S
041983051011802999BENAMAUREL                                                                                          000000000000002809000040000225000002250000000000000000000000000000000000000000000000000000013830110000000000000000S
041983051011803099BÉRCHULES                                                                                           000000000000001625000020000129200001292000000000000000000000000000000000000000000000000000004820090000000000000000S
041983051011803299BUBIÓN                                                                                              000000000000000353000010000028700000287000000000000000000000000000000000000000000000000000002100070000000000000000S
041983051011803399BUSQUÍSTAR                                                                                          000000000000000596000010000045100000451000000000000000000000000000000000000000000000000000001930070000000000000000S
041983051011803499CACÍN                                                                                               000000000000000927000020000071400000714000000000000000000000000000000000000000000000000000005640070000000000000000S
041983051011803599CÁDIAR                                                                                              000000000000002336000040000173200001732000000000000000000000000000000000000000000000000000011270110000000000000000S
041983051011803699CÁJAR                                                                                               000000000000001390000010000103900001039000000000000000000000000000000000000000000000000000007770090000000000000000S
041983051011803799CALICASAS                                                                                           000000000000000543000010000035800000358000000000000000000000000000000000000000000000000000003250070000000000000000S
041983051011803899CAMPOTEJAR                                                                                          000000000000001411000010000100900001009000000000000000000000000000000000000000000000000000008220090000000000000000S
041983051011803999CANILES                                                                                             000000000000006472000090000556500005565000000000000000000000000000000000000000000000000000028160130000000000000000S
041983051011804099CAÑAR                                                                                               000000000000000574000010000049400000494000000000000000000000000000000000000000000000000000002520070000000000000000S
041983051011804299CAPILEIRA                                                                                           000000000000000712000010000053100000531000000000000000000000000000000000000000000000000000003000070000000000000000S
041983051011804499CÁSTARAS                                                                                            000000000000000455000010000035200000352000000000000000000000000000000000000000000000000000002170070000000000000000S
041983051011804599CASTILLÉJAR                                                                                         000000000000002466000030000191600001916000000000000000000000000000000000000000000000000000011960110000000000000000S
041983051011804699CASTRIL                                                                                             000000000000004124000070000298200002982000000000000000000000000000000000000000000000000000008570110000000000000000S
041983051011804799CENES DE LA VEGA                                                                                    000000000000001198000010000079100000791000000000000000000000000000000000000000000000000000006540090000000000000000S
041983051011804899CIJUELA                                                                                             000000000000001018000010000080200000802000000000000000000000000000000000000000000000000000006510090000000000000000S
041983051011804999COGOLLOS DE GUADIX                                                                                  000000000000000905000010000069600000696000000000000000000000000000000000000000000000000000004400070000000000000000S
041983051011805099COGOLLOS VEGA                                                                                       000000000000001848000020000137200001372000000000000000000000000000000000000000000000000000010760090000000000000000S
041983051011805199COLOMERA                                                                                            000000000000002142000030000155200001552000000000000000000000000000000000000000000000000000012080110000000000000000S
041983051011805399CORTES DE BAZA                                                                                      000000000000003339000050000245300002453000000000000000000000000000000000000000000000000000016220110000000000000000S
041983051011805499CORTES Y GRAENA                                                                                     000000000000001005000010000075100000751000000000000000000000000000000000000000000000000000005890090000000000000000S
041983051011805699CÚLLAR BAZA                                                                                         000000000000006010000080000464400004644000000000000000000000000000000000000000000000000000033220130000000000000000S
041983051011805799CÚLLAR VEGA                                                                                         000000000000001340000010000101200001012000000000000000000000000000000000000000000000000000007670090000000000000000S
041983051011805999CHAUCHINA                                                                                           000000000000003643000030000267000002670000000000000000000000000000000000000000000000000000021160110000000000000000S
041983051011806199CHIMENEAS                                                                                           000000000000001733000020000129600001296000000000000000000000000000000000000000000000000000010340090000000000000000S
041983051011806299CHURRIANA DE LA VEGA                                                                                000000000000003884000020000278000002780000000000000000000000000000000000000000000000000000021440110000000000000000S
041983051011806399DARRO                                                                                               000000000000001730000010000119700001197000000000000000000000000000000000000000000000000000007480090000000000000000S
041983051011806499DEHESAS DE GUADIX                                                                                   000000000000001015000010000049400000494000000000000000000000000000000000000000000000000000003040090000000000000000S
041983051011806699DEIFONTES                                                                                           000000000000002223000020000166000001660000000000000000000000000000000000000000000000000000013910110000000000000000S
041983051011806799DIEZMA                                                                                              000000000000001086000010000078300000783000000000000000000000000000000000000000000000000000006250090000000000000000S
041983051011806899DÍLAR                                                                                               000000000000001280000010000102000001020000000000000000000000000000000000000000000000000000007540090000000000000000S
041983051011806999DÓLAR                                                                                               000000000000000800000010000065600000656000000000000000000000000000000000000000000000000000004650070000000000000000S
041983051011807199DÚRCAL                                                                                              000000000000005074000050000377000003770000000000000000000000000000000000000000000000000000025600130000000000000000S
041983051011807299ESCÚZAR                                                                                             000000000000001122000010000085100000851000000000000000000000000000000000000000000000000000006060090000000000000000S
041983051011807499FERREIRA                                                                                            000000000000000506000010000039400000394000000000000000000000000000000000000000000000000000002860070000000000000000S
041983051011807699FONELAS                                                                                             000000000000001644000020000105600001056000000000000000000000000000000000000000000000000000006130090000000000000000S
041983051011807899FREILA                                                                                              000000000000001404000010000101100001011000000000000000000000000000000000000000000000000000006730090000000000000000S
041983051011807999FUENTE VAQUEROS                                                                                     000000000000003591000030000255600002556000000000000000000000000000000000000000000000000000021810110000000000000000S
041983051011808299GALERA                                                                                              000000000000002374000030000186200001862000000000000000000000000000000000000000000000000000010590110000000000000000S
041983051011808399GOBERNADOR                                                                                          000000000000000423000010000039300000393000000000000000000000000000000000000000000000000000002510070000000000000000S
041983051011808499GÓJAR                                                                                               000000000000001714000010000123200001232000000000000000000000000000000000000000000000000000009560090000000000000000S
041983051011808599GOR                                                                                                 000000000000001650000020000126100001261000000000000000000000000000000000000000000000000000007030090000000000000000S
041983051011808699GORAFE                                                                                              000000000000000879000010000063700000637000000000000000000000000000000000000000000000000000003390070000000000000000S
041983051011808799GRANADA                                                                                             000000000000246642001680017359700173597000000000000000000000000000000000000000000000000001150980270000000000000000S
041983051011808899GUADAHORTUNA                                                                                        000000000000002510000030000179300001793000000000000000000000000000000000000000000000000000012810110000000000000000S
041983051011808999GUADIX                                                                                              000000000000020218000180001425400014254000000000000000000000000000000000000000000000000000081620210000000000000000S
041983051011809399GUALCHOS                                                                                            000000000000002912000020000200600002006000000000000000000000000000000000000000000000000000015120110000000000000000S
041983051011809499GÜEJAR SIERRA                                                                                       000000000000003073000030000226800002268000000000000000000000000000000000000000000000000000013070110000000000000000S
041983051011809599GÜEVÉJAR                                                                                            000000000000001038000010000073400000734000000000000000000000000000000000000000000000000000006130090000000000000000S
041983051011809699HUÉLAGO                                                                                             000000000000000820000010000061200000612000000000000000000000000000000000000000000000000000004520070000000000000000S
041983051011809799HUENEJA                                                                                             000000000000001964000030000148800001488000000000000000000000000000000000000000000000000000009330090000000000000000S
041983051011809899HUÉSCAR                                                                                             000000000000010176000100000719300007193000000000000000000000000000000000000000000000000000040540170000000000000000S
041983051011809999HUÉTOR SANTILLÁN                                                                                    000000000000001328000010000093700000937000000000000000000000000000000000000000000000000000007520090000000000000000S
041983051011810099HUÉTOR TÁJAR                                                                                        000000000000006933000040000493800004938000000000000000000000000000000000000000000000000000040320130000000000000000S
041983051011810199HUÉTOR VEGA                                                                                         000000000000004566000020000313800003138000000000000000000000000000000000000000000000000000023010110000000000000000S
041983051011810299ILLORA                                                                                              000000000000009797000090000726400007264000000000000000000000000000000000000000000000000000057700130000000000000000S
041983051011810399ITRABO                                                                                              000000000000001280000010000099400000994000000000000000000000000000000000000000000000000000007660090000000000000000S
041983051011810599IZNALLOZ                                                                                            000000000000006676000050000476100004761000000000000000000000000000000000000000000000000000035660130000000000000000S
041983051011810799JAYENA                                                                                              000000000000001574000010000112800001128000000000000000000000000000000000000000000000000000008230090000000000000000S
041983051011810899JEREZ DEL MARQUESADO                                                                                000000000000001395000010000123700001237000000000000000000000000000000000000000000000000000008560090000000000000000S
041983051011810999JETE                                                                                                000000000000000687000010000050300000503000000000000000000000000000000000000000000000000000004280070000000000000000S
041983051011811199JUN                                                                                                 000000000000000863000010000060900000609000000000000000000000000000000000000000000000000000004690070000000000000000S
041983051011811499LACALAHORRA                                                                                         000000000000001096000010000082100000821000000000000000000000000000000000000000000000000000005710090000000000000000S
041983051011811599LÁCHAR                                                                                              000000000000001955000020000135900001359000000000000000000000000000000000000000000000000000010630090000000000000000S
041983051011811699LANJARÓN                                                                                            000000000000004048000040000305400003054000000000000000000000000000000000000000000000000000022210110000000000000000S
041983051011811799LANTEIRA                                                                                            000000000000000817000010000065100000651000000000000000000000000000000000000000000000000000004850070000000000000000S
041983051011811999LECRÍN                                                                                              000000000000002699000060000207400002074000000000000000000000000000000000000000000000000000015640110000000000000000S
041983051011812099LENTEGÍ                                                                                             000000000000000367000010000028000000280000000000000000000000000000000000000000000000000000001350070000000000000000S
041983051011812199LOBRAS                                                                                              000000000000000297000010000024300000243000000000000000000000000000000000000000000000000000000930070000000000000000S
041983051011812299LOJA                                                                                                000000000000020007000200001320100013201000000000000000000000000000000000000000000000000000093300170000000000000000S
041983051011812399LUGROS                                                                                              000000000000000662000010000046200000462000000000000000000000000000000000000000000000000000002930070000000000000000S
041983051011812499LÚJAR                                                                                               000000000000000684000010000051000000510000000000000000000000000000000000000000000000000000003470070000000000000000S
041983051011812699LA MALA                                                                                             000000000000001515000010000108600001086000000000000000000000000000000000000000000000000000008860090000000000000000S
041983051011812799MARACENA                                                                                            000000000000009837000080000669600006696000000000000000000000000000000000000000000000000000051880130000000000000000S
041983051011812899MARCHAL                                                                                             000000000000000538000010000042300000423000000000000000000000000000000000000000000000000000002810070000000000000000S
041983051011813299MOCLÍN                                                                                              000000000000005074000060000381200003812000000000000000000000000000000000000000000000000000027390130000000000000000S
041983051011813399MOLVÍZAR                                                                                            000000000000002309000020000175400001754000000000000000000000000000000000000000000000000000013670110000000000000000S
041983051011813499MONACHIL                                                                                            000000000000003523000020000246100002461000000000000000000000000000000000000000000000000000018230110000000000000000S
041983051011813599MONTEFRÍO                                                                                           000000000000008457000080000609100006091000000000000000000000000000000000000000000000000000041950130000000000000000S
041983051011813699MONTEJÍCAR                                                                                          000000000000003063000020000208500002085000000000000000000000000000000000000000000000000000015410110000000000000000S
041983051011813799MONTILLANA                                                                                          000000000000001440000020000104100001041000000000000000000000000000000000000000000000000000007400090000000000000000S
041983051011813899MORALEDA DE ZAFAYONA                                                                                000000000000002442000020000168700001687000000000000000000000000000000000000000000000000000013250110000000000000000S
041983051011814099MOTRIL                                                                                              000000000000040506000290002753100027531000000000000000000000000000000000000000000000000000186870210000000000000000S
041983051011814199MURTAS                                                                                              000000000000001412000020000108300001083000000000000000000000000000000000000000000000000000008100090000000000000000S
041983051011814399NIGÜELAS                                                                                            000000000000001313000010000105100001051000000000000000000000000000000000000000000000000000007400090000000000000000S
041983051011814499NÍVAR                                                                                               000000000000000398000010000030400000304000000000000000000000000000000000000000000000000000002630070000000000000000S
041983051011814599OGÍJARES                                                                                            000000000000002354000010000165700001657000000000000000000000000000000000000000000000000000012160110000000000000000S
041983051011814699ORCE                                                                                                000000000000001995000030000152600001526000000000000000000000000000000000000000000000000000009220090000000000000000S
041983051011814799ÓRJIVA                                                                                              000000000000005017000050000382200003822000000000000000000000000000000000000000000000000000023060130000000000000000S
041983051011814899OTÍVAR                                                                                              000000000000001281000010000091100000911000000000000000000000000000000000000000000000000000006080090000000000000000S
041983051011814999OTURA                                                                                               000000000000002074000010000149200001492000000000000000000000000000000000000000000000000000010410110000000000000000S
041983051011815099PADUL                                                                                               000000000000005909000040000429400004294000000000000000000000000000000000000000000000000000031800130000000000000000S
041983051011815199PAMPANEIRA                                                                                          000000000000000645000010000042900000429000000000000000000000000000000000000000000000000000002030070000000000000000S
041983051011815299PEDRO MARTÍNEZ                                                                                      000000000000002220000030000167600001676000000000000000000000000000000000000000000000000000010390110000000000000000S
041983051011815399PELIGROS                                                                                            000000000000004677000020000309400003094000000000000000000000000000000000000000000000000000024960110000000000000000S
041983051011815499LA PEZA                                                                                             000000000000001741000030000128000001280000000000000000000000000000000000000000000000000000008250090000000000000000S
041983051011815799PINOS GENIL                                                                                         000000000000000799000010000057300000573000000000000000000000000000000000000000000000000000004440070000000000000000S
041983051011815899PINOS PUENTE                                                                                        000000000000012529000100000892100008921000000000000000000000000000000000000000000000000000071930170000000000000000S
041983051011815999PINAR                                                                                               000000000000001437000020000119400001194000000000000000000000000000000000000000000000000000008920090000000000000000S
041983051011816199POLÍCAR                                                                                             000000000000000254000010000020500000205000000000000000000000000000000000000000000000000000001650070000000000000000S
041983051011816299POLOPOS                                                                                             000000000000001466000030000105900001059000000000000000000000000000000000000000000000000000008050090000000000000000S
041983051011816399PÓRTUGOS                                                                                            000000000000000522000010000039300000393000000000000000000000000000000000000000000000000000002700070000000000000000S
041983051011816499PUEBLA DE DON FABRIQUE                                                                              000000000000002981000050000226900002269000000000000000000000000000000000000000000000000000014780110000000000000000S
041983051011816599PULIANAS                                                                                            000000000000002146000010000144300001443000000000000000000000000000000000000000000000000000011510110000000000000000S
041983051011816799PURULLENA                                                                                           000000000000002685000020000183800001838000000000000000000000000000000000000000000000000000012520110000000000000000S
041983051011816899QUÉNTAR                                                                                             000000000000001168000020000083300000833000000000000000000000000000000000000000000000000000006000090000000000000000S
041983051011817099RUBITE                                                                                              000000000000000617000010000046600000466000000000000000000000000000000000000000000000000000003010070000000000000000S
041983051011817199SALAR                                                                                               000000000000002859000030000206100002061000000000000000000000000000000000000000000000000000018040110000000000000000S
041983051011817399SALOBREÑA                                                                                           000000000000008363000060000565300005653000000000000000000000000000000000000000000000000000042280130000000000000000S
041983051011817499SANTA CRUZ DEL COMERCIO                                                                             000000000000000603000010000045900000459000000000000000000000000000000000000000000000000000003410070000000000000000S
041983051011817599SANTA FÉ                                                                                            000000000000011291000090000777700007777000000000000000000000000000000000000000000000000000055270170000000000000000S
041983051011817699SOPORTÚJAR                                                                                          000000000000000293000010000025500000255000000000000000000000000000000000000000000000000000001550070000000000000000S
041983051011817799SORVILÁN                                                                                            000000000000000970000010000074800000748000000000000000000000000000000000000000000000000000003710070000000000000000S
041983051011817899TORRE CARDELA                                                                                       000000000000001612000010000117700001177000000000000000000000000000000000000000000000000000007410090000000000000000S
041983051011817999TORVIZCÓN                                                                                           000000000000001426000020000108400001084000000000000000000000000000000000000000000000000000006880090000000000000000S
041983051011818099TRÉVELEZ                                                                                            000000000000000894000010000067700000677000000000000000000000000000000000000000000000000000004590070000000000000000S
041983051011818199TURÓN                                                                                               000000000000000668000010000055100000551000000000000000000000000000000000000000000000000000003130070000000000000000S
041983051011818299UGÍJAR                                                                                              000000000000003052000050000236700002367000000000000000000000000000000000000000000000000000015100110000000000000000S
041983051011818399VALOR                                                                                               000000000000001255000030000097800000978000000000000000000000000000000000000000000000000000006520090000000000000000S
041983051011818499VÉLEZ BENAUDALLA                                                                                    000000000000002616000030000191900001919000000000000000000000000000000000000000000000000000015490110000000000000000S
041983051011818599VENTAS DE HUELMA                                                                                    000000000000000736000010000058600000586000000000000000000000000000000000000000000000000000004240070000000000000000S
041983051011818799VILLANUEVA DE LAS TORRES                                                                            000000000000001063000010000071700000717000000000000000000000000000000000000000000000000000005230090000000000000000S
041983051011818899VILLANUEVA MESÍA                                                                                    000000000000001725000010000123900001239000000000000000000000000000000000000000000000000000010240090000000000000000S
041983051011818999VÍZNAR                                                                                              000000000000000666000010000050500000505000000000000000000000000000000000000000000000000000004030070000000000000000S
041983051011819299ZAFARRAYA                                                                                           000000000000002059000020000163800001638000000000000000000000000000000000000000000000000000014590110000000000000000S
041983051011819399LA ZUBIA                                                                                            000000000000006429000040000443000004430000000000000000000000000000000000000000000000000000031330130000000000000000S
041983051011819499ZÚJAR                                                                                               000000000000003775000050000247900002479000000000000000000000000000000000000000000000000000016060110000000000000000S
041983051011890199LA TAHA                                                                                             000000000000001082000030000085400000854000000000000000000000000000000000000000000000000000004250090000000000000000S
041983051011890299EL VALLE                                                                                            000000000000001712000030000123600001236000000000000000000000000000000000000000000000000000008280090000000000000000S
041983051011890399NEVADA                                                                                              000000000000001803000030000135500001355000000000000000000000000000000000000000000000000000009280090000000000000000S
041983051011890499ALPUJARRA SIERRA                                                                                    000000000000001606000020000124200001242000000000000000000000000000000000000000000000000000008110090000000000000000S
041983051011890599LAS GABIAS                                                                                          000000000000005049000050000351900003519000000000000000000000000000000000000000000000000000025800130000000000000000S
041983051011890699LOS GUAJARES                                                                                        000000000000001612000030000123000001230000000000000000000000000000000000000000000000000000009010090000000000000000S
041983051011890799VALLE DEL ZALABÍ                                                                                    000000000000002477000030000187200001872000000000000000000000000000000000000000000000000000014280110000000000000000S
041983051011890899VILLAMENA                                                                                           000000000000001092000020000083000000830000000000000000000000000000000000000000000000000000006090090000000000000000S
041983051011890999MORELÁBOR                                                                                           000000000000001172000020000087700000877000000000000000000000000000000000000000000000000000007100090000000000000000S
041983051011891099EL PINAR                                                                                            000000000000001596000020000118300001183000000000000000000000000000000000000000000000000000007630090000000000000000S
041983051011891199VEGAS DEL GENIL                                                                                     000000000000002583000030000193400001934000000000000000000000000000000000000000000000000000014480110000000000000000S
041983051011891299CUEVAS DEL CAMPO                                                                                    000000000000002303000030000176400001764000000000000000000000000000000000000000000000000000011930110000000000000000S
041983051011891399ZAGRA                                                                                               000000000000001212000020000123000001230000000000000000000000000000000000000000000000000000006920090000000000000000S
041983051012100199ALÁJAR                                                                                              000000000000000933000020000075200000752000000000000000000000000000000000000000000000000000005190070000000000000000S
041983051012100299ALJARAQUE                                                                                           000000000000004497000050000306500003065000000000000000000000000000000000000000000000000000020770110000000000000000S
041983051012100399EL ALMENDRO                                                                                         000000000000000930000010000066300000663000000000000000000000000000000000000000000000000000004620070000000000000000S
041983051012100499ALMONASTER LA REAL                                                                                  000000000000002418000050000190400001904000000000000000000000000000000000000000000000000000011100110000000000000000S
041983051012100599ALMONTE                                                                                             000000000000012970000140000883600008836000000000000000000000000000000000000000000000000000064150170000000000000000S
041983051012100699ALOSNO                                                                                              000000000000004820000050000367700003677000000000000000000000000000000000000000000000000000026860110000000000000000S
041983051012100799ARACENA                                                                                             000000000000006155000060000463700004637000000000000000000000000000000000000000000000000000030040130000000000000000S
041983051012100899AROCHE                                                                                              000000000000004048000040000302800003028000000000000000000000000000000000000000000000000000019050110000000000000000S
041983051012100999ARROYOMOLINOS DE LEON                                                                               000000000000001263000020000101300001013000000000000000000000000000000000000000000000000000007740090000000000000000S
041983051012101099AYAMONTE                                                                                            000000000000016098000140000992400009924000000000000000000000000000000000000000000000000000050540170000000000000000S
041983051012101199BEAS                                                                                                000000000000003857000050000296800002968000000000000000000000000000000000000000000000000000023780110000000000000000S
041983051012101299BERROCAL                                                                                            000000000000000466000010000038400000384000000000000000000000000000000000000000000000000000003060070000000000000000S
041983051012101399BOLULLOS DEL CONDADO                                                                                000000000000011924000110000877600008776000000000000000000000000000000000000000000000000000068860170000000000000000S
041983051012101499BONARES                                                                                             000000000000004822000030000338300003383000000000000000000000000000000000000000000000000000028960110000000000000000S
041983051012101599CABEZAS RUBIAS                                                                                      000000000000000987000010000073000000730000000000000000000000000000000000000000000000000000002000070000000000000000S
041983051012101699CALA                                                                                                000000000000001502000020000112800001128000000000000000000000000000000000000000000000000000006980090000000000000000S
041983051012101799CALAÑAS                                                                                             000000000000005446000070000427100004271000000000000000000000000000000000000000000000000000030950130000000000000000S
041983051012101899EL CAMPILLO                                                                                         000000000000002890000030000217400002174000000000000000000000000000000000000000000000000000014610110000000000000000S
041983051012101999CAMPOFRÍO                                                                                           000000000000000882000010000068000000680000000000000000000000000000000000000000000000000000004110070000000000000000S
041983051012102099CAÑAVERAL DE LEÓN                                                                                   000000000000000624000010000050000000500000000000000000000000000000000000000000000000000000003470070000000000000000S
041983051012102199CARTAYA                                                                                             000000000000009098000090000635500006355000000000000000000000000000000000000000000000000000039450130000000000000000S
041983051012102399EL CERRO DE ANDÉVALO                                                                                000000000000003268000060000259800002598000000000000000000000000000000000000000000000000000014610110000000000000000S
041983051012102499CORTECONCEPCIÓN                                                                                     000000000000000774000010000059700000597000000000000000000000000000000000000000000000000000003210070000000000000000S
041983051012102599CORTEGANA                                                                                           000000000000005588000080000425700004257000000000000000000000000000000000000000000000000000025120130000000000000000S
041983051012102699CORTELAZOR                                                                                          000000000000000423000010000033400000334000000000000000000000000000000000000000000000000000001480070000000000000000S
041983051012102899CUMBRES DE SAN BARTOLOMÉ                                                                            000000000000000805000010000065200000652000000000000000000000000000000000000000000000000000005150070000000000000000S
041983051012102999CUMBRES MAYORES                                                                                     000000000000002543000040000193100001931000000000000000000000000000000000000000000000000000010340110000000000000000S
041983051012103099CHUCENA                                                                                             000000000000001931000020000148300001483000000000000000000000000000000000000000000000000000012370090000000000000000S
041983051012103199ENCINASOLA                                                                                          000000000000002654000050000220700002207000000000000000000000000000000000000000000000000000014930110000000000000000S
041983051012103299ESCACENA DEL CAMPO                                                                                  000000000000002150000020000158300001583000000000000000000000000000000000000000000000000000013840110000000000000000S
041983051012103399FUENTEHERIDOS                                                                                       000000000000000674000010000051200000512000000000000000000000000000000000000000000000000000003670070000000000000000S
041983051012103499GALAROZA                                                                                            000000000000001844000020000139000001390000000000000000000000000000000000000000000000000000009560090000000000000000S
041983051012103599GIBRALEÓN                                                                                           000000000000009102000090000642000006420000000000000000000000000000000000000000000000000000045590130000000000000000S
041983051012103799EL GRANADO                                                                                          000000000000000783000010000051400000514000000000000000000000000000000000000000000000000000003900070000000000000000S
041983051012103899HIGUERA DE LA SIERRA                                                                                000000000000001460000020000112200001122000000000000000000000000000000000000000000000000000008110090000000000000000S
041983051012103999HINOJALES                                                                                           000000000000000518000010000039600000396000000000000000000000000000000000000000000000000000002490070000000000000000S
041983051012104099HINOJOS                                                                                             000000000000003215000040000242200002422000000000000000000000000000000000000000000000000000019520110000000000000000S
041983051012104199HUELVA                                                                                              000000000000127822001060008795400087954000000000000000000000000000000000000000000000000000475390270000000000000000S
041983051012104299ISLA CRISTINA                                                                                       000000000000016347000140001082800010828000000000000000000000000000000000000000000000000000054090170000000000000000S
041983051012104399JABUGO                                                                                              000000000000002492000040000186100001861000000000000000000000000000000000000000000000000000013230110000000000000000S
041983051012104499LEPE                                                                                                000000000000014053000060000861700008617000000000000000000000000000000000000000000000000000044570170000000000000000S
041983051012104599LINARES DE LA SIERRA                                                                                000000000000000314000010000026400000264000000000000000000000000000000000000000000000000000001650070000000000000000S
041983051012104699LUCENA DEL PUERTO                                                                                   000000000000001907000020000133800001338000000000000000000000000000000000000000000000000000010300090000000000000000S
041983051012104799MANZANILLA                                                                                          000000000000002533000020000192400001924000000000000000000000000000000000000000000000000000016390110000000000000000S
041983051012104899LOS MARINES                                                                                         000000000000000392000010000030500000305000000000000000000000000000000000000000000000000000001980070000000000000000S
041983051012104999MINAS DE RÍO TINTO                                                                                  000000000000006099000070000465000004650000000000000000000000000000000000000000000000000000028990130000000000000000S
041983051012105099MOGUER                                                                                              000000000000010084000100000667200006672000000000000000000000000000000000000000000000000000039280170000000000000000S
041983051012105199LA NAVA                                                                                             000000000000000395000010000033100000331000000000000000000000000000000000000000000000000000002100070000000000000000S
041983051012105299NERVA                                                                                               000000000000007715000080000585500005855000000000000000000000000000000000000000000000000000037470130000000000000000S
041983051012105399NIEBLA                                                                                              000000000000003922000030000284000002840000000000000000000000000000000000000000000000000000022210110000000000000000S
