0819830510104012ALICÚN                                                                                              0000000002440118218200000000000000100516005S
0819830510104014ALMOCITA                                                                                            0000000002480120120100000000000000500314405S
0819830510104015ALSODUX                                                                                             0000000001400111611600000000000000000108805S
0819830510104023BEIRES                                                                                              0000000002070117217200000000000000000211005S
0819830510104026BENITAGLA                                                                                           0000000001290110710700000000000000200003105S
0819830510104056LAROYA                                                                                              0000000002000114114100000000000000401608605S
0819830510104087SUFLÍ                                                                                               0000000002460120220200000000000000300313005S
0819830510141028CASTILLEJA DE GUZMÁN                                                                                0000000002080116016000000000000002600210305S
0819830510222002ABIZANDA                                                                                            0000000001340110710700000000000000000307305S
0819830510222003ADAHUESCA                                                                                           0000000001830116216200000000000000400211605S
0819830510222004AGÜERO                                                                                              0000000002380121521500000000000000105010205S
0819830510222011ALBERO ALTO                                                                                         0000000001310111511500000000000000000108705S
0819830510222012ALBERO BAJO                                                                                         0000000001310113313300000000000000200311905S
0819830510222019ALERRE                                                                                              0000000001280109709700000000000000100108805S
0819830510222020ALFÁNTEGA                                                                                           0000000001430112112100000000000000000009105S
0819830510222032ARAGÜÉS DEL PUERTO                                                                                  0000000001680114114100000000000000500308805S
0819830510222036ARGAVIESO                                                                                           0000000001340111611600000000000000100309505S
0919830510222037ARGUIS                                                                                              0000000000520105005000000000000000000004705S
0819830510222042ARLOR                                                                                               0000000002290118718700000000000001401312505S
0819830510222043BAELLS                                                                                              0000000002260120020000000000000000001111105S
0819830510222045BALDELLOU                                                                                           0000000002060118418400000000000000100116005S
0919830510222047BANASTAS                                                                                            0000000000840106006000000000000000100205005S
0819830510222049BARBUÉS                                                                                             0000000001400112112100000000000000300008805S
0819830510222050BARBUÑALES                                                                                          0000000001210111211200000000000000100310205S
0819830510222051BARCABO                                                                                             0000000001100110010000000000000000000506605S
0819830510222064BLECUA Y TORRES                                                                                     0000000002400120120100000000000000401009505S
0919830510222067BONANSA                                                                                             0000000000660106106100000000000000000203305S
0919830510222068BORAU                                                                                               0000000000840106506500000000000000100105405S
0819830510222079CAPDESASO                                                                                           0000000002250120120100000000000000702809505S
0819830510222085CASTELFLORITE                                                                                       0000000001940114914900000000000000200311705S
0819830510222086CASTIELLO DE JACA                                                                                   0000000001680113513500000000000000100310305S
0819830510222087CASTIGALEU                                                                                          0000000001110109609600000000000000100007205S
0819830510222090COLUNGO                                                                                             0000000001790114914900000000000000100610805S
0819830510222094CHALAMERA                                                                                           0000000002010116516500000000000000000214405S
0819830510222095CHÍA                                                                                                0000000001500112312300000000000000000210805S
0819830510222096CHIMILLAS                                                                                           0000000001660112812800000000000000000910105S
0819830510222105ESTOPIÑÁN DEL CASTILLO                                                                              0000000002190121021000000000000000000613205S
0919830510222106FAGO                                                                                                0000000000530105605600000000000000000103305S
0919830510222107FANLO                                                                                               0000000000620106906900000000000000000103205S
0919830510222122HOZ DE JACA                                                                                         0000000000940107707700000000000000000204705S
0819830510222126IBIECA                                                                                              0000000001360111911900000000000000400208505S
0819830510222127IGRIÉS                                                                                              0000000001590114214200000000000000300311905S
0819830510222131JASA                                                                                                0000000001250111211200000000000000501806605S
0819830510222133LABUERDA                                                                                            0000000001830115515500000000000001400809905S
0819830510222139LAPERDIGUERA                                                                                        0000000001210109209200000000000000400905705S
0819830510222141LASCELLAS PONZANO                                                                                   0000000002190119019000000000000000100316305S
0819830510222142LASCUARRE                                                                                           0000000002000117117100000000000001602009105S
0819830510222151LOSCORRALES                                                                                         0000000001580113913900000000000002701304605S
0819830510222155MONESMA Y CAJIGAR                                                                                   0000000001300111511500000000000000000109905S
0819830510222156MONFLORITE-LASCASAS                                                                                 0000000002110119019000000000000000400015405S
0819830510222162NOVALES                                                                                             0000000002500122422400000000000000500115705S
0819830510222163NUENO                                                                                               0000000002380121221200000000000000102612605S
0919830510222164OLVENA                                                                                              0000000000630105605600000000000000600203605S
0919830510222168PALO                                                                                                0000000000510105205200000000000000300103005S
0819830510129021ATAJATE                                                                                             0000000001490111511500000000000000100607505S
0819830510222176PERALTILLA                                                                                          0000000002030117017000000000000001401211205S
0819830510222177PERARRÚA                                                                                            0000000001920116916900000000000000700010805S
0819830510222178PERTUSA                                                                                             0000000001600114314300000000000000100411005S
0819830510222188PUENTE DE MONTAÑANA                                                                                 0000000001660115515500000000000000100609505S
0819830510222189PUÉRTOLAS                                                                                           0000000002050116916900000000000000500611405S
0819830510222190EL PUEYO DE ARAGUÁS                                                                                 0000000001780115615600000000000000400207905S
0819830510222195QUICENA                                                                                             0000000001320110110100000000000000100007805S
0819830510222203SALILLAS                                                                                            0000000001720115015000000000000000500609105S
0819830510222207SAN JUAN DE PLAN                                                                                    0000000001770114814800000000000000100509605S
0819830510222208SANTA CILIA DE JACA                                                                                 0000000002140118618600000000000000200813505S
0819830510222209SANTA CRUZ DE LA SERÓS                                                                              0000000001440112012000000000000000000309105S
0819830510222212SANTALIESTRA Y SAN QUÍLEZ                                                                           0000000001170110910900000000000000000209105S
0819830510222214SECASTILLA                                                                                          0000000002400120620600000000000000100414105S
0919830510222218SENÉS DE ALCUBIERRE                                                                                 0000000000800106106100000000000000000005305S
0919830510222221SESUÉ                                                                                               0000000000770106206200000000000000000005805S
0819830510222223SOPEIRA                                                                                             0000000001510113413400000000000000700309205S
0819830510222228TIERZ                                                                                               0000000002190116716700000000000001300911605S
0819830510222232TORRALBA DE ARAGÓN                                                                                  0000000001840115815800000000000000501009005S
0819830510222233TORRE LA RIBERA                                                                                     0000000001180110510500000000000000000009305S
0819830510222235TORRES DE ALCANADRE                                                                                 0000000001490112912900000000000000600507005S
0819830510222239TRAMACED                                                                                            0000000001610113113100000000000000100909305S
0819830510222242VALFARTA                                                                                            0000000001240110310300000000000000100308805S
0919830510222243VALLE DE BARDAJÍ                                                                                    0000000000760106606600000000000000300004805S
0919830510222244VALLE DE LIERP                                                                                      0000000000730106906900000000000000100205305S
0819830510222246VERACRUZ                                                                                            0000000001410113213200000000000000000210005S
0919830510222247VIACAMP Y LITERA                                                                                    0000000000510104604600000000000000000102905S
0819830510222248VICIÉN                                                                                              0000000001430112112100000000000001000204705S
0819830510222249VILLANOVA                                                                                           0000000001210109409400000000000000000307605S
0819830510222252YEBRA DE BASA                                                                                       0000000001840115315300000000000000100912105S
0919830510222253YESERO                                                                                              0000000000610105605600000000000000100404305S
0819830510244001ABABUJ                                                                                              0000000001150108908900000000000000100006505S
0919830510244002ABEJUELA                                                                                            0000000000630105505500000000000000100204405S
0919830510244003AGUATÓN                                                                                             0000000000500104504500000000000000000003105S
0819830510244005AGUILAR DE ALFAMBRA                                                                                 0000000001310110910900000000000000200007905S
0919830510244011ALCAINE                                                                                             0000000000540106006000000000000000100002605S
0919830510244018ALMOHAJA                                                                                            0000000000340103603600000000000000000002905S
0819830510244019ALOBRAS                                                                                             0000000001500113613600000000000000000406605S
0919830510244020ALPEÑÉS                                                                                             0000000000350103203200000000000000000002905S
0819830510118043CARATAUNAS                                                                                          0000000001640113813800000000000000300408305S
0819830510118070DÚDAR                                                                                               0000000002490119719700000000000000001013705S
0819830510118112JUVILES                                                                                             0000000002340118918900000000000000200202005S
0819830510121022CASTAÑO DEL ROBLEDO                                                                                 0000000002280120020000000000000000100315205S
0919830510121027CUMBRES DE ENMEDIO                                                                                  0000000000770106806800000000000000500203805S
0819830510121036GRANADA DE RÍO TINTO                                                                                0000000002190116616600000000000000100412105S
0819830510121059PUERTO MORAL                                                                                        0000000002210117117100000000000000100013805S
0819830511401060YÉCORA                                                                                              0000000002140121321300000000000000300715805S
0819830511401061ZALDUENDO                                                                                           0000000001280111311300000000000000100609505S
0919830511626086LEDESMA DE LA COGOLLA                                                                               0000000000300102602600000000000000200102105S
0819830511626091LUMBRERAS                                                                                           0000000001550114814800000000000000000213005S
0819830511626092MANJARRÉS                                                                                           0000000001650113213200000000000000700007205S
0919830511626093MANSILLA                                                                                            0000000000650105805800000000000000200303705S
0819830511626094MANZANARES                                                                                          0000000001770116516500000000000000100014305S
0819830511626095MATUTE                                                                                              0000000002370122022000000000000000200715505S
0919830511626098MUNILLA                                                                                             0000000000960109509500000000000000100308305S
0919830511626100MURO DE AGUAS                                                                                       0000000000520105005000000000000000000002905S
0919830511626101MURO EN CAMEROS                                                                                     0000000000610105805800000000000000100202905S
0919830511626106NESTARES                                                                                            0000000000360102902900000000000000200002405S
0819830511626107NIEVA                                                                                               0000000001460114614600000000000000000312205S
0819830511626109OCHÁNDURI                                                                                           0000000001510114014000000000000000500110405S
0919830511626113PAZUENGOS                                                                                           0000000000350102802800000000000000200002305S
0819830511626114PEDROSO                                                                                             0000000001350111411400000000000001400106305S
0919830511626115PINILLOS                                                                                            0000000000290102502500000000000000000002205S
0919830511626118PRADILLO                                                                                            0000000000920108008000000000000000000306405S
0919830511626121RABANERA                                                                                            0000000000360103603600000000000000000203105S
0819830511626122EL RASILLO                                                                                          0000000001150109409400000000000000000008205S
0919830511626126ROBRES DEL CASTILLO                                                                                 0000000000390104404400000000000000100102905S
0819830511626128SAJAZARRA                                                                                           0000000002110118718700000000000000000114505S
0819830511626132SAN ROMÁN DE CAMEROS                                                                                0000000001880117417400000000000000000013505S
0819830511626134SANTA COLOMA                                                                                        0000000001850116016000000000000000000012905S
0819830511626135SANTA ENGRACIA DE JUBERA                                                                            0000000002300121121100000000000000000315905S
0819830511626136SANTA EULALIA BAJERA                                                                                0000000001400112712700000000000000401207405S
0819830511626139SAN TORCUATO                                                                                        0000000002090115815800000000000000000111805S
0819830511626143SOJUELA                                                                                             0000000001130109909900000000000000000207405S
0819830511626146SOTO EN CAMEROS                                                                                     0000000001250112812800000000000000300007905S
0819830511626152TORRECILLA SOBRE ALESANCO                                                                           0000000001130109009000000000000000100705505S
0819830511626162VALGAÑÓN                                                                                            0000000002010117217200000000000001003908305S
0819830511626163VENTOSA                                                                                             0000000001820115115100000000000000000412605S
0919830511626164VENTROSA                                                                                            0000000000900109509500000000000000201203605S
0819830511626166VILLALBA DE RIOJA                                                                                   0000000001950115815800000000000000300113205S
0819830511626167VILLALOBAR DE RIOJA                                                                                 0000000002120118518500000000000000000014705S
0819830511626169VILLANUEVA DE CAMEROS                                                                               0000000001350110410400000000000000000108505S
0919830511626172VILLAREJO                                                                                           0000000000740106706700000000000000400003505S
0919830511626175VILLAVELAYO                                                                                         0000000000880107307300000000000000000005805S
0819830511626176VILLAVERDE DE RIOJA                                                                                 0000000001150110110100000000000000300107305S
0819830511712134VILLAR DE CANES                                                                                     0000000002440119119100000000000000000114805S
0819830511712137VILLORES                                                                                            0000000001200110110100000000000000000007205S
0819830511712141ZORITA DEL MAESTRAZGO                                                                               0000000001760114514500000000000000401407705S
0819830511746033ALMISERAT                                                                                           0000000002410118118100000000000001000614005S
0819830511746038ANDILLA                                                                                             0000000001710115615600000000000000000113105S
0819830511746043AYELO DE RUGAT                                                                                      0000000002220117517500000000000000100015205S
0819830511746050BENAGÉBER                                                                                           0000000001450110910900000000000000900406105S
0819830511746061BENIFLÁ                                                                                             0000000001660112812800000000000000400311005S
0819830511746069BENISUERA                                                                                           0000000002210118118100000000000001000813905S
0819830511626178VINIEGRA DE ABAJO                                                                                   0000000001250113013000000000000000400807505S
0919830511626179VINIEGRA DE ARRIBA                                                                                  0000000000490104304300000000000000100002905S
0919830511626183ZORRAQUÍN                                                                                           0000000000480104304300000000000000200502905S
0819830511420012ARAMA                                                                                               0000000001760113513500000000000000500208905S
0819830511420020BEIZAMA                                                                                             0000000001750114414400000000000001100505205S
0819830511420026CERAIN                                                                                              0000000002410121121100000000000000101409205S
0819830511420037GAINZA                                                                                              0000000001240110310300000000000000000006305S
0819830511420048LARRAUL                                                                                             0000000001800114614600000000000000000205305S
0819830511420057MUTIOLA                                                                                             0000000002330119019000000000000000000403905S
0919830511420060OREJA                                                                                               0000000000920107907900000000000000001104205S
0819830511420068SALINAS DE LENIZ                                                                                    0000000002080116116100000000000002400607905S
0819830511703007ALCOCER DE PLANES                                                                                   0000000001320113013000000000000000400110605S
0819830511703016ALMUDAINA                                                                                           0000000001620113813800000000000000100111605S
0819830511703020BALONES                                                                                             0000000002040117317300000000000000300213005S
0819830511703032BENIFALLIN                                                                                          0000000001960116516500000000000000600311205S
0819830511703033BENIFATO                                                                                            0000000001240110610600000000000000100108905S
0919830511703036BENILLUP                                                                                            0000000000620104204200000000000000100103805S
0819830511703039BENIMASOT                                                                                           0000000001150109709700000000000000200208205S
0819830511703062DAYA VIEJA                                                                                          0000000002330116816800000000000000000015905S
0819830511703067FACHECA                                                                                             0000000001780113713700000000000000100011205S
0819830511703068FAMORCA                                                                                             0000000001260110810800000000000000000307105S
0819830511703075GUADALEST                                                                                           0000000001640114014000000000000000500211905S
0819830511746087CASAS ALTAS                                                                                         0000000002200118018000000000000000105807505S
0819830511746121ESTUBENY                                                                                            0000000001650112812800000000000000000112505S
0819830511746152LUGAR NUEVO DE LA CORONA                                                                            0000000001200108808800000000000000400006405S
0819830511703086MILLENA                                                                                             0000000001400113313300000000000000100211305S
0819830511448039GARAY                                                                                               0000000002350118118100000000000000100814305S
0819830511448047GUIZABURUAGA                                                                                        0000000001500113113100000000000000000007605S
0919830511703130TOLLOS                                                                                              0000000000490104704700000000000000000002805S
0819830511703134VALL DE ALCALA                                                                                      0000000001800114814800000000000000100213705S
0819830511712002AHIN                                                                                                0000000001620113713700000000000000000310805S
0819830511712013ARANUEL                                                                                             0000000001580114414400000000000000500209505S
0819830511712015ARGELITA                                                                                            0000000001020108908900000000000001000207405S
0819830511712017AYÓDAR                                                                                              0000000002160119619600000000000000100217105S
0819830511712020BARRACAS                                                                                            0000000002320118618600000000000000100114205S
0819830511712024BENAFER                                                                                             0000000001300111511500000000000000302006905S
0919830511712037CASTELL DE CABRES                                                                                   0000000000360102802800000000000000100001905S
0819830511712041CASTILLO VILLAMALEFA                                                                                0000000002260118218200000000000000600114005S
0819830511331119GÜESA                                                                                               0000000001130110310300000000000000000206505S
0919830511746086CARRÍCOLA                                                                                           0000000000870106206200000000000000000105305S
0919830511746091CASTELLONET                                                                                         0000000000980107907900000000000000100007605S
0919830511746140GUARDAMAR                                                                                           0000000000460104804800000000000000000004205S
0919830511331121GUIRGUILLANO                                                                                        0000000000810106806800000000000000000005105S
0819830511331124IBARGOITI                                                                                           0000000001570113713700000000000000300408205S
0819830511331127IRAÑETA                                                                                             0000000001670113313300000000000000000009205S
0819830511331132IZAGAONDOA                                                                                          0000000001710113213200000000000000200108405S
0819830511331135JAVIER                                                                                              0000000001840116916900000000000000300113105S
0819830511331141LAPOBLACIÓN                                                                                         0000000002070117317300000000000000000712105S
0819830511331143LARRAONA                                                                                            0000000002170117317300000000000000200111105S
0819830511331145LAZAGURRÍA                                                                                          0000000002470120720700000000000000300317105S
0919830511331146LEACHE                                                                                              0000000000870107407400000000000000000105505S
0819830511331148LEGARIA                                                                                             0000000001910116116100000000000001100910505S
0819830511331150LEOZ                                                                                                0000000001420112912900000000000000100211305S
0819830511331156LIZOÁIN                                                                                             0000000002190117617600000000000000000412305S
0819830511331160LUQUIN                                                                                              0000000001770115215200000000000000700310605S
0819830511331162MARAÑÓN                                                                                             0000000001120109109100000000000000000007605S
0919830511331170MIRAFUENTES                                                                                         0000000000720107307300000000000000100005105S
0819830511331174MORENTÍN                                                                                            0000000001440112412400000000000000000109805S
0819830511331175MUES                                                                                                0000000001870117517500000000000000000213805S
0919830511331182NAZAR                                                                                               0000000000670106106100000000000000100004905S
0819830511331184OCO                                                                                                 0000000001040108108100000000000001200804405S
0819830511331187OIZ                                                                                                 0000000001680112812800000000000001200606705S
0819830511331188OLAIBAR                                                                                             0000000001890113013000000000000000000110905S
0919830511331190OLEJUA                                                                                              0000000000860107807800000000000000200005205S
0819830511331192OLORIZ                                                                                              0000000001610113713700000000000000200608705S
0919830511331197ORÍSOAIN                                                                                            0000000000760106506500000000000000100305305S
0919830511331203PETILLA DE ARAGÓN                                                                                   0000000000790106706700000000000000100004005S
0819830511331204PIEDRAMILLERA                                                                                       0000000001170110210200000000000000000008605S
0819830511331209ROMANZADO                                                                                           0000000001770116116100000000000001401506005S
0919830511331211RONCESVALLES                                                                                        0000000000480103803800000000000000000002905S
0819830511331213SALDÍAS                                                                                             0000000001690113813800000000000001400607005S
0819830511331214SALINAS DE ORO                                                                                      0000000001170109809800000000000000100107305S
0919830511626004AJAMIL                                                                                              0000000000730106406400000000000000100005505S
0819830511626010ALESÓN                                                                                              0000000001710114314300000000000000000013105S
0919830511626012ALMARZA DE CAMEROS                                                                                  0000000000360102502500000000000000000001605S
0919830511626016ARENZANA DE ARRIBA                                                                                  0000000000520104704700000000000000000004605S
0819830511626025BAÑOS DE RIOJA                                                                                      0000000001600113813800000000000000001010905S
0919830511626029BERGASILLAS BAJERA                                                                                  0000000000290102602600000000000000000901705S
0919830511626030BEZARES                                                                                             0000000000310102302300000000000000300001305S
0819830511626031BOBADILLA                                                                                           0000000002220118118100000000000000203909305S
0919830511626032BRIEVA DE CAMEROS                                                                                   0000000000680108608600000000000001201103605S
0819830511626033BRIÑAS                                                                                              0000000002250119319300000000000000100415905S
0919830511626035CABEZÓN DE CAMEROS                                                                                  0000000000360103103100000000000000000002805S
0819830511626038CANALES DE LA SIERRA                                                                                0000000001020110410400000000000000000006805S
0819830511626039CANILLAS DE RÍO TUERTO                                                                              0000000001020107407400000000000000600604405S
0819830511626040CAÑAS                                                                                               0000000001380111611600000000000000000010505S
0919830511626044CASTROVIEJO                                                                                         0000000000450103803800000000000000000002705S
0919830511626045CELLORIGO                                                                                           0000000000310103203200000000000000000002605S
0919830511626048CIDAMÓN                                                                                             0000000000910107007000000000000000000106105S
0819830511626049CIHURI                                                                                              0000000002100117817800000000000000102210505S
0819830511626050CIRUEÑA                                                                                             0000000001690114814800000000000001202006805S
0819830511626051CLAVIJO                                                                                             0000000002040116116100000000000000000013105S
0819830511626055CORPORALES                                                                                          0000000001040108908900000000000000000207805S
0919830511626057DAROCA                                                                                              0000000000580104704700000000000000600303105S
0819830511626058ENCISO                                                                                              0000000002020119119100000000000000000112705S
0819830511626060ESTOLLO                                                                                             0000000001790115715700000000000000600410505S
0819830511626062FONCEA                                                                                              0000000001710113813800000000000000700209505S
0819830511626063FONZALECHE                                                                                          0000000002360118118100000000000000201014105S
0919830511626065GALBÁRRULI                                                                                          0000000000640104904900000000000000000204205S
0919830511626068GIMILEO                                                                                             0000000000820107007000000000000000000006405S
0819830511626073HERRAMÉLLURI                                                                                        0000000002220119419400000000000000301215305S
0819830511626076HORMILLEJA                                                                                          0000000002340119719700000000000000201414905S
0919830511626077HORNILLOS                                                                                           0000000000390103003000000000000000100002105S
0819830511712055CHODOS                                                                                              0000000001810115615600000000000000800108105S
0919830511712058ESPADILLA                                                                                           0000000000460104404400000000000000300203005S
0919830511712063FUENTE LA REINA                                                                                     0000000000390103603600000000000000000002605S
0919830511712064FUENTES DE AYODAR                                                                                   0000000000820106906900000000000000500703605S
0819830511712068HERBÉS                                                                                              0000000001670113713700000000000000500508305S
0919830511712069HIGUERAS                                                                                            0000000000510104304300000000000000100002505S
0819830511712076MATET                                                                                               0000000001660113513500000000000001100809305S
0819830511712083OLOCAU DEL REY                                                                                      0000000001920116116100000000000000000014405S
0919830511712087PALANQUES                                                                                           0000000000320102102100000000000000000002005S
0919830511712088PAVÍAS                                                                                              0000000000860107507500000000000000100006405S
0919830511712097SACAÑET                                                                                             0000000000560103803800000000000000500002905S
0819830511712103SARRATELLA                                                                                          0000000001670112612600000000000000700008605S
0819830511712112TODOLELLA                                                                                           0000000001850116816800000000000000000014505S
0819830511712113TOGA                                                                                                0000000001200110510500000000000000300203905S
0919830511712116TORRALBA DEL PINAR                                                                                  0000000000810107507500000000000000300004905S
0919830511712118TORRECHIVA                                                                                          0000000000590105605600000000000000000305005S
0819830511712127VALLIBONA                                                                                           0000000001930117417400000000000000000009505S
0819830511712131VILLAMALUR                                                                                          0000000002000117017000000000000000000015605S
0919830511626078HORNOS DE MONCALVILLO                                                                               0000000000910108508500000000000000200006405S
0919830511626081JALÓN DE CAMEROS                                                                                    0000000000310102702700000000000000100002505S
0819830511626082LAGUNA DE CAMEROS                                                                                   0000000002240117517500000000000002102708005S
0819830511712133VILLANUEVA DE VIVER                                                                                 0000000001730114814800000000000000000008905S
0819830511331219SANSOL                                                                                              0000000001840115915900000000000000400011805S
0819830511331222SARRIÉS                                                                                             0000000001120110110100000000000000000206205S
0819830511331230TORRALBA DEL RÍO                                                                                    0000000002010117317300000000000003500407805S
0819830511331231TORRES DEL RÍO                                                                                      0000000002500121021000000000000001001110905S
0919830511331233TULEBRAS                                                                                            0000000000980109309300000000000001401205605S
0819830511331234UCAR                                                                                                0000000001210110510500000000000000000806505S
0819830511331237UNCITI                                                                                              0000000001700115915900000000000000000312105S
0819830511331238UNZUE                                                                                               0000000001280110610600000000000000000308205S
0819830511331241URRAUL ALTO                                                                                         0000000001620113813800000000000000100206805S
0819830511331244URROZ DE SANTESTEBAN                                                                                0000000002380118018000000000000000000412005S
0819830511331253VIDAURRETA                                                                                          0000000001280112212200000000000002600306605S
0819830511331255VILLAMAYOR DE MONJARDÍN                                                                             0000000001130110110100000000000000100706905S
0819830511331262ZABALZA                                                                                             0000000001520111811800000000000000901006405S
0819830511331265ZÚÑIGA                                                                                              0000000001470112712700000000000000000410505S
0819830511401006ARMIÑÓN                                                                                             0000000001570113313300000000000000400407705S
0819830511401019CRIPAN                                                                                              0000000002020115815800000000000000700610105S
0819830511401021ELBURGO                                                                                             0000000002030117117100000000000000001110705S
0819830511401034LEZA                                                                                                0000000001760115615600000000000000001711105S
0819830511401041NAVARIDAS                                                                                           0000000001800118418400000000000001303609405S
0819830511401044PEÑACERRADA                                                                                         0000000002310118718700000000000001101210405S
0819830511401049SALINAS DE AÑANA                                                                                    0000000002000117217200000000000000400212705S
0819830511401052SAMANIEGO                                                                                           0000000002400120820800000000000000400817105S
0819830511228097NAVARREDONDA                                                                                        0000000001220111411400000000000000000208105S
0819830511228101OLMEDA DE LAS FUENTES                                                                               0000000001520112312300000000000000200310305S
0819830511228112PINILLA DEL VALLE                                                                                   0000000001370110810800000000000000501707305S
0819830511228114PIÑUECAR                                                                                            0000000001550112412400000000000000101907005S
0819830510925201SARROCA DE BELLERA                                                                                  0000000001510114914900000000000000000007405S
0819830510925202SENTERADA                                                                                           0000000001630112512500000000000000400006405S
0819830510925218TARRÉS                                                                                              0000000001090109009000000000000000200105105S
0819830510925219TARROJA                                                                                             0000000002250120120100000000000000000111305S
0819830510925221TIRVIA                                                                                              0000000001060111011000000000000000000406405S
0819830510639051PESQUERA                                                                                            0000000001160110010000000000000000600607405S
0819830510639070SAN MIGUEL DE AGUAYO                                                                                0000000001950116216200000000000000200212205S
0819830511010199VALDEHUNCAR                                                                                         0000000001790114214200000000000000400407105S
0819830511010208VILLA DEL REY                                                                                       0000000002390119819800000000000001402808005S
0819830510716068CASTILLEJO DE INIESTA                                                                               0000000002220117917900000000000000400212705S
0919830510716070CASTILLEJO-SIERRA                                                                                   0000000000590105405400000000000000100003005S
0919830510716071CASTILLO-ALBARÁÑEZ                                                                                  0000000000430103603600000000000000000003405S
0919830510716074LA CIERVA                                                                                           0000000000820108508500000000000000100206005S
0919830510716079CUEVA DEL HIERRO                                                                                    0000000000530105205200000000000000002402505S
0819830510716083FRESNEDA DE ALTAREJOS                                                                               0000000001350110310300000000000000000208405S
0819830510716091FUERTESCUSA                                                                                         0000000001460112312300000000000000100210705S
0819830510716092GABALDÓN                                                                                            0000000002310118218200000000000000100615405S
0819830510716095GRAJA DE CAMPALBO                                                                                   0000000001790114814800000000000000000012905S
0819830510716104HONTECILLAS                                                                                         0000000001340112012000000000000000000410005S
0819830510716107HUÉLAMO                                                                                             0000000001550113613600000000000000000411105S
0819830510716108HUELVES                                                                                             0000000001030109009000000000000000200007005S
0819830510716109HUÉRGUINA                                                                                           0000000001070109609600000000000000700005905S
0819830510716110HUERTA DE LA OBISPALÍA                                                                              0000000001820116316300000000000000000809605S
0819830510716111HUERTA DEL MARQUESADO                                                                               0000000002250118218200000000000003700707805S
0819830510716115LAGUNA DEL MARQUESADO                                                                               0000000001030109809800000000000000900604105S
0819830510716116LAGUNASECA                                                                                          0000000001360111211200000000000000200307505S
0819830510716123MASEGOSA                                                                                            0000000001560113813800000000000000100208505S
0819830510716128MONREAL DEL LLANO                                                                                   0000000001080108308300000000000000100107405S
0819830510716132MOTA DE ALTAREJOS                                                                                   0000000001000107707700000000000000100103305S
0819830510716137NARBONETA                                                                                           0000000001070110610600000000000000000008605S
0919830510716140OLMEDA DE LA CUESTA                                                                                 0000000000970108908900000000000000000107105S
0919830510716143OLMEDILLA DE ELIZ                                                                                   0000000000450103203200000000000000000001705S
0819830510716146PAJARÓN                                                                                             0000000001860115415400000000000000200312205S
0819830510639088TRESVISO                                                                                            0000000001060111011000000000000000200305905S
0819830510809138FUENTELISENDO                                                                                       0000000001720113713700000000000000000112205S
0819830510809139FUENTEMOLINOS                                                                                       0000000001930115815800000000000001201005305S
0919830510809155HAZA                                                                                                0000000000470103503500000000000000000003105S
0919830510809143GALBARROS                                                                                           0000000000300103003000000000000000000102205S
0819830510809148GRIJALBA                                                                                            0000000001830114514500000000000000400010105S
0819830510809149GRISALENA                                                                                           0000000001050110110100000000000000100107405S
0819830510809159HONTANAS                                                                                            0000000001040108008000000000000000100106605S
0819830510809166LAS HORMAZAS                                                                                        0000000002030116116100000000000001400208805S
0919830510809169HORTIGÜELA                                                                                          0000000000950108608600000000000000000406105S
0819830510809172HUÉRMECES                                                                                           0000000002170117217200000000000000500111405S
0919830510809176HURONES                                                                                             0000000000850106806800000000000000300505005S
0819830510809178IBRILLOS                                                                                            0000000001480112912900000000000000600508105S
0919830510809179IGLESIARRUBIA                                                                                       0000000000880106206200000000000000000304505S
0819830510809182ITERO DEL CASTILLO                                                                                  0000000001830114714700000000000001400208205S
0919830510809184JARAMILLO QUEMADO                                                                                   0000000000260102702700000000000000200002005S
0819830510809190JUNTA DE VILLALBA DE LOSA                                                                           0000000002350110410400000000000000200307805S
0919830510809191JURISDICCION DE LARA                                                                                0000000000820106606600000000000000100204805S
0919830510809192JURISDICCION DE SAN ZADOR                                                                           0000000000930109209200000000000000400207605S
0819830510809195LLANO DE BUREBA                                                                                     0000000001070109709700000000000000000006205S
0819830510809196MADRIGAL DEL MONTE                                                                                  0000000002500121521500000000000002401209505S
0819830510809197MADRIGALEJO DEL MONTE                                                                               0000000002010116816800000000000000100112805S
0819830510809198MAHAMUD                                                                                             0000000002390119619600000000000000401909905S
0819830510809206MAZUELA                                                                                             0000000001220109409400000000000002000004805S
0819830510809199MAMBRILLA DE CASTREJÓN                                                                              0000000001950116316300000000000000100315105S
0819830510809200MAMBRILLAS DE LARA                                                                                  0000000001050109109100000000000000000007005S
0819830510809201MAMOLAR                                                                                             0000000001200110110100000000000003100206105S
0819830510809220MIRAVECHE                                                                                           0000000001850115815800000000000000000610805S
0919830510809223MONASTERIO DE LA SIERRA                                                                             0000000000430103903900000000000000000102705S
0819830510809226MONTERRUBIO DE LA DEMANDA                                                                           0000000001220110910900000000000000100708305S
0819830510809227MONTORIO                                                                                            0000000002100116216200000000000000000811605S
0919830510809230NAVAS DE BUREBA                                                                                     0000000000640105505500000000000000000004605S
0819830510809231NEBREDA                                                                                             0000000001950115615600000000000000400510305S
0819830510716147PAJARONCILLO                                                                                        0000000001450113513500000000000000000008905S
0819830510716149PALOMERA                                                                                            0000000001540113113100000000000000401106905S
0919830510716151PAREDES                                                                                             0000000000850107207200000000000000000405505S
0919830510716152PARRA DE LAS VEGAS                                                                                  0000000000980107407400000000000000200005005S
0819830510716161PIQUERAS DE CASTILLO                                                                                0000000001220109809800000000000000700206105S
0819830510716162PORTALRUBIO DE GUADAMEJUD                                                                           0000000001670113713700000000000000100011005S
0819830510716163PORTILLA                                                                                            0000000001430112412400000000000000000211805S
0819830510716165POYATOS                                                                                             0000000001500112612600000000000000000011805S
0919830510809236OLMILLOS DE MUÑO                                                                                    0000000000660105305300000000000000000304205S
0819830510809241ORBANEJA-RIOPICO                                                                                    0000000001260110810800000000000001201805605S
0819830510809242PADILLA DE ABAJO                                                                                    0000000001710114314300000000000000100610605S
0819830510809243PADILLA DE  ARRIBA                                                                                  0000000001850115715700000000000000000810305S
0819830510809244PADRONES DE BUREBA                                                                                  0000000001530113713700000000000000400306905S
0919830510809247PALACIOS DE RIOPISUERGA                                                                             0000000000630106006000000000000000200804105S
0819830510809249PALAZUELOS DE MUÑÓ                                                                                  0000000001100108808800000000000000200006705S
0819830510809253PARDILLA                                                                                            0000000001370111911900000000000001700307005S
0819830510809255PARTIDO DE LA SIERRA EN T                                                                           0000000001150110210200000000000000700206105S
0819830510809257PEDROSA DEL PÁRAMO                                                                                  0000000001270110610600000000000000200008105S
0819830510842027AREVALO DE LA SIERRA                                                                                0000000001890116216200000000000000300107505S
0819830510824111PEDROSA DEL REY                                                                                     0000000002160118818800000000000000002209505S
0819830510824141SAN ADRIÁN DEL VALLE                                                                                0000000002480121321300000000000000701314705S
0819830510824149SAN MILLÁN  DE LOS CABALL                                                                           0000000002490119019000000000000000800415205S
0819830510842033BAYUBAS DE ARRIBA                                                                                   0000000001160110210200000000000001400107405S
0919830510842034BERATÓN                                                                                             0000000000450104104100000000000000000003905S
0919830510842026ARENILLAS                                                                                           0000000000590104704700000000000000200003705S
0919830510842028AUSEJO DE LA SIERRA                                                                                 0000000000710106006000000000000000000203305S
0919830510842031BARCONES                                                                                            0000000000800107407400000000000000200405205S
0919830510842036BLACOS                                                                                              0000000000960108208200000000000000200107405S
0919830510842037BLIECOS                                                                                             0000000000850107507500000000000000200004505S
0919830510842038BORJABAD                                                                                            0000000000960108308300000000000000000005105S
0919830510842041BUBEROS                                                                                             0000000000780106606600000000000000200004805S
0919830510842042BUITRAGO                                                                                            0000000000560103803800000000000000000002805S
0919830510842046CALATAÑAZOR                                                                                         0000000000840107007000000000000000900003805S
0919830510842050CAÑAMAQUE                                                                                           0000000000990108908900000000000002300602405S
0919830510842051CARABANTES                                                                                          0000000000730106606600000000000000200004905S
0919830510842053CARRASCOSA DE ABAJO                                                                                 0000000000670104904900000000000000400004205S
0919830510842054CARRASCOSA DE LA SIERRA                                                                             0000000000350103603600000000000000100002605S
0919830510842056CASTILFRÍO DE LA SIERRA                                                                             0000000000550104204200000000000000100002905S
0919830510842059CENTENERA DE ANDALUZ                                                                                0000000000520104704700000000000000200003805S
0819830510842060CERBÓN                                                                                              0000000001290110710700000000000000200405605S
0819830510842062CIGUDOSA                                                                                            0000000001300111311300000000000000000207005S
0819830510842063CIHUELA                                                                                             0000000001600113513500000000000000000008905S
0819830510842064CIRIA                                                                                               0000000001190110710700000000000000300007905S
0919830510842065CIRUJALES DEL RÍO                                                                                   0000000000480104204200000000000000000003505S
0819830510842068COSCURITA                                                                                           0000000002260119219200000000000000701309405S
0819830510842070CUBILLA                                                                                             0000000001340110410400000000000000200208405S
0819830510842073CUEVA DE ÁGREDA                                                                                     0000000001790116216200000000000001900607905S
0819830510842075DÉBANOS                                                                                             0000000002220118418400000000000004801007705S
0919830510842079ESCOBOSA DE ALMAZÁN                                                                                 0000000000680105205200000000000000800103505S
0919830510842083FRECHILLA DE ALMAZÁN                                                                                0000000000800107407400000000000000000005105S
0919830510842084FRESNO DE CARACENA                                                                                  0000000000740106406400000000000000000504305S
0819830510842086FUENTECAMBRÓN                                                                                       0000000001080109009000000000000000300304905S
0919830510842087FUENTECANTOS                                                                                        0000000000650105005000000000000000200003105S
0819830510842088FUENTELMONGE                                                                                        0000000002320120520500000000000000200413605S
0919830510842089FUENTELSAZ DE SORIA                                                                                 0000000000840106906900000000000000300003805S
0819830510842092FUENTES DE MAGAÑA                                                                                   0000000001920118118100000000000001200309505S
0819830510842093FUENTESTRÚN                                                                                         0000000001380113713700000000000000500207805S
0919830510842097GORMAZ                                                                                              0000000000550105005000000000000000600003305S
0919830510842098HERRERA DE SORIA                                                                                    0000000000500104904900000000000000800002705S
0919830510842100HINOJOSA DEL CAMPO                                                                                  0000000000760107107100000000000000200004305S
0819830510842105LICERAS                                                                                             0000000001000107807800000000000000500304805S
0919830510842106LA LOSILLA                                                                                          0000000000340103003000000000000000000102105S
0819830510842107MAGAÑA                                                                                              0000000001890117217200000000000000000012305S
0819830510824178VALDEMORA                                                                                           0000000001950115515500000000000000400611705S
0819830510847187VEGA DE RUIPONCE                                                                                    0000000002370120120100000000000000100215505S
0819830510847188VEGA DE VALDETRONCO                                                                                 0000000002050117317300000000000005600000905S
0819830510847189VELASCÁLVARO                                                                                        0000000002050115015000000000000000001312105S
0819830510847190VELILLA                                                                                             0000000001880115115100000000000000101112505S
0819830510847191VELLIZA                                                                                             0000000002290121021000000000000000100316305S
0819830510847192VENTOSA DE LA CUESTA                                                                                0000000002130117217200000000000000401312205S
0919830510847196VILLABARUZ DE CAMPOS                                                                                0000000000770107507500000000000000600304705S
0819830510847198VILLACARRALÓN                                                                                       0000000001850115715700000000000002001105905S
0819830510847199VILLACID DE CAMPOS                                                                                  0000000001630115615600000000000000200312305S
0819830510847200VILLACO                                                                                             0000000002000115415400000000000000100511905S
0819830510847203VILLAFRADES DE CAMPOS                                                                               0000000002360121521500000000000000300712305S
0819830510847206VILLAFUERTE                                                                                         0000000002160118918900000000000000100415605S
0819830510847208VILLAGÓMEZ LA NUEVA                                                                                 0000000001510113313300000000000001500707305S
0919830510847209VILLALÁN DE CAMPOS                                                                                  0000000000610105305300000000000000000003905S
0819830510847213VILLALBARBA                                                                                         0000000002080118518500000000000000000514305S
0819830510847215VILLAMURIEL DE CAMPOS                                                                               0000000001060109009000000000000000000607005S
0819830510847216VILLÁN DE TORDESILLAS                                                                               0000000001770113913900000000000000500210405S
0819830510847221VILLANUEVA DE LOS INFANTE                                                                           0000000001660111811800000000000000200108905S
0819830510847222VILLANUEVA DE SAN MANCIO                                                                            0000000001210109609600000000000001001005605S
0819830510847224VILLARMENTERO DE ESGUEVA                                                                            0000000001270110610600000000000000800408005S
0819830510847225VILLASEXMIR                                                                                         0000000001490112412400000000000000000011005S
0819830510847227VILLAVELLID                                                                                         0000000001370111511500000000000000100407905S
0819830510847232LA ZARZA                                                                                            0000000002010114314300000000000000100013005S
0819830510849002ABEZAMES                                                                                            0000000001590113713700000000000001100409005S
0819830510849012ARGAÑÍN                                                                                             0000000001540114814800000000000000700004505S
0819830510244021ALLEPUZ                                                                                             0000000002360120720700000000000000200411805S
0919830510244024ANADÓN                                                                                              0000000000410103203200000000000000000002905S
0819830510244026ARCOS DE LAS SALINAS                                                                                0000000001690116216200000000000000000213605S
0919830510244032BÁDENAS                                                                                             0000000000380102902900000000000000000002005S
0819830510244035BARRACHINA                                                                                          0000000002390120420400000000000000000714505S
0819830510244038BELMONTE DE SAN JOSÉ                                                                                0000000002120119219200000000000000500215005S
0919830510244041BEZAS                                                                                               0000000000880108108100000000000000400006605S
0819830510244043BLESA                                                                                               0000000002150119319300000000000000001810105S
0819830510244044BORDÓN                                                                                              0000000001560112712700000000000000100111205S
0819830510244046BUEÑA                                                                                               0000000001780115015000000000000000300308905S
0819830510244052CALOMARDE                                                                                           0000000001170110710700000000000000001005305S
0819830510244053CAMAÑAS                                                                                             0000000002080116616600000000000000000111405S
0819830510244054CAMARENA DE LA SIERRA                                                                               0000000001750115615600000000000000300010705S
0819830510244055CAMARILLAS                                                                                          0000000001790114714700000000000007800200005S
0919830510244060CAÑADA DE BENATANDUZ                                                                                0000000000910108408400000000000001000102905S
0819830510244061LA CAÑADA DE VERICH                                                                                 0000000001540113413400000000000001601605905S
0819830510244062CAÑADA VELLIDA                                                                                      0000000001010108508500000000000000600103305S
0819830510244063CAÑIZAR DEL OLIVAR                                                                                  0000000001630113813800000000000000100309705S
0819830510244064CASCANTE DEL RÍO                                                                                    0000000001810116516500000000000001000308405S
0819830510244065CASTEJÓN DE TORNOS                                                                                  0000000001550113113100000000000000100011305S
0819830510244067CASTELNOU                                                                                           0000000001480112512500000000000001700806005S
0819830510244070EL CASTELLAR                                                                                        0000000001220110710700000000000001100306505S
0819830510244077LA CEROLLERA                                                                                        0000000001270110710700000000000000100308805S
0819830510244082CORBALÁN                                                                                            0000000001290111411400000000000000700006305S
0819830510244084CORTES DE ARAGÓN                                                                                    0000000001920116516500000000000000100311305S
0819830510244085COSA                                                                                                0000000001470111711700000000000000100407305S
0819830510244087CRIVILLÉN                                                                                           0000000001610114714700000000000000303407305S
0819830510244088LA CUBA                                                                                             0000000001210110910900000000000000300009205S
0919830510244089CUBLA                                                                                               0000000000960109009000000000000000500606605S
0819830510244090CUCALÓN                                                                                             0000000001360110210200000000000000400207205S
0819830510244092EL CUERVO                                                                                           0000000001840116716700000000000000400612405S
0819830510244093CUEVAS DE ALMUDÉN                                                                                   0000000001380110810800000000000000000507505S
0819830510244094CUEVAS LABRADAS                                                                                     0000000002480119419400000000000000500715305S
0819830510244101FERRERUELA DE HUERVA                                                                                0000000001420112512500000000000001300107005S
0919830510244102FONFRÍA                                                                                             0000000000450103503500000000000000000003105S
0819830510244103FORMICHE ALTO                                                                                       0000000002400120120100000000000000000816805S
0819830510244105FÓRNOLES                                                                                            0000000001300115515500000000000000100811005S
0819830510244109FRÍAS DE ALBARRACÍN                                                                                 0000000002370120620600000000000000400614105S
0919830510244110FUENFERRADA                                                                                         0000000000590105605600000000000000200304105S
0819830510244111FUENTES CALIENTES                                                                                   0000000002110116316300000000000002101608005S
0919830510244113FUENTES DE RUBIELOS                                                                                 0000000000960108808800000000000000500105405S
0819830510244115GALVE                                                                                               0000000001380113213200000000000000200210505S
0819830511228116POZUELO DEL REY                                                                                     0000000002110116416400000000000000200015205S
0919830511228118PUEBLA DE LA SIERRA                                                                                 0000000000690106006000000000000000000004105S
0919830511228121REDUEÑA                                                                                             0000000000890106306300000000000000100106005S
0819830511228126ROBREGORDO                                                                                          0000000001070109609600000000000000600605405S
0919830511228138LA SERNA DEL MONTE                                                                                  0000000000760105805800000000000000000004405S
0819830511228143SOMOSIERRA                                                                                          0000000001160109709700000000000000400308105S
0819830511228153TORREMOCHA DEL  JARAMA                                                                              0000000001650112512500000000000000000511605S
0819830511228166VALVERDE DE ALCALÁ                                                                                  0000000002010116316300000000000000000014405S
0819830511228169VENTURADA                                                                                           0000000001790115815800000000000000000213505S
0919830510842108MAJÁN                                                                                               0000000000450103703700000000000000200602105S
0819830510842110MATALEBRERAS                                                                                        0000000002020117117100000000000000000511905S
0819830510842115MIÑO DE MEDINA                                                                                      0000000002060117717700000000000000300309205S
0819830510842116MIÑO DE SAN ESTEBAN                                                                                 0000000001790114414400000000000000100009905S
0819830510842117MOLINOS DE DUERO                                                                                    0000000002040117517500000000000000200113505S
0919830510842118MOMBLONA                                                                                            0000000000670105205200000000000000000004005S
0819830510842121MONTENEGRO DE CAMEROS                                                                               0000000001360110210200000000000001400505105S
0819830510842124MURIEL DE LA FUENTE                                                                                 0000000001240111111100000000000000501405805S
0819830510842125MURIEL VIEJO                                                                                        0000000001320111811800000000000000200210105S
0819830510842127NAFRÍA DE UCERO                                                                                     0000000001400112412400000000000001100007005S
0919830510842128NARROS                                                                                              0000000000700106606600000000000000000005505S
0819830510925222TIURANA                                                                                             0000000001990116116100000000000000100014805S
0819830510925253VILOSELL                                                                                            0000000002310120120100000000000000000916505S
0819830510925904CASTELL DE MUR                                                                                      0000000002050118318300000000000000300107305S
0819830510925909LA VANSA FORNOLS                                                                                    0000000001570116816800000000000000500406505S
0819830510925910JOSÁ TUIXENT                                                                                        0000000001330111811800000000000000200308005S
0919830510943003ALBIOL                                                                                              0000000000780106006000000000000000000003205S
0919830510847211VILLALBA DE LA LOMA                                                                                 0000000000840106906900000000000000600004705S
0919830510847219VILLANUEVA DE LA CONDESA                                                                            0000000000610104704700000000000000100003905S
0919830510925247VILAMÓS                                                                                             0000000000830106806800000000000000000006305S
0919830510943015ARBOLÍ                                                                                              0000000000980108008000000000000000000005305S
0819830510943017ARGENTERA                                                                                           0000000001580111711700000000000000000608905S
0819830510849028BRIME DE URZ                                                                                        0000000002180119219200000000000000000216105S
0819830510244116GARGALLO                                                                                            0000000001510112012000000000000001200406505S
0819830510244119GRIEGOS                                                                                             0000000001800115515500000000000000101705105S
0919830510244121GÚDAR                                                                                               0000000000980107507500000000000000000005005S
0819830510244124HOZ DE LA VIEJA                                                                                     0000000002390119919900000000000000600710405S
0819830510244125HUESA DEL COMÚN                                                                                     0000000002300120820800000000000000000016305S
0819830510244127JABALOYAS                                                                                           0000000001570114114100000000000000000510605S
0819830511228182VILLAVIEJA DE LOZOYA                                                                                0000000001670114014000000000000008600300805S
0819830511331001ABÁIGAR                                                                                             0000000001030109109100000000000000300107205S
0819830511331008AGUILAR DE CODES                                                                                    0000000001690116216200000000000000300013905S
0819830510943039CAPAFONS                                                                                            0000000001030108208200000000000000000004605S
0819830510943045COLLDEJOU                                                                                           0000000001780113613600000000000000000106005S
0819830510943046CONESA                                                                                              0000000001450112212200000000000000201006905S
0819830510702036GOLOSALVO                                                                                           0000000001390111911900000000000000100110605S
0819830510702050MONTALVOS                                                                                           0000000002060117317300000000000000100016005S
0819830510716169EL POZUELO                                                                                          0000000001260111811800000000000000500108505S
0919830510716176RADA DE HARO                                                                                        0000000000870106606600000000000000200305805S
0819830510716177REÍLLO                                                                                              0000000001940116116100000000000000000012305S
0819830510716181ROZALÉN DEL MONTE                                                                                   0000000002180118118100000000000000200215805S
0919830510716185SACEDA-TRASIERRA                                                                                    0000000000600105705700000000000000000005005S
0819830510716187SALINAS DEL MANZANO                                                                                 0000000001700116916900000000000000100310305S
0819830510716188SALMERONCILLOS                                                                                      0000000002350119719700000000000000100115105S
0819830510716192SAN MARTÍN DE BONICHES                                                                              0000000001340110810800000000000000000009405S
0819830510716193SAN PEDRO PALMICHES                                                                                 0000000001550113613600000000000000500010205S
0819830510716197SANTA MARÍA DEL VAL                                                                                 0000000001730113713700000000000001000007205S
0819830510716205TEJADILLOS                                                                                          0000000002240120220200000000000000100117605S
0919830510716213TORRUBIA DEL CASTILLO                                                                               0000000000800106006000000000000000000003405S
0819830510716217TRIBALDOS                                                                                           0000000002310118318300000000000000000714805S
0819830510716219UÑA                                                                                                 0000000001620113413400000000000000100011005S
0819830510716224VALDEMECA                                                                                           0000000001150110710700000000000000000006405S
0819830510716227VALDEMORO SIERRA                                                                                    0000000002300119619600000000000000200615105S
0819830510716231VALHERMOSO DE LA FUENTE                                                                             0000000001020107207200000000000000100006805S
0919830510716234VALSALOBRE                                                                                          0000000000650106206200000000000000000205105S
0819830510716237VALVERDEJO                                                                                          0000000002030116616600000000000000300012005S
0819830510716247VILLALGORDO DEL MARQUESAD                                                                           0000000002310118618600000000000000000714405S
0819830510716250VILLANUEVA DE GUADAMEJUD                                                                            0000000001860115415400000000000000100710105S
0919830510702077VILLA DE VES                                                                                        0000000000960109009000000000000000000006405S
0919830510809265PIERNIGAS                                                                                           0000000000690106806800000000000000500402805S
0819830510809266PINEDA DE LA SIERRA                                                                                 0000000001430112512500000000000000900009705S
0919830510809269PINILLA DE LOS MOROS                                                                                0000000000670105705700000000000000200004005S
0819830510809273PRÁDANOS DE BUREBA                                                                                  0000000001160110010000000000000000800206405S
0819830510809277PUENTEDURA                                                                                          0000000001980116416400000000000000500310405S
0919830510809280QUINTANABUREBA                                                                                      0000000000890108908900000000000000000006305S
0819830510809287QUINTANAORTUÑO                                                                                      0000000001310111411400000000000000100308305S
0819830510809288QUINTANAPALLA                                                                                       0000000001440112112100000000000000400109005S
0819830510809294QUINTANILLA DE LA MATA                                                                              0000000002130118118100000000000000100315505S
0819830510809295QUINTANILLA DEL COCO                                                                                0000000001610111811800000000000001300106005S
0819830510809298QUINTANILLA-SAN GARCÍA                                                                              0000000002130117617600000000000000900210505S
0819830510809302RABANERA DEL PINAR                                                                                  0000000002500121921900000000000000100313605S
0919830510809303RÁBANOS                                                                                             0000000000840106906900000000000002600002605S
0819830510809304RABÉ DE LAS CALZADAS                                                                                0000000001770115115100000000000000500612305S
0819830510809306REBOLLEDO DE LA TORRE                                                                               0000000002310115615600000000000003401308105S
0819830510809307REDECILLA DEL CAMINO                                                                                0000000001810114414400000000000000100710605S
0819830510809308REDECILLA DEL CAMPO                                                                                 0000000001550112612600000000000000100005605S
0919830510809311RETUERTA                                                                                            0000000000990109009000000000000001400003805S
0819830510809312LA REVILLA                                                                                          0000000001480112212200000000000000000009805S
0819830510809314REVILLA DEL CAMPO                                                                                   0000000001800115615600000000000000002707505S
0819830510809315REVILLARRUZ                                                                                         0000000001790115215200000000000004800605105S
0819830510809316REVILLA VALLEGERA                                                                                   0000000002060117617600000000000000200912705S
0919830510809317REZMONDO                                                                                            0000000000410103903900000000000000100001905S
0919830510809318RIOCAVADO DE LA SIERRA                                                                              0000000000960109009000000000000000200004505S
0819830510809323ROJAS                                                                                               0000000001350112612600000000000001000406905S
0819830510809326RUBENA                                                                                              0000000001370112812800000000000001700108105S
0919830510809327RUBLACEDO DE ABAJO                                                                                  0000000000540104704700000000000000000004105S
0819830510809328RUCANDIO                                                                                            0000000001570113813800000000000000200606105S
0819830510809332SALDAÑA DE BURGOS                                                                                   0000000001050107207200000000000000101104105S
0919830510809334SALINILLAS DE BUREBA                                                                                0000000000820106706700000000000000000205105S
0819830510809338SAN MAMÉS DE BURGOS                                                                                 0000000001440111211200000000000000100009205S
0819830510809340SAN MILLÁN DE LARA                                                                                  0000000001490113213200000000000000000006905S
0819830510809347SANTA GADEA DEL CID                                                                                 0000000002280119419400000000000000000909305S
0819830510809353SANTA MARÍA RIBARREDONDA                                                                            0000000001900117417400000000000000500911605S
0919830510809354SANTO OLALLA DE BUREBA                                                                              0000000000680105505500000000000000200502505S
0819830510809356SANTIBÁÑEZ DEL VAL                                                                                  0000000001070108408400000000000000600004905S
0919830510716259VILLAR DEL INFANTADO                                                                                0000000000780106406400000000000000100103805S
0919830510716275VINDEL                                                                                              0000000000320103403400000000000000000002805S
0919830510716276YEMEDA                                                                                              0000000000770107207200000000000000100005805S
0819830510716278ZAFRILLA                                                                                            0000000002110118918900000000000000000111905S
0819830510716902VALDETÓRTOLA                                                                                        0000000002370120720700000000000000700913905S
0919830510834001ABARCA DE CAMPOS                                                                                    0000000000560104504500000000000000100203605S
0819830510834006ALBA DE CERRATO                                                                                     0000000001820113913900000000000001200109705S
0919830510834009AMAYUELAS DE ARRIBA                                                                                 0000000000820106106100000000000000100004705S
0819830510834020AYUELA                                                                                              0000000001170110810800000000000000100008505S
0919830510834024BAQUERÍN DE CAMPOS                                                                                  0000000000580104204200000000000000100802105S
0919830510834025BÁRCENA DE CAMPOS                                                                                   0000000000940108608600000000000000400006405S
0919830510834031BELMONTE DE CAMPOS                                                                                  0000000000780105305300000000000000200102905S
0819830510834032BERZOSILLA                                                                                          0000000001160110610600000000000000000207905S
0919830510834033BOADA DE CAMPOS                                                                                     0000000000300102702700000000000000000002705S
0919830510809360SAN VICENTE DEL VALLE                                                                               0000000000650106106100000000000000400201505S
0819830510809362SARRACÍN                                                                                            0000000001850115015000000000000000600310605S
0919830510809365LA SEQUERA DE AZA                                                                                   0000000000980107807800000000000000400405105S
0819830510809366SOLARANA                                                                                            0000000001710114514500000000000000100210305S
0919830510809368SORDILLOS                                                                                           0000000000490104704700000000000002000901005S
0819830510809372SOTRAGERO                                                                                           0000000001460113013000000000000001000208505S
0919830510809375TAMARÓN                                                                                             0000000000590104604600000000000000100003305S
