032016061049010000013001TJuan Jesús               Cano                     Castañeda                 00000000          N
032016061049011000013002TJuana                    Antequera                Puertas                   00000000          N
032016061049012000013003TJosé Luis                Túnez                    Cano                      00000000          N
032016061049024000017001TManuel José              Gallardo                 Ruiz                      00000000          N
032016061049025000017002TJosefa María             Uribe                    Rodríguez                 00000000          N
032016061049026000017003TJosé María               García                   Vargas                    00000000          N
032016061049023000028001TJuan Antonio             Amate                    Navarro                   00000000          N
032016061049013000041001TMaría del                Carmen Maldonado         Ureña                     00000000          N
032016061049014000041002TManuel                   Ramón                    Nieto                     00000000          N
032016061049022000049001TDaniel Jesús             Cruz                     Garzón                    00000000          N
032016061049007000062001TMónica                   Fernández                Amador                    00000000          N
032016061049008000062002TTeresa                   Novo                     García                    00000000          N
032016061049009000062003TLuis Jesús               López                    Pérez                     00000000          N
032016061049001000068001TLuis Rogelio             Rodríguez Comendador     Pérez                     00000000          S
032016061049002000068002TEugenio Jesús            Gonzálvez                García                    00000000          S
032016061049003000068003TMaría Isabel             Sánchez                  Torregrosa                00000000          S
032016061049004000077001TJuan Carlos              Pérez                    Navas                     00000000          S
032016061049005000077002TRosa María               Pintos                   Muñoz                     00000000          N
032016061049006000077003TJosé                     Berruezo                 Padilla                   00000000          N
032016061049019000081001TRicardo José             Martínez                 Monllor                   00000000          N
032016061049020000081002TZenaida                  Gonzáles                 Cerón                     00000000          N
032016061049021000081003TJuan José                Jerez                    Collado                   00000000          N
032016061049015000093001THugo César               Castro                   Arellano                  00000000          N
032016061049016000094001TConsuelo                 Sardón                   Montoya                   00000000          N
032016061049017000094002TRamiro José              Téllez                   Sanz                      00000000          N
032016061049018000094003TJosé Francisco           Berenguel                Gutiérrez                 00000000          N
032016061119010000013001TMaría Jesús              García                   Tovar                     00000000          N
032016061119011000013002TCarlos                   Pérez                    González                  00000000          N
032016061119012000013003TFrancisco                López                    García                    00000000          N
032016061119025000028001TJoaquín Antonio          Fernández                Foncubierta               00000000          N
032016061119013000041001TLuis Alberto             Lozano                   Rodríguez                 00000000          N
032016061119014000041002TCristina                 Ibáñez                   Pozo                      00000000          N
032016061119015000041003TMerecedes                Álvarez                  Tobalina                  00000000          N
032016061119023000049001TMario                    Carrillo                 Trujillo                  00000000          N
032016061119024000053001TCarmen                   Díaz                     López                     00000000          N
032016061119007000062001TJosé Manuel              Mariscal                 Cifuentes                 00000000          N
032016061119008000062002TMaría Emma               Martín                   Díaz                      00000000          N
032016061119009000062003TJosé                     Abeledo                  González                  00000000          N
032016061119001000068001TJosé Ignacio             Landaluce                Calleja                   00000000          S
032016061119002000068002TMaría José               de Alba                  Castiñeira                00000000          S
032016061119003000068003TJosé                     Ortiz                    Galván                    00000000          S
032016061119004000077001TFrancisco                González                 Cabaña                    00000000          S
032016061119005000077002TMaría Dolores            Naval                    Zarazaga                  00000000          N
032016061119006000077003TFrancisco Manuel         Lara                     Fernández                 00000000          N
032016061119020000081001TManuel                   Serrano                  Martín                    00000000          N
032016061119021000081002TAntonio                  García-Galán             Molina                    00000000          N
032016061119022000081003TMargarita                Orozco                   Alfonsín                  00000000          N
032016061119016000093001TManuel                   Villalpando              Chanivet                  00000000          N
032016061119017000094001TAntonio                  Palomar                  García                    00000000          N
032016061119018000094002TSusana                   Candón                   Canales                   00000000          N
032016061119019000094003TDavid                    Romero                   Díaz                      00000000          N
032016061149010000013001TIsidoro                  García-Escribano         Acedo                     00000000          N
032016061149011000013002TMaría del                Carmen Jaime             Mena                      00000000          N
032016061149012000013003TIsrael                   Ortega                   Padilla                   00000000          N
032016061149017000017001TFrancisco                Infante                  Lisarte                   00000000          N
032016061149018000017002TMaría del                Mar Díaz                 Polonio                   00000000          N
032016061149019000017003TCarlos                   Bermudo                  Munzón                    00000000          N
032016061149025000028001TFélix                    Caballero                Parreño                   00000000          N
032016061149013000041001TAna María                Sánchez                  García                    00000000          N
032016061149014000041002TManuel de                Toro                     Costa                     00000000          N
032016061149015000041003TMaría Araceli            Sánchez                  Rabasco                   00000000          N
032016061149020000049001TAntonio                  Zurera                   Cañadillas                00000000          N
032016061149021000049002TMaría del                Carmen Fernández         Martín                    00000000          N
032016061149022000049003TFrancisco                Cejas                    Moreno                    00000000          N
032016061149007000062001TMaría Alegría            Jiménez                  Abao                      00000000          N
032016061149008000062002TJosé Manuel              Blanco                   Gómez                     00000000          N
032016061149009000062003TAntonia                  Naranjo                  Carmona                   00000000          N
032016061149004000068001TMaría Beatríz            Jurado Fernández         de Córdoba                00000000          S
032016061149005000068002TJesús Ramón              Aguirre                  Muñoz                     00000000          S
032016061149006000068003TFernando                 Priego                   Chacón                    00000000          S
032016061149001000077001TJosé Manuel              Mármol                   Servián                   00000000          S
032016061149002000077002TMaría de                 la Salud                 Navajas González          00000000          N
032016061149003000077003TJuan                     Díaz                     Caballero                 00000000          N
032016061149023000081001TJorge Rafael             Padilla                  Maestre                   00000000          N
032016061149024000081002TMercedes                 Jiménez                  Ortiz                     00000000          N
032016061149016000093001TEmilio                   Martínez                 Montilla                  00000000          N
032016061149026000094001TRafael                   Saco                     Ayllón                    00000000          N
032016061149027000094002TRaúl                     Martínez                 Torres                    00000000          N
032016061149028000094003TElena                    Garrido                  Dorado                    00000000          N
032016061189010000013001TAntonio Francisco        Suárez                   García                    00000000          N
032016061189011000013002TSilvia                   Torres                   Contreras                 00000000          N
032016061189012000013003TFrancisco Javier         Cardenete                Herrera                   00000000          N
032016061189013000041001TElena                    López                    Román                     00000000          N
032016061189014000041002TRafael                   Vázquez                  García                    00000000          N
032016061189015000041003TRaquel                   Cabrerizo                Contreras                 00000000          N
032016061189023000049001TJuan José                Amezcua                  Medina                    00000000          N
032016061189007000062001TJesús María              del Río                  Sánchez                   00000000          N
032016061189008000062002TEva María                Fernández                Alberto                   00000000          N
032016061189009000062003TFrancisco Javier         Fernández                Sánchez                   00000000          N
032016061189004000068001TSebastián Jesús          Pérez                    Ortiz                     00000000          S
032016061189005000068002TLuis                     González                 Ruiz                      00000000          S
032016061189006000068003TMaría José               Martín                   Gómez                     00000000          S
032016061189001000077001TJosé                     Martínez                 Olmos                     00000000          S
032016061189002000077002TAna María                Gámez                    Tapias                    00000000          N
032016061189003000077003TJosé María               Rueda                    Gómez                     00000000          N
032016061189020000081001TMaría Begoña             López                    Hernández                 00000000          N
032016061189021000081002TJosé                     Gallego                  Torres                    00000000          N
032016061189022000081003TClara                    Lillo                    Flores                    00000000          N
032016061189016000093001TMaría Inmaculada         Ruiz                     Felipe                    00000000          N
032016061189017000093002TManuel                   Serrano                  Ruiz                      00000000          N
032016061189018000093003TPedro José               Navarrete                Martínez                  00000000          N
032016061189019000094001TIgnacio                  Nogueras                 Rodríguez                 00000000          N
032016061219010000013001TJuan José                Dionisio                 Vázquez                   00000000          N
032016061219011000013002TMaría Ángeles            Muriel                   Rodríguez                 00000000          N
032016061219012000013003TIgnacio                  Ramírez                  Millán                    00000000          N
032016061219013000041001TMaría Amparo             Merina                   Ávila                     00000000          N
032016061219014000041002TFrancisco José           Mulet                    Ferrer                    00000000          N
032016061219015000041003TMaría Dolores            Fernández                Avanthay                  00000000          N
032016061219021000049001TGregorio                 Bermejo                  Sánchez                   00000000          N
032016061219007000062001TJosefa                   Gallardo                 Santos                    00000000          N
032016061219008000062002TMaría José               Beiras                   Torrado                   00000000          N
032016061219009000062003TFrancisco Luis           Carrellán                Andaluz                   00000000          N
032016061219004000068001TMaría Dolores            López                    Gabarro                   00000000          S
032016061219005000068002TMaría Soledad            Guadamillas              Mora                      00000000          N
032016061219006000068003TPedro                    Yorquez                  Sancha                    00000000          N
032016061219001000077001TManuel                   Guerra                   González                  00000000          S
032016061219002000077002TAna María                Pérez                    Castilleja                00000000          S
032016061219003000077003TAmaro                    Huelva                   Betanzos                  00000000          S
032016061219020000081001TJosé Antonio             González                 Vaz                       00000000          N
032016061219016000093001TRubén                    Villegas                 Jacinto                   00000000          N
032016061219017000094001TJosé                     Vacas                    Barranco                  00000000          N
032016061219018000094002TRafael                   Segovia                  Brome                     00000000          N
032016061219019000094003TJoaquina                 Hernández                Verde                     00000000          N
032016061239020000012001TLuis                     Ortiz                    Fernández                 00000000          N
032016061239021000012002TMarta                    Chinchilla               García                    00000000          N
032016061239010000013001TDolores                  Ciudad                   Campoy                    00000000          N
032016061239011000013002TGabriel                  Soria                    Díaz                      00000000          N
032016061239012000013003TAntonio                  Sutil                    Montero                   00000000          N
032016061239013000041001TRocío                    Román                    Labrador                  00000000          N
032016061239014000041002TVirginia                 Rodríguez                Sánchez                   00000000          N
032016061239015000041003TAndrés                   Carmona                  Ruiz                      00000000          N
032016061239023000049001TCarlos Julián            Arjona                   Gómez                     00000000          N
032016061239007000062001TMaría Soledad            Gutiérrez                Liebana                   00000000          N
032016061239008000062002TAntonio Ramón            Quesada                  Arias                     00000000          N
032016061239009000062003TJosé Miguel              López                    López                     00000000          N
032016061239004000068001TGabino Puche             Rodríguez                Acosta                    00000000          S
032016061239005000068002TJuana María              Jiménez                  Cano                      00000000          N
032016061239006000068003TJosé Juan                Sánchez                  Barrera                   00000000          N
032016061239001000077001TLaura                    Berja                    Vega                      00000000          S
032016061239002000077002TDavid                    Delgado                  Jiménez                   00000000          S
032016061239003000077003TPío Rómulo               Zelaya                   Castro                    00000000          S
032016061239022000081001TMaría Teresa             García                   Recena                    00000000          N
032016061239016000093001TMiguel Ángel             Garrido                  Jurado                    00000000          N
032016061239017000094001TAmelia                   Bueno                    Sagra                     00000000          N
032016061239018000094002TMaría Magdalena          Puentedura               Pérez                     00000000          N
032016061239019000094003TJuan Antonio             Rama                     Calero                    00000000          N
032016061299010000013001TMaría Luisa              Valero                   González                  00000000          N
032016061299011000013002TJesús Miguel             Pérez Lanzac             Muela                     00000000          N
032016061299012000013003TMaría Isabel             Balbin                   Luque                     00000000          N
032016061299013000041001TNoemí                    Pérez                    Carrasco                  00000000          N
032016061299014000041002TMaría Ascensión          Jaén                     Lara                      00000000          N
032016061299015000041003TMarcos                   Navarro                  García                    00000000          N
032016061299023000049001TJuan Manuel              Fernández                Martín                    00000000          N
032016061299024000049002TMaría Iluminada          Ordóñez                  Casado                    00000000          N
032016061299025000049003TCristóbal                Pérez                    Anaya                     00000000          N
032016061299007000062001TCarlos                   Hernández                Pezzi                     00000000          N
032016061299008000062002TAna Cruz                 García                   Azcárate                  00000000          N
032016061299009000062003TRosario María            Rodríguez                Vacas                     00000000          N
032016061299001000068001TMaría Ángeles            Muñoz                    Uriol                     00000000          S
032016061299002000068002TJoaquín Luis             Ramírez                  Rodríguez                 00000000          S
032016061299003000068003TManuel                   Marmolejo                Setién                    00000000          S
032016061299004000077001TAntonio                  Morales                  Lázaro                    00000000          S
032016061299005000077002TDeborah                  León                     Artacho                   00000000          N
032016061299006000077003TFrancisco                Muñoz                    Rico                      00000000          N
032016061299020000081001TFrancisco José           Rodríguez                Marín                     00000000          N
032016061299021000081002TRafael                   Núñez                    Ruiz                      00000000          N
032016061299022000081003TVerónica                 Alarcón                  Albarrán                  00000000          N
032016061299016000093001TMercedes                 Poza                     Poza                      00000000          N
032016061299017000094001TFermín                   Parrondo                 Carretero                 00000000          N
032016061299018000094002TEugenio                  Moltó                    García                    00000000          N
032016061299019000094003TMaría Fernanda           Fontanellas              Crespo                    00000000          N
032016061419010000013001TAna                      González                 Pinto                     00000000          N
032016061419011000013002TMaría Cristina           Domenech                 Gómez                     00000000          N
032016061419012000013003TPedro                    Taborda                  Martín                    00000000          N
032016061419020000028001TJorge Francisco          Luis Gil                 Lorenzo                   00000000          N
032016061419021000028002TVirginia Marina          Alba                     Álvarez                   00000000          N
032016061419022000028003TGracia                   Collado                  Montanero                 00000000          N
032016061419013000041001TRosa María               Jiménez                  Toledo                    00000000          N
032016061419014000041002TGonzalo                  González                 Valencia                  00000000          N
032016061419015000041003TMargarita                Zamudio                  León                      00000000          N
032016061419026000049001TIsmael                   Guillén                  Ortega                    00000000          N
032016061419007000062001TTeresa                   García                   Azcarate                  00000000          N
032016061419008000062002TFrancisco Ernesto        Rodríguez                Cano                      00000000          N
032016061419009000062003TMaría del                Pilar Távora             Sánchez                   00000000          N
032016061419004000068001TJosé Luis                Sanz                     Ruiz                      00000000          S
032016061419005000068002TMaría Carmen             Rodríguez                Hornillo                  00000000          N
032016061419006000068003TAndrés                   Parrado                  Parra                     00000000          N
032016061419001000077001TJuan Carlos              José Raffo               Camarillo                 00000000          S
032016061419002000077002TMaría José               Fernández                Muñoz                     00000000          S
032016061419003000077003TAntonio Casimiro         Gavira                   Moreno                    00000000          S
032016061419023000081001TFrancisco Javier         Marín                    Mauri                     00000000          N
032016061419024000081002TÁngel                    Troncoso                 Navarro                   00000000          N
032016061419025000081003TJosefa                   López                    Vallejo                   00000000          N
032016061419016000093001TAlejandro                Baeza                    Serrano                   00000000          N
032016061419017000094001TMaría Cristina           Peláez                   Izquierdo                 00000000          N
032016061419018000094002TMaría José               Piñero                   Rodríguez                 00000000          N
032016061419019000094003TJoaquín                  Cortés                   Robledo                   00000000          N
032016061229010000013001TMaría Pilar              Casado                   Francés                   00000000          N
032016061229011000013002TDavid Jorge              Betrián                  Villas                    00000000          N
032016061229012000013003TVerónica                 Calvillo                 Zubiaurre                 00000000          N
032016061229013000017001TLuis Javier              Tejada                   Francia                   00000000          N
032016061229014000017002TRosa María               Royo                     Royo                      00000000          N
032016061229015000017003TSergio                   García                   García                    00000000          N
032016061229022000024001TMaría Laura              Barrabés                 Cónsul                    00000000          N
032016061229026000039001TMaría Carmen             Torres                   Albarracín                00000000          N
032016061229016000041001TMaría Pilar              Gaspar                   Paraled                   00000000          N
032016061229017000041002TMarcos                   Rastrilla                Antón                     00000000          N
032016061229018000041003TCarolina Rut             Uréndez                  Gawthorpe                 00000000          N
032016061229021000049001TLuis Ladislao            Izquierdo                Pradilla                  00000000          N
032016061229007000060001TSantiago Manuel          Perbech                  Sanz                      00000000          N
032016061229008000060002TTeresa                   Juanals                  Llobet                    00000000          N
032016061229009000060003TLuis Domingo             Salamero                 Casado                    00000000          N
032016061229001000071001TAntonio Ignacio          Romero                   Santolaria                00000000          S
032016061229002000071002TMaría Belén              Ibarz                    Ibarz                     00000000          S
032016061229003000071003TAntonio                  Villacampa               Duque                     00000000          S
032016061229004000077001TBegoña                   Nasarre                  Oliva                     00000000          S
032016061229005000077002TJosé María               Becana                   Sanahuja                  00000000          N
032016061229006000077003TMaría Pilar              Vidal                    Cortés                    00000000          N
032016061229020000081001TPablo                    Martínez                 Escanciano                00000000          N
032016061229019000093001TLuisa                    Laborda                  Lalueza                   00000000          N
032016061229023000094001TJuan                     Morató                   Mascaró                   00000000          N
032016061229024000094002TGemma                    García                   Porras                    00000000          N
032016061229025000094003TMiguel                   González                 Díaz                      00000000          N
032016061449010000013001TJuan Ramón               Castaño                  Martínez                  00000000          N
032016061449011000013002TMario                    Ortíz                    Griñón                    00000000          N
032016061449012000013003TAlejandra                Ferrer                   Zamora                    00000000          N
032016061449013000017001TLuís Mariano             Andrés                   Ramiro                    00000000          N
032016061449014000017002TMaría Carmen             Martínez                 Torres                    00000000          N
032016061449015000017003TPedro José               García                   Garrido                   00000000          N
032016061449023000028001TLuís Javier              Simón                    Domingo                   00000000          N
032016061449021000034001THector Juan              Filloy                   Viver                     00000000          N
032016061449022000039001TFelix                    García                   Ucar                      00000000          N
032016061449016000041001TCarlos                   Monclús                  Mateo                     00000000          N
032016061449017000041002TSonia                    Matamoros                Rivero                    00000000          N
032016061449018000041003TRafael                   Perelló                  Fernández                 00000000          N
032016061449020000049001TDesamparados             Rodríguez                Aparicio                  00000000          N
032016061449007000061001TJosé Antonio             Benavente                Serrano                   00000000          N
032016061449008000061002TJosé María               Valero                   Vicente                   00000000          N
032016061449009000061003TMaría Peña               Martínez                 Rubio                     00000000          N
032016061449001000071001TCarmen                   Pobo                     Sánchez                   00000000          S
032016061449002000071002TMiguel Ángel             Estevan                  Serrano                   00000000          S
032016061449003000071003TRaquel                   Clemente                 Muñoz                     00000000          S
032016061449004000077001TMaría Perla              Borao                    Aguirre                   00000000          S
032016061449005000077002TJoaquín                  Noé                      Serrano                   00000000          N
032016061449006000077003TMaría José               Lázaro                   Burillo                   00000000          N
032016061449019000081001TRaul                     Anadon                   Pedrola                   00000000          N
032016061449024000087001THungría                  Gómez                    Álvarez                   00000000          N
032016061509010000013001TCarlos                   Aparicio                 Tejedor                   00000000          N
032016061509011000013002TMaría Trinidad           Arias                    Ferrero                   00000000          N
032016061509012000013003TConrado                  Molina                   Boloix                    00000000          N
032016061509013000017001TAlicia                   Rodríguez                Ruiz                      00000000          N
032016061509014000017002TJesús Angel              García                   Corzán                    00000000          N
032016061509015000017003TMaría Carmen             Tierz                    Mur                       00000000          N
032016061509026000034001TJose María               Abad                     Torres                    00000000          N
032016061509027000034002TRosa Elena               Barcelona                Andrés                    00000000          N
032016061509028000034003TJuan Carlos              Guillén                  Fabregat                  00000000          N
032016061509030000039001TFernando                 Diaz                     Sanz                      00000000          N
032016061509016000041001TLuz Divina               Navarro                  Rubio                     00000000          N
032016061509017000041002TNuria                    Gabasa                   Alzás                     00000000          N
032016061509018000041003TSamuel                   Royo                     Millán                    00000000          N
032016061509029000049001TMiguel Angel             Galindo                  Vicente                   00000000          N
032016061509007000061001TLuis Miguel              Clarimon                 Torrecillas               00000000          N
032016061509008000061002TAnais                    Cid                      Fortea                    00000000          N
032016061509009000061003TCristina                 Pemán                    Fernández                 00000000          N
032016061509001000071001TOctavio                  López                    Rodríguez                 00000000          S
032016061509002000071002TRosa                     Santos                   Fernández                 00000000          S
032016061509003000071003TRicardo                  Canals                   Lizano                    00000000          S
032016061509004000077001TJuan José                Rubio                    Ruiz                      00000000          S
032016061509005000077002TMª Nieves                Pérez                    Sevilla                   00000000          N
032016061509006000077003TEugenio                  Torrubia                 Acón                      00000000          N
032016061509022000081001TJosé María               Pallejá                  Piñol                     00000000          N
032016061509023000081002TMaría Jesús              Benedicto                Ortiz                     00000000          N
032016061509024000081003TSantiago                 Rubio                    Mesa                      00000000          N
032016061509019000093001TJosé Luís                Lajara                   Lagranja                  00000000          N
032016061509020000093002TMaría Elena              Bello                    Brau                      00000000          N
032016061509021000093003TAlfredo                  Buisán                   Clemente                  00000000          N
032016061509025000094001TDavid                    Sancho                   Remón                     00000000          N
032016061339010000013001TJavier                   Álvarez                  Peón                      00000000          N
032016061339011000013002TMaría Guadalupe          Fernández                Brea                      00000000          N
032016061339012000013003TCarlos José              Rábade                   Fernández                 00000000          N
032016061339016000017001TJosé Constantino         García                   Medina                    00000000          N
032016061339017000017002TMaría Florentina         Vega                     Fernández                 00000000          N
032016061339018000017003TManuel Ángel             Carril                   Suárez                    00000000          N
032016061339013000041001TDavid                    Cienfuegos               Cereijo                   00000000          N
032016061339014000041002TLaura                    García                   García                    00000000          N
032016061339015000041003TMaría Flor               Vázquez                  Arango                    00000000          N
032016061339027000049001TSaúl                     Fernández                Garrote                   00000000          N
032016061339028000049002TJosé Antonio             Álvarez                  Méndez                    00000000          N
032016061339029000049003TAna María                Turrero                  Orrio                     00000000          N
032016061339030000052001TFernando                 Tortonda                 Gaspar                    00000000          N
032016061339004000065001TJara                     González                 Villanueva                00000000          N
032016061339005000065002TLluis Miguel             Orviz                    Menéndez                  00000000          N
032016061339006000065003TLisístrata               Suárez                   Pedre                     00000000          N
032016061339001000070001TOvidio                   Sánchez                  Díaz                      00000000          S
032016061339002000070002TMario                    Arias                    Navia                     00000000          S
032016061339003000070003TRosa María               Domínguez de             Posada Puertas            00000000          S
032016061339007000077001TVicente Alberto          Álvarez                  Areces                    00000000          S
032016061339008000077002TMaría                    Fernández                Álvarez                   00000000          N
032016061339009000077003TPelayo                   Prendes                  González                  00000000          N
032016061339024000081001TJosé Antonio             Lobato                   González                  00000000          N
032016061339025000081002TEduardo                  Madroñal                 Pedraza                   00000000          N
032016061339026000081003TRosa María               Navarrete                Sehnert                   00000000          N
032016061339019000093001TEmilio                   Caveda                   Valle                     00000000          N
032016061339020000093002TMaría del                Carmen Llames            Pereira                   00000000          N
032016061339021000093003TPablo de                 la Riva                  Muñiz                     00000000          N
032016061339022000094001TMaría Aránzazu           Martínez                 Riola                     00000000          N
032016061339023000094002TRoberto                  Fernández                Argüelles                 00000000          N
032016061071007000013001TFrancisco Javier         Giménez                  Borrás                    00000000          N
032016061071008000013002TLaura                    Rodeño                   Hernández                 00000000          N
032016061071009000041001TDiana María              Martín                   Hämphälä                  00000000          N
032016061071010000041002TArturo                   Arévalo                  González                  00000000          N
032016061071015000051001TGaspar                   Buades                   Rul·lan                   00000000          N
032016061071016000051002TMª Amalia                Schmidt Gil              Moreno de Mora            00000000          N
032016061071001000057001TMargarita                Quetglas                 Quesada                   00000000          S
032016061071002000057002TJuan José                Martínez                 Riera                     00000000          N
032016061071003000068001TMiguel Ángel             Ramis                    Socias                    00000000          S
032016061071004000068002TCatalina                 Soler                    Torres                    00000000          S
032016061071005000077001TNatalia                  Troya                    Isern                     00000000          N
032016061071006000077002TFrancisco                Ducrós                   Salvá                     00000000          N
032016061071013000081001TJuan José                Fernández                Panadero                  00000000          N
032016061071014000081002TAna María                Mingolla                 López                     00000000          N
032016061071017000085001TJosep de                 Luis                     Ferrer                    00000000          N
032016061071018000085002TMaria Loreto             Amorós i                 Rotger                    00000000          N
032016061071011000093001TAntonio                  Romero                   García                    00000000          N
032016061071012000093002TFrancina Catalina        Martí                    Capellá                   00000000          N
032016061072004000013001TManuel                   Bonmatí                  Pérez                     00000000          N
032016061072005000041001TCatalina                 Sastre                   Florit                    00000000          N
032016061072001000057001TMargarita Juana          Benejam                  Coll                      00000000          N
032016061072002000068001TJuana Francisca          Pons                     Vila                      00000000          S
032016061072003000077001TMiquel                   Company                  Pons                      00000000          N
032016061073004000013001TIrene                    Torres                   Cardona                   00000000          N
032016061073005000041001TRaquel                   Molina                   Costa                     00000000          N
032016061073007000051001TIván del                 Alcázar                  Armada                    00000000          N
032016061073002000058001TMario Miguel             Devis                    Lujan                     00000000          N
032016061073001000068001TSantiago                 Marí                     Torres                    00000000          S
032016061073003000077001TAntoni                   Costa                    Costa                     00000000          N
032016061073008000085001TFerran                   Moreno                   Castillón                 00000000          N
032016061073006000093001TJosé                     Segador                  Parra                     00000000          N
032016061351009000007001TBeatriz                  Calzada                  Ojeda                     00000000          N
032016061351010000007002TGustavo                  Viera                    Ruiz                      00000000          N
032016061351007000013001TFrancisco de             Torres                   Fernández                 00000000          N
032016061351008000013002TLeticia                  García                   Díaz                      00000000          N
032016061351024000036001TBernardo Francisco       Medina                   Alonso                    00000000          N
032016061351025000036002TMaria Sabrina            Barnús                   Castro                    00000000          N
032016061351026000036003TBernabé Ubay             Garcia                   Melián                    00000000          N
032016061351011000041001TJosé Carlos              Socorro                  Perdomo                   00000000          N
032016061351012000041002TMaría Reyes              Martell                  González                  00000000          N
032016061351018000045001TFrancisca Carmen         Sánchez                  Macías                    00000000          N
032016061351019000045002TJoaquín                  Ávila                    García                    00000000          N
032016061351027000052001TMouhamadou Moustapha     Diot                     Wade                      00000000          N
032016061351003000059001TMaría del                Pino Alemán              Guedes                    00000000          N
032016061351004000059002TJosé Antonio             de León                  Hernández                 00000000          N
032016061351001000068001TMaría Auxiliadora        Pérez                    Díaz                      00000000          S
032016061351002000068002THipólito Alejandro       (Poli) Suárez            Nuez                      00000000          S
032016061351005000078001TJuan                     Díaz                     Sánchez                   00000000          N
032016061351006000078002TMaría José               López                    Santana                   00000000          S
032016061351016000081001TFrancisco                Ojeda                    Ramírez                   00000000          N
032016061351017000081002TAnastasia María          Ramírez                  González                  00000000          N
032016061351022000084001TÁngel                    Rodríguez                Calderín                  00000000          N
032016061351023000084002TTeresa de                Jesús García             Miranda                   00000000          N
032016061351014000088001TAntonio Ramón            Blanco                   Ramos                     00000000          N
032016061351015000088002TRosa María               Rodríguez                Morales                   00000000          N
032016061351013000093001TJesús Antonio            Urriza                   Rodríguez                 00000000          N
032016061351020000094001TManuel                   Vega                     Marrero                   00000000          N
032016061351021000094002TMaría del                Carmen Santana           Martín                    00000000          N
032016061352004000007001TMarciano                 Acuña                    Betancor                  00000000          N
032016061352005000013001TMaría                    Moreira                  León                      00000000          N
032016061352006000041001TAna Isabel               Díaz                     Cruces                    00000000          N
032016061352008000045001TJorge                    García-Aráez             Martín-Montalvo           00000000          N
032016061352001000059001TJuan Antonio             Valencia                 Naranjo                   00000000          N
032016061352003000068001TRemigio Joel             Delgado                  Cáceres                   00000000          S
032016061352002000078001TAriagona                 González                 Pérez                     00000000          N
032016061352007000081001TNeido Manuel             González                 Álvarez                   00000000          N
032016061352009000094001TAntonia María            de los                   Ángeles León Armas        00000000          N
032016061353004000007001TAgustín David            Trujillo                 Saavedra                  00000000          N
032016061353005000013001TAntonio                  Olmedo                   Manzanares                00000000          N
032016061353006000041001TMaría de                 los Ángeles              Encabo López              00000000          N
032016061353010000045001TMaría del                Carmen Talavera          Quevedo                   00000000          N
032016061353002000059001TRafael Juan              Rodríguez                Marrero                   00000000          N
032016061353001000068001TClaudio                  Gutiérrez                Vera                      00000000          S
032016061353003000078001TTaishet                  Fuentes                  Gutiérrez                 00000000          N
032016061353007000081001THumberto Manuel          González                 Rodríguez                 00000000          N
032016061353008000088001TPablo                    García                   Bolaños                   00000000          N
032016061353009000094001TRicardo Ramón            Baña                     Oubiña                    00000000          N
032016061384001000007001TMariano                  Pérez                    Hernández                 00000000          N
032016061384002000007002TMaría de                 la O                     Gaspar González           00000000          N
032016061384011000013001TJosé Manuel              Perera                   Quintana                  00000000          N
032016061384012000013002TPetra                    Moyano                   Cachinero                 00000000          N
032016061384009000017001TMateo Jesús              Pérez                    Marrero                   00000000          N
032016061384010000017002TMaría Cristina           Talavera                 Martínez                  00000000          N
032016061384013000036001TFederico                 Galván                   Santana                   00000000          N
032016061384014000036002TMaría Teresa             García                   Lemus                     00000000          N
032016061384007000041001TMaría José               Martín                   Fagundo                   00000000          N
032016061384008000041002TFrancisco Javier         Pérez                    Herrera                   00000000          N
032016061384017000045001TLeandro                  González                 García                    00000000          N
032016061384018000045002TSara María               Martín                   Pimentel                  00000000          N
032016061384019000059001TManuel José              González                 Mauricio                  00000000          N
032016061384020000059002TMarta Esther             Jiménez                  Jaén                      00000000          N
032016061384003000068001TAntonio                  Alarcó                   Hernández                 00000000          S
032016061384004000068002TMaría Isabel             García                   Luis                      00000000          S
032016061384005000078001TOlivia María             Delgado                  Oval                      00000000          S
032016061384006000078002TJosé Vicente             González                 Bethencourt               00000000          N
032016061384015000081001TJosé Ramón               Carrillo                 Rodríguez                 00000000          N
032016061384016000081002TYuli Lizbeth             Prado                    Arango                    00000000          N
032016061385003000007001TMarcos José              Lorenzo                  Martín                    00000000          N
032016061385005000013001TMaría de                 las Nieves               Cobiella Fernández        00000000          N
032016061385006000041001TConcepción Elena         Acosta                   Gómez                     00000000          N
032016061385008000045001TCarlos                   Ruiz                     Miró                      00000000          N
032016061385004000059001TJuan Carlos              Pérez                    Brito                     00000000          N
032016061385001000068001TMariano                  Hernández                Zapata                    00000000          S
032016061385002000078001TFrancisco Javier         Paz                      Expósito                  00000000          N
032016061385007000081001TRayco                    Pérez                    Rodríguez                 00000000          N
032016061386001000003001TYaiza                    Castilla                 Herrera                   00000000          S
032016061386005000007001TChristian                Méndez                   Benedetti                 00000000          N
032016061386006000013001TMiguel Ángel             Rodríguez                González                  00000000          N
032016061386007000041001TMaría Urbana             Perdomo                  Pino                      00000000          N
032016061386009000045001TAntonio Alexis           Dorta                    Macía                     00000000          N
032016061386004000059001TAnnabely                 Plasencia                Rodríguez                 00000000          N
032016061386003000068001TVictor David             Herrera                  Casanova                  00000000          N
032016061386002000078001TGregorio Ramón           Medina                   Tomé                      00000000          N
032016061386008000081001TManuel Ruymán            Delgado                  Méndez                    00000000          N
032016061387001000006001TPablo                    Rodríguez                Cejas                     00000000          S
032016061387005000013001TLisardo Gaspar           Cejas                    Padrón                    00000000          N
032016061387006000041001TMaría Josefa             González                 Chinea                    00000000          N
032016061387008000045001TBruno                    Díaz                     González                  00000000          N
032016061387004000059001TSandra Magdalena         Lima                     Casañas                   00000000          N
032016061387003000068001TJosé Miguel              Sánchez                  Padrón                    00000000          N
032016061387002000078001TJuan                     Castañeda                Acosta                    00000000          N
032016061387007000081001TSelene                   Benítez                  Ghersi                    00000000          N
032016061399010000013001TDavid                    Acosta                   Desmedt                   00000000          N
032016061399011000013002TCarlos Javier            Fernández                Pérez                     00000000          N
032016061399012000013003TLuisa Fernanda           Zárate                   Escalante                 00000000          N
032016061399026000017001TJesús                    Martínez                 Torrijos                  00000000          N
032016061399027000017002TMaría Carmen             Bahillo                  Suárez                    00000000          N
032016061399028000017003TAlejandro                Revuelta                 Iturbe                    00000000          N
032016061399013000041001TNoemí                    Lago                     García                    00000000          N
032016061399014000041002TAgustín                  Rodríguez                López                     00000000          N
032016061399015000041003TEncarnación              García                   Aja                       00000000          N
032016061399022000049001TEloy                     Baro                     Fernández                 00000000          N
032016061399025000053001TJuan Mariano             Ordás                    García                    00000000          N
032016061399007000059001TKevin                    Botejara                 López                     00000000          N
032016061399008000059002TMercedes                 Boix                     Rovira                    00000000          N
032016061399009000059003TMontserrat               Obregón                  Crespo                    00000000          N
032016061399001000068001TFrancisco Javier         Fernández                González                  00000000          S
032016061399002000068002TBlanca Azucena           Martínez                 Gómez                     00000000          S
032016061399003000068003TMaría Esther             Merino                   Portugal                  00000000          S
032016061399004000077001TMiguel Ángel             González                 Vega                      00000000          S
032016061399005000077002TMaría Concepción         Linaza                   López                     00000000          N
032016061399006000077003TManuel                   Ceballos                 Pérez                     00000000          N
032016061399023000081001TJuan Salvador            Castañeda                Morla                     00000000          N
032016061399024000084001TÍñigo                    Ugarte                   Olano                     00000000          N
032016061399016000093001TMaría Victoria           Huerta                   Herrera                   00000000          N
032016061399017000093002TJesús Manuel             López                    Zapatero                  00000000          N
032016061399018000093003TVicente                  Orduña                   Sáez                      00000000          N
032016061399019000094001TJosé Luis                Pérez                    López                     00000000          N
032016061399020000094002TMaría Concepción         Gutiérrez                García                    00000000          N
032016061399021000094003TRoque                    Alonso                   Fernández                 00000000          N
032016061029010000013001TMaría Teresa             García                   Arce                      00000000          N
032016061029011000013002TFrancisco Javier         Ramón                    Gómez                     00000000          N
032016061029012000013003TJulián                   Ramón                    García                    00000000          N
032016061029019000028001TJosé Antonio             Marzal                   Dannequin                 00000000          N
032016061029013000041001TCristina                 Moreno                   Donate                    00000000          N
032016061029014000041002TManuel Ángel             González                 Hidalgo                   00000000          N
032016061029015000041003TJorge                    Torres                   Zarza                     00000000          N
032016061029017000049001TFrancisco Javier         Romero                   Galdón                    00000000          N
032016061029007000059001TCarmen                   Fajardo                  Barba                     00000000          N
032016061029008000059002TMaría Teresa             Márquez                  González                  00000000          N
032016061029009000059003TJuan Miguel              Rodríguez                Cuesta                    00000000          N
032016061029001000068001TVicente                  Aroca                    Sáez                      00000000          S
032016061029002000068002TAntonio Marcial          Marín                    Hellín                    00000000          S
032016061029003000068003TMaría Rosario            Rodríguez                Rueda                     00000000          S
032016061029004000077001TMatilde                  Valentín                 Navarro                   00000000          S
032016061029005000077002TManuel                   Martínez                 Rodríguez                 00000000          N
032016061029006000077003TJosefa                   Moreno                   Docón                     00000000          N
032016061029018000081001TEduardo                  Puerta                   Cava                      00000000          N
032016061029016000093001TAna María                Martínez                 López                     00000000          N
032016061139010000013001TÁngela                   López                    Castro                    00000000          N
032016061139011000013002TVirginia                 Espinosa                 Gallego                   00000000          N
032016061139012000013003TRichard                  Andrés                   Domínguez                 00000000          N
032016061139013000041001TEstefanía                Navas                    Díaz                      00000000          N
032016061139014000041002TLuis                     Zamarreño                Cosme                     00000000          N
032016061139015000041003TAna                      Martín                   Navas                     00000000          N
032016061139007000059001TLuis Benítez             de Lugo                  Enrich                    00000000          N
032016061139008000059002TNuria                    Moraga                   Yébenes                   00000000          N
032016061139009000059003TClorinda Ivonne          Tejada                   Chauca                    00000000          N
032016061139001000068001TCarlos Manuel            Cotillas                 López                     00000000          S
032016061139002000068002TMiguel Ángel             Valverde                 Menchero                  00000000          S
032016061139003000068003TCristina Flora           Molina                   Ciudad                    00000000          S
032016061139004000077001TJesús                    Martín                   Rodríguez                 00000000          S
032016061139005000077002TAna María                Martínez                 Losa                      00000000          N
032016061139006000077003TLuis                     Rubio                    Bremard                   00000000          N
032016061139019000081001TAlejandro Cerro          de                       Lara                      00000000          N
032016061139016000093001TÁngel María              Rico                     Navarro                   00000000          N
032016061139017000093002TFrancisca                Mora                     Cruz                      00000000          N
032016061139018000093003TVenancio del             Coso                     Molina                    00000000          N
032016061169010000013001TAdolfo                   Fernández                Grimaldos                 00000000          N
032016061169011000013002TPedro de                 la Torre                 García                    00000000          N
032016061169012000013003TOfelia                   Martínez                 Muñoz                     00000000          N
032016061169013000041001TVictoria Ángela          de la                    Vega Martínez             00000000          N
032016061169014000041002TMaría Rosa               Martínez                 Martínez                  00000000          N
032016061169015000041003TAlejandro                Gallego                  Parra                     00000000          N
032016061169021000049001TJosé Luis                Gómez                    Gata                      00000000          N
032016061169007000059001TAna María                Navarrete                Tudela                    00000000          N
032016061169008000059002TLorena                   Gallego                  García                    00000000          N
032016061169009000059003TFrancisco José           Torrecillas              Fernández                 00000000          N
032016061169001000068001TCarlos Alberto           Algaba                   Soler                     00000000          S
032016061169002000068002TMaría Montserrat         Martínez                 González                  00000000          S
032016061169003000068003TPedro                    Jareño                   Paricio                   00000000          S
032016061169004000077001TManuela                  Galiano                  López                     00000000          S
032016061169005000077002TEugenio                  Heredia                  López                     00000000          N
032016061169006000077003TGema María               Pradillo                 Ballestero                00000000          N
032016061169020000081001TArmando                  Yuste                    Mislata                   00000000          N
032016061169016000093001TIsabel                   Arroyo                   Caballero                 00000000          N
032016061169017000094001TJuan Antonio             López                    Picazo                    00000000          N
032016061169018000094002TMaría Victoria           Alcarria                 Peña                      00000000          N
032016061169019000094003TDavid                    Alcántara                López                     00000000          N
032016061199007000013001TSilvia                   García                   Nieto                     00000000          N
032016061199008000013002TJuan Carlos              Gil                      Rodrigo                   00000000          N
032016061199009000013003TCarlos                   Maceiras                 Teijeiro                  00000000          N
032016061199026000028001TJosé Antonio             Márquez                  Díaz                      00000000          N
032016061199027000028002TÁngel                    Pozo                     Granados                  00000000          N
032016061199028000028003TMaría Eva                Lobato                   Galindo                   00000000          N
032016061199013000041001TSusana                   Barrios                  García                    00000000          N
032016061199014000041002TAntonio                  Navarro                  Zanón                     00000000          N
032016061199015000041003TFrancisca                Caballero                Valdivia                  00000000          N
032016061199010000059001TBegoña                   Rojas                    Gutierrez                 00000000          N
032016061199011000059002TJuan Carlos              Ranz                     Alonso                    00000000          N
032016061199012000059003TFernando                 Plaza                    Minguez                   00000000          N
032016061199001000068001TJuan Pablo               Sánchez                  Sánchez-Seco              00000000          S
032016061199002000068002TAna María                González                 García                    00000000          S
032016061199003000068003TJuan Antonio             de las                   Heras Muela               00000000          S
032016061199004000077001TRiansares                Serrano                  Morales                   00000000          S
032016061199005000077002TAngel                    Villoria                 González                  00000000          N
032016061199006000077003TSara                     Martínez                 Bronchalo                 00000000          N
032016061199022000081001TAdoración                Durán                    González                  00000000          N
032016061199023000084001TJulián Ángel             García                   Fernández                 00000000          N
032016061199024000084002TJulio                    Pérez                    Álvarez                   00000000          N
032016061199025000084003TAraceli                  González                 Jiménez                   00000000          N
032016061199016000093001TJosé Joaquín             Ormazábal                Fernández                 00000000          N
032016061199017000093002TAlmudena                 Fernández                Santiago                  00000000          N
032016061199018000093003TMaría de                 los Ángeles              López Galdeano            00000000          N
032016061199019000094001TCarlos Javier            Gutiérrez                García                    00000000          N
032016061199020000094002TJuán Luis                Abellán                  Garcinuño                 00000000          N
032016061199021000094003TNélida Marina            Albacete                 Alonso                    00000000          N
032016061459010000013001TJonatan                  Bermejo                  Corrochano                00000000          N
032016061459011000013002TRaúl                     Casla                    Casla                     00000000          N
032016061459012000013003TMaría del                Pilar Barroso            Durán                     00000000          N
032016061459027000027001TFlorentino               López                    García                    00000000          N
032016061459024000028001TJulio                    González                 Moreno                    00000000          N
032016061459025000028002TAna Belén                Cuervo                   Aparicio                  00000000          N
032016061459026000028003TMaría                    Martín                   Arija                     00000000          N
032016061459013000041001TMiriam                   Tamayo                   Fernández                 00000000          N
032016061459014000041002TDavid                    Palacios                 Esteban                   00000000          N
032016061459015000041003TMaría Isabel             Cuesta                   Sánchez                   00000000          N
032016061459023000049001TDavid                    Espinosa                 Cuadrado                  00000000          N
032016061459007000059001TCecilia                  Redondo                  Calabuig                  00000000          N
032016061459008000059002TJuan Turón               de                       Manuel                    00000000          N
032016061459009000059003TSayla                    Gutiérrez                Íñigo                     00000000          N
032016061459001000068001TCarmen                   Riolobos                 Regadera                  00000000          S
032016061459002000068002TTomás                    Burgos                   Beteta                    00000000          S
032016061459003000068003TJesús                    Labrador                 Encinas                   00000000          S
032016061459004000077001TFélix                    Ortega                   Fernández                 00000000          S
032016061459005000077002TNuria del                Rosario Herrero          Rodríguez                 00000000          N
032016061459006000077003TDavid                    Talavera                 Almendro                  00000000          N
032016061459022000081001TÁngel                    Díaz                     García                    00000000          N
032016061459016000093001TAmanda de                Lucio                    Moreno                    00000000          N
032016061459017000093002TÁngel                    Velasco                  Aroca                     00000000          N
032016061459018000093003TOscar                    Tejedor                  López                     00000000          N
032016061459019000094001TDaniel                   Arias                    Vegas                     00000000          N
032016061459020000094002TCarmen Eileen            García                   Ortega                    00000000          N
032016061459021000094003TRodrigo                  Rodríguez                García                    00000000          N
032016061059007000013001TMiguel Luis              Jiménez                  Rodríguez                 00000000          N
032016061059008000013002TBenito                   Gago                     Calvo                     00000000          N
032016061059009000013003TMargarita María          López                    Pérez                     00000000          N
032016061059019000028001TAnastasio                Rodríguez                Martín                    00000000          N
032016061059020000028002TMaría Belén              Gómez                    Franco                    00000000          N
032016061059016000041001TMarina                   Martínez                 Ruiz                      00000000          N
032016061059017000041002TVicente de               la Calle                 Avezuela                  00000000          N
032016061059018000041003TMiriam                   Jiménez                  Quintero                  00000000          N
032016061059010000059001TMiriam                   Martín                   Prieto                    00000000          N
032016061059011000059002TPedro                    Herrero                  García                    00000000          N
032016061059012000059003TMaría Teresa             Gloria López             Alija                     00000000          N
032016061059001000068001TSebastián                González                 Vázquez                   00000000          S
032016061059002000068002TMiguel Ángel             García                   Nieto                     00000000          S
032016061059003000068003TMaría del                Carmen de                Aragón Amunarriz          00000000          S
032016061059004000077001TMaría del                Carmen Iglesias          Parra                     00000000          S
032016061059005000077002TJosé Antonio             Herráez                  Martín                    00000000          N
032016061059006000077003TMaría de                 los Ángeles              García Salcedo            00000000          N
032016061059021000081001TAlvaro                   Fernández                Mateo                     00000000          N
032016061059013000093001TMaría de                 los Ángeles              Bartolomé González        00000000          N
032016061059014000093002TIsabel                   Romero                   Arévalo                   00000000          N
032016061059015000093003TRufino                   Martín                   López                     00000000          N
032016061099010000013001TJavier                   Batallé                  Sáiz                      00000000          N
032016061099011000013002TJulián                   Ruiz                     Navazo                    00000000          N
032016061099012000013003TMercedes                 López                    Ruiz                      00000000          N
032016061099023000033001TJosé                     Casado                   Vadillo                   00000000          N
032016061099024000033002TImanol                   Santamaría               Mera                      00000000          N
032016061099025000033003TAna Isabel               López                    Torre                     00000000          N
032016061099016000041001TAlicia                   Martínez                 Falcón                    00000000          N
032016061099017000041002TChristian                Rivero                   Paz                       00000000          N
032016061099018000041003TPaloma Sastre            Martín                   Moreno                    00000000          N
032016061099027000049001TCarlos                   Presa                    Irazabal                  00000000          N
032016061099007000059001TIgnacio                  Lacamara                 González                  00000000          N
032016061099008000059002TMaría Ángeles            Pizarro de               la Fuente                 00000000          N
032016061099009000059003TJorge                    García                   Velasco                   00000000          N
032016061099001000068001TMaría Begoña             Contreras                Olmedo                    00000000          S
032016061099002000068002TArturo                   Pascual                  Madina                    00000000          S
032016061099003000068003TCristina                 Ayala                    Santamaría                00000000          S
032016061099004000077001TAndrés                   Gil                      García                    00000000          S
032016061099005000077002TSusana                   Pardo                    Gutiérrez                 00000000          N
032016061099006000077003TGerardo                  Triana                   Sánchez                   00000000          N
032016061099026000081001TEnrique                  Morales                  Zubizarreta               00000000          N
032016061099020000084001THilda                    Vizarro                  Taipe                     00000000          N
032016061099021000084002TRodrigo del              Pozo                     Fernández                 00000000          N
032016061099022000084003TJorge                    Lara                     Izquierdo                 00000000          N
032016061099013000093001TJuan Antonio             Jorde                    González                  00000000          N
032016061099014000093002TEstefanía                García                   Marrón                    00000000          N
032016061099015000093003TJesús                    Gurruchaga               Ríos                      00000000          N
032016061099019000094001TFélix Lorenzo            Martín                   Moro                      00000000          N
032016061249031000001001TCristina                 Garrido                  Sánchez                   00000000          N
032016061249010000013001TIgnacio Ramón            López                    Fernández                 00000000          N
032016061249011000013002TMiguel Ángel             Cuervo                   Santos                    00000000          N
032016061249012000013003TMaría del                Mar Ordóñez              Álvarez                   00000000          N
032016061249013000041001TNuria                    Alcántara                Fernández                 00000000          N
032016061249014000041002TRamón                    González                 Cimadevilla               00000000          N
032016061249015000041003TMaría Begoña             Fernández                García                    00000000          N
032016061249027000049001TDavid                    García                   Valcarce                  00000000          N
032016061249028000049002TMarina Olivia            Alonso                   Pastor                    00000000          N
032016061249029000049003TDavid Guzmán             Pernía                   González                  00000000          N
032016061249007000059001TEmilia Luisa             Esteban                  Fernández                 00000000          N
032016061249008000059002TRaúl                     Martín                   Gil                       00000000          N
032016061249009000059003TSusana                   Carballo                 González                  00000000          N
032016061249001000068001TLuis                     Aznar                    Fernández                 00000000          S
032016061249002000068002TEsther Muñoz             de la                    Iglesia                   00000000          S
032016061249003000068003TAlfonso Jesús            Rodríguez-Hevia          González                  00000000          S
032016061249016000072001TEmiliano                 Alonso                   Seijas                    00000000          N
032016061249017000072002TCatalina                 Antúnez                  García                    00000000          N
032016061249018000072003TJesús                    Fernández                Villar                    00000000          N
032016061249004000077001TGraciliano               Palomo                   García                    00000000          S
032016061249005000077002TNuria Díaz               de Geras                 Rodríguez                 00000000          N
032016061249006000077003TJosé Luis                Martínez                 Matilla                   00000000          N
032016061249025000081001TÁngel                    Álvarez                  Vega                      00000000          N
032016061249026000081002TMaría Carmen             Fernández                Sánchez                   00000000          N
032016061249030000091001TLuis Manuel              Esteban                  Gutiérrez                 00000000          N
032016061249019000093001TRamón                    Rodríguez                Alaiz                     00000000          N
032016061249020000093002TÁngel                    Atienza                  Carreño                   00000000          N
032016061249021000093003TAna María                Eugenia Martínez         García                    00000000          N
032016061249022000094001TAntonio                  López                    Bouza                     00000000          N
032016061249023000094002TIsidoro                  Fernández                Cadenas                   00000000          N
032016061249024000094003TMaría Pilar              Borrego                  Alonso                    00000000          N
032016061349010000013001TEnrique                  Junco                    Navascués                 00000000          N
032016061349011000013002TEduardo                  Álvarez                  Redondo                   00000000          N
032016061349012000013003TElena                    León                     Hernández                 00000000          N
032016061349016000028001TJulio César              de Alaiz                 Martínez                  00000000          N
032016061349013000041001TLucila Alba              Giner                    Mery                      00000000          N
032016061349014000041002TÓscar                    Pastor                   Bárcenas                  00000000          N
032016061349015000041003TMarta                    Aguiar                   Guerrero                  00000000          N
032016061349007000059001TAna María                Rodríguez                Vega                      00000000          N
032016061349008000059002TJulián Fernández         del                      Campo                     00000000          N
032016061349009000059003TJerónimo                 Aguado                   Martínez                  00000000          N
032016061349001000068001TJosé Antonio             Rubio                    Mielgo                    00000000          S
032016061349002000068002TMaría Nuria              Simón                    González                  00000000          S
032016061349003000068003TManuel                   Betegón                  Baeza                     00000000          S
032016061349004000077001TRosa María               Aldea                    Gómez                     00000000          S
032016061349005000077002TLuis Fernando            Cantero                  Mena                      00000000          N
032016061349006000077003TMaría Arántzazu          Oblanca                  Colinas                   00000000          N
032016061349017000081001TDiego                    Gaitero                  Ballinoto                 00000000          N
032016061349018000084001TAna María                Cuevas                   Reoyo                     00000000          N
032016061379010000013001TLiduvino                 Barbado                  Sastre                    00000000          N
032016061379011000013002TAna                      Suárez                   Otero                     00000000          N
032016061379012000013003TJosé Ramón               Santos                   Santos                    00000000          N
032016061379013000041001TSusana                   Alonso                   Porras                    00000000          N
032016061379014000041002TJosé María               Medina                   Gómez                     00000000          N
032016061379015000041003TMaría Teresa             Román                    Luis                      00000000          N
032016061379023000049001TMario                    López                    Pascua                    00000000          N
032016061379007000059001TJosé Antonio             Mateos                   Temprano                  00000000          N
032016061379008000059002TMaría Isabel             López                    Blázquez                  00000000          N
032016061379009000059003TSusana                   Luengo                   Gallego                   00000000          N
032016061379001000068001TGonzalo Jesús            Robles                   Orozco                    00000000          S
032016061379002000068002TFrancisco Javier         Iglesias                 García                    00000000          S
032016061379003000068003TEsther Basilia           del Brio                 González                  00000000          S
032016061379019000072001TJuan Manuel              Andrés                   López                     00000000          N
032016061379020000072002TMiguel Ángel             Diego                    Núñez                     00000000          N
032016061379021000072003TManuela                  Iglesias                 Carreño                   00000000          N
032016061379004000077001TRosa María               López                    Alonso                    00000000          S
032016061379005000077002TAlfonso Buenaventura     Calvo                    González                  00000000          N
032016061379006000077003TMaría del                Carmen Juanes            Barciela                  00000000          N
032016061379022000081001TMaría Araceli            Noguera                  Montero                   00000000          N
032016061379016000093001TVicente                  Justo                    Hermida                   00000000          N
032016061379017000093002TAntonio                  Cruz                     Fernández                 00000000          N
032016061379018000093003TMaría del                Pilar Sánchez            Marcos                    00000000          N
032016061409010000013001TMaría Josefa             García                   Orejana                   00000000          N
032016061409011000013002TSantiago                 Gancedo                  Baranda                   00000000          N
032016061409012000013003TLuís Mariano             Ortiz                    Esteban                   00000000          N
032016061409018000028001TJuan Manuel              de la                    Serna Lorenzo             00000000          N
032016061409014000041001TPatricia                 Marqués                  Tejedor                   00000000          N
032016061409015000041002TEnrique                  Martín                   Rodríguez                 00000000          N
032016061409016000041003TCristina                 Gil                      Meneses                   00000000          N
032016061409007000067001TFrancisco Javier         Lobo de                  Frutos                    00000000          N
032016061409008000067002TMaría del                Carmen Cuervo            Rubio                     00000000          N
032016061409009000067003TMaría José               Bueno                    González                  00000000          N
032016061409001000068001TPaloma Inés              Sanz                     Jerónimo                  00000000          S
032016061409002000068002TJuan Ramón               Represa                  Fernández                 00000000          S
032016061409003000068003TJuan Carlos              Álvarez                  Cabrero                   00000000          S
032016061409004000077001TFélix                    Montes                   Jort                      00000000          S
032016061409005000077002TAlba                     Barrio                   Martín                    00000000          N
032016061409006000077003TÁlvaro Serrano           del                      Pino                      00000000          N
032016061409017000081001TMaría Elena              Jorge                    Hernández                 00000000          N
032016061409013000093001TAntonio                  García                   Dopico                    00000000          N
032016061409019000094001TNazario                  Merino                   Giménez                   00000000          N
032016061429010000013001TMaría Ángeles            Morales                  Garijo                    00000000          N
032016061429011000013002TRafael                   López                    Campos                    00000000          N
032016061429012000013003TEnrique                  Gonzalo                  Pérez                     00000000          N
032016061429018000028001TEnrique                  Merino                   González                  00000000          N
032016061429014000041001TAlejandra Natalia        Garate                   Hallam                    00000000          N
032016061429015000041002TMaría Belén              Giménez                  Díaz-Oyuelos              00000000          N
032016061429016000041003TRafael                   Rico                     Sáez                      00000000          N
032016061429007000059001TJorge Juan               Ramiro                   Alcántara                 00000000          N
032016061429008000059002TLeonor Andrea            Lahoz                    Goig                      00000000          N
032016061429009000059003TAngel Alberto            Flores                   Gaitan                    00000000          N
032016061429001000068001TMaría del                Mar Angulo               Martínez                  00000000          S
032016061429002000068002TGerardo                  Martínez                 Martínez                  00000000          S
032016061429003000068003TTomás                    Cabezón                  Casas                     00000000          S
032016061429004000077001TMaría                    Irigoyen                 Pérez                     00000000          N
032016061429005000077002TJesús Manuel             Alonso                   Jiménez                   00000000          S
032016061429006000077003TAsunción                 Medrano                  Marina                    00000000          N
032016061429017000081001TJuan                     Fuster                   Peiró                     00000000          N
032016061429013000093001TJavier                   Bao                      Patiño                    00000000          N
032016061479033000001001TJosé Ignacio             Moratinos                Delgado                   00000000          N
032016061479022000009001TFélix Antonio            Calleja                  Bolado                    00000000          N
032016061479023000009002TMaría                    Córcoles                 Gutiérrez                 00000000          N
032016061479024000009003TMario                    Fernández                Rodríguez                 00000000          N
032016061479010000013001TJesús Agustín            San José                 Sancho                    00000000          N
032016061479011000013002TMiguel Ángel             Parra                    Parra                     00000000          N
032016061479012000013003TNuria                    Duque                    Estaire                   00000000          N
032016061479025000028001TIván                     García                   Vázquez                   00000000          N
032016061479026000028002TMaría Macarena           Carazo                   Lefort                    00000000          N
032016061479027000028003TFrancisco Javier         del Campo                Velasco                   00000000          N
032016061479016000041001TVanesa                   García                   Sáez                      00000000          N
032016061479017000041002TJesús                    García                   Marciel                   00000000          N
032016061479018000041003TLaura                    Vicente                  Cenamor                   00000000          N
032016061479032000049001TIván Hernández           del                      Valle                     00000000          N
032016061479034000053001TJosé Luis                García                   Torrego                   00000000          N
032016061479007000066001TAndrés Iván              Dueñas                   Castrillo                 00000000          N
032016061479008000066002TCarmen                   Duce                     Diáz                      00000000          N
032016061479009000066003TCarlos Sánchez-Reyes     de                       Palacio                   00000000          N
032016061479001000068001TMiguel Ángel             Cortés                   Martín                    00000000          S
032016061479002000068002TMaría Arenales           Serrano                  Argüello                  00000000          S
032016061479003000068003TAlberto                  Gutiérrez                Alberca                   00000000          S
032016061479004000077001TEmilio                   Álvarez                  Villazán                  00000000          S
032016061479005000077002TEmiliana                 Centeno                  Escudero                  00000000          N
032016061479006000077003TJuan de                  Dios José                Tomás-Biosca Pérez        00000000          N
032016061479028000081001TMiguel Ángel             Martínez                 Sevilla                   00000000          N
032016061479029000084001TMaría Jesús              Herrero                  García                    00000000          N
032016061479030000084002TDiego                    Velicia                  Miranda                   00000000          N
032016061479031000084003TAna María                Sánchez                  Velasco                   00000000          N
032016061479013000093001TCesáreo                  Hernández                Iglesias                  00000000          N
032016061479014000093002TCarlos                   Velázquez                Callado                   00000000          N
032016061479015000093003TAna María                Cabero                   Pérez                     00000000          N
032016061479019000094001TVíctor Miguel            Menéndez                 Quintana                  00000000          N
032016061479020000094002TJosé Ignacio             García-Conde del         Castillo                  00000000          N
032016061479021000094003TAmelia Dolores           Sanz                     Chapado                   00000000          N
032016061499010000013001TValentín                 Iglesias                 Sánchez                   00000000          N
032016061499011000013002TMagdalena                Fernández                Ruano                     00000000          N
032016061499012000013003TRuth                     Míguez                   Ferrero                   00000000          N
032016061499013000041001TPedro Manuel             Ruiz                     Pérez                     00000000          N
032016061499014000041002TNieves                   Masó                     Casadevall                00000000          N
032016061499015000041003TMaría del                Carmen Varela            de la Barrera             00000000          N
032016061499007000064001TMarina                   Elizondo                 Esteban                   00000000          N
032016061499008000064002TCésar Cocho              de la                    Croix                     00000000          N
032016061499009000064003TFernando José            Martos                   Parra                     00000000          N
032016061499001000068001TDionisio                 García                   Carnero                   00000000          S
032016061499002000068002TClara Isabel             San Damián               Hernández                 00000000          S
032016061499003000068003TJavier                   Faúndez                  Domínguez                 00000000          S
032016061499017000072001TTeresita Loreto          Álvarez                  Pérez                     00000000          N
032016061499018000072002TJosefa                   González                 Centeno                   00000000          N
032016061499019000072003TJosé Miguel              Trufero                  Barrios                   00000000          N
032016061499004000077001TJosé                     Fernández                Blanco                    00000000          S
032016061499005000077002TMaría Ángeles            Martínez                 Blanco                    00000000          N
032016061499006000077003TJesús Ángel              Antón                    Rodríguez                 00000000          N
032016061499020000081001TCarmen María             Menéndez                 Ledo                      00000000          N
032016061499021000091001TMaría José               González                 Pablos                    00000000          N
032016061499022000091002TManuel                   Herrero                  Alonso                    00000000          N
032016061499023000091003TÁngel María              Trilla                   Casquero                  00000000          N
032016061499016000093001TJosé Luis                Díez                     Pérez                     00000000          N
032016061089010000010001TMiquel Calçada           i                        Olivella                  00000000          N
032016061089011000010002TJoaquim Clavaguera       i                        Vilà                      00000000          N
032016061089012000010003TM Clara                  Tarrida i                Felip                     00000000          N
032016061089016000015001TFrancisco Javier         Alegre                   Buxeda                    00000000          N
032016061089017000015002TNuria                    Nadal                    Burgues                   00000000          N
032016061089018000015003TJuan (Nito)              Foncuberta               Riba                      00000000          N
032016061089001000022001TÓscar                    Guardingo                Martínez                  00000000          S
032016061089002000022002TMaria                    Freixanet                Mateo                     00000000          S
032016061089003000022003TJoan                     Comorera                 Estarellas                00000000          S
032016061089004000025001TSantiago Vidal           i                        Marsal                    00000000          S
032016061089005000025002TMireia Ingla             i                        Mas                       00000000          N
032016061089006000025003TJosefina                 Mascaró                  Bujaldon                  00000000          N
032016061089019000043001TAlba                     García                   Roldán                    00000000          N
032016061089020000043002TOlga                     Eyre                     Estrada                   00000000          N
032016061089021000043003TXavier                   Martí                    Vallés                    00000000          N
032016061089025000046001TBuenaventura             Ramos                    Bellés                    00000000          N
032016061089013000069001TNúria                    Carreras                 Povill                    00000000          N
032016061089014000069002TDaniel                   Gracia                   Álvarez                   00000000          N
032016061089015000069003TJosep                    Tutusaus                 Besante                   00000000          N
032016061089007000074001TCarles                   Martí                    Jufresa                   00000000          N
032016061089008000074002TErika                    Torregrossa              Acuña                     00000000          N
032016061089009000074003TFrancesc Xavier          Grau                     Roig                      00000000          N
032016061089022000081001TManuel                   Camuñas                  Gómez                     00000000          N
032016061089023000081002TRosa Estefanía           Pérez                    Fernández                 00000000          N
032016061089024000081003TAntonio Joaquín          García                   Navarro                   00000000          N
032016061179001000010001TJoan Bagué               i                        Roura                     00000000          S
032016061179002000010002TClàudia Massó            i                        Fontàs                    00000000          N
032016061179003000010003TRomà Codina              i                        Maseras                   00000000          N
032016061179013000014001THéctor                   Amelló                   Montiu                    00000000          N
032016061179014000014002TCarles                   Rovira                   Vives                     00000000          N
032016061179015000014003TSheila                   Arias                    Malpica                   00000000          N
032016061179007000022001TDeborah Coll             i                        Whittall                  00000000          N
032016061179008000022002TAnna Toro                i                        Recasens                  00000000          N
032016061179009000022003TLluís Ciprés             i                        Paltre                    00000000          N
032016061179004000025001TJordi                    Martí                    Deulofeu                  00000000          S
032016061179005000025002TJoaquim                  Ayats                    Bartrina                  00000000          S
032016061179006000025003TElisenda                 Pérez                    Esteve                    00000000          S
032016061179019000043001TAlbert                   Benítez                  Hugas                     00000000          N
032016061179020000043002TSandra                   Brucet                   Balmaña                   00000000          N
032016061179021000043003TMònica del               Mar Jordan               Pujol                     00000000          N
032016061179023000046001TMiguel de                la Cruz                  Astasio                   00000000          N
