062011051351999000676001SIsabel                   Suárez                   Manrique de Lara         F00000000          N
062011051351999000676010SSandra María             Rodríguez                Páez                     F00000000          N
062011051351999000676011SManuel                   Alonso                   Marrero                  M00000000          N
062011051351999000676012SMargarita                Miranda                  Dasca                    F00000000          N
062011051351999000676013SAlejandro                Pérez                    Peñate                   M00000000          N
062011051351999000676014SNoemí                    Pérez                    Machín                   F00000000          N
062011051351999000676015SJosé                     Armengol                 Martín                   M00000000          N
062011051351999000676016SRosa María               Pérez                    Sauce                    F00000000          N
062011051351999000676017SVicente                  García                   Brito                    M00000000          N
062011051351999000676018SJosefa                   Morales                  Rosales                  F00000000          N
062011051351999000676019SJulio Manuel             Méndez                   Ramos                    M00000000          N
062011051351999000676002SJosé                     Villalba                 Pérez                    M00000000          N
062011051351999000676020SAurora de los Ángeles    Parada                   Ortega                   F00000000          N
062011051351999000676021SLorenzo Benito           González                 Calcines                 M00000000          N
062011051351999000676022SMaría del Carmen         Martín                   Reyes                    F00000000          N
062011051351999000676023SOmar                     Sánchez                  Pita                     M00000000          N
062011051351999000676024SAna                      Gironés                  Valdivielso              F00000000          N
062011051351999000676025SAntonia María            Santana                  Melián                   F00000000          N
062011051351999000676026SElisa                    Millares                 Alonso                   F00000000          N
062011051351999000676027SManuel Iván              Sagaseta de Illuerdoz    Parada                   M00000000          N
062011051351999000676028SCipriano                 Martín                   Medina                   M00000000          N
062011051351999000676029SMaría Práxedes           Delgado                  Alonso                   F00000000          N
062011051351999000676003SRafael                   Segura                   Acosta                   M00000000          N
062011051351999000676004SMaria del Carmen         Monzón                   Guerra                   F00000000          N
062011051351999000676005SMiguel Ángel             Redondo                  Rodríguez                M00000000          N
062011051351999000676006SAmelia                   Serrano                  Díaz                     F00000000          N
062011051351999000676007SRicardo                  Cabrera                  López                    M00000000          N
062011051351999000676008SElsa Fernanda            Rodríguez                Aguiar                   F00000000          N
062011051351999000676009SMiguel                   Albero                   Navarro                  M00000000          N
062011051351999000729001SAntonio Manuel           Ojeda                    Herrera                  M00000000          N
062011051351999000729010SElisa                    Rodríguez                Gangura                  F00000000          N
062011051351999000729011SCesar Luis               Medina                   Martín                   M00000000          N
062011051351999000729012SNoelia                   Naranjo                  Naranjo                  F00000000          N
062011051351999000729013SAbraham Javier           Santana                  Rodríguez                M00000000          N
062011051351999000729014SMaría Rosario            Cruz                     Guedes                   F00000000          N
062011051351999000729015SCarmelo                  Ramírez                  Álvarez                  M00000000          N
062011051351999000729016SLeonor                   Ramírez                  Galindo                  F00000000          N
062011051351999000729017SMiguel Guillermo         Santana                  Brito                    M00000000          N
062011051351999000729018SJuan                     Del Estal                Reus                     M00000000          N
062011051351999000729019SSara Judit               Medina                   De Llanos                F00000000          N
062011051351999000729002SAltahay                  Santana                  López                    M00000000          N
062011051351999000729020SJosé                     Santana                  García                   M00000000          N
062011051351999000729021SRosalia Lidia            De Llanos                Sánchez                  F00000000          N
062011051351999000729022SJosé Luís                Santana                  Artiles                  M00000000          N
062011051351999000729023SJose Juan                Rodríguez                Pérez                    M00000000          N
062011051351999000729024SRita                     Ojeda                    Herrera                  F00000000          N
062011051351999000729025SErnesto                  Del Estal                Santana                  M00000000          N
062011051351999000729026SCarmen del Pino          Santana                  Martell                  F00000000          N
062011051351999000729027SPaulo Cesar              Santana                  Brito                    M00000000          N
062011051351999000729028SCarlos Alberto           Rodríguez                Ramírez                  M00000000          N
062011051351999000729029SMaría Jesús              Rodríguez                Roque                    F00000000          N
062011051351999000729003SAntonio                  García                   Padrón                   M00000000          N
062011051351999000729004SGuacimara                Vera                     Díaz                     F00000000          N
062011051351999000729005SMaría Ángeles            Santana                  García                   F00000000          N
062011051351999000729006SJonay                    Navarro                  Ortega                   M00000000          N
062011051351999000729007SOctavio                  Expósito                 Pérez                    M00000000          N
062011051351999000729008SJuan                     Martín                   Carnicer                 M00000000          N
062011051351999000729009SMaría Dolores            Hernández                Santa Cruz               F00000000          N
062011051351999001143001SMario                    Hernández                Sanginés                 M00000000          N
062011051351999001143010SAntoniio Vicente         Gutierrez                Del Pino                 M00000000          N
062011051351999001143011SJuana Rosa               Felipe                   González                 F00000000          N
062011051351999001143012SMónica Rosa              Gutiérrez                Siguiri                  F00000000          N
062011051351999001143013SJose Luís Cirilo         Santana                  Socorro                  M00000000          N
062011051351999001143014SBernardino Jesús         Méndez                   Pérez                    M00000000          N
062011051351999001143015SAlejandro                Aguilar                  Torres                   M00000000          N
062011051351999001143016SLidia Esther             Santana                  Gómez                    F00000000          N
062011051351999001143017SAmado                    Suárez                   Betancor                 M00000000          N
062011051351999001143018SSimón                    Cruz                     Guedes                   M00000000          N
062011051351999001143019SAday                     Armas                    Cruz                     M00000000          N
062011051351999001143002SCayetano                 Santana                  Socorro                  M00000000          N
062011051351999001143020SEmilia                   Aguiar                   Díaz                     F00000000          N
062011051351999001143021SJosé                     Del Rosario              Diepa                    M00000000          N
062011051351999001143022SJesús                    Santana                  López                    M00000000          N
062011051351999001143023SFrancisco                Sánchez                  Jareño                   M00000000          N
062011051351999001143024SRosario Luisa            Plaza                    De león                  F00000000          N
062011051351999001143025SMaria Angeles            Almeida                  Déniz                    F00000000          N
062011051351999001143026SFernando                 Lanuza                   Rodríguez                M00000000          N
062011051351999001143027SElizabel                 Cruz                     San Ginés                F00000000          N
062011051351999001143028SClotilde                 Sánchez                  Morales                  F00000000          N
062011051351999001143029SJosé Francisco           Suárez                   Domínguez                M00000000          N
062011051351999001143003SNuria                    Hernández                Acosta                   F00000000          N
062011051351999001143004SAuxiliadora del Pino     Santana                  Gomez                    F00000000          N
062011051351999001143005SRayco                    Viera                    Carrera                  M00000000          N
062011051351999001143006SYolanda Esther           Ramírez                  Hernández                F00000000          N
062011051351999001143007SMaría                    Diepa                    Fontes                   F00000000          N
062011051351999001143008SNieves Natalia           Santana                  Gómez                    F00000000          N
062011051351999001143009SJosé María               Gómez                    Morales                  M00000000          N
062011051351999001190001SGuillermo                Reyes                    Rodríguez                M00000000          N
062011051351999001190010SFrancisco                Medina                   Alonso                   M00000000          N
062011051351999001190011SCarmen Otilia            Martín                   Viera                    F00000000          N
062011051351999001190012SPriscilla                Rodríguez                Fernández                F00000000          N
062011051351999001190013SManuel                   Quesada                  Calero                   M00000000          N
062011051351999001190014SFrancisco                Santana                  Martín                   M00000000          N
062011051351999001190015SMaría Dolores            González                 Sánchez                  F00000000          N
062011051351999001190016SJuan Agustín             González                 Calixto                  M00000000          N
062011051351999001190017SCatalina                 Méndez                   Jiménez                  F00000000          N
062011051351999001190018SFermín                   Rodríguez                Vega                     M00000000          N
062011051351999001190019SCarlos                   Collado                  Sosa                     M00000000          N
062011051351999001190002SDelfín                   Artiles                  Suárez                   M00000000          N
062011051351999001190020SVanesa del Pino          Cruz                     Quevedo                  F00000000          N
062011051351999001190021SFrancisco José           Sosa                     Rodríguez                M00000000          N
062011051351999001190022SJosé Luis                Martel                   Santana                  M00000000          N
062011051351999001190023SGloria                   Ojeda                    Falcón                   F00000000          N
062011051351999001190024SYaiza                    Santana                  Santana                  F00000000          N
062011051351999001190025SDavid                    Medina                   Santana                  M00000000          N
062011051351999001190026STeresa                   Ojeda                    Ojeda                    F00000000          N
062011051351999001190027SAna María                Lassaletta               Simón                    F00000000          N
062011051351999001190028SFlorencio Martín         Ojeda                    Ramírez                  M00000000          N
062011051351999001190029SSantiago                 Delgado                  Armas                    M00000000          N
062011051351999001190003SEsther Damari            Florido                  Cáceres                  F00000000          N
062011051351999001190004SIván                     Artlies                  Socorro                  M00000000          N
062011051351999001190005SMaría                    Betancor                 Gutiérrez                F00000000          N
062011051351999001190006SJuan Francisco           Rodríguez                García                   M00000000          N
062011051351999001190007SLucana                   García                   Betancor                 F00000000          N
062011051351999001190008SMencey                   Navarro                  Romero                   M00000000          N
062011051351999001190009SYurena Rita              Rodríguez                Hernández                F00000000          N
062011051351999001256001SFernando Luis            Bañolas                  Bolaños                  M00000000          S
062011051351999001256010SAlicia                   Castellano               García                   F00000000          N
062011051351999001256011SAntonio Joaquín          Medina                   Quesada                  M00000000          N
062011051351999001256012SJosé Francisco           Navarro                  Matias                   M00000000          N
062011051351999001256013SCarmelo Luciano          Báez                     De la Fe                 M00000000          N
062011051351999001256014SJosefa                   Heredia                  Carmona                  F00000000          N
062011051351999001256015SBeatriz                  Calzada                  Ojeda                    F00000000          N
062011051351999001256016SJesús Gonzalo            Medina                   Osorio                   M00000000          N
062011051351999001256017SJuan Francisco           Aguiar                   Rodríguez                M00000000          N
062011051351999001256018SMaría Rosa               García                   García                   F00000000          N
062011051351999001256019SPedro                    Rocha                    Zerpa                    M00000000          N
062011051351999001256002SAntonio Ramón            Hernández                Lobo                     M00000000          S
062011051351999001256020SMaría Marcela            Ponce                    Santana                  F00000000          N
062011051351999001256021SJesús                    Rodríguez                Guerra                   M00000000          N
062011051351999001256022SJosé Luís                Ravelo                   Parrilla                 M00000000          N
062011051351999001256023SArjan                    Mangaldas                Sirwani                  M00000000          N
062011051351999001256024SMaría Elena              Sánchez                  Ceballos                 F00000000          N
062011051351999001256025SEloisa María             Ojeda                    Sosa                     F00000000          N
062011051351999001256026SLuis Enrique             Vieites                  Vega                     M00000000          N
062011051351999001256027SMaría Elena              Domínguez                Ortega                   F00000000          N
062011051351999001256028SMaría del Carmen         Suárez                   Valerón                  F00000000          N
062011051351999001256029SArcadio                  Domínguez                Rodíguez                 M00000000          N
062011051351999001256003SJuan                     Domínguez                Bautista                 M00000000          S
062011051351999001256004SRosario                  Chesa                    Padrón                   F00000000          N
062011051351999001256005SLidia Esther             Guerra                   Del Rosario              F00000000          N
062011051351999001256006SRufino                   Pérez                    Ramírez                  M00000000          N
062011051351999001256007SJosé Antonio             Reyes                    Perera                   M00000000          N
062011051351999001256008SMaría Guillermina        Espino                   Cruz                     F00000000          N
062011051351999001256009SAlvaro Antonio           Pérez                    Domínguez                M00000000          N
062011051351999001333001SHernando Ignacio         Toledo                   Santana                  M00000000          N
062011051351999001333010SYlenia Agustina          Sánchez                  Mendoza                  F00000000          N
062011051351999001333011SPedro Hilario            Socorro                  Benítez                  M00000000          N
062011051351999001333012SFrancisco José           Rodríguez                Pérez                    M00000000          N
062011051351999001333013SSergio                   González                 Álamo                    M00000000          N
062011051351999001333014SAna María                Medina                   Afonso                   F00000000          N
062011051351999001333015SMarina                   Trillo                   Rodríguez                F00000000          N
062011051351999001333016SJuana Teresa             Ortega                   Rodríguez                F00000000          N
062011051351999001333017SRosario                  Santana                  Machín                   F00000000          N
062011051351999001333018SLuis                     Sánchez                  Suárez                   M00000000          N
062011051351999001333019SLuisa                    García                   Martín                   F00000000          N
062011051351999001333002SCarmen                   Marañón                  Banegas                  F00000000          N
062011051351999001333020SJosé                     Monroy                   Arbelo                   M00000000          N
062011051351999001333021SIsmael                   Sánchez                  Melián                   M00000000          N
062011051351999001333022SJordana                  Santana                  De León                  F00000000          N
062011051351999001333023SCármen                   Ortega                   Rodríguez                F00000000          N
062011051351999001333024SJulio                    Marrero                  O'Sanahan                M00000000          N
062011051351999001333025SElena                    Peñate                   Navarro                  F00000000          N
062011051351999001333026SBentejuí                 Domínguez                Travieso                 M00000000          N
062011051351999001333027SDulce María Auxiliadora  Déniz                    Hernández                F00000000          N
062011051351999001333028SFernando                 Alfonso                  Martín                   M00000000          N
062011051351999001333029SAntonia Soraya           Padrón                   Tacoronte                F00000000          N
062011051351999001333003SMiguel                   Doreste                  Armas                    M00000000          N
062011051351999001333004SAntonio                  Gil                      Ramírez                  M00000000          N
062011051351999001333005SFátima                   Vera                     López                    F00000000          N
062011051351999001333006SMarco                    García                   Brito                    M00000000          N
062011051351999001333007SAlfonso                  Artiles                  Rodríguez                M00000000          N
062011051351999001333008SEmilio                   López                    Gil                      M00000000          N
062011051351999001333009SBenedicta                Rodríguez                Montesdeoca              F00000000          N
062011051351999001424001SAlejandro Alexis         Nantón                   Díaz                     M00000000          N
062011051351999001424010SJacobo                   Almeida                  Domínguez                M00000000          N
062011051351999001424011SMaría Cristina           Antón                    Tellez                   F00000000          N
062011051351999001424012SYone Del Pino            Hernández                Herrera                  M00000000          N
062011051351999001424013SLeonor                   Roldán                   De La Vega               F00000000          N
062011051351999001424014SJavier Ubay              Cabrera                  Rodríguez                M00000000          N
062011051351999001424015SBárbara                  Navarro                  Vega                     F00000000          N
062011051351999001424016SAngel                    Negrin                   Guillán                  M00000000          N
062011051351999001424017SLaura                    Suarez                   Hernández                F00000000          N
062011051351999001424018SJesús Manuel             García                   Ojeda                    M00000000          N
062011051351999001424019SMaría del Carmen         Sánchez                  Ventura                  F00000000          N
062011051351999001424002SDácil                    Martín                   Medina                   F00000000          N
062011051351999001424020SFaustino                 Santana                  Sánchez                  M00000000          N
062011051351999001424021SMaría Reyes              Ojeda                    Quintana                 F00000000          N
062011051351999001424022SAngel                    Borrás                   Marlet                   M00000000          N
062011051351999001424023SCarmen Delia             Almeida                  Ojeda                    F00000000          N
062011051351999001424024SJose Antonio             De León                  Henríquez                M00000000          N
062011051351999001424025SAna María                Hernández                Sosa                     F00000000          N
062011051351999001424026SLuis Miguel              Del Olmo                 González                 M00000000          N
062011051351999001424027SMaría Yurena             Jiménez                  Quintana                 F00000000          N
062011051351999001424028SEmilio José              García                   Guerra                   M00000000          N
062011051351999001424029SJosefina                 Iglesias                 Barcala                  F00000000          N
062011051351999001424003SCelestino                Padrón                   Barrera                  M00000000          N
062011051351999001424004SLucía                    Sánchez                  Ventura                  F00000000          N
062011051351999001424005SSaray del Carmen         Mentado                  Roldán                   F00000000          N
062011051351999001424006SCarlos Alberto           García                   Ojeda                    M00000000          N
062011051351999001424007SMaría Dolores            Roldán                   De la Vega               F00000000          N
062011051351999001424008SVíctor Manuel            Díaz                     Luis                     M00000000          N
062011051351999001424009SLeonor Gemma             Mentado                  Roldán                   F00000000          N
062011051351999002460001SIgnacio                  Cabrera                  Guedes                   M00000000          N
062011051351999002460010SJuan Manuel              Santana                  Pérez                    M00000000          N
062011051351999002460011SJuan Sebastián           Ramírez                  Rodríguez                M00000000          N
062011051351999002460012SMaría                    Ortega                   Corto                    F00000000          N
062011051351999002460013SLuis Miguel              Pérez                    Marrero                  M00000000          N
062011051351999002460014SBeatriz                  Serrano                  Chacón                   F00000000          N
062011051351999002460015SGermán                   Santana                  Pérez                    M00000000          N
062011051351999002460016SFrancisco Antonio        Pérez                    Rodríguez                M00000000          N
062011051351999002460017SZuleima Teresa           Rodríguez                Pérez                    F00000000          N
062011051351999002460018SJuan                     Rodríguez                Hernández                M00000000          N
062011051351999002460019STina Mithu               Sadarangani              Moorjani                 F00000000          N
062011051351999002460002SMaría del Pino           Rodríguez                Hernández                F00000000          N
062011051351999002460020SDomingo David            Vizcaino                 Cruz                     M00000000          N
062011051351999002460021SPedro                    Sánchez                  Martel                   M00000000          N
062011051351999002460022SNira                     Rodríguez                Martín                   F00000000          N
062011051351999002460023SSantiago                 Rodríguez                Martín                   M00000000          N
062011051351999002460024SÁngela                   Rodríguez                Quintero                 F00000000          N
062011051351999002460025SGustavo                  Hellín                   Machín                   M00000000          N
062011051351999002460026SJuan                     Cruz                     Pascual                  M00000000          N
062011051351999002460027SYurena Cathaysa          Rodríguez                Martín                   F00000000          N
062011051351999002460028SAdrián                   Rodríguez                Del Rosario              M00000000          N
062011051351999002460029SMercedes                 Blázquez                 Vidal                    F00000000          N
062011051351999002460003SAlfonso                  Torres                   Ageitos                  M00000000          N
062011051351999002460004SCarmen Dolores           Vaquero                  Arencibia                F00000000          N
062011051351999002460005SJuan Francisco           Castro                   Mayor                    M00000000          N
062011051351999002460006SGregorio                 Rodríguez                Herrera                  M00000000          N
062011051351999002460007SMaría Dolores            Montesdeoca              García                   F00000000          N
062011051351999002460008SJavier Octavio           Márquez                  Quevedo                  M00000000          N
062011051351999002460009SMaría Rosa               Bogatell                 Laplana                  F00000000          N
062011051351999002665001SAmalia Encarnación       Bosch                    Benítez                  F00000000          N
062011051351999002665010SGloria Ángeles           Martín                   Romero                   F00000000          N
062011051351999002665011SManuel                   González                 Arencibia                M00000000          N
062011051351999002665012SFrancisca Rosa           Santana                  Alemán                   F00000000          N
062011051351999002665013SFrancisco Javier         Canino                   Almeida                  M00000000          N
062011051351999002665014SMaría Cecilia            Nuñez                    Arencibia                F00000000          N
062011051351999002665015SFrancisco Antonio        Álvarez                  Socorro                  M00000000          N
062011051351999002665016SIris María               Gil                      Quintana                 F00000000          N
062011051351999002665017SJose Francisco           Ramírez                  Cabrera                  M00000000          N
062011051351999002665018SLidia Esther             Santana                  Alemán                   F00000000          N
062011051351999002665019SAntonio Emilio           Ventura                  Tadeo                    M00000000          N
062011051351999002665002SDomingo                  Afonso                   Martín                   M00000000          N
062011051351999002665020SMaría del Mar            Guerra                   Cruz                     F00000000          N
062011051351999002665021SOrlando Eduardo          Alayón                   Araña                    M00000000          N
062011051351999002665022SAlicia                   Lezcano                  Moreno                   F00000000          N
062011051351999002665023SAlberto Julio            Carrión                  Pérez                    M00000000          N
062011051351999002665024SCandelaria Asunción      López                    Ferreira                 F00000000          N
062011051351999002665025SGregorio Guillermo       Santana                  Trujillo                 M00000000          N
062011051351999002665026SSimona Margarita         Gutiérrez                Suárez                   F00000000          N
062011051351999002665027SJuan Fermín Valeriano    Sosa                     Guillén                  M00000000          N
062011051351999002665028SMargarita Rosa           Gil                      Navarro                  F00000000          N
062011051351999002665029SPedro Pablo              Pulido                   Meneces                  M00000000          N
062011051351999002665003SRuperto Agustín          Matas                    Gutiérrez                M00000000          N
062011051351999002665004SPaula                    Sánchez                  Cuesta                   F00000000          N
062011051351999002665005SNelido                   Valido                   Robaina                  M00000000          N
062011051351999002665006SMaría del Pilar          Sosa                     Díaz                     F00000000          N
062011051351999002665007SEnrique                  Caro                     Zamora                   M00000000          N
062011051351999002665008SMaría del Pilar          Álvarez                  León                     F00000000          N
062011051351999002665009SRafael Carlos            Rodríguez                Santana                  M00000000          N
062011051351999002777001SRomán                    Rodríguez                Rodríguez                M00000000          S
062011051351999002777010SDulce María              González                 González                 F00000000          N
062011051351999002777011SNoemi                    Santana                  Perera                   F00000000          N
062011051351999002777012SJosé Juan                Pérez                    Suárez                   M00000000          N
062011051351999002777013SMaría de la Luz          Almeida                  Rivero                   F00000000          N
062011051351999002777014SSonia Esther             Guerra                   Ponce                    F00000000          N
062011051351999002777015SVictor Julio             Suárez                   Araujo                   M00000000          N
062011051351999002777016SMargarita Rosa           Suárez                   Ojeda                    F00000000          N
062011051351999002777017SCatalina María Carmen    Sánchez                  Ramírez                  F00000000          N
062011051351999002777018SHeriberto José           Dávila                   Ojeda                    M00000000          N
062011051351999002777019SFayna                    Frugoni                  Mireles                  F00000000          N
062011051351999002777002SMaría Inés               Jiménez                  Martín                   F00000000          S
062011051351999002777020SSalvador                 Sánchez                  Henríquez                M00000000          N
062011051351999002777021SFatimetu                 Buhoy                    Ramdan                   F00000000          N
062011051351999002777022SJuan Andrés              Godoy                    Rivero                   M00000000          N
062011051351999002777023SCarlos Javier            Pineda                   Moreno                   M00000000          N
062011051351999002777024SInmaculada               Cruz                     Oliva                    F00000000          N
062011051351999002777025SMaría Luz                Rodríguez                Reyes                    F00000000          N
062011051351999002777026SRokhaya                  Samb                     Sall                     F00000000          N
062011051351999002777027SSimón José Matías        Santana                  Navarro                  M00000000          N
062011051351999002777028SMaría Dolores            Díaz                     Rodríguez                F00000000          N
062011051351999002777029SFrancisco Miguel         Zumaquero                García                   M00000000          N
062011051351999002777003SCarmelo                  Ramírez                  Marrero                  M00000000          S
062011051351999002777004STeodoro Claret           Sosa                     Monzón                   M00000000          S
062011051351999002777005SMaría Pino               Torres                   Melián                   F00000000          S
062011051351999002777006SOscar Ramón              Hernández                Suárez                   M00000000          N
062011051351999002777007SMaría Pino               Sánchez                  González                 F00000000          N
062011051351999002777008SRogelio Miguel           Frade                    García                   M00000000          N
062011051351999002777009SMaría José               López                    Santana                  F00000000          N
062011051351999002898001SAgustín                  Millares                 Cantero                  M00000000          N
062011051351999002898010SSimón                    Concepción               Santana                  M00000000          N
062011051351999002898011SMaría José               Santana                  Guedes                   F00000000          N
062011051351999002898012SJosé Ramón               Galiano                  Vela                     M00000000          N
062011051351999002898013SFrancisca Carmen         Sánchez                  Macías                   F00000000          N
062011051351999002898014SPedro Zacarías           Ramírez                  Alemán                   M00000000          N
062011051351999002898015SFaina Ico                Cabrera                  Artiles                  F00000000          N
062011051351999002898016SRosalía                  Guedes                   Díaz                     F00000000          N
062011051351999002898017SRosa Angeles             Febles                   Baez                     F00000000          N
062011051351999002898018SFrancisco                López                    Monroy                   M00000000          N
062011051351999002898019SFernando                 Suárez                   Pérez                    M00000000          N
062011051351999002898002SSonia María              Iruela                   Padrón                   F00000000          N
062011051351999002898020SFrancisco Javier         Santana                  Guedes                   M00000000          N
062011051351999002898021SAntonia Cruz             Quintana                 Cárdenes                 F00000000          N
062011051351999002898022SGuadalupe                Rivero                   Martín                   F00000000          N
062011051351999002898023SSebastián Darío          Mendoza                  García                   M00000000          N
062011051351999002898024SJosé                     Ojeda                    Guedes                   M00000000          N
062011051351999002898025SCarmelo Agustín          Valido                   Ojeda                    M00000000          N
062011051351999002898026SGermán                   Farray                   Santana                  M00000000          N
062011051351999002898027SAntonia                  Hernández                Mendoza                  F00000000          N
062011051351999002898028SMaría Teresa             Farray                   Mihalic                  F00000000          N
062011051351999002898029SJorge                    Román                    Marrero                  M00000000          N
062011051351999002898003SIsabel Concepción        Talavera                 Quevedo                  F00000000          N
062011051351999002898004SJosé Cristobal           Mora                     López                    M00000000          N
062011051351999002898005SMiguel Angel             Cabrera                  Alcántara                M00000000          N
062011051351999002898006SIsabel                   Mujica                   Sánchez                  F00000000          N
062011051351999002898007SJavier                   Delgado                  Pérez                    M00000000          N
062011051351999002898008SAntonio José             Santana                  Alonso                   M00000000          N
062011051351999002898009SMaría Isabel             Santana                  León                     F00000000          N
062011051351999003077001SJosé Miguel              Bravo de Laguna          Bermúdez                 M00000000          S
062011051351999003077010SJosé Francisco           González                 González                 M00000000          S
062011051351999003077011SJosé Miguel              Álamo                    Mendoza                  M00000000          S
062011051351999003077012SMelchor Eduardo          Camón                    Torres                   M00000000          S
062011051351999003077013SMaría del Carmen         Muñoz                    Marín                    F00000000          S
062011051351999003077014SMaría del Mar            Arévalo                  Araya                    F00000000          S
062011051351999003077015SAladino                  Suárez                   García                   M00000000          N
062011051351999003077016SHipólito Alejandro       Suárez                   Nuez                     M00000000          N
062011051351999003077017SMaría Victoria           Ponce                    Pérez                    F00000000          N
062011051351999003077018SNoelia María             García                   Rodríguez                F00000000          N
062011051351999003077019SJuan                     Umpierrez                Cabrera                  M00000000          N
062011051351999003077002SRosa                     Rodríguez                Díaz                     F00000000          S
062011051351999003077020SPaola María del Carmen   Hernández                Marrero                  F00000000          N
062011051351999003077021SMarcos Alejandro         Rufo                     Torres                   M00000000          N
062011051351999003077022SGuillermo Jesús          Mariscal                 Reinoso-Jiménez          M00000000          N
062011051351999003077023SJosefa (Eva)             Díaz                     Melian                   F00000000          N
062011051351999003077024SAgustín                  González                 Arencibia                M00000000          N
062011051351999003077025SMaría del Carmen         Miranda                  Suárez                   F00000000          N
062011051351999003077026SHector Manuel            Pérez                    Quevedo                  M00000000          N
062011051351999003077027SRosario                  Tarajano                 Hernández                F00000000          N
062011051351999003077028SMaría Eugenia            Márquez                  Rodríguez                F00000000          N
062011051351999003077029SJosé                     Macías                   Santana                  M00000000          N
062011051351999003077003SCarlos Alberto           Sánchez                  Ojeda                    M00000000          S
062011051351999003077004SAna                      Kurson                   Ghattas                  F00000000          S
062011051351999003077005SFrancisco Miguel         Santana                  Melián                   M00000000          S
062011051351999003077006SLucas                    Bravo de Laguna          Cabrera                  M00000000          S
062011051351999003077007SMaría del Carmen         Rosario                  Godoy                    F00000000          S
062011051351999003077008SMaría Auxiliadora        Pérez                    Díaz                     F00000000          S
062011051351999003077009SMarco Aurelio            Pérez                    Sánchez                  M00000000          S
062011051351999003186001SCarolina                 Darias                   San Sebastián            F00000000          S
062011051351999003186010SJesús Vicente Eugenio    González                 Dumpiérrez               M00000000          N
062011051351999003186011SMaría Isabel             Santana                  Marrero                  F00000000          N
062011051351999003186012SMiguel                   Montero                  Naranjo                  M00000000          N
062011051351999003186013SJosé Fermín              Báez                     Naranjo                  M00000000          N
062011051351999003186014SJulián                   Navarro                  Casañas                  M00000000          N
062011051351999003186015SMaría Loreto             Hernández                Hernández                F00000000          N
062011051351999003186016SPedro Juan De Dios       Campos                   Sacaluga                 M00000000          N
062011051351999003186017SLenia                    Melián                   Santana                  F00000000          N
062011051351999003186018SSergio                   Rodríguez                Almeida                  M00000000          N
062011051351999003186019SCristina                 Pardo                    Fraile                   F00000000          N
062011051351999003186002SAugusto                  Hidalgo                  Macario                  M00000000          S
062011051351999003186020SMarta Jorgina            Saavedra                 Domenech                 F00000000          N
062011051351999003186021SRaúl                     Bellot                   Hernández                M00000000          N
062011051351999003186022SAna María                Navajas                  Sánchez                  F00000000          N
062011051351999003186023SJuan Manuel              Betancor                 León                     M00000000          N
062011051351999003186024SMaría Obelesa            Hernández                Delgado                  F00000000          N
062011051351999003186025SJuan Manuel              Santana                  Cruz                     M00000000          N
062011051351999003186026SNoemí Alicia             Palmés                   González                 F00000000          N
062011051351999003186027SMiguel Angel             Redondo                  Iribarren                M00000000          N
062011051351999003186028SManuela                  Santana                  Espino                   F00000000          N
062011051351999003186029SJulio Javier             Ramos                    Mendoza                  M00000000          N
062011051351999003186003SDemetrio                 Suárez                   Díaz                     M00000000          S
062011051351999003186004SGuacimara                Medina                   Pérez                    F00000000          S
062011051351999003186005SMaría Isabel             Guerra                   Sánchez                  F00000000          S
062011051351999003186006SRoberto                  Moreno                   Díaz                     M00000000          S
062011051351999003186007STeresa de Jesús          Mayoral                  Fernández                F00000000          S
062011051351999003186008SJosé Antonio             Godoy                    Rodríguez                M00000000          N
062011051351999003186009SNayra                    Alemán                   Ojeda                    F00000000          N
062011051351999003534001SAdrián                   Déniz                    Marrero                  M00000000          N
062011051351999003534010SManuel de los Reyes      García                   Sosa                     M00000000          N
062011051351999003534011STomás                    Ruiz                     Delgado                  M00000000          N
062011051351999003534012SSabina María             Sánchez                  Sánchez                  F00000000          N
062011051351999003534013SRosa María               García                   Medina                   F00000000          N
062011051351999003534014SPaula Elena              Rosales                  Vizcaino                 F00000000          N
062011051351999003534015SRafael Martín            Revuelta                 Del Rosso                M00000000          N
062011051351999003534016SFrancisco José           Cruz                     Delgado                  M00000000          N
062011051351999003534017SEmma Alicia              Moreno                   Pérez                    F00000000          N
062011051351999003534018SJosé Daniel              Santana                  García                   M00000000          N
062011051351999003534019SPatricia Eduvigis        Rosales                  Vizcaino                 F00000000          N
062011051351999003534002SAntonio                  Barreto                  Ramírez                  M00000000          N
062011051351999003534020SDolores                  Jiménez                  Pérez                    F00000000          N
062011051351999003534021SElvira                   Valle                    Conde                    F00000000          N
062011051351999003534022SJasmina                  Verona                   García                   F00000000          N
062011051351999003534023SMiguel Angel             Ruiz                     Alonso                   M00000000          N
062011051351999003534024SIsabel                   Ruiz                     Delgado                  F00000000          N
062011051351999003534025SJuan Carlos              Rendón                   Borreguero               M00000000          N
062011051351999003534026STeresa de Jesús          Santana                  González                 F00000000          N
062011051351999003534027SMaría del Mar            Hawach                   Gutiérrez                F00000000          N
062011051351999003534028SFrancisco                Santana                  Ojeda                    M00000000          N
062011051351999003534029SAntonio                  Trujillo                 Delgado                  M00000000          N
062011051351999003534003SCecilia                  Guerra                   García                   F00000000          N
062011051351999003534004SMaría Noelia             Medina                   Afonso                   F00000000          N
062011051351999003534005SEsther Laila             Hawach                   Gutiérrez                F00000000          N
062011051351999003534006SFrancisco Javier         Déniz                    Bolaños                  M00000000          N
062011051351999003534007SGuadalupe                Santana                  Suárez                   F00000000          N
062011051351999003534008SEduvigis                 Vizcaíno                 Melián                   F00000000          N
062011051351999003534009SMaría del Pino           Carreño                  Artiles                  F00000000          N
062011051351999003626001SJuan                     Padrón                   Ramos                    M00000000          N
062011051351999003626010SAlejandro                Hernández                Mejías                   M00000000          N
062011051351999003626011SMaría Cruz               Segura                   Suárez                   F00000000          N
062011051351999003626012SJuan Antonio             Marrero                  Pérez                    M00000000          N
062011051351999003626013SAntonia María            Valido                   Quevedo                  F00000000          N
062011051351999003626014SAurelio                  Vega                     Arbelo                   M00000000          N
062011051351999003626015SNelson Roque             Vega                     Gutierrez                M00000000          N
062011051351999003626016SCarmen Esther            Martín                   Mejias                   F00000000          N
062011051351999003626017SMaría Isabel             Ravelo                   Gutierrez                F00000000          N
062011051351999003626018SJuan Antonio             León                     Romero                   M00000000          N
062011051351999003626019SMiguel Benito            Carrión                  Pérez                    M00000000          N
062011051351999003626002SMaría Luisa              Perdomo                  Sosa                     F00000000          N
062011051351999003626020SDomingo Sergio           Del Rosario              Déniz                    M00000000          N
062011051351999003626021SFrancisco                Hernández                Ruano                    M00000000          N
062011051351999003626022SCarmen Dolores           Morales                  Machín                   F00000000          N
062011051351999003626023SPablo                    García                   Bolaños                  M00000000          N
062011051351999003626024SMaría del Carmen         Padrón                   Ramos                    F00000000          N
062011051351999003626025SAntonio Ramón            Blanco                   Ramos                    M00000000          N
062011051351999003626026SMiriam                   Padrón                   Martínez                 F00000000          N
062011051351999003626027SJosé Luis                Jorge                    López                    M00000000          N
062011051351999003626028SMiguel                   Pérez                    Rivero                   M00000000          N
062011051351999003626029SAngela Ines              Martínez                 Mier                     F00000000          N
062011051351999003626003SJosé Miguel              Ramírez                  Araña                    M00000000          N
062011051351999003626004SMaría Nieves             García                   González                 F00000000          N
062011051351999003626005SAgustín                  García                   Almeida                  M00000000          N
062011051351999003626006SAntonio Moises           Montesdeoca              Melian                   M00000000          N
062011051351999003626007SIldefonso Manuel         Paez                     González                 M00000000          N
062011051351999003626008SElsa Margarita           Pérez                    Guerra                   F00000000          N
062011051351999003626009SRosario                  Perdomo                  Araña                    F00000000          N
062011051351999003784001SOlga María               Bolívar                  Toledo                   F00000000          N
062011051351999003784010SRaúl Alexis              Santana                  García                   M00000000          N
062011051351999003784011SMaría Elena              Bravo de Laguna          Roque                    F00000000          N
062011051351999003784012SRafael Ángel             Romero                   Morell                   M00000000          N
062011051351999003784013SFrancisco Javier         Enriquez                 Servera                  M00000000          N
062011051351999003784014SMaría Olivia             Hernández                Naranjo                  F00000000          N
062011051351999003784015SAntonio                  Provecho                 Pozo                     M00000000          N
062011051351999003784016SMaría Teresa             Vizuete                  Tejera                   F00000000          N
062011051351999003784017SJorge David              Méndez                   Rodríguez                M00000000          N
062011051351999003784018SJosefa                   González                 González                 F00000000          N
062011051351999003784019SMaría Felisa             Martínez                 Corral                   F00000000          N
062011051351999003784002SFrancisco Javier         Carreras                 Riudavets                M00000000          N
062011051351999003784020SGustavo Carmelo          Cabrera                  Naranjo                  M00000000          N
062011051351999003784021SDaniel                   Sosa                     Reyes                    M00000000          N
062011051351999003784022SJuana Teresa             Díaz                     Burrell                  F00000000          N
062011051351999003784023SMaría Cristina           Pérez-Pozuelo            López-Blanco             F00000000          N
062011051351999003784024SMario                    García-Carreño           Zaloña                   M00000000          N
062011051351999003784025SJosé Luis                Falcón                   Déniz                    M00000000          N
062011051351999003784026SAraceli María de los DoloFuentes                  Lemes                    F00000000          N
062011051351999003784027SPetronila                Morera                   Carballo                 F00000000          N
062011051351999003784028SJosé Agustín             Quintana                 Santana                  M00000000          N
062011051351999003784029SOscar                    Bermejo                  García                   M00000000          N
062011051351999003784003SEmilio                   Cobos                    Pacheco                  M00000000          N
062011051351999003784004SMaría del Carmen         Muñoz                    Ojeda                    F00000000          N
062011051351999003784005SRafael                   Ramírez                  Hernández                M00000000          N
062011051351999003784006SBeatriz                  Vilar                    Brumbeck                 F00000000          N
062011051351999003784007SOliverio Jesús           Santana                  Jaria                    M00000000          N
062011051351999003784008SRoser                    Camprubí                 Domenech                 F00000000          N
062011051351999003784009SAugusto                  Miguelez                 Puga                     M00000000          N
062011051351999003882001SJosé Andrés              Santana                  Suárez                   M00000000          N
062011051351999003882010SMarta                    Sánchez                  Batista                  F00000000          N
062011051351999003882011SGregorio                 Santana                  Ramírez                  M00000000          N
062011051351999003882012SZandor                   Arocha                   Roque                    M00000000          N
062011051351999003882013SJesús                    Machín                   Delgado                  M00000000          N
062011051351999003882014SSilvia                   Sánchez                  Batista                  F00000000          N
062011051351999003882015SNereida                  Díaz                     Santana                  F00000000          N
062011051351999003882016SSalvador                 Sánchez                  Palmes                   M00000000          N
062011051351999003882017SLuis                     Pardal                   Lozano                   M00000000          N
062011051351999003882018SJosé Antonio             Gonzálvez                Suárez                   M00000000          N
062011051351999003882019SLeticia                  Díaz                     Santana                  F00000000          N
062011051351999003882002SOscar                    Roque                    Pérez                    M00000000          N
062011051351999003882020SMaría                    Lozano                   Manzano                  F00000000          N
062011051351999003882021SRamón                    Rodríguez                Betancor                 M00000000          N
062011051351999003882022SJosé Luis                Pardal                   Torres                   M00000000          N
062011051351999003882023SSergio                   Abad                     Macías                   M00000000          N
062011051351999003882024SAngelina                 Lorenzo                  Navarro                  F00000000          N
062011051351999003882025SAna                      Álamo                    Rodríguez                F00000000          N
062011051351999003882026SJuan Manuel              Santana                  Suárez                   M00000000          N
062011051351999003882027SFernando                 Rodríguez                Doreste                  M00000000          N
062011051351999003882028SCarmen Vanessa           Santana                  Martín                   F00000000          N
062011051351999003882029SJuana                    Suárez                   Socorro                  F00000000          N
062011051351999003882003SJuan Carmelo             Sánchez                  González                 M00000000          N
062011051351999003882004SBernardina               Sarmiento                Santana                  F00000000          N
062011051351999003882005SMaría Angeles            Quintana                 Cruz                     F00000000          N
062011051351999003882006SJuan Francisco           Suárez                   Santana                  M00000000          N
062011051351999003882007SRaimundo                 Santana                  González                 M00000000          N
062011051351999003882008SEstanislao               Alonso                   Suárez                   M00000000          N
062011051351999003882009SIsabel                   Santana                  Jiménez                  F00000000          N
062011051352999000664001SGinés                    De Quintana              Cabrera                  M00000000          S
062011051352999000664010SDolores Pino             Noda                     Álvarez                  F00000000          N
062011051352999000664011SPedro                    Lorenzo                  González                 M00000000          N
062011051352999000664012SMarisol                  Caraballo                Armas                    F00000000          N
062011051352999000664013SJuan Antonio             García                   Boyero                   M00000000          N
062011051352999000664014SMaría Luisa              Camejo                   Casanova                 F00000000          N
062011051352999000664015SJuan Carlos              Hernández                Acosta                   M00000000          N
062011051352999000664016SDulce Nombre             Villalba                 Pérez                    F00000000          N
062011051352999000664017SEduardo Gregorio         Morales                  Francés                  M00000000          N
062011051352999000664018SAna Luisa                García                   Cabrera                  F00000000          N
062011051352999000664019SPedro Antonio            Villalba                 García                   M00000000          N
062011051352999000664002SMaría de la Paz          Cabrera                  Martín                   F00000000          N
062011051352999000664020SMónica Desiree           Rodríguez                Rodríguez                F00000000          N
062011051352999000664021STeresa de Jesús          Brito                    Fernández                F00000000          N
062011051352999000664022SDavid Salvador           Pérez                    Rodríguez                M00000000          N
062011051352999000664023SNoelia del Carmen        Cabrera                  Cabrera                  F00000000          N
062011051352999000664003SManuel                   Plasencia                Rodríguez                M00000000          N
062011051352999000664004SMartín Javier            Delgado                  González                 M00000000          N
062011051352999000664005SMaría Isabel             Vargas                   Sánchez                  F00000000          N
062011051352999000664006SEmilia María             Morales                  Martín                   F00000000          N
062011051352999000664007SJosé Francisco           Curbelo                  Guadalupe                M00000000          N
062011051352999000664008SVicenta Guadalupe        Toledo                   Hernández                F00000000          N
062011051352999000664009SJuan                     Rojas                    García                   M00000000          N
062011051352999001256001SPedro Manuel             San Ginés                Gutiérrez                M00000000          S
062011051352999001256010SJosefa Soraya            Brito                    Navarro                  F00000000          N
062011051352999001256011SEsther                   Machín                   Henríquez                F00000000          N
062011051352999001256012SMateo                    Ramón                    De La Cruz               M00000000          N
062011051352999001256013SAntonio Félix            Fernández                Quintero                 M00000000          N
062011051352999001256014SDomingo Manuel           Cejas                    Curbelo                  M00000000          N
062011051352999001256015SSoledad                  Caraballo                Pérez                    F00000000          N
062011051352999001256016SAntonio                  Pérez                    López                    M00000000          N
062011051352999001256017SSergio                   Tejera                   De León                  M00000000          N
062011051352999001256018SJuan Manuel              González                 Guerra                   M00000000          N
062011051352999001256019SManuela María del Carmen Delgado                  Déniz                    F00000000          N
062011051352999001256002SMarciano                 Acuña                    Betancor                 M00000000          S
062011051352999001256020SMaría de los Reyes       Tarajano                 Tabares                  F00000000          N
062011051352999001256021SMaría Inmaculada         Machín                   Betancor                 F00000000          N
062011051352999001256022SElisia María             Pérez                    Domínguez                F00000000          N
062011051352999001256023SAiram                    Fernández                Pérez                    M00000000          N
062011051352999001256003SCarmen Dolores           Steinert                 Cruz                     F00000000          S
062011051352999001256004SLuis Celestino           Arraez                   Guadalupe                M00000000          S
062011051352999001256005SMigdalia                 Machín                   Tavío                    F00000000          S
062011051352999001256006SFrancisco José           Fabelo                   Marrero                  M00000000          S
062011051352999001256007SSergio                   Machín                   De León                  M00000000          S
062011051352999001256008SMónica Jesús             Álvarez                  Martín                   F00000000          S
062011051352999001256009SJuan Antonio             De La Hoz                González                 M00000000          S
062011051352999001798001SJosé Julio               Fernández                Arocha                   M00000000          N
062011051352999001798010SFrancisco José           Rodríguez                Alonso                   M00000000          N
062011051352999001798011SYolanda                  García                   Vilas                    F00000000          N
062011051352999001798012SJuan Fernando            Hernández                Perera                   M00000000          N
062011051352999001798013SErnesto                  Betancort                Rodríguez                M00000000          N
062011051352999001798014SCarlos Javier            Rodríguez                Medina                   M00000000          N
062011051352999001798015SCarmen Dolores           Correa                   Rodríguez                F00000000          N
062011051352999001798016SJosé Miguel              Colmenero                Fernández                M00000000          N
062011051352999001798017SJesús Ricardo            Tavio                    Cabrera                  M00000000          N
062011051352999001798018SJennifer                 Toledo                   Herrera                  F00000000          N
062011051352999001798019SSaray                    Curbelo                  Herrera                  F00000000          N
062011051352999001798002SIñigo                    Inchausti                Sangroniz                M00000000          N
062011051352999001798020SIsidro Alfonso           Bermúdez                 Cabrera                  M00000000          N
062011051352999001798021STara                     Armas                    Rodríguez                F00000000          N
062011051352999001798022SMaría Celeste            Pérez                    Lorenzo                  F00000000          N
062011051352999001798023SMarcial                  Medina                   Medina                   M00000000          N
062011051352999001798003SMartha Asceneth          Jaramillo                Gallego                  F00000000          N
062011051352999001798004SLaura                    Hernández                Concepción               F00000000          N
062011051352999001798005SJosé Manuel              Batista                  Aparicio                 M00000000          N
062011051352999001798006SHarold Alberto           Silva                    Pérez                    M00000000          N
062011051352999001798007SDavinia                  Curbelo                  Herrera                  F00000000          N
062011051352999001798008SLourdes                  Pérez                    Lorenzo                  F00000000          N
062011051352999001798009SManuel Francisco         García                   Gómez                    M00000000          N
062011051352999002460001SIsabel Fernanda          Marcos                   Maillo                   F00000000          N
062011051352999002460010SIsmael Ángel             Pérez                    Nuñez                    M00000000          N
062011051352999002460011SMaría Dolores            Hernández                Hernández                F00000000          N
062011051352999002460012SMaría Pino               Cruz                     Morales                  F00000000          N
062011051352999002460013SMohamed                  Ballali                  El Yadassiya             M00000000          N
062011051352999002460014SAndrés                   González                 Fernández                M00000000          N
062011051352999002460015STanausú                  Rivero                   Torres                   M00000000          N
062011051352999002460016SMarina                   Fernández                Juan                     F00000000          N
062011051352999002460017SEva                      Gallo                    Calvo                    F00000000          N
062011051352999002460018SNéstor David             Martín                   Calero                   M00000000          N
062011051352999002460019SGáspar                   González                 Machín                   M00000000          N
062011051352999002460002SAndrés Ginés             González                 Fuentes                  M00000000          N
062011051352999002460020SDavid                    Larrotcha                Carretero                M00000000          N
062011051352999002460021SCintia Raquel            Martín                   Calero                   F00000000          N
062011051352999002460022SVanessa                  Regueira                 Otero                    F00000000          N
062011051352999002460023SZonzama                  Perdomo                  Cuadrado                 M00000000          N
062011051352999002460003SJosé Manuel              Vázquez                  Rodríguez                M00000000          N
062011051352999002460004SPedro Antonio            Sáez                     Triviño                  M00000000          N
062011051352999002460005SMaria Janet              Pérez                    Nuñez                    F00000000          N
062011051352999002460006SJosé                     Domínguez                Guerra                   M00000000          N
062011051352999002460007SLaura                    Rodríguez                Cruz                     F00000000          N
062011051352999002460008SMaría Yesica             Rodríguez                Nuñez                    F00000000          N
062011051352999002460009SMaría Felisa             Brito                    Machín                   F00000000          N
062011051352999002736001SCesar Javier             Martín                   Darias                   M00000000          N
062011051352999002736010SJose Manuel              Rojas                    Bolaños                  M00000000          N
062011051352999002736011SMagdalena                Delgado                  Ramón                    F00000000          N
062011051352999002736012SRosario                  Mejías                   Agüera                   F00000000          N
062011051352999002736013SAndrés Francisco         Rodríguez                Acosta                   M00000000          N
062011051352999002736014SCarlos                   Valiente                 Noda                     M00000000          N
062011051352999002736015SRicardo                  Castro                   Betancor                 M00000000          N
062011051352999002736016SMilagro                  Palmero                  Castillo                 F00000000          N
062011051352999002736017SMaría del Mar            Rodríguez                González                 F00000000          N
062011051352999002736018SFrancisco                García                   Sotomayor                M00000000          N
062011051352999002736019SOrlando                  Racedo                   Gómez                    M00000000          N
062011051352999002736002SAmos                     Machín                   Exposito                 M00000000          N
062011051352999002736020SCarmelo                  García                   García                   M00000000          N
062011051352999002736021SEva del Pino             Valiente                 Noda                     F00000000          N
062011051352999002736022SMaría del Huerto         Hernández                González                 F00000000          N
062011051352999002736023SJose Daniel              Santana                  Bonilla                  M00000000          N
062011051352999002736003SNuria Esther             Cedrés                   Perdomo                  F00000000          N
062011051352999002736004SMaría de las Nieves      Martín                   Parrilla                 F00000000          N
062011051352999002736005SManuel                   Gutiérrez                Ramos                    M00000000          N
062011051352999002736006SDomingo                  Curbelo                  Fernández                M00000000          N
062011051352999002736007SRosa María               Gallén                   Rodríguez                F00000000          N
062011051352999002736008SMaría Carmen             Cedrés                   Perdomo                  F00000000          N
062011051352999002736009SMamerto                  Pérez                    López                    M00000000          N
062011051352999002912001SFabián Ataman            Martín                   Martín                   M00000000          S
062011051352999002912010SCarlos Alberto           Alferez                  Orjuela                  M00000000          N
062011051352999002912011SDulce Nombre             Díaz                     Hernández                F00000000          N
062011051352999002912012SJosé                     Caraballo                Martín                   M00000000          N
062011051352999002912013SJuan                     Pérez                    Hernández                M00000000          N
062011051352999002912014SMaría del Pilar          Luzardo                  Niz                      F00000000          N
062011051352999002912015SEmilio                   González                 Martín                   M00000000          N
062011051352999002912016SIsabel María             Martín                   Pena                     F00000000          N
062011051352999002912017SIsmael                   Lasso                    Santana                  M00000000          N
062011051352999002912018SGregorio                 Gutiérrez                Pérez                    M00000000          N
062011051352999002912019SMaría del Pilar          Ascensión                Ramón                    F00000000          N
062011051352999002912002SRamón                    Bermúdez                 Benasco                  M00000000          S
062011051352999002912020SVictor Manuel            Hernández                Franquiz                 M00000000          N
062011051352999002912021SMaría Isabel             Mesa                     Mesa                     F00000000          N
062011051352999002912022SManuel                   Guillén                  Guerra                   M00000000          N
062011051352999002912023SJoana                    Machín                   Morín                    F00000000          N
062011051352999002912003SMaría José               Docal                    Serrano                  F00000000          S
062011051352999002912004SEvaristo                 García                   Pérez                    M00000000          N
062011051352999002912005SMaría Nereida            Pérez                    González                 F00000000          N
062011051352999002912006SMaría Inmaculada         Rodríguez                Fernández                F00000000          N
062011051352999002912007SFeliciano Ramón          Díaz                     Hernández                M00000000          N
062011051352999002912008SYeray                    Rodríguez                Perdomo                  M00000000          N
062011051352999002912009SCarmen Dolores           Perdomo                  Curbelo                  F00000000          N
062011051352999003055001SJuan Carlos              Becerra                  Robayna                  M00000000          N
062011051352999003055010SAmbrosio                 Delgado                  Santacruz                M00000000          N
062011051352999003055011SJose Antonio             Rodríguez                Martín                   M00000000          N
062011051352999003055012SFernando Alexis          Melián                   Rodríguez                M00000000          N
062011051352999003055013SNicanor Androni          Rodríguez                Martín                   M00000000          N
062011051352999003055014SOlimpia                  Martín                   Elvira                   F00000000          N
062011051352999003055015SMaría Isabel             Martinón                 López                    F00000000          N
062011051352999003055016SPino María               Santana                  Rodríguez                F00000000          N
062011051352999003055017SSebastián Manuel         García                   Berriel                  M00000000          N
062011051352999003055018SJaime Damián             Peña                     Martín                   M00000000          N
062011051352999003055019SMaite                    Avero                    González                 F00000000          N
062011051352999003055002SFrancisco Guzmán         Rodríguez                Reyes                    M00000000          N
062011051352999003055020SFrancisco Javier         Morín                    González                 M00000000          N
062011051352999003055021SGuillermo                Duarte                   Guerra                   M00000000          N
062011051352999003055022SMyriam                   Ramírez                  Curbelo                  F00000000          N
062011051352999003055023SAlba Isabel              Calero                   Calderón                 F00000000          N
062011051352999003055003SSara Esther              Brito                    Ortega                   F00000000          N
062011051352999003055004SEvangelina               Rodríguez                Mateo                    F00000000          N
062011051352999003055005SClaudio                  Doreste                  Torrent                  M00000000          N
062011051352999003055006SVeronica                 Romero de Ávila          Martí                    F00000000          N
062011051352999003055007SMayrelis                 Llama                    Paz                      F00000000          N
062011051352999003055008SPedro Manuel             De Armas                 Sanginés                 M00000000          N
062011051352999003055009SLuis Alonso              Martínez                 Manchado                 M00000000          N
062011051352999003077001SAstrid María             Pérez                    Batista                  F00000000          S
062011051352999003077010SJosé Manuel              García                   Rengel                   M00000000          N
062011051352999003077011SJosé Manuel              Melián                   López                    M00000000          N
062011051352999003077012SMaría José               Costa                    Antúnez                  F00000000          N
062011051352999003077013SCarlos                   Méndez                   Altozano                 M00000000          N
062011051352999003077014SCarla                    Reguera                  Berenguer                F00000000          N
062011051352999003077015SEugenio                  Lorenzo                  Rodriguez                M00000000          N
062011051352999003077016SRita Yaiza               Morán                    Vizcaíno                 F00000000          N
062011051352999003077017SAntonio                  Betancor                 Ramos                    M00000000          N
062011051352999003077018SOscar Manuel             Luzardo                  Fuentes                  M00000000          N
062011051352999003077019SInmaculada Asunción      Diaz                     Pestana                  F00000000          N
062011051352999003077002SFrancisco Domingo        Cabrera                  García                   M00000000          S
062011051352999003077020SDavid                    Mayor                    Goma                     M00000000          N
062011051352999003077021SLorenzo Manuel           Reyes                    Rodríguez                M00000000          N
062011051352999003077022SCarmen                   Martín                   Rocío                    F00000000          N
062011051352999003077023SFernando Manuel          Pérez                    González                 M00000000          N
062011051352999003077003SÁngel                    Vázquez                  Álvarez                  M00000000          S
062011051352999003077004SMaría Concepción         Pérez                    González                 F00000000          S
062011051352999003077005SCarmen Rosa              Pérez                    Pérez                    F00000000          S
062011051352999003077006SEmilio                   Bermúdez                 Hernández                M00000000          S
062011051352999003077007SMaría del Cristo         Acosta                   De Armas                 F00000000          N
062011051352999003077008SAlicia María             Mesa                     Hernández                F00000000          N
062011051352999003077009SJuan José                Rivera                   Ortega                   M00000000          N
062011051352999003186001SManuela                  Armas                    Rodríguez                F00000000          S
062011051352999003186010SJuana Concepción         Santacruz                Socas                    F00000000          N
062011051352999003186011SJosé Francisco           Pérez                    Betancor                 M00000000          N
062011051352999003186012SFrancisca Prudencia      Afonso                   Suárez                   F00000000          N
062011051352999003186013SHamud                    Iselmu                   Musa                     M00000000          N
062011051352999003186014SAlma María               González                 Mauri                    F00000000          N
062011051352999003186015SAna Isabel               Hernández                Guillén                  F00000000          N
062011051352999003186016SJuan Carlos              Martín                   Miranda                  M00000000          N
062011051352999003186017SMaría José               Morales                  Cabrera                  F00000000          N
062011051352999003186018SCarmen                   Camacho                  De León                  F00000000          N
062011051352999003186019SJuan José                Torres                   Rodríguez                M00000000          N
062011051352999003186002SJoaquín                  Caraballo                Santana                  M00000000          S
062011051352999003186020SGabriela Rosario         Jiménez                  Cabrera                  F00000000          N
062011051352999003186021SCarlos Sebastián         Martín                   Hormiga                  M00000000          N
062011051352999003186022SJuana Sofia              Lemes                    Delgado                  F00000000          N
062011051352999003186023SEnrique Manuel           Martín                   García                   M00000000          N
062011051352999003186003SJosé Luis                Aparicio                 Sánchez                  M00000000          S
062011051352999003186004SEmma Esther              Cabrera                  Toribio                  F00000000          S
062011051352999003186005SJosé Antonio             Gutiérrez                Gutiérrez                M00000000          N
062011051352999003186006SMaría del Rocío          Arredondo                Carmona                  F00000000          N
062011051352999003186007SAlexis                   Tejera                   Lemes                    M00000000          N
062011051352999003186008SOctavio                  García                   Umpiérrez                M00000000          N
062011051352999003186009SPedro Jesús              Suárez                   García                   M00000000          N
062011051352999003784001SIgnacio                  Prat                     Fontana                  M00000000          N
062011051352999003784010SRaquel                   Palomino                 Fiestas                  F00000000          N
062011051352999003784011SMaría del Carmen         Pellón                   Rodríguez                F00000000          N
062011051352999003784012SJuan Carlos              Gil                      Medina                   M00000000          N
062011051352999003784013SRaquel                   Alonso                   De La Concepción         F00000000          N
062011051352999003784014SEnrique Francisco        Bermúdez                 Mesa                     M00000000          N
062011051352999003784015SMaría Desiré             Ramos                    Santana                  F00000000          N
062011051352999003784016SCarmen Rosa              Ramírez                  Ferrer                   F00000000          N
062011051352999003784017SLidia María              Cabrera                  Saavedra                 F00000000          N
062011051352999003784018SCristobal                Blanco                   Castromán                M00000000          N
062011051352999003784019SManuel Ricardo           Curbelo                  Curbelo                  M00000000          N
062011051352999003784002SIgnacio                  Sáenz de Santamaria      Elizalde                 M00000000          N
062011051352999003784020SJuan Fernando            Prats                    Poch                     M00000000          N
062011051352999003784021SCristofer                Cabrera                  Umpiérrez                M00000000          N
062011051352999003784022SSandra Patricia          Moreno                   Vélez                    F00000000          N
062011051352999003784023SMaría Josefa             Umpiérrez                Tejera                   F00000000          N
062011051352999003784003SJenaro Javier            Díaz                     Romero                   M00000000          N
062011051352999003784004SRaquel                   Ramayo                   Maroño                   F00000000          N
062011051352999003784005SCristina                 Borges                   Saavedra                 F00000000          N
062011051352999003784006SMariano                  Andrés                   Gallego                  M00000000          N
062011051352999003784007SPaula                    Caballero                Ponce                    F00000000          N
062011051352999003784008SVictor Manuel            Duque                    Medrano                  M00000000          N
062011051352999003784009SNoel                     Fiallo                   Hernández                M00000000          N
062011051353999000839001SAntonio Sergio           Lloret                   López                    M00000000          S
062011051353999000839010SMaría del Pilar          Hernández                Ruiz                     F00000000          N
062011051353999000839011SFrancisco Javier         Cabrera                  Cabrera                  M00000000          N
062011051353999000839012SMatías Jesús             López                    Ávila                    M00000000          N
062011051353999000839013SIvana                    González                 Déniz                    F00000000          N
062011051353999000839014SGuacimara                Peña                     Cabrera                  F00000000          N
062011051353999000839015SJosé Francisco           Jorge                    Naranjo                  M00000000          N
062011051353999000839016SAna Rosa                 Ramírez                  Chinea                   F00000000          N
062011051353999000839017SAgricio                  Castejón                 Cabral                   M00000000          N
062011051353999000839018SJuana del Pino           Gil                      Rodríguez                F00000000          N
062011051353999000839019SÁngel Miguel             Curbelo                  Cabrera                  M00000000          N
062011051353999000839002SManuel Bernabé           Travieso                 Darias                   M00000000          S
062011051353999000839020SSara María               Vera                     Sosa                     F00000000          N
062011051353999000839021SEva María                Cabrera                  Armas                    F00000000          N
062011051353999000839022SMaría Valentina          Fránquis                 Morales                  F00000000          N
062011051353999000839023SAlfonso José             Díaz                     Hernández                M00000000          N
062011051353999000839003SJavier                   Mesa                     Medina                   M00000000          N
062011051353999000839004SNatividad Emilia         Cano                     Pérez                    F00000000          N
062011051353999000839005SSandra                   Domínguez                Hormiga                  F00000000          N
062011051353999000839006SDavid Aday               Rodríguez                Francés                  M00000000          N
062011051353999000839007SOscar Alejandro          Curbelo                  Santana                  M00000000          N
062011051353999000839008SMaría Noelia             Jorge                    Ramírez                  F00000000          N
062011051353999000839009STomás Jesús              Torres                   Soto                     M00000000          N
062011051353999001256001SMario                    Cabrera                  González                 M00000000          S
062011051353999001256010SIdaira                   Saavedra                 Brito                    F00000000          N
062011051353999001256011SEsther Gloria            Umpiérrez                Alonso                   F00000000          N
062011051353999001256012SJuan Salvador            Cerdeña                  Martín                   M00000000          N
062011051353999001256013SLuciano                  Barrios                  Umpiérrez                M00000000          N
062011051353999001256014SJosé Mario               Jordán                   Pérez                    M00000000          N
062011051353999001256015SMaría Selena             Cabrera                  Calero                   F00000000          N
062011051353999001256016STanausú                  Cabrera                  Rodríguez                M00000000          N
062011051353999001256017SMaría Nereida            Curbelo                  González                 F00000000          N
062011051353999001256018SDavid                    Ramos                    Martínez                 M00000000          N
062011051353999001256019SLorenzo                  Brito                    Hernández                M00000000          N
062011051353999001256002SNatalia del Carmen       Evora                    Soto                     F00000000          S
062011051353999001256020SMaría Antonia            Morales                  Gutiérrez                F00000000          N
062011051353999001256021SMaría Dolores            Alonso                   Ávila                    F00000000          N
062011051353999001256022SRamón Matías             Domínguez                Sarabia                  M00000000          N
062011051353999001256023SLázaro                   Cabrera                  Rodríguez                M00000000          N
062011051353999001256003SGenara Cecilia           Ruiz                     Urquía                   F00000000          S
062011051353999001256004SManuel                   Miranda                  Medina                   M00000000          S
062011051353999001256005SPedro                    Martínez                 Cabrera                  M00000000          S
062011051353999001256006SEdilia Rosa              Pérez                    Guerra                   F00000000          S
062011051353999001256007SVíctor Modesto           Alonso                   Falcón                   M00000000          S
062011051353999001256008SCandelaria               Umpiérrez                Ramos                    F00000000          S
062011051353999001256009SAntonio                  Mesa                     Hernández                M00000000          S
062011051353999002460001SMelchor                  Ordoñez                  Sevilla                  M00000000          N
062011051353999002460010SAlejandro                García                   García                   M00000000          N
062011051353999002460011SJavier                   Omaña                    Casanova                 M00000000          N
062011051353999002460012SIzaskum                  Aldama                   López                    F00000000          N
062011051353999002460013SJosé Víctor              Ímaz                     Aguirre                  M00000000          N
062011051353999002460014SAlejandra                Sáez                     Gómez                    F00000000          N
062011051353999002460015SInmanol                  Aldama                   López                    M00000000          N
062011051353999002460016SAitor                    Arruti                   Torres                   M00000000          N
062011051353999002460017SSotera Vidalina          Marrero                  Tejera                   F00000000          N
062011051353999002460018SJosé Manuel              Ordoñez                  Graña                    M00000000          N
062011051353999002460019SOlga                     Artiles                  Mujica                   F00000000          N
062011051353999002460002SNatividad Sonia          Gómez                    Andreu                   F00000000          N
062011051353999002460020SJosé Julián              Vinasco                  Henao                    M00000000          N
062011051353999002460021SOlga María               Pérez                    Artiles                  F00000000          N
062011051353999002460022SPilar                    Dacuña                   Bermejo                  F00000000          N
062011051353999002460023SLuis                     Gutiérrez                Sanjuán                  M00000000          N
062011051353999002460003SEduardo                  Santiago                 Humara                   M00000000          N
062011051353999002460004SEva María                Carmona                  Chico                    F00000000          N
062011051353999002460005SJorge Antonio            Pascual                  Martínez                 M00000000          N
062011051353999002460006SSergio                   Fernández Pello          Fernández                M00000000          N
062011051353999002460007SMaría del Carmen         López                    Porras                   F00000000          N
062011051353999002460008SJesús Iván               Martín                   García                   M00000000          N
062011051353999002460009SFrancisca Isabel         González                 Gallego                  F00000000          N
062011051353999002665001SDavid                    Marcuño                  Placeres                 M00000000          N
062011051353999002665010SFabricio Fassano AugustosDías                     Bar                      M00000000          N
062011051353999002665011SIsaac Damián             Díaz                     Melián                   M00000000          N
062011051353999002665012SCandelaria               Rodríguez                García                   F00000000          N
062011051353999002665013SAntonio Melchor          Madrid                   Servera                  M00000000          N
062011051353999002665014SGenoveva Rosario         Martín                   Nöbauer                  F00000000          N
062011051353999002665015SJosé Manuel              Rodríguez                Medina                   M00000000          N
062011051353999002665016SHeliodoro                Santana                  Vega                     M00000000          N
062011051353999002665017SSoledad                  Santana                  Díaz                     F00000000          N
062011051353999002665018SJosé Hilario             Martín                   Cárdenes                 M00000000          N
062011051353999002665019SCarmen Delia             Déniz                    Ramos                    F00000000          N
062011051353999002665002SYudith Esther            Villanueva               Marcuño                  F00000000          N
062011051353999002665020SPablo                    Mendoza                  Martín                   M00000000          N
062011051353999002665021SAntonio José             Rodríguez                Santana                  M00000000          N
062011051353999002665022SGloria María             Muñóz                    Martínez                 F00000000          N
062011051353999002665023SLorena                   Guerrero                 Díaz                     F00000000          N
062011051353999002665003SArtemy                   Pérez                    Nikunen                  M00000000          N
062011051353999002665004SBegoña Rosario           Castellano               Díaz                     F00000000          N
062011051353999002665005SJuan Manuel              Ruíz                     Avero                    M00000000          N
062011051353999002665006SAlfonso José             Suárez                   Fernández                M00000000          N
062011051353999002665007SMaría Desiree            Alberto                  Alonso                   F00000000          N
062011051353999002665008SFrancisco José           Pascual                  Gil                      M00000000          N
062011051353999002665009SAura Cristina            Bedoya                   Pinzón                   F00000000          N
062011051353999002779001SCasto                    Berriel                  Martínez                 M00000000          N
062011051353999002779010SPedro                    Torres                   Cabrera                  M00000000          N
062011051353999002779011SNira de Nazaret          Melián                   Gonzálvez                F00000000          N
062011051353999002779012SHumberto Ascari          Martínez                 Corbacho                 M00000000          N
062011051353999002779013SSonia del Pino           Martín                   Alonso                   F00000000          N
062011051353999002779014SFrancisco Javier         Vinuesa                  Torregrosa               M00000000          N
062011051353999002779015SJosé Enrique             Fernández                Jurado                   M00000000          N
062011051353999002779016SJuan Ramón               Gotarredona              Viera                    M00000000          N
062011051353999002779017SMaría Fabiola            Barrera                  Díaz                     F00000000          N
062011051353999002779018SHeraclio Guillermo       Ventura                  Cardona                  M00000000          N
062011051353999002779019SMaría del Pino           Pérez                    López                    F00000000          N
