032011111049022000030001SPaloma                   Garcia                   Marin                    F00000000          N
032011111049014000032001SJulen                    Apoita                   Bilbao                   M00000000          N
032011111049015000032002SLeocadia Maria           Gil                      Milan                    F00000000          N
032011111049016000032003SSergio                   Alamo                    Hernandez                M00000000          N
032011111049018000039001SJuan Sebastian           Fernandez                Prados                   M00000000          N
032011111049019000039002SManuel                   Perez                    Sola                     M00000000          N
032011111049020000039003SCarmen                   Zamora                   Cintas                   F00000000          N
032011111049007000086001SJose                     Camacho                  Viudez                   M00000000          N
032011111049008000086002SFrancisca Rosario        Medran                   Cabrera                  F00000000          N
032011111049009000086003SJose Antonio             Barrera                  Espin                    M00000000          N
032011111049011000106001SCarmen Maria             Gonzalez                 Piedra                   F00000000          N
032011111049012000106002SCandido                  Trabalon                 Fernandez                M00000000          N
032011111049013000106003SDiego                    Casta?o                  Cano                     M00000000          N
032011111049001000127001SLuis Rogelio             Rodriguez Comendador     Perez                    M00000000          S
032011111049002000127002SMaria Del Mar            Aguero                   Ruano                    F00000000          S
032011111049003000127003SEugenio Jesus            Gonzalvez                Garcia                   M00000000          S
032011111049017000134001SCarlos Maria             Marin                    Ontiveros                M00000000          N
032011111049004000137001SJuan Carlos              Perez                    Navas                    M00000000          S
032011111049005000137002SMaria Petronila          Sanchez                  Garcia                   F00000000          N
032011111049006000137003SAna Belen                Zapata                   Barrera                  F00000000          N
032011111049021000161001SDamian                   Sanchez                  Nu?ez                    M00000000          N
032011111049010000168001SManuel                   Canton                   Gonzalez                 M00000000          N
032011111119019000039001SMateo Rafael             Quiros                   Hernandez                M00000000          N
032011111119023000040001SFernando David           Ruiz                     Ca?as                    M00000000          N
032011111119024000040002SRogelio Juan             Fernandez                Bouza                    M00000000          N
032011111119025000040003SGema                     Sainero                  Rodriguez                F00000000          N
032011111119017000063001SManuel                   Becerra                  Barba                    M00000000          N
032011111119018000063002SAfrica                   Sanchez                  Pliego                   F00000000          N
032011111119007000086001SAntonio Jesus            Roldan                   Mu?oz                    M00000000          N
032011111119008000086002SIfigenia                 Bueno                    Bordell                  F00000000          N
032011111119009000086003SSebastian                Terrada                  Galan                    M00000000          N
032011111119010000106001SSergio                   Carrera                  Mateo                    M00000000          N
032011111119011000106002SAntonia                  Viruel                   Orozco                   F00000000          N
032011111119012000106003SMarcos Antonio           Huertas                  Cadiz                    M00000000          N
032011111119014000107001SMaria Jose               Cabrera                  Lopez                    F00000000          N
032011111119015000107002SEduardo                  Ara?o                    Hidalgo                  M00000000          N
032011111119016000107003SAna Dolores              Paez                     Lechuga                  F00000000          N
032011111119021000110001SOrencio                  Cu?ado                   Crespo                   M00000000          N
032011111119022000110002SMarina                   Lopez                    Del Prado                F00000000          N
032011111119004000127001SMaria Jose               Garcia-Pelayo            Jurado                   F00000000          S
032011111119005000127002SSebastian                Ruiz                     Reyes                    M00000000          S
032011111119006000127003SJose Blas                Fernandez                Sanchez                  M00000000          S
032011111119001000136001SJuan Maria               Cornejo                  Lopez                    M00000000          S
032011111119002000136002SPaola                    Moreno                   Perez                    F00000000          N
032011111119003000136003SGonzalo                  Pando                    Molina                   M00000000          N
032011111119020000161001SAntonio                  Olmo                     Macias                   M00000000          N
032011111119013000168001SSilvestre                Huertas                  Alcazar                  M00000000          N
032011111149020000039001SDiego                    Rodriguez                Villegas                 M00000000          N
032011111149021000039002SMaria Luisa              Ramos                    Ojeda                    F00000000          N
032011111149022000039003SGerardo                  Pedros                   Perez                    M00000000          N
032011111149024000040001SRafaela                  Nu?ez                    Sanchez                  F00000000          N
032011111149025000040002SJavier Alberto           Gutierrez                Pe?a                     M00000000          N
032011111149026000040003SRafael                   Ascanio                  Garcia                   M00000000          N
032011111149018000055001SManuel                   Chacon                   Rodriguez                M00000000          N
032011111149019000055002SLourdes Soledad          Garcia                   Garcia                   F00000000          N
032011111149007000086001SFrancisco Javier         Cobos                    Rojas                    M00000000          N
032011111149008000086002SAna Isabel               Ramos                    Rodriguez                F00000000          N
032011111149009000086003SJuan                     Merino                   Ca?asveras               M00000000          N
032011111149010000106001SSebastian                de la Obra               Sierra                   M00000000          N
032011111149011000106002SDolores del Carmen       de Toro                  Garcia                   F00000000          N
032011111149012000106003SFrancisco Javier         Ariza                    Campos                   M00000000          N
032011111149023000110001SJose                     Reyes                    Navarro                  M00000000          N
032011111149004000127001SMaria Beatriz            Jurado                   Fernandez de Cordoba     F00000000          S
032011111149005000127002SJesus Ramon              Aguirre                  Mu?oz                    M00000000          S
032011111149006000127003SMaria                    Gil                      Morata                   F00000000          S
032011111149001000136001SMaria Isabel Antonia     Flores                   Fernandez                F00000000          S
032011111149002000136002SJose Luis                Bergillos                Lopez                    M00000000          N
032011111149003000136003SFrancisco                Pulido                   Mu?oz                    M00000000          N
032011111149014000150001SFrancisco Alfonso        Alcala                   Gimenez                  M00000000          N
032011111149015000158001SPilar                    Torres                   Moreno                   F00000000          N
032011111149016000158002SManuel                   Ceacero                  Contreras                M00000000          N
032011111149017000158003SNora                     Bayo                     Barroso                  F00000000          N
032011111149027000161001SAurelio                  Cercadillo               Quintero                 M00000000          N
032011111149028000161002SMaria                    Pulido                   Pedraza                  F00000000          N
032011111149013000168001SMariano                  Molina                   Robles                   M00000000          N
032011111189021000039001SMario                    Ortega                   Rodriguez                M00000000          N
032011111189022000039002SMaria Adelina            Sanchez                  Espinosa                 F00000000          N
032011111189023000039003SJuan                     Ruiz                     Romero                   M00000000          N
032011111189024000039004SCarmen                   Reina                    Lopez                    F00000000          N
032011111189027000040001SHanza                    Benattia                 Melgarejo                M00000000          N
032011111189028000040002SMaria del Carmen         Cordoba                  Ruiz                     F00000000          N
032011111189029000040003SJuan                     Garcia                   Arnal                    M00000000          N
032011111189007000086001SJoaquin                  Vega                     Padial                   M00000000          N
032011111189008000086002SJuan Ramon               Gil                      Van Gils                 M00000000          N
032011111189009000086003SRosa Maria               Felix                    Gutierrez-Pleguezuelos   F00000000          N
032011111189010000106001SJesus                    Abad                     Romero                   M00000000          N
032011111189011000106002SM? de las Nieves         Aguado                   Morales                  F00000000          N
032011111189012000106003SAntonio Fernando         Villafranca              Martinez                 M00000000          N
032011111189014000107001SAdoracion                Sabaniel                 Campa?a                  F00000000          N
032011111189015000107002SJose                     Almagro                  Santiago                 M00000000          N
032011111189016000107003SMaria del Carmen         Gutierrez                Cortacero                F00000000          N
032011111189025000110001SMiguel                   Lopez                    Martinez                 M00000000          N
032011111189004000127001SSebastian Jesus          Perez                    Ortiz                    M00000000          S
032011111189005000127002SAntonio                  Ayllon                   Moreno                   M00000000          S
032011111189006000127003SMaria Jose               Martin                   Gomez                    F00000000          S
032011111189030000134001SJulio                    Bracero                  Martinez                 M00000000          N
032011111189001000136001SJuan Manuel              Fernandez                Ortega                   M00000000          S
032011111189002000136002SMaria Sandra             Garcia                   Martin                   F00000000          N
032011111189003000136003SLuis Miguel              Salvador                 Garcia                   M00000000          N
032011111189017000150001SRaquel                   Fernandez                Gomez                    F00000000          N
032011111189018000158001SEsteban                  Fernandez                Navarro                  M00000000          N
032011111189019000158002SMaria Isabel             Rodriguez                Peralta                  F00000000          N
032011111189020000158003SPablo Luis               Tejada                   Romero                   M00000000          N
032011111189026000161001SOscar Antonio            Caballos                 Martin                   M00000000          N
032011111189013000168001SErnesto                  Ruiz                     Rivera                   M00000000          N
032011111219016000030001SJose Maria               Falcon                   Aragon                   M00000000          N
032011111219020000039001SMaria Angeles            Montenegro               Munell                   F00000000          N
032011111219021000039002SAlfonso                  Martin                   Rodriguez                M00000000          N
032011111219022000039003SMaria Sandra             Carrasquilla             Ortiz                    F00000000          N
032011111219017000040001SMiguel                   Ballesta                 Meichsner                M00000000          N
032011111219018000040002SMaria Victoria           Diaz                     Ruiz                     F00000000          N
032011111219019000040003SJuan Miguel              Mateos                   Ruiz                     M00000000          N
032011111219007000086001SAntonio                  Maillo                   Ca?adas                  M00000000          N
032011111219008000086002SSonia                    Ponce                    Rodriguez                F00000000          N
032011111219009000086003SDaniel                   Hernando                 Berger                   M00000000          N
032011111219010000106001SManuel                   Gonzalez                 Fernandez                M00000000          N
032011111219011000106002SIsabel                   Lopez                    Diaz                     F00000000          N
032011111219012000106003SFrancisco Javier         Cuaresma                 Delgado                  M00000000          N
032011111219015000107001SAntonio                  Toscano                  Pinzon                   M00000000          N
032011111219004000127001SMatias                   Conde                    Vazquez                  M00000000          S
032011111219005000127002SMaria Dolores            Vazquez                  Mu?oz                    F00000000          S
032011111219006000127003SFrancisco                Moro                     Borrero                  M00000000          S
032011111219001000136001SPetronila                Guerrero                 Rosado                   F00000000          S
032011111219002000136002SJuan Antonio             Millan                   Jaldon                   M00000000          N
032011111219003000136003SAntonio                  Mu?iz                    Carrasco                 M00000000          N
032011111219014000150001SMaria                    Soler                    Soneira                  F00000000          N
032011111219013000168001SEncarnacion              Lopez                    Garcia de Quiros         F00000000          N
032011111239018000039001SAntonio                  Gomez                    Sabariego                M00000000          N
032011111239007000086001SMaria Dolores            Gonzalez                 Montiel                  F00000000          N
032011111239008000086002SMarcelo                  Cuevas                   Sanchez                  M00000000          N
032011111239009000086003SRafael                   Palomares                Mellado                  M00000000          N
032011111239010000105001SMaria Victoria           Padilla                  Garzon                   F00000000          N
032011111239011000105002SMiguel                   Serrano                  Molina                   M00000000          N
032011111239012000105003SAntonio                  Melero                   Latorre                  M00000000          N
032011111239004000127001SJose Enrique             Fernandez de Moya        Romero                   M00000000          S
032011111239005000127002SMariana                  Lorite                   Garcia                   F00000000          S
032011111239006000127003SFrancisco                Delgado                  Vilchez                  M00000000          S
032011111239019000134001SJorge Fernando           Campos                   Martinez                 M00000000          N
032011111239001000136001SFelipe                   Lopez                    Garcia                   M00000000          S
032011111239002000136002SMaria Teresa             Vega                     Valdivia                 F00000000          N
032011111239003000136003SJose                     Pliego                   Cubero                   M00000000          N
032011111239013000158001STrinidad                 Cruz                     Ramos                    F00000000          N
032011111239014000158002SAraceli                  Gracia                   Mesa                     F00000000          N
032011111239015000158003SManuel                   Miras                    de Prats                 M00000000          N
032011111239017000161001STeresa                   Recena                   Gonzalez                 F00000000          N
032011111239016000168001SAlvaro                   Palma                    Mochon                   M00000000          N
032011111299022000001001SGuillermo                Alvarez                  Martin                   M00000000          N
032011111299023000001002SAntonio                  Gomez                    Caceres                  M00000000          N
032011111299024000001003SEstrella                 Amselem                  Moryusef                 F00000000          N
032011111299016000039001SLuis Felipe              Campos                   Saavedra                 M00000000          N
032011111299020000040001SManuel                   Portilla                 Fernandez                M00000000          N
032011111299021000040002SMaria Teresa             Ariza                    Fernandez                F00000000          N
032011111299007000086001SPedro                    Moreno                   Brenes                   M00000000          N
032011111299008000086002SAdela                    Jimenez                  Villarejo                F00000000          N
032011111299009000086003SAndres                   Cuevas                   Gonzalez                 M00000000          N
032011111299010000106001SFrancisca                Espejo                   Castro                   F00000000          N
032011111299011000106002SAlvaro                   Bazan                    Ortega                   M00000000          N
032011111299013000107001SRosa Maria               Ramos                    Lopez                    F00000000          N
032011111299014000107002SSalvador                 Flores                   Blanco                   M00000000          N
032011111299015000107003SMarta                    Aguiar                   Guerrero                 F00000000          N
032011111299017000110001SJuan Manuel              Fernandez                Martin                   M00000000          N
032011111299018000110002SMaria Concepcion         Del Prado                Alvarez                  F00000000          N
032011111299019000110003SAndres Alejo             Vazquez                  Podadera                 M00000000          N
032011111299004000127001SFrancisco Manuel         De la Torre              Prados                   M00000000          S
032011111299005000127002SJoaquin Luis             Ramirez                  Rodriguez                M00000000          S
032011111299006000127003SPatricia                 Navarro                  Perez                    F00000000          S
032011111299001000136001SPilar                    Serrano                  Boigas                   F00000000          S
032011111299002000136002SBeatriz                  Alvarez                  Urda                     F00000000          N
032011111299003000136003SLuciano                  Gonzalez                 Garcia                   M00000000          N
032011111299025000158001SMaria Rosario            Martinez                 Ramos                    F00000000          N
032011111299026000158002SIsabel Maria             Miras                    De Prats                 F00000000          N
032011111299027000158003SAntonio Jesus            Sanchez                  Reina                    M00000000          N
032011111299028000162001SMaria Isabel             Flores                   Garrido                  F00000000          N
032011111299012000168001SGonzalo Manuel           Sichar                   Moreno                   M00000000          N
032011111419029000039001SMargarita                Jimenez                  Mora                     F00000000          N
032011111419030000039002SJuan                     Maestre                  Alfonso                  M00000000          N
032011111419031000039003SMaria Teresa             Rojo                     Lopez                    F00000000          N
032011111419027000040001SConcepcion               Tello                    Martin                   F00000000          N
032011111419023000055001SJorge Luis Francisco     Gil                      Lorenzo                  M00000000          N
032011111419024000055002SVereda                   Romero                   Luque                    F00000000          N
032011111419025000055003SCristobal                Bravo                    Leon                     M00000000          N
032011111419007000086001SAntonio                  Martin                   Melero                   M00000000          N
032011111419008000086002SMaria Jesus              Reina                    Fernandez                F00000000          N
032011111419009000086003SFrancisco Jose           Serrano                  Ramirez                  M00000000          N
032011111419010000106001SJose Francisco           Zapico                   Berdugo                  M00000000          N
032011111419011000106002SDolores                  Pascual                  Gonzalez                 F00000000          N
032011111419012000106003SFrancisco Jose           Benitez                  de la Lama               M00000000          N
032011111419026000110001SAntonio                  Valiente                 Borrego                  M00000000          N
032011111419020000122001SJose Francisco           Duran                    Velasco                  M00000000          N
032011111419021000122002SVanesa                   Lizana                   Taboada                  F00000000          N
032011111419022000122003SYamal Ibrahim            Gasea                    Ruiz                     M00000000          N
032011111419004000127001SJose Luis                Sanz                     Ruiz                     M00000000          S
032011111419005000127002SIsabel                   Diaz                     Cuti?o                   F00000000          N
032011111419006000127003SAntonio Jose             Ramirez                  Sierra                   M00000000          N
032011111419001000136001SEnrique                  Abad                     Benedicto                M00000000          S
032011111419002000136002SBasilia                  Sanz                     Murillo                  F00000000          S
032011111419003000136003SAntonio                  Gutierrez                Limones                  M00000000          S
032011111419014000150001SMontserrat               Trapero                  Garcia                   F00000000          N
032011111419015000150002SJuan de Dios             Hermosin                 Ramos                    M00000000          N
032011111419016000150003SMaria Gloria             Acasuso                  Diaz                     F00000000          N
032011111419017000158001SPablo Jose               Matute                   Martin                   M00000000          N
032011111419018000158002SEva Maria                Moyano                   Campos                   F00000000          N
032011111419019000158003SMaria Victoria           Palacios                 Garcia                   F00000000          N
032011111419028000161001SDaniel                   Prieto                   Notario                  M00000000          N
032011111419013000168001SFrancisco                Doncel                   Campos                   M00000000          N
032011111229007000019001SVictor Manuel            Pardo                    Lancina                  M00000000          N
032011111229008000019002SFrancho Chabier          Nagore                   Lain                     M00000000          N
032011111229009000019003SCarolina Teresa          Escar                    Puertolas                F00000000          N
032011111229013000039001SSilvia Maria             Mellado                  Cruz                     F00000000          N
032011111229014000039002SJorge                    Luis                     Bail                     M00000000          N
032011111229015000039003SSheila                   Folch                    Pueyo                    F00000000          N
032011111229011000107001SMaria Isabel             Pueyo                    Pardo                    F00000000          N
032011111229017000110001SAntonio                  Moles                    Castan                   M00000000          N
032011111229004000129001SAntonio Ignacio          Romero                   Santolaria               M00000000          S
032011111229005000129002SMaria Jesus              Burro                    Ferrer                   F00000000          S
032011111229006000129003SAngel                    Pintado                  Barbanoj                 M00000000          S
032011111229001000136001SJose Maria               Becana                   Sanahuja                 M00000000          S
032011111229002000136002SMargarita                Periz                    Peralta                  F00000000          N
032011111229003000136003SFernando                 Sabes                    Turmo                    M00000000          N
032011111229012000150001SDavid                    Soler                    Soneira                  M00000000          N
032011111229016000161001SRaul                     Anadon                   Pedrola                  M00000000          N
032011111229010000168001SMaria Carmen             Esteban                  Vicente                  F00000000          N
032011111449007000019001SPaco                     Nacher                   Dobon                    M00000000          N
032011111449008000019002SAmor                     Pascual                  Carceller                F00000000          N
032011111449009000019003SVictor Manuel            Guiu                     Aguilar                  M00000000          N
032011111449014000040001SAlex                     Rodriguez                Ferrer                   M00000000          N
032011111449011000107001SMaria Belen Teresa       Bailo                    Nuez                     F00000000          N
032011111449001000129001SManuel                   Blasco                   Marques                  M00000000          S
032011111449002000129002SJose Maria               Fuster                   Muniesa                  M00000000          S
032011111449003000129003SCarmen                   Azuara                   Navarro                  F00000000          S
032011111449004000136001SAntonio  Ernesto         Arrufat                  Gascon                   M00000000          S
032011111449005000136002SEsmeralda                Iranzo                   Sanchez                  F00000000          N
032011111449006000136003SAngel                    Gracia                   Lucia                    M00000000          N
032011111449013000150001STeresa                   Paradinas                Zorrilla                 F00000000          N
032011111449015000157001SJesus                    Rodriguez                Argensola                M00000000          N
032011111449012000161001SCesar                    Fernandez                Arias                    M00000000          N
032011111449010000168001SJuan Pablo               Martinez                 Calve                    M00000000          N
032011111509007000018001SJose Manuel              Paz                      Pavon                    M00000000          N
032011111509008000018002SDaniela                  Llanas                   Lamuela                  F00000000          N
032011111509009000018003SRaul Cesar               Ariza                    Barra                    M00000000          N
032011111509023000032001SManuel                   Forcada                  Ayuda                    M00000000          N
032011111509024000032002SManuel                   Ruiz                     Rodriguez                M00000000          N
032011111509025000032003SMaria Teresa             Gonzalez                 Gonzalez                 F00000000          N
032011111509017000039001SEloy Fausto              Macutela                 Cuba                     M00000000          N
032011111509018000039002SMaria Pilar              Laguardia                Perez                    F00000000          N
032011111509019000039003SMiguel Angel             Lorenzo                  Lizalde                  M00000000          N
032011111509021000040001SAntonio Jose             Mateo                    Aguaron                  M00000000          N
032011111509022000040002SMarta                    Gomez                    Carod                    F00000000          N
032011111509011000107001SLuz Divina               Navarro                  Rubio                    F00000000          N
032011111509012000107002SJose Alberto             Sanchez                  Vitales                  M00000000          N
032011111509013000107003SMarta                    Marquina                 Claveria                 F00000000          N
032011111509026000110001SCarlos                   Martinez                 Agustin                  M00000000          N
032011111509020000114001SCarlos Hugo              Ca?adas                  Belenguer                M00000000          N
032011111509015000122001SMaria Araceli            Fernandez                Ramirez                  F00000000          N
032011111509004000129001SJose                     Atares                   Martinez                 M00000000          S
032011111509005000129002SRosario Isabel           Santos                   Fernandez                F00000000          S
032011111509006000129003SOctavio                  Lopez                    Rodriguez                M00000000          S
032011111509001000136001SJuan Alberto             Belloch                  Julbe                    M00000000          S
032011111509002000136002SVictor                   Ruiz                     de Diego                 M00000000          N
032011111509003000136003SMaria Pilar              Perez                    Lapuente                 F00000000          N
032011111509014000150001SEnrique                  Navarro                  Rodriguez                M00000000          N
032011111509016000161001SFuensanta                Frias                    Velez                    F00000000          N
032011111509010000168001SJose Javier              Perfecto                 Ejarque                  M00000000          N
032011111339011000004001SMaria Dolores            Suarez                   Vallina                  F00000000          N
032011111339012000004002SMario                    Arbesu                   Iglesias                 M00000000          N
032011111339013000004003SDulce Maria              Gil                      Fernandez                F00000000          N
032011111339028000039001SMaria Eugenia            Suarez                   Serrano                  F00000000          N
032011111339029000039002SRuben                    Corral                   Vega                     M00000000          N
032011111339030000039003SBeatriz                  Quiros                   Canto                    F00000000          N
032011111339032000040001SPablo                    Fernandez                Garcia                   M00000000          N
032011111339033000040002SManuel Angel             Carril                   Suarez                   M00000000          N
032011111339034000040003SRosa Maria               Mieres                   Velilla                  F00000000          N
032011111339025000060001SMiguel Angel             Conde                    Leon                     M00000000          N
032011111339026000060002SPatricia                 Diez                     Isla                     F00000000          N
032011111339027000060003SJose Luis                Magro                    Esteban                  M00000000          N
032011111339031000063001SPilar Jesus              Rocha                    Villar                   F00000000          N
032011111339007000074001SMaria Esther             Garcia                   Lopez                    F00000000          N
032011111339008000074002SConstantino              Garcia                   Perez                    M00000000          N
032011111339009000074003SCamilo                   Montes                   Diaz                     M00000000          N
032011111339017000107001SPio Esteban              Doce                     Artime                   M00000000          N
032011111339018000107002SCarmen                   Anes                     Lopez                    F00000000          N
032011111339019000107003SJose Ignacio             Jauregui                 Angulo                   M00000000          N
032011111339014000110001SAna Maria                Turrero                  Orrio                    F00000000          N
032011111339015000110002SRamon Gerardo            Lopez                    Garcia                   M00000000          N
032011111339016000110003SLaura                    Vazquez                  Martinez                 F00000000          N
032011111339024000122001SRodrigo                  Calvo                    Eguren                   M00000000          N
032011111339004000127001SIsidro                   Fernandez                Rozada                   M00000000          S
032011111339005000127002SLaura                    Sampedro                 Redondo                  F00000000          S
032011111339006000127003SMario                    Arias                    Navia                    M00000000          S
032011111339001000136001SVicente Alberto          Alvarez                  Areces                   M00000000          S
032011111339002000136002SMaria  Carmen            Sanjurjo                 Gonzalez                 F00000000          N
032011111339003000136003SHugo Alfonso             Moran                    Fernandez                M00000000          N
032011111339020000150001SJuan Ignacio             Mu?oa                    Abeytua                  M00000000          N
032011111339021000158001SBenjamin                 Gonzalez                 Miranda                  M00000000          N
032011111339022000158002SFelicidad                Miranda                  Martinez                 F00000000          N
032011111339023000158003SMaria Josefa             Vega                     Llano                    F00000000          N
032011111339035000161001SFernando Alberto         Pastor                   Gonzalez                 M00000000          N
032011111339010000168001SHumberto                 Rodriguez                Solla                    M00000000          N
032011111071016000016001SDavid                    Codina                   Ruiz                     M00000000          N
032011111071017000016002SMaria del Pilar          Yufera                   Moreno                   F00000000          N
032011111071014000042001SRaimon Jaume             Massanet                 Vila                     M00000000          N
032011111071015000042002SMargarita                Amengual                 Bosch                    F00000000          N
032011111071020000045001SAndreu                   Bujosa                   Bestard                  M00000000          N
032011111071021000045002SCarme                    Comas                    Portas                   F00000000          N
032011111071005000051001SConcepcion               Calafat                  Mari                     F00000000          N
032011111071006000051002SAlberto                  Aguilera                 Hermida                  M00000000          N
032011111071010000058001STomasa                   Calvo                    Sanchez                  F00000000          N
032011111071011000058002SGaspar                   Buades                   Rul-lan                  M00000000          N
032011111071008000107001SJuan Ignacio             Codina                   Segovia                  M00000000          N
032011111071009000107002SCatalina                 Palou                    Torres                   F00000000          N
032011111071001000127001SLlorenc                  Bosch                    Lliteras                 M00000000          S
032011111071002000127002SMargarita                Duran                    Vadell                   F00000000          S
032011111071003000136001SJose Antonio             Manchado                 LOZANO                   M00000000          S
032011111071004000136002SSarah                    Alonso                   Frau                     F00000000          N
032011111071012000150001SLuis                     Feliu                    Duran                    M00000000          N
032011111071013000150002SMaider                   Arranz                   Moreno                   F00000000          N
032011111071018000151001SJaume                    Catala                   Sanso                    M00000000          N
032011111071019000151002SFrancisca Maria Lourdes  Mas                      Busquets                 F00000000          N
032011111071007000168001SJorge Arturo             Mu?oz                    Gonzalez                 M00000000          N
032011111072006000039001SRafael                   Mu?oz                    Campos                   M00000000          N
032011111072001000051001SAntonio Jesus            Carrillos                Canto                    M00000000          N
032011111072007000063001SGuillermo                Alonso de Armi?o         Erce                     M00000000          N
032011111072004000127001SJuana Francisca          Pons                     Vila                     F00000000          S
032011111072002000136001SElena                    Baquero                  Gonzalez                 F00000000          N
032011111072003000146001SJoan Carles              Villalonga               Sintes                   M00000000          N
032011111072005000168001SPablo Sebastian          Sanchez                  Arnoletto                M00000000          N
032011111073003000045001SJosep Antoni             Prats                    Serra                    M00000000          N
032011111073001000051001SMiguel Alejandro         Vericad                  Marcuello                M00000000          N
032011111073004000127001SJose                     Sala                     Torres                   M00000000          S
032011111073002000136001SAlberto                  Mari                     Planells                 M00000000          N
032011111073005000168001SMariano                  Bonet                    Feo                      M00000000          N
032011111351021000015001SGerman                   Santana                  Perez                    M00000000          N
032011111351022000015002SIsabel                   Saavedra                 Domenech                 F00000000          N
032011111351005000024001SAureliano Francisco      Santiago                 Castellano               M00000000          N
032011111351006000024002SEusebia Maria            Nuez                     Garcia                   F00000000          N
032011111351017000039001SDavid                    Campos                   Recio                    M00000000          N
032011111351018000039002SMaria Jesus              Ferrandis                Cabanillas               F00000000          N
032011111351016000065001SJuana Maria              Santana                  Hernandez                F00000000          N
032011111351019000110001SJuan Rafael              Lorenzo                  Santana                  M00000000          N
032011111351020000110002SJesus Dolores            Betancor                 Ojeda                    F00000000          N
032011111351012000122001SLuis                     Bodoque                  Gomez                    M00000000          N
032011111351013000122002SMaria Lourdes            Benitez                  Lopez                    F00000000          N
032011111351003000127001SFrancisco de Borja       Benitez de Lugo          Massieu                  M00000000          S
032011111351004000127002SMaria del Carmen         Suarez                   Valeron                  F00000000          S
032011111351001000136001SArcadio                  Diaz                     Tejera                   M00000000          S
032011111351002000136002SSaturnina                Santana                  Dumpierrez               F00000000          N
032011111351010000150001SMiguel Angel             Sosa                     Hernandez                M00000000          N
032011111351011000150002SGara                     Rodriguez                Gutierrez                F00000000          N
032011111351014000158001SAngel Manuel             Rodriguez                Calderin                 M00000000          N
032011111351015000158002SErodica                  Medina                   Falcon                   F00000000          N
032011111351008000159001SAntonio Basilio          Ordo?ez                  Sanchez                  M00000000          N
032011111351009000159002SGloria Esther            Olivares                 Ara?a                    F00000000          N
032011111351007000168001SCiro                     Negrin                   Martinez                 M00000000          N
032011111352007000015001SJose Manuel              Vazquez                  Rodriguez                M00000000          N
032011111352002000024001SPedro Manuel             Sangines                 Gutierrez                M00000000          N
032011111352006000039001SGabriel Angel            Suarez                   Cabrera                  M00000000          N
032011111352003000127001SOscar Manuel             Luzardo                  Fuentes                  M00000000          S
032011111352001000136001SOrlando Enrique          Suarez                   Curbelo                  M00000000          N
032011111352004000150001SMartin                   Moreno                   Brito                    M00000000          N
032011111352005000168001SIgnacio                  Saenz de Santa Maria     Elizalde                 M00000000          N
032011111353006000015001SJose                     Trigo                    Casal                    M00000000          N
032011111353003000024001SMarcial                  Morales                  Martin                   M00000000          N
032011111353005000039001SLuis                     Mercader                 Diaz                     M00000000          N
032011111353007000110001SNicolas Angel            Mendoza                  Rios                     M00000000          N
032011111353002000136001SRosa                     Fernandez                Rodriguez                F00000000          N
032011111353001000153001SClaudio                  Gutierrez                Vera                     M00000000          S
032011111353004000168001SUrbano Jose              Dorta                    Gonzalez                 M00000000          N
032011111384011000024001SRicardo                  Melchior                 Navarro                  M00000000          N
032011111384012000024002SAna Isabel               Dorta                    Alonso                   F00000000          N
032011111384013000073001SJuan Gerardo             Borges                   Morales                  M00000000          N
032011111384014000073002SEsther                   Torrado                  Martin Palomino          F00000000          N
032011111384001000107001SMelchor Eloy             Francisco                Ravelo                   M00000000          N
032011111384007000110001SMaria Tatiana            Delgado                  Plasencia                F00000000          N
032011111384008000110002SFrancisco Jesus          Valverde                 Martinez                 M00000000          N
032011111384004000127001SAntonio                  Alarco                   Hernandez                M00000000          S
032011111384005000127002SLuz Marina               Socas                    Leon                     F00000000          S
032011111384002000136001SAurelio                  Abreu                    Exposito                 M00000000          S
032011111384003000136002SIsidora                  Gonzalez                 Brito                    F00000000          N
032011111384015000150001SIrene                    Bernal                   Rodriguez                F00000000          N
032011111384016000150002SDaniel Jose              Barrios                  Gracia                   M00000000          N
032011111384009000154001SOdalys                   Padron                   Padron                   F00000000          N
032011111384010000154002SFernando Rafael          Rodriguez                Franco                   M00000000          N
032011111384006000168001SAntonio Juan             De la Guardia            Hernandez                M00000000          N
032011111385005000024001SJuan Ramon               Rodriguez                Marin                    M00000000          N
032011111385006000039001SFrancisco Jose           Rodriguez                Pulido                   M00000000          N
032011111385007000073001SArnaldo Miguel           Martin                   Rodriguez                M00000000          N
032011111385003000127001SMaria Rosa               De Haro                  Brito                    F00000000          S
032011111385001000136001SMaria Mercedes           Coello                   Fernandez Trujillo       F00000000          N
032011111385002000159001SDailos                   Gonzalez                 Diaz                     M00000000          N
032011111385004000168001SDomingo Alexis           Rodriguez                Montelongo               M00000000          N
032011111386004000024001SAlicia Esther            Mendez                   Cabrera                  F00000000          N
032011111386005000039001SMaria Inmaculada         Medina                   Negrin                   F00000000          N
032011111386006000073001SEladio Agustin           Mendez                   Arozena                  M00000000          N
032011111386002000127001SAntonio Javier           Trujillo                 Bernal                   M00000000          N
032011111386001000136001SGregorio Ramon           Medina                   Tome                     M00000000          S
032011111386003000168001SJuan Jose                Bola?os                  Martinez                 M00000000          N
032011111387005000023001SAlejandro Narvay         Quintero                 Casta?eda                M00000000          S
032011111387006000069001SAbel                     Fernandez                Acosta                   M00000000          N
032011111387004000110001SAitor                    Gonzalez                 Padilla                  M00000000          N
032011111387002000127001SAngel Luis               Lima                     Moeck                    M00000000          N
032011111387001000136001SJuan Luis                Gonzalez                 Padron                   M00000000          N
032011111387003000168001SJose Antonio             De Vera                  Alventosa                M00000000          N
032011111399024000008001SGustavo                  Herrero                  Pechero                  M00000000          N
032011111399025000008002SMaria Luisa              Coterillo                Galarraga                F00000000          N
032011111399026000008003SPere Antoni              Mir                      Tarrason                 M00000000          N
032011111399030000039001SMaria Dolores            Poliz                    Lopez                    F00000000          N
032011111399018000076001SJorge                    Crespo                   Del Rio                  M00000000          N
032011111399019000076002SSusana                   Sangrones                Mateo                    F00000000          N
032011111399020000076003SFelipe                   Ruiz                     Varona                   M00000000          N
032011111399008000107001SMaria Carmen             De Pablos                Vicente                  F00000000          N
032011111399009000110001SJose Luis                Gomez                    Gonzalez                 M00000000          N
032011111399010000110002SZayra                    Martinez                 Moron                    F00000000          N
032011111399011000110003SIgnacio                  Aro                      Laso                     M00000000          N
032011111399021000122001SJesus Fernando           Rodriguez                Roiz                     M00000000          N
032011111399022000122002SBlanca                   De la Torre              Gorgojo                  F00000000          N
032011111399023000122003SJuan                     De la Torre              Auladell                 M00000000          N
032011111399001000127001SGonzalo Javier           Pi?eiro                  Garcia-Lago              M00000000          S
032011111399002000127002SEncarnacion              Salmon                   Saiz                     F00000000          S
032011111399003000127003SJose Luis                Vallines                 Diaz                     M00000000          S
032011111399015000132001SFrancisco Javier         Lopez                    Marcano                  M00000000          N
032011111399016000132002SJose Maria               Fuentes-Pila             Estrada                  M00000000          N
032011111399017000132003SJuncal                   Herreros                 Izquierdo                F00000000          N
032011111399004000136001SMiguel Angel             Gonzalez                 Vega                     M00000000          S
032011111399005000136002SMaria del Mar            Gonzalez                 Garcia                   F00000000          N
032011111399006000136003SMarta                    De Domingo               Gracia                   F00000000          N
032011111399028000152001SOscar Agustin            De la Fuente             Rueda                    M00000000          N
032011111399029000152002SMaria Elena              Paz                      Martin                   F00000000          N
032011111399012000158001SAna Maria                Gomez                    De la Fuente             F00000000          N
032011111399013000158002SFernando Joaquin         Cuesta                   Garcia                   M00000000          N
032011111399014000158003SAngela                   Elosegui                 Alvarez                  F00000000          N
032011111399027000161001SJoaquin Jacinto          Plaza                    Mora                     M00000000          N
032011111399007000168001SRoman                    San Emeterio             Pedraja                  M00000000          N
032011111029016000040001SJose                     Calero                   Alcocel                  M00000000          N
032011111029017000040002SMaria Llanos             Montoya                  Gomez                    F00000000          N
032011111029018000040003SAlberto Carlos           Yague                    Frias                    M00000000          N
032011111029019000059001SFrancisco Manuel         Sanchez                  Arroyo                   M00000000          N
032011111029007000077001SFrancisco Javier         Morcillo                 Clavijo                  M00000000          N
032011111029008000077002SSabina                   Valero                   Martinez                 F00000000          N
032011111029009000077003SJose                     Pereira                  Llanes                   M00000000          N
032011111029011000107001SOscar                    Navarro                  Dominguez                M00000000          N
032011111029015000110001SPedro Antonio            Lorenzo                  Aroca                    M00000000          N
032011111029001000127001SDimas Francisco          Cuevas                   Cuerda                   M00000000          S
032011111029002000127002SCarmen Belen             Torres                   Sanchez                  F00000000          S
032011111029003000127003SVicente                  Aroca                    Saez                     M00000000          S
032011111029004000136001SPedro Antonio            Ruiz                     Santos                   M00000000          S
032011111029005000136002SMaria Isabel             Sanchez                  Cerro                    F00000000          N
032011111029006000136003SVicente                  Sanchez                  Mira                     M00000000          N
032011111029012000150001SMaria Dolores            Valle                    Arce                     F00000000          N
032011111029013000150002SJose Julian              Castillo                 Alcaraz                  M00000000          N
032011111029014000150003SRaquel                   Chumillas                Fernandez                F00000000          N
032011111029010000168001SJose Luis                Damaso                   Martinez                 M00000000          N
032011111139015000021001SNicasio                  Garcia de Leon           Sanchez                  M00000000          N
032011111139016000021002SAngela                   Funez                    Valle                    F00000000          N
032011111139014000039001SMacario                  Polo                     Usaola                   M00000000          N
032011111139018000040001SGema Inmaculada          Romero                   Tolosa                   F00000000          N
032011111139019000040002SJose Cornelio            Samper                   Lopez                    M00000000          N
032011111139020000040003SAngela                   Gonzalez                 Polo                     F00000000          N
032011111139007000077001SJuana                    Caro                     Marin                    F00000000          N
032011111139008000077002SAlfonso Antonio          Bejarano                 Franco                   M00000000          N
032011111139009000077003SVanesa                   Moraleda                 Sepulveda                F00000000          N
032011111139011000107001SElia                     Uranga                   Rojo                     F00000000          N
032011111139013000110001SDario                    Garcia-Catalan           Tercero                  M00000000          N
032011111139001000127001SCarlos Manuel            Cotillas                 Lopez                    M00000000          S
032011111139002000127002SMaria del Carmen         Funez                    de Gregorio              F00000000          S
032011111139003000127003SSebastian                Garcia                   Martinez                 M00000000          S
032011111139004000137001SJesus                    Martin                   Rodriguez                M00000000          S
032011111139005000137002SBeatriz                  Labian                   Manrique                 F00000000          N
032011111139006000137003SGonzalo                  Redondo                  Cardenas                 M00000000          N
032011111139012000150001SMaria                    Miron                    Rodriguez                F00000000          N
032011111139017000162001SIsmael                   Marin                    Arevalo                  M00000000          N
032011111139010000168001SAngel Maria              Rico                     Navarro                  M00000000          N
032011111169019000016001SOfelia                   Martinez                 Mu?oz                    F00000000          N
032011111169020000016002SPedro                    Perez                    Pastor                   M00000000          N
032011111169021000016003SCarmen Felicidad         Maqueda                  Aroco                    F00000000          N
032011111169013000039001SSilvia                   Gonzalez                 Serrano                  F00000000          N
032011111169014000039002SJuan                     Cuartero                 Cejalvo                  M00000000          N
032011111169015000039003SMaria Teresa             Pardo                    Defez                    F00000000          N
032011111169007000077001SJacobo                   Medianero                Millan                   M00000000          N
032011111169008000077002SJudit                    Jimenez                  Fernandez                F00000000          N
032011111169009000077003SCarolina                 Rey                      Alvaro                   F00000000          N
032011111169022000107001SElisa                    Barba                    Pardo                    F00000000          N
032011111169016000109001SPedro Jose               Ortega                   Navarro                  M00000000          N
032011111169017000109002SMaria de las Mercedes    Panadero                 Bermejo                  F00000000          N
032011111169018000109003SRamon                    Rubio                    Rubio                    M00000000          N
032011111169001000127001SMaria Angeles            Garcia                   Romero                   F00000000          S
032011111169002000127002SMarina                   Moya                     Moreno                   F00000000          S
032011111169003000127003SFrancisco                Utrera                   Mora                     M00000000          S
032011111169004000136001SMaria Inmaculada         Cruz                     Salcedo                  F00000000          S
032011111169005000136002SCandido                  Yunta                    Morales                  M00000000          N
032011111169006000136003SMaria Teresa             Pa?os                    Pa?os                    F00000000          N
032011111169011000150001SJose Maria               Lopez                    Garcia                   M00000000          N
032011111169012000161001SFernando                 Mu?oz                    Garcia                   M00000000          N
032011111169010000168001SJuan Andres              Buedo                    Garcia                   M00000000          N
032011111199014000020001SAntonio                  Gomez                    Perez                    M00000000          N
032011111199012000030001SLuis Miguel              Ca?izares                Torre                    M00000000          N
032011111199015000039001SSergio                   Lopez                    Lopez                    M00000000          N
032011111199013000040001SJorge                    Caba?as                  Pascual                  M00000000          N
032011111199007000077001SElena                    Loaisa                   Oteiza                   F00000000          N
032011111199008000077002SFrancisco                Ria?o                    Campos                   M00000000          N
032011111199009000077003SMaria Teresa             Palacios                 Blasco                   F00000000          N
032011111199011000107001SMaria Isabel             Sanchez                  Sanchez                  F00000000          N
032011111199016000109001SJose Antonio             Garcia                   Olivares                 M00000000          N
032011111199017000109002SJose Maria               Anton                    Lopez                    M00000000          N
032011111199018000109003SMaria Teresa             Jurado                   Salcedo                  F00000000          N
032011111199001000127001SPorfirio                 Herrero                  Estebanez                M00000000          S
032011111199002000127002SJuan Antonio             de las Heras             Muela                    M00000000          S
032011111199003000127003SAna Maria                Gonzalez                 Garcia                   F00000000          S
032011111199004000136001SJesus                    Alique                   Lopez                    M00000000          S
032011111199005000136002SJose Luis                Tenorio                  Pasamon                  M00000000          N
032011111199006000136003SPaloma Nieves            Garcia                   Atance                   F00000000          N
032011111199019000161001SJulian                   Plaza                    Arias                    M00000000          N
032011111199010000168001SJuan Antonio             Fari?as                  Chavez                   M00000000          N
032011111459016000039001SMarina Esther            Mu?oz                    Tobar                    F00000000          N
032011111459017000039002SLuis                     Martinez                 Ontalba                  M00000000          N
032011111459011000063001SJuan Fernando            Perez                    Diaz                     M00000000          N
032011111459012000063002SMaria Esther             Andres                   Andradas                 F00000000          N
032011111459013000063003SAngel                    Diaz                     Garcia                   M00000000          N
032011111459007000078001SJuan Ramon               Crespo                   Aguilar                  M00000000          N
032011111459008000078002SOlvido                   Valero                   De La Cruz               F00000000          N
032011111459009000078003SRamon David              Gonzalez                 Hernandez                M00000000          N
032011111459014000107001SAlfonso                  Senovilla                Labrador                 M00000000          N
032011111459015000110001SJoaquin                  Vicente                  Garcia                   M00000000          N
032011111459001000127001STomas Pedro              Burgos                   Beteta                   M00000000          S
032011111459002000127002SMaria Carmen             Riolobos                 Regadera                 F00000000          S
032011111459003000127003SJuliana                  Fernandez-Cueva          Lominchar                F00000000          S
032011111459004000136001SJose Miguel              Camacho                  Sanchez                  M00000000          S
032011111459005000136002SFrancisco Javier         Ubeda                    Nieto                    M00000000          N
032011111459006000136003SCelia                    Mariblanca               Gutierrez                F00000000          N
032011111459018000165001SJulio Cesar              Agudo                    Ferrero                  M00000000          N
032011111459019000165002SBelinda                  Meneses                  Esteban                  F00000000          N
032011111459020000165003SFrancisca                Ruiz                     Mateo                    F00000000          N
032011111459010000168001SLuis                     Orgaz                    Fernandez                M00000000          N
032011111059016000039001SMaria de la Fe           Higueras                 Sanz                     F00000000          N
032011111059017000039002SMiguel Angel             Benito                   Barrios                  M00000000          N
032011111059013000055001SAlberto Alfonso          Gonzalez                 Rodrigo                  M00000000          N
032011111059014000058001SJesus Maria              de Frutos                Baraja                   M00000000          N
032011111059015000063001SMaria Carmen             Sanchez                  Espinosa                 F00000000          N
032011111059007000083001SIsabel                   Casillas                 Marcos                   F00000000          N
032011111059008000083002SAmable                   Ferrero                  Romo                     M00000000          N
032011111059009000083003SMaria Luz                Arroyo                   Vazquez                  F00000000          N
032011111059011000107001SMaria Concepcion Josefa RPedrosa                  Perez-Davila             F00000000          N
032011111059001000127001SAntolin                  Sanz                     Perez                    M00000000          S
032011111059002000127002SMaria del Carmen         de Aragon                Amunarriz                F00000000          S
032011111059003000127003SMaria de los Angeles     Ortega                   Rodriguez                F00000000          S
032011111059004000136001SJose Maria               Burgos                   Garcia                   M00000000          S
032011111059005000136002SMaria Soraya             Blazquez                 Dominguez                F00000000          N
032011111059006000136003SCarlos                   Garcia                   Velazquez                M00000000          N
032011111059012000150001SSalvador                 Miron                    Rodriguez                M00000000          N
032011111059010000168001SJesus                    Arribas                  Canales                  M00000000          N
032011111099022000020001SJoaquin                  Navarro                  Gonzalez                 M00000000          N
032011111099019000039001SJose                     Casado                   Vadillo                  M00000000          N
032011111099020000039002SRosario                  Gutierrez                Garcia                   F00000000          N
032011111099021000039003SJose Maria               Elena                    Blanco                   M00000000          N
032011111099008000079001SAngel Miguel             Martinez                 Martinez                 M00000000          N
032011111099009000079002SCasto                    Garcia                   Gonzalez                 M00000000          N
032011111099010000079003SCasandra                 Gonzalez                 Alonso                   F00000000          N
032011111099014000107001SAlexis                   Perez                    Arribas                  M00000000          N
032011111099011000112001SJuan Carlos              Garcia                   Perez                    M00000000          N
032011111099012000112002SBego?a                   Hermosilla               Alvarez                  F00000000          N
032011111099013000112003SJose Ignacio             Delgado                  Palacios                 M00000000          N
032011111099001000127001SJaime                    Mateu                    Isturiz                  M00000000          S
032011111099002000127002SIgnacio Alfredo          Gonzalez                 Torres                   M00000000          S
032011111099003000127003SMaria Bego?a             Contreras                Olmedo                   F00000000          S
032011111099004000136001SAndres                   Gil                      Garcia                   M00000000          S
032011111099005000136002SNuria                    Barrio                   Marina                   F00000000          N
032011111099006000136003SArturo Luis              Perez                    Lopez                    M00000000          N
032011111099018000150001SAlejandro                Represa                  Martin                   M00000000          N
032011111099015000158001SHilda                    Vizarro                  Taipe                    F00000000          N
032011111099016000158002SMaria Belen              Marijuan                 Izquierdo                F00000000          N
032011111099017000158003SJorge                    Lara                     Izquierdo                M00000000          N
032011111099007000168001SJose Javier              Lomas                    Fernandez de la Cuesta   M00000000          N
032011111249018000039001SMaria Angeles            Villaverde               Alonso                   F00000000          N
032011111249008000083001SManuel                   Dominguez                Chico                    M00000000          N
032011111249009000083002SMaria Elena              Laiz                     Martinez                 F00000000          N
032011111249010000083003SFaustino                 Ca?izares                Ruiz                     M00000000          N
032011111249012000107001SNelida                   De Andres                Fernandez                F00000000          N
032011111249016000110001SBego?a                   Casasola                 Pe?in                    F00000000          N
032011111249004000127001SJuan                     Morano                   Masa                     M00000000          S
032011111249005000127002SLuis                     Aznar                    Fernandez                M00000000          S
032011111249006000127003SSilvia                   Franco                   Gonzalez                 F00000000          S
032011111249013000133001SJuventino                Reguera                  Ba?os                    M00000000          N
032011111249014000133002SMaria Teresa Justina     Bandera                  Rueda                    F00000000          N
032011111249015000133003SFrancisca                Justel                   Justel                   F00000000          N
032011111249001000136001SNicanor Jorge            Sen                      Velez                    M00000000          S
032011111249002000136002SMaria Nancy              Prada                    Rodriguez                F00000000          N
032011111249003000136003SLina                     Freire                   Suarez                   F00000000          N
032011111249017000150001SLuis Carlos              Notario                  Donoso                   M00000000          N
032011111249019000161001SJose Luis                De La Torre              Dominguez                M00000000          N
032011111249007000166001SJavier                   Chamorro                 Rodriguez                M00000000          N
032011111249011000168001SSantiago                 Alvarez                  Lopez                    M00000000          N
032011111349012000055001SJulio Cesar              de Alaiz                 Martinez                 M00000000          N
032011111349007000079001SMaria del Rocio          Blanco                   Castro                   F00000000          N
032011111349008000079002SFelix                    Iglesias                 Martin                   M00000000          N
032011111349009000079003SAna Maria                Molina                   Alonso                   F00000000          N
032011111349011000107001SFrancisco Javier         Salazar                  Amador                   M00000000          N
032011111349021000112001SMaria Teresa             Pablos                   Calvo                    F00000000          N
032011111349022000112002SJuan Carlos              Tovar                    Gonzalez                 M00000000          N
032011111349023000112003SJuan Cruz                Vidal                    Carazo                   M00000000          N
032011111349001000127001SMaria de los Angeles     Armisen                  Pedrejon                 F00000000          S
032011111349002000127002SMarta                    Dominguez                Azpeleta                 F00000000          S
032011111349003000127003SJose Antonio             Rubio                    Mielgo                   M00000000          S
032011111349004000136001SRaquel Miriam            Andres                   Prieto                   F00000000          S
032011111349005000136002SLuis Fernando            Cantero                  Mena                     M00000000          N
032011111349006000136003SRosa Maria               Aldea                    Gomez                    F00000000          N
032011111349013000150001SBelen                    Vallve                   Lago                     F00000000          N
032011111349018000158001SAna Maria                Cuevas                   Reoyo                    F00000000          N
032011111349019000158002SMaria Isabel             Garcia                   Blas                     F00000000          N
032011111349020000158003SRafael                   Astorga                  Fernandez                M00000000          N
032011111349014000160001SJose Felix               Guerra                   Acosta                   M00000000          N
032011111349015000160002SJose Luis                Garcia                   Cancio                   M00000000          N
032011111349016000160003SFelisa                   Campo                    Tejedor                  F00000000          N
032011111349017000161001SVictor                   Rojo                     Shaw                     M00000000          N
032011111349010000168001SFrancisco                Bleye                    Gomez                    M00000000          N
032011111379018000039001SAngel                    Gamazo                   Largo                    M00000000          N
032011111379019000039002SMarta                    Santos                   Ballesteros              F00000000          N
032011111379020000039003SMaria Yolanda            Perez                    Revuelta                 F00000000          N
032011111379011000040001SMarta                    Benito                   Sardi?a                  F00000000          N
032011111379012000040002SJose                     Martinez                 Diaz                     M00000000          N
032011111379013000040003SMaria Victoria           Garcia                   Crisolino                F00000000          N
032011111379007000080001SM? Asuncion              Barandiaran              Mugica                   F00000000          N
032011111379008000080002SJavier                   Infante                  Miguel-Motta             M00000000          N
032011111379009000080003SPedro                    Vez                      Luque                    M00000000          N
032011111379017000107001SMarta                    Barragues                Tapia                    F00000000          N
032011111379001000127001SIsabel                   Jimenez                  Garcia                   F00000000          S
032011111379002000127002SJulian                   Lanzarote                Sastre                   M00000000          S
032011111379003000127003SJose                     Mu?oz                    Martin                   M00000000          S
032011111379014000133001SJuan Manuel              Andres                   Lopez                    M00000000          N
032011111379015000133002SJose Benito              Mateos                   Pascual                  M00000000          N
032011111379016000133003SMaria Jesus              Villafranca              Iglesias                 F00000000          N
032011111379004000136001SElena                    Diego                    Castellanos              F00000000          S
032011111379005000136002SJose Manuel              Mangas                   Tamames                  M00000000          N
032011111379006000136003SJosefa                   Mena                     Martin                   F00000000          N
032011111379021000161001SCarlos                   Caceres                  Gozalo                   M00000000          N
032011111379010000168001SConsuelo Natividad       Rodriguez                Marcos                   F00000000          N
032011111409014000039001SManuel Jesus             Garcia                   Cob                      M00000000          N
032011111409013000055001SJuan Manuel              de la Serna              Lorenzo                  M00000000          N
032011111409007000079001SAngel                    Galindo                  Hebrero                  M00000000          N
032011111409008000079002SAna Maria                Lopez                    Guerrero                 F00000000          N
032011111409009000079003SGema                     del Barco                Frutos                   F00000000          N
032011111409011000107001SRamon                    Costa                    Encinas                  M00000000          N
032011111409001000127001SJavier Vicente           Santamaria               Herranz                  M00000000          S
032011111409002000127002SPaloma Ines              Sanz                     Jeronimo                 F00000000          S
032011111409003000127003SJuan Ramon               Represa                  Fernandez                M00000000          S
032011111409004000136001SFelix                    Montes                   Jort                     M00000000          S
032011111409005000136002SAna Isabel               Sanjose                  Rodriguez                F00000000          N
032011111409006000136003SPedro Luis               Pi?eiro                  Robledo                  M00000000          N
032011111409012000150001SIciar                    Villacieros              Durban                   F00000000          N
032011111409015000161001SCelso                    Ruiz                     Pastor                   M00000000          N
032011111409010000168001SFelix Manuel             Sanchez                  Montesinos               M00000000          N
032011111429013000030001SJulia Maria              Rojas                    Moreno                   F00000000          N
032011111429008000084001SJose Alberto             Lorenzo                  Perez                    M00000000          N
032011111429009000084002STeresa                   Madrid                   Molina                   F00000000          N
032011111429010000084003SJaime                    Rodriguez                Esteban                  M00000000          N
032011111429011000107001SMaria Dolores            Pereira                  Gomez                    M00000000          N
032011111429001000127001SMaria del Mar            Angulo                   Martinez                 F00000000          S
032011111429002000127002SAbel                     Anton                    Rodrigo                  M00000000          S
032011111429003000127003SGerardo                  Martinez                 Martinez                 M00000000          S
032011111429004000136001SMaria Eloisa             Alvarez                  Oteo                     F00000000          S
032011111429005000136002SJose                     Pe?alba                  Sanz                     M00000000          N
032011111429006000136003SMaria Iris               Alonso                   Pascual                  F00000000          N
032011111429012000150001SMaria Cristina           de la Puerta             Gonzalez-Quevedo         F00000000          N
032011111429014000161001SJesus                    Martinez                 de la Hoya               M00000000          N
032011111429007000168001SJesus Carlos             Riosalido                Gambotti                 M00000000          N
032011111479027000020001SIngrid Zahara            Gonzalez                 Martin                   F00000000          N
032011111479022000030001SJose Luis                Arranz                   Arranz                   M00000000          N
032011111479023000030002SJezabel                  Redondo                  Rodriguez                F00000000          N
032011111479024000030003SMarcos                   Malaga                   Alonso                   M00000000          N
032011111479025000039001SMartin                   Alonso                   Elia                     M00000000          N
032011111479019000055001SAnastasio                Rodriguez                Martin                   M00000000          N
032011111479020000055002SMaria Cristina           Lorenzo                  Pau                      F00000000          N
032011111479007000079001SMaria Teresa             Martin                   Villoria                 F00000000          N
032011111479008000079002SPompeyo                  Velasco                  Fraile                   M00000000          N
032011111479009000079003SEva                      Diez                     Sanchez                  F00000000          N
032011111479017000107001SMaria Jesus              Bocos                    Bocos                    F00000000          N
032011111479021000110001SFederico Jose            Saiz                     Sandoval                 M00000000          N
032011111479001000127001SAlberto                  Gutierrez                Alberca                  M00000000          S
032011111479002000127002SSantiago                 Lopez                    Valdivielso              M00000000          S
032011111479003000127003SAna Maria                Torme                    Pardo                    F00000000          S
032011111479004000136001SEmilio                   Alvarez                  Villazan                 M00000000          S
032011111479005000136002SPilar                    Fernandez                Pastor                   F00000000          N
032011111479006000136003SMaria Jesus              Fromesta                 Ruiz                     F00000000          N
032011111479018000150001SMaria Jesus              De la Fuente             Guitart                  F00000000          N
032011111479011000158001SAna Maria                Sanchez                  Velasco                  F00000000          N
032011111479012000158002SDiego                    Velicia                  Miranda                  M00000000          N
032011111479013000158003SMaria Jesus              Herrero                  Garcia                   F00000000          N
032011111479014000160001SJose Ignacio             Moratinos                Delgado                  M00000000          N
032011111479015000160002SMaria Lourdes            Garcia                   Cela                     F00000000          N
032011111479016000160003SMarcelino                Gonzalo                  Piedrahita               M00000000          N
032011111479026000161001SPedro                    Perez                    Chico                    M00000000          N
032011111479010000168001SCesar                    Toquero                  Acebes                   M00000000          N
032011111499015000040001SJavier                   Mezquita                 Rodriguez                M00000000          N
032011111499016000040002SNuria                    Prieto                   Fernandez                F00000000          N
032011111499017000040003SJuan Jose                Gonzalez                 Gonzalez                 M00000000          N
032011111499007000079001SMaria Isabel             Garcia                   Muriel                   F00000000          N
032011111499008000079002SMaria Jose               Gonzalez                 Torijano                 F00000000          N
032011111499009000079003SManuel                   Rodriguez                Fernandez                M00000000          N
032011111499014000107001SDiego                    Almansa                  Ortega                   M00000000          N
032011111499001000127001SDionisio                 Garcia                   Carnero                  M00000000          S
032011111499002000127002SMaria del Carmen         Luis                     Heras                    F00000000          S
032011111499003000127003SJesus Andres             Sedano                   Perez                    M00000000          S
032011111499011000133001STeresita Loreto          Alvarez                  Perez                    F00000000          N
032011111499012000133002SJesus                    Fernandez                Villar                   M00000000          N
032011111499013000133003SJose Miguel              Trufero                  Barrios                  M00000000          N
032011111499004000136001SJose                     Fernandez                Blanco                   M00000000          S
032011111499005000136002SBerta Susana             De Caso                  Bausela                  F00000000          N
032011111499006000136003SJesus Angel              Anton                    Rodriguez                M00000000          N
032011111499018000150001SCarmen Maria             Perez                    Garcia                   F00000000          N
032011111499010000168001SJose Luis                Diez                     Perez                    M00000000          N
032011111089007000026001SMontserrat               Candini i                Puig                     F00000000          S
032011111089008000026002SJordi                    Torra i                  Vendrell                 M00000000          N
032011111089009000026003SJosep                    Vives i                  Portell                  M00000000          N
032011111089001000036001SMonica                   Almi?ana                 Rique                    F00000000          S
032011111089002000036002SJordi                    Guillot                  Miravet                  M00000000          S
032011111089003000036003SCarles                   Marti                    Jufresa                  M00000000          S
032011111089026000042001SJaume                    Ventura                  Rovira                   M00000000          N
032011111089027000042002SMontserrat               Camprubi                 Boix                     F00000000          N
032011111089028000042003SOriol                    Hernandez                Planas                   M00000000          N
032011111089004000046001SMoises                   Broggi i                 Valles                   M00000000          N
032011111089005000046002SMireia                   Ingla i                  Mas                      F00000000          N
032011111089006000046003SLluisa                   Llop i                   Fernandez                F00000000          N
032011111089013000138001SElena                    Allue                    Tejerina                 F00000000          N
032011111089014000138002SJoan                     Grimal                   Molins                   M00000000          N
032011111089015000138003SConcepcion               Dempere                  Llinas                   F00000000          N
032011111089010000144001SManuel                   Reyes                    Lopez                    M00000000          N
032011111089011000144002SDomingo                  Beltran                  Arnaldos                 M00000000          N
032011111089012000144003SEmma                     Salarich                 Matavacas                F00000000          N
032011111089023000148001SRuben-Dario              Casta?e                  Carmona                  M00000000          N
032011111089024000148002SNoemi                    Romero                   Panadero                 F00000000          N
032011111089025000148003SSergi                    Jorda                    Vera                     M00000000          N
032011111089017000149001SAugust                   Armengol                 Rofes                    M00000000          N
032011111089018000149002SMarta                    Riera                    Camps                    F00000000          N
032011111089019000149003SDavid                    Parada                   Perez                    M00000000          N
032011111089020000161001SPilar                    Costa                    Chulio                   F00000000          N
032011111089021000161002SJordi                    Martinez                 Rigol                    M00000000          N
032011111089022000161003SFrancesc Sergio          Iba?ez                   Laffort                  M00000000          N
032011111089016000168001SMaria                    Brosed                   Flores                   F00000000          N
032011111179007000025001SJoan                     Bague i                  Roura                    M00000000          S
032011111179008000025002SPere                     Maluquer i               Ferrer                   M00000000          S
032011111179009000025003SMaria                    Rieradevall i            Tarres                   F00000000          S
032011111179001000036001SRafel                    Bruguera                 i Batalla                M00000000          S
032011111179002000036002SPepa                     Celaya                   i Armisen                F00000000          N
032011111179003000036003SMagda                    Casamitjana              i Aguila                 F00000000          N
032011111179018000042001SLaura                    Oriol                    Wenceslao                F00000000          N
032011111179019000042002SRicard                   Blancafort               Raurell                  M00000000          N
032011111179020000042003SCarmen                   Omenac                   Duran                    F00000000          N
032011111179004000047001SMaria Merce              Roca i                   Perich                   F00000000          N
032011111179005000047002SJoaquim                  Sabria i                 Pujol                    M00000000          N
032011111179006000047003SMaria                    Perpinya i               Fortunet                 F00000000          N
032011111179013000138001SAlbert                   Benitez                  Hugas                    M00000000          N
032011111179014000139001SRafael                   Parra                    Chica                    M00000000          N
032011111179010000144001SJose Luis                Montero                  Barba                    M00000000          N
032011111179011000144002SJordi                    Farre                    Rodriguez                M00000000          N
032011111179012000144003SJulia                    Sala                     Esteban                  F00000000          N
032011111179017000148001SMatias                   Talavera                 Ucles                    M00000000          N
032011111179015000149001SMiquel                   Montes                   Lopez                    M00000000          N
032011111179021000161001SAndreu                   Colomera                 Franquet                 M00000000          N
032011111179016000168001SFrancisco Javier         Maymo                    Castella                 M00000000          N
032011111259007000026001SRamon                    Alturo                   Lloan                    M00000000          S
032011111259008000026002SManel                    Plana                    Farran                   M00000000          S
032011111259009000026003SMaria Teresa (Maite)     Rivero                   Segalas                  F00000000          S
032011111259001000036001SFrancesc                 Boya                     Alos                     M00000000          S
032011111259002000036002SJoan                     Valldaura                Pujol                    M00000000          N
032011111259003000036003SJosepa                   Peiro                    Badia                    F00000000          N
032011111259014000042001SAlejandro                Bergua                   Lorente                  M00000000          N
032011111259015000042002SDafne Loana              Claveria                 Ungerer                  F00000000          N
032011111259004000048001SJaume                    Gilabert                 Torruella                M00000000          N
032011111259005000048002SBerta                    Vidal                    Berron                   F00000000          N
032011111259006000048003SMiquel Angel             Estrade                  Palau                    M00000000          N
032011111259010000128001SSimeo                    Abad                     Moline                   M00000000          N
032011111259011000128002SJoan                     Simeon                   Morera                   M00000000          N
032011111259012000128003SElisa                    Llobet                   Pollina                  F00000000          N
032011111259013000138001SAlan Antoni              Morell                   Valios                   M00000000          N
032011111259017000139001SFrancisco Javier         Garcia                   Llop                     M00000000          N
032011111259018000139002SMaria Mercedes           Nabonne                  Donaire                  F00000000          N
032011111259016000147001SJuan Jose                Salbia                   Asensio                  M00000000          N
032011111259023000148001SSantiago                 Casas                    Duarte                   M00000000          N
032011111259019000149001SJosep Anton              Ortiz                    Cambray                  M00000000          N
032011111259020000149002SMaria del Carmen         Sabater                  Brunet                   F00000000          N
032011111259021000149003SJuan Jose                Vilaseca                 Garcia                   M00000000          N
032011111259024000162001SEnrique                  Costas                   Teijeiro                 M00000000          N
032011111259022000168001SRoberto                  Moreno                   Lopez                    M00000000          N
032011111439007000026001SFerran                   Bel                      i Accensi                M00000000          S
032011111439008000026002SJordi                    Sendra                   i Vellve                 M00000000          S
032011111439009000026003SRosanna                  Camps                    Aragones                 F00000000          N
032011111439001000036001SJoan                     Sabate                   Borras                   M00000000          S
032011111439002000036002SM.Jesus                  Sequera                  Garcia                   F00000000          S
032011111439003000036003SAnton                    Ferre                    Fons                     M00000000          N
032011111439010000042001SLuis Fernando            Turrents                 Diaz                     M00000000          N
032011111439004000047001SJordi                    Cartanya                 i Benet                  M00000000          N
032011111439005000047002SMaria                    Grau                     i Alasa                  F00000000          N
032011111439006000047003SFelip                    Garcia                   i Garcia                 M00000000          N
032011111439024000063001SMaria                    Mu?oz                    Jarque                   F00000000          N
032011111439018000128001SJudith                   Heras                    Tuset                    F00000000          N
032011111439019000128002SMisericordia             Bonfill                  Ramon                    F00000000          N
032011111439020000128003SAdolfo                   Criado                   Gabarro                  M00000000          N
032011111439021000138001SMeritxell                Serres                   Provinciale              F00000000          N
032011111439014000139001SRogelio                  Iranzo                   Garcia                   M00000000          N
032011111439015000139002SMaria Jose               Itarte                   Copovi                   F00000000          N
032011111439023000145001SDavid                    Lopez                    Farres                   M00000000          N
032011111439016000148001SJaume                    Margallo                 Nieto                    M00000000          N
032011111439011000149001SJordi Pere               Casanova                 Panisello                M00000000          N
032011111439012000149002SAlberto Jaime            Tafalla                  Arisa                    M00000000          N
032011111439013000149003SAna                      de la Torre              Moya                     F00000000          N
032011111439022000162001SJuana                    Diaz                     Barroso                  F00000000          N
032011111439017000168001SHernan                   Martin-Barbadillo        Domingo                  M00000000          N
032011111069014000027001SMaria del Carmen         Parejo                   Antolin                  F00000000          N
032011111069015000027002SVicente                  Sanchez                  Ramos                    M00000000          N
032011111069016000027003SAlejandra                Cabrera                  Sanchez                  F00000000          N
032011111069013000039001SRegina                   Garcia                   Campos                   F00000000          N
032011111069007000093001SAlvaro                   Vazquez                  Pinheiro                 M00000000          N
032011111069008000093002SSusana                   Bruna                    Perez                    F00000000          N
032011111069009000093003SMiguel                   Manzanera                Salavert                 M00000000          N
032011111069012000107001SRosario                  Sanchez                  Blazquez                 F00000000          N
032011111069004000131001SPedro                    Acedo                    Penco                    M00000000          S
032011111069005000131002SAntonio                  Galvan                   Porras                   M00000000          S
032011111069006000131003SMaria Agustina           Rodriguez                Martinez                 F00000000          S
032011111069001000136001SJuan Maria               Vazquez                  Garcia                   M00000000          S
032011111069002000136002SMarta                    Gutierrez                Robado                   F00000000          N
032011111069003000136003SJose Maria               Nu?ez                    Blanco                   M00000000          N
032011111069011000150001SIsmael                   Valdivia                 Lopez                    M00000000          N
032011111069010000168001SJose Maria               Lopez-Lago               Fernandez                M00000000          N
032011111109013000027001SRosa Maria               Mogollon                 Calvo                    F00000000          N
032011111109014000027002SJuan Antonio             Castellano               Delgado                  M00000000          N
032011111109015000027003SRosa Isabel              Sanchez                  Martin                   F00000000          N
032011111109016000027004SEmilio                   Diaz                     Luis                     M00000000          N
032011111109017000039001SSusana                   Casado                   Campos                   F00000000          N
