031989101010400199ABLA                                                                                                001301300000001731000010000132300001323000000000000000000000485000008290000001300000024000009450000000000000000000N
031989101010400299ABRUCENA                                                                                            001301300000001594000010000118800001188000000000000000000000440000006580000000300000026000008890000000000000000000N
031989101010400399ADRA                                                                                                002902900000019358000170001342800013428000000000000000000003474000062490000006500000247000080140000000000000000000N
031989101010400499ALBANCHEZ                                                                                           005305300000000865000010000065800000658000000000000000000000276000004370000000200000002000004960000000000000000000N
031989101010400599ALBOLODUY                                                                                           001301300000001033000010000076800000768000000000000000000000338000005570000000200000013000006160000000000000000000N
031989101010400699ALBOX                                                                                               005305300000010321000080000632500006325000000000000000000001820000036200000002200000156000043310000000000000000000N
031989101010400799ALCOLEA                                                                                             001301300000000871000010000067600000676000000000000000000000361000005160000000100000007000005190000000000000000000N
031989101010400899ALCONTAR                                                                                            005305300000000698000020000055000000550000000000000000000000129000003370000000200000017000004090000000000000000000N
031989101010400999ALCUDIA DE MONTEAGUD                                                                                001301300000000218000010000017300000173000000000000000000000090000001160000000000000001000001330000000000000000000N
031989101010401099ALHABIA                                                                                             001301300000000885000010000062700000627000000000000000000000253000004440000000500000006000004870000000000000000000N
031989101010401199ALHAMA DE ALMERIA                                                                                   001301300000003068000030000220200002202000000000000000000000679000012990000001200000057000017490000000000000000000N
031989101010401299ALICUN                                                                                              001301300000000243000010000019200000192000000000000000000000075000001400000000100000011000001630000000000000000000N
031989101010401399ALMERIA                                                                                             001301300000153592001180011195100111951000000000000000000040746000587910000079800002348000705180000000000000000000N
031989101010401499ALMOCITA                                                                                            001301300000000217000010000017900000179000000000000000000000044000000910000000000000004000001300000000000000000000N
031989101010401599ALSODUX                                                                                             001301300000000125000010000011500000115000000000000000000000049000000810000000000000003000000890000000000000000000N
031989101010401699ANTAS                                                                                               010010000000002541000030000188300001883000000000000000000000390000009240000001700000043000012750000000000000000000N
031989101010401799ARBOLEAS                                                                                            005305300000001513000010000118000001180000000000000000000000387000007040000000500000022000008160000000000000000000N
031989101010401899ARMUÑA DE ALMANZORA                                                                                 005305300000000343000010000028800000288000000000000000000000122000001920000000000000002000002330000000000000000000N
031989101010401999BACARES                                                                                             005305300000000342000010000028000000280000000000000000000000114000001760000000100000003000002130000000000000000000N
031989101010402099BAYARCAL                                                                                            001301300000000447000010000031300000313000000000000000000000106000001850000000200000006000002230000000000000000000N
031989101010402199BAYARQUE                                                                                            005305300000000254000010000021200000212000000000000000000000060000001250000000000000001000001660000000000000000000N
031989101010402299BEDAR                                                                                               010010000000000587000010000041900000419000000000000000000000141000002390000000100000012000002620000000000000000000N
031989101010402399BEIRES                                                                                              001301300000000171000010000013500000135000000000000000000000053000000840000000000000001000001040000000000000000000N
031989101010402499BENAHADUX                                                                                           001301300000002016000020000149200001492000000000000000000000610000009740000000300000013000011680000000000000000000N
031989101010402699BENITAGLA                                                                                           001301300000000125000010000009800000098000000000000000000000033000000410000000000000000000000600000000000000000000N
031989101010402799BENIZALON                                                                                           001301300000000448000010000030700000307000000000000000000000077000001400000000000000007000001900000000000000000000N
031989101010402899BENTARIQUE                                                                                          001301300000000348000010000027500000275000000000000000000000150000002040000000000000003000002310000000000000000000N
031989101010402999BERJA                                                                                               002902900000011533000120000848800008488000000000000000000002582000048910000003700000200000061170000000000000000000N
031989101010403099CANJAYAR                                                                                            001301300000002205000030000160900001609000000000000000000000587000008150000000600000040000010950000000000000000000N
031989101010403199CANTORIA                                                                                            005305300000003406000030000259500002595000000000000000000001014000016100000000000000044000018430000000000000000000N
031989101010403299CARBONERAS                                                                                          010010000000005602000050000368700003687000000000000000000001073000019880000003300000056000025910000000000000000000N
031989101010403399CASTRO FILABRES                                                                                     001301300000000160000010000013100000131000000000000000000000032000000670000000000000002000000840000000000000000000N
031989101010403499COBDAR                                                                                              001301300000000305000010000024300000243000000000000000000000089000001690000000000000001000002000000000000000000000N
031989101010403599CUEVAS DEL ALMANZORA                                                                                010010000000009070000070000649800006498000000000000000000002080000037480000005400000166000045880000000000000000000N
031989101010403699CHERCOS                                                                                             005305300000000369000010000027400000274000000000000000000000097000001870000000000000001000002050000000000000000000N
031989101010403799CHIRIVEL                                                                                            005305300000002056000020000163800001638000000000000000000000477000008200000001100000052000010850000000000000000000N
031989101010403899DALIAS                                                                                              002902900000003625000050000269200002692000000000000000000000957000015790000001600000060000019650000000000000000000N
031989101010403999DARRICAL                                                                                            002902900000000388000010000033200000332000000000000000000000078000001510000000100000001000001740000000000000000000N
031989101010404199ENIX                                                                                                001301300000000240000010000019100000191000000000000000000000093000001090000000000000001000001420000000000000000000N
031989101010404399FELIX                                                                                               001301300000000685000010000052800000528000000000000000000000230000003640000000500000009000004030000000000000000000N
031989101010404499FINES                                                                                               005305300000001549000010000113500001135000000000000000000000386000007260000001300000021000008820000000000000000000N
031989101010404599FIÑANA                                                                                              001301300000002792000030000209400002094000000000000000000000795000012170000001100000048000014900000000000000000000N
031989101010404699FONDON                                                                                              001301300000001031000010000080300000803000000000000000000000289000004610000000500000016000006040000000000000000000N
031989101010404799GADOR                                                                                               001301300000002531000020000189400001894000000000000000000000905000013830000000800000033000015260000000000000000000N
031989101010404899GALLARDOS (LOS)                                                                                     010010000000001663000020000123600001236000000000000000000000447000007600000000900000021000009100000000000000000000N
031989101010404999GARRUCHA                                                                                            010010000000003756000020000277900002779000000000000000000001020000016720000004100000062000019220000000000000000000N
031989101010405099GERGAL                                                                                              001301300000001257000010000094500000945000000000000000000000327000005400000000300000018000006300000000000000000000N
031989101010405199HUECIJA                                                                                             001301300000000601000010000046500000465000000000000000000000166000003000000001000000011000003550000000000000000000N
031989101010405299HUERCAL DE ALMERIA                                                                                  001301300000003686000030000259300002593000000000000000000000966000015580000000700000088000017700000000000000000000N
031989101010405399HUERCAL-OVERA                                                                                       005305300000012745000140000961600009616000000000000000000002931000054780000006000000220000068080000000000000000000N
031989101010405499ILLAR                                                                                               001301300000000554000010000044300000443000000000000000000000175000003100000000100000003000003850000000000000000000N
031989101010405599INSTINCION                                                                                          001301300000000676000010000052100000521000000000000000000000163000003510000000100000014000004440000000000000000000N
031989101010405699LAROYA                                                                                              005305300000000172000010000011400000114000000000000000000000030000000710000000000000000000000880000000000000000000N
031989101010405799LAUJAR DE ANDARAX                                                                                   001301300000001892000020000137100001371000000000000000000000471000008250000000600000060000010250000000000000000000N
031989101010405899LIJAR                                                                                               005305300000000560000010000042200000422000000000000000000000140000002700000000000000001000003300000000000000000000N
031989101010405999LUBRIN                                                                                              010010000000002199000030000173500001735000000000000000000000668000010200000000600000023000011720000000000000000000N
031989101010406099LUCAINENA DE LAS TORRES                                                                             001301300000000702000010000052300000523000000000000000000000166000003190000000600000012000003510000000000000000000N
031989101010406199LUCAR                                                                                               005305300000000802000010000062500000625000000000000000000000213000003760000000100000014000004500000000000000000000N
031989101010406299MACAEL                                                                                              005305300000005554000050000391900003919000000000000000000001569000023640000001500000043000027150000000000000000000N
031989101010406399MARIA                                                                                               005305300000001903000030000143900001439000000000000000000000387000008230000000800000062000010380000000000000000000N
031989101010406499MOJACAR                                                                                             010010000000002839000020000162600001626000000000000000000000479000008830000001000000020000012220000000000000000000N
031989101010406599NACIMIENTO                                                                                          001301300000000603000010000046900000469000000000000000000000249000003210000000200000008000003350000000000000000000N
031989101010406699NIJAR                                                                                               001301300000012102000160000886900008869000000000000000000002150000039980000004700000116000053700000000000000000000N
031989101010406799OHANES                                                                                              001301300000000995000010000074800000748000000000000000000000262000004450000000500000019000005440000000000000000000N
031989101010406899OLULA DE CASTRO                                                                                     001301300000000250000010000019500000195000000000000000000000046000001240000000000000005000001400000000000000000000N
031989101010406999OLULA DEL RIO                                                                                       005305300000005212000040000382100003821000000000000000000001024000020230000001200000123000025170000000000000000000N
031989101010407099ORIA                                                                                                005305300000002651000040000206700002067000000000000000000000569000011910000001300000070000014200000000000000000000N
031989101010407199PADULES                                                                                             001301300000000614000010000046900000469000000000000000000000210000003100000000000000010000003550000000000000000000N
031989101010407299PARTALOA                                                                                            005305300000000490000010000038600000386000000000000000000000111000002550000000000000001000003240000000000000000000N
031989101010407399PATERNA DEL RIO                                                                                     001301300000000457000010000034800000348000000000000000000000141000002090000000300000005000002380000000000000000000N
031989101010407499PECHINA                                                                                             001301300000002090000020000149700001497000000000000000000000586000009420000000700000027000011000000000000000000000N
031989101010407599PULPI                                                                                               010010000000004161000030000311400003114000000000000000000000957000018760000003900000076000022540000000000000000000N
031989101010407699PURCHENA                                                                                            005305300000001857000020000135900001359000000000000000000000405000007910000000500000019000010190000000000000000000N
031989101010407799RAGOL                                                                                               001301300000000498000010000037200000372000000000000000000000162000002580000000000000003000003140000000000000000000N
031989101010407899RIOJA                                                                                               001301300000001172000010000086300000863000000000000000000000386000006410000000600000013000006940000000000000000000N
031989101010407999ROQUETAS DE MAR                                                                                     001301300000022122000150001703400017034000000000000000000004100000077250000015900000256000101130000000000000000000N
031989101010408099SANTA CRUZ                                                                                          001301300000000273000010000020600000206000000000000000000000069000001090000000000000002000001400000000000000000000N
031989101010408199SANTA FE DE MONDUJAR                                                                                001301300000000454000010000036300000363000000000000000000000147000002590000000000000005000003060000000000000000000N
031989101010408299SENES                                                                                               001301300000000528000010000039300000393000000000000000000000094000001770000000200000003000002030000000000000000000N
031989101010408399SERON                                                                                               005305300000003217000040000247200002472000000000000000000000972000013460000000700000042000016660000000000000000000N
031989101010408499SIERRO                                                                                              005305300000000724000010000041500000415000000000000000000000100000001800000000500000007000002370000000000000000000N
031989101010408599SOMONTIN                                                                                            005305300000000566000010000042600000426000000000000000000000208000002930000000000000001000003320000000000000000000N
031989101010408699SORBAS                                                                                              001301300000002829000050000215800002158000000000000000000000704000013080000001100000043000015240000000000000000000N
031989101010408799SUFLI                                                                                               005305300000000256000010000020500000205000000000000000000000078000001310000000000000001000001560000000000000000000N
031989101010408899TABERNAS                                                                                            001301300000003274000050000239800002398000000000000000000000802000013690000001500000054000017100000000000000000000N
031989101010408999TABERNO                                                                                             005305300000001034000010000080100000801000000000000000000000238000003990000000300000008000005210000000000000000000N
031989101010409099TAHAL                                                                                               001301300000000627000010000045300000453000000000000000000000159000002000000000000000005000003320000000000000000000N
031989101010409199TERQUE                                                                                              001301300000000526000010000041100000411000000000000000000000193000002950000000400000004000003330000000000000000000N
031989101010409299TIJOLA                                                                                              005305300000003722000040000263500002635000000000000000000000896000015030000000500000039000019490000000000000000000N
031989101010409399TURRE                                                                                               010010000000002072000020000146100001461000000000000000000000478000009040000000300000029000010920000000000000000000N
031989101010409499TURRILLAS                                                                                           001301300000000298000010000022000000220000000000000000000000105000001050000000200000003000001560000000000000000000N
031989101010409599ULEILA DEL CAMPO                                                                                    001301300000001095000010000080200000802000000000000000000000209000004360000000800000022000004980000000000000000000N
031989101010409699URRACAL                                                                                             005305300000000397000010000029700000297000000000000000000000085000001450000000200000011000002000000000000000000000N
031989101010409799VELEFIQUE                                                                                           001301300000000428000010000033400000334000000000000000000000104000001840000000000000003000002230000000000000000000N
031989101010409899VELEZ-BLANCO                                                                                        005305300000002612000040000204600002046000000000000000000000644000012220000001500000070000015000000000000000000000N
031989101010409999VELEZ-RUBIO                                                                                         005305300000006594000090000518000005180000000000000000000001572000029240000005100000139000036320000000000000000000N
031989101010410099VERA                                                                                                010010000000005442000060000400300004003000000000000000000001175000019890000003000000057000027420000000000000000000N
031989101010410199VIATOR                                                                                              001301300000002647000020000187100001871000000000000000000000805000011700000000200000042000013700000000000000000000N
031989101010410299VICAR                                                                                               001301300000010006000080000698400006984000000000000000000001550000032130000004100000144000042810000000000000000000N
031989101010410399ZURGENA                                                                                             005305300000002224000020000159500001595000000000000000000000493000009870000000300000022000012070000000000000000000N
031989101010490199TRES VILLAS (LAS)                                                                                   001301300000000751000010000060200000602000000000000000000000247000003680000000100000013000004320000000000000000000N
031989101010490299EJIDO(EL)                                                                                           002902900000036335000250002614300026143000000000000000000005737000110580000017300000474000146950000000000000000000N
031989101010490399MOJONERA (LA)                                                                                       001301300000005057000040000348400003484000000000000000000000762000015970000002500000071000020260000000000000000000N
031989101011100199ALCALA DE LOS GAZULES                                                                               003103100000005632000060000427500004278000000000000000000001363000022980000010000000061000027910000000000000000000N
031989101011100299ALCALA DEL VALLE                                                                                    000600600000005250000040000362900003629000000000000000000000981000019760000001300000051000025930000000000000000000N
031989101011100399ALGAR                                                                                               000600600000002145000020000154800001548000000000000000000000433000007390000001100000042000008880000000000000000000N
031989101011100499ALGECIRAS                                                                                           000400400000096882000970006806500068175000000000000000000021125000324110000072800001618000389970000000000000000000N
031989101011100599ALGODONALES                                                                                         000600600000005975000080000434500004350000000000000000000001550000024140000004300000106000029220000000000000000000N
031989101011100699ARCOS DE LA FRONTERA                                                                                000600600000026781000270001850800018510000000000000000000006794000106540000020700000480000129560000000000000000000N
031989101011100799BARBATE DE FRANCO                                                                                   001501500000022047000190001561300015613000000000000000000004370000072500000019500000436000083410000000000000000000N
031989101011100899BARRIOS (LOS)                                                                                       000400400000012148000100000871200008712000000000000000000003110000048700000006800000245000059840000000000000000000N
031989101011100999BENAOCAZ                                                                                            000600600000000503000010000036600000366000000000000000000000118000002060000000200000007000002660000000000000000000N
031989101011101099BORNOS                                                                                              000600600000007848000080000552300005528000000000000000000001979000032400000003500000150000037640000000000000000000N
031989101011101199BOSQUE (EL)                                                                                         000600600000001795000020000125200001252000000000000000000000424000007230000001900000021000008650000000000000000000N
031989101011101299CADIZ                                                                                               001201200000155299001050011429500114691000000000000000000034080000544230000157200003337000647410000000000000000000N
031989101011101399CASTELLAR DE LA FRONTERA                                                                            003303300000002121000020000162000001620000000000000000000000583000010210000001200000045000011720000000000000000000N
031989101011101499CONIL DE LA FRONTERA                                                                                001501500000014362000170000997700009981000000000000000000002988000050950000010000000290000060210000000000000000000N
031989101011101599CHICLANA DE LA FRONTERA                                                                             001501500000041677000390002877500028775000000000000000000009209000139610000020600001141000163790000000000000000000N
031989101011101699CHIPIONA                                                                                            003203200000013474000130000940500009405000000000000000000002459000047740000010400000315000060210000000000000000000N
031989101011101799ESPERA                                                                                              000600600000004195000040000283800002838000000000000000000001035000015940000002100000084000018660000000000000000000N
031989101011101899GASTOR (EL)                                                                                         000600600000002292000030000167400001674000000000000000000000589000009290000000900000063000010720000000000000000000N
031989101011101999GRAZALEMA                                                                                           000600600000002288000040000169100001694000000000000000000000527000009480000001100000041000011800000000000000000000N
031989101011102099JEREZ DE LA FRONTERA                                                                                002002000000179191001740012902100129255000000000000000000043031000657410000115500003144000788340000000000000000000N
031989101011102199JIMENA DE LA FRONTERA                                                                               003303300000008539000090000638200006382000000000000000000002444000039890000004500000159000047840000000000000000000N
031989101011102299LA LINEA DE LA CONCEPCION                                                                           003303300000058779000600004240800042408000000000000000000012408000209270000038200001110000248660000000000000000000N
031989101011102399MEDINA SIDONIA                                                                                      003103100000015786000170001104700011047000000000000000000004678000071410000005900000174000086470000000000000000000N
031989101011102499OLVERA                                                                                              000600600000009229000080000685000006850000000000000000000002202000036750000005400000192000046150000000000000000000N
031989101011102599PATERNA DE RIBERA                                                                                   003103100000004666000060000317000003170000000000000000000001236000020040000005100000093000022860000000000000000000N
031989101011102699PRADO DEL REY                                                                                       000600600000005383000040000380100003801000000000000000000001290000024060000006100000190000028230000000000000000000N
031989101011102799PUERTO DE SANTA MARIA(EL)                                                                           002702700000060638000640004410800044057000000000000000000010307000183080000049500001316000222260000000000000000000N
031989101011102899PUERTO REAL                                                                                         002702700000026915000220001926500019265000000000000000000006125000088050000017700000572000103910000000000000000000N
031989101011102999PUERTO SERRANO                                                                                      000600600000006156000100000410500004105000000000000000000001590000023730000001800000067000026830000000000000000000N
031989101011103099ROTA                                                                                                002702700000021285000230001524900015249000000000000000000003942000070600000013700000470000087550000000000000000000N
031989101011103199SAN FERNANDO                                                                                        003103100000080057000920005634400056449000000000000000000017827000266460000050300001601000313120000000000000000000N
031989101011103299SANLUCAR DE BARRAMEDA                                                                               003203200000053017000550003749200037506000000000000000000008422000151770000043200001484000194070000000000000000000N
031989101011103399SAN ROQUE                                                                                           003303300000021459000230001476600014766000000000000000000005014000080010000012900000487000093940000000000000000000N
031989101011103499SETENIL                                                                                             000600600000003338000030000238300002385000000000000000000000685000012920000001400000052000015210000000000000000000N
031989101011103599TARIFA                                                                                              000400400000014548000170001036900010369000000000000000000003012000053790000012600000352000067360000000000000000000N
031989101011103699TORRE-ALHAQUIME                                                                                     000600600000001058000010000079000000790000000000000000000000196000003870000000200000011000004630000000000000000000N
031989101011103799TREBUJENA                                                                                           003203200000006774000080000491700004917000000000000000000002314000034870000003400000075000040380000000000000000000N
031989101011103899UBRIQUE                                                                                             000600600000017747000180001241700012417000000000000000000005572000081840000013500000290000094810000000000000000000N
031989101011103999VEJER DE LA FRONTERA                                                                                001501500000012969000130000928600009286000000000000000000002302000037860000008800000270000047050000000000000000000N
031989101011104099VILLALUENGA DEL ROSARIO                                                                             000600600000000507000010000038100000381000000000000000000000095000001480000000100000006000001840000000000000000000N
031989101011104199VILLAMARTIN                                                                                         000600600000012050000110000834200008346000000000000000000003031000048480000010500000233000058720000000000000000000N
031989101011104299ZAHARA                                                                                              000600600000001688000020000127000001270000000000000000000000401000006560000000900000030000008060000000000000000000N
031989101011400199ADAMUZ                                                                                              002102100000004580000040000329600003296000000000000000000001295000021330000003200000056000027070000000000000000000N
031989101011400299AGUILAR                                                                                             000200200000012743000110000950500009505000000000000000000003666000059080000006700000249000076630000000000000000000N
031989101011400399ALCARACEJOS                                                                                         005405400000001518000010000118300001183000000000000000000000520000008480000000600000034000009480000000000000000000N
031989101011400499ALMEDINILLA                                                                                         005505500000002812000030000216600002166000000000000000000000816000013750000003800000046000016030000000000000000000N
031989101011400599ALMODOVAR DEL RIO                                                                                   005305300000006837000060000502400005024000000000000000000001960000032940000003300000127000036090000000000000000000N
031989101011400699AÑORA                                                                                               005405400000001834000020000138900001389000000000000000000000663000009670000000400000017000011030000000000000000000N
031989101011400799BAENA                                                                                               000700700000018701000150001330800013308000000000000000000004786000079520000013400000316000094850000000000000000000N
031989101011400899BELALCAZAR                                                                                          005205200000004138000040000327400003274000000000000000000001274000019290000002300000056000022880000000000000000000N
031989101011400999BELMEZ                                                                                              005205200000004647000060000362000003620000000000000000000001576000022430000003000000151000024330000000000000000000N
031989101011401099BENAMEJI                                                                                            003803800000004614000040000354300003543000000000000000000001287000021610000003000000088000026150000000000000000000N
031989101011401199BLAZQUEZ (LOS)                                                                                      005205200000000805000010000062700000627000000000000000000000234000004000000000500000003000004910000000000000000000N
031989101011401299BUJALANCE                                                                                           002102100000008864000090000649900006499000000000000000000002933000045080000002900000174000051220000000000000000000N
031989101011401399CABRA                                                                                               001301300000020134000190001523700015237000000000000000000005182000087390000024300000509000109660000000000000000000N
031989101011401499CAÑETE DE LAS TORRES                                                                                002102100000003472000020000266200002662000000000000000000001111000018810000003200000056000021590000000000000000000N
031989101011401599CARCABUEY                                                                                           005505500000003070000030000243400002434000000000000000000000884000015050000001700000056000018610000000000000000000N
031989101011401699CARDEÑA                                                                                             002102100000002210000030000171500001715000000000000000000000732000011470000001200000028000012980000000000000000000N
031989101011401799CARLOTA (LA)                                                                                        005305300000008775000120000655500006555000000000000000000002239000040630000007000000187000049210000000000000000000N
031989101011401899CARPIO (EL)                                                                                         002102100000004847000060000356300003563000000000000000000001532000023340000002000000069000027880000000000000000000N
031989101011401999CASTRO DEL RIO                                                                                      002102100000007858000090000601500006015000000000000000000002257000040420000000000000156000049210000000000000000000N
031989101011402099CONQUISTA                                                                                           005405400000000588000010000050000000500000000000000000000000202000002800000000300000015000003160000000000000000000N
031989101011402199CORDOBA                                                                                             002102100000295290003050022036300220516000000000000000000087994001265330000247200005416001458810000000000000000000N
031989101011402299DOÑA MENCIA                                                                                         001301300000005162000040000384800003848000000000000000000001377000023110000001700000050000029130000000000000000000N
031989101011402399DOS TORRES                                                                                          005405400000002496000030000195600001956000000000000000000000857000013720000001000000064000015070000000000000000000N
031989101011402499ENCINAS REALES                                                                                      003803800000002209000020000175600001756000000000000000000000774000013210000001900000045000014490000000000000000000N
031989101011402599ESPEJO                                                                                              002102100000005173000040000338100003381000000000000000000001682000026800000001000000071000029940000000000000000000N
031989101011402699ESPIEL                                                                                              005205200000002873000030000210100002101000000000000000000000895000013190000002100000052000015220000000000000000000N
031989101011402799FERNAN NUÑEZ                                                                                        004204200000009123000090000684300006843000000000000000000002835000045340000008300000136000052300000000000000000000N
031989101011402899FUENTE LA LANCHA                                                                                    005205200000000528000010000040700000407000000000000000000000185000002950000000000000008000003350000000000000000000N
031989101011402999FUENTE OBEJUNA                                                                                      005205200000007018000100000534200005342000000000000000000002236000032890000002500000134000039050000000000000000000N
031989101011403099FUENTE PALMERA                                                                                      005305300000008964000110000655600006556000000000000000000002499000044020000003900000118000052480000000000000000000N
031989101011403199FUENTE TOJAR                                                                                        005505500000000926000010000076700000767000000000000000000000317000005250000000000000021000005880000000000000000000N
031989101011403299GRANJUELA (LA)                                                                                      005205200000000560000010000044800000448000000000000000000000146000002720000000000000007000003240000000000000000000N
031989101011403399GUADALCAZAR                                                                                         005305300000001236000010000092200000922000000000000000000000294000006120000000500000019000007190000000000000000000N
031989101011403499GUIJO (EL)                                                                                          005405400000000527000010000041700000417000000000000000000000152000002500000000000000016000003110000000000000000000N
031989101011403599HINOJOSA DEL DUQUE                                                                                  005205200000008227000080000646200006462000000000000000000002664000040570000005300000230000047490000000000000000000N
031989101011403699HORNACHUELOS                                                                                        005305300000005258000040000380500003805000000000000000000001586000024560000002600000091000027910000000000000000000N
031989101011403799IZNAJAR                                                                                             003803800000006282000080000474800004748000000000000000000001207000025530000007900000132000031730000000000000000000N
031989101011403899LUCENA                                                                                              003803800000031035000260002249200022495000000000000000000007049000121760000032800000822000153210000000000000000000N
031989101011403999LUQUE                                                                                               000700700000003443000030000277200002772000000000000000000000853000016420000004100000117000020080000000000000000000N
031989101011404099MONTALBAN                                                                                           004204200000004371000040000327100003271000000000000000000001443000023700000002800000057000026720000000000000000000N
031989101011404199MONTEMAYOR                                                                                          004204200000003686000040000273200002732000000000000000000001186000019230000001600000036000022520000000000000000000N
031989101011404299MONTILLA                                                                                            004204200000022069000200001697000016970000000000000000000007331000116120000014400000458000134850000000000000000000N
031989101011404399MONTORO                                                                                             002102100000010020000080000714400007154000000000000000000002899000045130000003100000147000055870000000000000000000N
031989101011404499MONTURQUE                                                                                           000200200000002003000020000145200001452000000000000000000000489000008180000000700000043000011780000000000000000000N
031989101011404599MORILES                                                                                             000200200000003665000030000271600002716000000000000000000001035000017450000001500000063000021510000000000000000000N
031989101011404699NUEVA-CARTEYA                                                                                       001301300000005808000060000411600004116000000000000000000001518000028410000003200000065000033640000000000000000000N
031989101011404799OBEJO                                                                                               002102100000001505000020000115100001151000000000000000000000507000007410000001400000028000008110000000000000000000N
031989101011404899PALENCIANA                                                                                          003803800000001764000020000130900001309000000000000000000000457000007810000000600000028000009140000000000000000000N
031989101011404999PALMA DEL RIO                                                                                       005305300000018561000150001349600013496000000000000000000005589000088720000015700000327000099780000000000000000000N
031989101011405099PEDRO ABAD                                                                                          002102100000003032000040000229000002290000000000000000000001083000016030000000400000026000019050000000000000000000N
031989101011405199PEDROCHE                                                                                            005405400000001942000020000154000001540000000000000000000000618000009350000000700000032000011470000000000000000000N
031989101011405299PEÑARROYA-PUEBLONUEVO                                                                               005205200000013779000140001059800010616000000000000000000004114000061160000010400000285000069310000000000000000000N
031989101011405399POSADAS                                                                                             005305300000007041000060000517700005177000000000000000000002038000033360000005700000089000038900000000000000000000N
031989101011405499POZOBLANCO                                                                                          005405400000014513000130001115600011156000000000000000000005333000074050000012700000213000088670000000000000000000N
031989101011405599PRIEGO DE CORDOBA                                                                                   005505500000020624000240001626100016264000000000000000000005297000098020000014400000582000116980000000000000000000N
031989101011405699PUENTE-GENIL                                                                                        000200200000026588000230001997700019977000000000000000000007492000122310000014500000538000144040000000000000000000N
031989101011405799RAMBLA (LA)                                                                                         004204200000007056000060000495200004952000000000000000000002092000033120000003600000111000039950000000000000000000N
031989101011405899RUTE                                                                                                003803800000010145000090000777900007779000000000000000000002890000047500000004900000245000059060000000000000000000N
031989101011405999S SBT.DE LOS BALLESTEROS                                                                            004204200000000816000010000064500000645000000000000000000000306000004010000000400000026000004870000000000000000000N
031989101011406099SANTAELLA                                                                                           004204200000005728000050000402900004029000000000000000000001538000025310000006400000070000031680000000000000000000N
031989101011406199SANTA EUFEMIA                                                                                       005405400000001389000010000108900001089000000000000000000000465000006940000000400000010000008720000000000000000000N
031989101011406299TORRECAMPO                                                                                          005405400000001686000020000133100001331000000000000000000000518000008040000001700000023000009600000000000000000000N
031989101011406399VALENZUELA                                                                                          000700700000001695000020000135200001352000000000000000000000533000008960000000500000042000010490000000000000000000N
031989101011406499VALSEQUILLO                                                                                         005205200000000648000010000049700000497000000000000000000000215000003050000000600000006000003520000000000000000000N
031989101011406599VICTORIA (LA)                                                                                       004204200000001732000020000131500001315000000000000000000000512000008720000001500000033000011040000000000000000000N
031989101011406699VILLA DEL RIO                                                                                       002102100000007092000060000515000005150000000000000000000002077000033150000004000000087000040330000000000000000000N
031989101011406799VILLAFRANCA DE CORDOBA                                                                              002102100000003540000030000267400002674000000000000000000001065000017470000001700000049000020640000000000000000000N
031989101011406899VILLAHARTA                                                                                          005205200000000675000010000053400000534000000000000000000000251000003500000000400000009000003950000000000000000000N
031989101011406999VILLANUEVA DE CORDOBA                                                                               005405400000010443000120000824300008243000000000000000000003797000055040000002700000184000066090000000000000000000N
031989101011407099VILLANUEVA DEL DUQUE                                                                                005405400000002177000020000171200001712000000000000000000000647000009880000000800000051000011960000000000000000000N
031989101011407199VILLANUEVA DEL REY                                                                                  005205200000001415000020000114900001149000000000000000000000474000006630000000900000036000007950000000000000000000N
031989101011407299VILLARALTO                                                                                          005405400000001887000020000152500001525000000000000000000000853000011330000000300000023000012530000000000000000000N
031989101011407399VILLAVICIOSA DE CORDOBA                                                                             002102100000004319000040000328200003282000000000000000000001276000019540000002500000068000025210000000000000000000N
031989101011407499VISO (EL)                                                                                           005405400000003653000040000284600002852000000000000000000001365000019090000000300000037000021610000000000000000000N
031989101011407599ZUHEROS                                                                                             001301300000001061000010000082400000824000000000000000000000370000004960000000400000024000006110000000000000000000N
031989101011800199AGRON                                                                                               012212200000000484000010000037800000378000000000000000000000118000002160000000000000011000002490000000000000000000N
031989101011800299ALAMEDILLA                                                                                          008908900000001143000010000080900000809000000000000000000000351000005200000000200000007000005780000000000000000000N
031989101011800399ALBOLOTE                                                                                            008708700000008087000070000614600006146000000000000000000002321000037180000006500000201000043070000000000000000000N
031989101011800499ALBONDON                                                                                            014714700000001478000020000111100001111000000000000000000000311000005290000000500000020000007050000000000000000000N
031989101011800599ALBUÑAN                                                                                             008908900000000547000010000040600000406000000000000000000000130000002180000000200000006000002450000000000000000000N
031989101011800699ALBUÑOL                                                                                             014714700000005529000060000406800004068000000000000000000001059000018850000001600000077000025850000000000000000000N
031989101011800799ALBUÑUELAS                                                                                          014714700000001421000020000110300001103000000000000000000000468000006720000000000000025000007860000000000000000000N
031989101011801099ALDEIRE                                                                                             008908900000000987000010000074400000744000000000000000000000168000003280000000000000031000004870000000000000000000N
031989101011801199ALFACAR                                                                                             008708700000003056000020000240400002404000000000000000000000861000014520000003400000054000017210000000000000000000N
031989101011801299ALGARINEJO                                                                                          012212200000005188000070000393100003881000000000000000000000818000016860000004400000086000020910000000000000000000N
031989101011801399ALHAMA DE GRANADA                                                                                   012212200000006141000050000468700004703000000000000000000001659000027820000004300000170000033250000000000000000000N
031989101011801499ALHENDIN                                                                                            008708700000003361000020000250300002503000000000000000000000804000014410000006000000045000017470000000000000000000N
031989101011801599ALICUN DE ORTEGA                                                                                    008908900000000806000010000057900000579000000000000000000000197000003450000000000000012000003820000000000000000000N
031989101011801699ALMEGIJAR                                                                                           014714700000000552000010000045400000454000000000000000000000097000002450000000000000003000003080000000000000000000N
031989101011801799ALMUÑECAR                                                                                           014014000000017149000110001257100012571000000000000000000004288000068920000006900000315000084070000000000000000000N
031989101011801899ALQUIFE                                                                                             008908900000001390000010000103300001033000000000000000000000316000005150000000200000028000007190000000000000000000N
031989101011802099ARENAS DEL REY                                                                                      012212200000002167000030000171900001719000000000000000000000511000009630000000100000028000011980000000000000000000N
031989101011802199ARMILLA                                                                                             008708700000011743000050000737200007381000000000000000000002172000035680000002100000237000041460000000000000000000N
031989101011802299ATARFE                                                                                              008708700000009713000070000712800007128000000000000000000002729000044020000008900000245000048430000000000000000000N
031989101011802399BAZA                                                                                                002302300000020768000140001525300015253000000000000000000003905000067990000013100000565000081540000000000000000000N
031989101011802499BEAS DE GRANADA                                                                                     008708700000000834000010000067800000678000000000000000000000240000004420000000000000013000004940000000000000000000N
031989101011802599BEAS DE GUADIX                                                                                      008908900000000481000010000033000000330000000000000000000000134000001950000000000000008000002110000000000000000000N
031989101011802799BENALUA DE GUADIX                                                                                   008908900000003586000020000253200002532000000000000000000000801000014350000000000000021000017510000000000000000000N
031989101011802899BENALUA DE LAS VILLAS                                                                               008708700000001383000010000108100001081000000000000000000000375000006900000000000000019000008460000000000000000000N
031989101011802999BENAMAUREL                                                                                          002302300000002741000020000208600002086000000000000000000000553000011470000001300000018000013760000000000000000000N
031989101011803099BERCHULES                                                                                           014714700000001014000020000077500000775000000000000000000000271000004260000000100000021000004850000000000000000000N
031989101011803299BUBION                                                                                              014714700000000327000010000024200000242000000000000000000000061000001050000000000000000000001490000000000000000000N
031989101011803399BUSQUISTAR                                                                                          014714700000000434000010000032700000327000000000000000000000073000001330000000400000005000001830000000000000000000N
031989101011803499CACIN                                                                                               012212200000000965000020000078000000780000000000000000000000254000004560000000400000041000005200000000000000000000N
031989101011803599CADIAR                                                                                              014714700000002159000030000164700001647000000000000000000000521000008100000000700000043000010480000000000000000000N
031989101011803699CAJAR                                                                                               008708700000001623000020000132800001328000000000000000000000511000008000000000600000042000009560000000000000000000N
031989101011803799CALICASAS                                                                                           008708700000000589000010000043900000439000000000000000000000153000002840000000200000003000003740000000000000000000N
031989101011803899CAMPOTEJAR                                                                                          008708700000001461000010000112900001129000000000000000000000480000006650000000300000021000008980000000000000000000N
031989101011803999CANILES                                                                                             002302300000006109000070000437100004371000000000000000000000932000021400000003900000163000026390000000000000000000N
031989101011804099CAÑAR                                                                                               014714700000000398000010000030900000309000000000000000000000077000001250000000200000000000001680000000000000000000N
031989101011804299CAPILEIRA                                                                                           014714700000000598000010000043900000439000000000000000000000132000002350000000300000013000003080000000000000000000N
031989101011804399CARATAUNAS                                                                                          014714700000000175000010000014200000142000000000000000000000043000000830000000000000002000000940000000000000000000N
031989101011804499CASTARAS                                                                                            014714700000000366000010000031300000313000000000000000000000044000000990000000100000002000001380000000000000000000N
031989101011804599CASTILLEJAR                                                                                         002302300000002431000030000193600001935000000000000000000000547000009260000001600000024000011530000000000000000000N
031989101011804699CASTRIL                                                                                             002302300000003645000060000274200002743000000000000000000000426000010610000000900000062000013650000000000000000000N
031989101011804799CENES DE LA VEGA                                                                                    008708700000001398000010000118700001187000000000000000000000405000007170000000600000040000008620000000000000000000N
031989101011804899CIJUELA                                                                                             008708700000001177000010000093100000931000000000000000000000385000006060000000100000018000007200000000000000000000N
031989101011804999COGOLLOS DE GUADIX                                                                                  008908900000000858000010000067900000679000000000000000000000253000006530000000100000014000004450000000000000000000N
031989101011805099COGOLLOS VEGA                                                                                       008708700000001852000020000144600001446000000000000000000000514000009100000003100000077000010250000000000000000000N
031989101011805199COLOMERA                                                                                            008708700000002030000020000156300001563000000000000000000000522000008930000000900000037000010940000000000000000000N
031989101011805399CORTES DE BAZA                                                                                      002302300000003320000050000248100002481000000000000000000000578000012180000000900000033000015280000000000000000000N
031989101011805499CORTES Y GRAENA                                                                                     008908900000001009000010000081300000813000000000000000000000221000004910000000300000009000006210000000000000000000N
031989101011805699CULLAR                                                                                              002302300000005859000070000449700004500000000000000000000001585000027180000002800000064000032040000000000000000000N
031989101011805799CULLAR VEGA                                                                                         008708700000001420000010000113000001130000000000000000000000386000007600000001300000028000008630000000000000000000N
031989101011805999CHAUCHINA                                                                                           008708700000004009000030000294300002943000000000000000000001101000018990000001400000077000021610000000000000000000N
031989101011806199CHIMENEAS                                                                                           012212200000001633000020000128000001281000000000000000000000446000007990000001300000053000009230000000000000000000N
031989101011806299CHURRIANA DE LA VEGA                                                                                008708700000004749000020000352600003526000000000000000000001120000021140000005900000099000023890000000000000000000N
031989101011806399DARRO                                                                                               008708700000001625000010000113500001135000000000000000000000375000006680000000300000014000007770000000000000000000N
031989101011806499DEHESAS DE GUADIX                                                                                   008908900000001013000010000056400000564000000000000000000000098000002350000000000000004000002860000000000000000000N
031989101011806699DEIFONTES                                                                                           008708700000002452000020000187800001878000000000000000000000742000011190000000100000046000013770000000000000000000N
031989101011806799DIEZMA                                                                                              008708700000001125000010000086300000863000000000000000000000256000005260000000400000010000006290000000000000000000N
031989101011806899DILAR                                                                                               008708700000001299000010000107000001072000000000000000000000385000006650000000100000022000007750000000000000000000N
031989101011806999DOLAR                                                                                               008908900000000779000010000059200000592000000000000000000000275000003690000000200000016000004130000000000000000000N
031989101011807099DUDAR                                                                                               008708700000000279000010000021200000212000000000000000000000032000001000000000000000018000001260000000000000000000N
031989101011807199DURCAL                                                                                              014714700000005485000030000433100004331000000000000000000001557000025200000002800000109000031160000000000000000000N
031989101011807299ESCUZAR                                                                                             008708700000001143000010000086900000869000000000000000000000360000005450000000600000016000005370000000000000000000N
031989101011807499FERREIRA                                                                                            008908900000000453000010000036100000361000000000000000000000090000001740000000300000009000002640000000000000000000N
031989101011807699FONELAS                                                                                             008908900000001601000010000109500001095000000000000000000000282000005240000000700000026000006170000000000000000000N
031989101011807899FREILA                                                                                              002302300000001424000010000101200001012000000000000000000000291000005620000000200000025000006460000000000000000000N
031989101011807999FUENTEVAQUEROS                                                                                      008708700000003715000030000279100002792000000000000000000001315000020430000002900000088000020880000000000000000000N
031989101011808299GALERA                                                                                              002302300000001937000020000147200001472000000000000000000000384000006570000001100000056000008310000000000000000000N
031989101011808399GOBERNADOR                                                                                          008908900000000446000010000036700000367000000000000000000000145000002540000000100000001000002860000000000000000000N
031989101011808499GOJAR                                                                                               008708700000001969000020000156800001568000000000000000000000559000009540000000800000030000011180000000000000000000N
031989101011808599GOR                                                                                                 008908900000001572000010000121300001213000000000000000000000336000005680000000300000017000006860000000000000000000N
031989101011808699GORAFE                                                                                              008908900000000761000010000055000000550000000000000000000000226000003200000000300000006000003790000000000000000000N
031989101011808799GRANADA                                                                                             008708700000256073001730019599900196543000000000000000000068975001059950000192500004998001259250000000000000000000N
031989101011808899GUADAHORTUNA                                                                                        008708700000002530000020000179600001796000000000000000000000606000010640000000000000012000013160000000000000000000N
031989101011808999GUADIX                                                                                              008908900000020155000170001406900014075000000000000000000004311000077930000002000000377000090500000000000000000000N
031989101011809399GUALCHOS                                                                                            014014000000002962000030000215100002151000000000000000000000715000012320000000100000023000015860000000000000000000N
031989101011809499GUEJAR SIERRA                                                                                       008708700000002576000030000207800002078000000000000000000000707000011410000000000000058000014320000000000000000000N
031989101011809599GUEVEJAR                                                                                            008708700000001124000010000085600000856000000000000000000000355000005560000000000000014000007160000000000000000000N
031989101011809699HUELAGO                                                                                             008908900000000764000010000054900000549000000000000000000000194000003000000000000000001000003860000000000000000000N
031989101011809799HUENEJA                                                                                             008908900000001631000030000123700001237000000000000000000000246000005230000000000000033000007190000000000000000000N
031989101011809899HUESCAR                                                                                             002302300000010333000100000766200007703000000000000000000002111000034400000003100000214000040380000000000000000000N
031989101011809999HUETOR SANTILLAN                                                                                    008708700000001359000010000106500001065000000000000000000000410000006560000001100000034000008150000000000000000000N
031989101011810099HUETOR TAJAR                                                                                        012212200000007469000060000588700005886000000000000000000002132000034270000005600000188000037410000000000000000000N
031989101011810199HUETOR VEGA                                                                                         008708700000005675000040000424700004247000000000000000000001316000021810000004900000084000027450000000000000000000N
031989101011810299ILLORA                                                                                              012212200000010278000090000805600008056000000000000000000003133000052490000006700000240000060760000000000000000000N
031989101011810399ITRABO                                                                                              014014000000001200000010000093300000933000000000000000000000361000006310000000200000004000007140000000000000000000N
031989101011810599IZNALLOZ                                                                                            008708700000006912000060000499700004997000000000000000000001662000028590000002800000094000036160000000000000000000N
031989101011810799JAYENA                                                                                              012212200000001506000010000113700001137000000000000000000000446000006970000000200000014000007770000000000000000000N
031989101011810899JEREZ DEL MARQUESADO                                                                                008908900000001329000010000107800001078000000000000000000000460000007210000001300000035000007140000000000000000000N
031989101011810999JETE                                                                                                014014000000000721000010000056700000567000000000000000000000198000003560000000100000006000004570000000000000000000N
031989101011811199JUN                                                                                                 008708700000000846000010000063200000632000000000000000000000250000003890000000000000032000004650000000000000000000N
031989101011811299JUVILES                                                                                             014714700000000203000010000014500000145000000000000000000000045000000730000000000000001000000840000000000000000000N
031989101011811499LA CALAHORRA                                                                                        008908900000001084000010000082800000828000000000000000000000227000004300000000300000022000005230000000000000000000N
031989101011811599LACHAR                                                                                              008708700000002100000020000160600001609000000000000000000000632000010000000001400000042000011910000000000000000000N
031989101011811699LANJARON                                                                                            014714700000004231000040000321900003219000000000000000000001289000018830000003400000134000022250000000000000000000N
031989101011811799LANTEIRA                                                                                            008908900000000787000010000063900000639000000000000000000000241000003760000000100000019000004600000000000000000000N
031989101011811999LECRIN                                                                                              014714700000002616000050000208300002083000000000000000000000713000012660000000600000054000015910000000000000000000N
031989101011812099LENTEGI                                                                                             014014000000000373000010000028500000285000000000000000000000134000001970000000000000006000002350000000000000000000N
031989101011812199LOBRAS                                                                                              014714700000000257000010000021700000217000000000000000000000051000001000000000000000002000001320000000000000000000N
031989101011812299LOJA                                                                                                012212200000020279000310001536600015367000000000000000000004543000080900000024000000742000095120000000000000000000N
031989101011812399LUGROS                                                                                              008908900000000623000010000045400000454000000000000000000000170000002330000000000000002000002930000000000000000000N
031989101011812499LUJAR                                                                                               014014000000000695000010000050000000500000000000000000000000133000002410000000200000009000003250000000000000000000N
031989101011812699MALAHA                                                                                              008708700000001654000010000117600001176000000000000000000000543000008140000000600000033000008880000000000000000000N
031989101011812799MARACENA                                                                                            008708700000011095000080000848900008489000000000000000000003250000050660000009000000383000057490000000000000000000N
031989101011812899MARCHAL                                                                                             008908900000000534000010000042600000426000000000000000000000067000001720000000100000007000002650000000000000000000N
031989101011813299MOCLIN                                                                                              008708700000005037000060000390000003918000000000000000000001476000024760000002600000054000029180000000000000000000N
031989101011813399MOLVIZAR                                                                                            014014000000002427000020000198100001981000000000000000000000762000012270000000300000020000015060000000000000000000N
031989101011813499MONACHIL                                                                                            008708700000003725000030000301200003012000000000000000000000882000014790000002600000101000017360000000000000000000N
031989101011813599MONTEFRIO                                                                                           012212200000008359000070000635800006858000000000000000000001939000032030000007200000168000039330000000000000000000N
031989101011813699MONTEJICAR                                                                                          008708700000003005000020000220200002202000000000000000000000852000014420000000400000032000017270000000000000000000N
031989101011813799MONTILLANA                                                                                          008708700000001415000010000113800001138000000000000000000000422000007000000000200000038000007920000000000000000000N
031989101011813899MORALEDA DE ZAFAYONA                                                                                012212200000002547000020000187700001877000000000000000000000743000011330000000300000058000012790000000000000000000N
031989101011814099MOTRIL                                                                                              014014000000044482000310003227000032273000000000000000000010527000169780000019700001108000201800000000000000000000N
031989101011814199MURTAS                                                                                              014714700000001225000010000096900000969000000000000000000000230000004030000000200000030000004840000000000000000000N
031989101011814399NIGUELAS                                                                                            014714700000001217000010000098800000988000000000000000000000366000006270000000700000025000007240000000000000000000N
031989101011814499NIVAR                                                                                               008708700000000487000010000038700000387000000000000000000000150000002500000000100000011000002980000000000000000000N
031989101011814599OGIJARES                                                                                            008708700000002921000020000259200002592000000000000000000000967000016310000002600000133000018660000000000000000000N
031989101011814699ORCE                                                                                                002302300000001626000020000130700001315000000000000000000000478000007080000001600000039000008660000000000000000000N
031989101011814799ORGIVA                                                                                              014714700000005155000030000402000004020000000000000000000001209000020140000001500000073000024810000000000000000000N
031989101011814899OTIVAR                                                                                              014014000000001213000010000091600000916000000000000000000000278000005180000000600000021000006860000000000000000000N
031989101011814999OTURA                                                                                               008708700000002209000020000163100001631000000000000000000000555000010260000001400000069000012020000000000000000000N
031989101011815099PADUL                                                                                               008708700000006056000040000457200004607000000000000000000001573000027130000001500000113000032590000000000000000000N
031989101011815199PAMPANEIRA                                                                                          014714700000000358000010000027900000279000000000000000000000090000001550000000100000006000001860000000000000000000N
031989101011815299PEDRO MARTINEZ                                                                                      008908900000002017000020000149900001499000000000000000000000675000009190000000400000012000010230000000000000000000N
031989101011815399PELIGROS                                                                                            008708700000005275000040000391300003913000000000000000000001560000024680000001300000112000028470000000000000000000N
031989101011815499PEZA (LA)                                                                                           008908900000001740000010000126600001266000000000000000000000389000006400000000100000026000007400000000000000000000N
031989101011815799PINOS GENIL                                                                                         008708700000000910000010000071400000714000000000000000000000325000004650000001000000020000005300000000000000000000N
031989101011815899PINOS PUENTE                                                                                        008708700000013370000090001025700010257000000000000000000003611000063000000007700000141000075190000000000000000000N
031989101011815999PIÑAR                                                                                               008708700000001549000020000119400001194000000000000000000000405000007030000000200000017000008950000000000000000000N
031989101011816199POLICAR                                                                                             008908900000000274000010000022000000220000000000000000000000066000001500000000000000000000001710000000000000000000N
031989101011816299POLOPOS                                                                                             014714700000001387000030000103800001038000000000000000000000347000006160000000000000011000007630000000000000000000N
031989101011816399PORTUGOS                                                                                            014714700000000438000010000037300000373000000000000000000000108000001940000000300000015000002780000000000000000000N
031989101011816499PUEBLA DE DON FADRIQUE                                                                              002302300000002894000030000223900002239000000000000000000000547000010670000003900000105000014140000000000000000000N
031989101011816599PULIANAS                                                                                            008708700000002291000020000168200001682000000000000000000000722000010780000000800000042000011830000000000000000000N
031989101011816799PURULLENA                                                                                           008908900000002757000030000190300001903000000000000000000000520000009960000000600000024000012670000000000000000000N
031989101011816899QUENTAR                                                                                             008708700000001253000010000093100000931000000000000000000000275000005090000000000000031000006220000000000000000000N
031989101011817099RUBITE                                                                                              014714700000000554000010000043100000431000000000000000000000142000002130000000200000000000002440000000000000000000N
031989101011817199SALAR                                                                                               012212200000002867000030000218200002182000000000000000000000850000013840000001000000019000016670000000000000000000N
031989101011817399SALOBREÑA                                                                                           014014000000008926000060000663200006632000000000000000000002135000037340000006500000152000044160000000000000000000N
031989101011817499SANTA CRUZ DEL COMERCIO                                                                             012212200000000627000010000047500000475000000000000000000000192000003010000000400000011000003480000000000000000000N
031989101011817599SANTA FE                                                                                            008708700000011695000090000855000008550000000000000000000003098000051400000005800000203000061300000000000000000000N
031989101011817699SOPORTUJAR                                                                                          014714700000000274000010000024100000241000000000000000000000067000001220000000100000005000001460000000000000000000N
031989101011817799SORVILAN                                                                                            014714700000001025000020000073000000730000000000000000000000195000003620000000400000012000004390000000000000000000N
031989101011817899TORRE CARDELA                                                                                       008708700000001500000010000114300001144000000000000000000000355000006720000000100000003000008360000000000000000000N
031989101011817999TORVIZCON                                                                                           014714700000001309000010000098000000980000000000000000000000244000004180000001200000014000005920000000000000000000N
031989101011818099TREVELEZ                                                                                            014714700000000877000010000067200000672000000000000000000000161000003000000000000000015000004230000000000000000000N
031989101011818199TURON                                                                                               014714700000000515000010000038000000380000000000000000000000126000001920000000000000002000002550000000000000000000N
031989101011818299UGIJAR                                                                                              014714700000003149000040000237100002371000000000000000000000766000012690000001600000074000015260000000000000000000N
031989101011818399VALOR                                                                                               014714700000001202000010000097400000974000000000000000000000255000005150000000400000039000006200000000000000000000N
031989101011818499VELEZ BENAUDALLA                                                                                    014014000000002630000020000197500001975000000000000000000000813000012860000000300000053000014790000000000000000000N
031989101011818599VENTAS DE HUELMA                                                                                    012212200000000777000010000059100000591000000000000000000000248000003660000000100000018000004260000000000000000000N
031989101011818799VILLANUEVA DE LAS TORRES                                                                            008908900000001118000010000077300000773000000000000000000000309000004840000000600000007000005390000000000000000000N
031989101011818899VILLANUEVA MESIA                                                                                    012212200000001814000010000139000001390000000000000000000000480000008880000002200000051000009770000000000000000000N
031989101011818999VIZNAR                                                                                              008708700000000683000010000054500000545000000000000000000000178000003120000000000000024000003840000000000000000000N
031989101011819299ZAFARRAYA                                                                                           012212200000002244000030000173400001734000000000000000000000530000010870000001300000033000013900000000000000000000N
031989101011819399ZUBIA                                                                                               008708700000007120000040000539200005392000000000000000000001919000031230000006200000186000036830000000000000000000N
031989101011819499ZUJAR                                                                                               002302300000003547000030000257100002571000000000000000000000853000014010000001000000031000018200000000000000000000N
031989101011890199TAHA (LA)                                                                                           014714700000000920000010000073800000730000000000000000000000210000003700000000000000011000004250000000000000000000N
031989101011890299VALLE (EL)                                                                                          014714700000001644000030000126200001262000000000000000000000542000008420000000400000031000009190000000000000000000N
031989101011890399NEVADA                                                                                              014714700000001599000030000123000001230000000000000000000000446000006860000000400000037000008430000000000000000000N
031989101011890499ALPUJARRA DE LA SIERRA                                                                              014714700000001484000020000112500001125000000000000000000000382000005610000001800000013000007200000000000000000000N
031989101011890599GABIAS (LAS)                                                                                        008708700000005373000050000410100004101000000000000000000001741000026860000010400000002000030220000000000000000000N
031989101011890699GUAJARES (LOS)                                                                                      014014000000001630000030000126500001265000000000000000000000410000007350000000400000029000009080000000000000000000N
031989101011890799VALLE DEL ZABALI                                                                                    008908900000002657000030000205900002059000000000000000000000688000011810000000600000028000014710000000000000000000N
031989101011890899VILLAMENA                                                                                           014714700000001168000020000091900000919000000000000000000000303000005750000000300000010000006700000000000000000000N
031989101011890999MORELABOR                                                                                           008708700000001161000010000087400000874000000000000000000000330000005300000000300000008000006990000000000000000000N
031989101011891099PINAR (EL)                                                                                          014714700000001478000020000109500001095000000000000000000000306000005820000000400000021000007410000000000000000000N
031989101011891199VEGAS DEL GENIL                                                                                     008708700000002595000030000206200002062000000000000000000000689000012100000002300000066000013700000000000000000000N
031989101011891299CUEVAS DEL CAMPO                                                                                    002302300000002588000030000196100001961000000000000000000000488000009550000000500000068000011530000000000000000000N
031989101011891399ZAGRA                                                                                               012212200000001501000020000109900001099000000000000000000000270000005500000001900000010000007540000000000000000000N
031989101012100199ALAJAR                                                                                              000700700000000908000010000067400000674000000000000000000000270000003790000000600000009000004510000000000000000000N
031989101012100299ALJARAQUE                                                                                           004104100000005390000050000391900003919000000000000000000001116000018820000003000000082000024350000000000000000000N
031989101012100399ALMENDRO (EL)                                                                                       001001000000000889000010000063800000638000000000000000000000234000003760000001000000017000004460000000000000000000N
031989101012100499ALMONASTER LA REAL                                                                                  000700700000002377000040000184600001846000000000000000000000602000009800000000700000009000012290000000000000000000N
031989101012100599ALMONTE                                                                                             005405400000014604000140001097900011060000000000000000000003324000056740000011200000424000071170000000000000000000N
031989101012100699ALOSNO                                                                                              007207200000005045000060000392100003937000000000000000000001734000025140000001700000091000028550000000000000000000N
031989101012100799ARACENA                                                                                             000700700000006331000060000484500004845000000000000000000001726000024960000004900000108000032010000000000000000000N
031989101012100899AROCHE                                                                                              000700700000003845000040000294700002947000000000000000000001079000015450000002100000076000019700000000000000000000N
031989101012100999ARROYOMOLINOS DE LEON                                                                               000700700000001320000020000103400001034000000000000000000000380000005700000002300000009000007070000000000000000000N
031989101012101099AYAMONTE                                                                                            001001000000016745000160001143200011454000000000000000000002802000044840000007300000286000058740000000000000000000N
031989101012101199BEAS                                                                                                004104100000004010000040000305500003055000000000000000000001270000020720000002700000054000024720000000000000000000N
031989101012101299BERROCAL                                                                                            007207200000000446000010000037900000379000000000000000000000150000002510000000000000005000003030000000000000000000N
031989101012101399BOLLULLOS DEL CONDADO                                                                               005405400000012304000110000938300009383000000000000000000003077000052510000004900000293000065820000000000000000000N
031989101012101499BONARES                                                                                             005005000000004872000030000357600003576000000000000000000001382000023670000001400000078000028780000000000000000000N
031989101012101599CABEZAS RUBIAS                                                                                      007207200000000960000010000074900000749000000000000000000000196000003030000000500000008000003620000000000000000000N
031989101012101699CALA                                                                                                000700700000001558000020000114700001147000000000000000000000525000007790000001800000019000008900000000000000000000N
031989101012101799CALAÑAS                                                                                             007207200000005371000050000424000004240000000000000000000001674000025870000002900000050000030070000000000000000000N
031989101012101899CAMPILLO (EL)                                                                                       007207200000002912000030000212700002127000000000000000000000808000012910000001500000065000014200000000000000000000N
031989101012101999CAMPOFRIO                                                                                           000700700000000923000010000071300000713000000000000000000000232000004080000000900000017000005110000000000000000000N
031989101012102099CAÑAVERAL DE LEON                                                                                   000700700000000603000010000048300000483000000000000000000000192000002610000000200000009000002910000000000000000000N
031989101012102199CARTAYA                                                                                             004104100000009867000090000727300007288000000000000000000001962000033860000007000000143000042810000000000000000000N
031989101012102299CASTAÑO DEL ROBLEDO                                                                                 000700700000000211000010000017900000179000000000000000000000047000001060000000100000005000001320000000000000000000N
031989101012102399CERRO DE ANDEVALO (EL)                                                                              007207200000003082000030000246900002469000000000000000000000853000013550000001700000086000015740000000000000000000N
031989101012102499CORTECONCEPCION                                                                                     000700700000000724000010000055500000555000000000000000000000241000003200000000800000012000003800000000000000000000N
031989101012102599CORTEGANA                                                                                           000700700000005474000070000412800004128000000000000000000001365000019440000004100000123000023910000000000000000000N
031989101012102699CORTELAZOR                                                                                          000700700000000378000010000029700000297000000000000000000000110000001850000000700000000000002160000000000000000000N
031989101012102799CUMBRES DE ENMEDIO                                                                                  000700700000000061000010000005400000054000000000000000000000022000000390000000000000000000000460000000000000000000N
031989101012102899CUMBRES DE SAN BARTOLOME                                                                            000700700000000763000010000060900000609000000000000000000000290000004320000000300000019000004670000000000000000000N
031989101012102999CUMBRES MAYORES                                                                                     000700700000002491000020000191600001916000000000000000000000758000012600000000800000038000014330000000000000000000N
031989101012103099CHUCENA                                                                                             005405400000001914000020000147100001471000000000000000000000587000010600000001100000027000012350000000000000000000N
031989101012103199ENCINASOLA                                                                                          000700700000002431000030000194200001942000000000000000000000673000010410000000600000056000013500000000000000000000N
031989101012103299ESCACENA DEL CAMPO                                                                                  005405400000002229000020000164200001642000000000000000000000637000010160000000600000046000011560000000000000000000N
031989101012103399FUENTEHERIDOS                                                                                       000700700000000645000010000048500000485000000000000000000000178000002640000000000000021000003160000000000000000000N
031989101012103499GALAROZA                                                                                            000700700000001694000020000129300001293000000000000000000000516000007150000001200000031000008580000000000000000000N
031989101012103599GIBRALEON                                                                                           004104100000009733000090000698800006988000000000000000000002868000045170000004200000123000053570000000000000000000N
031989101012103699GRANADA RIOTINTO (LA)                                                                               000700700000000225000010000018400000184000000000000000000000083000001210000000100000006000001370000000000000000000N
031989101012103799GRANADO (EL)                                                                                        001001000000000717000010000054000000540000000000000000000000153000003020000000700000017000003700000000000000000000N
031989101012103899HIGUERA DE LA SIERRA                                                                                000700700000001439000010000109400001094000000000000000000000363000006000000001800000044000006840000000000000000000N
031989101012103999HINOJALES                                                                                           000700700000000499000010000039700000397000000000000000000000134000002300000000300000015000002500000000000000000000N
