022019111179999000031003TLaia                     Cañigueral               Olivé                    F000000000000000000N
022019111179999000031004TEduard                   Coloma                   Boada                    M000000000000000000N
022019111179999000031005TXènia                    Sala                     i Pareta                 F000000000000000000N
022019111179999000031006TDavid                    Pujol                    Bret                     M000000000000000000N
022019111179999000040001TAndrés                   Peñalver                 Bernardo                 M000000000000000000N
022019111179999000040002TMaría Fabiola            Quilca                   Viracocha                F000000000000000000N
022019111179999000040003TRichard Alpidio          Peñafiel                 Vera                     M000000000000000000N
022019111179999000040004TMaritza Maribel          Lema                     Barragán                 F000000000000000000N
022019111179999000040005TRodolfo Miguel           Veintimilla              Zabala                   M000000000000000000N
022019111179999000040006TRosa Gladys              Chac                     Palma                    F000000000000000000N
022019111179999000041001TMariona                  Illamola                 Dausà                    F000000000000000000S
022019111179999000041002TSergi                    Miquel                   Valentí                  M000000000000000000S
022019111179999000041003TMarina                   Geli                     Fàbrega                  F000000000000000000N
022019111179999000041004TEstefania "Fanny"        Carabellido              Bruns                    F000000000000000000N
022019111179999000041005TLluís                    Guinó                    Subirós                  M000000000000000000N
022019111179999000041006TRamón                    Cotarelo                 García                   M000000000000000000N
022019111179999000055001TIsabel                   Ramos                    Sierpes                  F000000000000000000N
022019111179999000055002TRamón                    Torredemer               Turu                     M000000000000000000N
022019111179999000055003TAitziber                 Sáez de Buruaga          Cousillas                F000000000000000000N
022019111179999000055004TÁngel                    Rodríguez                Vilagran                 M000000000000000000N
022019111179999000055005TNatàlia                  Fernández                Blanco                   F000000000000000000N
022019111179999000055006TManuel Ismael            Santos                   Rueda                    M000000000000000000N
022019111179999000060001TMiguel                   de la Cruz               Astasio                  M000000000000000000N
022019111179999000060002TTania                    Notario                  Calurano                 F000000000000000000N
022019111179999000060003TAlejandro                Nieto                    Puig                     M000000000000000000N
022019111179999000060004TGemma Luisa              Gómez                    Bañón                    F000000000000000000N
022019111229999000061001TAntonio                  Moles                    Castán                   M000000000000000000N
022019111229999000061002TLucía                    Roca                     Guardia                  F000000000000000000N
022019111229999000061003TAntonio                  Torres                   Guardia                  M000000000000000000N
022019111229999000064001TJuan Carlos              Gracia                   Virumbrales              M000000000000000000N
022019111229999000064002TJorge                    Betes                    Martínez                 M000000000000000000N
022019111229999000064003TNuria del Carmen         Taberna                  Monzón                   F000000000000000000N
022019111229999000079001TDaniel                   Fernández                Domínguez                M000000000000000000N
022019111229999000079002TConchi                   Acín                     Bernués                  F000000000000000000N
022019111229999000079003TCarolina                 Somada                   Balsalobre               F000000000000000000N
022019111229999000083001TMario                    Garcés                   Sanagustín               M000000000000000000S
022019111229999000083002TMaría José               Vicente                  Poy                      F000000000000000000N
022019111229999000083003TJulio                    Riverola                 Atarés                   M000000000000000000N
022019111229999000094001TBegoña                   Nasarre                  Oliva                    F000000000000000000S
022019111229999000094002TAlfredo                  Sancho                   Guardia                  M000000000000000000S
022019111229999000094003TCarmen                   Soto                     Gracieta                 F000000000000000000N
022019111229999000098001TJosé                     Serrano                  Paradinas                M000000000000000000N
022019111229999000098002TMercedes                 Rodríguez                Molina                   F000000000000000000N
022019111229999000098003TMarcos                   de los Mozos             Gómez                    M000000000000000000N
022019111229999000100001TAmor                     Olomí                    Calderón                 F000000000000000000N
022019111229999000100002TDaniel                   Lerín                    Cristóbal                M000000000000000000N
022019111229999000100003TSandra                   Fernández                López                    F000000000000000000N
022019111229999000101001TNoemí                    Larrayad                 Moneo                    F000000000000000000N
022019111229999000101002TGema Pilar               Gabernet                 Martínez                 F000000000000000000N
022019111229999000101003TRubén                    Cebrián                  Domínguez                M000000000000000000N
022019111229999000116001TPablo Daniel             Ciprés                   Ara                      M000000000000000000N
022019111229999000116002TDaniel Ari               Laks                     Adler                    M000000000000000000N
022019111229999000116003TMercedes                 Roqueta                  Milián                   F000000000000000000N
022019111239999000009001TAntonio Vicente          de los Ríos              Peñuela                  M000000000000000000N
022019111239999000009002TNoelia                   Muñoz                    Moreno                   F000000000000000000N
022019111239999000009003TAntonio Jesús            Rodríguez                Martínez                 M000000000000000000N
022019111239999000009004TAna María                López                    Moral                    F000000000000000000N
022019111239999000009005TJuan de Dios             Ortega                   López                    M000000000000000000N
022019111239999000018001TMaría Ángeles            Adán                     de la Paz                F000000000000000000N
022019111289999000094029TCándido                  Marín                    Madrid                   M000000000000000000N
022019111289999000094030TLucía                    Parcet                   Romero                   F000000000000000000N
022019111289999000094031TMiguel                   Ribagorda                Serrano                  M000000000000000000N
022019111289999000094032TMaría José               Linares                  Ruiz                     F000000000000000000N
022019111289999000094033TDiego                    Fernández                Reyes                    M000000000000000000N
022019111289999000094034TGloria                   Razabal                  González                 F000000000000000000N
022019111289999000094035TJosé Luis                Blanco                   Velasco                  M000000000000000000N
022019111289999000094036TVisitación               González                 Villa                    F000000000000000000N
022019111289999000094037TMariano                  Rubio                    Guzmán                   M000000000000000000N
022019111289999000098001TAntonio Arturo           Sieira                   Mucientes                M000000000000000000N
022019111289999000098002TMaría Ángeles            Beriso                   Gómez-Escalonilla        F000000000000000000N
022019111289999000098003TJorge                    Serrano                  Paradinas                M000000000000000000N
022019111289999000098004TFernanda                 Serrano                  Noreña                   F000000000000000000N
022019111289999000098005TAlquímide Francisco      Romero                   Arévalo                  M000000000000000000N
022019111289999000098006TAmaya                    Valcárcel                Silvela                  F000000000000000000N
022019111289999000098007TAlberto                  Bueno                    Manrique                 M000000000000000000N
022019111289999000098008TAna                      Pozo                     Sánchez                  F000000000000000000N
022019111289999000098009TJosé Ignacio             Pamies                   Masso                    M000000000000000000N
022019111289999000098010TCristina                 González                 Zúñiga                   F000000000000000000N
022019111289999000098011TCarlos                   Caballero                Alemany                  M000000000000000000N
022019111289999000098012TMaría                    Pérez                    Peinado                  F000000000000000000N
022019111289999000098013TJaime                    Gil                      Merino                   M000000000000000000N
022019111289999000098014TGuadalupe                Martín-Laborda           García de Rasilla        F000000000000000000N
022019111289999000098015TJaime                    García de Viedma         Lapetra                  M000000000000000000N
022019111289999000098016TBeatriz                  Plans                    Beriso                   F000000000000000000N
022019111289999000098017TRafael Alfonso           Gómez                    Aguilar                  M000000000000000000N
022019111289999000098018TMaría Pilar              Pallero                  Soto                     F000000000000000000N
022019111289999000098019TFrancisco José           Pascual                  Díez                     M000000000000000000N
022019111289999000098020TMarta                    Tornos                   Martín-Fernández         F000000000000000000N
022019111289999000098021THugo                     Díez                     Santaolalla              M000000000000000000N
022019111289999000098022TLeticia                  Silvela                  Coloma                   F000000000000000000N
022019111289999000098023TUnai                     Díez                     Santaolalla              M000000000000000000N
022019111289999000098024TClara                    Sayans                   Moreno                   F000000000000000000N
022019111289999000098025TJavier                   Nieto                    Rico                     M000000000000000000N
022019111289999000098026TLeticia Laura            Torres                   Babé                     F000000000000000000N
022019111289999000098027TBlas de Jesús            de la Cruz               García                   M000000000000000000N
022019111289999000098028TMaría                    Mendoza                  Jiménez                  F000000000000000000N
022019111289999000098029TMarcos                   Gutiérrez                González                 M000000000000000000N
022019111289999000098030TMarta                    Villacieros              Durbán                   F000000000000000000N
022019111289999000098031TClaudio Alberto          Ramírez                  Elsel                    M000000000000000000N
022019111289999000098032TDiana Gloria             Pastor                   Calero                   F000000000000000000N
022019111289999000098033TDavid                    Rey                      González                 M000000000000000000N
022019111289999000098034TMarta                    Bayona                   Beriso                   F000000000000000000N
022019111289999000098035TEmilio                   Tena-Dávila              Sarmentero               M000000000000000000N
022019111289999000098036TLorea                    Fernández Baldor         Sainz de la Maza         F000000000000000000N
022019111289999000098037TAntonio Fernando         Rubinos                  Lozano                   M000000000000000000N
022019111289999000102001TSara                     Montero                  Sánchez                  F000000000000000000N
022019111289999000102002TÁngel                    Casero                   Hernández                M000000000000000000N
022019111289999000102003TAna María                Luque                    Sillero                  F000000000000000000N
022019111289999000102004TMarcelo José             Armengot                 Iborra                   M000000000000000000N
022019111289999000102005TJulián                   Martínez                 García                   M000000000000000000N
022019111289999000102006TJerónimo                 Fernández                García                   M000000000000000000N
022019111289999000102007TAdrián                   Sánchez                  Gibaja                   M000000000000000000N
022019111289999000102008TÁngel                    Roldán                   López                    M000000000000000000N
022019111289999000102009TLucía                    de la Torre              Montesino                F000000000000000000N
022019111289999000102010TEncarnación              García                   Llamas                   F000000000000000000N
022019111289999000102011TMáximo                   Sandín                   Domínguez                M000000000000000000N
022019111289999000102012TNarciso                  Solorzano                Arévalo                  M000000000000000000N
022019111089999000101027TPilar                    Ruiz                     Palácios                 F000000000000000000N
022019111089999000101028TFernando Alberto         Pastor                   González                 M000000000000000000N
022019111089999000101029TFrancisca                Tamerón                  López                    F000000000000000000N
022019111089999000101030TJosé Ramón               García                   Bregante                 M000000000000000000N
022019111089999000101031TPascual                  Gallart                  Arias                    M000000000000000000N
022019111089999000101032TNoemí                    Serrano                  González                 F000000000000000000N
022019111089999000116001TIgnacio                  Garriga                  Vaz de Concicao          M000000000000000000S
022019111089999000116002TJuan José                Aizcorbe                 Torra                    M000000000000000000S
022019111089999000116003TJuan Carlos              Segura                   Just                     M000000000000000000N
022019111089999000116004TMónica                   Lora                     Cisquer                  F000000000000000000N
022019111089999000116005TLaura                    Aliaga                   Pérez                    F000000000000000000N
022019111089999000116006TYago                     Ruiz                     Tintoré                  M000000000000000000N
022019111089999000116007TPablo                    Martín                   Tharrats                 M000000000000000000N
022019111089999000116008TMaría Elisa              García                   Fuster                   F000000000000000000N
022019111089999000116009TJosé Luis                de Temple                Jové                     M000000000000000000N
022019111089999000116010TAmanda                   Puiggrós                 Martí                    F000000000000000000N
022019111089999000116011TJosé Manuel              Arias                    Flores                   M000000000000000000N
022019111089999000116012TPatricia Marta           Muñoz                    Piedrabuena              F000000000000000000N
022019111089999000116013TFelicidad                Morera                   González                 F000000000000000000N
022019111089999000116014TNerea                    Andrés                   Antón                    F000000000000000000N
022019111089999000116015TAgustín                  Montoliu                 Tarragona                M000000000000000000N
022019111089999000116016TJosé Ramón               Puiggros                 Guerendiain              M000000000000000000N
022019111089999000116017TMaría                    de Temple                Salinas                  F000000000000000000N
022019111089999000116018TALICIA                   Tomás                    Martínez                 F000000000000000000N
022019111089999000116019TANDRÉS Félix             Bello                    Sanz                     M000000000000000000N
022019111089999000116020TTomás                    Mendaña                  Prieto                   M000000000000000000N
022019111089999000116021TEnriqueta                Vaquera                  Morillo                  F000000000000000000N
022019111089999000116022TMiguel                   Pallerolas               Reig                     M000000000000000000N
022019111089999000116023TFrancisco Javier         Millán                   Vidal                    M000000000000000000N
022019111089999000116024TAlejandra                Chirivas                 Brazo                    F000000000000000000N
022019111089999000116025TPaula Teresa             Cordera                  Aizpurua                 F000000000000000000N
022019111089999000116026TJenniffer Christine      Alonzo                   Pulido                   F000000000000000000N
022019111089999000116027TJuan                     Perán                    Ortega                   M000000000000000000N
022019111089999000116028TAurora                   Dueñas                   Laita                    F000000000000000000N
022019111089999000116029TDaniel                   Frigols                  Biel                     M000000000000000000N
022019111089999000116030TMaría de los Reyes       Lucán                    Peralta                  F000000000000000000N
022019111089999000116031TMaría José               Perallón                 Gallego                  F000000000000000000N
022019111089999000116032TJosep María              Casanova                 Prenafeta                M000000000000000000N
022019111099999000018001TAurora                   Nacarino-Brabo           Jiménez                  F000000000000000000N
022019111099999000018002TFrancisco                Román                    Martín                   M000000000000000000N
022019111099999000018003TFernando                 del Olmo                 Gómez                    M000000000000000000N
022019111099999000018004TBegoña                   Riocerezo                Nebreda                  F000000000000000000N
022019111099999000055001TMarta                    Jimeno                   Antolín                  F000000000000000000N
022019111099999000055002TVicent                   Mompó                    I Serra                  M000000000000000000N
022019111099999000055003TRaquel                   Tablado                  Castellanos              F000000000000000000N
022019111099999000055004TAntonio Luis             Grande                   Espino                   M000000000000000000N
022019111099999000064001TMarta                    Villamuera               Aparicio                 F000000000000000000N
022019111099999000064002TCarlos                   Presa                    Irazabal                 M000000000000000000N
022019111099999000064003TRuth                     García                   Zaldo                    F000000000000000000N
022019111099999000064004TMartín                   González                 López                    M000000000000000000N
022019111099999000078001TMaría Dolores            Martín-Albo              Montes                   F000000000000000000N
022019111099999000078002TJorge                    García                   Velasco                  M000000000000000000N
022019111099999000078003TAna Isabel               Hernando                 del Campo                F000000000000000000N
022019111099999000078004TAlberto                  Otal                     Sáez                     M000000000000000000N
022019111099999000083001TMaría Sandra             Moneo                    Díez                     F000000000000000000S
022019111099999000083002TJaime Miguel             Mateu                    Istúriz                  M000000000000000000S
022019111099999000083003TEva María                Asensio                  Esteban                  F000000000000000000N
022019111099999000083004TMartín                   González                 Ramonet                  M000000000000000000N
022019111099999000094001TEsther                   Peña                     Camarero                 F000000000000000000S
022019111239999000018002TAntonio                  Barrios                  Márquez                  M000000000000000000N
022019111239999000018003TMaría Begoña             Estrella                 Anguita                  F000000000000000000N
022019111239999000018004TLuis                     Pulido                   Castillo                 M000000000000000000N
022019111239999000018005TDolores                  Ciudad                   Campoy                   F000000000000000000N
022019111239999000055001TSonia                    Collado                  Oropesa                  F000000000000000000N
022019111239999000055002TManuel                   Poblete                  Tamara                   M000000000000000000N
022019111239999000055003TLaura                    Fernández                Alaminos                 F000000000000000000N
022019111239999000055004TDiego                    Barranco                 Pérez                    M000000000000000000N
022019111239999000055005TEsperanza                Fernández                López                    F000000000000000000N
022019111239999000064001TAntonio Jesús            Gil                      Cunquero                 M000000000000000000N
022019111239999000064002TRosa                     Briones                  Rodríguez                F000000000000000000N
022019111239999000064003TFrancisco                Gómez                    Luzón                    M000000000000000000N
022019111239999000064004TLeón George              Jagger                   López                    M000000000000000000N
022019111239999000064005TIsabel María             Fernández                Marín                    F000000000000000000N
022019111239999000081001TFrancisco Javier         Sánchez                  del Pino                 M000000000000000000N
022019111239999000081002TMaría Isabel             Soriano                  Puyana                   F000000000000000000N
022019111239999000081003TJosefa                   Alonso                   Torregrosa               F000000000000000000N
022019111239999000081004TJosé                     Cabrero                  Palomares                M000000000000000000N
022019111239999000081005TPedro Pablo              García                   Aparicio                 M000000000000000000N
022019111239999000083001TJuan Diego               Requena                  Ruiz                     M000000000000000000S
022019111239999000083002TMaría Luisa              del Moral                Leal                     F000000000000000000N
022019111239999000083003TAgustín                  Moral                    Troya                    M000000000000000000N
022019111239999000083004TMiguel                   Contreras                López                    M000000000000000000N
022019111239999000083005TAna                      González                 Herrera                  F000000000000000000N
022019111239999000094001TFelipe Jesús             Sicilia                  Alférez                  M000000000000000000S
022019111239999000094002TLaura                    Berja                    Vega                     F000000000000000000S
022019111239999000094003TJuan Francisco           Serrano                  Martínez                 M000000000000000000S
022019111239999000094004TJosefa                   Jurado                   Latorre                  F000000000000000000N
022019111239999000094005TRafael                   Rosa                     Pulido                   M000000000000000000N
022019111239999000098001TAna                      Sánchez                  Torres                   F000000000000000000N
022019111239999000098002TOctavio Rafael           Carazo                   Montijano                M000000000000000000N
022019111239999000098003TMaría Magdalena          Rodríguez                Martínez                 F000000000000000000N
022019111239999000098004TJuan Félix               Muñoz                    Sánchez                  M000000000000000000N
022019111239999000098005TLidia                    Machado                  López                    F000000000000000000N
022019111239999000101001TEsperanza                Rico                     Moral                    F000000000000000000N
022019111239999000101002TMaría Teresa             García                   Recena                   F000000000000000000N
022019111239999000101003TAlberto                  Vázquez                  Pérez                    M000000000000000000N
022019111239999000101004TJosé                     Rico                     Rubio                    M000000000000000000N
022019111239999000101005TJuan Pedro               Moreno                   Fernández                M000000000000000000N
022019111239999000103001TAntonio                  Navas                    Molina                   M000000000000000000N
022019111239999000103002TTeresa                   Maza                     García                   F000000000000000000N
022019111239999000103003TJuan José                Armijo                   Moreno                   M000000000000000000N
022019111239999000103004TRita María Dolores       Santaella                Ruíz                     F000000000000000000N
022019111239999000103005TAntonio Ángel            Pérez                    Rodríguez                M000000000000000000N
022019111239999000116001TFrancisco José           Alcaraz                  Martos                   M000000000000000000S
022019111239999000116002TGerardo                  Aceituno                 Carrasco                 M000000000000000000N
022019111239999000116003TCarmen María             García                   Aguilar                  F000000000000000000N
022019111239999000116004TShahrookh Bomi           Khambatta                Damania                  M000000000000000000N
022019111239999000116005TMaría del Rosario        del Águila               Gallego                  F000000000000000000N
022019111249999000018001TJusto                    Fernández                González                 M000000000000000000N
022019111249999000018002TRuth                     Morales                  de Vega                  F000000000000000000N
022019111249999000018003TMaría Isabel             González                 Álvarez                  F000000000000000000N
022019111249999000018004TJorge                    Martínez                 Domaica                  M000000000000000000N
022019111249999000055001TMaría Natividad          Franco                   Natal                    F000000000000000000N
022019111249999000055002TJavier                   Marañón                  Villa                    M000000000000000000N
022019111249999000055003TMaría Luisa              Chana                    Gil                      F000000000000000000N
022019111249999000055004TÁngel                    Garzás                   Santos                   M000000000000000000N
022019111249999000064001TPedro                    Gómez                    García                   M000000000000000000N
022019111249999000064002TMaría Estrella           Almazán                  Pardo                    F000000000000000000N
022019111289999000102013TJuan                     Talavera                 Canales                  M000000000000000000N
022019111289999000102014TMontserrat               Ortega                   Gascón                   F000000000000000000N
022019111289999000102015TRaquel                   Álvarez                  Peláez                   F000000000000000000N
022019111289999000102016TFrancisco José           Martín                   Sesma                    M000000000000000000N
022019111289999000102017TLucas Ricardo            González                 Hernández                M000000000000000000N
022019111289999000102018TJuan Carlos              González                 Sánchez                  M000000000000000000N
022019111289999000102019TMaría Raquel             Ochoa                    Torres                   F000000000000000000N
022019111289999000102020TTeodora                  Iglesias                 Sanz                     F000000000000000000N
022019111289999000102021TAntonio                  Oyuela                   Sánchez                  M000000000000000000N
022019111289999000102022TJosé Ramón               Lobo                     Rico                     M000000000000000000N
022019111289999000102023TJorge                    González                 Daniel                   M000000000000000000N
022019111289999000102024TMaría Cecilia            Voter                    Renjifo                  F000000000000000000N
022019111289999000102025TBelén Ramona             Zabala                   de Díaz                  F000000000000000000N
022019111289999000102026TMiguel Gabriel           Pérez                    Noguera                  M000000000000000000N
022019111289999000102027TJuan Carlos              Martínez                 Aguera                   M000000000000000000N
022019111289999000102028TPablo                    Guarino                  Luque                    M000000000000000000N
022019111289999000102029TCintia                   López                    González                 F000000000000000000N
022019111289999000102030TAntonina                 Dueñas                   Bonilla                  F000000000000000000N
022019111289999000102031TJosé María               Álvarez                  Fernández                M000000000000000000N
022019111289999000102032TAlfonso                  Sánchez                  Moreno                   M000000000000000000N
022019111289999000102033TFrancisco Miguel         Quintana                 Domingo                  M000000000000000000N
022019111289999000102034TMaría de las Nieves      Gómez                    Martínez                 F000000000000000000N
022019111289999000102035TJusta                    Jabardo                  Peña                     F000000000000000000N
022019111289999000102036TJesús                    Fernández                de Rivas                 M000000000000000000N
022019111289999000102037TAmanda                   Rodríguez                Cabal                    F000000000000000000N
022019111289999000116001TSantiago                 Abascal                  Conde                    M000000000000000000S
022019111289999000116002TFrancisco Javier         Ortega                   Smith-Molina             M000000000000000000S
022019111289999000116003TIván                     Espinosa de los Monteros de Simón                 M000000000000000000S
022019111289999000116004TMaría de la Cabeza       Ruíz                     Solás                    F000000000000000000S
022019111289999000116005TCarla                    Toscano                  de Balbín                F000000000000000000S
022019111289999000116006TJuan Luis                Steegmann                Olmedillas               M000000000000000000S
022019111289999000116007TMireia                   Borrás                   Pabón                    F000000000000000000S
022019111289999000116008TGema Pilar               Herrero                  Monroy                   F000000000000000000N
022019111289999000116009TAlonso                   de Mendoza               Asensi                   M000000000000000000N
022019111289999000116010TJosé                     Cadenas                  Rabaixet                 M000000000000000000N
022019111289999000116011TMarta Asunción           Castro                   Fuertes                  F000000000000000000N
022019111289999000116012TJesús Carlos             Riosalido                Gambotti                 M000000000000000000N
022019111289999000116013TJavier                   Moreno                   de Miguel                M000000000000000000N
022019111289999000116014TBeatriz                  Tejero                   Oller                    F000000000000000000N
022019111289999000116015TRubén                    Gallardo                 García                   M000000000000000000N
022019111289999000116016TJavier Cipriano          Viviente                 Solé                     M000000000000000000N
022019111289999000116017TÓscar                    González                 Samos                    M000000000000000000N
022019111289999000116018TGonzalo                  Padrón                   Ramos                    M000000000000000000N
022019111289999000116019TMaría Teresa             López                    Divasson                 F000000000000000000N
022019111289999000116020TEulalia                  López                    García                   F000000000000000000N
022019111289999000116021TDaniel                   Cuesta                   Lagarejo                 M000000000000000000N
022019111289999000116022TJosé                     Hidalgo                  Serrano                  M000000000000000000N
022019111289999000116023TAmaya                    Acosta                   Barrera                  F000000000000000000N
022019111289999000116024TLaura                    Cid                      Grueso                   F000000000000000000N
022019111289999000116025TDonato Francisco Javier  Barba                    Prieto                   M000000000000000000N
022019111289999000116026TIgnacio                  Fernández                Tomás                    M000000000000000000N
022019111289999000116027TAlejandro                Abalo                    Delgado                  M000000000000000000N
022019111289999000116028TEva                      Arbeo                    Blázquez                 F000000000000000000N
022019111289999000116029TAna Isabel               Dompablo                 Guerrero                 F000000000000000000N
022019111289999000116030TEnrique Jesús            Ortíz                    Gómez                    M000000000000000000N
022019111289999000116031TAlejandro                Gozalo                   Yáñez                    M000000000000000000N
022019111289999000116032TElena                    Garachana                Nuño                     F000000000000000000N
022019111289999000116033TGerardo                  Marín                    Carreño                  M000000000000000000N
022019111099999000094002TAgustín Javier           Zamarrón                 Moreno                   M000000000000000000S
022019111099999000094003TMaría Dolores            Villacorta               Canal                    F000000000000000000N
022019111099999000094004TIldefonso                Sanz                     Velázquez                M000000000000000000N
022019111099999000098001TAlejandro                Represa                  Martín                   M000000000000000000N
022019111099999000098002TNuria                    Canals                   Álvarez Novoa            F000000000000000000N
022019111099999000098003TPedro Alfonso            Cabello                  Albendea                 M000000000000000000N
022019111099999000098004TBeatriz                  Bustos                   Toribio                  F000000000000000000N
022019111099999000102001TMaría del Rosario        Íñiguez                  Santamaría               F000000000000000000N
022019111099999000102002TMaría Teresa             Cristóbal                Sanz                     F000000000000000000N
022019111099999000102003TÓscar                    Palma                    Sáiz                     M000000000000000000N
022019111099999000102004TAndrés Felipe            Chancay                  Quijije                  M000000000000000000N
022019111099999000116001TJavier                   Martínez                 Lozano                   M000000000000000000N
022019111099999000116002TIgnacio                  Sicilia                  Domenech                 M000000000000000000N
022019111099999000116003TMarta                    Sanz                     Camaño                   F000000000000000000N
022019111099999000116004TElma                     Vicente                  Barrios                  F000000000000000000N
022019111109999000018001TMaría Victoria           Domínguez                Paredes                  F000000000000000000N
022019111109999000018002TEmiliana                 Hernández                Antúnez                  F000000000000000000N
022019111109999000018003TAniano                   Sánchez                  Pérez                    M000000000000000000N
022019111109999000018004TMiguel Ángel             Julián                   Martín                   M000000000000000000N
022019111109999000034001TJosé María               Gijón                    Polo                     M000000000000000000N
022019111109999000034002TÓscar                    Solís                    Merino                   M000000000000000000N
022019111109999000034003TMaría de los Ángeles     Jorge                    Marcos                   F000000000000000000N
022019111109999000034004TNoemí                    Romero                   Barroso                  F000000000000000000N
022019111109999000055001TRaquel                   Moreno                   Talavera                 F000000000000000000N
022019111109999000055002TEnrique                  Esteban                  Jiménez                  M000000000000000000N
022019111109999000055003TAdela                    Moreno                   Sandoval                 F000000000000000000N
022019111109999000055004TJosé Francisco           Michelena                Gil                      M000000000000000000N
022019111109999000078001TÁlvaro                   Jaén                     Barbado                  M000000000000000000N
022019111109999000078002TAntonio                  Moreno                   Pérez                    M000000000000000000N
022019111109999000078003TMaría Consolación        López                    Balset                   F000000000000000000N
022019111109999000078004TSandra                   Martín                   Bayle                    F000000000000000000N
022019111109999000083001TAlberto                  Casero                   Ávila                    M000000000000000000S
022019111109999000083002TMaría Dolores            Marcos                   Moyano                   F000000000000000000N
022019111109999000083003TPablo                    Carrilho                 Reyes                    M000000000000000000N
022019111109999000083004TMaría Valentina          Corrales                 Díaz                     F000000000000000000N
022019111109999000094001TAna Belén                Fernández                Casero                   F000000000000000000S
022019111109999000094002TCésar Joaquín            Ramos                    Esteban                  M000000000000000000S
022019111109999000094003TInés Mirella             Conejero                 Domínguez                F000000000000000000N
022019111109999000094004TFrancisco                Giraldo                  Sánchez                  M000000000000000000N
022019111109999000098001TMaría de los Reyes       Piñero                   Rodríguez                F000000000000000000N
022019111109999000098002TJairo Humberto           Mejía                    Vaca                     M000000000000000000N
022019111109999000098003TSerafina                 Benito                   Martín                   F000000000000000000N
022019111079999000018008TIgnacio                  Gómez                    Fernández de Arcaya      M000000000000000000N
022019111079999000049001TGuillem                  Balboa                   Buika                    M000000000000000000N
022019111079999000049002TPatricia                 Font                     Marbán                   F000000000000000000N
022019111079999000049003TMateu                    Matas                    Ordinas "Xurí"           M000000000000000000N
022019111079999000049004TAnna                     Marí                     Llorens                  F000000000000000000N
022019111079999000049005TMarta                    Guijarro                 Mas                      F000000000000000000N
022019111079999000049006TOriol                    Baradad                  Baldomá                  M000000000000000000N
022019111079999000049007TCarme                    Gomila                   Domínguez                F000000000000000000N
022019111079999000049008TJuan Diego               García                   Salom                    M000000000000000000N
022019111079999000050001TMaria Luisa              Lucas                    Perpiña                  F000000000000000000N
022019111079999000050002TAndreu                   Fullana                  Arias                    M000000000000000000N
022019111079999000050003TMaria del Mar            Muñoz                    Moll                     F000000000000000000N
022019111079999000050004TFrancisco                Cantallops               Cardell                  M000000000000000000N
022019111079999000050005TJulia                    Serra                    Esteban                  F000000000000000000N
022019111079999000050006TSamuel                   Daza                     Cáceres                  M000000000000000000N
022019111079999000050007TIratxe                   Cabrera                  Bejarano                 F000000000000000000N
022019111079999000050008TLucas Gastón             Lober                    Loberis                  M000000000000000000N
022019111249999000064003TEzequiel                 Blanco                   López                    M000000000000000000N
022019111249999000064004TFelicita                 Santamarina              Pérez                    F000000000000000000N
022019111249999000078001TAna                      Marcello                 Santos                   F000000000000000000N
022019111249999000078002TJuan Carlos              González                 Vidal                    M000000000000000000N
022019111249999000078003TMaría del Carmen         Jiménez                  Franganillo              F000000000000000000N
022019111249999000078004TRaúl                     Fuentes                  Carro                    M000000000000000000N
022019111249999000083001TJosé Miguel              González                 Robles                   M000000000000000000N
022019111249999000083002TMaría del Carmen         González                 Guinda                   F000000000000000000S
022019111249999000083003TAndrés                   Pérez                    Marote                   M000000000000000000N
022019111249999000083004TEva                      González                 Fernández                F000000000000000000N
022019111249999000089001TMiguel Ángel             García                   Fidalgo                  M000000000000000000N
022019111249999000089002TMaría Oliva              Álvarez                  Pérez                    F000000000000000000N
022019111249999000089003TJosé Cayetano            Rodríguez                de Castro                M000000000000000000N
022019111249999000089004TMaría Asunción           Sevillano                Mayo                     F000000000000000000N
022019111249999000094001TJavier                   Alfonso                  Cendón                   M000000000000000000S
022019111249999000094002TAndrea                   Fernández                Benéitez                 F000000000000000000S
022019111249999000094003TManuel                   Alfonso                  González                 M000000000000000000N
022019111249999000094004TMaría Montserrat         Álvarez                  Velasco                  F000000000000000000N
022019111249999000098001TMaría del Carmen         Rivera                   Estévez                  F000000000000000000N
022019111249999000098002TJosé Antonio             Ferreiro                 Ansia                    M000000000000000000N
022019111249999000098003TRamona                   Martínez                 García                   F000000000000000000N
022019111249999000098004TJorge                    Moredo                   Araujo                   M000000000000000000N
022019111249999000102001TConcepción Julia         Fernández                Fernández                F000000000000000000N
022019111249999000102002TJulio                    Antón                    Bartolomé                M000000000000000000N
022019111249999000102003TÁngel                    Álvarez                  Vega                     M000000000000000000N
022019111249999000102004TAna                      Muñoz                    Guijarro                 F000000000000000000N
022019111249999000113001TLuis Mariano             Santos                   Reyero                   M000000000000000000N
022019111249999000113002TMiguel Ángel             Díez                     Cano                     M000000000000000000N
022019111249999000113003TAna María                Fernández                Caurel                   F000000000000000000N
022019111249999000113004TSeila                    Fernández                Domínguez                F000000000000000000N
022019111249999000116001TPablo Juan               Calvo                    Liste                    M000000000000000000S
022019111249999000116002TJosé Luis                Suárez                   Pastor                   M000000000000000000N
022019111249999000116003TSimoneta                 Riesco                   Alonso                   F000000000000000000N
022019111249999000116004TBlanca María             Herreros                 Rodríguez                F000000000000000000N
022019111259999000019001TMaria                    Burrel                   Badia                    F000000000000000000N
022019111259999000019002TLaura                    Escrig                   Bolea                    F000000000000000000N
022019111259999000019003TRamón                    Vilaltella               Domenjo                  M000000000000000000N
022019111259999000019004TJosé María               Córdoba                  Alos                     M000000000000000000N
022019111259999000020001TFrancesc                 Gabarrell                i Guiu                   M000000000000000000N
022019111259999000020002TJúlia                    Carbonell                i Font                   F000000000000000000N
022019111259999000020003TSebastià                 Mata                     i Molinero               M000000000000000000N
022019111259999000020004TNúria                    Sauquillo                i Guerra                 F000000000000000000N
022019111259999000028001TJaume                    Moya                     i Matas                  M000000000000000000N
022019111259999000028002TVeronica                 Fuente                   Garcia                   F000000000000000000N
022019111259999000028003TImmaculada               Perera                   Sambola                  F000000000000000000N
022019111259999000028004TRicardo                  Pena                     Pérez                    M000000000000000000N
022019111259999000031001TXavier                   Eritja                   i Ciuró                  M000000000000000000S
022019111259999000031002TInés                     Granollers               i Cunillera              F000000000000000000S
022019111259999000031003TNúria                    Juangran                 i Palou                  F000000000000000000N
022019111259999000031004TSergi                    Parramon                 i Garcia                 M000000000000000000N
022019111259999000040001TMiguel                   del Amo                  Bonilla                  M000000000000000000N
022019111259999000040002TMaria Victoria           Portús                   de Marco                 F000000000000000000N
022019111259999000040003TLogan                    Solar                    Prat                     M000000000000000000N
022019111259999000040004TMariam                   Zaidi                    Touis                    F000000000000000000N
022019111259999000041001TConcepció                Cañadell                 Salvia                   F000000000000000000S
022019111259999000041002TRosa                     Burrell                  Obiols                   F000000000000000000N
022019111259999000041003TRicard                   Pérez                    Llordes                  M000000000000000000N
022019111259999000041004TRaül                     Palacios                 Bover                    M000000000000000000N
022019111259999000055001TMaría del Carmen         Bayle                    García                   F000000000000000000N
022019111289999000116034TVicente Pedro            Morales                  Sancho                   M000000000000000000N
022019111289999000116035TMaría Carmen             Rodríguez                Anta                     F000000000000000000N
022019111289999000116036TMaría Ángela             Chinarro                 Vadillo                  F000000000000000000N
022019111289999000116037TJosé Antonio             Ortega                   Lara                     M000000000000000000N
022019111299999000009001TJusto                    Aliseda                  Miranda                  M000000000000000000N
022019111299999000009002TFrancisco                Alejo                    Soriano                  M000000000000000000N
022019111299999000009003TMaría Felicitas          Aliseda                  Miranda                  F000000000000000000N
022019111299999000009004TLuis Carlos              Timonet                  Andreu                   M000000000000000000N
022019111299999000009005TMaría                    González                 Ríos                     F000000000000000000N
022019111299999000009006TPatricia                 Millán                   Pérez                    F000000000000000000N
022019111299999000009007TMaría Fernanda           Valdez                   García                   F000000000000000000N
022019111299999000009008TRafael                   Cañestro                 Cabello                  M000000000000000000N
022019111299999000009009TAndrés                   Navarro                  Navas                    M000000000000000000N
022019111299999000009010TMaría Ángela             Frías                    Gaviero                  F000000000000000000N
022019111299999000009011TJosé Antonio             Gómez                    Escalona                 M000000000000000000N
022019111299999000018001TGuillermo                Díaz                     Gómez                    M000000000000000000S
022019111299999000018002TIrene                    Rivera                   Andrés                   F000000000000000000N
022019111299999000018003TMaría Cristina           Baca                     Domingo                  F000000000000000000N
022019111299999000018004TDamián                   Caneda                   Domingo                  M000000000000000000N
022019111299999000018005TVerónica                 Humet                    Fuentes                  F000000000000000000N
022019111299999000018006TAna Belén                Palomo                   Ferrer                   F000000000000000000N
022019111299999000018007TMaría Dolores            Molina                   González                 F000000000000000000N
022019111299999000018008TDavid                    Obadía                   Chocrón                  M000000000000000000N
022019111299999000018009TJavier                   García                   Moreno                   M000000000000000000N
022019111299999000018010TFrancisco José           Muñoz                    García                   M000000000000000000N
022019111299999000018011TMaría Luisa              Valero                   González                 F000000000000000000N
022019111299999000044001TCarmen                   Lizárraga                Mollinedo                F000000000000000000N
022019111299999000044002TFrancisco José           Jurado                   Gilabert                 M000000000000000000N
022019111299999000044003TRosario                  Luque                    Torrejón                 F000000000000000000N
022019111299999000044004TÁngel Isidoro            Rodríguez                Ramírez                  M000000000000000000N
022019111299999000044005TEncarnación              Páez                     Alba                     F000000000000000000N
022019111299999000044006TJuan Carlos              Martínez                 Coll                     M000000000000000000N
022019111299999000044007TMaría Victoria           Mendiola                 Zapatero                 F000000000000000000N
022019111299999000044008TEfrén                    Millet                   Fernández                M000000000000000000N
022019111299999000044009TAndrea                   Fernández                Velasco                  F000000000000000000N
022019111299999000044010TPablo Alfonso            Medina                   Urda                     M000000000000000000N
022019111299999000044011TMaría Inmaculada         Gálvez                   Torres                   F000000000000000000N
022019111299999000055001TEva                      Ramos                    Taillefer                F000000000000000000N
022019111299999000055002TNoemi                    Pérez                    Carrasco                 F000000000000000000N
022019111299999000055003TAna Isabel               Melguizo                 Garín                    F000000000000000000N
022019111299999000055004TCarlos Fernando          Palomo                   Aranda                   M000000000000000000N
022019111299999000055005TEmilio Alejandro         Martínez                 Vuijk                    M000000000000000000N
022019111299999000055006TEva María                Bagu                     Cordero                  F000000000000000000N
022019111299999000055007TMarta                    Aguiar                   Guerrero                 F000000000000000000N
022019111299999000055008TFernando                 Marín                    Gallardo                 M000000000000000000N
022019111299999000055009TSalvador                 Sánchez                  Sánchez                  M000000000000000000N
022019111299999000055010TJuan Manuel              Gámez                    Arjona                   M000000000000000000N
022019111299999000055011TMaría José               García                   Murcia                   F000000000000000000N
022019111299999000057001TJosé María               Guerrero                 Fernández                M000000000000000000N
022019111299999000057002TMaría                    Chirino                  Nieto                    F000000000000000000N
022019111299999000057003TJosé                     Molina                   Rodríguez                M000000000000000000N
022019111299999000057004TRosa María               Heredia                  García                   F000000000000000000N
022019111299999000057005TDavid                    Moya                     García                   M000000000000000000N
022019111299999000057006TLuis                     Delgado                  Ramírez                  M000000000000000000N
022019111299999000057007TAlicia María             Orellana                 Cocinero                 F000000000000000000N
022019111299999000057008TArmando                  Cáceres                  Vázquez                  M000000000000000000N
022019111299999000057009TElena                    Domínguez                Vázquez                  F000000000000000000N
022019111299999000057010TIsidoro                  León                     Navarro                  M000000000000000000N
022019111299999000057011TManuela                  García                   Morilla                  F000000000000000000N
022019111079999000055001TCristina                 Perea                    Pau                      F000000000000000000N
022019111079999000055002TLluc                     Berrio                   Penycate                 M000000000000000000N
022019111079999000055003TAurora                   de Codina                Llopis                   F000000000000000000N
022019111079999000055004TRaúl                     Díaz                     Barreto                  M000000000000000000N
022019111079999000055005TRaquel                   Rivas                    Alonso                   F000000000000000000N
022019111079999000055006TEmilio                   Hernández                Martín                   M000000000000000000N
022019111079999000055007TMaría José               Ramírez                  Ros                      F000000000000000000N
022019111079999000055008TManuel                   Lara                     Raigada                  M000000000000000000N
022019111079999000073001TIgnacio Federico         López                    Abalo                    M000000000000000000N
022019111079999000073002TMarcos                   Seguí                    Soto                     M000000000000000000N
022019111079999000073003TRegina Joaquina          Carbonell                Gimenez                  F000000000000000000N
022019111079999000073004TAlbert                   Barceló                  Ortega                   M000000000000000000N
022019111079999000073005TElena Soraya             Martín                   Rodriguez                F000000000000000000N
022019111079999000073006TAdrià                    Marí                     Copa                     M000000000000000000N
022019111079999000073007TEstela                   Valiente                 Conejero                 F000000000000000000N
022019111079999000073008TLluna                    Sanz                     Montrull                 F000000000000000000N
022019111079999000075001TAntonia                  Jover                    Diaz                     F000000000000000000S
022019111079999000075002TLucía Miriam             Muñoz                    Dalda                    F000000000000000000S
022019111079999000075003TJorge                    Rossello                 Bouso                    M000000000000000000N
022019111079999000075004TNatividad Isidora        Benejam                  Bagur                    F000000000000000000N
022019111079999000075005TDaniel Baltasar          Pueyo                    Adrover                  M000000000000000000N
022019111079999000075006TXavier                   Morell                   Sanso                    M000000000000000000N
022019111079999000075007TAlejandro                Montero                  Ortiz                    M000000000000000000N
022019111079999000075008TVanessa                  Díaz                     Ojeda                    F000000000000000000N
022019111079999000083001TMargarita                Prohens                  Rigo                     F000000000000000000S
022019111079999000083002TMiguel Ángel             Jerez                    Juan                     M000000000000000000S
022019111079999000083003TMaría Teresa             Torrent                  Pallicer                 F000000000000000000N
022019111079999000083004TCarlos                   Martínez de Tejada       Pérez                    M000000000000000000N
022019111079999000083005TLourdes                  Cardona                  Ribas                    F000000000000000000N
022019111079999000083006TLorenzo                  Cardona                  Seguí                    M000000000000000000N
022019111079999000083007TFrancisco                Ferrer                   Tur                      M000000000000000000N
022019111079999000083008TMarilina                 Ribas                    Cardona                  F000000000000000000N
022019111079999000094001TPere Joan                Pons                     Sampietro                M000000000000000000S
022019111079999000094002TSofia                    Hernanz                  Costa                    F000000000000000000S
022019111079999000094003TPau                      Morlà                    Florit                   M000000000000000000N
022019111079999000094004TMaria Bel                Llinàs                   Pastor                   F000000000000000000N
022019111079999000094005TJosep Antoni             Mayans                   Mesquida                 M000000000000000000N
022019111079999000094006TAmanda                   Fernández                Rubí                     F000000000000000000N
022019111079999000094007TJaime Julián             Oliver                   Vallés                   M000000000000000000N
022019111079999000094008TClara                    Costa                    Tur                      F000000000000000000N
022019111079999000098001TJuan Manuel              Batista                  Sánchez                  M000000000000000000N
022019111079999000098002TMaría Nereida            Quijada                  Guadalupe                F000000000000000000N
022019111079999000098003THéctor Juan              Pérez                    Hernández                M000000000000000000N
022019111079999000098004TMarta                    Valverde                 Jiménez                  F000000000000000000N
022019111079999000098005TBorja                    Luján                    Rodríguez                M000000000000000000N
022019111079999000098006TAlmarca                  Ramírez                  de León                  F000000000000000000N
022019111079999000098007TDavid                    Marrero                  Morales                  M000000000000000000N
022019111079999000098008TCarmen Yaiza             Sánchez                  Campos                   F000000000000000000N
022019111079999000101001TNatalia                  Vara                     Bodas                    F000000000000000000N
022019111079999000101002TLuis Juan                de la Torre              Guzmán                   M000000000000000000N
022019111079999000101003TAntonio                  Triay                    Castro                   M000000000000000000N
022019111079999000101004TMaryelin                 Amparo                   Ramírez                  F000000000000000000N
022019111079999000101005TAna                      Mintegui                 Lacarra                  F000000000000000000N
022019111079999000101006TFrancisco                Merino                   Iglesias                 M000000000000000000N
022019111079999000101007TTania                    González                 Ambrós                   F000000000000000000N
022019111079999000101008TSamuel                   Homs                     Fernández                M000000000000000000N
022019111079999000116001TAntonio                  Salvá                    Verd                     M000000000000000000S
022019111079999000116002TPatricia                 de la Heras              Fernández                F000000000000000000S
022019111079999000116003TBartolomé                Torres                   Mascaró                  M000000000000000000N
022019111079999000116004TEsperanza                Catalá                   Ribo                     F000000000000000000N
022019111259999000055002TJosé                     Armijo                   García                   M000000000000000000N
022019111259999000055003TMarta                    Garrido                  Ventura                  F000000000000000000N
022019111259999000055004TAlberto                  Muñoz                    Silva                    M000000000000000000N
022019111259999000060001TJosep Maria              Baró                     i París                  M000000000000000000N
022019111259999000060002TMaria Mercè              Escudé                   Sicart                   F000000000000000000N
022019111259999000060003TManel                    Dueñas                   Triguero                 M000000000000000000N
022019111259999000060004TMaria Sogues             Mateu                    i Navés                  F000000000000000000N
022019111259999000063001TDomènec                  Merino                   Roca                     M000000000000000000N
022019111259999000063002TLaila                    Bchari                   Moran                    F000000000000000000N
022019111259999000063003TJoan                     García                   Ochs                     M000000000000000000N
022019111259999000063004TAlmodis                  Ferrer                   i Alsina                 F000000000000000000N
022019111259999000085001TDante                    Pérez                    Berenguer                M000000000000000000N
022019111259999000085002TPepita                   Camí                     Olona                    F000000000000000000N
022019111259999000085003TJosep Maria              Serveto                  Figueras                 M000000000000000000N
022019111259999000085004TMarisa                   Xandri                   Pujol                    F000000000000000000N
022019111259999000090001TMontserrat               Mínguez                  Garcia                   F000000000000000000S
022019111259999000090002TSilveri                  Caro                     Cabrera                  M000000000000000000N
022019111259999000090003TLorena                   González                 Dios                     F000000000000000000N
022019111259999000090004TJuan Carlos              Boix                     Riart                    M000000000000000000N
022019111259999000096001TFrancisca                Payero                   Soto                     F000000000000000000N
022019111259999000096002TEnrique                  García                   Ojeda                    M000000000000000000N
022019111259999000096003TInés                     Loza                     Lozano                   F000000000000000000N
022019111259999000096004TJesús                    Gaueca                   Sertucha                 M000000000000000000N
022019111259999000101001TLaura                    Sexer                    Pérez                    F000000000000000000N
022019111259999000101002TVicente                  Díez                     Domper                   M000000000000000000N
022019111259999000101003TGertrudis                Faura                    Marín                    F000000000000000000N
022019111259999000101004TPedro                    Martín                   Peñasco                  M000000000000000000N
022019111259999000116001TMiquel                   Bonastre                 Guillamet                M000000000000000000N
022019111259999000116002TAlejandra                Roig                     López                    F000000000000000000N
022019111259999000116003TGloria                   Rico                     Iribarne                 M000000000000000000N
022019111259999000116004TGregorio                 Gálvez                   Pazos                    M000000000000000000N
022019111269999000018001TMaría Luisa              Alonso                   García                   F000000000000000000N
022019111269999000018002TMarta                    Gómez                    Vázquez                  F000000000000000000N
022019111269999000018003TRubén                    García                   Benito                   M000000000000000000N
022019111269999000018004TFernando                 Castillo                 Alonso                   M000000000000000000N
022019111269999000023001TLuis María               Martín                   Montejo                  M000000000000000000N
022019111269999000023002TMaría Carmen             García                   Pellejero                F000000000000000000N
022019111269999000023003TJorge                    Moreno                   García                   M000000000000000000N
022019111269999000023004TEncarnación              Villalba                 Ale                      F000000000000000000N
022019111269999000055001TAlicia                   Valero                   Martín                   F000000000000000000N
022019111269999000055002TJoseba                   Astarloa                 Aguirrebeitia            M000000000000000000N
022019111269999000055003TVirginia                 Ramos                    Araque                   F000000000000000000N
022019111269999000055004TJuan Leandro             Muro                     Ortega                   M000000000000000000N
022019111269999000064001TFrancisco Javier         Castro                   Portolés                 M000000000000000000N
022019111269999000064002TLucía                    Antoñanzas               Gil                      F000000000000000000N
022019111269999000064003TAlejandro                Fernández                Suárez                   M000000000000000000N
022019111269999000064004TSilvia                   López                    Amoedo                   F000000000000000000N
022019111269999000078001TLuis Antón               Illoro                   Arsuaga                  M000000000000000000N
022019111269999000078002TAlba                     Palacios                 García                   F000000000000000000N
022019111269999000078003TVictorino                Pablo                    Pascual                  M000000000000000000N
022019111269999000078004TLaura                    Rodríguez                Fernández                F000000000000000000N
022019111269999000083001TMaría Concepción         Gamarra                  Ruiz Clavijo             F000000000000000000S
022019111269999000083002TJavier                   Merino                   Martínez                 M000000000000000000S
022019111269999000083003TMarta                    Fernández                Cornago                  F000000000000000000N
022019111269999000083004TIñigo Alfredo            López Araquistaín        Oserín                   M000000000000000000N
022019111269999000094001TMaría                    Marrodán                 Funes                    F000000000000000000S
022019111269999000094002TJuan                     Cuatrecasas              Asua                     M000000000000000000S
022019111269999000094003TRaquel                   Pedraja                  Sainz                    F000000000000000000N
022019111269999000094004TAbel                     Martínez                 Moreno                   M000000000000000000N
022019111269999000098001TJosé Manuel              Corcuera                 Miranda                  M000000000000000000N
022019111039999000073002TVerónica                 Oliver                   Mengual                  F000000000000000000N
022019111039999000073003TDaniel                   Campos                   Catalá                   M000000000000000000N
022019111039999000073004TMaría Jesús              Navarro                  Padilla                  F000000000000000000N
022019111039999000073005TAlejandro                Martínez                 Ruiz                     M000000000000000000N
022019111039999000073006TMaría del Pino           Navas                    Llarena                  F000000000000000000N
022019111039999000073007TMirian                   Ortiz                    Muñoz                    F000000000000000000N
022019111039999000073008TJaime                    Pérez                    Oltra                    M000000000000000000N
022019111039999000073009TIván                     Avila                    Navarro                  M000000000000000000N
022019111039999000073010TFernando                 Esquer                   Rubira                   M000000000000000000N
022019111039999000073011TDulcinea                 González                 Estefanía                F000000000000000000N
022019111039999000073012TPedro Manuel             Romero                   Navarro                  M000000000000000000N
022019111039999000076001TTxema                    Guijarro                 García                   M000000000000000000S
022019111039999000076002TMaría Teresa             Pérez                    Díaz                     F000000000000000000N
022019111039999000076003TNoelia                   Olivares                 González                 F000000000000000000N
022019111039999000076004TFrancesc Ramón           Valls                    Pascual                  M000000000000000000N
022019111039999000076005TChantal                  Juan                     Ballester                F000000000000000000N
022019111039999000076006TMaría del Mar            Galindo                  Merino                   F000000000000000000N
022019111039999000076007TMaika                    Fernández                Baena                    F000000000000000000N
022019111039999000076008TJosep Xavier             Carmona                  González                 M000000000000000000N
022019111039999000076009TJosé Francisco           Albaladejo               Hernández                M000000000000000000N
022019111039999000076010TAntonio                  Bernabé                  Tocado                   M000000000000000000N
022019111039999000076011TAdriana                  Rodríguez                García                   F000000000000000000N
022019111039999000076012TFrancisco Javier         Fernández                Baena                    M000000000000000000N
022019111039999000083001TCésar                    Sánchez                  Pérez                    M000000000000000000S
022019111039999000083002TMacarena                 Montesinos               de Miguel                F000000000000000000S
022019111039999000083003TAgustín                  Almodóbar                Barceló                  M000000000000000000S
022019111039999000083004TSergio                   Rodríguez                Meseguer                 M000000000000000000N
022019111039999000083005TMaría de los Ángeles     Quiles                   Mondéjar                 F000000000000000000N
022019111039999000083006TArturo                   Poquet                   Ribes                    M000000000000000000N
022019111039999000083007TMaría Edelmira           Ferri                    Hernández                F000000000000000000N
022019111039999000083008TGema                     Ferrández                Berenguer                F000000000000000000N
022019111039999000083009TJosé Manuel              Pardo                    Martínez                 M000000000000000000N
022019111039999000083010TRafael                   Almagro                  Palacios                 M000000000000000000N
022019111039999000083011TMaría                    García                   Pascual                  F000000000000000000N
022019111039999000083012TLino Antonio             Pascual                  Carbonell                M000000000000000000N
022019111039999000094001TPedro Francisco          Duque                    Duque                    M000000000000000000S
022019111039999000094002TPatricia                 Blanquer                 Alcaraz                  F000000000000000000S
022019111039999000094003TAlejandro                Soler                    Mur                      M000000000000000000S
022019111039999000094004TYolanda                  Seva                     Ruiz                     F000000000000000000S
022019111039999000094005TLázaro                   Azorín                   Salar                    M000000000000000000N
022019111039999000094006TRosa                     Guillén                  Cantó                    F000000000000000000N
022019111039999000094007TYolanda                  Zaragoza                 Martínez                 F000000000000000000N
022019111039999000094008TGuillermo                Sendra                   Guardiola                M000000000000000000N
022019111039999000094009TNora                     Taj                      Lidón                    F000000000000000000N
022019111039999000094010TMiguel Ángel             Gomis                    Fernández                M000000000000000000N
022019111039999000094011TFuensanta                López                    Baño                     F000000000000000000N
022019111039999000094012TPablo Juan               Martínez                 Catalá                   M000000000000000000N
022019111039999000098001TConstantino Javier       Alberdi                  Benito                   M000000000000000000N
022019111039999000098002TMaría del Dulce Nombre   Plans                    Portabella               F000000000000000000N
022019111039999000098003TÁlvaro                   Pozo                     Sánchez                  M000000000000000000N
022019111039999000098004TKarla Alejandra          Rojas                    Armijos                  F000000000000000000N
022019111039999000098005TMiguel Ángel             Sancho                   Martín                   M000000000000000000N
022019111039999000098006TAntonio                  Zamora                   de Vicente               M000000000000000000N
022019111039999000098007TMaría                    Ontañón                  Nasarre                  F000000000000000000N
022019111039999000098008TEzequiel                 Puig-Maestro-Amado       Gómez de la Vega         M000000000000000000N
022019111039999000098009TMaría Begoña             Merinero                 Cortés                   F000000000000000000N
022019111039999000098010TCarlos Felipe            Vergara                  González                 M000000000000000000N
022019111039999000098011TBarbara Edurne           González                 Quer                     F000000000000000000N
022019111079999000116005TMaría Dolores            Nchaso                   Sota                     F000000000000000000N
022019111079999000116006TFrancisco                Pol                      Alorda                   M000000000000000000N
022019111079999000116007TVanesa                   Jofre                    Blake                    F000000000000000000N
022019111079999000116008TFulgencio                Coll                     Bucher                   M000000000000000000N
022019111089999000019001TINÉS                     ARRIMADAS                GARCÍA                   F000000000000000000S
022019111089999000019002TFERNANDO TOMÁS           DE PÁRAMO                GÓMEZ                    M000000000000000000N
022019111089999000019003TJOSÉ MARÍA               ESPEJO-SAAVEDRA          CONESA                   M000000000000000000S
022019111089999000019004TCARINA                   MEJÍAS                   SÁNCHEZ                  F000000000000000000N
022019111089999000019005TIGNACIO "NACHO"          MARTÍN                   BLANCO                   M000000000000000000N
022019111089999000019006TSONIA                    SIERRA                   INFANTE                  F000000000000000000N
022019111089999000019007TJOSE MARÍA               CANO                     NAVARRO                  M000000000000000000N
022019111089999000019008TLAIA                     GARRIDO                  ANGARON                  F000000000000000000N
022019111089999000019009TCARLOS                   AGUILAR                  MORENO                   M000000000000000000N
022019111089999000019010TMARÍA CRISTINA           CORONA                   GUIJARRO                 F000000000000000000N
022019111089999000019011TISABEL                   MARTÍNEZ                 COMAS                    F000000000000000000N
022019111089999000019012TFRANCISCO                AVILÉS                   SALAZAR                  M000000000000000000N
022019111089999000019013TSARAY                    CANTERO                  GARCÍA                   F000000000000000000N
022019111089999000019014TCAROLINA                 TORRES                   GARCÍA                   F000000000000000000N
022019111089999000019015TRAUL                     GONZÁLEZ                 FUENTES                  M000000000000000000N
022019111089999000019016TMARÍA                    DUARTE                   APARICIO                 F000000000000000000N
022019111089999000019017TRAFAEL                   YEPES                    RUIZ                     M000000000000000000N
022019111089999000019018TANTONIO MIGUEL           RUIZ                     REDONDO                  M000000000000000000N
022019111089999000019019TPEDRO                    SÁNCHEZ                  ÁLVAREZ                  M000000000000000000N
022019111089999000019020TSONIA                    REINA                    SÁNCHEZ                  F000000000000000000N
022019111089999000019021TMANUEL                   TORNÉ                    BUESO                    M000000000000000000N
022019111089999000019022TSONIA                    RODRÍGUEZ                RUIZ                     F000000000000000000N
022019111089999000019023TFRANCISCO                GAVILÁN                  PEÑA                     M000000000000000000N
022019111089999000019024TMANUEL                   LOSADA                   SEIVANE                  M000000000000000000N
022019111089999000019025TCRISTINA                 CLARET                   FERNÁNDEZ                F000000000000000000N
022019111089999000019026TERICA                    QUINTERO                 ULTRARAN                 F000000000000000000N
022019111089999000019027TANNA MARIA               TORRA                    GARRIDO                  F000000000000000000N
022019111089999000019028TTAHIR                    RAFI                     KHANUM                   M000000000000000000N
022019111089999000019029TDANIEL                   MARTÍNEZ                 RODRÍGUEZ                M000000000000000000N
022019111089999000019030TRAQUEL                   QUILES                   PUERTO                   F000000000000000000N
022019111089999000019031TNICOLÁS                  ORTIZ                    CUEVAS                   M000000000000000000N
022019111089999000019032TMARÍA LUZ                GUILARTE                 SÁNCHEZ                  F000000000000000000N
022019111089999000020001TMireia                   Vehí                     Catenys                  F000000000000000000S
022019111089999000020002TAlbert                   Botran                   Pahissa                  M000000000000000000S
022019111089999000020003TEulàlia                  Reguant                  Cura                     F000000000000000000N
022019111089999000020004TAleix                    Auber                    Álvarez                  M000000000000000000N
022019111089999000020005TEsther                   del Alcazar              Fabregat                 F000000000000000000N
022019111089999000020006TMaties                   Serracant                Camps                    M000000000000000000N
022019111089999000020007TPilar                    Castillejo               Medina                   F000000000000000000N
022019111089999000020008TJulià                    de Jòdar                 Muñoz                    M000000000000000000N
022019111089999000020009TMaria Eva                Fernàndez                Lamelas                  F000000000000000000N
022019111089999000020010TIgnasi                   Bea                      Seguí                    M000000000000000000N
022019111089999000020011TManuel José              Moles                    Canal                    M000000000000000000N
022019111089999000020012TNeus                     Roca                     Miró                     F000000000000000000N
022019111089999000020013TIvan                     Altimira                 Miralles                 M000000000000000000N
022019111089999000020014TEddy                     Fabregat                 Graneri                  F000000000000000000N
022019111089999000020015TJesús Albert             Magallón                 Mora                     M000000000000000000N
022019111089999000020016TMaria                    Oliver                   Reche                    F000000000000000000N
022019111089999000020017TLluc                     Vinyes                   Pelàez                   M000000000000000000N
022019111089999000020018TNúria                    Comerma                  Cortada                  F000000000000000000N
022019111089999000020019TJordi                    Casas                    Caritg                   M000000000000000000N
022019111089999000020020TJudit                    Costa                    Pagès                    F000000000000000000N
022019111089999000020021TOscar                    Mendoza                  Gomez                    M000000000000000000N
022019111089999000020022TEva                      Vendrell                 Sarroca                  F000000000000000000N
022019111089999000020023TAbel                     Maruny                   Sales                    M000000000000000000N
022019111089999000020024TMaria Jesús              Merino                   Asensio                  F000000000000000000N
022019111269999000098002TMaite                    San José                 González                 F000000000000000000N
022019111269999000098003TGaizka                   Uceda                    Loroño                   M000000000000000000N
022019111269999000098004TMaría Pilar              Segura                   Catalán                  F000000000000000000N
022019111269999000101001TAdoración Ángeles        Gallardo                 Vallejo                  F000000000000000000N
022019111269999000101002TSantiago                 Olalla                   Moreno                   M000000000000000000N
022019111269999000101003TJudith                   Laviña                   Millán                   F000000000000000000N
022019111269999000101004TRaúl                     Anadón                   Pedrola                  M000000000000000000N
022019111269999000116001TJorge Arturo             Cutillas                 Cordón                   M000000000000000000N
022019111269999000116002TMaría Teresa             Arnedo                   Pérez                    F000000000000000000N
022019111269999000116003TBelinda                  Couceiro                 Redondo                  F000000000000000000N
022019111269999000116004TMiguel Angel             Blanco                   Montoya                  M000000000000000000N
022019111279999000010001TOlalla                   Rodil                    Fernández                F000000000000000000N
022019111279999000010002TYann Georges             Pouliquen                Kerlau                   M000000000000000000N
022019111279999000010003TConcepción               García                   Iglesias                 F000000000000000000N
022019111279999000010004TDaniel                   Castro                   García                   M000000000000000000N
022019111279999000011001TXaime Manuel             Requeixo                 Souto                    M000000000000000000N
022019111279999000011002TFernando                 del Río                  Iglesias                 M000000000000000000N
022019111279999000011003TLaura                    Rodríguez                Espansandín              F000000000000000000N
022019111279999000011004TAna                      Folgueira                Pérez                    F000000000000000000N
022019111279999000018001TJosé Manuel              Blanco                   López                    M000000000000000000N
022019111279999000018002TFrancisco                Pintado                  Otero                    M000000000000000000N
022019111279999000018003TCarla María              Campo                    Dacal                    F000000000000000000N
022019111279999000018004TMaría Victoria           García                   Vázquez                  F000000000000000000N
022019111279999000055001TLaura                    Castro                   Martínez                 F000000000000000000N
022019111279999000055002TAlejandro                Villamor                 Iglesias                 M000000000000000000N
022019111279999000055003TMaría del Mar            Alonso                   Dopeso                   F000000000000000000N
022019111279999000055004TAlberto                  Rodríguez                Vázquez                  M000000000000000000N
022019111279999000057001TCristian                 Bergantiños              Álvarez                  M000000000000000000N
022019111279999000057002TAida                     Sánchez                  Iglesias                 F000000000000000000N
022019111279999000057003TAgustín Ignacio          Grisanti                 Fernández                M000000000000000000N
022019111279999000057004TJulia                    Martínez                 Rodríguez                F000000000000000000N
022019111279999000067001TMarina                   Quintillán               Núñez                    F000000000000000000N
022019111279999000067002TJosé                     Fernández                Reguera                  M000000000000000000N
022019111279999000067003TAna Marta                García                   Rea                      F000000000000000000N
022019111279999000067004TJoel                     Varela                   Besteiro                 M000000000000000000N
022019111279999000074001TVanessa                  Somoza                   Domínguez                F000000000000000000N
022019111279999000074002TBegoña                   Pedrouzo                 Vázquez                  F000000000000000000N
022019111279999000074003TJosé Manuel              Pérez                    Afonso                   M000000000000000000N
022019111279999000074004TFrancisco                Jiménez                  Corpas                   M000000000000000000N
022019111279999000083001TJaime Eduardo            de Olano                 Vela                     M000000000000000000S
022019111279999000083002TJoaquín María            García                   Díez                     M000000000000000000S
022019111279999000083003TMercedes Josefina        González                 Alonso                   F000000000000000000N
022019111279999000083004TMaría del Mar            Carballas                Piñeiro                  F000000000000000000N
022019111279999000093001TAna                      Prieto                   Nieto                    F000000000000000000S
022019111279999000093002TJavier                   Cerqueiro                González                 M000000000000000000S
022019111279999000093003TMarta                    Rouco                    Seoane                   F000000000000000000N
022019111279999000093004TDaniel                   Castro                   Fernández                M000000000000000000N
022019111279999000097001TLila                     Fernández                Delgado                  F000000000000000000N
022019111279999000097002TEduardo                  Rapaport                 Escardo                  M000000000000000000N
022019111279999000097003TYadiris                  Rivero                   García                   F000000000000000000N
022019111279999000097004TManuel                   Navajas                  Segovia                  M000000000000000000N
022019111279999000101001TCarmen                   Espiñeira                López                    F000000000000000000N
022019111279999000101002TMarcos                   Mouriño                  López                    M000000000000000000N
022019111279999000101003TMaría del Carmen         Soliño                   Castro                   F000000000000000000N
022019111279999000101004TCesar                    Cela                     Díaz                     M000000000000000000N
022019111279999000116001TCristian                 González                 Nogueira                 M000000000000000000N
022019111279999000116002TManuel                   Menéndez                 Mato                     M000000000000000000N
022019111279999000116003TMaria del Carmen         Pardo                    Prado                    F000000000000000000N
022019111279999000116004TEva                      Castiñeira               Bellón                   F000000000000000000N
022019111039999000098012TModesto                  Gutiérrez                Gutiérrez                M000000000000000000N
022019111039999000101001TGertrudis                Hurtado                  García                   F000000000000000000N
022019111039999000101002TBorja                    Mansilla                 Álvarez                  M000000000000000000N
022019111039999000101003TIsabel                   Olmo                     Olmo                     F000000000000000000N
022019111039999000101004TJuan                     López                    Yébenes                  M000000000000000000N
022019111039999000101005TSagrario                 Guillén                  Dengra                   F000000000000000000N
022019111039999000101006TCarmen                   Sáez                     Menchacatorre            F000000000000000000N
022019111039999000101007TJuan Ramón               Jaén                     Morcillo                 M000000000000000000N
022019111039999000101008TJosefina                 Álvarez                  Carrasco                 F000000000000000000N
022019111039999000101009TDiego                    Ruano                    Rubio                    M000000000000000000N
022019111039999000101010TJoan Carles              Caldentey                Matheu                   M000000000000000000N
022019111039999000101011TIgnacio                  Baos                     Pérez                    M000000000000000000N
022019111039999000101012TJosefa                   Mateo                    Rubio                    F000000000000000000N
022019111039999000116001TManuel                   Mestre                   Barea                    M000000000000000000S
022019111039999000116002TJosé María               Sánchez                  García                   M000000000000000000S
022019111039999000116003TEduardo Luís             Ruiz                     Navarro                  M000000000000000000S
022019111039999000116004TMónica                   Borrás                   Alós                     F000000000000000000N
022019111039999000116005TMatilde                  García                   Lozano                   F000000000000000000N
022019111039999000116006TJuan Francisco           García                   Moltó                    M000000000000000000N
022019111039999000116007TMaría Isabel             Domínguez                Pomares                  F000000000000000000N
022019111039999000116008TNuria                    Pujante                  Carrillo                 F000000000000000000N
022019111039999000116009TJaime                    Rozalén                  Romo                     M000000000000000000N
022019111039999000116010TMarisol                  Sanchís                  Martínez                 F000000000000000000N
022019111039999000116011TBorja                    Sánchez                  Garrido                  M000000000000000000N
022019111039999000116012TLourdes                  Masegosa                 Navarro                  F000000000000000000N
022019111049999000009001TElisabeth                Estévez                  Martín                   F000000000000000000N
022019111049999000009002TFrancisco                Martín                   Leiva                    M000000000000000000N
022019111049999000009003TAdelaida Isabel          Casanova                 García                   F000000000000000000N
022019111049999000009004TMiguel                   Puentes                  Matías                   M000000000000000000N
022019111049999000009005TMaría Carmen             Fortes                   Fernández                F000000000000000000N
022019111049999000009006TJesús                    Linares                  Peña                     M000000000000000000N
022019111049999000018001TJosé Manuel              Villegas                 Pérez                    M000000000000000000N
022019111049999000018002TVicente                  García                   Egea                     M000000000000000000N
022019111049999000018003TPedro Manuel             Peña                     Sánchez                  M000000000000000000N
022019111049999000018004TIsabel María             Manzanares               Muñoz                    F000000000000000000N
022019111049999000018005TJuana Lourdes            Soler                    Ramos                    F000000000000000000N
022019111049999000018006TVerónica                 Gómez                    Gómez                    F000000000000000000N
022019111049999000023001TMariana                  García                   Hernández                F000000000000000000N
022019111049999000023002TJosé Antonio             del Moral                Arroyo                   M000000000000000000N
022019111049999000023003TMaría Carmen             Rodríguez                Nieto                    F000000000000000000N
022019111049999000023004TJosé                     Ibáñez                   Benzal                   M000000000000000000N
022019111049999000023005TCarmen Viridiana         López                    Rodríguez                F000000000000000000N
022019111049999000023006TFrancisco                López                    Contreras                M000000000000000000N
022019111049999000055001TManuel                   Conejero                 Calvo-Flores             M000000000000000000N
022019111049999000055002TMarina                   Gil                      Martínez                 F000000000000000000N
022019111049999000055003TFrancesc Xavier          Sotorra                  Martorell                M000000000000000000N
022019111049999000055004TPriscila                 Fernández                Vidal                    F000000000000000000N
022019111049999000055005TJuan Antonio             Rodríguez                Yáñez                    M000000000000000000N
022019111049999000055006TRosa                     Garrido                  Serrano                  F000000000000000000N
022019111049999000058001TRosario                  Carvajal                 Ávila                    F000000000000000000N
022019111049999000058002TBeatriz                  Martínez                 Estrada                  F000000000000000000N
022019111049999000058003TAdrián                   Piedra                   Calvo                    M000000000000000000N
022019111049999000058004TAna Isabel               Moraleda                 Blázquez                 F000000000000000000N
022019111049999000058005TRamón                    Quirante                 Sánchez                  M000000000000000000N
022019111049999000058006TJesús Damián             Hurraco                  López                    M000000000000000000N
022019111049999000081001TRaquel                   Martínez                 Aguilera                 F000000000000000000N
022019111049999000081002TRoberto                  Álvarez                  Gómez                    M000000000000000000N
022019111049999000081003TMaría Jesús              Manzano                  González                 F000000000000000000N
022019111049999000081004TAlejandro                Gil                      Hernández                M000000000000000000N
