022004031049999000001001TJosé                     Maldonado                Garrido                   00000000          N
022004031049999000001002TMartín                   Salinas                  Cazorla                   00000000          N
022004031049999000001003TCasimiro                 Fernández                Amador                    00000000          N
022004031049999000001004TMiguel José              Moya                     Guirado                   00000000          N
022004031049999000001005TIndalecio                Gutiérrez                Muñoz                     00000000          N
022004031049999000002001TJosé Fermín              Román                    Clemente                  00000000          N
022004031049999000002002TMaría Dolores            López                    Cuadrado                  00000000          N
022004031049999000002003TManuel                   Camacho                  García                    00000000          N
022004031049999000002004TMaría Jesús              Ortega                   Martínez                  00000000          N
022004031049999000002005TSerafín                  Alarcón                  López                     00000000          N
022004031049999000024001TJuan José                Ruiz                     Ferre                     00000000          N
022004031049999000024002TFrancisco José Pablo     Romero                   Sánchez                   00000000          N
022004031049999000024003TAna                      Martínez                 Carreño                   00000000          N
022004031049999000024004TGenoveva Concepción      Márquez                  Ibáñez                    00000000          N
022004031049999000024005TIsabel                   Salazar                  Domínguez                 00000000          N
022004031049999000025001TGregorio                 Ambrosio                 Cestero                   00000000          N
022004031049999000025002TIsabel María             Luque                    Luque                     00000000          N
022004031049999000025003TRamón                    Higueras                 Higueras                  00000000          N
022004031049999000025004TCristóbal                Moya                     Muñoz                     00000000          N
022004031049999000025005TJoaquín Francisco        Bermejo                  Salas                     00000000          N
022004031049999000034001TJuan Jesús               Barranco                 García                    00000000          N
022004031049999000034002TPatricia Encarnación     Heredia                  Giménez                   00000000          N
022004031049999000034003TCarlos                   Villaure                 Cararach                  00000000          N
022004031049999000034004TAna María                Bastos                   Peralta                   00000000          N
022004031049999000034005TNicolás                  Cortina                  Nieto                     00000000          N
022004031049999000052001TGinés                    de Haro                  Rossi                     00000000          N
022004031049999000052002TManuel                   Martínez                 Amate                     00000000          N
022004031049999000052003TJosé Carlos              Cazorla                  Cazorla                   00000000          N
022004031049999000052004TFrancisco                Cara                     Fernández                 00000000          N
022004031049999000052005TAlejandro Tomás          Toledano                 Segovia                   00000000          N
022004031049999000053001TDavid                    Castillo                 San Martín                00000000          N
022004031049999000053002TMaría Raquel             Bargados                 Quintas                   00000000          N
022004031049999000053003TMario                    Junquera                 Herrera                   00000000          N
022004031049999000053004TJesús Ignacio            Escarda                  López                     00000000          N
022004031049999000053005TJosé                     Fernández                Saiz                      00000000          N
022004031049999000065001TMaría Rubí               Casado                   Viejo                     00000000          N
022004031049999000065002TEduardo                  Barrero                  González                  00000000          N
022004031049999000065003TSergio                   Caballero                Sánchez                   00000000          N
022004031049999000065004TAndrés                   Garachana                Lorenzo                   00000000          N
022004031049999000065005TMaría Jesús              Uriarte                  Sebastián                 00000000          N
022004031049999000077001TDiego Jesús              Cervantes                Ocaña                     00000000          N
022004031049999000077002TEncarnación              Moreno                   Flores                    00000000          N
022004031049999000077003TRodrigo José             González                 Soler                     00000000          N
022004031049999000077004TTeresa                   Novo                     García                    00000000          N
022004031049999000077005TAgustín                  de Sagarra               Chao                      00000000          N
022004031049999000090001TAntonio                  Martínez                 Cayuela                   00000000          N
022004031049999000090002TJosé Fermín              Villena                  Martín                    00000000          N
022004031049999000090003TJuan Carlos              Montilla                 Miralles                  00000000          N
022004031049999000090004TAntonio                  Miras                    Ramos                     00000000          N
022004031049999000090005TEsther                   Merino                   Pérez                     00000000          N
022004031049999000098001TManuel                   Tijeras                  Cruz                      00000000          N
022004031049999000098002TMaría del Mar            García                   Martín                    00000000          N
022004031049999000098003TAntonio                  Cabrera                  Gea                       00000000          N
022004031049999000098004TManuela Ana              Vicente                  García                    00000000          N
022004031049999000098005TFrancisco Manuel         Sánchez                  Berenguel                 00000000          N
022004031049999000101001TMaría Isabel             Martín                   Aguilera                  00000000          N
022004031049999000101002TAdelina de Jesús         Calleja                  López                     00000000          N
022004031049999000101003TJuan Carlos              Lagarón                  Fernández                 00000000          N
022004031049999000101004TIsabel                   Aguilera                 Maturana                  00000000          N
022004031049999000101005TLuis Raúl                Calleja                  Serrador                  00000000          N
022004031049999000111001TMaría                    Martínez                 Reche                     00000000          N
022004031049999000111002TMaría del Carmen         Castelló                 Llorens                   00000000          N
022004031049999000111003TRaúl                     Ortiz                    Mira                      00000000          N
022004031049999000111004TSerafín                  Mirón                    Merlos                    00000000          N
022004031049999000111005TRamón                    Colomina                 Fernández                 00000000          N
022004031049999000117001TAna María                Rodríguez                San Vicente               00000000          N
022004031049999000117002TMaría Isabel             Cruz                     Bueno                     00000000          N
022004031049999000117003TJesús Javier             González                 Clu                       00000000          N
022004031049999000117004TFernanda                 Rodríguez                Díez                      00000000          N
022004031049999000117005TJosé Luis                Bonaño                   Méndez                    00000000          N
022004031049999000118001TAngel                    Martín                   Hernández                 00000000          N
022004031049999000118002TLuisa                    Mira                     Porras                    00000000          N
022004031049999000118003TAntonio                  Benítez                  Jaime                     00000000          N
022004031049999000118004TVirginia                 Martínez                 Navarro                   00000000          N
022004031049999000118005TGerardo                  Rojas                    García                    00000000          N
022004031049999000130001TRafael Antonio           Hernando                 Fraile                    00000000          S
022004031049999000130002TJuan José                Matarí                   Sáez                      00000000          S
022004031049999000130003TRosalía Angeles          Espinosa                 López                     00000000          N
022004031049999000130004TPedro                    Asensio                  Romero                    00000000          N
022004031049999000130005TAna María                León                     González                  00000000          N
022004031049999000138001TRoque                    Martínez                 Calvo                     00000000          N
022004031049999000138002TJosé Manuel              Medina                   Reyes                     00000000          N
022004031049999000138003TFrancisco Javier         Capel                    López                     00000000          N
022004031049999000138004TIsabel                   Aguilar                  Sánchez                   00000000          N
022004031049999000138005TCarolina                 Martínez                 García                    00000000          N
022004031049999000146001TFrancisco                Contreras                Pérez                     00000000          S
022004031049999000146002TMaría Consuelo           Rumí                     Ibáñez                    00000000          S
022004031049999000146003TMaría del Carmen         Ortiz                    Rivas                     00000000          S
022004031049999000146004TCarmelo                  López                    Villena                   00000000          N
022004031049999000146005TSerafín                  Robles                   Péramo                    00000000          N
022004031049999000150001TDavid                    Peña                     González                  00000000          N
022004031049999000150002TJesús María              Soto                     Pérez                     00000000          N
022004031049999000150003TIsabel                   Guerra-Librero           Bonilla                   00000000          N
022004031049999000150004TLidia                    Velasco                  Molina                    00000000          N
022004031049999000150005TJuan Francisco           Remacho                  Hernández                 00000000          N
022004031119999000001001TJosé                     Ortega                   Ortega                    00000000          N
022004031119999000001002TAgustin                  Martín                   Espinosa                  00000000          N
022004031119999000001003TMaria Josefa             López                    Guerrero                  00000000          N
022004031119999000001004TFrancisco                Aza                      Ramirez                   00000000          N
022004031119999000001005TAna María                Gutierrez                Macias                    00000000          N
022004031119999000001006TMaria Eugenia            Herrera                  Martin Eugenio            00000000          N
022004031119999000001007TJuan José                Sánchez                  Romero                    00000000          N
022004031119999000001008TMaria de la Soledad      Cabrera                  Alonso                    00000000          N
022004031119999000001009TEsperanza                Macias                   Muñoz                     00000000          N
022004031119999000024001TRomulo                   Dominguez                León                      00000000          N
022004031119999000024002TAntonio                  Gutierrez                Palacios                  00000000          N
022004031119999000024003TJosé                     Espinosa                 Aguilar                   00000000          N
022004031119999000024004TJose María               Pizarro                  López                     00000000          N
022004031119999000024005TJose Antonio             Troya                    Toledo                    00000000          N
022004031119999000024006TMaría Pilar              Fernández                Riol                      00000000          N
022004031119999000024007TSerapio                  Herrero                  Luengo                    00000000          N
022004031119999000024008TCristina                 Ruiz                     Gutierrez                 00000000          N
022004031119999000024009TJuan Antonio             Dominguez                Diaz                      00000000          N
022004031119999000025001TRaimundo                 Garcia                   Senechal                  00000000          N
022004031119999000025002TLaura                    Mateos                   Parraga                   00000000          N
022004031119999000025003TJavier Yamil             Mateos                   Parraga                   00000000          N
022004031119999000025004TFrancisco Javier         Lainez                   Castillo                  00000000          N
022004031119999000025005TMaria Paz                Hidalgo                  Abad                      00000000          N
022004031119999000025006TFrancisco Jose           Marin                    Gonzalez                  00000000          N
022004031119999000025007TJulio                    Ruiz                     Ruiz                      00000000          N
022004031119999000025008TMaria Cecilia            Ruiz                     Ferron                    00000000          N
022004031119999000025009TJulia                    Fontenla                 Castilla                  00000000          N
022004031119999000034001TAna                      Sanchez                  Castaño                   00000000          N
022004031119999000034002TAlberto                  Pinzón                   Rodríguez                 00000000          N
022004031119999000034003TPedro Rafael             Losada                   Orega                     00000000          N
022004031119999000034004TNicolas                  López                    Saez                      00000000          N
022004031119999000034005TJosé                     Villar                   Rodríguez                 00000000          N
022004031119999000034006TSalvador                 Macipe                   Gimenez                   00000000          N
022004031119999000034007TEva                      Navarro                  García                    00000000          N
022004031119999000034008TEnrique                  Armengol                 Calvera                   00000000          N
022004031119999000034009TMaria Luisa              Sosa                     Ollero                    00000000          N
022004031119999000052001TJosé Luis                Antolín                  De Antonio                00000000          N
022004031119999000052002TJulio                    Gutierrez                Marquez                   00000000          N
022004031119999000052003TRogelio Antonio          Gómez                    Gómez                     00000000          N
022004031119999000052004TJosé Luis                Sabajanes                Gonzalez                  00000000          N
022004031119999000052005TFrancisco Manuel         Segura                   Panes                     00000000          N
022004031119999000052006TFrancisco                Gutierrez                Marquez                   00000000          N
022004031119999000052007TCecilio Antonio          Sánchez                  Tarifa                    00000000          N
022004031119999000052008TAntonio                  Sánchez                  Romera                    00000000          N
022004031119999000052009TPablo                    Calahorro                Jimenez                   00000000          N
022004031119999000053001TIsabel María             Montañes                 Ruiz                      00000000          N
022004031119999000053002TEnrique                  De Mora                  Molina                    00000000          N
022004031119999000053003TJacobo                   Ruiz                     Rodriguez                 00000000          N
022004031119999000053004TMaria Victoria           Quirós                   Gómez                     00000000          N
022004031119999000053005TFernando                 Campos                   Gallardo                  00000000          N
022004031119999000053006TJuan Miguel              Dominguez                Martinez                  00000000          N
022004031119999000053007TJuan                     Castillo                 Parejo                    00000000          N
022004031119999000053008TAntonio                  Cortes                   Sarria                    00000000          N
022004031119999000053009TJosé                     Ballesteros              Blanco                    00000000          N
022004031119999000065001TDavid                    Ruano                    Delgado                   00000000          N
022004031119999000065002TFrancisco Javier         Navarro                  Barrero                   00000000          N
022004031119999000065003TJesús Ramón              Rodriguez                Romero                    00000000          N
022004031119999000065004TMaria del Carmen         Andrades                 Muñiz                     00000000          N
022004031119999000065005TFrancisco Javier         Salas                    Díaz                      00000000          N
022004031119999000065006TMaria del Carmen         Díaz                     Fernández                 00000000          N
022004031119999000065007TAndrés Francisco         García                   Gutierrez                 00000000          N
022004031119999000065008TMarcos                   Rodriguez                Sánchez                   00000000          N
022004031119999000065009TJuan                     Mariño                   Regife                    00000000          N
022004031119999000077001TWilly Enrique            Meyer                    Pleite                    00000000          N
022004031119999000077002TMaria Aranzazu           Azcunaga                 Temprano                  00000000          N
022004031119999000077003TJavier                   Mohedano                 Ruano                     00000000          N
022004031119999000077004TMaria del Mar            Ruiz                     Flor                      00000000          N
022004031119999000077005TSebastián                Terrada                  Galán                     00000000          N
022004031119999000077006TBibiana                  Moreno                   Ruiz-Herrera              00000000          N
022004031119999000077007TManuel                   Moreno                   Romero                    00000000          N
022004031119999000077008TAmparo del Carmen        Raposo                   Campos                    00000000          N
022004031119999000077009TJosé Antonio             Barroso                  Toledo                    00000000          N
022004031119999000090001TLuis Gonzaga             Ruiz                     Marcos                    00000000          N
022004031119999000090002TVanessa                  Galán                    Sánchez                   00000000          N
022004031119999000090003TJosé Luis                Griera                   Baras                     00000000          N
022004031119999000090004TFrancisco                López                    Robles                    00000000          N
022004031119999000090005TMiguel                   Mérida                   Caras                     00000000          N
022004031119999000090006TBernardo                 Dominguez                Naranjo                   00000000          N
022004031119999000090007TJuan Pedro               Dawber                   Gragera                   00000000          N
022004031119999000090008TDavid                    Marco                    Gómez                     00000000          N
022004031119999000090009TAntonio                  Cruz                     García                    00000000          N
022004031119999000098001TJosé Antonio             González                 Pavón                     00000000          N
022004031119999000098002TFrancisco Javier         Cabezas                  Arenas                    00000000          N
022004031119999000098003TMaría Antonia            Martínez                 Valera                    00000000          N
022004031119999000098004TJorge                    Romero                   Salazar                   00000000          N
022004031119999000098005TMaría Teresa             Vaca                     Ferrer                    00000000          N
022004031119999000098006TAntonio                  Olid                     Troya                     00000000          N
022004031119999000098007TMaría Angeles            Cabello                  Rodríguez                 00000000          N
022004031119999000098008TGabriel                  Guerrero                 Mota                      00000000          N
022004031119999000098009TAna María                Romero                   Benitez                   00000000          N
022004031119999000111001TMercedes                 Martos                   Rueda                     00000000          N
022004031119999000111002TRaúl                     Ortega                   Pedrero                   00000000          N
022004031119999000111003TFrancisco                Ribera                   Ruiz                      00000000          N
022004031119999000111004TAntonia                  Rios                     Salcedo                   00000000          N
022004031119999000111005TAna María                Delgado                  Romero                    00000000          N
022004031119999000111006TJosé                     Cruz                     Ruiz                      00000000          N
022004031119999000111007TMaría Josefa             Guerrero                 Fernández                 00000000          N
022004031119999000111008TAntonio                  Gómez                    Martos                    00000000          N
022004031119999000111009TMaría Isabel             García                   Ramírez                   00000000          N
022004031119999000118001TFrancisco                Barroso                  Perez                     00000000          N
022004031119999000118002TMaria Jesus              Rodriguez                Nuñez                     00000000          N
022004031119999000118003TManuel                   Martinez                 Pascual                   00000000          N
022004031119999000118004TJuan Carlos              Olmo                     Estevez                   00000000          N
022004031119999000118005TDolores                  Jimenez                  Pilero                    00000000          N
022004031119999000118006TJose Manuel              De Las Heras             Bautista                  00000000          N
022004031119999000118007TMaria Consuelo           Gonzalez                 Lopez                     00000000          N
022004031119999000118008TMaria de los Remedios    Madrid                   Fernandez                 00000000          N
022004031119999000118009TLuisa                    Galeano                  Rodriguez                 00000000          N
022004031119999000130001TMiguel                   Arias                    Cañete                    00000000          S
022004031119999000130002TAurelio                  Sánchez                  Ramos                     00000000          S
022004031119999000130003TJesús                    Mancha                   Cadenas                   00000000          S
022004031119999000130004TAurelio                  Romero                   Girón                     00000000          N
022004031119999000130005TMaría Pilar              Chacón                   Fernández                 00000000          N
022004031119999000130006TVirginia                 Drukaroff                Rey                       00000000          N
022004031119999000130007TJuan Antonio             Liaño                    Pazos                     00000000          N
022004031119999000130008TFrancisco                Andujar                  Junquera                  00000000          N
022004031119999000130009TRubén                    Montero                  Trujillano                00000000          N
022004031119999000133001TJuan                     Corrales                 Martinez                  00000000          N
022004031119999000133002TLaura                    Cortés                   Molina                    00000000          N
022004031119999000133003TDiego                    Rivas                    Fernández                 00000000          N
022004031119999000133004TAntonio                  Romera                   Rodriguez                 00000000          N
022004031119999000133005TMaría Inés               Mota                     Sierra                    00000000          N
022004031119999000133006TJavier                   Hidalgo                  Santander                 00000000          N
022004031119999000133007TJuana                    Romero                   Ocaña                     00000000          N
022004031119999000133008TAntonio Jesús            Macías                   Gavira                    00000000          N
022004031119999000133009TSalvador                 Rocamonde                Enriquez                  00000000          N
022004031119999000138001TMaria del Carmen         García                   Fernández                 00000000          N
022004031119999000138002TRafael Eduardo           Teran                    Hidalgo                   00000000          N
022004031119999000138003TMaria de los Angeles     Polanco                  Muñoz                     00000000          N
022004031119999000138004TMiguel Angel             López                    Carmona                   00000000          N
022004031119999000138005TAntonia                  Asencio                  Garcia                    00000000          N
022004031119999000138006TClodoveo                 Vargas                   Bernal                    00000000          N
022004031119999000138007TRocio                    Garrido                  Jaramillo                 00000000          N
022004031119999000138008TMiguel Angel             Tamayo                   Martín                    00000000          N
022004031119999000138009TIsabel María             Castellano               Jimenez                   00000000          N
022004031119999000146001TAlfonso                  Perales                  Pizarro                   00000000          S
022004031119999000146002TMaria del Carmen         Sánchez                  Diaz                      00000000          S
022004031119999000146003TRafael                   Román                    Guerrero                  00000000          S
022004031119999000146004TSalvador Antonio         De la Encina             Ortega                    00000000          S
022004031119999000146005TEncarnación              Niño                     Rico                      00000000          S
022004031119999000146006TMaria Isabel             Fuentes                  Gonzalez                  00000000          S
022004031119999000146007TMaria Josefa             Ponce                    Aguilera                  00000000          N
022004031119999000146008TDolores                  Virues                   Fornell                   00000000          N
022004031119999000146009TJosé                     Cerejido                 Romero                    00000000          N
022004031119999000150001TJesús                    Caballero                Ragel                     00000000          N
022004031119999000150002TRafael                   Madrid                   Sampedro                  00000000          N
022004031119999000150003TCarlos                   Rigual                   Heredia                   00000000          N
022004031119999000150004TLuisa Maria              Ferrer                   Sánchez                   00000000          N
022004031119999000150005TRafael Antonio           Cabrera                  De la Calle               00000000          N
022004031119999000150006TAdela                    Bermejo                  Fernández                 00000000          N
022004031119999000150007TAntonio                  Jimenez                  Tenorio                   00000000          N
022004031119999000150008TMaria del Carmen         Pérez                    Fernández                 00000000          N
022004031119999000150009TJesús Gonzaga            Serrano                  Peña                      00000000          N
022004031149999000001001TManuel                   Cosano                   Molina                    00000000          N
022004031149999000001002TAntonio                  Espejo                   Arévalo                   00000000          N
022004031149999000001003TManuel                   González                 Pérez                     00000000          N
022004031149999000001004TAnabel                   Sánchez                  Morales                   00000000          N
022004031149999000001005TAlberto                  Fazio                    García                    00000000          N
022004031149999000001006TClara                    López                    Jiménez                   00000000          N
022004031149999000001007TDavid                    Alvarez                  Fernández                 00000000          N
022004031149999000024001TAngel                    Cantero                  Medina                    00000000          N
022004031149999000024002TCarolina                 González                 Rodriguez                 00000000          N
022004031149999000024003TGonzalo                  Muñoz                    Carretero                 00000000          N
022004031149999000024004TPiedad                   Rodríguez                Suarez                    00000000          N
022004031149999000024005TVíctor                   Rufo                     Benito                    00000000          N
022004031149999000024006TJosé Ramón               Gutiérrez                Hernández                 00000000          N
022004031149999000024007TFrancisco                Cuadros                  Cuartero                  00000000          N
022004031149999000025001TLuis                     Ferreiro                 Almeda                    00000000          N
022004031149999000025002TMaria Luisa              Chavez                   García                    00000000          N
022004031149999000025003TMaria del Carmen         Martínez                 Pérez                     00000000          N
022004031149999000025004TJosé Andrés              García                   Soto                      00000000          N
022004031149999000025005TManuel                   Sánchez Matamoros        Pérez                     00000000          N
022004031149999000025006TJaime                    Cepeda                   Ponce                     00000000          N
022004031149999000025007TBeatriz                  Mateos                   Párraga                   00000000          N
022004031149999000034001TRafael Rodrigo           Santos                   Pérez                     00000000          N
022004031149999000034002TMaría Raquel             Olmedo                   Hernández                 00000000          N
022004031149999000034003TMiguel                   Pérez                    García                    00000000          N
022004031149999000034004TPatricio                 López                    Villalvilla               00000000          N
022004031149999000034005TCésar                    Fernández                Gil                       00000000          N
022004031149999000034006TJosé                     García                   Peral                     00000000          N
022004031149999000034007TRoberto                  Jiménez                  Blanco                    00000000          N
022004031149999000052001TPedro                    Perales                  Rodríguez                 00000000          N
022004031149999000052002TJesús Andrés             Hernández                Zapico                    00000000          N
022004031149999000052003TAlfredo                  Merino                   Fernández                 00000000          N
022004031149999000052004TFrancisco Javier         Alvarez                  Díez                      00000000          N
022004031149999000052005TOvidio Florián           De Castro                González                  00000000          N
022004031149999000052006TMarcelino                Herrero                  Valverde                  00000000          N
022004031149999000052007TAlfredo                  González                 Ferreras                  00000000          N
022004031149999000053001TJoaquin Antonio          Lorenzo                  Amoedo                    00000000          N
022004031149999000053002TJosé María               Mediero                  Rega                      00000000          N
022004031149999000053003TManuel Angel             Paz                      Fuentes                   00000000          N
022004031149999000053004TJosé María               Velasco                  Calvo                     00000000          N
022004031149999000053005TYolanda                  Giménez                  Hernández                 00000000          N
022004031149999000053006TRicardo José             Vazquez                  Tapia                     00000000          N
022004031149999000053007TAntonio                  López                    Iglesias                  00000000          N
022004031149999000065001TInmaculada               Gil                      Ponce de León             00000000          N
022004031149999000065002TJosé                     Andrés                   de Blas                   00000000          N
022004031149999000065003TSara                     Cabrera                  García                    00000000          N
022004031149999000065004TAngel                    de la Fuente             Vara                      00000000          N
022004031149999000065005TJosé Luís                Fernández                García                    00000000          N
022004031149999000065006TFernando                 Lucas                    Laira                     00000000          N
022004031149999000065007TJosé Luís                Ibañez                   Sierra                    00000000          N
022004031149999000077001TLuis Carlos              Rejón                    Gieb                      00000000          N
022004031149999000077002TElena                    Cortés                   Jiménez                   00000000          N
022004031149999000077003TAntonio María            Cabrera                  García                    00000000          N
022004031149999000077004TMaría del Pilar          Lorenzo                  Cano                      00000000          N
022004031149999000077005TJuan                     Gálvez                   Pino                      00000000          N
022004031149999000077006TAntonia                  Misas                    Casado                    00000000          N
022004031149999000077007TJosé                     García                   Cabello                   00000000          N
022004031149999000090001TGregorio                 Santos                   Vidal                     00000000          N
022004031149999000090002TMargarita                Abras                    Ballesta                  00000000          N
022004031149999000090003TAntonio                  Rodríguez                García                    00000000          N
022004031149999000090004TRubén                    Marcos                   Cid                       00000000          N
022004031149999000090005TDaniel                   Blazquez                 Gutierrez                 00000000          N
022004031149999000090006TJuan Manuel              García                   Alcón                     00000000          N
022004031149999000090007TAna                      Fraile                   de Miguel                 00000000          N
022004031149999000098001TAlvaro                   De los Ríos              Bollero                   00000000          N
022004031149999000098002TJosé Luis                Borrego                  Ligero                    00000000          N
022004031149999000098003TJosé Dionisio            Heredia                  León                      00000000          N
022004031149999000098004TElisabeth                Galán                    Romero                    00000000          N
022004031149999000098005TMaría Fuensanta          López                    Arévalo                   00000000          N
022004031149999000098006TJuan Luis                Aguilera                 Carrillo                  00000000          N
022004031149999000098007TModesto                  Montilla                 Montilla                  00000000          N
022004031149999000101001TJosé                     Gallardo                 Pérez                     00000000          N
022004031149999000101002TAntonio                  Vergara                  Wal                       00000000          N
022004031149999000101003TJosé Antonio             Varona                   Varona                    00000000          N
022004031149999000101004TJosé Ignacio             Giménez                  García                    00000000          N
022004031149999000101005TMaría Cristina           Boixo                    Vidal                     00000000          N
022004031149999000101006TJosé Manuel              Boixo                    Vidal                     00000000          N
022004031149999000101007TJosé Ramón               Ruíz                     Serrano                   00000000          N
022004031149999000111001TMilagros                 Sión                     Fernández                 00000000          N
022004031149999000111002TLuis Manuel              Estrada                  Expósito                  00000000          N
022004031149999000111003TPablo                    García                   García                    00000000          N
022004031149999000111004TAna                      Alvarez                  Alves                     00000000          N
022004031149999000111005TFrancisco                Rangel                   García                    00000000          N
022004031149999000111006TDiego                    Díez                     Zapico                    00000000          N
022004031149999000111007TAngel Ramiro             Alvarez                  Morán                     00000000          N
022004031149999000117001TMaría Blanca             Lopez-Puertas            Gutiérrez                 00000000          N
022004031149999000117002TBelén Ofelia             Sanz                     Valle-Inclán              00000000          N
022004031149999000117003TMaría José               Martínez                 Sánchez                   00000000          N
022004031149999000117004TEncarnación              Guzmán                   Berrocal                  00000000          N
022004031149999000117005TMaría del Mar            Hijano                   García                    00000000          N
022004031149999000117006TLuís                     Mayor                    Bermejo                   00000000          N
022004031149999000117007TSandra Mara              Gutíerrez                Silva                     00000000          N
022004031149999000118001TManuel                   Aguilera                 Caro                      00000000          N
022004031149999000118002TMarta                    Santos                   Moreno                    00000000          N
022004031149999000118003TJosé                     Sobrino                  Caldado                   00000000          N
022004031149999000118004TLeón                     Azar                     García                    00000000          N
022004031149999000118005TMaría José               Bascuñana                Alonso                    00000000          N
022004031149999000118006TAntonio Miguel           García                   Díaz                      00000000          N
022004031149999000118007TAna María                Ramos                    Ruiz                      00000000          N
022004031149999000130001TRafael                   Merino                   López                     00000000          S
022004031149999000130002TMaría Teresa             de Lara                  Carbo                     00000000          S
022004031149999000130003TMaría Amelia             Caracuel                 del Olmo                  00000000          S
022004031149999000130004TRicardo                  Rojas                    Peinado                   00000000          N
022004031149999000130005TDulcenombre María        Aguilera                 Aguilera                  00000000          N
022004031149999000130006TSalvador                 Quintana                 Luque                     00000000          N
022004031149999000130007TManuel                   Gutiérrez                Molero                    00000000          N
022004031149999000138001TRafael                   Martín                   Muñoz                     00000000          N
022004031149999000138002TLuisa del Carmen         Pérez                    Rodríguez                 00000000          N
022004031149999000138003TFrancisco                Rabasco                  Sánchez                   00000000          N
022004031149999000138004TMaría del Carmen         López                    Caparrós                  00000000          N
022004031149999000138005TAngel                    Rincón                   Gutiérrez                 00000000          N
022004031149999000138006TVictoria                 Leal                     Acosta                    00000000          N
022004031149999000138007TRafael                   Montaño                  Merlo                     00000000          N
022004031149999000146001TMaria del Carmen         Calvo                    Poyato                    00000000          S
022004031149999000146002TMiguel Angel             Moratinos                Cuyaube                   00000000          S
022004031149999000146003TJuan Luis                Rascón                   Ortega                    00000000          S
022004031149999000146004TRosa Lucia               Polonio                  Contreras                 00000000          S
022004031149999000146005TRafael                   Blanco                   Perea                     00000000          N
022004031149999000146006TInmaculada               Durán                    Sánchez                   00000000          N
022004031149999000146007TMaria del Carmen         Del Campo                Casasus                   00000000          N
022004031189999000024001TAngel                    López                    Mingorance                00000000          N
022004031189999000024002TMaría                    Mingorance               Samos                     00000000          N
022004031189999000024003TAngel Jesús              López                    Martín                    00000000          N
022004031189999000024004TJosé María               Mozo del                 Castillo                  00000000          N
022004031189999000024005TJosé Luís                Pastor                   Sánchez                   00000000          N
022004031189999000024006TLuis                     Colomo                   Gómez                     00000000          N
022004031189999000024007TBasilio                  Gómez                    Gómez                     00000000          N
022004031189999000025001TAndrés                   López                    Prado                     00000000          N
022004031189999000025002TIgnacio                  Sánchez                  Antonijuan                00000000          N
022004031189999000025003TFrancisco Javier         Núñez                    Atencia                   00000000          N
022004031189999000025004TFrancisco Javier         Ferrández                Benítez                   00000000          N
022004031189999000025005TFrancisco Javier         Martín                   Gómez                     00000000          N
022004031189999000025006TEduardo                  Sánchez                  Antonijuan                00000000          N
022004031189999000025007TMaría del Rosario        Martínez                 Ortega                    00000000          N
022004031189999000034001TMario                    Ortiz                    Hermosín                  00000000          N
022004031189999000034002TAlexandra                Vaca                     Cordero                   00000000          N
022004031189999000034003TJosé Luis                Heredia                  Llacer                    00000000          N
022004031189999000034004TAntonio                  Riera                    Pastor                    00000000          N
022004031189999000034005TPaloma                   Miñana                   Calvo                     00000000          N
022004031189999000034006TGonzalo                  Mendiguren               Asensi                    00000000          N
022004031189999000034007TEleazar                  Martínez                 Bernalte                  00000000          N
022004031189999000043001TCayetano Elías           Nogueras                 Rodríguez                 00000000          N
022004031189999000043002TRafael                   Pozo                     García                    00000000          N
022004031189999000043003TJuan Antonio             Molina                   García                    00000000          N
022004031189999000043004TMaría Irene              Reinoso                  Mochón                    00000000          N
022004031189999000043005TNemesio                  Trassierra               Garzón                    00000000          N
022004031189999000043006TJosé                     Garzón                   Sampedro                  00000000          N
022004031189999000043007TJesús                    Molina                   García                    00000000          N
022004031189999000052001TJavier                   Villarejo                Hernández                 00000000          N
022004031189999000052002TMiguel Angel             Ríos                     Fernández                 00000000          N
022004031189999000052003TJuan                     Montalbán                San José                  00000000          N
022004031189999000052004TJesús                    Muñoz                    Martínez                  00000000          N
022004031189999000052005TEster                    Tallón                   López                     00000000          N
022004031189999000052006TJesús                    Heras                    Ramos                     00000000          N
022004031189999000052007TMario                    Tomé                     Castrillón                00000000          N
022004031189999000053001TMaría del Mar            Alonso                   García                    00000000          N
022004031189999000053002TSantiago                 Alonso                   García                    00000000          N
022004031189999000053003TGenaro                   Sojo                     Gómez                     00000000          N
022004031189999000053004TDolores                  García                   Cano                      00000000          N
022004031189999000053005TEmilio                   Cervera                  Vargas                    00000000          N
022004031189999000053006TFrancisco                González                 Morales                   00000000          N
022004031189999000053007TJosé                     Pérez                    Prieto                    00000000          N
022004031189999000065001TGregorio                 Morales                  Villena                   00000000          N
022004031189999000065002TFrancisco Agustín        Palma                    Sánchez                   00000000          N
022004031189999000065003TFrancisco Javier         Jiménez                  Díaz                      00000000          N
022004031189999000065004TManuel                   Reinosa                  González                  00000000          N
022004031189999000065005TJuliana                  Rojas                    Ruiz                      00000000          N
022004031189999000065006TAntonio                  Olvera                   Calderón                  00000000          N
022004031189999000065007TAndrés                   Barrero                  Rodríguez                 00000000          N
022004031189999000077001TJulio Miguel             Bernardo                 Castro                    00000000          N
022004031189999000077002TLola                     Boloix                   Escobar                   00000000          N
022004031189999000077003TAntonio                  Ortiz de la              Osa                       00000000          N
022004031189999000077004TVictoria                 Calero                   Carrero                   00000000          N
022004031189999000077005TAngel                    Coello                   Infantes                  00000000          N
022004031189999000077006TMaría Isabel             Lázaro                   Durán                     00000000          N
022004031189999000077007TAmelia                   Romacho                  Ruz                       00000000          N
022004031189999000090001TRoberto                  Martín                   Palma                     00000000          N
022004031189999000090002TDiego                    Gutiérrez                Pérez                     00000000          N
022004031189999000090003TJosé Julián              Rodríguez                Puertas                   00000000          N
022004031189999000090004TAlejandro                Martínez                 Veiga                     00000000          N
022004031189999000090005TManuel                   Manzano                  Cermeño                   00000000          N
022004031189999000090006TRafael                   García                   Jiménez                   00000000          N
022004031189999000090007TEmilio José              Moreno                   Atienza                   00000000          N
022004031189999000098001TAntonio José             Escámez                  Rodríguez                 00000000          N
022004031189999000098002TMónica                   Muñoz                    Melgar                    00000000          N
022004031189999000098003TMaría Luz                Antequera                Manzano                   00000000          N
022004031189999000098004TJuan                     Pérez                    Carmona                   00000000          N
022004031189999000098005TGema María               Zambrano                 Sánchez                   00000000          N
022004031189999000098006TNicolás Salvador         Martín                   Llaudes                   00000000          N
022004031189999000098007TFlorinda                 Blanco                   Molina                    00000000          N
022004031189999000101001TAlberto                  Sanz                     Cuscó                     00000000          N
022004031189999000101002TFrancisco                Ibáñez                   Lorente                   00000000          N
022004031189999000101003TJosefa                   Fuentes                  Huertas                   00000000          N
022004031189999000101004TEnrique                  Martínez                 García                    00000000          N
022004031189999000101005TRamón Pedro              Valerdi                  Pérez                     00000000          N
022004031189999000101006TManuel                   Bermejo                  Montoro                   00000000          N
022004031189999000101007TBerta                    Jiménez                  Ros                       00000000          N
022004031189999000111001TMiguel Angel             Rojas                    Muñoz                     00000000          N
022004031189999000111002TEsteban                  Olmos                    Palenzuela                00000000          N
022004031189999000111003TManuel                   Dueñas                   Peso                      00000000          N
022004031189999000111004TRafael                   Castañeda                Torres                    00000000          N
022004031189999000111005TSalvador                 López                    Segura                    00000000          N
022004031189999000111006TMaría José               Arco                     Centeno                   00000000          N
022004031189999000111007TMaría Fe                 Cara                     Fernández                 00000000          N
022004031189999000117001TRocío                    Sierra                   Gómez                     00000000          N
022004031189999000117002TMaría Elvira             García                   Mahave                    00000000          N
022004031189999000117003TCristina                 Thomas de                Antonio                   00000000          N
022004031189999000117004TMaría Concepción         García                   Paine                     00000000          N
022004031189999000117005TRamón de las             Heras                    Bandrés                   00000000          N
022004031189999000117006TJuan Manuel              Apellániz de la          Cuétara                   00000000          N
022004031189999000117007TMargarita                Sánchez                  Fernández                 00000000          N
022004031189999000118001TMaría Angeles            Fernández                González                  00000000          N
022004031189999000118002TJesús                    Oliva                    Fuentes                   00000000          N
022004031189999000118003TCarlos                   Martín                   Pastor                    00000000          N
022004031189999000118004TMaría Luisa              Caballero                García                    00000000          N
022004031189999000118005TPablo                    Rodríguez                Barceló                   00000000          N
022004031189999000118006TSusana                   Sierras                  Alcalá                    00000000          N
022004031189999000118007TCarmen                   Zúñiga                   Ortega                    00000000          N
022004031189999000130001TPilar del                Castillo                 Vera                      00000000          S
022004031189999000130002TBlanca                   Fernández-Capel          Baños                     00000000          S
022004031189999000130003TJuan María               Santaella                Porras                    00000000          S
022004031189999000130004TJosé Luis del            Ojo                      Torres                    00000000          N
022004031189999000130005TMaría José               Martín                   Gómez                     00000000          N
022004031189999000130006TManuel Alberto           Flores                   García                    00000000          N
022004031189999000130007TFrancisco                Pertiñez                 Carrasco                  00000000          N
022004031189999000138001TAmalia                   Benavente                Botía                     00000000          N
022004031189999000138002TJosé Antonio             Verdejo                  Cobos                     00000000          N
022004031189999000138003TJosé Antonio del         Puerto                   Parrado                   00000000          N
022004031189999000138004TJosé                     Sánchez                  Lozano                    00000000          N
022004031189999000138005TMaría del Carmen         Castro                   Jiménez                   00000000          N
022004031189999000138006TFrancisco                Pérez                    Morales                   00000000          N
022004031189999000138007TPilar                    Sierra                   Gómez                     00000000          N
022004031189999000147001TFrancisco Javier         Torres                   Vela                      00000000          S
022004031189999000147002TMaría Josefa             Sánchez                  Rubio                     00000000          S
022004031189999000147003TRafael                   Estrella                 Pedrola                   00000000          S
022004031189999000147004TMaría                    Escudero                 Sánchez                   00000000          S
022004031189999000147005TJosé Antonio             Pérez                    Tapias                    00000000          N
022004031189999000147006TEstrella                 Leyva                    Martínez                  00000000          N
022004031189999000147007TPascual                  Rivas                    Carrera                   00000000          N
022004031189999000150001TJosé Antonio             Soto                     Pérez                     00000000          N
022004031189999000150002TJesús Alfredo            Iniesta                  Molina                    00000000          N
022004031189999000150003TSergio                   Raya                     Trasierras                00000000          N
022004031189999000150004TMaría Sol                Martín                   García                    00000000          N
022004031189999000150005TFrancisca                García                   Moreno                    00000000          N
022004031189999000150006TIsabel María             Gómez                    Zambrana                  00000000          N
022004031189999000150007TAntonio Luis             Ramos                    Martínez                  00000000          N
022004031219999000001001TAntonio                  Rodríguez                Jaramago                  00000000          N
022004031219999000001002TMaría del Rosario        Pérez                    Gómez                     00000000          N
022004031219999000001003TManuel                   Garrido                  Martín                    00000000          N
022004031219999000001004TManuel                   Tenllado                 Garrido                   00000000          N
022004031219999000001005TJosé                     Rodríguez                Pulgar                    00000000          N
022004031219999000024001TAntonio                  Santos                   Bretones                  00000000          N
022004031219999000024002TAmparo                   Delgado                  Pérez                     00000000          N
022004031219999000024003TIván                     Santos                   Rodríguez                 00000000          N
022004031219999000024004TDavid                    De Prado                 Tarilonte                 00000000          N
022004031219999000024005TExaltación               Sánchez                  Jiménez                   00000000          N
022004031219999000025001TJuan Antonio             Jiménez                  Sánchez                   00000000          N
022004031219999000025002TRosario                  Pérez                    Andersen                  00000000          N
022004031219999000025003TNatividad                Sánchez                  Bermejo                   00000000          N
022004031219999000025004TIrene                    Sayago                   Silva                     00000000          N
022004031219999000025005TMiguel Angel             Moral                    Rioboo                    00000000          N
022004031219999000034001TEnrique                  Gil                      Blázquez                  00000000          N
022004031219999000034002TJosé Luis                García                   Serrano                   00000000          N
022004031219999000034003TDiego                    Prieto                   Cuadrado                  00000000          N
022004031219999000034004TFrancisco                Valdivia                 Mata                      00000000          N
022004031219999000034005TEnrique                  Calleja                  Anchuelo                  00000000          N
022004031219999000049001TJosefa                   López                    Morcillo                  00000000          N
022004031219999000049002TSira                     Jiménez                  Garcés                    00000000          N
022004031219999000049003TJuan Ramón               Cabrera                  Rodríguez                 00000000          N
022004031219999000049004TAngela                   Pérez                    Lozano                    00000000          N
022004031219999000049005TJuan Manuel              Bermúdez                 Milanés                   00000000          N
022004031219999000052001TJosé María               Marín                    Carvajal                  00000000          N
022004031219999000052002TAngel Rafael             Rovira                   García                    00000000          N
022004031219999000052003TJosé María               Sánchez                  Ramírez                   00000000          N
022004031219999000052004TOscar Angel              Morera                   Rojo                      00000000          N
022004031219999000052005TOtilia                   Romero                   Ferrer                    00000000          N
022004031219999000053001TMaría  del Carmen        Biedma                   Gil                       00000000          N
022004031219999000053002TJosé Manuel              Montañes                 Ruíz                      00000000          N
022004031219999000053003TMaría  del Carmen        Espinosa                 Serrano                   00000000          N
022004031219999000053004TJuan Angel               Jiménez                  Ramos                     00000000          N
022004031219999000053005TPedro                    Fernández                López                     00000000          N
022004031219999000065001TAna María                Puntada                  Guillén                   00000000          N
022004031219999000065002TMiguel Angel             Ruíz                     Orellana                  00000000          N
022004031219999000065003TLuís                     Montero                  Jaramillo                 00000000          N
022004031219999000065004TEvaristo                 Fernández                Calvo                     00000000          N
022004031219999000065005TInmaculada Lydia         Andújar                  Gavilán                   00000000          N
022004031219999000077001TPedro                    Jiménez                  San José                  00000000          N
022004031219999000077002TAntonio                  Mirabent                 Martín                    00000000          N
022004031219999000077003TLuna                     Romero                   Reinoso                   00000000          N
022004031219999000077004TMaría Aurora             Martín                   Rodríguez                 00000000          N
022004031219999000077005TAntonio Ramón            Marín                    García                    00000000          N
022004031219999000090001TJosé Manuel              Jiménez                  Galocha                   00000000          N
022004031219999000090002TLara                     Murillo                  Cobo                      00000000          N
022004031219999000090003TPedro Luis               De la Lastra             Pérez                     00000000          N
022004031219999000090004TSergio                   Redondo                  Cabanillas                00000000          N
022004031219999000090005TAndrés                   Pérez                    Martínez                  00000000          N
022004031219999000098001TAntonio José             Capelo                   Domínguez                 00000000          N
022004031219999000098002TJosé Manuel              Romero                   Pichardo                  00000000          N
022004031219999000098003TNoelia                   Pascual                  Rodríguez                 00000000          N
022004031219999000098004TAntonia María            Segura                   López                     00000000          N
022004031219999000098005TJuan Antonio             Carrascal                Díaz                      00000000          N
022004031219999000111001TJosé Domingo             López                    Ligero                    00000000          N
022004031219999000111002TMaría Carmen             Serra                    Soler                     00000000          N
022004031219999000111003TVicente                  Arlandis                 Muñoz                     00000000          N
022004031219999000111004TNoelia                   Estrada                  González                  00000000          N
022004031219999000111005TAngel                    Núñez                    Gómez                     00000000          N
022004031219999000118001TRosalía                  Fernández                Ramírez                   00000000          N
022004031219999000118002TAna María                Pimentel                 Sánchez                   00000000          N
022004031219999000118003TJorge Manuel             Oliva                    Manzano                   00000000          N
022004031219999000118004TRosa María               Luque                    Barba                     00000000          N
022004031219999000118005TMiguel                   Sánchez                  Hernández                 00000000          N
022004031219999000130001TMaría De Fátima          Bañez                    García                    00000000          S
022004031219999000130002TFrancisco Luis           Marquínez                Marquínez                 00000000          S
022004031219999000130003TJosé Carlos              Hernández                Cansino                   00000000          N
022004031219999000130004TMaría de las Mercedes    Jaldón                   Hidalgo                   00000000          N
022004031219999000130005TSantiago                 Ponce                    Pérez                     00000000          N
022004031219999000138001TDomingo                  Fernández                Sabido                    00000000          N
022004031219999000138002TFrancisco                Pleguezuelo              Pernudo                   00000000          N
022004031219999000138003TIsabel                   Villegas                 Márquez                   00000000          N
022004031219999000138004TFernando                 Membrives                Paredes                   00000000          N
022004031219999000138005TBeatriz                  Márquez                  López                     00000000          N
022004031219999000146001TJaime Javier             Barrero                  López                     00000000          S
022004031219999000146002TMaría del Rosario de FátiDe Aburto                Baselga                   00000000          S
022004031219999000146003TJosé                     Oria                     Galloso                   00000000          S
022004031219999000146004TMaría Isabel             Rodríguez                Robles                    00000000          N
022004031219999000146005TJorge                    Martí                    Ruíz                      00000000          N
022004031219999000150001TDiego                    Martínez                 Ruíz                      00000000          N
022004031219999000150002TAlfredo                  Velasco                  Arjona                    00000000          N
022004031219999000150003TRosalina                 Pérez                    Contioso                  00000000          N
022004031219999000150004TRosa María               Pérez                    García                    00000000          N
022004031219999000150005TManuel                   Roldán                   Jiménez                   00000000          N
022004031239999000001001TFrancisco                Ramírez                  Gómez                     00000000          N
022004031239999000001002TTomás                    Gutierrez                Macias                    00000000          N
022004031239999000001003TMaría Lourdes            García                   López                     00000000          N
022004031239999000001004TJuan Antonio             Alba                     Butrón                    00000000          N
022004031239999000001005TCristóbal                Cabeza de Vaca           Alba                      00000000          N
022004031239999000001006TCecilia                  Rivas                    Montes                    00000000          N
022004031239999000024001TJosé Ignacio             López                    Suarez                    00000000          N
022004031239999000024002TMoises Florencio         Navarro                  González                  00000000          N
022004031239999000024003TBartolome                De Haro                  Bautista                  00000000          N
022004031239999000024004TJosé María               Ortigosa                 Trigo                     00000000          N
022004031239999000024005TDomingo Santisima TrinidaNuñez                    Casarrubio                00000000          N
022004031239999000024006TJosé María               Rodríguez                Barriuso                  00000000          N
022004031239999000025001TMaría Francisca          Romero                   Romero                    00000000          N
022004031239999000025002TMaría Soledad            Moro                     Yerpes                    00000000          N
022004031239999000025003TJosé                     Fernández                Ramos                     00000000          N
022004031239999000025004TMaría Pilar              Moro                     Yerpes                    00000000          N
022004031239999000025005TFrancisca                Calderón                 Cabezas                   00000000          N
022004031239999000025006TAlfonso                  Gago                     Calderón                  00000000          N
022004031239999000034001TFrancisco                Inocencio                Santos                    00000000          N
022004031239999000034002TJuan Miguel              García                   Martínez                  00000000          N
022004031239999000034003TFernando                 Rubio                    Girón                     00000000          N
022004031239999000034004TAlonso                   Culebras                 Paños                     00000000          N
022004031239999000034005TAntonio                  Moratalla                Sánchez                   00000000          N
022004031239999000034006TGinés                    Picazo                   Villanueva                00000000          N
022004031239999000043001TJosé Luis                Martín de Jorge          Sánchez                   00000000          N
022004031239999000043002TVanesa                   Guirau                   Martínez                  00000000          N
022004031239999000043003TJuan Carlos              Navarro                  Navarro                   00000000          N
022004031239999000043004TFrancisco Javier         Molina                   Romero                    00000000          N
022004031239999000043005TDiego                    Bellver                  Pla                       00000000          N
022004031239999000043006TAntonio David            Poquet                   Llombart                  00000000          N
022004031239999000052001TRicardo                  Martínez                 Bombin                    00000000          N
022004031239999000052002TAlberto Javier           Nuñez                    Aldea                     00000000          N
022004031239999000052003TRicardo                  Castro                   Pérez                     00000000          N
022004031239999000052004TPatricia                 Carrillo                 Martínez                  00000000          N
022004031239999000052005TMaría Luz                Aldecoa                  Martín                    00000000          N
022004031239999000052006TLuis Angel               Peña                     Yudego                    00000000          N
022004031239999000053001TDavid                    Godino                   Gallego                   00000000          N
022004031239999000053002TAntonio                  Martos                   Rodríguez                 00000000          N
022004031239999000053003TAntonio                  Rodríguez                Monsalve                  00000000          N
022004031239999000053004TJosefa-Sebastiana        Ruiz                     García                    00000000          N
022004031239999000053005TPedro Alberto            Chiclana                 Crespo                    00000000          N
022004031239999000053006TManuel                   Ruedas                   Ruiz                      00000000          N
022004031239999000065001TGregoria                 Aranda                   Aranda                    00000000          N
022004031239999000065002TSusana                   Chamorro                 Marquez                   00000000          N
022004031239999000065003TFrancisco Mariano        García                   Torres                    00000000          N
022004031239999000065004TJesús                    Martínez                 García                    00000000          N
022004031239999000065005TMiguel Angel             Sánchez                  López                     00000000          N
022004031239999000065006TPedro Antonio            Millan                   Almoguera                 00000000          N
022004031239999000077001TBenita Isabel            Campos                   Alcázar                   00000000          N
022004031239999000077002TFrancisco José           Mena                     Erena                     00000000          N
022004031239999000077003TMaría Dolores            Nieto                    Nieto                     00000000          N
022004031239999000077004TMarcelo                  Cuevas                   Sánchez                   00000000          N
022004031239999000077005TMaría Mercedes           Martín                   Espinosa                  00000000          N
022004031239999000077006TPedro                    Valenzuela               Ruiz                      00000000          N
022004031239999000090001TJuan Carlos              García                   Morcillo                  00000000          N
022004031239999000090002TBeatriz                  Sánchez                  Bischofberger             00000000          N
022004031239999000090003TManuel                   Leal                     Gil                       00000000          N
022004031239999000090004TEnrique                  Romero                   Marco                     00000000          N
022004031239999000090005TJuan José                Rodríguez                Collado                   00000000          N
022004031239999000090006TJose María               Mejías                   Mejías                    00000000          N
022004031239999000098001TJavier                   Checa                    González                  00000000          N
022004031239999000098002TJuan                     Escudero                 Sánchez                   00000000          N
022004031239999000098003TTrinidad                 Muela                    Moreno                    00000000          N
022004031239999000098004TAmador Pedro             Arjona                   Serrano                   00000000          N
022004031239999000098005TSusana                   Liebana                  Gómez                     00000000          N
022004031239999000098006TDolores María            Santiago                 Peña                      00000000          N
022004031239999000111001TJuan                     Ruiz                     Tavira                    00000000          N
022004031239999000111002TMaría Amparo             Ruano                    Melis                     00000000          N
022004031239999000111003TAurora                   Martín                   Leal                      00000000          N
022004031239999000111004TAntonio                  Soria                    Martínez                  00000000          N
022004031239999000111005TVicente                  Escrihuela               Arlandis                  00000000          N
022004031239999000111006TConsuelo                 Ares                     Piñeiro                   00000000          N
022004031239999000117001TInmaculada               García                   Armenteros                00000000          N
022004031239999000117002TMaría Dolores            Ruiz                     Ruiz                      00000000          N
022004031239999000117003TMaría Caridad            Villaescusa              García-Quijada            00000000          N
022004031239999000117004TMaría Mercedes           Llorente                 Martín                    00000000          N
022004031239999000117005TMargarita                Liñan                    Guillen                   00000000          N
022004031239999000117006TVictoria Eugenia         González                 García                    00000000          N
022004031239999000118001TFrancisco                González                 Villen                    00000000          N
022004031239999000118002TRemedios                 Valderrama               Doña                      00000000          N
022004031239999000118003TMaría Yolanda            Vera                     García                    00000000          N
022004031239999000118004TAna                      Valderrama               Jiménez                   00000000          N
022004031239999000118005TMaría Lourdes            Paz                      Medina                    00000000          N
022004031239999000118006TJosé Aurelio             Gaona                    López                     00000000          N
022004031239999000130001TCristobal-Ricardo        Montoro                  Romero                    00000000          S
022004031239999000130002TGabino                   Puche                    Rodríguez Acosta          00000000          S
022004031239999000130003TMaría Dolores            Aguilar                  Pardo                     00000000          N
022004031239999000130004TLuis                     De Torres                Gómez                     00000000          N
022004031239999000130005TBlas                     Cuadros                  Torrecillas               00000000          N
022004031239999000130006TInmaculada               Solar                    Beltrán                   00000000          N
022004031239999000138001TLuis Miguel              Márquez                  Cayuela                   00000000          N
022004031239999000138002TMarcos                   Momblan                  García                    00000000          N
022004031239999000138003TMaría                    Pérez                    Villanueva                00000000          N
022004031239999000138004TJuan Carlos              Camacho                  López                     00000000          N
022004031239999000138005TMaría Esperanza          Camacho                  Díaz                      00000000          N
022004031239999000138006TSalvador                 García                   Mendoza                   00000000          N
022004031239999000147001TMicaela                  Navarro                  Garzón                    00000000          S
022004031239999000147002TJosé                     Pliego                   Cubero                    00000000          S
022004031239999000147003TMaría Dolores            Pérez                    Anguita                   00000000          S
022004031239999000147004TSebastián                Quirós                   Pulgar                    00000000          S
022004031239999000147005TAntonia                  Martínez                 Higueras                  00000000          N
022004031239999000147006TJulio                    Medina                   Castillo                  00000000          N
022004031299999000001001TMaría Gloria             Fernández                Ruiz                      00000000          N
022004031299999000001010TJosé Antonio             Porras                   Ruiz                      00000000          N
022004031299999000001002TMaría José               Quero                    Alarcón                   00000000          N
022004031299999000001003TAlberto                  Macías                   González                  00000000          N
022004031299999000001004TMaría Josefa             Mora                     Toledo                    00000000          N
022004031299999000001005TJosé Gregorio            Martín                   Carrasquilla              00000000          N
022004031299999000001006TAngel Daniel             de la Cuesta             Navarrete                 00000000          N
022004031299999000001007TMaría Adela              Ruiz                     Cañete                    00000000          N
022004031299999000001008TFrancisco Javier         Romero                   Sánchez                   00000000          N
022004031299999000001009TAntonio                  Sánchez                  Valiente                  00000000          N
022004031299999000024001TPedro                    Doblas                   Rubio                     00000000          N
022004031299999000024010TFrancisco José           del Río                  Miguel                    00000000          N
022004031299999000024002TJuan                     Carmona                  Carmona                   00000000          N
022004031299999000024003TEladio                   Burgos                   Gómez                     00000000          N
022004031299999000024004TRaquel                   Doblas                   Bermúdez                  00000000          N
022004031299999000024005TJosé Francisco           Puchol                   Raventós                  00000000          N
022004031299999000024006TFrancisco                Florido                  González                  00000000          N
022004031299999000024007TJosé Antonio             Velasco                  Núñez                     00000000          N
022004031299999000024008TInmaculada               Doblas                   Bermúdez                  00000000          N
022004031299999000024009TJuan María               Puchol                   Raventós                  00000000          N
022004031299999000025001TSergio                   Rico                     Muñoz                     00000000          N
022004031299999000025010TMaría Josefa             Muñoz                    Montes                    00000000          N
022004031299999000025002TMaría Adela              Aparicio                 Muñoz                     00000000          N
022004031299999000025003TSusana                   Lázaro                   Fernández                 00000000          N
022004031299999000025004TCarlos Jesús             Labajos                  Fernández                 00000000          N
022004031299999000025005TSebastián                Daga                     Segovia                   00000000          N
022004031299999000025006TSalvador                 Tineo                    Corpas                    00000000          N
022004031299999000025007TMaría Carmen             Ruiz                     Nieto                     00000000          N
022004031299999000025008TGema                     Gómez                    Rodríguez                 00000000          N
022004031299999000025009TAntonio Jesús            Navas                    Acosta                    00000000          N
022004031299999000034001TRoberto                  Vega                     Suay                      00000000          N
022004031299999000034010TJosé Antonio             Camón                    Barea                     00000000          N
022004031299999000034002TIbón                     Gámez                    Ortúzar                   00000000          N
022004031299999000034003TMiguel Angel             Ortiz                    Moreno                    00000000          N
022004031299999000034004TAlejo                    Torres                   Cabas                     00000000          N
022004031299999000034005TFrancisco Javier         Almagro                  Ortiz                     00000000          N
022004031299999000034006TDelio                    Rosa                     Morant                    00000000          N
022004031299999000034007TSofía                    Naval                    Castán                    00000000          N
022004031299999000034008TGregorio                 Calvo                    Pérez                     00000000          N
022004031299999000034009TAdrián                   Morales                  Segado                    00000000          N
022004031299999000043001TFernando                 Buendía                  Arrufat                   00000000          N
022004031299999000043010TJoan Josep               Herrero                  Gil                       00000000          N
022004031299999000043002TJosé María               Pozo                     García                    00000000          N
022004031299999000043003TPedro Antonio            García                   Rodríguez                 00000000          N
022004031299999000043004TBlanca                   Hurtado                  González                  00000000          N
022004031299999000043005TJosé Antonio             Martínez                 García                    00000000          N
022004031299999000043006TJuan Bautista            Giner                    Vidal                     00000000          N
022004031299999000043007TIván                     Domingo                  Beltrán                   00000000          N
022004031299999000043008TJavier                   Esteban                  Vivanco                   00000000          N
022004031299999000043009TOscar                    Cantero                  Corbalán                  00000000          N
022004031299999000049001TJulio Antonio            Sánchez                  González                  00000000          N
022004031299999000049010TJuan                     Duarte                   Berrocal                  00000000          N
022004031299999000049002TJuan Antonio             Herrera                  Marín                     00000000          N
022004031299999000049003TJuan José                Diego                    Barquín                   00000000          N
022004031299999000049004TJosé                     Rueda                    Domínguez                 00000000          N
022004031299999000049005TManuel                   Quintanilla              Sánchez Ajofrín           00000000          N
022004031299999000049006THerminia                 Rubio                    Matute                    00000000          N
022004031299999000049007TJuan Antonio             Herrera                  Marín                     00000000          N
022004031299999000049008TRafael Nicolás           Pita Baamonde            Juárez de Negrón          00000000          N
022004031299999000049009TMiguel Angel             Anaya                    Vera                      00000000          N
022004031299999000052001TFernando Joaquín         Rodríguez Zúñiga         López                     00000000          N
022004031299999000052010TJosé Antonio             Corrales                 González                  00000000          N
022004031299999000052002TRicardo                  Curiel                   Mozo                      00000000          N
022004031299999000052003TBernardo                 López                    Fernández                 00000000          N
022004031299999000052004TMiguel Angel             Soto                     Blanco                    00000000          N
022004031299999000052005TMiguel Angel             Medina                   Alameda                   00000000          N
022004031299999000052006TJuan Manuel              Guerrero                 Domínguez                 00000000          N
022004031299999000052007TMiguel                   Camacho                  Cárdenas                  00000000          N
022004031299999000052008TIgnacio                  Pozo                     Fernández                 00000000          N
022004031299999000052009TAntonio                  Gil                      Muñoz                     00000000          N
022004031299999000053001TRamón                    Fernández                Ruiz                      00000000          N
022004031299999000053010TJosé Vicente             Fernández                Gómez                     00000000          N
022004031299999000053002TFrancisco Javier         Llamas                   García                    00000000          N
022004031299999000053003TAntonio                  Fernández                Sánchez                   00000000          N
022004031299999000053004TJosé Antonio             Cabrera                  Sánchez                   00000000          N
022004031299999000053005TRafael                   Vacas                    Granados                  00000000          N
022004031299999000053006TJosé María               Martínez                 Fernández                 00000000          N
022004031299999000053007TFernando                 Montero                  Pernía                    00000000          N
022004031299999000053008TMaría Concepción         Rodero                   Vives                     00000000          N
022004031299999000053009TJesús                    Caldito                  Pegado                    00000000          N
022004031299999000065001TMaría                    Rodríguez                Gil                       00000000          N
022004031299999000065010TJosé Javier              Cuenca                   Rojano                    00000000          N
022004031299999000065002TLeonardo                 Domínguez                Vega                      00000000          N
022004031299999000065003TJosé Ignacio             González                 Jerez                     00000000          N
022004031299999000065004TFrancisco                Díaz                     Rueda                     00000000          N
022004031299999000065005TSalvador                 Crossa                   Ramírez                   00000000          N
022004031299999000065006TJuan                     García                   Bastazo                   00000000          N
022004031299999000065007TFrancisco José           Fernández                González                  00000000          N
022004031299999000065008TFrancisco                Lago                     Carnero                   00000000          N
022004031299999000065009TJuan Antonio             García                   Rojas                     00000000          N
022004031299999000077001TJosé Luis                Centella                 Gómez                     00000000          N
022004031299999000077010TJavier                   de Luis                  Ferreras                  00000000          N
022004031299999000077002TMaría Dolores            Quintana                 Campos                    00000000          N
022004031299999000077003TManuel                   García                   Morales                   00000000          N
022004031299999000077004TCatalina                 Pareja                   Pareja                    00000000          N
022004031299999000077005TBernardino               Gaona                    López                     00000000          N
022004031299999000077006TMelania                  Pico                     Alcoholado                00000000          N
022004031299999000077007TGabriel                  Ruiz                     Enciso                    00000000          N
022004031299999000077008TEncarnación              González                 Molinillo                 00000000          N
022004031299999000077009TMiguel Esteban           Martín                   Montero                   00000000          N
022004031299999000090001TJavier                   Torras                   Gracia                    00000000          N
022004031299999000090010TManuel                   Ballart                  Aljama                    00000000          N
022004031299999000090002TSergio                   Izquierdo                Dolz                      00000000          N
022004031299999000090003TAna                      Ruiz                     Marcos                    00000000          N
022004031299999000090004TVictoria                 Moreno                   Marcos                    00000000          N
022004031299999000090005TIsabel María             Hita                     Segura                    00000000          N
022004031299999000090006TJuan José                Barón                    Palma                     00000000          N
022004031299999000090007TAurora                   Sastre                   Anso                      00000000          N
022004031299999000090008TMaría Cristina           Navarro                  Simón                     00000000          N
022004031299999000090009TJosep                    Segura                   Vidal                     00000000          N
022004031299999000098001TMarcelino                Méndez-Trelles           Ramos                     00000000          N
022004031299999000098010TIsabel María             López                    Mayorga                   00000000          N
022004031299999000098002TMaría del Carmen         Sánchez                  Méndez                    00000000          N
022004031299999000098003TAntonio                  Rodríguez                Cuenca                    00000000          N
022004031299999000098004TOscar Jesús              Pérez                    Alba                      00000000          N
022004031299999000098005TMaría del Carmen         Castán                   Cid                       00000000          N
022004031299999000098006TCristóbal                González                 Palma                     00000000          N
022004031299999000098007TRafael Jesús             López                    Espinosa                  00000000          N
022004031299999000098008TCristóbal                González                 Flores                    00000000          N
022004031299999000098009TAntonia                  Perujo                   Baca                      00000000          N
022004031299999000101001TJosé                     Bermejo                  Montoro                   00000000          N
022004031299999000101010TMaría Luisa              Cutillas                 Vicente                   00000000          N
022004031299999000101002TJosefa                   Vicente                  Fernández                 00000000          N
022004031299999000101003TAntonio Javier           Martínez                 García                    00000000          N
022004031299999000101004TAlbert                   Sanz                     Serrano                   00000000          N
022004031299999000101005TNoelia                   Benegas                  Giménez                   00000000          N
022004031299999000101006TRomelia                  Bermejo                  Cutillas                  00000000          N
022004031299999000101007TAntonia                  García                   Carreño                   00000000          N
022004031299999000101008TPedro Leopoldo           González                 Martínez                  00000000          N
022004031299999000101009TJosé                     Gallego                  González                  00000000          N
022004031299999000111001TJuan Manuel              Fernández                Martín                    00000000          N
022004031299999000111010TFrancisco                Berlanga                 Pacheco                   00000000          N
022004031299999000111002TJuana                    Valiente                 Borrego                   00000000          N
022004031299999000111003TCristóbal                Pérez                    Anaya                     00000000          N
022004031299999000111004TMaría del Carmen         Huertas                  Cabello                   00000000          N
022004031299999000111005TMaría                    Borrego                  Godino                    00000000          N
022004031299999000111006TJuan Antonio             Sánchez                  Moreno                    00000000          N
022004031299999000111007TJulia                    Doblas                   Corredera                 00000000          N
022004031299999000111008TJosé                     Pérez                    Anaya                     00000000          N
022004031299999000111009TTeresa                   Vaca                     Racero                    00000000          N
022004031299999000117001TAlvaro José              Navas                    Barceló                   00000000          N
022004031299999000117010TRosa María Pilar         Alonso                   Calderón                  00000000          N
022004031299999000117002TCarlos                   Sierra                   Gómez                     00000000          N
022004031299999000117003TAránzazu                 Sotomayor                Vázquez                   00000000          N
022004031299999000117004TAna María                García                   Paine                     00000000          N
022004031299999000117005TTeresa                   Ortiz                    Pérez                     00000000          N
