032019111049023000009001TMaría Esperanza          Criado                   Agudo                    F000000000000000000N
032019111049007000018001TFrancisco José           Ramos                    Martínez                 M000000000000000000N
032019111049008000018002TLourdes                  García                   Garzón                   F000000000000000000N
032019111049009000018003TAgustín                  Canovas                  Sáez                     M000000000000000000N
032019111049019000023001TMaría del Pilar          del Moral                Arroyo                   F000000000000000000N
032019111049020000023002TMiguel Ángel             Navarro                  Belmonte                 M000000000000000000N
032019111049021000023003TMaría Isabel             Félix                    Hidalgo                  F000000000000000000N
032019111049014000055001TMaría del Carmen         Maldonado                Ureña                    F000000000000000000N
032019111049015000055002TEduardo José             Milla                    Juan                     M000000000000000000N
032019111049016000055003TSusana                   Conejero                 Calvo-Flores             F000000000000000000N
032019111049018000058001TJuan José                Sánchez                  López                    M000000000000000000N
032019111049011000081001TBegoña                   Rojas                    Gutiérrez                F000000000000000000N
032019111049012000081002TJosé Enrique             Martínez                 García                   M000000000000000000N
032019111049013000081003TAna Isabel               Expósito                 Fernández                F000000000000000000N
032019111049004000083001TRafael Antonio           Hernando                 Fraile                   M000000000000000000S
032019111049005000083002TLuis Rogelio             Rodríguez Comendador     Pérez                    M000000000000000000S
032019111049006000083003TMaría Rosario            Soto                     Rico                     F000000000000000000N
032019111049001000094001TFernando                 Martínez                 López                    M000000000000000000S
032019111049002000094002TInes María               Plaza                    García                   F000000000000000000S
032019111049003000094003TJuan Carlos              Pérez                    Navas                    M000000000000000000N
032019111049022000098001TMaría Amparo             Huertas                  Mogío                    F000000000000000000N
032019111049017000101001TIrene                    Carrión                  Herrera                  F000000000000000000N
032019111049010000116001TJuan José                Bonilla                  López                    M000000000000000000N
032019111119017000009001TMaría Fátima             Utrera                   González                 F000000000000000000N
032019111119004000018001TCarlos                   Pérez                    González                 M000000000000000000N
032019111119005000018002TMaría Dolores            Rodríguez                Cano                     F000000000000000000N
032019111119006000018003TCarlos                   de Andrés                Ramírez                  M000000000000000000N
032019111119020000044001TMaría del Dulce Nombre   Merello                  Arvilla                  F000000000000000000N
032019111119021000044002TPedro José               Collado                  Gómez                    M000000000000000000N
032019111119014000055001TMaría Isabel             de Montalbán             Podadera                 F000000000000000000N
032019111119015000055002TMarcelino                Laínez                   de los Reyes             M000000000000000000N
032019111119016000055003TMaría del Pilar          Gato                     Silió                    F000000000000000000N
032019111119019000058001TJuan                     Marchena                 Moreno                   M000000000000000000N
032019111119010000081001TAntón Gilen              Haidl                    Dietlmeier               M000000000000000000N
032019111119011000081002TRafael Jesús             Lara                     Batlleria                M000000000000000000N
032019111119012000081003TRocío                    Ramírez                  Montañez                 F000000000000000000N
032019111119007000083001TJosé Ignacio             Landaluce                Calleja                  M000000000000000000S
032019111119008000083002TMaría José               de Alba                  Castiñeira               F000000000000000000N
032019111119009000083003TDomingo Jesús            González                 Gil                      M000000000000000000N
032019111119001000094001TMaría Jesús              Castro                   Mateos                   F000000000000000000S
032019111119002000094002TAlfonso Carlos           Moscoso                  González                 M000000000000000000S
032019111119003000094003TCándida                  Verdier                  Mayoral                  F000000000000000000S
032019111119022000098001TGuillermo                Sánchez de Cos           Suárez                   M000000000000000000N
032019111119018000101001THassan                   Ben Sid Amar             Mohamed                  M000000000000000000N
032019111119013000116001TManuel                   González                 Bazán                    M000000000000000000N
032019111149023000009001TJosé                     Martínez                 Alvarez                  M000000000000000000N
032019111149007000018001TIsidoro                  García-Escribano         Acedo                    M000000000000000000N
032019111149008000018002TMaría Josefa             de la Torre              Barbero                  F000000000000000000N
032019111149009000018003TFernando                 Molina                   Espejo                   M000000000000000000N
032019111149018000023001TRafael                   de Troya                 Bononato                 M000000000000000000N
032019111149019000023002TMaría Lourdes            Bellido                  Garrido                  F000000000000000000N
032019111149020000023003TManuel                   Elías                    Roldán                   M000000000000000000N
032019111149014000055001TAna María                Cuevas                   Ángeles                  F000000000000000000N
032019111149015000055002TManuel                   Urbano                   Navas                    M000000000000000000N
032019111149016000055003TSara                     Romero                   Valenzuela               F000000000000000000N
032019111149017000058001TRosario                  Vázquez                  Hidalgo                  F000000000000000000N
032019111149010000081001TManuel                   Baena                    Cobos                    M000000000000000000N
032019111149011000081002TNoemí                    Martínez                 Jiménez                  F000000000000000000N
032019111149012000081003TFrancisco Antonio        Molina                   Varona                   M000000000000000000N
032019111149004000083001TFernando                 Priego                   Chacón                   M000000000000000000S
032019111149005000083002TIsabel                   Cabezas                  Regaño                   F000000000000000000N
032019111149006000083003TBartolomé                Madrid                   Olmo                     M000000000000000000N
032019111149001000094001TMaría de los Ángeles     Luna                     Morales                  F000000000000000000S
032019111149002000094002TAlfonso                  Muñoz                    Cuenca                   M000000000000000000S
032019111149003000094003TMaría Jesús              Serrano                  Jiménez                  F000000000000000000S
032019111149021000098001TÁngel                    Morales                  Sillero                  M000000000000000000N
032019111149022000101001TJosé Manuel              Bonillo                  Montes                   M000000000000000000N
032019111149013000116001TJoaquín                  Cortés                   Lucena                   M000000000000000000N
032019111189016000009001TCelia                    Principal                López                    F000000000000000000N
032019111189017000009002TJosé Luis                Espinosa                 Montes                   M000000000000000000N
032019111189018000009003TMaría del Sagrario       Martín                   Pino                     F000000000000000000N
032019111189007000018001TFernando                 Serrano                  González                 M000000000000000000N
032019111189008000018002TMaría Amparo             Siles                    Martín                   F000000000000000000N
032019111189009000018003TLuis Eugenio             Pertíñez                 Martín                   M000000000000000000N
032019111189023000044001TFrancisco Javier         Fernández                Sánchez                  M000000000000000000N
032019111189014000055001TRafael                   Vázquez                  García                   M000000000000000000N
032019111189015000055002TCarmen Inmaculada        Sánchez                  Carmona                  F000000000000000000N
032019111189022000058001TJosé Luis                Quirante                 Sánchez                  M000000000000000000N
032019111189010000081001TManuel                   Morales                  García                   M000000000000000000N
032019111189011000081002TJosé Ismael              Criado                   Aguilera                 M000000000000000000N
032019111189012000081003TFrancisca                Sánchez                  Alías                    F000000000000000000N
032019111189004000083001TJosé Antonio             Robles                   Rodríguez                M000000000000000000S
032019111189005000083002TVicente                  Azpitarte                Pérez                    M000000000000000000N
032019111189006000083003TCelia                    Santiago                 Buendía                  F000000000000000000N
032019111189001000094001TAlejandro José           Zubeldía                 Santoyo                  M000000000000000000S
032019111189002000094002TMaría Sandra             García                   Martín                   F000000000000000000S
032019111189003000094003TFrancisco Javier         Aragón                   Ariza                    M000000000000000000S
032019111189021000098001TMarta                    Castillo                 Fernández                F000000000000000000N
032019111189019000101001TJuan Antonio             Ortiz                    López                    M000000000000000000N
032019111189020000101002TKim Joaquina             Pérez                    Fernández-Fígares        F000000000000000000N
032019111189013000116001TCristina Alejandra       Jiménez                  Jiménez                  F000000000000000000N
032019111219017000009001TJosé Ángel               Brizo                    Álvarez                  M000000000000000000N
032019111219007000018001TNéstor                   Manuel                   Santos                   M000000000000000000N
032019111219008000018002TIsrael                   Medina                   Pereles                  M000000000000000000N
032019111219009000018003TTamara                   Vargas                   Jiménez                  F000000000000000000N
032019111219014000055001TIván Tomás               Sánchez                  Rubio                    M000000000000000000N
032019111219015000055002TMaría del Carmen         Ledesma                  Cabrera                  F000000000000000000N
032019111219018000058001TGregorio                 Bermejo                  Sánchez                  M000000000000000000N
032019111219010000081001TLuis Alberto             Zambrano                 Arenas                   M000000000000000000N
032019111219011000081002TMaría del Pilar          Díaz                     Guerrero                 F000000000000000000N
032019111219012000081003TDaniel                   Hernando                 Berger                   M000000000000000000N
032019111219004000083001TJuan José                Cortés                   Fernández                M000000000000000000N
032019111219005000083002TJosé Enrique             Sánchez                  Núñez                    M000000000000000000S
032019111219006000083003TMaría                    Álvarez                  Bermejo                  F000000000000000000N
032019111219001000094001TAmaro                    Huelva                   Betanzos                 M000000000000000000S
032019111219002000094002TJosefa Inmaculada        González                 Bayo                     F000000000000000000S
032019111219003000094003TJesús                    González                 Márquez                  M000000000000000000S
032019111219019000098001TSusana                   Rodríguez                Huertas                  F000000000000000000N
032019111219016000102001TSixto Manuel             Blanco                   Núñez                    M000000000000000000N
032019111219013000116001TAndrés                   Aragón                   Bejarano                 M000000000000000000N
032019111239016000009001TAna María                Ramos                    Martínez                 F000000000000000000N
032019111239007000018001TBruno                    García                   Pérez                    M000000000000000000N
032019111239008000018002TRosel                    Jiménez                  Ruíz                     F000000000000000000N
032019111239009000018003TPedro                    Gallardo                 Núñez                    M000000000000000000N
032019111239014000055001TMaría José               Torres                   Mayorga                  F000000000000000000N
032019111239015000055002TFrancisco Javier         García                   Márquez                  M000000000000000000N
032019111239010000081001TAntonio                  Machado                  Villacañas               M000000000000000000N
032019111239011000081002TMaría Mercedes           García                   Begara                   F000000000000000000N
032019111239012000081003TMaría Encarnación        Merelo                   Jerez                    F000000000000000000N
032019111239004000083001TFrancisco Javier         Márquez                  Sánchez                  M000000000000000000S
032019111239005000083002TÁngeles                  Isac                     García                   F000000000000000000N
032019111239006000083003TJuan                     Morillo                  García                   M000000000000000000N
032019111239001000094001TMicaela                  Navarro                  Garzón                   F000000000000000000S
032019111239002000094002TJosé                     Latorre                  Ruíz                     M000000000000000000S
032019111239003000094003TManuel Ángel             Fernández                Palomino                 M000000000000000000S
032019111239019000098001TJosé Gabriel             Castillo                 Hidalgo                  M000000000000000000N
032019111239018000101001TTeresa                   Recena                   González                 F000000000000000000N
032019111239017000103001TAntonio Abad             García                   Arboledas                M000000000000000000N
032019111239013000116001TRamón                    Ortuño                   Expósito                 M000000000000000000N
032019111299021000009001TJuan José                Segura                   Palacios                 M000000000000000000N
032019111299022000009002TLourdes                  Fernández                Navas                    F000000000000000000N
032019111299023000009003TSalvador                 González                 Agüera                   M000000000000000000N
032019111299007000018001TJuan Antonio             Vargas                   Ramírez                  M000000000000000000N
032019111299008000018002TMaría Pilar              Conejo                   Ruiz                     F000000000000000000N
032019111299009000018003TSergio                   Gómez                    Gutiérrez                M000000000000000000N
032019111299025000044001TFrancisco                Soler                    Luque                    M000000000000000000N
032019111299014000055001TCristina                 García                   Salazar                  F000000000000000000N
032019111299015000055002TVicente Manuel           Corrales                 Rosado                   M000000000000000000N
032019111299016000055003TMarta                    Marín                    Arrabal                  F000000000000000000N
032019111299020000058001TMaría Gloria             Fernández                Ruiz                     F000000000000000000N
032019111299010000081001TAydé                     Salomón                  Ganado                   F000000000000000000N
032019111299011000081002TErnesto                  Alba                     Aragón                   M000000000000000000N
032019111299012000081003TSalvador                 Pérez                    Mata                     M000000000000000000N
032019111299004000083001TMaría Ángeles            Muñoz                    Uriol                    F000000000000000000S
032019111299005000083002TJoaquín Luis             Ramírez                  Rodríguez                M000000000000000000N
032019111299006000083003TMaría Nieves             Atencia                  Fernández                F000000000000000000N
032019111299001000094001TMiguel Ángel             Heredia                  Díaz                     M000000000000000000S
032019111299002000094002TEstefanía                Martín                   Palop                    F000000000000000000S
032019111299003000094003TJosé Aurelio             Aguilar                  Román                    M000000000000000000S
032019111299024000098001TMaría Dolores            García                   Sánchez                  F000000000000000000N
032019111299017000101001TFrancisco José           Rodríguez                Marín                    M000000000000000000N
032019111299018000101002TRafael                   Núñez                    Ruiz                     M000000000000000000N
032019111299019000101003TIsabel                   Fernández                Morales                  F000000000000000000N
032019111299013000116001TPablo Fernando           Sáenz de Tejada          Ariza                    M000000000000000000N
032019111419018000009001TAntonio Jesús            Acevedo                  Blanco                   M000000000000000000N
032019111419019000009002TMaría Gloria             Molina                   Ramos                    F000000000000000000N
032019111419020000009003TManuel                   Vera                     Silvestre                M000000000000000000N
032019111419004000018001TÁngel                    Mayo                     Llanos                   M000000000000000000N
032019111419005000018002TAmelia                   Velázquez                Guevara                  F000000000000000000N
032019111419006000018003TGuillermo                Prieto                   Perea                    M000000000000000000N
032019111419013000044001TConcepción               San Martín               Montilla                 F000000000000000000N
032019111419015000055001TMaría                    Cutiño                   Zamora                   F000000000000000000N
032019111419016000055002TGonzalo                  González                 Valencia                 M000000000000000000N
032019111419017000055003TRosario                  Carmona                  Rodríguez                F000000000000000000N
032019111419024000058001TAntonio                  Vílchez                  Cebrián                  M000000000000000000N
032019111419010000081001TLuis                     Escamilla                García                   M000000000000000000N
032019111419011000081002TMaria del Valle          Fernández                Martínez                 F000000000000000000N
032019111419012000081003TMaría Ángeles            García                   Ramírez                  F000000000000000000N
032019111419007000083001TJosé Luis                Sanz                     Ruiz                     M000000000000000000S
032019111419008000083002TRicardo                  Villena                  Machuca                  M000000000000000000N
032019111419009000083003TIsabel del Pilar         Fernández de Liencres    Rodríguez                F000000000000000000N
032019111419001000094001TAntonio                  Gutiérrez                Limones                  M000000000000000000S
032019111419002000094002TMaría Nieves             Hernández                Espinal                  F000000000000000000S
032019111419003000094003TJuan Antonio             Gilabert                 Sánchez                  M000000000000000000S
032019111419023000098001TRafael                   Villar                   Liñán                    M000000000000000000N
032019111419021000101001TFrancisco                Vicedo                   Carmona                  M000000000000000000N
032019111419022000101002TAna María                Alés                     García                   F000000000000000000N
032019111419014000116001TMacario                  Valpuesta                Bermúdez                 M000000000000000000N
032019111229026000015001TAna Beatríz              Gual                     Planas                   F000000000000000000N
032019111229027000015002TFernando                 Marqués                  Mancho                   M000000000000000000N
032019111229028000015003TAna                      Usieto                   Pujala                   F000000000000000000N
032019111229007000018001TJosé Miguel              Burillo                  Julián                   M000000000000000000N
032019111229008000018002TPaula                    Martínez-Guisasola       Cornago                  F000000000000000000N
032019111229009000018003TNoelia Ángeles           Folch                    Villas                   F000000000000000000N
032019111229016000023001TRubén                    Andrés                   Gil                      M000000000000000000N
032019111229017000023002TRosa María               Martín                   Bartolomé                F000000000000000000N
032019111229018000023003TJavier                   Martín                   Vega                     M000000000000000000N
032019111229021000036001TJosé María               Abad                     Torres                   M000000000000000000N
032019111229022000036002TMaría Atocha             Angulo                   Martínez                 F000000000000000000N
032019111229023000036003TEduardo                  Morales                  Osia                     M000000000000000000N
032019111229014000055001TCristina                 Peñarroya                Gómez                    F000000000000000000N
032019111229015000055002TDavid                    Martín                   Barba                    M000000000000000000N
032019111229020000061001TLuis Ladislao            Izquierdo                Pradilla                 M000000000000000000N
032019111229029000064001TGalaor                   Gimeno                   Sánchez                  M000000000000000000N
032019111229010000079001TJuan                     Rodríguez                Bielsa                   M000000000000000000N
032019111229011000079002TMaría Elena              Orejuela                 Aparicio                 F000000000000000000N
032019111229012000079003TDaniel                   Isábal                   Rami                     M000000000000000000N
032019111229004000083001TAna Isabel               Alós                     López                    F000000000000000000S
032019111229005000083002TMaría Blanca             Puyuelo                  del Val                  F000000000000000000N
032019111229006000083003TCarlos                   Sampériz                 Enguita                  M000000000000000000N
032019111229001000094001TAntonio José             Cosculluela              Bergua                   M000000000000000000S
032019111229002000094002TRosa María               Serrano                  Sierra                   F000000000000000000S
032019111229003000094003TGonzalo                  Palacín                  Guarné                   M000000000000000000S
032019111229024000098001TAna                      Riestra                  de Noreña                F000000000000000000N
032019111229025000100001TAlejandro                Nasarre                  Pique                    M000000000000000000N
032019111229019000101001TFrancisco Javier         Guiu                     Benito                   M000000000000000000N
032019111229013000116001TRicardo                  Arrudi                   Cajal                    M000000000000000000N
032019111449019000005001TJosé Luis                Mallén                   Herrero                  M000000000000000000N
032019111449007000018001TAlfonso                  Palmero                  Quintanilla              M000000000000000000N
032019111449008000018002TMaría José               Alonso                   Pérez                    F000000000000000000N
032019111449009000018003TLuis Octavio             Esteban                  Guijarro                 M000000000000000000N
032019111449014000055001TLourdes                  Mariñoso                 Aguarón                  F000000000000000000N
032019111449016000061001TDesamparados             Herrera                  Rubio                    F000000000000000000N
032019111449010000078001TAna Isabel               Gimeno                   Pérez                    F000000000000000000N
032019111449011000078002TRafael                   Vivas                    Paniagua                 M000000000000000000N
032019111449012000078003TFélix                    Rubio                    Ferrer                   M000000000000000000N
032019111449004000083001TManuel                   Blasco                   Marqués                  M000000000000000000S
032019111449005000083002TMaría Carmen             Pobo                     Sánchez                  F000000000000000000S
032019111449006000083003TMiguel Ángel             Estevan                  Serrano                  M000000000000000000N
032019111449001000094001TMaría José               Villalba                 Chavarría                F000000000000000000N
032019111449002000094002TJoaquín                  Noe                      Serrano                  M000000000000000000N
032019111449003000094003TMaría Perla              Borao                    Aguirre                  F000000000000000000N
032019111449018000098001TAndrés                   Serrano                  Paradinas                M000000000000000000N
032019111449017000100001TChemari                  García                   Rodríguez                M000000000000000000N
032019111449015000101001TAna                      Burriel                  Navarro                  F000000000000000000N
032019111449023000108001TJoaquín                  Egea                     Serrano                  M000000000000000000S
032019111449024000108002TBeatriz                  Martín                   Larred                   F000000000000000000S
032019111449025000108003TAlba                     Polo                     Artal                    F000000000000000000N
032019111449020000109001TMaría Dolores            Ivars                    Samper                   F000000000000000000N
032019111449021000109002TJesús Miguel             Ortiz                    Sánchez                  M000000000000000000N
032019111449022000109003TKleber Ramiro            Esquivel                 Moscoso                  M000000000000000000N
032019111449013000116001TJuan Manuel              Hernández                Simón                    M000000000000000000N
032019111509004000018001TAna Pilar                Velilla                  Martínez                 F000000000000000000N
032019111509005000018002TMiguel Ángel             Polo                     Gil                      M000000000000000000N
032019111509006000018003TÁngel                    Sánchez                  Calvo                    M000000000000000000N
032019111509014000023001TAntonio José             Mateo                    Aguarón                  M000000000000000000N
032019111509015000023002TMaría Teresa             Lou                      Arnal                    F000000000000000000N
032019111509016000023003TSantiago                 Pintos                   Pamplona                 M000000000000000000N
032019111509023000036001TJesús                    Lipe                     Figueruelo               M000000000000000000N
032019111509024000036002TJosepa                   Andujar                  Morales                  F000000000000000000N
032019111509025000036003TFernando Benjamín        Ruiz                     Sebastián                M000000000000000000N
032019111509030000042001TFernando                 Díaz                     Sanz                     M000000000000000000N
032019111509031000051001TAntonio                  Angulo                   Borque                   M000000000000000000N
032019111509032000051002TMaría Victoria           Calzada                  Torres                   F000000000000000000N
032019111509033000051003TBasilia                  Torres                   Cuadrado                 F000000000000000000N
032019111509017000055001TMarina                   Luna                     Gálvez                   F000000000000000000N
032019111509018000055002TJosé Manuel              Sanjuán                  Aragonés                 M000000000000000000N
032019111509019000055003TTamara                   Satorre                  Constant                 F000000000000000000N
032019111509028000061001TMiguel Angel             Galindo                  Vicente                  M000000000000000000N
032019111509027000064001TAlberto                  Sopeña                   Borroy                   M000000000000000000N
032019111509010000078001TMaría Yolanda            Sancho                   Serrano                  F000000000000000000N
032019111509011000078002TElena                    García                   Juango                   F000000000000000000N
032019111509012000078003TLeandro Eduardo          Piragini                 Giella                   M000000000000000000N
032019111509007000083001TJosé Manuel              Aranda                   Lassa                    M000000000000000000S
032019111509008000083002TRicardo                  Canals                   Lizano                   M000000000000000000N
032019111509009000083003TMaría Tatiana            Gaudes                   Lalmolda                 F000000000000000000N
032019111509001000094001TMiguel Carmelo           Dalmau                   Blanco                   M000000000000000000S
032019111509002000094002TAna Isabel               Villar                   Lechón                   F000000000000000000S
032019111509003000094003TVíctor Javier            Ruiz                     de Diego                 M000000000000000000S
032019111509026000098001TAmparo                   de Frutos                Sanz                     F000000000000000000N
032019111509029000100001TPilar Yolanda            Esteban                  Martínez                 F000000000000000000N
032019111509020000101001TBlas                     Guevara                  Prieto                   M000000000000000000N
032019111509021000101002TZoe                      Gonzaléz                 Garcia                   F000000000000000000N
032019111509022000101003TAndrés                   Ibiricu                  López                    M000000000000000000N
032019111509034000107001TAlejandro David          Muñoz                    Basols                   M000000000000000000N
032019111509013000116001TPascual                  López                    Buesa                    M000000000000000000N
032019111339021000003001TAna                      Fernández                Marqués                  F000000000000000000N
032019111339022000003002TMaría Dolores            Suárez                   Vallina                  F000000000000000000N
032019111339023000003003TMariano                  Suárez                   Rodríguez                M000000000000000000N
032019111339007000018001TNicanor                  García                   Fernández                M000000000000000000N
032019111339008000018002TMaría Victoria           Rubio                    Prieto                   F000000000000000000N
032019111339009000018003TJoaquín                  Merediz                  Vidal                    M000000000000000000N
032019111339010000046001TEva                      del Fresno               Díaz                     F000000000000000000N
032019111339015000055001TCristina Eugenia         Abella                   Novo                     F000000000000000000N
032019111339016000055002TAlberto                  Pérez                    Arroyo                   M000000000000000000N
032019111339017000055003TRosa María               Rubio                    Domínguez                F000000000000000000N
032019111339028000061001TJavier                   Ortega                   Serra                    M000000000000000000N
032019111339024000064001TSaúl                     Fernández                Garrote                  M000000000000000000N
032019111339026000072001TJesús Fernando           Rodríguez                Roiz                     M000000000000000000N
032019111339027000072002TConcepción               Martínez                 Miguel                   F000000000000000000N
032019111339011000082001TMar                      García                   González                 F000000000000000000N
032019111339012000082002TJuan Carlos              Hevia                    Lozano                   M000000000000000000N
032019111339013000082003TJosé Ovidio              Álvarez                  Rozada                   M000000000000000000N
032019111339004000086001TMaría Mercedes           Fernández                González                 F000000000000000000S
032019111339005000086002TJosé Ramón               García                   Cañal                    M000000000000000000N
032019111339006000086003TMaría del Camino         Gutiérrez                Gutiérrez                F000000000000000000N
032019111339001000094001TFrancisco Antonio        Blanco                   Ángel                    M000000000000000000S
032019111339002000094002TMaría                    Fernández                Álvarez                  F000000000000000000S
032019111339003000094003TFernando                 Lastra                   Valdés                   M000000000000000000S
032019111339025000098001TNoemí                    Roca                     Barrio                   F000000000000000000N
032019111339018000101001TJosé Antonio             Lobato                   González                 M000000000000000000N
032019111339019000101002TEduardo                  Madroñal                 Pedraza                  M000000000000000000N
032019111339020000101003TRosa María               Navarrete                Sehnert                  F000000000000000000N
032019111339014000116001TFrancisco                Benavente                Meléndez de Arvas        M000000000000000000N
032019111071007000018001TBeatriz                  Medina                   Muñoz-Torrero            F000000000000000000N
032019111071008000018002TOmar                     Delgado                  Garrido                  M000000000000000000N
032019111071014000049001TLila                     Thomàs                   i Andreu                 F000000000000000000N
032019111071015000049002TIsidre                   Mateu                    Sabater                  M000000000000000000N
032019111071016000050001TAntoni                   Gutiérrez                Sastre                   M000000000000000000N
032019111071010000055001TPatricia                 Blanco                   Martín                   F000000000000000000N
032019111071011000055002TFrancisco                González                 Benito                   M000000000000000000N
032019111071017000073001TAntonio                  Forteza                  Bonnet                   M000000000000000000N
032019111071003000075001TBeni                     Aguiló                   Grau                     F000000000000000000N
032019111071004000075002TAlfonso                  Rodríguez                Sánchez                  M000000000000000000N
032019111071005000083001TMaría                    Salom                    Coll                     F000000000000000000S
032019111071006000083002TJavier                   Bonet                    Díaz                     M000000000000000000N
032019111071001000094001TCosme                    Bonet                    Bonet                    M000000000000000000S
032019111071002000094002TSusanna                  Moll                     Kammerich                F000000000000000000S
032019111071013000098001TMaría Teresa             Viera                    Oliver                   F000000000000000000N
032019111071012000101001TJuan José                Fernández                Panadero                 M000000000000000000N
032019111071009000116001TManuela                  Cañadas                  Pinilla                  F000000000000000000N
032019111072004000018001TJorge                    de Diego                 Capellán                 M000000000000000000N
032019111072005000052001TEduard                   Riudavets                Florit                   M000000000000000000N
032019111072007000055001TSalvador                 Moll                     Herrero                  M000000000000000000N
032019111072003000075001TAntonia                  Florit                   Salord                   F000000000000000000N
032019111072002000083001TJordi                    López                    Ravanals                 M000000000000000000S
032019111072001000094001TMaria del Carme          Garcia                   Querol                   F000000000000000000N
032019111072008000101001TAdrià                    González                 Minaya                   M000000000000000000N
032019111072006000116001TGuillermo Juan           Jusué                    de Olives                M000000000000000000N
032019111073004000018001TJohanna Alejandra        Gámez                    Zúñiga                   F000000000000000000N
032019111073007000033001TJosep Antoni             Prats                    Serra                    M000000000000000000N
032019111073006000055001TDaniel Ramón             Planells                 Fragua                   M000000000000000000N
032019111073003000075001TMario Miguel             Devis                    Luján                    M000000000000000000N
032019111073002000083001TJacobo                   Varela de Limia          Chordá                   M000000000000000000N
032019111073001000094001TPatricia                 Abascal                  Jiménez                  F000000000000000000S
032019111073008000101001TJavier                   Sánchez                  Aranda                   M000000000000000000N
032019111073005000116001TCarlos                   Torres                   Mayans                   M000000000000000000N
032019111351016000002001TLuz Carmen               Rodríguez                Gangura                  F000000000000000000N
032019111351017000002002TJosé Echedey "CANARIONASOSantana                  Morán                    M000000000000000000N
032019111351026000016001TGuayarmina               Méndez                   Laguna                   F000000000000000000N
032019111351027000016002TJosé Miguel              Yánez                    Ramírez                  M000000000000000000N
032019111351009000018001TRafael Juan              Medina                   Jaber                    M000000000000000000N
032019111351010000018002TAlicia Esther            Díaz                     Álamo                    F000000000000000000N
032019111351023000046001TJesús Alberto            Rosales                  Falcón                   M000000000000000000N
032019111351024000046002TMaría Teresa             Bañobre                  Nebot                    F000000000000000000N
032019111351005000054001THeriberto José           Dávila                   Ojeda                    M000000000000000000N
032019111351006000054002TMaría Ángeles            Batista                  Perdomo                  F000000000000000000N
032019111351012000055001TRaquel                   Díaz                     Santana                  F000000000000000000N
032019111351013000055002TDaniel                   Romero                   Vecino                   M000000000000000000N
032019111351019000059001TJavier                   Delgado                  Pérez                    M000000000000000000N
032019111351020000059002TJudit                    Duque                    Suárez                   F000000000000000000N
032019111351021000072001TLuis                     Bodoque                  Gómez                    M000000000000000000N
032019111351022000072002TMaría Dolores            Blanco                   López                    F000000000000000000N
032019111351007000078001TCarlos Carmelo           Reyes                    Lima                     M000000000000000000N
032019111351008000078002TLaura                    Saz                      Almazán                  F000000000000000000N
032019111351003000083001TSergio                   Ramos                    Acosta                   M000000000000000000S
032019111351004000083002TRosa Faustina            Viera                    Fernández                F000000000000000000N
032019111351001000094001TRamón                    Morales                  Quesada                  M000000000000000000S
032019111351002000094002TSaturnina                Santana                  Dumpierrez               F000000000000000000S
032019111351018000098001TLaura                    Rodríguez                Álvarez                  F000000000000000000N
032019111351014000101001TAbisai                   Melián                   Ramírez                  M000000000000000000N
032019111351015000101002TJuana María              Ruiz                     Suárez                   F000000000000000000N
032019111351025000114001TRamón Francisco          González                 Hernández                M000000000000000000N
032019111351011000116001TCarlos Manuel            Ruiz de Galarreta        Hernández                M000000000000000000N
032019111352008000002001TNuria Esther             Cedrés                   Perdomo                  F000000000000000000N
032019111352002000013001TSamuel Carmelo           Martín                   Morera                   M000000000000000000N
032019111352005000018001TNoemí del Pino           Ramírez                  Rodríguez                F000000000000000000N
032019111352011000046001TEster                    Gómez                    Brodsky                  F000000000000000000N
032019111352007000055001TBárbara                  Fernández                Granda                   F000000000000000000N
032019111352010000059001TFrancisca                Sánchez                  Macías                   F000000000000000000N
032019111352004000078001TJorge Miguel             Peñas                    Lozano                   M000000000000000000N
032019111352003000083001TRemigio Joel             Delgado                  Cáceres                  M000000000000000000N
032019111352001000094001TFrancisco Manuel         Fajardo                  Palarea                  M000000000000000000S
032019111352009000101001TMaría del Rosario        Martel                   Marrero                  F000000000000000000N
032019111352006000116001TJavier                   Román                    Vas                      M000000000000000000N
032019111353009000002001TJosé Manuel              Vázquez                  Rodríguez                M000000000000000000N
032019111353002000013001TDolores Alicia           García                   Martínez                 F000000000000000000N
032019111353011000016001TMaría Eugenia            Boán                     Álvarez                  F000000000000000000N
032019111353005000018001TIgnacio                  López de Vicuña          Artola                   M000000000000000000N
032019111353007000055001TMaría Ángeles            Encabo                   López                    F000000000000000000N
032019111353010000059001TMaría del Carmen         Talavera                 Quevedo                  F000000000000000000N
032019111353004000078001TRafael                   Méndez                   Quintela                 M000000000000000000N
032019111353003000083001TJéssica del Carmen       de León                  Verdugo                  F000000000000000000N
032019111353001000094001TPaloma                   Hernández                Cerezo                   F000000000000000000S
032019111353008000101001TElena Nasima             Santana                  Salsouli                 F000000000000000000N
032019111353006000116001TFrancisco                Sánchez                  Fernández                M000000000000000000N
032019111384014000002001TYasmín Lucrecia          Bouzaoui                 Acosta                   F000000000000000000N
032019111384015000002002TBentor                   Trujillo                 Flores                   M000000000000000000N
032019111384005000013001TJosé Manuel              Pitti                    González                 M000000000000000000N
032019111384006000013002TVerónica                 Meseguer                 del Pino                 F000000000000000000N
032019111384024000016001TCesar Ricardo            Vera                     Ayala                    M000000000000000000N
032019111384025000016002TSilvia                   Martín                   Homubol                  F000000000000000000N
032019111384009000018001TRafael Nicolás           Arteaga                  Acosta                   M000000000000000000N
032019111384010000018002TEvelyn del Carmen        Alonso                   Hernández                F000000000000000000N
032019111384026000023001TRosa Nieves              González                 Pérez                    F000000000000000000N
032019111384027000023002TFrancisco                Páez                     Lorenzo                  M000000000000000000N
032019111384022000046001THugo                     de Armas                 Estévez                  M000000000000000000N
032019111384023000046002TLaura                    Montilla                 Calvo                    F000000000000000000N
032019111384012000055001TJavier                   Hernández                García                   M000000000000000000N
032019111384013000055002TMaría Jose               Martín                   Fagundo                  F000000000000000000N
032019111384020000059001TManuel                   Gómez                    Díaz                     M000000000000000000N
032019111384021000059002TAriadna                  Delgado                  Delgado                  F000000000000000000N
032019111384007000078001TArnaldo                  González-Casanova        Camacho                  M000000000000000000N
032019111384008000078002TEliana                   Acosta                   Rodríguez                F000000000000000000N
032019111384003000083001TAntonio                  Alarco                   Hernández                M000000000000000000S
032019111384004000083002TMaría Isabel             García                   Luis                     F000000000000000000N
032019111384001000094001TOlivia María             Delgado                  Oval                     F000000000000000000S
032019111384002000094002TPedro Anatael            Meneses                  Roque                    M000000000000000000S
032019111384018000098001TAnwar                    Hawach                   Umpiérrez                M000000000000000000N
032019111384019000098002TSilvia                   Burdiel                  Álvaro                   F000000000000000000N
032019111384016000101001TJorge                    Sosa                     Campos                   M000000000000000000N
032019111384017000101002TLuz Marina               Rodríguez                García                   F000000000000000000N
032019111384011000116001TMerchines                Zerolo                   Álvarez                  F000000000000000000N
032019111385009000002001TPedro Adrián             Pérez                    Lopez "El Gasio"         M000000000000000000N
032019111385003000013001TGregorio Clemente        Alonso                   Méndez                   M000000000000000000N
032019111385004000018001TJuan Arturo              San Gil                  Ayut                     M000000000000000000N
032019111385007000055001TTamara                   Hernández                Pimienta                 F000000000000000000N
032019111385005000078001TJosé Luis                Cabrera                  Sánchez                  M000000000000000000N
032019111385002000083001TBorja                    Pérez                    Sicilia                  M000000000000000000S
032019111385001000094001TSergio                   Matos                    Castro                   M000000000000000000N
032019111385008000101001TRayco                    Pérez                    Rodríguez                M000000000000000000N
032019111385006000116001TArturo                   Perez-Seoane             Garau                    M000000000000000000N
032019111386008000002001TIvan                     Medina                   Verheyen                 M000000000000000000N
032019111386001000004001TFabián                   Chinea                   Correa                   M000000000000000000S
032019111386005000013001TLázaro Rafael            Arteaga                  Hernández                M000000000000000000N
032019111386006000018001TLaura Serafina           Vega                     Casanova                 F000000000000000000N
032019111386010000023001TNicole                   Pérez                    González                 F000000000000000000N
032019111386007000055001TSylvana                  Ferreira                 Pérez                    F000000000000000000N
032019111386004000078001TJesús Eder               Arteaga                  Jerez                    M000000000000000000N
032019111386003000083001TCarmen Delia             García                   Medina                   F000000000000000000N
032019111386002000094001TFernando Manuel          Méndez                   Borges                   M000000000000000000N
032019111386009000101001TSalvador                 Morales                  Coello                   M000000000000000000N
032019111387002000001001TPablo                    Rodríguez                Cejas                    M000000000000000000N
032019111387008000002001TCándido Vidal            González                 Felipe                   M000000000000000000N
032019111387005000018001TJosé Marcos              Nieto                    Ramírez                  M000000000000000000N
032019111387006000055001TMiriam                   Guerrero                 Hernández                F000000000000000000N
032019111387004000078001TTeresa de las Nieves "MaiRuiz                     González                 F000000000000000000N
032019111387003000083001TJosé Miguel              Sánchez                  Padrón                   M000000000000000000N
032019111387001000094001TEsther                   Carmona                  Delgado                  F000000000000000000S
032019111387007000101001TAna Lucía                López                    Martín                   F000000000000000000N
032019111399010000018001TRuth                     Pérez                    Higuera                  F000000000000000000N
032019111399011000018002TAgustín                  Prieto                   Espuñes                  M000000000000000000N
032019111399012000018003TSara Cristina            Quintanilla              Fernández                F000000000000000000N
032019111399019000023001TArturo                   Limón                    Fernández                M000000000000000000N
032019111399020000023002TMaría Pilar              Artigas                  Manero                   F000000000000000000N
032019111399017000055001TLaura                    Tejedor                  Bonhome                  F000000000000000000N
032019111399018000055002TJavier Antonio           Peña                     Fernández                M000000000000000000N
032019111399021000061001TMaría                    López                    Revuelta                 F000000000000000000N
032019111399025000064001TLorena                   García                   Tabarés                  F000000000000000000N
032019111399023000073001TAlejandro                Ruiz                     Benito                   M000000000000000000N
032019111399014000078001TRodrigo                  Romero                   Jiménez                  M000000000000000000N
032019111399015000078002TPablo Ángel              González                 de la Riva               M000000000000000000N
032019111399016000078003TMaría Rosario            Quintana                 Pantaleón                F000000000000000000N
032019111399004000083001TJavier                   Puente                   Redondo                  M000000000000000000S
032019111399005000083002TAmaya                    Landín                   Díaz de Corcuera         F000000000000000000S
032019111399006000083003TFélix                    de las Cuevas            Cortés                   M000000000000000000S
032019111399007000088001TLuis Fernando            Fernández                Fernández                M000000000000000000N
032019111399008000088002TAurora                   Cuero                    Fuentecilla              F000000000000000000N
032019111399009000088003TÁngel                    Sainz                    Ruiz                     M000000000000000000N
032019111399001000094001TMaría Isabel             Fernández                Gutiérrez                F000000000000000000S
032019111399002000094002TJosé Manuel              Cruz                     Viadero                  M000000000000000000N
032019111399003000094003TMaría Rocío              Rábago                   Gómez                    F000000000000000000N
032019111399024000098001TMontserrat               Barrio                   López                    F000000000000000000N
032019111399022000101001TJosé Jaime               Gómez                    García                   M000000000000000000N
032019111399013000116001TJosé Luis                Temes                    Ortiz                    M000000000000000000N
032019111029007000018001TDaniel                   Faura                    Macía                    M000000000000000000N
032019111029008000018002TCaridad                  Martínez                 Calero                   F000000000000000000N
032019111029009000018003TJosé Antonio             Ibáñez                   López                    M000000000000000000N
032019111029014000055001TPierre                   Pérez                    Silvestre                M000000000000000000N
032019111029015000055002TLara                     Peris                    Moral                    F000000000000000000N
032019111029017000061001TJaime                    Oliver                   Cortés                   M000000000000000000N
032019111029011000078001TJuan Miguel              Rodríguez                Cuesta                   M000000000000000000N
032019111029012000078002TVicente                  Martínez                 Zalve                    M000000000000000000N
032019111029013000078003TRebeca                   Cañavate                 Ayuso                    F000000000000000000N
032019111029004000083001TAntonio                  Serrano                  Aguilar                  M000000000000000000S
032019111029005000083002TRamón                    Rodríguez                López                    M000000000000000000S
032019111029006000083003TMaría del Mar            Requena                  Molla                    F000000000000000000N
032019111029001000094001TManuel                   Miranda                  Martínez                 M000000000000000000S
032019111029002000094002TDonelia                  Roldán                   Martínez                 F000000000000000000S
032019111029003000094003TMaría Victoria           Leal                     Utiel                    F000000000000000000N
032019111029016000098001TClara                    Martínez                 Rabadán                  F000000000000000000N
032019111029018000102001TCarlos Enrique           Marín                    Bernal                   M000000000000000000N
032019111029010000116001TAna María                Muñoz                    Antúnez                  F000000000000000000N
032019111139007000018001TRafael                   López                    Sánchez                  M000000000000000000N
032019111139008000018002TVirginia                 Espinosa                 Gallego                  F000000000000000000N
032019111139009000018003TGenaro                   Galán                    García                   M000000000000000000N
032019111139014000055001TVictoria                 Pozo                     Sampedro                 F000000000000000000N
032019111139015000055002TJosé                     Puchol                   González                 M000000000000000000N
032019111139011000078001TAntonio                  Moreno                   Valiente                 M000000000000000000N
032019111139012000078002TLuis                     Benítez de Lugo          Enrich                   M000000000000000000N
032019111139013000078003TVictoria                 Maroto                   Barros                   F000000000000000000N
032019111139004000083001TFrancisco                Cañizares                Jiménez                  M000000000000000000S
032019111139005000083002TMiguel Angel             Valverde                 Menchero                 M000000000000000000N
032019111139006000083003TMaría del Carmen         Quintanilla              Barba                    F000000000000000000N
032019111139001000094001TJesús                    Martín                   Rodríguez                M000000000000000000S
032019111139002000094002TMaría del Carmen         Mínguez                  Sierra                   F000000000000000000S
032019111139003000094003TJosé Manuel              Bolaños                  Viso                     M000000000000000000S
032019111139017000098001TBorja                    Bautista                 Villalba                 M000000000000000000N
032019111139016000102001TAlejandro                Cerro                    de Lara                  M000000000000000000N
032019111139010000116001TDavid                    Manzanares               Fúnez                    M000000000000000000N
032019111169007000018001TJaime                    Saiz                     Leal                     M000000000000000000N
032019111169008000018002TAna María                Romero                   García                   F000000000000000000N
032019111169009000018003TCarlos                   Gascón                   García                   M000000000000000000N
032019111169014000055001TAna                      Gallego                  Torres                   F000000000000000000N
032019111169018000061001TAndrea Constanza         Scarcella                González                 F000000000000000000N
032019111169017000073001TJosé Antonio             Peña                     Ramos                    M000000000000000000N
032019111169011000078001TBeatriz                  Martínez                 Valencoso                F000000000000000000N
032019111169012000078002TAna María                Navarrete                Tudela                   F000000000000000000N
032019111169013000078003TJesús                    Martínez                 García                   M000000000000000000N
032019111169004000083001TJosé Manuel              Tortosa                  Ruiz                     M000000000000000000S
032019111169005000083002TMaría Pilar              Martínez                 Peñarrubia               F000000000000000000S
032019111169006000083003TMaría Soledad            Herrera                  Arribas                  F000000000000000000N
032019111169001000094001TCarmen                   Torralba                 Valiente                 F000000000000000000S
032019111169002000094002TAlfonso                  Escudero                 Ortega                   M000000000000000000S
032019111169003000094003TMaría Ángeles            López                    Martínez                 F000000000000000000N
032019111169015000098001TLuis                     Armengot                 Paradinas                M000000000000000000N
032019111169016000102001TFernando                 Muñoz                    García                   M000000000000000000N
032019111169010000116001TDavid                    Borja                    Pérez                    M000000000000000000N
032019111199007000018001TFelipe                   Oliva                    Encabo                   M000000000000000000N
032019111199008000018002TAlmudena                 Sanz                     Cerezo                   F000000000000000000N
032019111199009000018003TJaime                    Sánchez                  Gil                      M000000000000000000N
032019111199024000035001TLuis Felipe              Pérez                    Gutiérrez                M000000000000000000N
032019111199014000055001TAinhoa                   Pérez                    López                    F000000000000000000N
032019111199015000055002TManuel                   Carnero                  Chamón                   M000000000000000000N
032019111199018000061001TJosé                     Casado                   García                   M000000000000000000N
032019111199019000061002TMaría Belén              Minayo                   García                   F000000000000000000N
032019111199020000061003TRodrigo Iván             San Martín               San Martín               M000000000000000000N
032019111199021000068001TJaime                    Peleja                   Catala                   M000000000000000000N
032019111199022000068002TCaridad                  Roldán                   Delgado                  F000000000000000000N
032019111199023000068003TAntonio Luis             Herranz                  Alarcón                  M000000000000000000N
032019111199011000078001TMilagros                 Ruiz-Roso                Martín-Moyano            F000000000000000000N
032019111199012000078002TMaría Genoveva           Bueno                    Bagase                   F000000000000000000N
032019111199013000078003TNicolás                  Santamaría               Gómez                    M000000000000000000N
032019111199004000083001TAntonio                  Román                    Jasanada                 M000000000000000000S
032019111199005000083002TJosé Luis                González                 la Mola                  M000000000000000000S
032019111199006000083003TIsabel                   Nogueroles               Viñes                    F000000000000000000N
032019111199001000094001TRafael                   Esteban                  Santamaría               M000000000000000000S
032019111199002000094002TRiansares                Serrano                  Morales                  F000000000000000000S
032019111199003000094003TJulio                    García                   Moreno                   M000000000000000000N
032019111199017000098001TMaría Cristina           de la Puerta             González-Quevedo         F000000000000000000N
032019111199016000102001TJulio                    Peco                     Sigüenza                 M000000000000000000N
032019111199010000116001TAntonio                  de Miguel                Antón                    M000000000000000000N
032019111459007000018001TBegoña                   Molina                   Rodríguez                F000000000000000000N
032019111459008000018002TJorge                    Fernández                Torres                   M000000000000000000N
032019111459009000018003TRafael                   Cano                     García                   M000000000000000000N
032019111459014000055001TMaría Esther             Durán                    González                 F000000000000000000N
032019111459015000055002TLuis Felipe              Domínguez                Domínguez                M000000000000000000N
032019111459020000061001TJoaquín                  Vicente                  García                   M000000000000000000N
032019111459011000078001TManuel                   Dorado                   Martín                   M000000000000000000N
032019111459012000078002TJorge                    Vega                     Martín                   M000000000000000000N
032019111459013000078003TMª Jesús                 Villafruela              Matilla                  F000000000000000000N
032019111459004000083001TJosé Julián              Gregorio                 López                    M000000000000000000S
032019111459005000083002TMaría Pilar              Alía                     Aguado                   F000000000000000000S
032019111459006000083003TPablo José               Corrales                 Aragón                   M000000000000000000N
032019111459001000094001TFélix                    Ortega                   Fernández                M000000000000000000S
032019111459002000094002TMontserrat               Muro                     Martín                   F000000000000000000S
032019111459003000094003TJosé Manuel              Tofiño                   Pérez                    M000000000000000000N
032019111459017000098001TLaura María              Herranz                  Menezo                   F000000000000000000N
032019111459018000098002TPedro Luis               Cano                     Claret                   M000000000000000000N
032019111459019000098003TAlicia                   Martínez-Clavel          Martínez                 F000000000000000000N
032019111459016000102001TPedro Manuel             Soriano                  Galán                    M000000000000000000N
032019111459010000116001TJosefina                 Blázquez                 Sánchez                  F000000000000000000N
032019111059007000018001TJuan                     Martitegui               González                 M000000000000000000N
032019111059008000018002TJesús Ignacio            Sopelana                 Rodríguez                M000000000000000000N
032019111059009000018003TFrancisca                Polonio                  Pérez                    F000000000000000000N
032019111059018000035001TAnastasio                Rodríguez                Martín                   M000000000000000000N
032019111059014000055001TFrancisco                Martín                   Chacón                   M000000000000000000N
032019111059015000055002TLorena                   Rubio                    Cabrero                  F000000000000000000N
032019111059022000073001TGloria                   Rodríguez                González                 F000000000000000000N
032019111059011000078001TAmelia                   Samper                   Montes                   F000000000000000000N
032019111059012000078002TJavier                   Jara                     García                   M000000000000000000N
032019111059013000078003TVíctor Manuel            García                   Muñoz                    M000000000000000000N
032019111059001000083001TJuan Pablo               Martín                   Martín                   M000000000000000000S
032019111059002000083002TSebastián                González                 Vázquez                  M000000000000000000S
032019111059003000083003TPatricia                 Rodríguez                Calleja                  F000000000000000000S
032019111059004000094001TJesús                    Caro                     Adanero                  M000000000000000000S
032019111059005000094002TMaría Virginia           Parra                    Garrosa                  F000000000000000000N
032019111059006000094003TEnrique                  Rodríguez                Álvarez                  M000000000000000000N
032019111059017000098001TIgnacio                  Álvaro                   Benito                   M000000000000000000N
032019111059016000102001TSaturnino                Benito                   Carrión                  M000000000000000000N
032019111059010000116001TJosé Manuel              Lorenzo                  Serapio                  M000000000000000000N
032019111059019000117001TLaura                    Maíllo del Castillo      García                   F000000000000000000N
032019111059020000117002TFrancisco Javier         Cuerva                   Martín                   M000000000000000000N
032019111059021000117003TTeresa de Jesús          Arangüena                Rodríguez                F000000000000000000N
032019111099007000018001TJulián                   Ruiz                     Navazo                   M000000000000000000N
032019111099008000018002TJesús                    Moreno                   Revilla                  M000000000000000000N
032019111099009000018003TCristina                 Hermosilla               Álvarez                  F000000000000000000N
032019111099014000055001TLuis Humberto            Salazar                  Robles                   M000000000000000000N
032019111099015000055002TAna María                Rodríguez                Horcajo                  F000000000000000000N
032019111099010000078001TCarlos                   Díez                     Javiz                    M000000000000000000N
032019111099011000078002TJonathan                 Gete                     Núñez                    M000000000000000000N
032019111099012000078003TMarina                   Benéitez                 Prieto                   F000000000000000000N
032019111099004000083001TFrancisco Javier         Lacalle                  Lacalle                  M000000000000000000S
032019111099005000083002TCristina                 Ayala                    Santamaría               F000000000000000000S
032019111099006000083003TSalvador                 de Foronda               Vaquero                  M000000000000000000N
032019111099001000094001TAnder                    Gil                      García                   M000000000000000000S
032019111099002000094002TMaría Mar                Arnáiz                   García                   F000000000000000000S
032019111099003000094003TJosé Salvador            Sierra                   García                   M000000000000000000N
032019111099018000098001TAmador María             Villar                   Riu                      M000000000000000000N
032019111099016000102001TDomingo                  Hernández                Araico                   M000000000000000000N
032019111099017000102002TMaría Ascensión          Rodríguez                Rubio                    F000000000000000000N
032019111099013000116001TAna Rosa                 Hernando                 Ruiz                     F000000000000000000N
032019111249007000018001TMaría del Mar            Ordóñez                  Álvarez                  F000000000000000000N
032019111249008000018002TSigifredo                Benavides                Fernández                M000000000000000000N
032019111249009000018003TFrancisco Javier         Panizo                   García                   M000000000000000000N
032019111249017000055001TNuria                    Alcántara                Fernández                F000000000000000000N
032019111249018000055002TAlberto                  Lancha                   Blanco                   M000000000000000000N
032019111249019000055003TGloria Cristina          Morales                  Conde                    F000000000000000000N
032019111249010000078001TPabel Enrique            Albán                    Ramírez                  M000000000000000000N
032019111249011000078002TJavier                   Arias                    Blanco                   M000000000000000000N
032019111249012000078003TTamara                   Sánchez                  Carrera                  F000000000000000000N
032019111249004000083001TAntonio                  Silván                   Rodríguez                M000000000000000000S
032019111249005000083002TJavier                   Santiago                 Vélez                    M000000000000000000S
032019111249006000083003TMaría Mar                González                 Pereda                   F000000000000000000N
032019111249014000089001TCatalina                 Antúnez                  García                   F000000000000000000N
032019111249015000089002TJesús                    Fernández                Villar                   M000000000000000000N
032019111249016000089003TManuel                   Matilla                  Pérez                    M000000000000000000N
032019111249001000094001TSalvador                 Vidal                    Varela                   M000000000000000000S
032019111249002000094002TMaría del Carmen         Morán                    Franco                   F000000000000000000S
032019111249003000094003TConstantino              Marcos                   Álvarez                  M000000000000000000N
032019111249020000098001TJosé Manuel              Real                     Fernández                M000000000000000000N
032019111249021000102001TAlberto                  Sánchez                  Oveja                    M000000000000000000N
032019111249022000113001TRoberto                  Aller                    Llanos                   M000000000000000000N
032019111249023000113002TLaura                    López                    Andrés                   F000000000000000000N
032019111249024000113003TFélix José               Pérez                    Echevarría               M000000000000000000N
032019111249013000116001TCarlos                   Pollán                   Fernández                M000000000000000000N
032019111349007000018001TElena                    León                     Hernández                F000000000000000000N
032019111349008000018002TJuan José                Espegel                  Morte                    M000000000000000000N
032019111349009000018003TMaría                    Llorente                 Tejedor                  F000000000000000000N
032019111349018000035001TJulio César              de Alaiz                 Martínez                 M000000000000000000N
032019111349014000055001TAlba                     García                   Roldán                   F000000000000000000N
032019111349015000055002TFlorencio                Blas                     Benito                   M000000000000000000N
032019111349011000078001TLuis Álvaro              Villoldo                 Pelayo                   M000000000000000000N
032019111349012000078002TRosa María               Rebolledo                Manuel                   F000000000000000000N
032019111349013000078003TEduardo                  Velázquez                Martín                   M000000000000000000N
032019111349001000083001TRodrigo                  Mediavilla               Pérez                    M000000000000000000S
032019111349002000083002TJorge Domingo            Martínez                 Antolín                  M000000000000000000S
032019111349003000083003TMaría del Carmen         Fernández                Caballero                F000000000000000000S
032019111349004000094001TRosa María               Aldea                    Gómez                    F000000000000000000S
032019111349005000094002TEduardo                  Santiago                 Calleja                  M000000000000000000N
032019111349006000094003TGema                     Sanfélix                 Boubeta                  F000000000000000000N
032019111349017000098001TJosé Ignacio             García Valdecasas        Medina                   M000000000000000000N
032019111349016000102001TErnesto Miguel           Nungesser                Luengo                   M000000000000000000N
032019111349010000116001TLuis Javier              Zurro                    Hernández                M000000000000000000N
032019111379024000016001TEmilio                   Cano                     Díez                     M000000000000000000N
032019111379025000016002TMaría Montserrat         Nieto                    Nieto                    F000000000000000000N
032019111379026000016003TMiguel Ángel             Simón                    Merino                   M000000000000000000N
032019111379007000018001TManuel                   Morán                    González                 M000000000000000000N
032019111379008000018002TMaría Natalia            del Arco                 Pozas                    F000000000000000000N
032019111379009000018003TJerónimo                 Gamallo                  de Cabo                  M000000000000000000N
032019111379014000055001TJulio Alberto            Ceballo                  Sánchez                  M000000000000000000N
032019111379015000055002TCristina                 Daza                     García Blanes            F000000000000000000N
032019111379010000078001TGenaro Luis              García                   López                    M000000000000000000N
032019111379011000078002TMaría Isabel             López                    Blázquez                 F000000000000000000N
032019111379012000078003TJosé                     Vicente                  Delgado                  M000000000000000000N
032019111379001000083001TBienvenido               de Arriba                Sánchez                  M000000000000000000S
032019111379002000083002TGonzalo                  Robles                   Orozco                   M000000000000000000S
032019111379003000083003TEsther Basilia           del Brío                 González                 F000000000000000000S
032019111379016000089001TJuan Manuel              Andrés                   López                    M000000000000000000N
032019111379017000089002TMiguel Ángel             Diego                    Núñez                    M000000000000000000N
032019111379018000089003TManuela                  Iglesias                 Carreño                  F000000000000000000N
032019111379004000094001TElena                    Diego                    Castellanos              F000000000000000000S
032019111379005000094002TFernando                 Vegas                    Sánchez                  M000000000000000000N
032019111379006000094003TMaría Rosa               Hernández                Rubio                    F000000000000000000N
032019111379019000098001TJosé Manuel              Domínguez                de la Fuente             M000000000000000000N
032019111379020000102001TBenjamín                 de Francisco             Tundidor                 M000000000000000000N
032019111379021000113001TCarlos Javier            Salgado                  Fuentes                  M000000000000000000N
032019111379022000113002TPilar                    Blanco                   Paredes                  F000000000000000000N
032019111379023000113003TJosé Benito              Mateos                   Pascual                  M000000000000000000N
032019111379013000116001TEmilio                   Polo                     García                   M000000000000000000N
032019111409014000014001TJosé Antonio             Manrique                 Arribas                  M000000000000000000N
032019111409007000018001TPatricia                 Calvo                    Abia                     F000000000000000000N
032019111409008000018002TVíctor Manuel            Alvarado                 Gómez                    M000000000000000000N
032019111409009000018003TAfrodisio Ángel          Martínez                 Herrero                  M000000000000000000N
032019111409015000055001TIrene                    Sacido                   Martín                   F000000000000000000N
032019111409016000055002TGonzalo                  Virseda                  Gil                      M000000000000000000N
032019111409017000055003TMaría Isabel             Torrijos                 Jareño                   F000000000000000000N
032019111409020000068001TLorenza                  Albarracín               de la Cerda              F000000000000000000N
032019111409021000073001TNoel                     Horcajada                Fernández                M000000000000000000N
032019111409011000078001TMaría Mercedes           Marinero                 Pilar                    F000000000000000000N
032019111409012000078002TDaniel                   Torrego                  Marinero                 M000000000000000000N
032019111409013000078003TAna María                López                    Guerrero                 F000000000000000000N
032019111409001000083001TPaloma Inés              Sanz                     Jerónimo                 F000000000000000000S
032019111409002000083002TPablo                    Pérez                    Coronado                 M000000000000000000S
032019111409003000083003TJuan José                Sanz                     Vitorio                  M000000000000000000S
032019111409004000094001TAna María                Agudíez                  Calvo                    F000000000000000000S
032019111409005000094002TJesús Javier             Lucía                    Marugán                  M000000000000000000N
032019111409006000094003TYolanda                  Benito                   Muñoz                    F000000000000000000N
032019111409019000098001TPilar                    Barral                   Heredero                 F000000000000000000N
032019111409018000102001TFélix                    Matesanz                 Sacristán                M000000000000000000N
032019111409010000116001TJesús Marcos             Martín                   Barba                    M000000000000000000N
032019111429007000018001TJosé Antonio             Leal                     López                    M000000000000000000N
032019111429008000018002TMaría Ángeles            Morales                  Garijo                   F000000000000000000N
032019111429009000018003TFrancisco Javier         Sanz                     Romera                   M000000000000000000N
032019111429017000055001TEstefanía                Gutiérrez                Ledesma                  F000000000000000000N
032019111429010000078001TJosé Luis                Sanjuán                  García                   M000000000000000000N
032019111429011000078002TAna Isabel               Barca                    Oliva                    F000000000000000000N
032019111429012000078003TJosé Alberto             Lorenzo                  Pérez                    M000000000000000000N
032019111429004000083001TMaría José               Heredia                  de Miguel                F000000000000000000S
032019111429005000083002TGerardo                  Martínez                 Martínez                 M000000000000000000S
032019111429006000083003TManuel                   López                    Represa                  M000000000000000000N
032019111429014000087001TAdolfo                   Sainz                    Ruíz                     M000000000000000000N
032019111429015000087002TAntonio                  Pardo                    Capilla                  M000000000000000000N
032019111429016000087003TMaría Isabel             Bartolomé                Yubero                   F000000000000000000N
032019111429001000094001TJesús Manuel             Alonso                   Jiménez                  M000000000000000000S
032019111429002000094002TMaría Pilar              Delgado                  Díez                     F000000000000000000S
032019111429003000094003TCarlos                   Lafuente                 Molinero                 M000000000000000000N
032019111429019000098001TLourdes                  Martín-Laborda           García de la Rasilla     F000000000000000000N
032019111429018000102001TFlorentina               Juanes                   González                 F000000000000000000N
032019111429013000116001TSara                     López                    Pérez                    F000000000000000000N
032019111479007000018001TMónica                   Martín                   García                   F000000000000000000N
032019111479008000018002TJosé María               Sarmentero               Busnadiego               M000000000000000000N
032019111479009000018003TMaría Eugenia            Hernández                Peribañez                F000000000000000000N
032019111479021000035001TFrancisco Javier         Sanz                     Méndez                   M000000000000000000N
032019111479022000035002TMaría Cristina           Lorenzo                  Pau                      F000000000000000000N
032019111479014000055001TCristina                 Muñoz                    García                   F000000000000000000N
032019111479015000055002TDavid                    Aguado                   Robledo                  M000000000000000000N
032019111479020000061001TFernando                 García                   García                   M000000000000000000N
032019111479011000078001TSoraya Brezo             Sutil                    Álvarez                  F000000000000000000N
032019111479012000078002TJulio                    Martín                   Ruíz                     M000000000000000000N
032019111479013000078003TLara                     Gago                     Blanco                   F000000000000000000N
032019111479004000083001TMaria de las Mercedes    Cantalapiedra            Álvarez                  F000000000000000000S
032019111479005000083002TLuis Alberto             Plaza                    Martín                   M000000000000000000S
032019111479006000083003TMª Arenales              Serrano                  Argüello                 F000000000000000000N
032019111479001000094001TManuel                   Escarda                  Escarda                  M000000000000000000S
032019111479002000094002TSara María               Galván                   Lobato                   F000000000000000000S
032019111479003000094003TMarcial                  Barba                    González                 M000000000000000000N
032019111479019000098001TÁngela María             Sánchez                  Nagy                     F000000000000000000N
032019111479016000102001TJosé Ramón               Luna                     de María                 M000000000000000000N
032019111479017000112001TJosé Ignacio             Moratinos                Delgado                  M000000000000000000N
032019111479018000112002TVirginia                 Román                    Puras                    F000000000000000000N
032019111479010000116001TPedro María              Fernández                Barbadillo               M000000000000000000N
032019111499007000018001TLaudelina Celia          Santos                   Poza                     F000000000000000000N
032019111499008000018002TEsteban                  Fernández                Prieto                   M000000000000000000N
032019111499009000018003TAlfonso Joaquín          Martín                   Carretero                M000000000000000000N
032019111499017000055001TAna María                Garcimartín              Herranz                  F000000000000000000N
032019111499011000078001TMaría Dolores            Carreras                 Luis                     F000000000000000000N
032019111499012000078002TAntonio                  Narváez                  de las Heras             M000000000000000000N
032019111499013000078003TIsabel                   Reguilón                 Fernández                F000000000000000000N
032019111499001000083001TFernando                 Martínez-Maíllo          Toribio                  M000000000000000000S
032019111499002000083002TJosé María               Barrios                  Tejero                   M000000000000000000S
032019111499003000083003TMaría Teresa             Martín                   Pozo                     F000000000000000000S
032019111499014000089001TTeresita Loreto          Álvarez                  Pérez                    F000000000000000000N
032019111499015000089002TMaría Victoria           Calvo                    Hernández                F000000000000000000N
032019111499016000089003TMiguel Ángel             López                    Valle                    M000000000000000000N
032019111499004000094001TJosé                     Fernández                Blanco                   M000000000000000000S
032019111499005000094002TMaría Ángeles            Martínez                 Blanco                   F000000000000000000N
032019111499006000094003TLuis                     Malmierca                Pérez                    M000000000000000000N
032019111499019000098001TEnrique                  Delgado                  Amador                   M000000000000000000N
032019111499018000102001TMaría Beatriz            Rivero                   Infiesta                 F000000000000000000N
032019111499020000113001TSantiago                 Castaño                  Freile                   M000000000000000000N
032019111499021000113002TFrancisco Alfonso        Martínez                 Martín                   M000000000000000000N
032019111499022000113003TMaría del Mar            Rodríguez                Verdasco                 F000000000000000000N
032019111499010000116001TInmaculada               Benítez                  Gutiérrez                F000000000000000000N
032019111089013000019001TMartín Eusebio           Barra                    López                    M000000000000000000N
032019111089014000019002TCarmen                   de Rivera                Pla                      F000000000000000000N
032019111089015000019003TJuan "Nito"              Foncuberta               Riba                     M000000000000000000N
032019111089007000028001TRosa                     Lluch                    Bramon                   F000000000000000000N
032019111089008000028002TJoan                     Comorera                 Estarellas               M000000000000000000N
032019111089009000028003TVanessa                  Maxé                     Navarro                  F000000000000000000N
032019111089001000031001TMirella                  Cortés                   i Gés                    F000000000000000000S
032019111089002000031002TAna Maria                Surra                    i Spadea                 F000000000000000000S
032019111089003000031003TRobert                   Masih                    i Nahar                  M000000000000000000S
032019111089030000038001TMaría Elva               Tenorio                  López                    F000000000000000000N
032019111089028000040001TOrlin Hernán             Martillo                 Ortega                   M000000000000000000N
032019111089010000041001TRoger                    Español                  i Tor                    M000000000000000000N
032019111089011000041002TMeritxell                Lluís                    i Vall                   F000000000000000000N
032019111089012000041003TLorena Judith            Iglesias                 i Teixidó                F000000000000000000N
032019111089029000043001TJennifer                 Salmerón                 Comino                   F000000000000000000N
032019111089020000056001TAlejandro                Cuesta                   Hidalgo                  M000000000000000000N
032019111089021000056002TBlanca                   Pérez                    Uño                      F000000000000000000N
032019111089022000056003TBernat                   Pujol                    Trias                    M000000000000000000N
032019111089026000060001TJoaquim "Quim"           Boix                     Lluch                    M000000000000000000N
032019111089027000063001TEric                     Rodríguez                Rodríguez                M000000000000000000N
032019111089016000085001TManuel                   Buenaño                  García                   M000000000000000000N
032019111089017000085002TElisabet                 Ortega                   Robles                   F000000000000000000N
032019111089018000085003TÁlvaro                   Benejam                  Peretó                   M000000000000000000N
032019111089004000090001TManuel                   Cruz                     Rodríguez                M000000000000000000S
032019111089005000090002TElia                     Tortolero                Orejuela                 F000000000000000000N
032019111089006000090003TCarles                   Martí                    Jufresa                  M000000000000000000N
032019111089031000096001TMarius Lucien            Makon                    Nkoyock                  M000000000000000000N
032019111089023000101001TOctavio                  Piulats                  Riu                      M000000000000000000N
032019111089024000101002TAntonina                 Rodrigo                  García                   F000000000000000000N
032019111089025000101003TConcepción  "Concha"     García                   García                   M000000000000000000N
032019111089019000116001TJordi                    Aguiló                   Vendrell                 M000000000000000000N
032019111179016000019001TMiriam                   Pujola                   Romero                   F000000000000000000N
032019111179017000019002TMaría Paz                García                   Moreno                   F000000000000000000N
032019111179018000019003TVito Vicente             García                   Galán                    M000000000000000000N
032019111179007000028001TGemma                    Triedo                   Salvador                 F000000000000000000N
032019111179008000028002TMarta                    Domènech                 Gràcia                   F000000000000000000N
032019111179009000028003TWilder Alfonso           Palacio                  Pineda                   M000000000000000000N
032019111179001000031001TJordi                    Martí                    Deulofeu                 M000000000000000000S
032019111179002000031002TElisenda                 Pérez                    Esteve                   F000000000000000000S
032019111179003000031003TJosep                    Quintana                 Caralt                   M000000000000000000N
032019111179023000040001TJesús                    Osorio                   Hernández                M000000000000000000N
032019111179004000041001TJosep Maria "Jami"       Matamala                 Alsina                   M000000000000000000S
032019111179005000041002TJosep Maria              Cervera                  Pinart                   M000000000000000000S
032019111179006000041003TLaura Karina             Corsunsky                Zeitune                  F000000000000000000N
032019111179019000055001TAlbert                   Benítez                  Hugas                    M000000000000000000N
032019111179020000055002TMaría Rosa               Blasco                   Prim                     F000000000000000000N
032019111179022000060001TEsteve                   Huguet                   Pardo                    M000000000000000000N
032019111179026000063001TÀlex                     Martínez                 Ramos                    M000000000000000000N
032019111179013000084001TMaria Àngels             Olmedo                   Delestal                 F000000000000000000N
032019111179014000084002TDaniel                   Ruíz                     Pérez                    M000000000000000000N
032019111179015000084003TSebastián                Mateo                    Herrero                  M000000000000000000N
032019111179010000090001TFerran                   Camas                    Roda                     M000000000000000000N
032019111179011000090002TMaría Josefa "Pepa"      Celaya                   Armisen                  F000000000000000000N
032019111179012000090003TXavier                   Rangel                   Martínez                 M000000000000000000N
032019111179025000096001TElisabet                 Requena                  López                    F000000000000000000N
032019111179021000101001TFrancesc Sergio          Ibáñez                   Laffort                  M000000000000000000N
032019111179024000116001TFrancisco Javier         Domínguez                García                   M000000000000000000N
032019111259010000019001TCristina                 Daza                     Requena                  F000000000000000000N
032019111259011000019002TFrancisco                de Urquia                Comas                    M000000000000000000N
032019111259012000019003TJuan Felipe              Cordoba                  Ortega                   M000000000000000000N
032019111259013000028001TMª Sonia                 Martínez                 Albiñana                 F000000000000000000N
032019111259014000028002TBlanca                   Rubio                    Aner                     F000000000000000000N
032019111259015000028003TLluc                     Capacete                 Gallardo                 M000000000000000000N
032019111259001000031001TSara                     Bailac                   i Ardanuy                F000000000000000000S
032019111259002000031002TMiquel                   Caminal                  i Cerdà                  M000000000000000000S
032019111259003000031003TXavier                   Castellana               i Gamisans               M000000000000000000S
032019111259025000040001TLuis Bautista            Piguave                  Pilligua                 M000000000000000000N
032019111259004000041001TM. Teresa "Mayte"        Rivero                   Segalàs                  F000000000000000000S
032019111259005000041002TRosalia                  Carnicé                  Farré                    F000000000000000000N
032019111259006000041003TFrancesc                 López                    Solé                     M000000000000000000N
032019111259020000055001TAlba                     Cases                    Calleja                  F000000000000000000N
032019111259021000055002TXavier                   Santamaría               Fumas                    M000000000000000000N
032019111259022000060001TFrancesc Xavier          García                   i Llop                   M000000000000000000N
032019111259026000063001TÁlvaro Patricio          Jaque                    Jiménez                  M000000000000000000N
032019111259016000085001TMiquel Àngel             Balao                    Garcia                   M000000000000000000N
032019111259017000085002TGemma                    Batalla                  Casanovas                F000000000000000000N
032019111259018000085003TJosé                     Reñé                     Porté                    M000000000000000000N
032019111259007000090001TVictor                   Orrit                    Ambrosio                 M000000000000000000N
032019111259008000090002TMontserrat               Parra                    Albà                     F000000000000000000N
032019111259009000090003TPasión-Gador             Romero                   Garcia                   F000000000000000000N
032019111259024000096001TOscar                    García                   Montes                   M000000000000000000N
032019111259023000101001TWilwardo Belisario       M'bande                  Naluanga                 M000000000000000000N
