031982101049003000005003TA.C. BLESA RODRIGUEZ                                                        000000000000000000S
031982101049017000005017TJ. MORENO HUERTA                                                            000000000000000000N
031982101049020000005020TM.S. PIZARRO SANCHEZ                                                        000000000000000000N
031982101049009000015009TJ. FERNANDEZ PALACIOS                                                       000000000000000000N
031982101049024000015024TA. SOLER TURMO                                                              000000000000000000N
031982101049026000015026TJ.L.                     VICIANA                  VERA                      000000000000000000N
031982101049001000033001TA. AGUERO DE JUAN                                                           000000000000000000N
031982101049004000033004TJ. CAÑADAS ROBLES                                                           000000000000000000N
031982101049005000033005TR. CARRASCO FERNANDEZ                                                       000000000000000000N
031982101049015000038015TC.P. MARTI AMIGUET                                                          000000000000000000N
031982101049013000053013TJ. LIZARTE CALANDRIA                                                        000000000000000000N
031982101049021000053021TA. SANCHEZ CAÑADAS                                                          000000000000000000N
031982101049025000053025TJ.L. SUAREZ MUYOR                                                           000000000000000000N
031982101049008000069008TP. FERNANDEZ ALEMAN                                                         000000000000000000N
031982101049011000071011TL. GIL ANDRES                                                               000000000000000000N
031982101049018000071018TF. NAVARRETE LOPEZ-COZAR                                                    000000000000000000N
031982101049019000071019TR. NOGUERAS LOPEZ                                                           000000000000000000N
031982101049002000072002TJ.M. BATLLES PANIAGUA                                                       000000000000000000S
031982101049010000072010TA. GARCIA TRIPIANA                                                          000000000000000000S
031982101049014000072014TE.J. LOPEZ MIRALLES                                                         000000000000000000S
031982101049012000080012TE.M. GREÑO MORLAN                                                           000000000000000000N
031982101049022000080022TF.A. SANCHEZ MANRIQUE                                                       000000000000000000N
031982101049023000080023TJ. SEGURA RODRIGUEZ                                                         000000000000000000N
031982101049006000081006TE. CONTRERAS ORTEGA                                                         000000000000000000N
031982101049007000081007TJ. FERNANDEZ ALEMAN                                                         000000000000000000N
031982101049016000081016TJ. MONTOYA APARICIO                                                         000000000000000000N
031982101119001000005001TM. ARIAS CAÑETE                                                             000000000000000000S
031982101119013000005013TM.M. GARCIA DE VEAS VAQUERO                                                 000000000000000000N
031982101119020000005020TJ.M. PEMAN DOMECQ                                                           000000000000000000N
031982101119003000015003TJ. BLASCO QUINTANA                                                          000000000000000000N
031982101119015000015015TM.A. GOMEZ CALZADO                                                          000000000000000000N
031982101119025000015025TS. SANCHEZ DE LA CAMPA RUIZ                                                 000000000000000000N
031982101119008000033008TB. DOMINGUEZ GOMEZ-PLANA                                                    000000000000000000N
031982101119010000033010TF.E. DUQUE BENITEZ                                                          000000000000000000N
031982101119029000033029TI. VILLAVERDE VALENCIA                                                      000000000000000000N
031982101119016000038016TM.F. HEREDIA CORONADO                                                       000000000000000000N
031982101119005000053005TM. CAMPOS VARELA                                                            000000000000000000N
031982101119021000053021TJ. PEÑALVER BAEZ                                                            000000000000000000N
031982101119022000053022TA. PEREA ESPAÑA                                                             000000000000000000N
031982101119024000069024TJ. ROMERO PAVON                                                             000000000000000000N
031982101119014000071014TJ. GARCIA VIDAL                                                             000000000000000000N
031982101119017000071017TA.L. JIMENEZ RODRIGUEZ                                                      000000000000000000N
031982101119026000071026TA. SANCHEZ FERRAJON                                                         000000000000000000N
031982101119002000072002TF. ARIAS SOLIS                                                              000000000000000000S
031982101119004000072004TE. CAAMAÑO BERNAL                                                           000000000000000000S
031982101119009000072009TJ.M. DUARTE CENDAN                                                          000000000000000000S
031982101119012000078012TA. GARCIA RODRIGUEZ                                                         000000000000000000N
031982101119018000078018TJ.M. LUCENA MARTINEZ                                                        000000000000000000N
031982101119019000078019TV.J. MAYOR SANCHEZ                                                          000000000000000000N
031982101119006000080006TA. CAÑERO BLANCOS                                                           000000000000000000N
031982101119011000080011TJ.A. FERNANDEZ FONCUBIERTA                                                  000000000000000000N
031982101119027000080027TM.A. SANCHEZ JORQUERA                                                       000000000000000000N
031982101119007000081007TM. CARMONA CUEVAS                                                           000000000000000000N
031982101119023000081023TJ.R. PEREZ DIAZ-ALERSI                                                      000000000000000000N
031982101119028000081028TJ.L. VILLAR CERON                                                           000000000000000000N
031982101149011000005011TL. HENS TIENDA                                                              000000000000000000S
031982101149021000005021TJ.M. MONTERO PEREZ BARQUERO                                                 000000000000000000N
031982101149025000005025TR. ROMERO CABEZAS                                                           000000000000000000N
031982101149009000015009TR. GONZALEZ MORADO                                                          000000000000000000N
031982101149018000015018TA. MARTINEZ VERA                                                            000000000000000000N
031982101149022000015022TA. MORAL MUÑOZ                                                              000000000000000000N
031982101149002000033002TP. ARIZA RIOBOO                                                             000000000000000000N
031982101149014000033014TA. LOPEZ GALAN                                                              000000000000000000N
031982101149020000033020TF. MOLINA PINEDA DE LAS INFANTAS                                            000000000000000000N
031982101149013000038013TA.M. LOLO MORO                                                              000000000000000000N
031982101149006000053006TF. CONTRERAS HERVAS                                                         000000000000000000N
031982101149024000053024TD. ORTIZ DELGADO                                                            000000000000000000N
031982101149026000053026TJ. DE LA C. RUZ CANTILLO                                                    000000000000000000N
031982101149012000069012TA. JIMENEZ CARMONA                                                          000000000000000000N
031982101149004000071004TJ. AUMENTE BAENA                                                            000000000000000000N
031982101149007000071007TR. CHACON VILLAFRANCA                                                       000000000000000000N
031982101149023000071023TJ. MURILLO RUIZ                                                             000000000000000000N
031982101149001000072001TD. ALONSO COLACIOS                                                          000000000000000000S
031982101149017000072017TJ. MARTINEZ BJORKMAN                                                        000000000000000000S
031982101149028000072028TR. VALLEJO RODRIGUEZ                                                        000000000000000000S
031982101149015000078015TJ.C. LOPEZ GONZALEZ                                                         000000000000000000N
031982101149016000078016TJ.J. LOSADA DEL POZO                                                        000000000000000000N
031982101149029000078029TE. VAZQUEZ PEDRAZA                                                          000000000000000000N
031982101149003000080003TJ. ARROYO JIMENEZ                                                           000000000000000000N
031982101149010000080010TM.J. GONZALEZ DE CASTEJON MORENO                                            000000000000000000N
031982101149019000080019TJ. MILLAN ALVAREZ                                                           000000000000000000N
031982101149005000081005TJ. CARBONERO GARCIA                                                         000000000000000000N
031982101149008000081008TJ. GALERA GONZALEZ                                                          000000000000000000N
031982101149027000081027TF. SILLERO DE LA ROSA                                                       000000000000000000N
031982101189008000005008TL. CASASECA NAVAS                                                           000000000000000000N
031982101189011000005011TJ.G. DIAZ BERBEL                                                            000000000000000000S
031982101189021000005021TF. LUNA SILES                                                               000000000000000000N
031982101189004000015004TE. BERNARDEZ CERNUDA                                                        000000000000000000N
031982101189025000015025TJ. MORENO CUESTA                                                            000000000000000000N
031982101189028000015028TJ. OLORIZ SAEZ                                                              000000000000000000N
031982101189003000019003TF. AVILES UTRILLA                                                           000000000000000000N
031982101189012000030012TA. DIAZ SANCHEZ                                                             000000000000000000N
031982101189017000030017TJ.M. GIL CORRAL                                                             000000000000000000N
031982101189026000030026TJ.I. MORENO GOMEZ                                                           000000000000000000N
031982101189023000031023TC. MARTIN MENDOZA                                                           000000000000000000N
031982101189024000031024TM. MEGIAS MUÑOZ                                                             000000000000000000N
031982101189031000031031TD. PEREZ TEJERO                                                             000000000000000000N
031982101189014000033014TI. GARCIA-GRANERO FERNANDEZ                                                 000000000000000000N
031982101189020000033020TJ. LINARES POVEDA                                                           000000000000000000N
031982101189027000033027TF. NOGUERAS LOPEZ                                                           000000000000000000N
031982101189002000038002TF. ARIAS MUÑOZ                                                              000000000000000000N
031982101189001000047001TE. ALVAREZ COBOS                                                            000000000000000000N
031982101189018000047018TR.A. HERNANDEZ ALMAGRO                                                      000000000000000000N
031982101189036000047036TF. VILCHEZ QUILES                                                           000000000000000000N
031982101189016000053016TA. GARCIA LARIOS                                                            000000000000000000N
031982101189022000053022TJ.M. MACIAS ROMERO                                                          000000000000000000N
031982101189035000053035TA. RUIZ VALDIVIA                                                            000000000000000000N
031982101189030000069030TS. PEREZ FERNANDEZ                                                          000000000000000000N
031982101189006000071006TP. CACERES GARCIA                                                           000000000000000000N
031982101189019000071019TA. LEON FERNANDEZ                                                           000000000000000000N
031982101189033000071033TR. RODRIGUEZ RUIZ                                                           000000000000000000N
031982101189010000072010TJ. CUENCA DOBLADO                                                           000000000000000000S
031982101189013000072013TR. ESTRELLA PEDROLA                                                         000000000000000000S
031982101189015000072015TJ. GARCIA LADRON DE GUEVARA                                                 000000000000000000S
031982101189029000080029TF. PELAYO PELSMAEKER                                                        000000000000000000N
031982101189032000080032TJ. RODRIGUEZ GARRIDO                                                        000000000000000000N
031982101189034000080034TA. ROMERA ACOSTA                                                            000000000000000000N
031982101189005000081005TS. BOCANEGRA VELA                                                           000000000000000000N
031982101189007000081007TA. CASARES JIMENEZ                                                          000000000000000000N
031982101189009000081009TJ. DE CASTRO HITOS                                                          000000000000000000N
031982101219007000005007TM.A. DIAZ MANTIS                                                            000000000000000000S
031982101219013000005013TE. NARDIZ VIAL                                                              000000000000000000N
031982101219018000005018TC. ROMERO DEL RIO                                                           000000000000000000N
031982101219006000015006TA. DIAZ GOMEZ                                                               000000000000000000N
031982101219011000015011TJ.C. LAGARES FLORES                                                         000000000000000000N
031982101219012000015012TJ.M. MARTIN RIVERO                                                          000000000000000000N
031982101219002000019002TD. BARCENA DE LAS MUÑECAS                                                   000000000000000000N
031982101219022000033022TJ.M. VIDES LOPEZ                                                            000000000000000000N
031982101219020000038020TA. RUIZ JIMENEZ                                                             000000000000000000N
031982101219001000053001TJ. ARTEAGA JARAMILLO                                                        000000000000000000N
031982101219003000053003TD.M. CALERO BERNAL                                                          000000000000000000N
031982101219019000053019TM. ROMERO DEL TORO                                                          000000000000000000N
031982101219016000069016TJ.M. PEREIRA RASCO                                                          000000000000000000N
031982101219004000071004TJ. CATALAN ROMERO                                                           000000000000000000N
031982101219005000071005TMARIA D. CUCALA FEU                                                         000000000000000000N
031982101219014000071014TF. NAVARRO DE LA PEÑA                                                       000000000000000000N
031982101219008000072008TA. GARCIA CORREA                                                            000000000000000000S
031982101219010000072010TJ. GONZALEZ GASTAÑAGA                                                       000000000000000000S
031982101219021000072021TT. SEISDEDOS MARTIN                                                         000000000000000000S
031982101219009000081009TJ.L. GARCIA PALACIOS                                                        000000000000000000N
031982101219015000081015TA. ORPEZ ASENSI                                                             000000000000000000N
031982101219017000081017TM. RAMIREZ BOTELLO                                                          000000000000000000N
031982101239002000005002TJ.B. DE LA TORRE                                                            000000000000000000S
031982101239004000005004TV. BLANCO GASPAR                                                            000000000000000000N
031982101239014000005014TJ. LOPEZ VIRGIL                                                             000000000000000000N
031982101239013000015013TJ. LATORRE GARCIA                                                           000000000000000000N
031982101239015000015015TJ. MARTINEZ RAMIREZ                                                         000000000000000000N
031982101239024000015024TJ.A. RAMOS PLAZA                                                            000000000000000000N
031982101239027000019027TJ. TORRES BLANQUE                                                           000000000000000000N
031982101239008000031008TJ. GUADALBERTO COBO RODRIGUEZ                                               000000000000000000N
031982101239020000031020TJ. PASSAS UTRERA                                                            000000000000000000N
031982101239005000033005TC.A. BORJA HERRERA                                                          000000000000000000N
031982101239007000033007TM. COBO ORTA                                                                000000000000000000N
031982101239016000033016TA. MARTOS SANCHEZ                                                           000000000000000000N
031982101239001000047001TJ.L. ALONSO VIÑEGLA                                                         000000000000000000N
031982101239009000047009TJ.A. CHUVIECO CABRERA                                                       000000000000000000N
031982101239019000047019TC. MORALES MOYA                                                             000000000000000000N
031982101239022000050022TL. RAMIREZ PLAZA                                                            000000000000000000N
031982101239026000050026TF. SANCHIS ALBIÑANA                                                         000000000000000000N
031982101239017000053017TM. MOLINOS MOLINOS                                                          000000000000000000N
031982101239025000053025TM. RODRIGUEZ GARCIA                                                         000000000000000000N
031982101239028000053028TA. VICENTE FERNANDEZ                                                        000000000000000000N
031982101239003000071003TP. BELINCHON SARMIENTO                                                      000000000000000000N
031982101239010000071010TA. GAMEZ GONZALEZ                                                           000000000000000000N
031982101239012000071012TT. JIMENEZ GODOY                                                            000000000000000000N
031982101239006000072006TM. COBO MARTIN                                                              000000000000000000S
031982101239011000072011TF. GARCIA VICO                                                              000000000000000000S
031982101239029000072029TJ. ZARRIAS JAREÑO                                                           000000000000000000S
031982101239018000081018TM. MORALEDA PEREZ                                                           000000000000000000N
031982101239021000081021TM. PEREZ LUQUE                                                              000000000000000000N
031982101239023000081023TJ. RAMOS MANZANO                                                            000000000000000000N
031982101299018000005018TJ. JIMENEZ HIDALGO                                                          000000000000000000S
031982101299020000005020TJ.S. MARTIN RUIZ                                                            000000000000000000N
031982101299031000005031TA. SOUVIRON UTRERA                                                          000000000000000000N
031982101299007000015007TE. BLANCO DE BRIONES                                                        000000000000000000N
031982101299010000015010TR.M. DE LA CRUZ MARTIN                                                      000000000000000000N
031982101299026000015026TB.J. RODILES-SANMIGUEL PARDO                                                000000000000000000N
031982101299028000019028TF. SANCHEZ DEL ALAMO MIRANDA                                                000000000000000000N
031982101299012000031012TJ.J. DIEGO BARQUIN                                                          000000000000000000N
031982101299016000031016TJ.A. HERRERA MARIN                                                          000000000000000000N
031982101299019000031019TJ. LASERNA MATEOS                                                           000000000000000000N
031982101299001000033001TMARIA P. ACCINO DOMINGUEZ                                                   000000000000000000N
031982101299008000033008TF. BRAVO GOMEZ                                                              000000000000000000N
031982101299022000039022TI. NOGUEIRA PASCUAL                                                         000000000000000000N
031982101299002000047002TA. AVILA PALACIOS                                                           000000000000000000N
031982101299023000047023TJ. ORTIZ CHECA                                                              000000000000000000N
031982101299033000047033TJ. TORRES BUSTAMANTE                                                        000000000000000000N
031982101299003000053003TM. BAENA LOZANO                                                             000000000000000000N
031982101299009000053009TJ.J. CAÑAS NAVARRO                                                          000000000000000000N
031982101299030000053030TM. SANCHEZ VICIOSO                                                          000000000000000000N
031982101299032000056032TJ. TEJADA OCAÑA                                                             000000000000000000N
031982101299004000069004TA.A. BALBOA DIAZ                                                            000000000000000000N
031982101299011000069011TA. CUEVAS GONZALEZ                                                          000000000000000000N
031982101299024000069024TJ. QUERO BARRIONUEVO                                                        000000000000000000N
031982101299005000071005TM. BERENGUER PEREZ                                                          000000000000000000N
031982101299025000071025TL. RECUERDA MONTILLA                                                        000000000000000000N
031982101299027000071027TG. RODRIGUEZ ANDRADE                                                        000000000000000000N
031982101299006000072006TR.G. BERNAL SOTO                                                            000000000000000000S
031982101299013000072013TA. GARCIA DUARTE                                                            000000000000000000S
031982101299029000072029TJ. SANCHEZ BUENO                                                            000000000000000000S
031982101299014000080014TJ. GARCIA GOMEZ DE ARTEACHE                                                 000000000000000000N
031982101299015000081015TMARIA P. GREGORIO GONZALEZ                                                  000000000000000000N
031982101299017000081017TI.J. HUELIN VALLEJO                                                         000000000000000000N
031982101299021000081021TM. NARVAEZ DIAZ                                                             000000000000000000N
031982101419009000005009TL. FERNANDEZ FERNANDEZ-MADRID                                               000000000000000000S
031982101419016000005016TR. MENA BERNAL ROMERO                                                       000000000000000000N
031982101419030000005030TF. SANCHEZ-BLANCO PARODY                                                    000000000000000000N
031982101419010000015010TL. FERNANDEZ MARTIN                                                         000000000000000000N
031982101419025000015025TF. J. QUINTANO MUÑOZ                                                        000000000000000000N
031982101419033000015033TS. VALDENEBRO GARCIA POLAVIEJA                                              000000000000000000N
031982101419011000030011TJ. GARCIA-CERNUDA GALLARDO                                                  000000000000000000N
031982101419003000031003TJ. BENAVENTE FERNANDEZ                                                      000000000000000000N
031982101419022000031022TJ. R. MUÑOZ BENET                                                           000000000000000000N
031982101419024000031024TI. D. PISERRA GONZALEZ                                                      000000000000000000N
031982101419008000033008TJ. DOMINGUEZ BORRERO                                                        000000000000000000N
031982101419031000033031TF. SUTIL FRANCO                                                             000000000000000000N
031982101419034000033034TJ. VILLA GOMEZ                                                              000000000000000000N
031982101419012000038012TJ. M. GARCIA IBAÑEZ                                                         000000000000000000N
031982101419018000047018TA. MIJE PINEDA                                                              000000000000000000N
031982101419021000047021TJ. MOYA GONZALEZ                                                            000000000000000000N
031982101419023000047023TL. NAVA MINONDO                                                             000000000000000000N
031982101419005000053005TA. CABO MARIN                                                               000000000000000000N
031982101419015000053015TA. LEON GONZALEZ                                                            000000000000000000N
031982101419029000053029TF. SANCHEZ LEGRAN                                                           000000000000000000N
031982101419028000066028TN. SAEZ DE YBARRA Y FERNANDEZ DE A.                                         000000000000000000N
031982101419017000069017TR. MENDEZ RODRIGUEZ                                                         000000000000000000N
031982101419002000071002TJ. ALVAREZ-OSORIO BARRAU                                                    000000000000000000N
031982101419004000071004TJ. BOVIS BERMUDEZ                                                           000000000000000000N
031982101419027000071027TJ. L. RUIZ MORENO                                                           000000000000000000N
031982101419006000072006TJ. CABRERA BAZAN                                                            000000000000000000S
031982101419020000072020TF. MORENO FRANCO                                                            000000000000000000S
031982101419026000072026TA. M. RUIZ-TAGLES MORALES                                                   000000000000000000S
031982101419007000078007TJ. G. CASTRO LUACES                                                         000000000000000000N
031982101419013000078013TMARIA C. JIMENEZ AGUILAR                                                    000000000000000000N
031982101419032000078032TJ. URBANO SANCHEZ                                                           000000000000000000N
031982101419001000081001TE. ALES PEREZ                                                               000000000000000000N
031982101419014000081014TM. LAGUNA RODRIGUEZ                                                         000000000000000000N
031982101419019000081019TF. MONEDERO GIL                                                             000000000000000000N
031982101229002000006002TR. AINSA ESCARTIN                                                           000000000000000000S
031982101229012000006012TJ. SAN AGUSTIN FARLETE                                                      000000000000000000N
031982101229014000006014TR. SUSIN CASAS                                                              000000000000000000N
031982101229005000015005TMARIA A. DURAN ACED                                                         000000000000000000N
031982101229007000015007TJ.M. FERNANDEZ PUEYO                                                        000000000000000000N
031982101229009000015009TA. MANZANA SANZ                                                             000000000000000000N
031982101229008000033008TJ.M. IGLESIAS MINGORANCE                                                    000000000000000000N
031982101229001000052001TS.L. AGUDO GONZALEZ                                                         000000000000000000N
031982101229010000070010TF.J. NAGORE LAIN                                                            000000000000000000N
031982101229004000077004TE. BARINGO JORDAN                                                           000000000000000000S
031982101229006000077006TF. ELBOJ BROTO                                                              000000000000000000S
031982101229013000077013TM. SIERRA BARDAJI                                                           000000000000000000S
031982101229003000081003TA. BALLARIN MARCIAL                                                         000000000000000000N
031982101229011000081011TJ.L. ROMERO MARTINEZ                                                        000000000000000000N
031982101229015000081015TJ.I. TEJERA MIRO                                                            000000000000000000N
031982101449012000006012TM. MARQUES LOPEZ                                                            000000000000000000S
031982101449014000006014TA. OBON GAMBOD                                                              000000000000000000N
031982101449015000006015TJ. J. SANZ JARQUE                                                           000000000000000000N
031982101449002000015002TMARIA S. BELENGUER ESPALLARGAS                                              000000000000000000N
031982101449009000015009TA. GIMENO LAHOZ                                                             000000000000000000N
031982101449013000015013TJ. MARIA MOYA ULLDEMOLINS                                                   000000000000000000N
031982101449001000033001TF. ALCOBER FOZ                                                              000000000000000000N
031982101449004000033004TV. CARELA CANDIAL                                                           000000000000000000N
031982101449016000033016TA. ZAPATER CARON                                                            000000000000000000N
031982101449005000052005TC. R. CASTELLOT PRENDES                                                     000000000000000000N
031982101449006000077006TA. DE DIEGO CRIADO                                                          000000000000000000S
031982101449007000077007TR. FOZ DEL CACHO                                                            000000000000000000S
031982101449010000077010TI. GUIA MATEO                                                               000000000000000000S
031982101449003000081003TJ. A. BIEL RIVERA                                                           000000000000000000N
031982101449008000081008TJ. MARIA GARCIA MARTINEZ DE VELASCO                                         000000000000000000N
031982101449011000081011TM. MAGALLON CELMA                                                           000000000000000000N
031982101509006000006006TJ. A. BOLEA FORADADA                                                        000000000000000000S
031982101509010000006010TE. EIROA GARCIA                                                             000000000000000000N
031982101509011000006011TJ. GARCIA DELGADO                                                           000000000000000000N
031982101509001000015001TC. ABAD ROMEU                                                               000000000000000000N
031982101509002000015002TM. A. AGUAVIVA PEREZ                                                        000000000000000000N
031982101509012000015012TM. GARCIA LASO                                                              000000000000000000N
031982101509013000019013TJ. GRACIA VILLAR                                                            000000000000000000N
031982101509017000031017TM. M. JARABO GOMEZ                                                          000000000000000000N
031982101509019000031019TJ. A. MARTINEZ MEDRANO                                                      000000000000000000N
031982101509007000033007TA. BURBANO AZNAR                                                            000000000000000000N
031982101509014000033014TJ. GREGORIO SANMARTIN                                                       000000000000000000N
031982101509020000033020TM. RIVILLA AZCUNE                                                           000000000000000000N
031982101509005000052005TJ. BLASCO JAUREGUI                                                          000000000000000000N
031982101509008000052008TA. DE LAS CASAS GIL                                                         000000000000000000N
031982101509022000052022TL. YRACHE ESTEBAN                                                           000000000000000000N
031982101509003000077003TG. ARGUILE LAGUARTA                                                         000000000000000000S
031982101509004000077004TB. BAYONA AZNAR                                                             000000000000000000S
031982101509021000077021TF. L. VELILLA ROYO                                                          000000000000000000S
031982101509009000078009TJ. M. DOLADER VILLUENDAS                                                    000000000000000000N
031982101509015000078015TM. M. HERNANDEZ BUENO                                                       000000000000000000N
031982101509018000078018TN. MARTIN CUBERO                                                            000000000000000000N
031982101509016000081016TF. HERREIZ MURUZABAL                                                        000000000000000000N
031982101339001000005001TF. ALVAREZ-CASCOS FERNANDEZ                                                 000000000000000000S
031982101339007000005007TJ. MARIA CASIELLES AGUADE                                                   000000000000000000N
031982101339016000005016TG. FERNANDEZ VALDES                                                         000000000000000000N
031982101339002000015002TMARIA M. ALVAREZ SALDAÑA                                                    000000000000000000N
031982101339006000015006TJ. MARIA CALVO Y GARCIA                                                     000000000000000000N
031982101339023000015023TM. MAYOR LOPEZ                                                              000000000000000000N
031982101339017000019017TG. FRESNO SANCHEZ                                                           000000000000000000N
031982101339027000019027TJ. SEBASTIAN ARIAS                                                          000000000000000000N
031982101339030000019030TA. ZAPICO ZAPICO                                                            000000000000000000N
031982101339024000029024TL. MOLLEDA ALVAREZ                                                          000000000000000000N
031982101339003000031003TJ.A.I. BALBIN FERNANDEZ                                                     000000000000000000N
031982101339025000031025TA. RODRIGUEZ BLANCO                                                         000000000000000000N
031982101339029000031029TR. VALDES PANDO                                                             000000000000000000N
031982101339008000033008TE. DE CASO SANCHEZ-CARRASCOSA                                               000000000000000000N
031982101339009000033009TA. CUETOS GONZALEZ                                                          000000000000000000N
031982101339013000033013TH. FERNANDEZ FERNANDEZ                                                      000000000000000000N
031982101339018000055018TL. GONZALEZ ALVAREZ                                                         000000000000000000N
031982101339020000055020TG. IGLESIAS ARGUELLES                                                       000000000000000000N
031982101339028000055028TC. VALDES MENENDEZ                                                          000000000000000000N
031982101339015000069015TR. FERNANDEZ SOLIS                                                          000000000000000000N
031982101339010000077010TH. DIAZ DIAZ                                                                000000000000000000S
031982101339012000077012TR.L. FERNANDEZ ALVAREZ                                                      000000000000000000S
031982101339019000077019TJ.R. HERRERO MEREDIZ                                                        000000000000000000S
031982101339005000078005TJ.L. BARREIRO FERNANDEZ                                                     000000000000000000N
031982101339021000078021TR. LEON JIMENEZ                                                             000000000000000000N
031982101339026000078026TMARIA E. SANCHEZ ALVAREZ                                                    000000000000000000N
031982101339022000080022TJ.L. LOPEZ-SELA Y DIAZ FAES                                                 000000000000000000N
031982101339004000081004TF. BALLESTEROS VILLAR                                                       000000000000000000N
031982101339011000081011TR. FERNANDEZ ALONSO                                                         000000000000000000N
031982101339014000081014TR. FERNANDEZ MARTINEZ                                                       000000000000000000N
031982101071017000005017TJ. RIBAS DE REYNA                                                           000000000000000000S
031982101071021000005021TJ. VERGER POCOVI                                                            000000000000000000N
031982101071009000015009TR. ESTEBAN FABRA                                                            000000000000000000N
031982101071012000015012TJ. FUSTER LAREU                                                             000000000000000000N
031982101071010000023010TJ. FONT DARDER                                                              000000000000000000N
031982101071014000023014TJ. OBRADOR SOLER                                                            000000000000000000N
031982101071001000031001TJ.L. ALMAZAN COSTALES                                                       000000000000000000N
031982101071003000031003TA. ARDID SANCHEZ                                                            000000000000000000N
031982101071013000033013TF. GRALLA SANTANDREU                                                        000000000000000000N
031982101071020000033020TJ. SANCHEZ MONIS                                                            000000000000000000N
031982101071002000038002TM. ARAGO GASSIOT                                                            000000000000000000N
031982101071006000038006TL. BUADES CASTELL                                                           000000000000000000N
031982101071005000055005TF. BOSCH BAUZA                                                              000000000000000000N
031982101071008000055008TM. DOMENECH BESTARD                                                         000000000000000000N
031982101071015000076015TD. PONS PONS                                                                000000000000000000N
031982101071018000076018TL. RIGO PORTELL                                                             000000000000000000N
031982101071016000077016TA. RAMIS REBASSA                                                            000000000000000000S
031982101071019000077019TF. SANCHEZ-CUENCA MARTINEZ                                                  000000000000000000S
031982101071004000080004TM. BISQUERRA VILA                                                           000000000000000000N
031982101071007000080007TM. CAPLLONCH MUNTANER                                                       000000000000000000N
031982101071011000081011TA. FORCADES JUAN                                                            000000000000000000N
031982101071022000081022TJ. ZAFORTEZA CALVET                                                         000000000000000000N
031982101072003000005003TV. FLORIT ESCRIVA                                                           000000000000000000N
031982101072004000015004TO. JUAN BENEJAM                                                             000000000000000000N
031982101072001000031001TS. BARCELO BARCELO                                                          000000000000000000N
031982101072007000055007TS. SINTES ROSA                                                              000000000000000000N
031982101072005000076005TJ. MASCARO PONS                                                             000000000000000000N
031982101072008000077008TA. VILLALONGA RIUDAVETS                                                     000000000000000000S
031982101072002000081002TA. CASASNOVAS FRANCO                                                        000000000000000000N
031982101072006000088006TJ.M. QUINTANA PETRUS                                                        000000000000000000N
031982101073006000005006TE. RAMON FAJARNES                                                           000000000000000000S
031982101073007000015007TA. TUELLS JUAN                                                              000000000000000000N
031982101073003000031003TR.F. MARTIN GORDON                                                          000000000000000000N
031982101073004000055004TA. PLANELLS TUR                                                             000000000000000000N
031982101073002000077002TM. LLANOS LOZANO GUEVARA                                                    000000000000000000N
031982101073001000081001TV. FERRAZ YAGUE                                                             000000000000000000N
031982101073005000089005TJ.M. PUGET ACEBO                                                            000000000000000000N
031982101351006000001006TP. FALCON MACIAS                                                            000000000000000000N
031982101351012000005012TJ. MACIAS SANTANA                                                           000000000000000000N
031982101351016000005016TF. PELIGERO ESCUDERO                                                        000000000000000000S
031982101351009000013009TD. HERNANDEZ ROMERO                                                         000000000000000000N
031982101351014000013014TP. MONZON SUAREZ                                                            000000000000000000N
031982101351004000015004TA. CRUZ CABALLERO                                                           000000000000000000N
031982101351024000015024TJ.A. SANTOS MIÑON                                                           000000000000000000N
031982101351008000033008TJ.M. GUANCHEZ GUERRA                                                        000000000000000000N
031982101351021000033021TJ. RODRIGUEZ DOMINGUEZ                                                      000000000000000000N
031982101351023000038023TF.J. SANTANA ALVAREZ                                                        000000000000000000N
031982101351007000062007TA. FALERO BETHENCOURT                                                       000000000000000000N
031982101351015000062015TR. ORTEGA PEREZ                                                             000000000000000000N
031982101351002000064002TP. ALBERICH NAVARRO                                                         000000000000000000N
031982101351020000064020TB. PRINZ MACHIN                                                             000000000000000000N
031982101351003000069003TF. ALONSO ESTEVANEZ                                                         000000000000000000N
031982101351005000069005TR. DELGADO GARCIA                                                           000000000000000000N
031982101351017000069017TL. PEÑATE HENRIQUEZ                                                         000000000000000000N
031982101351025000069025TJ. VEGA YEDRA                                                               000000000000000000N
031982101351019000077019TF. PEREZ PEREZ                                                              000000000000000000S
031982101351022000077022TJ.M. RODRIGUEZ DORESTE                                                      000000000000000000S
031982101351011000078011TJ.L. LOPEZ ALVAREZ                                                          000000000000000000N
031982101351018000078018TG. DE SAN FELICIANO PEREZ PEÑA                                              000000000000000000N
031982101351001000081001TM. AGUIAR MARQUEZ                                                           000000000000000000N
031982101351013000081013TA. MARQUEZ FERNANDEZ                                                        000000000000000000N
031982101351010000085010TP. LEZCANO MONTALVO                                                         000000000000000000N
031982101352005000001005TJ. D. HERNANDEZ ALVAREZ                                                     000000000000000000N
031982101352004000005004TJ. FERRER PERDOMO                                                           000000000000000000N
031982101352003000015003TJ. DIAZ RIJO                                                                000000000000000000N
031982101352006000064006TC. A. HENRIQUEZ GAZTAÑONDO                                                  000000000000000000N
031982101352007000077007TJ. RAMIREZ CERDA                                                            000000000000000000S
031982101352001000081001TA. CABRERA BARRERA                                                          000000000000000000N
031982101352002000085002TJ. MARIA CURBELO FERNANDEZ                                                  000000000000000000N
031982101353004000005004TMARIA L. SAAVEDRA RUIZ                                                      000000000000000000N
031982101353003000077003TM. HERNANDEZ HIERRO                                                         000000000000000000N
031982101353002000081002TM. GONZALEZ GARCIA                                                          000000000000000000N
031982101353001000090001TM. CABRERA CABRERA                                                          000000000000000000S
031982101353005000091005TR. SANCHEZ HORMIGA                                                          000000000000000000N
031982101384003000001003TJ. ASCANIO GARCIA                                                           000000000000000000N
031982101384010000005010TA. I. GUIMERA GIL                                                           000000000000000000S
031982101384015000005015TA. MIRANDA HERNANDEZ                                                        000000000000000000N
031982101384004000015004TF. BERMUDEZ GONZALEZ                                                        000000000000000000N
031982101384011000015011TA. HERNANDEZ ABREU                                                          000000000000000000N
031982101384001000033001TO. ARMADA SABAU                                                             000000000000000000N
031982101384013000038013TM. A. MAGAÑA SANTOS                                                         000000000000000000N
031982101384006000064006TB. CABRERA RAMIREZ                                                          000000000000000000N
031982101384017000064017TA. PEREZ VOITURIEZ                                                          000000000000000000N
031982101384002000077002TA. DE ARMAS GARCIA                                                          000000000000000000S
031982101384008000077008TR. GARCIA ROJAS                                                             000000000000000000S
031982101384005000078005TJ. P. BRITO MESA                                                            000000000000000000N
031982101384012000078012TA. D. HERRERA IZQUIERDO                                                     000000000000000000N
031982101384016000078016TJ. A. MORALES DELGADO                                                       000000000000000000N
031982101384018000078018TG. M. DE LA ROSA HERNANDEZ                                                  000000000000000000N
031982101384014000081014TZ. MASCAREÑO ALEMAN                                                         000000000000000000N
031982101384019000081019TA. SORIANO BENITEZ DE LUGO                                                  000000000000000000N
031982101384007000085007TF. GARCIA LUIS                                                              000000000000000000N
031982101384009000085009TF. P. GONZALEZ MARTIN                                                       000000000000000000N
031982101385006000001006TA. A. REYES MEDINA                                                          000000000000000000N
031982101385004000005004TE. PERDIGON BENITEZ                                                         000000000000000000N
031982101385002000015002TA. M. HERNANDEZ PEREZ                                                       000000000000000000N
031982101385005000033005TI. MARIA PEREYRA-GARCIA RAMOS                                               000000000000000000N
031982101385003000077003TJ. A. MARTIN GOMEZ                                                          000000000000000000N
031982101385001000081001TA. A. CASTRO CORDOBEZ                                                       000000000000000000S
031982101386004000001004TC. PIÑERO ARTEAGA                                                           000000000000000000N
031982101386006000005006TJ. M. TEXEIRA CERVIA                                                        000000000000000000N
031982101386002000009002TC. LEON TRUJILLO                                                            000000000000000000N
031982101386003000015003TJ. M. PADILLA MIRANDA                                                       000000000000000000N
031982101386005000077005TR. RODRIGUEZ GARCIA                                                         000000000000000000N
031982101386001000081001TC. M. BENCOMO MENDOZA                                                       000000000000000000S
031982101387003000001003TA. AYALA FONTE                                                              000000000000000000N
031982101387006000005006TL. MORALES PEREZ                                                            000000000000000000N
031982101387001000015001TR. A. ALAMO PANIZO                                                          000000000000000000N
031982101387004000033004TR. MARTIN FEBLES CASTAÑEDA                                                  000000000000000000N
031982101387002000077002TJ. F. ARMAS PEREZ                                                           000000000000000000N
031982101387005000077005TE. HERNANDEZ GUTIERREZ                                                      000000000000000000N
031982101387007000081007TF. PADRON PADRON                                                            000000000000000000S
031982101399003000005003TA. CALZADA HERNANDEZ                                                        000000000000000000S
031982101399029000005029TF. SANTAMARIA VELASCO                                                       000000000000000000N
031982101399034000005034TE. ZUÑIGA PEREZ DEL MOLINO                                                  000000000000000000N
031982101399012000015012TF. FONSECA PIGAZO                                                           000000000000000000N
031982101399015000015015TM. GARRIDO MARTINEZ                                                         000000000000000000N
031982101399022000015022TE. S. RAJOY FEIJOO                                                          000000000000000000N
031982101399005000031005TE. DEL CASTILLO OYARBIDE                                                    000000000000000000N
031982101399008000031008TJ. ESCALANTE GALAN                                                          000000000000000000N
031982101399019000031019TJ. A. PARIZA CASTAÑOS                                                       000000000000000000N
031982101399004000033004TJ. A. CARRERA ROMERO                                                        000000000000000000N
031982101399006000033006TA. CRESPO TOCA                                                              000000000000000000N
031982101399025000033025TM. ROSINO HERRERO                                                           000000000000000000N
031982101399010000036010TR. FERNANDEZ ALONSO                                                         000000000000000000N
031982101399033000036033TM. VELEZ CALDERON                                                           000000000000000000N
031982101399030000038030TJ. SOLANA TORRE                                                             000000000000000000N
031982101399009000055009TA. ESCANDON VEGA                                                            000000000000000000N
031982101399024000055024TA. RODRIGUEZ DEL CAMPO                                                      000000000000000000N
031982101399026000055026TJ. A. RUIZ DIORREGO                                                         000000000000000000N
031982101399011000069011TP. FERNANDEZ JIMENEZ                                                        000000000000000000N
031982101399002000077002TJ. CABEZON ALONSO                                                           000000000000000000S
031982101399014000077014TM. GARCIA-OLIVA PEREZ                                                       000000000000000000S
031982101399017000077017TJ. GONZALEZ BEDOYA                                                          000000000000000000S
031982101399013000078013TJ. F. GARCIA CALLEJA                                                        000000000000000000N
031982101399021000078021TF. J. PEREZ IGLESIAS                                                        000000000000000000N
031982101399031000078031TA. T. SOLER SANCHEZ                                                         000000000000000000N
031982101399007000080007TA. ESCAGEDO CADELO                                                          000000000000000000N
031982101399020000080020TF. PARRIEGO SACRISTAN                                                       000000000000000000N
031982101399001000081001TR. BUENO FERNANDEZ                                                          000000000000000000N
031982101399016000081016TA. GONZALEZ ALVAREZ                                                         000000000000000000N
031982101399023000081023TJ. M. RIOS BERRAZUETA                                                       000000000000000000N
031982101399018000084018TM. HIGUERA CASTILLO                                                         000000000000000000N
031982101399028000084028TA. SAN MARTIN COLLANTES                                                     000000000000000000N
031982101399032000084032TP. J. VALLES GOMEZ                                                          000000000000000000N
031982101399027000092027TS. RUIZ MARTINEZ                                                            000000000000000000N
031982101029001000005001TJ. ALARCON MOLINA                                                           000000000000000000S
031982101029002000005002TM.J. ANDUJAR TOMAS                                                          000000000000000000N
031982101029020000005020TA. MARTINEZ-TEBAR MARTINEZ                                                  000000000000000000N
031982101029004000015004TA. BALDUEZA ARTEAGA                                                         000000000000000000N
031982101029017000015017TL. MARCOS MORENO                                                            000000000000000000N
031982101029027000015027TF. YAÑEZ SANCHEZ                                                            000000000000000000N
031982101029016000019016TR. MARCANO MAGUNACELAYA                                                     000000000000000000N
031982101029008000033008TG. GARCIA TRUEBA                                                            000000000000000000N
031982101029021000033021TA. MONTERO RUIZ                                                             000000000000000000N
031982101029024000033024TJ.J. PICAZO BERRUGA                                                         000000000000000000N
031982101029009000055009TJ. GOMEZ URREA                                                              000000000000000000N
031982101029012000055012TE. LOPEZ CARRASCO                                                           000000000000000000N
031982101029022000055022TF. MORCILLO ORTEGA                                                          000000000000000000N
031982101029005000069005TJ. CORTES DE VES                                                            000000000000000000N
031982101029006000069006TJ. DIAZ ALCOCEL                                                             000000000000000000N
031982101029007000077007TA. GALAN CANO                                                               000000000000000000S
031982101029011000077011TJ.D. IZQUIERDO COLLADO                                                      000000000000000000S
031982101029023000077023TA. OROZCO GOMEZ                                                             000000000000000000S
031982101029014000078014TM.C. LOPEZ RAMIREZ                                                          000000000000000000N
031982101029015000078015TJ.M. DE LA LLAVE GARCIA                                                     000000000000000000N
031982101029025000078025TM.E. RIZALDOS ARCHILES                                                      000000000000000000N
031982101029010000080010TP. GONZALEZ TOBARRA                                                         000000000000000000N
031982101029018000080018TT. MARIN FLORES                                                             000000000000000000N
031982101029026000080026TM.M. ROMERO LORENTE                                                         000000000000000000N
031982101029003000081003TL.F. ANGOSTO MADRID                                                         000000000000000000N
031982101029013000081013TJ.A. LOPEZ FUSTER                                                           000000000000000000N
031982101029019000081019TA.J. MARTINEZ RUIZ                                                          000000000000000000N
031982101139001000005001TJ.L. AGUILERA BERMUDEZ                                                      000000000000000000S
031982101139005000005005TF. CAÑIZARES DE LERA                                                        000000000000000000N
031982101139016000005016TJ.L. MORENO-MANZANARO RODRIGUEZ DE TEMBLEQUE                                000000000000000000N
031982101139008000015008TJ.M. FERNANDEZ DE CASTRO                                                    000000000000000000N
031982101139010000015010TJ. GOMEZ ANGEL                                                              000000000000000000N
031982101139014000015014TJ. LOPEZ-OSA DIAZ                                                           000000000000000000N
031982101139002000033002TJ. BAILLO PORLIER                                                           000000000000000000N
031982101139009000033009TF. GARCIA MERCADANTE                                                        000000000000000000N
031982101139018000033018TR. PEREA PEREA                                                              000000000000000000N
031982101139017000038017TA. NADAL FERNANDEZ                                                          000000000000000000N
031982101139013000055013TF. LOPEZ MONTERO                                                            000000000000000000N
031982101139015000055015TS.A. LOZANO SANCHEZ-CANO                                                    000000000000000000N
031982101139020000055020TN. RUBIO RUIZ                                                               000000000000000000N
031982101139003000077003TR. BORRAS SERRA                                                             000000000000000000S
031982101139007000077007TE. CASTRO PALOMARES                                                         000000000000000000S
031982101139021000077021TF. SANZ ALONSO                                                              000000000000000000S
031982101139006000078006TS. CASTELLANOS DE MARCOS                                                    000000000000000000N
031982101139011000078011TR. JIMENEZ RODRIGUEZ                                                        000000000000000000N
031982101139022000078022TM. SANZ PIRIT                                                               000000000000000000N
031982101139004000081004TC. CALATAYUD MALDONADO                                                      000000000000000000N
031982101139012000081012TA.J. LOPEZ-CASERO GARCIA                                                    000000000000000000N
031982101139019000081019TC. RAPOSO LLOBET                                                            000000000000000000N
031982101169001000005001TE. AGUDO CALLEJA                                                            000000000000000000S
031982101169008000005008TB. DOMINGUEZ LOPEZ                                                          000000000000000000N
031982101169010000005010TA. FERNANDEZ GARCIA                                                         000000000000000000N
031982101169014000015014TM. JARAMILLO CASTRO                                                         000000000000000000N
031982101169015000015015TM.P. MELERO CALLEJA                                                         000000000000000000N
031982101169021000015021TJ. TOVAR JIMENEZ                                                            000000000000000000N
031982101169006000033006TA. DE LA CRUZ SORIA                                                         000000000000000000N
031982101169012000033012TA. GARCIA HERNAIZ                                                           000000000000000000N
031982101169017000033017TB.F. MONTERO FERRIZ                                                         000000000000000000N
031982101169002000055002TE. BARRERA BEITIA                                                           000000000000000000N
031982101169004000055004TP. CORDOBA ANGUIX                                                           000000000000000000N
031982101169007000055007TP. DIEZ HERNANDO                                                            000000000000000000N
031982101169005000077005TJ. CORDOBA HUERTA                                                           000000000000000000S
031982101169013000077013TJ. GRIMALDOS GRIMALDOS                                                      000000000000000000S
031982101169016000077016TA. MIRANZO MARTINEZ                                                         000000000000000000S
031982101169003000080003TM.C. CARRILLO PICAS                                                         000000000000000000N
031982101169009000080009TN. ELORZA TRIGUERO                                                          000000000000000000N
031982101169019000080019TS. REDONDO RUBIO                                                            000000000000000000N
031982101169011000081011TA. GARCIA BARRIOS                                                           000000000000000000N
031982101169018000081018TC. MORO MORENO                                                              000000000000000000N
031982101169020000081020TA. RODRIGUEZ SAIZ                                                           000000000000000000N
031982101199016000005016TPAREDES GROSSO, J.M.                                                        000000000000000000N
031982101199020000005020TRUIZ RUIZ, J.I.                                                             000000000000000000S
031982101199028000005028TZAHONERO CELADA, A.                                                         000000000000000000N
031982101199012000015012TMARTIALAY MARTINEZ, J.A.                                                    000000000000000000N
031982101199026000015026TVERDA NUÑEZ-ARENAS, T.                                                      000000000000000000N
031982101199027000015027TVICENTI AGUADO, A.                                                          000000000000000000N
031982101199010000031010TLOZANO PLAZA, J.E.                                                          000000000000000000N
031982101199017000031017TPEREIRA DE LA GUARDIA, M.                                                   000000000000000000N
031982101199025000031025TVAAMONDE SILVA, C.                                                          000000000000000000N
031982101199006000033006THERNANDEZ RODRIGUEZ, F.J.                                                   000000000000000000N
031982101199013000033013TMATIAS SANCHEZ, J.A.                                                        000000000000000000N
031982101199015000033015TMIN DE CARDONA SANCHEZ, J.M.                                                000000000000000000N
031982101199018000038018TRODRIGUEZ FERNANDEZ, J.J.                                                   000000000000000000N
031982101199008000047008TJUBERIAS CORTES, G.                                                         000000000000000000N
031982101199001000055001TALVAREZ CANONIGA, M.                                                        000000000000000000N
031982101199009000055009TLOPEZ VAZQUEZ, A. MARIA                                                     000000000000000000N
031982101199021000055021TSANCHEZ TAPIZ, A.                                                           000000000000000000N
031982101199003000069003TDELGADO DURAN, R.                                                           000000000000000000N
031982101199007000069007TJADRAQUE VALLEJO, J.                                                        000000000000000000N
031982101199014000077014TDE MORA GRANADOS MARULL, R.                                                 000000000000000000S
031982101199022000077022TSOLANO RODRIGUEZ, F.J.                                                      000000000000000000S
031982101199024000077024TTRILLO HERNANDO, A.                                                         000000000000000000S
031982101199002000080002TCLEMENTE CALVO, R.                                                          000000000000000000N
031982101199011000080011TDE LUCAS ESTREMERA, B.                                                      000000000000000000N
031982101199023000080023TTARACENA MOLINA, J.                                                         000000000000000000N
031982101199004000081004TESTRINGANA MINGUEZ, J.                                                      000000000000000000N
031982101199005000081005TFERNANDEZ GALIANO-FERNANDEZ, A.                                             000000000000000000N
031982101199019000081019TROMAN RUIZ, F.                                                              000000000000000000N
031982101459018000005018TE. PRIETO CARRASCO                                                          000000000000000000S
031982101459019000005019TM. ROMERO MARTINEZ                                                          000000000000000000N
031982101459023000005023TJ. SUAREZ ALVAREZ                                                           000000000000000000N
031982101459003000015003TE. BRETAÑO GALVEZ-MEDINA                                                    000000000000000000N
031982101459006000015006TMARIA P. ESCRIBANO PEDERNAL                                                 000000000000000000N
031982101459024000015024TF. SUAREZ GRIJALBA                                                          000000000000000000N
031982101459022000019022TA. SERRANO SALAZAR                                                          000000000000000000N
031982101459002000031002TE. BERMEJO MARTIN                                                           000000000000000000N
031982101459004000031004TA. A. COMINERO Y DIAZ-HEREDERO                                              000000000000000000N
031982101459021000031021TJ. SERRANO MARTINEZ                                                         000000000000000000N
031982101459010000033010TJ. LABORDA MARTINEZ-POZO                                                    000000000000000000N
031982101459014000033014TJ. MONTERO Y GARCIA DE VALDIVIA                                             000000000000000000N
031982101459017000033017TW. PEREZ GOMEZ                                                              000000000000000000N
031982101459013000038013TF. J. MENDOZA Y VAQUERO                                                     000000000000000000N
031982101459009000055009TS. JUNQUERA FERNANDEZ                                                       000000000000000000N
031982101459012000055012TJ. M. MARTIN RODRIGUEZ                                                      000000000000000000N
031982101459015000055015TA. MORENO GOMEZ                                                             000000000000000000N
031982101459008000069008TA. GOMEZ DE ZAMORA GONZALEZ                                                 000000000000000000N
031982101459016000069016TJ. R. OTERO CANCELADA                                                       000000000000000000N
031982101459026000069026TI. L. VALENCIA MURCIA                                                       000000000000000000N
031982101459005000077005TM. L. DIAZ-MARTA PINILLA                                                    000000000000000000S
031982101459011000077011TE. LUJAN AGUDO                                                              000000000000000000S
031982101459020000077020TR. SANCHEZ CANDELAS                                                         000000000000000000S
031982101459001000081001TP. ANGULO TOLEDO                                                            000000000000000000N
031982101459007000081007TJ. L. GARCIA FERRERO                                                        000000000000000000N
031982101459025000081025TMARIA J. TORRRES FERNANDEZ                                                  000000000000000000N
031982101059014000005014TC. JARAMILLO RODRIGUEZ                                                      000000000000000000S
031982101059015000005015TR. MARQUEZ Y CANO                                                           000000000000000000S
031982101059017000005017TL. PEREZ PEREZ                                                              000000000000000000N
031982101059007000015007TM. CHAVES DIAZ                                                              000000000000000000N
031982101059008000015008TA.M. DORREGO GONZALEZ                                                       000000000000000000N
031982101059012000015012TF. GONZALEZ DE VEGA                                                         000000000000000000N
031982101059019000019019TD. SORANDO MANSILLA                                                         000000000000000000N
031982101059010000033010TA. GONZALEZ GARCIA                                                          000000000000000000N
031982101059011000033011TR. GONZALEZ GARCIA                                                          000000000000000000N
031982101059016000033016TL. MENENDEZ HERNANDEZ                                                       000000000000000000N
031982101059020000038020TM.B. SUAREZ ALVAREZ                                                         000000000000000000N
031982101059004000055004TM. CALLE CUSTODIO                                                           000000000000000000N
031982101059018000055018TC. REVIEJO HERNANDEZ                                                        000000000000000000N
031982101059021000055021TF. VELAYOS FRAILE                                                           000000000000000000N
031982101059001000077001TJ. ALDUDO SAEZ                                                              000000000000000000S
031982101059002000077002TN. ALVAREZ ALVAREZ                                                          000000000000000000S
031982101059013000077013TM. IGLESIAS ELVIRA                                                          000000000000000000N
031982101059005000080005TJ.R. CARRETERO MARQUEZ                                                      000000000000000000N
031982101059006000081006TL. CUESTA GIMENO                                                            000000000000000000N
031982101059009000081009TA. GARCIA ARROYO                                                            000000000000000000N
031982101059022000081022TA. ZAMORA GUTIERREZ                                                         000000000000000000N
031982101059003000093003TV. BOSQUE HITA                                                              000000000000000000N
031982101099001000005001TJ.M. ALVAREZ DE EULATE                                                      000000000000000000S
031982101099015000005015TV. MATEOS OTERO                                                             000000000000000000S
031982101099023000005023TA. DE LA SIERRA HERRERA                                                     000000000000000000S
031982101099009000015009TM. DEL HOYO AGUILERA                                                        000000000000000000N
031982101099016000015016TA.O. MURILLO SANTANA                                                        000000000000000000N
031982101099017000015017TA. OCIO COSTALES                                                            000000000000000000N
031982101099004000019004TA. CORBACHO PULIDO                                                          000000000000000000N
031982101099013000019013TL. MARIN SARABIA                                                            000000000000000000N
031982101099018000031018TC. PARRA MALLAINA                                                           000000000000000000N
031982101099020000033020TJ.L. PIZARRO RUIZ                                                           000000000000000000N
031982101099011000038011TJ.M. LANDEIRA AMARO                                                         000000000000000000N
031982101099002000055002TJ.F. BONILLA ENCINA                                                         000000000000000000N
031982101099014000055014TJ.E. MARTINEZ MIGUEL                                                        000000000000000000N
031982101099021000055021TP. PURAS GARCIA                                                             000000000000000000N
031982101099003000069003TM. CANTO SOLIS                                                              000000000000000000N
031982101099010000077010TJ.J. LABORDA MARTIN                                                         000000000000000000S
031982101099022000077022TA. RUBIO MARCOS                                                             000000000000000000N
031982101099024000077024TJ. SIMON ROMANILLOS                                                         000000000000000000N
031982101099005000080005TA. GAMARRA ALCALDE                                                          000000000000000000N
031982101099008000080008TJ.A. HERNANDEZ JIMENEZ                                                      000000000000000000N
031982101099019000080019TF. PASCUAL GARCIA                                                           000000000000000000N
031982101099006000081006TJ.M. GARCIA-VERDUGO CANDON                                                  000000000000000000N
031982101099007000081007TJ.A. GONZALEZ GARCIA                                                        000000000000000000N
031982101099012000081012TM. LOSA QUINTANA                                                            000000000000000000N
031982101249004000005004TCALDERON LLAMAS, J.                                                         000000000000000000S
031982101249009000005009TEGUIAGARAY MARTINEZ, J.                                                     000000000000000000N
031982101249019000005019TLOBO ASENJO, J.                                                             000000000000000000N
031982101249017000015017TGONZALEZ MARTINEZ, J.R.                                                     000000000000000000N
031982101249022000015022TOTERO AMADO, M.                                                             000000000000000000N
031982101249025000015025TSANCHEZ CEBALLOS, P.                                                        000000000000000000N
031982101249002000033002TBLANCO VIZOSO, J.                                                           000000000000000000N
031982101249008000033008TDE VALENZUELA DE PONTE, MARIA V.                                            000000000000000000N
031982101249012000038012TGARCIA CALVO RODRIGUEZ, L.F.                                                000000000000000000N
031982101249010000055010TFERNANDEZ ARIAS, A.                                                         000000000000000000N
031982101249018000055018TIGLESIAS RODRIGUEZ, J.L.                                                    000000000000000000N
031982101249027000055027TSEVILLANO MORENO, P.                                                        000000000000000000N
031982101249001000063001TALVAREZ FERNANDEZ, J.                                                       000000000000000000N
031982101249003000063003TCABAÑAS POMBO, A.                                                           000000000000000000N
031982101249024000063024TRODRIGUEZ RODRIGUEZ, J.                                                     000000000000000000N
031982101249014000068014TGARCIA MACIAS, J.                                                           000000000000000000N
031982101249016000068016TGARCIA PRIETO, O.                                                           000000000000000000N
031982101249023000068023TREBOLLAR VALLE, A.                                                          000000000000000000N
031982101249005000077005TCARRETERO RUBIO, J.                                                         000000000000000000S
031982101249006000077006TCASTRO URIA, E.                                                             000000000000000000S
031982101249015000077015TGARCIA MURIAS, M.                                                           000000000000000000S
031982101249013000078013TGARCIA GONZALEZ, J.                                                         000000000000000000N
031982101249021000078021TMORENO LERA, A.                                                             000000000000000000N
031982101249026000078026TSATURIO RIERA, MARIA O.                                                     000000000000000000N
031982101249007000081007TDE AZCARATE FLOREZ, J.                                                      000000000000000000N
031982101249011000081011TFERNANDEZ ARIAS, M.A.                                                       000000000000000000N
031982101249020000081020TMARTIN VILLA, E.                                                            000000000000000000N
031982101349002000005002TE. ALONSO DEL CAMPO                                                         000000000000000000N
031982101349008000005008TJ.C. GUERRA ZUNZUNEGUI                                                      000000000000000000S
031982101349010000005010TJ. MAÑUECO ALONSO                                                           000000000000000000N
031982101349005000015005TR. CATALINA MARTIN                                                          000000000000000000N
031982101349006000015006TC. ESCRIBANO DE GORDO                                                       000000000000000000N
031982101349013000015013TJ.A. MARTINEZ FERNANDEZ-CORMENZANA                                          000000000000000000N
031982101349001000033001TP. ALEGRE NIETO                                                             000000000000000000N
031982101349011000033011TR. MARIN SANMAMES                                                           000000000000000000N
031982101349016000038016TM.A. DE LA SERNA HERRERO                                                    000000000000000000N
031982101349007000055007TA. GARRIDO SANCHEZ                                                          000000000000000000N
031982101349015000055015TJ. RASCON QUIRCE                                                            000000000000000000N
031982101349018000055018TJ. VAZQUEZ MATARRANZ                                                        000000000000000000N
031982101349003000077003TA. BENITEZ MORO                                                             000000000000000000S
031982101349009000077009TJ. MAISO GONZALEZ                                                           000000000000000000S
031982101349017000077017TF.A. SOLANA PRELLEZO                                                        000000000000000000S
031982101349004000081004TG. CABERO FRANCO                                                            000000000000000000N
031982101349012000081012TL.F. MARTINEZ CUADRADO                                                      000000000000000000N
031982101349014000081014TF. PEREZ LOPEZ                                                              000000000000000000N
031982101379004000003004TR. DE VEGA BELLIDO                                                          000000000000000000N
031982101379005000003005TJ. DEL POZO PRIETO                                                          000000000000000000N
031982101379021000003021TI. SANCHEZ CORRAL                                                           000000000000000000N
031982101379007000005007TJ. ESPERABE DE ARTEAGA                                                      000000000000000000N
031982101379009000005009TF. GIL NIETO                                                                000000000000000000S
031982101379015000005015TM. MARTIN MARTIN                                                            000000000000000000N
031982101379003000015003TJ. M. DE LUIS ESTEBAN                                                       000000000000000000N
031982101379012000015012TE. HERMOSA FINAMOR                                                          000000000000000000N
031982101379013000015013TL. JIMENEZ DIAZ                                                             000000000000000000N
031982101379010000031010TS. GOMEZ TRAPERO                                                            000000000000000000N
031982101379022000031022TJ. SANCHEZ GONZALEZ                                                         000000000000000000N
031982101379001000038001TA. CABIQUETA SAN MIGUEL                                                     000000000000000000N
031982101379016000055016TJ. MATEOS MONTERO                                                           000000000000000000N
031982101379017000055017TJ. NUÑEZ LARRAZ                                                             000000000000000000N
031982101379023000055023TA. TIO SANCHEZ                                                              000000000000000000N
031982101379002000077002TM. CID CEBRIAN                                                              000000000000000000S
031982101379011000077011TJ. L. GONZALEZ MARCOS                                                       000000000000000000S
031982101379020000077020TM. QUINTANILLA FISAC                                                        000000000000000000S
031982101379018000080018TANA MARIA PABLOS REGUEIRO                                                   000000000000000000N
031982101379006000081006TM. DELGADO SANCHEZ-ARJONA                                                   000000000000000000N
031982101379008000081008TV. GARCIA TABERNERO ORIVE                                                   000000000000000000N
031982101379014000081014TJ. MARTIN GOMEZ                                                             000000000000000000N
031982101379019000092019TMARIA C. PUENTE ALBALA                                                      000000000000000000N
031982101409008000005008TP. A. HERNANDEZ ESCORIAL                                                    000000000000000000N
031982101409010000005010TJ. MARIA HERRERO GONZALEZ                                                   000000000000000000S
031982101409015000005015TA. REGUERA GUAJARDO                                                         000000000000000000N
031982101409006000015006TC. GIVAJA JIMENEZ                                                           000000000000000000N
031982101409011000015011TJ. MERINO DELGADO                                                           000000000000000000N
031982101409014000015014TL. PEREZ DE COSSIO                                                          000000000000000000N
031982101409005000033005TA. CRISTOBAL GESTI                                                          000000000000000000N
031982101409012000038012TF. MIQUEL RUIZ                                                              000000000000000000N
031982101409003000067003TI. AREVALO GALLEGO                                                          000000000000000000N
031982101409007000067007TC. GONZALEZ LUENGO                                                          000000000000000000N
031982101409009000067009TT. HERNANDEZ PEREZ                                                          000000000000000000N
031982101409001000077001TP. ALVAREZ DE FRUTOS                                                        000000000000000000S
031982101409004000077004TS. BALLESTEROS DE RODRIGO                                                   000000000000000000S
031982101409020000077020TM. A. TRAPERO GARCIA                                                        000000000000000000S
031982101409017000081017TL. SANCHEZ REUS                                                             000000000000000000N
031982101409018000081018TJ. A. SANZ CASTILLO                                                         000000000000000000N
031982101409019000081019TL. SANZ DE CASTRO                                                           000000000000000000N
031982101409016000092016TF. RODRIGUEZ MESA                                                           000000000000000000N
031982101409013000094013TC. MONTALVO PASSAS                                                          000000000000000000N
031982101409002000095002TA. ALVAREZ MATEO                                                            000000000000000000N
031982101429006000005006TF. S. EQUISOAIN JANARIZ                                                     000000000000000000N
031982101429008000005008TJ. MARIA GARCIA ROYO                                                        000000000000000000S
031982101429011000005011TA. HERNANDEZ GOMEZ                                                          000000000000000000N
031982101429002000015002TJ. BORRELL MESTRE                                                           000000000000000000N
031982101429013000015013TA. LORENZO FERNANDEZ                                                        000000000000000000N
031982101429021000015021TP. VIÑARAS JIMENEZ                                                          000000000000000000N
031982101429007000033007TMARIA LUISA GARCIA GARCIA                                                   000000000000000000N
031982101429009000033009TP. HERNANDEZ ASENSIO                                                        000000000000000000N
031982101429015000038015TJ. L. PEREZ HERRERO                                                         000000000000000000N
031982101429001000055001TP. ALONSO CABRERIZO                                                         000000000000000000N
031982101429012000055012TG. HERRERO BALSA                                                            000000000000000000N
031982101429017000055017TJ. C. RUIZ HORNILLOS                                                        000000000000000000N
031982101429020000055020TM. VICENTE GARCIA                                                           000000000000000000N
031982101429004000077004TJ. CASCANTE CABRERIZO                                                       000000000000000000S
031982101429010000077010TC. HERNANDEZ GIL                                                            000000000000000000S
031982101429014000077014TJ. PANCORBO AYUSO                                                           000000000000000000N
031982101429016000081016TJ. POSADA MORENO                                                            000000000000000000N
031982101429018000081018TJ. I. SAENZ-DIEZ DE LA C.                                                   000000000000000000N
031982101429019000081019TV. VELASCO BUENO                                                            000000000000000000N
031982101429005000096005TR. CERCOS PEREZ                                                             000000000000000000S
031982101429003000097003TF. CARAZO HERNANDEZ                                                         000000000000000000N
031982101479007000005007TCUETO SESMERO, J.                                                           000000000000000000S
031982101479010000005010TDE LOS MOZOS DE LOS MOZOS, J. L.                                            000000000000000000N
031982101479027000005027TSENENT PEREZ, S.                                                            000000000000000000N
031982101479009000015009TDE CASTRO ANTOLIN, M. L.                                                    000000000000000000N
031982101479012000015012TGONZALEZ MAESTRO, L. A.                                                     000000000000000000N
031982101479016000015016THERNANDEZ DEL PINO, J. M.                                                   000000000000000000N
031982101479014000031014TGUTIERREZ DEL CASTILLO, F.                                                  000000000000000000N
031982101479017000031017TJUAN GARCIA, L.                                                             000000000000000000N
031982101479019000031019TMARTINEZ LORENZO, J. D.                                                     000000000000000000N
031982101479002000033002TARTIGAS ROSON, L. C.                                                        000000000000000000N
031982101479025000033025TFUENTES DE LA CALLE, T.                                                     000000000000000000N
031982101479028000033028TVELASCO RODRIGUEZ, M.                                                       000000000000000000N
031982101479022000038022TNIETO SAINZ, J.                                                             000000000000000000N
031982101479005000055005TCALVO RUIZ, F.                                                              000000000000000000N
031982101479015000055015THERMOSO ARRANZ, J. J. E.                                                    000000000000000000N
031982101479023000055023TNOGUEIRA GORDALIZA, C.                                                      000000000000000000N
031982101479024000067024TPEREZ SANCHEZ, F.                                                           000000000000000000N
031982101479003000069003TBERROCAL DEL BRIO, M.                                                       000000000000000000N
031982101479026000069026TSEBAL DIEZ, J.                                                              000000000000000000N
031982101479001000077001TAREVALO SANTIAGO, J. A.                                                     000000000000000000S
031982101479008000077008TDELGADO MORAIS, MARIA C.                                                    000000000000000000S
031982101479021000077021TNALDA GARCIA, J. C.                                                         000000000000000000S
031982101479011000078011TFERNANDEZ FERRARI, A.                                                       000000000000000000N
031982101479013000078013TGORDON NUEVO, B. MARIA                                                      000000000000000000N
031982101479020000078020TMONREAL HURTADO, A.                                                         000000000000000000N
031982101479004000081004TCABALLERO CABEZAS, T.                                                       000000000000000000N
031982101479006000081006TCEREZO YUSTE, F.                                                            000000000000000000N
031982101479018000081018TMARTIN DESCALZO, A.                                                         000000000000000000N
031982101499017000005017TS. MISOL DE LA IGLESIA                                                      000000000000000000S
031982101499020000005020TC. PINILLA TURIÑO                                                           000000000000000000S
031982101499021000005021TS. SANTIAGO FERNANDEZ                                                       000000000000000000N
031982101499011000015011TJ. L. R. GONZALEZ VALLVE                                                    000000000000000000N
031982101499023000015023TJ. A. TEBAR MASSO                                                           000000000000000000N
031982101499001000033001TL. F. ALONSO LORENZO                                                        000000000000000000N
031982101499022000033022TJ. SEDANO PEREZ                                                             000000000000000000N
031982101499004000038004TP. BRAÑA RODRIGUEZ                                                          000000000000000000N
031982101499008000055008TA. GARCIA DOMINGUEZ                                                         000000000000000000N
031982101499009000055009TF. GARCIA PEREZ                                                             000000000000000000N
031982101499006000068006TR. CASAS CABALLERO                                                          000000000000000000N
031982101499010000068010TG. GOMEZ GARCIA                                                             000000000000000000N
031982101499012000068012TMARIA I. J. GUTIERREZ CARBAJAL                                              000000000000000000N
031982101499002000069002TM. ALONSO NOVO                                                              000000000000000000N
031982101499005000069005TJ. MARIA CALVO BARRIOS                                                      000000000000000000N
031982101499007000069007TR. GANCEDO CARBALLO                                                         000000000000000000N
031982101499013000077013TA. LUIS CALVO                                                               000000000000000000S
031982101499014000077014TD. MAÑANES MARQUES                                                          000000000000000000S
031982101499019000077019TJ. PEDRERO ALONSO                                                           000000000000000000N
031982101499018000080018TR. PABLOS REGUEIRO                                                          000000000000000000N
031982101499003000081003TJ. ARGOTE ALARCON                                                           000000000000000000N
031982101499015000081015TV. MARTIN FIZ                                                               000000000000000000N
031982101499016000081016TV. MARTIN ROLLON                                                            000000000000000000N
031982101089010000005010TJ. BOMBI CALBETO                                                            000000000000000000N
031982101089017000005017TP. COSTA SANJURJO                                                           000000000000000000N
031982101089040000005040TE. ROIG BURRULL                                                             000000000000000000N
031982101089027000014027TB. LOPEZ-PINTO RUIZ                                                         000000000000000000N
031982101089043000014043TJ.A. SAN MARTIN PARAMO                                                      000000000000000000N
031982101089049000014049TL. VIDAL-RIBAS TORRES                                                       000000000000000000N
031982101089026000015026TR. LOPEZ LOPEZ                                                              000000000000000000N
031982101089031000015031TJ. MARTIN TORIBIO                                                           000000000000000000N
031982101089046000015046TJ.M. VALON CUNILLERA                                                        000000000000000000N
031982101089013000016013TN. CASALS PEREZ                                                             000000000000000000N
031982101089014000016014TM. CERVERA RODON                                                            000000000000000000N
031982101089034000016034TM.N. MURGUIALDAY BAQUEDANO                                                  000000000000000000N
031982101089002000031002TF. ALCOLEA ALTEMIR                                                          000000000000000000N
031982101089016000031016TE. CLARA DIAZ                                                               000000000000000000N
031982101089023000031023TC. JIMENEZ SANCHEZ                                                          000000000000000000N
031982101089024000033024TO. SALVADOR LAHOZ ALVARO                                                    000000000000000000N
031982101089047000033047TF. DE A. VECILLA DE LAS HERAS                                               000000000000000000N
031982101089048000033048TP. VIAPLANA RIERA                                                           000000000000000000N
031982101089008000048008TA. LIARTIS-GENER (TISNER)                                                   000000000000000000N
031982101089004000054004TA. ALVAREZ MENDEZ (A. ALVAREZ SOLIS)                                        000000000000000000N
031982101089006000054006TP. ARDIACA MARTI                                                            000000000000000000N
031982101089041000054041TL. ROMERO HUERTAS                                                           000000000000000000N
031982101089003000069003TA. ALVAREZ CABEZA                                                           000000000000000000N
031982101089025000069025TM. LEONAT PORTOLES                                                          000000000000000000N
031982101089044000069044TJ.P. SANCHEZ MARIN                                                          000000000000000000N
031982101089005000073005TJ. ANDREU I ABELLO                                                          000000000000000000S
031982101089015000073015TA. CIRICI I PELLICER                                                        000000000000000000S
031982101089030000073030TJ. MARAGALL I NOBLE                                                         000000000000000000S
031982101089028000078028TL. LOPEZ RUBIA                                                              000000000000000000N
