041999061460250000001013TRAFAEL RIPOLL NAVARRO                                                      M 00000000 00000000S
041999061460250000001014TENRIQUE PEREZ BOADA                                                        M 00000000 00000000S
041999061460250000001015TVICENTE JOSE JURADO SORIANO                                                M 00000000 00000000S
041999061460250000001016TRAMON ISIDRO SANCHIS MANGRIÑAN                                             M 00000000 00000000S
041999061460250000001017TJUAN VICENTE JURADO SORIANO                                                M 00000000 00000000S
041999061460250000001018TALFONSO NOVO BELENGUER                                                     M 00000000 00000000S
041999061460250000001019TEMILIO DEL TORO GALVEZ                                                     M 00000000 00000000S
041999061460250000001020TBEATRIZ SIMON CASTELLETS                                                   F 00000000 00000000S
041999061460250000002001TANA NOGUERA MONTAGUD                                                       F 00000000 00000000S
041999061460250000002002TJOSE LUIS ABALOS MECO                                                      M 00000000 00000000S
041999061460250000002003TRAFAEL RUBIO MARTINEZ                                                      M 00000000 00000000S
041999061460250000002004TMANUEL MORET GOMEZ                                                         M 00000000 00000000S
041999061460250000002005TVICENTA LLORIS VICARIA                                                     F 00000000 00000000S
041999061460250000002006TJUAN SOTO RAMIREZ                                                          M 00000000 00000000S
041999061460250000002007TJOSE SELLES VIDAL                                                          M 00000000 00000000S
041999061460250000002008TCARMEN ESTELLES PALANCA                                                    F 00000000 00000000S
041999061460250000002009TMARIA CONSUELO ORIAS GOZALVO                                               F 00000000 00000000S
041999061460250000002010TRICARDO OLMOS MARI                                                         M 00000000 00000000S
041999061460250000002011TPABLO GIL LOPEZ                                                            M 00000000 00000000S
041999061460250000160001TANTONIO MONTALBAN GAMEZ                                                    M 00000000 00000000S
041999061460250000160002TMANUEL IBAÑEZ MANZANO                                                      M 00000000 00000000S
041999061510001000001001TJESUS CAYETANO FORTES RAMOS                                                M 00000000 00000000S
041999061510001000001002TALFONSO CONEJO RABANEDA                                                    M 00000000 00000000S
041999061510001000001003TCRISTINA MARIA BERNAL DURAN                                                F 00000000 00000000S
041999061510001000001004TISIDRO BERNABE HURTADO DE MENDOZA LOPEZ                                    M 00000000 00000000S
041999061510001000001005TJUAN JESUS VIVAS LARA                                                      M 00000000 00000000S
041999061510001000001006TREGINA MARTA MARIA PIZONES SANCHEZ                                         F 00000000 00000000S
041999061510001000001007TEMILIO CARREIRA RUIZ                                                       M 00000000 00000000S
041999061510001000001008TADELAIDA ALVAREZ RODRIGUEZ                                                 F 00000000 00000000S
041999061510001000002001TFRANCISCO ALBERTO NUÑEZ THOME                                              M 00000000 00000000S
041999061510001000002002TMARIA DEL CARMEN CARRERA FUENTES                                           F 00000000 00000000S
041999061510001000020001TANTONIO SAMPIETRO CASARROMANA                                              M 00000000 00000000S
041999061510001000020002TMANUEL DE LA RUBIA NIETO                                                   M 00000000 00000000S
041999061510001000020003TJUAN CARLOS RIOS CLARO                                                     M 00000000 00000000S
041999061510001000020004TANA MARIA FERNANDEZ BLANCO                                                 F 00000000 00000000S
041999061510001000020005TJESUS SIMARRO MARIN                                                        M 00000000 00000000S
041999061510001000020006TJULIO OSTALE BLANCO                                                        M 00000000 00000000S
041999061510001000020007TDILIP ARJANDAS DARYANANI                                                   M 00000000 00000000S
041999061510001000020008TAURELIO MATA PADILLA                                                       M 00000000 00000000S
041999061510001000020009TJUAN JOSE ROSALES FERNANDEZ                                                M 00000000 00000000S
041999061510001000020010TOLGA GLIANO MENDOZA                                                        F 00000000 00000000S
041999061510001000020011TVICENTE FRANCISCO OLIVER GAYTAN DE AYALA                                   M 00000000 00000000S
041999061510001000020012TFRANCISCO TORRES CANTERO                                                   M 00000000 00000000S
041999061510001000853001TMUSTAFA MIZZIAN AMAR                                                       M 00000000 00000000S
041999061510001000853002TMOHAMED MOHAMED CHAIB                                                      M 00000000 00000000S
041999061510001000853003TABDELHAKIM ABDESELAM AL LAL                                                M 00000000 00000000S
041999061520001000002001TROMAN DOBAÑO MOURIN                                                        M 00000000 00000000S
041999061520001000002002TMALIKA MOHAMED BUSSIAN                                                     F 00000000 00000000S
041999061520001000020001TCRISPIN LOZANO MUÑOZ                                                       M 00000000 00000000S
041999061520001000020002TDAVID LUCIA CALLEJERO                                                      M 00000000 00000000S
041999061520001000020003TFRANCISCO DE ASCANIO DE LA VEGA                                            M 00000000 00000000S
041999061520001000020004TFRANCISCO SUAREZ REYES                                                     M 00000000 00000000S
041999061520001000020005TJUAN ANTONIO ZARZA RODRIGUEZ                                               M 00000000 00000000S
041999061520001000020006TMARIA DEL CARMEN GARCIA MIRANDA                                            F 00000000 00000000S
041999061520001000020007TJOSE MARIA BENITEZ MELUL                                                   M 00000000 00000000S
041999061520001001422001TIGNACIO VELAZQUEZ RIVERA                                                   M 00000000 00000000S
041999061520001001422002TFRANCISCO JAVIERE MARTINEZ MOREAL                                          M 00000000 00000000S
041999061520001001422003TISABEL QUESADA VAZQUEZ                                                     F 00000000 00000000S
041999061520001001422004TGUILLERMO FRIAS BARRERA                                                    M 00000000 00000000S
041999061520001001422005TERNESTO RODRIGUEZ MUÑOZ                                                    M 00000000 00000000S
041999061520001002068001TJUAN JOSE IMBRODA ORTIZ                                                    M 00000000 00000000S
041999061520001002068002TDANIEL CONESA MINGUEZ                                                      M 00000000 00000000S
041999061520001002068003TINES URDIALES MORENO                                                       F 00000000 00000000S
041999061520001002069001TENRIQUE PALACIOS HERNANDEZ                                                 M 00000000 00000000S
041999061520001002069002TFRANCISCO ROBLES FERRON                                                    M 00000000 00000000S
041999061520001002069003TDUNIA ABDELAZIZ UARIACHI                                                   F 00000000 00000000S
041999061520001002071001TMUSTAFA HAMED MOH-MOHAMED                                                  M 00000000 00000000S
041999061520001002071002TABDELHAMID MOHAMED HAMMU                                                   M 00000000 00000000S
041999061520001002071003TYAMAL MOHAMED MOHAMED                                                      M 00000000 00000000S
041999061520001002071004TANTONIO JOSE CALDUCH ANTOLINEZ                                             M 00000000 00000000S
041999061520001002071005TMARIA CECILIA GONZALEZ CASAS                                               F 00000000 00000000S
041999061010059000032005TCESAR ALONSO RIOCEREZO                                                     M 00000000 00000000N
041999061010059000032006TMARIA HENAR LOPEZ MARTIN                                                   F 00000000 00000000N
041999061010059000032007TRAUL MIGUEL PELLON                                                         M 00000000 00000000N
041999061010059000032008TJUAN JOSE GALAN MIGUEL                                                     M 00000000 00000000N
041999061010059000032009TEMILIA REVUELTA PEREZ                                                      F 00000000 00000000N
041999061010059000032010TSOCORRO MIGUEL PELLON                                                      F 00000000 00000000N
041999061010059000032011TMIGUEL SAN ESTEBAN LOPEZ                                                   M 00000000 00000000N
041999061010059000032012TJOSE LUIS GONZALEZ PEÑA                                                    M 00000000 00000000N
041999061010059000032013TSARA ISABEL GILA IZQUIERDO                                                 F 00000000 00000000N
041999061010059000032014TJOSE LUIS LOPEZ GOMEZ                                                      M 00000000 00000000N
041999061010059000032015TMARIA JESUS GONZALEZ LLORENTE                                              F 00000000 00000000N
041999061010059000032016TJUAN JOSE COLON FELISBERTO                                                 M 00000000 00000000N
041999061010059000032017TANTONIO GOMEZ DEL CERRO                                                    M 00000000 00000000N
041999061010059000032018TANA MARIA ORTIZ DE ZARATE FERNANDEZ                                        F 00000000 00000000N
041999061010059000032019TJOSE FRANCISCO BORRAS GUMIEL                                               M 00000000 00000000N
041999061010059000032020TISABEL MORAL ESTEVEZ                                                       F 00000000 00000000N
041999061010059000032021TANA MARIA CARRERA RUBIO                                                    F 00000000 00000000N
041999061010059000032022TAMAYA LARRAZA GAMINDE                                                      F 00000000 00000000N
041999061010059000032023TJESUS SOTILLO GARCIA                                                       M 00000000 00000000N
041999061010059000032024TRAFAEL OCAMPOS MORAL                                                       M 00000000 00000000N
041999061010059000032025TADOLFO BUENO GIL                                                           M 00000000 00000000N
041999061010059000032026TVICTOR DIEGO GOMEZ GOMEZ                                                   M 00000000 00000000N
041999061010059000032027TINES LUCAS PINTO                                                           F 00000000 00000000N
041999061010059000064001TMARIA JESUS AGUIRRE URIBE                                                  F 00000000 00000000S
041999061010059000064002TMANU ALLENDE ARIAS                                                         M 00000000 00000000S
041999061010059000064003TAVELINO FERNANDEZ DE QUINCOCES MENDIETA                                    M 00000000 00000000S
041999061010059000064004TARANTZA ZANARRUZABEITIA BELDARRAIN                                         F 00000000 00000000S
041999061100037000043019TANTONIO FRANCO HERNANDEZ                                                   M 00000000 00000000N
041999061100037000043020TIGNACIO BAZAGA FRESO                                                       M 00000000 00000000N
041999061100037000043021TLUIS ALONSO RODRIGO                                                        M 00000000 00000000N
041999061100037000043022TJOSE ANTONIO GARCIA CAMPON                                                 M 00000000 00000000N
041999061100037000043023TFRANCISCO MARTIN CAROZO                                                    M 00000000 00000000N
041999061100037000043024TMARIA DEL CARMEN ALONSO SANCHEZ                                            F 00000000 00000000N
041999061100037000043025TMARIA VANESA ALVAREZ PRIETO                                                F 00000000 00000000N
041999061100037000130001TMARIA JULIA PELAEZ GAGO                                                    F 00000000 00000000N
041999061100037000130002TPEDRO MENA LOPEZ                                                           M 00000000 00000000N
041999061100037000130003TMARIA GUADALUPE MORALES HERAS                                              F 00000000 00000000N
041999061100037000130004TMANUEL CUPIDO NARANJO                                                      M 00000000 00000000N
041999061100037000130005TFELIPE VIVAS FREJO                                                         M 00000000 00000000N
041999061100037000130006TANA SANCHEZ MORALES                                                        F 00000000 00000000N
041999061100037000130007TFRANCISCO RAMIREZ NARANJO                                                  M 00000000 00000000N
041999061100037000130008TDAVID PALACIN DONAIRE                                                      M 00000000 00000000N
041999061100037000130009TJOSE ANTONIO FUENTES BORREGO                                               M 00000000 00000000N
041999061100037000130010TMARIA BEGOÑA GARCIA IGLESIAS                                               F 00000000 00000000N
041999061100037000130011TDIONISIO TREJO LAVADO                                                      M 00000000 00000000N
041999061100037000130012TANGEL GUTIERREZ RODRIGUEZ                                                  M 00000000 00000000N
041999061100037000130013TMANUELA POLO SUAREZ                                                        F 00000000 00000000N
041999061100037000130014TJOSE MANUEL MARTIN SANCHEZ                                                 M 00000000 00000000N
041999061100037000130015TGEMA SANTOS CONEJERO                                                       F 00000000 00000000N
041999061100037000130016TJOSE PIÑAS VADILLO                                                         M 00000000 00000000N
041999061100037000130017TANA ISABEL AMBROSIO JOCILES                                                F 00000000 00000000N
041999061100037000130018TJESUS GUTIERREZ RODRIGUEZ                                                  M 00000000 00000000N
041999061100037000130019TMARIA FILOMENA CRESPO SOLIS                                                F 00000000 00000000N
041999061100037000130020TELISA DOMINGUEZ SANCHEZ                                                    F 00000000 00000000N
041999061100037000130021TSORAYA CABALLERO CABALLERO                                                 F 00000000 00000000N
041999061100037000130022TJUAN CARLOS GOMEZ AMADO                                                    M 00000000 00000000N
041999061100037000130023TMARIA DEL PILAR TREJO CRESPO                                               F 00000000 00000000N
041999061100037000130024TMIGUEL ANGEL SANABRIA ROJAS                                                M 00000000 00000000N
041999061100037000130025TJULIO JAVIER ALONSO GARRIDO                                                M 00000000 00000000N
041999061100037000150001TJULIAN ROCHA BORREGA                                                       M 00000000 00000000N
041999061100037000150002TCARLOS BALLEL GIL                                                          M 00000000 00000000N
041999061100037000150003TGREGORIO TALAVERA VILLA                                                    M 00000000 00000000N
041999061100037000150004TSATURNINO CAMPOS MATEOS                                                    M 00000000 00000000N
041999061100037000150005TSEGUNDO BAZ PEREZ                                                          M 00000000 00000000N
041999061100037000150006TAGUSTINA GONZALEZ VERA                                                     F 00000000 00000000N
041999061100037000150007TEMILIO ARROYO BERMEJO                                                      M 00000000 00000000N
041999061100037000150008TDIEGO RODRIGUEZ CABEZAS                                                    M 00000000 00000000N
041999061100037000150009TANGEL FATELA IÑIGO                                                         M 00000000 00000000N
041999061100037000150010TPETRA MAESTRE BARROSO                                                      F 00000000 00000000N
041999061100037000150011TMANUEL CANELADA REBOLLO                                                    M 00000000 00000000N
041999061100037000150012TMANUELA ORTEGA IGLESIAS                                                    F 00000000 00000000N
041999061100037000150013TJUAN MANUEL DEL CORRAL ARTIGAS                                             M 00000000 00000000N
041999061100037000150014TJOSE VICENTE MARTOS REBOLLO                                                M 00000000 00000000N
041999061100037000150015TABILIA MARTIN LOBATO                                                       F 00000000 00000000N
041999061100037000150016TANGEL LUIS TIEMBLO PEREZ                                                   M 00000000 00000000N
041999061100037000150017TJUAN ANTONIO RINA HERNANDEZ                                                M 00000000 00000000N
041999061100037000150018TVANESA ROCHA DURAN                                                         F 00000000 00000000N
041999061100037000150019TFRANCISCO JOSE SANCHEZ SANTA                                               M 00000000 00000000N
041999061100037000150020TLAUREANO BENITO MORENO                                                     M 00000000 00000000N
041999061100037000150021TABEL MARTIN DOMINGUEZ                                                      M 00000000 00000000N
041999061100037000150022TFRANCISCO TORRES ROBLES                                                    M 00000000 00000000N
041999061100037000150023TANGELES DURAN CORBACHO                                                     F 00000000 00000000N
041999061100037000150024TFELIX OLIVA RUIZ                                                           M 00000000 00000000N
041999061100037000150025TESTANISLAO MARTIN MARTIN                                                   M 00000000 00000000N
041999061010059000064005TPEDRO IGNACIO ELOSEGI GONZALEZ DE GAMARRA                                  M 00000000 00000000S
041999061010059000064006TMARIELI DIAZ DE MENDIBIL GOMEZ DE SEGURA                                   F 00000000 00000000S
041999061010059000064007TMARIA ANGELES IBARRARAN PORTILLA                                           F 00000000 00000000S
041999061010059000064008TJON ORTEGA GARCIA                                                          M 00000000 00000000N
041999061010059000064009TMIGUEL GARAI RUIZ DE MENDAROZQUETA                                         M 00000000 00000000N
041999061010059000064010TANDRES RUIZ DE GAUNA LOPEZ DE LUZURIAGA                                    M 00000000 00000000N
041999061010059000064011TIZASKUN MOYUA PINILLOS                                                     M 00000000 00000000N
041999061010059000064012TMARIA VICTORIA URRESTI GARCIA                                              M 00000000 00000000N
041999061010059000064013TBEATRIZ ARTOLAZABAL ALBENIZ                                                F 00000000 00000000N
041999061010059000064014TANTXON BELAKORTU PRECIADO                                                  M 00000000 00000000N
041999061010059000064015TLUIS ABAIGAR BUJANDA                                                       M 00000000 00000000N
041999061010059000064016TAITOR TELLERIA LANBARRI                                                    M 00000000 00000000N
041999061010059000064017TJAVIER GATON PEREZ DE ALBENIZ                                              M 00000000 00000000N
041999061010059000064018TLUIS MARIA SANCHEZ IÑIGO                                                   M 00000000 00000000N
041999061010059000064019TRAUL GOMEZ IÑIGO                                                           M 00000000 00000000N
041999061010059000064020TANTON AYASTUI ETXEBARRIA                                                   M 00000000 00000000N
041999061010059000064021TANTON CAREAGA MUGUERZA                                                     M 00000000 00000000N
041999061010059000064022TIGONE MARTINEZ DE LUNA UNANUE                                              F 00000000 00000000N
041999061010059000064023TRAMON OLABARRIETA ZABALA                                                   M 00000000 00000000N
041999061010059000064024TIÑAKI PRUSILLA NUÑOZ                                                       M 00000000 00000000N
041999061010059000064025TENRIQUE HEPPE CASANOVA                                                     M 00000000 00000000N
041999061010059000064026TJOSE IGNACIO RUIZ DE LARRAMENDI LOPEZ DE MUNAIN                            M 00000000 00000000N
041999061010059000064027TJOSE ANGEL CUERDA MONTOYA                                                  M 00000000 00000000N
041999061010059000065001TJESUS LOZA AGUIRRE                                                         M 00000000 00000000S
041999061010059000065002TFRANCISCO JAVIER LAZCOZ BAIGORRI                                           M 00000000 00000000S
041999061010059000065003TJOANA MADRIGAL JIMENEZ                                                     F 00000000 00000000S
041999061010059000065004TMARIA TERESA MARIN ROYO                                                    F 00000000 00000000S
041999061010059000065005TJUAN CARLOS ALONSO RAMIREZ                                                 M 00000000 00000000S
041999061010059000065006TPEIO LOPEZ DE MUNAIN LOPEZ DE LUZURIAGA                                    M 00000000 00000000N
041999061010059000065007TITZIAR ALDA RUIZ DE APODACA                                                F 00000000 00000000N
041999061010059000065008TMARISA CUESTA ARANDILLA                                                    F 00000000 00000000N
041999061010059000065009TJOSE MANUEL BULLI ESPINOSA                                                 M 00000000 00000000N
041999061010059000065010TVICTORIA LOPEZ VARONA                                                      F 00000000 00000000N
041999061010059000065011TVIRGILIO BERMEJO VEGA                                                      M 00000000 00000000N
041999061030014000043019TLINDA SCALA BAUTISTA                                                       F 00000000 00000000N
041999061030014000043020TJOSE RAMON SANCHEZ BERENGUER                                               M 00000000 00000000N
041999061030014000043021TANDREA BAUTISTA SANCHEZ                                                    F 00000000 00000000N
041999061030014000043022TJOSE LOPEZ PEREZ                                                           M 00000000 00000000N
041999061030014000043023TGEMA MARTINEZ GARCIA                                                       F 00000000 00000000N
041999061030014000043024TJESUS MARTIN MARTINEZ ALONSO                                               M 00000000 00000000N
041999061030014000043025TMARIA ELENA GIL-NEGRETE HERNANDEZ                                          F 00000000 00000000N
041999061030014000043026TJUAN CARLOS JIMENO FERNANDEZ                                               M 00000000 00000000N
041999061030014000043027TGLORIA SOLA MAS                                                            F 00000000 00000000N
041999061030014000148001TJULIO LUIS MARTI GOMIS                                                     M 00000000 00000000N
041999061030014000148002TJOSE ANTONIO ZARAGOZA GOMEZ                                                M 00000000 00000000N
041999061030014000148003TVICTOR SANCHEZ SANCHEZ                                                     M 00000000 00000000N
041999061030014000148004TLUCIANO JAVIER ZARAGOZA GOMEZ                                              M 00000000 00000000N
041999061030014000148005TJOSE ANTONIO ROSSI TORTOSA                                                 M 00000000 00000000N
041999061030014000148006TMARIA JOSEFA MORENO RAYO                                                   F 00000000 00000000N
041999061030014000148007TALEUTERIO JOSE BALTRAM MUÑOZ                                               M 00000000 00000000N
041999061030014000148008TLUIS MANUEL SARRIO LLEDO                                                   M 00000000 00000000N
041999061030014000148009TCARLOS DAZA FERNANDEZ                                                      M 00000000 00000000N
041999061030014000148010TMARIA ALICIA CAMPOS ARAUJO                                                 F 00000000 00000000N
041999061030014000148011TMARIA INMACULADA ROSSI TORTOSA                                             F 00000000 00000000N
041999061030014000148012TJOSE FELIPE MOMCITO FRANCES                                                M 00000000 00000000N
041999061030014000148013TAMANDA SANTONJA BLANQUER                                                   F 00000000 00000000N
041999061030014000148014TRAFAEL GALLAMO VIVO                                                        M 00000000 00000000N
041999061030014000148015TJUAN ANTONIO LOPEZ GARCIA                                                  M 00000000 00000000N
041999061030014000148016TJUAN ANTONIO BELEN ESCAMES                                                 M 00000000 00000000N
041999061100037000214001TMANUEL CRUZ MORENO                                                         M 00000000 00000000S
041999061100037000214002TLUIS GIBELLO HOLGADO                                                       M 00000000 00000000N
041999061100037000214003TMARIA JOSE TEJEDA MUÑOZ                                                    F 00000000 00000000N
041999061100037000214004TVICTOR MANUEL CASCO RUIZ                                                   M 00000000 00000000N
041999061100037000214005TMARIA JOSEFA FAJARDO BARRENA                                               F 00000000 00000000N
041999061280079000001001TJOSE MARIA ALVAREZ DEL MANZANO LOPEZ DEL HIERRO                            M 00000000 00000000S
041999061280079000001002TMARIA MERCEDES DE LA MERCED MONGE                                          F 00000000 00000000S
041999061280079000001003TJUAN ANTONIO GOMEZ-ANGULO RODRIGUEZ                                        M 00000000 00000000S
041999061280079000001004TIGNACIO DEL RIO GARCIA DE SOLA                                             M 00000000 00000000S
041999061280079000001005TMARIA TARDON OLMOS                                                         F 00000000 00000000S
041999061280079000001006TMARIA DOLORES FLORES CERDAN                                                F 00000000 00000000S
041999061280079000001007TADRIANO GARCIA-LOYGORRI RUIZ                                               M 00000000 00000000S
041999061280079000001008TELENA DE UTRILLA PALOMBI                                                   F 00000000 00000000S
041999061280079000001009TPEDRO BUJIDOS GARAY                                                        M 00000000 00000000S
041999061280079000001010TMARIA JESUS FRAILE FABRA                                                   F 00000000 00000000S
041999061280079000001011TSIGFRIDO HERRAEZ RODRIGUEZ                                                 M 00000000 00000000S
041999061280079000001012TMARIA ANTONIA SUAREZ CUESTA                                                F 00000000 00000000S
041999061280079000001013TMIGUEL ANGEL ARAUJO SERRANO                                                M 00000000 00000000S
041999061280079000001014TSIMON VIÑALS PEREZ                                                         M 00000000 00000000S
041999061280079000001015TBEATRIZ MARIA ELORRIAGA PISARIK                                            F 00000000 00000000S
041999061280079000001016TANTONIO MORENO BRAVO                                                       M 00000000 00000000S
041999061280079000001017TALBERTO LOPEZ VIEJO                                                        M 00000000 00000000S
041999061280079000001018TEVA DURAN RAMOS                                                            F 00000000 00000000S
041999061280079000001019TFERNANDO MARTINEZ VIDAL                                                    M 00000000 00000000S
041999061280079000001020TMARIA BEGOÑA LARRAINZAR ZABALLA                                            F 00000000 00000000S
041999061280079000001021TMARIA CARMEN RODRIGUEZ FLORES                                              F 00000000 00000000S
041999061280079000001022TMARIA NIEVES SAEZ DE ADANA OLIVER                                          F 00000000 00000000S
041999061280079000001023TJOSE FERNANDEZ BONET                                                       M 00000000 00000000S
041999061280079000001024TCARMEN TORRALBA GONZALEZ                                                   F 00000000 00000000S
041999061280079000001025TMARIA DOLORES NAVARRO RUIZ                                                 F 00000000 00000000S
041999061280079000001026TCARLOS IZQUIERDO TORRES                                                    M 00000000 00000000S
041999061280079000001027TLUIS ASUA BRUNT                                                            M 00000000 00000000S
041999061280079000001028TANGEL GARRIDO GARCIA                                                       M 00000000 00000000S
041999061280079000002001TFERNANDO MORAN LOPEZ                                                       M 00000000 00000000S
041999061280079000002002TMARIA CRISTINA NARBONA RUIZ                                                F 00000000 00000000S
041999061280079000002003TMATILDE FERNANDEZ SANZ                                                     F 00000000 00000000S
041999061280079000002004TIGNACIO DIAZ PLAZA                                                         M 00000000 00000000S
041999061280079000002005TMANUEL GARCIA-HIERRO CARBALLO                                              M 00000000 00000000S
041999061280079000002006TISABEL VILALLONGA ELVIRO                                                   F 00000000 00000000S
041999061280079000002007TJOAQUIN GARCIA PONTES                                                      M 00000000 00000000S
041999061280079000002008TRUTH PORTA CANTONI                                                         F 00000000 00000000S
041999061280079000002009TCARLOS LOPEZ RIEÑO                                                         M 00000000 00000000S
041999061280079000002010TFERNANDO SANCHEZ MARTIN                                                    M 00000000 00000000S
041999061280079000002011TNOELIA MARTINEZ ESPINOSA                                                   F 00000000 00000000S
041999061280079000002012TRAFAEL SIMANCAS SIMANCAS                                                   M 00000000 00000000S
041999061280079000002013TMARTA MARIA RODRIGUEZ-TARDUCHY DIEZ                                        F 00000000 00000000S
041999061280079000002014TEUGENIO MORALES TOMILLO                                                    M 00000000 00000000S
041999061280079000002015TFELIPE CARBALLO RIOS                                                       M 00000000 00000000S
041999061280079000002016TMARIA PATROCINIO LAS HERAS PINILLA                                         F 00000000 00000000S
041999061280079000002017TRAFAEL MERINO LOPEZ-BREA                                                   M 00000000 00000000S
041999061280079000002018TMANUEL CONEJERO MELCHOR                                                    M 00000000 00000000S
041999061280079000002019TALFREDO MARCHAND PRADOS                                                    M 00000000 00000000S
041999061280079000002020TSILVIA ESCOBAR MORENO                                                      F 00000000 00000000S
041999061280079001825001TINES SABANES NADAL                                                         F 00000000 00000000S
041999061280079001825002TJULIO MISIEGO GASCON                                                       M 00000000 00000000S
041999061280079001825003TJUSTO CALCERRADA BRAVO                                                     M 00000000 00000000S
041999061280079001825004TGERARDO DEL VAL CID                                                        M 00000000 00000000S
041999061030014000148017TJOSE ANGEL SANCHEZ AGUDO                                                   M 00000000 00000000N
041999061030014000148018TFRANCISCO RODRIGUEZ MORALES                                                M 00000000 00000000N
041999061030014000148019TJUAN LUIS PERALTA CAMPOS                                                   M 00000000 00000000N
041999061030014000148020TVICTORIA DELFINA COMPANY MONLLOR                                           F 00000000 00000000N
041999061030014000148021TTEODORO ROJO ALADRO                                                        M 00000000 00000000N
041999061030014000148022TRAFAEL BACA RAMIREZ                                                        M 00000000 00000000N
041999061030014000148023TSUSANA ANTIGÜEDAD SANCHEZ                                                  F 00000000 00000000N
041999061030014000148024TMARIA FRANCISCA VALERO PEREZ                                               F 00000000 00000000N
041999061030014000148025TPILAR SANCHEZ SANCHEZ                                                      F 00000000 00000000N
041999061030014000148026TJUAN ENRIQUE MARTIM ALVAREZ                                                M 00000000 00000000N
041999061030014000148027TCARLOS EMILIO CARDESA SABIO                                                M 00000000 00000000N
041999061030014000157001TENRIQUE MANUEL PARRA                                                       M 00000000 00000000N
041999061030014000157002TALICIA CREVILLEN GONZALEZ                                                  F 00000000 00000000N
041999061030014000157003TJULIO DIAZ DIAZ                                                            M 00000000 00000000N
041999061030014000157004TMARIA DOLORES JIMENEZ MUÑOZ                                                F 00000000 00000000N
041999061030014000157005TMARCOS MARTINEZ DIAZ                                                       M 00000000 00000000N
041999061030014000157006TMAXIMO SANTA JULIANA AGULLA                                                M 00000000 00000000N
041999061030014000157007TCARLOS B. TORRES PEREZ                                                     M 00000000 00000000N
041999061030014000157008TMARIA ENCARNACION SANCHEZ GARCIA                                           F 00000000 00000000N
041999061030014000157009TJOSE ANDRES SANCHEZ CORRAL                                                 M 00000000 00000000N
041999061030014000157010TMARIA MARTINEZ RECHE                                                       F 00000000 00000000N
041999061030014000157011TMERCEDES MARTINEZ CEBRIAN                                                  F 00000000 00000000N
041999061030014000157012TMARIA JOSEFA RUIZ FERNANDEZ                                                F 00000000 00000000N
041999061030014000157013TMIGUEL ANGEL CASTELLO LLORENS                                              M 00000000 00000000N
041999061030014000157014TJUANA VALVERDE OSMA                                                        F 00000000 00000000N
041999061030014000157015TSERAFIN MIRON MERLOS                                                       M 00000000 00000000N
041999061030014000157016TJOSE RODRIGUEZ SALA                                                        M 00000000 00000000N
041999061030014000157017TJUAN GARCIA ESPINOSA                                                       M 00000000 00000000N
041999061030014000157018TANTONIO DURAN MUÑOZ                                                        M 00000000 00000000N
041999061030014000157019TANGELES CUESTA RODRIGUEZ                                                   F 00000000 00000000N
041999061030014000157020TBERNARDINO REOLID SANCHEZ                                                  M 00000000 00000000N
041999061030014000157021TJOAQUIN FAJARDO SUAREZ                                                     M 00000000 00000000N
041999061030014000157022TJUAN MELLADO BRENES                                                        M 00000000 00000000N
041999061030014000157023TANTONIO ESTELLES GILABERT                                                  M 00000000 00000000N
041999061030014000157024TCARLOS MONTOLIU ANDRADE                                                    M 00000000 00000000N
041999061030014000157025TMARCIAL TARIN PINAZO                                                       M 00000000 00000000N
041999061060015000219016TSALVADOR MARTINEZ MONTERO                                                  M 00000000 00000000N
041999061060015000219017TJULIA MARTINEZ CONGREGADO                                                  F 00000000 00000000N
041999061060015000219018TMANUEL DIAZ SANTOS                                                         M 00000000 00000000N
041999061060015000219019TESTRELLA FLORIDO OREJA                                                     F 00000000 00000000N
041999061060015000219020TMARIA DOLORES ALBARRAN LORIDO                                              F 00000000 00000000N
041999061060015000219021TGONZALO JOSE GUIJARRO MERELLES                                             M 00000000 00000000N
041999061060015000219022TJOSE REYES PABLOS                                                          M 00000000 00000000N
041999061060015000219023TCARMEN GUERRERO LARIOS                                                     F 00000000 00000000N
041999061060015000219024TANTONIO JOSE RODRIGUEZ DE LEDESMA VEGA                                     M 00000000 00000000N
041999061060015000219025TPURIFICACION TEJEDA CARVAJAL                                               F 00000000 00000000N
041999061060015000219026TJOSE ANGEL MARTINEZ MONTERO                                                M 00000000 00000000N
041999061060015000219027TRAMONA FERRERA SANCHEZ                                                     F 00000000 00000000N
041999061280079001825005TMARIA LUISA CASTRO FONSECA                                                 F 00000000 00000000S
041999061280092000001001TLUIS FERNANDO BASTARRECHE GRAVALOS                                         M 00000000 00000000S
041999061280092000001002TESTEBAN PARRO DEL PRADO                                                    M 00000000 00000000S
041999061280092000001003TMARIA VANESA MARTINEZ MONROY                                               F 00000000 00000000S
041999061280092000001004TJOSE MARIA CASTILLO HERNANDEZ                                              M 00000000 00000000S
041999061280092000001005TVICTOR RAFAEL GARCIA VICENTE                                               M 00000000 00000000S
041999061280092000001006TALEJANDRO DE UTRILLA PALOMBI                                               M 00000000 00000000S
041999061300016000001001TPILAR BARREIRO ALVAREZ                                                     F 00000000 00000000S
041999061300016000001002TVICENTE BALIBREA AGUADO                                                    M 00000000 00000000S
041999061300016000001003TMARIA DOLORES SOLER CELDRAN                                                F 00000000 00000000S
041999061300016000001004TJOSE CABEZOS NAVARRO                                                       M 00000000 00000000S
041999061300016000001005TAGUSTIN GUILLEN MARCO                                                      M 00000000 00000000S
041999061300016000001006TALONSO GOMEZ LOPEZ                                                         M 00000000 00000000S
041999061300016000001007TENRIQUE PEREZ ABELLAN                                                      M 00000000 00000000S
041999061300016000001008TGABRIEL RUIZ LOPEZ                                                         M 00000000 00000000S
041999061300016000001009TMARIA ROSARIO MONTERO RODRIGUEZ                                            F 00000000 00000000S
041999061300016000001010TDOMINGO JOSE SEGADO MARTINEZ                                               M 00000000 00000000S
041999061300016000001011TGREGORIO GARCIA RABAL                                                      M 00000000 00000000S
041999061300016000001012TJUAN MANUEL RUIZ ROS                                                       M 00000000 00000000S
041999061300016000001013TMARIA JOSEFA ROCA GUTIERREZ                                                F 00000000 00000000S
041999061300016000001014TJOSE FIDEL SAURA GUERRERO                                                  M 00000000 00000000S
041999061300016000001015TISABEL ANAYA GALLUD                                                        F 00000000 00000000S
041999061300016000001016TNICOLAS ANGEL BERNAL                                                       M 00000000 00000000S
041999061300016000001017TPEDRO LUIS MARTINEZ STUTZ                                                  M 00000000 00000000S
041999061300016000002001TANTONIO MARTINEZ BERNAL                                                    M 00000000 00000000S
041999061300016000002002TMARIA ROSARIO JUANEDA ZARAGOZA                                             F 00000000 00000000S
041999061300016000002003TJOSE NIETO MARTINEZ                                                        M 00000000 00000000S
041999061300016000002004TBLANCA MARIA JOSE JUANA ROLDAN BERNAL                                      F 00000000 00000000S
041999061300016000002005TJOSE MATA FERNANDEZ                                                        M 00000000 00000000S
041999061300016000002006TJOSEFA ROSIQUE DIAZ                                                        F 00000000 00000000S
041999061300016000002007TJOSE FERNANDEZ LOZANO                                                      M 00000000 00000000S
041999061300016000002008TEMILIO PALLARES MARTINEZ                                                   M 00000000 00000000S
041999061300016000002009TCARIDAD RIVES ARCAYNA                                                      F 00000000 00000000S
041999061300016000242001TJORGE JULIO GOMEZ CALVO                                                    M 00000000 00000000S
041999061300030000001001TMIGUEL ANGEL CAMARA BOTIA                                                  M 00000000 00000000S
041999061300030000001002TGINES NAVARRO GARCIA                                                       M 00000000 00000000S
041999061300030000001003TMARIA PILAR MEGIA RICO                                                     F 00000000 00000000S
041999061300030000001004TANTONIO SANCHEZ CARRILLO                                                   M 00000000 00000000S
041999061300030000001005TFRANCISCO PORTO OLIVA                                                      M 00000000 00000000S
041999061280007000001009TEDUARDO COLLADO SANCHEZ                                                    M 00000000 00000000S
041999061280007000001010TFELIPE GARCIA CUENCA                                                       M 00000000 00000000S
041999061280007000001011TEDUARDO ALVARO REIGOSA                                                     M 00000000 00000000S
041999061280007000001012TFERNANDO DIAZ ROBLES                                                       M 00000000 00000000S
041999061280007000001013TALBERTO MORENO CARNICERO                                                   M 00000000 00000000S
041999061280007000001014TJOSE LUIS GARCIA UGENA                                                     M 00000000 00000000S
041999061280007000002001TENRIQUE CASCALLANA GALLASTEGUI                                             M 00000000 00000000S
041999061280007000002002TJOSE MIGUEL DE LA TORRE MONCAYO                                            M 00000000 00000000S
041999061280007000002003TMIGUEL LUIS ARRANZ SANCHEZ                                                 M 00000000 00000000S
041999061280007000002004TNATALIA DE ANDRES DEL POZO                                                 F 00000000 00000000S
041999061280007000002005TANUNCIACION ROMERO GONZALEZ                                                F 00000000 00000000S
041999061280007000002006TMANUEL LUMBRERAS FERNANDEZ                                                 M 00000000 00000000S
041999061280007000002007TMARIA DOLORES AGUDO GIL                                                    F 00000000 00000000S
041999061280007000002008TJOSE QUIROS DIAZ-VALDES                                                    M 00000000 00000000S
041999061280007000002009TMARIA JULIA LAFOZ ALCALA                                                   F 00000000 00000000S
041999061280007000002010TMARCELINO GARCIA DOMINGUEZ                                                 M 00000000 00000000S
041999061280007000002011TTATIANA ERCOLANESE MUÑOZ                                                   F 00000000 00000000S
041999061280007001825001TFERNANDO FORNOVI GODOY                                                     M 00000000 00000000S
041999061280007001825002TBASILIA VARA HERNANDEZ                                                     F 00000000 00000000S
041999061300030000001006TANTONIO GONZALEZ BARNES                                                    M 00000000 00000000S
041999061300030000001007TJOAQUIN MOYA ANGELER SSANCHEZ                                              M 00000000 00000000S
041999061300030000001008TMARIA DEL CARMEN PELEGRIN GARCIA                                           F 00000000 00000000S
041999061300030000001009TMIGUEL CASCALES TARAZONA                                                   M 00000000 00000000S
041999061300030000001010TCRISTINA RUBIO PEIRO                                                       F 00000000 00000000S
041999061300030000001011TMARIA ISABEL VALCARCEL SISO                                                F 00000000 00000000S
041999061300030000001012TFULGENCIO CERVANTES CONESA                                                 M 00000000 00000000S
041999061300030000001013TREMIGIO LOPEZ MARTINEZ                                                     M 00000000 00000000S
041999061300030000001014TJOSE ROS MAYOR                                                             M 00000000 00000000S
041999061260089000001001TJOSE LUIS BERMEJO FERNANDEZ                                                M 00000000 00000000S
041999061260089000001002TJULIO REVUELTA ALTUNA                                                      M 00000000 00000000S
041999061260089000001003TMARIA DEL MAR SAN MARTIN IBARRA                                            F 00000000 00000000S
041999061260089000001004TANGEL JOSE RITUERTO GONZALEZ DE SAN PEDRO                                  M 00000000 00000000S
041999061260089000001005TMARIA PAZ VILLAR LOPEZ                                                     F 00000000 00000000S
041999061260089000001006TPABLO SANTAOLALLA MONTOYA                                                  M 00000000 00000000S
041999061260089000001007TJOSE MUSITU PEREZ                                                          M 00000000 00000000S
041999061260089000001008TFRANCISCO JAVIER GARCIA TURZA                                              M 00000000 00000000S
041999061260089000001009TRODOLFO RUBIO MARTINEZ                                                     M 00000000 00000000S
041999061260089000001010TPALOMA CORRES VAQUERO                                                      F 00000000 00000000S
041999061260089000001011TEUGENIO DE LA RIVA IBAÑEZ                                                  M 00000000 00000000S
041999061260089000001012TALBERTO GUILLEN CALVO                                                      M 00000000 00000000S
041999061260089000001013TCESAR ALBERTO ORTEGA MORENO                                                M 00000000 00000000S
041999061260089000001014TMAXIMO MANUEL FRAILE ESCRICH                                               M 00000000 00000000S
041999061260089000001015TMARIA DEL CARMEN GONZALEZ CUEVAS SEVILLA                                   F 00000000 00000000S
041999061260089000002001TJESUS ABILIO URBINA DIEZ                                                   M 00000000 00000000S
041999061260089000002002TAGUSTIN GARCIA FERNANDEZ                                                   M 00000000 00000000S
041999061260089000002003TMARIA CONCEPCION PEREZ SANTO TOMAS                                         F 00000000 00000000S
041999061260089000002004TFRANCISCO SAEZ PORRES                                                      M 00000000 00000000S
041999061260089000002005TVICENTE URQUIA ALMAZAN                                                     M 00000000 00000000S
041999061260089000002006TINMACULADA SAENZ GONZALEZ                                                  F 00000000 00000000S
041999061260089000002007TMARIO FRAILE RUIZ                                                          M 00000000 00000000S
041999061260089000002008TMARIA BEGOÑA SACRISTAN TERROBA                                             F 00000000 00000000S
041999061260089000002009TATILANO DE LA FUENTE IBAÑEZ                                                M 00000000 00000000S
041999061260089000002010TFRANCISCO JAVIER BAÑARES CARO                                              M 00000000 00000000S
041999061260089000003001TPEDRO ANTONIO ACEÑA PANDO                                                  M 00000000 00000000S
041999061260089000096001TANGEL DANIEL VAREA ANGEL                                                   M 00000000 00000000S
041999061280058000001001TALFONSO MANUEL CABALLERO AGUADO                                            M 00000000 00000000S
041999061280058000001002TMARIA MICAELA PRIETO BOLADO                                                F 00000000 00000000S
041999061280058000001003TVICTORIA RUBIO GARCIA                                                      F 00000000 00000000S
041999061010059000065012TJAOINE GARCIA PEÑA                                                         F 00000000 00000000N
041999061010059000065013TYOLANDA DE ABAJO ROJO                                                      F 00000000 00000000N
041999061010059000065014TAGUSTIN TORRADO GONZALEZ                                                   M 00000000 00000000N
041999061010059000065015TCRISTINA SANTOS CALLEJA                                                    F 00000000 00000000N
041999061010059000065016TJUAN CARLOS LAZARO PALOMINO                                                M 00000000 00000000N
041999061010059000065017TROSA MARIA GARCIA GORDO                                                    F 00000000 00000000N
041999061010059000065018TLUIS OCIO DIAZ DE OTAZU                                                    M 00000000 00000000N
041999061010059000065019TFRANCISCO MIGUEL ANTUNEZ LOPEZ                                             M 00000000 00000000N
041999061010059000065020TMAITE CARNERO GONZALEZ                                                     F 00000000 00000000N
041999061010059000065021TJOSE MANUEL NOGALES RODRIGUEZ                                              M 00000000 00000000N
041999061010059000065022TISABEL GIL MARTINEZ                                                        F 00000000 00000000N
041999061010059000065023TMARIA VICTORIA VALDECANTOS BENGOETXEA                                      F 00000000 00000000N
041999061010059000065024TANGEL MARI GONZALEZ                                                        M 00000000 00000000N
041999061010059000065025TROBERTO MARTIN BELVER                                                      M 00000000 00000000N
041999061010059000065026TERNESTO LADRON DE GUEVARA LOPEZ DE ARBINA                                  M 00000000 00000000N
041999061010059000065027TMARIO ONAINDIA MATXIONDO                                                   M 00000000 00000000N
041999061010059000072001TMARISOL BENGOA SAEZ                                                        F 00000000 00000000S
041999061010059000072002TMARIA EUGENIA NURIA BUESA BELACORTU                                        F 00000000 00000000N
041999061010059000072003TSANTIAGO BUSTO LOPEZ DE ABECHUCO                                           M 00000000 00000000N
041999061100037000214006TJOSE LUIS HINOJAL SANTOS                                                   M 00000000 00000000N
041999061100037000214007TJOSE HINOJOSA DURAN                                                        M 00000000 00000000N
041999061100037000214008TMARIA TERESA OLIVAS ZUIL                                                   F 00000000 00000000N
041999061100037000214009TMARIA ANTONIA GARCIA VALLE                                                 F 00000000 00000000N
041999061100037000214010TMARCIAL CANTERO PEREZ                                                      M 00000000 00000000N
041999061100037000214011TPEDRO GODOY SANTANO                                                        M 00000000 00000000N
041999061100037000214012TLAURA HERVAS MINGO                                                         F 00000000 00000000N
041999061100037000214013TJESUS RODRIGUEZ GONZALEZ                                                   M 00000000 00000000N
041999061100037000214014TAINHOA MARTIN CHAMORRO                                                     F 00000000 00000000N
041999061100037000214015TANTONIO GARCIA MENDEZ                                                      M 00000000 00000000N
041999061100037000214016TMARIA FUENTES MORATO                                                       F 00000000 00000000N
041999061100037000214017TCARLOS FERNANDEZ DE CASTRO                                                 M 00000000 00000000N
041999061100037000214018TMARIA ANTONIA ROLO HERNANDEZ                                               F 00000000 00000000N
041999061100037000214019TFLORENCIO SANCHEZ DIAZ                                                     M 00000000 00000000N
041999061100037000214020TENCARNACION CHAMORRO NEBOT                                                 F 00000000 00000000N
041999061100037000214021TJOSE ANTONIO GONZALEZ FRUTOS                                               M 00000000 00000000N
041999061100037000214022TENCARNACION COBOS HERNANDEZ                                                F 00000000 00000000N
041999061100037000214023TGERARDO ANTON GARRIDO                                                      M 00000000 00000000N
041999061100037000214024TLORENZO SANTANO GONZALEZ                                                   M 00000000 00000000N
041999061100037000214025TLEONOR FLORES RABAZO                                                       F 00000000 00000000N
041999061100037000219001TCARIDAD MURCIANO TOME                                                      F 00000000 00000000N
041999061100037000219002TJOSE ANTONIO RODRIGUEZ GARCIA                                              M 00000000 00000000N
041999061100037000219003TALICIA RODRIGUEZ GARCIA                                                    F 00000000 00000000N
041999061100037000219004TJOSE JAVIER BRILLO PEREZ                                                   M 00000000 00000000N
041999061100037000219005TANTONIO MANUEL SILVA LUENGO                                                M 00000000 00000000N
041999061100037000219006TLUIS FERNANDO AGORRETA BLAZQUEZ                                            M 00000000 00000000N
041999061100037000219007TJOSE CARLOS BORREGA CERRO                                                  M 00000000 00000000N
041999061100037000219008TLUIS JAVIER PULIDO DUQUE                                                   M 00000000 00000000N
041999061100037000219009TMARIA ANTONIA GARCIA SORIANO                                               F 00000000 00000000N
041999061100037000219010TMARIA ELENA ESTEBAN ENAMORADO                                              F 00000000 00000000N
041999061100037000219011TBLANCA ESTHER MURCIANO TOME                                                F 00000000 00000000N
041999061100037000219012TOLGA MARIA RODRIGUEZ GARCIA                                                F 00000000 00000000N
041999061100037000219013TANTONIO LOPEZ BARRAGAN                                                     M 00000000 00000000N
041999061100037000219014TCARIDAD TOME ANGULO                                                        F 00000000 00000000N
041999061100037000219015TRUFINO RODRIGUEZ RUBIANO                                                   M 00000000 00000000N
041999061100037000219016TMANUEL ANTONIO LOPEZ TOME                                                  M 00000000 00000000N
041999061100037000219017TANTONIO MURCIANO BRAZO                                                     M 00000000 00000000N
041999061100037000219018TMARIA BELEN MOLINER LEMUS                                                  F 00000000 00000000N
041999061100037000219019TSUSANA LOPEZ TOME                                                          F 00000000 00000000N
041999061100037000219020TCARMEN MURILLO MORALES                                                     F 00000000 00000000N
041999061100037000219021TANGEL SANTOS BOZA                                                          M 00000000 00000000N
041999061100037000219022TEMILIA TOME ANGULO                                                         F 00000000 00000000N
041999061100037000219023TMARIA DEL CARMEN RODRIGUEZ-FRANCO                                          F 00000000 00000000N
041999061100037000219024TANTONIO LUIS TOME MURILLO                                                  M 00000000 00000000N
041999061100037000219025TJOSE LUIS MARTINEZ RUBIANO                                                 M 00000000 00000000N
041999061010059000072004TJUAN CARLOS MATEO MARQUEZ                                                  M 00000000 00000000N
041999061010059000072005TMARIA MERCEDES LUCRECIA GOMEZ DE SEGURA QUINTANA                           F 00000000 00000000N
041999061010059000072006TMANUEL FELIX BREÑAS PERALES                                                M 00000000 00000000N
041999061010059000072007TLUIS LUMBRERAS DOMINGUEZ                                                   M 00000000 00000000N
041999061010059000072008TLUIS MARIA RAMIREZ SAEZ                                                    M 00000000 00000000N
041999061010059000072009TISABEL FERNANDEZ ABALOS                                                    F 00000000 00000000N
041999061010059000072010TFRANCISCO JAVIER BURON CUADRADO                                            M 00000000 00000000N
041999061010059000072011TJOSE LUIS MUNIOZGUREN AMO                                                  M 00000000 00000000N
041999061010059000072012THECTOR EURIALO MARTIN BUESA                                                M 00000000 00000000N
041999061010059000072013TELISA ARGUIJO MARTINEZ DE RITUERTO                                         F 00000000 00000000N
041999061010059000072014TILDEFONSO VARA SEVILLANO                                                   M 00000000 00000000N
041999061010059000072015TJOSE ARCAUTE RUIZ DE ALEGRIA                                               M 00000000 00000000N
041999061010059000072016TMARIA VIOLETA BLANCO BEJARANO                                              F 00000000 00000000N
041999061010059000072017THEITOR MANUEL MOREIRA SOUSA                                                M 00000000 00000000N
041999061010059000072018TDAVID ARRIBAS SANTOS                                                       M 00000000 00000000N
041999061010059000072019TJOSE RAMON BAZ TORIBIO                                                     M 00000000 00000000N
041999061010059000072020TOSCAR CENDOYA ARTAZA                                                       M 00000000 00000000N
041999061010059000072021TALFREDO MARTIN CASAREJOS                                                   M 00000000 00000000N
041999061010059000072022TVICENTA JIMENEZ BARQUERO                                                   F 00000000 00000000N
041999061010059000072023TTERESA DE JESUS VELASCO OTERO                                              F 00000000 00000000N
041999061010059000072024TMARIA MERCEDES ECHEZARRETA MANCISIDOR                                      F 00000000 00000000N
041999061010059000072025TANA MUÑOZ BENITEZ                                                          F 00000000 00000000N
041999061010059000072026TJULIAN BAENA FERNANDEZ                                                     M 00000000 00000000N
041999061010059000072027TMARIA DEL CARMEN VIRUETE ASENSIO                                           F 00000000 00000000N
041999061030014000157026TDESAMPARADOS RODRIGUEZ APARICIO                                            F 00000000 00000000N
041999061030014000157027TLUIS JUAN MATARREDONDA ALONSO                                              M 00000000 00000000N
041999061030014000160001TJOSE LUIS ROMERO GOMEZ                                                     M 00000000 00000000S
041999061030014000160002TMARIA DEL CAMINO REMIRO AYENSA                                             F 00000000 00000000N
041999061030014000160003TCASIMIRO GONZALEZ GONZALEZ                                                 M 00000000 00000000N
041999061030014000160004TFRANCISCA DOLORES ISABLE ALEMAÑ JIMENEZ                                    F 00000000 00000000N
041999061030014000160005TJOSE ANTONIO FERNANDEZ CABELLO                                             M 00000000 00000000N
041999061030014000160006TBEATRIZ INES MARTIN                                                        F 00000000 00000000N
041999061030014000160007TJESUS MARIA MARVA MALAGA                                                   M 00000000 00000000N
041999061030014000160008TCARMEN GONZALEZ SELVA                                                      F 00000000 00000000N
041999061030014000160009TJUAN RAMON CARRATALA SANCHEZ                                               M 00000000 00000000N
041999061030014000160010TMARIA BLANCA ESTHER BAYON PEREZ                                            F 00000000 00000000N
041999061030014000160011TANTONIO DIAZ GONZALEZ                                                      M 00000000 00000000N
041999061030014000160012TJOSE LUIS ORTS HERVAS                                                      M 00000000 00000000N
041999061030014000160013TJOSE BELMONTE MARTINEZ                                                     M 00000000 00000000N
041999061030014000160014TANTONIO GARCIA FERRER                                                      M 00000000 00000000N
041999061280092000001007TMAIRENA FERNANDEZ ESCALANTE                                                F 00000000 00000000S
041999061280092000001008TMARIA DOLORES LANGA MORO                                                   F 00000000 00000000S
041999061280092000001009TJOSE MANUEL VERA SANTOS                                                    M 00000000 00000000S
041999061280092000001010TEDUARDO DE SANTIAGO DORADO                                                 M 00000000 00000000S
041999061280092000001011TNATIVIDAD DEL SEÑOR PERALES TORRES                                         F 00000000 00000000S
041999061280092000001012TMARIA ANGELES GOMEZ HIDALGO                                                F 00000000 00000000S
041999061280092000001013TDANIEL ORTIZ ESPEJO                                                        M 00000000 00000000S
041999061280092000002001TJOSE MARIA ARTETA VICO                                                     M 00000000 00000000S
041999061280092000002002TMARIANO BONILLA DE LA O.                                                   M 00000000 00000000S
041999061280092000002003TMARIA DEL PILAR FERNANDEZ TOME                                             F 00000000 00000000S
041999061280092000002004TANTONIO MACIAS MORALES                                                     M 00000000 00000000S
041999061280092000002005TBEATRIZ OLIVA GARCIA RUBIO                                                 F 00000000 00000000S
041999061280092000002006TCARLOS ENRIQUE GALLO GIL                                                   M 00000000 00000000S
041999061280092000002007TJOSE PARRA BLAZQUEZ                                                        M 00000000 00000000S
041999061280092000002008TJOSE IVAN GARCIA YUSTOS                                                    M 00000000 00000000S
041999061280092000002009TEVA GUTIERREZ ANTOLIN                                                      F 00000000 00000000S
041999061280092000002010TALFONSO GARCIA SALINERO                                                    M 00000000 00000000S
041999061280092000002011TPALMIRA LOPEZ FRAILE                                                       F 00000000 00000000S
041999061280092001825001TILDEFONSO JOSE FERNANDEZ FERRADIZ                                          M 00000000 00000000S
041999061280092001825002TCARLOS ANTONIO TABERNEIRO RODRIGUEZ                                        M 00000000 00000000S
041999061280092001825003TMARIA DE LOS ANGELES ALVAREZ CHAVES                                        F 00000000 00000000S
041999061150030000001001TANTONIO ERIAS REY                                                          M 00000000 00000000S
041999061150030000001002TERNESTO PEREZ BARJA                                                        M 00000000 00000000S
041999061150030000001003TCRISTINA GOAS CASAL                                                        F 00000000 00000000S
041999061150030000001004TRAUL JESUS GARCIA DE LOZA                                                  M 00000000 00000000S
041999061150030000001005TJOAQUIN MANUEL TUÑAS BLANCO                                                M 00000000 00000000S
041999061150030000001006TALVARO ANTONIO SOMESO SALVADORES                                           M 00000000 00000000S
041999061150030000001007TROSA GARCIA MEIRIÑO                                                        F 00000000 00000000S
041999061150030000001008TJOSE MANUEL ALVAREZ-CAMPANA GALLO                                          M 00000000 00000000N
041999061150030000001009TNURIA MARIA GALEGO VEIGA                                                   F 00000000 00000000N
041999061150030000001010TMARIA DEL PILAR GONZALEZ DE LA HUEBRA DIAZ                                 F 00000000 00000000N
041999061150030000001011TJOSE LUIS FERNANDEZ FERNANDEZ                                              M 00000000 00000000N
041999061150030000001012TMARIA BEGOÑA FREIRE VAZQUEZ                                                F 00000000 00000000N
041999061150030000001013TMANUEL SANTOS MENDEZ                                                       M 00000000 00000000N
041999061150030000001014TMARIA CRISTINA GONZALEZ AZPILCUETA                                         F 00000000 00000000N
041999061150030000001015TCARMEN FABIOLA MARTINEZ VEGA                                               F 00000000 00000000N
041999061150030000001016TCARLOS TORRES BARALLOBRE                                                   M 00000000 00000000N
041999061150030000001017TJAVIER TORRALBA DE LA FUENTE                                               M 00000000 00000000N
041999061150030000001018TMARIA TERESA SABIO FERREÑO                                                 F 00000000 00000000N
041999061150030000001019TJOSE ANTONIO SANDE GARCIA                                                  M 00000000 00000000N
041999061150030000001020TALEJANDRA MARIA ALVAREZ DE MON REGO                                        F 00000000 00000000N
041999061150030000001021TGEMA GONZALEZ ZAS                                                          F 00000000 00000000N
041999061150030000001022TMARIA DOLORES CORDERO TORRE                                                F 00000000 00000000N
041999061150030000001023TJESUS ALBERTO BRANDARIZ CAJIDE                                             M 00000000 00000000N
041999061150030000001024TPATRICIA ABALO SINDE                                                       F 00000000 00000000N
041999061150030000001025TMARCOS SANZ MORAS                                                          M 00000000 00000000N
041999061150030000001026TMARIA VAZQUEZ IGLESIAS                                                     F 00000000 00000000N
041999061150030000001027TNOELIA BARRO PENABAD                                                       F 00000000 00000000N
041999061150030000008001TXOSE HENRIQUE RAFAEL TELLO LEON                                            M 00000000 00000000S
041999061150030000008002TMARIO ANTONIO LOPEZ RICO                                                   M 00000000 00000000S
041999061150030000008003TMARGARIDA VAZQUEZ VERAS                                                    F 00000000 00000000S
041999061150030000008004TFRANCISCO XABIER PEÑA DIAZ                                                 M 00000000 00000000N
041999061150030000008005TMARIA DO CARME FERNANDEZ PEREZ-SANJULIAN                                   F 00000000 00000000N
041999061030014000160015TFRANCISCO ALONSO RUIZ PEREZ                                                M 00000000 00000000N
041999061030014000160016TANTONIO GARCIA PADILLO                                                     M 00000000 00000000N
041999061030014000160017TGLORIA RODRIGUEZ ROLDAN                                                    F 00000000 00000000N
041999061030014000160018TSERGIO JAVIER FELIPE SORIA                                                 M 00000000 00000000N
041999061030014000160019TGEMMA LEON BERENGUER                                                       F 00000000 00000000N
041999061030014000160020TPEDRO GARCIA RIPOLL                                                        M 00000000 00000000N
041999061030014000160021TJOAQUINA CASQUET GARCIA                                                    F 00000000 00000000N
041999061030014000160022TJOSE LUIS ACEDO RODRIGUEZ                                                  M 00000000 00000000N
041999061030014000160023TMONICA MORENO SECO                                                         F 00000000 00000000N
041999061030014000160024TJOSE LLAMAS QUEVEDO                                                        M 00000000 00000000N
041999061030014000160025TINMACULADA MONTAVA ALBEROLA                                                F 00000000 00000000N
041999061030014000160026TMANUEL SERRANO MARHUENDA                                                   M 00000000 00000000N
041999061030014000160027TMARIA TERESA MOLARES MORA                                                  F 00000000 00000000N
041999061030014000164001TABELARDO LLORET LOPEZ                                                      M 00000000 00000000N
041999061030014000164002TFRANCISCO MARCOS JUAN                                                      M 00000000 00000000N
041999061030014000164003TELVIRA GARCIAZABAL PASTOR                                                  F 00000000 00000000N
041999061030014000164004TABELARDO LLORET RIVERA                                                     M 00000000 00000000N
041999061030014000164005TJULIO JOSE RODRIGUEZ HERRERO                                               M 00000000 00000000N
041999061030014000164006TESTHER LLORET RIVERA                                                       F 00000000 00000000N
041999061030014000164007TNURIA MARIA MARCO ANGUIANO                                                 F 00000000 00000000N
041999061030014000164008TMARIA ISABEL VICENTE LOPEZ                                                 F 00000000 00000000N
041999061030014000164009TDOLORES RIVERA LOPEZ                                                       F 00000000 00000000N
041999061030014000164010TCARMEN COMPAÑY ESTEBAN                                                     F 00000000 00000000N
041999061030014000164011TFRANCISCO HERNANDEZ AVELLANEDA                                             M 00000000 00000000N
041999061030014000164012TJOSE MANUEL MARCO JUAN                                                     M 00000000 00000000N
041999061030014000164013TMARIA DOLORES RADIU CASANOVA                                               F 00000000 00000000N
041999061030014000164014TLIDIA ANA PICO BERNABEU                                                    F 00000000 00000000N
041999061030014000164015TDOLORES RUTH LLORET RIVERA                                                 F 00000000 00000000N
041999061030014000164016TCARMEN LIMIÑANA PARRA                                                      F 00000000 00000000N
041999061030014000164017TGORGE HOURANS KANAZE                                                       M 00000000 00000000N
041999061030014000164018TMONSERRAT CARRION EGEA                                                     F 00000000 00000000N
041999061030014000164019TSANDRA BELENGUER VALLS                                                     F 00000000 00000000N
041999061030014000164020TLOURDES MUÑOZ MULA                                                         F 00000000 00000000N
041999061030014000164021TISABEL LOPEZ GARCIA                                                        F 00000000 00000000N
041999061030014000164022TADRIAN BELENGUER VALLS                                                     M 00000000 00000000N
041999061030014000164023TENRIQUE JOSE PICO BERNABEU                                                 M 00000000 00000000N
041999061030014000164024TCARLOS DOMINGUEZ DELGADO                                                   M 00000000 00000000N
041999061030014000164025TFERNANDO PICO GARCIA                                                       M 00000000 00000000N
041999061030014000164026TALBINO DAVID AMARO LEDESMA                                                 M 00000000 00000000N
041999061030014000164027TVICENTE SANCHO PAUNER                                                      M 00000000 00000000N
041999061030014000165001TJOSE GOMEZ RODRIGUEZ                                                       M 00000000 00000000N
041999061030014000165002TANTONIO SALVADOR APARICI MAIQUEZ                                           M 00000000 00000000N
041999061030014000165003TLORENZO DIAZ PEDROCHE                                                      M 00000000 00000000N
041999061030014000165004THECTOR DEL BARRIO HINAREJOS                                                M 00000000 00000000N
041999061030014000165005TDOLORES SEGUI GASCO                                                        F 00000000 00000000N
041999061100037000001001TJOSE MARIA SAPONI MENDO                                                    M 00000000 00000000S
041999061100037000001002TMARIA TERESA BRAVO DURAN                                                   F 00000000 00000000S
041999061100037000001003TJOSE DIEGO SANTOS                                                          M 00000000 00000000S
041999061100037000001004TANDRES NEVADO PEÑA                                                         M 00000000 00000000S
041999061100037000001005TJOSE JOAQUIN RUMBO DE LA MONTAÑA                                           M 00000000 00000000S
041999061100037000001006TROSA MARIA FERNANDEZ PACHECO                                               F 00000000 00000000S
041999061100037000001007TLAZARO GARCIA AMADO                                                        M 00000000 00000000S
041999061100037000001008TJUAN DEL POZO CABALLERO                                                    M 00000000 00000000S
041999061100037000001009TMARIA BASILIA PIZARRO VALLE                                                F 00000000 00000000S
041999061300030000001015TJOSE ARCE PALLARES                                                         M 00000000 00000000S
041999061300030000001016TNURIA FUENTES GARCIA-LAX                                                   F 00000000 00000000S
041999061300030000001017TCRISTOBAL HERRERO MARTINEZ                                                 M 00000000 00000000S
041999061300030000001018TDIEGO CALDERON CAVA                                                        M 00000000 00000000S
041999061300030000002001TJOSE SALVADOR FUENTES ZORITA                                               M 00000000 00000000S
041999061300030000002002TJOSEFA FRUCTUOSO SANCHEZ                                                   F 00000000 00000000S
041999061300030000002003TJOSE ANTONIO GARCIA MARTINEZ                                               M 00000000 00000000S
041999061300030000002004TJOSE LUIS SANCHEZ ALEGRE                                                   M 00000000 00000000S
041999061300030000002005TFRANCISCO JAVIER OÑATE MARIN                                               M 00000000 00000000S
041999061300030000002006TMARIA DOLORES MARTINEZ GUILLEN                                             F 00000000 00000000S
041999061300030000002007TJOSE ANTONIO GARCIA BAÑOS                                                  M 00000000 00000000S
041999061300030000002008TJOSE MANUEL ABELLAN ABELLAN                                                M 00000000 00000000S
041999061300030000002009TMARIA CONCEPCION HERAS ELVIRA                                              F 00000000 00000000S
041999061300030000242001TCONCEPCION HERNANDEZ LOPEZ                                                 F 00000000 00000000S
041999061300030000242002TJOSE MANUEL LOPEZ ALBALADEJO                                               M 00000000 00000000S
041999061100037000001010TTEODORO CASADO SANCHEZ                                                     M 00000000 00000000S
041999061100037000001011TSANTOS PARRA AVIS                                                          M 00000000 00000000S
041999061100037000001012TFRANCISCO JAVIER CASTELLANO ALVAREZ                                        M 00000000 00000000S
041999061100037000001013TANGEL ARROYO GONZALEZ                                                      M 00000000 00000000S
041999061100037000001014TJOSE ANTONIO VILLA CORTES                                                  M 00000000 00000000S
041999061100037000001015TBELEN LOZANO ALIA                                                          F 00000000 00000000S
041999061100037000001016TRAIMUNDO HOLGADO CANTALEJO                                                 M 00000000 00000000N
041999061100037000001017TMARIA CRISTINA LEIRACHA NAYA                                               F 00000000 00000000N
041999061100037000001018TJUAN JOSE BERNALDEZ SOLANO                                                 M 00000000 00000000N
041999061100037000001019TPEDRO MURIEL MARTINEZ                                                      M 00000000 00000000N
041999061100037000001020TJOSE SOLIS MEMBRILLO                                                       M 00000000 00000000N
041999061100037000001021TRUFINA MARIA PASCUA NARANJO                                                F 00000000 00000000N
041999061100037000001022TMARIA DEL CARMEN PAREJO MARTIN                                             F 00000000 00000000N
041999061100037000001023TLUCIANO MANUEL MARTIN MERIDEÑO                                             M 00000000 00000000N
041999061100037000001024TAGUSTIN GARCIA GONZALEZ                                                    M 00000000 00000000N
041999061100037000001025TEMILIO GONZALEZ ZAMORA                                                     M 00000000 00000000N
041999061100037000002001TVICTORIANO RONCERO RODRIGUEZ                                               M 00000000 00000000S
041999061100037000002002TFRANCISCO JAVIER PIZARRO GOMEZ                                             M 00000000 00000000S
041999061100037000002003TMARIA DEL PILAR MERCHAN VEGA                                               F 00000000 00000000S
041999061100037000002004TANA MARIA GARRIDO CHAMORRO                                                 F 00000000 00000000S
041999061100037000002005TJOSE CARLOS FRANCO MURIEL                                                  M 00000000 00000000S
041999061100037000002006TNIEVES PORTAL SANCHEZ                                                      F 00000000 00000000S
041999061100037000002007TJOSE IGNACIO FERNANDEZ GOMEZ                                               M 00000000 00000000S
041999061100037000002008TJOSE CARLOS GUARDIOLA MARTIL                                               M 00000000 00000000S
041999061100037000002009TJOSE CARLOS JURADO RIVAS                                                   M 00000000 00000000S
041999061100037000002010TLEIRE IGLESIAS SANTIAGO                                                    F 00000000 00000000N
041999061100037000002011TVICTOR MANUEL ZARCO LORA                                                   M 00000000 00000000N
041999061100037000002012TDOMINGO BENITO PULIDO GALAN                                                M 00000000 00000000N
041999061100037000002013TJOSE ANTONIO GARCIA MUÑOZ                                                  M 00000000 00000000N
041999061100037000002014TROSA MARIA GRANADO NUFRIO                                                  F 00000000 00000000N
041999061100037000002015TVENANCIO GOMEZ RODRIGUEZ                                                   M 00000000 00000000N
041999061100037000002016TMARIA DEL CARMEN ALONSO DIAZ                                               F 00000000 00000000N
041999061100037000002017TCATALINA MORENO MORGADO                                                    F 00000000 00000000N
041999061100037000002018TJOSE CATALAN CORCHADO                                                      M 00000000 00000000N
041999061100037000002019TJESUS MANSO MONTES                                                         M 00000000 00000000N
041999061100037000002020TMARIA DE LA MONTAÑA DEL CAMPO CEBRIAN                                      F 00000000 00000000N
041999061100037000002021TFRANCISCO JAVIER AVILA VACA                                                M 00000000 00000000N
041999061100037000002022TOLGA RAMOS RAMOS                                                           F 00000000 00000000N
041999061100037000002023TVICTOR SANTIAGO TABARES                                                    M 00000000 00000000N
041999061100037000002024TMARIA DEL CARMEN CASTELLANO MARTIN                                         F 00000000 00000000N
041999061100037000002025TPEDRO TEJADO DEL ARCO                                                      M 00000000 00000000N
041999061100037000015001TFRANCISCO ESPADA HERRERA                                                   M 00000000 00000000N
041999061100037000015002TMARIA GUADALUPE VICTORIA DIAZ MARTIN                                       F 00000000 00000000N
041999061100037000015003TJORGE DURAN DOMINGUEZ                                                      M 00000000 00000000N
041999061100037000015004TFRANCISCO JAVIER VALDUEZA PRIETO                                           M 00000000 00000000N
041999061100037000015005TMANUEL DIAZ LINDO                                                          M 00000000 00000000N
041999061100037000015006TMARIA ELSA CORDERO ROMAN                                                   F 00000000 00000000N
041999061280058000001004TANTONIO PACHECO ARRONDO                                                    M 00000000 00000000S
041999061280058000001005TALFONSO POLO GARCIA                                                        M 00000000 00000000S
041999061280058000001006TMARIA DE LAS NIEVES CAÑAS SEOANE                                           F 00000000 00000000S
041999061280058000001007TDOLORES TRINIDAD GIL                                                       F 00000000 00000000S
041999061280058000002001TJOSE QUINTANA VIAR                                                         M 00000000 00000000S
041999061280058000002002TMANUEL ROBLES DELGADO                                                      M 00000000 00000000S
041999061280058000002003TLUCILA MARIA CORRAL RUIZ                                                   F 00000000 00000000S
041999061280058000002004TJOSE LUIS DAZA SOMOLINOS                                                   M 00000000 00000000S
041999061280058000002005TJULIO CRESPO SANTOS                                                        M 00000000 00000000S
041999061280058000002006TROSALINA GUIJARRO LOPEZ                                                    F 00000000 00000000S
041999061280058000002007TJOSE SANTIAGO SANCHEZ LUQUE                                                M 00000000 00000000S
041999061280058000002008TISABEL MARIA BARRIENTOS BURGUILLOS                                         F 00000000 00000000S
041999061280058000002009TMARIA LUISA GONZALEZ BLAS                                                  F 00000000 00000000S
041999061280058000002010TADRIAN PEDRO CARLOS MARTIN DIEZ                                            M 00000000 00000000S
041999061280058000002011TCARMEN BONILLA MARTINEZ                                                    F 00000000 00000000S
041999061280058000002012TFELIPE DEL POZO MONTES                                                     M 00000000 00000000S
041999061280058000002013TJOSE BORRAS HERNANDEZ                                                      M 00000000 00000000S
041999061280058000002014TESPERANZA PINILLA VILLAVERDE                                               F 00000000 00000000S
041999061280058000002015TFRANCISCO JAVIER AYALA ORTEGA                                              M 00000000 00000000S
041999061280058000002016TFRANCISCO ISMAEL SANCHEZ FALCON                                            M 00000000 00000000S
041999061280058000002017TMARIA ESPERANZA MALUENDA DE CABO                                           F 00000000 00000000S
041999061280058000002018TJOSE MANUEL SIMANCAS JIMENEZ                                               M 00000000 00000000S
041999061280058001825001TJOSE MARIA DOMINGUEZ GARCIA                                                M 00000000 00000000S
041999061280058001825002TJUAN CARLOS JURADO SALTARELLI                                              M 00000000 00000000S
041999061280065000001001TJOSE LUIS MORENO TORRES                                                    M 00000000 00000000S
041999061280065000001002TCARLOS GONZALEZ PEREIRA                                                    M 00000000 00000000S
041999061280065000001003TMARIA DEL CARMEN PLATA ESTEBAN                                             F 00000000 00000000S
041999061280065000001004TCESAR TOMAS MARTIN MORALES                                                 M 00000000 00000000S
041999061280065000001005TJOSE LUIS VICENTE PALENCIA                                                 M 00000000 00000000S
041999061280065000001006TJUSTO VAZQUEZ MARCOS                                                       M 00000000 00000000S
041999061280065000001007TANA BELEN PAREJA SANZ                                                      F 00000000 00000000S
041999061280065000001008TIRENE ARIAS GUILLEN                                                        F 00000000 00000000S
041999061280065000001009TSUSANA DIAZ MORENO                                                         F 00000000 00000000S
041999061130034000001008TROSA MARIA ROMERO SANCHEZ                                                  F 00000000 00000000S
041999061130034000001009TRAFAEL ROMERO CARDENAS                                                     M 00000000 00000000S
041999061130034000001010TFRANCISCO JAVIER ALEJO LAGUNA SANT                                         M 00000000 00000000S
041999061130034000001011TJUAN RAMON BARBA CAPILLA                                                   M 00000000 00000000S
041999061130034000001012THELENA LOPEZ GOMEZ CASTRILLON                                              F 00000000 00000000S
041999061130034000001013TMIGUEL ANGEL RODRIGUEZ GONZALEZ                                            M 00000000 00000000S
041999061130034000001014TMARIA DEL CARMEN SANCHO FUENTES                                            F 00000000 00000000S
041999061130034000001015TRAMON BARREDA FONTES                                                       M 00000000 00000000S
041999061130034000001016TMARIA DEL PRADO MUÑOZ CARO                                                 F 00000000 00000000N
041999061130034000001017TMARIA DEL PRADO CARDENAS GUZMAN                                            F 00000000 00000000N
041999061130034000001018TINES CAMPILLO VELASCO                                                      F 00000000 00000000N
041999061130034000001019TFRANCISCO JAVIER MORALES HERVAS                                            M 00000000 00000000N
041999061130034000001020TFRANCISCO CAÑIZARES JIMENEZ                                                M 00000000 00000000N
041999061130034000001021TMARIA MONSERRAT PEREZ RUIZ                                                 F 00000000 00000000N
041999061130034000001022TMARIA DEL PRADO CELESTINO REY                                              F 00000000 00000000N
041999061130034000001023TJOSE MAYOR RIOS                                                            M 00000000 00000000N
041999061130034000001024TRAIMUNDO GARRIDO GARRANCHO                                                 M 00000000 00000000N
041999061130034000001025TANGEL GARCIA MARTIN                                                        M 00000000 00000000N
041999061130034000032001TCANDIDO JOSE GOMEZ SANCHEZ                                                 M 00000000 00000000N
041999061130034000032002TANTONIO MARTIN PEREZ                                                       M 00000000 00000000N
041999061130034000032003TANTONIO ALBA HIDALGO                                                       M 00000000 00000000N
041999061130034000032004TMARGARITA SANCHEZ MATEOS MUÑOZ                                             F 00000000 00000000N
041999061130034000032005TFRANCISCA MAROTO RODRIGUEZ                                                 F 00000000 00000000N
041999061130034000032006TARANZAZU INDURRIA JIMENEZ                                                  F 00000000 00000000N
041999061130034000032007TLUIS ARIA ALAMINOS                                                         M 00000000 00000000N
041999061130034000032008TANTONIO NARVAEZ DE LAS HERAS                                               M 00000000 00000000N
041999061130034000032009TJUANA LEAL MORALES                                                         F 00000000 00000000N
041999061130034000032010TGLORIA TORRECILLA GONZALEZ                                                 F 00000000 00000000N
041999061130034000032011TPATRICIA LOPEZ UGARTE                                                      F 00000000 00000000N
041999061130034000032012TJAVIER SANCHEZ LADRON DE GUEVARA                                           M 00000000 00000000N
041999061130034000032013TANGEL GONZALEZ DIAZ CARRELERO                                              M 00000000 00000000N
041999061130034000032014TFRANCISCO JAVIER SAN JOSE HERRERO                                          M 00000000 00000000N
041999061130034000032015TMARIA ISABEL SANCHEZ PAULETE LOGROÑO                                       F 00000000 00000000N
041999061130034000032016TPAULA GARCIA ARGUINSONIS                                                   F 00000000 00000000N
041999061130034000032017TMARGARITA ARGUINSONIS UGUINA                                               F 00000000 00000000N
041999061130034000032018TMYRTA CARMEN ESPINOSA SANTANDER                                            F 00000000 00000000N
041999061130034000032019TIVAN ALIAGA RAMOS                                                          M 00000000 00000000N
041999061130034000032020TMARIA DEL CARMEN LOPEZ LEON                                                F 00000000 00000000N
041999061130034000032021TMARIA AVECILLA ESPINOSA                                                    F 00000000 00000000N
041999061130034000032022TMARIA DEL MAR BLANCA MARTINEZ                                              F 00000000 00000000N
041999061130034000032023TALEJANDRO MORENO IGLESIAS                                                  M 00000000 00000000N
041999061130034000032024TMARIA BUENO LOPEZ                                                          F 00000000 00000000N
041999061130034000032025TJOAQUIN CAÑETE GUERRERO                                                    M 00000000 00000000N
041999061130034000038001TMANUEL MUÑOZ GALLEGO                                                       M 00000000 00000000N
041999061130034000038002TJOSE LUIS FERNANDO ALVAREZ ROCHE                                           M 00000000 00000000N
041999061130034000038003TRAMON CHICO LOPEZ                                                          M 00000000 00000000N
041999061130034000038004TJOSE LUIS FLORES MONTES                                                    M 00000000 00000000N
041999061130034000038005TISIDORA DIAZ DEL CASTILLO HERNANDEZ                                        F 00000000 00000000N
041999061130034000038006TMARIA TERESA AGUILAR PALACIOS                                              F 00000000 00000000N
041999061130034000038007TJUAN GALLARDO GONZALEZ                                                     M 00000000 00000000N
041999061130034000038008TFELICIA MARIA ESCOBAR HERVAS                                               F 00000000 00000000N
041999061130034000038009TMARIA ISABEL GALLARDO CRUZ                                                 F 00000000 00000000N
041999061130034000038010TJOSE CARLOS SHINN REIGOSA                                                  M 00000000 00000000N
041999061130034000038011TMARIA DOLORES LOPEZ LOPEZ                                                  F 00000000 00000000N
041999061130034000038012TJENARO REDERO PRIETO                                                       M 00000000 00000000N
041999061130034000038013TENRIQUE NUÑEZ DE ARENAS ROS                                                M 00000000 00000000N
041999061130034000038014TANTONIO ARROYO GIMENEZ                                                     M 00000000 00000000N
041999061130034000038015TMARIA ELENA SALGADO MUÑOZ                                                  F 00000000 00000000N
041999061130034000038016TANGEL DEL HOYO BORDALLO                                                    M 00000000 00000000N
041999061200069000001001TMARIA SAN GIL NOAIN                                                        F 00000000 00000000S
041999061200069000001002TMARIA JOSE VILLAR RODRIGUEZ DE HINOJOSA                                    F 00000000 00000000S
041999061200069000001003TENRIQUE JOSE VILLAR RODRIGUEZ DE HINOJOSA                                  M 00000000 00000000S
041999061200069000001004TCARLOS SANCHO COSCOLLUELA                                                  M 00000000 00000000S
041999061200069000001005TFRANCISCO JAVIER URBISTONDO PARDOS                                         M 00000000 00000000S
041999061200069000001006TRAMON GOMEZ UGALDE                                                         M 00000000 00000000S
041999061200069000007001TJOSEBA PERMACH MARTIN                                                      M 00000000 00000000S
041999061200069000007002TKARLOS TRENOR DICENTA                                                      M 00000000 00000000S
041999061200069000007003TMIREN ZINKUNEGI ARRILLAGA                                                  F 00000000 00000000S
041999061200069000007004TKRISTINA GETE ETXEBERRIA                                                   F 00000000 00000000S
041999061200069000007005TMAIDER ALUSTIZA LASA                                                       F 00000000 00000000S
041999061200069000065001TODON ELORZA GONZALEZ                                                       M 00000000 00000000S
041999061200069000065002TRAMON ETXEZARRETA AIZPURU                                                  M 00000000 00000000S
041999061200069000065003TSUSANA CORCUERA LENUDA                                                     F 00000000 00000000S
041999061200069000065004TERNESTO GASCO GONZALO                                                      M 00000000 00000000S
041999061200069000065005TARRITOKIETA MARAÑON BASARTE                                                F 00000000 00000000S
041999061200069000065006TJORGE JUAN LETAMENDIA BELZUNCE                                             M 00000000 00000000S
041999061200069000065007TMARIA ARANTZA ARISTONDO ARAMBURU                                           F 00000000 00000000S
041999061200069000065008TALBERTO RODRIGUEZ BARDON                                                   M 00000000 00000000S
041999061200069000065009TENRIQUE RAMOS VISPO                                                        M 00000000 00000000S
041999061200069001477001TENRIQUE ARANA ARREGI                                                       M 00000000 00000000S
041999061200069001477002TKORO GARMENDIA GALBETE                                                     F 00000000 00000000S
041999061200069001477003TIÑAKI BARRIOLA ETXEBERRIA                                                  M 00000000 00000000S
041999061200069001477004TGURUTZ LARRAÑAGA ZUBIZARRETA                                               M 00000000 00000000S
041999061200069001477005TJOSU MIRENA RUIZ MARTIN                                                    M 00000000 00000000S
041999061200069001477006TMIKEL ITURBE OTAEGI                                                        M 00000000 00000000S
041999061200069001477007TRICARDO BURUTARAN FERRE                                                    M 00000000 00000000S
041999061130034000038017TSARA ALVAREZ MARTINEZ                                                      F 00000000 00000000N
041999061130034000038018TMANUEL RODRIGO DONATE                                                      M 00000000 00000000N
041999061130034000038019TLUIS ANTONIO NAVARRO NAVARRO                                               M 00000000 00000000N
041999061130034000038020TRAQUEL MARIA CAMACHO PASCUAL                                               F 00000000 00000000N
041999061130034000038021TRAMON CAMILO ALEN VAZQUEZ                                                  M 00000000 00000000N
041999061130034000038022TJOSE LUIS ALBALATE RINCON                                                  M 00000000 00000000N
041999061130034000038023TLUIS JURADO ARINES                                                         M 00000000 00000000N
041999061130034000038024TANTONIO JESUS RUIZ DIAZ                                                    M 00000000 00000000N
041999061130034000038025TRAMON ALEN VAZQUEZ                                                         M 00000000 00000000N
041999061130034000117001TESTER LUISA NIETO MORENO DE DIEZMAS                                        F 00000000 00000000N
041999061130034000117002TFRANCISCO SALCEDO GARCIA                                                   M 00000000 00000000N
041999061130034000117003TFRANCISCO JAVIER GARCIA MONTERO                                            M 00000000 00000000N
041999061130034000117004TPATRICIA GUERRERO AMORES                                                   F 00000000 00000000N
041999061130034000117005TMARIA DE LAS MERCEDES CABALLERO CASTRO                                     F 00000000 00000000N
041999061130034000117006TMARIA JOSEFA ROMERO EXPOSITO                                               F 00000000 00000000N
041999061130034000117007TANGEL MANUEL RAMOS BARAHONA                                                M 00000000 00000000N
041999061130034000117008TAGUSTIN ANTONIO MARIN MORALES                                              M 00000000 00000000N
041999061130034000117009TVIRGINIA DEL HOYO DELGADO                                                  F 00000000 00000000N
