071994061999999000001001TLUIS FERNANDO SANCHEZ CACERES                                               000000000000000000N
071994061999999000001010TFRANCISCO ESPADA HERRERA                                                    000000000000000000N
071994061999999000001011TMARIA JESUS SANCHEZ HERNANDEZ                                               000000000000000000N
071994061999999000001012TMARIA FELICIDAD MANZANERO QUELART                                           000000000000000000N
071994061999999000001013TSANDALIO PEROMINGO GAMINO                                                   000000000000000000N
071994061999999000001014TFLORENCIO LOPEZ IGLESIAS                                                    000000000000000000N
071994061999999000001015TANTONIO POLO SOLANA                                                         000000000000000000N
071994061999999000001016TMIGUEL CRISTO SANCHEZ                                                       000000000000000000N
071994061999999000001017TTOMAS CABALLERO TORINOS                                                     000000000000000000N
071994061999999000001018TFERNANDO BENITEZ BONILLA                                                    000000000000000000N
071994061999999000001019TJESUS ANDRES DE JORGE LUIS                                                  000000000000000000N
071994061999999000001002TPEDRO CAÑADA CASTILLO                                                       000000000000000000N
071994061999999000001020TROSA LEAL NEVADO                                                            000000000000000000N
071994061999999000001021TANGEL MUÑOZ GONZALEZ                                                        000000000000000000N
071994061999999000001022TEMILIO JOSE VACA ALCANTARA                                                  000000000000000000N
071994061999999000001023TPEDRO JOSE BLANCO BLASCO                                                    000000000000000000N
071994061999999000001024TCARLOS TORRES-CABRERA CASILLAS                                              000000000000000000N
071994061999999000001025TANTONIO NUÑEZ SANCHEZ                                                       000000000000000000N
071994061999999000001026TJERONIMO MAESTRE ENGRACIA                                                   000000000000000000N
071994061999999000001027TAURELIO FERNANDEZ DE LOS SANTOS                                             000000000000000000N
071994061999999000001028TMARIA VICTORIA VALLE PEREZ                                                  000000000000000000N
071994061999999000001029TJUAN GOMEZ PAREJO                                                           000000000000000000N
071994061999999000001003TJOSE LUIS PODEROSO CORTIJO                                                  000000000000000000N
071994061999999000001030TRAFAEL DE PABLO CAÑADA                                                      000000000000000000N
071994061999999000001031TURSICIO JARAIZ GARCIA                                                       000000000000000000N
071994061999999000001032TBRIGIDO PAJUELO PEÑA                                                        000000000000000000N
071994061999999000001033TCARLOS GAÑAN GUTIERREZ                                                      000000000000000000N
071994061999999000001034TJUAN MIGUEL ALVAREZ MANUEL                                                  000000000000000000N
071994061999999000001035TFRANCISCO JAVIER RODRIGUEZ SOLIS                                            000000000000000000N
071994061999999000001036TEPIFANIO PANIAGUA POZANCO                                                   000000000000000000N
071994061999999000001037TANTONIO TORRES CLAVERO                                                      000000000000000000N
071994061999999000001038TFLORENTINO CABALLERO ALEJANDRO                                              000000000000000000N
071994061999999000001039TLUIS MEANA BAEZA                                                            000000000000000000N
071994061999999000001004TISMAEL GARCIA LOPEZ                                                         000000000000000000N
071994061999999000001040TMARCELINO MATIAS IGLESIAS                                                   000000000000000000N
071994061999999000001041TPEDRO LEDO SANCHEZ                                                          000000000000000000N
071994061999999000001042TMARIA DEL CARMEN HERNANDEZ BONILLA                                          000000000000000000N
071994061999999000001043TJOSEFA TEJADA DOMINGUEZ                                                     000000000000000000N
071994061999999000001044TFLORES CASTRO CLAVER                                                        000000000000000000N
071994061999999000001045TANGEL ROA JIMENEZ                                                           000000000000000000N
071994061999999000001046TANDRES BONILLA CARRASCO                                                     000000000000000000N
071994061999999000001047TESPERANZA ANDRES CARRERO                                                    000000000000000000N
071994061999999000001048TMARIA FLORENTINA HERRERA MARCOS                                             000000000000000000N
071994061999999000001049TGABRIEL MARTINEZ CANTERO                                                    000000000000000000N
071994061999999000001005TFELIX RINCON GONZALEZ                                                       000000000000000000N
071994061999999000001050TRODRIGO MUÑOZ PEREZ                                                         000000000000000000N
071994061999999000001051TMARIA DEL PILAR DE CASAS MARTIN                                             000000000000000000N
071994061999999000001052TJOSE LUIS RODRIGUEZ VAQUERO                                                 000000000000000000N
071994061999999000001053TJOSE ANTONIO MEDINA LEO                                                     000000000000000000N
071994061999999000001054TFERNANDO TOBAJAS CAÑADA                                                     000000000000000000N
071994061999999000001055TANA MARIA MUNICIO SANDOVAL                                                  000000000000000000N
071994061999999000001056TMARIA DEL CARMEN BUENO JUANES                                               000000000000000000N
071994061999999000001057TMARIA JESUS JARAIZ GONZALEZ                                                 000000000000000000N
071994061999999000001058TIGNACIO LOYOLA CRISOLINO SANCHEZ                                            000000000000000000N
071994061999999000001059TANTONIO TORRES LUQUE                                                        000000000000000000N
071994061999999000001006TFERNANDO VELOSO OBREGON                                                     000000000000000000N
071994061999999000001060TMARIA FLOR CORON MANUEL                                                     000000000000000000N
071994061999999000001061TEULOGIO CUECO PRIETO                                                        000000000000000000N
071994061999999000001062TMANUEL FERNANDEZ GONZALEZ                                                   000000000000000000N
071994061999999000001063TJESUS MARIA CHORRO SANCHEZ                                                  000000000000000000N
071994061999999000001064TFERNANDO MANUEL BUENO ANDRES                                                000000000000000000N
071994061999999000001007TPLACIDO JEREMIAS RUEDA CERRUDO                                              000000000000000000N
071994061999999000001008TPEDRO BOTE BONILLA                                                          000000000000000000N
071994061999999000001009TPABLO GUERRERO GONZALEZ                                                     000000000000000000N
071994061999999000002001TJOSU JON IMAZ SAN MIGUEL (EAJ-PNV)                                          000000000000000000S
071994061999999000002010TELISARDO SANCHIS SANCHO(PAR)                                                000000000000000000N
071994061999999000002011TJUAN JOSE IBARRECHE MARCUARTU (EAJ-PNV)                                     000000000000000000N
071994061999999000002012TFERNANDO GONZALEZ SANTANA(CC)                                               000000000000000000N
071994061999999000002013TJORGE PUCHADES IBAÑEZ(UV)                                                   000000000000000000N
071994061999999000002014TLUIS MIGUEL MELER LLORENTE (PAR)                                            000000000000000000N
071994061999999000002015TJOSE LUIS ECHEGARAY ANDUEZA(EAJ-PNV)                                        000000000000000000N
071994061999999000002016TANTONIO JOSE LANTIGUA SUAREZ (CC)                                           000000000000000000N
071994061999999000002017TJOAQUIN GALCERA ESTEVE (UV)                                                 000000000000000000N
071994061999999000002018TROSA MARIA MATEO ARANA(PAR)                                                 000000000000000000N
071994061999999000002019TCARMEN RODAS GIL (CG)                                                       000000000000000000N
071994061999999000002002TISIDORO SANCHEZ GARCIA (CC)                                                 000000000000000000S
071994061999999000002020TJOSE MARIA MUÑOA GANUZA(EAJ-PNV)                                            000000000000000000N
071994061999999000002021TJUAN GONZALEZ MARTIN(CC)                                                    000000000000000000N
071994061999999000002022TCIPRIANO FLUIXA CASTELLO(UV)                                                000000000000000000N
071994061999999000002023TALFREDO CAJAL GAVIN(PAR)                                                    000000000000000000N
071994061999999000002024TELENA IBAÑEZ ANUNCIBAY(EAJ-PNV)                                             000000000000000000N
071994061999999000002025TJOSE MIGUEL BARRAGAN CABRERA(CC)                                            000000000000000000N
071994061999999000002026TMARIA FRANCE ESCRIVA MOLINER(UV)                                            000000000000000000N
071994061999999000002027TJOSE LUIS ABENIA PARDOS(PAR)                                                000000000000000000N
071994061999999000002028TJOSEBA MIKEL ARIETA-ARAUNABEÑA BUSTINZA (EAJ-PNV)                           000000000000000000N
071994061999999000002029TESTEBAN BETHENCOURT GAMEZ(CC)                                               000000000000000000N
071994061999999000002003TALFONSO NOVO BELENGUER(UV)                                                  000000000000000000N
071994061999999000002030TJOSE LUIS JARQUE ALMELA(UV)                                                 000000000000000000N
071994061999999000002031TANGEL GARCIA GRACIA(PAR)                                                    000000000000000000N
071994061999999000002032TSANTIAGO BALAGUER ALBERTI(UM)                                               000000000000000000N
071994061999999000002033TJOXE JOAN GONZALEZ DE CHAVARRI MIRANDA (EAJ-PNV)                            000000000000000000N
071994061999999000002034TMANUEL NICOLAS GONZALEZ DIAZ (CC)                                           000000000000000000N
071994061999999000002035TFERNANDO DE ROJAS MARTINEZ-PARETS (UV)                                      000000000000000000N
071994061999999000002036TJAVIER SAGARRA DE MOOR (PAR)                                                000000000000000000N
071994061999999000002037TGABINO MARTINEZ DE ARENAZA ARRIETA (EAJ-PNV)                                000000000000000000N
071994061999999000002038TFERNAN BRAVO LOPEZ(CC)                                                      000000000000000000N
071994061999999000002039TLORENA FERRANDIS NAVARRO(UV)                                                000000000000000000N
071994061999999000002004TMANUEL ESCOLA HERNANDO(PAR)                                                 000000000000000000N
071994061999999000002040TISABEL LEGUINA VILLA(PAR)                                                   000000000000000000N
071994061999999000002041TJOSE ANTONIO URBIOLA MACHINANDIARENA (EAJ-PNV)                              000000000000000000N
071994061999999000002042TCARMELO VEGA ESPADA (CC)                                                    000000000000000000N
071994061999999000002043TJOSE ANTONIO RUBIO MARTIN (UV)                                              000000000000000000N
071994061999999000002044TFERNANDO CAVERO LOPEZ(PAR)                                                  000000000000000000N
071994061999999000002045TENRIQUE GEADA ARCA(CG)                                                      000000000000000000N
071994061999999000002046TJONE FERNANDEZ RODRIGO (EAJ-PNV)                                            000000000000000000N
071994061999999000002047TMIGUEL ANGEL PULIDO RODRIGUEZ (CC)                                          000000000000000000N
071994061999999000002048TPASCUAL RUIZ MARQUES(UV)                                                    000000000000000000N
071994061999999000002049TJUAN MIGUEL FERRER GORRIZ(PAR)                                              000000000000000000N
071994061999999000002005TJOSE POSADA GONZALEZ(CG)                                                    000000000000000000N
071994061999999000002050TERKUDEN GOICOECHEA ASCORBE(EAJ-PNV)                                         000000000000000000N
071994061999999000002051TEUGENIO CABRERA MONTELONGO(CC)                                              000000000000000000N
071994061999999000002052TANTONIO TUR LLEDO (UV)                                                      000000000000000000N
071994061999999000002053TJAVIER ALVO AGUADO(PAR)                                                     000000000000000000N
071994061999999000002054TPEDRO ARBIZU PAMIES(EAJ-PNV)                                                000000000000000000N
071994061999999000002055TJUAN PEDRO DAVILA GARCIA(CC)                                                000000000000000000N
071994061999999000002056TVALERO EUSTAQUIO JUAN(UV)                                                   000000000000000000N
071994061999999000002057TJUAN ANTONIO BOLEA FORADADA(PAR)                                            000000000000000000N
071994061999999000002058TFRANCISCO JAVIER BUILS HUGUET(UM)                                           000000000000000000N
071994061999999000002059TSANTIAGO CARIÑANOS MARTINEZ(EAJ-PNV)                                        000000000000000000N
071994061999999000002006TBARTOMEU CALAFELL SALOM(UM)                                                 000000000000000000N
071994061999999000002060TRAMON JOSE CORREA MAGDALENA(CC)                                             000000000000000000N
071994061999999000002061TRAFAEL NAVARRO FERRER (UV)                                                  000000000000000000N
071994061999999000002062TJOSE MARIA MUR BERNAD(PAR)                                                  000000000000000000N
071994061999999000002063TARANTZA GOENAGA BATALLA(EAJ-PNV)                                            000000000000000000N
071994061999999000002064TJERONIMO FREGEL PEREZ (CC)                                                  000000000000000000N
071994061999999000002007TANDONI GAMBOA MARTINEZ(EAJ-PNV)                                             000000000000000000N
071994061999999000002008TJESUS JOSE GOMEZ RODRIGUEZ(CC)                                              000000000000000000N
071994061999999000002009TJUAN CARLOS MOLINA ALBERT(UV)                                               000000000000000000N
071994061999999000004001TALONSO JOSE PUERTA GUTIERREZ                                                000000000000000000S
071994061999999000004010TABDELKADER MOHAMED ALI                                                      000000000000000000N
071994061999999000004011TMARIA DEL CARMEN PERALTA BALLESTEROS                                        000000000000000000N
071994061999999000004012TANDONI PEREZ AYALA                                                          000000000000000000N
071994061999999000004013TMARIA DEL PILAR RAMONA MARTINEZ GONZALEZ                                    000000000000000000N
071994061999999000004014TJOSE LUIS SANCHEZ MAESO                                                     000000000000000000N
071994061999999000004015TANGELINA PUIG VALLS                                                         000000000000000000N
071994061999999000004016TFELIX RUBIO FERRER                                                          000000000000000000N
071994061999999000004017TALONSO RODRIGUEZ GOMEZ                                                      000000000000000000N
071994061999999000004018TEMILIO JOSE CARRERA GONZALEZ                                                000000000000000000N
071994061999999000004019TMIGUEL ANGEL CABEZA RODRIGUEZ                                               000000000000000000N
071994061999999000004002TANTONI GUTIERREZ DIAZ                                                       000000000000000000S
071994061999999000004020TION IÑAKI ERRO ARMENDARIZ                                                   000000000000000000N
071994061999999000004021TMARIA TERESA MOLA SAINZ                                                     000000000000000000N
071994061999999000004022TJUAN PRADAS ORTIZ                                                           000000000000000000N
071994061999999000004023TMARIA BEGOÑA SAN JOSE SERRAN                                                000000000000000000N
071994061999999000004024TJOSE MARIA CAMPOS FERNANDEZ                                                 000000000000000000N
071994061999999000004025TJOSE PAMIES BERTRAN                                                         000000000000000000N
071994061999999000004026TJOSE VICENTE HERRERO CAMARA                                                 000000000000000000N
071994061999999000004027TJUAN JOSE MONTES GARCIA                                                     000000000000000000N
071994061999999000004028TSANTIAGO SANCHEZ VICENTE                                                    000000000000000000N
071994061999999000004029TPAULA FERNANDEZ PAREJA                                                      000000000000000000N
071994061999999000004003TLAURA GONZALEZ ALVAREZ                                                      000000000000000000S
071994061999999000004030TFRANCISCO JOSE GONZALEZ REMON                                               000000000000000000N
071994061999999000004031TJUSTO JULIO SOTO SUAREZ                                                     000000000000000000N
071994061999999000004032TCONCEPCION HERNANDEZ LOPEZ                                                  000000000000000000N
071994061999999000004033TMARIA LOURDES FERNANDEZ SANCHEZ                                             000000000000000000N
071994061999999000004034TMANUEL EUGENIO FARIÑA DOVAL                                                 000000000000000000N
071994061999999000004035TFRANCISCO JAVIER DE CASTRO ESTEBAN                                          000000000000000000N
071994061999999000004036TMARIA DOLORES COMAS DE ARGEMIR CENDRA                                       000000000000000000N
071994061999999000004037TSERGI MARI PONS                                                             000000000000000000N
071994061999999000004038TELENA CORTES JIMENEZ                                                        000000000000000000N
071994061999999000004039TMARIA ROSA RODRIGUEZ MORALES                                                000000000000000000N
071994061999999000004004TMARIA SORNOSA MARTINEZ                                                      000000000000000000S
071994061999999000004040TANGEL PALACIOS MUZQUIZ                                                      000000000000000000N
071994061999999000004041TALEJANDRA HEMINGWAY CLEMINSON                                               000000000000000000N
071994061999999000004042TMONSERRAT VENDRELL GARDEÑES                                                 000000000000000000N
071994061999999000004043TMANUEL FRANCISCO ALCARAZ RAMOS                                              000000000000000000N
071994061999999000004044TEMILIO PEREZ CALLEJON                                                       000000000000000000N
071994061999999000004045TCLARA ISABEL CALVO SALAMANCA                                                000000000000000000N
071994061999999000004046TFEDERICO PRIETO CABALLE                                                     000000000000000000N
071994061999999000004047TTERESA LOPEZ-LAGO VINIEGRA                                                  000000000000000000N
071994061999999000004048TANA TERESA MORALES UMPIERREZ                                                000000000000000000N
071994061999999000004049TANTONIO GABRIEL CAÑADAS GARCIA                                              000000000000000000N
071994061999999000004005TMARIA JESUS ARAMBURU DEL RIO                                                000000000000000000S
071994061999999000004050TPEDRO TOME MARTIN                                                           000000000000000000N
071994061999999000004051TANA MARIA LIÑARES PEREZ                                                     000000000000000000N
071994061999999000004052TISABEL LOPEZ AULESTIA                                                       000000000000000000N
071994061999999000004053TLUISA MARIA SANCHEZ ORELLANA                                                000000000000000000N
071994061999999000004054TMARTA LATORRE ENVIZ                                                         000000000000000000N
071994061999999000004055TMARIA ESTRELLA PARDO PEREZ                                                  000000000000000000N
071994061999999000004056TDAVIDE DI PAOLA                                                             000000000000000000N
071994061999999000004057TMARIA ANGELS ESPUNY SOLE                                                    000000000000000000N
071994061999999000004058TMARIA LUISA BERGAZ CONESA                                                   000000000000000000N
071994061999999000004059TMARIA TERESA NEVADO BUENO                                                   000000000000000000N
071994061999999000004006TSALVADOR JOVE PERES                                                         000000000000000000S
071994061999999000004060TMARIA ROSA PUIG OCHOA                                                       000000000000000000N
071994061999999000004061TMARIA DEL CARMEN RUBIO PEREZ                                                000000000000000000N
071994061999999000004062TRAUL ROMEVA RUEDA                                                           000000000000000000N
071994061999999000004063TMARIA ISABEL GARCIA MURIEL                                                  000000000000000000N
071994061999999000004064TTERESA DOMINGO SEGARRA                                                      000000000000000000N
071994061999999000004007TCARLOS CARNERO GONZALEZ                                                     000000000000000000S
071994061999999000004008TANGELA DEL CARMEN SIERRA GONZALEZ                                           000000000000000000S
071994061999999000004009TPEDRO MARSET CAMPOS                                                         000000000000000000S
071994061999999000005001TJOSE CARLOS RUBIERA TUYA                                                    000000000000000000N
071994061999999000005010TMARIA BEGOÑA GONZALEZ GARCIA                                                000000000000000000N
071994061999999000005011TLUIS ANTONIO GONZALEZ FERNANDEZ                                             000000000000000000N
071994061999999000005012TMARIA JESUS SUAREZ DE LA VILLA                                              000000000000000000N
071994061999999000005013TAVELINO VALDES FERNANDEZ                                                    000000000000000000N
071994061999999000005014TMARIA YOLANDA ROCES MATAS                                                   000000000000000000N
071994061999999000005015TMANUEL JESUS MENDEZ PEREZ                                                   000000000000000000N
071994061999999000005016TADOLFO CERVERO JUNQUERA                                                     000000000000000000N
071994061999999000005017TMARIA ANTONIA ANTON FERNANDEZ                                               000000000000000000N
071994061999999000005018TIGNACIO FERNANDEZ GONZALEZ                                                  000000000000000000N
071994061999999000005019TALFONSO MAURICIO FERNANDEZ FERNANDEZ                                        000000000000000000N
071994061999999000005002TANA MARIA RECIO MUÑIZ                                                       000000000000000000N
071994061999999000005020TJOSE MANUEL RODRIGUEZ GARCIA                                                000000000000000000N
071994061999999000005021TJESUS CAÑEDO VALLE                                                          000000000000000000N
071994061999999000005022TJOSE IGNACIO BARRO SAMPEDRO                                                 000000000000000000N
071994061999999000005023TMANUEL ANGEL RUBIO CAMBON                                                   000000000000000000N
071994061999999000005024TXOSE LLUIS MARTINEZ GARCIA                                                  000000000000000000N
071994061999999000005025TINACIU IGLESIAS FERNANDEZ                                                   000000000000000000N
071994061999999000005026TANA MARIA PARDO SANCHEZ                                                     000000000000000000N
071994061999999000005027TTELMA ANTUÑA PEREZ                                                          000000000000000000N
071994061999999000005028TMARIA BELEN GUTIERREZ SEQUEIRA                                              000000000000000000N
071994061999999000005029TFERNANDO PRADA ORGAZ                                                        000000000000000000N
071994061999999000005003TJULIAN FERNANDEZ MONTES                                                     000000000000000000N
071994061999999000005030TMANUEL GARCIA NARCIANDI                                                     000000000000000000N
071994061999999000005031TEDUARDO MANUEL ALONSO SUAREZ                                                000000000000000000N
071994061999999000005032TJOSE MANUEL LOPEZ CASTAÑON                                                  000000000000000000N
071994061999999000005033TCARLOS PRADA ORGAZ                                                          000000000000000000N
071994061999999000005034TJOSE LUIS ARBOLEYA PAYO                                                     000000000000000000N
071994061999999000005035TMARIA LUDIVINA ALVAREZ FERNANDEZ                                            000000000000000000N
071994061999999000005036TMARIANO ANTONIO OREJUDO CAMPOS                                              000000000000000000N
071994061999999000005037TMIGUEL ORLANDO AMADO MIGUEL                                                 000000000000000000N
071994061999999000005038TRAUL ARMANDO FERNANDEZ GARRIDO                                              000000000000000000N
071994061999999000005039THONORIO COSTALES PEREZ                                                      000000000000000000N
071994061999999000005004TESTEBAN INTRIAGO DE DIEGO                                                   000000000000000000N
071994061999999000005040TLUIS ANGEL NUÑEZ ENRIQUEZ                                                   000000000000000000N
071994061999999000005041TVICTOR MENDEZ FERNANDEZ                                                     000000000000000000N
071994061999999000005042TELENA VICTORIA MARTA FERNANDEZ POCH                                         000000000000000000N
071994061999999000005043TRICARDO JAVIER LLOSA LOZANO                                                 000000000000000000N
071994061999999000005044TXULIO CESAR VIGIL PARAJON                                                   000000000000000000N
071994061999999000005045TMARIA DEL PILAR ALONSO TORRE                                                000000000000000000N
071994061999999000005046TGUMERSINDO MIGUEL MUÑIZ FERNANDEZ                                           000000000000000000N
071994061999999000005047TMIGUEL ANGEL GARCIA GONZALEZ                                                000000000000000000N
071994061999999000005048TENRIQUE MEORO GUTIERREZ                                                     000000000000000000N
071994061999999000005049TJOSE LUIS PENDAS COVIAN                                                     000000000000000000N
071994061999999000005005TSANTIAGO DIZ GARCIA                                                         000000000000000000N
071994061999999000005050TJOSE MANUEL MENENDEZ GONZALEZ                                               000000000000000000N
071994061999999000005051TMARIA JESUS GONZALEZ MENENDEZ                                               000000000000000000N
071994061999999000005052TJULIO CESAR GONZALEZ TORICES                                                000000000000000000N
071994061999999000005053TMARIA PILAR COTARELO MENDEZ                                                 000000000000000000N
071994061999999000005054TMARIA ELENA GONZALEZ ELCORO                                                 000000000000000000N
071994061999999000005055TBIENVENIDA SALIDO JIMENEZ                                                   000000000000000000N
071994061999999000005056TANSELMO JAVIER CASTRILLO BERMEJO                                            000000000000000000N
071994061999999000005057TARCADIO RODRIGUEZ HUERTA                                                    000000000000000000N
071994061999999000005058TIGNACIO BARRO BRAÑA                                                         000000000000000000N
071994061999999000005059TMIGUEL ANGEL GONZALEZ FERNANDEZ                                             000000000000000000N
071994061999999000005006TSECUNDINO GARCIA RAMOS                                                      000000000000000000N
071994061999999000005060TJOSE GONZALEZ ALBAJES                                                       000000000000000000N
071994061999999000005061TROSA MARIA GARCIA HEVIA                                                     000000000000000000N
071994061999999000005062TBLANCA MARIA GALVEZ BUENO                                                   000000000000000000N
071994061999999000005063TVICTOR MARTIN LOPEZ                                                         000000000000000000N
071994061999999000005064TJOSE ANTONIO ALVAREZ GUTIERREZ                                              000000000000000000N
071994061999999000005007TSIXTO CORTINA CORTINA                                                       000000000000000000N
071994061999999000005008TCEFERINO GONZALEZ FERNANDEZ                                                 000000000000000000N
071994061999999000005009TMARIO SAN MARTIN FERNANDEZ                                                  000000000000000000N
071994061999999000006001TJOSE LUIS ALVAREZ ROSET                                                     000000000000000000N
071994061999999000006010TADRIAN VALLS VIÑAMATA                                                       000000000000000000N
071994061999999000006011TMERCEDES ARANGO JIMENEZ                                                     000000000000000000N
071994061999999000006012TANTONIO FLORES LUQUE                                                        000000000000000000N
071994061999999000006013TMARIA TERESA ARROYO MARTIN                                                  000000000000000000N
071994061999999000006014TLUIS MARTINEZ BARBADO                                                       000000000000000000N
071994061999999000006015TJULIAN GARCIA SANCHEZ                                                       000000000000000000N
071994061999999000006016TJOSE PEREZ MONTERO                                                          000000000000000000N
071994061999999000006017TPEDRO GARCIA CORTIZAS                                                       000000000000000000N
071994061999999000006018TALEJANDRO SANZ MARQUINA                                                     000000000000000000N
071994061999999000006019TANA BAS VALL                                                                000000000000000000N
071994061999999000006002TPEDRO JIMENEZ MIGUEL                                                        000000000000000000N
071994061999999000006020TISABEL CAROLINA MIZRAHI WRANA                                               000000000000000000N
071994061999999000006021TCARLOS HORMIGO BELLIDO                                                      000000000000000000N
071994061999999000006022TJOSE LUIS ARQUES CARBONELL                                                  000000000000000000N
071994061999999000006023TEVA AGUADO BENITO                                                           000000000000000000N
071994061999999000006024TEDUARDO GALAN BENAVIDES                                                     000000000000000000N
071994061999999000006025TGLORIA BALDAZO PEREZ                                                        000000000000000000N
071994061999999000006026TAMANCIO FERRUELO GARCIA                                                     000000000000000000N
071994061999999000006027TROSA MARIA ARENAS CRIADO                                                    000000000000000000N
071994061999999000006028TPALMIRA LORENZO BELIS                                                       000000000000000000N
071994061999999000006029TROSA MARIA LLAVORE RODA                                                     000000000000000000N
071994061999999000006003TFRANCISCO ALVAREZ SANCHEZ                                                   000000000000000000N
071994061999999000006030TFERNANDO HERRANDO LINARES                                                   000000000000000000N
071994061999999000006031TJESUS MATE PONCE                                                            000000000000000000N
071994061999999000006032TCARMEN ALCAIDE RODRIGUEZ                                                    000000000000000000N
071994061999999000006033TJULIA LIZ PEREZ                                                             000000000000000000N
071994061999999000006034TANGELA SANCHEZ PRIETO                                                       000000000000000000N
071994061999999000006035TPEDRO CALERO FERNANDEZ                                                      000000000000000000N
071994061999999000006036TARMANDO RODRIGUEZ LOPEZ                                                     000000000000000000N
071994061999999000006037TCARMEN PEREZ NARRO                                                          000000000000000000N
071994061999999000006038TMARIANO CARRERAS CARNICERO                                                  000000000000000000N
071994061999999000006039TANA MARIA ROLDAN SERRANO                                                    000000000000000000N
071994061999999000006004TJAIME FONTANET MARIN                                                        000000000000000000N
071994061999999000006040TJOSE INFANTE DE LA TORRE                                                    000000000000000000N
071994061999999000006041TANACLETO CASTILLO CABALLERO                                                 000000000000000000N
071994061999999000006042TJULIA PERRINO JIMENEZ                                                       000000000000000000N
071994061999999000006043TIMELDA SANTIAGO PAYO                                                        000000000000000000N
071994061999999000006044TMARIA TEOFILA VICENTE DE HARO                                               000000000000000000N
071994061999999000006045TPEDRO GOMEZ JIMENEZ                                                         000000000000000000N
071994061999999000006046TJULIAN JESUS CASABON GRACIA                                                 000000000000000000N
071994061999999000006047TTERESA PINTADO GONZALEZ                                                     000000000000000000N
071994061999999000006048TANTONIO CASTILLO CABALLERO                                                  000000000000000000N
071994061999999000006049TSANTIAGO SOLE GRAS                                                          000000000000000000N
071994061999999000006005TJOSE ANTONIO CORDERO GIL                                                    000000000000000000N
071994061999999000006050TJOSE MARIA GOMEZ MARCOS                                                     000000000000000000N
071994061999999000006051TGLORIA PERALTA FERNANDEZ                                                    000000000000000000N
071994061999999000006052TANTONIA OLIVA OCAÑA                                                         000000000000000000N
071994061999999000006053TCARMEN TEJERO BADOS                                                         000000000000000000N
071994061999999000006054TMARIA ANGELES ANTON SOLANA                                                  000000000000000000N
071994061999999000006055TANTONIO PALOMO RODRIGUEZ                                                    000000000000000000N
071994061999999000006056TANA MARIA SANCHEZ SANCHEZ                                                   000000000000000000N
071994061999999000006057TCONSUELO ARGUELLES VOZMEDIANO                                               000000000000000000N
071994061999999000006058TPILAR SANCHEZ PRIETO                                                        000000000000000000N
071994061999999000006059TARTURO AGUADO BENITO                                                        000000000000000000N
071994061999999000006006TJORGE BAS VALL                                                              000000000000000000N
071994061999999000006060TDOLORES GALLEGO BLASCO                                                      000000000000000000N
071994061999999000006061TCARMEN GARCIA GOMEZ                                                         000000000000000000N
071994061999999000006062TMARIA ISABEL CORDERO GIL                                                    000000000000000000N
071994061999999000006063TFRANCISCO JAVIER GOMEZ SACRISTAN                                            000000000000000000N
071994061999999000006064TARANXA FRANCO DE SARABIA ROSADO                                             000000000000000000N
071994061999999000006007TJOSEFINA POBO LACUEVA                                                       000000000000000000N
071994061999999000006008TANTONIO BARTOLOME MENENDEZ                                                  000000000000000000N
071994061999999000006009TPILAR FRANCO DE SARABIA ROSADO                                              000000000000000000N
071994061999999000007001TCARLOS GARAIKOETXEA URRIZA (EA)                                             000000000000000000N
071994061999999000007010TMARILO IRUJO ELIZALDE (EA)                                                  000000000000000000N
071994061999999000007011TVALERIA MIRALLES I HORTOLA (ERC)                                            000000000000000000N
071994061999999000007012TJUAN CARLOS RAD MORADILLO (TC-PNC)                                          000000000000000000N
071994061999999000007013TGORKA KNORR BORRAS (EA)                                                     000000000000000000N
071994061999999000007014TANTONI LLOMPART I MAURA (ERC)                                               000000000000000000N
071994061999999000007015TANTONIO IZARRA SANTAMARIA (TC-PNC)                                          000000000000000000N
071994061999999000007016TMARTIN UGALDE ORRADRE (EA)                                                  000000000000000000N
071994061999999000007017TJOSEP ALS I TREPAT (ERC)                                                    000000000000000000N
071994061999999000007018TISMAEL AGUADO FERNANDEZ (TC-PNC)                                            000000000000000000N
071994061999999000007019TLOURDES MUNITXA GOJENOLA (EA)                                               000000000000000000N
071994061999999000007002TMAX CAHNER I GARCIA (ERC-ACC-ENE)                                           000000000000000000N
071994061999999000007020TJOAN JAILE I BENITEZ (ERC)                                                  000000000000000000N
071994061999999000007021TJOSE MANUEL ALONSO GARCIA (TC-PNC)                                          000000000000000000N
071994061999999000007022TJUAN IGNACIO RETEGI PETRIKORENA (EA)                                        000000000000000000N
071994061999999000007023TJOSEP MARIA BRU I SERRA (ERC)                                               000000000000000000N
071994061999999000007024TLUISD GONZALEZ BAIXAULI (TC-PNC)                                            000000000000000000N
071994061999999000007025TROSA MARIA AGUDO HUICI (EA)                                                 000000000000000000N
071994061999999000007026TJORDI VENTURA I SUBIRATS (ACC)                                              000000000000000000N
071994061999999000007027TJUAN CARLOS GONZALEZ GARCIA (TC-PNC)                                        000000000000000000N
071994061999999000007028TNURIA PELAY I BARGALLO (ERC)                                                000000000000000000N
071994061999999000007029TMANUEL ARBIDE ARRIETA (EA)                                                  000000000000000000N
071994061999999000007003TBEGOÑA LASAGABASTER OLAZABAL (EA)                                           000000000000000000N
071994061999999000007030TANDREU CARLES VEGA I CASTELLVI (ERC)                                        000000000000000000N
071994061999999000007031TJUSTA GONZALEZ SANZ (TC-PNC)                                                000000000000000000N
071994061999999000007032TJOANA MARIA COLL I MARTORELL (ERC)                                          000000000000000000N
071994061999999000007033TIGNACIO MORIONES ELOSEGI (EA)                                               000000000000000000N
071994061999999000007034TCONXITA LLORENS I AGUILERA (ACC)                                            000000000000000000N
071994061999999000007035TMARIA ANGELES OYARZABAL FERNANDEZ (EA)                                      000000000000000000N
071994061999999000007036TPERE VILAR I OLLER (ERC)                                                    000000000000000000N
071994061999999000007037TJUAN MANUEL LOPEZ DELGADO (TC-PNC)                                          000000000000000000N
071994061999999000007038TLLUIS FONT I SOLE (ERC)                                                     000000000000000000N
071994061999999000007039TTXOTXE LOPEZ DE ABERASTURI BARRON (EA)                                      000000000000000000N
071994061999999000007004TXABIER ROCHA I ROCHA (ERC)                                                  000000000000000000N
071994061999999000007040TLLUIS XANDRI I MOLAS (ERC)                                                  000000000000000000N
071994061999999000007041TFRANCISCO MINER URDAMPILLETA (EA)                                           000000000000000000N
071994061999999000007042TPABLO ANTONIO MERINO FERNANDEZ (TC-PNC)                                     000000000000000000N
071994061999999000007043TNIEVES ORMAOLEA LAUZIRIKA (EA)                                              000000000000000000N
071994061999999000007044TJOEL BAGUR I MELLINAS (ERC)                                                 000000000000000000N
071994061999999000007045TCARMELO MERINO SANZ (TC-PNC)                                                000000000000000000N
071994061999999000007046TMIGUEL ANGEL ETXEBARRIA MADINA (EA)                                         000000000000000000N
071994061999999000007047TDAVID PEIX I ROMEU (ERC)                                                    000000000000000000N
071994061999999000007048TMIGUEL ANGEL MINGUEZ CUESTA (TC-PNC)                                        000000000000000000N
071994061999999000007049TKONTXI GABANTXO LAKA (EA)                                                   000000000000000000N
071994061999999000007005TDIONISIO PABLO NEGUERUELA Y FERNANDEZ DE VELASCO                            000000000000000000N
071994061999999000007050TJOSEP COSTA I RICART (ERC)                                                  000000000000000000N
071994061999999000007051TMARIA DEL CARMEN ORTIZ MIGUEL (TC-PNC)                                      000000000000000000N
071994061999999000007052TLLUIS ENRIC PELLIN I CATALA (ERC)                                           000000000000000000N
071994061999999000007053TJOSE LARREA ORMAZABAL (EA)                                                  000000000000000000N
071994061999999000007054TVICENT TUR I SERRA (ERC)                                                    000000000000000000N
071994061999999000007055TAINHOA MOURIZ IBARRA (EA)                                                   000000000000000000N
071994061999999000007056TCRISTINA DURAN I OLIVE (ACC)                                                000000000000000000N
071994061999999000007057TOSCAR PEÑA MERINO (TC-PNC)                                                  000000000000000000N
071994061999999000007058TJOAN ANTONI ARTIMANYA I CASTILLER (ERC)                                     000000000000000000N
071994061999999000007059TEDUARDO GONZALEZ LOMBIDE (EA)                                               000000000000000000N
071994061999999000007006TERNEST PRATS I GARCIA (ENE)                                                 000000000000000000N
071994061999999000007060TJOSEP MARIA LLUCH I ROVIRA (ERC)                                            000000000000000000N
071994061999999000007061TMIREN UDAETA MEDIAVILLA (EA)                                                000000000000000000N
071994061999999000007062TCANDIDO PRIETO GONZALEZ (TC-PNC)                                            000000000000000000N
071994061999999000007063TPABLO ISASI AGIRRE (EA)                                                     000000000000000000N
071994061999999000007064TROSER SOLE I MARTINEZ (ERC)                                                 000000000000000000N
071994061999999000007007TXABIER KINTANA URTIAGA (EA)                                                 000000000000000000N
071994061999999000007008TTANIA ALAIX I GIMBERT (ERC)                                                 000000000000000000N
071994061999999000007009TLUIS ANTONIO MARCOS NAVEIRA (TC-PNC)                                        000000000000000000N
071994061999999000008001TJOSE CARLOS MELLA VILLAR                                                    000000000000000000N
071994061999999000008010TBIEITO LOBEIRA DOMINGUEZ                                                    000000000000000000N
071994061999999000008011TXOSE DIAZ DIAZ                                                              000000000000000000N
071994061999999000008012TJOSE RAMON GARCIA MOSQUERA                                                  000000000000000000N
071994061999999000008013TFRANCISCO PILLADO MAYOR                                                     000000000000000000N
071994061999999000008014TSUSANA ROMERO GARCIA                                                        000000000000000000N
071994061999999000008015TCESAR GUZMAN LOPEZ                                                          000000000000000000N
071994061999999000008016TRAMON VARELA DIAZ                                                           000000000000000000N
071994061999999000008017TIRENE MOLLEDA SILVA                                                         000000000000000000N
071994061999999000008018TJOSE ANTONIO JARDON DACAL                                                   000000000000000000N
071994061999999000008019TXOAN ANTONIO PILLADO SILVOSO                                                000000000000000000N
071994061999999000008002TANGEL MANUEL QUINTANA GONZALEZ                                              000000000000000000N
071994061999999000008020TEDUARDO GOMEZ VIDAL                                                         000000000000000000N
071994061999999000008021TJOSE CARLOS VEIGA SAMPEDRO                                                  000000000000000000N
071994061999999000008022TBALBINO ENRIQUE PEREZ VACAS                                                 000000000000000000N
071994061999999000008023TMIGUEL ANXO FERNANDEZ LORES                                                 000000000000000000N
071994061999999000008024TTOBIAS BETANZOS REGO                                                        000000000000000000N
071994061999999000008025TGERMAN VICENTE CARRO ALVAREZ                                                000000000000000000N
071994061999999000008026TAMADO LOPEZ GUTIERREZ                                                       000000000000000000N
071994061999999000008027TALBERTO BLANCO CASAL                                                        000000000000000000N
071994061999999000008028TSERGIO RODRIGUEZ FERNANDEZ                                                  000000000000000000N
071994061999999000008029TADELA LEIRO LOIS                                                            000000000000000000N
071994061999999000008003TBRANCA RODRIGUEZ PAZOS                                                      000000000000000000N
071994061999999000008030TMARIA LUISA SABIO MAROÑO                                                    000000000000000000N
071994061999999000008031TXOSE LOIS CORTES GOMEZ                                                      000000000000000000N
071994061999999000008032TALBERTE XABIER ARAUXO VILAR                                                 000000000000000000N
071994061999999000008033TNESTOR REGO CANDAMIL                                                        000000000000000000N
071994061999999000008034TJUAN BAUTISTA POSE PAZ                                                      000000000000000000N
071994061999999000008035TMIGUEL ANXO ELIAS FERNANDEZ BELLO                                           000000000000000000N
071994061999999000008036TRAMON FERNANDEZ LEAL                                                        000000000000000000N
071994061999999000008037TXOAQUIN DE ACOSTA BEIRAS                                                    000000000000000000N
071994061999999000008038TXOSE PLACIDO BETANZOS GARCIA                                                000000000000000000N
071994061999999000008039TCARLOS VALES VAZQUEZ                                                        000000000000000000N
071994061999999000008004TMARIO ANTONIO LOPEZ RICO                                                    000000000000000000N
071994061999999000008040TBELEN GARCIA SUAREZ                                                         000000000000000000N
071994061999999000008041TJORGE CARLOS ABUIN RODRIGUEZ                                                000000000000000000N
071994061999999000008042TISABEL CLARA FERNANDEZ CID                                                  000000000000000000N
071994061999999000008043TJESUS CELESTINO LOSADA LAXE                                                 000000000000000000N
071994061999999000008044TMARIA LUISA AGUIN MARTINEZ                                                  000000000000000000N
071994061999999000008045TDUARTE CRESTAR PENA                                                         000000000000000000N
071994061999999000008046TMARGARITA ROMERO LORENZO                                                    000000000000000000N
071994061999999000008047TMANUEL MARIA CABALEIRO FABEIRO                                              000000000000000000N
071994061999999000008048TEMILIO XOSE INSUA LOPEZ                                                     000000000000000000N
071994061999999000008049TJOSE LUIS SALVADORES COBAS                                                  000000000000000000N
071994061999999000008005TGUSTAVO DOCAMPO OTERO                                                       000000000000000000N
071994061999999000008050TRAMON BOUZAS GONZALEZ                                                       000000000000000000N
071994061999999000008051TXOSE MANOEL PEREZ DADIN                                                     000000000000000000N
071994061999999000008052TRAFAEL IGLESIAS BLANCO                                                      000000000000000000N
071994061999999000008053TFERNANDO SOLLA FERNANDEZ                                                    000000000000000000N
071994061999999000008054TALBERTO ALONSO PEREIRA                                                      000000000000000000N
071994061999999000008055TXESUS ANXO LOPEZ PINTOS                                                     000000000000000000N
071994061999999000008056TFRANCISCO XABIER PEÑA DIAZ                                                  000000000000000000N
071994061999999000008057TFRANCISCO XABIER SANTALLA GOMEZ                                             000000000000000000N
071994061999999000008058TXOSE MANUEL IRIMIA VAZQUEZ                                                  000000000000000000N
071994061999999000008059TANTONIO FERNANDEZ SALGADO                                                   000000000000000000N
071994061999999000008006TXESUS ELADIO SEIJO FERNANDEZ                                                000000000000000000N
071994061999999000008060TMARIA XESUS DIEGUEZ ROJO                                                    000000000000000000N
071994061999999000008061TANTONIO POUSADA PAZOS                                                       000000000000000000N
071994061999999000008062TJOSE ANGEL LAGE SUAREZ                                                      000000000000000000N
071994061999999000008063TMARCELIÑO VIDAL GARCIA                                                      000000000000000000N
071994061999999000008064TMARIA TERESA NAVAZA GONZALEZ                                                000000000000000000N
071994061999999000008007TFRANCISCO GONZALEZ AMADIOS                                                  000000000000000000N
071994061999999000008008TMARCIAL SUAREZ FERNANDEZ                                                    000000000000000000N
071994061999999000008009TFRANCISCO XABIER ALONSO PEREZ                                               000000000000000000N
071994061999999000009001TMIGUEL ANGEL GIMENO ALVAREZ                                                 000000000000000000N
071994061999999000009010TANGEL CASADO HERVAS                                                         000000000000000000N
071994061999999000009011TJOSE FRANCISCO DE LA ARADA SAENZ DE ORMIJANA                                000000000000000000N
071994061999999000009012TLUIS MORERA RODRIGUEZ                                                       000000000000000000N
071994061999999000009013TDIEGO ANDRES URBAN PARDO                                                    000000000000000000N
071994061999999000009014TLUIS MANUEL MURILLO LOPEZ                                                   000000000000000000N
071994061999999000009015TFELISA LOPEZ COLMENAREJO                                                    000000000000000000N
071994061999999000009016TMARCOS MARIA HERMIDA REVILLA                                                000000000000000000N
071994061999999000009017TMIGUEL ANGEL MANDLY MANSO                                                   000000000000000000N
071994061999999000009018TEVARISTO MEANA GOMEZ                                                        000000000000000000N
071994061999999000009019TRICARDO-VICENTE CEREZO MONTEMAYOR                                           000000000000000000N
071994061999999000009002TFRANCISCO JESUS CARBALLO LOPEZ                                              000000000000000000N
071994061999999000009020TJORGE JESUS PEREZ GARCIA                                                    000000000000000000N
071994061999999000009021TANTONIO JIMENO GARCIMARTIN                                                  000000000000000000N
071994061999999000009022TDOMINGO DE GUZMAN DELGADO DE LA CAMARA                                      000000000000000000N
071994061999999000009023TTOMAS SANCHEZ TRINIDAD                                                      000000000000000000N
071994061999999000009024TJOSE LUIS MANZANO VALLE                                                     000000000000000000N
071994061999999000009025TFRANCISCO JAVIER CAMPOS COUSELO                                             000000000000000000N
071994061999999000009026TPEDRO JESUS CONTRERAS NAHARRO                                               000000000000000000N
071994061999999000009027TJAVIER LUIS HORAS PUENTE                                                    000000000000000000N
071994061999999000009028TJOSE LUIS DE MICHEO NAVARRO                                                 000000000000000000N
071994061999999000009029TDEBORA PEÑA MARTINEZ                                                        000000000000000000N
071994061999999000009003TFRANCISCO JAVIER AVILES PARRA                                               000000000000000000N
071994061999999000009030TRAQUEL VALLEJO BERNAL                                                       000000000000000000N
071994061999999000009031TENRIQUE TRIGO PEREZ                                                         000000000000000000N
071994061999999000009032TDIEGO MARIA GOMEZ LOPEZ-ZUAZO                                               000000000000000000N
071994061999999000009033TMARIA DOLORES PALLARES ALVAREZ                                              000000000000000000N
071994061999999000009034TJORGE HERNANDEZ AÑON                                                        000000000000000000N
071994061999999000009035TFERNANDO GARCIA VADO                                                        000000000000000000N
071994061999999000009036TARTURO CAMARERO FERNANDEZ                                                   000000000000000000N
071994061999999000009037TMARIA DEL CARMEN ESCUDERO DOMINGUEZ                                         000000000000000000N
071994061999999000009038TJULIANA FERNANDEZ MANSILLA                                                  000000000000000000N
071994061999999000009039TJOSE MIGUEL GARCIA GARCIA                                                   000000000000000000N
071994061999999000009004TJOSE NORBERTO UZAL TRESANDI                                                 000000000000000000N
071994061999999000009040TSANTIAGO CANTERA MONTENEGRO                                                 000000000000000000N
071994061999999000009041TJUANA ARRANTE TARDON                                                        000000000000000000N
071994061999999000009042TMARIA DE LOS ANGELES PECHARROMAN GARCIA                                     000000000000000000N
071994061999999000009043TGONZALO VALDIZAN MARTINEZ                                                   000000000000000000N
071994061999999000009044TJOSE MANUEL MARTIN DELGADO                                                  000000000000000000N
071994061999999000009045TVICENTE CASTELLO JUAN                                                       000000000000000000N
071994061999999000009046TJULIO CESAR DE ALAIZ MARTINEZ                                               000000000000000000N
071994061999999000009047TGREGORIO AMADEO ANDION LOPEZ                                                000000000000000000N
071994061999999000009048TJOSE MARIA PERMUY REY                                                       000000000000000000N
071994061999999000009049TROSARIO PARRA RETUERTA                                                      000000000000000000N
071994061999999000009005TLUIS MIGUEL GONZALEZ RODRIGUEZ                                              000000000000000000N
071994061999999000009050TMARIA PRESENTACION MANOVEL GARCIA                                           000000000000000000N
071994061999999000009051TANTONIA JIMENEZ DE LA CRUZ                                                  000000000000000000N
071994061999999000009052TBLAS MORAL JIMENEZ                                                          000000000000000000N
071994061999999000009053TANTONIO CABA LOPEZ                                                          000000000000000000N
071994061999999000009054TJERONIMO RODRIGUEZ OLIVEROS                                                 000000000000000000N
071994061999999000009055TOSCAR RAMON SAN JACINTO SEDANO                                              000000000000000000N
071994061999999000009056TENRIQUE LLANOS MARTINEZ                                                     000000000000000000N
071994061999999000009057TLUIS TEOFILO GIL CUADRADO                                                   000000000000000000N
071994061999999000009058TRICARDO MARTIN FRANCO                                                       000000000000000000N
071994061999999000009059TENRIQUE VIVANCO PEÑA                                                        000000000000000000N
071994061999999000009006TGUILLERMO ANTONIO DONAIRE ORTEGA                                            000000000000000000N
071994061999999000009060TIGNACIO JOSE SANTAMERA GARCIA                                               000000000000000000N
071994061999999000009061TLUIS ALBERTO CARBALLO LOPEZ                                                 000000000000000000N
071994061999999000009062TMARIA DIANA GIMENO ALVAREZ                                                  000000000000000000N
071994061999999000009063TVICENTE CAMARERO FERNANDEZ                                                  000000000000000000N
071994061999999000009064TANTONIO AVILES PARRA                                                        000000000000000000N
071994061999999000009007TLONGINOS HERAS TORRES                                                       000000000000000000N
071994061999999000009008TFRANCISCO JAVIER GONZALEZ JIMENEZ                                           000000000000000000N
071994061999999000009009TLUIS CISNEROS ETAYO                                                         000000000000000000N
071994061999999000010001TESTEBAN CABAL RIERA                                                         000000000000000000N
071994061999999000010010TGERARDO FERNANDEZ LLORENTE                                                  000000000000000000N
071994061999999000010011TJOSE ANGEL FRAGUIO SAGRARIO                                                 000000000000000000N
071994061999999000010012TANDRES RODRIGUEZ FERNANDEZ CAMPOAMOR                                        000000000000000000N
071994061999999000010013TJOSE SALMERON PASCUAL                                                       000000000000000000N
071994061999999000010014TMIGUEL PARDO VILLANGOMEZ                                                    000000000000000000N
071994061999999000010015TELISA VELA ESPINOSA                                                         000000000000000000N
071994061999999000010016TALBERTO GALA MIRANDA                                                        000000000000000000N
071994061999999000010017TFEDERICO JOSE VELAZQUEZ DE CASTRO                                           000000000000000000N
071994061999999000010018TRAFAEL GARCIA MORENO                                                        000000000000000000N
071994061999999000010019TCARMEN RODRIGUEZ ALFONSO                                                    000000000000000000N
071994061999999000010002TMIGUEL ANGEL PEREZ BERMUDEZ                                                 000000000000000000N
071994061999999000010020TLUIS ANTONIO LAZARO COSTA                                                   000000000000000000N
071994061999999000010021TJUAN MANUEL MORATINOS GUTIERREZ                                             000000000000000000N
071994061999999000010022TCARMEN BEGOÑA GARAY JULIAN                                                  000000000000000000N
071994061999999000010023TENRIQUE DE GREGORIO BONNIN                                                  000000000000000000N
071994061999999000010024TFERNANDO MANUEL PASCUAL CARRETERO                                           000000000000000000N
071994061999999000010025TJOSE MIGUEL ORTAS SENDRA                                                    000000000000000000N
071994061999999000010026TCONCEPCION LOPEZ MUÑOZ                                                      000000000000000000N
071994061999999000010027TALEJANDRO RAMOS PEDRAGOSA                                                   000000000000000000N
071994061999999000010028TISMAEL AWADA ABBAS                                                          000000000000000000N
071994061999999000010029TLUCIA MARTOS RUIZ                                                           000000000000000000N
071994061999999000010003TANTONIO DI FABRIZIO                                                         000000000000000000N
071994061999999000010030TMANUEL VIZAN JAMBRINA                                                       000000000000000000N
071994061999999000010031TPABLO VELA ESPINOSA                                                         000000000000000000N
071994061999999000010032TJACOBO PEREZ-GANDARAS PEDROSA                                               000000000000000000N
071994061999999000010033TAURELIO DE PRADA GARCIA                                                     000000000000000000N
071994061999999000010034TFERNANDO ALVAREZ DIEZ                                                       000000000000000000N
071994061999999000010035TSANTIAGO ORELLANA RIVAS                                                     000000000000000000N
071994061999999000010036TCONSUELO HERMINIA BARROS BOTANA                                             000000000000000000N
071994061999999000010037TFERNANDO ORDUNA COSMEN                                                      000000000000000000N
071994061999999000010038TMERCEDES FRAGUIO SAGRARIO                                                   000000000000000000N
071994061999999000010039TJULIAN PANADERO ALMODOVAR                                                   000000000000000000N
071994061999999000010004TJESUS GALAN JIMENEZ                                                         000000000000000000N
071994061999999000010040TCRISTINA RUANO MARTIN                                                       000000000000000000N
071994061999999000010041TLUIS JOSE MORALES CAMPO                                                     000000000000000000N
071994061999999000010042TGABINO TRIGO GUSTEN                                                         000000000000000000N
071994061999999000010043TVICENTE GALA MIRANDA                                                        000000000000000000N
071994061999999000010044TMARIA DOLORES ALCALA MORA                                                   000000000000000000N
071994061999999000010045TJOSE ANGEL FRAGUIO COBO                                                     000000000000000000N
071994061999999000010046TMARIA DEL CARMEN SAGRARIO DURAN                                             000000000000000000N
071994061999999000010047TALICIA PEREZ YUBERO                                                         000000000000000000N
071994061999999000010048TMARIA ISABEL PERAL TARAVILLA                                                000000000000000000N
071994061999999000010049TRAMON ORELLANA RIVAS                                                        000000000000000000N
071994061999999000010005TALICIA ALCALA MORA                                                          000000000000000000N
071994061999999000010050TATANASIA ESCUDERO CLEMENTE                                                  000000000000000000N
071994061999999000010051TCESAR PEREZ ARRUCHE                                                         000000000000000000N
071994061999999000010052TENRIQUE FABEIRO BARREIRO                                                    000000000000000000N
071994061999999000010053TJOSE MIGUEL VALENCIA CARPINTERO                                             000000000000000000N
071994061999999000010054TMARIA SOL CRESPO GARCIA                                                     000000000000000000N
071994061999999000010055TMARIA DEL MAR LOPEZ MONTENEGRO                                              000000000000000000N
071994061999999000010056TJOSE MANUEL MARTINEZ PEÑA                                                   000000000000000000N
071994061999999000010057TMARIA GEMA BERZAL PEREZ                                                     000000000000000000N
071994061999999000010058TOSWALDO VALCARCEL DE LAS HERAS                                              000000000000000000N
071994061999999000010059TJUAN ANTONIO LAOUN MARTIN                                                   000000000000000000N
071994061999999000010006TJOSE JAVIER MEDINA MUÑOZ                                                    000000000000000000N
071994061999999000010060TMARIA GARCIA PEREZ                                                          000000000000000000N
071994061999999000010061TFERNANDO PRADA LORA                                                         000000000000000000N
071994061999999000010062TMARIA FUENCISLA YUSTE HERRANZ                                               000000000000000000N
071994061999999000010063TJULIA PEREZ SANCHEZ                                                         000000000000000000N
071994061999999000010064TFERNANDO LUIS CABAL RIERA                                                   000000000000000000N
071994061999999000010007TIGNACIO DE LA FUENTE BLANCO                                                 000000000000000000N
071994061999999000010008TRAFAEL MIGUEL MAYORDOMO ALONSO                                              000000000000000000N
071994061999999000010009TCLOTILDE LINDO PEREZ                                                        000000000000000000N
071994061999999000012001TKARMELO LANDA MENDIBE                                                       000000000000000000N
071994061999999000012010TNEKANE JURADO PEREZ                                                         000000000000000000N
071994061999999000012011TFERMIN VILA MICHELENA                                                       000000000000000000N
071994061999999000012012TFLOREN AOIZ MONREAL                                                         000000000000000000N
071994061999999000012013TJUAN CARLOS TAPIA GONZALO                                                   000000000000000000N
071994061999999000012014TPABLO GOROSTIAGA GONZALEZ                                                   000000000000000000N
071994061999999000012015TBEGOÑA GARMENDIA VAZQUEZ                                                    000000000000000000N
071994061999999000012016TADOLFO ARAIZ FLAMARIQUE                                                     000000000000000000N
071994061999999000012017TJON IDIGORAS GERRIKABEITIA                                                  000000000000000000N
071994061999999000012018TMARIA LUISA MURGIONDO JIMENEZ DE VICUÑA                                     000000000000000000N
071994061999999000012019TALVARO REIZABAL ARRUABARRENA                                                000000000000000000N
071994061999999000012002TJOSE MANUEL PAGOAGA GALLASTEGI                                              000000000000000000N
071994061999999000012020TPATXI ZABALETA ZABALETA                                                     000000000000000000N
071994061999999000012021TMIREN GOTZONE VILLAPUN ARBAIZAR                                             000000000000000000N
071994061999999000012022TJOSU LANDA IJURKO                                                           000000000000000000N
071994061999999000012023TKOLDO LAKASTA EGEA                                                          000000000000000000N
071994061999999000012024TIÑAKI USATEGI DIAZ DE OTAROLA                                               000000000000000000N
071994061999999000012025TJOSE LUIS ELKORO UNAMUNO                                                    000000000000000000N
071994061999999000012026TJOKIN GOROSTIDI ARTOLA                                                      000000000000000000N
071994061999999000012027TMIKEL IRIBARREN PINILLOS                                                    000000000000000000N
071994061999999000012028TPEDRO MARIA LANDA FERNANDEZ                                                 000000000000000000N
071994061999999000012029TMARIA PILAR ELORTEGI ELORTEGI                                               000000000000000000N
071994061999999000012003TMIREN JASONE MANTEROLA DODAGOITIA                                           000000000000000000N
071994061999999000012030TJOSE ANTONIO MENDIZABAL ETXABE                                              000000000000000000N
071994061999999000012031TMARIA ARANZAZU ARRIEN GOITIANDIA                                            000000000000000000N
071994061999999000012032TJAVIER AYESTARAN                                                            000000000000000000N
071994061999999000012033TBEGOÑA BRETOS ALONSO                                                        000000000000000000N
071994061999999000012034TIÑAKI OLALDE ARANA                                                          000000000000000000N
071994061999999000012035TMAITANE INTXAURRAGA URIBARRI                                                000000000000000000N
071994061999999000012036TMATILDE ITURRALDE MARTINEZ DE LIZARDUY                                      000000000000000000N
071994061999999000012037TMARIA MILAGROS ERBITI TREKU                                                 000000000000000000N
071994061999999000012038TZUTOIA MICHEL ARBIZU                                                        000000000000000000N
071994061999999000012039TJOSE LUIS PEDROSA JORGE                                                     000000000000000000N
071994061999999000012004TALFONSO SASTRE SALVADOR                                                     000000000000000000N
071994061999999000012040TALBERTO ALDASORO KATARAIN                                                   000000000000000000N
071994061999999000012041TIÑAKI LIZUNDIA ALVAREZ                                                      000000000000000000N
071994061999999000012042TJOXE AGUSTIN ARRIETA UGARTETXEA                                             000000000000000000N
071994061999999000012043TM. ELISA URRIOLABEITIA SAN MARTIN                                           000000000000000000N
071994061999999000012044TM. JOSEFA GOROSTIDI GARMENDIA                                               000000000000000000N
071994061999999000012045TANGEL RINCON HUERTA                                                         000000000000000000N
071994061999999000012046TPABLO ASENSIO MILLAN                                                        000000000000000000N
071994061999999000012047TFRANCISCO SAN EPIFANIO MORENTIN                                             000000000000000000N
071994061999999000012048TM. ELENA URABAYEN ALBIZU                                                    000000000000000000N
071994061999999000012049TCESAR BLANCO SALINAS                                                        000000000000000000N
071994061999999000012005TMIREN EGAÑA DESKARGA                                                        000000000000000000N
071994061999999000012050TMARIA TERESA ZALAKAIN NICOLAY                                               000000000000000000N
071994061999999000012051TMANUEL ANGEL GONZALEZ PORTILLA                                              000000000000000000N
071994061999999000012052TJOSE LUIS DE LA MATA IMPUESTO                                               000000000000000000N
071994061999999000012053TKOLDO MARKINEZ RAMIREZ                                                      000000000000000000N
071994061999999000012054TJOSEBA KAMIO FUENTE                                                         000000000000000000N
071994061999999000012055TMILAGROS IDIAQUEZ ALCIBAR                                                   000000000000000000N
071994061999999000012056TSANTIAGO URIBE ODRIOZOLA                                                    000000000000000000N
071994061999999000012057TIBON URBIETA ZUBIPLIA                                                       000000000000000000N
071994061999999000012058TM. SAGRARIO ALEMAN ASTIZ                                                    000000000000000000N
071994061999999000012059T                                                                            000000000000000000N
071994061999999000012006TIÑAKI ANSELMO RUIZ DE PINEDO UNDIANO                                        000000000000000000N
071994061999999000012060T                                                                            000000000000000000N
071994061999999000012061T                                                                            000000000000000000N
071994061999999000012062T                                                                            000000000000000000N
071994061999999000012063T                                                                            000000000000000000N
071994061999999000012064T                                                                            000000000000000000N
071994061999999000012007TJOSE LUIS ALVAREZ ENPARANZA                                                 000000000000000000N
071994061999999000012008TUNAI ITURRIAGA ZUGAZARARTARAZ                                               000000000000000000N
071994061999999000012009TFERMIN MUGURUZA UGARTE                                                      000000000000000000N
071994061999999000013001TMANUEL JESUS DOMINGUEZ SANCHEZ                                              000000000000000000N
071994061999999000013010TEUGENIO HERMOSA FINAMOR                                                     000000000000000000N
071994061999999000013011TPABLO GARCIA CUBERO                                                         000000000000000000N
071994061999999000013012TRAFAEL PEINADOR TAPIA                                                       000000000000000000N
071994061999999000013013TMARIA SOFIA DE LA VEGA GONZALEZ DIEGO                                       000000000000000000N
071994061999999000013014TNICETO MARTIN BARRIENTOS                                                    000000000000000000N
071994061999999000013015TJUAN MANUEL GOMEZ CHICO                                                     000000000000000000N
071994061999999000013016TANA ISABEL SANCHEZ LUCAS                                                    000000000000000000N
071994061999999000013017TNICOLAS NUÑEZ LORENZO                                                       000000000000000000N
071994061999999000013018TMIGUEL ANGEL SEBASTIAN HERAS                                                000000000000000000N
071994061999999000013019TEMILIO CANO LOPEZ                                                           000000000000000000N
071994061999999000013002TJOSE LUIS ALVAREZ GILSANZ                                                   000000000000000000N
071994061999999000013020TMARCELINO GONZALO PIEDRAHITA                                                000000000000000000N
071994061999999000013021TMARIA ROCIO ARISTIN CALVO                                                   000000000000000000N
071994061999999000013022TJOSE MARIA GONZALEZ PEREZ                                                   000000000000000000N
071994061999999000013023TLOURDES GARCIA CELA                                                         000000000000000000N
071994061999999000013024TPEDRO BUISAN GUTIERREZ                                                      000000000000000000N
071994061999999000013025TJOSE MARIA MUÑOZ DE PARTEARROYO MARTIN                                      000000000000000000N
071994061999999000013026TLEONARDO SANTIRSO GONZALEZ                                                  000000000000000000N
071994061999999000013027TPEDRO BARROSO FERNANDEZ                                                     000000000000000000N
071994061999999000013028TJUAN MANUEL VICENTE DOMINGUEZ                                               000000000000000000N
071994061999999000013029TJESUS VICENTE MARTIN PEREZ                                                  000000000000000000N
071994061999999000013003TPELAYO GOMEZ RAPOSO                                                         000000000000000000N
071994061999999000013030TARNALDO GARCIA CANCIO                                                       000000000000000000N
071994061999999000013031TBENITO BRAVO MARTIN                                                         000000000000000000N
071994061999999000013032TASCENSION BASTANTE SANTOS                                                   000000000000000000N
071994061999999000013033TDIONISIO LAMAS MUÑOZ                                                        000000000000000000N
071994061999999000013034TJOSE ANTONIO FRAILE CIFUENTES                                               000000000000000000N
071994061999999000013035TCARLOS TRIGUEROS VILLAMEDIANA                                               000000000000000000N
071994061999999000013036TJESUS ANGEL RAMOS TERAN                                                     000000000000000000N
071994061999999000013037TJOAQUIN MERCHAN BERMEJO                                                     000000000000000000N
071994061999999000013038TPABLO HERNANDEZ CRESPO                                                      000000000000000000N
071994061999999000013039TMARIA LUISA TORIBIO LOPEZ                                                   000000000000000000N
071994061999999000013004TEMILIO ACOSTA PIRIZ                                                         000000000000000000N
071994061999999000013040TANA MARIA BERMUDEZ GONZALEZ                                                 000000000000000000N
071994061999999000013041TMARIA JOSEFA BLANCO GUILES                                                  000000000000000000N
071994061999999000013042TJOAQUIN REYES NUÑEZ                                                         000000000000000000N
071994061999999000013043TAGUSTIN LABRADOR LABRADOR                                                   000000000000000000N
071994061999999000013044TMARIA DEL CARMEN RODRIGUEZ VAZQUEZ                                          000000000000000000N
071994061999999000013045TTOMAS CORRAL LOPEZ                                                          000000000000000000N
071994061999999000013046THONORIO VEGA GUILLEN                                                        000000000000000000N
071994061999999000013047TPEDRO BRAGADO JUEZ                                                          000000000000000000N
071994061999999000013048TALEJANDRO ALONSO GOMEZ                                                      000000000000000000N
071994061999999000013049TMARIA DEL CARMEN GONZALEZ BLANCO                                            000000000000000000N
071994061999999000013005TCONSUELO GONZALEZ MARTINEZ                                                  000000000000000000N
071994061999999000013050TCARLOS REGUERO GONZALEZ                                                     000000000000000000N
071994061999999000013051TCIPRIANO APARICIO PUEBLA                                                    000000000000000000N
071994061999999000013052TBALTASAR GASCON SANCHEZ                                                     000000000000000000N
071994061999999000013053TJUSTINO FRAILE LOBO                                                         000000000000000000N
071994061999999000013054TARANZAZU ROJO RUIZ                                                          000000000000000000N
071994061999999000013055TJUAN MARIA MUÑOZ DE PARTEARROYO MARTIN                                      000000000000000000N
071994061999999000013056TFRANCISCO JAVIER SIMON CABALLERO                                            000000000000000000N
071994061999999000013057TARMANDO GUERRA BECERRIL                                                     000000000000000000N
071994061999999000013058TJOSE MARIA GONZALEZ BLANCO                                                  000000000000000000N
071994061999999000013059TJOSE MARTINEZ GARCIA                                                        000000000000000000N
071994061999999000013006TEMETERIO HERRERO MARTIN                                                     000000000000000000N
071994061999999000013060TJOSE MANUEL SANCHEZ LOPEZ                                                   000000000000000000N
071994061999999000013061TMARIA SOLEDAD HERNANDEZ CUESTA                                              000000000000000000N
071994061999999000013062TANTONIO BELTRAN PEREZ                                                       000000000000000000N
071994061999999000013063TCRISTINA LORENZO ALVAREZ                                                    000000000000000000N
071994061999999000013064TEDUARDO PEREZ DE LARA                                                       000000000000000000N
071994061999999000013007TJOSE MANUEL DE LUIS ALONSO                                                  000000000000000000N
071994061999999000013008TMARIA ISABEL ZAZO RAMOS                                                     000000000000000000N
071994061999999000013009TJOSE LUIS GARCIA CANCIO                                                     000000000000000000N
071994061999999000014001TJOSE MARIA RUIZ-MATEOS JIMENEZ DE TEJADA                                    000000000000000000N
071994061999999000014010TFRANCISCO MARTINEZ VALENCIA                                                 000000000000000000N
071994061999999000014011TCARLOS GALLEGO PAREDES                                                      000000000000000000N
071994061999999000014012TRAFAEL GARCIA REDUELLO                                                      000000000000000000N
071994061999999000014013THUMBERTO ANGEL OTERO LEONARD                                                000000000000000000N
071994061999999000014014TANTONIO ISLA MINGORANCE                                                     000000000000000000N
071994061999999000014015TVICTOR TOMAS DE LA CRUZ GIL                                                 000000000000000000N
071994061999999000014016TJOSEFA RODRIGUEZ VERANO                                                     000000000000000000N
071994061999999000014017TLUIS JULIAN PEREZ RIVEIRO                                                   000000000000000000N
071994061999999000014018TCARMEN FORONDA RIVADA                                                       000000000000000000N
071994061999999000014019TJESUS ARIJA GUANTES                                                         000000000000000000N
071994061999999000014002TCARMEN LOBELLE ALEN                                                         000000000000000000N
071994061999999000014020TJOAQUIN SOGUERO ROMEA                                                       000000000000000000N
071994061999999000014021TMANUELA ESCURIN MARTINEZ                                                    000000000000000000N
071994061999999000014022TJOSE IGNACIO HERNANDEZ ALONSO                                               000000000000000000N
071994061999999000014023TCARLOS VILLAHOZ DE LA FUENTE                                                000000000000000000N
071994061999999000014024TMARIA DEL MAR ELORZA NORIEGA                                                000000000000000000N
071994061999999000014025TADOLFO RIVERO FERNANDEZ                                                     000000000000000000N
071994061999999000014026TJOSE GUZMAN COCA                                                            000000000000000000N
071994061999999000014027TMIGUEL ANGEL PAZOS DIAZ                                                     000000000000000000N
071994061999999000014028TPRIMITIVO LOPEZ HERNANDEZ                                                   000000000000000000N
071994061999999000014029TMARIA DEL CARMEN ALONSO FERNANDEZ                                           000000000000000000N
071994061999999000014003TJOAQUIN YVANCOS MUÑIZ                                                       000000000000000000N
071994061999999000014030TALBERTO PERREAU DE PINNINCK BALLESTA                                        000000000000000000N
071994061999999000014031TFRANCISCO MARTINEZ ASENSIO                                                  000000000000000000N
071994061999999000014032TGREGORIO MOLINA VILLASEÑOR                                                  000000000000000000N
071994061999999000014033TPEDRO GARCIA OLIVER                                                         000000000000000000N
071994061999999000014034TJOSE LUIS RODRIGUEZ MOYANO                                                  000000000000000000N
071994061999999000014035TJOSE CABRERO BOLEA                                                          000000000000000000N
071994061999999000014036TMIGUEL ANGEL GARCIA BARRERO                                                 000000000000000000N
071994061999999000014037TCATALINA SANCHEZ GUTIERREZ                                                  000000000000000000N
071994061999999000014038TJOSE LUIS DEL CAMPO GONZALEZ                                                000000000000000000N
071994061999999000014039TJOSE LUIS GONZALEZ CORRAL                                                   000000000000000000N
071994061999999000014004TALFONSO MARIA RUIZ-MATEOS RIVERO                                            000000000000000000N
071994061999999000014040TLORENZO AZKUNAGA CAMIRUAGA                                                  000000000000000000N
071994061999999000014041TJOSE MANUEL PELETEIRO PEREZ                                                 000000000000000000N
071994061999999000014042TMANUEL AGUSTIN FERNANDEZ DELGADO                                            000000000000000000N
071994061999999000014043TANA MARIA GIL PEREZ                                                         000000000000000000N
071994061999999000014044TMANUEL VELARTE CASTELLAR                                                    000000000000000000N
071994061999999000014045TSIRO PALOMAR MARTINEZ                                                       000000000000000000N
071994061999999000014046TMARIA JOSE SANCHEZ-CORRAL GIRALT                                            000000000000000000N
071994061999999000014047TMANUEL CALERO BARCOJO                                                       000000000000000000N
071994061999999000014048TMARIA PAZ BOROBIA LORENTE                                                   000000000000000000N
071994061999999000014049TPATROCINIO ROBLEDO VIANA                                                    000000000000000000N
071994061999999000014005TALFONSO BARON RIVERO                                                        000000000000000000N
071994061999999000014050TSANTIAGO BARTOLOME TEJEDOR                                                  000000000000000000N
071994061999999000014051TBENIGNO GARCIA LLAMAZARES                                                   000000000000000000N
071994061999999000014052TMIGUEL ANGEL LOPEZ ARANDA                                                   000000000000000000N
071994061999999000014053TTOMAS DESCALZO APARICIO                                                     000000000000000000N
071994061999999000014054TANDRES PARDAL PEDREÑO                                                       000000000000000000N
071994061999999000014055TANA MARIA DEL CARMEN MEDINA CASTELLANOS                                     000000000000000000N
071994061999999000014056TLUIS AMADEO GONZALEZ CAMPOS                                                 000000000000000000N
071994061999999000014057TJAVIER GARRIDO DE LA CIERVA                                                 000000000000000000N
071994061999999000014058TMANUEL BERNAL CONTRERAS                                                     000000000000000000N
071994061999999000014059TMARIA TERESA GARATE RUBIO                                                   000000000000000000N
071994061999999000014006TJESUS SOLANA MARTIN                                                         000000000000000000N
071994061999999000014060TJOSE ANTONIO HURTADO GARCIA                                                 000000000000000000N
071994061999999000014061TLAURA BERGAMIN SERRANO                                                      000000000000000000N
071994061999999000014062TANDRES LOMBARDIA DE LILLO                                                   000000000000000000N
071994061999999000014063TENRIQUE PARADELA GONZALEZ                                                   000000000000000000N
071994061999999000014064TNURIA MILAGROSA MARIA VIDAL DE PEDRO                                        000000000000000000N
071994061999999000014007TCARLOS BLANCO-RAJOY MARTINEZ REBOREDO                                       000000000000000000N
071994061999999000014008TMANUEL VACA DE OSMA ESTEBAN DE LA REGUERA                                   000000000000000000N
071994061999999000014009TPILAR GALLEGO ESTEBAN                                                       000000000000000000N
071994061999999000015001TJOSE MARIA RODRIGUEZ SANTA                                                  000000000000000000N
071994061999999000015010TJESUS MARTIN MARTIN                                                         000000000000000000N
071994061999999000015011TJOSE JULIO TIEMBLO PEREZ                                                    000000000000000000N
071994061999999000015012TEDUARDO ATANES MORCUENDE                                                    000000000000000000N
071994061999999000015013TANGEL GONZALEZ VAZQUEZ                                                      000000000000000000N
071994061999999000015014TCARLOS GARCIA GOMEZ                                                         000000000000000000N
071994061999999000015015TANGEL AVILA NUÑEZ                                                           000000000000000000N
071994061999999000015016TJOSE ANTONIO RODRIGUEZ LUCEÑO                                               000000000000000000N
071994061999999000015017TFELIX OLIVA RUIZ                                                            000000000000000000N
071994061999999000015018TMATILDE VELO SOLIS                                                          000000000000000000N
071994061999999000015019TANTONIO PEREZ GARCIA                                                        000000000000000000N
071994061999999000015002TVICTORIANO DURAN MORENO                                                     000000000000000000N
071994061999999000015020TMARIA MONTSERRAT MORIENTE RIVAS                                             000000000000000000N
071994061999999000015021TFERNANDO UBIERA NIGEROL                                                     000000000000000000N
071994061999999000015022TJOSE ANTONIO ACOSTA REYES                                                   000000000000000000N
071994061999999000015023TANGEL JIMENEZ URBINA                                                        000000000000000000N
071994061999999000015024TJOSE MARIA MATEOS GOMEZ                                                     000000000000000000N
071994061999999000015025TMARCELINO MORENO SIMON                                                      000000000000000000N
071994061999999000015026TJESUS PACHECO GONZALEZ                                                      000000000000000000N
071994061999999000015027TJOSE ANTONIO MORENO GARCIA                                                  000000000000000000N
071994061999999000015028TJOSE VILLAR MENOR                                                           000000000000000000N
071994061999999000015029TPEDRO MANUEL CASTAÑAR MARTIN                                                000000000000000000N
071994061999999000015003TJOSE MATEOS GOMEZ                                                           000000000000000000N
071994061999999000015030TPAULINO DIAZ ARCAZ                                                          000000000000000000N
071994061999999000015031TPEDRO PEREZ GIJON                                                           000000000000000000N
071994061999999000015032TJUAN PIZARRO OSADO                                                          000000000000000000N
071994061999999000015033TANTONIO URBAN ROMERO                                                        000000000000000000N
071994061999999000015034THORTENSIA GARCIA BLANCO                                                     000000000000000000N
071994061999999000015035TELADIO ALFONSO SANCHEZ SANTA                                                000000000000000000N
071994061999999000015036TBENIGNO JESUS PEREZ AGUILAR                                                 000000000000000000N
071994061999999000015037TFELIX SELLER DAZA                                                           000000000000000000N
071994061999999000015038TANTONIO MORALES JIMENEZ                                                     000000000000000000N
071994061999999000015039TALICIA MARTIN MARCOS                                                        000000000000000000N
071994061999999000015004TROBERTO PEREZ SAGOLS                                                        000000000000000000N
071994061999999000015040TNEMESIA GOMEZ JIMENEZ                                                       000000000000000000N
071994061999999000015041TANTONIO CRUZ GAMEZ                                                          000000000000000000N
071994061999999000015042TFRANCISCO JAVIER RODRIGUEZ LOPEZ                                            000000000000000000N
071994061999999000015043TMARIA DEL CARMEN PACHECO GONZALEZ                                           000000000000000000N
071994061999999000015044TFRANCISCO CORTES MATEOS                                                     000000000000000000N
071994061999999000015045TMANUEL CAÑO CANTERO                                                         000000000000000000N
071994061999999000015046TJORGE VELO CARRETERO                                                        000000000000000000N
071994061999999000015047TVALENTIN GARCIA PERAL                                                       000000000000000000N
071994061999999000015048TJUAN DE LUCAS BERROCOSO                                                     000000000000000000N
071994061999999000015049TVICENTE WENCESLAO GARCIA DAZA                                               000000000000000000N
071994061999999000015005TFELIX EZCAY ORTEGA                                                          000000000000000000N
071994061999999000015050TAGUSTIN SANCHEZ HERAS                                                       000000000000000000N
071994061999999000015051TVICTOR GONZALEZ MARTIN                                                      000000000000000000N
071994061999999000015052TMARCELO GONZALEZ VEGA                                                       000000000000000000N
071994061999999000015053TMARCELINO SERRANO SANCHEZ                                                   000000000000000000N
071994061999999000015054TEMILIO ARROYO BERMEJO                                                       000000000000000000N
071994061999999000015055TMARIA BEGOÑA JIMENEZ SERRANO                                                000000000000000000N
071994061999999000015056TJOSE LUIS SANCHEZ CORDERO                                                   000000000000000000N
071994061999999000015057TCLEMENTE RODRIGUEZ ARCEREDILLO                                              000000000000000000N
071994061999999000015058TJUAN JOSE SAAVEDRA PEREZ                                                    000000000000000000N
071994061999999000015059TJOSE ESPINO MARTIN                                                          000000000000000000N
071994061999999000015006TJOSE TEJEDOR DIAZ                                                           000000000000000000N
071994061999999000015060TMARCELO ACOSTA REYES                                                        000000000000000000N
071994061999999000015061TFERNANDO VAZQUEZ ALONSO                                                     000000000000000000N
